{
	"contracts/DeAnt3Token.sol": {
		"DeAnt3Token": {
			"abi": [
				{
					"anonymous": false,
					"inputs": [
						{
							"indexed": true,
							"internalType": "address",
							"name": "owner",
							"type": "address"
						},
						{
							"indexed": true,
							"internalType": "address",
							"name": "spender",
							"type": "address"
						},
						{
							"indexed": false,
							"internalType": "uint256",
							"name": "value",
							"type": "uint256"
						}
					],
					"name": "Approval",
					"type": "event"
				},
				{
					"anonymous": false,
					"inputs": [
						{
							"indexed": false,
							"internalType": "uint8",
							"name": "version",
							"type": "uint8"
						}
					],
					"name": "Initialized",
					"type": "event"
				},
				{
					"anonymous": false,
					"inputs": [
						{
							"indexed": true,
							"internalType": "address",
							"name": "previousOwner",
							"type": "address"
						},
						{
							"indexed": true,
							"internalType": "address",
							"name": "newOwner",
							"type": "address"
						}
					],
					"name": "OwnershipTransferred",
					"type": "event"
				},
				{
					"anonymous": false,
					"inputs": [
						{
							"indexed": true,
							"internalType": "address",
							"name": "from",
							"type": "address"
						},
						{
							"indexed": true,
							"internalType": "address",
							"name": "to",
							"type": "address"
						},
						{
							"indexed": false,
							"internalType": "uint256",
							"name": "value",
							"type": "uint256"
						}
					],
					"name": "Transfer",
					"type": "event"
				},
				{
					"inputs": [
						{
							"internalType": "address",
							"name": "owner",
							"type": "address"
						},
						{
							"internalType": "address",
							"name": "spender",
							"type": "address"
						}
					],
					"name": "allowance",
					"outputs": [
						{
							"internalType": "uint256",
							"name": "",
							"type": "uint256"
						}
					],
					"stateMutability": "view",
					"type": "function"
				},
				{
					"inputs": [
						{
							"internalType": "address",
							"name": "spender",
							"type": "address"
						},
						{
							"internalType": "uint256",
							"name": "amount",
							"type": "uint256"
						}
					],
					"name": "approve",
					"outputs": [
						{
							"internalType": "bool",
							"name": "",
							"type": "bool"
						}
					],
					"stateMutability": "nonpayable",
					"type": "function"
				},
				{
					"inputs": [
						{
							"internalType": "address",
							"name": "account",
							"type": "address"
						}
					],
					"name": "balanceOf",
					"outputs": [
						{
							"internalType": "uint256",
							"name": "",
							"type": "uint256"
						}
					],
					"stateMutability": "view",
					"type": "function"
				},
				{
					"inputs": [],
					"name": "cap",
					"outputs": [
						{
							"internalType": "uint256",
							"name": "",
							"type": "uint256"
						}
					],
					"stateMutability": "view",
					"type": "function"
				},
				{
					"inputs": [],
					"name": "decimals",
					"outputs": [
						{
							"internalType": "uint8",
							"name": "",
							"type": "uint8"
						}
					],
					"stateMutability": "view",
					"type": "function"
				},
				{
					"inputs": [
						{
							"internalType": "address",
							"name": "spender",
							"type": "address"
						},
						{
							"internalType": "uint256",
							"name": "subtractedValue",
							"type": "uint256"
						}
					],
					"name": "decreaseAllowance",
					"outputs": [
						{
							"internalType": "bool",
							"name": "",
							"type": "bool"
						}
					],
					"stateMutability": "nonpayable",
					"type": "function"
				},
				{
					"inputs": [],
					"name": "getTokenOwnerAddress",
					"outputs": [
						{
							"internalType": "address",
							"name": "",
							"type": "address"
						}
					],
					"stateMutability": "view",
					"type": "function"
				},
				{
					"inputs": [
						{
							"internalType": "address",
							"name": "spender",
							"type": "address"
						},
						{
							"internalType": "uint256",
							"name": "addedValue",
							"type": "uint256"
						}
					],
					"name": "increaseAllowance",
					"outputs": [
						{
							"internalType": "bool",
							"name": "",
							"type": "bool"
						}
					],
					"stateMutability": "nonpayable",
					"type": "function"
				},
				{
					"inputs": [
						{
							"internalType": "string",
							"name": "_NAME",
							"type": "string"
						},
						{
							"internalType": "string",
							"name": "_SYMBOL",
							"type": "string"
						},
						{
							"internalType": "uint8",
							"name": "_DECIMALS",
							"type": "uint8"
						},
						{
							"internalType": "uint256",
							"name": "cap",
							"type": "uint256"
						},
						{
							"internalType": "uint256",
							"name": "initialBalance",
							"type": "uint256"
						},
						{
							"internalType": "uint256",
							"name": "taxFee",
							"type": "uint256"
						},
						{
							"internalType": "address",
							"name": "tokenOwnerAddress",
							"type": "address"
						}
					],
					"name": "initialize",
					"outputs": [],
					"stateMutability": "nonpayable",
					"type": "function"
				},
				{
					"inputs": [
						{
							"internalType": "address",
							"name": "signer",
							"type": "address"
						}
					],
					"name": "mapSigner",
					"outputs": [
						{
							"internalType": "bool",
							"name": "",
							"type": "bool"
						}
					],
					"stateMutability": "view",
					"type": "function"
				},
				{
					"inputs": [],
					"name": "name",
					"outputs": [
						{
							"internalType": "string",
							"name": "",
							"type": "string"
						}
					],
					"stateMutability": "view",
					"type": "function"
				},
				{
					"inputs": [],
					"name": "owner",
					"outputs": [
						{
							"internalType": "address",
							"name": "",
							"type": "address"
						}
					],
					"stateMutability": "view",
					"type": "function"
				},
				{
					"inputs": [
						{
							"internalType": "address payable",
							"name": "recipient",
							"type": "address"
						},
						{
							"internalType": "uint256",
							"name": "uniqueId",
							"type": "uint256"
						},
						{
							"internalType": "uint256",
							"name": "amount",
							"type": "uint256"
						},
						{
							"internalType": "uint256",
							"name": "deadline",
							"type": "uint256"
						},
						{
							"internalType": "uint8[]",
							"name": "v",
							"type": "uint8[]"
						},
						{
							"internalType": "bytes32[]",
							"name": "r",
							"type": "bytes32[]"
						},
						{
							"internalType": "bytes32[]",
							"name": "s",
							"type": "bytes32[]"
						}
					],
					"name": "permitMint",
					"outputs": [],
					"stateMutability": "nonpayable",
					"type": "function"
				},
				{
					"inputs": [],
					"name": "renounceOwnership",
					"outputs": [],
					"stateMutability": "nonpayable",
					"type": "function"
				},
				{
					"inputs": [
						{
							"internalType": "address[]",
							"name": "signers_",
							"type": "address[]"
						}
					],
					"name": "setSigners",
					"outputs": [],
					"stateMutability": "nonpayable",
					"type": "function"
				},
				{
					"inputs": [],
					"name": "signers",
					"outputs": [
						{
							"internalType": "address[]",
							"name": "",
							"type": "address[]"
						}
					],
					"stateMutability": "view",
					"type": "function"
				},
				{
					"inputs": [],
					"name": "symbol",
					"outputs": [
						{
							"internalType": "string",
							"name": "",
							"type": "string"
						}
					],
					"stateMutability": "view",
					"type": "function"
				},
				{
					"inputs": [],
					"name": "totalSupply",
					"outputs": [
						{
							"internalType": "uint256",
							"name": "",
							"type": "uint256"
						}
					],
					"stateMutability": "view",
					"type": "function"
				},
				{
					"inputs": [
						{
							"internalType": "address",
							"name": "recipient",
							"type": "address"
						},
						{
							"internalType": "uint256",
							"name": "amount",
							"type": "uint256"
						}
					],
					"name": "transfer",
					"outputs": [
						{
							"internalType": "bool",
							"name": "",
							"type": "bool"
						}
					],
					"stateMutability": "nonpayable",
					"type": "function"
				},
				{
					"inputs": [
						{
							"internalType": "address",
							"name": "from",
							"type": "address"
						},
						{
							"internalType": "address",
							"name": "to",
							"type": "address"
						},
						{
							"internalType": "uint256",
							"name": "amount",
							"type": "uint256"
						}
					],
					"name": "transferFrom",
					"outputs": [
						{
							"internalType": "bool",
							"name": "",
							"type": "bool"
						}
					],
					"stateMutability": "nonpayable",
					"type": "function"
				},
				{
					"inputs": [
						{
							"internalType": "address",
							"name": "newOwner",
							"type": "address"
						}
					],
					"name": "transferOwnership",
					"outputs": [],
					"stateMutability": "nonpayable",
					"type": "function"
				},
				{
					"inputs": [
						{
							"internalType": "uint256",
							"name": "",
							"type": "uint256"
						}
					],
					"name": "uniqueIdExists",
					"outputs": [
						{
							"internalType": "bool",
							"name": "",
							"type": "bool"
						}
					],
					"stateMutability": "view",
					"type": "function"
				},
				{
					"inputs": [
						{
							"internalType": "address",
							"name": "",
							"type": "address"
						}
					],
					"name": "userTotalBurned",
					"outputs": [
						{
							"internalType": "uint256",
							"name": "",
							"type": "uint256"
						}
					],
					"stateMutability": "view",
					"type": "function"
				},
				{
					"stateMutability": "payable",
					"type": "receive"
				}
			],
			"devdoc": {
				"kind": "dev",
				"methods": {
					"allowance(address,address)": {
						"details": "See {IERC20-allowance}."
					},
					"approve(address,uint256)": {
						"details": "See {IERC20-approve}. NOTE: If `amount` is the maximum `uint256`, the allowance is not updated on `transferFrom`. This is semantically equivalent to an infinite approval. Requirements: - `spender` cannot be the zero address."
					},
					"balanceOf(address)": {
						"details": "See {IERC20-balanceOf}."
					},
					"cap()": {
						"details": "Returns the cap on the token's total supply."
					},
					"decimals()": {
						"details": "Returns the number of decimals used to get its user representation. For example, if `decimals` equals `2`, a balance of `505` tokens should be displayed to a user as `5.05` (`505 / 10 ** 2`). Tokens usually opt for a value of 18, imitating the relationship between Ether and Wei. This is the value {ERC20} uses, unless this function is overridden; NOTE: This information is only used for _display_ purposes: it in no way affects any of the arithmetic of the contract, including {IERC20-balanceOf} and {IERC20-transfer}."
					},
					"decreaseAllowance(address,uint256)": {
						"details": "Atomically decreases the allowance granted to `spender` by the caller. This is an alternative to {approve} that can be used as a mitigation for problems described in {IERC20-approve}. Emits an {Approval} event indicating the updated allowance. Requirements: - `spender` cannot be the zero address. - `spender` must have allowance for the caller of at least `subtractedValue`."
					},
					"increaseAllowance(address,uint256)": {
						"details": "Atomically increases the allowance granted to `spender` by the caller. This is an alternative to {approve} that can be used as a mitigation for problems described in {IERC20-approve}. Emits an {Approval} event indicating the updated allowance. Requirements: - `spender` cannot be the zero address."
					},
					"name()": {
						"details": "Returns the name of the token."
					},
					"owner()": {
						"details": "Returns the address of the current owner."
					},
					"renounceOwnership()": {
						"details": "Leaves the contract without owner. It will not be possible to call `onlyOwner` functions anymore. Can only be called by the current owner. NOTE: Renouncing ownership will leave the contract without an owner, thereby removing any functionality that is only available to the owner."
					},
					"symbol()": {
						"details": "Returns the symbol of the token, usually a shorter version of the name."
					},
					"totalSupply()": {
						"details": "See {IERC20-totalSupply}."
					},
					"transferFrom(address,address,uint256)": {
						"details": "See {IERC20-transferFrom}. Emits an {Approval} event indicating the updated allowance. This is not required by the EIP. See the note at the beginning of {ERC20}. NOTE: Does not update the allowance if the current allowance is the maximum `uint256`. Requirements: - `from` and `to` cannot be the zero address. - `from` must have a balance of at least `amount`. - the caller must have allowance for ``from``'s tokens of at least `amount`."
					},
					"transferOwnership(address)": {
						"details": "Transfers ownership of the contract to a new account (`newOwner`). Can only be called by the current owner."
					}
				},
				"version": 1
			},
			"evm": {
				"assembly": "    /* \"contracts/DeAnt3Token.sol\":243:5369  contract DeAnt3Token is ERC20CappedUpgradeable, OwnableUpgradeable {... */\n  mstore(0x40, 0x80)\n  callvalue\n  dup1\n  iszero\n  tag_1\n  jumpi\n  0x00\n  dup1\n  revert\ntag_1:\n  pop\n  dataSize(sub_0)\n  dup1\n  dataOffset(sub_0)\n  0x00\n  codecopy\n  0x00\n  return\nstop\n\nsub_0: assembly {\n        /* \"contracts/DeAnt3Token.sol\":243:5369  contract DeAnt3Token is ERC20CappedUpgradeable, OwnableUpgradeable {... */\n      mstore(0x40, 0x80)\n      jumpi(tag_1, lt(calldatasize, 0x04))\n      shr(0xe0, calldataload(0x00))\n      dup1\n      0x70a08231\n      gt\n      tag_26\n      jumpi\n      dup1\n      0xa9059cbb\n      gt\n      tag_27\n      jumpi\n      dup1\n      0xa9059cbb\n      eq\n      tag_20\n      jumpi\n      dup1\n      0xb722d0a5\n      eq\n      tag_21\n      jumpi\n      dup1\n      0xdd62ed3e\n      eq\n      tag_22\n      jumpi\n      dup1\n      0xe4c97e6a\n      eq\n      tag_23\n      jumpi\n      dup1\n      0xf2fde38b\n      eq\n      tag_24\n      jumpi\n      dup1\n      0xf9342285\n      eq\n      tag_25\n      jumpi\n      0x00\n      dup1\n      revert\n    tag_27:\n      dup1\n      0x70a08231\n      eq\n      tag_14\n      jumpi\n      dup1\n      0x715018a6\n      eq\n      tag_15\n      jumpi\n      dup1\n      0x8da5cb5b\n      eq\n      tag_16\n      jumpi\n      dup1\n      0x95d89b41\n      eq\n      tag_17\n      jumpi\n      dup1\n      0xa3772662\n      eq\n      tag_18\n      jumpi\n      dup1\n      0xa457c2d7\n      eq\n      tag_19\n      jumpi\n      0x00\n      dup1\n      revert\n    tag_26:\n      dup1\n      0x23b872dd\n      gt\n      tag_28\n      jumpi\n      dup1\n      0x23b872dd\n      eq\n      tag_8\n      jumpi\n      dup1\n      0x313ce567\n      eq\n      tag_9\n      jumpi\n      dup1\n      0x355274ea\n      eq\n      tag_10\n      jumpi\n      dup1\n      0x39509351\n      eq\n      tag_11\n      jumpi\n      dup1\n      0x46f0975a\n      eq\n      tag_12\n      jumpi\n      dup1\n      0x55d13009\n      eq\n      tag_13\n      jumpi\n      0x00\n      dup1\n      revert\n    tag_28:\n      dup1\n      0x06fdde03\n      eq\n      tag_3\n      jumpi\n      dup1\n      0x07c351dd\n      eq\n      tag_4\n      jumpi\n      dup1\n      0x095ea7b3\n      eq\n      tag_5\n      jumpi\n      dup1\n      0x18160ddd\n      eq\n      tag_6\n      jumpi\n      dup1\n      0x1e0d4ce9\n      eq\n      tag_7\n      jumpi\n      0x00\n      dup1\n      revert\n    tag_1:\n      jumpi(tag_2, calldatasize)\n      stop\n    tag_2:\n      0x00\n      dup1\n      revert\n        /* \"@openzeppelin/contracts-upgradeable/token/ERC20/ERC20Upgradeable.sol\":2493:2591  function name() public view virtual override returns (string memory) {... */\n    tag_3:\n      callvalue\n      dup1\n      iszero\n      tag_31\n      jumpi\n      0x00\n      dup1\n      revert\n    tag_31:\n      pop\n      tag_32\n      tag_33\n      jump\t// in\n    tag_32:\n      mload(0x40)\n      tag_34\n      swap2\n      swap1\n      tag_35\n      jump\t// in\n    tag_34:\n      mload(0x40)\n      dup1\n      swap2\n      sub\n      swap1\n      return\n        /* \"contracts/DeAnt3Token.sol\":2123:2232  function mapSigner(address signer) external view returns (bool) {... */\n    tag_4:\n      callvalue\n      dup1\n      iszero\n      tag_36\n      jumpi\n      0x00\n      dup1\n      revert\n    tag_36:\n      pop\n      tag_37\n      tag_38\n      calldatasize\n      0x04\n      tag_39\n      jump\t// in\n    tag_38:\n      sub(shl(0xa0, 0x01), 0x01)\n        /* \"contracts/DeAnt3Token.sol\":2205:2224  _mapSigners[signer] */\n      and\n        /* \"contracts/DeAnt3Token.sol\":2181:2185  bool */\n      0x00\n        /* \"contracts/DeAnt3Token.sol\":2205:2224  _mapSigners[signer] */\n      swap1\n      dup2\n      mstore\n        /* \"contracts/DeAnt3Token.sol\":2205:2216  _mapSigners */\n      0xd3\n        /* \"contracts/DeAnt3Token.sol\":2205:2224  _mapSigners[signer] */\n      0x20\n      mstore\n      0x40\n      swap1\n      keccak256\n      sload\n      0xff\n      and\n      swap1\n        /* \"contracts/DeAnt3Token.sol\":2123:2232  function mapSigner(address signer) external view returns (bool) {... */\n      jump\n    tag_37:\n      mload(0x40)\n        /* \"#utility.yul\":1169:1183   */\n      swap1\n      iszero\n        /* \"#utility.yul\":1162:1184   */\n      iszero\n        /* \"#utility.yul\":1144:1185   */\n      dup2\n      mstore\n        /* \"#utility.yul\":1132:1134   */\n      0x20\n        /* \"#utility.yul\":1117:1135   */\n      add\n        /* \"contracts/DeAnt3Token.sol\":2123:2232  function mapSigner(address signer) external view returns (bool) {... */\n      tag_34\n        /* \"#utility.yul\":1004:1191   */\n      jump\n        /* \"@openzeppelin/contracts-upgradeable/token/ERC20/ERC20Upgradeable.sol\":4770:4967  function approve(address spender, uint256 amount) public virtual override returns (bool) {... */\n    tag_5:\n      callvalue\n      dup1\n      iszero\n      tag_43\n      jumpi\n      0x00\n      dup1\n      revert\n    tag_43:\n      pop\n      tag_37\n      tag_45\n      calldatasize\n      0x04\n      tag_46\n      jump\t// in\n    tag_45:\n      tag_47\n      jump\t// in\n        /* \"@openzeppelin/contracts-upgradeable/token/ERC20/ERC20Upgradeable.sol\":3581:3687  function totalSupply() public view virtual override returns (uint256) {... */\n    tag_6:\n      callvalue\n      dup1\n      iszero\n      tag_49\n      jumpi\n      0x00\n      dup1\n      revert\n    tag_49:\n      pop\n        /* \"@openzeppelin/contracts-upgradeable/token/ERC20/ERC20Upgradeable.sol\":3668:3680  _totalSupply */\n      sload(0x35)\n        /* \"@openzeppelin/contracts-upgradeable/token/ERC20/ERC20Upgradeable.sol\":3581:3687  function totalSupply() public view virtual override returns (uint256) {... */\n    tag_50:\n      mload(0x40)\n        /* \"#utility.yul\":1662:1687   */\n      swap1\n      dup2\n      mstore\n        /* \"#utility.yul\":1650:1652   */\n      0x20\n        /* \"#utility.yul\":1635:1653   */\n      add\n        /* \"@openzeppelin/contracts-upgradeable/token/ERC20/ERC20Upgradeable.sol\":3581:3687  function totalSupply() public view virtual override returns (uint256) {... */\n      tag_34\n        /* \"#utility.yul\":1516:1693   */\n      jump\n        /* \"contracts/DeAnt3Token.sol\":706:756  mapping(address => uint256) public userTotalBurned */\n    tag_7:\n      callvalue\n      dup1\n      iszero\n      tag_54\n      jumpi\n      0x00\n      dup1\n      revert\n    tag_54:\n      pop\n      tag_50\n      tag_56\n      calldatasize\n      0x04\n      tag_39\n      jump\t// in\n    tag_56:\n      mstore(0x20, 0xd5)\n      0x00\n      swap1\n      dup2\n      mstore\n      0x40\n      swap1\n      keccak256\n      sload\n      dup2\n      jump\n        /* \"contracts/DeAnt3Token.sol\":2962:3268  function transferFrom(... */\n    tag_8:\n      callvalue\n      dup1\n      iszero\n      tag_59\n      jumpi\n      0x00\n      dup1\n      revert\n    tag_59:\n      pop\n      tag_37\n      tag_61\n      calldatasize\n      0x04\n      tag_62\n      jump\t// in\n    tag_61:\n      tag_63\n      jump\t// in\n        /* \"contracts/DeAnt3Token.sol\":1449:1549  function decimals() public view virtual override returns (uint8) {... */\n    tag_9:\n      callvalue\n      dup1\n      iszero\n      tag_65\n      jumpi\n      0x00\n      dup1\n      revert\n    tag_65:\n      pop\n        /* \"contracts/DeAnt3Token.sol\":1532:1541  _decimals */\n      sload(0xcc)\n        /* \"contracts/DeAnt3Token.sol\":1449:1549  function decimals() public view virtual override returns (uint8) {... */\n      mload(0x40)\n        /* \"contracts/DeAnt3Token.sol\":1532:1541  _decimals */\n      0xff\n      swap1\n      swap2\n      and\n        /* \"#utility.yul\":2301:2337   */\n      dup2\n      mstore\n        /* \"#utility.yul\":2289:2291   */\n      0x20\n        /* \"#utility.yul\":2274:2292   */\n      add\n        /* \"contracts/DeAnt3Token.sol\":1449:1549  function decimals() public view virtual override returns (uint8) {... */\n      tag_34\n        /* \"#utility.yul\":2159:2343   */\n      jump\n        /* \"@openzeppelin/contracts-upgradeable/token/ERC20/extensions/ERC20CappedUpgradeable.sol\":929:1010  function cap() public view virtual returns (uint256) {... */\n    tag_10:\n      callvalue\n      dup1\n      iszero\n      tag_70\n      jumpi\n      0x00\n      dup1\n      revert\n    tag_70:\n      pop\n        /* \"@openzeppelin/contracts-upgradeable/token/ERC20/extensions/ERC20CappedUpgradeable.sol\":999:1003  _cap */\n      sload(0x65)\n        /* \"@openzeppelin/contracts-upgradeable/token/ERC20/extensions/ERC20CappedUpgradeable.sol\":929:1010  function cap() public view virtual returns (uint256) {... */\n      jump(tag_50)\n        /* \"@openzeppelin/contracts-upgradeable/token/ERC20/ERC20Upgradeable.sol\":6210:6444  function increaseAllowance(address spender, uint256 addedValue) public virtual returns (bool) {... */\n    tag_11:\n      callvalue\n      dup1\n      iszero\n      tag_74\n      jumpi\n      0x00\n      dup1\n      revert\n    tag_74:\n      pop\n      tag_37\n      tag_76\n      calldatasize\n      0x04\n      tag_46\n      jump\t// in\n    tag_76:\n      tag_77\n      jump\t// in\n        /* \"contracts/DeAnt3Token.sol\":1774:1868  function signers() external view returns (address[] memory) {... */\n    tag_12:\n      callvalue\n      dup1\n      iszero\n      tag_79\n      jumpi\n      0x00\n      dup1\n      revert\n    tag_79:\n      pop\n      tag_80\n      tag_81\n      jump\t// in\n    tag_80:\n      mload(0x40)\n      tag_34\n      swap2\n      swap1\n      tag_83\n      jump\t// in\n        /* \"contracts/DeAnt3Token.sol\":765:1404  function initialize(... */\n    tag_13:\n      callvalue\n      dup1\n      iszero\n      tag_84\n      jumpi\n      0x00\n      dup1\n      revert\n    tag_84:\n      pop\n      tag_85\n      tag_86\n      calldatasize\n      0x04\n      tag_87\n      jump\t// in\n    tag_86:\n      tag_88\n      jump\t// in\n    tag_85:\n      stop\n        /* \"@openzeppelin/contracts-upgradeable/token/ERC20/ERC20Upgradeable.sol\":3745:3870  function balanceOf(address account) public view virtual override returns (uint256) {... */\n    tag_14:\n      callvalue\n      dup1\n      iszero\n      tag_89\n      jumpi\n      0x00\n      dup1\n      revert\n    tag_89:\n      pop\n      tag_50\n      tag_91\n      calldatasize\n      0x04\n      tag_39\n      jump\t// in\n    tag_91:\n      sub(shl(0xa0, 0x01), 0x01)\n        /* \"@openzeppelin/contracts-upgradeable/token/ERC20/ERC20Upgradeable.sol\":3845:3863  _balances[account] */\n      and\n        /* \"@openzeppelin/contracts-upgradeable/token/ERC20/ERC20Upgradeable.sol\":3819:3826  uint256 */\n      0x00\n        /* \"@openzeppelin/contracts-upgradeable/token/ERC20/ERC20Upgradeable.sol\":3845:3863  _balances[account] */\n      swap1\n      dup2\n      mstore\n        /* \"@openzeppelin/contracts-upgradeable/token/ERC20/ERC20Upgradeable.sol\":3845:3854  _balances */\n      0x33\n        /* \"@openzeppelin/contracts-upgradeable/token/ERC20/ERC20Upgradeable.sol\":3845:3863  _balances[account] */\n      0x20\n      mstore\n      0x40\n      swap1\n      keccak256\n      sload\n      swap1\n        /* \"@openzeppelin/contracts-upgradeable/token/ERC20/ERC20Upgradeable.sol\":3745:3870  function balanceOf(address account) public view virtual override returns (uint256) {... */\n      jump\n        /* \"@openzeppelin/contracts-upgradeable/access/OwnableUpgradeable.sol\":2071:2172  function renounceOwnership() public virtual onlyOwner {... */\n    tag_15:\n      callvalue\n      dup1\n      iszero\n      tag_94\n      jumpi\n      0x00\n      dup1\n      revert\n    tag_94:\n      pop\n      tag_85\n      tag_96\n      jump\t// in\n        /* \"@openzeppelin/contracts-upgradeable/access/OwnableUpgradeable.sol\":1441:1526  function owner() public view virtual returns (address) {... */\n    tag_16:\n      callvalue\n      dup1\n      iszero\n      tag_97\n      jumpi\n      0x00\n      dup1\n      revert\n    tag_97:\n      pop\n        /* \"@openzeppelin/contracts-upgradeable/access/OwnableUpgradeable.sol\":1513:1519  _owner */\n      and(sub(shl(0xa0, 0x01), 0x01), sload(0x98))\n        /* \"@openzeppelin/contracts-upgradeable/access/OwnableUpgradeable.sol\":1441:1526  function owner() public view virtual returns (address) {... */\n    tag_98:\n      mload(0x40)\n      sub(shl(0xa0, 0x01), 0x01)\n        /* \"#utility.yul\":5245:5277   */\n      swap1\n      swap2\n      and\n        /* \"#utility.yul\":5227:5278   */\n      dup2\n      mstore\n        /* \"#utility.yul\":5215:5217   */\n      0x20\n        /* \"#utility.yul\":5200:5218   */\n      add\n        /* \"@openzeppelin/contracts-upgradeable/access/OwnableUpgradeable.sol\":1441:1526  function owner() public view virtual returns (address) {... */\n      tag_34\n        /* \"#utility.yul\":5081:5284   */\n      jump\n        /* \"@openzeppelin/contracts-upgradeable/token/ERC20/ERC20Upgradeable.sol\":2704:2806  function symbol() public view virtual override returns (string memory) {... */\n    tag_17:\n      callvalue\n      dup1\n      iszero\n      tag_102\n      jumpi\n      0x00\n      dup1\n      revert\n    tag_102:\n      pop\n      tag_32\n      tag_104\n      jump\t// in\n        /* \"contracts/DeAnt3Token.sol\":1876:2115  function setSigners(address[] memory signers_) external virtual onlyOwner {... */\n    tag_18:\n      callvalue\n      dup1\n      iszero\n      tag_106\n      jumpi\n      0x00\n      dup1\n      revert\n    tag_106:\n      pop\n      tag_85\n      tag_108\n      calldatasize\n      0x04\n      tag_109\n      jump\t// in\n    tag_108:\n      tag_110\n      jump\t// in\n        /* \"@openzeppelin/contracts-upgradeable/token/ERC20/ERC20Upgradeable.sol\":6931:7358  function decreaseAllowance(address spender, uint256 subtractedValue) public virtual returns (bool) {... */\n    tag_19:\n      callvalue\n      dup1\n      iszero\n      tag_111\n      jumpi\n      0x00\n      dup1\n      revert\n    tag_111:\n      pop\n      tag_37\n      tag_113\n      calldatasize\n      0x04\n      tag_46\n      jump\t// in\n    tag_113:\n      tag_114\n      jump\t// in\n        /* \"contracts/DeAnt3Token.sol\":2489:2954  function transfer(address recipient, uint256 amount)... */\n    tag_20:\n      callvalue\n      dup1\n      iszero\n      tag_116\n      jumpi\n      0x00\n      dup1\n      revert\n    tag_116:\n      pop\n      tag_37\n      tag_118\n      calldatasize\n      0x04\n      tag_46\n      jump\t// in\n    tag_118:\n      tag_119\n      jump\t// in\n        /* \"contracts/DeAnt3Token.sol\":1557:1663  function getTokenOwnerAddress() public view returns (address) {... */\n    tag_21:\n      callvalue\n      dup1\n      iszero\n      tag_121\n      jumpi\n      0x00\n      dup1\n      revert\n    tag_121:\n      pop\n        /* \"contracts/DeAnt3Token.sol\":1637:1655  _tokenOwnerAddress */\n      and(sub(shl(0xa0, 0x01), 0x01), sload(0xd1))\n        /* \"contracts/DeAnt3Token.sol\":1557:1663  function getTokenOwnerAddress() public view returns (address) {... */\n      jump(tag_98)\n        /* \"@openzeppelin/contracts-upgradeable/token/ERC20/ERC20Upgradeable.sol\":4313:4462  function allowance(address owner, address spender) public view virtual override returns (uint256) {... */\n    tag_22:\n      callvalue\n      dup1\n      iszero\n      tag_125\n      jumpi\n      0x00\n      dup1\n      revert\n    tag_125:\n      pop\n      tag_50\n      tag_127\n      calldatasize\n      0x04\n      tag_128\n      jump\t// in\n    tag_127:\n      tag_129\n      jump\t// in\n        /* \"contracts/DeAnt3Token.sol\":3676:4888  function permitMint(... */\n    tag_23:\n      callvalue\n      dup1\n      iszero\n      tag_131\n      jumpi\n      0x00\n      dup1\n      revert\n    tag_131:\n      pop\n      tag_85\n      tag_133\n      calldatasize\n      0x04\n      tag_134\n      jump\t// in\n    tag_133:\n      tag_135\n      jump\t// in\n        /* \"@openzeppelin/contracts-upgradeable/access/OwnableUpgradeable.sol\":2321:2519  function transferOwnership(address newOwner) public virtual onlyOwner {... */\n    tag_24:\n      callvalue\n      dup1\n      iszero\n      tag_136\n      jumpi\n      0x00\n      dup1\n      revert\n    tag_136:\n      pop\n      tag_85\n      tag_138\n      calldatasize\n      0x04\n      tag_39\n      jump\t// in\n    tag_138:\n      tag_139\n      jump\t// in\n        /* \"contracts/DeAnt3Token.sol\":653:699  mapping(uint256 => bool) public uniqueIdExists */\n    tag_25:\n      callvalue\n      dup1\n      iszero\n      tag_140\n      jumpi\n      0x00\n      dup1\n      revert\n    tag_140:\n      pop\n      tag_37\n      tag_142\n      calldatasize\n      0x04\n      tag_143\n      jump\t// in\n    tag_142:\n      mstore(0x20, 0xd4)\n      0x00\n      swap1\n      dup2\n      mstore\n      0x40\n      swap1\n      keccak256\n      sload\n      0xff\n      and\n      dup2\n      jump\n        /* \"@openzeppelin/contracts-upgradeable/token/ERC20/ERC20Upgradeable.sol\":2493:2591  function name() public view virtual override returns (string memory) {... */\n    tag_33:\n        /* \"@openzeppelin/contracts-upgradeable/token/ERC20/ERC20Upgradeable.sol\":2547:2560  string memory */\n      0x60\n        /* \"@openzeppelin/contracts-upgradeable/token/ERC20/ERC20Upgradeable.sol\":2579:2584  _name */\n      0x36\n        /* \"@openzeppelin/contracts-upgradeable/token/ERC20/ERC20Upgradeable.sol\":2572:2584  return _name */\n      dup1\n      sload\n      tag_147\n      swap1\n      tag_148\n      jump\t// in\n    tag_147:\n      dup1\n      0x1f\n      add\n      0x20\n      dup1\n      swap2\n      div\n      mul\n      0x20\n      add\n      mload(0x40)\n      swap1\n      dup2\n      add\n      0x40\n      mstore\n      dup1\n      swap3\n      swap2\n      swap1\n      dup2\n      dup2\n      mstore\n      0x20\n      add\n      dup3\n      dup1\n      sload\n      tag_149\n      swap1\n      tag_148\n      jump\t// in\n    tag_149:\n      dup1\n      iszero\n      tag_150\n      jumpi\n      dup1\n      0x1f\n      lt\n      tag_151\n      jumpi\n      0x0100\n      dup1\n      dup4\n      sload\n      div\n      mul\n      dup4\n      mstore\n      swap2\n      0x20\n      add\n      swap2\n      jump(tag_150)\n    tag_151:\n      dup3\n      add\n      swap2\n      swap1\n      0x00\n      mstore\n      keccak256(0x00, 0x20)\n      swap1\n    tag_152:\n      dup2\n      sload\n      dup2\n      mstore\n      swap1\n      0x01\n      add\n      swap1\n      0x20\n      add\n      dup1\n      dup4\n      gt\n      tag_152\n      jumpi\n      dup3\n      swap1\n      sub\n      0x1f\n      and\n      dup3\n      add\n      swap2\n    tag_150:\n      pop\n      pop\n      pop\n      pop\n      pop\n      swap1\n      pop\n        /* \"@openzeppelin/contracts-upgradeable/token/ERC20/ERC20Upgradeable.sol\":2493:2591  function name() public view virtual override returns (string memory) {... */\n      swap1\n      jump\t// out\n        /* \"@openzeppelin/contracts-upgradeable/token/ERC20/ERC20Upgradeable.sol\":4770:4967  function approve(address spender, uint256 amount) public virtual override returns (bool) {... */\n    tag_47:\n        /* \"@openzeppelin/contracts-upgradeable/token/ERC20/ERC20Upgradeable.sol\":4853:4857  bool */\n      0x00\n        /* \"@openzeppelin/contracts-upgradeable/utils/ContextUpgradeable.sol\":929:939  msg.sender */\n      caller\n        /* \"@openzeppelin/contracts-upgradeable/token/ERC20/ERC20Upgradeable.sol\":4907:4939  _approve(owner, spender, amount) */\n      tag_157\n        /* \"@openzeppelin/contracts-upgradeable/utils/ContextUpgradeable.sol\":929:939  msg.sender */\n      dup2\n        /* \"@openzeppelin/contracts-upgradeable/token/ERC20/ERC20Upgradeable.sol\":4923:4930  spender */\n      dup6\n        /* \"@openzeppelin/contracts-upgradeable/token/ERC20/ERC20Upgradeable.sol\":4932:4938  amount */\n      dup6\n        /* \"@openzeppelin/contracts-upgradeable/token/ERC20/ERC20Upgradeable.sol\":4907:4915  _approve */\n      tag_158\n        /* \"@openzeppelin/contracts-upgradeable/token/ERC20/ERC20Upgradeable.sol\":4907:4939  _approve(owner, spender, amount) */\n      jump\t// in\n    tag_157:\n        /* \"@openzeppelin/contracts-upgradeable/token/ERC20/ERC20Upgradeable.sol\":4956:4960  true */\n      0x01\n        /* \"@openzeppelin/contracts-upgradeable/token/ERC20/ERC20Upgradeable.sol\":4949:4960  return true */\n      swap2\n      pop\n      pop\n        /* \"@openzeppelin/contracts-upgradeable/token/ERC20/ERC20Upgradeable.sol\":4770:4967  function approve(address spender, uint256 amount) public virtual override returns (bool) {... */\n    tag_154:\n      swap3\n      swap2\n      pop\n      pop\n      jump\t// out\n        /* \"contracts/DeAnt3Token.sol\":2962:3268  function transferFrom(... */\n    tag_63:\n        /* \"contracts/DeAnt3Token.sol\":3093:3097  bool */\n      0x00\n        /* \"contracts/DeAnt3Token.sol\":3110:3124  uint256 newAmt */\n      dup1\n        /* \"contracts/DeAnt3Token.sol\":3127:3152  _calculateBurnAmt(amount) */\n      tag_161\n        /* \"contracts/DeAnt3Token.sol\":3145:3151  amount */\n      dup4\n        /* \"contracts/DeAnt3Token.sol\":3127:3144  _calculateBurnAmt */\n      tag_162\n        /* \"contracts/DeAnt3Token.sol\":3127:3152  _calculateBurnAmt(amount) */\n      jump\t// in\n    tag_161:\n        /* \"contracts/DeAnt3Token.sol\":3110:3152  uint256 newAmt = _calculateBurnAmt(amount) */\n      swap1\n      pop\n        /* \"contracts/DeAnt3Token.sol\":3163:3191  _burnAndUpdate(from, newAmt) */\n      tag_163\n        /* \"contracts/DeAnt3Token.sol\":3178:3182  from */\n      dup6\n        /* \"contracts/DeAnt3Token.sol\":3184:3190  newAmt */\n      dup3\n        /* \"contracts/DeAnt3Token.sol\":3163:3177  _burnAndUpdate */\n      tag_164\n        /* \"contracts/DeAnt3Token.sol\":3163:3191  _burnAndUpdate(from, newAmt) */\n      jump\t// in\n    tag_163:\n        /* \"contracts/DeAnt3Token.sol\":3202:3238  super.transferFrom(from, to, amount) */\n      tag_165\n        /* \"contracts/DeAnt3Token.sol\":3221:3225  from */\n      dup6\n        /* \"contracts/DeAnt3Token.sol\":3227:3229  to */\n      dup6\n        /* \"contracts/DeAnt3Token.sol\":3231:3237  amount */\n      dup6\n        /* \"contracts/DeAnt3Token.sol\":3202:3220  super.transferFrom */\n      tag_166\n        /* \"contracts/DeAnt3Token.sol\":3202:3238  super.transferFrom(from, to, amount) */\n      jump\t// in\n    tag_165:\n      pop\n        /* \"contracts/DeAnt3Token.sol\":3256:3260  true */\n      0x01\n      swap6\n        /* \"contracts/DeAnt3Token.sol\":2962:3268  function transferFrom(... */\n      swap5\n      pop\n      pop\n      pop\n      pop\n      pop\n      jump\t// out\n        /* \"@openzeppelin/contracts-upgradeable/token/ERC20/ERC20Upgradeable.sol\":6210:6444  function increaseAllowance(address spender, uint256 addedValue) public virtual returns (bool) {... */\n    tag_77:\n        /* \"@openzeppelin/contracts-upgradeable/token/ERC20/ERC20Upgradeable.sol\":6298:6302  bool */\n      0x00\n        /* \"@openzeppelin/contracts-upgradeable/utils/ContextUpgradeable.sol\":929:939  msg.sender */\n      caller\n        /* \"@openzeppelin/contracts-upgradeable/token/ERC20/ERC20Upgradeable.sol\":6352:6416  _approve(owner, spender, allowance(owner, spender) + addedValue) */\n      tag_157\n        /* \"@openzeppelin/contracts-upgradeable/utils/ContextUpgradeable.sol\":929:939  msg.sender */\n      dup2\n        /* \"@openzeppelin/contracts-upgradeable/token/ERC20/ERC20Upgradeable.sol\":6368:6375  spender */\n      dup6\n        /* \"@openzeppelin/contracts-upgradeable/token/ERC20/ERC20Upgradeable.sol\":6405:6415  addedValue */\n      dup6\n        /* \"@openzeppelin/contracts-upgradeable/token/ERC20/ERC20Upgradeable.sol\":6377:6402  allowance(owner, spender) */\n      tag_172\n        /* \"@openzeppelin/contracts-upgradeable/utils/ContextUpgradeable.sol\":929:939  msg.sender */\n      dup4\n        /* \"@openzeppelin/contracts-upgradeable/token/ERC20/ERC20Upgradeable.sol\":6368:6375  spender */\n      dup4\n        /* \"@openzeppelin/contracts-upgradeable/token/ERC20/ERC20Upgradeable.sol\":6377:6386  allowance */\n      tag_129\n        /* \"@openzeppelin/contracts-upgradeable/token/ERC20/ERC20Upgradeable.sol\":6377:6402  allowance(owner, spender) */\n      jump\t// in\n    tag_172:\n        /* \"@openzeppelin/contracts-upgradeable/token/ERC20/ERC20Upgradeable.sol\":6377:6415  allowance(owner, spender) + addedValue */\n      tag_173\n      swap2\n      swap1\n      tag_174\n      jump\t// in\n    tag_173:\n        /* \"@openzeppelin/contracts-upgradeable/token/ERC20/ERC20Upgradeable.sol\":6352:6360  _approve */\n      tag_158\n        /* \"@openzeppelin/contracts-upgradeable/token/ERC20/ERC20Upgradeable.sol\":6352:6416  _approve(owner, spender, allowance(owner, spender) + addedValue) */\n      jump\t// in\n        /* \"contracts/DeAnt3Token.sol\":1774:1868  function signers() external view returns (address[] memory) {... */\n    tag_81:\n        /* \"contracts/DeAnt3Token.sol\":1816:1832  address[] memory */\n      0x60\n        /* \"contracts/DeAnt3Token.sol\":1852:1860  _signers */\n      0xd2\n        /* \"contracts/DeAnt3Token.sol\":1845:1860  return _signers */\n      dup1\n      sload\n      dup1\n      0x20\n      mul\n      0x20\n      add\n      mload(0x40)\n      swap1\n      dup2\n      add\n      0x40\n      mstore\n      dup1\n      swap3\n      swap2\n      swap1\n      dup2\n      dup2\n      mstore\n      0x20\n      add\n      dup3\n      dup1\n      sload\n      dup1\n      iszero\n      tag_150\n      jumpi\n      0x20\n      mul\n      dup3\n      add\n      swap2\n      swap1\n      0x00\n      mstore\n      keccak256(0x00, 0x20)\n      swap1\n    tag_177:\n      dup2\n      sload\n      sub(shl(0xa0, 0x01), 0x01)\n      and\n      dup2\n      mstore\n      0x01\n      swap1\n      swap2\n      add\n      swap1\n      0x20\n      add\n      dup1\n      dup4\n      gt\n      tag_177\n      jumpi\n      pop\n      pop\n      pop\n      pop\n      pop\n      swap1\n      pop\n        /* \"contracts/DeAnt3Token.sol\":1774:1868  function signers() external view returns (address[] memory) {... */\n      swap1\n      jump\t// out\n        /* \"contracts/DeAnt3Token.sol\":765:1404  function initialize(... */\n    tag_88:\n        /* \"@openzeppelin/contracts-upgradeable/proxy/utils/Initializable.sol\":3111:3130  bool isTopLevelCall */\n      0x00\n        /* \"@openzeppelin/contracts-upgradeable/proxy/utils/Initializable.sol\":3134:3147  _initializing */\n      sload\n      0x0100\n      swap1\n      div\n      0xff\n      and\n        /* \"@openzeppelin/contracts-upgradeable/proxy/utils/Initializable.sol\":3133:3147  !_initializing */\n      iszero\n      dup1\n        /* \"@openzeppelin/contracts-upgradeable/proxy/utils/Initializable.sol\":3179:3213  isTopLevelCall && _initialized < 1 */\n      dup1\n      iszero\n      tag_179\n      jumpi\n      pop\n        /* \"@openzeppelin/contracts-upgradeable/proxy/utils/Initializable.sol\":3197:3209  _initialized */\n      sload(0x00)\n        /* \"@openzeppelin/contracts-upgradeable/proxy/utils/Initializable.sol\":3212:3213  1 */\n      0x01\n        /* \"@openzeppelin/contracts-upgradeable/proxy/utils/Initializable.sol\":3197:3209  _initialized */\n      0xff\n      swap1\n      swap2\n      and\n        /* \"@openzeppelin/contracts-upgradeable/proxy/utils/Initializable.sol\":3197:3213  _initialized < 1 */\n      lt\n        /* \"@openzeppelin/contracts-upgradeable/proxy/utils/Initializable.sol\":3179:3213  isTopLevelCall && _initialized < 1 */\n    tag_179:\n        /* \"@openzeppelin/contracts-upgradeable/proxy/utils/Initializable.sol\":3178:3286  (isTopLevelCall && _initialized < 1) || (!AddressUpgradeable.isContract(address(this)) && _initialized == 1) */\n      dup1\n      tag_183\n      jumpi\n      pop\n        /* \"@openzeppelin/contracts-upgradeable/proxy/utils/Initializable.sol\":3258:3262  this */\n      address\n        /* \"@openzeppelin/contracts-upgradeable/utils/AddressUpgradeable.sol\":1476:1495  account.code.length */\n      extcodesize\n        /* \"@openzeppelin/contracts-upgradeable/utils/AddressUpgradeable.sol\":1476:1499  account.code.length > 0 */\n      iszero\n      dup1\n      iszero\n        /* \"@openzeppelin/contracts-upgradeable/proxy/utils/Initializable.sol\":3219:3285  !AddressUpgradeable.isContract(address(this)) && _initialized == 1 */\n      tag_183\n      jumpi\n      pop\n        /* \"@openzeppelin/contracts-upgradeable/proxy/utils/Initializable.sol\":3268:3280  _initialized */\n      and(0xff, sload(0x00))\n      0x01\n        /* \"@openzeppelin/contracts-upgradeable/proxy/utils/Initializable.sol\":3268:3285  _initialized == 1 */\n      eq\n        /* \"@openzeppelin/contracts-upgradeable/proxy/utils/Initializable.sol\":3219:3285  !AddressUpgradeable.isContract(address(this)) && _initialized == 1 */\n    tag_183:\n        /* \"@openzeppelin/contracts-upgradeable/proxy/utils/Initializable.sol\":3157:3358  require(... */\n      tag_184\n      jumpi\n      mload(0x40)\n      shl(0xe5, 0x461bcd)\n      dup2\n      mstore\n        /* \"#utility.yul\":10267:10269   */\n      0x20\n        /* \"@openzeppelin/contracts-upgradeable/proxy/utils/Initializable.sol\":3157:3358  require(... */\n      0x04\n      dup3\n      add\n        /* \"#utility.yul\":10249:10270   */\n      mstore\n        /* \"#utility.yul\":10306:10308   */\n      0x2e\n        /* \"#utility.yul\":10286:10304   */\n      0x24\n      dup3\n      add\n        /* \"#utility.yul\":10279:10309   */\n      mstore\n        /* \"#utility.yul\":10345:10379   */\n      0x496e697469616c697a61626c653a20636f6e747261637420697320616c726561\n        /* \"#utility.yul\":10325:10343   */\n      0x44\n      dup3\n      add\n        /* \"#utility.yul\":10318:10380   */\n      mstore\n      shl(0x92, 0x191e481a5b9a5d1a585b1a5e9959)\n        /* \"#utility.yul\":10396:10414   */\n      0x64\n      dup3\n      add\n        /* \"#utility.yul\":10389:10433   */\n      mstore\n        /* \"#utility.yul\":10450:10469   */\n      0x84\n      add\n        /* \"@openzeppelin/contracts-upgradeable/proxy/utils/Initializable.sol\":3157:3358  require(... */\n    tag_185:\n      mload(0x40)\n      dup1\n      swap2\n      sub\n      swap1\n      revert\n    tag_184:\n        /* \"@openzeppelin/contracts-upgradeable/proxy/utils/Initializable.sol\":3368:3380  _initialized */\n      0x00\n        /* \"@openzeppelin/contracts-upgradeable/proxy/utils/Initializable.sol\":3368:3384  _initialized = 1 */\n      dup1\n      sload\n      not(0xff)\n      and\n        /* \"@openzeppelin/contracts-upgradeable/proxy/utils/Initializable.sol\":3383:3384  1 */\n      0x01\n        /* \"@openzeppelin/contracts-upgradeable/proxy/utils/Initializable.sol\":3368:3384  _initialized = 1 */\n      or\n      swap1\n      sstore\n        /* \"@openzeppelin/contracts-upgradeable/proxy/utils/Initializable.sol\":3394:3459  if (isTopLevelCall) {... */\n      dup1\n      iszero\n      tag_187\n      jumpi\n        /* \"@openzeppelin/contracts-upgradeable/proxy/utils/Initializable.sol\":3428:3441  _initializing */\n      0x00\n        /* \"@openzeppelin/contracts-upgradeable/proxy/utils/Initializable.sol\":3428:3448  _initializing = true */\n      dup1\n      sload\n      not(0xff00)\n      and\n      0x0100\n      or\n      swap1\n      sstore\n        /* \"@openzeppelin/contracts-upgradeable/proxy/utils/Initializable.sol\":3394:3459  if (isTopLevelCall) {... */\n    tag_187:\n        /* \"contracts/DeAnt3Token.sol\":1026:1042  __Ownable_init() */\n      tag_189\n        /* \"contracts/DeAnt3Token.sol\":1026:1040  __Ownable_init */\n      tag_190\n        /* \"contracts/DeAnt3Token.sol\":1026:1042  __Ownable_init() */\n      jump\t// in\n    tag_189:\n        /* \"contracts/DeAnt3Token.sol\":1053:1081  __ERC20_init(_NAME, _SYMBOL) */\n      tag_191\n        /* \"contracts/DeAnt3Token.sol\":1066:1071  _NAME */\n      dup9\n        /* \"contracts/DeAnt3Token.sol\":1073:1080  _SYMBOL */\n      dup9\n        /* \"contracts/DeAnt3Token.sol\":1053:1065  __ERC20_init */\n      tag_192\n        /* \"contracts/DeAnt3Token.sol\":1053:1081  __ERC20_init(_NAME, _SYMBOL) */\n      jump\t// in\n    tag_191:\n        /* \"contracts/DeAnt3Token.sol\":1092:1131  __ERC20Capped_init(cap * 10**_DECIMALS) */\n      tag_193\n        /* \"contracts/DeAnt3Token.sol\":1117:1130  10**_DECIMALS */\n      tag_194\n        /* \"contracts/DeAnt3Token.sol\":1121:1130  _DECIMALS */\n      dup8\n        /* \"contracts/DeAnt3Token.sol\":1117:1119  10 */\n      0x0a\n        /* \"contracts/DeAnt3Token.sol\":1117:1130  10**_DECIMALS */\n      tag_195\n      jump\t// in\n    tag_194:\n        /* \"contracts/DeAnt3Token.sol\":1111:1130  cap * 10**_DECIMALS */\n      tag_196\n      swap1\n        /* \"contracts/DeAnt3Token.sol\":1111:1114  cap */\n      dup8\n        /* \"contracts/DeAnt3Token.sol\":1111:1130  cap * 10**_DECIMALS */\n      tag_197\n      jump\t// in\n    tag_196:\n        /* \"contracts/DeAnt3Token.sol\":1092:1110  __ERC20Capped_init */\n      tag_198\n        /* \"contracts/DeAnt3Token.sol\":1092:1131  __ERC20Capped_init(cap * 10**_DECIMALS) */\n      jump\t// in\n    tag_193:\n        /* \"contracts/DeAnt3Token.sol\":1142:1155  _name = _NAME */\n      dup8\n      mload\n      tag_199\n      swap1\n        /* \"contracts/DeAnt3Token.sol\":1142:1147  _name */\n      0xca\n      swap1\n        /* \"contracts/DeAnt3Token.sol\":1142:1155  _name = _NAME */\n      0x20\n      dup12\n      add\n      swap1\n      tag_200\n      jump\t// in\n    tag_199:\n      pop\n        /* \"contracts/DeAnt3Token.sol\":1166:1183  _symbol = _SYMBOL */\n      dup7\n      mload\n      tag_201\n      swap1\n        /* \"contracts/DeAnt3Token.sol\":1166:1173  _symbol */\n      0xcb\n      swap1\n        /* \"contracts/DeAnt3Token.sol\":1166:1183  _symbol = _SYMBOL */\n      0x20\n      dup11\n      add\n      swap1\n      tag_200\n      jump\t// in\n    tag_201:\n      pop\n        /* \"contracts/DeAnt3Token.sol\":1194:1203  _decimals */\n      0xcc\n        /* \"contracts/DeAnt3Token.sol\":1194:1215  _decimals = _DECIMALS */\n      dup1\n      sload\n      not(0xff)\n      and\n      0xff\n      dup9\n      and\n      or\n      swap1\n      sstore\n        /* \"contracts/DeAnt3Token.sol\":1239:1248  0.1 ether */\n      0x016345785d8a0000\n        /* \"contracts/DeAnt3Token.sol\":1226:1236  _rewardAmt */\n      0xcd\n        /* \"contracts/DeAnt3Token.sol\":1226:1248  _rewardAmt = 0.1 ether */\n      sstore\n        /* \"contracts/DeAnt3Token.sol\":1259:1263  _cap */\n      0xce\n        /* \"contracts/DeAnt3Token.sol\":1259:1269  _cap = cap */\n      dup6\n      swap1\n      sstore\n        /* \"contracts/DeAnt3Token.sol\":1280:1287  _taxFee */\n      0xcf\n        /* \"contracts/DeAnt3Token.sol\":1280:1296  _taxFee = taxFee */\n      dup4\n      swap1\n      sstore\n        /* \"contracts/DeAnt3Token.sol\":1307:1325  _tokenOwnerAddress */\n      0xd1\n        /* \"contracts/DeAnt3Token.sol\":1307:1345  _tokenOwnerAddress = tokenOwnerAddress */\n      dup1\n      sload\n      not(sub(shl(0xa0, 0x01), 0x01))\n      and\n      sub(shl(0xa0, 0x01), 0x01)\n      dup5\n      and\n      or\n      swap1\n      sstore\n        /* \"contracts/DeAnt3Token.sol\":1356:1396  _mint(tokenOwnerAddress, initialBalance) */\n      tag_202\n        /* \"contracts/DeAnt3Token.sol\":1307:1345  _tokenOwnerAddress = tokenOwnerAddress */\n      dup3\n        /* \"contracts/DeAnt3Token.sol\":1381:1395  initialBalance */\n      dup6\n        /* \"contracts/DeAnt3Token.sol\":1356:1361  _mint */\n      tag_203\n        /* \"contracts/DeAnt3Token.sol\":1356:1396  _mint(tokenOwnerAddress, initialBalance) */\n      jump\t// in\n    tag_202:\n        /* \"@openzeppelin/contracts-upgradeable/proxy/utils/Initializable.sol\":3483:3497  isTopLevelCall */\n      dup1\n        /* \"@openzeppelin/contracts-upgradeable/proxy/utils/Initializable.sol\":3479:3578  if (isTopLevelCall) {... */\n      iszero\n      tag_204\n      jumpi\n        /* \"@openzeppelin/contracts-upgradeable/proxy/utils/Initializable.sol\":3529:3534  false */\n      0x00\n        /* \"@openzeppelin/contracts-upgradeable/proxy/utils/Initializable.sol\":3513:3534  _initializing = false */\n      dup1\n      sload\n      not(0xff00)\n      and\n      swap1\n      sstore\n        /* \"@openzeppelin/contracts-upgradeable/proxy/utils/Initializable.sol\":3553:3567  Initialized(1) */\n      mload(0x40)\n      0x01\n        /* \"#utility.yul\":2301:2337   */\n      dup2\n      mstore\n        /* \"@openzeppelin/contracts-upgradeable/proxy/utils/Initializable.sol\":3553:3567  Initialized(1) */\n      0x7f26b83ff96e1f2b6a682f133852f6798a09c465da95921460cefb3847402498\n      swap1\n        /* \"#utility.yul\":2289:2291   */\n      0x20\n        /* \"#utility.yul\":2274:2292   */\n      add\n        /* \"@openzeppelin/contracts-upgradeable/proxy/utils/Initializable.sol\":3553:3567  Initialized(1) */\n      mload(0x40)\n      dup1\n      swap2\n      sub\n      swap1\n      log1\n        /* \"@openzeppelin/contracts-upgradeable/proxy/utils/Initializable.sol\":3479:3578  if (isTopLevelCall) {... */\n    tag_204:\n        /* \"@openzeppelin/contracts-upgradeable/proxy/utils/Initializable.sol\":3101:3584  {... */\n      pop\n        /* \"contracts/DeAnt3Token.sol\":765:1404  function initialize(... */\n      pop\n      pop\n      pop\n      pop\n      pop\n      pop\n      pop\n      jump\t// out\n        /* \"@openzeppelin/contracts-upgradeable/access/OwnableUpgradeable.sol\":2071:2172  function renounceOwnership() public virtual onlyOwner {... */\n    tag_96:\n        /* \"@openzeppelin/contracts-upgradeable/access/OwnableUpgradeable.sol\":1334:1347  _checkOwner() */\n      tag_209\n        /* \"@openzeppelin/contracts-upgradeable/access/OwnableUpgradeable.sol\":1334:1345  _checkOwner */\n      tag_210\n        /* \"@openzeppelin/contracts-upgradeable/access/OwnableUpgradeable.sol\":1334:1347  _checkOwner() */\n      jump\t// in\n    tag_209:\n        /* \"@openzeppelin/contracts-upgradeable/access/OwnableUpgradeable.sol\":2135:2165  _transferOwnership(address(0)) */\n      tag_212\n        /* \"@openzeppelin/contracts-upgradeable/access/OwnableUpgradeable.sol\":2162:2163  0 */\n      0x00\n        /* \"@openzeppelin/contracts-upgradeable/access/OwnableUpgradeable.sol\":2135:2153  _transferOwnership */\n      tag_213\n        /* \"@openzeppelin/contracts-upgradeable/access/OwnableUpgradeable.sol\":2135:2165  _transferOwnership(address(0)) */\n      jump\t// in\n    tag_212:\n        /* \"@openzeppelin/contracts-upgradeable/access/OwnableUpgradeable.sol\":2071:2172  function renounceOwnership() public virtual onlyOwner {... */\n      jump\t// out\n        /* \"@openzeppelin/contracts-upgradeable/token/ERC20/ERC20Upgradeable.sol\":2704:2806  function symbol() public view virtual override returns (string memory) {... */\n    tag_104:\n        /* \"@openzeppelin/contracts-upgradeable/token/ERC20/ERC20Upgradeable.sol\":2760:2773  string memory */\n      0x60\n        /* \"@openzeppelin/contracts-upgradeable/token/ERC20/ERC20Upgradeable.sol\":2792:2799  _symbol */\n      0x37\n        /* \"@openzeppelin/contracts-upgradeable/token/ERC20/ERC20Upgradeable.sol\":2785:2799  return _symbol */\n      dup1\n      sload\n      tag_147\n      swap1\n      tag_148\n      jump\t// in\n        /* \"contracts/DeAnt3Token.sol\":1876:2115  function setSigners(address[] memory signers_) external virtual onlyOwner {... */\n    tag_110:\n        /* \"@openzeppelin/contracts-upgradeable/access/OwnableUpgradeable.sol\":1334:1347  _checkOwner() */\n      tag_222\n        /* \"@openzeppelin/contracts-upgradeable/access/OwnableUpgradeable.sol\":1334:1345  _checkOwner */\n      tag_210\n        /* \"@openzeppelin/contracts-upgradeable/access/OwnableUpgradeable.sol\":1334:1347  _checkOwner() */\n      jump\t// in\n    tag_222:\n        /* \"contracts/DeAnt3Token.sol\":1961:2001  _updateMap(_signers, false, _mapSigners) */\n      tag_224\n        /* \"contracts/DeAnt3Token.sol\":1972:1980  _signers */\n      0xd2\n        /* \"contracts/DeAnt3Token.sol\":1961:2001  _updateMap(_signers, false, _mapSigners) */\n      dup1\n      sload\n      dup1\n      0x20\n      mul\n      0x20\n      add\n      mload(0x40)\n      swap1\n      dup2\n      add\n      0x40\n      mstore\n      dup1\n      swap3\n      swap2\n      swap1\n      dup2\n      dup2\n      mstore\n      0x20\n      add\n      dup3\n      dup1\n      sload\n      dup1\n      iszero\n      tag_225\n      jumpi\n      0x20\n      mul\n      dup3\n      add\n      swap2\n      swap1\n      0x00\n      mstore\n      keccak256(0x00, 0x20)\n      swap1\n    tag_226:\n      dup2\n      sload\n      sub(shl(0xa0, 0x01), 0x01)\n      and\n      dup2\n      mstore\n      0x01\n      swap1\n      swap2\n      add\n      swap1\n      0x20\n      add\n      dup1\n      dup4\n      gt\n      tag_226\n      jumpi\n    tag_225:\n      pop\n      pop\n      pop\n      pop\n      pop\n        /* \"contracts/DeAnt3Token.sol\":1982:1987  false */\n      0x00\n        /* \"contracts/DeAnt3Token.sol\":1989:2000  _mapSigners */\n      0xd3\n        /* \"contracts/DeAnt3Token.sol\":1961:1971  _updateMap */\n      tag_227\n        /* \"contracts/DeAnt3Token.sol\":1961:2001  _updateMap(_signers, false, _mapSigners) */\n      jump\t// in\n    tag_224:\n        /* \"contracts/DeAnt3Token.sol\":2012:2027  delete _signers */\n      tag_228\n        /* \"contracts/DeAnt3Token.sol\":2019:2027  _signers */\n      0xd2\n      0x00\n        /* \"contracts/DeAnt3Token.sol\":2012:2027  delete _signers */\n      tag_229\n      jump\t// in\n    tag_228:\n        /* \"contracts/DeAnt3Token.sol\":2038:2057  _signers = signers_ */\n      dup1\n      mload\n      tag_230\n      swap1\n        /* \"contracts/DeAnt3Token.sol\":2038:2046  _signers */\n      0xd2\n      swap1\n        /* \"contracts/DeAnt3Token.sol\":2038:2057  _signers = signers_ */\n      0x20\n      dup5\n      add\n      swap1\n      tag_231\n      jump\t// in\n    tag_230:\n      pop\n        /* \"contracts/DeAnt3Token.sol\":2068:2107  _updateMap(signers_, true, _mapSigners) */\n      tag_232\n        /* \"contracts/DeAnt3Token.sol\":2079:2087  signers_ */\n      dup2\n        /* \"contracts/DeAnt3Token.sol\":2089:2093  true */\n      0x01\n        /* \"contracts/DeAnt3Token.sol\":2095:2106  _mapSigners */\n      0xd3\n        /* \"contracts/DeAnt3Token.sol\":2068:2078  _updateMap */\n      tag_227\n        /* \"contracts/DeAnt3Token.sol\":2068:2107  _updateMap(signers_, true, _mapSigners) */\n      jump\t// in\n    tag_232:\n        /* \"contracts/DeAnt3Token.sol\":1876:2115  function setSigners(address[] memory signers_) external virtual onlyOwner {... */\n      pop\n      jump\t// out\n        /* \"@openzeppelin/contracts-upgradeable/token/ERC20/ERC20Upgradeable.sol\":6931:7358  function decreaseAllowance(address spender, uint256 subtractedValue) public virtual returns (bool) {... */\n    tag_114:\n        /* \"@openzeppelin/contracts-upgradeable/token/ERC20/ERC20Upgradeable.sol\":7024:7028  bool */\n      0x00\n        /* \"@openzeppelin/contracts-upgradeable/utils/ContextUpgradeable.sol\":929:939  msg.sender */\n      caller\n        /* \"@openzeppelin/contracts-upgradeable/token/ERC20/ERC20Upgradeable.sol\":7024:7028  bool */\n      dup2\n        /* \"@openzeppelin/contracts-upgradeable/token/ERC20/ERC20Upgradeable.sol\":7105:7130  allowance(owner, spender) */\n      tag_235\n        /* \"@openzeppelin/contracts-upgradeable/utils/ContextUpgradeable.sol\":929:939  msg.sender */\n      dup3\n        /* \"@openzeppelin/contracts-upgradeable/token/ERC20/ERC20Upgradeable.sol\":7122:7129  spender */\n      dup7\n        /* \"@openzeppelin/contracts-upgradeable/token/ERC20/ERC20Upgradeable.sol\":7105:7114  allowance */\n      tag_129\n        /* \"@openzeppelin/contracts-upgradeable/token/ERC20/ERC20Upgradeable.sol\":7105:7130  allowance(owner, spender) */\n      jump\t// in\n    tag_235:\n        /* \"@openzeppelin/contracts-upgradeable/token/ERC20/ERC20Upgradeable.sol\":7078:7130  uint256 currentAllowance = allowance(owner, spender) */\n      swap1\n      pop\n        /* \"@openzeppelin/contracts-upgradeable/token/ERC20/ERC20Upgradeable.sol\":7168:7183  subtractedValue */\n      dup4\n        /* \"@openzeppelin/contracts-upgradeable/token/ERC20/ERC20Upgradeable.sol\":7148:7164  currentAllowance */\n      dup2\n        /* \"@openzeppelin/contracts-upgradeable/token/ERC20/ERC20Upgradeable.sol\":7148:7183  currentAllowance >= subtractedValue */\n      lt\n      iszero\n        /* \"@openzeppelin/contracts-upgradeable/token/ERC20/ERC20Upgradeable.sol\":7140:7225  require(currentAllowance >= subtractedValue, \"ERC20: decreased allowance below zero\") */\n      tag_236\n      jumpi\n      mload(0x40)\n      shl(0xe5, 0x461bcd)\n      dup2\n      mstore\n        /* \"#utility.yul\":12437:12439   */\n      0x20\n        /* \"@openzeppelin/contracts-upgradeable/token/ERC20/ERC20Upgradeable.sol\":7140:7225  require(currentAllowance >= subtractedValue, \"ERC20: decreased allowance below zero\") */\n      0x04\n      dup3\n      add\n        /* \"#utility.yul\":12419:12440   */\n      mstore\n        /* \"#utility.yul\":12476:12478   */\n      0x25\n        /* \"#utility.yul\":12456:12474   */\n      0x24\n      dup3\n      add\n        /* \"#utility.yul\":12449:12479   */\n      mstore\n        /* \"#utility.yul\":12515:12549   */\n      0x45524332303a2064656372656173656420616c6c6f77616e63652062656c6f77\n        /* \"#utility.yul\":12495:12513   */\n      0x44\n      dup3\n      add\n        /* \"#utility.yul\":12488:12550   */\n      mstore\n      shl(0xd8, 0x207a65726f)\n        /* \"#utility.yul\":12566:12584   */\n      0x64\n      dup3\n      add\n        /* \"#utility.yul\":12559:12594   */\n      mstore\n        /* \"#utility.yul\":12611:12630   */\n      0x84\n      add\n        /* \"@openzeppelin/contracts-upgradeable/token/ERC20/ERC20Upgradeable.sol\":7140:7225  require(currentAllowance >= subtractedValue, \"ERC20: decreased allowance below zero\") */\n      tag_185\n        /* \"#utility.yul\":12235:12636   */\n      jump\n        /* \"@openzeppelin/contracts-upgradeable/token/ERC20/ERC20Upgradeable.sol\":7140:7225  require(currentAllowance >= subtractedValue, \"ERC20: decreased allowance below zero\") */\n    tag_236:\n        /* \"@openzeppelin/contracts-upgradeable/token/ERC20/ERC20Upgradeable.sol\":7259:7319  _approve(owner, spender, currentAllowance - subtractedValue) */\n      tag_239\n        /* \"@openzeppelin/contracts-upgradeable/token/ERC20/ERC20Upgradeable.sol\":7268:7273  owner */\n      dup3\n        /* \"@openzeppelin/contracts-upgradeable/token/ERC20/ERC20Upgradeable.sol\":7275:7282  spender */\n      dup7\n        /* \"@openzeppelin/contracts-upgradeable/token/ERC20/ERC20Upgradeable.sol\":7303:7318  subtractedValue */\n      dup7\n        /* \"@openzeppelin/contracts-upgradeable/token/ERC20/ERC20Upgradeable.sol\":7284:7300  currentAllowance */\n      dup5\n        /* \"@openzeppelin/contracts-upgradeable/token/ERC20/ERC20Upgradeable.sol\":7284:7318  currentAllowance - subtractedValue */\n      sub\n        /* \"@openzeppelin/contracts-upgradeable/token/ERC20/ERC20Upgradeable.sol\":7259:7267  _approve */\n      tag_158\n        /* \"@openzeppelin/contracts-upgradeable/token/ERC20/ERC20Upgradeable.sol\":7259:7319  _approve(owner, spender, currentAllowance - subtractedValue) */\n      jump\t// in\n    tag_239:\n      pop\n        /* \"@openzeppelin/contracts-upgradeable/token/ERC20/ERC20Upgradeable.sol\":7347:7351  true */\n      0x01\n      swap5\n        /* \"@openzeppelin/contracts-upgradeable/token/ERC20/ERC20Upgradeable.sol\":6931:7358  function decreaseAllowance(address spender, uint256 subtractedValue) public virtual returns (bool) {... */\n      swap4\n      pop\n      pop\n      pop\n      pop\n      jump\t// out\n        /* \"contracts/DeAnt3Token.sol\":2489:2954  function transfer(address recipient, uint256 amount)... */\n    tag_119:\n        /* \"contracts/DeAnt3Token.sol\":2594:2598  bool */\n      0x00\n        /* \"contracts/DeAnt3Token.sol\":2634:2641  owner() */\n      tag_241\n        /* \"@openzeppelin/contracts-upgradeable/access/OwnableUpgradeable.sol\":1513:1519  _owner */\n      and(sub(shl(0xa0, 0x01), 0x01), sload(0x98))\n      swap1\n        /* \"@openzeppelin/contracts-upgradeable/access/OwnableUpgradeable.sol\":1441:1526  function owner() public view virtual returns (address) {... */\n      jump\n        /* \"contracts/DeAnt3Token.sol\":2634:2641  owner() */\n    tag_241:\n      sub(shl(0xa0, 0x01), 0x01)\n        /* \"contracts/DeAnt3Token.sol\":2620:2641  msg.sender == owner() */\n      and\n        /* \"contracts/DeAnt3Token.sol\":2620:2630  msg.sender */\n      caller\n      sub(shl(0xa0, 0x01), 0x01)\n        /* \"contracts/DeAnt3Token.sol\":2620:2641  msg.sender == owner() */\n      and\n      eq\n        /* \"contracts/DeAnt3Token.sol\":2616:2925  if (msg.sender == owner()) {... */\n      iszero\n      tag_242\n      jumpi\n        /* \"contracts/DeAnt3Token.sol\":2658:2691  super.transfer(recipient, amount) */\n      tag_243\n        /* \"contracts/DeAnt3Token.sol\":2673:2682  recipient */\n      dup4\n        /* \"contracts/DeAnt3Token.sol\":2684:2690  amount */\n      dup4\n        /* \"contracts/DeAnt3Token.sol\":2658:2672  super.transfer */\n      tag_244\n        /* \"contracts/DeAnt3Token.sol\":2658:2691  super.transfer(recipient, amount) */\n      jump\t// in\n    tag_243:\n      pop\n        /* \"contracts/DeAnt3Token.sol\":2616:2925  if (msg.sender == owner()) {... */\n      jump(tag_245)\n    tag_242:\n        /* \"contracts/DeAnt3Token.sol\":2724:2739  uint256 burnAmt */\n      0x00\n        /* \"contracts/DeAnt3Token.sol\":2742:2767  _calculateBurnAmt(amount) */\n      tag_246\n        /* \"contracts/DeAnt3Token.sol\":2760:2766  amount */\n      dup4\n        /* \"contracts/DeAnt3Token.sol\":2742:2759  _calculateBurnAmt */\n      tag_162\n        /* \"contracts/DeAnt3Token.sol\":2742:2767  _calculateBurnAmt(amount) */\n      jump\t// in\n    tag_246:\n        /* \"contracts/DeAnt3Token.sol\":2724:2767  uint256 burnAmt = _calculateBurnAmt(amount) */\n      swap1\n      pop\n        /* \"contracts/DeAnt3Token.sol\":2782:2817  _burnAndUpdate(msg.sender, burnAmt) */\n      tag_247\n        /* \"contracts/DeAnt3Token.sol\":2797:2807  msg.sender */\n      caller\n        /* \"contracts/DeAnt3Token.sol\":2809:2816  burnAmt */\n      dup3\n        /* \"contracts/DeAnt3Token.sol\":2782:2796  _burnAndUpdate */\n      tag_164\n        /* \"contracts/DeAnt3Token.sol\":2782:2817  _burnAndUpdate(msg.sender, burnAmt) */\n      jump\t// in\n    tag_247:\n        /* \"contracts/DeAnt3Token.sol\":2832:2846  uint256 newAmt */\n      0x00\n        /* \"contracts/DeAnt3Token.sol\":2849:2865  amount - burnAmt */\n      tag_248\n        /* \"contracts/DeAnt3Token.sol\":2858:2865  burnAmt */\n      dup3\n        /* \"contracts/DeAnt3Token.sol\":2849:2855  amount */\n      dup6\n        /* \"contracts/DeAnt3Token.sol\":2849:2865  amount - burnAmt */\n      tag_249\n      jump\t// in\n    tag_248:\n        /* \"contracts/DeAnt3Token.sol\":2832:2865  uint256 newAmt = amount - burnAmt */\n      swap1\n      pop\n        /* \"contracts/DeAnt3Token.sol\":2880:2913  super.transfer(recipient, newAmt) */\n      tag_250\n        /* \"contracts/DeAnt3Token.sol\":2895:2904  recipient */\n      dup6\n        /* \"contracts/DeAnt3Token.sol\":2906:2912  newAmt */\n      dup3\n        /* \"contracts/DeAnt3Token.sol\":2880:2894  super.transfer */\n      tag_244\n        /* \"contracts/DeAnt3Token.sol\":2880:2913  super.transfer(recipient, newAmt) */\n      jump\t// in\n    tag_250:\n      pop\n        /* \"contracts/DeAnt3Token.sol\":2709:2925  {... */\n      pop\n      pop\n        /* \"contracts/DeAnt3Token.sol\":2616:2925  if (msg.sender == owner()) {... */\n    tag_245:\n      pop\n        /* \"contracts/DeAnt3Token.sol\":2942:2946  true */\n      0x01\n        /* \"contracts/DeAnt3Token.sol\":2489:2954  function transfer(address recipient, uint256 amount)... */\n      swap3\n      swap2\n      pop\n      pop\n      jump\t// out\n        /* \"@openzeppelin/contracts-upgradeable/token/ERC20/ERC20Upgradeable.sol\":4313:4462  function allowance(address owner, address spender) public view virtual override returns (uint256) {... */\n    tag_129:\n      sub(shl(0xa0, 0x01), 0x01)\n        /* \"@openzeppelin/contracts-upgradeable/token/ERC20/ERC20Upgradeable.sol\":4428:4446  _allowances[owner] */\n      swap2\n      dup3\n      and\n        /* \"@openzeppelin/contracts-upgradeable/token/ERC20/ERC20Upgradeable.sol\":4402:4409  uint256 */\n      0x00\n        /* \"@openzeppelin/contracts-upgradeable/token/ERC20/ERC20Upgradeable.sol\":4428:4446  _allowances[owner] */\n      swap1\n      dup2\n      mstore\n        /* \"@openzeppelin/contracts-upgradeable/token/ERC20/ERC20Upgradeable.sol\":4428:4439  _allowances */\n      0x34\n        /* \"@openzeppelin/contracts-upgradeable/token/ERC20/ERC20Upgradeable.sol\":4428:4446  _allowances[owner] */\n      0x20\n      swap1\n      dup2\n      mstore\n      0x40\n      dup1\n      dup4\n      keccak256\n        /* \"@openzeppelin/contracts-upgradeable/token/ERC20/ERC20Upgradeable.sol\":4428:4455  _allowances[owner][spender] */\n      swap4\n      swap1\n      swap5\n      and\n      dup3\n      mstore\n      swap2\n      swap1\n      swap2\n      mstore\n      keccak256\n      sload\n      swap1\n        /* \"@openzeppelin/contracts-upgradeable/token/ERC20/ERC20Upgradeable.sol\":4313:4462  function allowance(address owner, address spender) public view virtual override returns (uint256) {... */\n      jump\t// out\n        /* \"contracts/DeAnt3Token.sol\":3676:4888  function permitMint(... */\n    tag_135:\n        /* \"contracts/DeAnt3Token.sol\":3949:3964  block.timestamp */\n      timestamp\n        /* \"contracts/DeAnt3Token.sol\":3937:3945  deadline */\n      dup5\n        /* \"contracts/DeAnt3Token.sol\":3937:3964  deadline >= block.timestamp */\n      lt\n      iszero\n        /* \"contracts/DeAnt3Token.sol\":3929:3985  require(deadline >= block.timestamp, \"Expired deadline\") */\n      tag_254\n      jumpi\n      mload(0x40)\n      shl(0xe5, 0x461bcd)\n      dup2\n      mstore\n        /* \"#utility.yul\":12973:12975   */\n      0x20\n        /* \"contracts/DeAnt3Token.sol\":3929:3985  require(deadline >= block.timestamp, \"Expired deadline\") */\n      0x04\n      dup3\n      add\n        /* \"#utility.yul\":12955:12976   */\n      mstore\n        /* \"#utility.yul\":13012:13014   */\n      0x10\n        /* \"#utility.yul\":12992:13010   */\n      0x24\n      dup3\n      add\n        /* \"#utility.yul\":12985:13015   */\n      mstore\n      shl(0x80, 0x4578706972656420646561646c696e65)\n        /* \"#utility.yul\":13031:13049   */\n      0x44\n      dup3\n      add\n        /* \"#utility.yul\":13024:13070   */\n      mstore\n        /* \"#utility.yul\":13087:13105   */\n      0x64\n      add\n        /* \"contracts/DeAnt3Token.sol\":3929:3985  require(deadline >= block.timestamp, \"Expired deadline\") */\n      tag_185\n        /* \"#utility.yul\":12771:13111   */\n      jump\n        /* \"contracts/DeAnt3Token.sol\":3929:3985  require(deadline >= block.timestamp, \"Expired deadline\") */\n    tag_254:\n        /* \"contracts/DeAnt3Token.sol\":4005:4029  uniqueIdExists[uniqueId] */\n      0x00\n      dup7\n      dup2\n      mstore\n        /* \"contracts/DeAnt3Token.sol\":4005:4019  uniqueIdExists */\n      0xd4\n        /* \"contracts/DeAnt3Token.sol\":4005:4029  uniqueIdExists[uniqueId] */\n      0x20\n      mstore\n      0x40\n      swap1\n      keccak256\n      sload\n      0xff\n      and\n        /* \"contracts/DeAnt3Token.sol\":4004:4029  !uniqueIdExists[uniqueId] */\n      iszero\n        /* \"contracts/DeAnt3Token.sol\":3996:4050  require(!uniqueIdExists[uniqueId], \"Unique id exists\") */\n      tag_257\n      jumpi\n      mload(0x40)\n      shl(0xe5, 0x461bcd)\n      dup2\n      mstore\n        /* \"#utility.yul\":13318:13320   */\n      0x20\n        /* \"contracts/DeAnt3Token.sol\":3996:4050  require(!uniqueIdExists[uniqueId], \"Unique id exists\") */\n      0x04\n      dup3\n      add\n        /* \"#utility.yul\":13300:13321   */\n      mstore\n        /* \"#utility.yul\":13357:13359   */\n      0x10\n        /* \"#utility.yul\":13337:13355   */\n      0x24\n      dup3\n      add\n        /* \"#utility.yul\":13330:13360   */\n      mstore\n      shl(0x80, 0x556e6971756520696420657869737473)\n        /* \"#utility.yul\":13376:13394   */\n      0x44\n      dup3\n      add\n        /* \"#utility.yul\":13369:13415   */\n      mstore\n        /* \"#utility.yul\":13432:13450   */\n      0x64\n      add\n        /* \"contracts/DeAnt3Token.sol\":3996:4050  require(!uniqueIdExists[uniqueId], \"Unique id exists\") */\n      tag_185\n        /* \"#utility.yul\":13116:13456   */\n      jump\n        /* \"contracts/DeAnt3Token.sol\":3996:4050  require(!uniqueIdExists[uniqueId], \"Unique id exists\") */\n    tag_257:\n        /* \"contracts/DeAnt3Token.sol\":4081:4091  msg.sender */\n      caller\n        /* \"contracts/DeAnt3Token.sol\":4063:4078  address spender */\n      0x00\n        /* \"contracts/DeAnt3Token.sol\":4118:4131  super.owner() */\n      tag_260\n        /* \"@openzeppelin/contracts-upgradeable/access/OwnableUpgradeable.sol\":1513:1519  _owner */\n      and(sub(shl(0xa0, 0x01), 0x01), sload(0x98))\n      swap1\n        /* \"@openzeppelin/contracts-upgradeable/access/OwnableUpgradeable.sol\":1441:1526  function owner() public view virtual returns (address) {... */\n      jump\n        /* \"contracts/DeAnt3Token.sol\":4118:4131  super.owner() */\n    tag_260:\n        /* \"contracts/DeAnt3Token.sol\":4191:4256  abi.encode(owner, spender, recipient, amount, uniqueId, deadline) */\n      0x40\n      dup1\n      mload\n      sub(shl(0xa0, 0x01), 0x01)\n        /* \"#utility.yul\":13820:13835   */\n      dup1\n      dup5\n      and\n        /* \"contracts/DeAnt3Token.sol\":4191:4256  abi.encode(owner, spender, recipient, amount, uniqueId, deadline) */\n      0x20\n      dup4\n      add\n        /* \"#utility.yul\":13802:13836   */\n      mstore\n        /* \"#utility.yul\":13872:13887   */\n      dup1\n      dup7\n      and\n        /* \"#utility.yul\":13852:13870   */\n      swap3\n      dup3\n      add\n        /* \"#utility.yul\":13845:13888   */\n      swap3\n      swap1\n      swap3\n      mstore\n        /* \"#utility.yul\":13924:13939   */\n      swap1\n      dup12\n      and\n        /* \"#utility.yul\":13904:13922   */\n      0x60\n      dup3\n      add\n        /* \"#utility.yul\":13897:13940   */\n      mstore\n        /* \"#utility.yul\":13956:13974   */\n      0x80\n      dup2\n      add\n        /* \"#utility.yul\":13949:13983   */\n      dup10\n      swap1\n      mstore\n        /* \"#utility.yul\":13999:14018   */\n      0xa0\n      dup2\n      add\n        /* \"#utility.yul\":13992:14027   */\n      dup11\n      swap1\n      mstore\n        /* \"#utility.yul\":14043:14062   */\n      0xc0\n      dup2\n      add\n        /* \"#utility.yul\":14036:14071   */\n      dup9\n      swap1\n      mstore\n        /* \"contracts/DeAnt3Token.sol\":4102:4131  address owner = super.owner() */\n      swap1\n      swap2\n      pop\n        /* \"contracts/DeAnt3Token.sol\":4144:4164  bytes32 permitTxHash */\n      0x00\n      swap1\n        /* \"#utility.yul\":13736:13755   */\n      0xe0\n      add\n        /* \"contracts/DeAnt3Token.sol\":4191:4256  abi.encode(owner, spender, recipient, amount, uniqueId, deadline) */\n      mload(0x40)\n      0x20\n      dup2\n      dup4\n      sub\n      sub\n      dup2\n      mstore\n      swap1\n      0x40\n      mstore\n        /* \"contracts/DeAnt3Token.sol\":4167:4267  keccak256(... */\n      dup1\n      mload\n      swap1\n      0x20\n      add\n      keccak256\n        /* \"contracts/DeAnt3Token.sol\":4144:4267  bytes32 permitTxHash = keccak256(... */\n      swap1\n      pop\n        /* \"contracts/DeAnt3Token.sol\":4280:4296  address lastAddr */\n      0x00\n        /* \"contracts/DeAnt3Token.sol\":4320:4341  uint8 verifiedSigners */\n      dup1\n        /* \"contracts/DeAnt3Token.sol\":4361:4369  uint64 i */\n      0x00\n        /* \"contracts/DeAnt3Token.sol\":4356:4618  for (uint64 i = 0; i < v.length; i++) {... */\n    tag_263:\n        /* \"contracts/DeAnt3Token.sol\":4379:4380  v */\n      dup9\n        /* \"contracts/DeAnt3Token.sol\":4379:4387  v.length */\n      mload\n        /* \"contracts/DeAnt3Token.sol\":4375:4376  i */\n      dup2\n      sub(shl(0x40, 0x01), 0x01)\n        /* \"contracts/DeAnt3Token.sol\":4375:4387  i < v.length */\n      and\n      lt\n        /* \"contracts/DeAnt3Token.sol\":4356:4618  for (uint64 i = 0; i < v.length; i++) {... */\n      iszero\n      tag_264\n      jumpi\n        /* \"contracts/DeAnt3Token.sol\":4409:4426  address recovered */\n      0x00\n        /* \"contracts/DeAnt3Token.sol\":4429:4470  ecrecover(permitTxHash, v[i], r[i], s[i]) */\n      0x01\n        /* \"contracts/DeAnt3Token.sol\":4439:4451  permitTxHash */\n      dup6\n        /* \"contracts/DeAnt3Token.sol\":4453:4454  v */\n      dup12\n        /* \"contracts/DeAnt3Token.sol\":4455:4456  i */\n      dup5\n      sub(shl(0x40, 0x01), 0x01)\n        /* \"contracts/DeAnt3Token.sol\":4453:4457  v[i] */\n      and\n      dup2\n      mload\n      dup2\n      lt\n      tag_267\n      jumpi\n      tag_267\n      tag_268\n      jump\t// in\n    tag_267:\n      0x20\n      mul\n      0x20\n      add\n      add\n      mload\n        /* \"contracts/DeAnt3Token.sol\":4459:4460  r */\n      dup12\n        /* \"contracts/DeAnt3Token.sol\":4461:4462  i */\n      dup6\n      sub(shl(0x40, 0x01), 0x01)\n        /* \"contracts/DeAnt3Token.sol\":4459:4463  r[i] */\n      and\n      dup2\n      mload\n      dup2\n      lt\n      tag_270\n      jumpi\n      tag_270\n      tag_268\n      jump\t// in\n    tag_270:\n      0x20\n      mul\n      0x20\n      add\n      add\n      mload\n        /* \"contracts/DeAnt3Token.sol\":4465:4466  s */\n      dup12\n        /* \"contracts/DeAnt3Token.sol\":4467:4468  i */\n      dup7\n      sub(shl(0x40, 0x01), 0x01)\n        /* \"contracts/DeAnt3Token.sol\":4465:4469  s[i] */\n      and\n      dup2\n      mload\n      dup2\n      lt\n      tag_272\n      jumpi\n      tag_272\n      tag_268\n      jump\t// in\n    tag_272:\n      0x20\n      mul\n      0x20\n      add\n      add\n      mload\n        /* \"contracts/DeAnt3Token.sol\":4429:4470  ecrecover(permitTxHash, v[i], r[i], s[i]) */\n      mload(0x40)\n      0x00\n      dup2\n      mstore\n      0x20\n      add\n      0x40\n      mstore\n      mload(0x40)\n      tag_273\n      swap5\n      swap4\n      swap3\n      swap2\n      swap1\n        /* \"#utility.yul\":14441:14466   */\n      swap4\n      dup5\n      mstore\n        /* \"#utility.yul\":14514:14518   */\n      0xff\n        /* \"#utility.yul\":14502:14519   */\n      swap3\n      swap1\n      swap3\n      and\n        /* \"#utility.yul\":14497:14499   */\n      0x20\n        /* \"#utility.yul\":14482:14500   */\n      dup5\n      add\n        /* \"#utility.yul\":14475:14520   */\n      mstore\n        /* \"#utility.yul\":14551:14553   */\n      0x40\n        /* \"#utility.yul\":14536:14554   */\n      dup4\n      add\n        /* \"#utility.yul\":14529:14563   */\n      mstore\n        /* \"#utility.yul\":14594:14596   */\n      0x60\n        /* \"#utility.yul\":14579:14597   */\n      dup3\n      add\n        /* \"#utility.yul\":14572:14606   */\n      mstore\n        /* \"#utility.yul\":14428:14431   */\n      0x80\n        /* \"#utility.yul\":14413:14432   */\n      add\n      swap1\n        /* \"#utility.yul\":14214:14612   */\n      jump\n        /* \"contracts/DeAnt3Token.sol\":4429:4470  ecrecover(permitTxHash, v[i], r[i], s[i]) */\n    tag_273:\n      0x20\n      mload(0x40)\n      0x20\n      dup2\n      sub\n      swap1\n      dup1\n      dup5\n      sub\n      swap1\n      dup6\n      gas\n      staticcall\n      iszero\n      dup1\n      iszero\n      tag_276\n      jumpi\n      returndatasize\n      0x00\n      dup1\n      returndatacopy\n      revert(0x00, returndatasize)\n    tag_276:\n      pop\n      pop\n      pop\n      mload(sub(mload(0x40), 0x20))\n        /* \"contracts/DeAnt3Token.sol\":4409:4470  address recovered = ecrecover(permitTxHash, v[i], r[i], s[i]) */\n      swap1\n      pop\n        /* \"contracts/DeAnt3Token.sol\":4501:4509  lastAddr */\n      dup4\n      sub(shl(0xa0, 0x01), 0x01)\n        /* \"contracts/DeAnt3Token.sol\":4489:4509  recovered > lastAddr */\n      and\n        /* \"contracts/DeAnt3Token.sol\":4489:4498  recovered */\n      dup2\n      sub(shl(0xa0, 0x01), 0x01)\n        /* \"contracts/DeAnt3Token.sol\":4489:4509  recovered > lastAddr */\n      and\n      gt\n        /* \"contracts/DeAnt3Token.sol\":4489:4535  recovered > lastAddr && _mapSigners[recovered] */\n      dup1\n      iszero\n      tag_277\n      jumpi\n      pop\n      sub(shl(0xa0, 0x01), 0x01)\n        /* \"contracts/DeAnt3Token.sol\":4513:4535  _mapSigners[recovered] */\n      dup2\n      and\n      0x00\n      swap1\n      dup2\n      mstore\n        /* \"contracts/DeAnt3Token.sol\":4513:4524  _mapSigners */\n      0xd3\n        /* \"contracts/DeAnt3Token.sol\":4513:4535  _mapSigners[recovered] */\n      0x20\n      mstore\n      0x40\n      swap1\n      keccak256\n      sload\n      0xff\n      and\n        /* \"contracts/DeAnt3Token.sol\":4489:4535  recovered > lastAddr && _mapSigners[recovered] */\n    tag_277:\n        /* \"contracts/DeAnt3Token.sol\":4485:4571  if (recovered > lastAddr && _mapSigners[recovered])... */\n      iszero\n      tag_278\n      jumpi\n        /* \"contracts/DeAnt3Token.sol\":4554:4571  verifiedSigners++ */\n      dup3\n      tag_279\n      dup2\n      tag_280\n      jump\t// in\n    tag_279:\n      swap4\n      pop\n      pop\n        /* \"contracts/DeAnt3Token.sol\":4485:4571  if (recovered > lastAddr && _mapSigners[recovered])... */\n    tag_278:\n        /* \"contracts/DeAnt3Token.sol\":4597:4606  recovered */\n      swap3\n      pop\n        /* \"contracts/DeAnt3Token.sol\":4389:4392  i++ */\n      dup1\n      tag_281\n      dup2\n      tag_282\n      jump\t// in\n    tag_281:\n      swap2\n      pop\n      pop\n        /* \"contracts/DeAnt3Token.sol\":4356:4618  for (uint64 i = 0; i < v.length; i++) {... */\n      jump(tag_263)\n    tag_264:\n      pop\n        /* \"contracts/DeAnt3Token.sol\":4638:4653  verifiedSigners */\n      dup1\n        /* \"contracts/DeAnt3Token.sol\":4638:4658  verifiedSigners == 3 */\n      0xff\n      and\n        /* \"contracts/DeAnt3Token.sol\":4657:4658  3 */\n      0x03\n        /* \"contracts/DeAnt3Token.sol\":4638:4658  verifiedSigners == 3 */\n      eq\n        /* \"contracts/DeAnt3Token.sol\":4630:4678  require(verifiedSigners == 3, \"Invalid signers\") */\n      tag_283\n      jumpi\n      mload(0x40)\n      shl(0xe5, 0x461bcd)\n      dup2\n      mstore\n        /* \"#utility.yul\":15213:15215   */\n      0x20\n        /* \"contracts/DeAnt3Token.sol\":4630:4678  require(verifiedSigners == 3, \"Invalid signers\") */\n      0x04\n      dup3\n      add\n        /* \"#utility.yul\":15195:15216   */\n      mstore\n        /* \"#utility.yul\":15252:15254   */\n      0x0f\n        /* \"#utility.yul\":15232:15250   */\n      0x24\n      dup3\n      add\n        /* \"#utility.yul\":15225:15255   */\n      mstore\n      shl(0x88, 0x496e76616c6964207369676e657273)\n        /* \"#utility.yul\":15271:15289   */\n      0x44\n      dup3\n      add\n        /* \"#utility.yul\":15264:15309   */\n      mstore\n        /* \"#utility.yul\":15326:15344   */\n      0x64\n      add\n        /* \"contracts/DeAnt3Token.sol\":4630:4678  require(verifiedSigners == 3, \"Invalid signers\") */\n      tag_185\n        /* \"#utility.yul\":15011:15350   */\n      jump\n        /* \"contracts/DeAnt3Token.sol\":4630:4678  require(verifiedSigners == 3, \"Invalid signers\") */\n    tag_283:\n        /* \"contracts/DeAnt3Token.sol\":4689:4713  uniqueIdExists[uniqueId] */\n      0x00\n      dup12\n      dup2\n      mstore\n        /* \"contracts/DeAnt3Token.sol\":4689:4703  uniqueIdExists */\n      0xd4\n        /* \"contracts/DeAnt3Token.sol\":4689:4713  uniqueIdExists[uniqueId] */\n      0x20\n      mstore\n      0x40\n      dup1\n      dup3\n      keccak256\n        /* \"contracts/DeAnt3Token.sol\":4689:4720  uniqueIdExists[uniqueId] = true */\n      dup1\n      sload\n      not(0xff)\n      and\n        /* \"contracts/DeAnt3Token.sol\":4716:4720  true */\n      0x01\n        /* \"contracts/DeAnt3Token.sol\":4689:4720  uniqueIdExists[uniqueId] = true */\n      or\n      swap1\n      sstore\n        /* \"contracts/DeAnt3Token.sol\":4774:4784  _rewardAmt */\n      sload(0xcd)\n        /* \"contracts/DeAnt3Token.sol\":4752:4789  recipient.call{value: _rewardAmt}(\"\") */\n      swap1\n      mload\n      sub(shl(0xa0, 0x01), 0x01)\n        /* \"contracts/DeAnt3Token.sol\":4752:4766  recipient.call */\n      dup16\n      and\n      swap2\n        /* \"contracts/DeAnt3Token.sol\":4774:4784  _rewardAmt */\n      swap1\n        /* \"contracts/DeAnt3Token.sol\":4689:4713  uniqueIdExists[uniqueId] */\n      dup4\n        /* \"contracts/DeAnt3Token.sol\":4752:4789  recipient.call{value: _rewardAmt}(\"\") */\n      dup2\n        /* \"contracts/DeAnt3Token.sol\":4689:4713  uniqueIdExists[uniqueId] */\n      dup2\n        /* \"contracts/DeAnt3Token.sol\":4752:4789  recipient.call{value: _rewardAmt}(\"\") */\n      dup2\n        /* \"contracts/DeAnt3Token.sol\":4774:4784  _rewardAmt */\n      dup6\n        /* \"contracts/DeAnt3Token.sol\":4752:4766  recipient.call */\n      dup8\n        /* \"contracts/DeAnt3Token.sol\":4752:4789  recipient.call{value: _rewardAmt}(\"\") */\n      gas\n      call\n      swap3\n      pop\n      pop\n      pop\n      returndatasize\n      dup1\n      0x00\n      dup2\n      eq\n      tag_290\n      jumpi\n      mload(0x40)\n      swap2\n      pop\n      and(add(returndatasize, 0x3f), not(0x1f))\n      dup3\n      add\n      0x40\n      mstore\n      returndatasize\n      dup3\n      mstore\n      returndatasize\n      0x00\n      0x20\n      dup5\n      add\n      returndatacopy\n      jump(tag_289)\n    tag_290:\n      0x60\n      swap2\n      pop\n    tag_289:\n      pop\n        /* \"contracts/DeAnt3Token.sol\":4733:4789  (bool success, ) = recipient.call{value: _rewardAmt}(\"\") */\n      pop\n      swap1\n      pop\n        /* \"contracts/DeAnt3Token.sol\":4808:4815  success */\n      dup1\n        /* \"contracts/DeAnt3Token.sol\":4800:4839  require(success, \"Failed to send Mech\") */\n      tag_291\n      jumpi\n      mload(0x40)\n      shl(0xe5, 0x461bcd)\n      dup2\n      mstore\n        /* \"#utility.yul\":15767:15769   */\n      0x20\n        /* \"contracts/DeAnt3Token.sol\":4800:4839  require(success, \"Failed to send Mech\") */\n      0x04\n      dup3\n      add\n        /* \"#utility.yul\":15749:15770   */\n      mstore\n        /* \"#utility.yul\":15806:15808   */\n      0x13\n        /* \"#utility.yul\":15786:15804   */\n      0x24\n      dup3\n      add\n        /* \"#utility.yul\":15779:15809   */\n      mstore\n      shl(0x6b, 0x08cc2d2d8cac840e8de40e6cadcc8409acac6d)\n        /* \"#utility.yul\":15825:15843   */\n      0x44\n      dup3\n      add\n        /* \"#utility.yul\":15818:15867   */\n      mstore\n        /* \"#utility.yul\":15884:15902   */\n      0x64\n      add\n        /* \"contracts/DeAnt3Token.sol\":4800:4839  require(success, \"Failed to send Mech\") */\n      tag_185\n        /* \"#utility.yul\":15565:15908   */\n      jump\n        /* \"contracts/DeAnt3Token.sol\":4800:4839  require(success, \"Failed to send Mech\") */\n    tag_291:\n        /* \"contracts/DeAnt3Token.sol\":4850:4880  super._mint(recipient, amount) */\n      tag_294\n        /* \"contracts/DeAnt3Token.sol\":4862:4871  recipient */\n      dup14\n        /* \"contracts/DeAnt3Token.sol\":4873:4879  amount */\n      dup13\n        /* \"contracts/DeAnt3Token.sol\":4850:4861  super._mint */\n      tag_203\n        /* \"contracts/DeAnt3Token.sol\":4850:4880  super._mint(recipient, amount) */\n      jump\t// in\n    tag_294:\n        /* \"contracts/DeAnt3Token.sol\":3918:4888  {... */\n      pop\n      pop\n      pop\n      pop\n      pop\n      pop\n        /* \"contracts/DeAnt3Token.sol\":3676:4888  function permitMint(... */\n      pop\n      pop\n      pop\n      pop\n      pop\n      pop\n      pop\n      jump\t// out\n        /* \"@openzeppelin/contracts-upgradeable/access/OwnableUpgradeable.sol\":2321:2519  function transferOwnership(address newOwner) public virtual onlyOwner {... */\n    tag_139:\n        /* \"@openzeppelin/contracts-upgradeable/access/OwnableUpgradeable.sol\":1334:1347  _checkOwner() */\n      tag_296\n        /* \"@openzeppelin/contracts-upgradeable/access/OwnableUpgradeable.sol\":1334:1345  _checkOwner */\n      tag_210\n        /* \"@openzeppelin/contracts-upgradeable/access/OwnableUpgradeable.sol\":1334:1347  _checkOwner() */\n      jump\t// in\n    tag_296:\n      sub(shl(0xa0, 0x01), 0x01)\n        /* \"@openzeppelin/contracts-upgradeable/access/OwnableUpgradeable.sol\":2409:2431  newOwner != address(0) */\n      dup2\n      and\n        /* \"@openzeppelin/contracts-upgradeable/access/OwnableUpgradeable.sol\":2401:2474  require(newOwner != address(0), \"Ownable: new owner is the zero address\") */\n      tag_298\n      jumpi\n      mload(0x40)\n      shl(0xe5, 0x461bcd)\n      dup2\n      mstore\n        /* \"#utility.yul\":16115:16117   */\n      0x20\n        /* \"@openzeppelin/contracts-upgradeable/access/OwnableUpgradeable.sol\":2401:2474  require(newOwner != address(0), \"Ownable: new owner is the zero address\") */\n      0x04\n      dup3\n      add\n        /* \"#utility.yul\":16097:16118   */\n      mstore\n        /* \"#utility.yul\":16154:16156   */\n      0x26\n        /* \"#utility.yul\":16134:16152   */\n      0x24\n      dup3\n      add\n        /* \"#utility.yul\":16127:16157   */\n      mstore\n        /* \"#utility.yul\":16193:16227   */\n      0x4f776e61626c653a206e6577206f776e657220697320746865207a65726f2061\n        /* \"#utility.yul\":16173:16191   */\n      0x44\n      dup3\n      add\n        /* \"#utility.yul\":16166:16228   */\n      mstore\n      shl(0xd0, 0x646472657373)\n        /* \"#utility.yul\":16244:16262   */\n      0x64\n      dup3\n      add\n        /* \"#utility.yul\":16237:16273   */\n      mstore\n        /* \"#utility.yul\":16290:16309   */\n      0x84\n      add\n        /* \"@openzeppelin/contracts-upgradeable/access/OwnableUpgradeable.sol\":2401:2474  require(newOwner != address(0), \"Ownable: new owner is the zero address\") */\n      tag_185\n        /* \"#utility.yul\":15913:16315   */\n      jump\n        /* \"@openzeppelin/contracts-upgradeable/access/OwnableUpgradeable.sol\":2401:2474  require(newOwner != address(0), \"Ownable: new owner is the zero address\") */\n    tag_298:\n        /* \"@openzeppelin/contracts-upgradeable/access/OwnableUpgradeable.sol\":2484:2512  _transferOwnership(newOwner) */\n      tag_232\n        /* \"@openzeppelin/contracts-upgradeable/access/OwnableUpgradeable.sol\":2503:2511  newOwner */\n      dup2\n        /* \"@openzeppelin/contracts-upgradeable/access/OwnableUpgradeable.sol\":2484:2502  _transferOwnership */\n      tag_213\n        /* \"@openzeppelin/contracts-upgradeable/access/OwnableUpgradeable.sol\":2484:2512  _transferOwnership(newOwner) */\n      jump\t// in\n        /* \"@openzeppelin/contracts-upgradeable/token/ERC20/ERC20Upgradeable.sol\":10447:10817  function _approve(... */\n    tag_158:\n      sub(shl(0xa0, 0x01), 0x01)\n        /* \"@openzeppelin/contracts-upgradeable/token/ERC20/ERC20Upgradeable.sol\":10578:10597  owner != address(0) */\n      dup4\n      and\n        /* \"@openzeppelin/contracts-upgradeable/token/ERC20/ERC20Upgradeable.sol\":10570:10638  require(owner != address(0), \"ERC20: approve from the zero address\") */\n      tag_304\n      jumpi\n      mload(0x40)\n      shl(0xe5, 0x461bcd)\n      dup2\n      mstore\n        /* \"#utility.yul\":16522:16524   */\n      0x20\n        /* \"@openzeppelin/contracts-upgradeable/token/ERC20/ERC20Upgradeable.sol\":10570:10638  require(owner != address(0), \"ERC20: approve from the zero address\") */\n      0x04\n      dup3\n      add\n        /* \"#utility.yul\":16504:16525   */\n      mstore\n        /* \"#utility.yul\":16561:16563   */\n      0x24\n        /* \"#utility.yul\":16541:16559   */\n      dup1\n      dup3\n      add\n        /* \"#utility.yul\":16534:16564   */\n      mstore\n        /* \"#utility.yul\":16600:16634   */\n      0x45524332303a20617070726f76652066726f6d20746865207a65726f20616464\n        /* \"#utility.yul\":16580:16598   */\n      0x44\n      dup3\n      add\n        /* \"#utility.yul\":16573:16635   */\n      mstore\n      shl(0xe0, 0x72657373)\n        /* \"#utility.yul\":16651:16669   */\n      0x64\n      dup3\n      add\n        /* \"#utility.yul\":16644:16678   */\n      mstore\n        /* \"#utility.yul\":16695:16714   */\n      0x84\n      add\n        /* \"@openzeppelin/contracts-upgradeable/token/ERC20/ERC20Upgradeable.sol\":10570:10638  require(owner != address(0), \"ERC20: approve from the zero address\") */\n      tag_185\n        /* \"#utility.yul\":16320:16720   */\n      jump\n        /* \"@openzeppelin/contracts-upgradeable/token/ERC20/ERC20Upgradeable.sol\":10570:10638  require(owner != address(0), \"ERC20: approve from the zero address\") */\n    tag_304:\n      sub(shl(0xa0, 0x01), 0x01)\n        /* \"@openzeppelin/contracts-upgradeable/token/ERC20/ERC20Upgradeable.sol\":10656:10677  spender != address(0) */\n      dup3\n      and\n        /* \"@openzeppelin/contracts-upgradeable/token/ERC20/ERC20Upgradeable.sol\":10648:10716  require(spender != address(0), \"ERC20: approve to the zero address\") */\n      tag_307\n      jumpi\n      mload(0x40)\n      shl(0xe5, 0x461bcd)\n      dup2\n      mstore\n        /* \"#utility.yul\":16927:16929   */\n      0x20\n        /* \"@openzeppelin/contracts-upgradeable/token/ERC20/ERC20Upgradeable.sol\":10648:10716  require(spender != address(0), \"ERC20: approve to the zero address\") */\n      0x04\n      dup3\n      add\n        /* \"#utility.yul\":16909:16930   */\n      mstore\n        /* \"#utility.yul\":16966:16968   */\n      0x22\n        /* \"#utility.yul\":16946:16964   */\n      0x24\n      dup3\n      add\n        /* \"#utility.yul\":16939:16969   */\n      mstore\n        /* \"#utility.yul\":17005:17039   */\n      0x45524332303a20617070726f766520746f20746865207a65726f206164647265\n        /* \"#utility.yul\":16985:17003   */\n      0x44\n      dup3\n      add\n        /* \"#utility.yul\":16978:17040   */\n      mstore\n      shl(0xf0, 0x7373)\n        /* \"#utility.yul\":17056:17074   */\n      0x64\n      dup3\n      add\n        /* \"#utility.yul\":17049:17081   */\n      mstore\n        /* \"#utility.yul\":17098:17117   */\n      0x84\n      add\n        /* \"@openzeppelin/contracts-upgradeable/token/ERC20/ERC20Upgradeable.sol\":10648:10716  require(spender != address(0), \"ERC20: approve to the zero address\") */\n      tag_185\n        /* \"#utility.yul\":16725:17123   */\n      jump\n        /* \"@openzeppelin/contracts-upgradeable/token/ERC20/ERC20Upgradeable.sol\":10648:10716  require(spender != address(0), \"ERC20: approve to the zero address\") */\n    tag_307:\n      sub(shl(0xa0, 0x01), 0x01)\n        /* \"@openzeppelin/contracts-upgradeable/token/ERC20/ERC20Upgradeable.sol\":10727:10745  _allowances[owner] */\n      dup4\n      dup2\n      and\n      0x00\n      dup2\n      dup2\n      mstore\n        /* \"@openzeppelin/contracts-upgradeable/token/ERC20/ERC20Upgradeable.sol\":10727:10738  _allowances */\n      0x34\n        /* \"@openzeppelin/contracts-upgradeable/token/ERC20/ERC20Upgradeable.sol\":10727:10745  _allowances[owner] */\n      0x20\n      swap1\n      dup2\n      mstore\n      0x40\n      dup1\n      dup4\n      keccak256\n        /* \"@openzeppelin/contracts-upgradeable/token/ERC20/ERC20Upgradeable.sol\":10727:10754  _allowances[owner][spender] */\n      swap5\n      dup8\n      and\n      dup1\n      dup5\n      mstore\n      swap5\n      dup3\n      mstore\n      swap2\n      dup3\n      swap1\n      keccak256\n        /* \"@openzeppelin/contracts-upgradeable/token/ERC20/ERC20Upgradeable.sol\":10727:10763  _allowances[owner][spender] = amount */\n      dup6\n      swap1\n      sstore\n        /* \"@openzeppelin/contracts-upgradeable/token/ERC20/ERC20Upgradeable.sol\":10778:10810  Approval(owner, spender, amount) */\n      swap1\n      mload\n        /* \"#utility.yul\":1662:1687   */\n      dup5\n      dup2\n      mstore\n        /* \"@openzeppelin/contracts-upgradeable/token/ERC20/ERC20Upgradeable.sol\":10778:10810  Approval(owner, spender, amount) */\n      0x8c5be1e5ebec7d5bd14f71427d1e84f3dd0314c0f7b2291e5b200ac8c7c3b925\n      swap2\n        /* \"#utility.yul\":1635:1653   */\n      add\n        /* \"@openzeppelin/contracts-upgradeable/token/ERC20/ERC20Upgradeable.sol\":10778:10810  Approval(owner, spender, amount) */\n    tag_310:\n      mload(0x40)\n      dup1\n      swap2\n      sub\n      swap1\n      log3\n        /* \"@openzeppelin/contracts-upgradeable/token/ERC20/ERC20Upgradeable.sol\":10447:10817  function _approve(... */\n      pop\n      pop\n      pop\n      jump\t// out\n        /* \"contracts/DeAnt3Token.sol\":3276:3436  function _calculateBurnAmt(uint256 amount) private view returns (uint256) {... */\n    tag_162:\n        /* \"contracts/DeAnt3Token.sol\":3341:3348  uint256 */\n      0x00\n        /* \"contracts/DeAnt3Token.sol\":3361:3376  uint256 burnAmt */\n      dup1\n        /* \"contracts/DeAnt3Token.sol\":3400:3403  100 */\n      0x64\n        /* \"contracts/DeAnt3Token.sol\":3389:3396  _taxFee */\n      sload(0xcf)\n        /* \"contracts/DeAnt3Token.sol\":3380:3386  amount */\n      dup5\n        /* \"contracts/DeAnt3Token.sol\":3380:3396  amount * _taxFee */\n      tag_312\n      swap2\n      swap1\n      tag_197\n      jump\t// in\n    tag_312:\n        /* \"contracts/DeAnt3Token.sol\":3379:3403  (amount * _taxFee) / 100 */\n      tag_313\n      swap2\n      swap1\n      tag_314\n      jump\t// in\n    tag_313:\n        /* \"contracts/DeAnt3Token.sol\":3361:3403  uint256 burnAmt = (amount * _taxFee) / 100 */\n      swap4\n        /* \"contracts/DeAnt3Token.sol\":3276:3436  function _calculateBurnAmt(uint256 amount) private view returns (uint256) {... */\n      swap3\n      pop\n      pop\n      pop\n      jump\t// out\n        /* \"contracts/DeAnt3Token.sol\":3444:3668  function _burnAndUpdate(address account, uint256 amount) private {... */\n    tag_164:\n        /* \"contracts/DeAnt3Token.sol\":3520:3542  _burn(account, amount) */\n      tag_316\n        /* \"contracts/DeAnt3Token.sol\":3526:3533  account */\n      dup3\n        /* \"contracts/DeAnt3Token.sol\":3535:3541  amount */\n      dup3\n        /* \"contracts/DeAnt3Token.sol\":3520:3525  _burn */\n      tag_317\n        /* \"contracts/DeAnt3Token.sol\":3520:3542  _burn(account, amount) */\n      jump\t// in\n    tag_316:\n        /* \"contracts/DeAnt3Token.sol\":3583:3589  amount */\n      dup1\n        /* \"contracts/DeAnt3Token.sol\":3568:3580  _totalBurned */\n      sload(0xd0)\n        /* \"contracts/DeAnt3Token.sol\":3568:3589  _totalBurned + amount */\n      tag_318\n      swap2\n      swap1\n      tag_174\n      jump\t// in\n    tag_318:\n        /* \"contracts/DeAnt3Token.sol\":3553:3565  _totalBurned */\n      0xd0\n        /* \"contracts/DeAnt3Token.sol\":3553:3589  _totalBurned = _totalBurned + amount */\n      sstore\n      sub(shl(0xa0, 0x01), 0x01)\n        /* \"contracts/DeAnt3Token.sol\":3627:3651  userTotalBurned[account] */\n      dup3\n      and\n      0x00\n      swap1\n      dup2\n      mstore\n        /* \"contracts/DeAnt3Token.sol\":3627:3642  userTotalBurned */\n      0xd5\n        /* \"contracts/DeAnt3Token.sol\":3627:3651  userTotalBurned[account] */\n      0x20\n      mstore\n      0x40\n      swap1\n      keccak256\n      sload\n        /* \"contracts/DeAnt3Token.sol\":3627:3660  userTotalBurned[account] + amount */\n      tag_319\n      swap1\n        /* \"contracts/DeAnt3Token.sol\":3654:3660  amount */\n      dup3\n      swap1\n        /* \"contracts/DeAnt3Token.sol\":3627:3660  userTotalBurned[account] + amount */\n      tag_174\n      jump\t// in\n    tag_319:\n      sub(shl(0xa0, 0x01), 0x01)\n        /* \"contracts/DeAnt3Token.sol\":3600:3624  userTotalBurned[account] */\n      swap1\n      swap3\n      and\n      0x00\n      swap1\n      dup2\n      mstore\n        /* \"contracts/DeAnt3Token.sol\":3600:3615  userTotalBurned */\n      0xd5\n        /* \"contracts/DeAnt3Token.sol\":3600:3624  userTotalBurned[account] */\n      0x20\n      mstore\n      0x40\n      swap1\n      keccak256\n        /* \"contracts/DeAnt3Token.sol\":3600:3660  userTotalBurned[account] = userTotalBurned[account] + amount */\n      swap2\n      swap1\n      swap2\n      sstore\n      pop\n        /* \"contracts/DeAnt3Token.sol\":3444:3668  function _burnAndUpdate(address account, uint256 amount) private {... */\n      jump\t// out\n        /* \"@openzeppelin/contracts-upgradeable/token/ERC20/ERC20Upgradeable.sol\":5529:5815  function transferFrom(... */\n    tag_166:\n        /* \"@openzeppelin/contracts-upgradeable/token/ERC20/ERC20Upgradeable.sol\":5656:5660  bool */\n      0x00\n        /* \"@openzeppelin/contracts-upgradeable/utils/ContextUpgradeable.sol\":929:939  msg.sender */\n      caller\n        /* \"@openzeppelin/contracts-upgradeable/token/ERC20/ERC20Upgradeable.sol\":5712:5750  _spendAllowance(from, spender, amount) */\n      tag_322\n        /* \"@openzeppelin/contracts-upgradeable/token/ERC20/ERC20Upgradeable.sol\":5728:5732  from */\n      dup6\n        /* \"@openzeppelin/contracts-upgradeable/utils/ContextUpgradeable.sol\":929:939  msg.sender */\n      dup3\n        /* \"@openzeppelin/contracts-upgradeable/token/ERC20/ERC20Upgradeable.sol\":5743:5749  amount */\n      dup6\n        /* \"@openzeppelin/contracts-upgradeable/token/ERC20/ERC20Upgradeable.sol\":5712:5727  _spendAllowance */\n      tag_323\n        /* \"@openzeppelin/contracts-upgradeable/token/ERC20/ERC20Upgradeable.sol\":5712:5750  _spendAllowance(from, spender, amount) */\n      jump\t// in\n    tag_322:\n        /* \"@openzeppelin/contracts-upgradeable/token/ERC20/ERC20Upgradeable.sol\":5760:5787  _transfer(from, to, amount) */\n      tag_239\n        /* \"@openzeppelin/contracts-upgradeable/token/ERC20/ERC20Upgradeable.sol\":5770:5774  from */\n      dup6\n        /* \"@openzeppelin/contracts-upgradeable/token/ERC20/ERC20Upgradeable.sol\":5776:5778  to */\n      dup6\n        /* \"@openzeppelin/contracts-upgradeable/token/ERC20/ERC20Upgradeable.sol\":5780:5786  amount */\n      dup6\n        /* \"@openzeppelin/contracts-upgradeable/token/ERC20/ERC20Upgradeable.sol\":5760:5769  _transfer */\n      tag_325\n        /* \"@openzeppelin/contracts-upgradeable/token/ERC20/ERC20Upgradeable.sol\":5760:5787  _transfer(from, to, amount) */\n      jump\t// in\n        /* \"@openzeppelin/contracts-upgradeable/access/OwnableUpgradeable.sol\":1003:1098  function __Ownable_init() internal onlyInitializing {... */\n    tag_190:\n        /* \"@openzeppelin/contracts-upgradeable/proxy/utils/Initializable.sol\":4910:4923  _initializing */\n      sload(0x00)\n      0x0100\n      swap1\n      div\n      0xff\n      and\n        /* \"@openzeppelin/contracts-upgradeable/proxy/utils/Initializable.sol\":4902:4971  require(_initializing, \"Initializable: contract is not initializing\") */\n      tag_328\n      jumpi\n      mload(0x40)\n      shl(0xe5, 0x461bcd)\n      dup2\n      mstore\n      0x04\n      add\n      tag_185\n      swap1\n      tag_330\n      jump\t// in\n    tag_328:\n        /* \"@openzeppelin/contracts-upgradeable/access/OwnableUpgradeable.sol\":1065:1091  __Ownable_init_unchained() */\n      tag_212\n        /* \"@openzeppelin/contracts-upgradeable/access/OwnableUpgradeable.sol\":1065:1089  __Ownable_init_unchained */\n      tag_333\n        /* \"@openzeppelin/contracts-upgradeable/access/OwnableUpgradeable.sol\":1065:1091  __Ownable_init_unchained() */\n      jump\t// in\n        /* \"@openzeppelin/contracts-upgradeable/token/ERC20/ERC20Upgradeable.sol\":2116:2263  function __ERC20_init(string memory name_, string memory symbol_) internal onlyInitializing {... */\n    tag_192:\n        /* \"@openzeppelin/contracts-upgradeable/proxy/utils/Initializable.sol\":4910:4923  _initializing */\n      sload(0x00)\n      0x0100\n      swap1\n      div\n      0xff\n      and\n        /* \"@openzeppelin/contracts-upgradeable/proxy/utils/Initializable.sol\":4902:4971  require(_initializing, \"Initializable: contract is not initializing\") */\n      tag_335\n      jumpi\n      mload(0x40)\n      shl(0xe5, 0x461bcd)\n      dup2\n      mstore\n      0x04\n      add\n      tag_185\n      swap1\n      tag_330\n      jump\t// in\n    tag_335:\n        /* \"@openzeppelin/contracts-upgradeable/token/ERC20/ERC20Upgradeable.sol\":2218:2256  __ERC20_init_unchained(name_, symbol_) */\n      tag_338\n        /* \"@openzeppelin/contracts-upgradeable/token/ERC20/ERC20Upgradeable.sol\":2241:2246  name_ */\n      dup3\n        /* \"@openzeppelin/contracts-upgradeable/token/ERC20/ERC20Upgradeable.sol\":2248:2255  symbol_ */\n      dup3\n        /* \"@openzeppelin/contracts-upgradeable/token/ERC20/ERC20Upgradeable.sol\":2218:2240  __ERC20_init_unchained */\n      tag_339\n        /* \"@openzeppelin/contracts-upgradeable/token/ERC20/ERC20Upgradeable.sol\":2218:2256  __ERC20_init_unchained(name_, symbol_) */\n      jump\t// in\n    tag_338:\n        /* \"@openzeppelin/contracts-upgradeable/token/ERC20/ERC20Upgradeable.sol\":2116:2263  function __ERC20_init(string memory name_, string memory symbol_) internal onlyInitializing {... */\n      pop\n      pop\n      jump\t// out\n        /* \"@openzeppelin/contracts-upgradeable/token/ERC20/extensions/ERC20CappedUpgradeable.sol\":567:686  function __ERC20Capped_init(uint256 cap_) internal onlyInitializing {... */\n    tag_198:\n        /* \"@openzeppelin/contracts-upgradeable/proxy/utils/Initializable.sol\":4910:4923  _initializing */\n      sload(0x00)\n      0x0100\n      swap1\n      div\n      0xff\n      and\n        /* \"@openzeppelin/contracts-upgradeable/proxy/utils/Initializable.sol\":4902:4971  require(_initializing, \"Initializable: contract is not initializing\") */\n      tag_341\n      jumpi\n      mload(0x40)\n      shl(0xe5, 0x461bcd)\n      dup2\n      mstore\n      0x04\n      add\n      tag_185\n      swap1\n      tag_330\n      jump\t// in\n    tag_341:\n        /* \"@openzeppelin/contracts-upgradeable/token/ERC20/extensions/ERC20CappedUpgradeable.sol\":645:679  __ERC20Capped_init_unchained(cap_) */\n      tag_232\n        /* \"@openzeppelin/contracts-upgradeable/token/ERC20/extensions/ERC20CappedUpgradeable.sol\":674:678  cap_ */\n      dup2\n        /* \"@openzeppelin/contracts-upgradeable/token/ERC20/extensions/ERC20CappedUpgradeable.sol\":645:673  __ERC20Capped_init_unchained */\n      tag_345\n        /* \"@openzeppelin/contracts-upgradeable/token/ERC20/extensions/ERC20CappedUpgradeable.sol\":645:679  __ERC20Capped_init_unchained(cap_) */\n      jump\t// in\n        /* \"@openzeppelin/contracts-upgradeable/token/ERC20/extensions/ERC20CappedUpgradeable.sol\":1063:1278  function _mint(address account, uint256 amount) internal virtual override {... */\n    tag_203:\n        /* \"@openzeppelin/contracts-upgradeable/token/ERC20/extensions/ERC20CappedUpgradeable.sol\":999:1003  _cap */\n      sload(0x65)\n        /* \"@openzeppelin/contracts-upgradeable/token/ERC20/extensions/ERC20CappedUpgradeable.sol\":1188:1194  amount */\n      dup2\n        /* \"@openzeppelin/contracts-upgradeable/token/ERC20/extensions/ERC20CappedUpgradeable.sol\":1155:1185  ERC20Upgradeable.totalSupply() */\n      tag_348\n        /* \"@openzeppelin/contracts-upgradeable/token/ERC20/ERC20Upgradeable.sol\":3668:3680  _totalSupply */\n      sload(0x35)\n      swap1\n        /* \"@openzeppelin/contracts-upgradeable/token/ERC20/ERC20Upgradeable.sol\":3581:3687  function totalSupply() public view virtual override returns (uint256) {... */\n      jump\n        /* \"@openzeppelin/contracts-upgradeable/token/ERC20/extensions/ERC20CappedUpgradeable.sol\":1155:1185  ERC20Upgradeable.totalSupply() */\n    tag_348:\n        /* \"@openzeppelin/contracts-upgradeable/token/ERC20/extensions/ERC20CappedUpgradeable.sol\":1155:1194  ERC20Upgradeable.totalSupply() + amount */\n      tag_349\n      swap2\n      swap1\n      tag_174\n      jump\t// in\n    tag_349:\n        /* \"@openzeppelin/contracts-upgradeable/token/ERC20/extensions/ERC20CappedUpgradeable.sol\":1155:1203  ERC20Upgradeable.totalSupply() + amount <= cap() */\n      gt\n      iszero\n        /* \"@openzeppelin/contracts-upgradeable/token/ERC20/extensions/ERC20CappedUpgradeable.sol\":1147:1233  require(ERC20Upgradeable.totalSupply() + amount <= cap(), \"ERC20Capped: cap exceeded\") */\n      tag_350\n      jumpi\n      mload(0x40)\n      shl(0xe5, 0x461bcd)\n      dup2\n      mstore\n        /* \"#utility.yul\":17964:17966   */\n      0x20\n        /* \"@openzeppelin/contracts-upgradeable/token/ERC20/extensions/ERC20CappedUpgradeable.sol\":1147:1233  require(ERC20Upgradeable.totalSupply() + amount <= cap(), \"ERC20Capped: cap exceeded\") */\n      0x04\n      dup3\n      add\n        /* \"#utility.yul\":17946:17967   */\n      mstore\n        /* \"#utility.yul\":18003:18005   */\n      0x19\n        /* \"#utility.yul\":17983:18001   */\n      0x24\n      dup3\n      add\n        /* \"#utility.yul\":17976:18006   */\n      mstore\n        /* \"#utility.yul\":18042:18069   */\n      0x45524332304361707065643a2063617020657863656564656400000000000000\n        /* \"#utility.yul\":18022:18040   */\n      0x44\n      dup3\n      add\n        /* \"#utility.yul\":18015:18070   */\n      mstore\n        /* \"#utility.yul\":18087:18105   */\n      0x64\n      add\n        /* \"@openzeppelin/contracts-upgradeable/token/ERC20/extensions/ERC20CappedUpgradeable.sol\":1147:1233  require(ERC20Upgradeable.totalSupply() + amount <= cap(), \"ERC20Capped: cap exceeded\") */\n      tag_185\n        /* \"#utility.yul\":17762:18111   */\n      jump\n        /* \"@openzeppelin/contracts-upgradeable/token/ERC20/extensions/ERC20CappedUpgradeable.sol\":1147:1233  require(ERC20Upgradeable.totalSupply() + amount <= cap(), \"ERC20Capped: cap exceeded\") */\n    tag_350:\n        /* \"@openzeppelin/contracts-upgradeable/token/ERC20/extensions/ERC20CappedUpgradeable.sol\":1243:1271  super._mint(account, amount) */\n      tag_338\n        /* \"@openzeppelin/contracts-upgradeable/token/ERC20/extensions/ERC20CappedUpgradeable.sol\":1255:1262  account */\n      dup3\n        /* \"@openzeppelin/contracts-upgradeable/token/ERC20/extensions/ERC20CappedUpgradeable.sol\":1264:1270  amount */\n      dup3\n        /* \"@openzeppelin/contracts-upgradeable/token/ERC20/extensions/ERC20CappedUpgradeable.sol\":1243:1254  super._mint */\n      tag_354\n        /* \"@openzeppelin/contracts-upgradeable/token/ERC20/extensions/ERC20CappedUpgradeable.sol\":1243:1271  super._mint(account, amount) */\n      jump\t// in\n        /* \"@openzeppelin/contracts-upgradeable/access/OwnableUpgradeable.sol\":1599:1729  function _checkOwner() internal view virtual {... */\n    tag_210:\n        /* \"@openzeppelin/contracts-upgradeable/access/OwnableUpgradeable.sol\":1513:1519  _owner */\n      and(sub(shl(0xa0, 0x01), 0x01), sload(0x98))\n        /* \"@openzeppelin/contracts-upgradeable/utils/ContextUpgradeable.sol\":929:939  msg.sender */\n      caller\n        /* \"@openzeppelin/contracts-upgradeable/access/OwnableUpgradeable.sol\":1662:1685  owner() == _msgSender() */\n      eq\n        /* \"@openzeppelin/contracts-upgradeable/access/OwnableUpgradeable.sol\":1654:1722  require(owner() == _msgSender(), \"Ownable: caller is not the owner\") */\n      tag_212\n      jumpi\n      mload(0x40)\n      shl(0xe5, 0x461bcd)\n      dup2\n      mstore\n        /* \"#utility.yul\":18318:18320   */\n      0x20\n        /* \"@openzeppelin/contracts-upgradeable/access/OwnableUpgradeable.sol\":1654:1722  require(owner() == _msgSender(), \"Ownable: caller is not the owner\") */\n      0x04\n      dup3\n      add\n        /* \"#utility.yul\":18300:18321   */\n      dup2\n      swap1\n      mstore\n        /* \"#utility.yul\":18337:18355   */\n      0x24\n      dup3\n      add\n        /* \"#utility.yul\":18330:18360   */\n      mstore\n        /* \"#utility.yul\":18396:18430   */\n      0x4f776e61626c653a2063616c6c6572206973206e6f7420746865206f776e6572\n        /* \"#utility.yul\":18376:18394   */\n      0x44\n      dup3\n      add\n        /* \"#utility.yul\":18369:18431   */\n      mstore\n        /* \"#utility.yul\":18448:18466   */\n      0x64\n      add\n        /* \"@openzeppelin/contracts-upgradeable/access/OwnableUpgradeable.sol\":1654:1722  require(owner() == _msgSender(), \"Ownable: caller is not the owner\") */\n      tag_185\n        /* \"#utility.yul\":18116:18472   */\n      jump\n        /* \"@openzeppelin/contracts-upgradeable/access/OwnableUpgradeable.sol\":2673:2860  function _transferOwnership(address newOwner) internal virtual {... */\n    tag_213:\n        /* \"@openzeppelin/contracts-upgradeable/access/OwnableUpgradeable.sol\":2765:2771  _owner */\n      0x98\n      dup1\n      sload\n      sub(shl(0xa0, 0x01), 0x01)\n        /* \"@openzeppelin/contracts-upgradeable/access/OwnableUpgradeable.sol\":2781:2798  _owner = newOwner */\n      dup4\n      dup2\n      and\n      not(sub(shl(0xa0, 0x01), 0x01))\n      dup4\n      and\n      dup2\n      or\n      swap1\n      swap4\n      sstore\n        /* \"@openzeppelin/contracts-upgradeable/access/OwnableUpgradeable.sol\":2813:2853  OwnershipTransferred(oldOwner, newOwner) */\n      mload(0x40)\n        /* \"@openzeppelin/contracts-upgradeable/access/OwnableUpgradeable.sol\":2765:2771  _owner */\n      swap2\n      and\n      swap2\n        /* \"@openzeppelin/contracts-upgradeable/access/OwnableUpgradeable.sol\":2781:2798  _owner = newOwner */\n      swap1\n        /* \"@openzeppelin/contracts-upgradeable/access/OwnableUpgradeable.sol\":2765:2771  _owner */\n      dup3\n      swap1\n        /* \"@openzeppelin/contracts-upgradeable/access/OwnableUpgradeable.sol\":2813:2853  OwnershipTransferred(oldOwner, newOwner) */\n      0x8be0079c531659141344cd1fd0a4f28419497f9722a3daafe3b4186f6b6457e0\n      swap1\n        /* \"@openzeppelin/contracts-upgradeable/access/OwnableUpgradeable.sol\":2746:2762  address oldOwner */\n      0x00\n      swap1\n        /* \"@openzeppelin/contracts-upgradeable/access/OwnableUpgradeable.sol\":2813:2853  OwnershipTransferred(oldOwner, newOwner) */\n      log3\n        /* \"@openzeppelin/contracts-upgradeable/access/OwnableUpgradeable.sol\":2736:2860  {... */\n      pop\n        /* \"@openzeppelin/contracts-upgradeable/access/OwnableUpgradeable.sol\":2673:2860  function _transferOwnership(address newOwner) internal virtual {... */\n      pop\n      jump\t// out\n        /* \"contracts/DeAnt3Token.sol\":2240:2481  function _updateMap(... */\n    tag_227:\n        /* \"contracts/DeAnt3Token.sol\":2392:2400  uint64 i */\n      0x00\n        /* \"contracts/DeAnt3Token.sol\":2387:2474  for (uint64 i = 0; i < arr.length; i++) {... */\n    tag_363:\n        /* \"contracts/DeAnt3Token.sol\":2410:2413  arr */\n      dup4\n        /* \"contracts/DeAnt3Token.sol\":2410:2420  arr.length */\n      mload\n        /* \"contracts/DeAnt3Token.sol\":2406:2407  i */\n      dup2\n      sub(shl(0x40, 0x01), 0x01)\n        /* \"contracts/DeAnt3Token.sol\":2406:2420  i < arr.length */\n      and\n      lt\n        /* \"contracts/DeAnt3Token.sol\":2387:2474  for (uint64 i = 0; i < arr.length; i++) {... */\n      iszero\n      tag_364\n      jumpi\n        /* \"contracts/DeAnt3Token.sol\":2456:2462  status */\n      dup3\n        /* \"contracts/DeAnt3Token.sol\":2442:2445  map */\n      dup3\n        /* \"contracts/DeAnt3Token.sol\":2442:2453  map[arr[i]] */\n      0x00\n        /* \"contracts/DeAnt3Token.sol\":2446:2449  arr */\n      dup7\n        /* \"contracts/DeAnt3Token.sol\":2450:2451  i */\n      dup5\n      sub(shl(0x40, 0x01), 0x01)\n        /* \"contracts/DeAnt3Token.sol\":2446:2452  arr[i] */\n      and\n      dup2\n      mload\n      dup2\n      lt\n      tag_367\n      jumpi\n      tag_367\n      tag_268\n      jump\t// in\n    tag_367:\n      0x20\n      swap1\n      dup2\n      mul\n      swap2\n      swap1\n      swap2\n      add\n      dup2\n      add\n      mload\n      sub(shl(0xa0, 0x01), 0x01)\n        /* \"contracts/DeAnt3Token.sol\":2442:2453  map[arr[i]] */\n      and\n      dup3\n      mstore\n      dup2\n      add\n      swap2\n      swap1\n      swap2\n      mstore\n      0x40\n      add\n      0x00\n      keccak256\n        /* \"contracts/DeAnt3Token.sol\":2442:2462  map[arr[i]] = status */\n      dup1\n      sload\n      not(0xff)\n      and\n      swap2\n      iszero\n      iszero\n      swap2\n      swap1\n      swap2\n      or\n      swap1\n      sstore\n        /* \"contracts/DeAnt3Token.sol\":2422:2425  i++ */\n      dup1\n      tag_368\n      dup2\n      tag_282\n      jump\t// in\n    tag_368:\n      swap2\n      pop\n      pop\n        /* \"contracts/DeAnt3Token.sol\":2387:2474  for (uint64 i = 0; i < arr.length; i++) {... */\n      jump(tag_363)\n    tag_364:\n      pop\n        /* \"contracts/DeAnt3Token.sol\":2240:2481  function _updateMap(... */\n      pop\n      pop\n      pop\n      jump\t// out\n        /* \"@openzeppelin/contracts-upgradeable/token/ERC20/ERC20Upgradeable.sol\":4066:4255  function transfer(address to, uint256 amount) public virtual override returns (bool) {... */\n    tag_244:\n        /* \"@openzeppelin/contracts-upgradeable/token/ERC20/ERC20Upgradeable.sol\":4145:4149  bool */\n      0x00\n        /* \"@openzeppelin/contracts-upgradeable/utils/ContextUpgradeable.sol\":929:939  msg.sender */\n      caller\n        /* \"@openzeppelin/contracts-upgradeable/token/ERC20/ERC20Upgradeable.sol\":4199:4227  _transfer(owner, to, amount) */\n      tag_157\n        /* \"@openzeppelin/contracts-upgradeable/utils/ContextUpgradeable.sol\":929:939  msg.sender */\n      dup2\n        /* \"@openzeppelin/contracts-upgradeable/token/ERC20/ERC20Upgradeable.sol\":4216:4218  to */\n      dup6\n        /* \"@openzeppelin/contracts-upgradeable/token/ERC20/ERC20Upgradeable.sol\":4220:4226  amount */\n      dup6\n        /* \"@openzeppelin/contracts-upgradeable/token/ERC20/ERC20Upgradeable.sol\":4199:4208  _transfer */\n      tag_325\n        /* \"@openzeppelin/contracts-upgradeable/token/ERC20/ERC20Upgradeable.sol\":4199:4227  _transfer(owner, to, amount) */\n      jump\t// in\n        /* \"@openzeppelin/contracts-upgradeable/token/ERC20/ERC20Upgradeable.sol\":9448:10024  function _burn(address account, uint256 amount) internal virtual {... */\n    tag_317:\n      sub(shl(0xa0, 0x01), 0x01)\n        /* \"@openzeppelin/contracts-upgradeable/token/ERC20/ERC20Upgradeable.sol\":9531:9552  account != address(0) */\n      dup3\n      and\n        /* \"@openzeppelin/contracts-upgradeable/token/ERC20/ERC20Upgradeable.sol\":9523:9590  require(account != address(0), \"ERC20: burn from the zero address\") */\n      tag_373\n      jumpi\n      mload(0x40)\n      shl(0xe5, 0x461bcd)\n      dup2\n      mstore\n        /* \"#utility.yul\":18679:18681   */\n      0x20\n        /* \"@openzeppelin/contracts-upgradeable/token/ERC20/ERC20Upgradeable.sol\":9523:9590  require(account != address(0), \"ERC20: burn from the zero address\") */\n      0x04\n      dup3\n      add\n        /* \"#utility.yul\":18661:18682   */\n      mstore\n        /* \"#utility.yul\":18718:18720   */\n      0x21\n        /* \"#utility.yul\":18698:18716   */\n      0x24\n      dup3\n      add\n        /* \"#utility.yul\":18691:18721   */\n      mstore\n        /* \"#utility.yul\":18757:18791   */\n      0x45524332303a206275726e2066726f6d20746865207a65726f20616464726573\n        /* \"#utility.yul\":18737:18755   */\n      0x44\n      dup3\n      add\n        /* \"#utility.yul\":18730:18792   */\n      mstore\n      shl(0xf8, 0x73)\n        /* \"#utility.yul\":18808:18826   */\n      0x64\n      dup3\n      add\n        /* \"#utility.yul\":18801:18832   */\n      mstore\n        /* \"#utility.yul\":18849:18868   */\n      0x84\n      add\n        /* \"@openzeppelin/contracts-upgradeable/token/ERC20/ERC20Upgradeable.sol\":9523:9590  require(account != address(0), \"ERC20: burn from the zero address\") */\n      tag_185\n        /* \"#utility.yul\":18477:18874   */\n      jump\n        /* \"@openzeppelin/contracts-upgradeable/token/ERC20/ERC20Upgradeable.sol\":9523:9590  require(account != address(0), \"ERC20: burn from the zero address\") */\n    tag_373:\n      sub(shl(0xa0, 0x01), 0x01)\n        /* \"@openzeppelin/contracts-upgradeable/token/ERC20/ERC20Upgradeable.sol\":9686:9704  _balances[account] */\n      dup3\n      and\n        /* \"@openzeppelin/contracts-upgradeable/token/ERC20/ERC20Upgradeable.sol\":9661:9683  uint256 accountBalance */\n      0x00\n        /* \"@openzeppelin/contracts-upgradeable/token/ERC20/ERC20Upgradeable.sol\":9686:9704  _balances[account] */\n      swap1\n      dup2\n      mstore\n        /* \"@openzeppelin/contracts-upgradeable/token/ERC20/ERC20Upgradeable.sol\":9686:9695  _balances */\n      0x33\n        /* \"@openzeppelin/contracts-upgradeable/token/ERC20/ERC20Upgradeable.sol\":9686:9704  _balances[account] */\n      0x20\n      mstore\n      0x40\n      swap1\n      keccak256\n      sload\n        /* \"@openzeppelin/contracts-upgradeable/token/ERC20/ERC20Upgradeable.sol\":9722:9746  accountBalance >= amount */\n      dup2\n      dup2\n      lt\n      iszero\n        /* \"@openzeppelin/contracts-upgradeable/token/ERC20/ERC20Upgradeable.sol\":9714:9785  require(accountBalance >= amount, \"ERC20: burn amount exceeds balance\") */\n      tag_378\n      jumpi\n      mload(0x40)\n      shl(0xe5, 0x461bcd)\n      dup2\n      mstore\n        /* \"#utility.yul\":19081:19083   */\n      0x20\n        /* \"@openzeppelin/contracts-upgradeable/token/ERC20/ERC20Upgradeable.sol\":9714:9785  require(accountBalance >= amount, \"ERC20: burn amount exceeds balance\") */\n      0x04\n      dup3\n      add\n        /* \"#utility.yul\":19063:19084   */\n      mstore\n        /* \"#utility.yul\":19120:19122   */\n      0x22\n        /* \"#utility.yul\":19100:19118   */\n      0x24\n      dup3\n      add\n        /* \"#utility.yul\":19093:19123   */\n      mstore\n        /* \"#utility.yul\":19159:19193   */\n      0x45524332303a206275726e20616d6f756e7420657863656564732062616c616e\n        /* \"#utility.yul\":19139:19157   */\n      0x44\n      dup3\n      add\n        /* \"#utility.yul\":19132:19194   */\n      mstore\n      shl(0xf0, 0x6365)\n        /* \"#utility.yul\":19210:19228   */\n      0x64\n      dup3\n      add\n        /* \"#utility.yul\":19203:19235   */\n      mstore\n        /* \"#utility.yul\":19252:19271   */\n      0x84\n      add\n        /* \"@openzeppelin/contracts-upgradeable/token/ERC20/ERC20Upgradeable.sol\":9714:9785  require(accountBalance >= amount, \"ERC20: burn amount exceeds balance\") */\n      tag_185\n        /* \"#utility.yul\":18879:19277   */\n      jump\n        /* \"@openzeppelin/contracts-upgradeable/token/ERC20/ERC20Upgradeable.sol\":9714:9785  require(accountBalance >= amount, \"ERC20: burn amount exceeds balance\") */\n    tag_378:\n      sub(shl(0xa0, 0x01), 0x01)\n        /* \"@openzeppelin/contracts-upgradeable/token/ERC20/ERC20Upgradeable.sol\":9819:9837  _balances[account] */\n      dup4\n      and\n      0x00\n      swap1\n      dup2\n      mstore\n        /* \"@openzeppelin/contracts-upgradeable/token/ERC20/ERC20Upgradeable.sol\":9819:9828  _balances */\n      0x33\n        /* \"@openzeppelin/contracts-upgradeable/token/ERC20/ERC20Upgradeable.sol\":9819:9837  _balances[account] */\n      0x20\n      mstore\n      0x40\n      dup2\n      keccak256\n        /* \"@openzeppelin/contracts-upgradeable/token/ERC20/ERC20Upgradeable.sol\":9840:9863  accountBalance - amount */\n      dup4\n      dup4\n      sub\n        /* \"@openzeppelin/contracts-upgradeable/token/ERC20/ERC20Upgradeable.sol\":9819:9863  _balances[account] = accountBalance - amount */\n      swap1\n      sstore\n        /* \"@openzeppelin/contracts-upgradeable/token/ERC20/ERC20Upgradeable.sol\":9883:9895  _totalSupply */\n      0x35\n        /* \"@openzeppelin/contracts-upgradeable/token/ERC20/ERC20Upgradeable.sol\":9883:9905  _totalSupply -= amount */\n      dup1\n      sload\n        /* \"@openzeppelin/contracts-upgradeable/token/ERC20/ERC20Upgradeable.sol\":9857:9863  amount */\n      dup5\n      swap3\n        /* \"@openzeppelin/contracts-upgradeable/token/ERC20/ERC20Upgradeable.sol\":9819:9837  _balances[account] */\n      swap1\n        /* \"@openzeppelin/contracts-upgradeable/token/ERC20/ERC20Upgradeable.sol\":9883:9905  _totalSupply -= amount */\n      tag_381\n      swap1\n        /* \"@openzeppelin/contracts-upgradeable/token/ERC20/ERC20Upgradeable.sol\":9857:9863  amount */\n      dup5\n      swap1\n        /* \"@openzeppelin/contracts-upgradeable/token/ERC20/ERC20Upgradeable.sol\":9883:9905  _totalSupply -= amount */\n      tag_249\n      jump\t// in\n    tag_381:\n      swap1\n      swap2\n      sstore\n      pop\n      pop\n        /* \"@openzeppelin/contracts-upgradeable/token/ERC20/ERC20Upgradeable.sol\":9921:9958  Transfer(account, address(0), amount) */\n      mload(0x40)\n        /* \"#utility.yul\":1662:1687   */\n      dup3\n      dup2\n      mstore\n        /* \"@openzeppelin/contracts-upgradeable/token/ERC20/ERC20Upgradeable.sol\":9947:9948  0 */\n      0x00\n      swap1\n      sub(shl(0xa0, 0x01), 0x01)\n        /* \"@openzeppelin/contracts-upgradeable/token/ERC20/ERC20Upgradeable.sol\":9921:9958  Transfer(account, address(0), amount) */\n      dup6\n      and\n      swap1\n      0xddf252ad1be2c89b69c2b068fc378daa952ba7f163c4a11628f55a4df523b3ef\n      swap1\n        /* \"#utility.yul\":1650:1652   */\n      0x20\n        /* \"#utility.yul\":1635:1653   */\n      add\n        /* \"@openzeppelin/contracts-upgradeable/token/ERC20/ERC20Upgradeable.sol\":9921:9958  Transfer(account, address(0), amount) */\n      tag_310\n        /* \"#utility.yul\":1516:1693   */\n      jump\n        /* \"@openzeppelin/contracts-upgradeable/token/ERC20/ERC20Upgradeable.sol\":9969:10017  _afterTokenTransfer(account, address(0), amount) */\n    tag_383:\n        /* \"@openzeppelin/contracts-upgradeable/token/ERC20/ERC20Upgradeable.sol\":9513:10024  {... */\n      pop\n        /* \"@openzeppelin/contracts-upgradeable/token/ERC20/ERC20Upgradeable.sol\":9448:10024  function _burn(address account, uint256 amount) internal virtual {... */\n      pop\n      pop\n      jump\t// out\n        /* \"@openzeppelin/contracts-upgradeable/token/ERC20/ERC20Upgradeable.sol\":11098:11539  function _spendAllowance(... */\n    tag_323:\n        /* \"@openzeppelin/contracts-upgradeable/token/ERC20/ERC20Upgradeable.sol\":11228:11252  uint256 currentAllowance */\n      0x00\n        /* \"@openzeppelin/contracts-upgradeable/token/ERC20/ERC20Upgradeable.sol\":11255:11280  allowance(owner, spender) */\n      tag_386\n        /* \"@openzeppelin/contracts-upgradeable/token/ERC20/ERC20Upgradeable.sol\":11265:11270  owner */\n      dup5\n        /* \"@openzeppelin/contracts-upgradeable/token/ERC20/ERC20Upgradeable.sol\":11272:11279  spender */\n      dup5\n        /* \"@openzeppelin/contracts-upgradeable/token/ERC20/ERC20Upgradeable.sol\":11255:11264  allowance */\n      tag_129\n        /* \"@openzeppelin/contracts-upgradeable/token/ERC20/ERC20Upgradeable.sol\":11255:11280  allowance(owner, spender) */\n      jump\t// in\n    tag_386:\n        /* \"@openzeppelin/contracts-upgradeable/token/ERC20/ERC20Upgradeable.sol\":11228:11280  uint256 currentAllowance = allowance(owner, spender) */\n      swap1\n      pop\n      not(0x00)\n        /* \"@openzeppelin/contracts-upgradeable/token/ERC20/ERC20Upgradeable.sol\":11294:11310  currentAllowance */\n      dup2\n        /* \"@openzeppelin/contracts-upgradeable/token/ERC20/ERC20Upgradeable.sol\":11294:11331  currentAllowance != type(uint256).max */\n      eq\n        /* \"@openzeppelin/contracts-upgradeable/token/ERC20/ERC20Upgradeable.sol\":11290:11533  if (currentAllowance != type(uint256).max) {... */\n      tag_364\n      jumpi\n        /* \"@openzeppelin/contracts-upgradeable/token/ERC20/ERC20Upgradeable.sol\":11375:11381  amount */\n      dup2\n        /* \"@openzeppelin/contracts-upgradeable/token/ERC20/ERC20Upgradeable.sol\":11355:11371  currentAllowance */\n      dup2\n        /* \"@openzeppelin/contracts-upgradeable/token/ERC20/ERC20Upgradeable.sol\":11355:11381  currentAllowance >= amount */\n      lt\n      iszero\n        /* \"@openzeppelin/contracts-upgradeable/token/ERC20/ERC20Upgradeable.sol\":11347:11415  require(currentAllowance >= amount, \"ERC20: insufficient allowance\") */\n      tag_388\n      jumpi\n      mload(0x40)\n      shl(0xe5, 0x461bcd)\n      dup2\n      mstore\n        /* \"#utility.yul\":19484:19486   */\n      0x20\n        /* \"@openzeppelin/contracts-upgradeable/token/ERC20/ERC20Upgradeable.sol\":11347:11415  require(currentAllowance >= amount, \"ERC20: insufficient allowance\") */\n      0x04\n      dup3\n      add\n        /* \"#utility.yul\":19466:19487   */\n      mstore\n        /* \"#utility.yul\":19523:19525   */\n      0x1d\n        /* \"#utility.yul\":19503:19521   */\n      0x24\n      dup3\n      add\n        /* \"#utility.yul\":19496:19526   */\n      mstore\n        /* \"#utility.yul\":19562:19593   */\n      0x45524332303a20696e73756666696369656e7420616c6c6f77616e6365000000\n        /* \"#utility.yul\":19542:19560   */\n      0x44\n      dup3\n      add\n        /* \"#utility.yul\":19535:19594   */\n      mstore\n        /* \"#utility.yul\":19611:19629   */\n      0x64\n      add\n        /* \"@openzeppelin/contracts-upgradeable/token/ERC20/ERC20Upgradeable.sol\":11347:11415  require(currentAllowance >= amount, \"ERC20: insufficient allowance\") */\n      tag_185\n        /* \"#utility.yul\":19282:19635   */\n      jump\n        /* \"@openzeppelin/contracts-upgradeable/token/ERC20/ERC20Upgradeable.sol\":11347:11415  require(currentAllowance >= amount, \"ERC20: insufficient allowance\") */\n    tag_388:\n        /* \"@openzeppelin/contracts-upgradeable/token/ERC20/ERC20Upgradeable.sol\":11457:11508  _approve(owner, spender, currentAllowance - amount) */\n      tag_364\n        /* \"@openzeppelin/contracts-upgradeable/token/ERC20/ERC20Upgradeable.sol\":11466:11471  owner */\n      dup5\n        /* \"@openzeppelin/contracts-upgradeable/token/ERC20/ERC20Upgradeable.sol\":11473:11480  spender */\n      dup5\n        /* \"@openzeppelin/contracts-upgradeable/token/ERC20/ERC20Upgradeable.sol\":11501:11507  amount */\n      dup5\n        /* \"@openzeppelin/contracts-upgradeable/token/ERC20/ERC20Upgradeable.sol\":11482:11498  currentAllowance */\n      dup5\n        /* \"@openzeppelin/contracts-upgradeable/token/ERC20/ERC20Upgradeable.sol\":11482:11507  currentAllowance - amount */\n      sub\n        /* \"@openzeppelin/contracts-upgradeable/token/ERC20/ERC20Upgradeable.sol\":11457:11465  _approve */\n      tag_158\n        /* \"@openzeppelin/contracts-upgradeable/token/ERC20/ERC20Upgradeable.sol\":11457:11508  _approve(owner, spender, currentAllowance - amount) */\n      jump\t// in\n        /* \"@openzeppelin/contracts-upgradeable/token/ERC20/ERC20Upgradeable.sol\":7812:8463  function _transfer(... */\n    tag_325:\n      sub(shl(0xa0, 0x01), 0x01)\n        /* \"@openzeppelin/contracts-upgradeable/token/ERC20/ERC20Upgradeable.sol\":7938:7956  from != address(0) */\n      dup4\n      and\n        /* \"@openzeppelin/contracts-upgradeable/token/ERC20/ERC20Upgradeable.sol\":7930:7998  require(from != address(0), \"ERC20: transfer from the zero address\") */\n      tag_393\n      jumpi\n      mload(0x40)\n      shl(0xe5, 0x461bcd)\n      dup2\n      mstore\n        /* \"#utility.yul\":19842:19844   */\n      0x20\n        /* \"@openzeppelin/contracts-upgradeable/token/ERC20/ERC20Upgradeable.sol\":7930:7998  require(from != address(0), \"ERC20: transfer from the zero address\") */\n      0x04\n      dup3\n      add\n        /* \"#utility.yul\":19824:19845   */\n      mstore\n        /* \"#utility.yul\":19881:19883   */\n      0x25\n        /* \"#utility.yul\":19861:19879   */\n      0x24\n      dup3\n      add\n        /* \"#utility.yul\":19854:19884   */\n      mstore\n        /* \"#utility.yul\":19920:19954   */\n      0x45524332303a207472616e736665722066726f6d20746865207a65726f206164\n        /* \"#utility.yul\":19900:19918   */\n      0x44\n      dup3\n      add\n        /* \"#utility.yul\":19893:19955   */\n      mstore\n      shl(0xd8, 0x6472657373)\n        /* \"#utility.yul\":19971:19989   */\n      0x64\n      dup3\n      add\n        /* \"#utility.yul\":19964:19999   */\n      mstore\n        /* \"#utility.yul\":20016:20035   */\n      0x84\n      add\n        /* \"@openzeppelin/contracts-upgradeable/token/ERC20/ERC20Upgradeable.sol\":7930:7998  require(from != address(0), \"ERC20: transfer from the zero address\") */\n      tag_185\n        /* \"#utility.yul\":19640:20041   */\n      jump\n        /* \"@openzeppelin/contracts-upgradeable/token/ERC20/ERC20Upgradeable.sol\":7930:7998  require(from != address(0), \"ERC20: transfer from the zero address\") */\n    tag_393:\n      sub(shl(0xa0, 0x01), 0x01)\n        /* \"@openzeppelin/contracts-upgradeable/token/ERC20/ERC20Upgradeable.sol\":8016:8032  to != address(0) */\n      dup3\n      and\n        /* \"@openzeppelin/contracts-upgradeable/token/ERC20/ERC20Upgradeable.sol\":8008:8072  require(to != address(0), \"ERC20: transfer to the zero address\") */\n      tag_396\n      jumpi\n      mload(0x40)\n      shl(0xe5, 0x461bcd)\n      dup2\n      mstore\n        /* \"#utility.yul\":20248:20250   */\n      0x20\n        /* \"@openzeppelin/contracts-upgradeable/token/ERC20/ERC20Upgradeable.sol\":8008:8072  require(to != address(0), \"ERC20: transfer to the zero address\") */\n      0x04\n      dup3\n      add\n        /* \"#utility.yul\":20230:20251   */\n      mstore\n        /* \"#utility.yul\":20287:20289   */\n      0x23\n        /* \"#utility.yul\":20267:20285   */\n      0x24\n      dup3\n      add\n        /* \"#utility.yul\":20260:20290   */\n      mstore\n        /* \"#utility.yul\":20326:20360   */\n      0x45524332303a207472616e7366657220746f20746865207a65726f2061646472\n        /* \"#utility.yul\":20306:20324   */\n      0x44\n      dup3\n      add\n        /* \"#utility.yul\":20299:20361   */\n      mstore\n      shl(0xe8, 0x657373)\n        /* \"#utility.yul\":20377:20395   */\n      0x64\n      dup3\n      add\n        /* \"#utility.yul\":20370:20403   */\n      mstore\n        /* \"#utility.yul\":20420:20439   */\n      0x84\n      add\n        /* \"@openzeppelin/contracts-upgradeable/token/ERC20/ERC20Upgradeable.sol\":8008:8072  require(to != address(0), \"ERC20: transfer to the zero address\") */\n      tag_185\n        /* \"#utility.yul\":20046:20445   */\n      jump\n        /* \"@openzeppelin/contracts-upgradeable/token/ERC20/ERC20Upgradeable.sol\":8008:8072  require(to != address(0), \"ERC20: transfer to the zero address\") */\n    tag_396:\n      sub(shl(0xa0, 0x01), 0x01)\n        /* \"@openzeppelin/contracts-upgradeable/token/ERC20/ERC20Upgradeable.sol\":8154:8169  _balances[from] */\n      dup4\n      and\n        /* \"@openzeppelin/contracts-upgradeable/token/ERC20/ERC20Upgradeable.sol\":8132:8151  uint256 fromBalance */\n      0x00\n        /* \"@openzeppelin/contracts-upgradeable/token/ERC20/ERC20Upgradeable.sol\":8154:8169  _balances[from] */\n      swap1\n      dup2\n      mstore\n        /* \"@openzeppelin/contracts-upgradeable/token/ERC20/ERC20Upgradeable.sol\":8154:8163  _balances */\n      0x33\n        /* \"@openzeppelin/contracts-upgradeable/token/ERC20/ERC20Upgradeable.sol\":8154:8169  _balances[from] */\n      0x20\n      mstore\n      0x40\n      swap1\n      keccak256\n      sload\n        /* \"@openzeppelin/contracts-upgradeable/token/ERC20/ERC20Upgradeable.sol\":8187:8208  fromBalance >= amount */\n      dup2\n      dup2\n      lt\n      iszero\n        /* \"@openzeppelin/contracts-upgradeable/token/ERC20/ERC20Upgradeable.sol\":8179:8251  require(fromBalance >= amount, \"ERC20: transfer amount exceeds balance\") */\n      tag_400\n      jumpi\n      mload(0x40)\n      shl(0xe5, 0x461bcd)\n      dup2\n      mstore\n        /* \"#utility.yul\":20652:20654   */\n      0x20\n        /* \"@openzeppelin/contracts-upgradeable/token/ERC20/ERC20Upgradeable.sol\":8179:8251  require(fromBalance >= amount, \"ERC20: transfer amount exceeds balance\") */\n      0x04\n      dup3\n      add\n        /* \"#utility.yul\":20634:20655   */\n      mstore\n        /* \"#utility.yul\":20691:20693   */\n      0x26\n        /* \"#utility.yul\":20671:20689   */\n      0x24\n      dup3\n      add\n        /* \"#utility.yul\":20664:20694   */\n      mstore\n        /* \"#utility.yul\":20730:20764   */\n      0x45524332303a207472616e7366657220616d6f756e7420657863656564732062\n        /* \"#utility.yul\":20710:20728   */\n      0x44\n      dup3\n      add\n        /* \"#utility.yul\":20703:20765   */\n      mstore\n      shl(0xd0, 0x616c616e6365)\n        /* \"#utility.yul\":20781:20799   */\n      0x64\n      dup3\n      add\n        /* \"#utility.yul\":20774:20810   */\n      mstore\n        /* \"#utility.yul\":20827:20846   */\n      0x84\n      add\n        /* \"@openzeppelin/contracts-upgradeable/token/ERC20/ERC20Upgradeable.sol\":8179:8251  require(fromBalance >= amount, \"ERC20: transfer amount exceeds balance\") */\n      tag_185\n        /* \"#utility.yul\":20450:20852   */\n      jump\n        /* \"@openzeppelin/contracts-upgradeable/token/ERC20/ERC20Upgradeable.sol\":8179:8251  require(fromBalance >= amount, \"ERC20: transfer amount exceeds balance\") */\n    tag_400:\n      sub(shl(0xa0, 0x01), 0x01)\n        /* \"@openzeppelin/contracts-upgradeable/token/ERC20/ERC20Upgradeable.sol\":8285:8300  _balances[from] */\n      dup1\n      dup6\n      and\n      0x00\n      swap1\n      dup2\n      mstore\n        /* \"@openzeppelin/contracts-upgradeable/token/ERC20/ERC20Upgradeable.sol\":8285:8294  _balances */\n      0x33\n        /* \"@openzeppelin/contracts-upgradeable/token/ERC20/ERC20Upgradeable.sol\":8285:8300  _balances[from] */\n      0x20\n      mstore\n      0x40\n      dup1\n      dup3\n      keccak256\n        /* \"@openzeppelin/contracts-upgradeable/token/ERC20/ERC20Upgradeable.sol\":8303:8323  fromBalance - amount */\n      dup6\n      dup6\n      sub\n        /* \"@openzeppelin/contracts-upgradeable/token/ERC20/ERC20Upgradeable.sol\":8285:8323  _balances[from] = fromBalance - amount */\n      swap1\n      sstore\n        /* \"@openzeppelin/contracts-upgradeable/token/ERC20/ERC20Upgradeable.sol\":8343:8356  _balances[to] */\n      swap2\n      dup6\n      and\n      dup2\n      mstore\n      swap1\n      dup2\n      keccak256\n        /* \"@openzeppelin/contracts-upgradeable/token/ERC20/ERC20Upgradeable.sol\":8343:8366  _balances[to] += amount */\n      dup1\n      sload\n        /* \"@openzeppelin/contracts-upgradeable/token/ERC20/ERC20Upgradeable.sol\":8317:8323  amount */\n      dup5\n      swap3\n        /* \"@openzeppelin/contracts-upgradeable/token/ERC20/ERC20Upgradeable.sol\":8285:8300  _balances[from] */\n      swap1\n        /* \"@openzeppelin/contracts-upgradeable/token/ERC20/ERC20Upgradeable.sol\":8343:8366  _balances[to] += amount */\n      tag_403\n      swap1\n        /* \"@openzeppelin/contracts-upgradeable/token/ERC20/ERC20Upgradeable.sol\":8317:8323  amount */\n      dup5\n      swap1\n        /* \"@openzeppelin/contracts-upgradeable/token/ERC20/ERC20Upgradeable.sol\":8343:8366  _balances[to] += amount */\n      tag_174\n      jump\t// in\n    tag_403:\n      swap3\n      pop\n      pop\n      dup2\n      swap1\n      sstore\n      pop\n        /* \"@openzeppelin/contracts-upgradeable/token/ERC20/ERC20Upgradeable.sol\":8397:8399  to */\n      dup3\n      sub(shl(0xa0, 0x01), 0x01)\n        /* \"@openzeppelin/contracts-upgradeable/token/ERC20/ERC20Upgradeable.sol\":8382:8408  Transfer(from, to, amount) */\n      and\n        /* \"@openzeppelin/contracts-upgradeable/token/ERC20/ERC20Upgradeable.sol\":8391:8395  from */\n      dup5\n      sub(shl(0xa0, 0x01), 0x01)\n        /* \"@openzeppelin/contracts-upgradeable/token/ERC20/ERC20Upgradeable.sol\":8382:8408  Transfer(from, to, amount) */\n      and\n      0xddf252ad1be2c89b69c2b068fc378daa952ba7f163c4a11628f55a4df523b3ef\n        /* \"@openzeppelin/contracts-upgradeable/token/ERC20/ERC20Upgradeable.sol\":8401:8407  amount */\n      dup5\n        /* \"@openzeppelin/contracts-upgradeable/token/ERC20/ERC20Upgradeable.sol\":8382:8408  Transfer(from, to, amount) */\n      mload(0x40)\n      tag_404\n      swap2\n        /* \"#utility.yul\":1662:1687   */\n      dup2\n      mstore\n        /* \"#utility.yul\":1650:1652   */\n      0x20\n        /* \"#utility.yul\":1635:1653   */\n      add\n      swap1\n        /* \"#utility.yul\":1516:1693   */\n      jump\n        /* \"@openzeppelin/contracts-upgradeable/token/ERC20/ERC20Upgradeable.sol\":8382:8408  Transfer(from, to, amount) */\n    tag_404:\n      mload(0x40)\n      dup1\n      swap2\n      sub\n      swap1\n      log3\n        /* \"@openzeppelin/contracts-upgradeable/token/ERC20/ERC20Upgradeable.sol\":8419:8456  _afterTokenTransfer(from, to, amount) */\n      tag_364\n        /* \"@openzeppelin/contracts-upgradeable/token/ERC20/ERC20Upgradeable.sol\":9448:10024  function _burn(address account, uint256 amount) internal virtual {... */\n      jump\n        /* \"@openzeppelin/contracts-upgradeable/access/OwnableUpgradeable.sol\":1104:1215  function __Ownable_init_unchained() internal onlyInitializing {... */\n    tag_333:\n        /* \"@openzeppelin/contracts-upgradeable/proxy/utils/Initializable.sol\":4910:4923  _initializing */\n      sload(0x00)\n      0x0100\n      swap1\n      div\n      0xff\n      and\n        /* \"@openzeppelin/contracts-upgradeable/proxy/utils/Initializable.sol\":4902:4971  require(_initializing, \"Initializable: contract is not initializing\") */\n      tag_407\n      jumpi\n      mload(0x40)\n      shl(0xe5, 0x461bcd)\n      dup2\n      mstore\n      0x04\n      add\n      tag_185\n      swap1\n      tag_330\n      jump\t// in\n    tag_407:\n        /* \"@openzeppelin/contracts-upgradeable/access/OwnableUpgradeable.sol\":1176:1208  _transferOwnership(_msgSender()) */\n      tag_212\n        /* \"@openzeppelin/contracts-upgradeable/utils/ContextUpgradeable.sol\":929:939  msg.sender */\n      caller\n        /* \"@openzeppelin/contracts-upgradeable/access/OwnableUpgradeable.sol\":1176:1194  _transferOwnership */\n      tag_213\n        /* \"@openzeppelin/contracts-upgradeable/access/OwnableUpgradeable.sol\":1176:1208  _transferOwnership(_msgSender()) */\n      jump\t// in\n        /* \"@openzeppelin/contracts-upgradeable/token/ERC20/ERC20Upgradeable.sol\":2269:2428  function __ERC20_init_unchained(string memory name_, string memory symbol_) internal onlyInitializing {... */\n    tag_339:\n        /* \"@openzeppelin/contracts-upgradeable/proxy/utils/Initializable.sol\":4910:4923  _initializing */\n      sload(0x00)\n      0x0100\n      swap1\n      div\n      0xff\n      and\n        /* \"@openzeppelin/contracts-upgradeable/proxy/utils/Initializable.sol\":4902:4971  require(_initializing, \"Initializable: contract is not initializing\") */\n      tag_413\n      jumpi\n      mload(0x40)\n      shl(0xe5, 0x461bcd)\n      dup2\n      mstore\n      0x04\n      add\n      tag_185\n      swap1\n      tag_330\n      jump\t// in\n    tag_413:\n        /* \"@openzeppelin/contracts-upgradeable/token/ERC20/ERC20Upgradeable.sol\":2381:2394  _name = name_ */\n      dup2\n      mload\n      tag_416\n      swap1\n        /* \"@openzeppelin/contracts-upgradeable/token/ERC20/ERC20Upgradeable.sol\":2381:2386  _name */\n      0x36\n      swap1\n        /* \"@openzeppelin/contracts-upgradeable/token/ERC20/ERC20Upgradeable.sol\":2381:2394  _name = name_ */\n      0x20\n      dup6\n      add\n      swap1\n      tag_200\n      jump\t// in\n    tag_416:\n      pop\n        /* \"@openzeppelin/contracts-upgradeable/token/ERC20/ERC20Upgradeable.sol\":2404:2421  _symbol = symbol_ */\n      dup1\n      mload\n      tag_383\n      swap1\n        /* \"@openzeppelin/contracts-upgradeable/token/ERC20/ERC20Upgradeable.sol\":2404:2411  _symbol */\n      0x37\n      swap1\n        /* \"@openzeppelin/contracts-upgradeable/token/ERC20/ERC20Upgradeable.sol\":2404:2421  _symbol = symbol_ */\n      0x20\n      dup5\n      add\n      swap1\n      tag_200\n      jump\t// in\n        /* \"@openzeppelin/contracts-upgradeable/token/ERC20/extensions/ERC20CappedUpgradeable.sol\":692:850  function __ERC20Capped_init_unchained(uint256 cap_) internal onlyInitializing {... */\n    tag_345:\n        /* \"@openzeppelin/contracts-upgradeable/proxy/utils/Initializable.sol\":4910:4923  _initializing */\n      sload(0x00)\n      0x0100\n      swap1\n      div\n      0xff\n      and\n        /* \"@openzeppelin/contracts-upgradeable/proxy/utils/Initializable.sol\":4902:4971  require(_initializing, \"Initializable: contract is not initializing\") */\n      tag_419\n      jumpi\n      mload(0x40)\n      shl(0xe5, 0x461bcd)\n      dup2\n      mstore\n      0x04\n      add\n      tag_185\n      swap1\n      tag_330\n      jump\t// in\n    tag_419:\n        /* \"@openzeppelin/contracts-upgradeable/token/ERC20/extensions/ERC20CappedUpgradeable.sol\":795:796  0 */\n      0x00\n        /* \"@openzeppelin/contracts-upgradeable/token/ERC20/extensions/ERC20CappedUpgradeable.sol\":788:792  cap_ */\n      dup2\n        /* \"@openzeppelin/contracts-upgradeable/token/ERC20/extensions/ERC20CappedUpgradeable.sol\":788:796  cap_ > 0 */\n      gt\n        /* \"@openzeppelin/contracts-upgradeable/token/ERC20/extensions/ERC20CappedUpgradeable.sol\":780:822  require(cap_ > 0, \"ERC20Capped: cap is 0\") */\n      tag_422\n      jumpi\n      mload(0x40)\n      shl(0xe5, 0x461bcd)\n      dup2\n      mstore\n        /* \"#utility.yul\":21059:21061   */\n      0x20\n        /* \"@openzeppelin/contracts-upgradeable/token/ERC20/extensions/ERC20CappedUpgradeable.sol\":780:822  require(cap_ > 0, \"ERC20Capped: cap is 0\") */\n      0x04\n      dup3\n      add\n        /* \"#utility.yul\":21041:21062   */\n      mstore\n        /* \"#utility.yul\":21098:21100   */\n      0x15\n        /* \"#utility.yul\":21078:21096   */\n      0x24\n      dup3\n      add\n        /* \"#utility.yul\":21071:21101   */\n      mstore\n      shl(0x5c, 0x045524332304361707065643a20636170206973203)\n        /* \"#utility.yul\":21117:21135   */\n      0x44\n      dup3\n      add\n        /* \"#utility.yul\":21110:21161   */\n      mstore\n        /* \"#utility.yul\":21178:21196   */\n      0x64\n      add\n        /* \"@openzeppelin/contracts-upgradeable/token/ERC20/extensions/ERC20CappedUpgradeable.sol\":780:822  require(cap_ > 0, \"ERC20Capped: cap is 0\") */\n      tag_185\n        /* \"#utility.yul\":20857:21202   */\n      jump\n        /* \"@openzeppelin/contracts-upgradeable/token/ERC20/extensions/ERC20CappedUpgradeable.sol\":780:822  require(cap_ > 0, \"ERC20Capped: cap is 0\") */\n    tag_422:\n        /* \"@openzeppelin/contracts-upgradeable/token/ERC20/extensions/ERC20CappedUpgradeable.sol\":832:836  _cap */\n      0x65\n        /* \"@openzeppelin/contracts-upgradeable/token/ERC20/extensions/ERC20CappedUpgradeable.sol\":832:843  _cap = cap_ */\n      sstore\n        /* \"@openzeppelin/contracts-upgradeable/token/ERC20/extensions/ERC20CappedUpgradeable.sol\":692:850  function __ERC20Capped_init_unchained(uint256 cap_) internal onlyInitializing {... */\n      jump\t// out\n        /* \"@openzeppelin/contracts-upgradeable/token/ERC20/ERC20Upgradeable.sol\":8739:9128  function _mint(address account, uint256 amount) internal virtual {... */\n    tag_354:\n      sub(shl(0xa0, 0x01), 0x01)\n        /* \"@openzeppelin/contracts-upgradeable/token/ERC20/ERC20Upgradeable.sol\":8822:8843  account != address(0) */\n      dup3\n      and\n        /* \"@openzeppelin/contracts-upgradeable/token/ERC20/ERC20Upgradeable.sol\":8814:8879  require(account != address(0), \"ERC20: mint to the zero address\") */\n      tag_426\n      jumpi\n      mload(0x40)\n      shl(0xe5, 0x461bcd)\n      dup2\n      mstore\n        /* \"#utility.yul\":21409:21411   */\n      0x20\n        /* \"@openzeppelin/contracts-upgradeable/token/ERC20/ERC20Upgradeable.sol\":8814:8879  require(account != address(0), \"ERC20: mint to the zero address\") */\n      0x04\n      dup3\n      add\n        /* \"#utility.yul\":21391:21412   */\n      mstore\n        /* \"#utility.yul\":21448:21450   */\n      0x1f\n        /* \"#utility.yul\":21428:21446   */\n      0x24\n      dup3\n      add\n        /* \"#utility.yul\":21421:21451   */\n      mstore\n        /* \"#utility.yul\":21487:21520   */\n      0x45524332303a206d696e7420746f20746865207a65726f206164647265737300\n        /* \"#utility.yul\":21467:21485   */\n      0x44\n      dup3\n      add\n        /* \"#utility.yul\":21460:21521   */\n      mstore\n        /* \"#utility.yul\":21538:21556   */\n      0x64\n      add\n        /* \"@openzeppelin/contracts-upgradeable/token/ERC20/ERC20Upgradeable.sol\":8814:8879  require(account != address(0), \"ERC20: mint to the zero address\") */\n      tag_185\n        /* \"#utility.yul\":21207:21562   */\n      jump\n        /* \"@openzeppelin/contracts-upgradeable/token/ERC20/ERC20Upgradeable.sol\":8814:8879  require(account != address(0), \"ERC20: mint to the zero address\") */\n    tag_426:\n        /* \"@openzeppelin/contracts-upgradeable/token/ERC20/ERC20Upgradeable.sol\":8966:8972  amount */\n      dup1\n        /* \"@openzeppelin/contracts-upgradeable/token/ERC20/ERC20Upgradeable.sol\":8950:8962  _totalSupply */\n      0x35\n      0x00\n        /* \"@openzeppelin/contracts-upgradeable/token/ERC20/ERC20Upgradeable.sol\":8950:8972  _totalSupply += amount */\n      dup3\n      dup3\n      sload\n      tag_430\n      swap2\n      swap1\n      tag_174\n      jump\t// in\n    tag_430:\n      swap1\n      swap2\n      sstore\n      pop\n      pop\n      sub(shl(0xa0, 0x01), 0x01)\n        /* \"@openzeppelin/contracts-upgradeable/token/ERC20/ERC20Upgradeable.sol\":8982:9000  _balances[account] */\n      dup3\n      and\n      0x00\n      swap1\n      dup2\n      mstore\n        /* \"@openzeppelin/contracts-upgradeable/token/ERC20/ERC20Upgradeable.sol\":8982:8991  _balances */\n      0x33\n        /* \"@openzeppelin/contracts-upgradeable/token/ERC20/ERC20Upgradeable.sol\":8982:9000  _balances[account] */\n      0x20\n      mstore\n      0x40\n      dup2\n      keccak256\n        /* \"@openzeppelin/contracts-upgradeable/token/ERC20/ERC20Upgradeable.sol\":8982:9010  _balances[account] += amount */\n      dup1\n      sload\n        /* \"@openzeppelin/contracts-upgradeable/token/ERC20/ERC20Upgradeable.sol\":9004:9010  amount */\n      dup4\n      swap3\n        /* \"@openzeppelin/contracts-upgradeable/token/ERC20/ERC20Upgradeable.sol\":8982:9000  _balances[account] */\n      swap1\n        /* \"@openzeppelin/contracts-upgradeable/token/ERC20/ERC20Upgradeable.sol\":8982:9010  _balances[account] += amount */\n      tag_431\n      swap1\n        /* \"@openzeppelin/contracts-upgradeable/token/ERC20/ERC20Upgradeable.sol\":9004:9010  amount */\n      dup5\n      swap1\n        /* \"@openzeppelin/contracts-upgradeable/token/ERC20/ERC20Upgradeable.sol\":8982:9010  _balances[account] += amount */\n      tag_174\n      jump\t// in\n    tag_431:\n      swap1\n      swap2\n      sstore\n      pop\n      pop\n        /* \"@openzeppelin/contracts-upgradeable/token/ERC20/ERC20Upgradeable.sol\":9025:9062  Transfer(address(0), account, amount) */\n      mload(0x40)\n        /* \"#utility.yul\":1662:1687   */\n      dup2\n      dup2\n      mstore\n      sub(shl(0xa0, 0x01), 0x01)\n        /* \"@openzeppelin/contracts-upgradeable/token/ERC20/ERC20Upgradeable.sol\":9025:9062  Transfer(address(0), account, amount) */\n      dup4\n      and\n      swap1\n        /* \"@openzeppelin/contracts-upgradeable/token/ERC20/ERC20Upgradeable.sol\":9042:9043  0 */\n      0x00\n      swap1\n        /* \"@openzeppelin/contracts-upgradeable/token/ERC20/ERC20Upgradeable.sol\":9025:9062  Transfer(address(0), account, amount) */\n      0xddf252ad1be2c89b69c2b068fc378daa952ba7f163c4a11628f55a4df523b3ef\n      swap1\n        /* \"#utility.yul\":1650:1652   */\n      0x20\n        /* \"#utility.yul\":1635:1653   */\n      add\n        /* \"@openzeppelin/contracts-upgradeable/token/ERC20/ERC20Upgradeable.sol\":9025:9062  Transfer(address(0), account, amount) */\n      mload(0x40)\n      dup1\n      swap2\n      sub\n      swap1\n      log3\n        /* \"@openzeppelin/contracts-upgradeable/token/ERC20/ERC20Upgradeable.sol\":2116:2263  function __ERC20_init(string memory name_, string memory symbol_) internal onlyInitializing {... */\n      pop\n      pop\n      jump\t// out\n    tag_200:\n      dup3\n      dup1\n      sload\n      tag_436\n      swap1\n      tag_148\n      jump\t// in\n    tag_436:\n      swap1\n      0x00\n      mstore\n      keccak256(0x00, 0x20)\n      swap1\n      0x1f\n      add\n      0x20\n      swap1\n      div\n      dup2\n      add\n      swap3\n      dup3\n      tag_438\n      jumpi\n      0x00\n      dup6\n      sstore\n      jump(tag_441)\n    tag_438:\n      dup3\n      0x1f\n      lt\n      tag_439\n      jumpi\n      dup1\n      mload\n      not(0xff)\n      and\n      dup4\n      dup1\n      add\n      or\n      dup6\n      sstore\n      jump(tag_441)\n    tag_439:\n      dup3\n      dup1\n      add\n      0x01\n      add\n      dup6\n      sstore\n      dup3\n      iszero\n      tag_441\n      jumpi\n      swap2\n      dup3\n      add\n    tag_440:\n      dup3\n      dup2\n      gt\n      iszero\n      tag_441\n      jumpi\n      dup3\n      mload\n      dup3\n      sstore\n      swap2\n      0x20\n      add\n      swap2\n      swap1\n      0x01\n      add\n      swap1\n      jump(tag_440)\n    tag_441:\n      pop\n      tag_442\n      swap3\n      swap2\n      pop\n      tag_443\n      jump\t// in\n    tag_442:\n      pop\n      swap1\n      jump\t// out\n    tag_229:\n      pop\n      dup1\n      sload\n      0x00\n      dup3\n      sstore\n      swap1\n      0x00\n      mstore\n      keccak256(0x00, 0x20)\n      swap1\n      dup2\n      add\n      swap1\n      tag_232\n      swap2\n      swap1\n      tag_443\n      jump\t// in\n    tag_231:\n      dup3\n      dup1\n      sload\n      dup3\n      dup3\n      sstore\n      swap1\n      0x00\n      mstore\n      keccak256(0x00, 0x20)\n      swap1\n      dup2\n      add\n      swap3\n      dup3\n      iszero\n      tag_441\n      jumpi\n      swap2\n      0x20\n      mul\n      dup3\n      add\n    tag_447:\n      dup3\n      dup2\n      gt\n      iszero\n      tag_441\n      jumpi\n      dup3\n      mload\n      dup3\n      sload\n      not(sub(shl(0xa0, 0x01), 0x01))\n      and\n      sub(shl(0xa0, 0x01), 0x01)\n      swap1\n      swap2\n      and\n      or\n      dup3\n      sstore\n      0x20\n      swap1\n      swap3\n      add\n      swap2\n      0x01\n      swap1\n      swap2\n      add\n      swap1\n      jump(tag_447)\n    tag_443:\n    tag_450:\n      dup1\n      dup3\n      gt\n      iszero\n      tag_442\n      jumpi\n      0x00\n      dup2\n      sstore\n      0x01\n      add\n      jump(tag_450)\n        /* \"#utility.yul\":14:611   */\n    tag_35:\n        /* \"#utility.yul\":126:130   */\n      0x00\n        /* \"#utility.yul\":155:157   */\n      0x20\n        /* \"#utility.yul\":184:186   */\n      dup1\n        /* \"#utility.yul\":173:182   */\n      dup4\n        /* \"#utility.yul\":166:187   */\n      mstore\n        /* \"#utility.yul\":216:222   */\n      dup4\n        /* \"#utility.yul\":210:223   */\n      mload\n        /* \"#utility.yul\":259:265   */\n      dup1\n        /* \"#utility.yul\":254:256   */\n      dup3\n        /* \"#utility.yul\":243:252   */\n      dup6\n        /* \"#utility.yul\":239:257   */\n      add\n        /* \"#utility.yul\":232:266   */\n      mstore\n        /* \"#utility.yul\":284:285   */\n      0x00\n        /* \"#utility.yul\":294:434   */\n    tag_464:\n        /* \"#utility.yul\":308:314   */\n      dup2\n        /* \"#utility.yul\":305:306   */\n      dup2\n        /* \"#utility.yul\":302:315   */\n      lt\n        /* \"#utility.yul\":294:434   */\n      iszero\n      tag_466\n      jumpi\n        /* \"#utility.yul\":403:417   */\n      dup6\n      dup2\n      add\n        /* \"#utility.yul\":399:422   */\n      dup4\n      add\n        /* \"#utility.yul\":393:423   */\n      mload\n        /* \"#utility.yul\":369:386   */\n      dup6\n      dup3\n      add\n        /* \"#utility.yul\":388:390   */\n      0x40\n        /* \"#utility.yul\":365:391   */\n      add\n        /* \"#utility.yul\":358:424   */\n      mstore\n        /* \"#utility.yul\":323:333   */\n      dup3\n      add\n        /* \"#utility.yul\":294:434   */\n      jump(tag_464)\n    tag_466:\n        /* \"#utility.yul\":452:458   */\n      dup2\n        /* \"#utility.yul\":449:450   */\n      dup2\n        /* \"#utility.yul\":446:459   */\n      gt\n        /* \"#utility.yul\":443:534   */\n      iszero\n      tag_467\n      jumpi\n        /* \"#utility.yul\":522:523   */\n      0x00\n        /* \"#utility.yul\":517:519   */\n      0x40\n        /* \"#utility.yul\":508:514   */\n      dup4\n        /* \"#utility.yul\":497:506   */\n      dup8\n        /* \"#utility.yul\":493:515   */\n      add\n        /* \"#utility.yul\":489:520   */\n      add\n        /* \"#utility.yul\":482:524   */\n      mstore\n        /* \"#utility.yul\":443:534   */\n    tag_467:\n      pop\n        /* \"#utility.yul\":595:597   */\n      0x1f\n        /* \"#utility.yul\":574:589   */\n      add\n      not(0x1f)\n        /* \"#utility.yul\":570:599   */\n      and\n        /* \"#utility.yul\":555:600   */\n      swap3\n      swap1\n      swap3\n      add\n        /* \"#utility.yul\":602:604   */\n      0x40\n        /* \"#utility.yul\":551:605   */\n      add\n      swap4\n        /* \"#utility.yul\":14:611   */\n      swap3\n      pop\n      pop\n      pop\n      jump\t// out\n        /* \"#utility.yul\":616:747   */\n    tag_452:\n      sub(shl(0xa0, 0x01), 0x01)\n        /* \"#utility.yul\":691:722   */\n      dup2\n      and\n        /* \"#utility.yul\":681:723   */\n      dup2\n      eq\n        /* \"#utility.yul\":671:741   */\n      tag_232\n      jumpi\n        /* \"#utility.yul\":737:738   */\n      0x00\n        /* \"#utility.yul\":734:735   */\n      dup1\n        /* \"#utility.yul\":727:739   */\n      revert\n        /* \"#utility.yul\":752:999   */\n    tag_39:\n        /* \"#utility.yul\":811:817   */\n      0x00\n        /* \"#utility.yul\":864:866   */\n      0x20\n        /* \"#utility.yul\":852:861   */\n      dup3\n        /* \"#utility.yul\":843:850   */\n      dup5\n        /* \"#utility.yul\":839:862   */\n      sub\n        /* \"#utility.yul\":835:867   */\n      slt\n        /* \"#utility.yul\":832:884   */\n      iszero\n      tag_471\n      jumpi\n        /* \"#utility.yul\":880:881   */\n      0x00\n        /* \"#utility.yul\":877:878   */\n      dup1\n        /* \"#utility.yul\":870:882   */\n      revert\n        /* \"#utility.yul\":832:884   */\n    tag_471:\n        /* \"#utility.yul\":919:928   */\n      dup2\n        /* \"#utility.yul\":906:929   */\n      calldataload\n        /* \"#utility.yul\":938:969   */\n      tag_313\n        /* \"#utility.yul\":963:968   */\n      dup2\n        /* \"#utility.yul\":938:969   */\n      tag_452\n      jump\t// in\n        /* \"#utility.yul\":1196:1511   */\n    tag_46:\n        /* \"#utility.yul\":1264:1270   */\n      0x00\n        /* \"#utility.yul\":1272:1278   */\n      dup1\n        /* \"#utility.yul\":1325:1327   */\n      0x40\n        /* \"#utility.yul\":1313:1322   */\n      dup4\n        /* \"#utility.yul\":1304:1311   */\n      dup6\n        /* \"#utility.yul\":1300:1323   */\n      sub\n        /* \"#utility.yul\":1296:1328   */\n      slt\n        /* \"#utility.yul\":1293:1345   */\n      iszero\n      tag_475\n      jumpi\n        /* \"#utility.yul\":1341:1342   */\n      0x00\n        /* \"#utility.yul\":1338:1339   */\n      dup1\n        /* \"#utility.yul\":1331:1343   */\n      revert\n        /* \"#utility.yul\":1293:1345   */\n    tag_475:\n        /* \"#utility.yul\":1380:1389   */\n      dup3\n        /* \"#utility.yul\":1367:1390   */\n      calldataload\n        /* \"#utility.yul\":1399:1430   */\n      tag_476\n        /* \"#utility.yul\":1424:1429   */\n      dup2\n        /* \"#utility.yul\":1399:1430   */\n      tag_452\n      jump\t// in\n    tag_476:\n        /* \"#utility.yul\":1449:1454   */\n      swap5\n        /* \"#utility.yul\":1501:1503   */\n      0x20\n        /* \"#utility.yul\":1486:1504   */\n      swap4\n      swap1\n      swap4\n      add\n        /* \"#utility.yul\":1473:1505   */\n      calldataload\n      swap4\n      pop\n      pop\n      pop\n        /* \"#utility.yul\":1196:1511   */\n      jump\t// out\n        /* \"#utility.yul\":1698:2154   */\n    tag_62:\n        /* \"#utility.yul\":1775:1781   */\n      0x00\n        /* \"#utility.yul\":1783:1789   */\n      dup1\n        /* \"#utility.yul\":1791:1797   */\n      0x00\n        /* \"#utility.yul\":1844:1846   */\n      0x60\n        /* \"#utility.yul\":1832:1841   */\n      dup5\n        /* \"#utility.yul\":1823:1830   */\n      dup7\n        /* \"#utility.yul\":1819:1842   */\n      sub\n        /* \"#utility.yul\":1815:1847   */\n      slt\n        /* \"#utility.yul\":1812:1864   */\n      iszero\n      tag_479\n      jumpi\n        /* \"#utility.yul\":1860:1861   */\n      0x00\n        /* \"#utility.yul\":1857:1858   */\n      dup1\n        /* \"#utility.yul\":1850:1862   */\n      revert\n        /* \"#utility.yul\":1812:1864   */\n    tag_479:\n        /* \"#utility.yul\":1899:1908   */\n      dup4\n        /* \"#utility.yul\":1886:1909   */\n      calldataload\n        /* \"#utility.yul\":1918:1949   */\n      tag_480\n        /* \"#utility.yul\":1943:1948   */\n      dup2\n        /* \"#utility.yul\":1918:1949   */\n      tag_452\n      jump\t// in\n    tag_480:\n        /* \"#utility.yul\":1968:1973   */\n      swap3\n      pop\n        /* \"#utility.yul\":2025:2027   */\n      0x20\n        /* \"#utility.yul\":2010:2028   */\n      dup5\n      add\n        /* \"#utility.yul\":1997:2029   */\n      calldataload\n        /* \"#utility.yul\":2038:2071   */\n      tag_481\n        /* \"#utility.yul\":1997:2029   */\n      dup2\n        /* \"#utility.yul\":2038:2071   */\n      tag_452\n      jump\t// in\n    tag_481:\n        /* \"#utility.yul\":1698:2154   */\n      swap3\n      swap6\n        /* \"#utility.yul\":2090:2097   */\n      swap3\n      swap5\n      pop\n      pop\n      pop\n        /* \"#utility.yul\":2144:2146   */\n      0x40\n        /* \"#utility.yul\":2129:2147   */\n      swap2\n      swap1\n      swap2\n      add\n        /* \"#utility.yul\":2116:2148   */\n      calldataload\n      swap1\n        /* \"#utility.yul\":1698:2154   */\n      jump\t// out\n        /* \"#utility.yul\":2348:3006   */\n    tag_83:\n        /* \"#utility.yul\":2519:2521   */\n      0x20\n        /* \"#utility.yul\":2571:2592   */\n      dup1\n      dup3\n      mstore\n        /* \"#utility.yul\":2641:2654   */\n      dup3\n      mload\n        /* \"#utility.yul\":2544:2562   */\n      dup3\n      dup3\n      add\n        /* \"#utility.yul\":2663:2685   */\n      dup2\n      swap1\n      mstore\n        /* \"#utility.yul\":2490:2494   */\n      0x00\n      swap2\n        /* \"#utility.yul\":2519:2521   */\n      swap1\n        /* \"#utility.yul\":2742:2757   */\n      dup5\n      dup3\n      add\n      swap1\n        /* \"#utility.yul\":2716:2718   */\n      0x40\n        /* \"#utility.yul\":2701:2719   */\n      dup6\n      add\n      swap1\n        /* \"#utility.yul\":2490:2494   */\n      dup5\n        /* \"#utility.yul\":2785:2980   */\n    tag_484:\n        /* \"#utility.yul\":2799:2805   */\n      dup2\n        /* \"#utility.yul\":2796:2797   */\n      dup2\n        /* \"#utility.yul\":2793:2806   */\n      lt\n        /* \"#utility.yul\":2785:2980   */\n      iszero\n      tag_486\n      jumpi\n        /* \"#utility.yul\":2864:2877   */\n      dup4\n      mload\n      sub(shl(0xa0, 0x01), 0x01)\n        /* \"#utility.yul\":2860:2899   */\n      and\n        /* \"#utility.yul\":2848:2900   */\n      dup4\n      mstore\n        /* \"#utility.yul\":2955:2970   */\n      swap3\n      dup5\n      add\n      swap3\n        /* \"#utility.yul\":2920:2932   */\n      swap2\n      dup5\n      add\n      swap2\n        /* \"#utility.yul\":2896:2897   */\n      0x01\n        /* \"#utility.yul\":2814:2823   */\n      add\n        /* \"#utility.yul\":2785:2980   */\n      jump(tag_484)\n    tag_486:\n      pop\n        /* \"#utility.yul\":2997:3000   */\n      swap1\n      swap7\n        /* \"#utility.yul\":2348:3006   */\n      swap6\n      pop\n      pop\n      pop\n      pop\n      pop\n      pop\n      jump\t// out\n        /* \"#utility.yul\":3011:3138   */\n    tag_453:\n        /* \"#utility.yul\":3072:3082   */\n      0x4e487b71\n        /* \"#utility.yul\":3067:3070   */\n      0xe0\n        /* \"#utility.yul\":3063:3083   */\n      shl\n        /* \"#utility.yul\":3060:3061   */\n      0x00\n        /* \"#utility.yul\":3053:3084   */\n      mstore\n        /* \"#utility.yul\":3103:3107   */\n      0x41\n        /* \"#utility.yul\":3100:3101   */\n      0x04\n        /* \"#utility.yul\":3093:3108   */\n      mstore\n        /* \"#utility.yul\":3127:3131   */\n      0x24\n        /* \"#utility.yul\":3124:3125   */\n      0x00\n        /* \"#utility.yul\":3117:3132   */\n      revert\n        /* \"#utility.yul\":3143:3418   */\n    tag_454:\n        /* \"#utility.yul\":3214:3216   */\n      0x40\n        /* \"#utility.yul\":3208:3217   */\n      mload\n        /* \"#utility.yul\":3279:3281   */\n      0x1f\n        /* \"#utility.yul\":3260:3273   */\n      dup3\n      add\n      not(0x1f)\n        /* \"#utility.yul\":3256:3283   */\n      and\n        /* \"#utility.yul\":3244:3284   */\n      dup2\n      add\n      sub(shl(0x40, 0x01), 0x01)\n        /* \"#utility.yul\":3299:3333   */\n      dup2\n      gt\n        /* \"#utility.yul\":3335:3357   */\n      dup3\n      dup3\n      lt\n        /* \"#utility.yul\":3296:3358   */\n      or\n        /* \"#utility.yul\":3293:3381   */\n      iszero\n      tag_490\n      jumpi\n        /* \"#utility.yul\":3361:3379   */\n      tag_490\n      tag_453\n      jump\t// in\n    tag_490:\n        /* \"#utility.yul\":3397:3399   */\n      0x40\n        /* \"#utility.yul\":3390:3412   */\n      mstore\n        /* \"#utility.yul\":3143:3418   */\n      swap2\n      swap1\n      pop\n      jump\t// out\n        /* \"#utility.yul\":3423:3954   */\n    tag_455:\n        /* \"#utility.yul\":3466:3471   */\n      0x00\n        /* \"#utility.yul\":3519:3522   */\n      dup3\n        /* \"#utility.yul\":3512:3516   */\n      0x1f\n        /* \"#utility.yul\":3504:3510   */\n      dup4\n        /* \"#utility.yul\":3500:3517   */\n      add\n        /* \"#utility.yul\":3496:3523   */\n      slt\n        /* \"#utility.yul\":3486:3541   */\n      tag_492\n      jumpi\n        /* \"#utility.yul\":3537:3538   */\n      0x00\n        /* \"#utility.yul\":3534:3535   */\n      dup1\n        /* \"#utility.yul\":3527:3539   */\n      revert\n        /* \"#utility.yul\":3486:3541   */\n    tag_492:\n        /* \"#utility.yul\":3573:3579   */\n      dup2\n        /* \"#utility.yul\":3560:3580   */\n      calldataload\n      sub(shl(0x40, 0x01), 0x01)\n        /* \"#utility.yul\":3595:3597   */\n      dup2\n        /* \"#utility.yul\":3592:3618   */\n      gt\n        /* \"#utility.yul\":3589:3641   */\n      iszero\n      tag_494\n      jumpi\n        /* \"#utility.yul\":3621:3639   */\n      tag_494\n      tag_453\n      jump\t// in\n    tag_494:\n        /* \"#utility.yul\":3665:3720   */\n      tag_495\n        /* \"#utility.yul\":3708:3710   */\n      0x1f\n        /* \"#utility.yul\":3689:3702   */\n      dup3\n      add\n      not(0x1f)\n        /* \"#utility.yul\":3685:3712   */\n      and\n        /* \"#utility.yul\":3714:3718   */\n      0x20\n        /* \"#utility.yul\":3681:3719   */\n      add\n        /* \"#utility.yul\":3665:3720   */\n      tag_454\n      jump\t// in\n    tag_495:\n        /* \"#utility.yul\":3745:3747   */\n      dup2\n        /* \"#utility.yul\":3736:3743   */\n      dup2\n        /* \"#utility.yul\":3729:3748   */\n      mstore\n        /* \"#utility.yul\":3791:3794   */\n      dup5\n        /* \"#utility.yul\":3784:3788   */\n      0x20\n        /* \"#utility.yul\":3779:3781   */\n      dup4\n        /* \"#utility.yul\":3771:3777   */\n      dup7\n        /* \"#utility.yul\":3767:3782   */\n      add\n        /* \"#utility.yul\":3763:3789   */\n      add\n        /* \"#utility.yul\":3760:3795   */\n      gt\n        /* \"#utility.yul\":3757:3812   */\n      iszero\n      tag_496\n      jumpi\n        /* \"#utility.yul\":3808:3809   */\n      0x00\n        /* \"#utility.yul\":3805:3806   */\n      dup1\n        /* \"#utility.yul\":3798:3810   */\n      revert\n        /* \"#utility.yul\":3757:3812   */\n    tag_496:\n        /* \"#utility.yul\":3873:3875   */\n      dup2\n        /* \"#utility.yul\":3866:3870   */\n      0x20\n        /* \"#utility.yul\":3858:3864   */\n      dup6\n        /* \"#utility.yul\":3854:3871   */\n      add\n        /* \"#utility.yul\":3847:3851   */\n      0x20\n        /* \"#utility.yul\":3838:3845   */\n      dup4\n        /* \"#utility.yul\":3834:3852   */\n      add\n        /* \"#utility.yul\":3821:3876   */\n      calldatacopy\n        /* \"#utility.yul\":3921:3922   */\n      0x00\n        /* \"#utility.yul\":3896:3912   */\n      swap2\n      dup2\n      add\n        /* \"#utility.yul\":3914:3918   */\n      0x20\n        /* \"#utility.yul\":3892:3919   */\n      add\n        /* \"#utility.yul\":3885:3923   */\n      swap2\n      swap1\n      swap2\n      mstore\n        /* \"#utility.yul\":3900:3907   */\n      swap4\n        /* \"#utility.yul\":3423:3954   */\n      swap3\n      pop\n      pop\n      pop\n      jump\t// out\n        /* \"#utility.yul\":3959:4115   */\n    tag_456:\n        /* \"#utility.yul\":4025:4045   */\n      dup1\n      calldataload\n        /* \"#utility.yul\":4085:4089   */\n      0xff\n        /* \"#utility.yul\":4074:4090   */\n      dup2\n      and\n        /* \"#utility.yul\":4064:4091   */\n      dup2\n      eq\n        /* \"#utility.yul\":4054:4109   */\n      tag_498\n      jumpi\n        /* \"#utility.yul\":4105:4106   */\n      0x00\n        /* \"#utility.yul\":4102:4103   */\n      dup1\n        /* \"#utility.yul\":4095:4107   */\n      revert\n        /* \"#utility.yul\":4054:4109   */\n    tag_498:\n        /* \"#utility.yul\":3959:4115   */\n      swap2\n      swap1\n      pop\n      jump\t// out\n        /* \"#utility.yul\":4120:5076   */\n    tag_87:\n        /* \"#utility.yul\":4251:4257   */\n      0x00\n        /* \"#utility.yul\":4259:4265   */\n      dup1\n        /* \"#utility.yul\":4267:4273   */\n      0x00\n        /* \"#utility.yul\":4275:4281   */\n      dup1\n        /* \"#utility.yul\":4283:4289   */\n      0x00\n        /* \"#utility.yul\":4291:4297   */\n      dup1\n        /* \"#utility.yul\":4299:4305   */\n      0x00\n        /* \"#utility.yul\":4352:4355   */\n      0xe0\n        /* \"#utility.yul\":4340:4349   */\n      dup9\n        /* \"#utility.yul\":4331:4338   */\n      dup11\n        /* \"#utility.yul\":4327:4350   */\n      sub\n        /* \"#utility.yul\":4323:4356   */\n      slt\n        /* \"#utility.yul\":4320:4373   */\n      iszero\n      tag_500\n      jumpi\n        /* \"#utility.yul\":4369:4370   */\n      0x00\n        /* \"#utility.yul\":4366:4367   */\n      dup1\n        /* \"#utility.yul\":4359:4371   */\n      revert\n        /* \"#utility.yul\":4320:4373   */\n    tag_500:\n        /* \"#utility.yul\":4409:4418   */\n      dup8\n        /* \"#utility.yul\":4396:4419   */\n      calldataload\n      sub(shl(0x40, 0x01), 0x01)\n        /* \"#utility.yul\":4479:4481   */\n      dup1\n        /* \"#utility.yul\":4471:4477   */\n      dup3\n        /* \"#utility.yul\":4468:4482   */\n      gt\n        /* \"#utility.yul\":4465:4499   */\n      iszero\n      tag_501\n      jumpi\n        /* \"#utility.yul\":4495:4496   */\n      0x00\n        /* \"#utility.yul\":4492:4493   */\n      dup1\n        /* \"#utility.yul\":4485:4497   */\n      revert\n        /* \"#utility.yul\":4465:4499   */\n    tag_501:\n        /* \"#utility.yul\":4518:4568   */\n      tag_502\n        /* \"#utility.yul\":4560:4567   */\n      dup12\n        /* \"#utility.yul\":4551:4557   */\n      dup4\n        /* \"#utility.yul\":4540:4549   */\n      dup13\n        /* \"#utility.yul\":4536:4558   */\n      add\n        /* \"#utility.yul\":4518:4568   */\n      tag_455\n      jump\t// in\n    tag_502:\n        /* \"#utility.yul\":4508:4568   */\n      swap9\n      pop\n        /* \"#utility.yul\":4621:4623   */\n      0x20\n        /* \"#utility.yul\":4610:4619   */\n      dup11\n        /* \"#utility.yul\":4606:4624   */\n      add\n        /* \"#utility.yul\":4593:4625   */\n      calldataload\n        /* \"#utility.yul\":4577:4625   */\n      swap2\n      pop\n        /* \"#utility.yul\":4650:4652   */\n      dup1\n        /* \"#utility.yul\":4640:4648   */\n      dup3\n        /* \"#utility.yul\":4637:4653   */\n      gt\n        /* \"#utility.yul\":4634:4670   */\n      iszero\n      tag_503\n      jumpi\n        /* \"#utility.yul\":4666:4667   */\n      0x00\n        /* \"#utility.yul\":4663:4664   */\n      dup1\n        /* \"#utility.yul\":4656:4668   */\n      revert\n        /* \"#utility.yul\":4634:4670   */\n    tag_503:\n      pop\n        /* \"#utility.yul\":4689:4741   */\n      tag_504\n        /* \"#utility.yul\":4733:4740   */\n      dup11\n        /* \"#utility.yul\":4722:4730   */\n      dup3\n        /* \"#utility.yul\":4711:4720   */\n      dup12\n        /* \"#utility.yul\":4707:4731   */\n      add\n        /* \"#utility.yul\":4689:4741   */\n      tag_455\n      jump\t// in\n    tag_504:\n        /* \"#utility.yul\":4679:4741   */\n      swap7\n      pop\n      pop\n        /* \"#utility.yul\":4760:4796   */\n      tag_505\n        /* \"#utility.yul\":4792:4794   */\n      0x40\n        /* \"#utility.yul\":4781:4790   */\n      dup10\n        /* \"#utility.yul\":4777:4795   */\n      add\n        /* \"#utility.yul\":4760:4796   */\n      tag_456\n      jump\t// in\n    tag_505:\n        /* \"#utility.yul\":4750:4796   */\n      swap5\n      pop\n        /* \"#utility.yul\":4843:4845   */\n      0x60\n        /* \"#utility.yul\":4832:4841   */\n      dup9\n        /* \"#utility.yul\":4828:4846   */\n      add\n        /* \"#utility.yul\":4815:4847   */\n      calldataload\n        /* \"#utility.yul\":4805:4847   */\n      swap4\n      pop\n        /* \"#utility.yul\":4894:4897   */\n      0x80\n        /* \"#utility.yul\":4883:4892   */\n      dup9\n        /* \"#utility.yul\":4879:4898   */\n      add\n        /* \"#utility.yul\":4866:4899   */\n      calldataload\n        /* \"#utility.yul\":4856:4899   */\n      swap3\n      pop\n        /* \"#utility.yul\":4946:4949   */\n      0xa0\n        /* \"#utility.yul\":4935:4944   */\n      dup9\n        /* \"#utility.yul\":4931:4950   */\n      add\n        /* \"#utility.yul\":4918:4951   */\n      calldataload\n        /* \"#utility.yul\":4908:4951   */\n      swap2\n      pop\n        /* \"#utility.yul\":5001:5004   */\n      0xc0\n        /* \"#utility.yul\":4990:4999   */\n      dup9\n        /* \"#utility.yul\":4986:5005   */\n      add\n        /* \"#utility.yul\":4973:5006   */\n      calldataload\n        /* \"#utility.yul\":5015:5046   */\n      tag_506\n        /* \"#utility.yul\":5040:5045   */\n      dup2\n        /* \"#utility.yul\":5015:5046   */\n      tag_452\n      jump\t// in\n    tag_506:\n        /* \"#utility.yul\":5065:5070   */\n      dup1\n        /* \"#utility.yul\":5055:5070   */\n      swap2\n      pop\n      pop\n        /* \"#utility.yul\":4120:5076   */\n      swap3\n      swap6\n      swap9\n      swap2\n      swap5\n      swap8\n      pop\n      swap3\n      swap6\n      pop\n      jump\t// out\n        /* \"#utility.yul\":5289:5472   */\n    tag_457:\n        /* \"#utility.yul\":5349:5353   */\n      0x00\n      sub(shl(0x40, 0x01), 0x01)\n        /* \"#utility.yul\":5374:5380   */\n      dup3\n        /* \"#utility.yul\":5371:5401   */\n      gt\n        /* \"#utility.yul\":5368:5424   */\n      iszero\n      tag_510\n      jumpi\n        /* \"#utility.yul\":5404:5422   */\n      tag_510\n      tag_453\n      jump\t// in\n    tag_510:\n      pop\n        /* \"#utility.yul\":5449:5450   */\n      0x05\n        /* \"#utility.yul\":5445:5459   */\n      shl\n        /* \"#utility.yul\":5461:5465   */\n      0x20\n        /* \"#utility.yul\":5441:5466   */\n      add\n      swap1\n        /* \"#utility.yul\":5289:5472   */\n      jump\t// out\n        /* \"#utility.yul\":5477:6443   */\n    tag_109:\n        /* \"#utility.yul\":5561:5567   */\n      0x00\n        /* \"#utility.yul\":5592:5594   */\n      0x20\n        /* \"#utility.yul\":5635:5637   */\n      dup1\n        /* \"#utility.yul\":5623:5632   */\n      dup4\n        /* \"#utility.yul\":5614:5621   */\n      dup6\n        /* \"#utility.yul\":5610:5633   */\n      sub\n        /* \"#utility.yul\":5606:5638   */\n      slt\n        /* \"#utility.yul\":5603:5655   */\n      iszero\n      tag_512\n      jumpi\n        /* \"#utility.yul\":5651:5652   */\n      0x00\n        /* \"#utility.yul\":5648:5649   */\n      dup1\n        /* \"#utility.yul\":5641:5653   */\n      revert\n        /* \"#utility.yul\":5603:5655   */\n    tag_512:\n        /* \"#utility.yul\":5691:5700   */\n      dup3\n        /* \"#utility.yul\":5678:5701   */\n      calldataload\n      sub(shl(0x40, 0x01), 0x01)\n        /* \"#utility.yul\":5716:5722   */\n      dup2\n        /* \"#utility.yul\":5713:5743   */\n      gt\n        /* \"#utility.yul\":5710:5760   */\n      iszero\n      tag_513\n      jumpi\n        /* \"#utility.yul\":5756:5757   */\n      0x00\n        /* \"#utility.yul\":5753:5754   */\n      dup1\n        /* \"#utility.yul\":5746:5758   */\n      revert\n        /* \"#utility.yul\":5710:5760   */\n    tag_513:\n        /* \"#utility.yul\":5779:5801   */\n      dup4\n      add\n        /* \"#utility.yul\":5832:5836   */\n      0x1f\n        /* \"#utility.yul\":5824:5837   */\n      dup2\n      add\n        /* \"#utility.yul\":5820:5847   */\n      dup6\n      sgt\n        /* \"#utility.yul\":5810:5865   */\n      tag_514\n      jumpi\n        /* \"#utility.yul\":5861:5862   */\n      0x00\n        /* \"#utility.yul\":5858:5859   */\n      dup1\n        /* \"#utility.yul\":5851:5863   */\n      revert\n        /* \"#utility.yul\":5810:5865   */\n    tag_514:\n        /* \"#utility.yul\":5897:5899   */\n      dup1\n        /* \"#utility.yul\":5884:5900   */\n      calldataload\n        /* \"#utility.yul\":5920:5980   */\n      tag_515\n        /* \"#utility.yul\":5936:5979   */\n      tag_516\n        /* \"#utility.yul\":5976:5978   */\n      dup3\n        /* \"#utility.yul\":5936:5979   */\n      tag_457\n      jump\t// in\n    tag_516:\n        /* \"#utility.yul\":5920:5980   */\n      tag_454\n      jump\t// in\n    tag_515:\n        /* \"#utility.yul\":6014:6029   */\n      dup2\n      dup2\n      mstore\n        /* \"#utility.yul\":6096:6097   */\n      0x05\n        /* \"#utility.yul\":6092:6102   */\n      swap2\n      swap1\n      swap2\n      shl\n        /* \"#utility.yul\":6084:6103   */\n      dup3\n      add\n        /* \"#utility.yul\":6080:6108   */\n      dup4\n      add\n      swap1\n        /* \"#utility.yul\":6045:6057   */\n      dup4\n      dup2\n      add\n      swap1\n        /* \"#utility.yul\":6120:6139   */\n      dup8\n      dup4\n      gt\n        /* \"#utility.yul\":6117:6156   */\n      iszero\n      tag_517\n      jumpi\n        /* \"#utility.yul\":6152:6153   */\n      0x00\n        /* \"#utility.yul\":6149:6150   */\n      dup1\n        /* \"#utility.yul\":6142:6154   */\n      revert\n        /* \"#utility.yul\":6117:6156   */\n    tag_517:\n        /* \"#utility.yul\":6176:6187   */\n      swap3\n      dup5\n      add\n      swap3\n        /* \"#utility.yul\":6196:6413   */\n    tag_518:\n        /* \"#utility.yul\":6212:6218   */\n      dup3\n        /* \"#utility.yul\":6207:6210   */\n      dup5\n        /* \"#utility.yul\":6204:6219   */\n      lt\n        /* \"#utility.yul\":6196:6413   */\n      iszero\n      tag_520\n      jumpi\n        /* \"#utility.yul\":6292:6295   */\n      dup4\n        /* \"#utility.yul\":6279:6296   */\n      calldataload\n        /* \"#utility.yul\":6309:6340   */\n      tag_521\n        /* \"#utility.yul\":6334:6339   */\n      dup2\n        /* \"#utility.yul\":6309:6340   */\n      tag_452\n      jump\t// in\n    tag_521:\n        /* \"#utility.yul\":6353:6371   */\n      dup3\n      mstore\n        /* \"#utility.yul\":6229:6241   */\n      swap3\n      dup5\n      add\n      swap3\n        /* \"#utility.yul\":6391:6403   */\n      swap1\n      dup5\n      add\n      swap1\n        /* \"#utility.yul\":6196:6413   */\n      jump(tag_518)\n    tag_520:\n        /* \"#utility.yul\":6432:6437   */\n      swap8\n        /* \"#utility.yul\":5477:6443   */\n      swap7\n      pop\n      pop\n      pop\n      pop\n      pop\n      pop\n      pop\n      jump\t// out\n        /* \"#utility.yul\":6448:6836   */\n    tag_128:\n        /* \"#utility.yul\":6516:6522   */\n      0x00\n        /* \"#utility.yul\":6524:6530   */\n      dup1\n        /* \"#utility.yul\":6577:6579   */\n      0x40\n        /* \"#utility.yul\":6565:6574   */\n      dup4\n        /* \"#utility.yul\":6556:6563   */\n      dup6\n        /* \"#utility.yul\":6552:6575   */\n      sub\n        /* \"#utility.yul\":6548:6580   */\n      slt\n        /* \"#utility.yul\":6545:6597   */\n      iszero\n      tag_523\n      jumpi\n        /* \"#utility.yul\":6593:6594   */\n      0x00\n        /* \"#utility.yul\":6590:6591   */\n      dup1\n        /* \"#utility.yul\":6583:6595   */\n      revert\n        /* \"#utility.yul\":6545:6597   */\n    tag_523:\n        /* \"#utility.yul\":6632:6641   */\n      dup3\n        /* \"#utility.yul\":6619:6642   */\n      calldataload\n        /* \"#utility.yul\":6651:6682   */\n      tag_524\n        /* \"#utility.yul\":6676:6681   */\n      dup2\n        /* \"#utility.yul\":6651:6682   */\n      tag_452\n      jump\t// in\n    tag_524:\n        /* \"#utility.yul\":6701:6706   */\n      swap2\n      pop\n        /* \"#utility.yul\":6758:6760   */\n      0x20\n        /* \"#utility.yul\":6743:6761   */\n      dup4\n      add\n        /* \"#utility.yul\":6730:6762   */\n      calldataload\n        /* \"#utility.yul\":6771:6804   */\n      tag_525\n        /* \"#utility.yul\":6730:6762   */\n      dup2\n        /* \"#utility.yul\":6771:6804   */\n      tag_452\n      jump\t// in\n    tag_525:\n        /* \"#utility.yul\":6823:6830   */\n      dup1\n        /* \"#utility.yul\":6813:6830   */\n      swap2\n      pop\n      pop\n        /* \"#utility.yul\":6448:6836   */\n      swap3\n      pop\n      swap3\n      swap1\n      pop\n      jump\t// out\n        /* \"#utility.yul\":6841:7503   */\n    tag_458:\n        /* \"#utility.yul\":6895:6900   */\n      0x00\n        /* \"#utility.yul\":6948:6951   */\n      dup3\n        /* \"#utility.yul\":6941:6945   */\n      0x1f\n        /* \"#utility.yul\":6933:6939   */\n      dup4\n        /* \"#utility.yul\":6929:6946   */\n      add\n        /* \"#utility.yul\":6925:6952   */\n      slt\n        /* \"#utility.yul\":6915:6970   */\n      tag_527\n      jumpi\n        /* \"#utility.yul\":6966:6967   */\n      0x00\n        /* \"#utility.yul\":6963:6964   */\n      dup1\n        /* \"#utility.yul\":6956:6968   */\n      revert\n        /* \"#utility.yul\":6915:6970   */\n    tag_527:\n        /* \"#utility.yul\":7002:7008   */\n      dup2\n        /* \"#utility.yul\":6989:7009   */\n      calldataload\n        /* \"#utility.yul\":7028:7032   */\n      0x20\n        /* \"#utility.yul\":7052:7112   */\n      tag_528\n        /* \"#utility.yul\":7068:7111   */\n      tag_516\n        /* \"#utility.yul\":7108:7110   */\n      dup4\n        /* \"#utility.yul\":7068:7111   */\n      tag_457\n      jump\t// in\n        /* \"#utility.yul\":7052:7112   */\n    tag_528:\n        /* \"#utility.yul\":7146:7161   */\n      dup3\n      dup2\n      mstore\n        /* \"#utility.yul\":7232:7233   */\n      0x05\n        /* \"#utility.yul\":7228:7238   */\n      swap3\n      swap1\n      swap3\n      shl\n        /* \"#utility.yul\":7216:7239   */\n      dup5\n      add\n        /* \"#utility.yul\":7212:7244   */\n      dup2\n      add\n      swap2\n        /* \"#utility.yul\":7177:7189   */\n      dup2\n      dup2\n      add\n      swap1\n        /* \"#utility.yul\":7256:7271   */\n      dup7\n      dup5\n      gt\n        /* \"#utility.yul\":7253:7288   */\n      iszero\n      tag_530\n      jumpi\n        /* \"#utility.yul\":7284:7285   */\n      0x00\n        /* \"#utility.yul\":7281:7282   */\n      dup1\n        /* \"#utility.yul\":7274:7286   */\n      revert\n        /* \"#utility.yul\":7253:7288   */\n    tag_530:\n        /* \"#utility.yul\":7320:7322   */\n      dup3\n        /* \"#utility.yul\":7312:7318   */\n      dup7\n        /* \"#utility.yul\":7308:7323   */\n      add\n        /* \"#utility.yul\":7332:7474   */\n    tag_531:\n        /* \"#utility.yul\":7348:7354   */\n      dup5\n        /* \"#utility.yul\":7343:7346   */\n      dup2\n        /* \"#utility.yul\":7340:7355   */\n      lt\n        /* \"#utility.yul\":7332:7474   */\n      iszero\n      tag_533\n      jumpi\n        /* \"#utility.yul\":7414:7431   */\n      dup1\n      calldataload\n        /* \"#utility.yul\":7402:7432   */\n      dup4\n      mstore\n        /* \"#utility.yul\":7452:7464   */\n      swap2\n      dup4\n      add\n      swap2\n        /* \"#utility.yul\":7365:7377   */\n      dup4\n      add\n        /* \"#utility.yul\":7332:7474   */\n      jump(tag_531)\n    tag_533:\n      pop\n        /* \"#utility.yul\":7492:7497   */\n      swap7\n        /* \"#utility.yul\":6841:7503   */\n      swap6\n      pop\n      pop\n      pop\n      pop\n      pop\n      pop\n      jump\t// out\n        /* \"#utility.yul\":7508:9225   */\n    tag_134:\n        /* \"#utility.yul\":7702:7708   */\n      0x00\n        /* \"#utility.yul\":7710:7716   */\n      dup1\n        /* \"#utility.yul\":7718:7724   */\n      0x00\n        /* \"#utility.yul\":7726:7732   */\n      dup1\n        /* \"#utility.yul\":7734:7740   */\n      0x00\n        /* \"#utility.yul\":7742:7748   */\n      dup1\n        /* \"#utility.yul\":7750:7756   */\n      0x00\n        /* \"#utility.yul\":7803:7806   */\n      0xe0\n        /* \"#utility.yul\":7791:7800   */\n      dup9\n        /* \"#utility.yul\":7782:7789   */\n      dup11\n        /* \"#utility.yul\":7778:7801   */\n      sub\n        /* \"#utility.yul\":7774:7807   */\n      slt\n        /* \"#utility.yul\":7771:7824   */\n      iszero\n      tag_535\n      jumpi\n        /* \"#utility.yul\":7820:7821   */\n      0x00\n        /* \"#utility.yul\":7817:7818   */\n      dup1\n        /* \"#utility.yul\":7810:7822   */\n      revert\n        /* \"#utility.yul\":7771:7824   */\n    tag_535:\n        /* \"#utility.yul\":7859:7868   */\n      dup8\n        /* \"#utility.yul\":7846:7869   */\n      calldataload\n        /* \"#utility.yul\":7878:7909   */\n      tag_536\n        /* \"#utility.yul\":7903:7908   */\n      dup2\n        /* \"#utility.yul\":7878:7909   */\n      tag_452\n      jump\t// in\n    tag_536:\n        /* \"#utility.yul\":7928:7933   */\n      swap7\n      pop\n        /* \"#utility.yul\":7952:7954   */\n      0x20\n        /* \"#utility.yul\":7986:8004   */\n      dup9\n      dup2\n      add\n        /* \"#utility.yul\":7973:8005   */\n      calldataload\n      swap7\n      pop\n        /* \"#utility.yul\":8052:8054   */\n      0x40\n        /* \"#utility.yul\":8037:8055   */\n      dup10\n      add\n        /* \"#utility.yul\":8024:8056   */\n      calldataload\n      swap6\n      pop\n        /* \"#utility.yul\":8103:8105   */\n      0x60\n        /* \"#utility.yul\":8088:8106   */\n      dup10\n      add\n        /* \"#utility.yul\":8075:8107   */\n      calldataload\n      swap5\n      pop\n        /* \"#utility.yul\":8158:8161   */\n      0x80\n        /* \"#utility.yul\":8143:8162   */\n      dup10\n      add\n        /* \"#utility.yul\":8130:8163   */\n      calldataload\n      sub(shl(0x40, 0x01), 0x01)\n        /* \"#utility.yul\":8212:8226   */\n      dup1\n      dup3\n      gt\n        /* \"#utility.yul\":8209:8243   */\n      iszero\n      tag_537\n      jumpi\n        /* \"#utility.yul\":8239:8240   */\n      0x00\n        /* \"#utility.yul\":8236:8237   */\n      dup1\n        /* \"#utility.yul\":8229:8241   */\n      revert\n        /* \"#utility.yul\":8209:8243   */\n    tag_537:\n        /* \"#utility.yul\":8277:8283   */\n      dup2\n        /* \"#utility.yul\":8266:8275   */\n      dup12\n        /* \"#utility.yul\":8262:8284   */\n      add\n        /* \"#utility.yul\":8252:8284   */\n      swap2\n      pop\n        /* \"#utility.yul\":8322:8329   */\n      dup12\n        /* \"#utility.yul\":8315:8319   */\n      0x1f\n        /* \"#utility.yul\":8311:8313   */\n      dup4\n        /* \"#utility.yul\":8307:8320   */\n      add\n        /* \"#utility.yul\":8303:8330   */\n      slt\n        /* \"#utility.yul\":8293:8348   */\n      tag_538\n      jumpi\n        /* \"#utility.yul\":8344:8345   */\n      0x00\n        /* \"#utility.yul\":8341:8342   */\n      dup1\n        /* \"#utility.yul\":8334:8346   */\n      revert\n        /* \"#utility.yul\":8293:8348   */\n    tag_538:\n        /* \"#utility.yul\":8380:8382   */\n      dup2\n        /* \"#utility.yul\":8367:8383   */\n      calldataload\n        /* \"#utility.yul\":8403:8463   */\n      tag_539\n        /* \"#utility.yul\":8419:8462   */\n      tag_516\n        /* \"#utility.yul\":8459:8461   */\n      dup3\n        /* \"#utility.yul\":8419:8462   */\n      tag_457\n      jump\t// in\n        /* \"#utility.yul\":8403:8463   */\n    tag_539:\n        /* \"#utility.yul\":8497:8512   */\n      dup2\n      dup2\n      mstore\n        /* \"#utility.yul\":8579:8580   */\n      0x05\n        /* \"#utility.yul\":8575:8585   */\n      swap2\n      swap1\n      swap2\n      shl\n        /* \"#utility.yul\":8567:8586   */\n      dup4\n      add\n        /* \"#utility.yul\":8563:8591   */\n      dup5\n      add\n      swap1\n        /* \"#utility.yul\":8528:8540   */\n      dup5\n      dup2\n      add\n      swap1\n        /* \"#utility.yul\":8603:8622   */\n      dup15\n      dup4\n      gt\n        /* \"#utility.yul\":8600:8639   */\n      iszero\n      tag_541\n      jumpi\n        /* \"#utility.yul\":8635:8636   */\n      0x00\n        /* \"#utility.yul\":8632:8633   */\n      dup1\n        /* \"#utility.yul\":8625:8637   */\n      revert\n        /* \"#utility.yul\":8600:8639   */\n    tag_541:\n        /* \"#utility.yul\":8659:8670   */\n      swap4\n      dup6\n      add\n      swap4\n        /* \"#utility.yul\":8679:8825   */\n    tag_542:\n        /* \"#utility.yul\":8695:8701   */\n      dup3\n        /* \"#utility.yul\":8690:8693   */\n      dup6\n        /* \"#utility.yul\":8687:8702   */\n      lt\n        /* \"#utility.yul\":8679:8825   */\n      iszero\n      tag_544\n      jumpi\n        /* \"#utility.yul\":8761:8782   */\n      tag_545\n        /* \"#utility.yul\":8778:8781   */\n      dup6\n        /* \"#utility.yul\":8761:8782   */\n      tag_456\n      jump\t// in\n    tag_545:\n        /* \"#utility.yul\":8749:8783   */\n      dup3\n      mstore\n        /* \"#utility.yul\":8712:8724   */\n      swap4\n      dup6\n      add\n      swap4\n        /* \"#utility.yul\":8803:8815   */\n      swap1\n      dup6\n      add\n      swap1\n        /* \"#utility.yul\":8679:8825   */\n      jump(tag_542)\n    tag_544:\n        /* \"#utility.yul\":8844:8849   */\n      swap8\n      pop\n      pop\n      pop\n        /* \"#utility.yul\":8902:8905   */\n      0xa0\n        /* \"#utility.yul\":8887:8906   */\n      dup12\n      add\n        /* \"#utility.yul\":8874:8907   */\n      calldataload\n      swap3\n      pop\n        /* \"#utility.yul\":8919:8935   */\n      dup1\n      dup4\n      gt\n        /* \"#utility.yul\":8916:8952   */\n      iszero\n      tag_546\n      jumpi\n        /* \"#utility.yul\":8948:8949   */\n      0x00\n        /* \"#utility.yul\":8945:8946   */\n      dup1\n        /* \"#utility.yul\":8938:8950   */\n      revert\n        /* \"#utility.yul\":8916:8952   */\n    tag_546:\n        /* \"#utility.yul\":8971:9034   */\n      tag_547\n        /* \"#utility.yul\":9026:9033   */\n      dup13\n        /* \"#utility.yul\":9015:9023   */\n      dup5\n        /* \"#utility.yul\":9004:9013   */\n      dup14\n        /* \"#utility.yul\":9000:9024   */\n      add\n        /* \"#utility.yul\":8971:9034   */\n      tag_458\n      jump\t// in\n    tag_547:\n        /* \"#utility.yul\":8961:9034   */\n      swap5\n      pop\n        /* \"#utility.yul\":9087:9090   */\n      0xc0\n        /* \"#utility.yul\":9076:9085   */\n      dup12\n        /* \"#utility.yul\":9072:9091   */\n      add\n        /* \"#utility.yul\":9059:9092   */\n      calldataload\n        /* \"#utility.yul\":9043:9092   */\n      swap3\n      pop\n        /* \"#utility.yul\":9117:9119   */\n      dup1\n        /* \"#utility.yul\":9107:9115   */\n      dup4\n        /* \"#utility.yul\":9104:9120   */\n      gt\n        /* \"#utility.yul\":9101:9137   */\n      iszero\n      tag_548\n      jumpi\n        /* \"#utility.yul\":9133:9134   */\n      0x00\n        /* \"#utility.yul\":9130:9131   */\n      dup1\n        /* \"#utility.yul\":9123:9135   */\n      revert\n        /* \"#utility.yul\":9101:9137   */\n    tag_548:\n      pop\n      pop\n        /* \"#utility.yul\":9156:9219   */\n      tag_549\n        /* \"#utility.yul\":9211:9218   */\n      dup11\n        /* \"#utility.yul\":9200:9208   */\n      dup3\n        /* \"#utility.yul\":9189:9198   */\n      dup12\n        /* \"#utility.yul\":9185:9209   */\n      add\n        /* \"#utility.yul\":9156:9219   */\n      tag_458\n      jump\t// in\n    tag_549:\n        /* \"#utility.yul\":9146:9219   */\n      swap2\n      pop\n      pop\n        /* \"#utility.yul\":7508:9225   */\n      swap3\n      swap6\n      swap9\n      swap2\n      swap5\n      swap8\n      pop\n      swap3\n      swap6\n      pop\n      jump\t// out\n        /* \"#utility.yul\":9230:9410   */\n    tag_143:\n        /* \"#utility.yul\":9289:9295   */\n      0x00\n        /* \"#utility.yul\":9342:9344   */\n      0x20\n        /* \"#utility.yul\":9330:9339   */\n      dup3\n        /* \"#utility.yul\":9321:9328   */\n      dup5\n        /* \"#utility.yul\":9317:9340   */\n      sub\n        /* \"#utility.yul\":9313:9345   */\n      slt\n        /* \"#utility.yul\":9310:9362   */\n      iszero\n      tag_551\n      jumpi\n        /* \"#utility.yul\":9358:9359   */\n      0x00\n        /* \"#utility.yul\":9355:9356   */\n      dup1\n        /* \"#utility.yul\":9348:9360   */\n      revert\n        /* \"#utility.yul\":9310:9362   */\n    tag_551:\n      pop\n        /* \"#utility.yul\":9381:9404   */\n      calldataload\n      swap2\n        /* \"#utility.yul\":9230:9410   */\n      swap1\n      pop\n      jump\t// out\n        /* \"#utility.yul\":9415:9795   */\n    tag_148:\n        /* \"#utility.yul\":9494:9495   */\n      0x01\n        /* \"#utility.yul\":9490:9502   */\n      dup2\n      dup2\n      shr\n      swap1\n        /* \"#utility.yul\":9537:9549   */\n      dup3\n      and\n      dup1\n        /* \"#utility.yul\":9558:9619   */\n      tag_553\n      jumpi\n        /* \"#utility.yul\":9612:9616   */\n      0x7f\n        /* \"#utility.yul\":9604:9610   */\n      dup3\n        /* \"#utility.yul\":9600:9617   */\n      and\n        /* \"#utility.yul\":9590:9617   */\n      swap2\n      pop\n        /* \"#utility.yul\":9558:9619   */\n    tag_553:\n        /* \"#utility.yul\":9665:9667   */\n      0x20\n        /* \"#utility.yul\":9657:9663   */\n      dup3\n        /* \"#utility.yul\":9654:9668   */\n      lt\n        /* \"#utility.yul\":9634:9652   */\n      dup2\n        /* \"#utility.yul\":9631:9669   */\n      eq\n        /* \"#utility.yul\":9628:9789   */\n      iszero\n      tag_554\n      jumpi\n        /* \"#utility.yul\":9711:9721   */\n      0x4e487b71\n        /* \"#utility.yul\":9706:9709   */\n      0xe0\n        /* \"#utility.yul\":9702:9722   */\n      shl\n        /* \"#utility.yul\":9699:9700   */\n      0x00\n        /* \"#utility.yul\":9692:9723   */\n      mstore\n        /* \"#utility.yul\":9746:9750   */\n      0x22\n        /* \"#utility.yul\":9743:9744   */\n      0x04\n        /* \"#utility.yul\":9736:9751   */\n      mstore\n        /* \"#utility.yul\":9774:9778   */\n      0x24\n        /* \"#utility.yul\":9771:9772   */\n      0x00\n        /* \"#utility.yul\":9764:9779   */\n      revert\n        /* \"#utility.yul\":9628:9789   */\n    tag_554:\n      pop\n        /* \"#utility.yul\":9415:9795   */\n      swap2\n      swap1\n      pop\n      jump\t// out\n        /* \"#utility.yul\":9800:9927   */\n    tag_459:\n        /* \"#utility.yul\":9861:9871   */\n      0x4e487b71\n        /* \"#utility.yul\":9856:9859   */\n      0xe0\n        /* \"#utility.yul\":9852:9872   */\n      shl\n        /* \"#utility.yul\":9849:9850   */\n      0x00\n        /* \"#utility.yul\":9842:9873   */\n      mstore\n        /* \"#utility.yul\":9892:9896   */\n      0x11\n        /* \"#utility.yul\":9889:9890   */\n      0x04\n        /* \"#utility.yul\":9882:9897   */\n      mstore\n        /* \"#utility.yul\":9916:9920   */\n      0x24\n        /* \"#utility.yul\":9913:9914   */\n      0x00\n        /* \"#utility.yul\":9906:9921   */\n      revert\n        /* \"#utility.yul\":9932:10060   */\n    tag_174:\n        /* \"#utility.yul\":9972:9975   */\n      0x00\n        /* \"#utility.yul\":10003:10004   */\n      dup3\n        /* \"#utility.yul\":9999:10005   */\n      not\n        /* \"#utility.yul\":9996:9997   */\n      dup3\n        /* \"#utility.yul\":9993:10006   */\n      gt\n        /* \"#utility.yul\":9990:10029   */\n      iszero\n      tag_558\n      jumpi\n        /* \"#utility.yul\":10009:10027   */\n      tag_558\n      tag_459\n      jump\t// in\n    tag_558:\n      pop\n        /* \"#utility.yul\":10045:10054   */\n      add\n      swap1\n        /* \"#utility.yul\":9932:10060   */\n      jump\t// out\n        /* \"#utility.yul\":10480:10902   */\n    tag_460:\n        /* \"#utility.yul\":10569:10570   */\n      0x01\n        /* \"#utility.yul\":10612:10617   */\n      dup2\n        /* \"#utility.yul\":10569:10570   */\n      dup2\n        /* \"#utility.yul\":10626:10896   */\n    tag_561:\n        /* \"#utility.yul\":10647:10654   */\n      dup1\n        /* \"#utility.yul\":10637:10645   */\n      dup6\n        /* \"#utility.yul\":10634:10655   */\n      gt\n        /* \"#utility.yul\":10626:10896   */\n      iszero\n      tag_563\n      jumpi\n        /* \"#utility.yul\":10706:10710   */\n      dup2\n        /* \"#utility.yul\":10702:10703   */\n      0x00\n        /* \"#utility.yul\":10698:10704   */\n      not\n        /* \"#utility.yul\":10694:10711   */\n      div\n        /* \"#utility.yul\":10688:10692   */\n      dup3\n        /* \"#utility.yul\":10685:10712   */\n      gt\n        /* \"#utility.yul\":10682:10735   */\n      iszero\n      tag_565\n      jumpi\n        /* \"#utility.yul\":10715:10733   */\n      tag_565\n      tag_459\n      jump\t// in\n    tag_565:\n        /* \"#utility.yul\":10765:10772   */\n      dup1\n        /* \"#utility.yul\":10755:10763   */\n      dup6\n        /* \"#utility.yul\":10751:10773   */\n      and\n        /* \"#utility.yul\":10748:10803   */\n      iszero\n      tag_566\n      jumpi\n        /* \"#utility.yul\":10785:10801   */\n      swap2\n      dup2\n      mul\n      swap2\n        /* \"#utility.yul\":10748:10803   */\n    tag_566:\n        /* \"#utility.yul\":10864:10886   */\n      swap4\n      dup5\n      shr\n      swap4\n        /* \"#utility.yul\":10824:10839   */\n      swap1\n      dup1\n      mul\n      swap1\n        /* \"#utility.yul\":10626:10896   */\n      jump(tag_561)\n    tag_563:\n        /* \"#utility.yul\":10630:10633   */\n      pop\n        /* \"#utility.yul\":10480:10902   */\n      swap3\n      pop\n      swap3\n      swap1\n      pop\n      jump\t// out\n        /* \"#utility.yul\":10907:11713   */\n    tag_461:\n        /* \"#utility.yul\":10956:10961   */\n      0x00\n        /* \"#utility.yul\":10986:10994   */\n      dup3\n        /* \"#utility.yul\":10976:11056   */\n      tag_568\n      jumpi\n      pop\n        /* \"#utility.yul\":11027:11028   */\n      0x01\n        /* \"#utility.yul\":11041:11046   */\n      jump(tag_154)\n        /* \"#utility.yul\":10976:11056   */\n    tag_568:\n        /* \"#utility.yul\":11075:11079   */\n      dup2\n        /* \"#utility.yul\":11065:11141   */\n      tag_569\n      jumpi\n      pop\n        /* \"#utility.yul\":11112:11113   */\n      0x00\n        /* \"#utility.yul\":11126:11131   */\n      jump(tag_154)\n        /* \"#utility.yul\":11065:11141   */\n    tag_569:\n        /* \"#utility.yul\":11157:11161   */\n      dup2\n        /* \"#utility.yul\":11175:11176   */\n      0x01\n        /* \"#utility.yul\":11170:11229   */\n      dup2\n      eq\n      tag_571\n      jumpi\n        /* \"#utility.yul\":11243:11244   */\n      0x02\n        /* \"#utility.yul\":11238:11368   */\n      dup2\n      eq\n      tag_572\n      jumpi\n        /* \"#utility.yul\":11150:11368   */\n      jump(tag_570)\n        /* \"#utility.yul\":11170:11229   */\n    tag_571:\n        /* \"#utility.yul\":11200:11201   */\n      0x01\n        /* \"#utility.yul\":11191:11201   */\n      swap2\n      pop\n        /* \"#utility.yul\":11214:11219   */\n      pop\n      jump(tag_154)\n        /* \"#utility.yul\":11238:11368   */\n    tag_572:\n        /* \"#utility.yul\":11275:11278   */\n      0xff\n        /* \"#utility.yul\":11265:11273   */\n      dup5\n        /* \"#utility.yul\":11262:11279   */\n      gt\n        /* \"#utility.yul\":11259:11302   */\n      iszero\n      tag_574\n      jumpi\n        /* \"#utility.yul\":11282:11300   */\n      tag_574\n      tag_459\n      jump\t// in\n    tag_574:\n      pop\n      pop\n        /* \"#utility.yul\":11338:11339   */\n      0x01\n        /* \"#utility.yul\":11324:11340   */\n      dup3\n      shl\n        /* \"#utility.yul\":11353:11358   */\n      jump(tag_154)\n        /* \"#utility.yul\":11150:11368   */\n    tag_570:\n      pop\n        /* \"#utility.yul\":11452:11454   */\n      0x20\n        /* \"#utility.yul\":11442:11450   */\n      dup4\n        /* \"#utility.yul\":11439:11455   */\n      lt\n        /* \"#utility.yul\":11433:11436   */\n      0x0133\n        /* \"#utility.yul\":11427:11431   */\n      dup4\n        /* \"#utility.yul\":11424:11437   */\n      lt\n        /* \"#utility.yul\":11420:11456   */\n      and\n        /* \"#utility.yul\":11414:11416   */\n      0x4e\n        /* \"#utility.yul\":11404:11412   */\n      dup5\n        /* \"#utility.yul\":11401:11417   */\n      lt\n        /* \"#utility.yul\":11396:11398   */\n      0x0b\n        /* \"#utility.yul\":11390:11394   */\n      dup5\n        /* \"#utility.yul\":11387:11399   */\n      lt\n        /* \"#utility.yul\":11383:11418   */\n      and\n        /* \"#utility.yul\":11380:11457   */\n      or\n        /* \"#utility.yul\":11377:11536   */\n      iszero\n      tag_575\n      jumpi\n      pop\n        /* \"#utility.yul\":11489:11508   */\n      dup2\n      dup2\n      exp\n        /* \"#utility.yul\":11521:11526   */\n      jump(tag_154)\n        /* \"#utility.yul\":11377:11536   */\n    tag_575:\n        /* \"#utility.yul\":11568:11602   */\n      tag_576\n        /* \"#utility.yul\":11593:11601   */\n      dup4\n        /* \"#utility.yul\":11587:11591   */\n      dup4\n        /* \"#utility.yul\":11568:11602   */\n      tag_460\n      jump\t// in\n    tag_576:\n        /* \"#utility.yul\":11638:11644   */\n      dup1\n        /* \"#utility.yul\":11634:11635   */\n      0x00\n        /* \"#utility.yul\":11630:11636   */\n      not\n        /* \"#utility.yul\":11626:11645   */\n      div\n        /* \"#utility.yul\":11617:11624   */\n      dup3\n        /* \"#utility.yul\":11614:11646   */\n      gt\n        /* \"#utility.yul\":11611:11669   */\n      iszero\n      tag_578\n      jumpi\n        /* \"#utility.yul\":11649:11667   */\n      tag_578\n      tag_459\n      jump\t// in\n    tag_578:\n        /* \"#utility.yul\":11687:11707   */\n      mul\n      swap4\n        /* \"#utility.yul\":10907:11713   */\n      swap3\n      pop\n      pop\n      pop\n      jump\t// out\n        /* \"#utility.yul\":11718:11858   */\n    tag_195:\n        /* \"#utility.yul\":11776:11781   */\n      0x00\n        /* \"#utility.yul\":11805:11852   */\n      tag_313\n        /* \"#utility.yul\":11846:11850   */\n      0xff\n        /* \"#utility.yul\":11836:11844   */\n      dup5\n        /* \"#utility.yul\":11832:11851   */\n      and\n        /* \"#utility.yul\":11826:11830   */\n      dup4\n        /* \"#utility.yul\":11805:11852   */\n      tag_461\n      jump\t// in\n        /* \"#utility.yul\":11863:12031   */\n    tag_197:\n        /* \"#utility.yul\":11903:11910   */\n      0x00\n        /* \"#utility.yul\":11969:11970   */\n      dup2\n        /* \"#utility.yul\":11965:11966   */\n      0x00\n        /* \"#utility.yul\":11961:11967   */\n      not\n        /* \"#utility.yul\":11957:11971   */\n      div\n        /* \"#utility.yul\":11954:11955   */\n      dup4\n        /* \"#utility.yul\":11951:11972   */\n      gt\n        /* \"#utility.yul\":11946:11947   */\n      dup3\n        /* \"#utility.yul\":11939:11948   */\n      iszero\n        /* \"#utility.yul\":11932:11949   */\n      iszero\n        /* \"#utility.yul\":11928:11973   */\n      and\n        /* \"#utility.yul\":11925:11996   */\n      iszero\n      tag_583\n      jumpi\n        /* \"#utility.yul\":11976:11994   */\n      tag_583\n      tag_459\n      jump\t// in\n    tag_583:\n      pop\n        /* \"#utility.yul\":12016:12025   */\n      mul\n      swap1\n        /* \"#utility.yul\":11863:12031   */\n      jump\t// out\n        /* \"#utility.yul\":12641:12766   */\n    tag_249:\n        /* \"#utility.yul\":12681:12685   */\n      0x00\n        /* \"#utility.yul\":12709:12710   */\n      dup3\n        /* \"#utility.yul\":12706:12707   */\n      dup3\n        /* \"#utility.yul\":12703:12711   */\n      lt\n        /* \"#utility.yul\":12700:12734   */\n      iszero\n      tag_588\n      jumpi\n        /* \"#utility.yul\":12714:12732   */\n      tag_588\n      tag_459\n      jump\t// in\n    tag_588:\n      pop\n        /* \"#utility.yul\":12751:12760   */\n      sub\n      swap1\n        /* \"#utility.yul\":12641:12766   */\n      jump\t// out\n        /* \"#utility.yul\":14082:14209   */\n    tag_268:\n        /* \"#utility.yul\":14143:14153   */\n      0x4e487b71\n        /* \"#utility.yul\":14138:14141   */\n      0xe0\n        /* \"#utility.yul\":14134:14154   */\n      shl\n        /* \"#utility.yul\":14131:14132   */\n      0x00\n        /* \"#utility.yul\":14124:14155   */\n      mstore\n        /* \"#utility.yul\":14174:14178   */\n      0x32\n        /* \"#utility.yul\":14171:14172   */\n      0x04\n        /* \"#utility.yul\":14164:14179   */\n      mstore\n        /* \"#utility.yul\":14198:14202   */\n      0x24\n        /* \"#utility.yul\":14195:14196   */\n      0x00\n        /* \"#utility.yul\":14188:14203   */\n      revert\n        /* \"#utility.yul\":14617:14792   */\n    tag_280:\n        /* \"#utility.yul\":14654:14657   */\n      0x00\n        /* \"#utility.yul\":14698:14702   */\n      0xff\n        /* \"#utility.yul\":14691:14696   */\n      dup3\n        /* \"#utility.yul\":14687:14703   */\n      and\n        /* \"#utility.yul\":14727:14731   */\n      0xff\n        /* \"#utility.yul\":14718:14725   */\n      dup2\n        /* \"#utility.yul\":14715:14732   */\n      eq\n        /* \"#utility.yul\":14712:14755   */\n      iszero\n      tag_596\n      jumpi\n        /* \"#utility.yul\":14735:14753   */\n      tag_596\n      tag_459\n      jump\t// in\n    tag_596:\n        /* \"#utility.yul\":14784:14785   */\n      0x01\n        /* \"#utility.yul\":14771:14786   */\n      add\n      swap3\n        /* \"#utility.yul\":14617:14792   */\n      swap2\n      pop\n      pop\n      jump\t// out\n        /* \"#utility.yul\":14797:15006   */\n    tag_282:\n        /* \"#utility.yul\":14835:14838   */\n      0x00\n      sub(shl(0x40, 0x01), 0x01)\n        /* \"#utility.yul\":14916:14918   */\n      dup1\n        /* \"#utility.yul\":14909:14914   */\n      dup4\n        /* \"#utility.yul\":14905:14919   */\n      and\n        /* \"#utility.yul\":14943:14945   */\n      dup2\n        /* \"#utility.yul\":14934:14941   */\n      dup2\n        /* \"#utility.yul\":14931:14946   */\n      eq\n        /* \"#utility.yul\":14928:14969   */\n      iszero\n      tag_599\n      jumpi\n        /* \"#utility.yul\":14949:14967   */\n      tag_599\n      tag_459\n      jump\t// in\n    tag_599:\n        /* \"#utility.yul\":14998:14999   */\n      0x01\n        /* \"#utility.yul\":14985:15000   */\n      add\n      swap4\n        /* \"#utility.yul\":14797:15006   */\n      swap3\n      pop\n      pop\n      pop\n      jump\t// out\n        /* \"#utility.yul\":17128:17345   */\n    tag_314:\n        /* \"#utility.yul\":17168:17169   */\n      0x00\n        /* \"#utility.yul\":17194:17195   */\n      dup3\n        /* \"#utility.yul\":17184:17316   */\n      tag_607\n      jumpi\n        /* \"#utility.yul\":17238:17248   */\n      0x4e487b71\n        /* \"#utility.yul\":17233:17236   */\n      0xe0\n        /* \"#utility.yul\":17229:17249   */\n      shl\n        /* \"#utility.yul\":17226:17227   */\n      0x00\n        /* \"#utility.yul\":17219:17250   */\n      mstore\n        /* \"#utility.yul\":17273:17277   */\n      0x12\n        /* \"#utility.yul\":17270:17271   */\n      0x04\n        /* \"#utility.yul\":17263:17278   */\n      mstore\n        /* \"#utility.yul\":17301:17305   */\n      0x24\n        /* \"#utility.yul\":17298:17299   */\n      0x00\n        /* \"#utility.yul\":17291:17306   */\n      revert\n        /* \"#utility.yul\":17184:17316   */\n    tag_607:\n      pop\n        /* \"#utility.yul\":17330:17339   */\n      div\n      swap1\n        /* \"#utility.yul\":17128:17345   */\n      jump\t// out\n        /* \"#utility.yul\":17350:17757   */\n    tag_330:\n        /* \"#utility.yul\":17552:17554   */\n      0x20\n        /* \"#utility.yul\":17534:17555   */\n      dup1\n      dup3\n      mstore\n        /* \"#utility.yul\":17591:17593   */\n      0x2b\n        /* \"#utility.yul\":17571:17589   */\n      swap1\n      dup3\n      add\n        /* \"#utility.yul\":17564:17594   */\n      mstore\n        /* \"#utility.yul\":17630:17664   */\n      0x496e697469616c697a61626c653a20636f6e7472616374206973206e6f742069\n        /* \"#utility.yul\":17625:17627   */\n      0x40\n        /* \"#utility.yul\":17610:17628   */\n      dup3\n      add\n        /* \"#utility.yul\":17603:17665   */\n      mstore\n      shl(0xa8, 0x6e697469616c697a696e67)\n        /* \"#utility.yul\":17696:17698   */\n      0x60\n        /* \"#utility.yul\":17681:17699   */\n      dup3\n      add\n        /* \"#utility.yul\":17674:17715   */\n      mstore\n        /* \"#utility.yul\":17747:17750   */\n      0x80\n        /* \"#utility.yul\":17732:17751   */\n      add\n      swap1\n        /* \"#utility.yul\":17350:17757   */\n      jump\t// out\n\n    auxdata: 0xa264697066735822122051301ad0327c5b83691d1c40a2ff4639438bc8ed305029cbc641b897ad9dfc9b64736f6c634300080c0033\n}\n",
				"bytecode": {
					"linkReferences": {},
					"object": "608060405234801561001057600080fd5b50611f96806100206000396000f3fe6080604052600436106101445760003560e01c806370a08231116100b6578063a9059cbb1161006f578063a9059cbb146103bd578063b722d0a5146103dd578063dd62ed3e146103fb578063e4c97e6a1461041b578063f2fde38b1461043b578063f93422851461045b57600080fd5b806370a08231146102eb578063715018a6146103215780638da5cb5b1461033657806395d89b4114610368578063a37726621461037d578063a457c2d71461039d57600080fd5b806323b872dd1161010857806323b872dd14610230578063313ce56714610250578063355274ea14610272578063395093511461028757806346f0975a146102a757806355d13009146102c957600080fd5b806306fdde031461015057806307c351dd1461017b578063095ea7b3146101c457806318160ddd146101e45780631e0d4ce91461020357600080fd5b3661014b57005b600080fd5b34801561015c57600080fd5b5061016561048b565b60405161017291906117c5565b60405180910390f35b34801561018757600080fd5b506101b461019636600461182f565b6001600160a01b0316600090815260d3602052604090205460ff1690565b6040519015158152602001610172565b3480156101d057600080fd5b506101b46101df36600461184c565b61051d565b3480156101f057600080fd5b506035545b604051908152602001610172565b34801561020f57600080fd5b506101f561021e36600461182f565b60d56020526000908152604090205481565b34801561023c57600080fd5b506101b461024b366004611878565b610537565b34801561025c57600080fd5b5060cc5460405160ff9091168152602001610172565b34801561027e57600080fd5b506065546101f5565b34801561029357600080fd5b506101b46102a236600461184c565b610566565b3480156102b357600080fd5b506102bc610588565b60405161017291906118b9565b3480156102d557600080fd5b506102e96102e43660046119d1565b6105e9565b005b3480156102f757600080fd5b506101f561030636600461182f565b6001600160a01b031660009081526033602052604090205490565b34801561032d57600080fd5b506102e961079f565b34801561034257600080fd5b506098546001600160a01b03165b6040516001600160a01b039091168152602001610172565b34801561037457600080fd5b506101656107b3565b34801561038957600080fd5b506102e9610398366004611a99565b6107c2565b3480156103a957600080fd5b506101b46103b836600461184c565b610861565b3480156103c957600080fd5b506101b46103d836600461184c565b6108e7565b3480156103e957600080fd5b5060d1546001600160a01b0316610350565b34801561040757600080fd5b506101f5610416366004611b37565b610960565b34801561042757600080fd5b506102e9610436366004611bd6565b61098b565b34801561044757600080fd5b506102e961045636600461182f565b610ce9565b34801561046757600080fd5b506101b4610476366004611ceb565b60d46020526000908152604090205460ff1681565b60606036805461049a90611d04565b80601f01602080910402602001604051908101604052809291908181526020018280546104c690611d04565b80156105135780601f106104e857610100808354040283529160200191610513565b820191906000526020600020905b8154815290600101906020018083116104f657829003601f168201915b5050505050905090565b60003361052b818585610d5f565b60019150505b92915050565b60008061054383610e84565b905061054f8582610ea8565b61055a858585610f07565b50600195945050505050565b60003361052b8185856105798383610960565b6105839190611d55565b610d5f565b606060d280548060200260200160405190810160405280929190818152602001828054801561051357602002820191906000526020600020905b81546001600160a01b031681526001909101906020018083116105c2575050505050905090565b600054610100900460ff16158080156106095750600054600160ff909116105b806106235750303b158015610623575060005460ff166001145b61068b5760405162461bcd60e51b815260206004820152602e60248201527f496e697469616c697a61626c653a20636f6e747261637420697320616c72656160448201526d191e481a5b9a5d1a585b1a5e995960921b60648201526084015b60405180910390fd5b6000805460ff1916600117905580156106ae576000805461ff0019166101001790555b6106b6610f20565b6106c08888610f4f565b6106dd6106ce87600a611e51565b6106d89087611e60565b610f84565b87516106f09060ca9060208b01906116b9565b5086516107049060cb9060208a01906116b9565b5060cc805460ff191660ff881617905567016345785d8a000060cd5560ce85905560cf83905560d180546001600160a01b0319166001600160a01b03841617905561074f8285610fb4565b8015610795576000805461ff0019169055604051600181527f7f26b83ff96e1f2b6a682f133852f6798a09c465da95921460cefb38474024989060200160405180910390a15b5050505050505050565b6107a7611023565b6107b1600061107d565b565b60606037805461049a90611d04565b6107ca611023565b61083160d280548060200260200160405190810160405280929190818152602001828054801561082357602002820191906000526020600020905b81546001600160a01b03168152600190910190602001808311610805575b5050505050600060d36110cf565b61083d60d2600061173d565b80516108509060d290602084019061175b565b5061085e81600160d36110cf565b50565b6000338161086f8286610960565b9050838110156108cf5760405162461bcd60e51b815260206004820152602560248201527f45524332303a2064656372656173656420616c6c6f77616e63652062656c6f77604482015264207a65726f60d81b6064820152608401610682565b6108dc8286868403610d5f565b506001949350505050565b60006108fb6098546001600160a01b031690565b6001600160a01b0316336001600160a01b031614156109245761091e838361114d565b50610957565b600061092f83610e84565b905061093b3382610ea8565b60006109478285611e7f565b9050610953858261114d565b5050505b50600192915050565b6001600160a01b03918216600090815260346020908152604080832093909416825291909152205490565b428410156109ce5760405162461bcd60e51b815260206004820152601060248201526f4578706972656420646561646c696e6560801b6044820152606401610682565b600086815260d4602052604090205460ff1615610a205760405162461bcd60e51b815260206004820152601060248201526f556e697175652069642065786973747360801b6044820152606401610682565b336000610a356098546001600160a01b031690565b604080516001600160a01b03808416602083015280861692820192909252908b1660608201526080810189905260a081018a905260c0810188905290915060009060e00160405160208183030381529060405280519060200120905060008060005b8851816001600160401b03161015610bdb5760006001858b846001600160401b031681518110610ac957610ac9611e96565b60200260200101518b856001600160401b031681518110610aec57610aec611e96565b60200260200101518b866001600160401b031681518110610b0f57610b0f611e96565b602002602001015160405160008152602001604052604051610b4d949392919093845260ff9290921660208401526040830152606082015260800190565b6020604051602081039080840390855afa158015610b6f573d6000803e3d6000fd5b505050602060405103519050836001600160a01b0316816001600160a01b0316118015610bb457506001600160a01b038116600090815260d3602052604090205460ff165b15610bc75782610bc381611eac565b9350505b925080610bd381611ecc565b915050610a97565b508060ff16600314610c215760405162461bcd60e51b815260206004820152600f60248201526e496e76616c6964207369676e65727360881b6044820152606401610682565b60008b815260d46020526040808220805460ff1916600117905560cd5490516001600160a01b038f1691908381818185875af1925050503d8060008114610c84576040519150601f19603f3d011682016040523d82523d6000602084013e610c89565b606091505b5050905080610cd05760405162461bcd60e51b815260206004820152601360248201527208cc2d2d8cac840e8de40e6cadcc8409acac6d606b1b6044820152606401610682565b610cda8d8c610fb4565b50505050505050505050505050565b610cf1611023565b6001600160a01b038116610d565760405162461bcd60e51b815260206004820152602660248201527f4f776e61626c653a206e6577206f776e657220697320746865207a65726f206160448201526564647265737360d01b6064820152608401610682565b61085e8161107d565b6001600160a01b038316610dc15760405162461bcd60e51b8152602060048201526024808201527f45524332303a20617070726f76652066726f6d20746865207a65726f206164646044820152637265737360e01b6064820152608401610682565b6001600160a01b038216610e225760405162461bcd60e51b815260206004820152602260248201527f45524332303a20617070726f766520746f20746865207a65726f206164647265604482015261737360f01b6064820152608401610682565b6001600160a01b0383811660008181526034602090815260408083209487168084529482529182902085905590518481527f8c5be1e5ebec7d5bd14f71427d1e84f3dd0314c0f7b2291e5b200ac8c7c3b92591015b60405180910390a3505050565b600080606460cf5484610e979190611e60565b610ea19190611ef3565b9392505050565b610eb2828261115b565b8060d054610ec09190611d55565b60d0556001600160a01b038216600090815260d56020526040902054610ee7908290611d55565b6001600160a01b03909216600090815260d5602052604090209190915550565b600033610f158582856112a6565b6108dc85858561131a565b600054610100900460ff16610f475760405162461bcd60e51b815260040161068290611f15565b6107b16114e8565b600054610100900460ff16610f765760405162461bcd60e51b815260040161068290611f15565b610f808282611518565b5050565b600054610100900460ff16610fab5760405162461bcd60e51b815260040161068290611f15565b61085e81611566565b60655481610fc160355490565b610fcb9190611d55565b11156110195760405162461bcd60e51b815260206004820152601960248201527f45524332304361707065643a20636170206578636565646564000000000000006044820152606401610682565b610f8082826115da565b6098546001600160a01b031633146107b15760405162461bcd60e51b815260206004820181905260248201527f4f776e61626c653a2063616c6c6572206973206e6f7420746865206f776e65726044820152606401610682565b609880546001600160a01b038381166001600160a01b0319831681179093556040519116919082907f8be0079c531659141344cd1fd0a4f28419497f9722a3daafe3b4186f6b6457e090600090a35050565b60005b8351816001600160401b03161015611147578282600086846001600160401b03168151811061110357611103611e96565b6020908102919091018101516001600160a01b03168252810191909152604001600020805460ff19169115159190911790558061113f81611ecc565b9150506110d2565b50505050565b60003361052b81858561131a565b6001600160a01b0382166111bb5760405162461bcd60e51b815260206004820152602160248201527f45524332303a206275726e2066726f6d20746865207a65726f206164647265736044820152607360f81b6064820152608401610682565b6001600160a01b0382166000908152603360205260409020548181101561122f5760405162461bcd60e51b815260206004820152602260248201527f45524332303a206275726e20616d6f756e7420657863656564732062616c616e604482015261636560f01b6064820152608401610682565b6001600160a01b038316600090815260336020526040812083830390556035805484929061125e908490611e7f565b90915550506040518281526000906001600160a01b038516907fddf252ad1be2c89b69c2b068fc378daa952ba7f163c4a11628f55a4df523b3ef90602001610e77565b505050565b60006112b28484610960565b90506000198114611147578181101561130d5760405162461bcd60e51b815260206004820152601d60248201527f45524332303a20696e73756666696369656e7420616c6c6f77616e63650000006044820152606401610682565b6111478484848403610d5f565b6001600160a01b03831661137e5760405162461bcd60e51b815260206004820152602560248201527f45524332303a207472616e736665722066726f6d20746865207a65726f206164604482015264647265737360d81b6064820152608401610682565b6001600160a01b0382166113e05760405162461bcd60e51b815260206004820152602360248201527f45524332303a207472616e7366657220746f20746865207a65726f206164647260448201526265737360e81b6064820152608401610682565b6001600160a01b038316600090815260336020526040902054818110156114585760405162461bcd60e51b815260206004820152602660248201527f45524332303a207472616e7366657220616d6f756e7420657863656564732062604482015265616c616e636560d01b6064820152608401610682565b6001600160a01b0380851660009081526033602052604080822085850390559185168152908120805484929061148f908490611d55565b92505081905550826001600160a01b0316846001600160a01b03167fddf252ad1be2c89b69c2b068fc378daa952ba7f163c4a11628f55a4df523b3ef846040516114db91815260200190565b60405180910390a3611147565b600054610100900460ff1661150f5760405162461bcd60e51b815260040161068290611f15565b6107b13361107d565b600054610100900460ff1661153f5760405162461bcd60e51b815260040161068290611f15565b81516115529060369060208501906116b9565b5080516112a19060379060208401906116b9565b600054610100900460ff1661158d5760405162461bcd60e51b815260040161068290611f15565b600081116115d55760405162461bcd60e51b8152602060048201526015602482015274045524332304361707065643a20636170206973203605c1b6044820152606401610682565b606555565b6001600160a01b0382166116305760405162461bcd60e51b815260206004820152601f60248201527f45524332303a206d696e7420746f20746865207a65726f2061646472657373006044820152606401610682565b80603560008282546116429190611d55565b90915550506001600160a01b0382166000908152603360205260408120805483929061166f908490611d55565b90915550506040518181526001600160a01b038316906000907fddf252ad1be2c89b69c2b068fc378daa952ba7f163c4a11628f55a4df523b3ef9060200160405180910390a35050565b8280546116c590611d04565b90600052602060002090601f0160209004810192826116e7576000855561172d565b82601f1061170057805160ff191683800117855561172d565b8280016001018555821561172d579182015b8281111561172d578251825591602001919060010190611712565b506117399291506117b0565b5090565b508054600082559060005260206000209081019061085e91906117b0565b82805482825590600052602060002090810192821561172d579160200282015b8281111561172d57825182546001600160a01b0319166001600160a01b0390911617825560209092019160019091019061177b565b5b8082111561173957600081556001016117b1565b600060208083528351808285015260005b818110156117f2578581018301518582016040015282016117d6565b81811115611804576000604083870101525b50601f01601f1916929092016040019392505050565b6001600160a01b038116811461085e57600080fd5b60006020828403121561184157600080fd5b8135610ea18161181a565b6000806040838503121561185f57600080fd5b823561186a8161181a565b946020939093013593505050565b60008060006060848603121561188d57600080fd5b83356118988161181a565b925060208401356118a88161181a565b929592945050506040919091013590565b6020808252825182820181905260009190848201906040850190845b818110156118fa5783516001600160a01b0316835292840192918401916001016118d5565b50909695505050505050565b634e487b7160e01b600052604160045260246000fd5b604051601f8201601f191681016001600160401b038111828210171561194457611944611906565b604052919050565b600082601f83011261195d57600080fd5b81356001600160401b0381111561197657611976611906565b611989601f8201601f191660200161191c565b81815284602083860101111561199e57600080fd5b816020850160208301376000918101602001919091529392505050565b803560ff811681146119cc57600080fd5b919050565b600080600080600080600060e0888a0312156119ec57600080fd5b87356001600160401b0380821115611a0357600080fd5b611a0f8b838c0161194c565b985060208a0135915080821115611a2557600080fd5b50611a328a828b0161194c565b965050611a41604089016119bb565b9450606088013593506080880135925060a0880135915060c0880135611a668161181a565b8091505092959891949750929550565b60006001600160401b03821115611a8f57611a8f611906565b5060051b60200190565b60006020808385031215611aac57600080fd5b82356001600160401b03811115611ac257600080fd5b8301601f81018513611ad357600080fd5b8035611ae6611ae182611a76565b61191c565b81815260059190911b82018301908381019087831115611b0557600080fd5b928401925b82841015611b2c578335611b1d8161181a565b82529284019290840190611b0a565b979650505050505050565b60008060408385031215611b4a57600080fd5b8235611b558161181a565b91506020830135611b658161181a565b809150509250929050565b600082601f830112611b8157600080fd5b81356020611b91611ae183611a76565b82815260059290921b84018101918181019086841115611bb057600080fd5b8286015b84811015611bcb5780358352918301918301611bb4565b509695505050505050565b600080600080600080600060e0888a031215611bf157600080fd5b8735611bfc8161181a565b96506020888101359650604089013595506060890135945060808901356001600160401b0380821115611c2e57600080fd5b818b0191508b601f830112611c4257600080fd5b8135611c50611ae182611a76565b81815260059190911b8301840190848101908e831115611c6f57600080fd5b938501935b82851015611c9457611c85856119bb565b82529385019390850190611c74565b9750505060a08b0135925080831115611cac57600080fd5b611cb88c848d01611b70565b945060c08b0135925080831115611cce57600080fd5b5050611cdc8a828b01611b70565b91505092959891949750929550565b600060208284031215611cfd57600080fd5b5035919050565b600181811c90821680611d1857607f821691505b60208210811415611d3957634e487b7160e01b600052602260045260246000fd5b50919050565b634e487b7160e01b600052601160045260246000fd5b60008219821115611d6857611d68611d3f565b500190565b600181815b80851115611da8578160001904821115611d8e57611d8e611d3f565b80851615611d9b57918102915b93841c9390800290611d72565b509250929050565b600082611dbf57506001610531565b81611dcc57506000610531565b8160018114611de25760028114611dec57611e08565b6001915050610531565b60ff841115611dfd57611dfd611d3f565b50506001821b610531565b5060208310610133831016604e8410600b8410161715611e2b575081810a610531565b611e358383611d6d565b8060001904821115611e4957611e49611d3f565b029392505050565b6000610ea160ff841683611db0565b6000816000190483118215151615611e7a57611e7a611d3f565b500290565b600082821015611e9157611e91611d3f565b500390565b634e487b7160e01b600052603260045260246000fd5b600060ff821660ff811415611ec357611ec3611d3f565b60010192915050565b60006001600160401b0380831681811415611ee957611ee9611d3f565b6001019392505050565b600082611f1057634e487b7160e01b600052601260045260246000fd5b500490565b6020808252602b908201527f496e697469616c697a61626c653a20636f6e7472616374206973206e6f74206960408201526a6e697469616c697a696e6760a81b60608201526080019056fea264697066735822122051301ad0327c5b83691d1c40a2ff4639438bc8ed305029cbc641b897ad9dfc9b64736f6c634300080c0033",
					"opcodes": "PUSH1 0x80 PUSH1 0x40 MSTORE CALLVALUE DUP1 ISZERO PUSH2 0x10 JUMPI PUSH1 0x0 DUP1 REVERT JUMPDEST POP PUSH2 0x1F96 DUP1 PUSH2 0x20 PUSH1 0x0 CODECOPY PUSH1 0x0 RETURN INVALID PUSH1 0x80 PUSH1 0x40 MSTORE PUSH1 0x4 CALLDATASIZE LT PUSH2 0x144 JUMPI PUSH1 0x0 CALLDATALOAD PUSH1 0xE0 SHR DUP1 PUSH4 0x70A08231 GT PUSH2 0xB6 JUMPI DUP1 PUSH4 0xA9059CBB GT PUSH2 0x6F JUMPI DUP1 PUSH4 0xA9059CBB EQ PUSH2 0x3BD JUMPI DUP1 PUSH4 0xB722D0A5 EQ PUSH2 0x3DD JUMPI DUP1 PUSH4 0xDD62ED3E EQ PUSH2 0x3FB JUMPI DUP1 PUSH4 0xE4C97E6A EQ PUSH2 0x41B JUMPI DUP1 PUSH4 0xF2FDE38B EQ PUSH2 0x43B JUMPI DUP1 PUSH4 0xF9342285 EQ PUSH2 0x45B JUMPI PUSH1 0x0 DUP1 REVERT JUMPDEST DUP1 PUSH4 0x70A08231 EQ PUSH2 0x2EB JUMPI DUP1 PUSH4 0x715018A6 EQ PUSH2 0x321 JUMPI DUP1 PUSH4 0x8DA5CB5B EQ PUSH2 0x336 JUMPI DUP1 PUSH4 0x95D89B41 EQ PUSH2 0x368 JUMPI DUP1 PUSH4 0xA3772662 EQ PUSH2 0x37D JUMPI DUP1 PUSH4 0xA457C2D7 EQ PUSH2 0x39D JUMPI PUSH1 0x0 DUP1 REVERT JUMPDEST DUP1 PUSH4 0x23B872DD GT PUSH2 0x108 JUMPI DUP1 PUSH4 0x23B872DD EQ PUSH2 0x230 JUMPI DUP1 PUSH4 0x313CE567 EQ PUSH2 0x250 JUMPI DUP1 PUSH4 0x355274EA EQ PUSH2 0x272 JUMPI DUP1 PUSH4 0x39509351 EQ PUSH2 0x287 JUMPI DUP1 PUSH4 0x46F0975A EQ PUSH2 0x2A7 JUMPI DUP1 PUSH4 0x55D13009 EQ PUSH2 0x2C9 JUMPI PUSH1 0x0 DUP1 REVERT JUMPDEST DUP1 PUSH4 0x6FDDE03 EQ PUSH2 0x150 JUMPI DUP1 PUSH4 0x7C351DD EQ PUSH2 0x17B JUMPI DUP1 PUSH4 0x95EA7B3 EQ PUSH2 0x1C4 JUMPI DUP1 PUSH4 0x18160DDD EQ PUSH2 0x1E4 JUMPI DUP1 PUSH4 0x1E0D4CE9 EQ PUSH2 0x203 JUMPI PUSH1 0x0 DUP1 REVERT JUMPDEST CALLDATASIZE PUSH2 0x14B JUMPI STOP JUMPDEST PUSH1 0x0 DUP1 REVERT JUMPDEST CALLVALUE DUP1 ISZERO PUSH2 0x15C JUMPI PUSH1 0x0 DUP1 REVERT JUMPDEST POP PUSH2 0x165 PUSH2 0x48B JUMP JUMPDEST PUSH1 0x40 MLOAD PUSH2 0x172 SWAP2 SWAP1 PUSH2 0x17C5 JUMP JUMPDEST PUSH1 0x40 MLOAD DUP1 SWAP2 SUB SWAP1 RETURN JUMPDEST CALLVALUE DUP1 ISZERO PUSH2 0x187 JUMPI PUSH1 0x0 DUP1 REVERT JUMPDEST POP PUSH2 0x1B4 PUSH2 0x196 CALLDATASIZE PUSH1 0x4 PUSH2 0x182F JUMP JUMPDEST PUSH1 0x1 PUSH1 0x1 PUSH1 0xA0 SHL SUB AND PUSH1 0x0 SWAP1 DUP2 MSTORE PUSH1 0xD3 PUSH1 0x20 MSTORE PUSH1 0x40 SWAP1 KECCAK256 SLOAD PUSH1 0xFF AND SWAP1 JUMP JUMPDEST PUSH1 0x40 MLOAD SWAP1 ISZERO ISZERO DUP2 MSTORE PUSH1 0x20 ADD PUSH2 0x172 JUMP JUMPDEST CALLVALUE DUP1 ISZERO PUSH2 0x1D0 JUMPI PUSH1 0x0 DUP1 REVERT JUMPDEST POP PUSH2 0x1B4 PUSH2 0x1DF CALLDATASIZE PUSH1 0x4 PUSH2 0x184C JUMP JUMPDEST PUSH2 0x51D JUMP JUMPDEST CALLVALUE DUP1 ISZERO PUSH2 0x1F0 JUMPI PUSH1 0x0 DUP1 REVERT JUMPDEST POP PUSH1 0x35 SLOAD JUMPDEST PUSH1 0x40 MLOAD SWAP1 DUP2 MSTORE PUSH1 0x20 ADD PUSH2 0x172 JUMP JUMPDEST CALLVALUE DUP1 ISZERO PUSH2 0x20F JUMPI PUSH1 0x0 DUP1 REVERT JUMPDEST POP PUSH2 0x1F5 PUSH2 0x21E CALLDATASIZE PUSH1 0x4 PUSH2 0x182F JUMP JUMPDEST PUSH1 0xD5 PUSH1 0x20 MSTORE PUSH1 0x0 SWAP1 DUP2 MSTORE PUSH1 0x40 SWAP1 KECCAK256 SLOAD DUP2 JUMP JUMPDEST CALLVALUE DUP1 ISZERO PUSH2 0x23C JUMPI PUSH1 0x0 DUP1 REVERT JUMPDEST POP PUSH2 0x1B4 PUSH2 0x24B CALLDATASIZE PUSH1 0x4 PUSH2 0x1878 JUMP JUMPDEST PUSH2 0x537 JUMP JUMPDEST CALLVALUE DUP1 ISZERO PUSH2 0x25C JUMPI PUSH1 0x0 DUP1 REVERT JUMPDEST POP PUSH1 0xCC SLOAD PUSH1 0x40 MLOAD PUSH1 0xFF SWAP1 SWAP2 AND DUP2 MSTORE PUSH1 0x20 ADD PUSH2 0x172 JUMP JUMPDEST CALLVALUE DUP1 ISZERO PUSH2 0x27E JUMPI PUSH1 0x0 DUP1 REVERT JUMPDEST POP PUSH1 0x65 SLOAD PUSH2 0x1F5 JUMP JUMPDEST CALLVALUE DUP1 ISZERO PUSH2 0x293 JUMPI PUSH1 0x0 DUP1 REVERT JUMPDEST POP PUSH2 0x1B4 PUSH2 0x2A2 CALLDATASIZE PUSH1 0x4 PUSH2 0x184C JUMP JUMPDEST PUSH2 0x566 JUMP JUMPDEST CALLVALUE DUP1 ISZERO PUSH2 0x2B3 JUMPI PUSH1 0x0 DUP1 REVERT JUMPDEST POP PUSH2 0x2BC PUSH2 0x588 JUMP JUMPDEST PUSH1 0x40 MLOAD PUSH2 0x172 SWAP2 SWAP1 PUSH2 0x18B9 JUMP JUMPDEST CALLVALUE DUP1 ISZERO PUSH2 0x2D5 JUMPI PUSH1 0x0 DUP1 REVERT JUMPDEST POP PUSH2 0x2E9 PUSH2 0x2E4 CALLDATASIZE PUSH1 0x4 PUSH2 0x19D1 JUMP JUMPDEST PUSH2 0x5E9 JUMP JUMPDEST STOP JUMPDEST CALLVALUE DUP1 ISZERO PUSH2 0x2F7 JUMPI PUSH1 0x0 DUP1 REVERT JUMPDEST POP PUSH2 0x1F5 PUSH2 0x306 CALLDATASIZE PUSH1 0x4 PUSH2 0x182F JUMP JUMPDEST PUSH1 0x1 PUSH1 0x1 PUSH1 0xA0 SHL SUB AND PUSH1 0x0 SWAP1 DUP2 MSTORE PUSH1 0x33 PUSH1 0x20 MSTORE PUSH1 0x40 SWAP1 KECCAK256 SLOAD SWAP1 JUMP JUMPDEST CALLVALUE DUP1 ISZERO PUSH2 0x32D JUMPI PUSH1 0x0 DUP1 REVERT JUMPDEST POP PUSH2 0x2E9 PUSH2 0x79F JUMP JUMPDEST CALLVALUE DUP1 ISZERO PUSH2 0x342 JUMPI PUSH1 0x0 DUP1 REVERT JUMPDEST POP PUSH1 0x98 SLOAD PUSH1 0x1 PUSH1 0x1 PUSH1 0xA0 SHL SUB AND JUMPDEST PUSH1 0x40 MLOAD PUSH1 0x1 PUSH1 0x1 PUSH1 0xA0 SHL SUB SWAP1 SWAP2 AND DUP2 MSTORE PUSH1 0x20 ADD PUSH2 0x172 JUMP JUMPDEST CALLVALUE DUP1 ISZERO PUSH2 0x374 JUMPI PUSH1 0x0 DUP1 REVERT JUMPDEST POP PUSH2 0x165 PUSH2 0x7B3 JUMP JUMPDEST CALLVALUE DUP1 ISZERO PUSH2 0x389 JUMPI PUSH1 0x0 DUP1 REVERT JUMPDEST POP PUSH2 0x2E9 PUSH2 0x398 CALLDATASIZE PUSH1 0x4 PUSH2 0x1A99 JUMP JUMPDEST PUSH2 0x7C2 JUMP JUMPDEST CALLVALUE DUP1 ISZERO PUSH2 0x3A9 JUMPI PUSH1 0x0 DUP1 REVERT JUMPDEST POP PUSH2 0x1B4 PUSH2 0x3B8 CALLDATASIZE PUSH1 0x4 PUSH2 0x184C JUMP JUMPDEST PUSH2 0x861 JUMP JUMPDEST CALLVALUE DUP1 ISZERO PUSH2 0x3C9 JUMPI PUSH1 0x0 DUP1 REVERT JUMPDEST POP PUSH2 0x1B4 PUSH2 0x3D8 CALLDATASIZE PUSH1 0x4 PUSH2 0x184C JUMP JUMPDEST PUSH2 0x8E7 JUMP JUMPDEST CALLVALUE DUP1 ISZERO PUSH2 0x3E9 JUMPI PUSH1 0x0 DUP1 REVERT JUMPDEST POP PUSH1 0xD1 SLOAD PUSH1 0x1 PUSH1 0x1 PUSH1 0xA0 SHL SUB AND PUSH2 0x350 JUMP JUMPDEST CALLVALUE DUP1 ISZERO PUSH2 0x407 JUMPI PUSH1 0x0 DUP1 REVERT JUMPDEST POP PUSH2 0x1F5 PUSH2 0x416 CALLDATASIZE PUSH1 0x4 PUSH2 0x1B37 JUMP JUMPDEST PUSH2 0x960 JUMP JUMPDEST CALLVALUE DUP1 ISZERO PUSH2 0x427 JUMPI PUSH1 0x0 DUP1 REVERT JUMPDEST POP PUSH2 0x2E9 PUSH2 0x436 CALLDATASIZE PUSH1 0x4 PUSH2 0x1BD6 JUMP JUMPDEST PUSH2 0x98B JUMP JUMPDEST CALLVALUE DUP1 ISZERO PUSH2 0x447 JUMPI PUSH1 0x0 DUP1 REVERT JUMPDEST POP PUSH2 0x2E9 PUSH2 0x456 CALLDATASIZE PUSH1 0x4 PUSH2 0x182F JUMP JUMPDEST PUSH2 0xCE9 JUMP JUMPDEST CALLVALUE DUP1 ISZERO PUSH2 0x467 JUMPI PUSH1 0x0 DUP1 REVERT JUMPDEST POP PUSH2 0x1B4 PUSH2 0x476 CALLDATASIZE PUSH1 0x4 PUSH2 0x1CEB JUMP JUMPDEST PUSH1 0xD4 PUSH1 0x20 MSTORE PUSH1 0x0 SWAP1 DUP2 MSTORE PUSH1 0x40 SWAP1 KECCAK256 SLOAD PUSH1 0xFF AND DUP2 JUMP JUMPDEST PUSH1 0x60 PUSH1 0x36 DUP1 SLOAD PUSH2 0x49A SWAP1 PUSH2 0x1D04 JUMP JUMPDEST DUP1 PUSH1 0x1F ADD PUSH1 0x20 DUP1 SWAP2 DIV MUL PUSH1 0x20 ADD PUSH1 0x40 MLOAD SWAP1 DUP2 ADD PUSH1 0x40 MSTORE DUP1 SWAP3 SWAP2 SWAP1 DUP2 DUP2 MSTORE PUSH1 0x20 ADD DUP3 DUP1 SLOAD PUSH2 0x4C6 SWAP1 PUSH2 0x1D04 JUMP JUMPDEST DUP1 ISZERO PUSH2 0x513 JUMPI DUP1 PUSH1 0x1F LT PUSH2 0x4E8 JUMPI PUSH2 0x100 DUP1 DUP4 SLOAD DIV MUL DUP4 MSTORE SWAP2 PUSH1 0x20 ADD SWAP2 PUSH2 0x513 JUMP JUMPDEST DUP3 ADD SWAP2 SWAP1 PUSH1 0x0 MSTORE PUSH1 0x20 PUSH1 0x0 KECCAK256 SWAP1 JUMPDEST DUP2 SLOAD DUP2 MSTORE SWAP1 PUSH1 0x1 ADD SWAP1 PUSH1 0x20 ADD DUP1 DUP4 GT PUSH2 0x4F6 JUMPI DUP3 SWAP1 SUB PUSH1 0x1F AND DUP3 ADD SWAP2 JUMPDEST POP POP POP POP POP SWAP1 POP SWAP1 JUMP JUMPDEST PUSH1 0x0 CALLER PUSH2 0x52B DUP2 DUP6 DUP6 PUSH2 0xD5F JUMP JUMPDEST PUSH1 0x1 SWAP2 POP POP JUMPDEST SWAP3 SWAP2 POP POP JUMP JUMPDEST PUSH1 0x0 DUP1 PUSH2 0x543 DUP4 PUSH2 0xE84 JUMP JUMPDEST SWAP1 POP PUSH2 0x54F DUP6 DUP3 PUSH2 0xEA8 JUMP JUMPDEST PUSH2 0x55A DUP6 DUP6 DUP6 PUSH2 0xF07 JUMP JUMPDEST POP PUSH1 0x1 SWAP6 SWAP5 POP POP POP POP POP JUMP JUMPDEST PUSH1 0x0 CALLER PUSH2 0x52B DUP2 DUP6 DUP6 PUSH2 0x579 DUP4 DUP4 PUSH2 0x960 JUMP JUMPDEST PUSH2 0x583 SWAP2 SWAP1 PUSH2 0x1D55 JUMP JUMPDEST PUSH2 0xD5F JUMP JUMPDEST PUSH1 0x60 PUSH1 0xD2 DUP1 SLOAD DUP1 PUSH1 0x20 MUL PUSH1 0x20 ADD PUSH1 0x40 MLOAD SWAP1 DUP2 ADD PUSH1 0x40 MSTORE DUP1 SWAP3 SWAP2 SWAP1 DUP2 DUP2 MSTORE PUSH1 0x20 ADD DUP3 DUP1 SLOAD DUP1 ISZERO PUSH2 0x513 JUMPI PUSH1 0x20 MUL DUP3 ADD SWAP2 SWAP1 PUSH1 0x0 MSTORE PUSH1 0x20 PUSH1 0x0 KECCAK256 SWAP1 JUMPDEST DUP2 SLOAD PUSH1 0x1 PUSH1 0x1 PUSH1 0xA0 SHL SUB AND DUP2 MSTORE PUSH1 0x1 SWAP1 SWAP2 ADD SWAP1 PUSH1 0x20 ADD DUP1 DUP4 GT PUSH2 0x5C2 JUMPI POP POP POP POP POP SWAP1 POP SWAP1 JUMP JUMPDEST PUSH1 0x0 SLOAD PUSH2 0x100 SWAP1 DIV PUSH1 0xFF AND ISZERO DUP1 DUP1 ISZERO PUSH2 0x609 JUMPI POP PUSH1 0x0 SLOAD PUSH1 0x1 PUSH1 0xFF SWAP1 SWAP2 AND LT JUMPDEST DUP1 PUSH2 0x623 JUMPI POP ADDRESS EXTCODESIZE ISZERO DUP1 ISZERO PUSH2 0x623 JUMPI POP PUSH1 0x0 SLOAD PUSH1 0xFF AND PUSH1 0x1 EQ JUMPDEST PUSH2 0x68B JUMPI PUSH1 0x40 MLOAD PUSH3 0x461BCD PUSH1 0xE5 SHL DUP2 MSTORE PUSH1 0x20 PUSH1 0x4 DUP3 ADD MSTORE PUSH1 0x2E PUSH1 0x24 DUP3 ADD MSTORE PUSH32 0x496E697469616C697A61626C653A20636F6E747261637420697320616C726561 PUSH1 0x44 DUP3 ADD MSTORE PUSH14 0x191E481A5B9A5D1A585B1A5E9959 PUSH1 0x92 SHL PUSH1 0x64 DUP3 ADD MSTORE PUSH1 0x84 ADD JUMPDEST PUSH1 0x40 MLOAD DUP1 SWAP2 SUB SWAP1 REVERT JUMPDEST PUSH1 0x0 DUP1 SLOAD PUSH1 0xFF NOT AND PUSH1 0x1 OR SWAP1 SSTORE DUP1 ISZERO PUSH2 0x6AE JUMPI PUSH1 0x0 DUP1 SLOAD PUSH2 0xFF00 NOT AND PUSH2 0x100 OR SWAP1 SSTORE JUMPDEST PUSH2 0x6B6 PUSH2 0xF20 JUMP JUMPDEST PUSH2 0x6C0 DUP9 DUP9 PUSH2 0xF4F JUMP JUMPDEST PUSH2 0x6DD PUSH2 0x6CE DUP8 PUSH1 0xA PUSH2 0x1E51 JUMP JUMPDEST PUSH2 0x6D8 SWAP1 DUP8 PUSH2 0x1E60 JUMP JUMPDEST PUSH2 0xF84 JUMP JUMPDEST DUP8 MLOAD PUSH2 0x6F0 SWAP1 PUSH1 0xCA SWAP1 PUSH1 0x20 DUP12 ADD SWAP1 PUSH2 0x16B9 JUMP JUMPDEST POP DUP7 MLOAD PUSH2 0x704 SWAP1 PUSH1 0xCB SWAP1 PUSH1 0x20 DUP11 ADD SWAP1 PUSH2 0x16B9 JUMP JUMPDEST POP PUSH1 0xCC DUP1 SLOAD PUSH1 0xFF NOT AND PUSH1 0xFF DUP9 AND OR SWAP1 SSTORE PUSH8 0x16345785D8A0000 PUSH1 0xCD SSTORE PUSH1 0xCE DUP6 SWAP1 SSTORE PUSH1 0xCF DUP4 SWAP1 SSTORE PUSH1 0xD1 DUP1 SLOAD PUSH1 0x1 PUSH1 0x1 PUSH1 0xA0 SHL SUB NOT AND PUSH1 0x1 PUSH1 0x1 PUSH1 0xA0 SHL SUB DUP5 AND OR SWAP1 SSTORE PUSH2 0x74F DUP3 DUP6 PUSH2 0xFB4 JUMP JUMPDEST DUP1 ISZERO PUSH2 0x795 JUMPI PUSH1 0x0 DUP1 SLOAD PUSH2 0xFF00 NOT AND SWAP1 SSTORE PUSH1 0x40 MLOAD PUSH1 0x1 DUP2 MSTORE PUSH32 0x7F26B83FF96E1F2B6A682F133852F6798A09C465DA95921460CEFB3847402498 SWAP1 PUSH1 0x20 ADD PUSH1 0x40 MLOAD DUP1 SWAP2 SUB SWAP1 LOG1 JUMPDEST POP POP POP POP POP POP POP POP JUMP JUMPDEST PUSH2 0x7A7 PUSH2 0x1023 JUMP JUMPDEST PUSH2 0x7B1 PUSH1 0x0 PUSH2 0x107D JUMP JUMPDEST JUMP JUMPDEST PUSH1 0x60 PUSH1 0x37 DUP1 SLOAD PUSH2 0x49A SWAP1 PUSH2 0x1D04 JUMP JUMPDEST PUSH2 0x7CA PUSH2 0x1023 JUMP JUMPDEST PUSH2 0x831 PUSH1 0xD2 DUP1 SLOAD DUP1 PUSH1 0x20 MUL PUSH1 0x20 ADD PUSH1 0x40 MLOAD SWAP1 DUP2 ADD PUSH1 0x40 MSTORE DUP1 SWAP3 SWAP2 SWAP1 DUP2 DUP2 MSTORE PUSH1 0x20 ADD DUP3 DUP1 SLOAD DUP1 ISZERO PUSH2 0x823 JUMPI PUSH1 0x20 MUL DUP3 ADD SWAP2 SWAP1 PUSH1 0x0 MSTORE PUSH1 0x20 PUSH1 0x0 KECCAK256 SWAP1 JUMPDEST DUP2 SLOAD PUSH1 0x1 PUSH1 0x1 PUSH1 0xA0 SHL SUB AND DUP2 MSTORE PUSH1 0x1 SWAP1 SWAP2 ADD SWAP1 PUSH1 0x20 ADD DUP1 DUP4 GT PUSH2 0x805 JUMPI JUMPDEST POP POP POP POP POP PUSH1 0x0 PUSH1 0xD3 PUSH2 0x10CF JUMP JUMPDEST PUSH2 0x83D PUSH1 0xD2 PUSH1 0x0 PUSH2 0x173D JUMP JUMPDEST DUP1 MLOAD PUSH2 0x850 SWAP1 PUSH1 0xD2 SWAP1 PUSH1 0x20 DUP5 ADD SWAP1 PUSH2 0x175B JUMP JUMPDEST POP PUSH2 0x85E DUP2 PUSH1 0x1 PUSH1 0xD3 PUSH2 0x10CF JUMP JUMPDEST POP JUMP JUMPDEST PUSH1 0x0 CALLER DUP2 PUSH2 0x86F DUP3 DUP7 PUSH2 0x960 JUMP JUMPDEST SWAP1 POP DUP4 DUP2 LT ISZERO PUSH2 0x8CF JUMPI PUSH1 0x40 MLOAD PUSH3 0x461BCD PUSH1 0xE5 SHL DUP2 MSTORE PUSH1 0x20 PUSH1 0x4 DUP3 ADD MSTORE PUSH1 0x25 PUSH1 0x24 DUP3 ADD MSTORE PUSH32 0x45524332303A2064656372656173656420616C6C6F77616E63652062656C6F77 PUSH1 0x44 DUP3 ADD MSTORE PUSH5 0x207A65726F PUSH1 0xD8 SHL PUSH1 0x64 DUP3 ADD MSTORE PUSH1 0x84 ADD PUSH2 0x682 JUMP JUMPDEST PUSH2 0x8DC DUP3 DUP7 DUP7 DUP5 SUB PUSH2 0xD5F JUMP JUMPDEST POP PUSH1 0x1 SWAP5 SWAP4 POP POP POP POP JUMP JUMPDEST PUSH1 0x0 PUSH2 0x8FB PUSH1 0x98 SLOAD PUSH1 0x1 PUSH1 0x1 PUSH1 0xA0 SHL SUB AND SWAP1 JUMP JUMPDEST PUSH1 0x1 PUSH1 0x1 PUSH1 0xA0 SHL SUB AND CALLER PUSH1 0x1 PUSH1 0x1 PUSH1 0xA0 SHL SUB AND EQ ISZERO PUSH2 0x924 JUMPI PUSH2 0x91E DUP4 DUP4 PUSH2 0x114D JUMP JUMPDEST POP PUSH2 0x957 JUMP JUMPDEST PUSH1 0x0 PUSH2 0x92F DUP4 PUSH2 0xE84 JUMP JUMPDEST SWAP1 POP PUSH2 0x93B CALLER DUP3 PUSH2 0xEA8 JUMP JUMPDEST PUSH1 0x0 PUSH2 0x947 DUP3 DUP6 PUSH2 0x1E7F JUMP JUMPDEST SWAP1 POP PUSH2 0x953 DUP6 DUP3 PUSH2 0x114D JUMP JUMPDEST POP POP POP JUMPDEST POP PUSH1 0x1 SWAP3 SWAP2 POP POP JUMP JUMPDEST PUSH1 0x1 PUSH1 0x1 PUSH1 0xA0 SHL SUB SWAP2 DUP3 AND PUSH1 0x0 SWAP1 DUP2 MSTORE PUSH1 0x34 PUSH1 0x20 SWAP1 DUP2 MSTORE PUSH1 0x40 DUP1 DUP4 KECCAK256 SWAP4 SWAP1 SWAP5 AND DUP3 MSTORE SWAP2 SWAP1 SWAP2 MSTORE KECCAK256 SLOAD SWAP1 JUMP JUMPDEST TIMESTAMP DUP5 LT ISZERO PUSH2 0x9CE JUMPI PUSH1 0x40 MLOAD PUSH3 0x461BCD PUSH1 0xE5 SHL DUP2 MSTORE PUSH1 0x20 PUSH1 0x4 DUP3 ADD MSTORE PUSH1 0x10 PUSH1 0x24 DUP3 ADD MSTORE PUSH16 0x4578706972656420646561646C696E65 PUSH1 0x80 SHL PUSH1 0x44 DUP3 ADD MSTORE PUSH1 0x64 ADD PUSH2 0x682 JUMP JUMPDEST PUSH1 0x0 DUP7 DUP2 MSTORE PUSH1 0xD4 PUSH1 0x20 MSTORE PUSH1 0x40 SWAP1 KECCAK256 SLOAD PUSH1 0xFF AND ISZERO PUSH2 0xA20 JUMPI PUSH1 0x40 MLOAD PUSH3 0x461BCD PUSH1 0xE5 SHL DUP2 MSTORE PUSH1 0x20 PUSH1 0x4 DUP3 ADD MSTORE PUSH1 0x10 PUSH1 0x24 DUP3 ADD MSTORE PUSH16 0x556E6971756520696420657869737473 PUSH1 0x80 SHL PUSH1 0x44 DUP3 ADD MSTORE PUSH1 0x64 ADD PUSH2 0x682 JUMP JUMPDEST CALLER PUSH1 0x0 PUSH2 0xA35 PUSH1 0x98 SLOAD PUSH1 0x1 PUSH1 0x1 PUSH1 0xA0 SHL SUB AND SWAP1 JUMP JUMPDEST PUSH1 0x40 DUP1 MLOAD PUSH1 0x1 PUSH1 0x1 PUSH1 0xA0 SHL SUB DUP1 DUP5 AND PUSH1 0x20 DUP4 ADD MSTORE DUP1 DUP7 AND SWAP3 DUP3 ADD SWAP3 SWAP1 SWAP3 MSTORE SWAP1 DUP12 AND PUSH1 0x60 DUP3 ADD MSTORE PUSH1 0x80 DUP2 ADD DUP10 SWAP1 MSTORE PUSH1 0xA0 DUP2 ADD DUP11 SWAP1 MSTORE PUSH1 0xC0 DUP2 ADD DUP9 SWAP1 MSTORE SWAP1 SWAP2 POP PUSH1 0x0 SWAP1 PUSH1 0xE0 ADD PUSH1 0x40 MLOAD PUSH1 0x20 DUP2 DUP4 SUB SUB DUP2 MSTORE SWAP1 PUSH1 0x40 MSTORE DUP1 MLOAD SWAP1 PUSH1 0x20 ADD KECCAK256 SWAP1 POP PUSH1 0x0 DUP1 PUSH1 0x0 JUMPDEST DUP9 MLOAD DUP2 PUSH1 0x1 PUSH1 0x1 PUSH1 0x40 SHL SUB AND LT ISZERO PUSH2 0xBDB JUMPI PUSH1 0x0 PUSH1 0x1 DUP6 DUP12 DUP5 PUSH1 0x1 PUSH1 0x1 PUSH1 0x40 SHL SUB AND DUP2 MLOAD DUP2 LT PUSH2 0xAC9 JUMPI PUSH2 0xAC9 PUSH2 0x1E96 JUMP JUMPDEST PUSH1 0x20 MUL PUSH1 0x20 ADD ADD MLOAD DUP12 DUP6 PUSH1 0x1 PUSH1 0x1 PUSH1 0x40 SHL SUB AND DUP2 MLOAD DUP2 LT PUSH2 0xAEC JUMPI PUSH2 0xAEC PUSH2 0x1E96 JUMP JUMPDEST PUSH1 0x20 MUL PUSH1 0x20 ADD ADD MLOAD DUP12 DUP7 PUSH1 0x1 PUSH1 0x1 PUSH1 0x40 SHL SUB AND DUP2 MLOAD DUP2 LT PUSH2 0xB0F JUMPI PUSH2 0xB0F PUSH2 0x1E96 JUMP JUMPDEST PUSH1 0x20 MUL PUSH1 0x20 ADD ADD MLOAD PUSH1 0x40 MLOAD PUSH1 0x0 DUP2 MSTORE PUSH1 0x20 ADD PUSH1 0x40 MSTORE PUSH1 0x40 MLOAD PUSH2 0xB4D SWAP5 SWAP4 SWAP3 SWAP2 SWAP1 SWAP4 DUP5 MSTORE PUSH1 0xFF SWAP3 SWAP1 SWAP3 AND PUSH1 0x20 DUP5 ADD MSTORE PUSH1 0x40 DUP4 ADD MSTORE PUSH1 0x60 DUP3 ADD MSTORE PUSH1 0x80 ADD SWAP1 JUMP JUMPDEST PUSH1 0x20 PUSH1 0x40 MLOAD PUSH1 0x20 DUP2 SUB SWAP1 DUP1 DUP5 SUB SWAP1 DUP6 GAS STATICCALL ISZERO DUP1 ISZERO PUSH2 0xB6F JUMPI RETURNDATASIZE PUSH1 0x0 DUP1 RETURNDATACOPY RETURNDATASIZE PUSH1 0x0 REVERT JUMPDEST POP POP POP PUSH1 0x20 PUSH1 0x40 MLOAD SUB MLOAD SWAP1 POP DUP4 PUSH1 0x1 PUSH1 0x1 PUSH1 0xA0 SHL SUB AND DUP2 PUSH1 0x1 PUSH1 0x1 PUSH1 0xA0 SHL SUB AND GT DUP1 ISZERO PUSH2 0xBB4 JUMPI POP PUSH1 0x1 PUSH1 0x1 PUSH1 0xA0 SHL SUB DUP2 AND PUSH1 0x0 SWAP1 DUP2 MSTORE PUSH1 0xD3 PUSH1 0x20 MSTORE PUSH1 0x40 SWAP1 KECCAK256 SLOAD PUSH1 0xFF AND JUMPDEST ISZERO PUSH2 0xBC7 JUMPI DUP3 PUSH2 0xBC3 DUP2 PUSH2 0x1EAC JUMP JUMPDEST SWAP4 POP POP JUMPDEST SWAP3 POP DUP1 PUSH2 0xBD3 DUP2 PUSH2 0x1ECC JUMP JUMPDEST SWAP2 POP POP PUSH2 0xA97 JUMP JUMPDEST POP DUP1 PUSH1 0xFF AND PUSH1 0x3 EQ PUSH2 0xC21 JUMPI PUSH1 0x40 MLOAD PUSH3 0x461BCD PUSH1 0xE5 SHL DUP2 MSTORE PUSH1 0x20 PUSH1 0x4 DUP3 ADD MSTORE PUSH1 0xF PUSH1 0x24 DUP3 ADD MSTORE PUSH15 0x496E76616C6964207369676E657273 PUSH1 0x88 SHL PUSH1 0x44 DUP3 ADD MSTORE PUSH1 0x64 ADD PUSH2 0x682 JUMP JUMPDEST PUSH1 0x0 DUP12 DUP2 MSTORE PUSH1 0xD4 PUSH1 0x20 MSTORE PUSH1 0x40 DUP1 DUP3 KECCAK256 DUP1 SLOAD PUSH1 0xFF NOT AND PUSH1 0x1 OR SWAP1 SSTORE PUSH1 0xCD SLOAD SWAP1 MLOAD PUSH1 0x1 PUSH1 0x1 PUSH1 0xA0 SHL SUB DUP16 AND SWAP2 SWAP1 DUP4 DUP2 DUP2 DUP2 DUP6 DUP8 GAS CALL SWAP3 POP POP POP RETURNDATASIZE DUP1 PUSH1 0x0 DUP2 EQ PUSH2 0xC84 JUMPI PUSH1 0x40 MLOAD SWAP2 POP PUSH1 0x1F NOT PUSH1 0x3F RETURNDATASIZE ADD AND DUP3 ADD PUSH1 0x40 MSTORE RETURNDATASIZE DUP3 MSTORE RETURNDATASIZE PUSH1 0x0 PUSH1 0x20 DUP5 ADD RETURNDATACOPY PUSH2 0xC89 JUMP JUMPDEST PUSH1 0x60 SWAP2 POP JUMPDEST POP POP SWAP1 POP DUP1 PUSH2 0xCD0 JUMPI PUSH1 0x40 MLOAD PUSH3 0x461BCD PUSH1 0xE5 SHL DUP2 MSTORE PUSH1 0x20 PUSH1 0x4 DUP3 ADD MSTORE PUSH1 0x13 PUSH1 0x24 DUP3 ADD MSTORE PUSH19 0x8CC2D2D8CAC840E8DE40E6CADCC8409ACAC6D PUSH1 0x6B SHL PUSH1 0x44 DUP3 ADD MSTORE PUSH1 0x64 ADD PUSH2 0x682 JUMP JUMPDEST PUSH2 0xCDA DUP14 DUP13 PUSH2 0xFB4 JUMP JUMPDEST POP POP POP POP POP POP POP POP POP POP POP POP POP JUMP JUMPDEST PUSH2 0xCF1 PUSH2 0x1023 JUMP JUMPDEST PUSH1 0x1 PUSH1 0x1 PUSH1 0xA0 SHL SUB DUP2 AND PUSH2 0xD56 JUMPI PUSH1 0x40 MLOAD PUSH3 0x461BCD PUSH1 0xE5 SHL DUP2 MSTORE PUSH1 0x20 PUSH1 0x4 DUP3 ADD MSTORE PUSH1 0x26 PUSH1 0x24 DUP3 ADD MSTORE PUSH32 0x4F776E61626C653A206E6577206F776E657220697320746865207A65726F2061 PUSH1 0x44 DUP3 ADD MSTORE PUSH6 0x646472657373 PUSH1 0xD0 SHL PUSH1 0x64 DUP3 ADD MSTORE PUSH1 0x84 ADD PUSH2 0x682 JUMP JUMPDEST PUSH2 0x85E DUP2 PUSH2 0x107D JUMP JUMPDEST PUSH1 0x1 PUSH1 0x1 PUSH1 0xA0 SHL SUB DUP4 AND PUSH2 0xDC1 JUMPI PUSH1 0x40 MLOAD PUSH3 0x461BCD PUSH1 0xE5 SHL DUP2 MSTORE PUSH1 0x20 PUSH1 0x4 DUP3 ADD MSTORE PUSH1 0x24 DUP1 DUP3 ADD MSTORE PUSH32 0x45524332303A20617070726F76652066726F6D20746865207A65726F20616464 PUSH1 0x44 DUP3 ADD MSTORE PUSH4 0x72657373 PUSH1 0xE0 SHL PUSH1 0x64 DUP3 ADD MSTORE PUSH1 0x84 ADD PUSH2 0x682 JUMP JUMPDEST PUSH1 0x1 PUSH1 0x1 PUSH1 0xA0 SHL SUB DUP3 AND PUSH2 0xE22 JUMPI PUSH1 0x40 MLOAD PUSH3 0x461BCD PUSH1 0xE5 SHL DUP2 MSTORE PUSH1 0x20 PUSH1 0x4 DUP3 ADD MSTORE PUSH1 0x22 PUSH1 0x24 DUP3 ADD MSTORE PUSH32 0x45524332303A20617070726F766520746F20746865207A65726F206164647265 PUSH1 0x44 DUP3 ADD MSTORE PUSH2 0x7373 PUSH1 0xF0 SHL PUSH1 0x64 DUP3 ADD MSTORE PUSH1 0x84 ADD PUSH2 0x682 JUMP JUMPDEST PUSH1 0x1 PUSH1 0x1 PUSH1 0xA0 SHL SUB DUP4 DUP2 AND PUSH1 0x0 DUP2 DUP2 MSTORE PUSH1 0x34 PUSH1 0x20 SWAP1 DUP2 MSTORE PUSH1 0x40 DUP1 DUP4 KECCAK256 SWAP5 DUP8 AND DUP1 DUP5 MSTORE SWAP5 DUP3 MSTORE SWAP2 DUP3 SWAP1 KECCAK256 DUP6 SWAP1 SSTORE SWAP1 MLOAD DUP5 DUP2 MSTORE PUSH32 0x8C5BE1E5EBEC7D5BD14F71427D1E84F3DD0314C0F7B2291E5B200AC8C7C3B925 SWAP2 ADD JUMPDEST PUSH1 0x40 MLOAD DUP1 SWAP2 SUB SWAP1 LOG3 POP POP POP JUMP JUMPDEST PUSH1 0x0 DUP1 PUSH1 0x64 PUSH1 0xCF SLOAD DUP5 PUSH2 0xE97 SWAP2 SWAP1 PUSH2 0x1E60 JUMP JUMPDEST PUSH2 0xEA1 SWAP2 SWAP1 PUSH2 0x1EF3 JUMP JUMPDEST SWAP4 SWAP3 POP POP POP JUMP JUMPDEST PUSH2 0xEB2 DUP3 DUP3 PUSH2 0x115B JUMP JUMPDEST DUP1 PUSH1 0xD0 SLOAD PUSH2 0xEC0 SWAP2 SWAP1 PUSH2 0x1D55 JUMP JUMPDEST PUSH1 0xD0 SSTORE PUSH1 0x1 PUSH1 0x1 PUSH1 0xA0 SHL SUB DUP3 AND PUSH1 0x0 SWAP1 DUP2 MSTORE PUSH1 0xD5 PUSH1 0x20 MSTORE PUSH1 0x40 SWAP1 KECCAK256 SLOAD PUSH2 0xEE7 SWAP1 DUP3 SWAP1 PUSH2 0x1D55 JUMP JUMPDEST PUSH1 0x1 PUSH1 0x1 PUSH1 0xA0 SHL SUB SWAP1 SWAP3 AND PUSH1 0x0 SWAP1 DUP2 MSTORE PUSH1 0xD5 PUSH1 0x20 MSTORE PUSH1 0x40 SWAP1 KECCAK256 SWAP2 SWAP1 SWAP2 SSTORE POP JUMP JUMPDEST PUSH1 0x0 CALLER PUSH2 0xF15 DUP6 DUP3 DUP6 PUSH2 0x12A6 JUMP JUMPDEST PUSH2 0x8DC DUP6 DUP6 DUP6 PUSH2 0x131A JUMP JUMPDEST PUSH1 0x0 SLOAD PUSH2 0x100 SWAP1 DIV PUSH1 0xFF AND PUSH2 0xF47 JUMPI PUSH1 0x40 MLOAD PUSH3 0x461BCD PUSH1 0xE5 SHL DUP2 MSTORE PUSH1 0x4 ADD PUSH2 0x682 SWAP1 PUSH2 0x1F15 JUMP JUMPDEST PUSH2 0x7B1 PUSH2 0x14E8 JUMP JUMPDEST PUSH1 0x0 SLOAD PUSH2 0x100 SWAP1 DIV PUSH1 0xFF AND PUSH2 0xF76 JUMPI PUSH1 0x40 MLOAD PUSH3 0x461BCD PUSH1 0xE5 SHL DUP2 MSTORE PUSH1 0x4 ADD PUSH2 0x682 SWAP1 PUSH2 0x1F15 JUMP JUMPDEST PUSH2 0xF80 DUP3 DUP3 PUSH2 0x1518 JUMP JUMPDEST POP POP JUMP JUMPDEST PUSH1 0x0 SLOAD PUSH2 0x100 SWAP1 DIV PUSH1 0xFF AND PUSH2 0xFAB JUMPI PUSH1 0x40 MLOAD PUSH3 0x461BCD PUSH1 0xE5 SHL DUP2 MSTORE PUSH1 0x4 ADD PUSH2 0x682 SWAP1 PUSH2 0x1F15 JUMP JUMPDEST PUSH2 0x85E DUP2 PUSH2 0x1566 JUMP JUMPDEST PUSH1 0x65 SLOAD DUP2 PUSH2 0xFC1 PUSH1 0x35 SLOAD SWAP1 JUMP JUMPDEST PUSH2 0xFCB SWAP2 SWAP1 PUSH2 0x1D55 JUMP JUMPDEST GT ISZERO PUSH2 0x1019 JUMPI PUSH1 0x40 MLOAD PUSH3 0x461BCD PUSH1 0xE5 SHL DUP2 MSTORE PUSH1 0x20 PUSH1 0x4 DUP3 ADD MSTORE PUSH1 0x19 PUSH1 0x24 DUP3 ADD MSTORE PUSH32 0x45524332304361707065643A2063617020657863656564656400000000000000 PUSH1 0x44 DUP3 ADD MSTORE PUSH1 0x64 ADD PUSH2 0x682 JUMP JUMPDEST PUSH2 0xF80 DUP3 DUP3 PUSH2 0x15DA JUMP JUMPDEST PUSH1 0x98 SLOAD PUSH1 0x1 PUSH1 0x1 PUSH1 0xA0 SHL SUB AND CALLER EQ PUSH2 0x7B1 JUMPI PUSH1 0x40 MLOAD PUSH3 0x461BCD PUSH1 0xE5 SHL DUP2 MSTORE PUSH1 0x20 PUSH1 0x4 DUP3 ADD DUP2 SWAP1 MSTORE PUSH1 0x24 DUP3 ADD MSTORE PUSH32 0x4F776E61626C653A2063616C6C6572206973206E6F7420746865206F776E6572 PUSH1 0x44 DUP3 ADD MSTORE PUSH1 0x64 ADD PUSH2 0x682 JUMP JUMPDEST PUSH1 0x98 DUP1 SLOAD PUSH1 0x1 PUSH1 0x1 PUSH1 0xA0 SHL SUB DUP4 DUP2 AND PUSH1 0x1 PUSH1 0x1 PUSH1 0xA0 SHL SUB NOT DUP4 AND DUP2 OR SWAP1 SWAP4 SSTORE PUSH1 0x40 MLOAD SWAP2 AND SWAP2 SWAP1 DUP3 SWAP1 PUSH32 0x8BE0079C531659141344CD1FD0A4F28419497F9722A3DAAFE3B4186F6B6457E0 SWAP1 PUSH1 0x0 SWAP1 LOG3 POP POP JUMP JUMPDEST PUSH1 0x0 JUMPDEST DUP4 MLOAD DUP2 PUSH1 0x1 PUSH1 0x1 PUSH1 0x40 SHL SUB AND LT ISZERO PUSH2 0x1147 JUMPI DUP3 DUP3 PUSH1 0x0 DUP7 DUP5 PUSH1 0x1 PUSH1 0x1 PUSH1 0x40 SHL SUB AND DUP2 MLOAD DUP2 LT PUSH2 0x1103 JUMPI PUSH2 0x1103 PUSH2 0x1E96 JUMP JUMPDEST PUSH1 0x20 SWAP1 DUP2 MUL SWAP2 SWAP1 SWAP2 ADD DUP2 ADD MLOAD PUSH1 0x1 PUSH1 0x1 PUSH1 0xA0 SHL SUB AND DUP3 MSTORE DUP2 ADD SWAP2 SWAP1 SWAP2 MSTORE PUSH1 0x40 ADD PUSH1 0x0 KECCAK256 DUP1 SLOAD PUSH1 0xFF NOT AND SWAP2 ISZERO ISZERO SWAP2 SWAP1 SWAP2 OR SWAP1 SSTORE DUP1 PUSH2 0x113F DUP2 PUSH2 0x1ECC JUMP JUMPDEST SWAP2 POP POP PUSH2 0x10D2 JUMP JUMPDEST POP POP POP POP JUMP JUMPDEST PUSH1 0x0 CALLER PUSH2 0x52B DUP2 DUP6 DUP6 PUSH2 0x131A JUMP JUMPDEST PUSH1 0x1 PUSH1 0x1 PUSH1 0xA0 SHL SUB DUP3 AND PUSH2 0x11BB JUMPI PUSH1 0x40 MLOAD PUSH3 0x461BCD PUSH1 0xE5 SHL DUP2 MSTORE PUSH1 0x20 PUSH1 0x4 DUP3 ADD MSTORE PUSH1 0x21 PUSH1 0x24 DUP3 ADD MSTORE PUSH32 0x45524332303A206275726E2066726F6D20746865207A65726F20616464726573 PUSH1 0x44 DUP3 ADD MSTORE PUSH1 0x73 PUSH1 0xF8 SHL PUSH1 0x64 DUP3 ADD MSTORE PUSH1 0x84 ADD PUSH2 0x682 JUMP JUMPDEST PUSH1 0x1 PUSH1 0x1 PUSH1 0xA0 SHL SUB DUP3 AND PUSH1 0x0 SWAP1 DUP2 MSTORE PUSH1 0x33 PUSH1 0x20 MSTORE PUSH1 0x40 SWAP1 KECCAK256 SLOAD DUP2 DUP2 LT ISZERO PUSH2 0x122F JUMPI PUSH1 0x40 MLOAD PUSH3 0x461BCD PUSH1 0xE5 SHL DUP2 MSTORE PUSH1 0x20 PUSH1 0x4 DUP3 ADD MSTORE PUSH1 0x22 PUSH1 0x24 DUP3 ADD MSTORE PUSH32 0x45524332303A206275726E20616D6F756E7420657863656564732062616C616E PUSH1 0x44 DUP3 ADD MSTORE PUSH2 0x6365 PUSH1 0xF0 SHL PUSH1 0x64 DUP3 ADD MSTORE PUSH1 0x84 ADD PUSH2 0x682 JUMP JUMPDEST PUSH1 0x1 PUSH1 0x1 PUSH1 0xA0 SHL SUB DUP4 AND PUSH1 0x0 SWAP1 DUP2 MSTORE PUSH1 0x33 PUSH1 0x20 MSTORE PUSH1 0x40 DUP2 KECCAK256 DUP4 DUP4 SUB SWAP1 SSTORE PUSH1 0x35 DUP1 SLOAD DUP5 SWAP3 SWAP1 PUSH2 0x125E SWAP1 DUP5 SWAP1 PUSH2 0x1E7F JUMP JUMPDEST SWAP1 SWAP2 SSTORE POP POP PUSH1 0x40 MLOAD DUP3 DUP2 MSTORE PUSH1 0x0 SWAP1 PUSH1 0x1 PUSH1 0x1 PUSH1 0xA0 SHL SUB DUP6 AND SWAP1 PUSH32 0xDDF252AD1BE2C89B69C2B068FC378DAA952BA7F163C4A11628F55A4DF523B3EF SWAP1 PUSH1 0x20 ADD PUSH2 0xE77 JUMP JUMPDEST POP POP POP JUMP JUMPDEST PUSH1 0x0 PUSH2 0x12B2 DUP5 DUP5 PUSH2 0x960 JUMP JUMPDEST SWAP1 POP PUSH1 0x0 NOT DUP2 EQ PUSH2 0x1147 JUMPI DUP2 DUP2 LT ISZERO PUSH2 0x130D JUMPI PUSH1 0x40 MLOAD PUSH3 0x461BCD PUSH1 0xE5 SHL DUP2 MSTORE PUSH1 0x20 PUSH1 0x4 DUP3 ADD MSTORE PUSH1 0x1D PUSH1 0x24 DUP3 ADD MSTORE PUSH32 0x45524332303A20696E73756666696369656E7420616C6C6F77616E6365000000 PUSH1 0x44 DUP3 ADD MSTORE PUSH1 0x64 ADD PUSH2 0x682 JUMP JUMPDEST PUSH2 0x1147 DUP5 DUP5 DUP5 DUP5 SUB PUSH2 0xD5F JUMP JUMPDEST PUSH1 0x1 PUSH1 0x1 PUSH1 0xA0 SHL SUB DUP4 AND PUSH2 0x137E JUMPI PUSH1 0x40 MLOAD PUSH3 0x461BCD PUSH1 0xE5 SHL DUP2 MSTORE PUSH1 0x20 PUSH1 0x4 DUP3 ADD MSTORE PUSH1 0x25 PUSH1 0x24 DUP3 ADD MSTORE PUSH32 0x45524332303A207472616E736665722066726F6D20746865207A65726F206164 PUSH1 0x44 DUP3 ADD MSTORE PUSH5 0x6472657373 PUSH1 0xD8 SHL PUSH1 0x64 DUP3 ADD MSTORE PUSH1 0x84 ADD PUSH2 0x682 JUMP JUMPDEST PUSH1 0x1 PUSH1 0x1 PUSH1 0xA0 SHL SUB DUP3 AND PUSH2 0x13E0 JUMPI PUSH1 0x40 MLOAD PUSH3 0x461BCD PUSH1 0xE5 SHL DUP2 MSTORE PUSH1 0x20 PUSH1 0x4 DUP3 ADD MSTORE PUSH1 0x23 PUSH1 0x24 DUP3 ADD MSTORE PUSH32 0x45524332303A207472616E7366657220746F20746865207A65726F2061646472 PUSH1 0x44 DUP3 ADD MSTORE PUSH3 0x657373 PUSH1 0xE8 SHL PUSH1 0x64 DUP3 ADD MSTORE PUSH1 0x84 ADD PUSH2 0x682 JUMP JUMPDEST PUSH1 0x1 PUSH1 0x1 PUSH1 0xA0 SHL SUB DUP4 AND PUSH1 0x0 SWAP1 DUP2 MSTORE PUSH1 0x33 PUSH1 0x20 MSTORE PUSH1 0x40 SWAP1 KECCAK256 SLOAD DUP2 DUP2 LT ISZERO PUSH2 0x1458 JUMPI PUSH1 0x40 MLOAD PUSH3 0x461BCD PUSH1 0xE5 SHL DUP2 MSTORE PUSH1 0x20 PUSH1 0x4 DUP3 ADD MSTORE PUSH1 0x26 PUSH1 0x24 DUP3 ADD MSTORE PUSH32 0x45524332303A207472616E7366657220616D6F756E7420657863656564732062 PUSH1 0x44 DUP3 ADD MSTORE PUSH6 0x616C616E6365 PUSH1 0xD0 SHL PUSH1 0x64 DUP3 ADD MSTORE PUSH1 0x84 ADD PUSH2 0x682 JUMP JUMPDEST PUSH1 0x1 PUSH1 0x1 PUSH1 0xA0 SHL SUB DUP1 DUP6 AND PUSH1 0x0 SWAP1 DUP2 MSTORE PUSH1 0x33 PUSH1 0x20 MSTORE PUSH1 0x40 DUP1 DUP3 KECCAK256 DUP6 DUP6 SUB SWAP1 SSTORE SWAP2 DUP6 AND DUP2 MSTORE SWAP1 DUP2 KECCAK256 DUP1 SLOAD DUP5 SWAP3 SWAP1 PUSH2 0x148F SWAP1 DUP5 SWAP1 PUSH2 0x1D55 JUMP JUMPDEST SWAP3 POP POP DUP2 SWAP1 SSTORE POP DUP3 PUSH1 0x1 PUSH1 0x1 PUSH1 0xA0 SHL SUB AND DUP5 PUSH1 0x1 PUSH1 0x1 PUSH1 0xA0 SHL SUB AND PUSH32 0xDDF252AD1BE2C89B69C2B068FC378DAA952BA7F163C4A11628F55A4DF523B3EF DUP5 PUSH1 0x40 MLOAD PUSH2 0x14DB SWAP2 DUP2 MSTORE PUSH1 0x20 ADD SWAP1 JUMP JUMPDEST PUSH1 0x40 MLOAD DUP1 SWAP2 SUB SWAP1 LOG3 PUSH2 0x1147 JUMP JUMPDEST PUSH1 0x0 SLOAD PUSH2 0x100 SWAP1 DIV PUSH1 0xFF AND PUSH2 0x150F JUMPI PUSH1 0x40 MLOAD PUSH3 0x461BCD PUSH1 0xE5 SHL DUP2 MSTORE PUSH1 0x4 ADD PUSH2 0x682 SWAP1 PUSH2 0x1F15 JUMP JUMPDEST PUSH2 0x7B1 CALLER PUSH2 0x107D JUMP JUMPDEST PUSH1 0x0 SLOAD PUSH2 0x100 SWAP1 DIV PUSH1 0xFF AND PUSH2 0x153F JUMPI PUSH1 0x40 MLOAD PUSH3 0x461BCD PUSH1 0xE5 SHL DUP2 MSTORE PUSH1 0x4 ADD PUSH2 0x682 SWAP1 PUSH2 0x1F15 JUMP JUMPDEST DUP2 MLOAD PUSH2 0x1552 SWAP1 PUSH1 0x36 SWAP1 PUSH1 0x20 DUP6 ADD SWAP1 PUSH2 0x16B9 JUMP JUMPDEST POP DUP1 MLOAD PUSH2 0x12A1 SWAP1 PUSH1 0x37 SWAP1 PUSH1 0x20 DUP5 ADD SWAP1 PUSH2 0x16B9 JUMP JUMPDEST PUSH1 0x0 SLOAD PUSH2 0x100 SWAP1 DIV PUSH1 0xFF AND PUSH2 0x158D JUMPI PUSH1 0x40 MLOAD PUSH3 0x461BCD PUSH1 0xE5 SHL DUP2 MSTORE PUSH1 0x4 ADD PUSH2 0x682 SWAP1 PUSH2 0x1F15 JUMP JUMPDEST PUSH1 0x0 DUP2 GT PUSH2 0x15D5 JUMPI PUSH1 0x40 MLOAD PUSH3 0x461BCD PUSH1 0xE5 SHL DUP2 MSTORE PUSH1 0x20 PUSH1 0x4 DUP3 ADD MSTORE PUSH1 0x15 PUSH1 0x24 DUP3 ADD MSTORE PUSH21 0x45524332304361707065643A20636170206973203 PUSH1 0x5C SHL PUSH1 0x44 DUP3 ADD MSTORE PUSH1 0x64 ADD PUSH2 0x682 JUMP JUMPDEST PUSH1 0x65 SSTORE JUMP JUMPDEST PUSH1 0x1 PUSH1 0x1 PUSH1 0xA0 SHL SUB DUP3 AND PUSH2 0x1630 JUMPI PUSH1 0x40 MLOAD PUSH3 0x461BCD PUSH1 0xE5 SHL DUP2 MSTORE PUSH1 0x20 PUSH1 0x4 DUP3 ADD MSTORE PUSH1 0x1F PUSH1 0x24 DUP3 ADD MSTORE PUSH32 0x45524332303A206D696E7420746F20746865207A65726F206164647265737300 PUSH1 0x44 DUP3 ADD MSTORE PUSH1 0x64 ADD PUSH2 0x682 JUMP JUMPDEST DUP1 PUSH1 0x35 PUSH1 0x0 DUP3 DUP3 SLOAD PUSH2 0x1642 SWAP2 SWAP1 PUSH2 0x1D55 JUMP JUMPDEST SWAP1 SWAP2 SSTORE POP POP PUSH1 0x1 PUSH1 0x1 PUSH1 0xA0 SHL SUB DUP3 AND PUSH1 0x0 SWAP1 DUP2 MSTORE PUSH1 0x33 PUSH1 0x20 MSTORE PUSH1 0x40 DUP2 KECCAK256 DUP1 SLOAD DUP4 SWAP3 SWAP1 PUSH2 0x166F SWAP1 DUP5 SWAP1 PUSH2 0x1D55 JUMP JUMPDEST SWAP1 SWAP2 SSTORE POP POP PUSH1 0x40 MLOAD DUP2 DUP2 MSTORE PUSH1 0x1 PUSH1 0x1 PUSH1 0xA0 SHL SUB DUP4 AND SWAP1 PUSH1 0x0 SWAP1 PUSH32 0xDDF252AD1BE2C89B69C2B068FC378DAA952BA7F163C4A11628F55A4DF523B3EF SWAP1 PUSH1 0x20 ADD PUSH1 0x40 MLOAD DUP1 SWAP2 SUB SWAP1 LOG3 POP POP JUMP JUMPDEST DUP3 DUP1 SLOAD PUSH2 0x16C5 SWAP1 PUSH2 0x1D04 JUMP JUMPDEST SWAP1 PUSH1 0x0 MSTORE PUSH1 0x20 PUSH1 0x0 KECCAK256 SWAP1 PUSH1 0x1F ADD PUSH1 0x20 SWAP1 DIV DUP2 ADD SWAP3 DUP3 PUSH2 0x16E7 JUMPI PUSH1 0x0 DUP6 SSTORE PUSH2 0x172D JUMP JUMPDEST DUP3 PUSH1 0x1F LT PUSH2 0x1700 JUMPI DUP1 MLOAD PUSH1 0xFF NOT AND DUP4 DUP1 ADD OR DUP6 SSTORE PUSH2 0x172D JUMP JUMPDEST DUP3 DUP1 ADD PUSH1 0x1 ADD DUP6 SSTORE DUP3 ISZERO PUSH2 0x172D JUMPI SWAP2 DUP3 ADD JUMPDEST DUP3 DUP2 GT ISZERO PUSH2 0x172D JUMPI DUP3 MLOAD DUP3 SSTORE SWAP2 PUSH1 0x20 ADD SWAP2 SWAP1 PUSH1 0x1 ADD SWAP1 PUSH2 0x1712 JUMP JUMPDEST POP PUSH2 0x1739 SWAP3 SWAP2 POP PUSH2 0x17B0 JUMP JUMPDEST POP SWAP1 JUMP JUMPDEST POP DUP1 SLOAD PUSH1 0x0 DUP3 SSTORE SWAP1 PUSH1 0x0 MSTORE PUSH1 0x20 PUSH1 0x0 KECCAK256 SWAP1 DUP2 ADD SWAP1 PUSH2 0x85E SWAP2 SWAP1 PUSH2 0x17B0 JUMP JUMPDEST DUP3 DUP1 SLOAD DUP3 DUP3 SSTORE SWAP1 PUSH1 0x0 MSTORE PUSH1 0x20 PUSH1 0x0 KECCAK256 SWAP1 DUP2 ADD SWAP3 DUP3 ISZERO PUSH2 0x172D JUMPI SWAP2 PUSH1 0x20 MUL DUP3 ADD JUMPDEST DUP3 DUP2 GT ISZERO PUSH2 0x172D JUMPI DUP3 MLOAD DUP3 SLOAD PUSH1 0x1 PUSH1 0x1 PUSH1 0xA0 SHL SUB NOT AND PUSH1 0x1 PUSH1 0x1 PUSH1 0xA0 SHL SUB SWAP1 SWAP2 AND OR DUP3 SSTORE PUSH1 0x20 SWAP1 SWAP3 ADD SWAP2 PUSH1 0x1 SWAP1 SWAP2 ADD SWAP1 PUSH2 0x177B JUMP JUMPDEST JUMPDEST DUP1 DUP3 GT ISZERO PUSH2 0x1739 JUMPI PUSH1 0x0 DUP2 SSTORE PUSH1 0x1 ADD PUSH2 0x17B1 JUMP JUMPDEST PUSH1 0x0 PUSH1 0x20 DUP1 DUP4 MSTORE DUP4 MLOAD DUP1 DUP3 DUP6 ADD MSTORE PUSH1 0x0 JUMPDEST DUP2 DUP2 LT ISZERO PUSH2 0x17F2 JUMPI DUP6 DUP2 ADD DUP4 ADD MLOAD DUP6 DUP3 ADD PUSH1 0x40 ADD MSTORE DUP3 ADD PUSH2 0x17D6 JUMP JUMPDEST DUP2 DUP2 GT ISZERO PUSH2 0x1804 JUMPI PUSH1 0x0 PUSH1 0x40 DUP4 DUP8 ADD ADD MSTORE JUMPDEST POP PUSH1 0x1F ADD PUSH1 0x1F NOT AND SWAP3 SWAP1 SWAP3 ADD PUSH1 0x40 ADD SWAP4 SWAP3 POP POP POP JUMP JUMPDEST PUSH1 0x1 PUSH1 0x1 PUSH1 0xA0 SHL SUB DUP2 AND DUP2 EQ PUSH2 0x85E JUMPI PUSH1 0x0 DUP1 REVERT JUMPDEST PUSH1 0x0 PUSH1 0x20 DUP3 DUP5 SUB SLT ISZERO PUSH2 0x1841 JUMPI PUSH1 0x0 DUP1 REVERT JUMPDEST DUP2 CALLDATALOAD PUSH2 0xEA1 DUP2 PUSH2 0x181A JUMP JUMPDEST PUSH1 0x0 DUP1 PUSH1 0x40 DUP4 DUP6 SUB SLT ISZERO PUSH2 0x185F JUMPI PUSH1 0x0 DUP1 REVERT JUMPDEST DUP3 CALLDATALOAD PUSH2 0x186A DUP2 PUSH2 0x181A JUMP JUMPDEST SWAP5 PUSH1 0x20 SWAP4 SWAP1 SWAP4 ADD CALLDATALOAD SWAP4 POP POP POP JUMP JUMPDEST PUSH1 0x0 DUP1 PUSH1 0x0 PUSH1 0x60 DUP5 DUP7 SUB SLT ISZERO PUSH2 0x188D JUMPI PUSH1 0x0 DUP1 REVERT JUMPDEST DUP4 CALLDATALOAD PUSH2 0x1898 DUP2 PUSH2 0x181A JUMP JUMPDEST SWAP3 POP PUSH1 0x20 DUP5 ADD CALLDATALOAD PUSH2 0x18A8 DUP2 PUSH2 0x181A JUMP JUMPDEST SWAP3 SWAP6 SWAP3 SWAP5 POP POP POP PUSH1 0x40 SWAP2 SWAP1 SWAP2 ADD CALLDATALOAD SWAP1 JUMP JUMPDEST PUSH1 0x20 DUP1 DUP3 MSTORE DUP3 MLOAD DUP3 DUP3 ADD DUP2 SWAP1 MSTORE PUSH1 0x0 SWAP2 SWAP1 DUP5 DUP3 ADD SWAP1 PUSH1 0x40 DUP6 ADD SWAP1 DUP5 JUMPDEST DUP2 DUP2 LT ISZERO PUSH2 0x18FA JUMPI DUP4 MLOAD PUSH1 0x1 PUSH1 0x1 PUSH1 0xA0 SHL SUB AND DUP4 MSTORE SWAP3 DUP5 ADD SWAP3 SWAP2 DUP5 ADD SWAP2 PUSH1 0x1 ADD PUSH2 0x18D5 JUMP JUMPDEST POP SWAP1 SWAP7 SWAP6 POP POP POP POP POP POP JUMP JUMPDEST PUSH4 0x4E487B71 PUSH1 0xE0 SHL PUSH1 0x0 MSTORE PUSH1 0x41 PUSH1 0x4 MSTORE PUSH1 0x24 PUSH1 0x0 REVERT JUMPDEST PUSH1 0x40 MLOAD PUSH1 0x1F DUP3 ADD PUSH1 0x1F NOT AND DUP2 ADD PUSH1 0x1 PUSH1 0x1 PUSH1 0x40 SHL SUB DUP2 GT DUP3 DUP3 LT OR ISZERO PUSH2 0x1944 JUMPI PUSH2 0x1944 PUSH2 0x1906 JUMP JUMPDEST PUSH1 0x40 MSTORE SWAP2 SWAP1 POP JUMP JUMPDEST PUSH1 0x0 DUP3 PUSH1 0x1F DUP4 ADD SLT PUSH2 0x195D JUMPI PUSH1 0x0 DUP1 REVERT JUMPDEST DUP2 CALLDATALOAD PUSH1 0x1 PUSH1 0x1 PUSH1 0x40 SHL SUB DUP2 GT ISZERO PUSH2 0x1976 JUMPI PUSH2 0x1976 PUSH2 0x1906 JUMP JUMPDEST PUSH2 0x1989 PUSH1 0x1F DUP3 ADD PUSH1 0x1F NOT AND PUSH1 0x20 ADD PUSH2 0x191C JUMP JUMPDEST DUP2 DUP2 MSTORE DUP5 PUSH1 0x20 DUP4 DUP7 ADD ADD GT ISZERO PUSH2 0x199E JUMPI PUSH1 0x0 DUP1 REVERT JUMPDEST DUP2 PUSH1 0x20 DUP6 ADD PUSH1 0x20 DUP4 ADD CALLDATACOPY PUSH1 0x0 SWAP2 DUP2 ADD PUSH1 0x20 ADD SWAP2 SWAP1 SWAP2 MSTORE SWAP4 SWAP3 POP POP POP JUMP JUMPDEST DUP1 CALLDATALOAD PUSH1 0xFF DUP2 AND DUP2 EQ PUSH2 0x19CC JUMPI PUSH1 0x0 DUP1 REVERT JUMPDEST SWAP2 SWAP1 POP JUMP JUMPDEST PUSH1 0x0 DUP1 PUSH1 0x0 DUP1 PUSH1 0x0 DUP1 PUSH1 0x0 PUSH1 0xE0 DUP9 DUP11 SUB SLT ISZERO PUSH2 0x19EC JUMPI PUSH1 0x0 DUP1 REVERT JUMPDEST DUP8 CALLDATALOAD PUSH1 0x1 PUSH1 0x1 PUSH1 0x40 SHL SUB DUP1 DUP3 GT ISZERO PUSH2 0x1A03 JUMPI PUSH1 0x0 DUP1 REVERT JUMPDEST PUSH2 0x1A0F DUP12 DUP4 DUP13 ADD PUSH2 0x194C JUMP JUMPDEST SWAP9 POP PUSH1 0x20 DUP11 ADD CALLDATALOAD SWAP2 POP DUP1 DUP3 GT ISZERO PUSH2 0x1A25 JUMPI PUSH1 0x0 DUP1 REVERT JUMPDEST POP PUSH2 0x1A32 DUP11 DUP3 DUP12 ADD PUSH2 0x194C JUMP JUMPDEST SWAP7 POP POP PUSH2 0x1A41 PUSH1 0x40 DUP10 ADD PUSH2 0x19BB JUMP JUMPDEST SWAP5 POP PUSH1 0x60 DUP9 ADD CALLDATALOAD SWAP4 POP PUSH1 0x80 DUP9 ADD CALLDATALOAD SWAP3 POP PUSH1 0xA0 DUP9 ADD CALLDATALOAD SWAP2 POP PUSH1 0xC0 DUP9 ADD CALLDATALOAD PUSH2 0x1A66 DUP2 PUSH2 0x181A JUMP JUMPDEST DUP1 SWAP2 POP POP SWAP3 SWAP6 SWAP9 SWAP2 SWAP5 SWAP8 POP SWAP3 SWAP6 POP JUMP JUMPDEST PUSH1 0x0 PUSH1 0x1 PUSH1 0x1 PUSH1 0x40 SHL SUB DUP3 GT ISZERO PUSH2 0x1A8F JUMPI PUSH2 0x1A8F PUSH2 0x1906 JUMP JUMPDEST POP PUSH1 0x5 SHL PUSH1 0x20 ADD SWAP1 JUMP JUMPDEST PUSH1 0x0 PUSH1 0x20 DUP1 DUP4 DUP6 SUB SLT ISZERO PUSH2 0x1AAC JUMPI PUSH1 0x0 DUP1 REVERT JUMPDEST DUP3 CALLDATALOAD PUSH1 0x1 PUSH1 0x1 PUSH1 0x40 SHL SUB DUP2 GT ISZERO PUSH2 0x1AC2 JUMPI PUSH1 0x0 DUP1 REVERT JUMPDEST DUP4 ADD PUSH1 0x1F DUP2 ADD DUP6 SGT PUSH2 0x1AD3 JUMPI PUSH1 0x0 DUP1 REVERT JUMPDEST DUP1 CALLDATALOAD PUSH2 0x1AE6 PUSH2 0x1AE1 DUP3 PUSH2 0x1A76 JUMP JUMPDEST PUSH2 0x191C JUMP JUMPDEST DUP2 DUP2 MSTORE PUSH1 0x5 SWAP2 SWAP1 SWAP2 SHL DUP3 ADD DUP4 ADD SWAP1 DUP4 DUP2 ADD SWAP1 DUP8 DUP4 GT ISZERO PUSH2 0x1B05 JUMPI PUSH1 0x0 DUP1 REVERT JUMPDEST SWAP3 DUP5 ADD SWAP3 JUMPDEST DUP3 DUP5 LT ISZERO PUSH2 0x1B2C JUMPI DUP4 CALLDATALOAD PUSH2 0x1B1D DUP2 PUSH2 0x181A JUMP JUMPDEST DUP3 MSTORE SWAP3 DUP5 ADD SWAP3 SWAP1 DUP5 ADD SWAP1 PUSH2 0x1B0A JUMP JUMPDEST SWAP8 SWAP7 POP POP POP POP POP POP POP JUMP JUMPDEST PUSH1 0x0 DUP1 PUSH1 0x40 DUP4 DUP6 SUB SLT ISZERO PUSH2 0x1B4A JUMPI PUSH1 0x0 DUP1 REVERT JUMPDEST DUP3 CALLDATALOAD PUSH2 0x1B55 DUP2 PUSH2 0x181A JUMP JUMPDEST SWAP2 POP PUSH1 0x20 DUP4 ADD CALLDATALOAD PUSH2 0x1B65 DUP2 PUSH2 0x181A JUMP JUMPDEST DUP1 SWAP2 POP POP SWAP3 POP SWAP3 SWAP1 POP JUMP JUMPDEST PUSH1 0x0 DUP3 PUSH1 0x1F DUP4 ADD SLT PUSH2 0x1B81 JUMPI PUSH1 0x0 DUP1 REVERT JUMPDEST DUP2 CALLDATALOAD PUSH1 0x20 PUSH2 0x1B91 PUSH2 0x1AE1 DUP4 PUSH2 0x1A76 JUMP JUMPDEST DUP3 DUP2 MSTORE PUSH1 0x5 SWAP3 SWAP1 SWAP3 SHL DUP5 ADD DUP2 ADD SWAP2 DUP2 DUP2 ADD SWAP1 DUP7 DUP5 GT ISZERO PUSH2 0x1BB0 JUMPI PUSH1 0x0 DUP1 REVERT JUMPDEST DUP3 DUP7 ADD JUMPDEST DUP5 DUP2 LT ISZERO PUSH2 0x1BCB JUMPI DUP1 CALLDATALOAD DUP4 MSTORE SWAP2 DUP4 ADD SWAP2 DUP4 ADD PUSH2 0x1BB4 JUMP JUMPDEST POP SWAP7 SWAP6 POP POP POP POP POP POP JUMP JUMPDEST PUSH1 0x0 DUP1 PUSH1 0x0 DUP1 PUSH1 0x0 DUP1 PUSH1 0x0 PUSH1 0xE0 DUP9 DUP11 SUB SLT ISZERO PUSH2 0x1BF1 JUMPI PUSH1 0x0 DUP1 REVERT JUMPDEST DUP8 CALLDATALOAD PUSH2 0x1BFC DUP2 PUSH2 0x181A JUMP JUMPDEST SWAP7 POP PUSH1 0x20 DUP9 DUP2 ADD CALLDATALOAD SWAP7 POP PUSH1 0x40 DUP10 ADD CALLDATALOAD SWAP6 POP PUSH1 0x60 DUP10 ADD CALLDATALOAD SWAP5 POP PUSH1 0x80 DUP10 ADD CALLDATALOAD PUSH1 0x1 PUSH1 0x1 PUSH1 0x40 SHL SUB DUP1 DUP3 GT ISZERO PUSH2 0x1C2E JUMPI PUSH1 0x0 DUP1 REVERT JUMPDEST DUP2 DUP12 ADD SWAP2 POP DUP12 PUSH1 0x1F DUP4 ADD SLT PUSH2 0x1C42 JUMPI PUSH1 0x0 DUP1 REVERT JUMPDEST DUP2 CALLDATALOAD PUSH2 0x1C50 PUSH2 0x1AE1 DUP3 PUSH2 0x1A76 JUMP JUMPDEST DUP2 DUP2 MSTORE PUSH1 0x5 SWAP2 SWAP1 SWAP2 SHL DUP4 ADD DUP5 ADD SWAP1 DUP5 DUP2 ADD SWAP1 DUP15 DUP4 GT ISZERO PUSH2 0x1C6F JUMPI PUSH1 0x0 DUP1 REVERT JUMPDEST SWAP4 DUP6 ADD SWAP4 JUMPDEST DUP3 DUP6 LT ISZERO PUSH2 0x1C94 JUMPI PUSH2 0x1C85 DUP6 PUSH2 0x19BB JUMP JUMPDEST DUP3 MSTORE SWAP4 DUP6 ADD SWAP4 SWAP1 DUP6 ADD SWAP1 PUSH2 0x1C74 JUMP JUMPDEST SWAP8 POP POP POP PUSH1 0xA0 DUP12 ADD CALLDATALOAD SWAP3 POP DUP1 DUP4 GT ISZERO PUSH2 0x1CAC JUMPI PUSH1 0x0 DUP1 REVERT JUMPDEST PUSH2 0x1CB8 DUP13 DUP5 DUP14 ADD PUSH2 0x1B70 JUMP JUMPDEST SWAP5 POP PUSH1 0xC0 DUP12 ADD CALLDATALOAD SWAP3 POP DUP1 DUP4 GT ISZERO PUSH2 0x1CCE JUMPI PUSH1 0x0 DUP1 REVERT JUMPDEST POP POP PUSH2 0x1CDC DUP11 DUP3 DUP12 ADD PUSH2 0x1B70 JUMP JUMPDEST SWAP2 POP POP SWAP3 SWAP6 SWAP9 SWAP2 SWAP5 SWAP8 POP SWAP3 SWAP6 POP JUMP JUMPDEST PUSH1 0x0 PUSH1 0x20 DUP3 DUP5 SUB SLT ISZERO PUSH2 0x1CFD JUMPI PUSH1 0x0 DUP1 REVERT JUMPDEST POP CALLDATALOAD SWAP2 SWAP1 POP JUMP JUMPDEST PUSH1 0x1 DUP2 DUP2 SHR SWAP1 DUP3 AND DUP1 PUSH2 0x1D18 JUMPI PUSH1 0x7F DUP3 AND SWAP2 POP JUMPDEST PUSH1 0x20 DUP3 LT DUP2 EQ ISZERO PUSH2 0x1D39 JUMPI PUSH4 0x4E487B71 PUSH1 0xE0 SHL PUSH1 0x0 MSTORE PUSH1 0x22 PUSH1 0x4 MSTORE PUSH1 0x24 PUSH1 0x0 REVERT JUMPDEST POP SWAP2 SWAP1 POP JUMP JUMPDEST PUSH4 0x4E487B71 PUSH1 0xE0 SHL PUSH1 0x0 MSTORE PUSH1 0x11 PUSH1 0x4 MSTORE PUSH1 0x24 PUSH1 0x0 REVERT JUMPDEST PUSH1 0x0 DUP3 NOT DUP3 GT ISZERO PUSH2 0x1D68 JUMPI PUSH2 0x1D68 PUSH2 0x1D3F JUMP JUMPDEST POP ADD SWAP1 JUMP JUMPDEST PUSH1 0x1 DUP2 DUP2 JUMPDEST DUP1 DUP6 GT ISZERO PUSH2 0x1DA8 JUMPI DUP2 PUSH1 0x0 NOT DIV DUP3 GT ISZERO PUSH2 0x1D8E JUMPI PUSH2 0x1D8E PUSH2 0x1D3F JUMP JUMPDEST DUP1 DUP6 AND ISZERO PUSH2 0x1D9B JUMPI SWAP2 DUP2 MUL SWAP2 JUMPDEST SWAP4 DUP5 SHR SWAP4 SWAP1 DUP1 MUL SWAP1 PUSH2 0x1D72 JUMP JUMPDEST POP SWAP3 POP SWAP3 SWAP1 POP JUMP JUMPDEST PUSH1 0x0 DUP3 PUSH2 0x1DBF JUMPI POP PUSH1 0x1 PUSH2 0x531 JUMP JUMPDEST DUP2 PUSH2 0x1DCC JUMPI POP PUSH1 0x0 PUSH2 0x531 JUMP JUMPDEST DUP2 PUSH1 0x1 DUP2 EQ PUSH2 0x1DE2 JUMPI PUSH1 0x2 DUP2 EQ PUSH2 0x1DEC JUMPI PUSH2 0x1E08 JUMP JUMPDEST PUSH1 0x1 SWAP2 POP POP PUSH2 0x531 JUMP JUMPDEST PUSH1 0xFF DUP5 GT ISZERO PUSH2 0x1DFD JUMPI PUSH2 0x1DFD PUSH2 0x1D3F JUMP JUMPDEST POP POP PUSH1 0x1 DUP3 SHL PUSH2 0x531 JUMP JUMPDEST POP PUSH1 0x20 DUP4 LT PUSH2 0x133 DUP4 LT AND PUSH1 0x4E DUP5 LT PUSH1 0xB DUP5 LT AND OR ISZERO PUSH2 0x1E2B JUMPI POP DUP2 DUP2 EXP PUSH2 0x531 JUMP JUMPDEST PUSH2 0x1E35 DUP4 DUP4 PUSH2 0x1D6D JUMP JUMPDEST DUP1 PUSH1 0x0 NOT DIV DUP3 GT ISZERO PUSH2 0x1E49 JUMPI PUSH2 0x1E49 PUSH2 0x1D3F JUMP JUMPDEST MUL SWAP4 SWAP3 POP POP POP JUMP JUMPDEST PUSH1 0x0 PUSH2 0xEA1 PUSH1 0xFF DUP5 AND DUP4 PUSH2 0x1DB0 JUMP JUMPDEST PUSH1 0x0 DUP2 PUSH1 0x0 NOT DIV DUP4 GT DUP3 ISZERO ISZERO AND ISZERO PUSH2 0x1E7A JUMPI PUSH2 0x1E7A PUSH2 0x1D3F JUMP JUMPDEST POP MUL SWAP1 JUMP JUMPDEST PUSH1 0x0 DUP3 DUP3 LT ISZERO PUSH2 0x1E91 JUMPI PUSH2 0x1E91 PUSH2 0x1D3F JUMP JUMPDEST POP SUB SWAP1 JUMP JUMPDEST PUSH4 0x4E487B71 PUSH1 0xE0 SHL PUSH1 0x0 MSTORE PUSH1 0x32 PUSH1 0x4 MSTORE PUSH1 0x24 PUSH1 0x0 REVERT JUMPDEST PUSH1 0x0 PUSH1 0xFF DUP3 AND PUSH1 0xFF DUP2 EQ ISZERO PUSH2 0x1EC3 JUMPI PUSH2 0x1EC3 PUSH2 0x1D3F JUMP JUMPDEST PUSH1 0x1 ADD SWAP3 SWAP2 POP POP JUMP JUMPDEST PUSH1 0x0 PUSH1 0x1 PUSH1 0x1 PUSH1 0x40 SHL SUB DUP1 DUP4 AND DUP2 DUP2 EQ ISZERO PUSH2 0x1EE9 JUMPI PUSH2 0x1EE9 PUSH2 0x1D3F JUMP JUMPDEST PUSH1 0x1 ADD SWAP4 SWAP3 POP POP POP JUMP JUMPDEST PUSH1 0x0 DUP3 PUSH2 0x1F10 JUMPI PUSH4 0x4E487B71 PUSH1 0xE0 SHL PUSH1 0x0 MSTORE PUSH1 0x12 PUSH1 0x4 MSTORE PUSH1 0x24 PUSH1 0x0 REVERT JUMPDEST POP DIV SWAP1 JUMP JUMPDEST PUSH1 0x20 DUP1 DUP3 MSTORE PUSH1 0x2B SWAP1 DUP3 ADD MSTORE PUSH32 0x496E697469616C697A61626C653A20636F6E7472616374206973206E6F742069 PUSH1 0x40 DUP3 ADD MSTORE PUSH11 0x6E697469616C697A696E67 PUSH1 0xA8 SHL PUSH1 0x60 DUP3 ADD MSTORE PUSH1 0x80 ADD SWAP1 JUMP INVALID LOG2 PUSH5 0x6970667358 0x22 SLT KECCAK256 MLOAD ADDRESS BYTE 0xD0 ORIGIN PUSH29 0x5B83691D1C40A2FF4639438BC8ED305029CBC641B897AD9DFC9B64736F PUSH13 0x634300080C0033000000000000 "
				},
				"gasEstimates": {
					"creation": {
						"codeDepositCost": "1617200",
						"executionCost": "1694",
						"totalCost": "1618894"
					},
					"external": {
						"allowance(address,address)": "infinite",
						"approve(address,uint256)": "24668",
						"balanceOf(address)": "2554",
						"cap()": "2359",
						"decimals()": "2334",
						"decreaseAllowance(address,uint256)": "27078",
						"getTokenOwnerAddress()": "2375",
						"increaseAllowance(address,uint256)": "27066",
						"initialize(string,string,uint8,uint256,uint256,uint256,address)": "infinite",
						"mapSigner(address)": "2589",
						"name()": "infinite",
						"owner()": "2387",
						"permitMint(address,uint256,uint256,uint256,uint8[],bytes32[],bytes32[])": "infinite",
						"renounceOwnership()": "infinite",
						"setSigners(address[])": "infinite",
						"signers()": "infinite",
						"symbol()": "infinite",
						"totalSupply()": "2371",
						"transfer(address,uint256)": "infinite",
						"transferFrom(address,address,uint256)": "infinite",
						"transferOwnership(address)": "infinite",
						"uniqueIdExists(uint256)": "2582",
						"userTotalBurned(address)": "2625"
					},
					"internal": {
						"_burnAndUpdate(address,uint256)": "infinite",
						"_calculateBurnAmt(uint256)": "2288",
						"_updateMap(address[] memory,bool,mapping(address => bool))": "infinite",
						"setRewardAmt(uint256)": "infinite"
					}
				},
				"methodIdentifiers": {
					"allowance(address,address)": "dd62ed3e",
					"approve(address,uint256)": "095ea7b3",
					"balanceOf(address)": "70a08231",
					"cap()": "355274ea",
					"decimals()": "313ce567",
					"decreaseAllowance(address,uint256)": "a457c2d7",
					"getTokenOwnerAddress()": "b722d0a5",
					"increaseAllowance(address,uint256)": "39509351",
					"initialize(string,string,uint8,uint256,uint256,uint256,address)": "55d13009",
					"mapSigner(address)": "07c351dd",
					"name()": "06fdde03",
					"owner()": "8da5cb5b",
					"permitMint(address,uint256,uint256,uint256,uint8[],bytes32[],bytes32[])": "e4c97e6a",
					"renounceOwnership()": "715018a6",
					"setSigners(address[])": "a3772662",
					"signers()": "46f0975a",
					"symbol()": "95d89b41",
					"totalSupply()": "18160ddd",
					"transfer(address,uint256)": "a9059cbb",
					"transferFrom(address,address,uint256)": "23b872dd",
					"transferOwnership(address)": "f2fde38b",
					"uniqueIdExists(uint256)": "f9342285",
					"userTotalBurned(address)": "1e0d4ce9"
				}
			},
			"storageLayout": {
				"storage": [
					{
						"astId": 138,
						"contract": "contracts/DeAnt3Token.sol:DeAnt3Token",
						"label": "_initialized",
						"offset": 0,
						"slot": "0",
						"type": "t_uint8"
					},
					{
						"astId": 141,
						"contract": "contracts/DeAnt3Token.sol:DeAnt3Token",
						"label": "_initializing",
						"offset": 1,
						"slot": "0",
						"type": "t_bool"
					},
					{
						"astId": 1367,
						"contract": "contracts/DeAnt3Token.sol:DeAnt3Token",
						"label": "__gap",
						"offset": 0,
						"slot": "1",
						"type": "t_array(t_uint256)50_storage"
					},
					{
						"astId": 301,
						"contract": "contracts/DeAnt3Token.sol:DeAnt3Token",
						"label": "_balances",
						"offset": 0,
						"slot": "51",
						"type": "t_mapping(t_address,t_uint256)"
					},
					{
						"astId": 307,
						"contract": "contracts/DeAnt3Token.sol:DeAnt3Token",
						"label": "_allowances",
						"offset": 0,
						"slot": "52",
						"type": "t_mapping(t_address,t_mapping(t_address,t_uint256))"
					},
					{
						"astId": 309,
						"contract": "contracts/DeAnt3Token.sol:DeAnt3Token",
						"label": "_totalSupply",
						"offset": 0,
						"slot": "53",
						"type": "t_uint256"
					},
					{
						"astId": 311,
						"contract": "contracts/DeAnt3Token.sol:DeAnt3Token",
						"label": "_name",
						"offset": 0,
						"slot": "54",
						"type": "t_string_storage"
					},
					{
						"astId": 313,
						"contract": "contracts/DeAnt3Token.sol:DeAnt3Token",
						"label": "_symbol",
						"offset": 0,
						"slot": "55",
						"type": "t_string_storage"
					},
					{
						"astId": 892,
						"contract": "contracts/DeAnt3Token.sol:DeAnt3Token",
						"label": "__gap",
						"offset": 0,
						"slot": "56",
						"type": "t_array(t_uint256)45_storage"
					},
					{
						"astId": 982,
						"contract": "contracts/DeAnt3Token.sol:DeAnt3Token",
						"label": "_cap",
						"offset": 0,
						"slot": "101",
						"type": "t_uint256"
					},
					{
						"astId": 1057,
						"contract": "contracts/DeAnt3Token.sol:DeAnt3Token",
						"label": "__gap",
						"offset": 0,
						"slot": "102",
						"type": "t_array(t_uint256)50_storage"
					},
					{
						"astId": 10,
						"contract": "contracts/DeAnt3Token.sol:DeAnt3Token",
						"label": "_owner",
						"offset": 0,
						"slot": "152",
						"type": "t_address"
					},
					{
						"astId": 130,
						"contract": "contracts/DeAnt3Token.sol:DeAnt3Token",
						"label": "__gap",
						"offset": 0,
						"slot": "153",
						"type": "t_array(t_uint256)49_storage"
					},
					{
						"astId": 1378,
						"contract": "contracts/DeAnt3Token.sol:DeAnt3Token",
						"label": "_name",
						"offset": 0,
						"slot": "202",
						"type": "t_string_storage"
					},
					{
						"astId": 1380,
						"contract": "contracts/DeAnt3Token.sol:DeAnt3Token",
						"label": "_symbol",
						"offset": 0,
						"slot": "203",
						"type": "t_string_storage"
					},
					{
						"astId": 1382,
						"contract": "contracts/DeAnt3Token.sol:DeAnt3Token",
						"label": "_decimals",
						"offset": 0,
						"slot": "204",
						"type": "t_uint8"
					},
					{
						"astId": 1384,
						"contract": "contracts/DeAnt3Token.sol:DeAnt3Token",
						"label": "_rewardAmt",
						"offset": 0,
						"slot": "205",
						"type": "t_uint256"
					},
					{
						"astId": 1386,
						"contract": "contracts/DeAnt3Token.sol:DeAnt3Token",
						"label": "_cap",
						"offset": 0,
						"slot": "206",
						"type": "t_uint256"
					},
					{
						"astId": 1388,
						"contract": "contracts/DeAnt3Token.sol:DeAnt3Token",
						"label": "_taxFee",
						"offset": 0,
						"slot": "207",
						"type": "t_uint256"
					},
					{
						"astId": 1390,
						"contract": "contracts/DeAnt3Token.sol:DeAnt3Token",
						"label": "_totalBurned",
						"offset": 0,
						"slot": "208",
						"type": "t_uint256"
					},
					{
						"astId": 1392,
						"contract": "contracts/DeAnt3Token.sol:DeAnt3Token",
						"label": "_tokenOwnerAddress",
						"offset": 0,
						"slot": "209",
						"type": "t_address"
					},
					{
						"astId": 1395,
						"contract": "contracts/DeAnt3Token.sol:DeAnt3Token",
						"label": "_signers",
						"offset": 0,
						"slot": "210",
						"type": "t_array(t_address)dyn_storage"
					},
					{
						"astId": 1399,
						"contract": "contracts/DeAnt3Token.sol:DeAnt3Token",
						"label": "_mapSigners",
						"offset": 0,
						"slot": "211",
						"type": "t_mapping(t_address,t_bool)"
					},
					{
						"astId": 1403,
						"contract": "contracts/DeAnt3Token.sol:DeAnt3Token",
						"label": "uniqueIdExists",
						"offset": 0,
						"slot": "212",
						"type": "t_mapping(t_uint256,t_bool)"
					},
					{
						"astId": 1407,
						"contract": "contracts/DeAnt3Token.sol:DeAnt3Token",
						"label": "userTotalBurned",
						"offset": 0,
						"slot": "213",
						"type": "t_mapping(t_address,t_uint256)"
					}
				],
				"types": {
					"t_address": {
						"encoding": "inplace",
						"label": "address",
						"numberOfBytes": "20"
					},
					"t_array(t_address)dyn_storage": {
						"base": "t_address",
						"encoding": "dynamic_array",
						"label": "address[]",
						"numberOfBytes": "32"
					},
					"t_array(t_uint256)45_storage": {
						"base": "t_uint256",
						"encoding": "inplace",
						"label": "uint256[45]",
						"numberOfBytes": "1440"
					},
					"t_array(t_uint256)49_storage": {
						"base": "t_uint256",
						"encoding": "inplace",
						"label": "uint256[49]",
						"numberOfBytes": "1568"
					},
					"t_array(t_uint256)50_storage": {
						"base": "t_uint256",
						"encoding": "inplace",
						"label": "uint256[50]",
						"numberOfBytes": "1600"
					},
					"t_bool": {
						"encoding": "inplace",
						"label": "bool",
						"numberOfBytes": "1"
					},
					"t_mapping(t_address,t_bool)": {
						"encoding": "mapping",
						"key": "t_address",
						"label": "mapping(address => bool)",
						"numberOfBytes": "32",
						"value": "t_bool"
					},
					"t_mapping(t_address,t_mapping(t_address,t_uint256))": {
						"encoding": "mapping",
						"key": "t_address",
						"label": "mapping(address => mapping(address => uint256))",
						"numberOfBytes": "32",
						"value": "t_mapping(t_address,t_uint256)"
					},
					"t_mapping(t_address,t_uint256)": {
						"encoding": "mapping",
						"key": "t_address",
						"label": "mapping(address => uint256)",
						"numberOfBytes": "32",
						"value": "t_uint256"
					},
					"t_mapping(t_uint256,t_bool)": {
						"encoding": "mapping",
						"key": "t_uint256",
						"label": "mapping(uint256 => bool)",
						"numberOfBytes": "32",
						"value": "t_bool"
					},
					"t_string_storage": {
						"encoding": "bytes",
						"label": "string",
						"numberOfBytes": "32"
					},
					"t_uint256": {
						"encoding": "inplace",
						"label": "uint256",
						"numberOfBytes": "32"
					},
					"t_uint8": {
						"encoding": "inplace",
						"label": "uint8",
						"numberOfBytes": "1"
					}
				}
			},
			"userdoc": {
				"kind": "user",
				"methods": {},
				"version": 1
			}
		}
	}
}