{
	"contracts/DeAnt3Token.sol": {
		"DeAnt3Token": {
			"abi": [
				{
					"anonymous": false,
					"inputs": [
						{
							"indexed": true,
							"internalType": "address",
							"name": "owner",
							"type": "address"
						},
						{
							"indexed": true,
							"internalType": "address",
							"name": "spender",
							"type": "address"
						},
						{
							"indexed": false,
							"internalType": "uint256",
							"name": "value",
							"type": "uint256"
						}
					],
					"name": "Approval",
					"type": "event"
				},
				{
					"anonymous": false,
					"inputs": [
						{
							"indexed": false,
							"internalType": "uint8",
							"name": "version",
							"type": "uint8"
						}
					],
					"name": "Initialized",
					"type": "event"
				},
				{
					"anonymous": false,
					"inputs": [
						{
							"indexed": true,
							"internalType": "address",
							"name": "previousOwner",
							"type": "address"
						},
						{
							"indexed": true,
							"internalType": "address",
							"name": "newOwner",
							"type": "address"
						}
					],
					"name": "OwnershipTransferred",
					"type": "event"
				},
				{
					"anonymous": false,
					"inputs": [
						{
							"indexed": true,
							"internalType": "address",
							"name": "from",
							"type": "address"
						},
						{
							"indexed": true,
							"internalType": "address",
							"name": "to",
							"type": "address"
						},
						{
							"indexed": false,
							"internalType": "uint256",
							"name": "value",
							"type": "uint256"
						}
					],
					"name": "Transfer",
					"type": "event"
				},
				{
					"inputs": [
						{
							"internalType": "address",
							"name": "",
							"type": "address"
						}
					],
					"name": "_mapSigners",
					"outputs": [
						{
							"internalType": "bool",
							"name": "",
							"type": "bool"
						}
					],
					"stateMutability": "view",
					"type": "function"
				},
				{
					"inputs": [
						{
							"internalType": "address",
							"name": "owner",
							"type": "address"
						},
						{
							"internalType": "address",
							"name": "spender",
							"type": "address"
						}
					],
					"name": "allowance",
					"outputs": [
						{
							"internalType": "uint256",
							"name": "",
							"type": "uint256"
						}
					],
					"stateMutability": "view",
					"type": "function"
				},
				{
					"inputs": [
						{
							"internalType": "address",
							"name": "spender",
							"type": "address"
						},
						{
							"internalType": "uint256",
							"name": "amount",
							"type": "uint256"
						}
					],
					"name": "approve",
					"outputs": [
						{
							"internalType": "bool",
							"name": "",
							"type": "bool"
						}
					],
					"stateMutability": "nonpayable",
					"type": "function"
				},
				{
					"inputs": [
						{
							"internalType": "address",
							"name": "account",
							"type": "address"
						}
					],
					"name": "balanceOf",
					"outputs": [
						{
							"internalType": "uint256",
							"name": "",
							"type": "uint256"
						}
					],
					"stateMutability": "view",
					"type": "function"
				},
				{
					"inputs": [],
					"name": "cap",
					"outputs": [
						{
							"internalType": "uint256",
							"name": "",
							"type": "uint256"
						}
					],
					"stateMutability": "view",
					"type": "function"
				},
				{
					"inputs": [],
					"name": "decimals",
					"outputs": [
						{
							"internalType": "uint8",
							"name": "",
							"type": "uint8"
						}
					],
					"stateMutability": "view",
					"type": "function"
				},
				{
					"inputs": [
						{
							"internalType": "address",
							"name": "spender",
							"type": "address"
						},
						{
							"internalType": "uint256",
							"name": "subtractedValue",
							"type": "uint256"
						}
					],
					"name": "decreaseAllowance",
					"outputs": [
						{
							"internalType": "bool",
							"name": "",
							"type": "bool"
						}
					],
					"stateMutability": "nonpayable",
					"type": "function"
				},
				{
					"inputs": [],
					"name": "getRewardAmt",
					"outputs": [
						{
							"internalType": "uint256",
							"name": "",
							"type": "uint256"
						}
					],
					"stateMutability": "view",
					"type": "function"
				},
				{
					"inputs": [],
					"name": "getTaxFee",
					"outputs": [
						{
							"internalType": "uint256",
							"name": "",
							"type": "uint256"
						}
					],
					"stateMutability": "view",
					"type": "function"
				},
				{
					"inputs": [
						{
							"internalType": "address",
							"name": "spender",
							"type": "address"
						},
						{
							"internalType": "uint256",
							"name": "addedValue",
							"type": "uint256"
						}
					],
					"name": "increaseAllowance",
					"outputs": [
						{
							"internalType": "bool",
							"name": "",
							"type": "bool"
						}
					],
					"stateMutability": "nonpayable",
					"type": "function"
				},
				{
					"inputs": [
						{
							"internalType": "string",
							"name": "_NAME",
							"type": "string"
						},
						{
							"internalType": "string",
							"name": "_SYMBOL",
							"type": "string"
						},
						{
							"internalType": "uint8",
							"name": "_DECIMALS",
							"type": "uint8"
						},
						{
							"internalType": "uint256",
							"name": "cap",
							"type": "uint256"
						},
						{
							"internalType": "uint256",
							"name": "initialBalance",
							"type": "uint256"
						},
						{
							"internalType": "uint256",
							"name": "taxFee",
							"type": "uint256"
						}
					],
					"name": "initialize",
					"outputs": [],
					"stateMutability": "nonpayable",
					"type": "function"
				},
				{
					"inputs": [
						{
							"internalType": "address",
							"name": "signer",
							"type": "address"
						}
					],
					"name": "mapSigner",
					"outputs": [
						{
							"internalType": "bool",
							"name": "",
							"type": "bool"
						}
					],
					"stateMutability": "view",
					"type": "function"
				},
				{
					"inputs": [],
					"name": "name",
					"outputs": [
						{
							"internalType": "string",
							"name": "",
							"type": "string"
						}
					],
					"stateMutability": "view",
					"type": "function"
				},
				{
					"inputs": [],
					"name": "owner",
					"outputs": [
						{
							"internalType": "address",
							"name": "",
							"type": "address"
						}
					],
					"stateMutability": "view",
					"type": "function"
				},
				{
					"inputs": [
						{
							"internalType": "address payable",
							"name": "recipient",
							"type": "address"
						},
						{
							"internalType": "uint256",
							"name": "uniqueId",
							"type": "uint256"
						},
						{
							"internalType": "uint256",
							"name": "amount",
							"type": "uint256"
						},
						{
							"internalType": "uint256",
							"name": "deadline",
							"type": "uint256"
						},
						{
							"internalType": "uint8[]",
							"name": "v",
							"type": "uint8[]"
						},
						{
							"internalType": "bytes32[]",
							"name": "r",
							"type": "bytes32[]"
						},
						{
							"internalType": "bytes32[]",
							"name": "s",
							"type": "bytes32[]"
						}
					],
					"name": "permitMint",
					"outputs": [],
					"stateMutability": "nonpayable",
					"type": "function"
				},
				{
					"inputs": [],
					"name": "renounceOwnership",
					"outputs": [],
					"stateMutability": "nonpayable",
					"type": "function"
				},
				{
					"inputs": [
						{
							"internalType": "uint256",
							"name": "_newAmt",
							"type": "uint256"
						}
					],
					"name": "setRewardAmtInWei",
					"outputs": [],
					"stateMutability": "nonpayable",
					"type": "function"
				},
				{
					"inputs": [
						{
							"internalType": "address[]",
							"name": "signers_",
							"type": "address[]"
						}
					],
					"name": "setSigners",
					"outputs": [],
					"stateMutability": "nonpayable",
					"type": "function"
				},
				{
					"inputs": [
						{
							"internalType": "uint256",
							"name": "_newTaxFee",
							"type": "uint256"
						}
					],
					"name": "setTaxFee",
					"outputs": [],
					"stateMutability": "nonpayable",
					"type": "function"
				},
				{
					"inputs": [],
					"name": "signers",
					"outputs": [
						{
							"internalType": "address[]",
							"name": "",
							"type": "address[]"
						}
					],
					"stateMutability": "view",
					"type": "function"
				},
				{
					"inputs": [],
					"name": "symbol",
					"outputs": [
						{
							"internalType": "string",
							"name": "",
							"type": "string"
						}
					],
					"stateMutability": "view",
					"type": "function"
				},
				{
					"inputs": [],
					"name": "totalBurned",
					"outputs": [
						{
							"internalType": "uint256",
							"name": "",
							"type": "uint256"
						}
					],
					"stateMutability": "view",
					"type": "function"
				},
				{
					"inputs": [],
					"name": "totalSupply",
					"outputs": [
						{
							"internalType": "uint256",
							"name": "",
							"type": "uint256"
						}
					],
					"stateMutability": "view",
					"type": "function"
				},
				{
					"inputs": [
						{
							"internalType": "address",
							"name": "recipient",
							"type": "address"
						},
						{
							"internalType": "uint256",
							"name": "amount",
							"type": "uint256"
						}
					],
					"name": "transfer",
					"outputs": [
						{
							"internalType": "bool",
							"name": "",
							"type": "bool"
						}
					],
					"stateMutability": "nonpayable",
					"type": "function"
				},
				{
					"inputs": [
						{
							"internalType": "address",
							"name": "from",
							"type": "address"
						},
						{
							"internalType": "address",
							"name": "to",
							"type": "address"
						},
						{
							"internalType": "uint256",
							"name": "amount",
							"type": "uint256"
						}
					],
					"name": "transferFrom",
					"outputs": [
						{
							"internalType": "bool",
							"name": "",
							"type": "bool"
						}
					],
					"stateMutability": "nonpayable",
					"type": "function"
				},
				{
					"inputs": [
						{
							"internalType": "address",
							"name": "newOwner",
							"type": "address"
						}
					],
					"name": "transferOwnership",
					"outputs": [],
					"stateMutability": "nonpayable",
					"type": "function"
				},
				{
					"inputs": [
						{
							"internalType": "uint256",
							"name": "",
							"type": "uint256"
						}
					],
					"name": "uniqueIdExists",
					"outputs": [
						{
							"internalType": "bool",
							"name": "",
							"type": "bool"
						}
					],
					"stateMutability": "view",
					"type": "function"
				},
				{
					"inputs": [
						{
							"internalType": "address",
							"name": "",
							"type": "address"
						}
					],
					"name": "userTotalBurned",
					"outputs": [
						{
							"internalType": "uint256",
							"name": "",
							"type": "uint256"
						}
					],
					"stateMutability": "view",
					"type": "function"
				},
				{
					"stateMutability": "payable",
					"type": "receive"
				}
			],
			"devdoc": {
				"kind": "dev",
				"methods": {
					"allowance(address,address)": {
						"details": "See {IERC20-allowance}."
					},
					"approve(address,uint256)": {
						"details": "See {IERC20-approve}. NOTE: If `amount` is the maximum `uint256`, the allowance is not updated on `transferFrom`. This is semantically equivalent to an infinite approval. Requirements: - `spender` cannot be the zero address."
					},
					"balanceOf(address)": {
						"details": "See {IERC20-balanceOf}."
					},
					"cap()": {
						"details": "Returns the cap on the token's total supply."
					},
					"decimals()": {
						"details": "Returns the number of decimals used to get its user representation. For example, if `decimals` equals `2`, a balance of `505` tokens should be displayed to a user as `5.05` (`505 / 10 ** 2`). Tokens usually opt for a value of 18, imitating the relationship between Ether and Wei. This is the value {ERC20} uses, unless this function is overridden; NOTE: This information is only used for _display_ purposes: it in no way affects any of the arithmetic of the contract, including {IERC20-balanceOf} and {IERC20-transfer}."
					},
					"decreaseAllowance(address,uint256)": {
						"details": "Atomically decreases the allowance granted to `spender` by the caller. This is an alternative to {approve} that can be used as a mitigation for problems described in {IERC20-approve}. Emits an {Approval} event indicating the updated allowance. Requirements: - `spender` cannot be the zero address. - `spender` must have allowance for the caller of at least `subtractedValue`."
					},
					"increaseAllowance(address,uint256)": {
						"details": "Atomically increases the allowance granted to `spender` by the caller. This is an alternative to {approve} that can be used as a mitigation for problems described in {IERC20-approve}. Emits an {Approval} event indicating the updated allowance. Requirements: - `spender` cannot be the zero address."
					},
					"name()": {
						"details": "Returns the name of the token."
					},
					"owner()": {
						"details": "Returns the address of the current owner."
					},
					"renounceOwnership()": {
						"details": "Leaves the contract without owner. It will not be possible to call `onlyOwner` functions anymore. Can only be called by the current owner. NOTE: Renouncing ownership will leave the contract without an owner, thereby removing any functionality that is only available to the owner."
					},
					"symbol()": {
						"details": "Returns the symbol of the token, usually a shorter version of the name."
					},
					"totalSupply()": {
						"details": "See {IERC20-totalSupply}."
					},
					"transferFrom(address,address,uint256)": {
						"details": "See {IERC20-transferFrom}. Emits an {Approval} event indicating the updated allowance. This is not required by the EIP. See the note at the beginning of {ERC20}. NOTE: Does not update the allowance if the current allowance is the maximum `uint256`. Requirements: - `from` and `to` cannot be the zero address. - `from` must have a balance of at least `amount`. - the caller must have allowance for ``from``'s tokens of at least `amount`."
					},
					"transferOwnership(address)": {
						"details": "Transfers ownership of the contract to a new account (`newOwner`). Can only be called by the current owner."
					}
				},
				"version": 1
			},
			"evm": {
				"assembly": "    /* \"contracts/DeAnt3Token.sol\":243:5613  contract DeAnt3Token is ERC20CappedUpgradeable, OwnableUpgradeable {\r... */\n  mstore(0x40, 0x80)\n  callvalue\n  dup1\n  iszero\n  tag_1\n  jumpi\n  0x00\n  dup1\n  revert\ntag_1:\n  pop\n  dataSize(sub_0)\n  dup1\n  dataOffset(sub_0)\n  0x00\n  codecopy\n  0x00\n  return\nstop\n\nsub_0: assembly {\n        /* \"contracts/DeAnt3Token.sol\":243:5613  contract DeAnt3Token is ERC20CappedUpgradeable, OwnableUpgradeable {\r... */\n      mstore(0x40, 0x80)\n      jumpi(tag_1, lt(calldatasize, 0x04))\n      shr(0xe0, calldataload(0x00))\n      dup1\n      0x8da5cb5b\n      gt\n      tag_31\n      jumpi\n      dup1\n      0xc4081a4c\n      gt\n      tag_32\n      jumpi\n      dup1\n      0xe4c97e6a\n      gt\n      tag_33\n      jumpi\n      dup1\n      0xe4c97e6a\n      eq\n      tag_27\n      jumpi\n      dup1\n      0xf2fde38b\n      eq\n      tag_28\n      jumpi\n      dup1\n      0xf66608fe\n      eq\n      tag_29\n      jumpi\n      dup1\n      0xf9342285\n      eq\n      tag_30\n      jumpi\n      0x00\n      dup1\n      revert\n    tag_33:\n      dup1\n      0xc4081a4c\n      eq\n      tag_24\n      jumpi\n      dup1\n      0xd89135cd\n      eq\n      tag_25\n      jumpi\n      dup1\n      0xdd62ed3e\n      eq\n      tag_26\n      jumpi\n      0x00\n      dup1\n      revert\n    tag_32:\n      dup1\n      0xa457c2d7\n      gt\n      tag_34\n      jumpi\n      dup1\n      0xa457c2d7\n      eq\n      tag_20\n      jumpi\n      dup1\n      0xa9059cbb\n      eq\n      tag_21\n      jumpi\n      dup1\n      0xac7fa3c6\n      eq\n      tag_22\n      jumpi\n      dup1\n      0xb24a0893\n      eq\n      tag_23\n      jumpi\n      0x00\n      dup1\n      revert\n    tag_34:\n      dup1\n      0x8da5cb5b\n      eq\n      tag_17\n      jumpi\n      dup1\n      0x95d89b41\n      eq\n      tag_18\n      jumpi\n      dup1\n      0xa3772662\n      eq\n      tag_19\n      jumpi\n      0x00\n      dup1\n      revert\n    tag_31:\n      dup1\n      0x313ce567\n      gt\n      tag_35\n      jumpi\n      dup1\n      0x3de47e32\n      gt\n      tag_36\n      jumpi\n      dup1\n      0x3de47e32\n      eq\n      tag_13\n      jumpi\n      dup1\n      0x46f0975a\n      eq\n      tag_14\n      jumpi\n      dup1\n      0x70a08231\n      eq\n      tag_15\n      jumpi\n      dup1\n      0x715018a6\n      eq\n      tag_16\n      jumpi\n      0x00\n      dup1\n      revert\n    tag_36:\n      dup1\n      0x313ce567\n      eq\n      tag_10\n      jumpi\n      dup1\n      0x355274ea\n      eq\n      tag_11\n      jumpi\n      dup1\n      0x39509351\n      eq\n      tag_12\n      jumpi\n      0x00\n      dup1\n      revert\n    tag_35:\n      dup1\n      0x18160ddd\n      gt\n      tag_37\n      jumpi\n      dup1\n      0x18160ddd\n      eq\n      tag_6\n      jumpi\n      dup1\n      0x1e0d4ce9\n      eq\n      tag_7\n      jumpi\n      dup1\n      0x23b872dd\n      eq\n      tag_8\n      jumpi\n      dup1\n      0x2b9a1d3c\n      eq\n      tag_9\n      jumpi\n      0x00\n      dup1\n      revert\n    tag_37:\n      dup1\n      0x06fdde03\n      eq\n      tag_3\n      jumpi\n      dup1\n      0x07c351dd\n      eq\n      tag_4\n      jumpi\n      dup1\n      0x095ea7b3\n      eq\n      tag_5\n      jumpi\n      0x00\n      dup1\n      revert\n    tag_1:\n      jumpi(tag_2, calldatasize)\n      stop\n    tag_2:\n      0x00\n      dup1\n      revert\n        /* \"@openzeppelin/contracts-upgradeable/token/ERC20/ERC20Upgradeable.sol\":2493:2591  function name() public view virtual override returns (string memory) {... */\n    tag_3:\n      callvalue\n      dup1\n      iszero\n      tag_40\n      jumpi\n      0x00\n      dup1\n      revert\n    tag_40:\n      pop\n      tag_41\n      tag_42\n      jump\t// in\n    tag_41:\n      mload(0x40)\n      tag_43\n      swap2\n      swap1\n      tag_44\n      jump\t// in\n    tag_43:\n      mload(0x40)\n      dup1\n      swap2\n      sub\n      swap1\n      return\n        /* \"contracts/DeAnt3Token.sol\":2178:2287  function mapSigner(address signer) external view returns (bool) {\r... */\n    tag_4:\n      callvalue\n      dup1\n      iszero\n      tag_45\n      jumpi\n      0x00\n      dup1\n      revert\n    tag_45:\n      pop\n      tag_46\n      tag_47\n      calldatasize\n      0x04\n      tag_48\n      jump\t// in\n    tag_47:\n      sub(shl(0xa0, 0x01), 0x01)\n        /* \"contracts/DeAnt3Token.sol\":2260:2279  _mapSigners[signer] */\n      and\n        /* \"contracts/DeAnt3Token.sol\":2236:2240  bool */\n      0x00\n        /* \"contracts/DeAnt3Token.sol\":2260:2279  _mapSigners[signer] */\n      swap1\n      dup2\n      mstore\n        /* \"contracts/DeAnt3Token.sol\":2260:2271  _mapSigners */\n      0xd2\n        /* \"contracts/DeAnt3Token.sol\":2260:2279  _mapSigners[signer] */\n      0x20\n      mstore\n      0x40\n      swap1\n      keccak256\n      sload\n      0xff\n      and\n      swap1\n        /* \"contracts/DeAnt3Token.sol\":2178:2287  function mapSigner(address signer) external view returns (bool) {\r... */\n      jump\n    tag_46:\n      mload(0x40)\n        /* \"#utility.yul\":8594:8608   */\n      swap1\n      iszero\n        /* \"#utility.yul\":8587:8609   */\n      iszero\n        /* \"#utility.yul\":8569:8610   */\n      dup2\n      mstore\n        /* \"#utility.yul\":8557:8559   */\n      0x20\n        /* \"#utility.yul\":8542:8560   */\n      add\n        /* \"contracts/DeAnt3Token.sol\":2178:2287  function mapSigner(address signer) external view returns (bool) {\r... */\n      tag_43\n        /* \"#utility.yul\":8429:8616   */\n      jump\n        /* \"@openzeppelin/contracts-upgradeable/token/ERC20/ERC20Upgradeable.sol\":4770:4967  function approve(address spender, uint256 amount) public virtual override returns (bool) {... */\n    tag_5:\n      callvalue\n      dup1\n      iszero\n      tag_52\n      jumpi\n      0x00\n      dup1\n      revert\n    tag_52:\n      pop\n      tag_46\n      tag_54\n      calldatasize\n      0x04\n      tag_55\n      jump\t// in\n    tag_54:\n      tag_56\n      jump\t// in\n        /* \"@openzeppelin/contracts-upgradeable/token/ERC20/ERC20Upgradeable.sol\":3581:3687  function totalSupply() public view virtual override returns (uint256) {... */\n    tag_6:\n      callvalue\n      dup1\n      iszero\n      tag_58\n      jumpi\n      0x00\n      dup1\n      revert\n    tag_58:\n      pop\n        /* \"@openzeppelin/contracts-upgradeable/token/ERC20/ERC20Upgradeable.sol\":3668:3680  _totalSupply */\n      sload(0x35)\n        /* \"@openzeppelin/contracts-upgradeable/token/ERC20/ERC20Upgradeable.sol\":3581:3687  function totalSupply() public view virtual override returns (uint256) {... */\n    tag_59:\n      mload(0x40)\n        /* \"#utility.yul\":17606:17631   */\n      swap1\n      dup2\n      mstore\n        /* \"#utility.yul\":17594:17596   */\n      0x20\n        /* \"#utility.yul\":17579:17597   */\n      add\n        /* \"@openzeppelin/contracts-upgradeable/token/ERC20/ERC20Upgradeable.sol\":3581:3687  function totalSupply() public view virtual override returns (uint256) {... */\n      tag_43\n        /* \"#utility.yul\":17460:17637   */\n      jump\n        /* \"contracts/DeAnt3Token.sol\":662:712  mapping(address => uint256) public userTotalBurned */\n    tag_7:\n      callvalue\n      dup1\n      iszero\n      tag_63\n      jumpi\n      0x00\n      dup1\n      revert\n    tag_63:\n      pop\n      tag_59\n      tag_65\n      calldatasize\n      0x04\n      tag_48\n      jump\t// in\n    tag_65:\n      mstore(0x20, 0xd4)\n      0x00\n      swap1\n      dup2\n      mstore\n      0x40\n      swap1\n      keccak256\n      sload\n      dup2\n      jump\n        /* \"contracts/DeAnt3Token.sol\":3017:3323  function transferFrom(\r... */\n    tag_8:\n      callvalue\n      dup1\n      iszero\n      tag_68\n      jumpi\n      0x00\n      dup1\n      revert\n    tag_68:\n      pop\n      tag_46\n      tag_70\n      calldatasize\n      0x04\n      tag_71\n      jump\t// in\n    tag_70:\n      tag_72\n      jump\t// in\n        /* \"contracts/DeAnt3Token.sol\":721:1271  function initialize(\r... */\n    tag_9:\n      callvalue\n      dup1\n      iszero\n      tag_74\n      jumpi\n      0x00\n      dup1\n      revert\n    tag_74:\n      pop\n      tag_75\n      tag_76\n      calldatasize\n      0x04\n      tag_77\n      jump\t// in\n    tag_76:\n      tag_78\n      jump\t// in\n    tag_75:\n      stop\n        /* \"contracts/DeAnt3Token.sol\":1316:1416  function decimals() public view virtual override returns (uint8) {\r... */\n    tag_10:\n      callvalue\n      dup1\n      iszero\n      tag_79\n      jumpi\n      0x00\n      dup1\n      revert\n    tag_79:\n      pop\n        /* \"contracts/DeAnt3Token.sol\":1399:1408  _decimals */\n      sload(0xcc)\n        /* \"contracts/DeAnt3Token.sol\":1316:1416  function decimals() public view virtual override returns (uint8) {\r... */\n      mload(0x40)\n        /* \"contracts/DeAnt3Token.sol\":1399:1408  _decimals */\n      0xff\n      swap1\n      swap2\n      and\n        /* \"#utility.yul\":9176:9212   */\n      dup2\n      mstore\n        /* \"#utility.yul\":9164:9166   */\n      0x20\n        /* \"#utility.yul\":9149:9167   */\n      add\n        /* \"contracts/DeAnt3Token.sol\":1316:1416  function decimals() public view virtual override returns (uint8) {\r... */\n      tag_43\n        /* \"#utility.yul\":9024:9218   */\n      jump\n        /* \"@openzeppelin/contracts-upgradeable/token/ERC20/extensions/ERC20CappedUpgradeable.sol\":929:1010  function cap() public view virtual returns (uint256) {... */\n    tag_11:\n      callvalue\n      dup1\n      iszero\n      tag_84\n      jumpi\n      0x00\n      dup1\n      revert\n    tag_84:\n      pop\n        /* \"@openzeppelin/contracts-upgradeable/token/ERC20/extensions/ERC20CappedUpgradeable.sol\":999:1003  _cap */\n      sload(0x65)\n        /* \"@openzeppelin/contracts-upgradeable/token/ERC20/extensions/ERC20CappedUpgradeable.sol\":929:1010  function cap() public view virtual returns (uint256) {... */\n      jump(tag_59)\n        /* \"@openzeppelin/contracts-upgradeable/token/ERC20/ERC20Upgradeable.sol\":6210:6444  function increaseAllowance(address spender, uint256 addedValue) public virtual returns (bool) {... */\n    tag_12:\n      callvalue\n      dup1\n      iszero\n      tag_88\n      jumpi\n      0x00\n      dup1\n      revert\n    tag_88:\n      pop\n      tag_46\n      tag_90\n      calldatasize\n      0x04\n      tag_55\n      jump\t// in\n    tag_90:\n      tag_91\n      jump\t// in\n        /* \"contracts/DeAnt3Token.sol\":559:602  mapping(address => bool) public _mapSigners */\n    tag_13:\n      callvalue\n      dup1\n      iszero\n      tag_93\n      jumpi\n      0x00\n      dup1\n      revert\n    tag_93:\n      pop\n      tag_46\n      tag_95\n      calldatasize\n      0x04\n      tag_48\n      jump\t// in\n    tag_95:\n      mstore(0x20, 0xd2)\n      0x00\n      swap1\n      dup2\n      mstore\n      0x40\n      swap1\n      keccak256\n      sload\n      0xff\n      and\n      dup2\n      jump\n        /* \"contracts/DeAnt3Token.sol\":1829:1923  function signers() external view returns (address[] memory) {\r... */\n    tag_14:\n      callvalue\n      dup1\n      iszero\n      tag_98\n      jumpi\n      0x00\n      dup1\n      revert\n    tag_98:\n      pop\n      tag_99\n      tag_100\n      jump\t// in\n    tag_99:\n      mload(0x40)\n      tag_43\n      swap2\n      swap1\n      tag_102\n      jump\t// in\n        /* \"@openzeppelin/contracts-upgradeable/token/ERC20/ERC20Upgradeable.sol\":3745:3870  function balanceOf(address account) public view virtual override returns (uint256) {... */\n    tag_15:\n      callvalue\n      dup1\n      iszero\n      tag_103\n      jumpi\n      0x00\n      dup1\n      revert\n    tag_103:\n      pop\n      tag_59\n      tag_105\n      calldatasize\n      0x04\n      tag_48\n      jump\t// in\n    tag_105:\n      sub(shl(0xa0, 0x01), 0x01)\n        /* \"@openzeppelin/contracts-upgradeable/token/ERC20/ERC20Upgradeable.sol\":3845:3863  _balances[account] */\n      and\n        /* \"@openzeppelin/contracts-upgradeable/token/ERC20/ERC20Upgradeable.sol\":3819:3826  uint256 */\n      0x00\n        /* \"@openzeppelin/contracts-upgradeable/token/ERC20/ERC20Upgradeable.sol\":3845:3863  _balances[account] */\n      swap1\n      dup2\n      mstore\n        /* \"@openzeppelin/contracts-upgradeable/token/ERC20/ERC20Upgradeable.sol\":3845:3854  _balances */\n      0x33\n        /* \"@openzeppelin/contracts-upgradeable/token/ERC20/ERC20Upgradeable.sol\":3845:3863  _balances[account] */\n      0x20\n      mstore\n      0x40\n      swap1\n      keccak256\n      sload\n      swap1\n        /* \"@openzeppelin/contracts-upgradeable/token/ERC20/ERC20Upgradeable.sol\":3745:3870  function balanceOf(address account) public view virtual override returns (uint256) {... */\n      jump\n        /* \"@openzeppelin/contracts-upgradeable/access/OwnableUpgradeable.sol\":2071:2172  function renounceOwnership() public virtual onlyOwner {... */\n    tag_16:\n      callvalue\n      dup1\n      iszero\n      tag_108\n      jumpi\n      0x00\n      dup1\n      revert\n    tag_108:\n      pop\n      tag_75\n      tag_110\n      jump\t// in\n        /* \"@openzeppelin/contracts-upgradeable/access/OwnableUpgradeable.sol\":1441:1526  function owner() public view virtual returns (address) {... */\n    tag_17:\n      callvalue\n      dup1\n      iszero\n      tag_111\n      jumpi\n      0x00\n      dup1\n      revert\n    tag_111:\n      pop\n        /* \"@openzeppelin/contracts-upgradeable/access/OwnableUpgradeable.sol\":1513:1519  _owner */\n      sload(0x98)\n        /* \"@openzeppelin/contracts-upgradeable/access/OwnableUpgradeable.sol\":1441:1526  function owner() public view virtual returns (address) {... */\n      mload(0x40)\n      sub(shl(0xa0, 0x01), 0x01)\n        /* \"@openzeppelin/contracts-upgradeable/access/OwnableUpgradeable.sol\":1513:1519  _owner */\n      swap1\n      swap2\n      and\n        /* \"#utility.yul\":7704:7755   */\n      dup2\n      mstore\n        /* \"#utility.yul\":7692:7694   */\n      0x20\n        /* \"#utility.yul\":7677:7695   */\n      add\n        /* \"@openzeppelin/contracts-upgradeable/access/OwnableUpgradeable.sol\":1441:1526  function owner() public view virtual returns (address) {... */\n      tag_43\n        /* \"#utility.yul\":7558:7761   */\n      jump\n        /* \"@openzeppelin/contracts-upgradeable/token/ERC20/ERC20Upgradeable.sol\":2704:2806  function symbol() public view virtual override returns (string memory) {... */\n    tag_18:\n      callvalue\n      dup1\n      iszero\n      tag_116\n      jumpi\n      0x00\n      dup1\n      revert\n    tag_116:\n      pop\n      tag_41\n      tag_118\n      jump\t// in\n        /* \"contracts/DeAnt3Token.sol\":1931:2170  function setSigners(address[] memory signers_) external virtual onlyOwner {\r... */\n    tag_19:\n      callvalue\n      dup1\n      iszero\n      tag_120\n      jumpi\n      0x00\n      dup1\n      revert\n    tag_120:\n      pop\n      tag_75\n      tag_122\n      calldatasize\n      0x04\n      tag_123\n      jump\t// in\n    tag_122:\n      tag_124\n      jump\t// in\n        /* \"@openzeppelin/contracts-upgradeable/token/ERC20/ERC20Upgradeable.sol\":6931:7358  function decreaseAllowance(address spender, uint256 subtractedValue) public virtual returns (bool) {... */\n    tag_20:\n      callvalue\n      dup1\n      iszero\n      tag_125\n      jumpi\n      0x00\n      dup1\n      revert\n    tag_125:\n      pop\n      tag_46\n      tag_127\n      calldatasize\n      0x04\n      tag_55\n      jump\t// in\n    tag_127:\n      tag_128\n      jump\t// in\n        /* \"contracts/DeAnt3Token.sol\":2544:3009  function transfer(address recipient, uint256 amount)\r... */\n    tag_21:\n      callvalue\n      dup1\n      iszero\n      tag_130\n      jumpi\n      0x00\n      dup1\n      revert\n    tag_130:\n      pop\n      tag_46\n      tag_132\n      calldatasize\n      0x04\n      tag_55\n      jump\t// in\n    tag_132:\n      tag_133\n      jump\t// in\n        /* \"contracts/DeAnt3Token.sol\":1424:1514  function getRewardAmt() public view returns (uint256) {\r... */\n    tag_22:\n      callvalue\n      dup1\n      iszero\n      tag_135\n      jumpi\n      0x00\n      dup1\n      revert\n    tag_135:\n      pop\n        /* \"contracts/DeAnt3Token.sol\":1496:1506  _rewardAmt */\n      sload(0xcd)\n        /* \"contracts/DeAnt3Token.sol\":1424:1514  function getRewardAmt() public view returns (uint256) {\r... */\n      jump(tag_59)\n        /* \"contracts/DeAnt3Token.sol\":1522:1624  function setRewardAmtInWei(uint256 _newAmt) external onlyOwner {\r... */\n    tag_23:\n      callvalue\n      dup1\n      iszero\n      tag_139\n      jumpi\n      0x00\n      dup1\n      revert\n    tag_139:\n      pop\n      tag_75\n      tag_141\n      calldatasize\n      0x04\n      tag_142\n      jump\t// in\n    tag_141:\n      tag_143\n      jump\t// in\n        /* \"contracts/DeAnt3Token.sol\":1724:1821  function setTaxFee(uint256 _newTaxFee) external onlyOwner {\r... */\n    tag_24:\n      callvalue\n      dup1\n      iszero\n      tag_144\n      jumpi\n      0x00\n      dup1\n      revert\n    tag_144:\n      pop\n      tag_75\n      tag_146\n      calldatasize\n      0x04\n      tag_142\n      jump\t// in\n    tag_146:\n      tag_147\n      jump\t// in\n        /* \"contracts/DeAnt3Token.sol\":493:519  uint256 public totalBurned */\n    tag_25:\n      callvalue\n      dup1\n      iszero\n      tag_148\n      jumpi\n      0x00\n      dup1\n      revert\n    tag_148:\n      pop\n      tag_59\n      sload(0xd0)\n      dup2\n      jump\n        /* \"@openzeppelin/contracts-upgradeable/token/ERC20/ERC20Upgradeable.sol\":4313:4462  function allowance(address owner, address spender) public view virtual override returns (uint256) {... */\n    tag_26:\n      callvalue\n      dup1\n      iszero\n      tag_152\n      jumpi\n      0x00\n      dup1\n      revert\n    tag_152:\n      pop\n      tag_59\n      tag_154\n      calldatasize\n      0x04\n      tag_155\n      jump\t// in\n    tag_154:\n      tag_156\n      jump\t// in\n        /* \"contracts/DeAnt3Token.sol\":3729:5132  function permitMint(\r... */\n    tag_27:\n      callvalue\n      dup1\n      iszero\n      tag_158\n      jumpi\n      0x00\n      dup1\n      revert\n    tag_158:\n      pop\n      tag_75\n      tag_160\n      calldatasize\n      0x04\n      tag_161\n      jump\t// in\n    tag_160:\n      tag_162\n      jump\t// in\n        /* \"@openzeppelin/contracts-upgradeable/access/OwnableUpgradeable.sol\":2321:2519  function transferOwnership(address newOwner) public virtual onlyOwner {... */\n    tag_28:\n      callvalue\n      dup1\n      iszero\n      tag_163\n      jumpi\n      0x00\n      dup1\n      revert\n    tag_163:\n      pop\n      tag_75\n      tag_165\n      calldatasize\n      0x04\n      tag_48\n      jump\t// in\n    tag_165:\n      tag_166\n      jump\t// in\n        /* \"contracts/DeAnt3Token.sol\":1632:1716  function getTaxFee() public view returns (uint256) {\r... */\n    tag_29:\n      callvalue\n      dup1\n      iszero\n      tag_167\n      jumpi\n      0x00\n      dup1\n      revert\n    tag_167:\n      pop\n        /* \"contracts/DeAnt3Token.sol\":1701:1708  _taxFee */\n      sload(0xcf)\n        /* \"contracts/DeAnt3Token.sol\":1632:1716  function getTaxFee() public view returns (uint256) {\r... */\n      jump(tag_59)\n        /* \"contracts/DeAnt3Token.sol\":609:655  mapping(uint256 => bool) public uniqueIdExists */\n    tag_30:\n      callvalue\n      dup1\n      iszero\n      tag_171\n      jumpi\n      0x00\n      dup1\n      revert\n    tag_171:\n      pop\n      tag_46\n      tag_173\n      calldatasize\n      0x04\n      tag_142\n      jump\t// in\n    tag_173:\n      mstore(0x20, 0xd3)\n      0x00\n      swap1\n      dup2\n      mstore\n      0x40\n      swap1\n      keccak256\n      sload\n      0xff\n      and\n      dup2\n      jump\n        /* \"@openzeppelin/contracts-upgradeable/token/ERC20/ERC20Upgradeable.sol\":2493:2591  function name() public view virtual override returns (string memory) {... */\n    tag_42:\n        /* \"@openzeppelin/contracts-upgradeable/token/ERC20/ERC20Upgradeable.sol\":2547:2560  string memory */\n      0x60\n        /* \"@openzeppelin/contracts-upgradeable/token/ERC20/ERC20Upgradeable.sol\":2579:2584  _name */\n      0x36\n        /* \"@openzeppelin/contracts-upgradeable/token/ERC20/ERC20Upgradeable.sol\":2572:2584  return _name */\n      dup1\n      sload\n      tag_177\n      swap1\n      tag_178\n      jump\t// in\n    tag_177:\n      dup1\n      0x1f\n      add\n      0x20\n      dup1\n      swap2\n      div\n      mul\n      0x20\n      add\n      mload(0x40)\n      swap1\n      dup2\n      add\n      0x40\n      mstore\n      dup1\n      swap3\n      swap2\n      swap1\n      dup2\n      dup2\n      mstore\n      0x20\n      add\n      dup3\n      dup1\n      sload\n      tag_179\n      swap1\n      tag_178\n      jump\t// in\n    tag_179:\n      dup1\n      iszero\n      tag_180\n      jumpi\n      dup1\n      0x1f\n      lt\n      tag_181\n      jumpi\n      0x0100\n      dup1\n      dup4\n      sload\n      div\n      mul\n      dup4\n      mstore\n      swap2\n      0x20\n      add\n      swap2\n      jump(tag_180)\n    tag_181:\n      dup3\n      add\n      swap2\n      swap1\n      0x00\n      mstore\n      keccak256(0x00, 0x20)\n      swap1\n    tag_182:\n      dup2\n      sload\n      dup2\n      mstore\n      swap1\n      0x01\n      add\n      swap1\n      0x20\n      add\n      dup1\n      dup4\n      gt\n      tag_182\n      jumpi\n      dup3\n      swap1\n      sub\n      0x1f\n      and\n      dup3\n      add\n      swap2\n    tag_180:\n      pop\n      pop\n      pop\n      pop\n      pop\n      swap1\n      pop\n        /* \"@openzeppelin/contracts-upgradeable/token/ERC20/ERC20Upgradeable.sol\":2493:2591  function name() public view virtual override returns (string memory) {... */\n      swap1\n      jump\t// out\n        /* \"@openzeppelin/contracts-upgradeable/token/ERC20/ERC20Upgradeable.sol\":4770:4967  function approve(address spender, uint256 amount) public virtual override returns (bool) {... */\n    tag_56:\n        /* \"@openzeppelin/contracts-upgradeable/token/ERC20/ERC20Upgradeable.sol\":4853:4857  bool */\n      0x00\n        /* \"@openzeppelin/contracts-upgradeable/utils/ContextUpgradeable.sol\":929:939  msg.sender */\n      caller\n        /* \"@openzeppelin/contracts-upgradeable/token/ERC20/ERC20Upgradeable.sol\":4907:4939  _approve(owner, spender, amount) */\n      tag_187\n        /* \"@openzeppelin/contracts-upgradeable/utils/ContextUpgradeable.sol\":929:939  msg.sender */\n      dup2\n        /* \"@openzeppelin/contracts-upgradeable/token/ERC20/ERC20Upgradeable.sol\":4923:4930  spender */\n      dup6\n        /* \"@openzeppelin/contracts-upgradeable/token/ERC20/ERC20Upgradeable.sol\":4932:4938  amount */\n      dup6\n        /* \"@openzeppelin/contracts-upgradeable/token/ERC20/ERC20Upgradeable.sol\":4907:4915  _approve */\n      tag_188\n        /* \"@openzeppelin/contracts-upgradeable/token/ERC20/ERC20Upgradeable.sol\":4907:4939  _approve(owner, spender, amount) */\n      jump\t// in\n    tag_187:\n        /* \"@openzeppelin/contracts-upgradeable/token/ERC20/ERC20Upgradeable.sol\":4956:4960  true */\n      0x01\n        /* \"@openzeppelin/contracts-upgradeable/token/ERC20/ERC20Upgradeable.sol\":4949:4960  return true */\n      swap2\n      pop\n      pop\n        /* \"@openzeppelin/contracts-upgradeable/token/ERC20/ERC20Upgradeable.sol\":4770:4967  function approve(address spender, uint256 amount) public virtual override returns (bool) {... */\n    tag_184:\n      swap3\n      swap2\n      pop\n      pop\n      jump\t// out\n        /* \"contracts/DeAnt3Token.sol\":3017:3323  function transferFrom(\r... */\n    tag_72:\n        /* \"contracts/DeAnt3Token.sol\":3148:3152  bool */\n      0x00\n        /* \"contracts/DeAnt3Token.sol\":3165:3179  uint256 newAmt */\n      dup1\n        /* \"contracts/DeAnt3Token.sol\":3182:3207  _calculateBurnAmt(amount) */\n      tag_191\n        /* \"contracts/DeAnt3Token.sol\":3200:3206  amount */\n      dup4\n        /* \"contracts/DeAnt3Token.sol\":3182:3199  _calculateBurnAmt */\n      tag_192\n        /* \"contracts/DeAnt3Token.sol\":3182:3207  _calculateBurnAmt(amount) */\n      jump\t// in\n    tag_191:\n        /* \"contracts/DeAnt3Token.sol\":3165:3207  uint256 newAmt = _calculateBurnAmt(amount) */\n      swap1\n      pop\n        /* \"contracts/DeAnt3Token.sol\":3218:3246  _burnAndUpdate(from, newAmt) */\n      tag_193\n        /* \"contracts/DeAnt3Token.sol\":3233:3237  from */\n      dup6\n        /* \"contracts/DeAnt3Token.sol\":3239:3245  newAmt */\n      dup3\n        /* \"contracts/DeAnt3Token.sol\":3218:3232  _burnAndUpdate */\n      tag_194\n        /* \"contracts/DeAnt3Token.sol\":3218:3246  _burnAndUpdate(from, newAmt) */\n      jump\t// in\n    tag_193:\n        /* \"contracts/DeAnt3Token.sol\":3257:3293  super.transferFrom(from, to, amount) */\n      tag_195\n        /* \"contracts/DeAnt3Token.sol\":3276:3280  from */\n      dup6\n        /* \"contracts/DeAnt3Token.sol\":3282:3284  to */\n      dup6\n        /* \"contracts/DeAnt3Token.sol\":3286:3292  amount */\n      dup6\n        /* \"contracts/DeAnt3Token.sol\":3257:3275  super.transferFrom */\n      tag_196\n        /* \"contracts/DeAnt3Token.sol\":3257:3293  super.transferFrom(from, to, amount) */\n      jump\t// in\n    tag_195:\n      pop\n        /* \"contracts/DeAnt3Token.sol\":3311:3315  true */\n      0x01\n      swap6\n        /* \"contracts/DeAnt3Token.sol\":3017:3323  function transferFrom(\r... */\n      swap5\n      pop\n      pop\n      pop\n      pop\n      pop\n      jump\t// out\n        /* \"contracts/DeAnt3Token.sol\":721:1271  function initialize(\r... */\n    tag_78:\n        /* \"@openzeppelin/contracts-upgradeable/proxy/utils/Initializable.sol\":3111:3130  bool isTopLevelCall */\n      0x00\n        /* \"@openzeppelin/contracts-upgradeable/proxy/utils/Initializable.sol\":3134:3147  _initializing */\n      sload\n      0x0100\n      swap1\n      div\n      0xff\n      and\n        /* \"@openzeppelin/contracts-upgradeable/proxy/utils/Initializable.sol\":3133:3147  !_initializing */\n      iszero\n      dup1\n        /* \"@openzeppelin/contracts-upgradeable/proxy/utils/Initializable.sol\":3179:3213  isTopLevelCall && _initialized < 1 */\n      dup1\n      iszero\n      tag_198\n      jumpi\n      pop\n        /* \"@openzeppelin/contracts-upgradeable/proxy/utils/Initializable.sol\":3197:3209  _initialized */\n      sload(0x00)\n        /* \"@openzeppelin/contracts-upgradeable/proxy/utils/Initializable.sol\":3212:3213  1 */\n      0x01\n        /* \"@openzeppelin/contracts-upgradeable/proxy/utils/Initializable.sol\":3197:3209  _initialized */\n      0xff\n      swap1\n      swap2\n      and\n        /* \"@openzeppelin/contracts-upgradeable/proxy/utils/Initializable.sol\":3197:3213  _initialized < 1 */\n      lt\n        /* \"@openzeppelin/contracts-upgradeable/proxy/utils/Initializable.sol\":3179:3213  isTopLevelCall && _initialized < 1 */\n    tag_198:\n        /* \"@openzeppelin/contracts-upgradeable/proxy/utils/Initializable.sol\":3178:3286  (isTopLevelCall && _initialized < 1) || (!AddressUpgradeable.isContract(address(this)) && _initialized == 1) */\n      dup1\n      tag_202\n      jumpi\n      pop\n        /* \"@openzeppelin/contracts-upgradeable/proxy/utils/Initializable.sol\":3258:3262  this */\n      address\n        /* \"@openzeppelin/contracts-upgradeable/utils/AddressUpgradeable.sol\":1476:1495  account.code.length */\n      extcodesize\n        /* \"@openzeppelin/contracts-upgradeable/utils/AddressUpgradeable.sol\":1476:1499  account.code.length > 0 */\n      iszero\n      dup1\n      iszero\n        /* \"@openzeppelin/contracts-upgradeable/proxy/utils/Initializable.sol\":3219:3285  !AddressUpgradeable.isContract(address(this)) && _initialized == 1 */\n      tag_202\n      jumpi\n      pop\n        /* \"@openzeppelin/contracts-upgradeable/proxy/utils/Initializable.sol\":3268:3280  _initialized */\n      and(0xff, sload(0x00))\n      0x01\n        /* \"@openzeppelin/contracts-upgradeable/proxy/utils/Initializable.sol\":3268:3285  _initialized == 1 */\n      eq\n        /* \"@openzeppelin/contracts-upgradeable/proxy/utils/Initializable.sol\":3219:3285  !AddressUpgradeable.isContract(address(this)) && _initialized == 1 */\n    tag_202:\n        /* \"@openzeppelin/contracts-upgradeable/proxy/utils/Initializable.sol\":3157:3358  require(... */\n      tag_203\n      jumpi\n      mload(0x40)\n      shl(0xe5, 0x461bcd)\n      dup2\n      mstore\n        /* \"#utility.yul\":13796:13798   */\n      0x20\n        /* \"@openzeppelin/contracts-upgradeable/proxy/utils/Initializable.sol\":3157:3358  require(... */\n      0x04\n      dup3\n      add\n        /* \"#utility.yul\":13778:13799   */\n      mstore\n        /* \"#utility.yul\":13835:13837   */\n      0x2e\n        /* \"#utility.yul\":13815:13833   */\n      0x24\n      dup3\n      add\n        /* \"#utility.yul\":13808:13838   */\n      mstore\n        /* \"#utility.yul\":13874:13908   */\n      0x496e697469616c697a61626c653a20636f6e747261637420697320616c726561\n        /* \"#utility.yul\":13854:13872   */\n      0x44\n      dup3\n      add\n        /* \"#utility.yul\":13847:13909   */\n      mstore\n      shl(0x92, 0x191e481a5b9a5d1a585b1a5e9959)\n        /* \"#utility.yul\":13925:13943   */\n      0x64\n      dup3\n      add\n        /* \"#utility.yul\":13918:13962   */\n      mstore\n        /* \"#utility.yul\":13979:13998   */\n      0x84\n      add\n        /* \"@openzeppelin/contracts-upgradeable/proxy/utils/Initializable.sol\":3157:3358  require(... */\n    tag_204:\n      mload(0x40)\n      dup1\n      swap2\n      sub\n      swap1\n      revert\n    tag_203:\n        /* \"@openzeppelin/contracts-upgradeable/proxy/utils/Initializable.sol\":3368:3380  _initialized */\n      0x00\n        /* \"@openzeppelin/contracts-upgradeable/proxy/utils/Initializable.sol\":3368:3384  _initialized = 1 */\n      dup1\n      sload\n      not(0xff)\n      and\n        /* \"@openzeppelin/contracts-upgradeable/proxy/utils/Initializable.sol\":3383:3384  1 */\n      0x01\n        /* \"@openzeppelin/contracts-upgradeable/proxy/utils/Initializable.sol\":3368:3384  _initialized = 1 */\n      or\n      swap1\n      sstore\n        /* \"@openzeppelin/contracts-upgradeable/proxy/utils/Initializable.sol\":3394:3459  if (isTopLevelCall) {... */\n      dup1\n      iszero\n      tag_206\n      jumpi\n        /* \"@openzeppelin/contracts-upgradeable/proxy/utils/Initializable.sol\":3428:3441  _initializing */\n      0x00\n        /* \"@openzeppelin/contracts-upgradeable/proxy/utils/Initializable.sol\":3428:3448  _initializing = true */\n      dup1\n      sload\n      not(0xff00)\n      and\n      0x0100\n      or\n      swap1\n      sstore\n        /* \"@openzeppelin/contracts-upgradeable/proxy/utils/Initializable.sol\":3394:3459  if (isTopLevelCall) {... */\n    tag_206:\n        /* \"contracts/DeAnt3Token.sol\":946:962  __Ownable_init() */\n      tag_208\n        /* \"contracts/DeAnt3Token.sol\":946:960  __Ownable_init */\n      tag_209\n        /* \"contracts/DeAnt3Token.sol\":946:962  __Ownable_init() */\n      jump\t// in\n    tag_208:\n        /* \"contracts/DeAnt3Token.sol\":973:1001  __ERC20_init(_NAME, _SYMBOL) */\n      tag_210\n        /* \"contracts/DeAnt3Token.sol\":986:991  _NAME */\n      dup8\n        /* \"contracts/DeAnt3Token.sol\":993:1000  _SYMBOL */\n      dup8\n        /* \"contracts/DeAnt3Token.sol\":973:985  __ERC20_init */\n      tag_211\n        /* \"contracts/DeAnt3Token.sol\":973:1001  __ERC20_init(_NAME, _SYMBOL) */\n      jump\t// in\n    tag_210:\n        /* \"contracts/DeAnt3Token.sol\":1012:1051  __ERC20Capped_init(cap * 10**_DECIMALS) */\n      tag_212\n        /* \"contracts/DeAnt3Token.sol\":1037:1050  10**_DECIMALS */\n      tag_213\n        /* \"contracts/DeAnt3Token.sol\":1041:1050  _DECIMALS */\n      dup7\n        /* \"contracts/DeAnt3Token.sol\":1037:1039  10 */\n      0x0a\n        /* \"contracts/DeAnt3Token.sol\":1037:1050  10**_DECIMALS */\n      tag_214\n      jump\t// in\n    tag_213:\n        /* \"contracts/DeAnt3Token.sol\":1031:1050  cap * 10**_DECIMALS */\n      tag_215\n      swap1\n        /* \"contracts/DeAnt3Token.sol\":1031:1034  cap */\n      dup7\n        /* \"contracts/DeAnt3Token.sol\":1031:1050  cap * 10**_DECIMALS */\n      tag_216\n      jump\t// in\n    tag_215:\n        /* \"contracts/DeAnt3Token.sol\":1012:1030  __ERC20Capped_init */\n      tag_217\n        /* \"contracts/DeAnt3Token.sol\":1012:1051  __ERC20Capped_init(cap * 10**_DECIMALS) */\n      jump\t// in\n    tag_212:\n        /* \"contracts/DeAnt3Token.sol\":1062:1075  _name = _NAME */\n      dup7\n      mload\n      tag_218\n      swap1\n        /* \"contracts/DeAnt3Token.sol\":1062:1067  _name */\n      0xca\n      swap1\n        /* \"contracts/DeAnt3Token.sol\":1062:1075  _name = _NAME */\n      0x20\n      dup11\n      add\n      swap1\n      tag_219\n      jump\t// in\n    tag_218:\n      pop\n        /* \"contracts/DeAnt3Token.sol\":1086:1103  _symbol = _SYMBOL */\n      dup6\n      mload\n      tag_220\n      swap1\n        /* \"contracts/DeAnt3Token.sol\":1086:1093  _symbol */\n      0xcb\n      swap1\n        /* \"contracts/DeAnt3Token.sol\":1086:1103  _symbol = _SYMBOL */\n      0x20\n      dup10\n      add\n      swap1\n      tag_219\n      jump\t// in\n    tag_220:\n      pop\n        /* \"contracts/DeAnt3Token.sol\":1114:1123  _decimals */\n      0xcc\n        /* \"contracts/DeAnt3Token.sol\":1114:1135  _decimals = _DECIMALS */\n      dup1\n      sload\n      not(0xff)\n      and\n      0xff\n      dup8\n      and\n      or\n      swap1\n      sstore\n        /* \"contracts/DeAnt3Token.sol\":1159:1168  0.1 ether */\n      0x016345785d8a0000\n        /* \"contracts/DeAnt3Token.sol\":1146:1156  _rewardAmt */\n      0xcd\n        /* \"contracts/DeAnt3Token.sol\":1146:1168  _rewardAmt = 0.1 ether */\n      sstore\n        /* \"contracts/DeAnt3Token.sol\":1179:1183  _cap */\n      0xce\n        /* \"contracts/DeAnt3Token.sol\":1179:1189  _cap = cap */\n      dup5\n      swap1\n      sstore\n        /* \"contracts/DeAnt3Token.sol\":1200:1207  _taxFee */\n      0xcf\n        /* \"contracts/DeAnt3Token.sol\":1200:1216  _taxFee = taxFee */\n      dup3\n      swap1\n      sstore\n        /* \"contracts/DeAnt3Token.sol\":1227:1263  _mint(address(this), initialBalance) */\n      tag_221\n        /* \"contracts/DeAnt3Token.sol\":1241:1245  this */\n      address\n        /* \"contracts/DeAnt3Token.sol\":1248:1262  initialBalance */\n      dup5\n        /* \"contracts/DeAnt3Token.sol\":1227:1232  _mint */\n      tag_222\n        /* \"contracts/DeAnt3Token.sol\":1227:1263  _mint(address(this), initialBalance) */\n      jump\t// in\n    tag_221:\n        /* \"@openzeppelin/contracts-upgradeable/proxy/utils/Initializable.sol\":3483:3497  isTopLevelCall */\n      dup1\n        /* \"@openzeppelin/contracts-upgradeable/proxy/utils/Initializable.sol\":3479:3578  if (isTopLevelCall) {... */\n      iszero\n      tag_223\n      jumpi\n        /* \"@openzeppelin/contracts-upgradeable/proxy/utils/Initializable.sol\":3529:3534  false */\n      0x00\n        /* \"@openzeppelin/contracts-upgradeable/proxy/utils/Initializable.sol\":3513:3534  _initializing = false */\n      dup1\n      sload\n      not(0xff00)\n      and\n      swap1\n      sstore\n        /* \"@openzeppelin/contracts-upgradeable/proxy/utils/Initializable.sol\":3553:3567  Initialized(1) */\n      mload(0x40)\n      0x01\n        /* \"#utility.yul\":9176:9212   */\n      dup2\n      mstore\n        /* \"@openzeppelin/contracts-upgradeable/proxy/utils/Initializable.sol\":3553:3567  Initialized(1) */\n      0x7f26b83ff96e1f2b6a682f133852f6798a09c465da95921460cefb3847402498\n      swap1\n        /* \"#utility.yul\":9164:9166   */\n      0x20\n        /* \"#utility.yul\":9149:9167   */\n      add\n        /* \"@openzeppelin/contracts-upgradeable/proxy/utils/Initializable.sol\":3553:3567  Initialized(1) */\n      mload(0x40)\n      dup1\n      swap2\n      sub\n      swap1\n      log1\n        /* \"@openzeppelin/contracts-upgradeable/proxy/utils/Initializable.sol\":3479:3578  if (isTopLevelCall) {... */\n    tag_223:\n        /* \"@openzeppelin/contracts-upgradeable/proxy/utils/Initializable.sol\":3101:3584  {... */\n      pop\n        /* \"contracts/DeAnt3Token.sol\":721:1271  function initialize(\r... */\n      pop\n      pop\n      pop\n      pop\n      pop\n      pop\n      jump\t// out\n        /* \"@openzeppelin/contracts-upgradeable/token/ERC20/ERC20Upgradeable.sol\":6210:6444  function increaseAllowance(address spender, uint256 addedValue) public virtual returns (bool) {... */\n    tag_91:\n        /* \"@openzeppelin/contracts-upgradeable/token/ERC20/ERC20Upgradeable.sol\":6298:6302  bool */\n      0x00\n        /* \"@openzeppelin/contracts-upgradeable/utils/ContextUpgradeable.sol\":929:939  msg.sender */\n      caller\n        /* \"@openzeppelin/contracts-upgradeable/token/ERC20/ERC20Upgradeable.sol\":6352:6416  _approve(owner, spender, allowance(owner, spender) + addedValue) */\n      tag_187\n        /* \"@openzeppelin/contracts-upgradeable/utils/ContextUpgradeable.sol\":929:939  msg.sender */\n      dup2\n        /* \"@openzeppelin/contracts-upgradeable/token/ERC20/ERC20Upgradeable.sol\":6368:6375  spender */\n      dup6\n        /* \"@openzeppelin/contracts-upgradeable/token/ERC20/ERC20Upgradeable.sol\":6405:6415  addedValue */\n      dup6\n        /* \"@openzeppelin/contracts-upgradeable/token/ERC20/ERC20Upgradeable.sol\":6377:6402  allowance(owner, spender) */\n      tag_231\n        /* \"@openzeppelin/contracts-upgradeable/utils/ContextUpgradeable.sol\":929:939  msg.sender */\n      dup4\n        /* \"@openzeppelin/contracts-upgradeable/token/ERC20/ERC20Upgradeable.sol\":6368:6375  spender */\n      dup4\n        /* \"@openzeppelin/contracts-upgradeable/token/ERC20/ERC20Upgradeable.sol\":6377:6386  allowance */\n      tag_156\n        /* \"@openzeppelin/contracts-upgradeable/token/ERC20/ERC20Upgradeable.sol\":6377:6402  allowance(owner, spender) */\n      jump\t// in\n    tag_231:\n        /* \"@openzeppelin/contracts-upgradeable/token/ERC20/ERC20Upgradeable.sol\":6377:6415  allowance(owner, spender) + addedValue */\n      tag_232\n      swap2\n      swap1\n      tag_233\n      jump\t// in\n    tag_232:\n        /* \"@openzeppelin/contracts-upgradeable/token/ERC20/ERC20Upgradeable.sol\":6352:6360  _approve */\n      tag_188\n        /* \"@openzeppelin/contracts-upgradeable/token/ERC20/ERC20Upgradeable.sol\":6352:6416  _approve(owner, spender, allowance(owner, spender) + addedValue) */\n      jump\t// in\n        /* \"contracts/DeAnt3Token.sol\":1829:1923  function signers() external view returns (address[] memory) {\r... */\n    tag_100:\n        /* \"contracts/DeAnt3Token.sol\":1871:1887  address[] memory */\n      0x60\n        /* \"contracts/DeAnt3Token.sol\":1907:1915  _signers */\n      0xd1\n        /* \"contracts/DeAnt3Token.sol\":1900:1915  return _signers */\n      dup1\n      sload\n      dup1\n      0x20\n      mul\n      0x20\n      add\n      mload(0x40)\n      swap1\n      dup2\n      add\n      0x40\n      mstore\n      dup1\n      swap3\n      swap2\n      swap1\n      dup2\n      dup2\n      mstore\n      0x20\n      add\n      dup3\n      dup1\n      sload\n      dup1\n      iszero\n      tag_180\n      jumpi\n      0x20\n      mul\n      dup3\n      add\n      swap2\n      swap1\n      0x00\n      mstore\n      keccak256(0x00, 0x20)\n      swap1\n    tag_236:\n      dup2\n      sload\n      sub(shl(0xa0, 0x01), 0x01)\n      and\n      dup2\n      mstore\n      0x01\n      swap1\n      swap2\n      add\n      swap1\n      0x20\n      add\n      dup1\n      dup4\n      gt\n      tag_236\n      jumpi\n      pop\n      pop\n      pop\n      pop\n      pop\n      swap1\n      pop\n        /* \"contracts/DeAnt3Token.sol\":1829:1923  function signers() external view returns (address[] memory) {\r... */\n      swap1\n      jump\t// out\n        /* \"@openzeppelin/contracts-upgradeable/access/OwnableUpgradeable.sol\":2071:2172  function renounceOwnership() public virtual onlyOwner {... */\n    tag_110:\n        /* \"@openzeppelin/contracts-upgradeable/access/OwnableUpgradeable.sol\":1334:1347  _checkOwner() */\n      tag_239\n        /* \"@openzeppelin/contracts-upgradeable/access/OwnableUpgradeable.sol\":1334:1345  _checkOwner */\n      tag_240\n        /* \"@openzeppelin/contracts-upgradeable/access/OwnableUpgradeable.sol\":1334:1347  _checkOwner() */\n      jump\t// in\n    tag_239:\n        /* \"@openzeppelin/contracts-upgradeable/access/OwnableUpgradeable.sol\":2135:2165  _transferOwnership(address(0)) */\n      tag_242\n        /* \"@openzeppelin/contracts-upgradeable/access/OwnableUpgradeable.sol\":2162:2163  0 */\n      0x00\n        /* \"@openzeppelin/contracts-upgradeable/access/OwnableUpgradeable.sol\":2135:2153  _transferOwnership */\n      tag_243\n        /* \"@openzeppelin/contracts-upgradeable/access/OwnableUpgradeable.sol\":2135:2165  _transferOwnership(address(0)) */\n      jump\t// in\n    tag_242:\n        /* \"@openzeppelin/contracts-upgradeable/access/OwnableUpgradeable.sol\":2071:2172  function renounceOwnership() public virtual onlyOwner {... */\n      jump\t// out\n        /* \"@openzeppelin/contracts-upgradeable/token/ERC20/ERC20Upgradeable.sol\":2704:2806  function symbol() public view virtual override returns (string memory) {... */\n    tag_118:\n        /* \"@openzeppelin/contracts-upgradeable/token/ERC20/ERC20Upgradeable.sol\":2760:2773  string memory */\n      0x60\n        /* \"@openzeppelin/contracts-upgradeable/token/ERC20/ERC20Upgradeable.sol\":2792:2799  _symbol */\n      0x37\n        /* \"@openzeppelin/contracts-upgradeable/token/ERC20/ERC20Upgradeable.sol\":2785:2799  return _symbol */\n      dup1\n      sload\n      tag_177\n      swap1\n      tag_178\n      jump\t// in\n        /* \"contracts/DeAnt3Token.sol\":1931:2170  function setSigners(address[] memory signers_) external virtual onlyOwner {\r... */\n    tag_124:\n        /* \"@openzeppelin/contracts-upgradeable/access/OwnableUpgradeable.sol\":1334:1347  _checkOwner() */\n      tag_252\n        /* \"@openzeppelin/contracts-upgradeable/access/OwnableUpgradeable.sol\":1334:1345  _checkOwner */\n      tag_240\n        /* \"@openzeppelin/contracts-upgradeable/access/OwnableUpgradeable.sol\":1334:1347  _checkOwner() */\n      jump\t// in\n    tag_252:\n        /* \"contracts/DeAnt3Token.sol\":2016:2056  _updateMap(_signers, false, _mapSigners) */\n      tag_254\n        /* \"contracts/DeAnt3Token.sol\":2027:2035  _signers */\n      0xd1\n        /* \"contracts/DeAnt3Token.sol\":2016:2056  _updateMap(_signers, false, _mapSigners) */\n      dup1\n      sload\n      dup1\n      0x20\n      mul\n      0x20\n      add\n      mload(0x40)\n      swap1\n      dup2\n      add\n      0x40\n      mstore\n      dup1\n      swap3\n      swap2\n      swap1\n      dup2\n      dup2\n      mstore\n      0x20\n      add\n      dup3\n      dup1\n      sload\n      dup1\n      iszero\n      tag_255\n      jumpi\n      0x20\n      mul\n      dup3\n      add\n      swap2\n      swap1\n      0x00\n      mstore\n      keccak256(0x00, 0x20)\n      swap1\n    tag_256:\n      dup2\n      sload\n      sub(shl(0xa0, 0x01), 0x01)\n      and\n      dup2\n      mstore\n      0x01\n      swap1\n      swap2\n      add\n      swap1\n      0x20\n      add\n      dup1\n      dup4\n      gt\n      tag_256\n      jumpi\n    tag_255:\n      pop\n      pop\n      pop\n      pop\n      pop\n        /* \"contracts/DeAnt3Token.sol\":2037:2042  false */\n      0x00\n        /* \"contracts/DeAnt3Token.sol\":2044:2055  _mapSigners */\n      0xd2\n        /* \"contracts/DeAnt3Token.sol\":2016:2026  _updateMap */\n      tag_257\n        /* \"contracts/DeAnt3Token.sol\":2016:2056  _updateMap(_signers, false, _mapSigners) */\n      jump\t// in\n    tag_254:\n        /* \"contracts/DeAnt3Token.sol\":2067:2082  delete _signers */\n      tag_258\n        /* \"contracts/DeAnt3Token.sol\":2074:2082  _signers */\n      0xd1\n      0x00\n        /* \"contracts/DeAnt3Token.sol\":2067:2082  delete _signers */\n      tag_259\n      jump\t// in\n    tag_258:\n        /* \"contracts/DeAnt3Token.sol\":2093:2112  _signers = signers_ */\n      dup1\n      mload\n      tag_260\n      swap1\n        /* \"contracts/DeAnt3Token.sol\":2093:2101  _signers */\n      0xd1\n      swap1\n        /* \"contracts/DeAnt3Token.sol\":2093:2112  _signers = signers_ */\n      0x20\n      dup5\n      add\n      swap1\n      tag_261\n      jump\t// in\n    tag_260:\n      pop\n        /* \"contracts/DeAnt3Token.sol\":2123:2162  _updateMap(signers_, true, _mapSigners) */\n      tag_262\n        /* \"contracts/DeAnt3Token.sol\":2134:2142  signers_ */\n      dup2\n        /* \"contracts/DeAnt3Token.sol\":2144:2148  true */\n      0x01\n        /* \"contracts/DeAnt3Token.sol\":2150:2161  _mapSigners */\n      0xd2\n        /* \"contracts/DeAnt3Token.sol\":2123:2133  _updateMap */\n      tag_257\n        /* \"contracts/DeAnt3Token.sol\":2123:2162  _updateMap(signers_, true, _mapSigners) */\n      jump\t// in\n    tag_262:\n        /* \"contracts/DeAnt3Token.sol\":1931:2170  function setSigners(address[] memory signers_) external virtual onlyOwner {\r... */\n      pop\n      jump\t// out\n        /* \"@openzeppelin/contracts-upgradeable/token/ERC20/ERC20Upgradeable.sol\":6931:7358  function decreaseAllowance(address spender, uint256 subtractedValue) public virtual returns (bool) {... */\n    tag_128:\n        /* \"@openzeppelin/contracts-upgradeable/token/ERC20/ERC20Upgradeable.sol\":7024:7028  bool */\n      0x00\n        /* \"@openzeppelin/contracts-upgradeable/utils/ContextUpgradeable.sol\":929:939  msg.sender */\n      caller\n        /* \"@openzeppelin/contracts-upgradeable/token/ERC20/ERC20Upgradeable.sol\":7024:7028  bool */\n      dup2\n        /* \"@openzeppelin/contracts-upgradeable/token/ERC20/ERC20Upgradeable.sol\":7105:7130  allowance(owner, spender) */\n      tag_265\n        /* \"@openzeppelin/contracts-upgradeable/utils/ContextUpgradeable.sol\":929:939  msg.sender */\n      dup3\n        /* \"@openzeppelin/contracts-upgradeable/token/ERC20/ERC20Upgradeable.sol\":7122:7129  spender */\n      dup7\n        /* \"@openzeppelin/contracts-upgradeable/token/ERC20/ERC20Upgradeable.sol\":7105:7114  allowance */\n      tag_156\n        /* \"@openzeppelin/contracts-upgradeable/token/ERC20/ERC20Upgradeable.sol\":7105:7130  allowance(owner, spender) */\n      jump\t// in\n    tag_265:\n        /* \"@openzeppelin/contracts-upgradeable/token/ERC20/ERC20Upgradeable.sol\":7078:7130  uint256 currentAllowance = allowance(owner, spender) */\n      swap1\n      pop\n        /* \"@openzeppelin/contracts-upgradeable/token/ERC20/ERC20Upgradeable.sol\":7168:7183  subtractedValue */\n      dup4\n        /* \"@openzeppelin/contracts-upgradeable/token/ERC20/ERC20Upgradeable.sol\":7148:7164  currentAllowance */\n      dup2\n        /* \"@openzeppelin/contracts-upgradeable/token/ERC20/ERC20Upgradeable.sol\":7148:7183  currentAllowance >= subtractedValue */\n      lt\n      iszero\n        /* \"@openzeppelin/contracts-upgradeable/token/ERC20/ERC20Upgradeable.sol\":7140:7225  require(currentAllowance >= subtractedValue, \"ERC20: decreased allowance below zero\") */\n      tag_266\n      jumpi\n      mload(0x40)\n      shl(0xe5, 0x461bcd)\n      dup2\n      mstore\n        /* \"#utility.yul\":16896:16898   */\n      0x20\n        /* \"@openzeppelin/contracts-upgradeable/token/ERC20/ERC20Upgradeable.sol\":7140:7225  require(currentAllowance >= subtractedValue, \"ERC20: decreased allowance below zero\") */\n      0x04\n      dup3\n      add\n        /* \"#utility.yul\":16878:16899   */\n      mstore\n        /* \"#utility.yul\":16935:16937   */\n      0x25\n        /* \"#utility.yul\":16915:16933   */\n      0x24\n      dup3\n      add\n        /* \"#utility.yul\":16908:16938   */\n      mstore\n        /* \"#utility.yul\":16974:17008   */\n      0x45524332303a2064656372656173656420616c6c6f77616e63652062656c6f77\n        /* \"#utility.yul\":16954:16972   */\n      0x44\n      dup3\n      add\n        /* \"#utility.yul\":16947:17009   */\n      mstore\n      shl(0xd8, 0x207a65726f)\n        /* \"#utility.yul\":17025:17043   */\n      0x64\n      dup3\n      add\n        /* \"#utility.yul\":17018:17053   */\n      mstore\n        /* \"#utility.yul\":17070:17089   */\n      0x84\n      add\n        /* \"@openzeppelin/contracts-upgradeable/token/ERC20/ERC20Upgradeable.sol\":7140:7225  require(currentAllowance >= subtractedValue, \"ERC20: decreased allowance below zero\") */\n      tag_204\n        /* \"#utility.yul\":16694:17095   */\n      jump\n        /* \"@openzeppelin/contracts-upgradeable/token/ERC20/ERC20Upgradeable.sol\":7140:7225  require(currentAllowance >= subtractedValue, \"ERC20: decreased allowance below zero\") */\n    tag_266:\n        /* \"@openzeppelin/contracts-upgradeable/token/ERC20/ERC20Upgradeable.sol\":7259:7319  _approve(owner, spender, currentAllowance - subtractedValue) */\n      tag_269\n        /* \"@openzeppelin/contracts-upgradeable/token/ERC20/ERC20Upgradeable.sol\":7268:7273  owner */\n      dup3\n        /* \"@openzeppelin/contracts-upgradeable/token/ERC20/ERC20Upgradeable.sol\":7275:7282  spender */\n      dup7\n        /* \"@openzeppelin/contracts-upgradeable/token/ERC20/ERC20Upgradeable.sol\":7303:7318  subtractedValue */\n      dup7\n        /* \"@openzeppelin/contracts-upgradeable/token/ERC20/ERC20Upgradeable.sol\":7284:7300  currentAllowance */\n      dup5\n        /* \"@openzeppelin/contracts-upgradeable/token/ERC20/ERC20Upgradeable.sol\":7284:7318  currentAllowance - subtractedValue */\n      sub\n        /* \"@openzeppelin/contracts-upgradeable/token/ERC20/ERC20Upgradeable.sol\":7259:7267  _approve */\n      tag_188\n        /* \"@openzeppelin/contracts-upgradeable/token/ERC20/ERC20Upgradeable.sol\":7259:7319  _approve(owner, spender, currentAllowance - subtractedValue) */\n      jump\t// in\n    tag_269:\n      pop\n        /* \"@openzeppelin/contracts-upgradeable/token/ERC20/ERC20Upgradeable.sol\":7347:7351  true */\n      0x01\n      swap5\n        /* \"@openzeppelin/contracts-upgradeable/token/ERC20/ERC20Upgradeable.sol\":6931:7358  function decreaseAllowance(address spender, uint256 subtractedValue) public virtual returns (bool) {... */\n      swap4\n      pop\n      pop\n      pop\n      pop\n      jump\t// out\n        /* \"contracts/DeAnt3Token.sol\":2544:3009  function transfer(address recipient, uint256 amount)\r... */\n    tag_133:\n        /* \"contracts/DeAnt3Token.sol\":2649:2653  bool */\n      0x00\n        /* \"contracts/DeAnt3Token.sol\":2689:2696  owner() */\n      tag_271\n        /* \"@openzeppelin/contracts-upgradeable/access/OwnableUpgradeable.sol\":1513:1519  _owner */\n      and(sub(shl(0xa0, 0x01), 0x01), sload(0x98))\n      swap1\n        /* \"@openzeppelin/contracts-upgradeable/access/OwnableUpgradeable.sol\":1441:1526  function owner() public view virtual returns (address) {... */\n      jump\n        /* \"contracts/DeAnt3Token.sol\":2689:2696  owner() */\n    tag_271:\n      sub(shl(0xa0, 0x01), 0x01)\n        /* \"contracts/DeAnt3Token.sol\":2675:2696  msg.sender == owner() */\n      and\n        /* \"contracts/DeAnt3Token.sol\":2675:2685  msg.sender */\n      caller\n      sub(shl(0xa0, 0x01), 0x01)\n        /* \"contracts/DeAnt3Token.sol\":2675:2696  msg.sender == owner() */\n      and\n      eq\n        /* \"contracts/DeAnt3Token.sol\":2671:2980  if (msg.sender == owner()) {\r... */\n      iszero\n      tag_272\n      jumpi\n        /* \"contracts/DeAnt3Token.sol\":2713:2746  super.transfer(recipient, amount) */\n      tag_273\n        /* \"contracts/DeAnt3Token.sol\":2728:2737  recipient */\n      dup4\n        /* \"contracts/DeAnt3Token.sol\":2739:2745  amount */\n      dup4\n        /* \"contracts/DeAnt3Token.sol\":2713:2727  super.transfer */\n      tag_274\n        /* \"contracts/DeAnt3Token.sol\":2713:2746  super.transfer(recipient, amount) */\n      jump\t// in\n    tag_273:\n      pop\n        /* \"contracts/DeAnt3Token.sol\":2671:2980  if (msg.sender == owner()) {\r... */\n      jump(tag_275)\n    tag_272:\n        /* \"contracts/DeAnt3Token.sol\":2779:2794  uint256 burnAmt */\n      0x00\n        /* \"contracts/DeAnt3Token.sol\":2797:2822  _calculateBurnAmt(amount) */\n      tag_276\n        /* \"contracts/DeAnt3Token.sol\":2815:2821  amount */\n      dup4\n        /* \"contracts/DeAnt3Token.sol\":2797:2814  _calculateBurnAmt */\n      tag_192\n        /* \"contracts/DeAnt3Token.sol\":2797:2822  _calculateBurnAmt(amount) */\n      jump\t// in\n    tag_276:\n        /* \"contracts/DeAnt3Token.sol\":2779:2822  uint256 burnAmt = _calculateBurnAmt(amount) */\n      swap1\n      pop\n        /* \"contracts/DeAnt3Token.sol\":2837:2872  _burnAndUpdate(msg.sender, burnAmt) */\n      tag_277\n        /* \"contracts/DeAnt3Token.sol\":2852:2862  msg.sender */\n      caller\n        /* \"contracts/DeAnt3Token.sol\":2864:2871  burnAmt */\n      dup3\n        /* \"contracts/DeAnt3Token.sol\":2837:2851  _burnAndUpdate */\n      tag_194\n        /* \"contracts/DeAnt3Token.sol\":2837:2872  _burnAndUpdate(msg.sender, burnAmt) */\n      jump\t// in\n    tag_277:\n        /* \"contracts/DeAnt3Token.sol\":2887:2901  uint256 newAmt */\n      0x00\n        /* \"contracts/DeAnt3Token.sol\":2904:2920  amount - burnAmt */\n      tag_278\n        /* \"contracts/DeAnt3Token.sol\":2913:2920  burnAmt */\n      dup3\n        /* \"contracts/DeAnt3Token.sol\":2904:2910  amount */\n      dup6\n        /* \"contracts/DeAnt3Token.sol\":2904:2920  amount - burnAmt */\n      tag_279\n      jump\t// in\n    tag_278:\n        /* \"contracts/DeAnt3Token.sol\":2887:2920  uint256 newAmt = amount - burnAmt */\n      swap1\n      pop\n        /* \"contracts/DeAnt3Token.sol\":2935:2968  super.transfer(recipient, newAmt) */\n      tag_280\n        /* \"contracts/DeAnt3Token.sol\":2950:2959  recipient */\n      dup6\n        /* \"contracts/DeAnt3Token.sol\":2961:2967  newAmt */\n      dup3\n        /* \"contracts/DeAnt3Token.sol\":2935:2949  super.transfer */\n      tag_274\n        /* \"contracts/DeAnt3Token.sol\":2935:2968  super.transfer(recipient, newAmt) */\n      jump\t// in\n    tag_280:\n      pop\n        /* \"contracts/DeAnt3Token.sol\":2764:2980  {\r... */\n      pop\n      pop\n        /* \"contracts/DeAnt3Token.sol\":2671:2980  if (msg.sender == owner()) {\r... */\n    tag_275:\n      pop\n        /* \"contracts/DeAnt3Token.sol\":2997:3001  true */\n      0x01\n        /* \"contracts/DeAnt3Token.sol\":2544:3009  function transfer(address recipient, uint256 amount)\r... */\n      swap3\n      swap2\n      pop\n      pop\n      jump\t// out\n        /* \"contracts/DeAnt3Token.sol\":1522:1624  function setRewardAmtInWei(uint256 _newAmt) external onlyOwner {\r... */\n    tag_143:\n        /* \"@openzeppelin/contracts-upgradeable/access/OwnableUpgradeable.sol\":1334:1347  _checkOwner() */\n      tag_283\n        /* \"@openzeppelin/contracts-upgradeable/access/OwnableUpgradeable.sol\":1334:1345  _checkOwner */\n      tag_240\n        /* \"@openzeppelin/contracts-upgradeable/access/OwnableUpgradeable.sol\":1334:1347  _checkOwner() */\n      jump\t// in\n    tag_283:\n        /* \"contracts/DeAnt3Token.sol\":1596:1606  _rewardAmt */\n      0xcd\n        /* \"contracts/DeAnt3Token.sol\":1596:1616  _rewardAmt = _newAmt */\n      sstore\n        /* \"contracts/DeAnt3Token.sol\":1522:1624  function setRewardAmtInWei(uint256 _newAmt) external onlyOwner {\r... */\n      jump\t// out\n        /* \"contracts/DeAnt3Token.sol\":1724:1821  function setTaxFee(uint256 _newTaxFee) external onlyOwner {\r... */\n    tag_147:\n        /* \"@openzeppelin/contracts-upgradeable/access/OwnableUpgradeable.sol\":1334:1347  _checkOwner() */\n      tag_286\n        /* \"@openzeppelin/contracts-upgradeable/access/OwnableUpgradeable.sol\":1334:1345  _checkOwner */\n      tag_240\n        /* \"@openzeppelin/contracts-upgradeable/access/OwnableUpgradeable.sol\":1334:1347  _checkOwner() */\n      jump\t// in\n    tag_286:\n        /* \"contracts/DeAnt3Token.sol\":1793:1800  _taxFee */\n      0xcf\n        /* \"contracts/DeAnt3Token.sol\":1793:1813  _taxFee = _newTaxFee */\n      sstore\n        /* \"contracts/DeAnt3Token.sol\":1724:1821  function setTaxFee(uint256 _newTaxFee) external onlyOwner {\r... */\n      jump\t// out\n        /* \"@openzeppelin/contracts-upgradeable/token/ERC20/ERC20Upgradeable.sol\":4313:4462  function allowance(address owner, address spender) public view virtual override returns (uint256) {... */\n    tag_156:\n      sub(shl(0xa0, 0x01), 0x01)\n        /* \"@openzeppelin/contracts-upgradeable/token/ERC20/ERC20Upgradeable.sol\":4428:4446  _allowances[owner] */\n      swap2\n      dup3\n      and\n        /* \"@openzeppelin/contracts-upgradeable/token/ERC20/ERC20Upgradeable.sol\":4402:4409  uint256 */\n      0x00\n        /* \"@openzeppelin/contracts-upgradeable/token/ERC20/ERC20Upgradeable.sol\":4428:4446  _allowances[owner] */\n      swap1\n      dup2\n      mstore\n        /* \"@openzeppelin/contracts-upgradeable/token/ERC20/ERC20Upgradeable.sol\":4428:4439  _allowances */\n      0x34\n        /* \"@openzeppelin/contracts-upgradeable/token/ERC20/ERC20Upgradeable.sol\":4428:4446  _allowances[owner] */\n      0x20\n      swap1\n      dup2\n      mstore\n      0x40\n      dup1\n      dup4\n      keccak256\n        /* \"@openzeppelin/contracts-upgradeable/token/ERC20/ERC20Upgradeable.sol\":4428:4455  _allowances[owner][spender] */\n      swap4\n      swap1\n      swap5\n      and\n      dup3\n      mstore\n      swap2\n      swap1\n      swap2\n      mstore\n      keccak256\n      sload\n      swap1\n        /* \"@openzeppelin/contracts-upgradeable/token/ERC20/ERC20Upgradeable.sol\":4313:4462  function allowance(address owner, address spender) public view virtual override returns (uint256) {... */\n      jump\t// out\n        /* \"contracts/DeAnt3Token.sol\":3729:5132  function permitMint(\r... */\n    tag_162:\n        /* \"contracts/DeAnt3Token.sol\":4002:4017  block.timestamp */\n      timestamp\n        /* \"contracts/DeAnt3Token.sol\":3990:3998  deadline */\n      dup5\n        /* \"contracts/DeAnt3Token.sol\":3990:4017  deadline >= block.timestamp */\n      lt\n      iszero\n        /* \"contracts/DeAnt3Token.sol\":3982:4038  require(deadline >= block.timestamp, \"Expired deadline\") */\n      tag_290\n      jumpi\n      mload(0x40)\n      shl(0xe5, 0x461bcd)\n      dup2\n      mstore\n        /* \"#utility.yul\":14572:14574   */\n      0x20\n        /* \"contracts/DeAnt3Token.sol\":3982:4038  require(deadline >= block.timestamp, \"Expired deadline\") */\n      0x04\n      dup3\n      add\n        /* \"#utility.yul\":14554:14575   */\n      mstore\n        /* \"#utility.yul\":14611:14613   */\n      0x10\n        /* \"#utility.yul\":14591:14609   */\n      0x24\n      dup3\n      add\n        /* \"#utility.yul\":14584:14614   */\n      mstore\n      shl(0x80, 0x4578706972656420646561646c696e65)\n        /* \"#utility.yul\":14630:14648   */\n      0x44\n      dup3\n      add\n        /* \"#utility.yul\":14623:14669   */\n      mstore\n        /* \"#utility.yul\":14686:14704   */\n      0x64\n      add\n        /* \"contracts/DeAnt3Token.sol\":3982:4038  require(deadline >= block.timestamp, \"Expired deadline\") */\n      tag_204\n        /* \"#utility.yul\":14370:14710   */\n      jump\n        /* \"contracts/DeAnt3Token.sol\":3982:4038  require(deadline >= block.timestamp, \"Expired deadline\") */\n    tag_290:\n        /* \"contracts/DeAnt3Token.sol\":4058:4082  uniqueIdExists[uniqueId] */\n      0x00\n      dup7\n      dup2\n      mstore\n        /* \"contracts/DeAnt3Token.sol\":4058:4072  uniqueIdExists */\n      0xd3\n        /* \"contracts/DeAnt3Token.sol\":4058:4082  uniqueIdExists[uniqueId] */\n      0x20\n      mstore\n      0x40\n      swap1\n      keccak256\n      sload\n      0xff\n      and\n        /* \"contracts/DeAnt3Token.sol\":4057:4082  !uniqueIdExists[uniqueId] */\n      iszero\n        /* \"contracts/DeAnt3Token.sol\":4049:4103  require(!uniqueIdExists[uniqueId], \"Unique id exists\") */\n      tag_293\n      jumpi\n      mload(0x40)\n      shl(0xe5, 0x461bcd)\n      dup2\n      mstore\n        /* \"#utility.yul\":11184:11186   */\n      0x20\n        /* \"contracts/DeAnt3Token.sol\":4049:4103  require(!uniqueIdExists[uniqueId], \"Unique id exists\") */\n      0x04\n      dup3\n      add\n        /* \"#utility.yul\":11166:11187   */\n      mstore\n        /* \"#utility.yul\":11223:11225   */\n      0x10\n        /* \"#utility.yul\":11203:11221   */\n      0x24\n      dup3\n      add\n        /* \"#utility.yul\":11196:11226   */\n      mstore\n      shl(0x80, 0x556e6971756520696420657869737473)\n        /* \"#utility.yul\":11242:11260   */\n      0x44\n      dup3\n      add\n        /* \"#utility.yul\":11235:11281   */\n      mstore\n        /* \"#utility.yul\":11298:11316   */\n      0x64\n      add\n        /* \"contracts/DeAnt3Token.sol\":4049:4103  require(!uniqueIdExists[uniqueId], \"Unique id exists\") */\n      tag_204\n        /* \"#utility.yul\":10982:11322   */\n      jump\n        /* \"contracts/DeAnt3Token.sol\":4049:4103  require(!uniqueIdExists[uniqueId], \"Unique id exists\") */\n    tag_293:\n        /* \"contracts/DeAnt3Token.sol\":4134:4144  msg.sender */\n      caller\n        /* \"contracts/DeAnt3Token.sol\":4116:4131  address spender */\n      0x00\n        /* \"contracts/DeAnt3Token.sol\":4171:4184  super.owner() */\n      tag_296\n        /* \"@openzeppelin/contracts-upgradeable/access/OwnableUpgradeable.sol\":1513:1519  _owner */\n      and(sub(shl(0xa0, 0x01), 0x01), sload(0x98))\n      swap1\n        /* \"@openzeppelin/contracts-upgradeable/access/OwnableUpgradeable.sol\":1441:1526  function owner() public view virtual returns (address) {... */\n      jump\n        /* \"contracts/DeAnt3Token.sol\":4171:4184  super.owner() */\n    tag_296:\n        /* \"contracts/DeAnt3Token.sol\":4244:4491  abi.encodePacked(\r... */\n      mload(0x40)\n      shl(0xf8, 0x19)\n      0x20\n      dup3\n      add\n        /* \"#utility.yul\":6909:6937   */\n      mstore\n        /* \"contracts/DeAnt3Token.sol\":4197:4217  bytes32 permitTxHash */\n      0x00\n        /* \"#utility.yul\":6953:6964   */\n      0x21\n      dup3\n      add\n        /* \"#utility.yul\":6946:6982   */\n      dup2\n      swap1\n      mstore\n      not(0xffffffffffffffffffffffff)\n        /* \"#utility.yul\":7069:7071   */\n      0x60\n        /* \"#utility.yul\":7065:7080   */\n      dup5\n      dup2\n      shl\n        /* \"#utility.yul\":7061:7085   */\n      dup3\n      and\n        /* \"#utility.yul\":7048:7059   */\n      0x22\n      dup6\n      add\n        /* \"#utility.yul\":7041:7086   */\n      mstore\n        /* \"#utility.yul\":7120:7135   */\n      dup7\n      dup2\n      shl\n        /* \"#utility.yul\":7116:7140   */\n      dup3\n      and\n        /* \"#utility.yul\":7102:7114   */\n      0x36\n      dup6\n      add\n        /* \"#utility.yul\":7095:7141   */\n      mstore\n        /* \"#utility.yul\":7175:7190   */\n      dup14\n      swap1\n      shl\n        /* \"#utility.yul\":7171:7195   */\n      and\n        /* \"#utility.yul\":7157:7169   */\n      0x4a\n      dup4\n      add\n        /* \"#utility.yul\":7150:7196   */\n      mstore\n        /* \"#utility.yul\":7212:7224   */\n      0x5e\n      dup3\n      add\n        /* \"#utility.yul\":7205:7233   */\n      dup11\n      swap1\n      mstore\n        /* \"#utility.yul\":7249:7261   */\n      0x7e\n      dup3\n      add\n        /* \"#utility.yul\":7242:7270   */\n      dup12\n      swap1\n      mstore\n        /* \"#utility.yul\":7286:7299   */\n      0x9e\n      dup3\n      add\n        /* \"#utility.yul\":7279:7308   */\n      dup10\n      swap1\n      mstore\n        /* \"contracts/DeAnt3Token.sol\":4155:4184  address owner = super.owner() */\n      swap2\n      swap3\n      pop\n        /* \"#utility.yul\":7324:7337   */\n      0xbe\n      add\n        /* \"contracts/DeAnt3Token.sol\":4244:4491  abi.encodePacked(\r... */\n      mload(0x40)\n      0x20\n      dup2\n      dup4\n      sub\n      sub\n      dup2\n      mstore\n      swap1\n      0x40\n      mstore\n        /* \"contracts/DeAnt3Token.sol\":4220:4502  keccak256(\r... */\n      dup1\n      mload\n      swap1\n      0x20\n      add\n      keccak256\n        /* \"contracts/DeAnt3Token.sol\":4197:4502  bytes32 permitTxHash = keccak256(\r... */\n      swap1\n      pop\n        /* \"contracts/DeAnt3Token.sol\":4515:4531  address lastAddr */\n      0x00\n        /* \"contracts/DeAnt3Token.sol\":4555:4576  uint8 verifiedSigners */\n      dup1\n        /* \"contracts/DeAnt3Token.sol\":4596:4604  uint64 i */\n      0x00\n        /* \"contracts/DeAnt3Token.sol\":4591:4853  for (uint64 i = 0; i < v.length; i++) {\r... */\n    tag_299:\n        /* \"contracts/DeAnt3Token.sol\":4614:4615  v */\n      dup9\n        /* \"contracts/DeAnt3Token.sol\":4614:4622  v.length */\n      mload\n        /* \"contracts/DeAnt3Token.sol\":4610:4611  i */\n      dup2\n      sub(shl(0x40, 0x01), 0x01)\n        /* \"contracts/DeAnt3Token.sol\":4610:4622  i < v.length */\n      and\n      lt\n        /* \"contracts/DeAnt3Token.sol\":4591:4853  for (uint64 i = 0; i < v.length; i++) {\r... */\n      iszero\n      tag_300\n      jumpi\n        /* \"contracts/DeAnt3Token.sol\":4644:4661  address recovered */\n      0x00\n        /* \"contracts/DeAnt3Token.sol\":4664:4705  ecrecover(permitTxHash, v[i], r[i], s[i]) */\n      0x01\n        /* \"contracts/DeAnt3Token.sol\":4674:4686  permitTxHash */\n      dup6\n        /* \"contracts/DeAnt3Token.sol\":4688:4689  v */\n      dup12\n        /* \"contracts/DeAnt3Token.sol\":4690:4691  i */\n      dup5\n      sub(shl(0x40, 0x01), 0x01)\n        /* \"contracts/DeAnt3Token.sol\":4688:4692  v[i] */\n      and\n      dup2\n      mload\n      dup2\n      lt\n      tag_303\n      jumpi\n      tag_303\n      tag_304\n      jump\t// in\n    tag_303:\n      0x20\n      mul\n      0x20\n      add\n      add\n      mload\n        /* \"contracts/DeAnt3Token.sol\":4694:4695  r */\n      dup12\n        /* \"contracts/DeAnt3Token.sol\":4696:4697  i */\n      dup6\n      sub(shl(0x40, 0x01), 0x01)\n        /* \"contracts/DeAnt3Token.sol\":4694:4698  r[i] */\n      and\n      dup2\n      mload\n      dup2\n      lt\n      tag_306\n      jumpi\n      tag_306\n      tag_304\n      jump\t// in\n    tag_306:\n      0x20\n      mul\n      0x20\n      add\n      add\n      mload\n        /* \"contracts/DeAnt3Token.sol\":4700:4701  s */\n      dup12\n        /* \"contracts/DeAnt3Token.sol\":4702:4703  i */\n      dup7\n      sub(shl(0x40, 0x01), 0x01)\n        /* \"contracts/DeAnt3Token.sol\":4700:4704  s[i] */\n      and\n      dup2\n      mload\n      dup2\n      lt\n      tag_308\n      jumpi\n      tag_308\n      tag_304\n      jump\t// in\n    tag_308:\n      0x20\n      mul\n      0x20\n      add\n      add\n      mload\n        /* \"contracts/DeAnt3Token.sol\":4664:4705  ecrecover(permitTxHash, v[i], r[i], s[i]) */\n      mload(0x40)\n      0x00\n      dup2\n      mstore\n      0x20\n      add\n      0x40\n      mstore\n      mload(0x40)\n      tag_309\n      swap5\n      swap4\n      swap3\n      swap2\n      swap1\n        /* \"#utility.yul\":8848:8873   */\n      swap4\n      dup5\n      mstore\n        /* \"#utility.yul\":8921:8925   */\n      0xff\n        /* \"#utility.yul\":8909:8926   */\n      swap3\n      swap1\n      swap3\n      and\n        /* \"#utility.yul\":8904:8906   */\n      0x20\n        /* \"#utility.yul\":8889:8907   */\n      dup5\n      add\n        /* \"#utility.yul\":8882:8927   */\n      mstore\n        /* \"#utility.yul\":8958:8960   */\n      0x40\n        /* \"#utility.yul\":8943:8961   */\n      dup4\n      add\n        /* \"#utility.yul\":8936:8970   */\n      mstore\n        /* \"#utility.yul\":9001:9003   */\n      0x60\n        /* \"#utility.yul\":8986:9004   */\n      dup3\n      add\n        /* \"#utility.yul\":8979:9013   */\n      mstore\n        /* \"#utility.yul\":8835:8838   */\n      0x80\n        /* \"#utility.yul\":8820:8839   */\n      add\n      swap1\n        /* \"#utility.yul\":8621:9019   */\n      jump\n        /* \"contracts/DeAnt3Token.sol\":4664:4705  ecrecover(permitTxHash, v[i], r[i], s[i]) */\n    tag_309:\n      0x20\n      mload(0x40)\n      0x20\n      dup2\n      sub\n      swap1\n      dup1\n      dup5\n      sub\n      swap1\n      dup6\n      gas\n      staticcall\n      iszero\n      dup1\n      iszero\n      tag_312\n      jumpi\n      returndatasize\n      0x00\n      dup1\n      returndatacopy\n      revert(0x00, returndatasize)\n    tag_312:\n      pop\n      pop\n      pop\n      mload(sub(mload(0x40), 0x20))\n        /* \"contracts/DeAnt3Token.sol\":4644:4705  address recovered = ecrecover(permitTxHash, v[i], r[i], s[i]) */\n      swap1\n      pop\n        /* \"contracts/DeAnt3Token.sol\":4736:4744  lastAddr */\n      dup4\n      sub(shl(0xa0, 0x01), 0x01)\n        /* \"contracts/DeAnt3Token.sol\":4724:4744  recovered > lastAddr */\n      and\n        /* \"contracts/DeAnt3Token.sol\":4724:4733  recovered */\n      dup2\n      sub(shl(0xa0, 0x01), 0x01)\n        /* \"contracts/DeAnt3Token.sol\":4724:4744  recovered > lastAddr */\n      and\n      gt\n        /* \"contracts/DeAnt3Token.sol\":4724:4770  recovered > lastAddr && _mapSigners[recovered] */\n      dup1\n      iszero\n      tag_313\n      jumpi\n      pop\n      sub(shl(0xa0, 0x01), 0x01)\n        /* \"contracts/DeAnt3Token.sol\":4748:4770  _mapSigners[recovered] */\n      dup2\n      and\n      0x00\n      swap1\n      dup2\n      mstore\n        /* \"contracts/DeAnt3Token.sol\":4748:4759  _mapSigners */\n      0xd2\n        /* \"contracts/DeAnt3Token.sol\":4748:4770  _mapSigners[recovered] */\n      0x20\n      mstore\n      0x40\n      swap1\n      keccak256\n      sload\n      0xff\n      and\n        /* \"contracts/DeAnt3Token.sol\":4724:4770  recovered > lastAddr && _mapSigners[recovered] */\n    tag_313:\n        /* \"contracts/DeAnt3Token.sol\":4720:4806  if (recovered > lastAddr && _mapSigners[recovered])\r... */\n      iszero\n      tag_314\n      jumpi\n        /* \"contracts/DeAnt3Token.sol\":4789:4806  verifiedSigners++ */\n      dup3\n      tag_315\n      dup2\n      tag_316\n      jump\t// in\n    tag_315:\n      swap4\n      pop\n      pop\n        /* \"contracts/DeAnt3Token.sol\":4720:4806  if (recovered > lastAddr && _mapSigners[recovered])\r... */\n    tag_314:\n        /* \"contracts/DeAnt3Token.sol\":4832:4841  recovered */\n      swap3\n      pop\n        /* \"contracts/DeAnt3Token.sol\":4624:4627  i++ */\n      dup1\n      tag_317\n      dup2\n      tag_318\n      jump\t// in\n    tag_317:\n      swap2\n      pop\n      pop\n        /* \"contracts/DeAnt3Token.sol\":4591:4853  for (uint64 i = 0; i < v.length; i++) {\r... */\n      jump(tag_299)\n    tag_300:\n      pop\n        /* \"contracts/DeAnt3Token.sol\":4892:4893  2 */\n      0x02\n        /* \"contracts/DeAnt3Token.sol\":4873:4888  verifiedSigners */\n      dup2\n        /* \"contracts/DeAnt3Token.sol\":4873:4893  verifiedSigners >= 2 */\n      0xff\n      and\n      lt\n      iszero\n        /* \"contracts/DeAnt3Token.sol\":4865:4913  require(verifiedSigners >= 2, \"Invalid signers\") */\n      tag_319\n      jumpi\n      mload(0x40)\n      shl(0xe5, 0x461bcd)\n      dup2\n      mstore\n        /* \"#utility.yul\":13452:13454   */\n      0x20\n        /* \"contracts/DeAnt3Token.sol\":4865:4913  require(verifiedSigners >= 2, \"Invalid signers\") */\n      0x04\n      dup3\n      add\n        /* \"#utility.yul\":13434:13455   */\n      mstore\n        /* \"#utility.yul\":13491:13493   */\n      0x0f\n        /* \"#utility.yul\":13471:13489   */\n      0x24\n      dup3\n      add\n        /* \"#utility.yul\":13464:13494   */\n      mstore\n      shl(0x88, 0x496e76616c6964207369676e657273)\n        /* \"#utility.yul\":13510:13528   */\n      0x44\n      dup3\n      add\n        /* \"#utility.yul\":13503:13548   */\n      mstore\n        /* \"#utility.yul\":13565:13583   */\n      0x64\n      add\n        /* \"contracts/DeAnt3Token.sol\":4865:4913  require(verifiedSigners >= 2, \"Invalid signers\") */\n      tag_204\n        /* \"#utility.yul\":13250:13589   */\n      jump\n        /* \"contracts/DeAnt3Token.sol\":4865:4913  require(verifiedSigners >= 2, \"Invalid signers\") */\n    tag_319:\n        /* \"contracts/DeAnt3Token.sol\":4924:4948  uniqueIdExists[uniqueId] */\n      0x00\n      dup12\n      dup2\n      mstore\n        /* \"contracts/DeAnt3Token.sol\":4924:4938  uniqueIdExists */\n      0xd3\n        /* \"contracts/DeAnt3Token.sol\":4924:4948  uniqueIdExists[uniqueId] */\n      0x20\n      mstore\n      0x40\n      dup2\n      keccak256\n        /* \"contracts/DeAnt3Token.sol\":4924:4955  uniqueIdExists[uniqueId] = true */\n      dup1\n      sload\n      not(0xff)\n      and\n        /* \"contracts/DeAnt3Token.sol\":4951:4955  true */\n      0x01\n        /* \"contracts/DeAnt3Token.sol\":4924:4955  uniqueIdExists[uniqueId] = true */\n      or\n      swap1\n      sstore\n        /* \"contracts/DeAnt3Token.sol\":5009:5019  _rewardAmt */\n      sload(0xcd)\n      sub(shl(0xa0, 0x01), 0x01)\n        /* \"contracts/DeAnt3Token.sol\":4987:5001  recipient.call */\n      dup15\n      and\n      swap1\n        /* \"contracts/DeAnt3Token.sol\":5009:5028  _rewardAmt * amount */\n      tag_322\n      swap1\n        /* \"contracts/DeAnt3Token.sol\":5022:5028  amount */\n      dup14\n      swap1\n        /* \"contracts/DeAnt3Token.sol\":5009:5028  _rewardAmt * amount */\n      tag_216\n      jump\t// in\n    tag_322:\n        /* \"contracts/DeAnt3Token.sol\":4987:5033  recipient.call{value: _rewardAmt * amount}(\"\") */\n      mload(0x40)\n      0x00\n      dup2\n      dup2\n      dup2\n      dup6\n      dup8\n      gas\n      call\n      swap3\n      pop\n      pop\n      pop\n      returndatasize\n      dup1\n      0x00\n      dup2\n      eq\n      tag_327\n      jumpi\n      mload(0x40)\n      swap2\n      pop\n      and(add(returndatasize, 0x3f), not(0x1f))\n      dup3\n      add\n      0x40\n      mstore\n      returndatasize\n      dup3\n      mstore\n      returndatasize\n      0x00\n      0x20\n      dup5\n      add\n      returndatacopy\n      jump(tag_326)\n    tag_327:\n      0x60\n      swap2\n      pop\n    tag_326:\n      pop\n        /* \"contracts/DeAnt3Token.sol\":4968:5033  (bool success, ) = recipient.call{value: _rewardAmt * amount}(\"\") */\n      pop\n      swap1\n      pop\n        /* \"contracts/DeAnt3Token.sol\":5052:5059  success */\n      dup1\n        /* \"contracts/DeAnt3Token.sol\":5044:5083  require(success, \"Failed to send Mech\") */\n      tag_328\n      jumpi\n      mload(0x40)\n      shl(0xe5, 0x461bcd)\n      dup2\n      mstore\n        /* \"#utility.yul\":13104:13106   */\n      0x20\n        /* \"contracts/DeAnt3Token.sol\":5044:5083  require(success, \"Failed to send Mech\") */\n      0x04\n      dup3\n      add\n        /* \"#utility.yul\":13086:13107   */\n      mstore\n        /* \"#utility.yul\":13143:13145   */\n      0x13\n        /* \"#utility.yul\":13123:13141   */\n      0x24\n      dup3\n      add\n        /* \"#utility.yul\":13116:13146   */\n      mstore\n      shl(0x6b, 0x08cc2d2d8cac840e8de40e6cadcc8409acac6d)\n        /* \"#utility.yul\":13162:13180   */\n      0x44\n      dup3\n      add\n        /* \"#utility.yul\":13155:13204   */\n      mstore\n        /* \"#utility.yul\":13221:13239   */\n      0x64\n      add\n        /* \"contracts/DeAnt3Token.sol\":5044:5083  require(success, \"Failed to send Mech\") */\n      tag_204\n        /* \"#utility.yul\":12902:13245   */\n      jump\n        /* \"contracts/DeAnt3Token.sol\":5044:5083  require(success, \"Failed to send Mech\") */\n    tag_328:\n        /* \"contracts/DeAnt3Token.sol\":5094:5124  super._mint(recipient, amount) */\n      tag_331\n        /* \"contracts/DeAnt3Token.sol\":5106:5115  recipient */\n      dup14\n        /* \"contracts/DeAnt3Token.sol\":5117:5123  amount */\n      dup13\n        /* \"contracts/DeAnt3Token.sol\":5094:5105  super._mint */\n      tag_222\n        /* \"contracts/DeAnt3Token.sol\":5094:5124  super._mint(recipient, amount) */\n      jump\t// in\n    tag_331:\n        /* \"contracts/DeAnt3Token.sol\":3971:5132  {\r... */\n      pop\n      pop\n      pop\n      pop\n      pop\n      pop\n        /* \"contracts/DeAnt3Token.sol\":3729:5132  function permitMint(\r... */\n      pop\n      pop\n      pop\n      pop\n      pop\n      pop\n      pop\n      jump\t// out\n        /* \"@openzeppelin/contracts-upgradeable/access/OwnableUpgradeable.sol\":2321:2519  function transferOwnership(address newOwner) public virtual onlyOwner {... */\n    tag_166:\n        /* \"@openzeppelin/contracts-upgradeable/access/OwnableUpgradeable.sol\":1334:1347  _checkOwner() */\n      tag_333\n        /* \"@openzeppelin/contracts-upgradeable/access/OwnableUpgradeable.sol\":1334:1345  _checkOwner */\n      tag_240\n        /* \"@openzeppelin/contracts-upgradeable/access/OwnableUpgradeable.sol\":1334:1347  _checkOwner() */\n      jump\t// in\n    tag_333:\n      sub(shl(0xa0, 0x01), 0x01)\n        /* \"@openzeppelin/contracts-upgradeable/access/OwnableUpgradeable.sol\":2409:2431  newOwner != address(0) */\n      dup2\n      and\n        /* \"@openzeppelin/contracts-upgradeable/access/OwnableUpgradeable.sol\":2401:2474  require(newOwner != address(0), \"Ownable: new owner is the zero address\") */\n      tag_335\n      jumpi\n      mload(0x40)\n      shl(0xe5, 0x461bcd)\n      dup2\n      mstore\n        /* \"#utility.yul\":11529:11531   */\n      0x20\n        /* \"@openzeppelin/contracts-upgradeable/access/OwnableUpgradeable.sol\":2401:2474  require(newOwner != address(0), \"Ownable: new owner is the zero address\") */\n      0x04\n      dup3\n      add\n        /* \"#utility.yul\":11511:11532   */\n      mstore\n        /* \"#utility.yul\":11568:11570   */\n      0x26\n        /* \"#utility.yul\":11548:11566   */\n      0x24\n      dup3\n      add\n        /* \"#utility.yul\":11541:11571   */\n      mstore\n        /* \"#utility.yul\":11607:11641   */\n      0x4f776e61626c653a206e6577206f776e657220697320746865207a65726f2061\n        /* \"#utility.yul\":11587:11605   */\n      0x44\n      dup3\n      add\n        /* \"#utility.yul\":11580:11642   */\n      mstore\n      shl(0xd0, 0x646472657373)\n        /* \"#utility.yul\":11658:11676   */\n      0x64\n      dup3\n      add\n        /* \"#utility.yul\":11651:11687   */\n      mstore\n        /* \"#utility.yul\":11704:11723   */\n      0x84\n      add\n        /* \"@openzeppelin/contracts-upgradeable/access/OwnableUpgradeable.sol\":2401:2474  require(newOwner != address(0), \"Ownable: new owner is the zero address\") */\n      tag_204\n        /* \"#utility.yul\":11327:11729   */\n      jump\n        /* \"@openzeppelin/contracts-upgradeable/access/OwnableUpgradeable.sol\":2401:2474  require(newOwner != address(0), \"Ownable: new owner is the zero address\") */\n    tag_335:\n        /* \"@openzeppelin/contracts-upgradeable/access/OwnableUpgradeable.sol\":2484:2512  _transferOwnership(newOwner) */\n      tag_262\n        /* \"@openzeppelin/contracts-upgradeable/access/OwnableUpgradeable.sol\":2503:2511  newOwner */\n      dup2\n        /* \"@openzeppelin/contracts-upgradeable/access/OwnableUpgradeable.sol\":2484:2502  _transferOwnership */\n      tag_243\n        /* \"@openzeppelin/contracts-upgradeable/access/OwnableUpgradeable.sol\":2484:2512  _transferOwnership(newOwner) */\n      jump\t// in\n        /* \"@openzeppelin/contracts-upgradeable/token/ERC20/ERC20Upgradeable.sol\":10447:10817  function _approve(... */\n    tag_188:\n      sub(shl(0xa0, 0x01), 0x01)\n        /* \"@openzeppelin/contracts-upgradeable/token/ERC20/ERC20Upgradeable.sol\":10578:10597  owner != address(0) */\n      dup4\n      and\n        /* \"@openzeppelin/contracts-upgradeable/token/ERC20/ERC20Upgradeable.sol\":10570:10638  require(owner != address(0), \"ERC20: approve from the zero address\") */\n      tag_342\n      jumpi\n      mload(0x40)\n      shl(0xe5, 0x461bcd)\n      dup2\n      mstore\n        /* \"#utility.yul\":16079:16081   */\n      0x20\n        /* \"@openzeppelin/contracts-upgradeable/token/ERC20/ERC20Upgradeable.sol\":10570:10638  require(owner != address(0), \"ERC20: approve from the zero address\") */\n      0x04\n      dup3\n      add\n        /* \"#utility.yul\":16061:16082   */\n      mstore\n        /* \"#utility.yul\":16118:16120   */\n      0x24\n        /* \"#utility.yul\":16098:16116   */\n      dup1\n      dup3\n      add\n        /* \"#utility.yul\":16091:16121   */\n      mstore\n        /* \"#utility.yul\":16157:16191   */\n      0x45524332303a20617070726f76652066726f6d20746865207a65726f20616464\n        /* \"#utility.yul\":16137:16155   */\n      0x44\n      dup3\n      add\n        /* \"#utility.yul\":16130:16192   */\n      mstore\n      shl(0xe0, 0x72657373)\n        /* \"#utility.yul\":16208:16226   */\n      0x64\n      dup3\n      add\n        /* \"#utility.yul\":16201:16235   */\n      mstore\n        /* \"#utility.yul\":16252:16271   */\n      0x84\n      add\n        /* \"@openzeppelin/contracts-upgradeable/token/ERC20/ERC20Upgradeable.sol\":10570:10638  require(owner != address(0), \"ERC20: approve from the zero address\") */\n      tag_204\n        /* \"#utility.yul\":15877:16277   */\n      jump\n        /* \"@openzeppelin/contracts-upgradeable/token/ERC20/ERC20Upgradeable.sol\":10570:10638  require(owner != address(0), \"ERC20: approve from the zero address\") */\n    tag_342:\n      sub(shl(0xa0, 0x01), 0x01)\n        /* \"@openzeppelin/contracts-upgradeable/token/ERC20/ERC20Upgradeable.sol\":10656:10677  spender != address(0) */\n      dup3\n      and\n        /* \"@openzeppelin/contracts-upgradeable/token/ERC20/ERC20Upgradeable.sol\":10648:10716  require(spender != address(0), \"ERC20: approve to the zero address\") */\n      tag_345\n      jumpi\n      mload(0x40)\n      shl(0xe5, 0x461bcd)\n      dup2\n      mstore\n        /* \"#utility.yul\":11936:11938   */\n      0x20\n        /* \"@openzeppelin/contracts-upgradeable/token/ERC20/ERC20Upgradeable.sol\":10648:10716  require(spender != address(0), \"ERC20: approve to the zero address\") */\n      0x04\n      dup3\n      add\n        /* \"#utility.yul\":11918:11939   */\n      mstore\n        /* \"#utility.yul\":11975:11977   */\n      0x22\n        /* \"#utility.yul\":11955:11973   */\n      0x24\n      dup3\n      add\n        /* \"#utility.yul\":11948:11978   */\n      mstore\n        /* \"#utility.yul\":12014:12048   */\n      0x45524332303a20617070726f766520746f20746865207a65726f206164647265\n        /* \"#utility.yul\":11994:12012   */\n      0x44\n      dup3\n      add\n        /* \"#utility.yul\":11987:12049   */\n      mstore\n      shl(0xf0, 0x7373)\n        /* \"#utility.yul\":12065:12083   */\n      0x64\n      dup3\n      add\n        /* \"#utility.yul\":12058:12090   */\n      mstore\n        /* \"#utility.yul\":12107:12126   */\n      0x84\n      add\n        /* \"@openzeppelin/contracts-upgradeable/token/ERC20/ERC20Upgradeable.sol\":10648:10716  require(spender != address(0), \"ERC20: approve to the zero address\") */\n      tag_204\n        /* \"#utility.yul\":11734:12132   */\n      jump\n        /* \"@openzeppelin/contracts-upgradeable/token/ERC20/ERC20Upgradeable.sol\":10648:10716  require(spender != address(0), \"ERC20: approve to the zero address\") */\n    tag_345:\n      sub(shl(0xa0, 0x01), 0x01)\n        /* \"@openzeppelin/contracts-upgradeable/token/ERC20/ERC20Upgradeable.sol\":10727:10745  _allowances[owner] */\n      dup4\n      dup2\n      and\n      0x00\n      dup2\n      dup2\n      mstore\n        /* \"@openzeppelin/contracts-upgradeable/token/ERC20/ERC20Upgradeable.sol\":10727:10738  _allowances */\n      0x34\n        /* \"@openzeppelin/contracts-upgradeable/token/ERC20/ERC20Upgradeable.sol\":10727:10745  _allowances[owner] */\n      0x20\n      swap1\n      dup2\n      mstore\n      0x40\n      dup1\n      dup4\n      keccak256\n        /* \"@openzeppelin/contracts-upgradeable/token/ERC20/ERC20Upgradeable.sol\":10727:10754  _allowances[owner][spender] */\n      swap5\n      dup8\n      and\n      dup1\n      dup5\n      mstore\n      swap5\n      dup3\n      mstore\n      swap2\n      dup3\n      swap1\n      keccak256\n        /* \"@openzeppelin/contracts-upgradeable/token/ERC20/ERC20Upgradeable.sol\":10727:10763  _allowances[owner][spender] = amount */\n      dup6\n      swap1\n      sstore\n        /* \"@openzeppelin/contracts-upgradeable/token/ERC20/ERC20Upgradeable.sol\":10778:10810  Approval(owner, spender, amount) */\n      swap1\n      mload\n        /* \"#utility.yul\":17606:17631   */\n      dup5\n      dup2\n      mstore\n        /* \"@openzeppelin/contracts-upgradeable/token/ERC20/ERC20Upgradeable.sol\":10778:10810  Approval(owner, spender, amount) */\n      0x8c5be1e5ebec7d5bd14f71427d1e84f3dd0314c0f7b2291e5b200ac8c7c3b925\n      swap2\n        /* \"#utility.yul\":17579:17597   */\n      add\n        /* \"@openzeppelin/contracts-upgradeable/token/ERC20/ERC20Upgradeable.sol\":10778:10810  Approval(owner, spender, amount) */\n    tag_348:\n      mload(0x40)\n      dup1\n      swap2\n      sub\n      swap1\n      log3\n        /* \"@openzeppelin/contracts-upgradeable/token/ERC20/ERC20Upgradeable.sol\":10447:10817  function _approve(... */\n      pop\n      pop\n      pop\n      jump\t// out\n        /* \"contracts/DeAnt3Token.sol\":3331:3491  function _calculateBurnAmt(uint256 amount) private view returns (uint256) {\r... */\n    tag_192:\n        /* \"contracts/DeAnt3Token.sol\":3396:3403  uint256 */\n      0x00\n        /* \"contracts/DeAnt3Token.sol\":3416:3431  uint256 burnAmt */\n      dup1\n        /* \"contracts/DeAnt3Token.sol\":3455:3458  100 */\n      0x64\n        /* \"contracts/DeAnt3Token.sol\":3444:3451  _taxFee */\n      sload(0xcf)\n        /* \"contracts/DeAnt3Token.sol\":3435:3441  amount */\n      dup5\n        /* \"contracts/DeAnt3Token.sol\":3435:3451  amount * _taxFee */\n      tag_350\n      swap2\n      swap1\n      tag_216\n      jump\t// in\n    tag_350:\n        /* \"contracts/DeAnt3Token.sol\":3434:3458  (amount * _taxFee) / 100 */\n      tag_351\n      swap2\n      swap1\n      tag_352\n      jump\t// in\n    tag_351:\n        /* \"contracts/DeAnt3Token.sol\":3416:3458  uint256 burnAmt = (amount * _taxFee) / 100 */\n      swap4\n        /* \"contracts/DeAnt3Token.sol\":3331:3491  function _calculateBurnAmt(uint256 amount) private view returns (uint256) {\r... */\n      swap3\n      pop\n      pop\n      pop\n      jump\t// out\n        /* \"contracts/DeAnt3Token.sol\":3499:3721  function _burnAndUpdate(address account, uint256 amount) private {\r... */\n    tag_194:\n        /* \"contracts/DeAnt3Token.sol\":3575:3597  _burn(account, amount) */\n      tag_354\n        /* \"contracts/DeAnt3Token.sol\":3581:3588  account */\n      dup3\n        /* \"contracts/DeAnt3Token.sol\":3590:3596  amount */\n      dup3\n        /* \"contracts/DeAnt3Token.sol\":3575:3580  _burn */\n      tag_355\n        /* \"contracts/DeAnt3Token.sol\":3575:3597  _burn(account, amount) */\n      jump\t// in\n    tag_354:\n        /* \"contracts/DeAnt3Token.sol\":3636:3642  amount */\n      dup1\n        /* \"contracts/DeAnt3Token.sol\":3622:3633  totalBurned */\n      sload(0xd0)\n        /* \"contracts/DeAnt3Token.sol\":3622:3642  totalBurned + amount */\n      tag_356\n      swap2\n      swap1\n      tag_233\n      jump\t// in\n    tag_356:\n        /* \"contracts/DeAnt3Token.sol\":3608:3619  totalBurned */\n      0xd0\n        /* \"contracts/DeAnt3Token.sol\":3608:3642  totalBurned = totalBurned + amount */\n      sstore\n      sub(shl(0xa0, 0x01), 0x01)\n        /* \"contracts/DeAnt3Token.sol\":3680:3704  userTotalBurned[account] */\n      dup3\n      and\n      0x00\n      swap1\n      dup2\n      mstore\n        /* \"contracts/DeAnt3Token.sol\":3680:3695  userTotalBurned */\n      0xd4\n        /* \"contracts/DeAnt3Token.sol\":3680:3704  userTotalBurned[account] */\n      0x20\n      mstore\n      0x40\n      swap1\n      keccak256\n      sload\n        /* \"contracts/DeAnt3Token.sol\":3680:3713  userTotalBurned[account] + amount */\n      tag_357\n      swap1\n        /* \"contracts/DeAnt3Token.sol\":3707:3713  amount */\n      dup3\n      swap1\n        /* \"contracts/DeAnt3Token.sol\":3680:3713  userTotalBurned[account] + amount */\n      tag_233\n      jump\t// in\n    tag_357:\n      sub(shl(0xa0, 0x01), 0x01)\n        /* \"contracts/DeAnt3Token.sol\":3653:3677  userTotalBurned[account] */\n      swap1\n      swap3\n      and\n      0x00\n      swap1\n      dup2\n      mstore\n        /* \"contracts/DeAnt3Token.sol\":3653:3668  userTotalBurned */\n      0xd4\n        /* \"contracts/DeAnt3Token.sol\":3653:3677  userTotalBurned[account] */\n      0x20\n      mstore\n      0x40\n      swap1\n      keccak256\n        /* \"contracts/DeAnt3Token.sol\":3653:3713  userTotalBurned[account] = userTotalBurned[account] + amount */\n      swap2\n      swap1\n      swap2\n      sstore\n      pop\n        /* \"contracts/DeAnt3Token.sol\":3499:3721  function _burnAndUpdate(address account, uint256 amount) private {\r... */\n      jump\t// out\n        /* \"@openzeppelin/contracts-upgradeable/token/ERC20/ERC20Upgradeable.sol\":5529:5815  function transferFrom(... */\n    tag_196:\n        /* \"@openzeppelin/contracts-upgradeable/token/ERC20/ERC20Upgradeable.sol\":5656:5660  bool */\n      0x00\n        /* \"@openzeppelin/contracts-upgradeable/utils/ContextUpgradeable.sol\":929:939  msg.sender */\n      caller\n        /* \"@openzeppelin/contracts-upgradeable/token/ERC20/ERC20Upgradeable.sol\":5712:5750  _spendAllowance(from, spender, amount) */\n      tag_360\n        /* \"@openzeppelin/contracts-upgradeable/token/ERC20/ERC20Upgradeable.sol\":5728:5732  from */\n      dup6\n        /* \"@openzeppelin/contracts-upgradeable/utils/ContextUpgradeable.sol\":929:939  msg.sender */\n      dup3\n        /* \"@openzeppelin/contracts-upgradeable/token/ERC20/ERC20Upgradeable.sol\":5743:5749  amount */\n      dup6\n        /* \"@openzeppelin/contracts-upgradeable/token/ERC20/ERC20Upgradeable.sol\":5712:5727  _spendAllowance */\n      tag_361\n        /* \"@openzeppelin/contracts-upgradeable/token/ERC20/ERC20Upgradeable.sol\":5712:5750  _spendAllowance(from, spender, amount) */\n      jump\t// in\n    tag_360:\n        /* \"@openzeppelin/contracts-upgradeable/token/ERC20/ERC20Upgradeable.sol\":5760:5787  _transfer(from, to, amount) */\n      tag_269\n        /* \"@openzeppelin/contracts-upgradeable/token/ERC20/ERC20Upgradeable.sol\":5770:5774  from */\n      dup6\n        /* \"@openzeppelin/contracts-upgradeable/token/ERC20/ERC20Upgradeable.sol\":5776:5778  to */\n      dup6\n        /* \"@openzeppelin/contracts-upgradeable/token/ERC20/ERC20Upgradeable.sol\":5780:5786  amount */\n      dup6\n        /* \"@openzeppelin/contracts-upgradeable/token/ERC20/ERC20Upgradeable.sol\":5760:5769  _transfer */\n      tag_363\n        /* \"@openzeppelin/contracts-upgradeable/token/ERC20/ERC20Upgradeable.sol\":5760:5787  _transfer(from, to, amount) */\n      jump\t// in\n        /* \"@openzeppelin/contracts-upgradeable/access/OwnableUpgradeable.sol\":1003:1098  function __Ownable_init() internal onlyInitializing {... */\n    tag_209:\n        /* \"@openzeppelin/contracts-upgradeable/proxy/utils/Initializable.sol\":4910:4923  _initializing */\n      sload(0x00)\n      0x0100\n      swap1\n      div\n      0xff\n      and\n        /* \"@openzeppelin/contracts-upgradeable/proxy/utils/Initializable.sol\":4902:4971  require(_initializing, \"Initializable: contract is not initializing\") */\n      tag_366\n      jumpi\n      mload(0x40)\n      shl(0xe5, 0x461bcd)\n      dup2\n      mstore\n      0x04\n      add\n      tag_204\n      swap1\n      tag_368\n      jump\t// in\n    tag_366:\n        /* \"@openzeppelin/contracts-upgradeable/access/OwnableUpgradeable.sol\":1065:1091  __Ownable_init_unchained() */\n      tag_242\n        /* \"@openzeppelin/contracts-upgradeable/access/OwnableUpgradeable.sol\":1065:1089  __Ownable_init_unchained */\n      tag_371\n        /* \"@openzeppelin/contracts-upgradeable/access/OwnableUpgradeable.sol\":1065:1091  __Ownable_init_unchained() */\n      jump\t// in\n        /* \"@openzeppelin/contracts-upgradeable/token/ERC20/ERC20Upgradeable.sol\":2116:2263  function __ERC20_init(string memory name_, string memory symbol_) internal onlyInitializing {... */\n    tag_211:\n        /* \"@openzeppelin/contracts-upgradeable/proxy/utils/Initializable.sol\":4910:4923  _initializing */\n      sload(0x00)\n      0x0100\n      swap1\n      div\n      0xff\n      and\n        /* \"@openzeppelin/contracts-upgradeable/proxy/utils/Initializable.sol\":4902:4971  require(_initializing, \"Initializable: contract is not initializing\") */\n      tag_373\n      jumpi\n      mload(0x40)\n      shl(0xe5, 0x461bcd)\n      dup2\n      mstore\n      0x04\n      add\n      tag_204\n      swap1\n      tag_368\n      jump\t// in\n    tag_373:\n        /* \"@openzeppelin/contracts-upgradeable/token/ERC20/ERC20Upgradeable.sol\":2218:2256  __ERC20_init_unchained(name_, symbol_) */\n      tag_376\n        /* \"@openzeppelin/contracts-upgradeable/token/ERC20/ERC20Upgradeable.sol\":2241:2246  name_ */\n      dup3\n        /* \"@openzeppelin/contracts-upgradeable/token/ERC20/ERC20Upgradeable.sol\":2248:2255  symbol_ */\n      dup3\n        /* \"@openzeppelin/contracts-upgradeable/token/ERC20/ERC20Upgradeable.sol\":2218:2240  __ERC20_init_unchained */\n      tag_377\n        /* \"@openzeppelin/contracts-upgradeable/token/ERC20/ERC20Upgradeable.sol\":2218:2256  __ERC20_init_unchained(name_, symbol_) */\n      jump\t// in\n    tag_376:\n        /* \"@openzeppelin/contracts-upgradeable/token/ERC20/ERC20Upgradeable.sol\":2116:2263  function __ERC20_init(string memory name_, string memory symbol_) internal onlyInitializing {... */\n      pop\n      pop\n      jump\t// out\n        /* \"@openzeppelin/contracts-upgradeable/token/ERC20/extensions/ERC20CappedUpgradeable.sol\":567:686  function __ERC20Capped_init(uint256 cap_) internal onlyInitializing {... */\n    tag_217:\n        /* \"@openzeppelin/contracts-upgradeable/proxy/utils/Initializable.sol\":4910:4923  _initializing */\n      sload(0x00)\n      0x0100\n      swap1\n      div\n      0xff\n      and\n        /* \"@openzeppelin/contracts-upgradeable/proxy/utils/Initializable.sol\":4902:4971  require(_initializing, \"Initializable: contract is not initializing\") */\n      tag_379\n      jumpi\n      mload(0x40)\n      shl(0xe5, 0x461bcd)\n      dup2\n      mstore\n      0x04\n      add\n      tag_204\n      swap1\n      tag_368\n      jump\t// in\n    tag_379:\n        /* \"@openzeppelin/contracts-upgradeable/token/ERC20/extensions/ERC20CappedUpgradeable.sol\":645:679  __ERC20Capped_init_unchained(cap_) */\n      tag_262\n        /* \"@openzeppelin/contracts-upgradeable/token/ERC20/extensions/ERC20CappedUpgradeable.sol\":674:678  cap_ */\n      dup2\n        /* \"@openzeppelin/contracts-upgradeable/token/ERC20/extensions/ERC20CappedUpgradeable.sol\":645:673  __ERC20Capped_init_unchained */\n      tag_383\n        /* \"@openzeppelin/contracts-upgradeable/token/ERC20/extensions/ERC20CappedUpgradeable.sol\":645:679  __ERC20Capped_init_unchained(cap_) */\n      jump\t// in\n        /* \"@openzeppelin/contracts-upgradeable/token/ERC20/extensions/ERC20CappedUpgradeable.sol\":1063:1278  function _mint(address account, uint256 amount) internal virtual override {... */\n    tag_222:\n        /* \"@openzeppelin/contracts-upgradeable/token/ERC20/extensions/ERC20CappedUpgradeable.sol\":999:1003  _cap */\n      sload(0x65)\n        /* \"@openzeppelin/contracts-upgradeable/token/ERC20/extensions/ERC20CappedUpgradeable.sol\":1188:1194  amount */\n      dup2\n        /* \"@openzeppelin/contracts-upgradeable/token/ERC20/extensions/ERC20CappedUpgradeable.sol\":1155:1185  ERC20Upgradeable.totalSupply() */\n      tag_386\n        /* \"@openzeppelin/contracts-upgradeable/token/ERC20/ERC20Upgradeable.sol\":3668:3680  _totalSupply */\n      sload(0x35)\n      swap1\n        /* \"@openzeppelin/contracts-upgradeable/token/ERC20/ERC20Upgradeable.sol\":3581:3687  function totalSupply() public view virtual override returns (uint256) {... */\n      jump\n        /* \"@openzeppelin/contracts-upgradeable/token/ERC20/extensions/ERC20CappedUpgradeable.sol\":1155:1185  ERC20Upgradeable.totalSupply() */\n    tag_386:\n        /* \"@openzeppelin/contracts-upgradeable/token/ERC20/extensions/ERC20CappedUpgradeable.sol\":1155:1194  ERC20Upgradeable.totalSupply() + amount */\n      tag_387\n      swap2\n      swap1\n      tag_233\n      jump\t// in\n    tag_387:\n        /* \"@openzeppelin/contracts-upgradeable/token/ERC20/extensions/ERC20CappedUpgradeable.sol\":1155:1203  ERC20Upgradeable.totalSupply() + amount <= cap() */\n      gt\n      iszero\n        /* \"@openzeppelin/contracts-upgradeable/token/ERC20/extensions/ERC20CappedUpgradeable.sol\":1147:1233  require(ERC20Upgradeable.totalSupply() + amount <= cap(), \"ERC20Capped: cap exceeded\") */\n      tag_388\n      jumpi\n      mload(0x40)\n      shl(0xe5, 0x461bcd)\n      dup2\n      mstore\n        /* \"#utility.yul\":15725:15727   */\n      0x20\n        /* \"@openzeppelin/contracts-upgradeable/token/ERC20/extensions/ERC20CappedUpgradeable.sol\":1147:1233  require(ERC20Upgradeable.totalSupply() + amount <= cap(), \"ERC20Capped: cap exceeded\") */\n      0x04\n      dup3\n      add\n        /* \"#utility.yul\":15707:15728   */\n      mstore\n        /* \"#utility.yul\":15764:15766   */\n      0x19\n        /* \"#utility.yul\":15744:15762   */\n      0x24\n      dup3\n      add\n        /* \"#utility.yul\":15737:15767   */\n      mstore\n        /* \"#utility.yul\":15803:15830   */\n      0x45524332304361707065643a2063617020657863656564656400000000000000\n        /* \"#utility.yul\":15783:15801   */\n      0x44\n      dup3\n      add\n        /* \"#utility.yul\":15776:15831   */\n      mstore\n        /* \"#utility.yul\":15848:15866   */\n      0x64\n      add\n        /* \"@openzeppelin/contracts-upgradeable/token/ERC20/extensions/ERC20CappedUpgradeable.sol\":1147:1233  require(ERC20Upgradeable.totalSupply() + amount <= cap(), \"ERC20Capped: cap exceeded\") */\n      tag_204\n        /* \"#utility.yul\":15523:15872   */\n      jump\n        /* \"@openzeppelin/contracts-upgradeable/token/ERC20/extensions/ERC20CappedUpgradeable.sol\":1147:1233  require(ERC20Upgradeable.totalSupply() + amount <= cap(), \"ERC20Capped: cap exceeded\") */\n    tag_388:\n        /* \"@openzeppelin/contracts-upgradeable/token/ERC20/extensions/ERC20CappedUpgradeable.sol\":1243:1271  super._mint(account, amount) */\n      tag_376\n        /* \"@openzeppelin/contracts-upgradeable/token/ERC20/extensions/ERC20CappedUpgradeable.sol\":1255:1262  account */\n      dup3\n        /* \"@openzeppelin/contracts-upgradeable/token/ERC20/extensions/ERC20CappedUpgradeable.sol\":1264:1270  amount */\n      dup3\n        /* \"@openzeppelin/contracts-upgradeable/token/ERC20/extensions/ERC20CappedUpgradeable.sol\":1243:1254  super._mint */\n      tag_392\n        /* \"@openzeppelin/contracts-upgradeable/token/ERC20/extensions/ERC20CappedUpgradeable.sol\":1243:1271  super._mint(account, amount) */\n      jump\t// in\n        /* \"@openzeppelin/contracts-upgradeable/access/OwnableUpgradeable.sol\":1599:1729  function _checkOwner() internal view virtual {... */\n    tag_240:\n        /* \"@openzeppelin/contracts-upgradeable/access/OwnableUpgradeable.sol\":1513:1519  _owner */\n      and(sub(shl(0xa0, 0x01), 0x01), sload(0x98))\n        /* \"@openzeppelin/contracts-upgradeable/utils/ContextUpgradeable.sol\":929:939  msg.sender */\n      caller\n        /* \"@openzeppelin/contracts-upgradeable/access/OwnableUpgradeable.sol\":1662:1685  owner() == _msgSender() */\n      eq\n        /* \"@openzeppelin/contracts-upgradeable/access/OwnableUpgradeable.sol\":1654:1722  require(owner() == _msgSender(), \"Ownable: caller is not the owner\") */\n      tag_242\n      jumpi\n      mload(0x40)\n      shl(0xe5, 0x461bcd)\n      dup2\n      mstore\n        /* \"#utility.yul\":14211:14213   */\n      0x20\n        /* \"@openzeppelin/contracts-upgradeable/access/OwnableUpgradeable.sol\":1654:1722  require(owner() == _msgSender(), \"Ownable: caller is not the owner\") */\n      0x04\n      dup3\n      add\n        /* \"#utility.yul\":14193:14214   */\n      dup2\n      swap1\n      mstore\n        /* \"#utility.yul\":14230:14248   */\n      0x24\n      dup3\n      add\n        /* \"#utility.yul\":14223:14253   */\n      mstore\n        /* \"#utility.yul\":14289:14323   */\n      0x4f776e61626c653a2063616c6c6572206973206e6f7420746865206f776e6572\n        /* \"#utility.yul\":14269:14287   */\n      0x44\n      dup3\n      add\n        /* \"#utility.yul\":14262:14324   */\n      mstore\n        /* \"#utility.yul\":14341:14359   */\n      0x64\n      add\n        /* \"@openzeppelin/contracts-upgradeable/access/OwnableUpgradeable.sol\":1654:1722  require(owner() == _msgSender(), \"Ownable: caller is not the owner\") */\n      tag_204\n        /* \"#utility.yul\":14009:14365   */\n      jump\n        /* \"@openzeppelin/contracts-upgradeable/access/OwnableUpgradeable.sol\":2673:2860  function _transferOwnership(address newOwner) internal virtual {... */\n    tag_243:\n        /* \"@openzeppelin/contracts-upgradeable/access/OwnableUpgradeable.sol\":2765:2771  _owner */\n      0x98\n      dup1\n      sload\n      sub(shl(0xa0, 0x01), 0x01)\n        /* \"@openzeppelin/contracts-upgradeable/access/OwnableUpgradeable.sol\":2781:2798  _owner = newOwner */\n      dup4\n      dup2\n      and\n      not(sub(shl(0xa0, 0x01), 0x01))\n      dup4\n      and\n      dup2\n      or\n      swap1\n      swap4\n      sstore\n        /* \"@openzeppelin/contracts-upgradeable/access/OwnableUpgradeable.sol\":2813:2853  OwnershipTransferred(oldOwner, newOwner) */\n      mload(0x40)\n        /* \"@openzeppelin/contracts-upgradeable/access/OwnableUpgradeable.sol\":2765:2771  _owner */\n      swap2\n      and\n      swap2\n        /* \"@openzeppelin/contracts-upgradeable/access/OwnableUpgradeable.sol\":2781:2798  _owner = newOwner */\n      swap1\n        /* \"@openzeppelin/contracts-upgradeable/access/OwnableUpgradeable.sol\":2765:2771  _owner */\n      dup3\n      swap1\n        /* \"@openzeppelin/contracts-upgradeable/access/OwnableUpgradeable.sol\":2813:2853  OwnershipTransferred(oldOwner, newOwner) */\n      0x8be0079c531659141344cd1fd0a4f28419497f9722a3daafe3b4186f6b6457e0\n      swap1\n        /* \"@openzeppelin/contracts-upgradeable/access/OwnableUpgradeable.sol\":2746:2762  address oldOwner */\n      0x00\n      swap1\n        /* \"@openzeppelin/contracts-upgradeable/access/OwnableUpgradeable.sol\":2813:2853  OwnershipTransferred(oldOwner, newOwner) */\n      log3\n        /* \"@openzeppelin/contracts-upgradeable/access/OwnableUpgradeable.sol\":2736:2860  {... */\n      pop\n        /* \"@openzeppelin/contracts-upgradeable/access/OwnableUpgradeable.sol\":2673:2860  function _transferOwnership(address newOwner) internal virtual {... */\n      pop\n      jump\t// out\n        /* \"contracts/DeAnt3Token.sol\":2295:2536  function _updateMap(\r... */\n    tag_257:\n        /* \"contracts/DeAnt3Token.sol\":2447:2455  uint64 i */\n      0x00\n        /* \"contracts/DeAnt3Token.sol\":2442:2529  for (uint64 i = 0; i < arr.length; i++) {\r... */\n    tag_401:\n        /* \"contracts/DeAnt3Token.sol\":2465:2468  arr */\n      dup4\n        /* \"contracts/DeAnt3Token.sol\":2465:2475  arr.length */\n      mload\n        /* \"contracts/DeAnt3Token.sol\":2461:2462  i */\n      dup2\n      sub(shl(0x40, 0x01), 0x01)\n        /* \"contracts/DeAnt3Token.sol\":2461:2475  i < arr.length */\n      and\n      lt\n        /* \"contracts/DeAnt3Token.sol\":2442:2529  for (uint64 i = 0; i < arr.length; i++) {\r... */\n      iszero\n      tag_402\n      jumpi\n        /* \"contracts/DeAnt3Token.sol\":2511:2517  status */\n      dup3\n        /* \"contracts/DeAnt3Token.sol\":2497:2500  map */\n      dup3\n        /* \"contracts/DeAnt3Token.sol\":2497:2508  map[arr[i]] */\n      0x00\n        /* \"contracts/DeAnt3Token.sol\":2501:2504  arr */\n      dup7\n        /* \"contracts/DeAnt3Token.sol\":2505:2506  i */\n      dup5\n      sub(shl(0x40, 0x01), 0x01)\n        /* \"contracts/DeAnt3Token.sol\":2501:2507  arr[i] */\n      and\n      dup2\n      mload\n      dup2\n      lt\n      tag_405\n      jumpi\n      tag_405\n      tag_304\n      jump\t// in\n    tag_405:\n      0x20\n      swap1\n      dup2\n      mul\n      swap2\n      swap1\n      swap2\n      add\n      dup2\n      add\n      mload\n      sub(shl(0xa0, 0x01), 0x01)\n        /* \"contracts/DeAnt3Token.sol\":2497:2508  map[arr[i]] */\n      and\n      dup3\n      mstore\n      dup2\n      add\n      swap2\n      swap1\n      swap2\n      mstore\n      0x40\n      add\n      0x00\n      keccak256\n        /* \"contracts/DeAnt3Token.sol\":2497:2517  map[arr[i]] = status */\n      dup1\n      sload\n      not(0xff)\n      and\n      swap2\n      iszero\n      iszero\n      swap2\n      swap1\n      swap2\n      or\n      swap1\n      sstore\n        /* \"contracts/DeAnt3Token.sol\":2477:2480  i++ */\n      dup1\n      tag_406\n      dup2\n      tag_318\n      jump\t// in\n    tag_406:\n      swap2\n      pop\n      pop\n        /* \"contracts/DeAnt3Token.sol\":2442:2529  for (uint64 i = 0; i < arr.length; i++) {\r... */\n      jump(tag_401)\n    tag_402:\n      pop\n        /* \"contracts/DeAnt3Token.sol\":2295:2536  function _updateMap(\r... */\n      pop\n      pop\n      pop\n      jump\t// out\n        /* \"@openzeppelin/contracts-upgradeable/token/ERC20/ERC20Upgradeable.sol\":4066:4255  function transfer(address to, uint256 amount) public virtual override returns (bool) {... */\n    tag_274:\n        /* \"@openzeppelin/contracts-upgradeable/token/ERC20/ERC20Upgradeable.sol\":4145:4149  bool */\n      0x00\n        /* \"@openzeppelin/contracts-upgradeable/utils/ContextUpgradeable.sol\":929:939  msg.sender */\n      caller\n        /* \"@openzeppelin/contracts-upgradeable/token/ERC20/ERC20Upgradeable.sol\":4199:4227  _transfer(owner, to, amount) */\n      tag_187\n        /* \"@openzeppelin/contracts-upgradeable/utils/ContextUpgradeable.sol\":929:939  msg.sender */\n      dup2\n        /* \"@openzeppelin/contracts-upgradeable/token/ERC20/ERC20Upgradeable.sol\":4216:4218  to */\n      dup6\n        /* \"@openzeppelin/contracts-upgradeable/token/ERC20/ERC20Upgradeable.sol\":4220:4226  amount */\n      dup6\n        /* \"@openzeppelin/contracts-upgradeable/token/ERC20/ERC20Upgradeable.sol\":4199:4208  _transfer */\n      tag_363\n        /* \"@openzeppelin/contracts-upgradeable/token/ERC20/ERC20Upgradeable.sol\":4199:4227  _transfer(owner, to, amount) */\n      jump\t// in\n        /* \"@openzeppelin/contracts-upgradeable/token/ERC20/ERC20Upgradeable.sol\":9448:10024  function _burn(address account, uint256 amount) internal virtual {... */\n    tag_355:\n      sub(shl(0xa0, 0x01), 0x01)\n        /* \"@openzeppelin/contracts-upgradeable/token/ERC20/ERC20Upgradeable.sol\":9531:9552  account != address(0) */\n      dup3\n      and\n        /* \"@openzeppelin/contracts-upgradeable/token/ERC20/ERC20Upgradeable.sol\":9523:9590  require(account != address(0), \"ERC20: burn from the zero address\") */\n      tag_411\n      jumpi\n      mload(0x40)\n      shl(0xe5, 0x461bcd)\n      dup2\n      mstore\n        /* \"#utility.yul\":14917:14919   */\n      0x20\n        /* \"@openzeppelin/contracts-upgradeable/token/ERC20/ERC20Upgradeable.sol\":9523:9590  require(account != address(0), \"ERC20: burn from the zero address\") */\n      0x04\n      dup3\n      add\n        /* \"#utility.yul\":14899:14920   */\n      mstore\n        /* \"#utility.yul\":14956:14958   */\n      0x21\n        /* \"#utility.yul\":14936:14954   */\n      0x24\n      dup3\n      add\n        /* \"#utility.yul\":14929:14959   */\n      mstore\n        /* \"#utility.yul\":14995:15029   */\n      0x45524332303a206275726e2066726f6d20746865207a65726f20616464726573\n        /* \"#utility.yul\":14975:14993   */\n      0x44\n      dup3\n      add\n        /* \"#utility.yul\":14968:15030   */\n      mstore\n      shl(0xf8, 0x73)\n        /* \"#utility.yul\":15046:15064   */\n      0x64\n      dup3\n      add\n        /* \"#utility.yul\":15039:15070   */\n      mstore\n        /* \"#utility.yul\":15087:15106   */\n      0x84\n      add\n        /* \"@openzeppelin/contracts-upgradeable/token/ERC20/ERC20Upgradeable.sol\":9523:9590  require(account != address(0), \"ERC20: burn from the zero address\") */\n      tag_204\n        /* \"#utility.yul\":14715:15112   */\n      jump\n        /* \"@openzeppelin/contracts-upgradeable/token/ERC20/ERC20Upgradeable.sol\":9523:9590  require(account != address(0), \"ERC20: burn from the zero address\") */\n    tag_411:\n      sub(shl(0xa0, 0x01), 0x01)\n        /* \"@openzeppelin/contracts-upgradeable/token/ERC20/ERC20Upgradeable.sol\":9686:9704  _balances[account] */\n      dup3\n      and\n        /* \"@openzeppelin/contracts-upgradeable/token/ERC20/ERC20Upgradeable.sol\":9661:9683  uint256 accountBalance */\n      0x00\n        /* \"@openzeppelin/contracts-upgradeable/token/ERC20/ERC20Upgradeable.sol\":9686:9704  _balances[account] */\n      swap1\n      dup2\n      mstore\n        /* \"@openzeppelin/contracts-upgradeable/token/ERC20/ERC20Upgradeable.sol\":9686:9695  _balances */\n      0x33\n        /* \"@openzeppelin/contracts-upgradeable/token/ERC20/ERC20Upgradeable.sol\":9686:9704  _balances[account] */\n      0x20\n      mstore\n      0x40\n      swap1\n      keccak256\n      sload\n        /* \"@openzeppelin/contracts-upgradeable/token/ERC20/ERC20Upgradeable.sol\":9722:9746  accountBalance >= amount */\n      dup2\n      dup2\n      lt\n      iszero\n        /* \"@openzeppelin/contracts-upgradeable/token/ERC20/ERC20Upgradeable.sol\":9714:9785  require(accountBalance >= amount, \"ERC20: burn amount exceeds balance\") */\n      tag_416\n      jumpi\n      mload(0x40)\n      shl(0xe5, 0x461bcd)\n      dup2\n      mstore\n        /* \"#utility.yul\":10781:10783   */\n      0x20\n        /* \"@openzeppelin/contracts-upgradeable/token/ERC20/ERC20Upgradeable.sol\":9714:9785  require(accountBalance >= amount, \"ERC20: burn amount exceeds balance\") */\n      0x04\n      dup3\n      add\n        /* \"#utility.yul\":10763:10784   */\n      mstore\n        /* \"#utility.yul\":10820:10822   */\n      0x22\n        /* \"#utility.yul\":10800:10818   */\n      0x24\n      dup3\n      add\n        /* \"#utility.yul\":10793:10823   */\n      mstore\n        /* \"#utility.yul\":10859:10893   */\n      0x45524332303a206275726e20616d6f756e7420657863656564732062616c616e\n        /* \"#utility.yul\":10839:10857   */\n      0x44\n      dup3\n      add\n        /* \"#utility.yul\":10832:10894   */\n      mstore\n      shl(0xf0, 0x6365)\n        /* \"#utility.yul\":10910:10928   */\n      0x64\n      dup3\n      add\n        /* \"#utility.yul\":10903:10935   */\n      mstore\n        /* \"#utility.yul\":10952:10971   */\n      0x84\n      add\n        /* \"@openzeppelin/contracts-upgradeable/token/ERC20/ERC20Upgradeable.sol\":9714:9785  require(accountBalance >= amount, \"ERC20: burn amount exceeds balance\") */\n      tag_204\n        /* \"#utility.yul\":10579:10977   */\n      jump\n        /* \"@openzeppelin/contracts-upgradeable/token/ERC20/ERC20Upgradeable.sol\":9714:9785  require(accountBalance >= amount, \"ERC20: burn amount exceeds balance\") */\n    tag_416:\n      sub(shl(0xa0, 0x01), 0x01)\n        /* \"@openzeppelin/contracts-upgradeable/token/ERC20/ERC20Upgradeable.sol\":9819:9837  _balances[account] */\n      dup4\n      and\n      0x00\n      swap1\n      dup2\n      mstore\n        /* \"@openzeppelin/contracts-upgradeable/token/ERC20/ERC20Upgradeable.sol\":9819:9828  _balances */\n      0x33\n        /* \"@openzeppelin/contracts-upgradeable/token/ERC20/ERC20Upgradeable.sol\":9819:9837  _balances[account] */\n      0x20\n      mstore\n      0x40\n      dup2\n      keccak256\n        /* \"@openzeppelin/contracts-upgradeable/token/ERC20/ERC20Upgradeable.sol\":9840:9863  accountBalance - amount */\n      dup4\n      dup4\n      sub\n        /* \"@openzeppelin/contracts-upgradeable/token/ERC20/ERC20Upgradeable.sol\":9819:9863  _balances[account] = accountBalance - amount */\n      swap1\n      sstore\n        /* \"@openzeppelin/contracts-upgradeable/token/ERC20/ERC20Upgradeable.sol\":9883:9895  _totalSupply */\n      0x35\n        /* \"@openzeppelin/contracts-upgradeable/token/ERC20/ERC20Upgradeable.sol\":9883:9905  _totalSupply -= amount */\n      dup1\n      sload\n        /* \"@openzeppelin/contracts-upgradeable/token/ERC20/ERC20Upgradeable.sol\":9857:9863  amount */\n      dup5\n      swap3\n        /* \"@openzeppelin/contracts-upgradeable/token/ERC20/ERC20Upgradeable.sol\":9819:9837  _balances[account] */\n      swap1\n        /* \"@openzeppelin/contracts-upgradeable/token/ERC20/ERC20Upgradeable.sol\":9883:9905  _totalSupply -= amount */\n      tag_419\n      swap1\n        /* \"@openzeppelin/contracts-upgradeable/token/ERC20/ERC20Upgradeable.sol\":9857:9863  amount */\n      dup5\n      swap1\n        /* \"@openzeppelin/contracts-upgradeable/token/ERC20/ERC20Upgradeable.sol\":9883:9905  _totalSupply -= amount */\n      tag_279\n      jump\t// in\n    tag_419:\n      swap1\n      swap2\n      sstore\n      pop\n      pop\n        /* \"@openzeppelin/contracts-upgradeable/token/ERC20/ERC20Upgradeable.sol\":9921:9958  Transfer(account, address(0), amount) */\n      mload(0x40)\n        /* \"#utility.yul\":17606:17631   */\n      dup3\n      dup2\n      mstore\n        /* \"@openzeppelin/contracts-upgradeable/token/ERC20/ERC20Upgradeable.sol\":9947:9948  0 */\n      0x00\n      swap1\n      sub(shl(0xa0, 0x01), 0x01)\n        /* \"@openzeppelin/contracts-upgradeable/token/ERC20/ERC20Upgradeable.sol\":9921:9958  Transfer(account, address(0), amount) */\n      dup6\n      and\n      swap1\n      0xddf252ad1be2c89b69c2b068fc378daa952ba7f163c4a11628f55a4df523b3ef\n      swap1\n        /* \"#utility.yul\":17594:17596   */\n      0x20\n        /* \"#utility.yul\":17579:17597   */\n      add\n        /* \"@openzeppelin/contracts-upgradeable/token/ERC20/ERC20Upgradeable.sol\":9921:9958  Transfer(account, address(0), amount) */\n      tag_348\n        /* \"#utility.yul\":17460:17637   */\n      jump\n        /* \"@openzeppelin/contracts-upgradeable/token/ERC20/ERC20Upgradeable.sol\":9969:10017  _afterTokenTransfer(account, address(0), amount) */\n    tag_421:\n        /* \"@openzeppelin/contracts-upgradeable/token/ERC20/ERC20Upgradeable.sol\":9513:10024  {... */\n      pop\n        /* \"@openzeppelin/contracts-upgradeable/token/ERC20/ERC20Upgradeable.sol\":9448:10024  function _burn(address account, uint256 amount) internal virtual {... */\n      pop\n      pop\n      jump\t// out\n        /* \"@openzeppelin/contracts-upgradeable/token/ERC20/ERC20Upgradeable.sol\":11098:11539  function _spendAllowance(... */\n    tag_361:\n        /* \"@openzeppelin/contracts-upgradeable/token/ERC20/ERC20Upgradeable.sol\":11228:11252  uint256 currentAllowance */\n      0x00\n        /* \"@openzeppelin/contracts-upgradeable/token/ERC20/ERC20Upgradeable.sol\":11255:11280  allowance(owner, spender) */\n      tag_424\n        /* \"@openzeppelin/contracts-upgradeable/token/ERC20/ERC20Upgradeable.sol\":11265:11270  owner */\n      dup5\n        /* \"@openzeppelin/contracts-upgradeable/token/ERC20/ERC20Upgradeable.sol\":11272:11279  spender */\n      dup5\n        /* \"@openzeppelin/contracts-upgradeable/token/ERC20/ERC20Upgradeable.sol\":11255:11264  allowance */\n      tag_156\n        /* \"@openzeppelin/contracts-upgradeable/token/ERC20/ERC20Upgradeable.sol\":11255:11280  allowance(owner, spender) */\n      jump\t// in\n    tag_424:\n        /* \"@openzeppelin/contracts-upgradeable/token/ERC20/ERC20Upgradeable.sol\":11228:11280  uint256 currentAllowance = allowance(owner, spender) */\n      swap1\n      pop\n      not(0x00)\n        /* \"@openzeppelin/contracts-upgradeable/token/ERC20/ERC20Upgradeable.sol\":11294:11310  currentAllowance */\n      dup2\n        /* \"@openzeppelin/contracts-upgradeable/token/ERC20/ERC20Upgradeable.sol\":11294:11331  currentAllowance != type(uint256).max */\n      eq\n        /* \"@openzeppelin/contracts-upgradeable/token/ERC20/ERC20Upgradeable.sol\":11290:11533  if (currentAllowance != type(uint256).max) {... */\n      tag_402\n      jumpi\n        /* \"@openzeppelin/contracts-upgradeable/token/ERC20/ERC20Upgradeable.sol\":11375:11381  amount */\n      dup2\n        /* \"@openzeppelin/contracts-upgradeable/token/ERC20/ERC20Upgradeable.sol\":11355:11371  currentAllowance */\n      dup2\n        /* \"@openzeppelin/contracts-upgradeable/token/ERC20/ERC20Upgradeable.sol\":11355:11381  currentAllowance >= amount */\n      lt\n      iszero\n        /* \"@openzeppelin/contracts-upgradeable/token/ERC20/ERC20Upgradeable.sol\":11347:11415  require(currentAllowance >= amount, \"ERC20: insufficient allowance\") */\n      tag_426\n      jumpi\n      mload(0x40)\n      shl(0xe5, 0x461bcd)\n      dup2\n      mstore\n        /* \"#utility.yul\":12339:12341   */\n      0x20\n        /* \"@openzeppelin/contracts-upgradeable/token/ERC20/ERC20Upgradeable.sol\":11347:11415  require(currentAllowance >= amount, \"ERC20: insufficient allowance\") */\n      0x04\n      dup3\n      add\n        /* \"#utility.yul\":12321:12342   */\n      mstore\n        /* \"#utility.yul\":12378:12380   */\n      0x1d\n        /* \"#utility.yul\":12358:12376   */\n      0x24\n      dup3\n      add\n        /* \"#utility.yul\":12351:12381   */\n      mstore\n        /* \"#utility.yul\":12417:12448   */\n      0x45524332303a20696e73756666696369656e7420616c6c6f77616e6365000000\n        /* \"#utility.yul\":12397:12415   */\n      0x44\n      dup3\n      add\n        /* \"#utility.yul\":12390:12449   */\n      mstore\n        /* \"#utility.yul\":12466:12484   */\n      0x64\n      add\n        /* \"@openzeppelin/contracts-upgradeable/token/ERC20/ERC20Upgradeable.sol\":11347:11415  require(currentAllowance >= amount, \"ERC20: insufficient allowance\") */\n      tag_204\n        /* \"#utility.yul\":12137:12490   */\n      jump\n        /* \"@openzeppelin/contracts-upgradeable/token/ERC20/ERC20Upgradeable.sol\":11347:11415  require(currentAllowance >= amount, \"ERC20: insufficient allowance\") */\n    tag_426:\n        /* \"@openzeppelin/contracts-upgradeable/token/ERC20/ERC20Upgradeable.sol\":11457:11508  _approve(owner, spender, currentAllowance - amount) */\n      tag_402\n        /* \"@openzeppelin/contracts-upgradeable/token/ERC20/ERC20Upgradeable.sol\":11466:11471  owner */\n      dup5\n        /* \"@openzeppelin/contracts-upgradeable/token/ERC20/ERC20Upgradeable.sol\":11473:11480  spender */\n      dup5\n        /* \"@openzeppelin/contracts-upgradeable/token/ERC20/ERC20Upgradeable.sol\":11501:11507  amount */\n      dup5\n        /* \"@openzeppelin/contracts-upgradeable/token/ERC20/ERC20Upgradeable.sol\":11482:11498  currentAllowance */\n      dup5\n        /* \"@openzeppelin/contracts-upgradeable/token/ERC20/ERC20Upgradeable.sol\":11482:11507  currentAllowance - amount */\n      sub\n        /* \"@openzeppelin/contracts-upgradeable/token/ERC20/ERC20Upgradeable.sol\":11457:11465  _approve */\n      tag_188\n        /* \"@openzeppelin/contracts-upgradeable/token/ERC20/ERC20Upgradeable.sol\":11457:11508  _approve(owner, spender, currentAllowance - amount) */\n      jump\t// in\n        /* \"@openzeppelin/contracts-upgradeable/token/ERC20/ERC20Upgradeable.sol\":7812:8463  function _transfer(... */\n    tag_363:\n      sub(shl(0xa0, 0x01), 0x01)\n        /* \"@openzeppelin/contracts-upgradeable/token/ERC20/ERC20Upgradeable.sol\":7938:7956  from != address(0) */\n      dup4\n      and\n        /* \"@openzeppelin/contracts-upgradeable/token/ERC20/ERC20Upgradeable.sol\":7930:7998  require(from != address(0), \"ERC20: transfer from the zero address\") */\n      tag_431\n      jumpi\n      mload(0x40)\n      shl(0xe5, 0x461bcd)\n      dup2\n      mstore\n        /* \"#utility.yul\":15319:15321   */\n      0x20\n        /* \"@openzeppelin/contracts-upgradeable/token/ERC20/ERC20Upgradeable.sol\":7930:7998  require(from != address(0), \"ERC20: transfer from the zero address\") */\n      0x04\n      dup3\n      add\n        /* \"#utility.yul\":15301:15322   */\n      mstore\n        /* \"#utility.yul\":15358:15360   */\n      0x25\n        /* \"#utility.yul\":15338:15356   */\n      0x24\n      dup3\n      add\n        /* \"#utility.yul\":15331:15361   */\n      mstore\n        /* \"#utility.yul\":15397:15431   */\n      0x45524332303a207472616e736665722066726f6d20746865207a65726f206164\n        /* \"#utility.yul\":15377:15395   */\n      0x44\n      dup3\n      add\n        /* \"#utility.yul\":15370:15432   */\n      mstore\n      shl(0xd8, 0x6472657373)\n        /* \"#utility.yul\":15448:15466   */\n      0x64\n      dup3\n      add\n        /* \"#utility.yul\":15441:15476   */\n      mstore\n        /* \"#utility.yul\":15493:15512   */\n      0x84\n      add\n        /* \"@openzeppelin/contracts-upgradeable/token/ERC20/ERC20Upgradeable.sol\":7930:7998  require(from != address(0), \"ERC20: transfer from the zero address\") */\n      tag_204\n        /* \"#utility.yul\":15117:15518   */\n      jump\n        /* \"@openzeppelin/contracts-upgradeable/token/ERC20/ERC20Upgradeable.sol\":7930:7998  require(from != address(0), \"ERC20: transfer from the zero address\") */\n    tag_431:\n      sub(shl(0xa0, 0x01), 0x01)\n        /* \"@openzeppelin/contracts-upgradeable/token/ERC20/ERC20Upgradeable.sol\":8016:8032  to != address(0) */\n      dup3\n      and\n        /* \"@openzeppelin/contracts-upgradeable/token/ERC20/ERC20Upgradeable.sol\":8008:8072  require(to != address(0), \"ERC20: transfer to the zero address\") */\n      tag_434\n      jumpi\n      mload(0x40)\n      shl(0xe5, 0x461bcd)\n      dup2\n      mstore\n        /* \"#utility.yul\":10027:10029   */\n      0x20\n        /* \"@openzeppelin/contracts-upgradeable/token/ERC20/ERC20Upgradeable.sol\":8008:8072  require(to != address(0), \"ERC20: transfer to the zero address\") */\n      0x04\n      dup3\n      add\n        /* \"#utility.yul\":10009:10030   */\n      mstore\n        /* \"#utility.yul\":10066:10068   */\n      0x23\n        /* \"#utility.yul\":10046:10064   */\n      0x24\n      dup3\n      add\n        /* \"#utility.yul\":10039:10069   */\n      mstore\n        /* \"#utility.yul\":10105:10139   */\n      0x45524332303a207472616e7366657220746f20746865207a65726f2061646472\n        /* \"#utility.yul\":10085:10103   */\n      0x44\n      dup3\n      add\n        /* \"#utility.yul\":10078:10140   */\n      mstore\n      shl(0xe8, 0x657373)\n        /* \"#utility.yul\":10156:10174   */\n      0x64\n      dup3\n      add\n        /* \"#utility.yul\":10149:10182   */\n      mstore\n        /* \"#utility.yul\":10199:10218   */\n      0x84\n      add\n        /* \"@openzeppelin/contracts-upgradeable/token/ERC20/ERC20Upgradeable.sol\":8008:8072  require(to != address(0), \"ERC20: transfer to the zero address\") */\n      tag_204\n        /* \"#utility.yul\":9825:10224   */\n      jump\n        /* \"@openzeppelin/contracts-upgradeable/token/ERC20/ERC20Upgradeable.sol\":8008:8072  require(to != address(0), \"ERC20: transfer to the zero address\") */\n    tag_434:\n      sub(shl(0xa0, 0x01), 0x01)\n        /* \"@openzeppelin/contracts-upgradeable/token/ERC20/ERC20Upgradeable.sol\":8154:8169  _balances[from] */\n      dup4\n      and\n        /* \"@openzeppelin/contracts-upgradeable/token/ERC20/ERC20Upgradeable.sol\":8132:8151  uint256 fromBalance */\n      0x00\n        /* \"@openzeppelin/contracts-upgradeable/token/ERC20/ERC20Upgradeable.sol\":8154:8169  _balances[from] */\n      swap1\n      dup2\n      mstore\n        /* \"@openzeppelin/contracts-upgradeable/token/ERC20/ERC20Upgradeable.sol\":8154:8163  _balances */\n      0x33\n        /* \"@openzeppelin/contracts-upgradeable/token/ERC20/ERC20Upgradeable.sol\":8154:8169  _balances[from] */\n      0x20\n      mstore\n      0x40\n      swap1\n      keccak256\n      sload\n        /* \"@openzeppelin/contracts-upgradeable/token/ERC20/ERC20Upgradeable.sol\":8187:8208  fromBalance >= amount */\n      dup2\n      dup2\n      lt\n      iszero\n        /* \"@openzeppelin/contracts-upgradeable/token/ERC20/ERC20Upgradeable.sol\":8179:8251  require(fromBalance >= amount, \"ERC20: transfer amount exceeds balance\") */\n      tag_438\n      jumpi\n      mload(0x40)\n      shl(0xe5, 0x461bcd)\n      dup2\n      mstore\n        /* \"#utility.yul\":12697:12699   */\n      0x20\n        /* \"@openzeppelin/contracts-upgradeable/token/ERC20/ERC20Upgradeable.sol\":8179:8251  require(fromBalance >= amount, \"ERC20: transfer amount exceeds balance\") */\n      0x04\n      dup3\n      add\n        /* \"#utility.yul\":12679:12700   */\n      mstore\n        /* \"#utility.yul\":12736:12738   */\n      0x26\n        /* \"#utility.yul\":12716:12734   */\n      0x24\n      dup3\n      add\n        /* \"#utility.yul\":12709:12739   */\n      mstore\n        /* \"#utility.yul\":12775:12809   */\n      0x45524332303a207472616e7366657220616d6f756e7420657863656564732062\n        /* \"#utility.yul\":12755:12773   */\n      0x44\n      dup3\n      add\n        /* \"#utility.yul\":12748:12810   */\n      mstore\n      shl(0xd0, 0x616c616e6365)\n        /* \"#utility.yul\":12826:12844   */\n      0x64\n      dup3\n      add\n        /* \"#utility.yul\":12819:12855   */\n      mstore\n        /* \"#utility.yul\":12872:12891   */\n      0x84\n      add\n        /* \"@openzeppelin/contracts-upgradeable/token/ERC20/ERC20Upgradeable.sol\":8179:8251  require(fromBalance >= amount, \"ERC20: transfer amount exceeds balance\") */\n      tag_204\n        /* \"#utility.yul\":12495:12897   */\n      jump\n        /* \"@openzeppelin/contracts-upgradeable/token/ERC20/ERC20Upgradeable.sol\":8179:8251  require(fromBalance >= amount, \"ERC20: transfer amount exceeds balance\") */\n    tag_438:\n      sub(shl(0xa0, 0x01), 0x01)\n        /* \"@openzeppelin/contracts-upgradeable/token/ERC20/ERC20Upgradeable.sol\":8285:8300  _balances[from] */\n      dup1\n      dup6\n      and\n      0x00\n      swap1\n      dup2\n      mstore\n        /* \"@openzeppelin/contracts-upgradeable/token/ERC20/ERC20Upgradeable.sol\":8285:8294  _balances */\n      0x33\n        /* \"@openzeppelin/contracts-upgradeable/token/ERC20/ERC20Upgradeable.sol\":8285:8300  _balances[from] */\n      0x20\n      mstore\n      0x40\n      dup1\n      dup3\n      keccak256\n        /* \"@openzeppelin/contracts-upgradeable/token/ERC20/ERC20Upgradeable.sol\":8303:8323  fromBalance - amount */\n      dup6\n      dup6\n      sub\n        /* \"@openzeppelin/contracts-upgradeable/token/ERC20/ERC20Upgradeable.sol\":8285:8323  _balances[from] = fromBalance - amount */\n      swap1\n      sstore\n        /* \"@openzeppelin/contracts-upgradeable/token/ERC20/ERC20Upgradeable.sol\":8343:8356  _balances[to] */\n      swap2\n      dup6\n      and\n      dup2\n      mstore\n      swap1\n      dup2\n      keccak256\n        /* \"@openzeppelin/contracts-upgradeable/token/ERC20/ERC20Upgradeable.sol\":8343:8366  _balances[to] += amount */\n      dup1\n      sload\n        /* \"@openzeppelin/contracts-upgradeable/token/ERC20/ERC20Upgradeable.sol\":8317:8323  amount */\n      dup5\n      swap3\n        /* \"@openzeppelin/contracts-upgradeable/token/ERC20/ERC20Upgradeable.sol\":8285:8300  _balances[from] */\n      swap1\n        /* \"@openzeppelin/contracts-upgradeable/token/ERC20/ERC20Upgradeable.sol\":8343:8366  _balances[to] += amount */\n      tag_441\n      swap1\n        /* \"@openzeppelin/contracts-upgradeable/token/ERC20/ERC20Upgradeable.sol\":8317:8323  amount */\n      dup5\n      swap1\n        /* \"@openzeppelin/contracts-upgradeable/token/ERC20/ERC20Upgradeable.sol\":8343:8366  _balances[to] += amount */\n      tag_233\n      jump\t// in\n    tag_441:\n      swap3\n      pop\n      pop\n      dup2\n      swap1\n      sstore\n      pop\n        /* \"@openzeppelin/contracts-upgradeable/token/ERC20/ERC20Upgradeable.sol\":8397:8399  to */\n      dup3\n      sub(shl(0xa0, 0x01), 0x01)\n        /* \"@openzeppelin/contracts-upgradeable/token/ERC20/ERC20Upgradeable.sol\":8382:8408  Transfer(from, to, amount) */\n      and\n        /* \"@openzeppelin/contracts-upgradeable/token/ERC20/ERC20Upgradeable.sol\":8391:8395  from */\n      dup5\n      sub(shl(0xa0, 0x01), 0x01)\n        /* \"@openzeppelin/contracts-upgradeable/token/ERC20/ERC20Upgradeable.sol\":8382:8408  Transfer(from, to, amount) */\n      and\n      0xddf252ad1be2c89b69c2b068fc378daa952ba7f163c4a11628f55a4df523b3ef\n        /* \"@openzeppelin/contracts-upgradeable/token/ERC20/ERC20Upgradeable.sol\":8401:8407  amount */\n      dup5\n        /* \"@openzeppelin/contracts-upgradeable/token/ERC20/ERC20Upgradeable.sol\":8382:8408  Transfer(from, to, amount) */\n      mload(0x40)\n      tag_442\n      swap2\n        /* \"#utility.yul\":17606:17631   */\n      dup2\n      mstore\n        /* \"#utility.yul\":17594:17596   */\n      0x20\n        /* \"#utility.yul\":17579:17597   */\n      add\n      swap1\n        /* \"#utility.yul\":17460:17637   */\n      jump\n        /* \"@openzeppelin/contracts-upgradeable/token/ERC20/ERC20Upgradeable.sol\":8382:8408  Transfer(from, to, amount) */\n    tag_442:\n      mload(0x40)\n      dup1\n      swap2\n      sub\n      swap1\n      log3\n        /* \"@openzeppelin/contracts-upgradeable/token/ERC20/ERC20Upgradeable.sol\":8419:8456  _afterTokenTransfer(from, to, amount) */\n      tag_402\n        /* \"@openzeppelin/contracts-upgradeable/token/ERC20/ERC20Upgradeable.sol\":9448:10024  function _burn(address account, uint256 amount) internal virtual {... */\n      jump\n        /* \"@openzeppelin/contracts-upgradeable/access/OwnableUpgradeable.sol\":1104:1215  function __Ownable_init_unchained() internal onlyInitializing {... */\n    tag_371:\n        /* \"@openzeppelin/contracts-upgradeable/proxy/utils/Initializable.sol\":4910:4923  _initializing */\n      sload(0x00)\n      0x0100\n      swap1\n      div\n      0xff\n      and\n        /* \"@openzeppelin/contracts-upgradeable/proxy/utils/Initializable.sol\":4902:4971  require(_initializing, \"Initializable: contract is not initializing\") */\n      tag_445\n      jumpi\n      mload(0x40)\n      shl(0xe5, 0x461bcd)\n      dup2\n      mstore\n      0x04\n      add\n      tag_204\n      swap1\n      tag_368\n      jump\t// in\n    tag_445:\n        /* \"@openzeppelin/contracts-upgradeable/access/OwnableUpgradeable.sol\":1176:1208  _transferOwnership(_msgSender()) */\n      tag_242\n        /* \"@openzeppelin/contracts-upgradeable/utils/ContextUpgradeable.sol\":929:939  msg.sender */\n      caller\n        /* \"@openzeppelin/contracts-upgradeable/access/OwnableUpgradeable.sol\":1176:1194  _transferOwnership */\n      tag_243\n        /* \"@openzeppelin/contracts-upgradeable/access/OwnableUpgradeable.sol\":1176:1208  _transferOwnership(_msgSender()) */\n      jump\t// in\n        /* \"@openzeppelin/contracts-upgradeable/token/ERC20/ERC20Upgradeable.sol\":2269:2428  function __ERC20_init_unchained(string memory name_, string memory symbol_) internal onlyInitializing {... */\n    tag_377:\n        /* \"@openzeppelin/contracts-upgradeable/proxy/utils/Initializable.sol\":4910:4923  _initializing */\n      sload(0x00)\n      0x0100\n      swap1\n      div\n      0xff\n      and\n        /* \"@openzeppelin/contracts-upgradeable/proxy/utils/Initializable.sol\":4902:4971  require(_initializing, \"Initializable: contract is not initializing\") */\n      tag_451\n      jumpi\n      mload(0x40)\n      shl(0xe5, 0x461bcd)\n      dup2\n      mstore\n      0x04\n      add\n      tag_204\n      swap1\n      tag_368\n      jump\t// in\n    tag_451:\n        /* \"@openzeppelin/contracts-upgradeable/token/ERC20/ERC20Upgradeable.sol\":2381:2394  _name = name_ */\n      dup2\n      mload\n      tag_454\n      swap1\n        /* \"@openzeppelin/contracts-upgradeable/token/ERC20/ERC20Upgradeable.sol\":2381:2386  _name */\n      0x36\n      swap1\n        /* \"@openzeppelin/contracts-upgradeable/token/ERC20/ERC20Upgradeable.sol\":2381:2394  _name = name_ */\n      0x20\n      dup6\n      add\n      swap1\n      tag_219\n      jump\t// in\n    tag_454:\n      pop\n        /* \"@openzeppelin/contracts-upgradeable/token/ERC20/ERC20Upgradeable.sol\":2404:2421  _symbol = symbol_ */\n      dup1\n      mload\n      tag_421\n      swap1\n        /* \"@openzeppelin/contracts-upgradeable/token/ERC20/ERC20Upgradeable.sol\":2404:2411  _symbol */\n      0x37\n      swap1\n        /* \"@openzeppelin/contracts-upgradeable/token/ERC20/ERC20Upgradeable.sol\":2404:2421  _symbol = symbol_ */\n      0x20\n      dup5\n      add\n      swap1\n      tag_219\n      jump\t// in\n        /* \"@openzeppelin/contracts-upgradeable/token/ERC20/extensions/ERC20CappedUpgradeable.sol\":692:850  function __ERC20Capped_init_unchained(uint256 cap_) internal onlyInitializing {... */\n    tag_383:\n        /* \"@openzeppelin/contracts-upgradeable/proxy/utils/Initializable.sol\":4910:4923  _initializing */\n      sload(0x00)\n      0x0100\n      swap1\n      div\n      0xff\n      and\n        /* \"@openzeppelin/contracts-upgradeable/proxy/utils/Initializable.sol\":4902:4971  require(_initializing, \"Initializable: contract is not initializing\") */\n      tag_457\n      jumpi\n      mload(0x40)\n      shl(0xe5, 0x461bcd)\n      dup2\n      mstore\n      0x04\n      add\n      tag_204\n      swap1\n      tag_368\n      jump\t// in\n    tag_457:\n        /* \"@openzeppelin/contracts-upgradeable/token/ERC20/extensions/ERC20CappedUpgradeable.sol\":795:796  0 */\n      0x00\n        /* \"@openzeppelin/contracts-upgradeable/token/ERC20/extensions/ERC20CappedUpgradeable.sol\":788:792  cap_ */\n      dup2\n        /* \"@openzeppelin/contracts-upgradeable/token/ERC20/extensions/ERC20CappedUpgradeable.sol\":788:796  cap_ > 0 */\n      gt\n        /* \"@openzeppelin/contracts-upgradeable/token/ERC20/extensions/ERC20CappedUpgradeable.sol\":780:822  require(cap_ > 0, \"ERC20Capped: cap is 0\") */\n      tag_460\n      jumpi\n      mload(0x40)\n      shl(0xe5, 0x461bcd)\n      dup2\n      mstore\n        /* \"#utility.yul\":10431:10433   */\n      0x20\n        /* \"@openzeppelin/contracts-upgradeable/token/ERC20/extensions/ERC20CappedUpgradeable.sol\":780:822  require(cap_ > 0, \"ERC20Capped: cap is 0\") */\n      0x04\n      dup3\n      add\n        /* \"#utility.yul\":10413:10434   */\n      mstore\n        /* \"#utility.yul\":10470:10472   */\n      0x15\n        /* \"#utility.yul\":10450:10468   */\n      0x24\n      dup3\n      add\n        /* \"#utility.yul\":10443:10473   */\n      mstore\n      shl(0x5c, 0x045524332304361707065643a20636170206973203)\n        /* \"#utility.yul\":10489:10507   */\n      0x44\n      dup3\n      add\n        /* \"#utility.yul\":10482:10533   */\n      mstore\n        /* \"#utility.yul\":10550:10568   */\n      0x64\n      add\n        /* \"@openzeppelin/contracts-upgradeable/token/ERC20/extensions/ERC20CappedUpgradeable.sol\":780:822  require(cap_ > 0, \"ERC20Capped: cap is 0\") */\n      tag_204\n        /* \"#utility.yul\":10229:10574   */\n      jump\n        /* \"@openzeppelin/contracts-upgradeable/token/ERC20/extensions/ERC20CappedUpgradeable.sol\":780:822  require(cap_ > 0, \"ERC20Capped: cap is 0\") */\n    tag_460:\n        /* \"@openzeppelin/contracts-upgradeable/token/ERC20/extensions/ERC20CappedUpgradeable.sol\":832:836  _cap */\n      0x65\n        /* \"@openzeppelin/contracts-upgradeable/token/ERC20/extensions/ERC20CappedUpgradeable.sol\":832:843  _cap = cap_ */\n      sstore\n        /* \"@openzeppelin/contracts-upgradeable/token/ERC20/extensions/ERC20CappedUpgradeable.sol\":692:850  function __ERC20Capped_init_unchained(uint256 cap_) internal onlyInitializing {... */\n      jump\t// out\n        /* \"@openzeppelin/contracts-upgradeable/token/ERC20/ERC20Upgradeable.sol\":8739:9128  function _mint(address account, uint256 amount) internal virtual {... */\n    tag_392:\n      sub(shl(0xa0, 0x01), 0x01)\n        /* \"@openzeppelin/contracts-upgradeable/token/ERC20/ERC20Upgradeable.sol\":8822:8843  account != address(0) */\n      dup3\n      and\n        /* \"@openzeppelin/contracts-upgradeable/token/ERC20/ERC20Upgradeable.sol\":8814:8879  require(account != address(0), \"ERC20: mint to the zero address\") */\n      tag_464\n      jumpi\n      mload(0x40)\n      shl(0xe5, 0x461bcd)\n      dup2\n      mstore\n        /* \"#utility.yul\":17302:17304   */\n      0x20\n        /* \"@openzeppelin/contracts-upgradeable/token/ERC20/ERC20Upgradeable.sol\":8814:8879  require(account != address(0), \"ERC20: mint to the zero address\") */\n      0x04\n      dup3\n      add\n        /* \"#utility.yul\":17284:17305   */\n      mstore\n        /* \"#utility.yul\":17341:17343   */\n      0x1f\n        /* \"#utility.yul\":17321:17339   */\n      0x24\n      dup3\n      add\n        /* \"#utility.yul\":17314:17344   */\n      mstore\n        /* \"#utility.yul\":17380:17413   */\n      0x45524332303a206d696e7420746f20746865207a65726f206164647265737300\n        /* \"#utility.yul\":17360:17378   */\n      0x44\n      dup3\n      add\n        /* \"#utility.yul\":17353:17414   */\n      mstore\n        /* \"#utility.yul\":17431:17449   */\n      0x64\n      add\n        /* \"@openzeppelin/contracts-upgradeable/token/ERC20/ERC20Upgradeable.sol\":8814:8879  require(account != address(0), \"ERC20: mint to the zero address\") */\n      tag_204\n        /* \"#utility.yul\":17100:17455   */\n      jump\n        /* \"@openzeppelin/contracts-upgradeable/token/ERC20/ERC20Upgradeable.sol\":8814:8879  require(account != address(0), \"ERC20: mint to the zero address\") */\n    tag_464:\n        /* \"@openzeppelin/contracts-upgradeable/token/ERC20/ERC20Upgradeable.sol\":8966:8972  amount */\n      dup1\n        /* \"@openzeppelin/contracts-upgradeable/token/ERC20/ERC20Upgradeable.sol\":8950:8962  _totalSupply */\n      0x35\n      0x00\n        /* \"@openzeppelin/contracts-upgradeable/token/ERC20/ERC20Upgradeable.sol\":8950:8972  _totalSupply += amount */\n      dup3\n      dup3\n      sload\n      tag_468\n      swap2\n      swap1\n      tag_233\n      jump\t// in\n    tag_468:\n      swap1\n      swap2\n      sstore\n      pop\n      pop\n      sub(shl(0xa0, 0x01), 0x01)\n        /* \"@openzeppelin/contracts-upgradeable/token/ERC20/ERC20Upgradeable.sol\":8982:9000  _balances[account] */\n      dup3\n      and\n      0x00\n      swap1\n      dup2\n      mstore\n        /* \"@openzeppelin/contracts-upgradeable/token/ERC20/ERC20Upgradeable.sol\":8982:8991  _balances */\n      0x33\n        /* \"@openzeppelin/contracts-upgradeable/token/ERC20/ERC20Upgradeable.sol\":8982:9000  _balances[account] */\n      0x20\n      mstore\n      0x40\n      dup2\n      keccak256\n        /* \"@openzeppelin/contracts-upgradeable/token/ERC20/ERC20Upgradeable.sol\":8982:9010  _balances[account] += amount */\n      dup1\n      sload\n        /* \"@openzeppelin/contracts-upgradeable/token/ERC20/ERC20Upgradeable.sol\":9004:9010  amount */\n      dup4\n      swap3\n        /* \"@openzeppelin/contracts-upgradeable/token/ERC20/ERC20Upgradeable.sol\":8982:9000  _balances[account] */\n      swap1\n        /* \"@openzeppelin/contracts-upgradeable/token/ERC20/ERC20Upgradeable.sol\":8982:9010  _balances[account] += amount */\n      tag_469\n      swap1\n        /* \"@openzeppelin/contracts-upgradeable/token/ERC20/ERC20Upgradeable.sol\":9004:9010  amount */\n      dup5\n      swap1\n        /* \"@openzeppelin/contracts-upgradeable/token/ERC20/ERC20Upgradeable.sol\":8982:9010  _balances[account] += amount */\n      tag_233\n      jump\t// in\n    tag_469:\n      swap1\n      swap2\n      sstore\n      pop\n      pop\n        /* \"@openzeppelin/contracts-upgradeable/token/ERC20/ERC20Upgradeable.sol\":9025:9062  Transfer(address(0), account, amount) */\n      mload(0x40)\n        /* \"#utility.yul\":17606:17631   */\n      dup2\n      dup2\n      mstore\n      sub(shl(0xa0, 0x01), 0x01)\n        /* \"@openzeppelin/contracts-upgradeable/token/ERC20/ERC20Upgradeable.sol\":9025:9062  Transfer(address(0), account, amount) */\n      dup4\n      and\n      swap1\n        /* \"@openzeppelin/contracts-upgradeable/token/ERC20/ERC20Upgradeable.sol\":9042:9043  0 */\n      0x00\n      swap1\n        /* \"@openzeppelin/contracts-upgradeable/token/ERC20/ERC20Upgradeable.sol\":9025:9062  Transfer(address(0), account, amount) */\n      0xddf252ad1be2c89b69c2b068fc378daa952ba7f163c4a11628f55a4df523b3ef\n      swap1\n        /* \"#utility.yul\":17594:17596   */\n      0x20\n        /* \"#utility.yul\":17579:17597   */\n      add\n        /* \"@openzeppelin/contracts-upgradeable/token/ERC20/ERC20Upgradeable.sol\":9025:9062  Transfer(address(0), account, amount) */\n      mload(0x40)\n      dup1\n      swap2\n      sub\n      swap1\n      log3\n        /* \"@openzeppelin/contracts-upgradeable/token/ERC20/ERC20Upgradeable.sol\":2116:2263  function __ERC20_init(string memory name_, string memory symbol_) internal onlyInitializing {... */\n      pop\n      pop\n      jump\t// out\n    tag_219:\n      dup3\n      dup1\n      sload\n      tag_474\n      swap1\n      tag_178\n      jump\t// in\n    tag_474:\n      swap1\n      0x00\n      mstore\n      keccak256(0x00, 0x20)\n      swap1\n      0x1f\n      add\n      0x20\n      swap1\n      div\n      dup2\n      add\n      swap3\n      dup3\n      tag_476\n      jumpi\n      0x00\n      dup6\n      sstore\n      jump(tag_479)\n    tag_476:\n      dup3\n      0x1f\n      lt\n      tag_477\n      jumpi\n      dup1\n      mload\n      not(0xff)\n      and\n      dup4\n      dup1\n      add\n      or\n      dup6\n      sstore\n      jump(tag_479)\n    tag_477:\n      dup3\n      dup1\n      add\n      0x01\n      add\n      dup6\n      sstore\n      dup3\n      iszero\n      tag_479\n      jumpi\n      swap2\n      dup3\n      add\n    tag_478:\n      dup3\n      dup2\n      gt\n      iszero\n      tag_479\n      jumpi\n      dup3\n      mload\n      dup3\n      sstore\n      swap2\n      0x20\n      add\n      swap2\n      swap1\n      0x01\n      add\n      swap1\n      jump(tag_478)\n    tag_479:\n      pop\n      tag_480\n      swap3\n      swap2\n      pop\n      tag_481\n      jump\t// in\n    tag_480:\n      pop\n      swap1\n      jump\t// out\n    tag_259:\n      pop\n      dup1\n      sload\n      0x00\n      dup3\n      sstore\n      swap1\n      0x00\n      mstore\n      keccak256(0x00, 0x20)\n      swap1\n      dup2\n      add\n      swap1\n      tag_262\n      swap2\n      swap1\n      tag_481\n      jump\t// in\n    tag_261:\n      dup3\n      dup1\n      sload\n      dup3\n      dup3\n      sstore\n      swap1\n      0x00\n      mstore\n      keccak256(0x00, 0x20)\n      swap1\n      dup2\n      add\n      swap3\n      dup3\n      iszero\n      tag_479\n      jumpi\n      swap2\n      0x20\n      mul\n      dup3\n      add\n    tag_485:\n      dup3\n      dup2\n      gt\n      iszero\n      tag_479\n      jumpi\n      dup3\n      mload\n      dup3\n      sload\n      not(sub(shl(0xa0, 0x01), 0x01))\n      and\n      sub(shl(0xa0, 0x01), 0x01)\n      swap1\n      swap2\n      and\n      or\n      dup3\n      sstore\n      0x20\n      swap1\n      swap3\n      add\n      swap2\n      0x01\n      swap1\n      swap2\n      add\n      swap1\n      jump(tag_485)\n    tag_481:\n    tag_488:\n      dup1\n      dup3\n      gt\n      iszero\n      tag_480\n      jumpi\n      0x00\n      dup2\n      sstore\n      0x01\n      add\n      jump(tag_488)\n        /* \"#utility.yul\":14:687   */\n    tag_491:\n        /* \"#utility.yul\":68:73   */\n      0x00\n        /* \"#utility.yul\":121:124   */\n      dup3\n        /* \"#utility.yul\":114:118   */\n      0x1f\n        /* \"#utility.yul\":106:112   */\n      dup4\n        /* \"#utility.yul\":102:119   */\n      add\n        /* \"#utility.yul\":98:125   */\n      slt\n        /* \"#utility.yul\":88:143   */\n      tag_493\n      jumpi\n        /* \"#utility.yul\":139:140   */\n      0x00\n        /* \"#utility.yul\":136:137   */\n      dup1\n        /* \"#utility.yul\":129:141   */\n      revert\n        /* \"#utility.yul\":88:143   */\n    tag_493:\n        /* \"#utility.yul\":175:181   */\n      dup2\n        /* \"#utility.yul\":162:182   */\n      calldataload\n        /* \"#utility.yul\":201:205   */\n      0x20\n        /* \"#utility.yul\":225:285   */\n      tag_494\n        /* \"#utility.yul\":241:284   */\n      tag_495\n        /* \"#utility.yul\":281:283   */\n      dup4\n        /* \"#utility.yul\":241:284   */\n      tag_496\n      jump\t// in\n    tag_495:\n        /* \"#utility.yul\":225:285   */\n      tag_497\n      jump\t// in\n    tag_494:\n        /* \"#utility.yul\":307:310   */\n      dup1\n        /* \"#utility.yul\":331:333   */\n      dup4\n        /* \"#utility.yul\":326:329   */\n      dup3\n        /* \"#utility.yul\":319:334   */\n      mstore\n        /* \"#utility.yul\":359:361   */\n      dup3\n        /* \"#utility.yul\":354:357   */\n      dup3\n        /* \"#utility.yul\":350:362   */\n      add\n        /* \"#utility.yul\":343:362   */\n      swap2\n      pop\n        /* \"#utility.yul\":394:396   */\n      dup3\n        /* \"#utility.yul\":386:392   */\n      dup7\n        /* \"#utility.yul\":382:397   */\n      add\n        /* \"#utility.yul\":446:449   */\n      dup8\n        /* \"#utility.yul\":441:443   */\n      dup5\n        /* \"#utility.yul\":435:437   */\n      dup7\n        /* \"#utility.yul\":432:433   */\n      0x05\n        /* \"#utility.yul\":428:438   */\n      shl\n        /* \"#utility.yul\":420:426   */\n      dup10\n        /* \"#utility.yul\":416:439   */\n      add\n        /* \"#utility.yul\":412:444   */\n      add\n        /* \"#utility.yul\":409:450   */\n      gt\n        /* \"#utility.yul\":406:467   */\n      iszero\n      tag_498\n      jumpi\n        /* \"#utility.yul\":463:464   */\n      0x00\n        /* \"#utility.yul\":460:461   */\n      dup1\n        /* \"#utility.yul\":453:465   */\n      revert\n        /* \"#utility.yul\":406:467   */\n    tag_498:\n        /* \"#utility.yul\":485:486   */\n      0x00\n        /* \"#utility.yul\":495:658   */\n    tag_499:\n        /* \"#utility.yul\":509:511   */\n      dup6\n        /* \"#utility.yul\":506:507   */\n      dup2\n        /* \"#utility.yul\":503:512   */\n      lt\n        /* \"#utility.yul\":495:658   */\n      iszero\n      tag_501\n      jumpi\n        /* \"#utility.yul\":566:583   */\n      dup2\n      calldataload\n        /* \"#utility.yul\":554:584   */\n      dup5\n      mstore\n        /* \"#utility.yul\":604:616   */\n      swap3\n      dup5\n      add\n      swap3\n        /* \"#utility.yul\":636:648   */\n      swap1\n      dup5\n      add\n      swap1\n        /* \"#utility.yul\":527:528   */\n      0x01\n        /* \"#utility.yul\":520:529   */\n      add\n        /* \"#utility.yul\":495:658   */\n      jump(tag_499)\n    tag_501:\n      pop\n        /* \"#utility.yul\":676:681   */\n      swap1\n      swap8\n        /* \"#utility.yul\":14:687   */\n      swap7\n      pop\n      pop\n      pop\n      pop\n      pop\n      pop\n      pop\n      jump\t// out\n        /* \"#utility.yul\":692:1223   */\n    tag_502:\n        /* \"#utility.yul\":735:740   */\n      0x00\n        /* \"#utility.yul\":788:791   */\n      dup3\n        /* \"#utility.yul\":781:785   */\n      0x1f\n        /* \"#utility.yul\":773:779   */\n      dup4\n        /* \"#utility.yul\":769:786   */\n      add\n        /* \"#utility.yul\":765:792   */\n      slt\n        /* \"#utility.yul\":755:810   */\n      tag_504\n      jumpi\n        /* \"#utility.yul\":806:807   */\n      0x00\n        /* \"#utility.yul\":803:804   */\n      dup1\n        /* \"#utility.yul\":796:808   */\n      revert\n        /* \"#utility.yul\":755:810   */\n    tag_504:\n        /* \"#utility.yul\":842:848   */\n      dup2\n        /* \"#utility.yul\":829:849   */\n      calldataload\n      sub(shl(0x40, 0x01), 0x01)\n        /* \"#utility.yul\":864:866   */\n      dup2\n        /* \"#utility.yul\":861:887   */\n      gt\n        /* \"#utility.yul\":858:910   */\n      iszero\n      tag_506\n      jumpi\n        /* \"#utility.yul\":890:908   */\n      tag_506\n      tag_507\n      jump\t// in\n    tag_506:\n        /* \"#utility.yul\":934:989   */\n      tag_508\n        /* \"#utility.yul\":977:979   */\n      0x1f\n        /* \"#utility.yul\":958:971   */\n      dup3\n      add\n      not(0x1f)\n        /* \"#utility.yul\":954:981   */\n      and\n        /* \"#utility.yul\":983:987   */\n      0x20\n        /* \"#utility.yul\":950:988   */\n      add\n        /* \"#utility.yul\":934:989   */\n      tag_497\n      jump\t// in\n    tag_508:\n        /* \"#utility.yul\":1014:1016   */\n      dup2\n        /* \"#utility.yul\":1005:1012   */\n      dup2\n        /* \"#utility.yul\":998:1017   */\n      mstore\n        /* \"#utility.yul\":1060:1063   */\n      dup5\n        /* \"#utility.yul\":1053:1057   */\n      0x20\n        /* \"#utility.yul\":1048:1050   */\n      dup4\n        /* \"#utility.yul\":1040:1046   */\n      dup7\n        /* \"#utility.yul\":1036:1051   */\n      add\n        /* \"#utility.yul\":1032:1058   */\n      add\n        /* \"#utility.yul\":1029:1064   */\n      gt\n        /* \"#utility.yul\":1026:1081   */\n      iszero\n      tag_509\n      jumpi\n        /* \"#utility.yul\":1077:1078   */\n      0x00\n        /* \"#utility.yul\":1074:1075   */\n      dup1\n        /* \"#utility.yul\":1067:1079   */\n      revert\n        /* \"#utility.yul\":1026:1081   */\n    tag_509:\n        /* \"#utility.yul\":1142:1144   */\n      dup2\n        /* \"#utility.yul\":1135:1139   */\n      0x20\n        /* \"#utility.yul\":1127:1133   */\n      dup6\n        /* \"#utility.yul\":1123:1140   */\n      add\n        /* \"#utility.yul\":1116:1120   */\n      0x20\n        /* \"#utility.yul\":1107:1114   */\n      dup4\n        /* \"#utility.yul\":1103:1121   */\n      add\n        /* \"#utility.yul\":1090:1145   */\n      calldatacopy\n        /* \"#utility.yul\":1190:1191   */\n      0x00\n        /* \"#utility.yul\":1165:1181   */\n      swap2\n      dup2\n      add\n        /* \"#utility.yul\":1183:1187   */\n      0x20\n        /* \"#utility.yul\":1161:1188   */\n      add\n        /* \"#utility.yul\":1154:1192   */\n      swap2\n      swap1\n      swap2\n      mstore\n        /* \"#utility.yul\":1169:1176   */\n      swap4\n        /* \"#utility.yul\":692:1223   */\n      swap3\n      pop\n      pop\n      pop\n      jump\t// out\n        /* \"#utility.yul\":1228:1384   */\n    tag_510:\n        /* \"#utility.yul\":1294:1314   */\n      dup1\n      calldataload\n        /* \"#utility.yul\":1354:1358   */\n      0xff\n        /* \"#utility.yul\":1343:1359   */\n      dup2\n      and\n        /* \"#utility.yul\":1333:1360   */\n      dup2\n      eq\n        /* \"#utility.yul\":1323:1378   */\n      tag_512\n      jumpi\n        /* \"#utility.yul\":1374:1375   */\n      0x00\n        /* \"#utility.yul\":1371:1372   */\n      dup1\n        /* \"#utility.yul\":1364:1376   */\n      revert\n        /* \"#utility.yul\":1323:1378   */\n    tag_512:\n        /* \"#utility.yul\":1228:1384   */\n      swap2\n      swap1\n      pop\n      jump\t// out\n        /* \"#utility.yul\":1389:1636   */\n    tag_48:\n        /* \"#utility.yul\":1448:1454   */\n      0x00\n        /* \"#utility.yul\":1501:1503   */\n      0x20\n        /* \"#utility.yul\":1489:1498   */\n      dup3\n        /* \"#utility.yul\":1480:1487   */\n      dup5\n        /* \"#utility.yul\":1476:1499   */\n      sub\n        /* \"#utility.yul\":1472:1504   */\n      slt\n        /* \"#utility.yul\":1469:1521   */\n      iszero\n      tag_514\n      jumpi\n        /* \"#utility.yul\":1517:1518   */\n      0x00\n        /* \"#utility.yul\":1514:1515   */\n      dup1\n        /* \"#utility.yul\":1507:1519   */\n      revert\n        /* \"#utility.yul\":1469:1521   */\n    tag_514:\n        /* \"#utility.yul\":1556:1565   */\n      dup2\n        /* \"#utility.yul\":1543:1566   */\n      calldataload\n        /* \"#utility.yul\":1575:1606   */\n      tag_351\n        /* \"#utility.yul\":1600:1605   */\n      dup2\n        /* \"#utility.yul\":1575:1606   */\n      tag_516\n      jump\t// in\n        /* \"#utility.yul\":1641:3369   */\n    tag_161:\n        /* \"#utility.yul\":1835:1841   */\n      0x00\n        /* \"#utility.yul\":1843:1849   */\n      dup1\n        /* \"#utility.yul\":1851:1857   */\n      0x00\n        /* \"#utility.yul\":1859:1865   */\n      dup1\n        /* \"#utility.yul\":1867:1873   */\n      0x00\n        /* \"#utility.yul\":1875:1881   */\n      dup1\n        /* \"#utility.yul\":1883:1889   */\n      0x00\n        /* \"#utility.yul\":1936:1939   */\n      0xe0\n        /* \"#utility.yul\":1924:1933   */\n      dup9\n        /* \"#utility.yul\":1915:1922   */\n      dup11\n        /* \"#utility.yul\":1911:1934   */\n      sub\n        /* \"#utility.yul\":1907:1940   */\n      slt\n        /* \"#utility.yul\":1904:1957   */\n      iszero\n      tag_518\n      jumpi\n        /* \"#utility.yul\":1953:1954   */\n      0x00\n        /* \"#utility.yul\":1950:1951   */\n      dup1\n        /* \"#utility.yul\":1943:1955   */\n      revert\n        /* \"#utility.yul\":1904:1957   */\n    tag_518:\n        /* \"#utility.yul\":1992:2001   */\n      dup8\n        /* \"#utility.yul\":1979:2002   */\n      calldataload\n        /* \"#utility.yul\":2011:2042   */\n      tag_519\n        /* \"#utility.yul\":2036:2041   */\n      dup2\n        /* \"#utility.yul\":2011:2042   */\n      tag_516\n      jump\t// in\n    tag_519:\n        /* \"#utility.yul\":2061:2066   */\n      swap7\n      pop\n        /* \"#utility.yul\":2085:2087   */\n      0x20\n        /* \"#utility.yul\":2119:2137   */\n      dup9\n      dup2\n      add\n        /* \"#utility.yul\":2106:2138   */\n      calldataload\n      swap7\n      pop\n        /* \"#utility.yul\":2185:2187   */\n      0x40\n        /* \"#utility.yul\":2170:2188   */\n      dup10\n      add\n        /* \"#utility.yul\":2157:2189   */\n      calldataload\n      swap6\n      pop\n        /* \"#utility.yul\":2236:2238   */\n      0x60\n        /* \"#utility.yul\":2221:2239   */\n      dup10\n      add\n        /* \"#utility.yul\":2208:2240   */\n      calldataload\n      swap5\n      pop\n        /* \"#utility.yul\":2291:2294   */\n      0x80\n        /* \"#utility.yul\":2276:2295   */\n      dup10\n      add\n        /* \"#utility.yul\":2263:2296   */\n      calldataload\n      sub(shl(0x40, 0x01), 0x01)\n        /* \"#utility.yul\":2345:2359   */\n      dup1\n      dup3\n      gt\n        /* \"#utility.yul\":2342:2376   */\n      iszero\n      tag_520\n      jumpi\n        /* \"#utility.yul\":2372:2373   */\n      0x00\n        /* \"#utility.yul\":2369:2370   */\n      dup1\n        /* \"#utility.yul\":2362:2374   */\n      revert\n        /* \"#utility.yul\":2342:2376   */\n    tag_520:\n        /* \"#utility.yul\":2410:2416   */\n      dup2\n        /* \"#utility.yul\":2399:2408   */\n      dup12\n        /* \"#utility.yul\":2395:2417   */\n      add\n        /* \"#utility.yul\":2385:2417   */\n      swap2\n      pop\n        /* \"#utility.yul\":2455:2462   */\n      dup12\n        /* \"#utility.yul\":2448:2452   */\n      0x1f\n        /* \"#utility.yul\":2444:2446   */\n      dup4\n        /* \"#utility.yul\":2440:2453   */\n      add\n        /* \"#utility.yul\":2436:2463   */\n      slt\n        /* \"#utility.yul\":2426:2481   */\n      tag_521\n      jumpi\n        /* \"#utility.yul\":2477:2478   */\n      0x00\n        /* \"#utility.yul\":2474:2475   */\n      dup1\n        /* \"#utility.yul\":2467:2479   */\n      revert\n        /* \"#utility.yul\":2426:2481   */\n    tag_521:\n        /* \"#utility.yul\":2513:2515   */\n      dup2\n        /* \"#utility.yul\":2500:2516   */\n      calldataload\n        /* \"#utility.yul\":2536:2596   */\n      tag_522\n        /* \"#utility.yul\":2552:2595   */\n      tag_495\n        /* \"#utility.yul\":2592:2594   */\n      dup3\n        /* \"#utility.yul\":2552:2595   */\n      tag_496\n      jump\t// in\n        /* \"#utility.yul\":2536:2596   */\n    tag_522:\n        /* \"#utility.yul\":2618:2621   */\n      dup1\n        /* \"#utility.yul\":2642:2644   */\n      dup3\n        /* \"#utility.yul\":2637:2640   */\n      dup3\n        /* \"#utility.yul\":2630:2645   */\n      mstore\n        /* \"#utility.yul\":2670:2672   */\n      dup6\n        /* \"#utility.yul\":2665:2668   */\n      dup3\n        /* \"#utility.yul\":2661:2673   */\n      add\n        /* \"#utility.yul\":2654:2673   */\n      swap2\n      pop\n        /* \"#utility.yul\":2701:2703   */\n      dup6\n        /* \"#utility.yul\":2697:2699   */\n      dup6\n        /* \"#utility.yul\":2693:2704   */\n      add\n        /* \"#utility.yul\":2749:2756   */\n      dup16\n        /* \"#utility.yul\":2744:2746   */\n      dup8\n        /* \"#utility.yul\":2738:2740   */\n      dup6\n        /* \"#utility.yul\":2735:2736   */\n      0x05\n        /* \"#utility.yul\":2731:2741   */\n      shl\n        /* \"#utility.yul\":2727:2729   */\n      dup9\n        /* \"#utility.yul\":2723:2742   */\n      add\n        /* \"#utility.yul\":2719:2747   */\n      add\n        /* \"#utility.yul\":2716:2757   */\n      gt\n        /* \"#utility.yul\":2713:2774   */\n      iszero\n      tag_524\n      jumpi\n        /* \"#utility.yul\":2770:2771   */\n      0x00\n        /* \"#utility.yul\":2767:2768   */\n      dup1\n        /* \"#utility.yul\":2760:2772   */\n      revert\n        /* \"#utility.yul\":2713:2774   */\n    tag_524:\n        /* \"#utility.yul\":2792:2793   */\n      0x00\n        /* \"#utility.yul\":2783:2793   */\n      swap6\n      pop\n        /* \"#utility.yul\":2802:2969   */\n    tag_525:\n        /* \"#utility.yul\":2816:2818   */\n      dup4\n        /* \"#utility.yul\":2813:2814   */\n      dup7\n        /* \"#utility.yul\":2810:2819   */\n      lt\n        /* \"#utility.yul\":2802:2969   */\n      iszero\n      tag_527\n      jumpi\n        /* \"#utility.yul\":2873:2894   */\n      tag_528\n        /* \"#utility.yul\":2890:2893   */\n      dup2\n        /* \"#utility.yul\":2873:2894   */\n      tag_510\n      jump\t// in\n    tag_528:\n        /* \"#utility.yul\":2861:2895   */\n      dup4\n      mstore\n        /* \"#utility.yul\":2834:2835   */\n      0x01\n        /* \"#utility.yul\":2827:2836   */\n      swap6\n      swap1\n      swap6\n      add\n      swap5\n        /* \"#utility.yul\":2915:2927   */\n      swap2\n      dup7\n      add\n      swap2\n        /* \"#utility.yul\":2947:2959   */\n      dup7\n      add\n        /* \"#utility.yul\":2802:2969   */\n      jump(tag_525)\n    tag_527:\n      pop\n        /* \"#utility.yul\":2988:2993   */\n      swap8\n      pop\n      pop\n      pop\n        /* \"#utility.yul\":3046:3049   */\n      0xa0\n        /* \"#utility.yul\":3031:3050   */\n      dup12\n      add\n        /* \"#utility.yul\":3018:3051   */\n      calldataload\n      swap3\n      pop\n        /* \"#utility.yul\":3063:3079   */\n      dup1\n      dup4\n      gt\n        /* \"#utility.yul\":3060:3096   */\n      iszero\n      tag_529\n      jumpi\n        /* \"#utility.yul\":3092:3093   */\n      0x00\n        /* \"#utility.yul\":3089:3090   */\n      dup1\n        /* \"#utility.yul\":3082:3094   */\n      revert\n        /* \"#utility.yul\":3060:3096   */\n    tag_529:\n        /* \"#utility.yul\":3115:3178   */\n      tag_530\n        /* \"#utility.yul\":3170:3177   */\n      dup13\n        /* \"#utility.yul\":3159:3167   */\n      dup5\n        /* \"#utility.yul\":3148:3157   */\n      dup14\n        /* \"#utility.yul\":3144:3168   */\n      add\n        /* \"#utility.yul\":3115:3178   */\n      tag_491\n      jump\t// in\n    tag_530:\n        /* \"#utility.yul\":3105:3178   */\n      swap5\n      pop\n        /* \"#utility.yul\":3231:3234   */\n      0xc0\n        /* \"#utility.yul\":3220:3229   */\n      dup12\n        /* \"#utility.yul\":3216:3235   */\n      add\n        /* \"#utility.yul\":3203:3236   */\n      calldataload\n        /* \"#utility.yul\":3187:3236   */\n      swap3\n      pop\n        /* \"#utility.yul\":3261:3263   */\n      dup1\n        /* \"#utility.yul\":3251:3259   */\n      dup4\n        /* \"#utility.yul\":3248:3264   */\n      gt\n        /* \"#utility.yul\":3245:3281   */\n      iszero\n      tag_531\n      jumpi\n        /* \"#utility.yul\":3277:3278   */\n      0x00\n        /* \"#utility.yul\":3274:3275   */\n      dup1\n        /* \"#utility.yul\":3267:3279   */\n      revert\n        /* \"#utility.yul\":3245:3281   */\n    tag_531:\n      pop\n      pop\n        /* \"#utility.yul\":3300:3363   */\n      tag_532\n        /* \"#utility.yul\":3355:3362   */\n      dup11\n        /* \"#utility.yul\":3344:3352   */\n      dup3\n        /* \"#utility.yul\":3333:3342   */\n      dup12\n        /* \"#utility.yul\":3329:3353   */\n      add\n        /* \"#utility.yul\":3300:3363   */\n      tag_491\n      jump\t// in\n    tag_532:\n        /* \"#utility.yul\":3290:3363   */\n      swap2\n      pop\n      pop\n        /* \"#utility.yul\":1641:3369   */\n      swap3\n      swap6\n      swap9\n      swap2\n      swap5\n      swap8\n      pop\n      swap3\n      swap6\n      pop\n      jump\t// out\n        /* \"#utility.yul\":3374:3762   */\n    tag_155:\n        /* \"#utility.yul\":3442:3448   */\n      0x00\n        /* \"#utility.yul\":3450:3456   */\n      dup1\n        /* \"#utility.yul\":3503:3505   */\n      0x40\n        /* \"#utility.yul\":3491:3500   */\n      dup4\n        /* \"#utility.yul\":3482:3489   */\n      dup6\n        /* \"#utility.yul\":3478:3501   */\n      sub\n        /* \"#utility.yul\":3474:3506   */\n      slt\n        /* \"#utility.yul\":3471:3523   */\n      iszero\n      tag_534\n      jumpi\n        /* \"#utility.yul\":3519:3520   */\n      0x00\n        /* \"#utility.yul\":3516:3517   */\n      dup1\n        /* \"#utility.yul\":3509:3521   */\n      revert\n        /* \"#utility.yul\":3471:3523   */\n    tag_534:\n        /* \"#utility.yul\":3558:3567   */\n      dup3\n        /* \"#utility.yul\":3545:3568   */\n      calldataload\n        /* \"#utility.yul\":3577:3608   */\n      tag_535\n        /* \"#utility.yul\":3602:3607   */\n      dup2\n        /* \"#utility.yul\":3577:3608   */\n      tag_516\n      jump\t// in\n    tag_535:\n        /* \"#utility.yul\":3627:3632   */\n      swap2\n      pop\n        /* \"#utility.yul\":3684:3686   */\n      0x20\n        /* \"#utility.yul\":3669:3687   */\n      dup4\n      add\n        /* \"#utility.yul\":3656:3688   */\n      calldataload\n        /* \"#utility.yul\":3697:3730   */\n      tag_536\n        /* \"#utility.yul\":3656:3688   */\n      dup2\n        /* \"#utility.yul\":3697:3730   */\n      tag_516\n      jump\t// in\n    tag_536:\n        /* \"#utility.yul\":3749:3756   */\n      dup1\n        /* \"#utility.yul\":3739:3756   */\n      swap2\n      pop\n      pop\n        /* \"#utility.yul\":3374:3762   */\n      swap3\n      pop\n      swap3\n      swap1\n      pop\n      jump\t// out\n        /* \"#utility.yul\":3767:4223   */\n    tag_71:\n        /* \"#utility.yul\":3844:3850   */\n      0x00\n        /* \"#utility.yul\":3852:3858   */\n      dup1\n        /* \"#utility.yul\":3860:3866   */\n      0x00\n        /* \"#utility.yul\":3913:3915   */\n      0x60\n        /* \"#utility.yul\":3901:3910   */\n      dup5\n        /* \"#utility.yul\":3892:3899   */\n      dup7\n        /* \"#utility.yul\":3888:3911   */\n      sub\n        /* \"#utility.yul\":3884:3916   */\n      slt\n        /* \"#utility.yul\":3881:3933   */\n      iszero\n      tag_538\n      jumpi\n        /* \"#utility.yul\":3929:3930   */\n      0x00\n        /* \"#utility.yul\":3926:3927   */\n      dup1\n        /* \"#utility.yul\":3919:3931   */\n      revert\n        /* \"#utility.yul\":3881:3933   */\n    tag_538:\n        /* \"#utility.yul\":3968:3977   */\n      dup4\n        /* \"#utility.yul\":3955:3978   */\n      calldataload\n        /* \"#utility.yul\":3987:4018   */\n      tag_539\n        /* \"#utility.yul\":4012:4017   */\n      dup2\n        /* \"#utility.yul\":3987:4018   */\n      tag_516\n      jump\t// in\n    tag_539:\n        /* \"#utility.yul\":4037:4042   */\n      swap3\n      pop\n        /* \"#utility.yul\":4094:4096   */\n      0x20\n        /* \"#utility.yul\":4079:4097   */\n      dup5\n      add\n        /* \"#utility.yul\":4066:4098   */\n      calldataload\n        /* \"#utility.yul\":4107:4140   */\n      tag_540\n        /* \"#utility.yul\":4066:4098   */\n      dup2\n        /* \"#utility.yul\":4107:4140   */\n      tag_516\n      jump\t// in\n    tag_540:\n        /* \"#utility.yul\":3767:4223   */\n      swap3\n      swap6\n        /* \"#utility.yul\":4159:4166   */\n      swap3\n      swap5\n      pop\n      pop\n      pop\n        /* \"#utility.yul\":4213:4215   */\n      0x40\n        /* \"#utility.yul\":4198:4216   */\n      swap2\n      swap1\n      swap2\n      add\n        /* \"#utility.yul\":4185:4217   */\n      calldataload\n      swap1\n        /* \"#utility.yul\":3767:4223   */\n      jump\t// out\n        /* \"#utility.yul\":4228:4543   */\n    tag_55:\n        /* \"#utility.yul\":4296:4302   */\n      0x00\n        /* \"#utility.yul\":4304:4310   */\n      dup1\n        /* \"#utility.yul\":4357:4359   */\n      0x40\n        /* \"#utility.yul\":4345:4354   */\n      dup4\n        /* \"#utility.yul\":4336:4343   */\n      dup6\n        /* \"#utility.yul\":4332:4355   */\n      sub\n        /* \"#utility.yul\":4328:4360   */\n      slt\n        /* \"#utility.yul\":4325:4377   */\n      iszero\n      tag_542\n      jumpi\n        /* \"#utility.yul\":4373:4374   */\n      0x00\n        /* \"#utility.yul\":4370:4371   */\n      dup1\n        /* \"#utility.yul\":4363:4375   */\n      revert\n        /* \"#utility.yul\":4325:4377   */\n    tag_542:\n        /* \"#utility.yul\":4412:4421   */\n      dup3\n        /* \"#utility.yul\":4399:4422   */\n      calldataload\n        /* \"#utility.yul\":4431:4462   */\n      tag_543\n        /* \"#utility.yul\":4456:4461   */\n      dup2\n        /* \"#utility.yul\":4431:4462   */\n      tag_516\n      jump\t// in\n    tag_543:\n        /* \"#utility.yul\":4481:4486   */\n      swap5\n        /* \"#utility.yul\":4533:4535   */\n      0x20\n        /* \"#utility.yul\":4518:4536   */\n      swap4\n      swap1\n      swap4\n      add\n        /* \"#utility.yul\":4505:4537   */\n      calldataload\n      swap4\n      pop\n      pop\n      pop\n        /* \"#utility.yul\":4228:4543   */\n      jump\t// out\n        /* \"#utility.yul\":4548:5525   */\n    tag_123:\n        /* \"#utility.yul\":4632:4638   */\n      0x00\n        /* \"#utility.yul\":4663:4665   */\n      0x20\n        /* \"#utility.yul\":4706:4708   */\n      dup1\n        /* \"#utility.yul\":4694:4703   */\n      dup4\n        /* \"#utility.yul\":4685:4692   */\n      dup6\n        /* \"#utility.yul\":4681:4704   */\n      sub\n        /* \"#utility.yul\":4677:4709   */\n      slt\n        /* \"#utility.yul\":4674:4726   */\n      iszero\n      tag_545\n      jumpi\n        /* \"#utility.yul\":4722:4723   */\n      0x00\n        /* \"#utility.yul\":4719:4720   */\n      dup1\n        /* \"#utility.yul\":4712:4724   */\n      revert\n        /* \"#utility.yul\":4674:4726   */\n    tag_545:\n        /* \"#utility.yul\":4762:4771   */\n      dup3\n        /* \"#utility.yul\":4749:4772   */\n      calldataload\n      sub(shl(0x40, 0x01), 0x01)\n        /* \"#utility.yul\":4787:4793   */\n      dup2\n        /* \"#utility.yul\":4784:4814   */\n      gt\n        /* \"#utility.yul\":4781:4831   */\n      iszero\n      tag_546\n      jumpi\n        /* \"#utility.yul\":4827:4828   */\n      0x00\n        /* \"#utility.yul\":4824:4825   */\n      dup1\n        /* \"#utility.yul\":4817:4829   */\n      revert\n        /* \"#utility.yul\":4781:4831   */\n    tag_546:\n        /* \"#utility.yul\":4850:4872   */\n      dup4\n      add\n        /* \"#utility.yul\":4903:4907   */\n      0x1f\n        /* \"#utility.yul\":4895:4908   */\n      dup2\n      add\n        /* \"#utility.yul\":4891:4918   */\n      dup6\n      sgt\n        /* \"#utility.yul\":4881:4936   */\n      tag_547\n      jumpi\n        /* \"#utility.yul\":4932:4933   */\n      0x00\n        /* \"#utility.yul\":4929:4930   */\n      dup1\n        /* \"#utility.yul\":4922:4934   */\n      revert\n        /* \"#utility.yul\":4881:4936   */\n    tag_547:\n        /* \"#utility.yul\":4968:4970   */\n      dup1\n        /* \"#utility.yul\":4955:4971   */\n      calldataload\n        /* \"#utility.yul\":4991:5051   */\n      tag_548\n        /* \"#utility.yul\":5007:5050   */\n      tag_495\n        /* \"#utility.yul\":5047:5049   */\n      dup3\n        /* \"#utility.yul\":5007:5050   */\n      tag_496\n      jump\t// in\n        /* \"#utility.yul\":4991:5051   */\n    tag_548:\n        /* \"#utility.yul\":5073:5076   */\n      dup1\n        /* \"#utility.yul\":5097:5099   */\n      dup3\n        /* \"#utility.yul\":5092:5095   */\n      dup3\n        /* \"#utility.yul\":5085:5100   */\n      mstore\n        /* \"#utility.yul\":5125:5127   */\n      dup5\n        /* \"#utility.yul\":5120:5123   */\n      dup3\n        /* \"#utility.yul\":5116:5128   */\n      add\n        /* \"#utility.yul\":5109:5128   */\n      swap2\n      pop\n        /* \"#utility.yul\":5156:5158   */\n      dup5\n        /* \"#utility.yul\":5152:5154   */\n      dup5\n        /* \"#utility.yul\":5148:5159   */\n      add\n        /* \"#utility.yul\":5204:5211   */\n      dup9\n        /* \"#utility.yul\":5199:5201   */\n      dup7\n        /* \"#utility.yul\":5193:5195   */\n      dup6\n        /* \"#utility.yul\":5190:5191   */\n      0x05\n        /* \"#utility.yul\":5186:5196   */\n      shl\n        /* \"#utility.yul\":5182:5184   */\n      dup8\n        /* \"#utility.yul\":5178:5197   */\n      add\n        /* \"#utility.yul\":5174:5202   */\n      add\n        /* \"#utility.yul\":5171:5212   */\n      gt\n        /* \"#utility.yul\":5168:5229   */\n      iszero\n      tag_550\n      jumpi\n        /* \"#utility.yul\":5225:5226   */\n      0x00\n        /* \"#utility.yul\":5222:5223   */\n      dup1\n        /* \"#utility.yul\":5215:5227   */\n      revert\n        /* \"#utility.yul\":5168:5229   */\n    tag_550:\n        /* \"#utility.yul\":5247:5248   */\n      0x00\n        /* \"#utility.yul\":5238:5248   */\n      swap5\n      pop\n        /* \"#utility.yul\":5257:5495   */\n    tag_551:\n        /* \"#utility.yul\":5271:5273   */\n      dup4\n        /* \"#utility.yul\":5268:5269   */\n      dup6\n        /* \"#utility.yul\":5265:5274   */\n      lt\n        /* \"#utility.yul\":5257:5495   */\n      iszero\n      tag_553\n      jumpi\n        /* \"#utility.yul\":5342:5345   */\n      dup1\n        /* \"#utility.yul\":5329:5346   */\n      calldataload\n        /* \"#utility.yul\":5359:5390   */\n      tag_554\n        /* \"#utility.yul\":5384:5389   */\n      dup2\n        /* \"#utility.yul\":5359:5390   */\n      tag_516\n      jump\t// in\n    tag_554:\n        /* \"#utility.yul\":5403:5421   */\n      dup4\n      mstore\n        /* \"#utility.yul\":5289:5290   */\n      0x01\n        /* \"#utility.yul\":5282:5291   */\n      swap5\n      swap1\n      swap5\n      add\n      swap4\n        /* \"#utility.yul\":5441:5453   */\n      swap2\n      dup6\n      add\n      swap2\n        /* \"#utility.yul\":5473:5485   */\n      dup6\n      add\n        /* \"#utility.yul\":5257:5495   */\n      jump(tag_551)\n    tag_553:\n      pop\n        /* \"#utility.yul\":5514:5519   */\n      swap8\n        /* \"#utility.yul\":4548:5525   */\n      swap7\n      pop\n      pop\n      pop\n      pop\n      pop\n      pop\n      pop\n      jump\t// out\n        /* \"#utility.yul\":5530:6350   */\n    tag_77:\n        /* \"#utility.yul\":5652:5658   */\n      0x00\n        /* \"#utility.yul\":5660:5666   */\n      dup1\n        /* \"#utility.yul\":5668:5674   */\n      0x00\n        /* \"#utility.yul\":5676:5682   */\n      dup1\n        /* \"#utility.yul\":5684:5690   */\n      0x00\n        /* \"#utility.yul\":5692:5698   */\n      dup1\n        /* \"#utility.yul\":5745:5748   */\n      0xc0\n        /* \"#utility.yul\":5733:5742   */\n      dup8\n        /* \"#utility.yul\":5724:5731   */\n      dup10\n        /* \"#utility.yul\":5720:5743   */\n      sub\n        /* \"#utility.yul\":5716:5749   */\n      slt\n        /* \"#utility.yul\":5713:5766   */\n      iszero\n      tag_556\n      jumpi\n        /* \"#utility.yul\":5762:5763   */\n      0x00\n        /* \"#utility.yul\":5759:5760   */\n      dup1\n        /* \"#utility.yul\":5752:5764   */\n      revert\n        /* \"#utility.yul\":5713:5766   */\n    tag_556:\n        /* \"#utility.yul\":5802:5811   */\n      dup7\n        /* \"#utility.yul\":5789:5812   */\n      calldataload\n      sub(shl(0x40, 0x01), 0x01)\n        /* \"#utility.yul\":5872:5874   */\n      dup1\n        /* \"#utility.yul\":5864:5870   */\n      dup3\n        /* \"#utility.yul\":5861:5875   */\n      gt\n        /* \"#utility.yul\":5858:5892   */\n      iszero\n      tag_557\n      jumpi\n        /* \"#utility.yul\":5888:5889   */\n      0x00\n        /* \"#utility.yul\":5885:5886   */\n      dup1\n        /* \"#utility.yul\":5878:5890   */\n      revert\n        /* \"#utility.yul\":5858:5892   */\n    tag_557:\n        /* \"#utility.yul\":5911:5961   */\n      tag_558\n        /* \"#utility.yul\":5953:5960   */\n      dup11\n        /* \"#utility.yul\":5944:5950   */\n      dup4\n        /* \"#utility.yul\":5933:5942   */\n      dup12\n        /* \"#utility.yul\":5929:5951   */\n      add\n        /* \"#utility.yul\":5911:5961   */\n      tag_502\n      jump\t// in\n    tag_558:\n        /* \"#utility.yul\":5901:5961   */\n      swap8\n      pop\n        /* \"#utility.yul\":6014:6016   */\n      0x20\n        /* \"#utility.yul\":6003:6012   */\n      dup10\n        /* \"#utility.yul\":5999:6017   */\n      add\n        /* \"#utility.yul\":5986:6018   */\n      calldataload\n        /* \"#utility.yul\":5970:6018   */\n      swap2\n      pop\n        /* \"#utility.yul\":6043:6045   */\n      dup1\n        /* \"#utility.yul\":6033:6041   */\n      dup3\n        /* \"#utility.yul\":6030:6046   */\n      gt\n        /* \"#utility.yul\":6027:6063   */\n      iszero\n      tag_559\n      jumpi\n        /* \"#utility.yul\":6059:6060   */\n      0x00\n        /* \"#utility.yul\":6056:6057   */\n      dup1\n        /* \"#utility.yul\":6049:6061   */\n      revert\n        /* \"#utility.yul\":6027:6063   */\n    tag_559:\n      pop\n        /* \"#utility.yul\":6082:6134   */\n      tag_560\n        /* \"#utility.yul\":6126:6133   */\n      dup10\n        /* \"#utility.yul\":6115:6123   */\n      dup3\n        /* \"#utility.yul\":6104:6113   */\n      dup11\n        /* \"#utility.yul\":6100:6124   */\n      add\n        /* \"#utility.yul\":6082:6134   */\n      tag_502\n      jump\t// in\n    tag_560:\n        /* \"#utility.yul\":6072:6134   */\n      swap6\n      pop\n      pop\n        /* \"#utility.yul\":6153:6189   */\n      tag_561\n        /* \"#utility.yul\":6185:6187   */\n      0x40\n        /* \"#utility.yul\":6174:6183   */\n      dup9\n        /* \"#utility.yul\":6170:6188   */\n      add\n        /* \"#utility.yul\":6153:6189   */\n      tag_510\n      jump\t// in\n    tag_561:\n        /* \"#utility.yul\":6143:6189   */\n      swap4\n      pop\n        /* \"#utility.yul\":6236:6238   */\n      0x60\n        /* \"#utility.yul\":6225:6234   */\n      dup8\n        /* \"#utility.yul\":6221:6239   */\n      add\n        /* \"#utility.yul\":6208:6240   */\n      calldataload\n        /* \"#utility.yul\":6198:6240   */\n      swap3\n      pop\n        /* \"#utility.yul\":6287:6290   */\n      0x80\n        /* \"#utility.yul\":6276:6285   */\n      dup8\n        /* \"#utility.yul\":6272:6291   */\n      add\n        /* \"#utility.yul\":6259:6292   */\n      calldataload\n        /* \"#utility.yul\":6249:6292   */\n      swap2\n      pop\n        /* \"#utility.yul\":6339:6342   */\n      0xa0\n        /* \"#utility.yul\":6328:6337   */\n      dup8\n        /* \"#utility.yul\":6324:6343   */\n      add\n        /* \"#utility.yul\":6311:6344   */\n      calldataload\n        /* \"#utility.yul\":6301:6344   */\n      swap1\n      pop\n        /* \"#utility.yul\":5530:6350   */\n      swap3\n      swap6\n      pop\n      swap3\n      swap6\n      pop\n      swap3\n      swap6\n      jump\t// out\n        /* \"#utility.yul\":6355:6535   */\n    tag_142:\n        /* \"#utility.yul\":6414:6420   */\n      0x00\n        /* \"#utility.yul\":6467:6469   */\n      0x20\n        /* \"#utility.yul\":6455:6464   */\n      dup3\n        /* \"#utility.yul\":6446:6453   */\n      dup5\n        /* \"#utility.yul\":6442:6465   */\n      sub\n        /* \"#utility.yul\":6438:6470   */\n      slt\n        /* \"#utility.yul\":6435:6487   */\n      iszero\n      tag_563\n      jumpi\n        /* \"#utility.yul\":6483:6484   */\n      0x00\n        /* \"#utility.yul\":6480:6481   */\n      dup1\n        /* \"#utility.yul\":6473:6485   */\n      revert\n        /* \"#utility.yul\":6435:6487   */\n    tag_563:\n      pop\n        /* \"#utility.yul\":6506:6529   */\n      calldataload\n      swap2\n        /* \"#utility.yul\":6355:6535   */\n      swap1\n      pop\n      jump\t// out\n        /* \"#utility.yul\":7766:8424   */\n    tag_102:\n        /* \"#utility.yul\":7937:7939   */\n      0x20\n        /* \"#utility.yul\":7989:8010   */\n      dup1\n      dup3\n      mstore\n        /* \"#utility.yul\":8059:8072   */\n      dup3\n      mload\n        /* \"#utility.yul\":7962:7980   */\n      dup3\n      dup3\n      add\n        /* \"#utility.yul\":8081:8103   */\n      dup2\n      swap1\n      mstore\n        /* \"#utility.yul\":7908:7912   */\n      0x00\n      swap2\n        /* \"#utility.yul\":7937:7939   */\n      swap1\n        /* \"#utility.yul\":8160:8175   */\n      dup5\n      dup3\n      add\n      swap1\n        /* \"#utility.yul\":8134:8136   */\n      0x40\n        /* \"#utility.yul\":8119:8137   */\n      dup6\n      add\n      swap1\n        /* \"#utility.yul\":7908:7912   */\n      dup5\n        /* \"#utility.yul\":8203:8398   */\n    tag_568:\n        /* \"#utility.yul\":8217:8223   */\n      dup2\n        /* \"#utility.yul\":8214:8215   */\n      dup2\n        /* \"#utility.yul\":8211:8224   */\n      lt\n        /* \"#utility.yul\":8203:8398   */\n      iszero\n      tag_570\n      jumpi\n        /* \"#utility.yul\":8282:8295   */\n      dup4\n      mload\n      sub(shl(0xa0, 0x01), 0x01)\n        /* \"#utility.yul\":8278:8317   */\n      and\n        /* \"#utility.yul\":8266:8318   */\n      dup4\n      mstore\n        /* \"#utility.yul\":8373:8388   */\n      swap3\n      dup5\n      add\n      swap3\n        /* \"#utility.yul\":8338:8350   */\n      swap2\n      dup5\n      add\n      swap2\n        /* \"#utility.yul\":8314:8315   */\n      0x01\n        /* \"#utility.yul\":8232:8241   */\n      add\n        /* \"#utility.yul\":8203:8398   */\n      jump(tag_568)\n    tag_570:\n      pop\n        /* \"#utility.yul\":8415:8418   */\n      swap1\n      swap7\n        /* \"#utility.yul\":7766:8424   */\n      swap6\n      pop\n      pop\n      pop\n      pop\n      pop\n      pop\n      jump\t// out\n        /* \"#utility.yul\":9223:9820   */\n    tag_44:\n        /* \"#utility.yul\":9335:9339   */\n      0x00\n        /* \"#utility.yul\":9364:9366   */\n      0x20\n        /* \"#utility.yul\":9393:9395   */\n      dup1\n        /* \"#utility.yul\":9382:9391   */\n      dup4\n        /* \"#utility.yul\":9375:9396   */\n      mstore\n        /* \"#utility.yul\":9425:9431   */\n      dup4\n        /* \"#utility.yul\":9419:9432   */\n      mload\n        /* \"#utility.yul\":9468:9474   */\n      dup1\n        /* \"#utility.yul\":9463:9465   */\n      dup3\n        /* \"#utility.yul\":9452:9461   */\n      dup6\n        /* \"#utility.yul\":9448:9466   */\n      add\n        /* \"#utility.yul\":9441:9475   */\n      mstore\n        /* \"#utility.yul\":9493:9494   */\n      0x00\n        /* \"#utility.yul\":9503:9643   */\n    tag_575:\n        /* \"#utility.yul\":9517:9523   */\n      dup2\n        /* \"#utility.yul\":9514:9515   */\n      dup2\n        /* \"#utility.yul\":9511:9524   */\n      lt\n        /* \"#utility.yul\":9503:9643   */\n      iszero\n      tag_577\n      jumpi\n        /* \"#utility.yul\":9612:9626   */\n      dup6\n      dup2\n      add\n        /* \"#utility.yul\":9608:9631   */\n      dup4\n      add\n        /* \"#utility.yul\":9602:9632   */\n      mload\n        /* \"#utility.yul\":9578:9595   */\n      dup6\n      dup3\n      add\n        /* \"#utility.yul\":9597:9599   */\n      0x40\n        /* \"#utility.yul\":9574:9600   */\n      add\n        /* \"#utility.yul\":9567:9633   */\n      mstore\n        /* \"#utility.yul\":9532:9542   */\n      dup3\n      add\n        /* \"#utility.yul\":9503:9643   */\n      jump(tag_575)\n    tag_577:\n        /* \"#utility.yul\":9661:9667   */\n      dup2\n        /* \"#utility.yul\":9658:9659   */\n      dup2\n        /* \"#utility.yul\":9655:9668   */\n      gt\n        /* \"#utility.yul\":9652:9743   */\n      iszero\n      tag_578\n      jumpi\n        /* \"#utility.yul\":9731:9732   */\n      0x00\n        /* \"#utility.yul\":9726:9728   */\n      0x40\n        /* \"#utility.yul\":9717:9723   */\n      dup4\n        /* \"#utility.yul\":9706:9715   */\n      dup8\n        /* \"#utility.yul\":9702:9724   */\n      add\n        /* \"#utility.yul\":9698:9729   */\n      add\n        /* \"#utility.yul\":9691:9733   */\n      mstore\n        /* \"#utility.yul\":9652:9743   */\n    tag_578:\n      pop\n        /* \"#utility.yul\":9804:9806   */\n      0x1f\n        /* \"#utility.yul\":9783:9798   */\n      add\n      not(0x1f)\n        /* \"#utility.yul\":9779:9808   */\n      and\n        /* \"#utility.yul\":9764:9809   */\n      swap3\n      swap1\n      swap3\n      add\n        /* \"#utility.yul\":9811:9813   */\n      0x40\n        /* \"#utility.yul\":9760:9814   */\n      add\n      swap4\n        /* \"#utility.yul\":9223:9820   */\n      swap3\n      pop\n      pop\n      pop\n      jump\t// out\n        /* \"#utility.yul\":16282:16689   */\n    tag_368:\n        /* \"#utility.yul\":16484:16486   */\n      0x20\n        /* \"#utility.yul\":16466:16487   */\n      dup1\n      dup3\n      mstore\n        /* \"#utility.yul\":16523:16525   */\n      0x2b\n        /* \"#utility.yul\":16503:16521   */\n      swap1\n      dup3\n      add\n        /* \"#utility.yul\":16496:16526   */\n      mstore\n        /* \"#utility.yul\":16562:16596   */\n      0x496e697469616c697a61626c653a20636f6e7472616374206973206e6f742069\n        /* \"#utility.yul\":16557:16559   */\n      0x40\n        /* \"#utility.yul\":16542:16560   */\n      dup3\n      add\n        /* \"#utility.yul\":16535:16597   */\n      mstore\n      shl(0xa8, 0x6e697469616c697a696e67)\n        /* \"#utility.yul\":16628:16630   */\n      0x60\n        /* \"#utility.yul\":16613:16631   */\n      dup3\n      add\n        /* \"#utility.yul\":16606:16647   */\n      mstore\n        /* \"#utility.yul\":16679:16682   */\n      0x80\n        /* \"#utility.yul\":16664:16683   */\n      add\n      swap1\n        /* \"#utility.yul\":16282:16689   */\n      jump\t// out\n        /* \"#utility.yul\":17831:18106   */\n    tag_497:\n        /* \"#utility.yul\":17902:17904   */\n      0x40\n        /* \"#utility.yul\":17896:17905   */\n      mload\n        /* \"#utility.yul\":17967:17969   */\n      0x1f\n        /* \"#utility.yul\":17948:17961   */\n      dup3\n      add\n      not(0x1f)\n        /* \"#utility.yul\":17944:17971   */\n      and\n        /* \"#utility.yul\":17932:17972   */\n      dup2\n      add\n      sub(shl(0x40, 0x01), 0x01)\n        /* \"#utility.yul\":17987:18021   */\n      dup2\n      gt\n        /* \"#utility.yul\":18023:18045   */\n      dup3\n      dup3\n      lt\n        /* \"#utility.yul\":17984:18046   */\n      or\n        /* \"#utility.yul\":17981:18069   */\n      iszero\n      tag_603\n      jumpi\n        /* \"#utility.yul\":18049:18067   */\n      tag_603\n      tag_507\n      jump\t// in\n    tag_603:\n        /* \"#utility.yul\":18085:18087   */\n      0x40\n        /* \"#utility.yul\":18078:18100   */\n      mstore\n        /* \"#utility.yul\":17831:18106   */\n      swap2\n      swap1\n      pop\n      jump\t// out\n        /* \"#utility.yul\":18111:18294   */\n    tag_496:\n        /* \"#utility.yul\":18171:18175   */\n      0x00\n      sub(shl(0x40, 0x01), 0x01)\n        /* \"#utility.yul\":18196:18202   */\n      dup3\n        /* \"#utility.yul\":18193:18223   */\n      gt\n        /* \"#utility.yul\":18190:18246   */\n      iszero\n      tag_606\n      jumpi\n        /* \"#utility.yul\":18226:18244   */\n      tag_606\n      tag_507\n      jump\t// in\n    tag_606:\n      pop\n        /* \"#utility.yul\":18271:18272   */\n      0x05\n        /* \"#utility.yul\":18267:18281   */\n      shl\n        /* \"#utility.yul\":18283:18287   */\n      0x20\n        /* \"#utility.yul\":18263:18288   */\n      add\n      swap1\n        /* \"#utility.yul\":18111:18294   */\n      jump\t// out\n        /* \"#utility.yul\":18299:18427   */\n    tag_233:\n        /* \"#utility.yul\":18339:18342   */\n      0x00\n        /* \"#utility.yul\":18370:18371   */\n      dup3\n        /* \"#utility.yul\":18366:18372   */\n      not\n        /* \"#utility.yul\":18363:18364   */\n      dup3\n        /* \"#utility.yul\":18360:18373   */\n      gt\n        /* \"#utility.yul\":18357:18396   */\n      iszero\n      tag_609\n      jumpi\n        /* \"#utility.yul\":18376:18394   */\n      tag_609\n      tag_610\n      jump\t// in\n    tag_609:\n      pop\n        /* \"#utility.yul\":18412:18421   */\n      add\n      swap1\n        /* \"#utility.yul\":18299:18427   */\n      jump\t// out\n        /* \"#utility.yul\":18432:18649   */\n    tag_352:\n        /* \"#utility.yul\":18472:18473   */\n      0x00\n        /* \"#utility.yul\":18498:18499   */\n      dup3\n        /* \"#utility.yul\":18488:18620   */\n      tag_612\n      jumpi\n        /* \"#utility.yul\":18542:18552   */\n      0x4e487b71\n        /* \"#utility.yul\":18537:18540   */\n      0xe0\n        /* \"#utility.yul\":18533:18553   */\n      shl\n        /* \"#utility.yul\":18530:18531   */\n      0x00\n        /* \"#utility.yul\":18523:18554   */\n      mstore\n        /* \"#utility.yul\":18577:18581   */\n      0x12\n        /* \"#utility.yul\":18574:18575   */\n      0x04\n        /* \"#utility.yul\":18567:18582   */\n      mstore\n        /* \"#utility.yul\":18605:18609   */\n      0x24\n        /* \"#utility.yul\":18602:18603   */\n      0x00\n        /* \"#utility.yul\":18595:18610   */\n      revert\n        /* \"#utility.yul\":18488:18620   */\n    tag_612:\n      pop\n        /* \"#utility.yul\":18634:18643   */\n      div\n      swap1\n        /* \"#utility.yul\":18432:18649   */\n      jump\t// out\n        /* \"#utility.yul\":18654:19076   */\n    tag_613:\n        /* \"#utility.yul\":18743:18744   */\n      0x01\n        /* \"#utility.yul\":18786:18791   */\n      dup2\n        /* \"#utility.yul\":18743:18744   */\n      dup2\n        /* \"#utility.yul\":18800:19070   */\n    tag_615:\n        /* \"#utility.yul\":18821:18828   */\n      dup1\n        /* \"#utility.yul\":18811:18819   */\n      dup6\n        /* \"#utility.yul\":18808:18829   */\n      gt\n        /* \"#utility.yul\":18800:19070   */\n      iszero\n      tag_617\n      jumpi\n        /* \"#utility.yul\":18880:18884   */\n      dup2\n        /* \"#utility.yul\":18876:18877   */\n      0x00\n        /* \"#utility.yul\":18872:18878   */\n      not\n        /* \"#utility.yul\":18868:18885   */\n      div\n        /* \"#utility.yul\":18862:18866   */\n      dup3\n        /* \"#utility.yul\":18859:18886   */\n      gt\n        /* \"#utility.yul\":18856:18909   */\n      iszero\n      tag_619\n      jumpi\n        /* \"#utility.yul\":18889:18907   */\n      tag_619\n      tag_610\n      jump\t// in\n    tag_619:\n        /* \"#utility.yul\":18939:18946   */\n      dup1\n        /* \"#utility.yul\":18929:18937   */\n      dup6\n        /* \"#utility.yul\":18925:18947   */\n      and\n        /* \"#utility.yul\":18922:18977   */\n      iszero\n      tag_620\n      jumpi\n        /* \"#utility.yul\":18959:18975   */\n      swap2\n      dup2\n      mul\n      swap2\n        /* \"#utility.yul\":18922:18977   */\n    tag_620:\n        /* \"#utility.yul\":19038:19060   */\n      swap4\n      dup5\n      shr\n      swap4\n        /* \"#utility.yul\":18998:19013   */\n      swap1\n      dup1\n      mul\n      swap1\n        /* \"#utility.yul\":18800:19070   */\n      jump(tag_615)\n    tag_617:\n        /* \"#utility.yul\":18804:18807   */\n      pop\n        /* \"#utility.yul\":18654:19076   */\n      swap3\n      pop\n      swap3\n      swap1\n      pop\n      jump\t// out\n        /* \"#utility.yul\":19081:19221   */\n    tag_214:\n        /* \"#utility.yul\":19139:19144   */\n      0x00\n        /* \"#utility.yul\":19168:19215   */\n      tag_351\n        /* \"#utility.yul\":19209:19213   */\n      0xff\n        /* \"#utility.yul\":19199:19207   */\n      dup5\n        /* \"#utility.yul\":19195:19214   */\n      and\n        /* \"#utility.yul\":19189:19193   */\n      dup4\n        /* \"#utility.yul\":19275:19280   */\n      0x00\n        /* \"#utility.yul\":19305:19313   */\n      dup3\n        /* \"#utility.yul\":19295:19375   */\n      tag_625\n      jumpi\n      pop\n        /* \"#utility.yul\":19346:19347   */\n      0x01\n        /* \"#utility.yul\":19360:19365   */\n      jump(tag_184)\n        /* \"#utility.yul\":19295:19375   */\n    tag_625:\n        /* \"#utility.yul\":19394:19398   */\n      dup2\n        /* \"#utility.yul\":19384:19460   */\n      tag_626\n      jumpi\n      pop\n        /* \"#utility.yul\":19431:19432   */\n      0x00\n        /* \"#utility.yul\":19445:19450   */\n      jump(tag_184)\n        /* \"#utility.yul\":19384:19460   */\n    tag_626:\n        /* \"#utility.yul\":19476:19480   */\n      dup2\n        /* \"#utility.yul\":19494:19495   */\n      0x01\n        /* \"#utility.yul\":19489:19548   */\n      dup2\n      eq\n      tag_628\n      jumpi\n        /* \"#utility.yul\":19562:19563   */\n      0x02\n        /* \"#utility.yul\":19557:19687   */\n      dup2\n      eq\n      tag_629\n      jumpi\n        /* \"#utility.yul\":19469:19687   */\n      jump(tag_627)\n        /* \"#utility.yul\":19489:19548   */\n    tag_628:\n        /* \"#utility.yul\":19519:19520   */\n      0x01\n        /* \"#utility.yul\":19510:19520   */\n      swap2\n      pop\n        /* \"#utility.yul\":19533:19538   */\n      pop\n      jump(tag_184)\n        /* \"#utility.yul\":19557:19687   */\n    tag_629:\n        /* \"#utility.yul\":19594:19597   */\n      0xff\n        /* \"#utility.yul\":19584:19592   */\n      dup5\n        /* \"#utility.yul\":19581:19598   */\n      gt\n        /* \"#utility.yul\":19578:19621   */\n      iszero\n      tag_631\n      jumpi\n        /* \"#utility.yul\":19601:19619   */\n      tag_631\n      tag_610\n      jump\t// in\n    tag_631:\n      pop\n      pop\n        /* \"#utility.yul\":19657:19658   */\n      0x01\n        /* \"#utility.yul\":19643:19659   */\n      dup3\n      shl\n        /* \"#utility.yul\":19672:19677   */\n      jump(tag_184)\n        /* \"#utility.yul\":19469:19687   */\n    tag_627:\n      pop\n        /* \"#utility.yul\":19771:19773   */\n      0x20\n        /* \"#utility.yul\":19761:19769   */\n      dup4\n        /* \"#utility.yul\":19758:19774   */\n      lt\n        /* \"#utility.yul\":19752:19755   */\n      0x0133\n        /* \"#utility.yul\":19746:19750   */\n      dup4\n        /* \"#utility.yul\":19743:19756   */\n      lt\n        /* \"#utility.yul\":19739:19775   */\n      and\n        /* \"#utility.yul\":19733:19735   */\n      0x4e\n        /* \"#utility.yul\":19723:19731   */\n      dup5\n        /* \"#utility.yul\":19720:19736   */\n      lt\n        /* \"#utility.yul\":19715:19717   */\n      0x0b\n        /* \"#utility.yul\":19709:19713   */\n      dup5\n        /* \"#utility.yul\":19706:19718   */\n      lt\n        /* \"#utility.yul\":19702:19737   */\n      and\n        /* \"#utility.yul\":19699:19776   */\n      or\n        /* \"#utility.yul\":19696:19855   */\n      iszero\n      tag_632\n      jumpi\n      pop\n        /* \"#utility.yul\":19808:19827   */\n      dup2\n      dup2\n      exp\n        /* \"#utility.yul\":19840:19845   */\n      jump(tag_184)\n        /* \"#utility.yul\":19696:19855   */\n    tag_632:\n        /* \"#utility.yul\":19887:19921   */\n      tag_633\n        /* \"#utility.yul\":19912:19920   */\n      dup4\n        /* \"#utility.yul\":19906:19910   */\n      dup4\n        /* \"#utility.yul\":19887:19921   */\n      tag_613\n      jump\t// in\n    tag_633:\n        /* \"#utility.yul\":19957:19963   */\n      dup1\n        /* \"#utility.yul\":19953:19954   */\n      0x00\n        /* \"#utility.yul\":19949:19955   */\n      not\n        /* \"#utility.yul\":19945:19964   */\n      div\n        /* \"#utility.yul\":19936:19943   */\n      dup3\n        /* \"#utility.yul\":19933:19965   */\n      gt\n        /* \"#utility.yul\":19930:19988   */\n      iszero\n      tag_635\n      jumpi\n        /* \"#utility.yul\":19968:19986   */\n      tag_635\n      tag_610\n      jump\t// in\n    tag_635:\n        /* \"#utility.yul\":20006:20026   */\n      mul\n      swap4\n        /* \"#utility.yul\":19226:20032   */\n      swap3\n      pop\n      pop\n      pop\n      jump\t// out\n        /* \"#utility.yul\":20037:20205   */\n    tag_216:\n        /* \"#utility.yul\":20077:20084   */\n      0x00\n        /* \"#utility.yul\":20143:20144   */\n      dup2\n        /* \"#utility.yul\":20139:20140   */\n      0x00\n        /* \"#utility.yul\":20135:20141   */\n      not\n        /* \"#utility.yul\":20131:20145   */\n      div\n        /* \"#utility.yul\":20128:20129   */\n      dup4\n        /* \"#utility.yul\":20125:20146   */\n      gt\n        /* \"#utility.yul\":20120:20121   */\n      dup3\n        /* \"#utility.yul\":20113:20122   */\n      iszero\n        /* \"#utility.yul\":20106:20123   */\n      iszero\n        /* \"#utility.yul\":20102:20147   */\n      and\n        /* \"#utility.yul\":20099:20170   */\n      iszero\n      tag_638\n      jumpi\n        /* \"#utility.yul\":20150:20168   */\n      tag_638\n      tag_610\n      jump\t// in\n    tag_638:\n      pop\n        /* \"#utility.yul\":20190:20199   */\n      mul\n      swap1\n        /* \"#utility.yul\":20037:20205   */\n      jump\t// out\n        /* \"#utility.yul\":20210:20335   */\n    tag_279:\n        /* \"#utility.yul\":20250:20254   */\n      0x00\n        /* \"#utility.yul\":20278:20279   */\n      dup3\n        /* \"#utility.yul\":20275:20276   */\n      dup3\n        /* \"#utility.yul\":20272:20280   */\n      lt\n        /* \"#utility.yul\":20269:20303   */\n      iszero\n      tag_641\n      jumpi\n        /* \"#utility.yul\":20283:20301   */\n      tag_641\n      tag_610\n      jump\t// in\n    tag_641:\n      pop\n        /* \"#utility.yul\":20320:20329   */\n      sub\n      swap1\n        /* \"#utility.yul\":20210:20335   */\n      jump\t// out\n        /* \"#utility.yul\":20340:20720   */\n    tag_178:\n        /* \"#utility.yul\":20419:20420   */\n      0x01\n        /* \"#utility.yul\":20415:20427   */\n      dup2\n      dup2\n      shr\n      swap1\n        /* \"#utility.yul\":20462:20474   */\n      dup3\n      and\n      dup1\n        /* \"#utility.yul\":20483:20544   */\n      tag_643\n      jumpi\n        /* \"#utility.yul\":20537:20541   */\n      0x7f\n        /* \"#utility.yul\":20529:20535   */\n      dup3\n        /* \"#utility.yul\":20525:20542   */\n      and\n        /* \"#utility.yul\":20515:20542   */\n      swap2\n      pop\n        /* \"#utility.yul\":20483:20544   */\n    tag_643:\n        /* \"#utility.yul\":20590:20592   */\n      0x20\n        /* \"#utility.yul\":20582:20588   */\n      dup3\n        /* \"#utility.yul\":20579:20593   */\n      lt\n        /* \"#utility.yul\":20559:20577   */\n      dup2\n        /* \"#utility.yul\":20556:20594   */\n      eq\n        /* \"#utility.yul\":20553:20714   */\n      iszero\n      tag_644\n      jumpi\n        /* \"#utility.yul\":20636:20646   */\n      0x4e487b71\n        /* \"#utility.yul\":20631:20634   */\n      0xe0\n        /* \"#utility.yul\":20627:20647   */\n      shl\n        /* \"#utility.yul\":20624:20625   */\n      0x00\n        /* \"#utility.yul\":20617:20648   */\n      mstore\n        /* \"#utility.yul\":20671:20675   */\n      0x22\n        /* \"#utility.yul\":20668:20669   */\n      0x04\n        /* \"#utility.yul\":20661:20676   */\n      mstore\n        /* \"#utility.yul\":20699:20703   */\n      0x24\n        /* \"#utility.yul\":20696:20697   */\n      0x00\n        /* \"#utility.yul\":20689:20704   */\n      revert\n        /* \"#utility.yul\":20553:20714   */\n    tag_644:\n      pop\n        /* \"#utility.yul\":20340:20720   */\n      swap2\n      swap1\n      pop\n      jump\t// out\n        /* \"#utility.yul\":20725:20934   */\n    tag_318:\n        /* \"#utility.yul\":20763:20766   */\n      0x00\n      sub(shl(0x40, 0x01), 0x01)\n        /* \"#utility.yul\":20844:20846   */\n      dup1\n        /* \"#utility.yul\":20837:20842   */\n      dup4\n        /* \"#utility.yul\":20833:20847   */\n      and\n        /* \"#utility.yul\":20871:20873   */\n      dup2\n        /* \"#utility.yul\":20862:20869   */\n      dup2\n        /* \"#utility.yul\":20859:20874   */\n      eq\n        /* \"#utility.yul\":20856:20897   */\n      iszero\n      tag_647\n      jumpi\n        /* \"#utility.yul\":20877:20895   */\n      tag_647\n      tag_610\n      jump\t// in\n    tag_647:\n        /* \"#utility.yul\":20926:20927   */\n      0x01\n        /* \"#utility.yul\":20913:20928   */\n      add\n      swap4\n        /* \"#utility.yul\":20725:20934   */\n      swap3\n      pop\n      pop\n      pop\n      jump\t// out\n        /* \"#utility.yul\":20939:21114   */\n    tag_316:\n        /* \"#utility.yul\":20976:20979   */\n      0x00\n        /* \"#utility.yul\":21020:21024   */\n      0xff\n        /* \"#utility.yul\":21013:21018   */\n      dup3\n        /* \"#utility.yul\":21009:21025   */\n      and\n        /* \"#utility.yul\":21049:21053   */\n      0xff\n        /* \"#utility.yul\":21040:21047   */\n      dup2\n        /* \"#utility.yul\":21037:21054   */\n      eq\n        /* \"#utility.yul\":21034:21077   */\n      iszero\n      tag_650\n      jumpi\n        /* \"#utility.yul\":21057:21075   */\n      tag_650\n      tag_610\n      jump\t// in\n    tag_650:\n        /* \"#utility.yul\":21106:21107   */\n      0x01\n        /* \"#utility.yul\":21093:21108   */\n      add\n      swap3\n        /* \"#utility.yul\":20939:21114   */\n      swap2\n      pop\n      pop\n      jump\t// out\n        /* \"#utility.yul\":21119:21246   */\n    tag_610:\n        /* \"#utility.yul\":21180:21190   */\n      0x4e487b71\n        /* \"#utility.yul\":21175:21178   */\n      0xe0\n        /* \"#utility.yul\":21171:21191   */\n      shl\n        /* \"#utility.yul\":21168:21169   */\n      0x00\n        /* \"#utility.yul\":21161:21192   */\n      mstore\n        /* \"#utility.yul\":21211:21215   */\n      0x11\n        /* \"#utility.yul\":21208:21209   */\n      0x04\n        /* \"#utility.yul\":21201:21216   */\n      mstore\n        /* \"#utility.yul\":21235:21239   */\n      0x24\n        /* \"#utility.yul\":21232:21233   */\n      0x00\n        /* \"#utility.yul\":21225:21240   */\n      revert\n        /* \"#utility.yul\":21251:21378   */\n    tag_304:\n        /* \"#utility.yul\":21312:21322   */\n      0x4e487b71\n        /* \"#utility.yul\":21307:21310   */\n      0xe0\n        /* \"#utility.yul\":21303:21323   */\n      shl\n        /* \"#utility.yul\":21300:21301   */\n      0x00\n        /* \"#utility.yul\":21293:21324   */\n      mstore\n        /* \"#utility.yul\":21343:21347   */\n      0x32\n        /* \"#utility.yul\":21340:21341   */\n      0x04\n        /* \"#utility.yul\":21333:21348   */\n      mstore\n        /* \"#utility.yul\":21367:21371   */\n      0x24\n        /* \"#utility.yul\":21364:21365   */\n      0x00\n        /* \"#utility.yul\":21357:21372   */\n      revert\n        /* \"#utility.yul\":21383:21510   */\n    tag_507:\n        /* \"#utility.yul\":21444:21454   */\n      0x4e487b71\n        /* \"#utility.yul\":21439:21442   */\n      0xe0\n        /* \"#utility.yul\":21435:21455   */\n      shl\n        /* \"#utility.yul\":21432:21433   */\n      0x00\n        /* \"#utility.yul\":21425:21456   */\n      mstore\n        /* \"#utility.yul\":21475:21479   */\n      0x41\n        /* \"#utility.yul\":21472:21473   */\n      0x04\n        /* \"#utility.yul\":21465:21480   */\n      mstore\n        /* \"#utility.yul\":21499:21503   */\n      0x24\n        /* \"#utility.yul\":21496:21497   */\n      0x00\n        /* \"#utility.yul\":21489:21504   */\n      revert\n        /* \"#utility.yul\":21515:21646   */\n    tag_516:\n      sub(shl(0xa0, 0x01), 0x01)\n        /* \"#utility.yul\":21590:21621   */\n      dup2\n      and\n        /* \"#utility.yul\":21580:21622   */\n      dup2\n      eq\n        /* \"#utility.yul\":21570:21640   */\n      tag_262\n      jumpi\n        /* \"#utility.yul\":21636:21637   */\n      0x00\n        /* \"#utility.yul\":21633:21634   */\n      dup1\n        /* \"#utility.yul\":21626:21638   */\n      revert\n\n    auxdata: 0xa2646970667358221220d6cd6c2f9a26d0b4e5f8ba27517c11bbc662ec2e24911586308e15a912a61f9564736f6c63430008070033\n}\n",
				"bytecode": {
					"linkReferences": {},
					"object": "608060405234801561001057600080fd5b506120b3806100206000396000f3fe6080604052600436106101bb5760003560e01c80638da5cb5b116100ec578063c4081a4c1161008a578063e4c97e6a11610064578063e4c97e6a14610505578063f2fde38b14610525578063f66608fe14610545578063f93422851461055a57600080fd5b8063c4081a4c146104af578063d89135cd146104cf578063dd62ed3e146104e557600080fd5b8063a457c2d7116100c6578063a457c2d71461043a578063a9059cbb1461045a578063ac7fa3c61461047a578063b24a08931461048f57600080fd5b80638da5cb5b146103dd57806395d89b4114610405578063a37726621461041a57600080fd5b8063313ce567116101595780633de47e32116101335780633de47e321461034057806346f0975a1461037057806370a0823114610392578063715018a6146103c857600080fd5b8063313ce567146102e9578063355274ea1461030b578063395093511461032057600080fd5b806318160ddd1161019557806318160ddd1461025b5780631e0d4ce91461027a57806323b872dd146102a75780632b9a1d3c146102c757600080fd5b806306fdde03146101c757806307c351dd146101f2578063095ea7b31461023b57600080fd5b366101c257005b600080fd5b3480156101d357600080fd5b506101dc61058a565b6040516101e99190611d53565b60405180910390f35b3480156101fe57600080fd5b5061022b61020d3660046119df565b6001600160a01b0316600090815260d2602052604090205460ff1690565b60405190151581526020016101e9565b34801561024757600080fd5b5061022b610256366004611b92565b61061c565b34801561026757600080fd5b506035545b6040519081526020016101e9565b34801561028657600080fd5b5061026c6102953660046119df565b60d46020526000908152604090205481565b3480156102b357600080fd5b5061022b6102c2366004611b51565b610636565b3480156102d357600080fd5b506102e76102e2366004611c5e565b610665565b005b3480156102f557600080fd5b5060cc5460405160ff90911681526020016101e9565b34801561031757600080fd5b5060655461026c565b34801561032c57600080fd5b5061022b61033b366004611b92565b6107ff565b34801561034c57600080fd5b5061022b61035b3660046119df565b60d26020526000908152604090205460ff1681565b34801561037c57600080fd5b50610385610821565b6040516101e99190611d06565b34801561039e57600080fd5b5061026c6103ad3660046119df565b6001600160a01b031660009081526033602052604090205490565b3480156103d457600080fd5b506102e7610882565b3480156103e957600080fd5b506098546040516001600160a01b0390911681526020016101e9565b34801561041157600080fd5b506101dc610896565b34801561042657600080fd5b506102e7610435366004611bbe565b6108a5565b34801561044657600080fd5b5061022b610455366004611b92565b610944565b34801561046657600080fd5b5061022b610475366004611b92565b6109ca565b34801561048657600080fd5b5060cd5461026c565b34801561049b57600080fd5b506102e76104aa366004611ced565b610a43565b3480156104bb57600080fd5b506102e76104ca366004611ced565b610a50565b3480156104db57600080fd5b5061026c60d05481565b3480156104f157600080fd5b5061026c610500366004611b18565b610a5d565b34801561051157600080fd5b506102e76105203660046119fc565b610a88565b34801561053157600080fd5b506102e76105403660046119df565b610e0c565b34801561055157600080fd5b5060cf5461026c565b34801561056657600080fd5b5061022b610575366004611ced565b60d36020526000908152604090205460ff1681565b60606036805461059990611fa4565b80601f01602080910402602001604051908101604052809291908181526020018280546105c590611fa4565b80156106125780601f106105e757610100808354040283529160200191610612565b820191906000526020600020905b8154815290600101906020018083116105f557829003601f168201915b5050505050905090565b60003361062a818585610e82565b60019150505b92915050565b60008061064283610fa7565b905061064e8582610fcb565b61065985858561102a565b50600195945050505050565b600054610100900460ff16158080156106855750600054600160ff909116105b8061069f5750303b15801561069f575060005460ff166001145b6107075760405162461bcd60e51b815260206004820152602e60248201527f496e697469616c697a61626c653a20636f6e747261637420697320616c72656160448201526d191e481a5b9a5d1a585b1a5e995960921b60648201526084015b60405180910390fd5b6000805460ff19166001179055801561072a576000805461ff0019166101001790555b610732611043565b61073c8787611072565b61075961074a86600a611ec3565b6107549086611f6e565b6110a7565b865161076c9060ca9060208a01906117dc565b5085516107809060cb9060208901906117dc565b5060cc805460ff191660ff871617905567016345785d8a000060cd5560ce84905560cf8290556107b030846110d7565b80156107f6576000805461ff0019169055604051600181527f7f26b83ff96e1f2b6a682f133852f6798a09c465da95921460cefb38474024989060200160405180910390a15b50505050505050565b60003361062a8185856108128383610a5d565b61081c9190611e46565b610e82565b606060d180548060200260200160405190810160405280929190818152602001828054801561061257602002820191906000526020600020905b81546001600160a01b0316815260019091019060200180831161085b575050505050905090565b61088a611146565b61089460006111a0565b565b60606037805461059990611fa4565b6108ad611146565b61091460d180548060200260200160405190810160405280929190818152602001828054801561090657602002820191906000526020600020905b81546001600160a01b031681526001909101906020018083116108e8575b5050505050600060d26111f2565b61092060d16000611860565b80516109339060d190602084019061187e565b5061094181600160d26111f2565b50565b600033816109528286610a5d565b9050838110156109b25760405162461bcd60e51b815260206004820152602560248201527f45524332303a2064656372656173656420616c6c6f77616e63652062656c6f77604482015264207a65726f60d81b60648201526084016106fe565b6109bf8286868403610e82565b506001949350505050565b60006109de6098546001600160a01b031690565b6001600160a01b0316336001600160a01b03161415610a0757610a018383611270565b50610a3a565b6000610a1283610fa7565b9050610a1e3382610fcb565b6000610a2a8285611f8d565b9050610a368582611270565b5050505b50600192915050565b610a4b611146565b60cd55565b610a58611146565b60cf55565b6001600160a01b03918216600090815260346020908152604080832093909416825291909152205490565b42841015610acb5760405162461bcd60e51b815260206004820152601060248201526f4578706972656420646561646c696e6560801b60448201526064016106fe565b600086815260d3602052604090205460ff1615610b1d5760405162461bcd60e51b815260206004820152601060248201526f556e697175652069642065786973747360801b60448201526064016106fe565b336000610b326098546001600160a01b031690565b604051601960f81b60208201526000602182018190526bffffffffffffffffffffffff19606084811b8216602285015286811b821660368501528d901b16604a830152605e82018a9052607e82018b9052609e820189905291925060be0160405160208183030381529060405280519060200120905060008060005b8851816001600160401b03161015610cf25760006001858b846001600160401b031681518110610be057610be061203c565b60200260200101518b856001600160401b031681518110610c0357610c0361203c565b60200260200101518b866001600160401b031681518110610c2657610c2661203c565b602002602001015160405160008152602001604052604051610c64949392919093845260ff9290921660208401526040830152606082015260800190565b6020604051602081039080840390855afa158015610c86573d6000803e3d6000fd5b505050602060405103519050836001600160a01b0316816001600160a01b0316118015610ccb57506001600160a01b038116600090815260d2602052604090205460ff165b15610cde5782610cda81612006565b9350505b925080610cea81611fdf565b915050610bae565b5060028160ff161015610d395760405162461bcd60e51b815260206004820152600f60248201526e496e76616c6964207369676e65727360881b60448201526064016106fe565b60008b815260d360205260408120805460ff1916600117905560cd546001600160a01b038e1690610d6b908d90611f6e565b604051600081818185875af1925050503d8060008114610da7576040519150601f19603f3d011682016040523d82523d6000602084013e610dac565b606091505b5050905080610df35760405162461bcd60e51b815260206004820152601360248201527208cc2d2d8cac840e8de40e6cadcc8409acac6d606b1b60448201526064016106fe565b610dfd8d8c6110d7565b50505050505050505050505050565b610e14611146565b6001600160a01b038116610e795760405162461bcd60e51b815260206004820152602660248201527f4f776e61626c653a206e6577206f776e657220697320746865207a65726f206160448201526564647265737360d01b60648201526084016106fe565b610941816111a0565b6001600160a01b038316610ee45760405162461bcd60e51b8152602060048201526024808201527f45524332303a20617070726f76652066726f6d20746865207a65726f206164646044820152637265737360e01b60648201526084016106fe565b6001600160a01b038216610f455760405162461bcd60e51b815260206004820152602260248201527f45524332303a20617070726f766520746f20746865207a65726f206164647265604482015261737360f01b60648201526084016106fe565b6001600160a01b0383811660008181526034602090815260408083209487168084529482529182902085905590518481527f8c5be1e5ebec7d5bd14f71427d1e84f3dd0314c0f7b2291e5b200ac8c7c3b92591015b60405180910390a3505050565b600080606460cf5484610fba9190611f6e565b610fc49190611e5e565b9392505050565b610fd5828261127e565b8060d054610fe39190611e46565b60d0556001600160a01b038216600090815260d4602052604090205461100a908290611e46565b6001600160a01b03909216600090815260d4602052604090209190915550565b6000336110388582856113c9565b6109bf85858561143d565b600054610100900460ff1661106a5760405162461bcd60e51b81526004016106fe90611da8565b61089461160b565b600054610100900460ff166110995760405162461bcd60e51b81526004016106fe90611da8565b6110a3828261163b565b5050565b600054610100900460ff166110ce5760405162461bcd60e51b81526004016106fe90611da8565b61094181611689565b606554816110e460355490565b6110ee9190611e46565b111561113c5760405162461bcd60e51b815260206004820152601960248201527f45524332304361707065643a206361702065786365656465640000000000000060448201526064016106fe565b6110a382826116fd565b6098546001600160a01b031633146108945760405162461bcd60e51b815260206004820181905260248201527f4f776e61626c653a2063616c6c6572206973206e6f7420746865206f776e657260448201526064016106fe565b609880546001600160a01b038381166001600160a01b0319831681179093556040519116919082907f8be0079c531659141344cd1fd0a4f28419497f9722a3daafe3b4186f6b6457e090600090a35050565b60005b8351816001600160401b0316101561126a578282600086846001600160401b0316815181106112265761122661203c565b6020908102919091018101516001600160a01b03168252810191909152604001600020805460ff19169115159190911790558061126281611fdf565b9150506111f5565b50505050565b60003361062a81858561143d565b6001600160a01b0382166112de5760405162461bcd60e51b815260206004820152602160248201527f45524332303a206275726e2066726f6d20746865207a65726f206164647265736044820152607360f81b60648201526084016106fe565b6001600160a01b038216600090815260336020526040902054818110156113525760405162461bcd60e51b815260206004820152602260248201527f45524332303a206275726e20616d6f756e7420657863656564732062616c616e604482015261636560f01b60648201526084016106fe565b6001600160a01b0383166000908152603360205260408120838303905560358054849290611381908490611f8d565b90915550506040518281526000906001600160a01b038516907fddf252ad1be2c89b69c2b068fc378daa952ba7f163c4a11628f55a4df523b3ef90602001610f9a565b505050565b60006113d58484610a5d565b9050600019811461126a57818110156114305760405162461bcd60e51b815260206004820152601d60248201527f45524332303a20696e73756666696369656e7420616c6c6f77616e636500000060448201526064016106fe565b61126a8484848403610e82565b6001600160a01b0383166114a15760405162461bcd60e51b815260206004820152602560248201527f45524332303a207472616e736665722066726f6d20746865207a65726f206164604482015264647265737360d81b60648201526084016106fe565b6001600160a01b0382166115035760405162461bcd60e51b815260206004820152602360248201527f45524332303a207472616e7366657220746f20746865207a65726f206164647260448201526265737360e81b60648201526084016106fe565b6001600160a01b0383166000908152603360205260409020548181101561157b5760405162461bcd60e51b815260206004820152602660248201527f45524332303a207472616e7366657220616d6f756e7420657863656564732062604482015265616c616e636560d01b60648201526084016106fe565b6001600160a01b038085166000908152603360205260408082208585039055918516815290812080548492906115b2908490611e46565b92505081905550826001600160a01b0316846001600160a01b03167fddf252ad1be2c89b69c2b068fc378daa952ba7f163c4a11628f55a4df523b3ef846040516115fe91815260200190565b60405180910390a361126a565b600054610100900460ff166116325760405162461bcd60e51b81526004016106fe90611da8565b610894336111a0565b600054610100900460ff166116625760405162461bcd60e51b81526004016106fe90611da8565b81516116759060369060208501906117dc565b5080516113c49060379060208401906117dc565b600054610100900460ff166116b05760405162461bcd60e51b81526004016106fe90611da8565b600081116116f85760405162461bcd60e51b8152602060048201526015602482015274045524332304361707065643a20636170206973203605c1b60448201526064016106fe565b606555565b6001600160a01b0382166117535760405162461bcd60e51b815260206004820152601f60248201527f45524332303a206d696e7420746f20746865207a65726f20616464726573730060448201526064016106fe565b80603560008282546117659190611e46565b90915550506001600160a01b03821660009081526033602052604081208054839290611792908490611e46565b90915550506040518181526001600160a01b038316906000907fddf252ad1be2c89b69c2b068fc378daa952ba7f163c4a11628f55a4df523b3ef9060200160405180910390a35050565b8280546117e890611fa4565b90600052602060002090601f01602090048101928261180a5760008555611850565b82601f1061182357805160ff1916838001178555611850565b82800160010185558215611850579182015b82811115611850578251825591602001919060010190611835565b5061185c9291506118d3565b5090565b508054600082559060005260206000209081019061094191906118d3565b828054828255906000526020600020908101928215611850579160200282015b8281111561185057825182546001600160a01b0319166001600160a01b0390911617825560209092019160019091019061189e565b5b8082111561185c57600081556001016118d4565b600082601f8301126118f957600080fd5b8135602061190e61190983611e23565b611df3565b80838252828201915082860187848660051b890101111561192e57600080fd5b60005b8581101561194d57813584529284019290840190600101611931565b5090979650505050505050565b600082601f83011261196b57600080fd5b81356001600160401b0381111561198457611984612052565b611997601f8201601f1916602001611df3565b8181528460208386010111156119ac57600080fd5b816020850160208301376000918101602001919091529392505050565b803560ff811681146119da57600080fd5b919050565b6000602082840312156119f157600080fd5b8135610fc481612068565b600080600080600080600060e0888a031215611a1757600080fd5b8735611a2281612068565b96506020888101359650604089013595506060890135945060808901356001600160401b0380821115611a5457600080fd5b818b0191508b601f830112611a6857600080fd5b8135611a7661190982611e23565b8082825285820191508585018f878560051b8801011115611a9657600080fd5b600095505b83861015611ac057611aac816119c9565b835260019590950194918601918601611a9b565b509750505060a08b0135925080831115611ad957600080fd5b611ae58c848d016118e8565b945060c08b0135925080831115611afb57600080fd5b5050611b098a828b016118e8565b91505092959891949750929550565b60008060408385031215611b2b57600080fd5b8235611b3681612068565b91506020830135611b4681612068565b809150509250929050565b600080600060608486031215611b6657600080fd5b8335611b7181612068565b92506020840135611b8181612068565b929592945050506040919091013590565b60008060408385031215611ba557600080fd5b8235611bb081612068565b946020939093013593505050565b60006020808385031215611bd157600080fd5b82356001600160401b03811115611be757600080fd5b8301601f81018513611bf857600080fd5b8035611c0661190982611e23565b80828252848201915084840188868560051b8701011115611c2657600080fd5b600094505b83851015611c52578035611c3e81612068565b835260019490940193918501918501611c2b565b50979650505050505050565b60008060008060008060c08789031215611c7757600080fd5b86356001600160401b0380821115611c8e57600080fd5b611c9a8a838b0161195a565b97506020890135915080821115611cb057600080fd5b50611cbd89828a0161195a565b955050611ccc604088016119c9565b9350606087013592506080870135915060a087013590509295509295509295565b600060208284031215611cff57600080fd5b5035919050565b6020808252825182820181905260009190848201906040850190845b81811015611d475783516001600160a01b031683529284019291840191600101611d22565b50909695505050505050565b600060208083528351808285015260005b81811015611d8057858101830151858201604001528201611d64565b81811115611d92576000604083870101525b50601f01601f1916929092016040019392505050565b6020808252602b908201527f496e697469616c697a61626c653a20636f6e7472616374206973206e6f74206960408201526a6e697469616c697a696e6760a81b606082015260800190565b604051601f8201601f191681016001600160401b0381118282101715611e1b57611e1b612052565b604052919050565b60006001600160401b03821115611e3c57611e3c612052565b5060051b60200190565b60008219821115611e5957611e59612026565b500190565b600082611e7b57634e487b7160e01b600052601260045260246000fd5b500490565b600181815b80851115611ebb578160001904821115611ea157611ea1612026565b80851615611eae57918102915b93841c9390800290611e85565b509250929050565b6000610fc460ff841683600082611edc57506001610630565b81611ee957506000610630565b8160018114611eff5760028114611f0957611f25565b6001915050610630565b60ff841115611f1a57611f1a612026565b50506001821b610630565b5060208310610133831016604e8410600b8410161715611f48575081810a610630565b611f528383611e80565b8060001904821115611f6657611f66612026565b029392505050565b6000816000190483118215151615611f8857611f88612026565b500290565b600082821015611f9f57611f9f612026565b500390565b600181811c90821680611fb857607f821691505b60208210811415611fd957634e487b7160e01b600052602260045260246000fd5b50919050565b60006001600160401b0380831681811415611ffc57611ffc612026565b6001019392505050565b600060ff821660ff81141561201d5761201d612026565b60010192915050565b634e487b7160e01b600052601160045260246000fd5b634e487b7160e01b600052603260045260246000fd5b634e487b7160e01b600052604160045260246000fd5b6001600160a01b038116811461094157600080fdfea2646970667358221220d6cd6c2f9a26d0b4e5f8ba27517c11bbc662ec2e24911586308e15a912a61f9564736f6c63430008070033",
					"opcodes": "PUSH1 0x80 PUSH1 0x40 MSTORE CALLVALUE DUP1 ISZERO PUSH2 0x10 JUMPI PUSH1 0x0 DUP1 REVERT JUMPDEST POP PUSH2 0x20B3 DUP1 PUSH2 0x20 PUSH1 0x0 CODECOPY PUSH1 0x0 RETURN INVALID PUSH1 0x80 PUSH1 0x40 MSTORE PUSH1 0x4 CALLDATASIZE LT PUSH2 0x1BB JUMPI PUSH1 0x0 CALLDATALOAD PUSH1 0xE0 SHR DUP1 PUSH4 0x8DA5CB5B GT PUSH2 0xEC JUMPI DUP1 PUSH4 0xC4081A4C GT PUSH2 0x8A JUMPI DUP1 PUSH4 0xE4C97E6A GT PUSH2 0x64 JUMPI DUP1 PUSH4 0xE4C97E6A EQ PUSH2 0x505 JUMPI DUP1 PUSH4 0xF2FDE38B EQ PUSH2 0x525 JUMPI DUP1 PUSH4 0xF66608FE EQ PUSH2 0x545 JUMPI DUP1 PUSH4 0xF9342285 EQ PUSH2 0x55A JUMPI PUSH1 0x0 DUP1 REVERT JUMPDEST DUP1 PUSH4 0xC4081A4C EQ PUSH2 0x4AF JUMPI DUP1 PUSH4 0xD89135CD EQ PUSH2 0x4CF JUMPI DUP1 PUSH4 0xDD62ED3E EQ PUSH2 0x4E5 JUMPI PUSH1 0x0 DUP1 REVERT JUMPDEST DUP1 PUSH4 0xA457C2D7 GT PUSH2 0xC6 JUMPI DUP1 PUSH4 0xA457C2D7 EQ PUSH2 0x43A JUMPI DUP1 PUSH4 0xA9059CBB EQ PUSH2 0x45A JUMPI DUP1 PUSH4 0xAC7FA3C6 EQ PUSH2 0x47A JUMPI DUP1 PUSH4 0xB24A0893 EQ PUSH2 0x48F JUMPI PUSH1 0x0 DUP1 REVERT JUMPDEST DUP1 PUSH4 0x8DA5CB5B EQ PUSH2 0x3DD JUMPI DUP1 PUSH4 0x95D89B41 EQ PUSH2 0x405 JUMPI DUP1 PUSH4 0xA3772662 EQ PUSH2 0x41A JUMPI PUSH1 0x0 DUP1 REVERT JUMPDEST DUP1 PUSH4 0x313CE567 GT PUSH2 0x159 JUMPI DUP1 PUSH4 0x3DE47E32 GT PUSH2 0x133 JUMPI DUP1 PUSH4 0x3DE47E32 EQ PUSH2 0x340 JUMPI DUP1 PUSH4 0x46F0975A EQ PUSH2 0x370 JUMPI DUP1 PUSH4 0x70A08231 EQ PUSH2 0x392 JUMPI DUP1 PUSH4 0x715018A6 EQ PUSH2 0x3C8 JUMPI PUSH1 0x0 DUP1 REVERT JUMPDEST DUP1 PUSH4 0x313CE567 EQ PUSH2 0x2E9 JUMPI DUP1 PUSH4 0x355274EA EQ PUSH2 0x30B JUMPI DUP1 PUSH4 0x39509351 EQ PUSH2 0x320 JUMPI PUSH1 0x0 DUP1 REVERT JUMPDEST DUP1 PUSH4 0x18160DDD GT PUSH2 0x195 JUMPI DUP1 PUSH4 0x18160DDD EQ PUSH2 0x25B JUMPI DUP1 PUSH4 0x1E0D4CE9 EQ PUSH2 0x27A JUMPI DUP1 PUSH4 0x23B872DD EQ PUSH2 0x2A7 JUMPI DUP1 PUSH4 0x2B9A1D3C EQ PUSH2 0x2C7 JUMPI PUSH1 0x0 DUP1 REVERT JUMPDEST DUP1 PUSH4 0x6FDDE03 EQ PUSH2 0x1C7 JUMPI DUP1 PUSH4 0x7C351DD EQ PUSH2 0x1F2 JUMPI DUP1 PUSH4 0x95EA7B3 EQ PUSH2 0x23B JUMPI PUSH1 0x0 DUP1 REVERT JUMPDEST CALLDATASIZE PUSH2 0x1C2 JUMPI STOP JUMPDEST PUSH1 0x0 DUP1 REVERT JUMPDEST CALLVALUE DUP1 ISZERO PUSH2 0x1D3 JUMPI PUSH1 0x0 DUP1 REVERT JUMPDEST POP PUSH2 0x1DC PUSH2 0x58A JUMP JUMPDEST PUSH1 0x40 MLOAD PUSH2 0x1E9 SWAP2 SWAP1 PUSH2 0x1D53 JUMP JUMPDEST PUSH1 0x40 MLOAD DUP1 SWAP2 SUB SWAP1 RETURN JUMPDEST CALLVALUE DUP1 ISZERO PUSH2 0x1FE JUMPI PUSH1 0x0 DUP1 REVERT JUMPDEST POP PUSH2 0x22B PUSH2 0x20D CALLDATASIZE PUSH1 0x4 PUSH2 0x19DF JUMP JUMPDEST PUSH1 0x1 PUSH1 0x1 PUSH1 0xA0 SHL SUB AND PUSH1 0x0 SWAP1 DUP2 MSTORE PUSH1 0xD2 PUSH1 0x20 MSTORE PUSH1 0x40 SWAP1 KECCAK256 SLOAD PUSH1 0xFF AND SWAP1 JUMP JUMPDEST PUSH1 0x40 MLOAD SWAP1 ISZERO ISZERO DUP2 MSTORE PUSH1 0x20 ADD PUSH2 0x1E9 JUMP JUMPDEST CALLVALUE DUP1 ISZERO PUSH2 0x247 JUMPI PUSH1 0x0 DUP1 REVERT JUMPDEST POP PUSH2 0x22B PUSH2 0x256 CALLDATASIZE PUSH1 0x4 PUSH2 0x1B92 JUMP JUMPDEST PUSH2 0x61C JUMP JUMPDEST CALLVALUE DUP1 ISZERO PUSH2 0x267 JUMPI PUSH1 0x0 DUP1 REVERT JUMPDEST POP PUSH1 0x35 SLOAD JUMPDEST PUSH1 0x40 MLOAD SWAP1 DUP2 MSTORE PUSH1 0x20 ADD PUSH2 0x1E9 JUMP JUMPDEST CALLVALUE DUP1 ISZERO PUSH2 0x286 JUMPI PUSH1 0x0 DUP1 REVERT JUMPDEST POP PUSH2 0x26C PUSH2 0x295 CALLDATASIZE PUSH1 0x4 PUSH2 0x19DF JUMP JUMPDEST PUSH1 0xD4 PUSH1 0x20 MSTORE PUSH1 0x0 SWAP1 DUP2 MSTORE PUSH1 0x40 SWAP1 KECCAK256 SLOAD DUP2 JUMP JUMPDEST CALLVALUE DUP1 ISZERO PUSH2 0x2B3 JUMPI PUSH1 0x0 DUP1 REVERT JUMPDEST POP PUSH2 0x22B PUSH2 0x2C2 CALLDATASIZE PUSH1 0x4 PUSH2 0x1B51 JUMP JUMPDEST PUSH2 0x636 JUMP JUMPDEST CALLVALUE DUP1 ISZERO PUSH2 0x2D3 JUMPI PUSH1 0x0 DUP1 REVERT JUMPDEST POP PUSH2 0x2E7 PUSH2 0x2E2 CALLDATASIZE PUSH1 0x4 PUSH2 0x1C5E JUMP JUMPDEST PUSH2 0x665 JUMP JUMPDEST STOP JUMPDEST CALLVALUE DUP1 ISZERO PUSH2 0x2F5 JUMPI PUSH1 0x0 DUP1 REVERT JUMPDEST POP PUSH1 0xCC SLOAD PUSH1 0x40 MLOAD PUSH1 0xFF SWAP1 SWAP2 AND DUP2 MSTORE PUSH1 0x20 ADD PUSH2 0x1E9 JUMP JUMPDEST CALLVALUE DUP1 ISZERO PUSH2 0x317 JUMPI PUSH1 0x0 DUP1 REVERT JUMPDEST POP PUSH1 0x65 SLOAD PUSH2 0x26C JUMP JUMPDEST CALLVALUE DUP1 ISZERO PUSH2 0x32C JUMPI PUSH1 0x0 DUP1 REVERT JUMPDEST POP PUSH2 0x22B PUSH2 0x33B CALLDATASIZE PUSH1 0x4 PUSH2 0x1B92 JUMP JUMPDEST PUSH2 0x7FF JUMP JUMPDEST CALLVALUE DUP1 ISZERO PUSH2 0x34C JUMPI PUSH1 0x0 DUP1 REVERT JUMPDEST POP PUSH2 0x22B PUSH2 0x35B CALLDATASIZE PUSH1 0x4 PUSH2 0x19DF JUMP JUMPDEST PUSH1 0xD2 PUSH1 0x20 MSTORE PUSH1 0x0 SWAP1 DUP2 MSTORE PUSH1 0x40 SWAP1 KECCAK256 SLOAD PUSH1 0xFF AND DUP2 JUMP JUMPDEST CALLVALUE DUP1 ISZERO PUSH2 0x37C JUMPI PUSH1 0x0 DUP1 REVERT JUMPDEST POP PUSH2 0x385 PUSH2 0x821 JUMP JUMPDEST PUSH1 0x40 MLOAD PUSH2 0x1E9 SWAP2 SWAP1 PUSH2 0x1D06 JUMP JUMPDEST CALLVALUE DUP1 ISZERO PUSH2 0x39E JUMPI PUSH1 0x0 DUP1 REVERT JUMPDEST POP PUSH2 0x26C PUSH2 0x3AD CALLDATASIZE PUSH1 0x4 PUSH2 0x19DF JUMP JUMPDEST PUSH1 0x1 PUSH1 0x1 PUSH1 0xA0 SHL SUB AND PUSH1 0x0 SWAP1 DUP2 MSTORE PUSH1 0x33 PUSH1 0x20 MSTORE PUSH1 0x40 SWAP1 KECCAK256 SLOAD SWAP1 JUMP JUMPDEST CALLVALUE DUP1 ISZERO PUSH2 0x3D4 JUMPI PUSH1 0x0 DUP1 REVERT JUMPDEST POP PUSH2 0x2E7 PUSH2 0x882 JUMP JUMPDEST CALLVALUE DUP1 ISZERO PUSH2 0x3E9 JUMPI PUSH1 0x0 DUP1 REVERT JUMPDEST POP PUSH1 0x98 SLOAD PUSH1 0x40 MLOAD PUSH1 0x1 PUSH1 0x1 PUSH1 0xA0 SHL SUB SWAP1 SWAP2 AND DUP2 MSTORE PUSH1 0x20 ADD PUSH2 0x1E9 JUMP JUMPDEST CALLVALUE DUP1 ISZERO PUSH2 0x411 JUMPI PUSH1 0x0 DUP1 REVERT JUMPDEST POP PUSH2 0x1DC PUSH2 0x896 JUMP JUMPDEST CALLVALUE DUP1 ISZERO PUSH2 0x426 JUMPI PUSH1 0x0 DUP1 REVERT JUMPDEST POP PUSH2 0x2E7 PUSH2 0x435 CALLDATASIZE PUSH1 0x4 PUSH2 0x1BBE JUMP JUMPDEST PUSH2 0x8A5 JUMP JUMPDEST CALLVALUE DUP1 ISZERO PUSH2 0x446 JUMPI PUSH1 0x0 DUP1 REVERT JUMPDEST POP PUSH2 0x22B PUSH2 0x455 CALLDATASIZE PUSH1 0x4 PUSH2 0x1B92 JUMP JUMPDEST PUSH2 0x944 JUMP JUMPDEST CALLVALUE DUP1 ISZERO PUSH2 0x466 JUMPI PUSH1 0x0 DUP1 REVERT JUMPDEST POP PUSH2 0x22B PUSH2 0x475 CALLDATASIZE PUSH1 0x4 PUSH2 0x1B92 JUMP JUMPDEST PUSH2 0x9CA JUMP JUMPDEST CALLVALUE DUP1 ISZERO PUSH2 0x486 JUMPI PUSH1 0x0 DUP1 REVERT JUMPDEST POP PUSH1 0xCD SLOAD PUSH2 0x26C JUMP JUMPDEST CALLVALUE DUP1 ISZERO PUSH2 0x49B JUMPI PUSH1 0x0 DUP1 REVERT JUMPDEST POP PUSH2 0x2E7 PUSH2 0x4AA CALLDATASIZE PUSH1 0x4 PUSH2 0x1CED JUMP JUMPDEST PUSH2 0xA43 JUMP JUMPDEST CALLVALUE DUP1 ISZERO PUSH2 0x4BB JUMPI PUSH1 0x0 DUP1 REVERT JUMPDEST POP PUSH2 0x2E7 PUSH2 0x4CA CALLDATASIZE PUSH1 0x4 PUSH2 0x1CED JUMP JUMPDEST PUSH2 0xA50 JUMP JUMPDEST CALLVALUE DUP1 ISZERO PUSH2 0x4DB JUMPI PUSH1 0x0 DUP1 REVERT JUMPDEST POP PUSH2 0x26C PUSH1 0xD0 SLOAD DUP2 JUMP JUMPDEST CALLVALUE DUP1 ISZERO PUSH2 0x4F1 JUMPI PUSH1 0x0 DUP1 REVERT JUMPDEST POP PUSH2 0x26C PUSH2 0x500 CALLDATASIZE PUSH1 0x4 PUSH2 0x1B18 JUMP JUMPDEST PUSH2 0xA5D JUMP JUMPDEST CALLVALUE DUP1 ISZERO PUSH2 0x511 JUMPI PUSH1 0x0 DUP1 REVERT JUMPDEST POP PUSH2 0x2E7 PUSH2 0x520 CALLDATASIZE PUSH1 0x4 PUSH2 0x19FC JUMP JUMPDEST PUSH2 0xA88 JUMP JUMPDEST CALLVALUE DUP1 ISZERO PUSH2 0x531 JUMPI PUSH1 0x0 DUP1 REVERT JUMPDEST POP PUSH2 0x2E7 PUSH2 0x540 CALLDATASIZE PUSH1 0x4 PUSH2 0x19DF JUMP JUMPDEST PUSH2 0xE0C JUMP JUMPDEST CALLVALUE DUP1 ISZERO PUSH2 0x551 JUMPI PUSH1 0x0 DUP1 REVERT JUMPDEST POP PUSH1 0xCF SLOAD PUSH2 0x26C JUMP JUMPDEST CALLVALUE DUP1 ISZERO PUSH2 0x566 JUMPI PUSH1 0x0 DUP1 REVERT JUMPDEST POP PUSH2 0x22B PUSH2 0x575 CALLDATASIZE PUSH1 0x4 PUSH2 0x1CED JUMP JUMPDEST PUSH1 0xD3 PUSH1 0x20 MSTORE PUSH1 0x0 SWAP1 DUP2 MSTORE PUSH1 0x40 SWAP1 KECCAK256 SLOAD PUSH1 0xFF AND DUP2 JUMP JUMPDEST PUSH1 0x60 PUSH1 0x36 DUP1 SLOAD PUSH2 0x599 SWAP1 PUSH2 0x1FA4 JUMP JUMPDEST DUP1 PUSH1 0x1F ADD PUSH1 0x20 DUP1 SWAP2 DIV MUL PUSH1 0x20 ADD PUSH1 0x40 MLOAD SWAP1 DUP2 ADD PUSH1 0x40 MSTORE DUP1 SWAP3 SWAP2 SWAP1 DUP2 DUP2 MSTORE PUSH1 0x20 ADD DUP3 DUP1 SLOAD PUSH2 0x5C5 SWAP1 PUSH2 0x1FA4 JUMP JUMPDEST DUP1 ISZERO PUSH2 0x612 JUMPI DUP1 PUSH1 0x1F LT PUSH2 0x5E7 JUMPI PUSH2 0x100 DUP1 DUP4 SLOAD DIV MUL DUP4 MSTORE SWAP2 PUSH1 0x20 ADD SWAP2 PUSH2 0x612 JUMP JUMPDEST DUP3 ADD SWAP2 SWAP1 PUSH1 0x0 MSTORE PUSH1 0x20 PUSH1 0x0 KECCAK256 SWAP1 JUMPDEST DUP2 SLOAD DUP2 MSTORE SWAP1 PUSH1 0x1 ADD SWAP1 PUSH1 0x20 ADD DUP1 DUP4 GT PUSH2 0x5F5 JUMPI DUP3 SWAP1 SUB PUSH1 0x1F AND DUP3 ADD SWAP2 JUMPDEST POP POP POP POP POP SWAP1 POP SWAP1 JUMP JUMPDEST PUSH1 0x0 CALLER PUSH2 0x62A DUP2 DUP6 DUP6 PUSH2 0xE82 JUMP JUMPDEST PUSH1 0x1 SWAP2 POP POP JUMPDEST SWAP3 SWAP2 POP POP JUMP JUMPDEST PUSH1 0x0 DUP1 PUSH2 0x642 DUP4 PUSH2 0xFA7 JUMP JUMPDEST SWAP1 POP PUSH2 0x64E DUP6 DUP3 PUSH2 0xFCB JUMP JUMPDEST PUSH2 0x659 DUP6 DUP6 DUP6 PUSH2 0x102A JUMP JUMPDEST POP PUSH1 0x1 SWAP6 SWAP5 POP POP POP POP POP JUMP JUMPDEST PUSH1 0x0 SLOAD PUSH2 0x100 SWAP1 DIV PUSH1 0xFF AND ISZERO DUP1 DUP1 ISZERO PUSH2 0x685 JUMPI POP PUSH1 0x0 SLOAD PUSH1 0x1 PUSH1 0xFF SWAP1 SWAP2 AND LT JUMPDEST DUP1 PUSH2 0x69F JUMPI POP ADDRESS EXTCODESIZE ISZERO DUP1 ISZERO PUSH2 0x69F JUMPI POP PUSH1 0x0 SLOAD PUSH1 0xFF AND PUSH1 0x1 EQ JUMPDEST PUSH2 0x707 JUMPI PUSH1 0x40 MLOAD PUSH3 0x461BCD PUSH1 0xE5 SHL DUP2 MSTORE PUSH1 0x20 PUSH1 0x4 DUP3 ADD MSTORE PUSH1 0x2E PUSH1 0x24 DUP3 ADD MSTORE PUSH32 0x496E697469616C697A61626C653A20636F6E747261637420697320616C726561 PUSH1 0x44 DUP3 ADD MSTORE PUSH14 0x191E481A5B9A5D1A585B1A5E9959 PUSH1 0x92 SHL PUSH1 0x64 DUP3 ADD MSTORE PUSH1 0x84 ADD JUMPDEST PUSH1 0x40 MLOAD DUP1 SWAP2 SUB SWAP1 REVERT JUMPDEST PUSH1 0x0 DUP1 SLOAD PUSH1 0xFF NOT AND PUSH1 0x1 OR SWAP1 SSTORE DUP1 ISZERO PUSH2 0x72A JUMPI PUSH1 0x0 DUP1 SLOAD PUSH2 0xFF00 NOT AND PUSH2 0x100 OR SWAP1 SSTORE JUMPDEST PUSH2 0x732 PUSH2 0x1043 JUMP JUMPDEST PUSH2 0x73C DUP8 DUP8 PUSH2 0x1072 JUMP JUMPDEST PUSH2 0x759 PUSH2 0x74A DUP7 PUSH1 0xA PUSH2 0x1EC3 JUMP JUMPDEST PUSH2 0x754 SWAP1 DUP7 PUSH2 0x1F6E JUMP JUMPDEST PUSH2 0x10A7 JUMP JUMPDEST DUP7 MLOAD PUSH2 0x76C SWAP1 PUSH1 0xCA SWAP1 PUSH1 0x20 DUP11 ADD SWAP1 PUSH2 0x17DC JUMP JUMPDEST POP DUP6 MLOAD PUSH2 0x780 SWAP1 PUSH1 0xCB SWAP1 PUSH1 0x20 DUP10 ADD SWAP1 PUSH2 0x17DC JUMP JUMPDEST POP PUSH1 0xCC DUP1 SLOAD PUSH1 0xFF NOT AND PUSH1 0xFF DUP8 AND OR SWAP1 SSTORE PUSH8 0x16345785D8A0000 PUSH1 0xCD SSTORE PUSH1 0xCE DUP5 SWAP1 SSTORE PUSH1 0xCF DUP3 SWAP1 SSTORE PUSH2 0x7B0 ADDRESS DUP5 PUSH2 0x10D7 JUMP JUMPDEST DUP1 ISZERO PUSH2 0x7F6 JUMPI PUSH1 0x0 DUP1 SLOAD PUSH2 0xFF00 NOT AND SWAP1 SSTORE PUSH1 0x40 MLOAD PUSH1 0x1 DUP2 MSTORE PUSH32 0x7F26B83FF96E1F2B6A682F133852F6798A09C465DA95921460CEFB3847402498 SWAP1 PUSH1 0x20 ADD PUSH1 0x40 MLOAD DUP1 SWAP2 SUB SWAP1 LOG1 JUMPDEST POP POP POP POP POP POP POP JUMP JUMPDEST PUSH1 0x0 CALLER PUSH2 0x62A DUP2 DUP6 DUP6 PUSH2 0x812 DUP4 DUP4 PUSH2 0xA5D JUMP JUMPDEST PUSH2 0x81C SWAP2 SWAP1 PUSH2 0x1E46 JUMP JUMPDEST PUSH2 0xE82 JUMP JUMPDEST PUSH1 0x60 PUSH1 0xD1 DUP1 SLOAD DUP1 PUSH1 0x20 MUL PUSH1 0x20 ADD PUSH1 0x40 MLOAD SWAP1 DUP2 ADD PUSH1 0x40 MSTORE DUP1 SWAP3 SWAP2 SWAP1 DUP2 DUP2 MSTORE PUSH1 0x20 ADD DUP3 DUP1 SLOAD DUP1 ISZERO PUSH2 0x612 JUMPI PUSH1 0x20 MUL DUP3 ADD SWAP2 SWAP1 PUSH1 0x0 MSTORE PUSH1 0x20 PUSH1 0x0 KECCAK256 SWAP1 JUMPDEST DUP2 SLOAD PUSH1 0x1 PUSH1 0x1 PUSH1 0xA0 SHL SUB AND DUP2 MSTORE PUSH1 0x1 SWAP1 SWAP2 ADD SWAP1 PUSH1 0x20 ADD DUP1 DUP4 GT PUSH2 0x85B JUMPI POP POP POP POP POP SWAP1 POP SWAP1 JUMP JUMPDEST PUSH2 0x88A PUSH2 0x1146 JUMP JUMPDEST PUSH2 0x894 PUSH1 0x0 PUSH2 0x11A0 JUMP JUMPDEST JUMP JUMPDEST PUSH1 0x60 PUSH1 0x37 DUP1 SLOAD PUSH2 0x599 SWAP1 PUSH2 0x1FA4 JUMP JUMPDEST PUSH2 0x8AD PUSH2 0x1146 JUMP JUMPDEST PUSH2 0x914 PUSH1 0xD1 DUP1 SLOAD DUP1 PUSH1 0x20 MUL PUSH1 0x20 ADD PUSH1 0x40 MLOAD SWAP1 DUP2 ADD PUSH1 0x40 MSTORE DUP1 SWAP3 SWAP2 SWAP1 DUP2 DUP2 MSTORE PUSH1 0x20 ADD DUP3 DUP1 SLOAD DUP1 ISZERO PUSH2 0x906 JUMPI PUSH1 0x20 MUL DUP3 ADD SWAP2 SWAP1 PUSH1 0x0 MSTORE PUSH1 0x20 PUSH1 0x0 KECCAK256 SWAP1 JUMPDEST DUP2 SLOAD PUSH1 0x1 PUSH1 0x1 PUSH1 0xA0 SHL SUB AND DUP2 MSTORE PUSH1 0x1 SWAP1 SWAP2 ADD SWAP1 PUSH1 0x20 ADD DUP1 DUP4 GT PUSH2 0x8E8 JUMPI JUMPDEST POP POP POP POP POP PUSH1 0x0 PUSH1 0xD2 PUSH2 0x11F2 JUMP JUMPDEST PUSH2 0x920 PUSH1 0xD1 PUSH1 0x0 PUSH2 0x1860 JUMP JUMPDEST DUP1 MLOAD PUSH2 0x933 SWAP1 PUSH1 0xD1 SWAP1 PUSH1 0x20 DUP5 ADD SWAP1 PUSH2 0x187E JUMP JUMPDEST POP PUSH2 0x941 DUP2 PUSH1 0x1 PUSH1 0xD2 PUSH2 0x11F2 JUMP JUMPDEST POP JUMP JUMPDEST PUSH1 0x0 CALLER DUP2 PUSH2 0x952 DUP3 DUP7 PUSH2 0xA5D JUMP JUMPDEST SWAP1 POP DUP4 DUP2 LT ISZERO PUSH2 0x9B2 JUMPI PUSH1 0x40 MLOAD PUSH3 0x461BCD PUSH1 0xE5 SHL DUP2 MSTORE PUSH1 0x20 PUSH1 0x4 DUP3 ADD MSTORE PUSH1 0x25 PUSH1 0x24 DUP3 ADD MSTORE PUSH32 0x45524332303A2064656372656173656420616C6C6F77616E63652062656C6F77 PUSH1 0x44 DUP3 ADD MSTORE PUSH5 0x207A65726F PUSH1 0xD8 SHL PUSH1 0x64 DUP3 ADD MSTORE PUSH1 0x84 ADD PUSH2 0x6FE JUMP JUMPDEST PUSH2 0x9BF DUP3 DUP7 DUP7 DUP5 SUB PUSH2 0xE82 JUMP JUMPDEST POP PUSH1 0x1 SWAP5 SWAP4 POP POP POP POP JUMP JUMPDEST PUSH1 0x0 PUSH2 0x9DE PUSH1 0x98 SLOAD PUSH1 0x1 PUSH1 0x1 PUSH1 0xA0 SHL SUB AND SWAP1 JUMP JUMPDEST PUSH1 0x1 PUSH1 0x1 PUSH1 0xA0 SHL SUB AND CALLER PUSH1 0x1 PUSH1 0x1 PUSH1 0xA0 SHL SUB AND EQ ISZERO PUSH2 0xA07 JUMPI PUSH2 0xA01 DUP4 DUP4 PUSH2 0x1270 JUMP JUMPDEST POP PUSH2 0xA3A JUMP JUMPDEST PUSH1 0x0 PUSH2 0xA12 DUP4 PUSH2 0xFA7 JUMP JUMPDEST SWAP1 POP PUSH2 0xA1E CALLER DUP3 PUSH2 0xFCB JUMP JUMPDEST PUSH1 0x0 PUSH2 0xA2A DUP3 DUP6 PUSH2 0x1F8D JUMP JUMPDEST SWAP1 POP PUSH2 0xA36 DUP6 DUP3 PUSH2 0x1270 JUMP JUMPDEST POP POP POP JUMPDEST POP PUSH1 0x1 SWAP3 SWAP2 POP POP JUMP JUMPDEST PUSH2 0xA4B PUSH2 0x1146 JUMP JUMPDEST PUSH1 0xCD SSTORE JUMP JUMPDEST PUSH2 0xA58 PUSH2 0x1146 JUMP JUMPDEST PUSH1 0xCF SSTORE JUMP JUMPDEST PUSH1 0x1 PUSH1 0x1 PUSH1 0xA0 SHL SUB SWAP2 DUP3 AND PUSH1 0x0 SWAP1 DUP2 MSTORE PUSH1 0x34 PUSH1 0x20 SWAP1 DUP2 MSTORE PUSH1 0x40 DUP1 DUP4 KECCAK256 SWAP4 SWAP1 SWAP5 AND DUP3 MSTORE SWAP2 SWAP1 SWAP2 MSTORE KECCAK256 SLOAD SWAP1 JUMP JUMPDEST TIMESTAMP DUP5 LT ISZERO PUSH2 0xACB JUMPI PUSH1 0x40 MLOAD PUSH3 0x461BCD PUSH1 0xE5 SHL DUP2 MSTORE PUSH1 0x20 PUSH1 0x4 DUP3 ADD MSTORE PUSH1 0x10 PUSH1 0x24 DUP3 ADD MSTORE PUSH16 0x4578706972656420646561646C696E65 PUSH1 0x80 SHL PUSH1 0x44 DUP3 ADD MSTORE PUSH1 0x64 ADD PUSH2 0x6FE JUMP JUMPDEST PUSH1 0x0 DUP7 DUP2 MSTORE PUSH1 0xD3 PUSH1 0x20 MSTORE PUSH1 0x40 SWAP1 KECCAK256 SLOAD PUSH1 0xFF AND ISZERO PUSH2 0xB1D JUMPI PUSH1 0x40 MLOAD PUSH3 0x461BCD PUSH1 0xE5 SHL DUP2 MSTORE PUSH1 0x20 PUSH1 0x4 DUP3 ADD MSTORE PUSH1 0x10 PUSH1 0x24 DUP3 ADD MSTORE PUSH16 0x556E6971756520696420657869737473 PUSH1 0x80 SHL PUSH1 0x44 DUP3 ADD MSTORE PUSH1 0x64 ADD PUSH2 0x6FE JUMP JUMPDEST CALLER PUSH1 0x0 PUSH2 0xB32 PUSH1 0x98 SLOAD PUSH1 0x1 PUSH1 0x1 PUSH1 0xA0 SHL SUB AND SWAP1 JUMP JUMPDEST PUSH1 0x40 MLOAD PUSH1 0x19 PUSH1 0xF8 SHL PUSH1 0x20 DUP3 ADD MSTORE PUSH1 0x0 PUSH1 0x21 DUP3 ADD DUP2 SWAP1 MSTORE PUSH12 0xFFFFFFFFFFFFFFFFFFFFFFFF NOT PUSH1 0x60 DUP5 DUP2 SHL DUP3 AND PUSH1 0x22 DUP6 ADD MSTORE DUP7 DUP2 SHL DUP3 AND PUSH1 0x36 DUP6 ADD MSTORE DUP14 SWAP1 SHL AND PUSH1 0x4A DUP4 ADD MSTORE PUSH1 0x5E DUP3 ADD DUP11 SWAP1 MSTORE PUSH1 0x7E DUP3 ADD DUP12 SWAP1 MSTORE PUSH1 0x9E DUP3 ADD DUP10 SWAP1 MSTORE SWAP2 SWAP3 POP PUSH1 0xBE ADD PUSH1 0x40 MLOAD PUSH1 0x20 DUP2 DUP4 SUB SUB DUP2 MSTORE SWAP1 PUSH1 0x40 MSTORE DUP1 MLOAD SWAP1 PUSH1 0x20 ADD KECCAK256 SWAP1 POP PUSH1 0x0 DUP1 PUSH1 0x0 JUMPDEST DUP9 MLOAD DUP2 PUSH1 0x1 PUSH1 0x1 PUSH1 0x40 SHL SUB AND LT ISZERO PUSH2 0xCF2 JUMPI PUSH1 0x0 PUSH1 0x1 DUP6 DUP12 DUP5 PUSH1 0x1 PUSH1 0x1 PUSH1 0x40 SHL SUB AND DUP2 MLOAD DUP2 LT PUSH2 0xBE0 JUMPI PUSH2 0xBE0 PUSH2 0x203C JUMP JUMPDEST PUSH1 0x20 MUL PUSH1 0x20 ADD ADD MLOAD DUP12 DUP6 PUSH1 0x1 PUSH1 0x1 PUSH1 0x40 SHL SUB AND DUP2 MLOAD DUP2 LT PUSH2 0xC03 JUMPI PUSH2 0xC03 PUSH2 0x203C JUMP JUMPDEST PUSH1 0x20 MUL PUSH1 0x20 ADD ADD MLOAD DUP12 DUP7 PUSH1 0x1 PUSH1 0x1 PUSH1 0x40 SHL SUB AND DUP2 MLOAD DUP2 LT PUSH2 0xC26 JUMPI PUSH2 0xC26 PUSH2 0x203C JUMP JUMPDEST PUSH1 0x20 MUL PUSH1 0x20 ADD ADD MLOAD PUSH1 0x40 MLOAD PUSH1 0x0 DUP2 MSTORE PUSH1 0x20 ADD PUSH1 0x40 MSTORE PUSH1 0x40 MLOAD PUSH2 0xC64 SWAP5 SWAP4 SWAP3 SWAP2 SWAP1 SWAP4 DUP5 MSTORE PUSH1 0xFF SWAP3 SWAP1 SWAP3 AND PUSH1 0x20 DUP5 ADD MSTORE PUSH1 0x40 DUP4 ADD MSTORE PUSH1 0x60 DUP3 ADD MSTORE PUSH1 0x80 ADD SWAP1 JUMP JUMPDEST PUSH1 0x20 PUSH1 0x40 MLOAD PUSH1 0x20 DUP2 SUB SWAP1 DUP1 DUP5 SUB SWAP1 DUP6 GAS STATICCALL ISZERO DUP1 ISZERO PUSH2 0xC86 JUMPI RETURNDATASIZE PUSH1 0x0 DUP1 RETURNDATACOPY RETURNDATASIZE PUSH1 0x0 REVERT JUMPDEST POP POP POP PUSH1 0x20 PUSH1 0x40 MLOAD SUB MLOAD SWAP1 POP DUP4 PUSH1 0x1 PUSH1 0x1 PUSH1 0xA0 SHL SUB AND DUP2 PUSH1 0x1 PUSH1 0x1 PUSH1 0xA0 SHL SUB AND GT DUP1 ISZERO PUSH2 0xCCB JUMPI POP PUSH1 0x1 PUSH1 0x1 PUSH1 0xA0 SHL SUB DUP2 AND PUSH1 0x0 SWAP1 DUP2 MSTORE PUSH1 0xD2 PUSH1 0x20 MSTORE PUSH1 0x40 SWAP1 KECCAK256 SLOAD PUSH1 0xFF AND JUMPDEST ISZERO PUSH2 0xCDE JUMPI DUP3 PUSH2 0xCDA DUP2 PUSH2 0x2006 JUMP JUMPDEST SWAP4 POP POP JUMPDEST SWAP3 POP DUP1 PUSH2 0xCEA DUP2 PUSH2 0x1FDF JUMP JUMPDEST SWAP2 POP POP PUSH2 0xBAE JUMP JUMPDEST POP PUSH1 0x2 DUP2 PUSH1 0xFF AND LT ISZERO PUSH2 0xD39 JUMPI PUSH1 0x40 MLOAD PUSH3 0x461BCD PUSH1 0xE5 SHL DUP2 MSTORE PUSH1 0x20 PUSH1 0x4 DUP3 ADD MSTORE PUSH1 0xF PUSH1 0x24 DUP3 ADD MSTORE PUSH15 0x496E76616C6964207369676E657273 PUSH1 0x88 SHL PUSH1 0x44 DUP3 ADD MSTORE PUSH1 0x64 ADD PUSH2 0x6FE JUMP JUMPDEST PUSH1 0x0 DUP12 DUP2 MSTORE PUSH1 0xD3 PUSH1 0x20 MSTORE PUSH1 0x40 DUP2 KECCAK256 DUP1 SLOAD PUSH1 0xFF NOT AND PUSH1 0x1 OR SWAP1 SSTORE PUSH1 0xCD SLOAD PUSH1 0x1 PUSH1 0x1 PUSH1 0xA0 SHL SUB DUP15 AND SWAP1 PUSH2 0xD6B SWAP1 DUP14 SWAP1 PUSH2 0x1F6E JUMP JUMPDEST PUSH1 0x40 MLOAD PUSH1 0x0 DUP2 DUP2 DUP2 DUP6 DUP8 GAS CALL SWAP3 POP POP POP RETURNDATASIZE DUP1 PUSH1 0x0 DUP2 EQ PUSH2 0xDA7 JUMPI PUSH1 0x40 MLOAD SWAP2 POP PUSH1 0x1F NOT PUSH1 0x3F RETURNDATASIZE ADD AND DUP3 ADD PUSH1 0x40 MSTORE RETURNDATASIZE DUP3 MSTORE RETURNDATASIZE PUSH1 0x0 PUSH1 0x20 DUP5 ADD RETURNDATACOPY PUSH2 0xDAC JUMP JUMPDEST PUSH1 0x60 SWAP2 POP JUMPDEST POP POP SWAP1 POP DUP1 PUSH2 0xDF3 JUMPI PUSH1 0x40 MLOAD PUSH3 0x461BCD PUSH1 0xE5 SHL DUP2 MSTORE PUSH1 0x20 PUSH1 0x4 DUP3 ADD MSTORE PUSH1 0x13 PUSH1 0x24 DUP3 ADD MSTORE PUSH19 0x8CC2D2D8CAC840E8DE40E6CADCC8409ACAC6D PUSH1 0x6B SHL PUSH1 0x44 DUP3 ADD MSTORE PUSH1 0x64 ADD PUSH2 0x6FE JUMP JUMPDEST PUSH2 0xDFD DUP14 DUP13 PUSH2 0x10D7 JUMP JUMPDEST POP POP POP POP POP POP POP POP POP POP POP POP POP JUMP JUMPDEST PUSH2 0xE14 PUSH2 0x1146 JUMP JUMPDEST PUSH1 0x1 PUSH1 0x1 PUSH1 0xA0 SHL SUB DUP2 AND PUSH2 0xE79 JUMPI PUSH1 0x40 MLOAD PUSH3 0x461BCD PUSH1 0xE5 SHL DUP2 MSTORE PUSH1 0x20 PUSH1 0x4 DUP3 ADD MSTORE PUSH1 0x26 PUSH1 0x24 DUP3 ADD MSTORE PUSH32 0x4F776E61626C653A206E6577206F776E657220697320746865207A65726F2061 PUSH1 0x44 DUP3 ADD MSTORE PUSH6 0x646472657373 PUSH1 0xD0 SHL PUSH1 0x64 DUP3 ADD MSTORE PUSH1 0x84 ADD PUSH2 0x6FE JUMP JUMPDEST PUSH2 0x941 DUP2 PUSH2 0x11A0 JUMP JUMPDEST PUSH1 0x1 PUSH1 0x1 PUSH1 0xA0 SHL SUB DUP4 AND PUSH2 0xEE4 JUMPI PUSH1 0x40 MLOAD PUSH3 0x461BCD PUSH1 0xE5 SHL DUP2 MSTORE PUSH1 0x20 PUSH1 0x4 DUP3 ADD MSTORE PUSH1 0x24 DUP1 DUP3 ADD MSTORE PUSH32 0x45524332303A20617070726F76652066726F6D20746865207A65726F20616464 PUSH1 0x44 DUP3 ADD MSTORE PUSH4 0x72657373 PUSH1 0xE0 SHL PUSH1 0x64 DUP3 ADD MSTORE PUSH1 0x84 ADD PUSH2 0x6FE JUMP JUMPDEST PUSH1 0x1 PUSH1 0x1 PUSH1 0xA0 SHL SUB DUP3 AND PUSH2 0xF45 JUMPI PUSH1 0x40 MLOAD PUSH3 0x461BCD PUSH1 0xE5 SHL DUP2 MSTORE PUSH1 0x20 PUSH1 0x4 DUP3 ADD MSTORE PUSH1 0x22 PUSH1 0x24 DUP3 ADD MSTORE PUSH32 0x45524332303A20617070726F766520746F20746865207A65726F206164647265 PUSH1 0x44 DUP3 ADD MSTORE PUSH2 0x7373 PUSH1 0xF0 SHL PUSH1 0x64 DUP3 ADD MSTORE PUSH1 0x84 ADD PUSH2 0x6FE JUMP JUMPDEST PUSH1 0x1 PUSH1 0x1 PUSH1 0xA0 SHL SUB DUP4 DUP2 AND PUSH1 0x0 DUP2 DUP2 MSTORE PUSH1 0x34 PUSH1 0x20 SWAP1 DUP2 MSTORE PUSH1 0x40 DUP1 DUP4 KECCAK256 SWAP5 DUP8 AND DUP1 DUP5 MSTORE SWAP5 DUP3 MSTORE SWAP2 DUP3 SWAP1 KECCAK256 DUP6 SWAP1 SSTORE SWAP1 MLOAD DUP5 DUP2 MSTORE PUSH32 0x8C5BE1E5EBEC7D5BD14F71427D1E84F3DD0314C0F7B2291E5B200AC8C7C3B925 SWAP2 ADD JUMPDEST PUSH1 0x40 MLOAD DUP1 SWAP2 SUB SWAP1 LOG3 POP POP POP JUMP JUMPDEST PUSH1 0x0 DUP1 PUSH1 0x64 PUSH1 0xCF SLOAD DUP5 PUSH2 0xFBA SWAP2 SWAP1 PUSH2 0x1F6E JUMP JUMPDEST PUSH2 0xFC4 SWAP2 SWAP1 PUSH2 0x1E5E JUMP JUMPDEST SWAP4 SWAP3 POP POP POP JUMP JUMPDEST PUSH2 0xFD5 DUP3 DUP3 PUSH2 0x127E JUMP JUMPDEST DUP1 PUSH1 0xD0 SLOAD PUSH2 0xFE3 SWAP2 SWAP1 PUSH2 0x1E46 JUMP JUMPDEST PUSH1 0xD0 SSTORE PUSH1 0x1 PUSH1 0x1 PUSH1 0xA0 SHL SUB DUP3 AND PUSH1 0x0 SWAP1 DUP2 MSTORE PUSH1 0xD4 PUSH1 0x20 MSTORE PUSH1 0x40 SWAP1 KECCAK256 SLOAD PUSH2 0x100A SWAP1 DUP3 SWAP1 PUSH2 0x1E46 JUMP JUMPDEST PUSH1 0x1 PUSH1 0x1 PUSH1 0xA0 SHL SUB SWAP1 SWAP3 AND PUSH1 0x0 SWAP1 DUP2 MSTORE PUSH1 0xD4 PUSH1 0x20 MSTORE PUSH1 0x40 SWAP1 KECCAK256 SWAP2 SWAP1 SWAP2 SSTORE POP JUMP JUMPDEST PUSH1 0x0 CALLER PUSH2 0x1038 DUP6 DUP3 DUP6 PUSH2 0x13C9 JUMP JUMPDEST PUSH2 0x9BF DUP6 DUP6 DUP6 PUSH2 0x143D JUMP JUMPDEST PUSH1 0x0 SLOAD PUSH2 0x100 SWAP1 DIV PUSH1 0xFF AND PUSH2 0x106A JUMPI PUSH1 0x40 MLOAD PUSH3 0x461BCD PUSH1 0xE5 SHL DUP2 MSTORE PUSH1 0x4 ADD PUSH2 0x6FE SWAP1 PUSH2 0x1DA8 JUMP JUMPDEST PUSH2 0x894 PUSH2 0x160B JUMP JUMPDEST PUSH1 0x0 SLOAD PUSH2 0x100 SWAP1 DIV PUSH1 0xFF AND PUSH2 0x1099 JUMPI PUSH1 0x40 MLOAD PUSH3 0x461BCD PUSH1 0xE5 SHL DUP2 MSTORE PUSH1 0x4 ADD PUSH2 0x6FE SWAP1 PUSH2 0x1DA8 JUMP JUMPDEST PUSH2 0x10A3 DUP3 DUP3 PUSH2 0x163B JUMP JUMPDEST POP POP JUMP JUMPDEST PUSH1 0x0 SLOAD PUSH2 0x100 SWAP1 DIV PUSH1 0xFF AND PUSH2 0x10CE JUMPI PUSH1 0x40 MLOAD PUSH3 0x461BCD PUSH1 0xE5 SHL DUP2 MSTORE PUSH1 0x4 ADD PUSH2 0x6FE SWAP1 PUSH2 0x1DA8 JUMP JUMPDEST PUSH2 0x941 DUP2 PUSH2 0x1689 JUMP JUMPDEST PUSH1 0x65 SLOAD DUP2 PUSH2 0x10E4 PUSH1 0x35 SLOAD SWAP1 JUMP JUMPDEST PUSH2 0x10EE SWAP2 SWAP1 PUSH2 0x1E46 JUMP JUMPDEST GT ISZERO PUSH2 0x113C JUMPI PUSH1 0x40 MLOAD PUSH3 0x461BCD PUSH1 0xE5 SHL DUP2 MSTORE PUSH1 0x20 PUSH1 0x4 DUP3 ADD MSTORE PUSH1 0x19 PUSH1 0x24 DUP3 ADD MSTORE PUSH32 0x45524332304361707065643A2063617020657863656564656400000000000000 PUSH1 0x44 DUP3 ADD MSTORE PUSH1 0x64 ADD PUSH2 0x6FE JUMP JUMPDEST PUSH2 0x10A3 DUP3 DUP3 PUSH2 0x16FD JUMP JUMPDEST PUSH1 0x98 SLOAD PUSH1 0x1 PUSH1 0x1 PUSH1 0xA0 SHL SUB AND CALLER EQ PUSH2 0x894 JUMPI PUSH1 0x40 MLOAD PUSH3 0x461BCD PUSH1 0xE5 SHL DUP2 MSTORE PUSH1 0x20 PUSH1 0x4 DUP3 ADD DUP2 SWAP1 MSTORE PUSH1 0x24 DUP3 ADD MSTORE PUSH32 0x4F776E61626C653A2063616C6C6572206973206E6F7420746865206F776E6572 PUSH1 0x44 DUP3 ADD MSTORE PUSH1 0x64 ADD PUSH2 0x6FE JUMP JUMPDEST PUSH1 0x98 DUP1 SLOAD PUSH1 0x1 PUSH1 0x1 PUSH1 0xA0 SHL SUB DUP4 DUP2 AND PUSH1 0x1 PUSH1 0x1 PUSH1 0xA0 SHL SUB NOT DUP4 AND DUP2 OR SWAP1 SWAP4 SSTORE PUSH1 0x40 MLOAD SWAP2 AND SWAP2 SWAP1 DUP3 SWAP1 PUSH32 0x8BE0079C531659141344CD1FD0A4F28419497F9722A3DAAFE3B4186F6B6457E0 SWAP1 PUSH1 0x0 SWAP1 LOG3 POP POP JUMP JUMPDEST PUSH1 0x0 JUMPDEST DUP4 MLOAD DUP2 PUSH1 0x1 PUSH1 0x1 PUSH1 0x40 SHL SUB AND LT ISZERO PUSH2 0x126A JUMPI DUP3 DUP3 PUSH1 0x0 DUP7 DUP5 PUSH1 0x1 PUSH1 0x1 PUSH1 0x40 SHL SUB AND DUP2 MLOAD DUP2 LT PUSH2 0x1226 JUMPI PUSH2 0x1226 PUSH2 0x203C JUMP JUMPDEST PUSH1 0x20 SWAP1 DUP2 MUL SWAP2 SWAP1 SWAP2 ADD DUP2 ADD MLOAD PUSH1 0x1 PUSH1 0x1 PUSH1 0xA0 SHL SUB AND DUP3 MSTORE DUP2 ADD SWAP2 SWAP1 SWAP2 MSTORE PUSH1 0x40 ADD PUSH1 0x0 KECCAK256 DUP1 SLOAD PUSH1 0xFF NOT AND SWAP2 ISZERO ISZERO SWAP2 SWAP1 SWAP2 OR SWAP1 SSTORE DUP1 PUSH2 0x1262 DUP2 PUSH2 0x1FDF JUMP JUMPDEST SWAP2 POP POP PUSH2 0x11F5 JUMP JUMPDEST POP POP POP POP JUMP JUMPDEST PUSH1 0x0 CALLER PUSH2 0x62A DUP2 DUP6 DUP6 PUSH2 0x143D JUMP JUMPDEST PUSH1 0x1 PUSH1 0x1 PUSH1 0xA0 SHL SUB DUP3 AND PUSH2 0x12DE JUMPI PUSH1 0x40 MLOAD PUSH3 0x461BCD PUSH1 0xE5 SHL DUP2 MSTORE PUSH1 0x20 PUSH1 0x4 DUP3 ADD MSTORE PUSH1 0x21 PUSH1 0x24 DUP3 ADD MSTORE PUSH32 0x45524332303A206275726E2066726F6D20746865207A65726F20616464726573 PUSH1 0x44 DUP3 ADD MSTORE PUSH1 0x73 PUSH1 0xF8 SHL PUSH1 0x64 DUP3 ADD MSTORE PUSH1 0x84 ADD PUSH2 0x6FE JUMP JUMPDEST PUSH1 0x1 PUSH1 0x1 PUSH1 0xA0 SHL SUB DUP3 AND PUSH1 0x0 SWAP1 DUP2 MSTORE PUSH1 0x33 PUSH1 0x20 MSTORE PUSH1 0x40 SWAP1 KECCAK256 SLOAD DUP2 DUP2 LT ISZERO PUSH2 0x1352 JUMPI PUSH1 0x40 MLOAD PUSH3 0x461BCD PUSH1 0xE5 SHL DUP2 MSTORE PUSH1 0x20 PUSH1 0x4 DUP3 ADD MSTORE PUSH1 0x22 PUSH1 0x24 DUP3 ADD MSTORE PUSH32 0x45524332303A206275726E20616D6F756E7420657863656564732062616C616E PUSH1 0x44 DUP3 ADD MSTORE PUSH2 0x6365 PUSH1 0xF0 SHL PUSH1 0x64 DUP3 ADD MSTORE PUSH1 0x84 ADD PUSH2 0x6FE JUMP JUMPDEST PUSH1 0x1 PUSH1 0x1 PUSH1 0xA0 SHL SUB DUP4 AND PUSH1 0x0 SWAP1 DUP2 MSTORE PUSH1 0x33 PUSH1 0x20 MSTORE PUSH1 0x40 DUP2 KECCAK256 DUP4 DUP4 SUB SWAP1 SSTORE PUSH1 0x35 DUP1 SLOAD DUP5 SWAP3 SWAP1 PUSH2 0x1381 SWAP1 DUP5 SWAP1 PUSH2 0x1F8D JUMP JUMPDEST SWAP1 SWAP2 SSTORE POP POP PUSH1 0x40 MLOAD DUP3 DUP2 MSTORE PUSH1 0x0 SWAP1 PUSH1 0x1 PUSH1 0x1 PUSH1 0xA0 SHL SUB DUP6 AND SWAP1 PUSH32 0xDDF252AD1BE2C89B69C2B068FC378DAA952BA7F163C4A11628F55A4DF523B3EF SWAP1 PUSH1 0x20 ADD PUSH2 0xF9A JUMP JUMPDEST POP POP POP JUMP JUMPDEST PUSH1 0x0 PUSH2 0x13D5 DUP5 DUP5 PUSH2 0xA5D JUMP JUMPDEST SWAP1 POP PUSH1 0x0 NOT DUP2 EQ PUSH2 0x126A JUMPI DUP2 DUP2 LT ISZERO PUSH2 0x1430 JUMPI PUSH1 0x40 MLOAD PUSH3 0x461BCD PUSH1 0xE5 SHL DUP2 MSTORE PUSH1 0x20 PUSH1 0x4 DUP3 ADD MSTORE PUSH1 0x1D PUSH1 0x24 DUP3 ADD MSTORE PUSH32 0x45524332303A20696E73756666696369656E7420616C6C6F77616E6365000000 PUSH1 0x44 DUP3 ADD MSTORE PUSH1 0x64 ADD PUSH2 0x6FE JUMP JUMPDEST PUSH2 0x126A DUP5 DUP5 DUP5 DUP5 SUB PUSH2 0xE82 JUMP JUMPDEST PUSH1 0x1 PUSH1 0x1 PUSH1 0xA0 SHL SUB DUP4 AND PUSH2 0x14A1 JUMPI PUSH1 0x40 MLOAD PUSH3 0x461BCD PUSH1 0xE5 SHL DUP2 MSTORE PUSH1 0x20 PUSH1 0x4 DUP3 ADD MSTORE PUSH1 0x25 PUSH1 0x24 DUP3 ADD MSTORE PUSH32 0x45524332303A207472616E736665722066726F6D20746865207A65726F206164 PUSH1 0x44 DUP3 ADD MSTORE PUSH5 0x6472657373 PUSH1 0xD8 SHL PUSH1 0x64 DUP3 ADD MSTORE PUSH1 0x84 ADD PUSH2 0x6FE JUMP JUMPDEST PUSH1 0x1 PUSH1 0x1 PUSH1 0xA0 SHL SUB DUP3 AND PUSH2 0x1503 JUMPI PUSH1 0x40 MLOAD PUSH3 0x461BCD PUSH1 0xE5 SHL DUP2 MSTORE PUSH1 0x20 PUSH1 0x4 DUP3 ADD MSTORE PUSH1 0x23 PUSH1 0x24 DUP3 ADD MSTORE PUSH32 0x45524332303A207472616E7366657220746F20746865207A65726F2061646472 PUSH1 0x44 DUP3 ADD MSTORE PUSH3 0x657373 PUSH1 0xE8 SHL PUSH1 0x64 DUP3 ADD MSTORE PUSH1 0x84 ADD PUSH2 0x6FE JUMP JUMPDEST PUSH1 0x1 PUSH1 0x1 PUSH1 0xA0 SHL SUB DUP4 AND PUSH1 0x0 SWAP1 DUP2 MSTORE PUSH1 0x33 PUSH1 0x20 MSTORE PUSH1 0x40 SWAP1 KECCAK256 SLOAD DUP2 DUP2 LT ISZERO PUSH2 0x157B JUMPI PUSH1 0x40 MLOAD PUSH3 0x461BCD PUSH1 0xE5 SHL DUP2 MSTORE PUSH1 0x20 PUSH1 0x4 DUP3 ADD MSTORE PUSH1 0x26 PUSH1 0x24 DUP3 ADD MSTORE PUSH32 0x45524332303A207472616E7366657220616D6F756E7420657863656564732062 PUSH1 0x44 DUP3 ADD MSTORE PUSH6 0x616C616E6365 PUSH1 0xD0 SHL PUSH1 0x64 DUP3 ADD MSTORE PUSH1 0x84 ADD PUSH2 0x6FE JUMP JUMPDEST PUSH1 0x1 PUSH1 0x1 PUSH1 0xA0 SHL SUB DUP1 DUP6 AND PUSH1 0x0 SWAP1 DUP2 MSTORE PUSH1 0x33 PUSH1 0x20 MSTORE PUSH1 0x40 DUP1 DUP3 KECCAK256 DUP6 DUP6 SUB SWAP1 SSTORE SWAP2 DUP6 AND DUP2 MSTORE SWAP1 DUP2 KECCAK256 DUP1 SLOAD DUP5 SWAP3 SWAP1 PUSH2 0x15B2 SWAP1 DUP5 SWAP1 PUSH2 0x1E46 JUMP JUMPDEST SWAP3 POP POP DUP2 SWAP1 SSTORE POP DUP3 PUSH1 0x1 PUSH1 0x1 PUSH1 0xA0 SHL SUB AND DUP5 PUSH1 0x1 PUSH1 0x1 PUSH1 0xA0 SHL SUB AND PUSH32 0xDDF252AD1BE2C89B69C2B068FC378DAA952BA7F163C4A11628F55A4DF523B3EF DUP5 PUSH1 0x40 MLOAD PUSH2 0x15FE SWAP2 DUP2 MSTORE PUSH1 0x20 ADD SWAP1 JUMP JUMPDEST PUSH1 0x40 MLOAD DUP1 SWAP2 SUB SWAP1 LOG3 PUSH2 0x126A JUMP JUMPDEST PUSH1 0x0 SLOAD PUSH2 0x100 SWAP1 DIV PUSH1 0xFF AND PUSH2 0x1632 JUMPI PUSH1 0x40 MLOAD PUSH3 0x461BCD PUSH1 0xE5 SHL DUP2 MSTORE PUSH1 0x4 ADD PUSH2 0x6FE SWAP1 PUSH2 0x1DA8 JUMP JUMPDEST PUSH2 0x894 CALLER PUSH2 0x11A0 JUMP JUMPDEST PUSH1 0x0 SLOAD PUSH2 0x100 SWAP1 DIV PUSH1 0xFF AND PUSH2 0x1662 JUMPI PUSH1 0x40 MLOAD PUSH3 0x461BCD PUSH1 0xE5 SHL DUP2 MSTORE PUSH1 0x4 ADD PUSH2 0x6FE SWAP1 PUSH2 0x1DA8 JUMP JUMPDEST DUP2 MLOAD PUSH2 0x1675 SWAP1 PUSH1 0x36 SWAP1 PUSH1 0x20 DUP6 ADD SWAP1 PUSH2 0x17DC JUMP JUMPDEST POP DUP1 MLOAD PUSH2 0x13C4 SWAP1 PUSH1 0x37 SWAP1 PUSH1 0x20 DUP5 ADD SWAP1 PUSH2 0x17DC JUMP JUMPDEST PUSH1 0x0 SLOAD PUSH2 0x100 SWAP1 DIV PUSH1 0xFF AND PUSH2 0x16B0 JUMPI PUSH1 0x40 MLOAD PUSH3 0x461BCD PUSH1 0xE5 SHL DUP2 MSTORE PUSH1 0x4 ADD PUSH2 0x6FE SWAP1 PUSH2 0x1DA8 JUMP JUMPDEST PUSH1 0x0 DUP2 GT PUSH2 0x16F8 JUMPI PUSH1 0x40 MLOAD PUSH3 0x461BCD PUSH1 0xE5 SHL DUP2 MSTORE PUSH1 0x20 PUSH1 0x4 DUP3 ADD MSTORE PUSH1 0x15 PUSH1 0x24 DUP3 ADD MSTORE PUSH21 0x45524332304361707065643A20636170206973203 PUSH1 0x5C SHL PUSH1 0x44 DUP3 ADD MSTORE PUSH1 0x64 ADD PUSH2 0x6FE JUMP JUMPDEST PUSH1 0x65 SSTORE JUMP JUMPDEST PUSH1 0x1 PUSH1 0x1 PUSH1 0xA0 SHL SUB DUP3 AND PUSH2 0x1753 JUMPI PUSH1 0x40 MLOAD PUSH3 0x461BCD PUSH1 0xE5 SHL DUP2 MSTORE PUSH1 0x20 PUSH1 0x4 DUP3 ADD MSTORE PUSH1 0x1F PUSH1 0x24 DUP3 ADD MSTORE PUSH32 0x45524332303A206D696E7420746F20746865207A65726F206164647265737300 PUSH1 0x44 DUP3 ADD MSTORE PUSH1 0x64 ADD PUSH2 0x6FE JUMP JUMPDEST DUP1 PUSH1 0x35 PUSH1 0x0 DUP3 DUP3 SLOAD PUSH2 0x1765 SWAP2 SWAP1 PUSH2 0x1E46 JUMP JUMPDEST SWAP1 SWAP2 SSTORE POP POP PUSH1 0x1 PUSH1 0x1 PUSH1 0xA0 SHL SUB DUP3 AND PUSH1 0x0 SWAP1 DUP2 MSTORE PUSH1 0x33 PUSH1 0x20 MSTORE PUSH1 0x40 DUP2 KECCAK256 DUP1 SLOAD DUP4 SWAP3 SWAP1 PUSH2 0x1792 SWAP1 DUP5 SWAP1 PUSH2 0x1E46 JUMP JUMPDEST SWAP1 SWAP2 SSTORE POP POP PUSH1 0x40 MLOAD DUP2 DUP2 MSTORE PUSH1 0x1 PUSH1 0x1 PUSH1 0xA0 SHL SUB DUP4 AND SWAP1 PUSH1 0x0 SWAP1 PUSH32 0xDDF252AD1BE2C89B69C2B068FC378DAA952BA7F163C4A11628F55A4DF523B3EF SWAP1 PUSH1 0x20 ADD PUSH1 0x40 MLOAD DUP1 SWAP2 SUB SWAP1 LOG3 POP POP JUMP JUMPDEST DUP3 DUP1 SLOAD PUSH2 0x17E8 SWAP1 PUSH2 0x1FA4 JUMP JUMPDEST SWAP1 PUSH1 0x0 MSTORE PUSH1 0x20 PUSH1 0x0 KECCAK256 SWAP1 PUSH1 0x1F ADD PUSH1 0x20 SWAP1 DIV DUP2 ADD SWAP3 DUP3 PUSH2 0x180A JUMPI PUSH1 0x0 DUP6 SSTORE PUSH2 0x1850 JUMP JUMPDEST DUP3 PUSH1 0x1F LT PUSH2 0x1823 JUMPI DUP1 MLOAD PUSH1 0xFF NOT AND DUP4 DUP1 ADD OR DUP6 SSTORE PUSH2 0x1850 JUMP JUMPDEST DUP3 DUP1 ADD PUSH1 0x1 ADD DUP6 SSTORE DUP3 ISZERO PUSH2 0x1850 JUMPI SWAP2 DUP3 ADD JUMPDEST DUP3 DUP2 GT ISZERO PUSH2 0x1850 JUMPI DUP3 MLOAD DUP3 SSTORE SWAP2 PUSH1 0x20 ADD SWAP2 SWAP1 PUSH1 0x1 ADD SWAP1 PUSH2 0x1835 JUMP JUMPDEST POP PUSH2 0x185C SWAP3 SWAP2 POP PUSH2 0x18D3 JUMP JUMPDEST POP SWAP1 JUMP JUMPDEST POP DUP1 SLOAD PUSH1 0x0 DUP3 SSTORE SWAP1 PUSH1 0x0 MSTORE PUSH1 0x20 PUSH1 0x0 KECCAK256 SWAP1 DUP2 ADD SWAP1 PUSH2 0x941 SWAP2 SWAP1 PUSH2 0x18D3 JUMP JUMPDEST DUP3 DUP1 SLOAD DUP3 DUP3 SSTORE SWAP1 PUSH1 0x0 MSTORE PUSH1 0x20 PUSH1 0x0 KECCAK256 SWAP1 DUP2 ADD SWAP3 DUP3 ISZERO PUSH2 0x1850 JUMPI SWAP2 PUSH1 0x20 MUL DUP3 ADD JUMPDEST DUP3 DUP2 GT ISZERO PUSH2 0x1850 JUMPI DUP3 MLOAD DUP3 SLOAD PUSH1 0x1 PUSH1 0x1 PUSH1 0xA0 SHL SUB NOT AND PUSH1 0x1 PUSH1 0x1 PUSH1 0xA0 SHL SUB SWAP1 SWAP2 AND OR DUP3 SSTORE PUSH1 0x20 SWAP1 SWAP3 ADD SWAP2 PUSH1 0x1 SWAP1 SWAP2 ADD SWAP1 PUSH2 0x189E JUMP JUMPDEST JUMPDEST DUP1 DUP3 GT ISZERO PUSH2 0x185C JUMPI PUSH1 0x0 DUP2 SSTORE PUSH1 0x1 ADD PUSH2 0x18D4 JUMP JUMPDEST PUSH1 0x0 DUP3 PUSH1 0x1F DUP4 ADD SLT PUSH2 0x18F9 JUMPI PUSH1 0x0 DUP1 REVERT JUMPDEST DUP2 CALLDATALOAD PUSH1 0x20 PUSH2 0x190E PUSH2 0x1909 DUP4 PUSH2 0x1E23 JUMP JUMPDEST PUSH2 0x1DF3 JUMP JUMPDEST DUP1 DUP4 DUP3 MSTORE DUP3 DUP3 ADD SWAP2 POP DUP3 DUP7 ADD DUP8 DUP5 DUP7 PUSH1 0x5 SHL DUP10 ADD ADD GT ISZERO PUSH2 0x192E JUMPI PUSH1 0x0 DUP1 REVERT JUMPDEST PUSH1 0x0 JUMPDEST DUP6 DUP2 LT ISZERO PUSH2 0x194D JUMPI DUP2 CALLDATALOAD DUP5 MSTORE SWAP3 DUP5 ADD SWAP3 SWAP1 DUP5 ADD SWAP1 PUSH1 0x1 ADD PUSH2 0x1931 JUMP JUMPDEST POP SWAP1 SWAP8 SWAP7 POP POP POP POP POP POP POP JUMP JUMPDEST PUSH1 0x0 DUP3 PUSH1 0x1F DUP4 ADD SLT PUSH2 0x196B JUMPI PUSH1 0x0 DUP1 REVERT JUMPDEST DUP2 CALLDATALOAD PUSH1 0x1 PUSH1 0x1 PUSH1 0x40 SHL SUB DUP2 GT ISZERO PUSH2 0x1984 JUMPI PUSH2 0x1984 PUSH2 0x2052 JUMP JUMPDEST PUSH2 0x1997 PUSH1 0x1F DUP3 ADD PUSH1 0x1F NOT AND PUSH1 0x20 ADD PUSH2 0x1DF3 JUMP JUMPDEST DUP2 DUP2 MSTORE DUP5 PUSH1 0x20 DUP4 DUP7 ADD ADD GT ISZERO PUSH2 0x19AC JUMPI PUSH1 0x0 DUP1 REVERT JUMPDEST DUP2 PUSH1 0x20 DUP6 ADD PUSH1 0x20 DUP4 ADD CALLDATACOPY PUSH1 0x0 SWAP2 DUP2 ADD PUSH1 0x20 ADD SWAP2 SWAP1 SWAP2 MSTORE SWAP4 SWAP3 POP POP POP JUMP JUMPDEST DUP1 CALLDATALOAD PUSH1 0xFF DUP2 AND DUP2 EQ PUSH2 0x19DA JUMPI PUSH1 0x0 DUP1 REVERT JUMPDEST SWAP2 SWAP1 POP JUMP JUMPDEST PUSH1 0x0 PUSH1 0x20 DUP3 DUP5 SUB SLT ISZERO PUSH2 0x19F1 JUMPI PUSH1 0x0 DUP1 REVERT JUMPDEST DUP2 CALLDATALOAD PUSH2 0xFC4 DUP2 PUSH2 0x2068 JUMP JUMPDEST PUSH1 0x0 DUP1 PUSH1 0x0 DUP1 PUSH1 0x0 DUP1 PUSH1 0x0 PUSH1 0xE0 DUP9 DUP11 SUB SLT ISZERO PUSH2 0x1A17 JUMPI PUSH1 0x0 DUP1 REVERT JUMPDEST DUP8 CALLDATALOAD PUSH2 0x1A22 DUP2 PUSH2 0x2068 JUMP JUMPDEST SWAP7 POP PUSH1 0x20 DUP9 DUP2 ADD CALLDATALOAD SWAP7 POP PUSH1 0x40 DUP10 ADD CALLDATALOAD SWAP6 POP PUSH1 0x60 DUP10 ADD CALLDATALOAD SWAP5 POP PUSH1 0x80 DUP10 ADD CALLDATALOAD PUSH1 0x1 PUSH1 0x1 PUSH1 0x40 SHL SUB DUP1 DUP3 GT ISZERO PUSH2 0x1A54 JUMPI PUSH1 0x0 DUP1 REVERT JUMPDEST DUP2 DUP12 ADD SWAP2 POP DUP12 PUSH1 0x1F DUP4 ADD SLT PUSH2 0x1A68 JUMPI PUSH1 0x0 DUP1 REVERT JUMPDEST DUP2 CALLDATALOAD PUSH2 0x1A76 PUSH2 0x1909 DUP3 PUSH2 0x1E23 JUMP JUMPDEST DUP1 DUP3 DUP3 MSTORE DUP6 DUP3 ADD SWAP2 POP DUP6 DUP6 ADD DUP16 DUP8 DUP6 PUSH1 0x5 SHL DUP9 ADD ADD GT ISZERO PUSH2 0x1A96 JUMPI PUSH1 0x0 DUP1 REVERT JUMPDEST PUSH1 0x0 SWAP6 POP JUMPDEST DUP4 DUP7 LT ISZERO PUSH2 0x1AC0 JUMPI PUSH2 0x1AAC DUP2 PUSH2 0x19C9 JUMP JUMPDEST DUP4 MSTORE PUSH1 0x1 SWAP6 SWAP1 SWAP6 ADD SWAP5 SWAP2 DUP7 ADD SWAP2 DUP7 ADD PUSH2 0x1A9B JUMP JUMPDEST POP SWAP8 POP POP POP PUSH1 0xA0 DUP12 ADD CALLDATALOAD SWAP3 POP DUP1 DUP4 GT ISZERO PUSH2 0x1AD9 JUMPI PUSH1 0x0 DUP1 REVERT JUMPDEST PUSH2 0x1AE5 DUP13 DUP5 DUP14 ADD PUSH2 0x18E8 JUMP JUMPDEST SWAP5 POP PUSH1 0xC0 DUP12 ADD CALLDATALOAD SWAP3 POP DUP1 DUP4 GT ISZERO PUSH2 0x1AFB JUMPI PUSH1 0x0 DUP1 REVERT JUMPDEST POP POP PUSH2 0x1B09 DUP11 DUP3 DUP12 ADD PUSH2 0x18E8 JUMP JUMPDEST SWAP2 POP POP SWAP3 SWAP6 SWAP9 SWAP2 SWAP5 SWAP8 POP SWAP3 SWAP6 POP JUMP JUMPDEST PUSH1 0x0 DUP1 PUSH1 0x40 DUP4 DUP6 SUB SLT ISZERO PUSH2 0x1B2B JUMPI PUSH1 0x0 DUP1 REVERT JUMPDEST DUP3 CALLDATALOAD PUSH2 0x1B36 DUP2 PUSH2 0x2068 JUMP JUMPDEST SWAP2 POP PUSH1 0x20 DUP4 ADD CALLDATALOAD PUSH2 0x1B46 DUP2 PUSH2 0x2068 JUMP JUMPDEST DUP1 SWAP2 POP POP SWAP3 POP SWAP3 SWAP1 POP JUMP JUMPDEST PUSH1 0x0 DUP1 PUSH1 0x0 PUSH1 0x60 DUP5 DUP7 SUB SLT ISZERO PUSH2 0x1B66 JUMPI PUSH1 0x0 DUP1 REVERT JUMPDEST DUP4 CALLDATALOAD PUSH2 0x1B71 DUP2 PUSH2 0x2068 JUMP JUMPDEST SWAP3 POP PUSH1 0x20 DUP5 ADD CALLDATALOAD PUSH2 0x1B81 DUP2 PUSH2 0x2068 JUMP JUMPDEST SWAP3 SWAP6 SWAP3 SWAP5 POP POP POP PUSH1 0x40 SWAP2 SWAP1 SWAP2 ADD CALLDATALOAD SWAP1 JUMP JUMPDEST PUSH1 0x0 DUP1 PUSH1 0x40 DUP4 DUP6 SUB SLT ISZERO PUSH2 0x1BA5 JUMPI PUSH1 0x0 DUP1 REVERT JUMPDEST DUP3 CALLDATALOAD PUSH2 0x1BB0 DUP2 PUSH2 0x2068 JUMP JUMPDEST SWAP5 PUSH1 0x20 SWAP4 SWAP1 SWAP4 ADD CALLDATALOAD SWAP4 POP POP POP JUMP JUMPDEST PUSH1 0x0 PUSH1 0x20 DUP1 DUP4 DUP6 SUB SLT ISZERO PUSH2 0x1BD1 JUMPI PUSH1 0x0 DUP1 REVERT JUMPDEST DUP3 CALLDATALOAD PUSH1 0x1 PUSH1 0x1 PUSH1 0x40 SHL SUB DUP2 GT ISZERO PUSH2 0x1BE7 JUMPI PUSH1 0x0 DUP1 REVERT JUMPDEST DUP4 ADD PUSH1 0x1F DUP2 ADD DUP6 SGT PUSH2 0x1BF8 JUMPI PUSH1 0x0 DUP1 REVERT JUMPDEST DUP1 CALLDATALOAD PUSH2 0x1C06 PUSH2 0x1909 DUP3 PUSH2 0x1E23 JUMP JUMPDEST DUP1 DUP3 DUP3 MSTORE DUP5 DUP3 ADD SWAP2 POP DUP5 DUP5 ADD DUP9 DUP7 DUP6 PUSH1 0x5 SHL DUP8 ADD ADD GT ISZERO PUSH2 0x1C26 JUMPI PUSH1 0x0 DUP1 REVERT JUMPDEST PUSH1 0x0 SWAP5 POP JUMPDEST DUP4 DUP6 LT ISZERO PUSH2 0x1C52 JUMPI DUP1 CALLDATALOAD PUSH2 0x1C3E DUP2 PUSH2 0x2068 JUMP JUMPDEST DUP4 MSTORE PUSH1 0x1 SWAP5 SWAP1 SWAP5 ADD SWAP4 SWAP2 DUP6 ADD SWAP2 DUP6 ADD PUSH2 0x1C2B JUMP JUMPDEST POP SWAP8 SWAP7 POP POP POP POP POP POP POP JUMP JUMPDEST PUSH1 0x0 DUP1 PUSH1 0x0 DUP1 PUSH1 0x0 DUP1 PUSH1 0xC0 DUP8 DUP10 SUB SLT ISZERO PUSH2 0x1C77 JUMPI PUSH1 0x0 DUP1 REVERT JUMPDEST DUP7 CALLDATALOAD PUSH1 0x1 PUSH1 0x1 PUSH1 0x40 SHL SUB DUP1 DUP3 GT ISZERO PUSH2 0x1C8E JUMPI PUSH1 0x0 DUP1 REVERT JUMPDEST PUSH2 0x1C9A DUP11 DUP4 DUP12 ADD PUSH2 0x195A JUMP JUMPDEST SWAP8 POP PUSH1 0x20 DUP10 ADD CALLDATALOAD SWAP2 POP DUP1 DUP3 GT ISZERO PUSH2 0x1CB0 JUMPI PUSH1 0x0 DUP1 REVERT JUMPDEST POP PUSH2 0x1CBD DUP10 DUP3 DUP11 ADD PUSH2 0x195A JUMP JUMPDEST SWAP6 POP POP PUSH2 0x1CCC PUSH1 0x40 DUP9 ADD PUSH2 0x19C9 JUMP JUMPDEST SWAP4 POP PUSH1 0x60 DUP8 ADD CALLDATALOAD SWAP3 POP PUSH1 0x80 DUP8 ADD CALLDATALOAD SWAP2 POP PUSH1 0xA0 DUP8 ADD CALLDATALOAD SWAP1 POP SWAP3 SWAP6 POP SWAP3 SWAP6 POP SWAP3 SWAP6 JUMP JUMPDEST PUSH1 0x0 PUSH1 0x20 DUP3 DUP5 SUB SLT ISZERO PUSH2 0x1CFF JUMPI PUSH1 0x0 DUP1 REVERT JUMPDEST POP CALLDATALOAD SWAP2 SWAP1 POP JUMP JUMPDEST PUSH1 0x20 DUP1 DUP3 MSTORE DUP3 MLOAD DUP3 DUP3 ADD DUP2 SWAP1 MSTORE PUSH1 0x0 SWAP2 SWAP1 DUP5 DUP3 ADD SWAP1 PUSH1 0x40 DUP6 ADD SWAP1 DUP5 JUMPDEST DUP2 DUP2 LT ISZERO PUSH2 0x1D47 JUMPI DUP4 MLOAD PUSH1 0x1 PUSH1 0x1 PUSH1 0xA0 SHL SUB AND DUP4 MSTORE SWAP3 DUP5 ADD SWAP3 SWAP2 DUP5 ADD SWAP2 PUSH1 0x1 ADD PUSH2 0x1D22 JUMP JUMPDEST POP SWAP1 SWAP7 SWAP6 POP POP POP POP POP POP JUMP JUMPDEST PUSH1 0x0 PUSH1 0x20 DUP1 DUP4 MSTORE DUP4 MLOAD DUP1 DUP3 DUP6 ADD MSTORE PUSH1 0x0 JUMPDEST DUP2 DUP2 LT ISZERO PUSH2 0x1D80 JUMPI DUP6 DUP2 ADD DUP4 ADD MLOAD DUP6 DUP3 ADD PUSH1 0x40 ADD MSTORE DUP3 ADD PUSH2 0x1D64 JUMP JUMPDEST DUP2 DUP2 GT ISZERO PUSH2 0x1D92 JUMPI PUSH1 0x0 PUSH1 0x40 DUP4 DUP8 ADD ADD MSTORE JUMPDEST POP PUSH1 0x1F ADD PUSH1 0x1F NOT AND SWAP3 SWAP1 SWAP3 ADD PUSH1 0x40 ADD SWAP4 SWAP3 POP POP POP JUMP JUMPDEST PUSH1 0x20 DUP1 DUP3 MSTORE PUSH1 0x2B SWAP1 DUP3 ADD MSTORE PUSH32 0x496E697469616C697A61626C653A20636F6E7472616374206973206E6F742069 PUSH1 0x40 DUP3 ADD MSTORE PUSH11 0x6E697469616C697A696E67 PUSH1 0xA8 SHL PUSH1 0x60 DUP3 ADD MSTORE PUSH1 0x80 ADD SWAP1 JUMP JUMPDEST PUSH1 0x40 MLOAD PUSH1 0x1F DUP3 ADD PUSH1 0x1F NOT AND DUP2 ADD PUSH1 0x1 PUSH1 0x1 PUSH1 0x40 SHL SUB DUP2 GT DUP3 DUP3 LT OR ISZERO PUSH2 0x1E1B JUMPI PUSH2 0x1E1B PUSH2 0x2052 JUMP JUMPDEST PUSH1 0x40 MSTORE SWAP2 SWAP1 POP JUMP JUMPDEST PUSH1 0x0 PUSH1 0x1 PUSH1 0x1 PUSH1 0x40 SHL SUB DUP3 GT ISZERO PUSH2 0x1E3C JUMPI PUSH2 0x1E3C PUSH2 0x2052 JUMP JUMPDEST POP PUSH1 0x5 SHL PUSH1 0x20 ADD SWAP1 JUMP JUMPDEST PUSH1 0x0 DUP3 NOT DUP3 GT ISZERO PUSH2 0x1E59 JUMPI PUSH2 0x1E59 PUSH2 0x2026 JUMP JUMPDEST POP ADD SWAP1 JUMP JUMPDEST PUSH1 0x0 DUP3 PUSH2 0x1E7B JUMPI PUSH4 0x4E487B71 PUSH1 0xE0 SHL PUSH1 0x0 MSTORE PUSH1 0x12 PUSH1 0x4 MSTORE PUSH1 0x24 PUSH1 0x0 REVERT JUMPDEST POP DIV SWAP1 JUMP JUMPDEST PUSH1 0x1 DUP2 DUP2 JUMPDEST DUP1 DUP6 GT ISZERO PUSH2 0x1EBB JUMPI DUP2 PUSH1 0x0 NOT DIV DUP3 GT ISZERO PUSH2 0x1EA1 JUMPI PUSH2 0x1EA1 PUSH2 0x2026 JUMP JUMPDEST DUP1 DUP6 AND ISZERO PUSH2 0x1EAE JUMPI SWAP2 DUP2 MUL SWAP2 JUMPDEST SWAP4 DUP5 SHR SWAP4 SWAP1 DUP1 MUL SWAP1 PUSH2 0x1E85 JUMP JUMPDEST POP SWAP3 POP SWAP3 SWAP1 POP JUMP JUMPDEST PUSH1 0x0 PUSH2 0xFC4 PUSH1 0xFF DUP5 AND DUP4 PUSH1 0x0 DUP3 PUSH2 0x1EDC JUMPI POP PUSH1 0x1 PUSH2 0x630 JUMP JUMPDEST DUP2 PUSH2 0x1EE9 JUMPI POP PUSH1 0x0 PUSH2 0x630 JUMP JUMPDEST DUP2 PUSH1 0x1 DUP2 EQ PUSH2 0x1EFF JUMPI PUSH1 0x2 DUP2 EQ PUSH2 0x1F09 JUMPI PUSH2 0x1F25 JUMP JUMPDEST PUSH1 0x1 SWAP2 POP POP PUSH2 0x630 JUMP JUMPDEST PUSH1 0xFF DUP5 GT ISZERO PUSH2 0x1F1A JUMPI PUSH2 0x1F1A PUSH2 0x2026 JUMP JUMPDEST POP POP PUSH1 0x1 DUP3 SHL PUSH2 0x630 JUMP JUMPDEST POP PUSH1 0x20 DUP4 LT PUSH2 0x133 DUP4 LT AND PUSH1 0x4E DUP5 LT PUSH1 0xB DUP5 LT AND OR ISZERO PUSH2 0x1F48 JUMPI POP DUP2 DUP2 EXP PUSH2 0x630 JUMP JUMPDEST PUSH2 0x1F52 DUP4 DUP4 PUSH2 0x1E80 JUMP JUMPDEST DUP1 PUSH1 0x0 NOT DIV DUP3 GT ISZERO PUSH2 0x1F66 JUMPI PUSH2 0x1F66 PUSH2 0x2026 JUMP JUMPDEST MUL SWAP4 SWAP3 POP POP POP JUMP JUMPDEST PUSH1 0x0 DUP2 PUSH1 0x0 NOT DIV DUP4 GT DUP3 ISZERO ISZERO AND ISZERO PUSH2 0x1F88 JUMPI PUSH2 0x1F88 PUSH2 0x2026 JUMP JUMPDEST POP MUL SWAP1 JUMP JUMPDEST PUSH1 0x0 DUP3 DUP3 LT ISZERO PUSH2 0x1F9F JUMPI PUSH2 0x1F9F PUSH2 0x2026 JUMP JUMPDEST POP SUB SWAP1 JUMP JUMPDEST PUSH1 0x1 DUP2 DUP2 SHR SWAP1 DUP3 AND DUP1 PUSH2 0x1FB8 JUMPI PUSH1 0x7F DUP3 AND SWAP2 POP JUMPDEST PUSH1 0x20 DUP3 LT DUP2 EQ ISZERO PUSH2 0x1FD9 JUMPI PUSH4 0x4E487B71 PUSH1 0xE0 SHL PUSH1 0x0 MSTORE PUSH1 0x22 PUSH1 0x4 MSTORE PUSH1 0x24 PUSH1 0x0 REVERT JUMPDEST POP SWAP2 SWAP1 POP JUMP JUMPDEST PUSH1 0x0 PUSH1 0x1 PUSH1 0x1 PUSH1 0x40 SHL SUB DUP1 DUP4 AND DUP2 DUP2 EQ ISZERO PUSH2 0x1FFC JUMPI PUSH2 0x1FFC PUSH2 0x2026 JUMP JUMPDEST PUSH1 0x1 ADD SWAP4 SWAP3 POP POP POP JUMP JUMPDEST PUSH1 0x0 PUSH1 0xFF DUP3 AND PUSH1 0xFF DUP2 EQ ISZERO PUSH2 0x201D JUMPI PUSH2 0x201D PUSH2 0x2026 JUMP JUMPDEST PUSH1 0x1 ADD SWAP3 SWAP2 POP POP JUMP JUMPDEST PUSH4 0x4E487B71 PUSH1 0xE0 SHL PUSH1 0x0 MSTORE PUSH1 0x11 PUSH1 0x4 MSTORE PUSH1 0x24 PUSH1 0x0 REVERT JUMPDEST PUSH4 0x4E487B71 PUSH1 0xE0 SHL PUSH1 0x0 MSTORE PUSH1 0x32 PUSH1 0x4 MSTORE PUSH1 0x24 PUSH1 0x0 REVERT JUMPDEST PUSH4 0x4E487B71 PUSH1 0xE0 SHL PUSH1 0x0 MSTORE PUSH1 0x41 PUSH1 0x4 MSTORE PUSH1 0x24 PUSH1 0x0 REVERT JUMPDEST PUSH1 0x1 PUSH1 0x1 PUSH1 0xA0 SHL SUB DUP2 AND DUP2 EQ PUSH2 0x941 JUMPI PUSH1 0x0 DUP1 REVERT INVALID LOG2 PUSH5 0x6970667358 0x22 SLT KECCAK256 0xD6 0xCD PUSH13 0x2F9A26D0B4E5F8BA27517C11BB 0xC6 PUSH3 0xEC2E24 SWAP2 ISZERO DUP7 ADDRESS DUP15 ISZERO 0xA9 SLT 0xA6 0x1F SWAP6 PUSH5 0x736F6C6343 STOP ADDMOD SMOD STOP CALLER "
				},
				"gasEstimates": {
					"creation": {
						"codeDepositCost": "1674200",
						"executionCost": "1757",
						"totalCost": "1675957"
					},
					"external": {
						"_mapSigners(address)": "2570",
						"allowance(address,address)": "infinite",
						"approve(address,uint256)": "24691",
						"balanceOf(address)": "2620",
						"cap()": "2360",
						"decimals()": "2335",
						"decreaseAllowance(address,uint256)": "26990",
						"getRewardAmt()": "2381",
						"getTaxFee()": "2380",
						"increaseAllowance(address,uint256)": "27067",
						"initialize(string,string,uint8,uint256,uint256,uint256)": "infinite",
						"mapSigner(address)": "2612",
						"name()": "infinite",
						"owner()": "2347",
						"permitMint(address,uint256,uint256,uint256,uint8[],bytes32[],bytes32[])": "infinite",
						"renounceOwnership()": "infinite",
						"setRewardAmtInWei(uint256)": "24599",
						"setSigners(address[])": "infinite",
						"setTaxFee(uint256)": "24533",
						"signers()": "infinite",
						"symbol()": "infinite",
						"totalBurned()": "2362",
						"totalSupply()": "2327",
						"transfer(address,uint256)": "infinite",
						"transferFrom(address,address,uint256)": "infinite",
						"transferOwnership(address)": "infinite",
						"uniqueIdExists(uint256)": "2560",
						"userTotalBurned(address)": "2581"
					},
					"internal": {
						"_burnAndUpdate(address,uint256)": "infinite",
						"_calculateBurnAmt(uint256)": "2288",
						"_updateMap(address[] memory,bool,mapping(address => bool))": "infinite"
					}
				},
				"methodIdentifiers": {
					"_mapSigners(address)": "3de47e32",
					"allowance(address,address)": "dd62ed3e",
					"approve(address,uint256)": "095ea7b3",
					"balanceOf(address)": "70a08231",
					"cap()": "355274ea",
					"decimals()": "313ce567",
					"decreaseAllowance(address,uint256)": "a457c2d7",
					"getRewardAmt()": "ac7fa3c6",
					"getTaxFee()": "f66608fe",
					"increaseAllowance(address,uint256)": "39509351",
					"initialize(string,string,uint8,uint256,uint256,uint256)": "2b9a1d3c",
					"mapSigner(address)": "07c351dd",
					"name()": "06fdde03",
					"owner()": "8da5cb5b",
					"permitMint(address,uint256,uint256,uint256,uint8[],bytes32[],bytes32[])": "e4c97e6a",
					"renounceOwnership()": "715018a6",
					"setRewardAmtInWei(uint256)": "b24a0893",
					"setSigners(address[])": "a3772662",
					"setTaxFee(uint256)": "c4081a4c",
					"signers()": "46f0975a",
					"symbol()": "95d89b41",
					"totalBurned()": "d89135cd",
					"totalSupply()": "18160ddd",
					"transfer(address,uint256)": "a9059cbb",
					"transferFrom(address,address,uint256)": "23b872dd",
					"transferOwnership(address)": "f2fde38b",
					"uniqueIdExists(uint256)": "f9342285",
					"userTotalBurned(address)": "1e0d4ce9"
				}
			},
			"storageLayout": {
				"storage": [
					{
						"astId": 138,
						"contract": "contracts/DeAnt3Token.sol:DeAnt3Token",
						"label": "_initialized",
						"offset": 0,
						"slot": "0",
						"type": "t_uint8"
					},
					{
						"astId": 141,
						"contract": "contracts/DeAnt3Token.sol:DeAnt3Token",
						"label": "_initializing",
						"offset": 1,
						"slot": "0",
						"type": "t_bool"
					},
					{
						"astId": 1367,
						"contract": "contracts/DeAnt3Token.sol:DeAnt3Token",
						"label": "__gap",
						"offset": 0,
						"slot": "1",
						"type": "t_array(t_uint256)50_storage"
					},
					{
						"astId": 301,
						"contract": "contracts/DeAnt3Token.sol:DeAnt3Token",
						"label": "_balances",
						"offset": 0,
						"slot": "51",
						"type": "t_mapping(t_address,t_uint256)"
					},
					{
						"astId": 307,
						"contract": "contracts/DeAnt3Token.sol:DeAnt3Token",
						"label": "_allowances",
						"offset": 0,
						"slot": "52",
						"type": "t_mapping(t_address,t_mapping(t_address,t_uint256))"
					},
					{
						"astId": 309,
						"contract": "contracts/DeAnt3Token.sol:DeAnt3Token",
						"label": "_totalSupply",
						"offset": 0,
						"slot": "53",
						"type": "t_uint256"
					},
					{
						"astId": 311,
						"contract": "contracts/DeAnt3Token.sol:DeAnt3Token",
						"label": "_name",
						"offset": 0,
						"slot": "54",
						"type": "t_string_storage"
					},
					{
						"astId": 313,
						"contract": "contracts/DeAnt3Token.sol:DeAnt3Token",
						"label": "_symbol",
						"offset": 0,
						"slot": "55",
						"type": "t_string_storage"
					},
					{
						"astId": 892,
						"contract": "contracts/DeAnt3Token.sol:DeAnt3Token",
						"label": "__gap",
						"offset": 0,
						"slot": "56",
						"type": "t_array(t_uint256)45_storage"
					},
					{
						"astId": 982,
						"contract": "contracts/DeAnt3Token.sol:DeAnt3Token",
						"label": "_cap",
						"offset": 0,
						"slot": "101",
						"type": "t_uint256"
					},
					{
						"astId": 1057,
						"contract": "contracts/DeAnt3Token.sol:DeAnt3Token",
						"label": "__gap",
						"offset": 0,
						"slot": "102",
						"type": "t_array(t_uint256)50_storage"
					},
					{
						"astId": 10,
						"contract": "contracts/DeAnt3Token.sol:DeAnt3Token",
						"label": "_owner",
						"offset": 0,
						"slot": "152",
						"type": "t_address"
					},
					{
						"astId": 130,
						"contract": "contracts/DeAnt3Token.sol:DeAnt3Token",
						"label": "__gap",
						"offset": 0,
						"slot": "153",
						"type": "t_array(t_uint256)49_storage"
					},
					{
						"astId": 1378,
						"contract": "contracts/DeAnt3Token.sol:DeAnt3Token",
						"label": "_name",
						"offset": 0,
						"slot": "202",
						"type": "t_string_storage"
					},
					{
						"astId": 1380,
						"contract": "contracts/DeAnt3Token.sol:DeAnt3Token",
						"label": "_symbol",
						"offset": 0,
						"slot": "203",
						"type": "t_string_storage"
					},
					{
						"astId": 1382,
						"contract": "contracts/DeAnt3Token.sol:DeAnt3Token",
						"label": "_decimals",
						"offset": 0,
						"slot": "204",
						"type": "t_uint8"
					},
					{
						"astId": 1384,
						"contract": "contracts/DeAnt3Token.sol:DeAnt3Token",
						"label": "_rewardAmt",
						"offset": 0,
						"slot": "205",
						"type": "t_uint256"
					},
					{
						"astId": 1386,
						"contract": "contracts/DeAnt3Token.sol:DeAnt3Token",
						"label": "_cap",
						"offset": 0,
						"slot": "206",
						"type": "t_uint256"
					},
					{
						"astId": 1388,
						"contract": "contracts/DeAnt3Token.sol:DeAnt3Token",
						"label": "_taxFee",
						"offset": 0,
						"slot": "207",
						"type": "t_uint256"
					},
					{
						"astId": 1390,
						"contract": "contracts/DeAnt3Token.sol:DeAnt3Token",
						"label": "totalBurned",
						"offset": 0,
						"slot": "208",
						"type": "t_uint256"
					},
					{
						"astId": 1393,
						"contract": "contracts/DeAnt3Token.sol:DeAnt3Token",
						"label": "_signers",
						"offset": 0,
						"slot": "209",
						"type": "t_array(t_address)dyn_storage"
					},
					{
						"astId": 1397,
						"contract": "contracts/DeAnt3Token.sol:DeAnt3Token",
						"label": "_mapSigners",
						"offset": 0,
						"slot": "210",
						"type": "t_mapping(t_address,t_bool)"
					},
					{
						"astId": 1401,
						"contract": "contracts/DeAnt3Token.sol:DeAnt3Token",
						"label": "uniqueIdExists",
						"offset": 0,
						"slot": "211",
						"type": "t_mapping(t_uint256,t_bool)"
					},
					{
						"astId": 1405,
						"contract": "contracts/DeAnt3Token.sol:DeAnt3Token",
						"label": "userTotalBurned",
						"offset": 0,
						"slot": "212",
						"type": "t_mapping(t_address,t_uint256)"
					}
				],
				"types": {
					"t_address": {
						"encoding": "inplace",
						"label": "address",
						"numberOfBytes": "20"
					},
					"t_array(t_address)dyn_storage": {
						"base": "t_address",
						"encoding": "dynamic_array",
						"label": "address[]",
						"numberOfBytes": "32"
					},
					"t_array(t_uint256)45_storage": {
						"base": "t_uint256",
						"encoding": "inplace",
						"label": "uint256[45]",
						"numberOfBytes": "1440"
					},
					"t_array(t_uint256)49_storage": {
						"base": "t_uint256",
						"encoding": "inplace",
						"label": "uint256[49]",
						"numberOfBytes": "1568"
					},
					"t_array(t_uint256)50_storage": {
						"base": "t_uint256",
						"encoding": "inplace",
						"label": "uint256[50]",
						"numberOfBytes": "1600"
					},
					"t_bool": {
						"encoding": "inplace",
						"label": "bool",
						"numberOfBytes": "1"
					},
					"t_mapping(t_address,t_bool)": {
						"encoding": "mapping",
						"key": "t_address",
						"label": "mapping(address => bool)",
						"numberOfBytes": "32",
						"value": "t_bool"
					},
					"t_mapping(t_address,t_mapping(t_address,t_uint256))": {
						"encoding": "mapping",
						"key": "t_address",
						"label": "mapping(address => mapping(address => uint256))",
						"numberOfBytes": "32",
						"value": "t_mapping(t_address,t_uint256)"
					},
					"t_mapping(t_address,t_uint256)": {
						"encoding": "mapping",
						"key": "t_address",
						"label": "mapping(address => uint256)",
						"numberOfBytes": "32",
						"value": "t_uint256"
					},
					"t_mapping(t_uint256,t_bool)": {
						"encoding": "mapping",
						"key": "t_uint256",
						"label": "mapping(uint256 => bool)",
						"numberOfBytes": "32",
						"value": "t_bool"
					},
					"t_string_storage": {
						"encoding": "bytes",
						"label": "string",
						"numberOfBytes": "32"
					},
					"t_uint256": {
						"encoding": "inplace",
						"label": "uint256",
						"numberOfBytes": "32"
					},
					"t_uint8": {
						"encoding": "inplace",
						"label": "uint8",
						"numberOfBytes": "1"
					}
				}
			},
			"userdoc": {
				"kind": "user",
				"methods": {},
				"version": 1
			}
		}
	}
}