{
	"contracts/Take3Token.sol": {
		"Take3Token": {
			"abi": [
				{
					"anonymous": false,
					"inputs": [
						{
							"indexed": true,
							"internalType": "address",
							"name": "owner",
							"type": "address"
						},
						{
							"indexed": true,
							"internalType": "address",
							"name": "spender",
							"type": "address"
						},
						{
							"indexed": false,
							"internalType": "uint256",
							"name": "value",
							"type": "uint256"
						}
					],
					"name": "Approval",
					"type": "event"
				},
				{
					"anonymous": false,
					"inputs": [
						{
							"indexed": false,
							"internalType": "uint8",
							"name": "version",
							"type": "uint8"
						}
					],
					"name": "Initialized",
					"type": "event"
				},
				{
					"anonymous": false,
					"inputs": [
						{
							"indexed": true,
							"internalType": "address",
							"name": "previousOwner",
							"type": "address"
						},
						{
							"indexed": true,
							"internalType": "address",
							"name": "newOwner",
							"type": "address"
						}
					],
					"name": "OwnershipTransferred",
					"type": "event"
				},
				{
					"anonymous": false,
					"inputs": [
						{
							"indexed": true,
							"internalType": "address",
							"name": "from",
							"type": "address"
						},
						{
							"indexed": true,
							"internalType": "address",
							"name": "to",
							"type": "address"
						},
						{
							"indexed": false,
							"internalType": "uint256",
							"name": "value",
							"type": "uint256"
						}
					],
					"name": "Transfer",
					"type": "event"
				},
				{
					"inputs": [],
					"name": "_maxTxAmount",
					"outputs": [
						{
							"internalType": "uint256",
							"name": "",
							"type": "uint256"
						}
					],
					"stateMutability": "view",
					"type": "function"
				},
				{
					"inputs": [
						{
							"internalType": "address",
							"name": "recipient",
							"type": "address"
						},
						{
							"internalType": "uint256",
							"name": "uniqueId",
							"type": "uint256"
						},
						{
							"internalType": "uint256",
							"name": "amount",
							"type": "uint256"
						},
						{
							"internalType": "uint256",
							"name": "deadline",
							"type": "uint256"
						},
						{
							"internalType": "uint8[]",
							"name": "v",
							"type": "uint8[]"
						},
						{
							"internalType": "bytes32[]",
							"name": "r",
							"type": "bytes32[]"
						},
						{
							"internalType": "bytes32[]",
							"name": "s",
							"type": "bytes32[]"
						}
					],
					"name": "_permitTransfer",
					"outputs": [],
					"stateMutability": "nonpayable",
					"type": "function"
				},
				{
					"inputs": [],
					"name": "_taxFee",
					"outputs": [
						{
							"internalType": "uint256",
							"name": "",
							"type": "uint256"
						}
					],
					"stateMutability": "view",
					"type": "function"
				},
				{
					"inputs": [
						{
							"internalType": "address",
							"name": "owner",
							"type": "address"
						},
						{
							"internalType": "address",
							"name": "spender",
							"type": "address"
						}
					],
					"name": "allowance",
					"outputs": [
						{
							"internalType": "uint256",
							"name": "",
							"type": "uint256"
						}
					],
					"stateMutability": "view",
					"type": "function"
				},
				{
					"inputs": [
						{
							"internalType": "address",
							"name": "spender",
							"type": "address"
						},
						{
							"internalType": "uint256",
							"name": "amount",
							"type": "uint256"
						}
					],
					"name": "approve",
					"outputs": [
						{
							"internalType": "bool",
							"name": "",
							"type": "bool"
						}
					],
					"stateMutability": "nonpayable",
					"type": "function"
				},
				{
					"inputs": [
						{
							"internalType": "address",
							"name": "account",
							"type": "address"
						}
					],
					"name": "balanceOf",
					"outputs": [
						{
							"internalType": "uint256",
							"name": "",
							"type": "uint256"
						}
					],
					"stateMutability": "view",
					"type": "function"
				},
				{
					"inputs": [],
					"name": "claimTokens",
					"outputs": [],
					"stateMutability": "nonpayable",
					"type": "function"
				},
				{
					"inputs": [],
					"name": "decimals",
					"outputs": [
						{
							"internalType": "uint256",
							"name": "",
							"type": "uint256"
						}
					],
					"stateMutability": "view",
					"type": "function"
				},
				{
					"inputs": [
						{
							"internalType": "address",
							"name": "spender",
							"type": "address"
						},
						{
							"internalType": "uint256",
							"name": "subtractedValue",
							"type": "uint256"
						}
					],
					"name": "decreaseAllowance",
					"outputs": [
						{
							"internalType": "bool",
							"name": "",
							"type": "bool"
						}
					],
					"stateMutability": "nonpayable",
					"type": "function"
				},
				{
					"inputs": [
						{
							"internalType": "uint256",
							"name": "tAmount",
							"type": "uint256"
						}
					],
					"name": "deliver",
					"outputs": [],
					"stateMutability": "nonpayable",
					"type": "function"
				},
				{
					"inputs": [
						{
							"internalType": "address",
							"name": "account",
							"type": "address"
						}
					],
					"name": "excludeFromFee",
					"outputs": [],
					"stateMutability": "nonpayable",
					"type": "function"
				},
				{
					"inputs": [
						{
							"internalType": "address",
							"name": "account",
							"type": "address"
						}
					],
					"name": "excludeFromReward",
					"outputs": [],
					"stateMutability": "nonpayable",
					"type": "function"
				},
				{
					"inputs": [
						{
							"internalType": "address",
							"name": "account",
							"type": "address"
						}
					],
					"name": "includeInFee",
					"outputs": [],
					"stateMutability": "nonpayable",
					"type": "function"
				},
				{
					"inputs": [
						{
							"internalType": "address",
							"name": "account",
							"type": "address"
						}
					],
					"name": "includeInReward",
					"outputs": [],
					"stateMutability": "nonpayable",
					"type": "function"
				},
				{
					"inputs": [
						{
							"internalType": "address",
							"name": "spender",
							"type": "address"
						},
						{
							"internalType": "uint256",
							"name": "addedValue",
							"type": "uint256"
						}
					],
					"name": "increaseAllowance",
					"outputs": [
						{
							"internalType": "bool",
							"name": "",
							"type": "bool"
						}
					],
					"stateMutability": "nonpayable",
					"type": "function"
				},
				{
					"inputs": [
						{
							"internalType": "string",
							"name": "_NAME",
							"type": "string"
						},
						{
							"internalType": "string",
							"name": "_SYMBOL",
							"type": "string"
						},
						{
							"internalType": "uint256",
							"name": "_DECIMALS",
							"type": "uint256"
						},
						{
							"internalType": "uint256",
							"name": "_supply",
							"type": "uint256"
						},
						{
							"internalType": "uint256",
							"name": "_txFee",
							"type": "uint256"
						},
						{
							"internalType": "uint256",
							"name": "_MAXAMOUNT",
							"type": "uint256"
						},
						{
							"internalType": "address",
							"name": "tokenOwner",
							"type": "address"
						}
					],
					"name": "initialize",
					"outputs": [],
					"stateMutability": "nonpayable",
					"type": "function"
				},
				{
					"inputs": [
						{
							"internalType": "address",
							"name": "account",
							"type": "address"
						}
					],
					"name": "isExcludedFromFee",
					"outputs": [
						{
							"internalType": "bool",
							"name": "",
							"type": "bool"
						}
					],
					"stateMutability": "view",
					"type": "function"
				},
				{
					"inputs": [
						{
							"internalType": "address",
							"name": "account",
							"type": "address"
						}
					],
					"name": "isExcludedFromReward",
					"outputs": [
						{
							"internalType": "bool",
							"name": "",
							"type": "bool"
						}
					],
					"stateMutability": "view",
					"type": "function"
				},
				{
					"inputs": [
						{
							"internalType": "address",
							"name": "signer",
							"type": "address"
						}
					],
					"name": "mapSigner",
					"outputs": [
						{
							"internalType": "bool",
							"name": "",
							"type": "bool"
						}
					],
					"stateMutability": "view",
					"type": "function"
				},
				{
					"inputs": [],
					"name": "name",
					"outputs": [
						{
							"internalType": "string",
							"name": "",
							"type": "string"
						}
					],
					"stateMutability": "view",
					"type": "function"
				},
				{
					"inputs": [],
					"name": "owner",
					"outputs": [
						{
							"internalType": "address",
							"name": "",
							"type": "address"
						}
					],
					"stateMutability": "view",
					"type": "function"
				},
				{
					"inputs": [
						{
							"internalType": "uint256",
							"name": "tAmount",
							"type": "uint256"
						},
						{
							"internalType": "bool",
							"name": "deductTransferFee",
							"type": "bool"
						}
					],
					"name": "reflectionFromToken",
					"outputs": [
						{
							"internalType": "uint256",
							"name": "",
							"type": "uint256"
						}
					],
					"stateMutability": "view",
					"type": "function"
				},
				{
					"inputs": [],
					"name": "renounceOwnership",
					"outputs": [],
					"stateMutability": "nonpayable",
					"type": "function"
				},
				{
					"inputs": [
						{
							"internalType": "uint256",
							"name": "maxTxPercent",
							"type": "uint256"
						}
					],
					"name": "setMaxTxPercent",
					"outputs": [],
					"stateMutability": "nonpayable",
					"type": "function"
				},
				{
					"inputs": [
						{
							"internalType": "address[]",
							"name": "signers_",
							"type": "address[]"
						}
					],
					"name": "setSigners",
					"outputs": [],
					"stateMutability": "nonpayable",
					"type": "function"
				},
				{
					"inputs": [
						{
							"internalType": "uint256",
							"name": "taxFee",
							"type": "uint256"
						}
					],
					"name": "setTaxFeePercent",
					"outputs": [],
					"stateMutability": "nonpayable",
					"type": "function"
				},
				{
					"inputs": [],
					"name": "signers",
					"outputs": [
						{
							"internalType": "address[]",
							"name": "",
							"type": "address[]"
						}
					],
					"stateMutability": "view",
					"type": "function"
				},
				{
					"inputs": [],
					"name": "symbol",
					"outputs": [
						{
							"internalType": "string",
							"name": "",
							"type": "string"
						}
					],
					"stateMutability": "view",
					"type": "function"
				},
				{
					"inputs": [
						{
							"internalType": "uint256",
							"name": "rAmount",
							"type": "uint256"
						}
					],
					"name": "tokenFromReflection",
					"outputs": [
						{
							"internalType": "uint256",
							"name": "",
							"type": "uint256"
						}
					],
					"stateMutability": "view",
					"type": "function"
				},
				{
					"inputs": [],
					"name": "totalFees",
					"outputs": [
						{
							"internalType": "uint256",
							"name": "",
							"type": "uint256"
						}
					],
					"stateMutability": "view",
					"type": "function"
				},
				{
					"inputs": [],
					"name": "totalSupply",
					"outputs": [
						{
							"internalType": "uint256",
							"name": "",
							"type": "uint256"
						}
					],
					"stateMutability": "view",
					"type": "function"
				},
				{
					"inputs": [
						{
							"internalType": "address",
							"name": "recipient",
							"type": "address"
						},
						{
							"internalType": "uint256",
							"name": "amount",
							"type": "uint256"
						}
					],
					"name": "transfer",
					"outputs": [
						{
							"internalType": "bool",
							"name": "",
							"type": "bool"
						}
					],
					"stateMutability": "nonpayable",
					"type": "function"
				},
				{
					"inputs": [
						{
							"internalType": "address",
							"name": "sender",
							"type": "address"
						},
						{
							"internalType": "address",
							"name": "recipient",
							"type": "address"
						},
						{
							"internalType": "uint256",
							"name": "amount",
							"type": "uint256"
						}
					],
					"name": "transferFrom",
					"outputs": [
						{
							"internalType": "bool",
							"name": "",
							"type": "bool"
						}
					],
					"stateMutability": "nonpayable",
					"type": "function"
				},
				{
					"inputs": [
						{
							"internalType": "address",
							"name": "newOwner",
							"type": "address"
						}
					],
					"name": "transferOwnership",
					"outputs": [],
					"stateMutability": "nonpayable",
					"type": "function"
				},
				{
					"inputs": [
						{
							"internalType": "uint256",
							"name": "",
							"type": "uint256"
						}
					],
					"name": "uniqueIdExists",
					"outputs": [
						{
							"internalType": "bool",
							"name": "",
							"type": "bool"
						}
					],
					"stateMutability": "view",
					"type": "function"
				},
				{
					"inputs": [],
					"name": "version",
					"outputs": [
						{
							"internalType": "string",
							"name": "",
							"type": "string"
						}
					],
					"stateMutability": "pure",
					"type": "function"
				},
				{
					"stateMutability": "payable",
					"type": "receive"
				}
			],
			"devdoc": {
				"kind": "dev",
				"methods": {
					"allowance(address,address)": {
						"details": "Returns the remaining number of tokens that `spender` will be allowed to spend on behalf of `owner` through {transferFrom}. This is zero by default. This value changes when {approve} or {transferFrom} are called."
					},
					"approve(address,uint256)": {
						"details": "Sets `amount` as the allowance of `spender` over the caller's tokens. Returns a boolean value indicating whether the operation succeeded. IMPORTANT: Beware that changing an allowance with this method brings the risk that someone may use both the old and the new allowance by unfortunate transaction ordering. One possible solution to mitigate this race condition is to first reduce the spender's allowance to 0 and set the desired value afterwards: https://github.com/ethereum/EIPs/issues/20#issuecomment-263524729 Emits an {Approval} event."
					},
					"balanceOf(address)": {
						"details": "Returns the amount of tokens owned by `account`."
					},
					"owner()": {
						"details": "Returns the address of the current owner."
					},
					"renounceOwnership()": {
						"details": "Leaves the contract without owner. It will not be possible to call `onlyOwner` functions anymore. Can only be called by the current owner. NOTE: Renouncing ownership will leave the contract without an owner, thereby removing any functionality that is only available to the owner."
					},
					"totalSupply()": {
						"details": "Returns the amount of tokens in existence."
					},
					"transferOwnership(address)": {
						"details": "Transfers ownership of the contract to a new account (`newOwner`). Can only be called by the current owner."
					}
				},
				"version": 1
			},
			"evm": {
				"assembly": "    /* \"contracts/Take3Token.sol\":385:21470  contract Take3Token is... */\n  mstore(0x40, 0x80)\n  callvalue\n  dup1\n  iszero\n  tag_1\n  jumpi\n  0x00\n  dup1\n  revert\ntag_1:\n  pop\n  dataSize(sub_0)\n  dup1\n  dataOffset(sub_0)\n  0x00\n  codecopy\n  0x00\n  return\nstop\n\nsub_0: assembly {\n        /* \"contracts/Take3Token.sol\":385:21470  contract Take3Token is... */\n      mstore(0x40, 0x80)\n      jumpi(tag_1, lt(calldatasize, 0x04))\n      shr(0xe0, calldataload(0x00))\n      dup1\n      0x52390c02\n      gt\n      tag_39\n      jumpi\n      dup1\n      0xa3772662\n      gt\n      tag_40\n      jumpi\n      dup1\n      0xd543dbeb\n      gt\n      tag_41\n      jumpi\n      dup1\n      0xd543dbeb\n      eq\n      tag_34\n      jumpi\n      dup1\n      0xdd62ed3e\n      eq\n      tag_35\n      jumpi\n      dup1\n      0xea2f0b37\n      eq\n      tag_36\n      jumpi\n      dup1\n      0xf2fde38b\n      eq\n      tag_37\n      jumpi\n      dup1\n      0xf9342285\n      eq\n      tag_38\n      jumpi\n      0x00\n      dup1\n      revert\n    tag_41:\n      dup1\n      0xa3772662\n      eq\n      tag_30\n      jumpi\n      dup1\n      0xa457c2d7\n      eq\n      tag_31\n      jumpi\n      dup1\n      0xa6e57d99\n      eq\n      tag_32\n      jumpi\n      dup1\n      0xa9059cbb\n      eq\n      tag_33\n      jumpi\n      0x00\n      dup1\n      revert\n    tag_40:\n      dup1\n      0x715018a6\n      gt\n      tag_42\n      jumpi\n      dup1\n      0x715018a6\n      eq\n      tag_25\n      jumpi\n      dup1\n      0x7d1db4a5\n      eq\n      tag_26\n      jumpi\n      dup1\n      0x88f82020\n      eq\n      tag_27\n      jumpi\n      dup1\n      0x8da5cb5b\n      eq\n      tag_28\n      jumpi\n      dup1\n      0x95d89b41\n      eq\n      tag_29\n      jumpi\n      0x00\n      dup1\n      revert\n    tag_42:\n      dup1\n      0x52390c02\n      eq\n      tag_21\n      jumpi\n      dup1\n      0x5342acb4\n      eq\n      tag_22\n      jumpi\n      dup1\n      0x54fd4d50\n      eq\n      tag_23\n      jumpi\n      dup1\n      0x70a08231\n      eq\n      tag_24\n      jumpi\n      0x00\n      dup1\n      revert\n    tag_39:\n      dup1\n      0x3685d419\n      gt\n      tag_43\n      jumpi\n      dup1\n      0x437823ec\n      gt\n      tag_44\n      jumpi\n      dup1\n      0x437823ec\n      eq\n      tag_16\n      jumpi\n      dup1\n      0x4549b039\n      eq\n      tag_17\n      jumpi\n      dup1\n      0x46f0975a\n      eq\n      tag_18\n      jumpi\n      dup1\n      0x48c54b9d\n      eq\n      tag_19\n      jumpi\n      dup1\n      0x4990560f\n      eq\n      tag_20\n      jumpi\n      0x00\n      dup1\n      revert\n    tag_44:\n      dup1\n      0x3685d419\n      eq\n      tag_12\n      jumpi\n      dup1\n      0x39509351\n      eq\n      tag_13\n      jumpi\n      dup1\n      0x3b124fe7\n      eq\n      tag_14\n      jumpi\n      dup1\n      0x3bd5d173\n      eq\n      tag_15\n      jumpi\n      0x00\n      dup1\n      revert\n    tag_43:\n      dup1\n      0x13114a9d\n      gt\n      tag_45\n      jumpi\n      dup1\n      0x13114a9d\n      eq\n      tag_7\n      jumpi\n      dup1\n      0x18160ddd\n      eq\n      tag_8\n      jumpi\n      dup1\n      0x23b872dd\n      eq\n      tag_9\n      jumpi\n      dup1\n      0x2d838119\n      eq\n      tag_10\n      jumpi\n      dup1\n      0x313ce567\n      eq\n      tag_11\n      jumpi\n      0x00\n      dup1\n      revert\n    tag_45:\n      dup1\n      0x061c82d0\n      eq\n      tag_3\n      jumpi\n      dup1\n      0x06fdde03\n      eq\n      tag_4\n      jumpi\n      dup1\n      0x07c351dd\n      eq\n      tag_5\n      jumpi\n      dup1\n      0x095ea7b3\n      eq\n      tag_6\n      jumpi\n      0x00\n      dup1\n      revert\n    tag_1:\n      jumpi(tag_2, calldatasize)\n      stop\n    tag_2:\n      0x00\n      dup1\n      revert\n        /* \"contracts/Take3Token.sol\":7402:7498  function setTaxFeePercent(uint256 taxFee) external onlyOwner {... */\n    tag_3:\n      callvalue\n      dup1\n      iszero\n      tag_48\n      jumpi\n      0x00\n      dup1\n      revert\n    tag_48:\n      pop\n      tag_49\n      tag_50\n      calldatasize\n      0x04\n      tag_51\n      jump\t// in\n    tag_50:\n      tag_52\n      jump\t// in\n    tag_49:\n      stop\n        /* \"contracts/Take3Token.sol\":2307:2390  function name() public view returns (string memory) {... */\n    tag_4:\n      callvalue\n      dup1\n      iszero\n      tag_53\n      jumpi\n      0x00\n      dup1\n      revert\n    tag_53:\n      pop\n      tag_54\n      tag_55\n      jump\t// in\n    tag_54:\n      mload(0x40)\n      tag_56\n      swap2\n      swap1\n      tag_57\n      jump\t// in\n    tag_56:\n      mload(0x40)\n      dup1\n      swap2\n      sub\n      swap1\n      return\n        /* \"contracts/Take3Token.sol\":20014:20123  function mapSigner(address signer) external view returns (bool) {... */\n    tag_5:\n      callvalue\n      dup1\n      iszero\n      tag_58\n      jumpi\n      0x00\n      dup1\n      revert\n    tag_58:\n      pop\n      tag_59\n      tag_60\n      calldatasize\n      0x04\n      tag_61\n      jump\t// in\n    tag_60:\n      sub(shl(0xa0, 0x01), 0x01)\n        /* \"contracts/Take3Token.sol\":20096:20115  _mapSigners[signer] */\n      and\n        /* \"contracts/Take3Token.sol\":20072:20076  bool */\n      0x00\n        /* \"contracts/Take3Token.sol\":20096:20115  _mapSigners[signer] */\n      swap1\n      dup2\n      mstore\n        /* \"contracts/Take3Token.sol\":20096:20107  _mapSigners */\n      0x75\n        /* \"contracts/Take3Token.sol\":20096:20115  _mapSigners[signer] */\n      0x20\n      mstore\n      0x40\n      swap1\n      keccak256\n      sload\n      0xff\n      and\n      swap1\n        /* \"contracts/Take3Token.sol\":20014:20123  function mapSigner(address signer) external view returns (bool) {... */\n      jump\n    tag_59:\n      mload(0x40)\n        /* \"#utility.yul\":1335:1349   */\n      swap1\n      iszero\n        /* \"#utility.yul\":1328:1350   */\n      iszero\n        /* \"#utility.yul\":1310:1351   */\n      dup2\n      mstore\n        /* \"#utility.yul\":1298:1300   */\n      0x20\n        /* \"#utility.yul\":1283:1301   */\n      add\n        /* \"contracts/Take3Token.sol\":20014:20123  function mapSigner(address signer) external view returns (bool) {... */\n      tag_56\n        /* \"#utility.yul\":1170:1357   */\n      jump\n        /* \"contracts/Take3Token.sol\":3394:3587  function approve(address spender, uint256 amount)... */\n    tag_6:\n      callvalue\n      dup1\n      iszero\n      tag_65\n      jumpi\n      0x00\n      dup1\n      revert\n    tag_65:\n      pop\n      tag_59\n      tag_67\n      calldatasize\n      0x04\n      tag_68\n      jump\t// in\n    tag_67:\n      tag_69\n      jump\t// in\n        /* \"contracts/Take3Token.sol\":4893:4980  function totalFees() public view returns (uint256) {... */\n    tag_7:\n      callvalue\n      dup1\n      iszero\n      tag_71\n      jumpi\n      0x00\n      dup1\n      revert\n    tag_71:\n      pop\n        /* \"contracts/Take3Token.sol\":4962:4972  _tFeeTotal */\n      sload(0x6d)\n        /* \"contracts/Take3Token.sol\":4893:4980  function totalFees() public view returns (uint256) {... */\n    tag_72:\n      mload(0x40)\n        /* \"#utility.yul\":1767:1792   */\n      swap1\n      dup2\n      mstore\n        /* \"#utility.yul\":1755:1757   */\n      0x20\n        /* \"#utility.yul\":1740:1758   */\n      add\n        /* \"contracts/Take3Token.sol\":4893:4980  function totalFees() public view returns (uint256) {... */\n      tag_56\n        /* \"#utility.yul\":1621:1798   */\n      jump\n        /* \"contracts/Take3Token.sol\":2686:2781  function totalSupply() public view override returns (uint256) {... */\n    tag_8:\n      callvalue\n      dup1\n      iszero\n      tag_76\n      jumpi\n      0x00\n      dup1\n      revert\n    tag_76:\n      pop\n        /* \"contracts/Take3Token.sol\":2766:2773  _tTotal */\n      sload(0x6b)\n        /* \"contracts/Take3Token.sol\":2686:2781  function totalSupply() public view override returns (uint256) {... */\n      jump(tag_72)\n        /* \"contracts/Take3Token.sol\":3595:4041  function transferFrom(... */\n    tag_9:\n      callvalue\n      dup1\n      iszero\n      tag_80\n      jumpi\n      0x00\n      dup1\n      revert\n    tag_80:\n      pop\n      tag_59\n      tag_82\n      calldatasize\n      0x04\n      tag_83\n      jump\t// in\n    tag_82:\n      tag_84\n      jump\t// in\n        /* \"contracts/Take3Token.sol\":5896:6218  function tokenFromReflection(uint256 rAmount)... */\n    tag_10:\n      callvalue\n      dup1\n      iszero\n      tag_86\n      jumpi\n      0x00\n      dup1\n      revert\n    tag_86:\n      pop\n      tag_72\n      tag_88\n      calldatasize\n      0x04\n      tag_51\n      jump\t// in\n    tag_88:\n      tag_89\n      jump\t// in\n        /* \"contracts/Take3Token.sol\":2493:2578  function decimals() public view returns (uint256) {... */\n    tag_11:\n      callvalue\n      dup1\n      iszero\n      tag_91\n      jumpi\n      0x00\n      dup1\n      revert\n    tag_91:\n      pop\n        /* \"contracts/Take3Token.sol\":2561:2570  _decimals */\n      sload(0x70)\n        /* \"contracts/Take3Token.sol\":2493:2578  function decimals() public view returns (uint256) {... */\n      jump(tag_72)\n        /* \"contracts/Take3Token.sol\":6680:7157  function includeInReward(address account) external onlyOwner {... */\n    tag_12:\n      callvalue\n      dup1\n      iszero\n      tag_95\n      jumpi\n      0x00\n      dup1\n      revert\n    tag_95:\n      pop\n      tag_49\n      tag_97\n      calldatasize\n      0x04\n      tag_61\n      jump\t// in\n    tag_97:\n      tag_98\n      jump\t// in\n        /* \"contracts/Take3Token.sol\":4049:4349  function increaseAllowance(address spender, uint256 addedValue)... */\n    tag_13:\n      callvalue\n      dup1\n      iszero\n      tag_99\n      jumpi\n      0x00\n      dup1\n      revert\n    tag_99:\n      pop\n      tag_59\n      tag_101\n      calldatasize\n      0x04\n      tag_68\n      jump\t// in\n    tag_101:\n      tag_102\n      jump\t// in\n        /* \"contracts/Take3Token.sol\":1086:1108  uint256 public _taxFee */\n    tag_14:\n      callvalue\n      dup1\n      iszero\n      tag_104\n      jumpi\n      0x00\n      dup1\n      revert\n    tag_104:\n      pop\n      tag_72\n      sload(0x71)\n      dup2\n      jump\n        /* \"contracts/Take3Token.sol\":4988:5405  function deliver(uint256 tAmount) public {... */\n    tag_15:\n      callvalue\n      dup1\n      iszero\n      tag_108\n      jumpi\n      0x00\n      dup1\n      revert\n    tag_108:\n      pop\n      tag_49\n      tag_110\n      calldatasize\n      0x04\n      tag_51\n      jump\t// in\n    tag_110:\n      tag_111\n      jump\t// in\n        /* \"contracts/Take3Token.sol\":7165:7276  function excludeFromFee(address account) public onlyOwner {... */\n    tag_16:\n      callvalue\n      dup1\n      iszero\n      tag_112\n      jumpi\n      0x00\n      dup1\n      revert\n    tag_112:\n      pop\n      tag_49\n      tag_114\n      calldatasize\n      0x04\n      tag_61\n      jump\t// in\n    tag_114:\n      tag_115\n      jump\t// in\n        /* \"contracts/Take3Token.sol\":5413:5888  function reflectionFromToken(uint256 tAmount, bool deductTransferFee)... */\n    tag_17:\n      callvalue\n      dup1\n      iszero\n      tag_116\n      jumpi\n      0x00\n      dup1\n      revert\n    tag_116:\n      pop\n      tag_72\n      tag_118\n      calldatasize\n      0x04\n      tag_119\n      jump\t// in\n    tag_118:\n      tag_120\n      jump\t// in\n        /* \"contracts/Take3Token.sol\":19665:19759  function signers() external view returns (address[] memory) {... */\n    tag_18:\n      callvalue\n      dup1\n      iszero\n      tag_122\n      jumpi\n      0x00\n      dup1\n      revert\n    tag_122:\n      pop\n      tag_123\n      tag_124\n      jump\t// in\n    tag_123:\n      mload(0x40)\n      tag_56\n      swap2\n      swap1\n      tag_126\n      jump\t// in\n        /* \"contracts/Take3Token.sol\":10745:10852  function claimTokens() public onlyOwner {... */\n    tag_19:\n      callvalue\n      dup1\n      iszero\n      tag_127\n      jumpi\n      0x00\n      dup1\n      revert\n    tag_127:\n      pop\n      tag_49\n      tag_129\n      jump\t// in\n        /* \"contracts/Take3Token.sol\":20380:21467  function _permitTransfer(... */\n    tag_20:\n      callvalue\n      dup1\n      iszero\n      tag_130\n      jumpi\n      0x00\n      dup1\n      revert\n    tag_130:\n      pop\n      tag_49\n      tag_132\n      calldatasize\n      0x04\n      tag_133\n      jump\t// in\n    tag_132:\n      tag_134\n      jump\t// in\n        /* \"contracts/Take3Token.sol\":6226:6672  function excludeFromReward(address account) public onlyOwner {... */\n    tag_21:\n      callvalue\n      dup1\n      iszero\n      tag_135\n      jumpi\n      0x00\n      dup1\n      revert\n    tag_135:\n      pop\n      tag_49\n      tag_137\n      calldatasize\n      0x04\n      tag_61\n      jump\t// in\n    tag_137:\n      tag_138\n      jump\t// in\n        /* \"contracts/Take3Token.sol\":11358:11482  function isExcludedFromFee(address account) public view returns (bool) {... */\n    tag_22:\n      callvalue\n      dup1\n      iszero\n      tag_139\n      jumpi\n      0x00\n      dup1\n      revert\n    tag_139:\n      pop\n      tag_59\n      tag_141\n      calldatasize\n      0x04\n      tag_61\n      jump\t// in\n    tag_141:\n      sub(shl(0xa0, 0x01), 0x01)\n        /* \"contracts/Take3Token.sol\":11447:11474  _isExcludedFromFee[account] */\n      and\n        /* \"contracts/Take3Token.sol\":11423:11427  bool */\n      0x00\n        /* \"contracts/Take3Token.sol\":11447:11474  _isExcludedFromFee[account] */\n      swap1\n      dup2\n      mstore\n        /* \"contracts/Take3Token.sol\":11447:11465  _isExcludedFromFee */\n      0x68\n        /* \"contracts/Take3Token.sol\":11447:11474  _isExcludedFromFee[account] */\n      0x20\n      mstore\n      0x40\n      swap1\n      keccak256\n      sload\n      0xff\n      and\n      swap1\n        /* \"contracts/Take3Token.sol\":11358:11482  function isExcludedFromFee(address account) public view returns (bool) {... */\n      jump\n        /* \"contracts/Take3Token.sol\":2586:2678  function version() public pure virtual returns (string memory) {... */\n    tag_23:\n      callvalue\n      dup1\n      iszero\n      tag_144\n      jumpi\n      0x00\n      dup1\n      revert\n    tag_144:\n      pop\n        /* \"contracts/Take3Token.sol\":2660:2670  return \"1\" */\n      0x40\n      dup1\n      mload\n      dup1\n      dup3\n      add\n      swap1\n      swap2\n      mstore\n      0x01\n      dup2\n      mstore\n      shl(0xf8, 0x31)\n      0x20\n      dup3\n      add\n      mstore\n        /* \"contracts/Take3Token.sol\":2586:2678  function version() public pure virtual returns (string memory) {... */\n      jump(tag_54)\n        /* \"contracts/Take3Token.sol\":2789:2987  function balanceOf(address account) public view override returns (uint256) {... */\n    tag_24:\n      callvalue\n      dup1\n      iszero\n      tag_148\n      jumpi\n      0x00\n      dup1\n      revert\n    tag_148:\n      pop\n      tag_72\n      tag_150\n      calldatasize\n      0x04\n      tag_61\n      jump\t// in\n    tag_150:\n      tag_151\n      jump\t// in\n        /* \"@openzeppelin/contracts-upgradeable/access/OwnableUpgradeable.sol\":2071:2172  function renounceOwnership() public virtual onlyOwner {... */\n    tag_25:\n      callvalue\n      dup1\n      iszero\n      tag_153\n      jumpi\n      0x00\n      dup1\n      revert\n    tag_153:\n      pop\n      tag_49\n      tag_155\n      jump\t// in\n        /* \"contracts/Take3Token.sol\":1153:1180  uint256 public _maxTxAmount */\n    tag_26:\n      callvalue\n      dup1\n      iszero\n      tag_156\n      jumpi\n      0x00\n      dup1\n      revert\n    tag_156:\n      pop\n      tag_72\n      sload(0x73)\n      dup2\n      jump\n        /* \"contracts/Take3Token.sol\":4765:4885  function isExcludedFromReward(address account) public view returns (bool) {... */\n    tag_27:\n      callvalue\n      dup1\n      iszero\n      tag_160\n      jumpi\n      0x00\n      dup1\n      revert\n    tag_160:\n      pop\n      tag_59\n      tag_162\n      calldatasize\n      0x04\n      tag_61\n      jump\t// in\n    tag_162:\n      sub(shl(0xa0, 0x01), 0x01)\n        /* \"contracts/Take3Token.sol\":4857:4877  _isExcluded[account] */\n      and\n        /* \"contracts/Take3Token.sol\":4833:4837  bool */\n      0x00\n        /* \"contracts/Take3Token.sol\":4857:4877  _isExcluded[account] */\n      swap1\n      dup2\n      mstore\n        /* \"contracts/Take3Token.sol\":4857:4868  _isExcluded */\n      0x69\n        /* \"contracts/Take3Token.sol\":4857:4877  _isExcluded[account] */\n      0x20\n      mstore\n      0x40\n      swap1\n      keccak256\n      sload\n      0xff\n      and\n      swap1\n        /* \"contracts/Take3Token.sol\":4765:4885  function isExcludedFromReward(address account) public view returns (bool) {... */\n      jump\n        /* \"@openzeppelin/contracts-upgradeable/access/OwnableUpgradeable.sol\":1441:1526  function owner() public view virtual returns (address) {... */\n    tag_28:\n      callvalue\n      dup1\n      iszero\n      tag_165\n      jumpi\n      0x00\n      dup1\n      revert\n    tag_165:\n      pop\n        /* \"@openzeppelin/contracts-upgradeable/access/OwnableUpgradeable.sol\":1513:1519  _owner */\n      sload(0x33)\n        /* \"@openzeppelin/contracts-upgradeable/access/OwnableUpgradeable.sol\":1441:1526  function owner() public view virtual returns (address) {... */\n      mload(0x40)\n      sub(shl(0xa0, 0x01), 0x01)\n        /* \"@openzeppelin/contracts-upgradeable/access/OwnableUpgradeable.sol\":1513:1519  _owner */\n      swap1\n      swap2\n      and\n        /* \"#utility.yul\":6370:6421   */\n      dup2\n      mstore\n        /* \"#utility.yul\":6358:6360   */\n      0x20\n        /* \"#utility.yul\":6343:6361   */\n      add\n        /* \"@openzeppelin/contracts-upgradeable/access/OwnableUpgradeable.sol\":1441:1526  function owner() public view virtual returns (address) {... */\n      tag_56\n        /* \"#utility.yul\":6224:6427   */\n      jump\n        /* \"contracts/Take3Token.sol\":2398:2485  function symbol() public view returns (string memory) {... */\n    tag_29:\n      callvalue\n      dup1\n      iszero\n      tag_170\n      jumpi\n      0x00\n      dup1\n      revert\n    tag_170:\n      pop\n      tag_54\n      tag_172\n      jump\t// in\n        /* \"contracts/Take3Token.sol\":19767:20006  function setSigners(address[] memory signers_) external virtual onlyOwner {... */\n    tag_30:\n      callvalue\n      dup1\n      iszero\n      tag_174\n      jumpi\n      0x00\n      dup1\n      revert\n    tag_174:\n      pop\n      tag_49\n      tag_176\n      calldatasize\n      0x04\n      tag_177\n      jump\t// in\n    tag_176:\n      tag_178\n      jump\t// in\n        /* \"contracts/Take3Token.sol\":4357:4757  function decreaseAllowance(address spender, uint256 subtractedValue)... */\n    tag_31:\n      callvalue\n      dup1\n      iszero\n      tag_179\n      jumpi\n      0x00\n      dup1\n      revert\n    tag_179:\n      pop\n      tag_59\n      tag_181\n      calldatasize\n      0x04\n      tag_68\n      jump\t// in\n    tag_181:\n      tag_182\n      jump\t// in\n        /* \"contracts/Take3Token.sol\":1328:2299  function initialize(... */\n    tag_32:\n      callvalue\n      dup1\n      iszero\n      tag_184\n      jumpi\n      0x00\n      dup1\n      revert\n    tag_184:\n      pop\n      tag_49\n      tag_186\n      calldatasize\n      0x04\n      tag_187\n      jump\t// in\n    tag_186:\n      tag_188\n      jump\t// in\n        /* \"contracts/Take3Token.sol\":2995:3194  function transfer(address recipient, uint256 amount)... */\n    tag_33:\n      callvalue\n      dup1\n      iszero\n      tag_189\n      jumpi\n      0x00\n      dup1\n      revert\n    tag_189:\n      pop\n      tag_59\n      tag_191\n      calldatasize\n      0x04\n      tag_68\n      jump\t// in\n    tag_191:\n      tag_192\n      jump\t// in\n        /* \"contracts/Take3Token.sol\":7506:7632  function setMaxTxPercent(uint256 maxTxPercent) public onlyOwner {... */\n    tag_34:\n      callvalue\n      dup1\n      iszero\n      tag_194\n      jumpi\n      0x00\n      dup1\n      revert\n    tag_194:\n      pop\n      tag_49\n      tag_196\n      calldatasize\n      0x04\n      tag_51\n      jump\t// in\n    tag_196:\n      tag_197\n      jump\t// in\n        /* \"contracts/Take3Token.sol\":3202:3386  function allowance(address owner, address spender)... */\n    tag_35:\n      callvalue\n      dup1\n      iszero\n      tag_198\n      jumpi\n      0x00\n      dup1\n      revert\n    tag_198:\n      pop\n      tag_72\n      tag_200\n      calldatasize\n      0x04\n      tag_201\n      jump\t// in\n    tag_200:\n      sub(shl(0xa0, 0x01), 0x01)\n        /* \"contracts/Take3Token.sol\":3351:3369  _allowances[owner] */\n      swap2\n      dup3\n      and\n        /* \"contracts/Take3Token.sol\":3319:3326  uint256 */\n      0x00\n        /* \"contracts/Take3Token.sol\":3351:3369  _allowances[owner] */\n      swap1\n      dup2\n      mstore\n        /* \"contracts/Take3Token.sol\":3351:3362  _allowances */\n      0x67\n        /* \"contracts/Take3Token.sol\":3351:3369  _allowances[owner] */\n      0x20\n      swap1\n      dup2\n      mstore\n      0x40\n      dup1\n      dup4\n      keccak256\n        /* \"contracts/Take3Token.sol\":3351:3378  _allowances[owner][spender] */\n      swap4\n      swap1\n      swap5\n      and\n      dup3\n      mstore\n      swap2\n      swap1\n      swap2\n      mstore\n      keccak256\n      sload\n      swap1\n        /* \"contracts/Take3Token.sol\":3202:3386  function allowance(address owner, address spender)... */\n      jump\n        /* \"contracts/Take3Token.sol\":7284:7394  function includeInFee(address account) public onlyOwner {... */\n    tag_36:\n      callvalue\n      dup1\n      iszero\n      tag_204\n      jumpi\n      0x00\n      dup1\n      revert\n    tag_204:\n      pop\n      tag_49\n      tag_206\n      calldatasize\n      0x04\n      tag_61\n      jump\t// in\n    tag_206:\n      tag_207\n      jump\t// in\n        /* \"@openzeppelin/contracts-upgradeable/access/OwnableUpgradeable.sol\":2321:2519  function transferOwnership(address newOwner) public virtual onlyOwner {... */\n    tag_37:\n      callvalue\n      dup1\n      iszero\n      tag_208\n      jumpi\n      0x00\n      dup1\n      revert\n    tag_208:\n      pop\n      tag_49\n      tag_210\n      calldatasize\n      0x04\n      tag_61\n      jump\t// in\n    tag_210:\n      tag_211\n      jump\t// in\n        /* \"contracts/Take3Token.sol\":1273:1319  mapping(uint256 => bool) public uniqueIdExists */\n    tag_38:\n      callvalue\n      dup1\n      iszero\n      tag_212\n      jumpi\n      0x00\n      dup1\n      revert\n    tag_212:\n      pop\n      tag_59\n      tag_214\n      calldatasize\n      0x04\n      tag_51\n      jump\t// in\n    tag_214:\n      mstore(0x20, 0x76)\n      0x00\n      swap1\n      dup2\n      mstore\n      0x40\n      swap1\n      keccak256\n      sload\n      0xff\n      and\n      dup2\n      jump\n        /* \"contracts/Take3Token.sol\":7402:7498  function setTaxFeePercent(uint256 taxFee) external onlyOwner {... */\n    tag_52:\n        /* \"@openzeppelin/contracts-upgradeable/access/OwnableUpgradeable.sol\":1334:1347  _checkOwner() */\n      tag_218\n        /* \"@openzeppelin/contracts-upgradeable/access/OwnableUpgradeable.sol\":1334:1345  _checkOwner */\n      tag_219\n        /* \"@openzeppelin/contracts-upgradeable/access/OwnableUpgradeable.sol\":1334:1347  _checkOwner() */\n      jump\t// in\n    tag_218:\n        /* \"contracts/Take3Token.sol\":7474:7481  _taxFee */\n      0x71\n        /* \"contracts/Take3Token.sol\":7474:7490  _taxFee = taxFee */\n      sstore\n        /* \"contracts/Take3Token.sol\":7402:7498  function setTaxFeePercent(uint256 taxFee) external onlyOwner {... */\n      jump\t// out\n        /* \"contracts/Take3Token.sol\":2307:2390  function name() public view returns (string memory) {... */\n    tag_55:\n        /* \"contracts/Take3Token.sol\":2344:2357  string memory */\n      0x60\n        /* \"contracts/Take3Token.sol\":2377:2382  _name */\n      0x6e\n        /* \"contracts/Take3Token.sol\":2370:2382  return _name */\n      dup1\n      sload\n      tag_222\n      swap1\n      tag_223\n      jump\t// in\n    tag_222:\n      dup1\n      0x1f\n      add\n      0x20\n      dup1\n      swap2\n      div\n      mul\n      0x20\n      add\n      mload(0x40)\n      swap1\n      dup2\n      add\n      0x40\n      mstore\n      dup1\n      swap3\n      swap2\n      swap1\n      dup2\n      dup2\n      mstore\n      0x20\n      add\n      dup3\n      dup1\n      sload\n      tag_224\n      swap1\n      tag_223\n      jump\t// in\n    tag_224:\n      dup1\n      iszero\n      tag_225\n      jumpi\n      dup1\n      0x1f\n      lt\n      tag_226\n      jumpi\n      0x0100\n      dup1\n      dup4\n      sload\n      div\n      mul\n      dup4\n      mstore\n      swap2\n      0x20\n      add\n      swap2\n      jump(tag_225)\n    tag_226:\n      dup3\n      add\n      swap2\n      swap1\n      0x00\n      mstore\n      keccak256(0x00, 0x20)\n      swap1\n    tag_227:\n      dup2\n      sload\n      dup2\n      mstore\n      swap1\n      0x01\n      add\n      swap1\n      0x20\n      add\n      dup1\n      dup4\n      gt\n      tag_227\n      jumpi\n      dup3\n      swap1\n      sub\n      0x1f\n      and\n      dup3\n      add\n      swap2\n    tag_225:\n      pop\n      pop\n      pop\n      pop\n      pop\n      swap1\n      pop\n        /* \"contracts/Take3Token.sol\":2307:2390  function name() public view returns (string memory) {... */\n      swap1\n      jump\t// out\n        /* \"contracts/Take3Token.sol\":3394:3587  function approve(address spender, uint256 amount)... */\n    tag_69:\n        /* \"contracts/Take3Token.sol\":3496:3500  bool */\n      0x00\n        /* \"contracts/Take3Token.sol\":3518:3557  _approve(_msgSender(), spender, amount) */\n      tag_230\n        /* \"@openzeppelin/contracts-upgradeable/utils/ContextUpgradeable.sol\":929:939  msg.sender */\n      caller\n        /* \"contracts/Take3Token.sol\":3541:3548  spender */\n      dup5\n        /* \"contracts/Take3Token.sol\":3550:3556  amount */\n      dup5\n        /* \"contracts/Take3Token.sol\":3518:3526  _approve */\n      tag_233\n        /* \"contracts/Take3Token.sol\":3518:3557  _approve(_msgSender(), spender, amount) */\n      jump\t// in\n    tag_230:\n      pop\n        /* \"contracts/Take3Token.sol\":3575:3579  true */\n      0x01\n        /* \"contracts/Take3Token.sol\":3394:3587  function approve(address spender, uint256 amount)... */\n    tag_229:\n      swap3\n      swap2\n      pop\n      pop\n      jump\t// out\n        /* \"contracts/Take3Token.sol\":3595:4041  function transferFrom(... */\n    tag_84:\n        /* \"contracts/Take3Token.sol\":3727:3731  bool */\n      0x00\n        /* \"contracts/Take3Token.sol\":3744:3780  _transfer(sender, recipient, amount) */\n      tag_237\n        /* \"contracts/Take3Token.sol\":3754:3760  sender */\n      dup5\n        /* \"contracts/Take3Token.sol\":3762:3771  recipient */\n      dup5\n        /* \"contracts/Take3Token.sol\":3773:3779  amount */\n      dup5\n        /* \"contracts/Take3Token.sol\":3744:3753  _transfer */\n      tag_238\n        /* \"contracts/Take3Token.sol\":3744:3780  _transfer(sender, recipient, amount) */\n      jump\t// in\n    tag_237:\n        /* \"contracts/Take3Token.sol\":3791:4011  _approve(... */\n      tag_239\n        /* \"contracts/Take3Token.sol\":3814:3820  sender */\n      dup5\n        /* \"@openzeppelin/contracts-upgradeable/utils/ContextUpgradeable.sol\":929:939  msg.sender */\n      caller\n        /* \"contracts/Take3Token.sol\":3862:4000  _allowances[sender][_msgSender()].sub(... */\n      tag_241\n        /* \"contracts/Take3Token.sol\":3918:3924  amount */\n      dup6\n        /* \"contracts/Take3Token.sol\":3862:4000  _allowances[sender][_msgSender()].sub(... */\n      mload(0x40)\n      dup1\n      0x60\n      add\n      0x40\n      mstore\n      dup1\n      0x28\n      dup2\n      mstore\n      0x20\n      add\n      data_974d1b4421da69cc60b481194f0dad36a5bb4e23da810da7a7fb30cdba178330\n      0x28\n      swap2\n      codecopy\n      sub(shl(0xa0, 0x01), 0x01)\n        /* \"contracts/Take3Token.sol\":3862:3881  _allowances[sender] */\n      dup11\n      and\n      0x00\n      swap1\n      dup2\n      mstore\n        /* \"contracts/Take3Token.sol\":3862:3873  _allowances */\n      0x67\n        /* \"contracts/Take3Token.sol\":3862:3881  _allowances[sender] */\n      0x20\n      swap1\n      dup2\n      mstore\n      0x40\n      dup1\n      dup4\n      keccak256\n        /* \"@openzeppelin/contracts-upgradeable/utils/ContextUpgradeable.sol\":929:939  msg.sender */\n      caller\n        /* \"contracts/Take3Token.sol\":3862:3895  _allowances[sender][_msgSender()] */\n      dup5\n      mstore\n      swap1\n      swap2\n      mstore\n      swap1\n      keccak256\n      sload\n      swap2\n      swap1\n        /* \"contracts/Take3Token.sol\":3862:3899  _allowances[sender][_msgSender()].sub */\n      tag_243\n        /* \"contracts/Take3Token.sol\":3862:4000  _allowances[sender][_msgSender()].sub(... */\n      jump\t// in\n    tag_241:\n        /* \"contracts/Take3Token.sol\":3791:3799  _approve */\n      tag_233\n        /* \"contracts/Take3Token.sol\":3791:4011  _approve(... */\n      jump\t// in\n    tag_239:\n      pop\n        /* \"contracts/Take3Token.sol\":4029:4033  true */\n      0x01\n        /* \"contracts/Take3Token.sol\":3595:4041  function transferFrom(... */\n      swap4\n      swap3\n      pop\n      pop\n      pop\n      jump\t// out\n        /* \"contracts/Take3Token.sol\":5896:6218  function tokenFromReflection(uint256 rAmount)... */\n    tag_89:\n        /* \"contracts/Take3Token.sol\":5990:5997  uint256 */\n      0x00\n        /* \"contracts/Take3Token.sol\":6048:6055  _rTotal */\n      sload(0x6c)\n        /* \"contracts/Take3Token.sol\":6037:6044  rAmount */\n      dup3\n        /* \"contracts/Take3Token.sol\":6037:6055  rAmount <= _rTotal */\n      gt\n      iszero\n        /* \"contracts/Take3Token.sol\":6015:6125  require(... */\n      tag_245\n      jumpi\n      mload(0x40)\n      shl(0xe5, 0x461bcd)\n      dup2\n      mstore\n        /* \"#utility.yul\":9618:9620   */\n      0x20\n        /* \"contracts/Take3Token.sol\":6015:6125  require(... */\n      0x04\n      dup3\n      add\n        /* \"#utility.yul\":9600:9621   */\n      mstore\n        /* \"#utility.yul\":9657:9659   */\n      0x2a\n        /* \"#utility.yul\":9637:9655   */\n      0x24\n      dup3\n      add\n        /* \"#utility.yul\":9630:9660   */\n      mstore\n        /* \"#utility.yul\":9696:9730   */\n      0x416d6f756e74206d757374206265206c657373207468616e20746f74616c2072\n        /* \"#utility.yul\":9676:9694   */\n      0x44\n      dup3\n      add\n        /* \"#utility.yul\":9669:9731   */\n      mstore\n      shl(0xb0, 0x65666c656374696f6e73)\n        /* \"#utility.yul\":9747:9765   */\n      0x64\n      dup3\n      add\n        /* \"#utility.yul\":9740:9780   */\n      mstore\n        /* \"#utility.yul\":9797:9816   */\n      0x84\n      add\n        /* \"contracts/Take3Token.sol\":6015:6125  require(... */\n    tag_246:\n      mload(0x40)\n      dup1\n      swap2\n      sub\n      swap1\n      revert\n    tag_245:\n        /* \"contracts/Take3Token.sol\":6136:6155  uint256 currentRate */\n      0x00\n        /* \"contracts/Take3Token.sol\":6158:6168  _getRate() */\n      tag_248\n        /* \"contracts/Take3Token.sol\":6158:6166  _getRate */\n      tag_249\n        /* \"contracts/Take3Token.sol\":6158:6168  _getRate() */\n      jump\t// in\n    tag_248:\n        /* \"contracts/Take3Token.sol\":6136:6168  uint256 currentRate = _getRate() */\n      swap1\n      pop\n        /* \"contracts/Take3Token.sol\":6186:6210  rAmount.div(currentRate) */\n      tag_250\n        /* \"contracts/Take3Token.sol\":6186:6193  rAmount */\n      dup4\n        /* \"contracts/Take3Token.sol\":6136:6168  uint256 currentRate = _getRate() */\n      dup3\n        /* \"contracts/Take3Token.sol\":6186:6197  rAmount.div */\n      tag_251\n        /* \"contracts/Take3Token.sol\":6186:6210  rAmount.div(currentRate) */\n      jump\t// in\n    tag_250:\n        /* \"contracts/Take3Token.sol\":6179:6210  return rAmount.div(currentRate) */\n      swap4\n        /* \"contracts/Take3Token.sol\":5896:6218  function tokenFromReflection(uint256 rAmount)... */\n      swap3\n      pop\n      pop\n      pop\n      jump\t// out\n        /* \"contracts/Take3Token.sol\":6680:7157  function includeInReward(address account) external onlyOwner {... */\n    tag_98:\n        /* \"@openzeppelin/contracts-upgradeable/access/OwnableUpgradeable.sol\":1334:1347  _checkOwner() */\n      tag_254\n        /* \"@openzeppelin/contracts-upgradeable/access/OwnableUpgradeable.sol\":1334:1345  _checkOwner */\n      tag_219\n        /* \"@openzeppelin/contracts-upgradeable/access/OwnableUpgradeable.sol\":1334:1347  _checkOwner() */\n      jump\t// in\n    tag_254:\n      sub(shl(0xa0, 0x01), 0x01)\n        /* \"contracts/Take3Token.sol\":6760:6780  _isExcluded[account] */\n      dup2\n      and\n      0x00\n      swap1\n      dup2\n      mstore\n        /* \"contracts/Take3Token.sol\":6760:6771  _isExcluded */\n      0x69\n        /* \"contracts/Take3Token.sol\":6760:6780  _isExcluded[account] */\n      0x20\n      mstore\n      0x40\n      swap1\n      keccak256\n      sload\n      0xff\n      and\n        /* \"contracts/Take3Token.sol\":6752:6812  require(_isExcluded[account], \"Account is already excluded\") */\n      tag_256\n      jumpi\n      mload(0x40)\n      shl(0xe5, 0x461bcd)\n      dup2\n      mstore\n        /* \"#utility.yul\":10029:10031   */\n      0x20\n        /* \"contracts/Take3Token.sol\":6752:6812  require(_isExcluded[account], \"Account is already excluded\") */\n      0x04\n      dup3\n      add\n        /* \"#utility.yul\":10011:10032   */\n      mstore\n        /* \"#utility.yul\":10068:10070   */\n      0x1b\n        /* \"#utility.yul\":10048:10066   */\n      0x24\n      dup3\n      add\n        /* \"#utility.yul\":10041:10071   */\n      mstore\n        /* \"#utility.yul\":10107:10136   */\n      0x4163636f756e7420697320616c7265616479206578636c756465640000000000\n        /* \"#utility.yul\":10087:10105   */\n      0x44\n      dup3\n      add\n        /* \"#utility.yul\":10080:10137   */\n      mstore\n        /* \"#utility.yul\":10154:10172   */\n      0x64\n      add\n        /* \"contracts/Take3Token.sol\":6752:6812  require(_isExcluded[account], \"Account is already excluded\") */\n      tag_246\n        /* \"#utility.yul\":9827:10178   */\n      jump\n        /* \"contracts/Take3Token.sol\":6752:6812  require(_isExcluded[account], \"Account is already excluded\") */\n    tag_256:\n        /* \"contracts/Take3Token.sol\":6828:6837  uint256 i */\n      0x00\n        /* \"contracts/Take3Token.sol\":6823:7150  for (uint256 i = 0; i < _excluded.length; i++) {... */\n    tag_259:\n        /* \"contracts/Take3Token.sol\":6847:6856  _excluded */\n      0x6a\n        /* \"contracts/Take3Token.sol\":6847:6863  _excluded.length */\n      sload\n        /* \"contracts/Take3Token.sol\":6843:6863  i < _excluded.length */\n      dup2\n      lt\n        /* \"contracts/Take3Token.sol\":6823:7150  for (uint256 i = 0; i < _excluded.length; i++) {... */\n      iszero\n      tag_260\n      jumpi\n        /* \"contracts/Take3Token.sol\":6905:6912  account */\n      dup2\n      sub(shl(0xa0, 0x01), 0x01)\n        /* \"contracts/Take3Token.sol\":6889:6912  _excluded[i] == account */\n      and\n        /* \"contracts/Take3Token.sol\":6889:6898  _excluded */\n      0x6a\n        /* \"contracts/Take3Token.sol\":6899:6900  i */\n      dup3\n        /* \"contracts/Take3Token.sol\":6889:6901  _excluded[i] */\n      dup2\n      sload\n      dup2\n      lt\n      tag_263\n      jumpi\n      tag_263\n      tag_264\n      jump\t// in\n    tag_263:\n      0x00\n      swap2\n      dup3\n      mstore\n      0x20\n      swap1\n      swap2\n      keccak256\n      add\n      sload\n      sub(shl(0xa0, 0x01), 0x01)\n      and\n        /* \"contracts/Take3Token.sol\":6889:6912  _excluded[i] == account */\n      eq\n        /* \"contracts/Take3Token.sol\":6885:7139  if (_excluded[i] == account) {... */\n      iszero\n      tag_266\n      jumpi\n        /* \"contracts/Take3Token.sol\":6948:6957  _excluded */\n      0x6a\n        /* \"contracts/Take3Token.sol\":6958:6974  _excluded.length */\n      dup1\n      sload\n        /* \"contracts/Take3Token.sol\":6958:6978  _excluded.length - 1 */\n      tag_267\n      swap1\n        /* \"contracts/Take3Token.sol\":6977:6978  1 */\n      0x01\n      swap1\n        /* \"contracts/Take3Token.sol\":6958:6978  _excluded.length - 1 */\n      tag_268\n      jump\t// in\n    tag_267:\n        /* \"contracts/Take3Token.sol\":6948:6979  _excluded[_excluded.length - 1] */\n      dup2\n      sload\n      dup2\n      lt\n      tag_270\n      jumpi\n      tag_270\n      tag_264\n      jump\t// in\n    tag_270:\n      0x00\n      swap2\n      dup3\n      mstore\n      0x20\n      swap1\n      swap2\n      keccak256\n      add\n      sload\n        /* \"contracts/Take3Token.sol\":6933:6942  _excluded */\n      0x6a\n        /* \"contracts/Take3Token.sol\":6933:6945  _excluded[i] */\n      dup1\n      sload\n      sub(shl(0xa0, 0x01), 0x01)\n        /* \"contracts/Take3Token.sol\":6948:6979  _excluded[_excluded.length - 1] */\n      swap1\n      swap3\n      and\n      swap2\n        /* \"contracts/Take3Token.sol\":6943:6944  i */\n      dup4\n      swap1\n        /* \"contracts/Take3Token.sol\":6933:6945  _excluded[i] */\n      dup2\n      lt\n      tag_273\n      jumpi\n      tag_273\n      tag_264\n      jump\t// in\n    tag_273:\n      0x00\n      swap2\n      dup3\n      mstore\n      0x20\n      dup1\n      dup4\n      keccak256\n      swap2\n      swap1\n      swap2\n      add\n        /* \"contracts/Take3Token.sol\":6933:6979  _excluded[i] = _excluded[_excluded.length - 1] */\n      dup1\n      sload\n      not(sub(shl(0xa0, 0x01), 0x01))\n      and\n      sub(shl(0xa0, 0x01), 0x01)\n      swap5\n      dup6\n      and\n      or\n      swap1\n      sstore\n        /* \"contracts/Take3Token.sol\":6998:7014  _tOwned[account] */\n      swap2\n      dup5\n      and\n      dup2\n      mstore\n        /* \"contracts/Take3Token.sol\":6998:7005  _tOwned */\n      0x66\n        /* \"contracts/Take3Token.sol\":6998:7014  _tOwned[account] */\n      dup3\n      mstore\n      0x40\n      dup1\n      dup3\n      keccak256\n        /* \"contracts/Take3Token.sol\":6998:7018  _tOwned[account] = 0 */\n      dup3\n      swap1\n      sstore\n        /* \"contracts/Take3Token.sol\":7037:7048  _isExcluded */\n      0x69\n        /* \"contracts/Take3Token.sol\":7037:7057  _isExcluded[account] */\n      swap1\n      swap3\n      mstore\n      keccak256\n        /* \"contracts/Take3Token.sol\":7037:7065  _isExcluded[account] = false */\n      dup1\n      sload\n      not(0xff)\n      and\n      swap1\n      sstore\n        /* \"contracts/Take3Token.sol\":7084:7093  _excluded */\n      0x6a\n        /* \"contracts/Take3Token.sol\":7084:7099  _excluded.pop() */\n      dup1\n      sload\n      dup1\n      tag_276\n      jumpi\n      tag_276\n      tag_277\n      jump\t// in\n    tag_276:\n      0x00\n      dup3\n      dup2\n      mstore\n      0x20\n      swap1\n      keccak256\n      dup2\n      add\n      not(0x00)\n      swap1\n      dup2\n      add\n      dup1\n      sload\n      not(sub(shl(0xa0, 0x01), 0x01))\n      and\n      swap1\n      sstore\n      add\n      swap1\n      sstore\n        /* \"contracts/Take3Token.sol\":6823:7150  for (uint256 i = 0; i < _excluded.length; i++) {... */\n      pop\n        /* \"contracts/Take3Token.sol\":6680:7157  function includeInReward(address account) external onlyOwner {... */\n      pop\n      jump\t// out\n        /* \"contracts/Take3Token.sol\":6885:7139  if (_excluded[i] == account) {... */\n    tag_266:\n        /* \"contracts/Take3Token.sol\":6865:6868  i++ */\n      dup1\n      tag_279\n      dup2\n      tag_280\n      jump\t// in\n    tag_279:\n      swap2\n      pop\n      pop\n        /* \"contracts/Take3Token.sol\":6823:7150  for (uint256 i = 0; i < _excluded.length; i++) {... */\n      jump(tag_259)\n    tag_260:\n      pop\n        /* \"contracts/Take3Token.sol\":6680:7157  function includeInReward(address account) external onlyOwner {... */\n      pop\n      jump\t// out\n        /* \"contracts/Take3Token.sol\":4049:4349  function increaseAllowance(address spender, uint256 addedValue)... */\n    tag_102:\n        /* \"@openzeppelin/contracts-upgradeable/utils/ContextUpgradeable.sol\":929:939  msg.sender */\n      caller\n        /* \"contracts/Take3Token.sol\":4164:4168  bool */\n      0x00\n        /* \"contracts/Take3Token.sol\":4258:4283  _allowances[_msgSender()] */\n      dup2\n      dup2\n      mstore\n        /* \"contracts/Take3Token.sol\":4258:4269  _allowances */\n      0x67\n        /* \"contracts/Take3Token.sol\":4258:4283  _allowances[_msgSender()] */\n      0x20\n      swap1\n      dup2\n      mstore\n      0x40\n      dup1\n      dup4\n      keccak256\n      sub(shl(0xa0, 0x01), 0x01)\n        /* \"contracts/Take3Token.sol\":4258:4292  _allowances[_msgSender()][spender] */\n      dup8\n      and\n      dup5\n      mstore\n      swap1\n      swap2\n      mstore\n      dup2\n      keccak256\n      sload\n        /* \"contracts/Take3Token.sol\":4164:4168  bool */\n      swap1\n      swap2\n        /* \"contracts/Take3Token.sol\":4186:4319  _approve(... */\n      tag_230\n      swap2\n        /* \"contracts/Take3Token.sol\":4236:4243  spender */\n      dup6\n      swap1\n        /* \"contracts/Take3Token.sol\":4258:4308  _allowances[_msgSender()][spender].add(addedValue) */\n      tag_241\n      swap1\n        /* \"contracts/Take3Token.sol\":4297:4307  addedValue */\n      dup7\n        /* \"contracts/Take3Token.sol\":4258:4296  _allowances[_msgSender()][spender].add */\n      tag_286\n        /* \"contracts/Take3Token.sol\":4258:4308  _allowances[_msgSender()][spender].add(addedValue) */\n      jump\t// in\n        /* \"contracts/Take3Token.sol\":4988:5405  function deliver(uint256 tAmount) public {... */\n    tag_111:\n        /* \"@openzeppelin/contracts-upgradeable/utils/ContextUpgradeable.sol\":929:939  msg.sender */\n      caller\n        /* \"contracts/Take3Token.sol\":5040:5054  address sender */\n      0x00\n        /* \"contracts/Take3Token.sol\":5103:5122  _isExcluded[sender] */\n      dup2\n      dup2\n      mstore\n        /* \"contracts/Take3Token.sol\":5103:5114  _isExcluded */\n      0x69\n        /* \"contracts/Take3Token.sol\":5103:5122  _isExcluded[sender] */\n      0x20\n      mstore\n      0x40\n      swap1\n      keccak256\n      sload\n      0xff\n      and\n        /* \"contracts/Take3Token.sol\":5102:5122  !_isExcluded[sender] */\n      iszero\n        /* \"contracts/Take3Token.sol\":5080:5194  require(... */\n      tag_289\n      jumpi\n      mload(0x40)\n      shl(0xe5, 0x461bcd)\n      dup2\n      mstore\n        /* \"#utility.yul\":11051:11053   */\n      0x20\n        /* \"contracts/Take3Token.sol\":5080:5194  require(... */\n      0x04\n      dup3\n      add\n        /* \"#utility.yul\":11033:11054   */\n      mstore\n        /* \"#utility.yul\":11090:11092   */\n      0x2c\n        /* \"#utility.yul\":11070:11088   */\n      0x24\n      dup3\n      add\n        /* \"#utility.yul\":11063:11093   */\n      mstore\n        /* \"#utility.yul\":11129:11163   */\n      0x4578636c75646564206164647265737365732063616e6e6f742063616c6c2074\n        /* \"#utility.yul\":11109:11127   */\n      0x44\n      dup3\n      add\n        /* \"#utility.yul\":11102:11164   */\n      mstore\n      shl(0xa1, 0x3434b990333ab731ba34b7b7)\n        /* \"#utility.yul\":11180:11198   */\n      0x64\n      dup3\n      add\n        /* \"#utility.yul\":11173:11215   */\n      mstore\n        /* \"#utility.yul\":11232:11251   */\n      0x84\n      add\n        /* \"contracts/Take3Token.sol\":5080:5194  require(... */\n      tag_246\n        /* \"#utility.yul\":10849:11257   */\n      jump\n        /* \"contracts/Take3Token.sol\":5080:5194  require(... */\n    tag_289:\n        /* \"contracts/Take3Token.sol\":5206:5221  uint256 rAmount */\n      0x00\n        /* \"contracts/Take3Token.sol\":5233:5252  _getValues(tAmount) */\n      tag_292\n        /* \"contracts/Take3Token.sol\":5244:5251  tAmount */\n      dup4\n        /* \"contracts/Take3Token.sol\":5233:5243  _getValues */\n      tag_293\n        /* \"contracts/Take3Token.sol\":5233:5252  _getValues(tAmount) */\n      jump\t// in\n    tag_292:\n      pop\n      pop\n      pop\n      pop\n      sub(shl(0xa0, 0x01), 0x01)\n        /* \"contracts/Take3Token.sol\":5281:5296  _rOwned[sender] */\n      dup4\n      and\n      0x00\n      swap1\n      dup2\n      mstore\n        /* \"contracts/Take3Token.sol\":5281:5288  _rOwned */\n      0x65\n        /* \"contracts/Take3Token.sol\":5281:5296  _rOwned[sender] */\n      0x20\n      mstore\n      0x40\n      swap1\n      keccak256\n      sload\n        /* \"contracts/Take3Token.sol\":5205:5252  (uint256 rAmount, , , , ) = _getValues(tAmount) */\n      swap1\n      swap2\n      pop\n        /* \"contracts/Take3Token.sol\":5281:5309  _rOwned[sender].sub(rAmount) */\n      tag_294\n      swap1\n        /* \"contracts/Take3Token.sol\":5205:5252  (uint256 rAmount, , , , ) = _getValues(tAmount) */\n      dup3\n        /* \"contracts/Take3Token.sol\":5281:5300  _rOwned[sender].sub */\n      tag_295\n        /* \"contracts/Take3Token.sol\":5281:5309  _rOwned[sender].sub(rAmount) */\n      jump\t// in\n    tag_294:\n      sub(shl(0xa0, 0x01), 0x01)\n        /* \"contracts/Take3Token.sol\":5263:5278  _rOwned[sender] */\n      dup4\n      and\n      0x00\n      swap1\n      dup2\n      mstore\n        /* \"contracts/Take3Token.sol\":5263:5270  _rOwned */\n      0x65\n        /* \"contracts/Take3Token.sol\":5263:5278  _rOwned[sender] */\n      0x20\n      mstore\n      0x40\n      swap1\n      keccak256\n        /* \"contracts/Take3Token.sol\":5263:5309  _rOwned[sender] = _rOwned[sender].sub(rAmount) */\n      sstore\n        /* \"contracts/Take3Token.sol\":5330:5337  _rTotal */\n      sload(0x6c)\n        /* \"contracts/Take3Token.sol\":5330:5350  _rTotal.sub(rAmount) */\n      tag_296\n      swap1\n        /* \"contracts/Take3Token.sol\":5342:5349  rAmount */\n      dup3\n        /* \"contracts/Take3Token.sol\":5330:5341  _rTotal.sub */\n      tag_295\n        /* \"contracts/Take3Token.sol\":5330:5350  _rTotal.sub(rAmount) */\n      jump\t// in\n    tag_296:\n        /* \"contracts/Take3Token.sol\":5320:5327  _rTotal */\n      0x6c\n        /* \"contracts/Take3Token.sol\":5320:5350  _rTotal = _rTotal.sub(rAmount) */\n      sstore\n        /* \"contracts/Take3Token.sol\":5374:5384  _tFeeTotal */\n      sload(0x6d)\n        /* \"contracts/Take3Token.sol\":5374:5397  _tFeeTotal.add(tAmount) */\n      tag_297\n      swap1\n        /* \"contracts/Take3Token.sol\":5389:5396  tAmount */\n      dup5\n        /* \"contracts/Take3Token.sol\":5374:5388  _tFeeTotal.add */\n      tag_286\n        /* \"contracts/Take3Token.sol\":5374:5397  _tFeeTotal.add(tAmount) */\n      jump\t// in\n    tag_297:\n        /* \"contracts/Take3Token.sol\":5361:5371  _tFeeTotal */\n      0x6d\n        /* \"contracts/Take3Token.sol\":5361:5397  _tFeeTotal = _tFeeTotal.add(tAmount) */\n      sstore\n      pop\n      pop\n      pop\n        /* \"contracts/Take3Token.sol\":4988:5405  function deliver(uint256 tAmount) public {... */\n      jump\t// out\n        /* \"contracts/Take3Token.sol\":7165:7276  function excludeFromFee(address account) public onlyOwner {... */\n    tag_115:\n        /* \"@openzeppelin/contracts-upgradeable/access/OwnableUpgradeable.sol\":1334:1347  _checkOwner() */\n      tag_299\n        /* \"@openzeppelin/contracts-upgradeable/access/OwnableUpgradeable.sol\":1334:1345  _checkOwner */\n      tag_219\n        /* \"@openzeppelin/contracts-upgradeable/access/OwnableUpgradeable.sol\":1334:1347  _checkOwner() */\n      jump\t// in\n    tag_299:\n      sub(shl(0xa0, 0x01), 0x01)\n        /* \"contracts/Take3Token.sol\":7234:7261  _isExcludedFromFee[account] */\n      and\n      0x00\n      swap1\n      dup2\n      mstore\n        /* \"contracts/Take3Token.sol\":7234:7252  _isExcludedFromFee */\n      0x68\n        /* \"contracts/Take3Token.sol\":7234:7261  _isExcludedFromFee[account] */\n      0x20\n      mstore\n      0x40\n      swap1\n      keccak256\n        /* \"contracts/Take3Token.sol\":7234:7268  _isExcludedFromFee[account] = true */\n      dup1\n      sload\n      not(0xff)\n      and\n        /* \"contracts/Take3Token.sol\":7264:7268  true */\n      0x01\n        /* \"contracts/Take3Token.sol\":7234:7268  _isExcludedFromFee[account] = true */\n      or\n      swap1\n      sstore\n        /* \"contracts/Take3Token.sol\":7165:7276  function excludeFromFee(address account) public onlyOwner {... */\n      jump\t// out\n        /* \"contracts/Take3Token.sol\":5413:5888  function reflectionFromToken(uint256 tAmount, bool deductTransferFee)... */\n    tag_120:\n        /* \"contracts/Take3Token.sol\":5531:5538  uint256 */\n      0x00\n        /* \"contracts/Take3Token.sol\":5575:5582  _tTotal */\n      sload(0x6b)\n        /* \"contracts/Take3Token.sol\":5564:5571  tAmount */\n      dup4\n        /* \"contracts/Take3Token.sol\":5564:5582  tAmount <= _tTotal */\n      gt\n      iszero\n        /* \"contracts/Take3Token.sol\":5556:5618  require(tAmount <= _tTotal, \"Amount must be less than supply\") */\n      tag_302\n      jumpi\n      mload(0x40)\n      shl(0xe5, 0x461bcd)\n      dup2\n      mstore\n        /* \"#utility.yul\":11464:11466   */\n      0x20\n        /* \"contracts/Take3Token.sol\":5556:5618  require(tAmount <= _tTotal, \"Amount must be less than supply\") */\n      0x04\n      dup3\n      add\n        /* \"#utility.yul\":11446:11467   */\n      mstore\n        /* \"#utility.yul\":11503:11505   */\n      0x1f\n        /* \"#utility.yul\":11483:11501   */\n      0x24\n      dup3\n      add\n        /* \"#utility.yul\":11476:11506   */\n      mstore\n        /* \"#utility.yul\":11542:11575   */\n      0x416d6f756e74206d757374206265206c657373207468616e20737570706c7900\n        /* \"#utility.yul\":11522:11540   */\n      0x44\n      dup3\n      add\n        /* \"#utility.yul\":11515:11576   */\n      mstore\n        /* \"#utility.yul\":11593:11611   */\n      0x64\n      add\n        /* \"contracts/Take3Token.sol\":5556:5618  require(tAmount <= _tTotal, \"Amount must be less than supply\") */\n      tag_246\n        /* \"#utility.yul\":11262:11617   */\n      jump\n        /* \"contracts/Take3Token.sol\":5556:5618  require(tAmount <= _tTotal, \"Amount must be less than supply\") */\n    tag_302:\n        /* \"contracts/Take3Token.sol\":5634:5651  deductTransferFee */\n      dup2\n        /* \"contracts/Take3Token.sol\":5629:5881  if (!deductTransferFee) {... */\n      tag_305\n      jumpi\n        /* \"contracts/Take3Token.sol\":5669:5684  uint256 rAmount */\n      0x00\n        /* \"contracts/Take3Token.sol\":5696:5715  _getValues(tAmount) */\n      tag_306\n        /* \"contracts/Take3Token.sol\":5707:5714  tAmount */\n      dup5\n        /* \"contracts/Take3Token.sol\":5696:5706  _getValues */\n      tag_293\n        /* \"contracts/Take3Token.sol\":5696:5715  _getValues(tAmount) */\n      jump\t// in\n    tag_306:\n      pop\n        /* \"contracts/Take3Token.sol\":5668:5715  (uint256 rAmount, , , , ) = _getValues(tAmount) */\n      swap3\n      swap5\n      pop\n        /* \"contracts/Take3Token.sol\":5730:5744  return rAmount */\n      tag_229\n      swap4\n      pop\n      pop\n      pop\n      pop\n      jump\n        /* \"contracts/Take3Token.sol\":5629:5881  if (!deductTransferFee) {... */\n    tag_305:\n        /* \"contracts/Take3Token.sol\":5780:5803  uint256 rTransferAmount */\n      0x00\n        /* \"contracts/Take3Token.sol\":5813:5832  _getValues(tAmount) */\n      tag_308\n        /* \"contracts/Take3Token.sol\":5824:5831  tAmount */\n      dup5\n        /* \"contracts/Take3Token.sol\":5813:5823  _getValues */\n      tag_293\n        /* \"contracts/Take3Token.sol\":5813:5832  _getValues(tAmount) */\n      jump\t// in\n    tag_308:\n      pop\n        /* \"contracts/Take3Token.sol\":5777:5832  (, uint256 rTransferAmount, , , ) = _getValues(tAmount) */\n      swap2\n      swap5\n      pop\n        /* \"contracts/Take3Token.sol\":5847:5869  return rTransferAmount */\n      tag_229\n      swap4\n      pop\n      pop\n      pop\n      pop\n      jump\n        /* \"contracts/Take3Token.sol\":19665:19759  function signers() external view returns (address[] memory) {... */\n    tag_124:\n        /* \"contracts/Take3Token.sol\":19707:19723  address[] memory */\n      0x60\n        /* \"contracts/Take3Token.sol\":19743:19751  _signers */\n      0x74\n        /* \"contracts/Take3Token.sol\":19736:19751  return _signers */\n      dup1\n      sload\n      dup1\n      0x20\n      mul\n      0x20\n      add\n      mload(0x40)\n      swap1\n      dup2\n      add\n      0x40\n      mstore\n      dup1\n      swap3\n      swap2\n      swap1\n      dup2\n      dup2\n      mstore\n      0x20\n      add\n      dup3\n      dup1\n      sload\n      dup1\n      iszero\n      tag_225\n      jumpi\n      0x20\n      mul\n      dup3\n      add\n      swap2\n      swap1\n      0x00\n      mstore\n      keccak256(0x00, 0x20)\n      swap1\n    tag_311:\n      dup2\n      sload\n      sub(shl(0xa0, 0x01), 0x01)\n      and\n      dup2\n      mstore\n      0x01\n      swap1\n      swap2\n      add\n      swap1\n      0x20\n      add\n      dup1\n      dup4\n      gt\n      tag_311\n      jumpi\n      pop\n      pop\n      pop\n      pop\n      pop\n      swap1\n      pop\n        /* \"contracts/Take3Token.sol\":19665:19759  function signers() external view returns (address[] memory) {... */\n      swap1\n      jump\t// out\n        /* \"contracts/Take3Token.sol\":10745:10852  function claimTokens() public onlyOwner {... */\n    tag_129:\n        /* \"@openzeppelin/contracts-upgradeable/access/OwnableUpgradeable.sol\":1334:1347  _checkOwner() */\n      tag_313\n        /* \"@openzeppelin/contracts-upgradeable/access/OwnableUpgradeable.sol\":1334:1345  _checkOwner */\n      tag_219\n        /* \"@openzeppelin/contracts-upgradeable/access/OwnableUpgradeable.sol\":1334:1347  _checkOwner() */\n      jump\t// in\n    tag_313:\n        /* \"@openzeppelin/contracts-upgradeable/access/OwnableUpgradeable.sol\":1513:1519  _owner */\n      sload(0x33)\n        /* \"contracts/Take3Token.sol\":10796:10844  payable(owner()).transfer(address(this).balance) */\n      mload(0x40)\n      sub(shl(0xa0, 0x01), 0x01)\n        /* \"@openzeppelin/contracts-upgradeable/access/OwnableUpgradeable.sol\":1513:1519  _owner */\n      swap1\n      swap2\n      and\n      swap1\n        /* \"contracts/Take3Token.sol\":10822:10843  address(this).balance */\n      selfbalance\n        /* \"contracts/Take3Token.sol\":10796:10844  payable(owner()).transfer(address(this).balance) */\n      dup1\n      iszero\n      0x08fc\n      mul\n      swap2\n      0x00\n      dup2\n      dup2\n      dup2\n        /* \"contracts/Take3Token.sol\":10822:10843  address(this).balance */\n      dup6\n        /* \"@openzeppelin/contracts-upgradeable/access/OwnableUpgradeable.sol\":1513:1519  _owner */\n      dup9\n        /* \"contracts/Take3Token.sol\":10796:10844  payable(owner()).transfer(address(this).balance) */\n      dup9\n      call\n      swap4\n      pop\n      pop\n      pop\n      pop\n      iszero\n      dup1\n      iszero\n      tag_317\n      jumpi\n      returndatasize\n      0x00\n      dup1\n      returndatacopy\n      revert(0x00, returndatasize)\n    tag_317:\n      pop\n        /* \"contracts/Take3Token.sol\":10745:10852  function claimTokens() public onlyOwner {... */\n      jump\t// out\n        /* \"contracts/Take3Token.sol\":20380:21467  function _permitTransfer(... */\n    tag_134:\n        /* \"contracts/Take3Token.sol\":20650:20665  block.timestamp */\n      timestamp\n        /* \"contracts/Take3Token.sol\":20638:20646  deadline */\n      dup5\n        /* \"contracts/Take3Token.sol\":20638:20665  deadline >= block.timestamp */\n      lt\n      iszero\n        /* \"contracts/Take3Token.sol\":20630:20686  require(deadline >= block.timestamp, \"Expired deadline\") */\n      tag_319\n      jumpi\n      mload(0x40)\n      shl(0xe5, 0x461bcd)\n      dup2\n      mstore\n        /* \"#utility.yul\":11824:11826   */\n      0x20\n        /* \"contracts/Take3Token.sol\":20630:20686  require(deadline >= block.timestamp, \"Expired deadline\") */\n      0x04\n      dup3\n      add\n        /* \"#utility.yul\":11806:11827   */\n      mstore\n        /* \"#utility.yul\":11863:11865   */\n      0x10\n        /* \"#utility.yul\":11843:11861   */\n      0x24\n      dup3\n      add\n        /* \"#utility.yul\":11836:11866   */\n      mstore\n      shl(0x80, 0x4578706972656420646561646c696e65)\n        /* \"#utility.yul\":11882:11900   */\n      0x44\n      dup3\n      add\n        /* \"#utility.yul\":11875:11921   */\n      mstore\n        /* \"#utility.yul\":11938:11956   */\n      0x64\n      add\n        /* \"contracts/Take3Token.sol\":20630:20686  require(deadline >= block.timestamp, \"Expired deadline\") */\n      tag_246\n        /* \"#utility.yul\":11622:11962   */\n      jump\n        /* \"contracts/Take3Token.sol\":20630:20686  require(deadline >= block.timestamp, \"Expired deadline\") */\n    tag_319:\n        /* \"contracts/Take3Token.sol\":20706:20730  uniqueIdExists[uniqueId] */\n      0x00\n      dup7\n      dup2\n      mstore\n        /* \"contracts/Take3Token.sol\":20706:20720  uniqueIdExists */\n      0x76\n        /* \"contracts/Take3Token.sol\":20706:20730  uniqueIdExists[uniqueId] */\n      0x20\n      mstore\n      0x40\n      swap1\n      keccak256\n      sload\n      0xff\n      and\n        /* \"contracts/Take3Token.sol\":20705:20730  !uniqueIdExists[uniqueId] */\n      iszero\n        /* \"contracts/Take3Token.sol\":20697:20751  require(!uniqueIdExists[uniqueId], \"Unique id exists\") */\n      tag_322\n      jumpi\n      mload(0x40)\n      shl(0xe5, 0x461bcd)\n      dup2\n      mstore\n        /* \"#utility.yul\":12169:12171   */\n      0x20\n        /* \"contracts/Take3Token.sol\":20697:20751  require(!uniqueIdExists[uniqueId], \"Unique id exists\") */\n      0x04\n      dup3\n      add\n        /* \"#utility.yul\":12151:12172   */\n      mstore\n        /* \"#utility.yul\":12208:12210   */\n      0x10\n        /* \"#utility.yul\":12188:12206   */\n      0x24\n      dup3\n      add\n        /* \"#utility.yul\":12181:12211   */\n      mstore\n      shl(0x80, 0x556e6971756520696420657869737473)\n        /* \"#utility.yul\":12227:12245   */\n      0x44\n      dup3\n      add\n        /* \"#utility.yul\":12220:12266   */\n      mstore\n        /* \"#utility.yul\":12283:12301   */\n      0x64\n      add\n        /* \"contracts/Take3Token.sol\":20697:20751  require(!uniqueIdExists[uniqueId], \"Unique id exists\") */\n      tag_246\n        /* \"#utility.yul\":11967:12307   */\n      jump\n        /* \"contracts/Take3Token.sol\":20697:20751  require(!uniqueIdExists[uniqueId], \"Unique id exists\") */\n    tag_322:\n        /* \"contracts/Take3Token.sol\":20781:20791  msg.sender */\n      caller\n        /* \"contracts/Take3Token.sol\":20764:20778  address sender */\n      0x00\n        /* \"contracts/Take3Token.sol\":20818:20831  super.owner() */\n      tag_325\n        /* \"@openzeppelin/contracts-upgradeable/access/OwnableUpgradeable.sol\":1513:1519  _owner */\n      and(sub(shl(0xa0, 0x01), 0x01), sload(0x33))\n      swap1\n        /* \"@openzeppelin/contracts-upgradeable/access/OwnableUpgradeable.sol\":1441:1526  function owner() public view virtual returns (address) {... */\n      jump\n        /* \"contracts/Take3Token.sol\":20818:20831  super.owner() */\n    tag_325:\n        /* \"contracts/Take3Token.sol\":20891:20955  abi.encode(owner, sender, recipient, amount, uniqueId, deadline) */\n      0x40\n      dup1\n      mload\n      sub(shl(0xa0, 0x01), 0x01)\n        /* \"#utility.yul\":12655:12670   */\n      dup1\n      dup5\n      and\n        /* \"contracts/Take3Token.sol\":20891:20955  abi.encode(owner, sender, recipient, amount, uniqueId, deadline) */\n      0x20\n      dup4\n      add\n        /* \"#utility.yul\":12637:12671   */\n      mstore\n        /* \"#utility.yul\":12707:12722   */\n      dup1\n      dup7\n      and\n        /* \"#utility.yul\":12687:12705   */\n      swap3\n      dup3\n      add\n        /* \"#utility.yul\":12680:12723   */\n      swap3\n      swap1\n      swap3\n      mstore\n        /* \"#utility.yul\":12759:12774   */\n      swap1\n      dup12\n      and\n        /* \"#utility.yul\":12739:12757   */\n      0x60\n      dup3\n      add\n        /* \"#utility.yul\":12732:12775   */\n      mstore\n        /* \"#utility.yul\":12791:12809   */\n      0x80\n      dup2\n      add\n        /* \"#utility.yul\":12784:12818   */\n      dup10\n      swap1\n      mstore\n        /* \"#utility.yul\":12834:12853   */\n      0xa0\n      dup2\n      add\n        /* \"#utility.yul\":12827:12862   */\n      dup11\n      swap1\n      mstore\n        /* \"#utility.yul\":12878:12897   */\n      0xc0\n      dup2\n      add\n        /* \"#utility.yul\":12871:12906   */\n      dup9\n      swap1\n      mstore\n        /* \"contracts/Take3Token.sol\":20802:20831  address owner = super.owner() */\n      swap1\n      swap2\n      pop\n        /* \"contracts/Take3Token.sol\":20844:20864  bytes32 permitTxHash */\n      0x00\n      swap1\n        /* \"#utility.yul\":12571:12590   */\n      0xe0\n      add\n        /* \"contracts/Take3Token.sol\":20891:20955  abi.encode(owner, sender, recipient, amount, uniqueId, deadline) */\n      mload(0x40)\n      0x20\n      dup2\n      dup4\n      sub\n      sub\n      dup2\n      mstore\n      swap1\n      0x40\n      mstore\n        /* \"contracts/Take3Token.sol\":20867:20966  keccak256(... */\n      dup1\n      mload\n      swap1\n      0x20\n      add\n      keccak256\n        /* \"contracts/Take3Token.sol\":20844:20966  bytes32 permitTxHash = keccak256(... */\n      swap1\n      pop\n        /* \"contracts/Take3Token.sol\":20979:20995  address lastAddr */\n      0x00\n        /* \"contracts/Take3Token.sol\":21019:21040  uint8 verifiedSigners */\n      dup1\n        /* \"contracts/Take3Token.sol\":21060:21068  uint64 i */\n      0x00\n        /* \"contracts/Take3Token.sol\":21055:21317  for (uint64 i = 0; i < v.length; i++) {... */\n    tag_328:\n        /* \"contracts/Take3Token.sol\":21078:21079  v */\n      dup9\n        /* \"contracts/Take3Token.sol\":21078:21086  v.length */\n      mload\n        /* \"contracts/Take3Token.sol\":21074:21075  i */\n      dup2\n      sub(shl(0x40, 0x01), 0x01)\n        /* \"contracts/Take3Token.sol\":21074:21086  i < v.length */\n      and\n      lt\n        /* \"contracts/Take3Token.sol\":21055:21317  for (uint64 i = 0; i < v.length; i++) {... */\n      iszero\n      tag_329\n      jumpi\n        /* \"contracts/Take3Token.sol\":21108:21125  address recovered */\n      0x00\n        /* \"contracts/Take3Token.sol\":21128:21169  ecrecover(permitTxHash, v[i], r[i], s[i]) */\n      0x01\n        /* \"contracts/Take3Token.sol\":21138:21150  permitTxHash */\n      dup6\n        /* \"contracts/Take3Token.sol\":21152:21153  v */\n      dup12\n        /* \"contracts/Take3Token.sol\":21154:21155  i */\n      dup5\n      sub(shl(0x40, 0x01), 0x01)\n        /* \"contracts/Take3Token.sol\":21152:21156  v[i] */\n      and\n      dup2\n      mload\n      dup2\n      lt\n      tag_332\n      jumpi\n      tag_332\n      tag_264\n      jump\t// in\n    tag_332:\n      0x20\n      mul\n      0x20\n      add\n      add\n      mload\n        /* \"contracts/Take3Token.sol\":21158:21159  r */\n      dup12\n        /* \"contracts/Take3Token.sol\":21160:21161  i */\n      dup6\n      sub(shl(0x40, 0x01), 0x01)\n        /* \"contracts/Take3Token.sol\":21158:21162  r[i] */\n      and\n      dup2\n      mload\n      dup2\n      lt\n      tag_334\n      jumpi\n      tag_334\n      tag_264\n      jump\t// in\n    tag_334:\n      0x20\n      mul\n      0x20\n      add\n      add\n      mload\n        /* \"contracts/Take3Token.sol\":21164:21165  s */\n      dup12\n        /* \"contracts/Take3Token.sol\":21166:21167  i */\n      dup7\n      sub(shl(0x40, 0x01), 0x01)\n        /* \"contracts/Take3Token.sol\":21164:21168  s[i] */\n      and\n      dup2\n      mload\n      dup2\n      lt\n      tag_336\n      jumpi\n      tag_336\n      tag_264\n      jump\t// in\n    tag_336:\n      0x20\n      mul\n      0x20\n      add\n      add\n      mload\n        /* \"contracts/Take3Token.sol\":21128:21169  ecrecover(permitTxHash, v[i], r[i], s[i]) */\n      mload(0x40)\n      0x00\n      dup2\n      mstore\n      0x20\n      add\n      0x40\n      mstore\n      mload(0x40)\n      tag_337\n      swap5\n      swap4\n      swap3\n      swap2\n      swap1\n        /* \"#utility.yul\":13144:13169   */\n      swap4\n      dup5\n      mstore\n        /* \"#utility.yul\":13217:13221   */\n      0xff\n        /* \"#utility.yul\":13205:13222   */\n      swap3\n      swap1\n      swap3\n      and\n        /* \"#utility.yul\":13200:13202   */\n      0x20\n        /* \"#utility.yul\":13185:13203   */\n      dup5\n      add\n        /* \"#utility.yul\":13178:13223   */\n      mstore\n        /* \"#utility.yul\":13254:13256   */\n      0x40\n        /* \"#utility.yul\":13239:13257   */\n      dup4\n      add\n        /* \"#utility.yul\":13232:13266   */\n      mstore\n        /* \"#utility.yul\":13297:13299   */\n      0x60\n        /* \"#utility.yul\":13282:13300   */\n      dup3\n      add\n        /* \"#utility.yul\":13275:13309   */\n      mstore\n        /* \"#utility.yul\":13131:13134   */\n      0x80\n        /* \"#utility.yul\":13116:13135   */\n      add\n      swap1\n        /* \"#utility.yul\":12917:13315   */\n      jump\n        /* \"contracts/Take3Token.sol\":21128:21169  ecrecover(permitTxHash, v[i], r[i], s[i]) */\n    tag_337:\n      0x20\n      mload(0x40)\n      0x20\n      dup2\n      sub\n      swap1\n      dup1\n      dup5\n      sub\n      swap1\n      dup6\n      gas\n      staticcall\n      iszero\n      dup1\n      iszero\n      tag_340\n      jumpi\n      returndatasize\n      0x00\n      dup1\n      returndatacopy\n      revert(0x00, returndatasize)\n    tag_340:\n      pop\n      pop\n      pop\n      mload(sub(mload(0x40), 0x20))\n        /* \"contracts/Take3Token.sol\":21108:21169  address recovered = ecrecover(permitTxHash, v[i], r[i], s[i]) */\n      swap1\n      pop\n        /* \"contracts/Take3Token.sol\":21200:21208  lastAddr */\n      dup4\n      sub(shl(0xa0, 0x01), 0x01)\n        /* \"contracts/Take3Token.sol\":21188:21208  recovered > lastAddr */\n      and\n        /* \"contracts/Take3Token.sol\":21188:21197  recovered */\n      dup2\n      sub(shl(0xa0, 0x01), 0x01)\n        /* \"contracts/Take3Token.sol\":21188:21208  recovered > lastAddr */\n      and\n      gt\n        /* \"contracts/Take3Token.sol\":21188:21234  recovered > lastAddr && _mapSigners[recovered] */\n      dup1\n      iszero\n      tag_341\n      jumpi\n      pop\n      sub(shl(0xa0, 0x01), 0x01)\n        /* \"contracts/Take3Token.sol\":21212:21234  _mapSigners[recovered] */\n      dup2\n      and\n      0x00\n      swap1\n      dup2\n      mstore\n        /* \"contracts/Take3Token.sol\":21212:21223  _mapSigners */\n      0x75\n        /* \"contracts/Take3Token.sol\":21212:21234  _mapSigners[recovered] */\n      0x20\n      mstore\n      0x40\n      swap1\n      keccak256\n      sload\n      0xff\n      and\n        /* \"contracts/Take3Token.sol\":21188:21234  recovered > lastAddr && _mapSigners[recovered] */\n    tag_341:\n        /* \"contracts/Take3Token.sol\":21184:21270  if (recovered > lastAddr && _mapSigners[recovered])... */\n      iszero\n      tag_342\n      jumpi\n        /* \"contracts/Take3Token.sol\":21253:21270  verifiedSigners++ */\n      dup3\n      tag_343\n      dup2\n      tag_344\n      jump\t// in\n    tag_343:\n      swap4\n      pop\n      pop\n        /* \"contracts/Take3Token.sol\":21184:21270  if (recovered > lastAddr && _mapSigners[recovered])... */\n    tag_342:\n        /* \"contracts/Take3Token.sol\":21296:21305  recovered */\n      swap3\n      pop\n        /* \"contracts/Take3Token.sol\":21088:21091  i++ */\n      dup1\n      tag_345\n      dup2\n      tag_346\n      jump\t// in\n    tag_345:\n      swap2\n      pop\n      pop\n        /* \"contracts/Take3Token.sol\":21055:21317  for (uint64 i = 0; i < v.length; i++) {... */\n      jump(tag_328)\n    tag_329:\n      pop\n        /* \"contracts/Take3Token.sol\":21337:21352  verifiedSigners */\n      dup1\n        /* \"contracts/Take3Token.sol\":21337:21357  verifiedSigners == 3 */\n      0xff\n      and\n        /* \"contracts/Take3Token.sol\":21356:21357  3 */\n      0x03\n        /* \"contracts/Take3Token.sol\":21337:21357  verifiedSigners == 3 */\n      eq\n        /* \"contracts/Take3Token.sol\":21329:21377  require(verifiedSigners == 3, \"Invalid signers\") */\n      tag_347\n      jumpi\n      mload(0x40)\n      shl(0xe5, 0x461bcd)\n      dup2\n      mstore\n        /* \"#utility.yul\":13916:13918   */\n      0x20\n        /* \"contracts/Take3Token.sol\":21329:21377  require(verifiedSigners == 3, \"Invalid signers\") */\n      0x04\n      dup3\n      add\n        /* \"#utility.yul\":13898:13919   */\n      mstore\n        /* \"#utility.yul\":13955:13957   */\n      0x0f\n        /* \"#utility.yul\":13935:13953   */\n      0x24\n      dup3\n      add\n        /* \"#utility.yul\":13928:13958   */\n      mstore\n      shl(0x88, 0x496e76616c6964207369676e657273)\n        /* \"#utility.yul\":13974:13992   */\n      0x44\n      dup3\n      add\n        /* \"#utility.yul\":13967:14012   */\n      mstore\n        /* \"#utility.yul\":14029:14047   */\n      0x64\n      add\n        /* \"contracts/Take3Token.sol\":21329:21377  require(verifiedSigners == 3, \"Invalid signers\") */\n      tag_246\n        /* \"#utility.yul\":13714:14053   */\n      jump\n        /* \"contracts/Take3Token.sol\":21329:21377  require(verifiedSigners == 3, \"Invalid signers\") */\n    tag_347:\n        /* \"contracts/Take3Token.sol\":21390:21414  uniqueIdExists[uniqueId] */\n      0x00\n      dup12\n      dup2\n      mstore\n        /* \"contracts/Take3Token.sol\":21390:21404  uniqueIdExists */\n      0x76\n        /* \"contracts/Take3Token.sol\":21390:21414  uniqueIdExists[uniqueId] */\n      0x20\n      mstore\n      0x40\n      swap1\n      keccak256\n        /* \"contracts/Take3Token.sol\":21390:21421  uniqueIdExists[uniqueId] = true */\n      dup1\n      sload\n      not(0xff)\n      and\n        /* \"contracts/Take3Token.sol\":21417:21421  true */\n      0x01\n        /* \"contracts/Take3Token.sol\":21390:21421  uniqueIdExists[uniqueId] = true */\n      or\n      swap1\n      sstore\n        /* \"contracts/Take3Token.sol\":21432:21459  transfer(recipient, amount) */\n      tag_350\n        /* \"contracts/Take3Token.sol\":21441:21450  recipient */\n      dup13\n        /* \"contracts/Take3Token.sol\":21452:21458  amount */\n      dup12\n        /* \"contracts/Take3Token.sol\":21432:21440  transfer */\n      tag_192\n        /* \"contracts/Take3Token.sol\":21432:21459  transfer(recipient, amount) */\n      jump\t// in\n    tag_350:\n      pop\n        /* \"contracts/Take3Token.sol\":20619:21467  {... */\n      pop\n      pop\n      pop\n      pop\n      pop\n        /* \"contracts/Take3Token.sol\":20380:21467  function _permitTransfer(... */\n      pop\n      pop\n      pop\n      pop\n      pop\n      pop\n      pop\n      jump\t// out\n        /* \"contracts/Take3Token.sol\":6226:6672  function excludeFromReward(address account) public onlyOwner {... */\n    tag_138:\n        /* \"@openzeppelin/contracts-upgradeable/access/OwnableUpgradeable.sol\":1334:1347  _checkOwner() */\n      tag_352\n        /* \"@openzeppelin/contracts-upgradeable/access/OwnableUpgradeable.sol\":1334:1345  _checkOwner */\n      tag_219\n        /* \"@openzeppelin/contracts-upgradeable/access/OwnableUpgradeable.sol\":1334:1347  _checkOwner() */\n      jump\t// in\n    tag_352:\n      sub(shl(0xa0, 0x01), 0x01)\n        /* \"contracts/Take3Token.sol\":6421:6441  _isExcluded[account] */\n      dup2\n      and\n      0x00\n      swap1\n      dup2\n      mstore\n        /* \"contracts/Take3Token.sol\":6421:6432  _isExcluded */\n      0x69\n        /* \"contracts/Take3Token.sol\":6421:6441  _isExcluded[account] */\n      0x20\n      mstore\n      0x40\n      swap1\n      keccak256\n      sload\n      0xff\n      and\n        /* \"contracts/Take3Token.sol\":6420:6441  !_isExcluded[account] */\n      iszero\n        /* \"contracts/Take3Token.sol\":6412:6473  require(!_isExcluded[account], \"Account is already excluded\") */\n      tag_354\n      jumpi\n      mload(0x40)\n      shl(0xe5, 0x461bcd)\n      dup2\n      mstore\n        /* \"#utility.yul\":10029:10031   */\n      0x20\n        /* \"contracts/Take3Token.sol\":6412:6473  require(!_isExcluded[account], \"Account is already excluded\") */\n      0x04\n      dup3\n      add\n        /* \"#utility.yul\":10011:10032   */\n      mstore\n        /* \"#utility.yul\":10068:10070   */\n      0x1b\n        /* \"#utility.yul\":10048:10066   */\n      0x24\n      dup3\n      add\n        /* \"#utility.yul\":10041:10071   */\n      mstore\n        /* \"#utility.yul\":10107:10136   */\n      0x4163636f756e7420697320616c7265616479206578636c756465640000000000\n        /* \"#utility.yul\":10087:10105   */\n      0x44\n      dup3\n      add\n        /* \"#utility.yul\":10080:10137   */\n      mstore\n        /* \"#utility.yul\":10154:10172   */\n      0x64\n      add\n        /* \"contracts/Take3Token.sol\":6412:6473  require(!_isExcluded[account], \"Account is already excluded\") */\n      tag_246\n        /* \"#utility.yul\":9827:10178   */\n      jump\n        /* \"contracts/Take3Token.sol\":6412:6473  require(!_isExcluded[account], \"Account is already excluded\") */\n    tag_354:\n      sub(shl(0xa0, 0x01), 0x01)\n        /* \"contracts/Take3Token.sol\":6488:6504  _rOwned[account] */\n      dup2\n      and\n        /* \"contracts/Take3Token.sol\":6507:6508  0 */\n      0x00\n        /* \"contracts/Take3Token.sol\":6488:6504  _rOwned[account] */\n      swap1\n      dup2\n      mstore\n        /* \"contracts/Take3Token.sol\":6488:6495  _rOwned */\n      0x65\n        /* \"contracts/Take3Token.sol\":6488:6504  _rOwned[account] */\n      0x20\n      mstore\n      0x40\n      swap1\n      keccak256\n      sload\n        /* \"contracts/Take3Token.sol\":6488:6508  _rOwned[account] > 0 */\n      iszero\n        /* \"contracts/Take3Token.sol\":6484:6593  if (_rOwned[account] > 0) {... */\n      tag_356\n      jumpi\n      sub(shl(0xa0, 0x01), 0x01)\n        /* \"contracts/Take3Token.sol\":6564:6580  _rOwned[account] */\n      dup2\n      and\n      0x00\n      swap1\n      dup2\n      mstore\n        /* \"contracts/Take3Token.sol\":6564:6571  _rOwned */\n      0x65\n        /* \"contracts/Take3Token.sol\":6564:6580  _rOwned[account] */\n      0x20\n      mstore\n      0x40\n      swap1\n      keccak256\n      sload\n        /* \"contracts/Take3Token.sol\":6544:6581  tokenFromReflection(_rOwned[account]) */\n      tag_357\n      swap1\n        /* \"contracts/Take3Token.sol\":6544:6563  tokenFromReflection */\n      tag_89\n        /* \"contracts/Take3Token.sol\":6544:6581  tokenFromReflection(_rOwned[account]) */\n      jump\t// in\n    tag_357:\n      sub(shl(0xa0, 0x01), 0x01)\n        /* \"contracts/Take3Token.sol\":6525:6541  _tOwned[account] */\n      dup3\n      and\n      0x00\n      swap1\n      dup2\n      mstore\n        /* \"contracts/Take3Token.sol\":6525:6532  _tOwned */\n      0x66\n        /* \"contracts/Take3Token.sol\":6525:6541  _tOwned[account] */\n      0x20\n      mstore\n      0x40\n      swap1\n      keccak256\n        /* \"contracts/Take3Token.sol\":6525:6581  _tOwned[account] = tokenFromReflection(_rOwned[account]) */\n      sstore\n        /* \"contracts/Take3Token.sol\":6484:6593  if (_rOwned[account] > 0) {... */\n    tag_356:\n      sub(shl(0xa0, 0x01), 0x01)\n        /* \"contracts/Take3Token.sol\":6603:6623  _isExcluded[account] */\n      and\n      0x00\n      dup2\n      dup2\n      mstore\n        /* \"contracts/Take3Token.sol\":6603:6614  _isExcluded */\n      0x69\n        /* \"contracts/Take3Token.sol\":6603:6623  _isExcluded[account] */\n      0x20\n      mstore\n      0x40\n      dup2\n      keccak256\n        /* \"contracts/Take3Token.sol\":6603:6630  _isExcluded[account] = true */\n      dup1\n      sload\n      not(0xff)\n      and\n        /* \"contracts/Take3Token.sol\":6626:6630  true */\n      0x01\n        /* \"contracts/Take3Token.sol\":6603:6630  _isExcluded[account] = true */\n      swap1\n      dup2\n      or\n      swap1\n      swap2\n      sstore\n        /* \"contracts/Take3Token.sol\":6641:6650  _excluded */\n      0x6a\n        /* \"contracts/Take3Token.sol\":6641:6664  _excluded.push(account) */\n      dup1\n      sload\n      swap2\n      dup3\n      add\n      dup2\n      sstore\n      swap1\n      swap2\n      mstore\n      0x116fea137db6e131133e7f2bab296045d8f41cc5607279db17b218cab0929a51\n      add\n      dup1\n      sload\n      not(sub(shl(0xa0, 0x01), 0x01))\n      and\n      swap1\n      swap2\n      or\n      swap1\n      sstore\n        /* \"contracts/Take3Token.sol\":6226:6672  function excludeFromReward(address account) public onlyOwner {... */\n      jump\t// out\n        /* \"contracts/Take3Token.sol\":2789:2987  function balanceOf(address account) public view override returns (uint256) {... */\n    tag_151:\n      sub(shl(0xa0, 0x01), 0x01)\n        /* \"contracts/Take3Token.sol\":2879:2899  _isExcluded[account] */\n      dup2\n      and\n        /* \"contracts/Take3Token.sol\":2855:2862  uint256 */\n      0x00\n        /* \"contracts/Take3Token.sol\":2879:2899  _isExcluded[account] */\n      swap1\n      dup2\n      mstore\n        /* \"contracts/Take3Token.sol\":2879:2890  _isExcluded */\n      0x69\n        /* \"contracts/Take3Token.sol\":2879:2899  _isExcluded[account] */\n      0x20\n      mstore\n      0x40\n      dup2\n      keccak256\n      sload\n      0xff\n      and\n        /* \"contracts/Take3Token.sol\":2875:2924  if (_isExcluded[account]) return _tOwned[account] */\n      iszero\n      tag_362\n      jumpi\n      pop\n      sub(shl(0xa0, 0x01), 0x01)\n        /* \"contracts/Take3Token.sol\":2908:2924  _tOwned[account] */\n      and\n      0x00\n      swap1\n      dup2\n      mstore\n        /* \"contracts/Take3Token.sol\":2908:2915  _tOwned */\n      0x66\n        /* \"contracts/Take3Token.sol\":2908:2924  _tOwned[account] */\n      0x20\n      mstore\n      0x40\n      swap1\n      keccak256\n      sload\n      swap1\n        /* \"contracts/Take3Token.sol\":2789:2987  function balanceOf(address account) public view override returns (uint256) {... */\n      jump\t// out\n        /* \"contracts/Take3Token.sol\":2875:2924  if (_isExcluded[account]) return _tOwned[account] */\n    tag_362:\n      sub(shl(0xa0, 0x01), 0x01)\n        /* \"contracts/Take3Token.sol\":2962:2978  _rOwned[account] */\n      dup3\n      and\n      0x00\n      swap1\n      dup2\n      mstore\n        /* \"contracts/Take3Token.sol\":2962:2969  _rOwned */\n      0x65\n        /* \"contracts/Take3Token.sol\":2962:2978  _rOwned[account] */\n      0x20\n      mstore\n      0x40\n      swap1\n      keccak256\n      sload\n        /* \"contracts/Take3Token.sol\":2942:2979  tokenFromReflection(_rOwned[account]) */\n      tag_229\n      swap1\n        /* \"contracts/Take3Token.sol\":2942:2961  tokenFromReflection */\n      tag_89\n        /* \"contracts/Take3Token.sol\":2942:2979  tokenFromReflection(_rOwned[account]) */\n      jump\t// in\n        /* \"@openzeppelin/contracts-upgradeable/access/OwnableUpgradeable.sol\":2071:2172  function renounceOwnership() public virtual onlyOwner {... */\n    tag_155:\n        /* \"@openzeppelin/contracts-upgradeable/access/OwnableUpgradeable.sol\":1334:1347  _checkOwner() */\n      tag_365\n        /* \"@openzeppelin/contracts-upgradeable/access/OwnableUpgradeable.sol\":1334:1345  _checkOwner */\n      tag_219\n        /* \"@openzeppelin/contracts-upgradeable/access/OwnableUpgradeable.sol\":1334:1347  _checkOwner() */\n      jump\t// in\n    tag_365:\n        /* \"@openzeppelin/contracts-upgradeable/access/OwnableUpgradeable.sol\":2135:2165  _transferOwnership(address(0)) */\n      tag_367\n        /* \"@openzeppelin/contracts-upgradeable/access/OwnableUpgradeable.sol\":2162:2163  0 */\n      0x00\n        /* \"@openzeppelin/contracts-upgradeable/access/OwnableUpgradeable.sol\":2135:2153  _transferOwnership */\n      tag_368\n        /* \"@openzeppelin/contracts-upgradeable/access/OwnableUpgradeable.sol\":2135:2165  _transferOwnership(address(0)) */\n      jump\t// in\n    tag_367:\n        /* \"@openzeppelin/contracts-upgradeable/access/OwnableUpgradeable.sol\":2071:2172  function renounceOwnership() public virtual onlyOwner {... */\n      jump\t// out\n        /* \"contracts/Take3Token.sol\":2398:2485  function symbol() public view returns (string memory) {... */\n    tag_172:\n        /* \"contracts/Take3Token.sol\":2437:2450  string memory */\n      0x60\n        /* \"contracts/Take3Token.sol\":2470:2477  _symbol */\n      0x6f\n        /* \"contracts/Take3Token.sol\":2463:2477  return _symbol */\n      dup1\n      sload\n      tag_222\n      swap1\n      tag_223\n      jump\t// in\n        /* \"contracts/Take3Token.sol\":19767:20006  function setSigners(address[] memory signers_) external virtual onlyOwner {... */\n    tag_178:\n        /* \"@openzeppelin/contracts-upgradeable/access/OwnableUpgradeable.sol\":1334:1347  _checkOwner() */\n      tag_378\n        /* \"@openzeppelin/contracts-upgradeable/access/OwnableUpgradeable.sol\":1334:1345  _checkOwner */\n      tag_219\n        /* \"@openzeppelin/contracts-upgradeable/access/OwnableUpgradeable.sol\":1334:1347  _checkOwner() */\n      jump\t// in\n    tag_378:\n        /* \"contracts/Take3Token.sol\":19852:19892  _updateMap(_signers, false, _mapSigners) */\n      tag_380\n        /* \"contracts/Take3Token.sol\":19863:19871  _signers */\n      0x74\n        /* \"contracts/Take3Token.sol\":19852:19892  _updateMap(_signers, false, _mapSigners) */\n      dup1\n      sload\n      dup1\n      0x20\n      mul\n      0x20\n      add\n      mload(0x40)\n      swap1\n      dup2\n      add\n      0x40\n      mstore\n      dup1\n      swap3\n      swap2\n      swap1\n      dup2\n      dup2\n      mstore\n      0x20\n      add\n      dup3\n      dup1\n      sload\n      dup1\n      iszero\n      tag_381\n      jumpi\n      0x20\n      mul\n      dup3\n      add\n      swap2\n      swap1\n      0x00\n      mstore\n      keccak256(0x00, 0x20)\n      swap1\n    tag_382:\n      dup2\n      sload\n      sub(shl(0xa0, 0x01), 0x01)\n      and\n      dup2\n      mstore\n      0x01\n      swap1\n      swap2\n      add\n      swap1\n      0x20\n      add\n      dup1\n      dup4\n      gt\n      tag_382\n      jumpi\n    tag_381:\n      pop\n      pop\n      pop\n      pop\n      pop\n        /* \"contracts/Take3Token.sol\":19873:19878  false */\n      0x00\n        /* \"contracts/Take3Token.sol\":19880:19891  _mapSigners */\n      0x75\n        /* \"contracts/Take3Token.sol\":19852:19862  _updateMap */\n      tag_383\n        /* \"contracts/Take3Token.sol\":19852:19892  _updateMap(_signers, false, _mapSigners) */\n      jump\t// in\n    tag_380:\n        /* \"contracts/Take3Token.sol\":19903:19918  delete _signers */\n      tag_384\n        /* \"contracts/Take3Token.sol\":19910:19918  _signers */\n      0x74\n      0x00\n        /* \"contracts/Take3Token.sol\":19903:19918  delete _signers */\n      tag_385\n      jump\t// in\n    tag_384:\n        /* \"contracts/Take3Token.sol\":19929:19948  _signers = signers_ */\n      dup1\n      mload\n      tag_386\n      swap1\n        /* \"contracts/Take3Token.sol\":19929:19937  _signers */\n      0x74\n      swap1\n        /* \"contracts/Take3Token.sol\":19929:19948  _signers = signers_ */\n      0x20\n      dup5\n      add\n      swap1\n      tag_387\n      jump\t// in\n    tag_386:\n      pop\n        /* \"contracts/Take3Token.sol\":19959:19998  _updateMap(signers_, true, _mapSigners) */\n      tag_317\n        /* \"contracts/Take3Token.sol\":19970:19978  signers_ */\n      dup2\n        /* \"contracts/Take3Token.sol\":19980:19984  true */\n      0x01\n        /* \"contracts/Take3Token.sol\":19986:19997  _mapSigners */\n      0x75\n        /* \"contracts/Take3Token.sol\":19959:19969  _updateMap */\n      tag_383\n        /* \"contracts/Take3Token.sol\":19959:19998  _updateMap(signers_, true, _mapSigners) */\n      jump\t// in\n        /* \"contracts/Take3Token.sol\":4357:4757  function decreaseAllowance(address spender, uint256 subtractedValue)... */\n    tag_182:\n        /* \"contracts/Take3Token.sol\":4477:4481  bool */\n      0x00\n        /* \"contracts/Take3Token.sol\":4499:4727  _approve(... */\n      tag_230\n        /* \"@openzeppelin/contracts-upgradeable/utils/ContextUpgradeable.sol\":929:939  msg.sender */\n      caller\n        /* \"contracts/Take3Token.sol\":4549:4556  spender */\n      dup5\n        /* \"contracts/Take3Token.sol\":4571:4716  _allowances[_msgSender()][spender].sub(... */\n      tag_241\n        /* \"contracts/Take3Token.sol\":4628:4643  subtractedValue */\n      dup6\n        /* \"contracts/Take3Token.sol\":4571:4716  _allowances[_msgSender()][spender].sub(... */\n      mload(0x40)\n      dup1\n      0x60\n      add\n      0x40\n      mstore\n      dup1\n      0x25\n      dup2\n      mstore\n      0x20\n      add\n      data_f8b476f7d28209d77d4a4ac1fe36b9f8259aa1bb6bddfa6e89de7e51615cf8a8\n      0x25\n      swap2\n      codecopy\n        /* \"@openzeppelin/contracts-upgradeable/utils/ContextUpgradeable.sol\":929:939  msg.sender */\n      caller\n        /* \"contracts/Take3Token.sol\":4571:4596  _allowances[_msgSender()] */\n      0x00\n      swap1\n      dup2\n      mstore\n        /* \"contracts/Take3Token.sol\":4571:4582  _allowances */\n      0x67\n        /* \"contracts/Take3Token.sol\":4571:4596  _allowances[_msgSender()] */\n      0x20\n      swap1\n      dup2\n      mstore\n      0x40\n      dup1\n      dup4\n      keccak256\n      sub(shl(0xa0, 0x01), 0x01)\n        /* \"contracts/Take3Token.sol\":4571:4605  _allowances[_msgSender()][spender] */\n      dup14\n      and\n      dup5\n      mstore\n      swap1\n      swap2\n      mstore\n      swap1\n      keccak256\n      sload\n      swap2\n      swap1\n        /* \"contracts/Take3Token.sol\":4571:4609  _allowances[_msgSender()][spender].sub */\n      tag_243\n        /* \"contracts/Take3Token.sol\":4571:4716  _allowances[_msgSender()][spender].sub(... */\n      jump\t// in\n        /* \"contracts/Take3Token.sol\":1328:2299  function initialize(... */\n    tag_188:\n        /* \"@openzeppelin/contracts-upgradeable/proxy/utils/Initializable.sol\":3111:3130  bool isTopLevelCall */\n      0x00\n        /* \"@openzeppelin/contracts-upgradeable/proxy/utils/Initializable.sol\":3134:3147  _initializing */\n      sload\n      0x0100\n      swap1\n      div\n      0xff\n      and\n        /* \"@openzeppelin/contracts-upgradeable/proxy/utils/Initializable.sol\":3133:3147  !_initializing */\n      iszero\n      dup1\n        /* \"@openzeppelin/contracts-upgradeable/proxy/utils/Initializable.sol\":3179:3213  isTopLevelCall && _initialized < 1 */\n      dup1\n      iszero\n      tag_395\n      jumpi\n      pop\n        /* \"@openzeppelin/contracts-upgradeable/proxy/utils/Initializable.sol\":3197:3209  _initialized */\n      sload(0x00)\n        /* \"@openzeppelin/contracts-upgradeable/proxy/utils/Initializable.sol\":3212:3213  1 */\n      0x01\n        /* \"@openzeppelin/contracts-upgradeable/proxy/utils/Initializable.sol\":3197:3209  _initialized */\n      0xff\n      swap1\n      swap2\n      and\n        /* \"@openzeppelin/contracts-upgradeable/proxy/utils/Initializable.sol\":3197:3213  _initialized < 1 */\n      lt\n        /* \"@openzeppelin/contracts-upgradeable/proxy/utils/Initializable.sol\":3179:3213  isTopLevelCall && _initialized < 1 */\n    tag_395:\n        /* \"@openzeppelin/contracts-upgradeable/proxy/utils/Initializable.sol\":3178:3286  (isTopLevelCall && _initialized < 1) || (!AddressUpgradeable.isContract(address(this)) && _initialized == 1) */\n      dup1\n      tag_399\n      jumpi\n      pop\n        /* \"@openzeppelin/contracts-upgradeable/proxy/utils/Initializable.sol\":3258:3262  this */\n      address\n        /* \"@openzeppelin/contracts-upgradeable/utils/AddressUpgradeable.sol\":1476:1495  account.code.length */\n      extcodesize\n        /* \"@openzeppelin/contracts-upgradeable/utils/AddressUpgradeable.sol\":1476:1499  account.code.length > 0 */\n      iszero\n      dup1\n      iszero\n        /* \"@openzeppelin/contracts-upgradeable/proxy/utils/Initializable.sol\":3219:3285  !AddressUpgradeable.isContract(address(this)) && _initialized == 1 */\n      tag_399\n      jumpi\n      pop\n        /* \"@openzeppelin/contracts-upgradeable/proxy/utils/Initializable.sol\":3268:3280  _initialized */\n      and(0xff, sload(0x00))\n      0x01\n        /* \"@openzeppelin/contracts-upgradeable/proxy/utils/Initializable.sol\":3268:3285  _initialized == 1 */\n      eq\n        /* \"@openzeppelin/contracts-upgradeable/proxy/utils/Initializable.sol\":3219:3285  !AddressUpgradeable.isContract(address(this)) && _initialized == 1 */\n    tag_399:\n        /* \"@openzeppelin/contracts-upgradeable/proxy/utils/Initializable.sol\":3157:3358  require(... */\n      tag_400\n      jumpi\n      mload(0x40)\n      shl(0xe5, 0x461bcd)\n      dup2\n      mstore\n        /* \"#utility.yul\":14260:14262   */\n      0x20\n        /* \"@openzeppelin/contracts-upgradeable/proxy/utils/Initializable.sol\":3157:3358  require(... */\n      0x04\n      dup3\n      add\n        /* \"#utility.yul\":14242:14263   */\n      mstore\n        /* \"#utility.yul\":14299:14301   */\n      0x2e\n        /* \"#utility.yul\":14279:14297   */\n      0x24\n      dup3\n      add\n        /* \"#utility.yul\":14272:14302   */\n      mstore\n        /* \"#utility.yul\":14338:14372   */\n      0x496e697469616c697a61626c653a20636f6e747261637420697320616c726561\n        /* \"#utility.yul\":14318:14336   */\n      0x44\n      dup3\n      add\n        /* \"#utility.yul\":14311:14373   */\n      mstore\n      shl(0x92, 0x191e481a5b9a5d1a585b1a5e9959)\n        /* \"#utility.yul\":14389:14407   */\n      0x64\n      dup3\n      add\n        /* \"#utility.yul\":14382:14426   */\n      mstore\n        /* \"#utility.yul\":14443:14462   */\n      0x84\n      add\n        /* \"@openzeppelin/contracts-upgradeable/proxy/utils/Initializable.sol\":3157:3358  require(... */\n      tag_246\n        /* \"#utility.yul\":14058:14468   */\n      jump\n        /* \"@openzeppelin/contracts-upgradeable/proxy/utils/Initializable.sol\":3157:3358  require(... */\n    tag_400:\n        /* \"@openzeppelin/contracts-upgradeable/proxy/utils/Initializable.sol\":3368:3380  _initialized */\n      0x00\n        /* \"@openzeppelin/contracts-upgradeable/proxy/utils/Initializable.sol\":3368:3384  _initialized = 1 */\n      dup1\n      sload\n      not(0xff)\n      and\n        /* \"@openzeppelin/contracts-upgradeable/proxy/utils/Initializable.sol\":3383:3384  1 */\n      0x01\n        /* \"@openzeppelin/contracts-upgradeable/proxy/utils/Initializable.sol\":3368:3384  _initialized = 1 */\n      or\n      swap1\n      sstore\n        /* \"@openzeppelin/contracts-upgradeable/proxy/utils/Initializable.sol\":3394:3459  if (isTopLevelCall) {... */\n      dup1\n      iszero\n      tag_403\n      jumpi\n        /* \"@openzeppelin/contracts-upgradeable/proxy/utils/Initializable.sol\":3428:3441  _initializing */\n      0x00\n        /* \"@openzeppelin/contracts-upgradeable/proxy/utils/Initializable.sol\":3428:3448  _initializing = true */\n      dup1\n      sload\n      not(0xff00)\n      and\n      0x0100\n      or\n      swap1\n      sstore\n        /* \"@openzeppelin/contracts-upgradeable/proxy/utils/Initializable.sol\":3394:3459  if (isTopLevelCall) {... */\n    tag_403:\n        /* \"contracts/Take3Token.sol\":1618:1634  __Ownable_init() */\n      tag_405\n        /* \"contracts/Take3Token.sol\":1618:1632  __Ownable_init */\n      tag_406\n        /* \"contracts/Take3Token.sol\":1618:1634  __Ownable_init() */\n      jump\t// in\n    tag_405:\n        /* \"contracts/Take3Token.sol\":1647:1660  _name = _NAME */\n      dup8\n      mload\n      tag_407\n      swap1\n        /* \"contracts/Take3Token.sol\":1647:1652  _name */\n      0x6e\n      swap1\n        /* \"contracts/Take3Token.sol\":1647:1660  _name = _NAME */\n      0x20\n      dup12\n      add\n      swap1\n      tag_408\n      jump\t// in\n    tag_407:\n      pop\n        /* \"contracts/Take3Token.sol\":1671:1688  _symbol = _SYMBOL */\n      dup7\n      mload\n      tag_409\n      swap1\n        /* \"contracts/Take3Token.sol\":1671:1678  _symbol */\n      0x6f\n      swap1\n        /* \"contracts/Take3Token.sol\":1671:1688  _symbol = _SYMBOL */\n      0x20\n      dup11\n      add\n      swap1\n      tag_408\n      jump\t// in\n    tag_409:\n      pop\n        /* \"contracts/Take3Token.sol\":1699:1708  _decimals */\n      0x70\n        /* \"contracts/Take3Token.sol\":1699:1720  _decimals = _DECIMALS */\n      dup7\n      swap1\n      sstore\n        /* \"contracts/Take3Token.sol\":1751:1764  10**_decimals */\n      tag_410\n        /* \"contracts/Take3Token.sol\":1711:1720  _DECIMALS */\n      dup7\n        /* \"contracts/Take3Token.sol\":1751:1753  10 */\n      0x0a\n        /* \"contracts/Take3Token.sol\":1751:1764  10**_decimals */\n      tag_411\n      jump\t// in\n    tag_410:\n        /* \"contracts/Take3Token.sol\":1741:1764  _supply * 10**_decimals */\n      tag_412\n      swap1\n        /* \"contracts/Take3Token.sol\":1741:1748  _supply */\n      dup7\n        /* \"contracts/Take3Token.sol\":1741:1764  _supply * 10**_decimals */\n      tag_413\n      jump\t// in\n    tag_412:\n        /* \"contracts/Take3Token.sol\":1731:1738  _tTotal */\n      0x6b\n        /* \"contracts/Take3Token.sol\":1731:1764  _tTotal = _supply * 10**_decimals */\n      dup2\n      swap1\n      sstore\n        /* \"contracts/Take3Token.sol\":1793:1806  MAX % _tTotal */\n      tag_414\n      swap1\n      not(0x00)\n      tag_415\n      jump\t// in\n    tag_414:\n        /* \"contracts/Take3Token.sol\":1786:1807  MAX - (MAX % _tTotal) */\n      tag_416\n      swap1\n      not(0x00)\n      tag_268\n      jump\t// in\n    tag_416:\n        /* \"contracts/Take3Token.sol\":1775:1782  _rTotal */\n      0x6c\n        /* \"contracts/Take3Token.sol\":1775:1808  _rTotal = (MAX - (MAX % _tTotal)) */\n      sstore\n        /* \"contracts/Take3Token.sol\":1819:1826  _taxFee */\n      0x71\n        /* \"contracts/Take3Token.sol\":1819:1835  _taxFee = _txFee */\n      dup5\n      swap1\n      sstore\n        /* \"contracts/Take3Token.sol\":1846:1861  _previousTaxFee */\n      0x72\n        /* \"contracts/Take3Token.sol\":1846:1870  _previousTaxFee = _txFee */\n      dup5\n      swap1\n      sstore\n        /* \"contracts/Take3Token.sol\":1913:1922  _decimals */\n      sload(0x70)\n        /* \"contracts/Take3Token.sol\":1909:1922  10**_decimals */\n      tag_417\n      swap1\n        /* \"contracts/Take3Token.sol\":1909:1911  10 */\n      0x0a\n        /* \"contracts/Take3Token.sol\":1909:1922  10**_decimals */\n      tag_411\n      jump\t// in\n    tag_417:\n        /* \"contracts/Take3Token.sol\":1896:1922  _MAXAMOUNT * 10**_decimals */\n      tag_418\n      swap1\n        /* \"contracts/Take3Token.sol\":1896:1906  _MAXAMOUNT */\n      dup5\n        /* \"contracts/Take3Token.sol\":1896:1922  _MAXAMOUNT * 10**_decimals */\n      tag_413\n      jump\t// in\n    tag_418:\n        /* \"contracts/Take3Token.sol\":1881:1893  _maxTxAmount */\n      0x73\n        /* \"contracts/Take3Token.sol\":1881:1922  _maxTxAmount = _MAXAMOUNT * 10**_decimals */\n      sstore\n        /* \"contracts/Take3Token.sol\":1957:1964  _rTotal */\n      sload(0x6c)\n      sub(shl(0xa0, 0x01), 0x01)\n        /* \"contracts/Take3Token.sol\":1935:1954  _rOwned[tokenOwner] */\n      dup4\n      and\n      0x00\n      swap1\n      dup2\n      mstore\n        /* \"contracts/Take3Token.sol\":1935:1942  _rOwned */\n      0x65\n        /* \"contracts/Take3Token.sol\":1935:1954  _rOwned[tokenOwner] */\n      0x20\n      swap1\n      dup2\n      mstore\n      0x40\n      dup1\n      dup4\n      keccak256\n        /* \"contracts/Take3Token.sol\":1935:1964  _rOwned[tokenOwner] = _rTotal */\n      swap4\n      swap1\n      swap4\n      sstore\n        /* \"contracts/Take3Token.sol\":2029:2047  _isExcludedFromFee */\n      0x68\n        /* \"contracts/Take3Token.sol\":2029:2059  _isExcludedFromFee[tokenOwner] */\n      swap1\n      mstore\n      dup2\n      dup2\n      keccak256\n        /* \"contracts/Take3Token.sol\":2029:2066  _isExcludedFromFee[tokenOwner] = true */\n      dup1\n      sload\n        /* \"contracts/Take3Token.sol\":2062:2066  true */\n      0x01\n      not(0xff)\n        /* \"contracts/Take3Token.sol\":2029:2066  _isExcludedFromFee[tokenOwner] = true */\n      swap2\n      dup3\n      and\n      dup2\n      or\n      swap1\n      swap3\n      sstore\n        /* \"contracts/Take3Token.sol\":2104:2108  this */\n      address\n        /* \"contracts/Take3Token.sol\":2077:2110  _isExcludedFromFee[address(this)] */\n      dup4\n      mstore\n      swap3\n      swap1\n      swap2\n      keccak256\n        /* \"contracts/Take3Token.sol\":2077:2117  _isExcludedFromFee[address(this)] = true */\n      dup1\n      sload\n      swap1\n      swap3\n      and\n      or\n      swap1\n      sstore\n        /* \"contracts/Take3Token.sol\":2128:2157  excludeFromReward(tokenOwner) */\n      tag_419\n        /* \"contracts/Take3Token.sol\":1935:1954  _rOwned[tokenOwner] */\n      dup3\n        /* \"contracts/Take3Token.sol\":2128:2145  excludeFromReward */\n      tag_138\n        /* \"contracts/Take3Token.sol\":2128:2157  excludeFromReward(tokenOwner) */\n      jump\t// in\n    tag_419:\n        /* \"contracts/Take3Token.sol\":2168:2200  excludeFromReward(address(this)) */\n      tag_420\n        /* \"contracts/Take3Token.sol\":2194:2198  this */\n      address\n        /* \"contracts/Take3Token.sol\":2168:2185  excludeFromReward */\n      tag_138\n        /* \"contracts/Take3Token.sol\":2168:2200  excludeFromReward(address(this)) */\n      jump\t// in\n    tag_420:\n        /* \"contracts/Take3Token.sol\":2271:2281  tokenOwner */\n      dup2\n      sub(shl(0xa0, 0x01), 0x01)\n        /* \"contracts/Take3Token.sol\":2250:2291  Transfer(address(0), tokenOwner, _tTotal) */\n      and\n        /* \"contracts/Take3Token.sol\":2267:2268  0 */\n      0x00\n      sub(shl(0xa0, 0x01), 0x01)\n        /* \"contracts/Take3Token.sol\":2250:2291  Transfer(address(0), tokenOwner, _tTotal) */\n      and\n      0xddf252ad1be2c89b69c2b068fc378daa952ba7f163c4a11628f55a4df523b3ef\n        /* \"contracts/Take3Token.sol\":2283:2290  _tTotal */\n      sload(0x6b)\n        /* \"contracts/Take3Token.sol\":2250:2291  Transfer(address(0), tokenOwner, _tTotal) */\n      mload(0x40)\n      tag_421\n      swap2\n        /* \"#utility.yul\":1767:1792   */\n      dup2\n      mstore\n        /* \"#utility.yul\":1755:1757   */\n      0x20\n        /* \"#utility.yul\":1740:1758   */\n      add\n      swap1\n        /* \"#utility.yul\":1621:1798   */\n      jump\n        /* \"contracts/Take3Token.sol\":2250:2291  Transfer(address(0), tokenOwner, _tTotal) */\n    tag_421:\n      mload(0x40)\n      dup1\n      swap2\n      sub\n      swap1\n      log3\n        /* \"@openzeppelin/contracts-upgradeable/proxy/utils/Initializable.sol\":3483:3497  isTopLevelCall */\n      dup1\n        /* \"@openzeppelin/contracts-upgradeable/proxy/utils/Initializable.sol\":3479:3578  if (isTopLevelCall) {... */\n      iszero\n      tag_422\n      jumpi\n        /* \"@openzeppelin/contracts-upgradeable/proxy/utils/Initializable.sol\":3529:3534  false */\n      0x00\n        /* \"@openzeppelin/contracts-upgradeable/proxy/utils/Initializable.sol\":3513:3534  _initializing = false */\n      dup1\n      sload\n      not(0xff00)\n      and\n      swap1\n      sstore\n        /* \"@openzeppelin/contracts-upgradeable/proxy/utils/Initializable.sol\":3553:3567  Initialized(1) */\n      mload(0x40)\n      0x01\n        /* \"#utility.yul\":16421:16457   */\n      dup2\n      mstore\n        /* \"@openzeppelin/contracts-upgradeable/proxy/utils/Initializable.sol\":3553:3567  Initialized(1) */\n      0x7f26b83ff96e1f2b6a682f133852f6798a09c465da95921460cefb3847402498\n      swap1\n        /* \"#utility.yul\":16409:16411   */\n      0x20\n        /* \"#utility.yul\":16394:16412   */\n      add\n        /* \"@openzeppelin/contracts-upgradeable/proxy/utils/Initializable.sol\":3553:3567  Initialized(1) */\n      mload(0x40)\n      dup1\n      swap2\n      sub\n      swap1\n      log1\n        /* \"@openzeppelin/contracts-upgradeable/proxy/utils/Initializable.sol\":3479:3578  if (isTopLevelCall) {... */\n    tag_422:\n        /* \"@openzeppelin/contracts-upgradeable/proxy/utils/Initializable.sol\":3101:3584  {... */\n      pop\n        /* \"contracts/Take3Token.sol\":1328:2299  function initialize(... */\n      pop\n      pop\n      pop\n      pop\n      pop\n      pop\n      pop\n      jump\t// out\n        /* \"contracts/Take3Token.sol\":2995:3194  function transfer(address recipient, uint256 amount)... */\n    tag_192:\n        /* \"contracts/Take3Token.sol\":3100:3104  bool */\n      0x00\n        /* \"contracts/Take3Token.sol\":3122:3164  _transfer(_msgSender(), recipient, amount) */\n      tag_230\n        /* \"@openzeppelin/contracts-upgradeable/utils/ContextUpgradeable.sol\":929:939  msg.sender */\n      caller\n        /* \"contracts/Take3Token.sol\":3146:3155  recipient */\n      dup5\n        /* \"contracts/Take3Token.sol\":3157:3163  amount */\n      dup5\n        /* \"contracts/Take3Token.sol\":3122:3131  _transfer */\n      tag_238\n        /* \"contracts/Take3Token.sol\":3122:3164  _transfer(_msgSender(), recipient, amount) */\n      jump\t// in\n        /* \"contracts/Take3Token.sol\":7506:7632  function setMaxTxPercent(uint256 maxTxPercent) public onlyOwner {... */\n    tag_197:\n        /* \"@openzeppelin/contracts-upgradeable/access/OwnableUpgradeable.sol\":1334:1347  _checkOwner() */\n      tag_429\n        /* \"@openzeppelin/contracts-upgradeable/access/OwnableUpgradeable.sol\":1334:1345  _checkOwner */\n      tag_219\n        /* \"@openzeppelin/contracts-upgradeable/access/OwnableUpgradeable.sol\":1334:1347  _checkOwner() */\n      jump\t// in\n    tag_429:\n        /* \"contracts/Take3Token.sol\":7615:7624  _decimals */\n      sload(0x70)\n        /* \"contracts/Take3Token.sol\":7611:7624  10**_decimals */\n      tag_431\n      swap1\n        /* \"contracts/Take3Token.sol\":7611:7613  10 */\n      0x0a\n        /* \"contracts/Take3Token.sol\":7611:7624  10**_decimals */\n      tag_411\n      jump\t// in\n    tag_431:\n        /* \"contracts/Take3Token.sol\":7596:7624  maxTxPercent * 10**_decimals */\n      tag_432\n      swap1\n        /* \"contracts/Take3Token.sol\":7596:7608  maxTxPercent */\n      dup3\n        /* \"contracts/Take3Token.sol\":7596:7624  maxTxPercent * 10**_decimals */\n      tag_413\n      jump\t// in\n    tag_432:\n        /* \"contracts/Take3Token.sol\":7581:7593  _maxTxAmount */\n      0x73\n        /* \"contracts/Take3Token.sol\":7581:7624  _maxTxAmount = maxTxPercent * 10**_decimals */\n      sstore\n      pop\n        /* \"contracts/Take3Token.sol\":7506:7632  function setMaxTxPercent(uint256 maxTxPercent) public onlyOwner {... */\n      jump\t// out\n        /* \"contracts/Take3Token.sol\":7284:7394  function includeInFee(address account) public onlyOwner {... */\n    tag_207:\n        /* \"@openzeppelin/contracts-upgradeable/access/OwnableUpgradeable.sol\":1334:1347  _checkOwner() */\n      tag_435\n        /* \"@openzeppelin/contracts-upgradeable/access/OwnableUpgradeable.sol\":1334:1345  _checkOwner */\n      tag_219\n        /* \"@openzeppelin/contracts-upgradeable/access/OwnableUpgradeable.sol\":1334:1347  _checkOwner() */\n      jump\t// in\n    tag_435:\n      sub(shl(0xa0, 0x01), 0x01)\n        /* \"contracts/Take3Token.sol\":7351:7378  _isExcludedFromFee[account] */\n      and\n        /* \"contracts/Take3Token.sol\":7381:7386  false */\n      0x00\n        /* \"contracts/Take3Token.sol\":7351:7378  _isExcludedFromFee[account] */\n      swap1\n      dup2\n      mstore\n        /* \"contracts/Take3Token.sol\":7351:7369  _isExcludedFromFee */\n      0x68\n        /* \"contracts/Take3Token.sol\":7351:7378  _isExcludedFromFee[account] */\n      0x20\n      mstore\n      0x40\n      swap1\n      keccak256\n        /* \"contracts/Take3Token.sol\":7351:7386  _isExcludedFromFee[account] = false */\n      dup1\n      sload\n      not(0xff)\n      and\n      swap1\n      sstore\n        /* \"contracts/Take3Token.sol\":7284:7394  function includeInFee(address account) public onlyOwner {... */\n      jump\t// out\n        /* \"@openzeppelin/contracts-upgradeable/access/OwnableUpgradeable.sol\":2321:2519  function transferOwnership(address newOwner) public virtual onlyOwner {... */\n    tag_211:\n        /* \"@openzeppelin/contracts-upgradeable/access/OwnableUpgradeable.sol\":1334:1347  _checkOwner() */\n      tag_438\n        /* \"@openzeppelin/contracts-upgradeable/access/OwnableUpgradeable.sol\":1334:1345  _checkOwner */\n      tag_219\n        /* \"@openzeppelin/contracts-upgradeable/access/OwnableUpgradeable.sol\":1334:1347  _checkOwner() */\n      jump\t// in\n    tag_438:\n      sub(shl(0xa0, 0x01), 0x01)\n        /* \"@openzeppelin/contracts-upgradeable/access/OwnableUpgradeable.sol\":2409:2431  newOwner != address(0) */\n      dup2\n      and\n        /* \"@openzeppelin/contracts-upgradeable/access/OwnableUpgradeable.sol\":2401:2474  require(newOwner != address(0), \"Ownable: new owner is the zero address\") */\n      tag_440\n      jumpi\n      mload(0x40)\n      shl(0xe5, 0x461bcd)\n      dup2\n      mstore\n        /* \"#utility.yul\":16670:16672   */\n      0x20\n        /* \"@openzeppelin/contracts-upgradeable/access/OwnableUpgradeable.sol\":2401:2474  require(newOwner != address(0), \"Ownable: new owner is the zero address\") */\n      0x04\n      dup3\n      add\n        /* \"#utility.yul\":16652:16673   */\n      mstore\n        /* \"#utility.yul\":16709:16711   */\n      0x26\n        /* \"#utility.yul\":16689:16707   */\n      0x24\n      dup3\n      add\n        /* \"#utility.yul\":16682:16712   */\n      mstore\n        /* \"#utility.yul\":16748:16782   */\n      0x4f776e61626c653a206e6577206f776e657220697320746865207a65726f2061\n        /* \"#utility.yul\":16728:16746   */\n      0x44\n      dup3\n      add\n        /* \"#utility.yul\":16721:16783   */\n      mstore\n      shl(0xd0, 0x646472657373)\n        /* \"#utility.yul\":16799:16817   */\n      0x64\n      dup3\n      add\n        /* \"#utility.yul\":16792:16828   */\n      mstore\n        /* \"#utility.yul\":16845:16864   */\n      0x84\n      add\n        /* \"@openzeppelin/contracts-upgradeable/access/OwnableUpgradeable.sol\":2401:2474  require(newOwner != address(0), \"Ownable: new owner is the zero address\") */\n      tag_246\n        /* \"#utility.yul\":16468:16870   */\n      jump\n        /* \"@openzeppelin/contracts-upgradeable/access/OwnableUpgradeable.sol\":2401:2474  require(newOwner != address(0), \"Ownable: new owner is the zero address\") */\n    tag_440:\n        /* \"@openzeppelin/contracts-upgradeable/access/OwnableUpgradeable.sol\":2484:2512  _transferOwnership(newOwner) */\n      tag_317\n        /* \"@openzeppelin/contracts-upgradeable/access/OwnableUpgradeable.sol\":2503:2511  newOwner */\n      dup2\n        /* \"@openzeppelin/contracts-upgradeable/access/OwnableUpgradeable.sol\":2484:2502  _transferOwnership */\n      tag_368\n        /* \"@openzeppelin/contracts-upgradeable/access/OwnableUpgradeable.sol\":2484:2512  _transferOwnership(newOwner) */\n      jump\t// in\n        /* \"@openzeppelin/contracts-upgradeable/access/OwnableUpgradeable.sol\":1599:1729  function _checkOwner() internal view virtual {... */\n    tag_219:\n        /* \"@openzeppelin/contracts-upgradeable/access/OwnableUpgradeable.sol\":1513:1519  _owner */\n      and(sub(shl(0xa0, 0x01), 0x01), sload(0x33))\n        /* \"@openzeppelin/contracts-upgradeable/utils/ContextUpgradeable.sol\":929:939  msg.sender */\n      caller\n        /* \"@openzeppelin/contracts-upgradeable/access/OwnableUpgradeable.sol\":1662:1685  owner() == _msgSender() */\n      eq\n        /* \"@openzeppelin/contracts-upgradeable/access/OwnableUpgradeable.sol\":1654:1722  require(owner() == _msgSender(), \"Ownable: caller is not the owner\") */\n      tag_367\n      jumpi\n      mload(0x40)\n      shl(0xe5, 0x461bcd)\n      dup2\n      mstore\n        /* \"#utility.yul\":17077:17079   */\n      0x20\n        /* \"@openzeppelin/contracts-upgradeable/access/OwnableUpgradeable.sol\":1654:1722  require(owner() == _msgSender(), \"Ownable: caller is not the owner\") */\n      0x04\n      dup3\n      add\n        /* \"#utility.yul\":17059:17080   */\n      dup2\n      swap1\n      mstore\n        /* \"#utility.yul\":17096:17114   */\n      0x24\n      dup3\n      add\n        /* \"#utility.yul\":17089:17119   */\n      mstore\n        /* \"#utility.yul\":17155:17189   */\n      0x4f776e61626c653a2063616c6c6572206973206e6f7420746865206f776e6572\n        /* \"#utility.yul\":17135:17153   */\n      0x44\n      dup3\n      add\n        /* \"#utility.yul\":17128:17190   */\n      mstore\n        /* \"#utility.yul\":17207:17225   */\n      0x64\n      add\n        /* \"@openzeppelin/contracts-upgradeable/access/OwnableUpgradeable.sol\":1654:1722  require(owner() == _msgSender(), \"Ownable: caller is not the owner\") */\n      tag_246\n        /* \"#utility.yul\":16875:17231   */\n      jump\n        /* \"contracts/Take3Token.sol\":11490:11861  function _approve(... */\n    tag_233:\n      sub(shl(0xa0, 0x01), 0x01)\n        /* \"contracts/Take3Token.sol\":11617:11636  owner != address(0) */\n      dup4\n      and\n        /* \"contracts/Take3Token.sol\":11609:11677  require(owner != address(0), \"ERC20: approve from the zero address\") */\n      tag_452\n      jumpi\n      mload(0x40)\n      shl(0xe5, 0x461bcd)\n      dup2\n      mstore\n        /* \"#utility.yul\":17438:17440   */\n      0x20\n        /* \"contracts/Take3Token.sol\":11609:11677  require(owner != address(0), \"ERC20: approve from the zero address\") */\n      0x04\n      dup3\n      add\n        /* \"#utility.yul\":17420:17441   */\n      mstore\n        /* \"#utility.yul\":17477:17479   */\n      0x24\n        /* \"#utility.yul\":17457:17475   */\n      dup1\n      dup3\n      add\n        /* \"#utility.yul\":17450:17480   */\n      mstore\n        /* \"#utility.yul\":17516:17550   */\n      0x45524332303a20617070726f76652066726f6d20746865207a65726f20616464\n        /* \"#utility.yul\":17496:17514   */\n      0x44\n      dup3\n      add\n        /* \"#utility.yul\":17489:17551   */\n      mstore\n      shl(0xe0, 0x72657373)\n        /* \"#utility.yul\":17567:17585   */\n      0x64\n      dup3\n      add\n        /* \"#utility.yul\":17560:17594   */\n      mstore\n        /* \"#utility.yul\":17611:17630   */\n      0x84\n      add\n        /* \"contracts/Take3Token.sol\":11609:11677  require(owner != address(0), \"ERC20: approve from the zero address\") */\n      tag_246\n        /* \"#utility.yul\":17236:17636   */\n      jump\n        /* \"contracts/Take3Token.sol\":11609:11677  require(owner != address(0), \"ERC20: approve from the zero address\") */\n    tag_452:\n      sub(shl(0xa0, 0x01), 0x01)\n        /* \"contracts/Take3Token.sol\":11696:11717  spender != address(0) */\n      dup3\n      and\n        /* \"contracts/Take3Token.sol\":11688:11756  require(spender != address(0), \"ERC20: approve to the zero address\") */\n      tag_455\n      jumpi\n      mload(0x40)\n      shl(0xe5, 0x461bcd)\n      dup2\n      mstore\n        /* \"#utility.yul\":17843:17845   */\n      0x20\n        /* \"contracts/Take3Token.sol\":11688:11756  require(spender != address(0), \"ERC20: approve to the zero address\") */\n      0x04\n      dup3\n      add\n        /* \"#utility.yul\":17825:17846   */\n      mstore\n        /* \"#utility.yul\":17882:17884   */\n      0x22\n        /* \"#utility.yul\":17862:17880   */\n      0x24\n      dup3\n      add\n        /* \"#utility.yul\":17855:17885   */\n      mstore\n        /* \"#utility.yul\":17921:17955   */\n      0x45524332303a20617070726f766520746f20746865207a65726f206164647265\n        /* \"#utility.yul\":17901:17919   */\n      0x44\n      dup3\n      add\n        /* \"#utility.yul\":17894:17956   */\n      mstore\n      shl(0xf0, 0x7373)\n        /* \"#utility.yul\":17972:17990   */\n      0x64\n      dup3\n      add\n        /* \"#utility.yul\":17965:17997   */\n      mstore\n        /* \"#utility.yul\":18014:18033   */\n      0x84\n      add\n        /* \"contracts/Take3Token.sol\":11688:11756  require(spender != address(0), \"ERC20: approve to the zero address\") */\n      tag_246\n        /* \"#utility.yul\":17641:18039   */\n      jump\n        /* \"contracts/Take3Token.sol\":11688:11756  require(spender != address(0), \"ERC20: approve to the zero address\") */\n    tag_455:\n      sub(shl(0xa0, 0x01), 0x01)\n        /* \"contracts/Take3Token.sol\":11769:11787  _allowances[owner] */\n      dup4\n      dup2\n      and\n      0x00\n      dup2\n      dup2\n      mstore\n        /* \"contracts/Take3Token.sol\":11769:11780  _allowances */\n      0x67\n        /* \"contracts/Take3Token.sol\":11769:11787  _allowances[owner] */\n      0x20\n      swap1\n      dup2\n      mstore\n      0x40\n      dup1\n      dup4\n      keccak256\n        /* \"contracts/Take3Token.sol\":11769:11796  _allowances[owner][spender] */\n      swap5\n      dup8\n      and\n      dup1\n      dup5\n      mstore\n      swap5\n      dup3\n      mstore\n      swap2\n      dup3\n      swap1\n      keccak256\n        /* \"contracts/Take3Token.sol\":11769:11805  _allowances[owner][spender] = amount */\n      dup6\n      swap1\n      sstore\n        /* \"contracts/Take3Token.sol\":11821:11853  Approval(owner, spender, amount) */\n      swap1\n      mload\n        /* \"#utility.yul\":1767:1792   */\n      dup5\n      dup2\n      mstore\n        /* \"contracts/Take3Token.sol\":11821:11853  Approval(owner, spender, amount) */\n      0x8c5be1e5ebec7d5bd14f71427d1e84f3dd0314c0f7b2291e5b200ac8c7c3b925\n      swap2\n        /* \"#utility.yul\":1740:1758   */\n      add\n        /* \"contracts/Take3Token.sol\":11821:11853  Approval(owner, spender, amount) */\n      mload(0x40)\n      dup1\n      swap2\n      sub\n      swap1\n      log3\n        /* \"contracts/Take3Token.sol\":11490:11861  function _approve(... */\n      pop\n      pop\n      pop\n      jump\t// out\n        /* \"contracts/Take3Token.sol\":11869:13738  function _transfer(... */\n    tag_238:\n      sub(shl(0xa0, 0x01), 0x01)\n        /* \"contracts/Take3Token.sol\":11991:12009  from != address(0) */\n      dup4\n      and\n        /* \"contracts/Take3Token.sol\":11983:12051  require(from != address(0), \"ERC20: transfer from the zero address\") */\n      tag_460\n      jumpi\n      mload(0x40)\n      shl(0xe5, 0x461bcd)\n      dup2\n      mstore\n        /* \"#utility.yul\":18246:18248   */\n      0x20\n        /* \"contracts/Take3Token.sol\":11983:12051  require(from != address(0), \"ERC20: transfer from the zero address\") */\n      0x04\n      dup3\n      add\n        /* \"#utility.yul\":18228:18249   */\n      mstore\n        /* \"#utility.yul\":18285:18287   */\n      0x25\n        /* \"#utility.yul\":18265:18283   */\n      0x24\n      dup3\n      add\n        /* \"#utility.yul\":18258:18288   */\n      mstore\n        /* \"#utility.yul\":18324:18358   */\n      0x45524332303a207472616e736665722066726f6d20746865207a65726f206164\n        /* \"#utility.yul\":18304:18322   */\n      0x44\n      dup3\n      add\n        /* \"#utility.yul\":18297:18359   */\n      mstore\n      shl(0xd8, 0x6472657373)\n        /* \"#utility.yul\":18375:18393   */\n      0x64\n      dup3\n      add\n        /* \"#utility.yul\":18368:18403   */\n      mstore\n        /* \"#utility.yul\":18420:18439   */\n      0x84\n      add\n        /* \"contracts/Take3Token.sol\":11983:12051  require(from != address(0), \"ERC20: transfer from the zero address\") */\n      tag_246\n        /* \"#utility.yul\":18044:18445   */\n      jump\n        /* \"contracts/Take3Token.sol\":11983:12051  require(from != address(0), \"ERC20: transfer from the zero address\") */\n    tag_460:\n      sub(shl(0xa0, 0x01), 0x01)\n        /* \"contracts/Take3Token.sol\":12070:12086  to != address(0) */\n      dup3\n      and\n        /* \"contracts/Take3Token.sol\":12062:12126  require(to != address(0), \"ERC20: transfer to the zero address\") */\n      tag_463\n      jumpi\n      mload(0x40)\n      shl(0xe5, 0x461bcd)\n      dup2\n      mstore\n        /* \"#utility.yul\":18652:18654   */\n      0x20\n        /* \"contracts/Take3Token.sol\":12062:12126  require(to != address(0), \"ERC20: transfer to the zero address\") */\n      0x04\n      dup3\n      add\n        /* \"#utility.yul\":18634:18655   */\n      mstore\n        /* \"#utility.yul\":18691:18693   */\n      0x23\n        /* \"#utility.yul\":18671:18689   */\n      0x24\n      dup3\n      add\n        /* \"#utility.yul\":18664:18694   */\n      mstore\n        /* \"#utility.yul\":18730:18764   */\n      0x45524332303a207472616e7366657220746f20746865207a65726f2061646472\n        /* \"#utility.yul\":18710:18728   */\n      0x44\n      dup3\n      add\n        /* \"#utility.yul\":18703:18765   */\n      mstore\n      shl(0xe8, 0x657373)\n        /* \"#utility.yul\":18781:18799   */\n      0x64\n      dup3\n      add\n        /* \"#utility.yul\":18774:18807   */\n      mstore\n        /* \"#utility.yul\":18824:18843   */\n      0x84\n      add\n        /* \"contracts/Take3Token.sol\":12062:12126  require(to != address(0), \"ERC20: transfer to the zero address\") */\n      tag_246\n        /* \"#utility.yul\":18450:18849   */\n      jump\n        /* \"contracts/Take3Token.sol\":12062:12126  require(to != address(0), \"ERC20: transfer to the zero address\") */\n    tag_463:\n        /* \"contracts/Take3Token.sol\":12154:12155  0 */\n      0x00\n        /* \"contracts/Take3Token.sol\":12145:12151  amount */\n      dup2\n        /* \"contracts/Take3Token.sol\":12145:12155  amount > 0 */\n      gt\n        /* \"contracts/Take3Token.sol\":12137:12201  require(amount > 0, \"Transfer amount must be greater than zero\") */\n      tag_466\n      jumpi\n      mload(0x40)\n      shl(0xe5, 0x461bcd)\n      dup2\n      mstore\n        /* \"#utility.yul\":19056:19058   */\n      0x20\n        /* \"contracts/Take3Token.sol\":12137:12201  require(amount > 0, \"Transfer amount must be greater than zero\") */\n      0x04\n      dup3\n      add\n        /* \"#utility.yul\":19038:19059   */\n      mstore\n        /* \"#utility.yul\":19095:19097   */\n      0x29\n        /* \"#utility.yul\":19075:19093   */\n      0x24\n      dup3\n      add\n        /* \"#utility.yul\":19068:19098   */\n      mstore\n        /* \"#utility.yul\":19134:19168   */\n      0x5472616e7366657220616d6f756e74206d757374206265206772656174657220\n        /* \"#utility.yul\":19114:19132   */\n      0x44\n      dup3\n      add\n        /* \"#utility.yul\":19107:19169   */\n      mstore\n      shl(0xb8, 0x7468616e207a65726f)\n        /* \"#utility.yul\":19185:19203   */\n      0x64\n      dup3\n      add\n        /* \"#utility.yul\":19178:19217   */\n      mstore\n        /* \"#utility.yul\":19234:19253   */\n      0x84\n      add\n        /* \"contracts/Take3Token.sol\":12137:12201  require(amount > 0, \"Transfer amount must be greater than zero\") */\n      tag_246\n        /* \"#utility.yul\":18854:19259   */\n      jump\n        /* \"contracts/Take3Token.sol\":12137:12201  require(amount > 0, \"Transfer amount must be greater than zero\") */\n    tag_466:\n        /* \"@openzeppelin/contracts-upgradeable/access/OwnableUpgradeable.sol\":1513:1519  _owner */\n      sload(0x33)\n      sub(shl(0xa0, 0x01), 0x01)\n        /* \"contracts/Take3Token.sol\":12216:12231  from != owner() */\n      dup5\n      dup2\n      and\n        /* \"@openzeppelin/contracts-upgradeable/access/OwnableUpgradeable.sol\":1513:1519  _owner */\n      swap2\n      and\n        /* \"contracts/Take3Token.sol\":12216:12231  from != owner() */\n      eq\n      dup1\n      iszero\n      swap1\n        /* \"contracts/Take3Token.sol\":12216:12248  from != owner() && to != owner() */\n      tag_470\n      jumpi\n      pop\n        /* \"@openzeppelin/contracts-upgradeable/access/OwnableUpgradeable.sol\":1513:1519  _owner */\n      sload(0x33)\n      sub(shl(0xa0, 0x01), 0x01)\n        /* \"contracts/Take3Token.sol\":12235:12248  to != owner() */\n      dup4\n      dup2\n      and\n        /* \"@openzeppelin/contracts-upgradeable/access/OwnableUpgradeable.sol\":1513:1519  _owner */\n      swap2\n      and\n        /* \"contracts/Take3Token.sol\":12235:12248  to != owner() */\n      eq\n      iszero\n        /* \"contracts/Take3Token.sol\":12216:12248  from != owner() && to != owner() */\n    tag_470:\n        /* \"contracts/Take3Token.sol\":12212:12387  if (from != owner() && to != owner())... */\n      iszero\n      tag_473\n      jumpi\n        /* \"contracts/Take3Token.sol\":12299:12311  _maxTxAmount */\n      sload(0x73)\n        /* \"contracts/Take3Token.sol\":12289:12295  amount */\n      dup2\n        /* \"contracts/Take3Token.sol\":12289:12311  amount <= _maxTxAmount */\n      gt\n      iszero\n        /* \"contracts/Take3Token.sol\":12263:12387  require(... */\n      tag_473\n      jumpi\n      mload(0x40)\n      shl(0xe5, 0x461bcd)\n      dup2\n      mstore\n        /* \"#utility.yul\":19466:19468   */\n      0x20\n        /* \"contracts/Take3Token.sol\":12263:12387  require(... */\n      0x04\n      dup3\n      add\n        /* \"#utility.yul\":19448:19469   */\n      mstore\n        /* \"#utility.yul\":19505:19507   */\n      0x28\n        /* \"#utility.yul\":19485:19503   */\n      0x24\n      dup3\n      add\n        /* \"#utility.yul\":19478:19508   */\n      mstore\n        /* \"#utility.yul\":19544:19578   */\n      0x5472616e7366657220616d6f756e74206578636565647320746865206d617854\n        /* \"#utility.yul\":19524:19542   */\n      0x44\n      dup3\n      add\n        /* \"#utility.yul\":19517:19579   */\n      mstore\n      shl(0xc1, 0x3c20b6b7bab73a17)\n        /* \"#utility.yul\":19595:19613   */\n      0x64\n      dup3\n      add\n        /* \"#utility.yul\":19588:19626   */\n      mstore\n        /* \"#utility.yul\":19643:19662   */\n      0x84\n      add\n        /* \"contracts/Take3Token.sol\":12263:12387  require(... */\n      tag_246\n        /* \"#utility.yul\":19264:19668   */\n      jump\n        /* \"contracts/Take3Token.sol\":12263:12387  require(... */\n    tag_473:\n        /* \"contracts/Take3Token.sol\":12682:12710  uint256 contractTokenBalance */\n      0x00\n        /* \"contracts/Take3Token.sol\":12713:12737  balanceOf(address(this)) */\n      tag_476\n        /* \"contracts/Take3Token.sol\":12731:12735  this */\n      address\n        /* \"contracts/Take3Token.sol\":12713:12722  balanceOf */\n      tag_151\n        /* \"contracts/Take3Token.sol\":12713:12737  balanceOf(address(this)) */\n      jump\t// in\n    tag_476:\n        /* \"contracts/Take3Token.sol\":12682:12737  uint256 contractTokenBalance = balanceOf(address(this)) */\n      swap1\n      pop\n        /* \"contracts/Take3Token.sol\":12778:12790  _maxTxAmount */\n      sload(0x73)\n        /* \"contracts/Take3Token.sol\":12754:12774  contractTokenBalance */\n      dup2\n        /* \"contracts/Take3Token.sol\":12754:12790  contractTokenBalance >= _maxTxAmount */\n      lt\n        /* \"contracts/Take3Token.sol\":12750:12854  if (contractTokenBalance >= _maxTxAmount) {... */\n      tag_477\n      jumpi\n      pop\n        /* \"contracts/Take3Token.sol\":12830:12842  _maxTxAmount */\n      sload(0x73)\n        /* \"contracts/Take3Token.sol\":12750:12854  if (contractTokenBalance >= _maxTxAmount) {... */\n    tag_477:\n      sub(shl(0xa0, 0x01), 0x01)\n        /* \"contracts/Take3Token.sol\":13517:13541  _isExcludedFromFee[from] */\n      dup5\n      and\n        /* \"contracts/Take3Token.sol\":13397:13409  bool takeFee */\n      0x00\n        /* \"contracts/Take3Token.sol\":13517:13541  _isExcludedFromFee[from] */\n      swap1\n      dup2\n      mstore\n        /* \"contracts/Take3Token.sol\":13517:13535  _isExcludedFromFee */\n      0x68\n        /* \"contracts/Take3Token.sol\":13517:13541  _isExcludedFromFee[from] */\n      0x20\n      mstore\n      0x40\n      swap1\n      keccak256\n      sload\n        /* \"contracts/Take3Token.sol\":13412:13416  true */\n      0x01\n      swap1\n        /* \"contracts/Take3Token.sol\":13517:13541  _isExcludedFromFee[from] */\n      0xff\n      and\n      dup1\n        /* \"contracts/Take3Token.sol\":13517:13567  _isExcludedFromFee[from] || _isExcludedFromFee[to] */\n      tag_478\n      jumpi\n      pop\n      sub(shl(0xa0, 0x01), 0x01)\n        /* \"contracts/Take3Token.sol\":13545:13567  _isExcludedFromFee[to] */\n      dup5\n      and\n      0x00\n      swap1\n      dup2\n      mstore\n        /* \"contracts/Take3Token.sol\":13545:13563  _isExcludedFromFee */\n      0x68\n        /* \"contracts/Take3Token.sol\":13545:13567  _isExcludedFromFee[to] */\n      0x20\n      mstore\n      0x40\n      swap1\n      keccak256\n      sload\n      0xff\n      and\n        /* \"contracts/Take3Token.sol\":13517:13567  _isExcludedFromFee[from] || _isExcludedFromFee[to] */\n    tag_478:\n        /* \"contracts/Take3Token.sol\":13513:13611  if (_isExcludedFromFee[from] || _isExcludedFromFee[to]) {... */\n      iszero\n      tag_479\n      jumpi\n      pop\n        /* \"contracts/Take3Token.sol\":13594:13599  false */\n      0x00\n        /* \"contracts/Take3Token.sol\":13513:13611  if (_isExcludedFromFee[from] || _isExcludedFromFee[to]) {... */\n    tag_479:\n        /* \"contracts/Take3Token.sol\":13689:13730  _tokenTransfer(from, to, amount, takeFee) */\n      tag_480\n        /* \"contracts/Take3Token.sol\":13704:13708  from */\n      dup6\n        /* \"contracts/Take3Token.sol\":13710:13712  to */\n      dup6\n        /* \"contracts/Take3Token.sol\":13714:13720  amount */\n      dup6\n        /* \"contracts/Take3Token.sol\":13722:13729  takeFee */\n      dup5\n        /* \"contracts/Take3Token.sol\":13689:13703  _tokenTransfer */\n      tag_481\n        /* \"contracts/Take3Token.sol\":13689:13730  _tokenTransfer(from, to, amount, takeFee) */\n      jump\t// in\n    tag_480:\n        /* \"contracts/Take3Token.sol\":11972:13738  {... */\n      pop\n      pop\n        /* \"contracts/Take3Token.sol\":11869:13738  function _transfer(... */\n      pop\n      pop\n      pop\n      jump\t// out\n        /* \"@openzeppelin/contracts-upgradeable/utils/Math/SafeMathUpgradeable.sol\":4970:5201  function sub(... */\n    tag_243:\n        /* \"@openzeppelin/contracts-upgradeable/utils/Math/SafeMathUpgradeable.sol\":5086:5093  uint256 */\n      0x00\n        /* \"@openzeppelin/contracts-upgradeable/utils/Math/SafeMathUpgradeable.sol\":5145:5157  errorMessage */\n      dup2\n        /* \"@openzeppelin/contracts-upgradeable/utils/Math/SafeMathUpgradeable.sol\":5137:5143  b <= a */\n      dup5\n      dup5\n      gt\n      iszero\n        /* \"@openzeppelin/contracts-upgradeable/utils/Math/SafeMathUpgradeable.sol\":5129:5158  require(b <= a, errorMessage) */\n      tag_483\n      jumpi\n      mload(0x40)\n      shl(0xe5, 0x461bcd)\n      dup2\n      mstore\n      0x04\n      add\n      tag_246\n      swap2\n      swap1\n      tag_57\n      jump\t// in\n    tag_483:\n      pop\n      pop\n      pop\n        /* \"@openzeppelin/contracts-upgradeable/utils/Math/SafeMathUpgradeable.sol\":5179:5184  a - b */\n      swap1\n      sub\n      swap1\n        /* \"@openzeppelin/contracts-upgradeable/utils/Math/SafeMathUpgradeable.sol\":4970:5201  function sub(... */\n      jump\t// out\n        /* \"contracts/Take3Token.sol\":9576:9740  function _getRate() private view returns (uint256) {... */\n    tag_249:\n        /* \"contracts/Take3Token.sol\":9618:9625  uint256 */\n      0x00\n        /* \"contracts/Take3Token.sol\":9639:9654  uint256 rSupply */\n      dup1\n        /* \"contracts/Take3Token.sol\":9656:9671  uint256 tSupply */\n      0x00\n        /* \"contracts/Take3Token.sol\":9675:9694  _getCurrentSupply() */\n      tag_486\n        /* \"contracts/Take3Token.sol\":9675:9692  _getCurrentSupply */\n      tag_487\n        /* \"contracts/Take3Token.sol\":9675:9694  _getCurrentSupply() */\n      jump\t// in\n    tag_486:\n        /* \"contracts/Take3Token.sol\":9638:9694  (uint256 rSupply, uint256 tSupply) = _getCurrentSupply() */\n      swap1\n      swap3\n      pop\n      swap1\n      pop\n        /* \"contracts/Take3Token.sol\":9712:9732  rSupply.div(tSupply) */\n      tag_488\n        /* \"contracts/Take3Token.sol\":9638:9694  (uint256 rSupply, uint256 tSupply) = _getCurrentSupply() */\n      dup3\n      dup3\n        /* \"contracts/Take3Token.sol\":9712:9723  rSupply.div */\n      tag_251\n        /* \"contracts/Take3Token.sol\":9712:9732  rSupply.div(tSupply) */\n      jump\t// in\n    tag_488:\n        /* \"contracts/Take3Token.sol\":9705:9732  return rSupply.div(tSupply) */\n      swap3\n      pop\n      pop\n      pop\n        /* \"contracts/Take3Token.sol\":9576:9740  function _getRate() private view returns (uint256) {... */\n      swap1\n      jump\t// out\n        /* \"@openzeppelin/contracts-upgradeable/utils/Math/SafeMathUpgradeable.sol\":3861:3957  function div(uint256 a, uint256 b) internal pure returns (uint256) {... */\n    tag_251:\n        /* \"@openzeppelin/contracts-upgradeable/utils/Math/SafeMathUpgradeable.sol\":3919:3926  uint256 */\n      0x00\n        /* \"@openzeppelin/contracts-upgradeable/utils/Math/SafeMathUpgradeable.sol\":3945:3950  a / b */\n      tag_250\n        /* \"@openzeppelin/contracts-upgradeable/utils/Math/SafeMathUpgradeable.sol\":3949:3950  b */\n      dup3\n        /* \"@openzeppelin/contracts-upgradeable/utils/Math/SafeMathUpgradeable.sol\":3945:3946  a */\n      dup5\n        /* \"@openzeppelin/contracts-upgradeable/utils/Math/SafeMathUpgradeable.sol\":3945:3950  a / b */\n      tag_491\n      jump\t// in\n        /* \"@openzeppelin/contracts-upgradeable/utils/Math/SafeMathUpgradeable.sol\":2766:2862  function add(uint256 a, uint256 b) internal pure returns (uint256) {... */\n    tag_286:\n        /* \"@openzeppelin/contracts-upgradeable/utils/Math/SafeMathUpgradeable.sol\":2824:2831  uint256 */\n      0x00\n        /* \"@openzeppelin/contracts-upgradeable/utils/Math/SafeMathUpgradeable.sol\":2850:2855  a + b */\n      tag_250\n        /* \"@openzeppelin/contracts-upgradeable/utils/Math/SafeMathUpgradeable.sol\":2854:2855  b */\n      dup3\n        /* \"@openzeppelin/contracts-upgradeable/utils/Math/SafeMathUpgradeable.sol\":2850:2851  a */\n      dup5\n        /* \"@openzeppelin/contracts-upgradeable/utils/Math/SafeMathUpgradeable.sol\":2850:2855  a + b */\n      tag_494\n      jump\t// in\n        /* \"contracts/Take3Token.sol\":7888:8611  function _getValues(uint256 tAmount)... */\n    tag_293:\n        /* \"contracts/Take3Token.sol\":7988:7995  uint256 */\n      0x00\n        /* \"contracts/Take3Token.sol\":8010:8017  uint256 */\n      dup1\n        /* \"contracts/Take3Token.sol\":8032:8039  uint256 */\n      0x00\n        /* \"contracts/Take3Token.sol\":8054:8061  uint256 */\n      dup1\n        /* \"contracts/Take3Token.sol\":8076:8083  uint256 */\n      0x00\n        /* \"contracts/Take3Token.sol\":8137:8160  uint256 tTransferAmount */\n      dup1\n        /* \"contracts/Take3Token.sol\":8175:8187  uint256 tFee */\n      0x00\n        /* \"contracts/Take3Token.sol\":8223:8243  _getTValues(tAmount) */\n      tag_496\n        /* \"contracts/Take3Token.sol\":8235:8242  tAmount */\n      dup9\n        /* \"contracts/Take3Token.sol\":8223:8234  _getTValues */\n      tag_497\n        /* \"contracts/Take3Token.sol\":8223:8243  _getTValues(tAmount) */\n      jump\t// in\n    tag_496:\n        /* \"contracts/Take3Token.sol\":8122:8243  (... */\n      swap2\n      pop\n      swap2\n      pop\n        /* \"contracts/Take3Token.sol\":8255:8270  uint256 rAmount */\n      0x00\n        /* \"contracts/Take3Token.sol\":8272:8295  uint256 rTransferAmount */\n      dup1\n        /* \"contracts/Take3Token.sol\":8297:8309  uint256 rFee */\n      0x00\n        /* \"contracts/Take3Token.sol\":8313:8428  _getRValues(... */\n      tag_498\n        /* \"contracts/Take3Token.sol\":8339:8346  tAmount */\n      dup12\n        /* \"contracts/Take3Token.sol\":8361:8365  tFee */\n      dup6\n        /* \"contracts/Take3Token.sol\":8407:8417  _getRate() */\n      tag_499\n        /* \"contracts/Take3Token.sol\":8407:8415  _getRate */\n      tag_249\n        /* \"contracts/Take3Token.sol\":8407:8417  _getRate() */\n      jump\t// in\n    tag_499:\n        /* \"contracts/Take3Token.sol\":8313:8324  _getRValues */\n      tag_500\n        /* \"contracts/Take3Token.sol\":8313:8428  _getRValues(... */\n      jump\t// in\n    tag_498:\n        /* \"contracts/Take3Token.sol\":8254:8428  (uint256 rAmount, uint256 rTransferAmount, uint256 rFee) = _getRValues(... */\n      swap2\n      swap14\n      swap1\n      swap13\n      pop\n      swap1\n      swap11\n      pop\n        /* \"contracts/Take3Token.sol\":8532:8547  tTransferAmount */\n      swap5\n      swap9\n      pop\n        /* \"contracts/Take3Token.sol\":8562:8566  tFee */\n      swap3\n      swap7\n      pop\n        /* \"contracts/Take3Token.sol\":7888:8611  function _getValues(uint256 tAmount)... */\n      swap3\n      swap5\n      pop\n      pop\n      pop\n      pop\n      pop\n      jump\t// out\n        /* \"@openzeppelin/contracts-upgradeable/utils/Math/SafeMathUpgradeable.sol\":3133:3229  function sub(uint256 a, uint256 b) internal pure returns (uint256) {... */\n    tag_295:\n        /* \"@openzeppelin/contracts-upgradeable/utils/Math/SafeMathUpgradeable.sol\":3191:3198  uint256 */\n      0x00\n        /* \"@openzeppelin/contracts-upgradeable/utils/Math/SafeMathUpgradeable.sol\":3217:3222  a - b */\n      tag_250\n        /* \"@openzeppelin/contracts-upgradeable/utils/Math/SafeMathUpgradeable.sol\":3221:3222  b */\n      dup3\n        /* \"@openzeppelin/contracts-upgradeable/utils/Math/SafeMathUpgradeable.sol\":3217:3218  a */\n      dup5\n        /* \"@openzeppelin/contracts-upgradeable/utils/Math/SafeMathUpgradeable.sol\":3217:3222  a - b */\n      tag_268\n      jump\t// in\n        /* \"@openzeppelin/contracts-upgradeable/access/OwnableUpgradeable.sol\":2673:2860  function _transferOwnership(address newOwner) internal virtual {... */\n    tag_368:\n        /* \"@openzeppelin/contracts-upgradeable/access/OwnableUpgradeable.sol\":2765:2771  _owner */\n      0x33\n      dup1\n      sload\n      sub(shl(0xa0, 0x01), 0x01)\n        /* \"@openzeppelin/contracts-upgradeable/access/OwnableUpgradeable.sol\":2781:2798  _owner = newOwner */\n      dup4\n      dup2\n      and\n      not(sub(shl(0xa0, 0x01), 0x01))\n      dup4\n      and\n      dup2\n      or\n      swap1\n      swap4\n      sstore\n        /* \"@openzeppelin/contracts-upgradeable/access/OwnableUpgradeable.sol\":2813:2853  OwnershipTransferred(oldOwner, newOwner) */\n      mload(0x40)\n        /* \"@openzeppelin/contracts-upgradeable/access/OwnableUpgradeable.sol\":2765:2771  _owner */\n      swap2\n      and\n      swap2\n        /* \"@openzeppelin/contracts-upgradeable/access/OwnableUpgradeable.sol\":2781:2798  _owner = newOwner */\n      swap1\n        /* \"@openzeppelin/contracts-upgradeable/access/OwnableUpgradeable.sol\":2765:2771  _owner */\n      dup3\n      swap1\n        /* \"@openzeppelin/contracts-upgradeable/access/OwnableUpgradeable.sol\":2813:2853  OwnershipTransferred(oldOwner, newOwner) */\n      0x8be0079c531659141344cd1fd0a4f28419497f9722a3daafe3b4186f6b6457e0\n      swap1\n        /* \"@openzeppelin/contracts-upgradeable/access/OwnableUpgradeable.sol\":2746:2762  address oldOwner */\n      0x00\n      swap1\n        /* \"@openzeppelin/contracts-upgradeable/access/OwnableUpgradeable.sol\":2813:2853  OwnershipTransferred(oldOwner, newOwner) */\n      log3\n        /* \"@openzeppelin/contracts-upgradeable/access/OwnableUpgradeable.sol\":2736:2860  {... */\n      pop\n        /* \"@openzeppelin/contracts-upgradeable/access/OwnableUpgradeable.sol\":2673:2860  function _transferOwnership(address newOwner) internal virtual {... */\n      pop\n      jump\t// out\n        /* \"contracts/Take3Token.sol\":20131:20372  function _updateMap(... */\n    tag_383:\n        /* \"contracts/Take3Token.sol\":20283:20291  uint64 i */\n      0x00\n        /* \"contracts/Take3Token.sol\":20278:20365  for (uint64 i = 0; i < arr.length; i++) {... */\n    tag_505:\n        /* \"contracts/Take3Token.sol\":20301:20304  arr */\n      dup4\n        /* \"contracts/Take3Token.sol\":20301:20311  arr.length */\n      mload\n        /* \"contracts/Take3Token.sol\":20297:20298  i */\n      dup2\n      sub(shl(0x40, 0x01), 0x01)\n        /* \"contracts/Take3Token.sol\":20297:20311  i < arr.length */\n      and\n      lt\n        /* \"contracts/Take3Token.sol\":20278:20365  for (uint64 i = 0; i < arr.length; i++) {... */\n      iszero\n      tag_506\n      jumpi\n        /* \"contracts/Take3Token.sol\":20347:20353  status */\n      dup3\n        /* \"contracts/Take3Token.sol\":20333:20336  map */\n      dup3\n        /* \"contracts/Take3Token.sol\":20333:20344  map[arr[i]] */\n      0x00\n        /* \"contracts/Take3Token.sol\":20337:20340  arr */\n      dup7\n        /* \"contracts/Take3Token.sol\":20341:20342  i */\n      dup5\n      sub(shl(0x40, 0x01), 0x01)\n        /* \"contracts/Take3Token.sol\":20337:20343  arr[i] */\n      and\n      dup2\n      mload\n      dup2\n      lt\n      tag_509\n      jumpi\n      tag_509\n      tag_264\n      jump\t// in\n    tag_509:\n      0x20\n      swap1\n      dup2\n      mul\n      swap2\n      swap1\n      swap2\n      add\n      dup2\n      add\n      mload\n      sub(shl(0xa0, 0x01), 0x01)\n        /* \"contracts/Take3Token.sol\":20333:20344  map[arr[i]] */\n      and\n      dup3\n      mstore\n      dup2\n      add\n      swap2\n      swap1\n      swap2\n      mstore\n      0x40\n      add\n      0x00\n      keccak256\n        /* \"contracts/Take3Token.sol\":20333:20353  map[arr[i]] = status */\n      dup1\n      sload\n      not(0xff)\n      and\n      swap2\n      iszero\n      iszero\n      swap2\n      swap1\n      swap2\n      or\n      swap1\n      sstore\n        /* \"contracts/Take3Token.sol\":20313:20316  i++ */\n      dup1\n      tag_510\n      dup2\n      tag_346\n      jump\t// in\n    tag_510:\n      swap2\n      pop\n      pop\n        /* \"contracts/Take3Token.sol\":20278:20365  for (uint64 i = 0; i < arr.length; i++) {... */\n      jump(tag_505)\n    tag_506:\n      pop\n        /* \"contracts/Take3Token.sol\":20131:20372  function _updateMap(... */\n      pop\n      pop\n      pop\n      jump\t// out\n        /* \"@openzeppelin/contracts-upgradeable/access/OwnableUpgradeable.sol\":1003:1098  function __Ownable_init() internal onlyInitializing {... */\n    tag_406:\n        /* \"@openzeppelin/contracts-upgradeable/proxy/utils/Initializable.sol\":4910:4923  _initializing */\n      sload(0x00)\n      0x0100\n      swap1\n      div\n      0xff\n      and\n        /* \"@openzeppelin/contracts-upgradeable/proxy/utils/Initializable.sol\":4902:4971  require(_initializing, \"Initializable: contract is not initializing\") */\n      tag_513\n      jumpi\n      mload(0x40)\n      shl(0xe5, 0x461bcd)\n      dup2\n      mstore\n      0x04\n      add\n      tag_246\n      swap1\n      tag_515\n      jump\t// in\n    tag_513:\n        /* \"@openzeppelin/contracts-upgradeable/access/OwnableUpgradeable.sol\":1065:1091  __Ownable_init_unchained() */\n      tag_367\n        /* \"@openzeppelin/contracts-upgradeable/access/OwnableUpgradeable.sol\":1065:1089  __Ownable_init_unchained */\n      tag_518\n        /* \"@openzeppelin/contracts-upgradeable/access/OwnableUpgradeable.sol\":1065:1091  __Ownable_init_unchained() */\n      jump\t// in\n        /* \"contracts/Take3Token.sol\":16057:16895  function _tokenTransfer(... */\n    tag_481:\n        /* \"contracts/Take3Token.sol\":16213:16220  takeFee */\n      dup1\n        /* \"contracts/Take3Token.sol\":16208:16236  if (!takeFee) removeAllFee() */\n      tag_521\n      jumpi\n        /* \"contracts/Take3Token.sol\":16222:16236  removeAllFee() */\n      tag_521\n        /* \"contracts/Take3Token.sol\":16222:16234  removeAllFee */\n      tag_522\n        /* \"contracts/Take3Token.sol\":16222:16236  removeAllFee() */\n      jump\t// in\n    tag_521:\n      sub(shl(0xa0, 0x01), 0x01)\n        /* \"contracts/Take3Token.sol\":16253:16272  _isExcluded[sender] */\n      dup5\n      and\n      0x00\n      swap1\n      dup2\n      mstore\n        /* \"contracts/Take3Token.sol\":16253:16264  _isExcluded */\n      0x69\n        /* \"contracts/Take3Token.sol\":16253:16272  _isExcluded[sender] */\n      0x20\n      mstore\n      0x40\n      swap1\n      keccak256\n      sload\n      0xff\n      and\n        /* \"contracts/Take3Token.sol\":16253:16299  _isExcluded[sender] && !_isExcluded[recipient] */\n      dup1\n      iszero\n      tag_523\n      jumpi\n      pop\n      sub(shl(0xa0, 0x01), 0x01)\n        /* \"contracts/Take3Token.sol\":16277:16299  _isExcluded[recipient] */\n      dup4\n      and\n      0x00\n      swap1\n      dup2\n      mstore\n        /* \"contracts/Take3Token.sol\":16277:16288  _isExcluded */\n      0x69\n        /* \"contracts/Take3Token.sol\":16277:16299  _isExcluded[recipient] */\n      0x20\n      mstore\n      0x40\n      swap1\n      keccak256\n      sload\n      0xff\n      and\n        /* \"contracts/Take3Token.sol\":16276:16299  !_isExcluded[recipient] */\n      iszero\n        /* \"contracts/Take3Token.sol\":16253:16299  _isExcluded[sender] && !_isExcluded[recipient] */\n    tag_523:\n        /* \"contracts/Take3Token.sol\":16249:16846  if (_isExcluded[sender] && !_isExcluded[recipient]) {... */\n      iszero\n      tag_524\n      jumpi\n        /* \"contracts/Take3Token.sol\":16316:16364  _transferFromExcluded(sender, recipient, amount) */\n      tag_525\n        /* \"contracts/Take3Token.sol\":16338:16344  sender */\n      dup5\n        /* \"contracts/Take3Token.sol\":16346:16355  recipient */\n      dup5\n        /* \"contracts/Take3Token.sol\":16357:16363  amount */\n      dup5\n        /* \"contracts/Take3Token.sol\":16316:16337  _transferFromExcluded */\n      tag_526\n        /* \"contracts/Take3Token.sol\":16316:16364  _transferFromExcluded(sender, recipient, amount) */\n      jump\t// in\n    tag_525:\n        /* \"contracts/Take3Token.sol\":16249:16846  if (_isExcluded[sender] && !_isExcluded[recipient]) {... */\n      jump(tag_543)\n    tag_524:\n      sub(shl(0xa0, 0x01), 0x01)\n        /* \"contracts/Take3Token.sol\":16387:16406  _isExcluded[sender] */\n      dup5\n      and\n      0x00\n      swap1\n      dup2\n      mstore\n        /* \"contracts/Take3Token.sol\":16387:16398  _isExcluded */\n      0x69\n        /* \"contracts/Take3Token.sol\":16387:16406  _isExcluded[sender] */\n      0x20\n      mstore\n      0x40\n      swap1\n      keccak256\n      sload\n      0xff\n      and\n        /* \"contracts/Take3Token.sol\":16386:16406  !_isExcluded[sender] */\n      iszero\n        /* \"contracts/Take3Token.sol\":16386:16432  !_isExcluded[sender] && _isExcluded[recipient] */\n      dup1\n      iszero\n      tag_528\n      jumpi\n      pop\n      sub(shl(0xa0, 0x01), 0x01)\n        /* \"contracts/Take3Token.sol\":16410:16432  _isExcluded[recipient] */\n      dup4\n      and\n      0x00\n      swap1\n      dup2\n      mstore\n        /* \"contracts/Take3Token.sol\":16410:16421  _isExcluded */\n      0x69\n        /* \"contracts/Take3Token.sol\":16410:16432  _isExcluded[recipient] */\n      0x20\n      mstore\n      0x40\n      swap1\n      keccak256\n      sload\n      0xff\n      and\n        /* \"contracts/Take3Token.sol\":16386:16432  !_isExcluded[sender] && _isExcluded[recipient] */\n    tag_528:\n        /* \"contracts/Take3Token.sol\":16382:16846  if (!_isExcluded[sender] && _isExcluded[recipient]) {... */\n      iszero\n      tag_529\n      jumpi\n        /* \"contracts/Take3Token.sol\":16449:16495  _transferToExcluded(sender, recipient, amount) */\n      tag_525\n        /* \"contracts/Take3Token.sol\":16469:16475  sender */\n      dup5\n        /* \"contracts/Take3Token.sol\":16477:16486  recipient */\n      dup5\n        /* \"contracts/Take3Token.sol\":16488:16494  amount */\n      dup5\n        /* \"contracts/Take3Token.sol\":16449:16468  _transferToExcluded */\n      tag_531\n        /* \"contracts/Take3Token.sol\":16449:16495  _transferToExcluded(sender, recipient, amount) */\n      jump\t// in\n        /* \"contracts/Take3Token.sol\":16382:16846  if (!_isExcluded[sender] && _isExcluded[recipient]) {... */\n    tag_529:\n      sub(shl(0xa0, 0x01), 0x01)\n        /* \"contracts/Take3Token.sol\":16518:16537  _isExcluded[sender] */\n      dup5\n      and\n      0x00\n      swap1\n      dup2\n      mstore\n        /* \"contracts/Take3Token.sol\":16518:16529  _isExcluded */\n      0x69\n        /* \"contracts/Take3Token.sol\":16518:16537  _isExcluded[sender] */\n      0x20\n      mstore\n      0x40\n      swap1\n      keccak256\n      sload\n      0xff\n      and\n        /* \"contracts/Take3Token.sol\":16517:16537  !_isExcluded[sender] */\n      iszero\n        /* \"contracts/Take3Token.sol\":16517:16564  !_isExcluded[sender] && !_isExcluded[recipient] */\n      dup1\n      iszero\n      tag_533\n      jumpi\n      pop\n      sub(shl(0xa0, 0x01), 0x01)\n        /* \"contracts/Take3Token.sol\":16542:16564  _isExcluded[recipient] */\n      dup4\n      and\n      0x00\n      swap1\n      dup2\n      mstore\n        /* \"contracts/Take3Token.sol\":16542:16553  _isExcluded */\n      0x69\n        /* \"contracts/Take3Token.sol\":16542:16564  _isExcluded[recipient] */\n      0x20\n      mstore\n      0x40\n      swap1\n      keccak256\n      sload\n      0xff\n      and\n        /* \"contracts/Take3Token.sol\":16541:16564  !_isExcluded[recipient] */\n      iszero\n        /* \"contracts/Take3Token.sol\":16517:16564  !_isExcluded[sender] && !_isExcluded[recipient] */\n    tag_533:\n        /* \"contracts/Take3Token.sol\":16513:16846  if (!_isExcluded[sender] && !_isExcluded[recipient]) {... */\n      iszero\n      tag_534\n      jumpi\n        /* \"contracts/Take3Token.sol\":16581:16625  _transferStandard(sender, recipient, amount) */\n      tag_525\n        /* \"contracts/Take3Token.sol\":16599:16605  sender */\n      dup5\n        /* \"contracts/Take3Token.sol\":16607:16616  recipient */\n      dup5\n        /* \"contracts/Take3Token.sol\":16618:16624  amount */\n      dup5\n        /* \"contracts/Take3Token.sol\":16581:16598  _transferStandard */\n      tag_536\n        /* \"contracts/Take3Token.sol\":16581:16625  _transferStandard(sender, recipient, amount) */\n      jump\t// in\n        /* \"contracts/Take3Token.sol\":16513:16846  if (!_isExcluded[sender] && !_isExcluded[recipient]) {... */\n    tag_534:\n      sub(shl(0xa0, 0x01), 0x01)\n        /* \"contracts/Take3Token.sol\":16647:16666  _isExcluded[sender] */\n      dup5\n      and\n      0x00\n      swap1\n      dup2\n      mstore\n        /* \"contracts/Take3Token.sol\":16647:16658  _isExcluded */\n      0x69\n        /* \"contracts/Take3Token.sol\":16647:16666  _isExcluded[sender] */\n      0x20\n      mstore\n      0x40\n      swap1\n      keccak256\n      sload\n      0xff\n      and\n        /* \"contracts/Take3Token.sol\":16647:16692  _isExcluded[sender] && _isExcluded[recipient] */\n      dup1\n      iszero\n      tag_538\n      jumpi\n      pop\n      sub(shl(0xa0, 0x01), 0x01)\n        /* \"contracts/Take3Token.sol\":16670:16692  _isExcluded[recipient] */\n      dup4\n      and\n      0x00\n      swap1\n      dup2\n      mstore\n        /* \"contracts/Take3Token.sol\":16670:16681  _isExcluded */\n      0x69\n        /* \"contracts/Take3Token.sol\":16670:16692  _isExcluded[recipient] */\n      0x20\n      mstore\n      0x40\n      swap1\n      keccak256\n      sload\n      0xff\n      and\n        /* \"contracts/Take3Token.sol\":16647:16692  _isExcluded[sender] && _isExcluded[recipient] */\n    tag_538:\n        /* \"contracts/Take3Token.sol\":16643:16846  if (_isExcluded[sender] && _isExcluded[recipient]) {... */\n      iszero\n      tag_539\n      jumpi\n        /* \"contracts/Take3Token.sol\":16709:16757  _transferBothExcluded(sender, recipient, amount) */\n      tag_525\n        /* \"contracts/Take3Token.sol\":16731:16737  sender */\n      dup5\n        /* \"contracts/Take3Token.sol\":16739:16748  recipient */\n      dup5\n        /* \"contracts/Take3Token.sol\":16750:16756  amount */\n      dup5\n        /* \"contracts/Take3Token.sol\":16709:16730  _transferBothExcluded */\n      tag_541\n        /* \"contracts/Take3Token.sol\":16709:16757  _transferBothExcluded(sender, recipient, amount) */\n      jump\t// in\n        /* \"contracts/Take3Token.sol\":16643:16846  if (_isExcluded[sender] && _isExcluded[recipient]) {... */\n    tag_539:\n        /* \"contracts/Take3Token.sol\":16790:16834  _transferStandard(sender, recipient, amount) */\n      tag_543\n        /* \"contracts/Take3Token.sol\":16808:16814  sender */\n      dup5\n        /* \"contracts/Take3Token.sol\":16816:16825  recipient */\n      dup5\n        /* \"contracts/Take3Token.sol\":16827:16833  amount */\n      dup5\n        /* \"contracts/Take3Token.sol\":16790:16807  _transferStandard */\n      tag_536\n        /* \"contracts/Take3Token.sol\":16790:16834  _transferStandard(sender, recipient, amount) */\n      jump\t// in\n    tag_543:\n        /* \"contracts/Take3Token.sol\":16863:16870  takeFee */\n      dup1\n        /* \"contracts/Take3Token.sol\":16858:16887  if (!takeFee) restoreAllFee() */\n      tag_506\n      jumpi\n        /* \"contracts/Take3Token.sol\":16872:16887  restoreAllFee() */\n      tag_506\n        /* \"contracts/Take3Token.sol\":11277:11292  _previousTaxFee */\n      sload(0x72)\n        /* \"contracts/Take3Token.sol\":11267:11274  _taxFee */\n      0x71\n        /* \"contracts/Take3Token.sol\":11267:11292  _taxFee = _previousTaxFee */\n      sstore\n        /* \"contracts/Take3Token.sol\":11223:11350  function restoreAllFee() private {... */\n      jump\n        /* \"contracts/Take3Token.sol\":9748:10353  function _getCurrentSupply() private view returns (uint256, uint256) {... */\n    tag_487:\n        /* \"contracts/Take3Token.sol\":9846:9853  _rTotal */\n      sload(0x6c)\n        /* \"contracts/Take3Token.sol\":9882:9889  _tTotal */\n      sload(0x6b)\n        /* \"contracts/Take3Token.sol\":9799:9806  uint256 */\n      0x00\n      swap2\n      dup3\n      swap2\n      dup3\n        /* \"contracts/Take3Token.sol\":9900:10238  for (uint256 i = 0; i < _excluded.length; i++) {... */\n    tag_548:\n        /* \"contracts/Take3Token.sol\":9924:9933  _excluded */\n      0x6a\n        /* \"contracts/Take3Token.sol\":9924:9940  _excluded.length */\n      sload\n        /* \"contracts/Take3Token.sol\":9920:9940  i < _excluded.length */\n      dup2\n      lt\n        /* \"contracts/Take3Token.sol\":9900:10238  for (uint256 i = 0; i < _excluded.length; i++) {... */\n      iszero\n      tag_549\n      jumpi\n        /* \"contracts/Take3Token.sol\":10008:10015  rSupply */\n      dup3\n        /* \"contracts/Take3Token.sol\":9984:9991  _rOwned */\n      0x65\n        /* \"contracts/Take3Token.sol\":9984:10005  _rOwned[_excluded[i]] */\n      0x00\n        /* \"contracts/Take3Token.sol\":9992:10001  _excluded */\n      0x6a\n        /* \"contracts/Take3Token.sol\":10002:10003  i */\n      dup5\n        /* \"contracts/Take3Token.sol\":9992:10004  _excluded[i] */\n      dup2\n      sload\n      dup2\n      lt\n      tag_552\n      jumpi\n      tag_552\n      tag_264\n      jump\t// in\n    tag_552:\n      0x00\n      swap2\n      dup3\n      mstore\n      0x20\n      dup1\n      dup4\n      keccak256\n      swap1\n      swap2\n      add\n      sload\n      sub(shl(0xa0, 0x01), 0x01)\n      and\n        /* \"contracts/Take3Token.sol\":9984:10005  _rOwned[_excluded[i]] */\n      dup4\n      mstore\n      dup3\n      add\n      swap3\n      swap1\n      swap3\n      mstore\n      0x40\n      add\n      swap1\n      keccak256\n      sload\n        /* \"contracts/Take3Token.sol\":9984:10015  _rOwned[_excluded[i]] > rSupply */\n      gt\n      dup1\n        /* \"contracts/Take3Token.sol\":9984:10067  _rOwned[_excluded[i]] > rSupply ||... */\n      tag_554\n      jumpi\n      pop\n        /* \"contracts/Take3Token.sol\":10060:10067  tSupply */\n      dup2\n        /* \"contracts/Take3Token.sol\":10036:10043  _tOwned */\n      0x66\n        /* \"contracts/Take3Token.sol\":10036:10057  _tOwned[_excluded[i]] */\n      0x00\n        /* \"contracts/Take3Token.sol\":10044:10053  _excluded */\n      0x6a\n        /* \"contracts/Take3Token.sol\":10054:10055  i */\n      dup5\n        /* \"contracts/Take3Token.sol\":10044:10056  _excluded[i] */\n      dup2\n      sload\n      dup2\n      lt\n      tag_556\n      jumpi\n      tag_556\n      tag_264\n      jump\t// in\n    tag_556:\n      0x00\n      swap2\n      dup3\n      mstore\n      0x20\n      dup1\n      dup4\n      keccak256\n      swap1\n      swap2\n      add\n      sload\n      sub(shl(0xa0, 0x01), 0x01)\n      and\n        /* \"contracts/Take3Token.sol\":10036:10057  _tOwned[_excluded[i]] */\n      dup4\n      mstore\n      dup3\n      add\n      swap3\n      swap1\n      swap3\n      mstore\n      0x40\n      add\n      swap1\n      keccak256\n      sload\n        /* \"contracts/Take3Token.sol\":10036:10067  _tOwned[_excluded[i]] > tSupply */\n      gt\n        /* \"contracts/Take3Token.sol\":9984:10067  _rOwned[_excluded[i]] > rSupply ||... */\n    tag_554:\n        /* \"contracts/Take3Token.sol\":9962:10108  if (... */\n      iszero\n      tag_558\n      jumpi\n        /* \"contracts/Take3Token.sol\":10091:10098  _rTotal */\n      sload(0x6c)\n        /* \"contracts/Take3Token.sol\":10100:10107  _tTotal */\n      sload(0x6b)\n        /* \"contracts/Take3Token.sol\":10083:10108  return (_rTotal, _tTotal) */\n      swap5\n      pop\n      swap5\n      pop\n      pop\n      pop\n      pop\n        /* \"contracts/Take3Token.sol\":9748:10353  function _getCurrentSupply() private view returns (uint256, uint256) {... */\n      swap1\n      swap2\n      jump\t// out\n        /* \"contracts/Take3Token.sol\":9962:10108  if (... */\n    tag_558:\n        /* \"contracts/Take3Token.sol\":10133:10167  rSupply.sub(_rOwned[_excluded[i]]) */\n      tag_559\n        /* \"contracts/Take3Token.sol\":10145:10152  _rOwned */\n      0x65\n        /* \"contracts/Take3Token.sol\":10145:10166  _rOwned[_excluded[i]] */\n      0x00\n        /* \"contracts/Take3Token.sol\":10153:10162  _excluded */\n      0x6a\n        /* \"contracts/Take3Token.sol\":10163:10164  i */\n      dup5\n        /* \"contracts/Take3Token.sol\":10153:10165  _excluded[i] */\n      dup2\n      sload\n      dup2\n      lt\n      tag_561\n      jumpi\n      tag_561\n      tag_264\n      jump\t// in\n    tag_561:\n      0x00\n      swap2\n      dup3\n      mstore\n      0x20\n      dup1\n      dup4\n      keccak256\n      swap1\n      swap2\n      add\n      sload\n      sub(shl(0xa0, 0x01), 0x01)\n      and\n        /* \"contracts/Take3Token.sol\":10145:10166  _rOwned[_excluded[i]] */\n      dup4\n      mstore\n      dup3\n      add\n      swap3\n      swap1\n      swap3\n      mstore\n      0x40\n      add\n      swap1\n      keccak256\n      sload\n        /* \"contracts/Take3Token.sol\":10133:10140  rSupply */\n      dup5\n      swap1\n        /* \"contracts/Take3Token.sol\":10133:10144  rSupply.sub */\n      tag_295\n        /* \"contracts/Take3Token.sol\":10133:10167  rSupply.sub(_rOwned[_excluded[i]]) */\n      jump\t// in\n    tag_559:\n        /* \"contracts/Take3Token.sol\":10123:10167  rSupply = rSupply.sub(_rOwned[_excluded[i]]) */\n      swap3\n      pop\n        /* \"contracts/Take3Token.sol\":10192:10226  tSupply.sub(_tOwned[_excluded[i]]) */\n      tag_563\n        /* \"contracts/Take3Token.sol\":10204:10211  _tOwned */\n      0x66\n        /* \"contracts/Take3Token.sol\":10204:10225  _tOwned[_excluded[i]] */\n      0x00\n        /* \"contracts/Take3Token.sol\":10212:10221  _excluded */\n      0x6a\n        /* \"contracts/Take3Token.sol\":10222:10223  i */\n      dup5\n        /* \"contracts/Take3Token.sol\":10212:10224  _excluded[i] */\n      dup2\n      sload\n      dup2\n      lt\n      tag_565\n      jumpi\n      tag_565\n      tag_264\n      jump\t// in\n    tag_565:\n      0x00\n      swap2\n      dup3\n      mstore\n      0x20\n      dup1\n      dup4\n      keccak256\n      swap1\n      swap2\n      add\n      sload\n      sub(shl(0xa0, 0x01), 0x01)\n      and\n        /* \"contracts/Take3Token.sol\":10204:10225  _tOwned[_excluded[i]] */\n      dup4\n      mstore\n      dup3\n      add\n      swap3\n      swap1\n      swap3\n      mstore\n      0x40\n      add\n      swap1\n      keccak256\n      sload\n        /* \"contracts/Take3Token.sol\":10192:10199  tSupply */\n      dup4\n      swap1\n        /* \"contracts/Take3Token.sol\":10192:10203  tSupply.sub */\n      tag_295\n        /* \"contracts/Take3Token.sol\":10192:10226  tSupply.sub(_tOwned[_excluded[i]]) */\n      jump\t// in\n    tag_563:\n        /* \"contracts/Take3Token.sol\":10182:10226  tSupply = tSupply.sub(_tOwned[_excluded[i]]) */\n      swap2\n      pop\n        /* \"contracts/Take3Token.sol\":9942:9945  i++ */\n      dup1\n      tag_567\n      dup2\n      tag_280\n      jump\t// in\n    tag_567:\n      swap2\n      pop\n      pop\n        /* \"contracts/Take3Token.sol\":9900:10238  for (uint256 i = 0; i < _excluded.length; i++) {... */\n      jump(tag_548)\n    tag_549:\n      pop\n        /* \"contracts/Take3Token.sol\":10274:10281  _tTotal */\n      sload(0x6b)\n        /* \"contracts/Take3Token.sol\":10262:10269  _rTotal */\n      sload(0x6c)\n        /* \"contracts/Take3Token.sol\":10262:10282  _rTotal.div(_tTotal) */\n      tag_568\n      swap2\n        /* \"contracts/Take3Token.sol\":10262:10273  _rTotal.div */\n      tag_251\n        /* \"contracts/Take3Token.sol\":10262:10282  _rTotal.div(_tTotal) */\n      jump\t// in\n    tag_568:\n        /* \"contracts/Take3Token.sol\":10252:10259  rSupply */\n      dup3\n        /* \"contracts/Take3Token.sol\":10252:10282  rSupply < _rTotal.div(_tTotal) */\n      lt\n        /* \"contracts/Take3Token.sol\":10248:10309  if (rSupply < _rTotal.div(_tTotal)) return (_rTotal, _tTotal) */\n      iszero\n      tag_569\n      jumpi\n        /* \"contracts/Take3Token.sol\":10292:10299  _rTotal */\n      sload(0x6c)\n        /* \"contracts/Take3Token.sol\":10301:10308  _tTotal */\n      sload(0x6b)\n        /* \"contracts/Take3Token.sol\":10284:10309  return (_rTotal, _tTotal) */\n      swap4\n      pop\n      swap4\n      pop\n      pop\n      pop\n        /* \"contracts/Take3Token.sol\":9748:10353  function _getCurrentSupply() private view returns (uint256, uint256) {... */\n      swap1\n      swap2\n      jump\t// out\n        /* \"contracts/Take3Token.sol\":10248:10309  if (rSupply < _rTotal.div(_tTotal)) return (_rTotal, _tTotal) */\n    tag_569:\n        /* \"contracts/Take3Token.sol\":10328:10335  rSupply */\n      swap1\n      swap4\n        /* \"contracts/Take3Token.sol\":10337:10344  tSupply */\n      swap1\n      swap3\n      pop\n        /* \"contracts/Take3Token.sol\":9748:10353  function _getCurrentSupply() private view returns (uint256, uint256) {... */\n      swap1\n      pop\n      jump\t// out\n        /* \"contracts/Take3Token.sol\":8619:8998  function _getTValues(uint256 tAmount)... */\n    tag_497:\n        /* \"contracts/Take3Token.sol\":8706:8713  uint256 */\n      0x00\n        /* \"contracts/Take3Token.sol\":8715:8722  uint256 */\n      dup1\n        /* \"contracts/Take3Token.sol\":8755:8767  uint256 tFee */\n      0x00\n        /* \"contracts/Take3Token.sol\":8770:8794  calculateTaxFee(tAmount) */\n      tag_571\n        /* \"contracts/Take3Token.sol\":8786:8793  tAmount */\n      dup5\n        /* \"contracts/Take3Token.sol\":8770:8785  calculateTaxFee */\n      tag_572\n        /* \"contracts/Take3Token.sol\":8770:8794  calculateTaxFee(tAmount) */\n      jump\t// in\n    tag_571:\n        /* \"contracts/Take3Token.sol\":8755:8794  uint256 tFee = calculateTaxFee(tAmount) */\n      swap1\n      pop\n        /* \"contracts/Take3Token.sol\":8869:8892  uint256 tTransferAmount */\n      0x00\n        /* \"contracts/Take3Token.sol\":8895:8912  tAmount.sub(tFee) */\n      tag_573\n        /* \"contracts/Take3Token.sol\":8895:8902  tAmount */\n      dup6\n        /* \"contracts/Take3Token.sol\":8755:8794  uint256 tFee = calculateTaxFee(tAmount) */\n      dup4\n        /* \"contracts/Take3Token.sol\":8895:8906  tAmount.sub */\n      tag_295\n        /* \"contracts/Take3Token.sol\":8895:8912  tAmount.sub(tFee) */\n      jump\t// in\n    tag_573:\n        /* \"contracts/Take3Token.sol\":8869:8912  uint256 tTransferAmount = tAmount.sub(tFee) */\n      swap6\n        /* \"contracts/Take3Token.sol\":8968:8972  tFee */\n      swap2\n      swap5\n      pop\n        /* \"contracts/Take3Token.sol\":8619:8998  function _getTValues(uint256 tAmount)... */\n      swap1\n      swap3\n      pop\n      pop\n      pop\n      jump\t// out\n        /* \"contracts/Take3Token.sol\":9006:9568  function _getRValues(... */\n    tag_500:\n        /* \"contracts/Take3Token.sol\":9207:9214  uint256 */\n      0x00\n      dup1\n      dup1\n      dup1\n        /* \"contracts/Take3Token.sol\":9304:9328  tAmount.mul(currentRate) */\n      tag_575\n        /* \"contracts/Take3Token.sol\":9304:9311  tAmount */\n      dup8\n        /* \"contracts/Take3Token.sol\":9316:9327  currentRate */\n      dup7\n        /* \"contracts/Take3Token.sol\":9304:9315  tAmount.mul */\n      tag_576\n        /* \"contracts/Take3Token.sol\":9304:9328  tAmount.mul(currentRate) */\n      jump\t// in\n    tag_575:\n        /* \"contracts/Take3Token.sol\":9286:9328  uint256 rAmount = tAmount.mul(currentRate) */\n      swap1\n      pop\n        /* \"contracts/Take3Token.sol\":9339:9351  uint256 rFee */\n      0x00\n        /* \"contracts/Take3Token.sol\":9354:9375  tFee.mul(currentRate) */\n      tag_577\n        /* \"contracts/Take3Token.sol\":9354:9358  tFee */\n      dup8\n        /* \"contracts/Take3Token.sol\":9363:9374  currentRate */\n      dup8\n        /* \"contracts/Take3Token.sol\":9354:9362  tFee.mul */\n      tag_576\n        /* \"contracts/Take3Token.sol\":9354:9375  tFee.mul(currentRate) */\n      jump\t// in\n    tag_577:\n        /* \"contracts/Take3Token.sol\":9339:9375  uint256 rFee = tFee.mul(currentRate) */\n      swap1\n      pop\n        /* \"contracts/Take3Token.sol\":9447:9470  uint256 rTransferAmount */\n      0x00\n        /* \"contracts/Take3Token.sol\":9473:9490  rAmount.sub(rFee) */\n      tag_578\n        /* \"contracts/Take3Token.sol\":9473:9480  rAmount */\n      dup4\n        /* \"contracts/Take3Token.sol\":9339:9375  uint256 rFee = tFee.mul(currentRate) */\n      dup4\n        /* \"contracts/Take3Token.sol\":9473:9484  rAmount.sub */\n      tag_295\n        /* \"contracts/Take3Token.sol\":9473:9490  rAmount.sub(rFee) */\n      jump\t// in\n    tag_578:\n        /* \"contracts/Take3Token.sol\":9529:9536  rAmount */\n      swap3\n      swap10\n      swap3\n      swap9\n      pop\n        /* \"contracts/Take3Token.sol\":9555:9559  rFee */\n      swap1\n      swap7\n      pop\n        /* \"contracts/Take3Token.sol\":9006:9568  function _getRValues(... */\n      swap1\n      swap5\n      pop\n      pop\n      pop\n      pop\n      pop\n      jump\t// out\n        /* \"@openzeppelin/contracts-upgradeable/access/OwnableUpgradeable.sol\":1104:1215  function __Ownable_init_unchained() internal onlyInitializing {... */\n    tag_518:\n        /* \"@openzeppelin/contracts-upgradeable/proxy/utils/Initializable.sol\":4910:4923  _initializing */\n      sload(0x00)\n      0x0100\n      swap1\n      div\n      0xff\n      and\n        /* \"@openzeppelin/contracts-upgradeable/proxy/utils/Initializable.sol\":4902:4971  require(_initializing, \"Initializable: contract is not initializing\") */\n      tag_580\n      jumpi\n      mload(0x40)\n      shl(0xe5, 0x461bcd)\n      dup2\n      mstore\n      0x04\n      add\n      tag_246\n      swap1\n      tag_515\n      jump\t// in\n    tag_580:\n        /* \"@openzeppelin/contracts-upgradeable/access/OwnableUpgradeable.sol\":1176:1208  _transferOwnership(_msgSender()) */\n      tag_367\n        /* \"@openzeppelin/contracts-upgradeable/utils/ContextUpgradeable.sol\":929:939  msg.sender */\n      caller\n        /* \"@openzeppelin/contracts-upgradeable/access/OwnableUpgradeable.sol\":1176:1194  _transferOwnership */\n      tag_368\n        /* \"@openzeppelin/contracts-upgradeable/access/OwnableUpgradeable.sol\":1176:1208  _transferOwnership(_msgSender()) */\n      jump\t// in\n        /* \"contracts/Take3Token.sol\":10998:11215  function removeAllFee() private {... */\n    tag_522:\n        /* \"contracts/Take3Token.sol\":11045:11052  _taxFee */\n      sload(0x71)\n        /* \"contracts/Take3Token.sol\":11041:11066  if (_taxFee == 0) return; */\n      tag_586\n      jumpi\n        /* \"contracts/Take3Token.sol\":10998:11215  function removeAllFee() private {... */\n      jump\t// out\n        /* \"contracts/Take3Token.sol\":11041:11066  if (_taxFee == 0) return; */\n    tag_586:\n        /* \"contracts/Take3Token.sol\":11096:11103  _taxFee */\n      0x71\n      dup1\n      sload\n        /* \"contracts/Take3Token.sol\":11078:11093  _previousTaxFee */\n      0x72\n        /* \"contracts/Take3Token.sol\":11078:11103  _previousTaxFee = _taxFee */\n      sstore\n      0x00\n        /* \"contracts/Take3Token.sol\":11166:11177  _taxFee = 0 */\n      swap1\n      sstore\n        /* \"contracts/Take3Token.sol\":10998:11215  function removeAllFee() private {... */\n      jump\t// out\n        /* \"contracts/Take3Token.sol\":18224:18901  function _transferFromExcluded(... */\n    tag_526:\n        /* \"contracts/Take3Token.sol\":18375:18390  uint256 rAmount */\n      0x00\n        /* \"contracts/Take3Token.sol\":18405:18428  uint256 rTransferAmount */\n      dup1\n        /* \"contracts/Take3Token.sol\":18443:18455  uint256 rFee */\n      0x00\n        /* \"contracts/Take3Token.sol\":18470:18493  uint256 tTransferAmount */\n      dup1\n        /* \"contracts/Take3Token.sol\":18508:18520  uint256 tFee */\n      0x00\n        /* \"contracts/Take3Token.sol\":18556:18575  _getValues(tAmount) */\n      tag_588\n        /* \"contracts/Take3Token.sol\":18567:18574  tAmount */\n      dup7\n        /* \"contracts/Take3Token.sol\":18556:18566  _getValues */\n      tag_293\n        /* \"contracts/Take3Token.sol\":18556:18575  _getValues(tAmount) */\n      jump\t// in\n    tag_588:\n      sub(shl(0xa0, 0x01), 0x01)\n        /* \"contracts/Take3Token.sol\":18604:18619  _tOwned[sender] */\n      dup14\n      and\n      0x00\n      swap1\n      dup2\n      mstore\n        /* \"contracts/Take3Token.sol\":18604:18611  _tOwned */\n      0x66\n        /* \"contracts/Take3Token.sol\":18604:18619  _tOwned[sender] */\n      0x20\n      mstore\n      0x40\n      swap1\n      keccak256\n      sload\n        /* \"contracts/Take3Token.sol\":18360:18575  (... */\n      swap5\n      swap10\n      pop\n      swap3\n      swap8\n      pop\n      swap1\n      swap6\n      pop\n      swap4\n      pop\n      swap2\n      pop\n        /* \"contracts/Take3Token.sol\":18604:18632  _tOwned[sender].sub(tAmount) */\n      tag_589\n      swap1\n        /* \"contracts/Take3Token.sol\":18624:18631  tAmount */\n      dup8\n        /* \"contracts/Take3Token.sol\":18604:18623  _tOwned[sender].sub */\n      tag_295\n        /* \"contracts/Take3Token.sol\":18604:18632  _tOwned[sender].sub(tAmount) */\n      jump\t// in\n    tag_589:\n      sub(shl(0xa0, 0x01), 0x01)\n        /* \"contracts/Take3Token.sol\":18586:18601  _tOwned[sender] */\n      dup10\n      and\n      0x00\n      swap1\n      dup2\n      mstore\n        /* \"contracts/Take3Token.sol\":18586:18593  _tOwned */\n      0x66\n        /* \"contracts/Take3Token.sol\":18586:18601  _tOwned[sender] */\n      0x20\n      swap1\n      dup2\n      mstore\n      0x40\n      dup1\n      dup4\n      keccak256\n        /* \"contracts/Take3Token.sol\":18586:18632  _tOwned[sender] = _tOwned[sender].sub(tAmount) */\n      swap4\n      swap1\n      swap4\n      sstore\n        /* \"contracts/Take3Token.sol\":18661:18668  _rOwned */\n      0x65\n        /* \"contracts/Take3Token.sol\":18661:18676  _rOwned[sender] */\n      swap1\n      mstore\n      keccak256\n      sload\n        /* \"contracts/Take3Token.sol\":18661:18689  _rOwned[sender].sub(rAmount) */\n      tag_590\n      swap1\n        /* \"contracts/Take3Token.sol\":18681:18688  rAmount */\n      dup7\n        /* \"contracts/Take3Token.sol\":18661:18680  _rOwned[sender].sub */\n      tag_295\n        /* \"contracts/Take3Token.sol\":18661:18689  _rOwned[sender].sub(rAmount) */\n      jump\t// in\n    tag_590:\n      sub(shl(0xa0, 0x01), 0x01)\n        /* \"contracts/Take3Token.sol\":18643:18658  _rOwned[sender] */\n      dup1\n      dup11\n      and\n      0x00\n      swap1\n      dup2\n      mstore\n        /* \"contracts/Take3Token.sol\":18643:18650  _rOwned */\n      0x65\n        /* \"contracts/Take3Token.sol\":18643:18658  _rOwned[sender] */\n      0x20\n      mstore\n      0x40\n      dup1\n      dup3\n      keccak256\n        /* \"contracts/Take3Token.sol\":18643:18689  _rOwned[sender] = _rOwned[sender].sub(rAmount) */\n      swap4\n      swap1\n      swap4\n      sstore\n        /* \"contracts/Take3Token.sol\":18721:18739  _rOwned[recipient] */\n      swap1\n      dup10\n      and\n      dup2\n      mstore\n      keccak256\n      sload\n        /* \"contracts/Take3Token.sol\":18721:18760  _rOwned[recipient].add(rTransferAmount) */\n      tag_591\n      swap1\n        /* \"contracts/Take3Token.sol\":18744:18759  rTransferAmount */\n      dup6\n        /* \"contracts/Take3Token.sol\":18721:18743  _rOwned[recipient].add */\n      tag_286\n        /* \"contracts/Take3Token.sol\":18721:18760  _rOwned[recipient].add(rTransferAmount) */\n      jump\t// in\n    tag_591:\n      sub(shl(0xa0, 0x01), 0x01)\n        /* \"contracts/Take3Token.sol\":18700:18718  _rOwned[recipient] */\n      dup9\n      and\n      0x00\n      swap1\n      dup2\n      mstore\n        /* \"contracts/Take3Token.sol\":18700:18707  _rOwned */\n      0x65\n        /* \"contracts/Take3Token.sol\":18700:18718  _rOwned[recipient] */\n      0x20\n      mstore\n      0x40\n      swap1\n      keccak256\n        /* \"contracts/Take3Token.sol\":18700:18760  _rOwned[recipient] = _rOwned[recipient].add(rTransferAmount) */\n      sstore\n        /* \"contracts/Take3Token.sol\":18810:18833  _reflectFee(rFee, tFee) */\n      tag_592\n        /* \"contracts/Take3Token.sol\":18822:18826  rFee */\n      dup4\n        /* \"contracts/Take3Token.sol\":18828:18832  tFee */\n      dup3\n        /* \"contracts/Take3Token.sol\":18810:18821  _reflectFee */\n      tag_593\n        /* \"contracts/Take3Token.sol\":18810:18833  _reflectFee(rFee, tFee) */\n      jump\t// in\n    tag_592:\n        /* \"contracts/Take3Token.sol\":18866:18875  recipient */\n      dup7\n      sub(shl(0xa0, 0x01), 0x01)\n        /* \"contracts/Take3Token.sol\":18849:18893  Transfer(sender, recipient, tTransferAmount) */\n      and\n        /* \"contracts/Take3Token.sol\":18858:18864  sender */\n      dup9\n      sub(shl(0xa0, 0x01), 0x01)\n        /* \"contracts/Take3Token.sol\":18849:18893  Transfer(sender, recipient, tTransferAmount) */\n      and\n      0xddf252ad1be2c89b69c2b068fc378daa952ba7f163c4a11628f55a4df523b3ef\n        /* \"contracts/Take3Token.sol\":18877:18892  tTransferAmount */\n      dup5\n        /* \"contracts/Take3Token.sol\":18849:18893  Transfer(sender, recipient, tTransferAmount) */\n      mload(0x40)\n      tag_594\n      swap2\n        /* \"#utility.yul\":1767:1792   */\n      dup2\n      mstore\n        /* \"#utility.yul\":1755:1757   */\n      0x20\n        /* \"#utility.yul\":1740:1758   */\n      add\n      swap1\n        /* \"#utility.yul\":1621:1798   */\n      jump\n        /* \"contracts/Take3Token.sol\":18849:18893  Transfer(sender, recipient, tTransferAmount) */\n    tag_594:\n      mload(0x40)\n      dup1\n      swap2\n      sub\n      swap1\n      log3\n        /* \"contracts/Take3Token.sol\":18349:18901  {... */\n      pop\n      pop\n      pop\n      pop\n      pop\n        /* \"contracts/Take3Token.sol\":18224:18901  function _transferFromExcluded(... */\n      pop\n      pop\n      pop\n      jump\t// out\n        /* \"contracts/Take3Token.sol\":17527:18216  function _transferToExcluded(... */\n    tag_531:\n        /* \"contracts/Take3Token.sol\":17676:17691  uint256 rAmount */\n      0x00\n        /* \"contracts/Take3Token.sol\":17706:17729  uint256 rTransferAmount */\n      dup1\n        /* \"contracts/Take3Token.sol\":17744:17756  uint256 rFee */\n      0x00\n        /* \"contracts/Take3Token.sol\":17771:17794  uint256 tTransferAmount */\n      dup1\n        /* \"contracts/Take3Token.sol\":17809:17821  uint256 tFee */\n      0x00\n        /* \"contracts/Take3Token.sol\":17857:17876  _getValues(tAmount) */\n      tag_596\n        /* \"contracts/Take3Token.sol\":17868:17875  tAmount */\n      dup7\n        /* \"contracts/Take3Token.sol\":17857:17867  _getValues */\n      tag_293\n        /* \"contracts/Take3Token.sol\":17857:17876  _getValues(tAmount) */\n      jump\t// in\n    tag_596:\n      sub(shl(0xa0, 0x01), 0x01)\n        /* \"contracts/Take3Token.sol\":17905:17920  _rOwned[sender] */\n      dup14\n      and\n      0x00\n      swap1\n      dup2\n      mstore\n        /* \"contracts/Take3Token.sol\":17905:17912  _rOwned */\n      0x65\n        /* \"contracts/Take3Token.sol\":17905:17920  _rOwned[sender] */\n      0x20\n      mstore\n      0x40\n      swap1\n      keccak256\n      sload\n        /* \"contracts/Take3Token.sol\":17661:17876  (... */\n      swap5\n      swap10\n      pop\n      swap3\n      swap8\n      pop\n      swap1\n      swap6\n      pop\n      swap4\n      pop\n      swap2\n      pop\n        /* \"contracts/Take3Token.sol\":17905:17933  _rOwned[sender].sub(rAmount) */\n      tag_597\n      swap1\n        /* \"contracts/Take3Token.sol\":17661:17876  (... */\n      dup7\n        /* \"contracts/Take3Token.sol\":17905:17924  _rOwned[sender].sub */\n      tag_295\n        /* \"contracts/Take3Token.sol\":17905:17933  _rOwned[sender].sub(rAmount) */\n      jump\t// in\n    tag_597:\n      sub(shl(0xa0, 0x01), 0x01)\n        /* \"contracts/Take3Token.sol\":17887:17902  _rOwned[sender] */\n      dup1\n      dup11\n      and\n      0x00\n      swap1\n      dup2\n      mstore\n        /* \"contracts/Take3Token.sol\":17887:17894  _rOwned */\n      0x65\n        /* \"contracts/Take3Token.sol\":17887:17902  _rOwned[sender] */\n      0x20\n      swap1\n      dup2\n      mstore\n      0x40\n      dup1\n      dup4\n      keccak256\n        /* \"contracts/Take3Token.sol\":17887:17933  _rOwned[sender] = _rOwned[sender].sub(rAmount) */\n      swap5\n      swap1\n      swap5\n      sstore\n        /* \"contracts/Take3Token.sol\":17965:17983  _tOwned[recipient] */\n      swap2\n      dup11\n      and\n      dup2\n      mstore\n        /* \"contracts/Take3Token.sol\":17965:17972  _tOwned */\n      0x66\n        /* \"contracts/Take3Token.sol\":17965:17983  _tOwned[recipient] */\n      swap1\n      swap2\n      mstore\n      keccak256\n      sload\n        /* \"contracts/Take3Token.sol\":17965:18004  _tOwned[recipient].add(tTransferAmount) */\n      tag_598\n      swap1\n        /* \"contracts/Take3Token.sol\":17988:18003  tTransferAmount */\n      dup4\n        /* \"contracts/Take3Token.sol\":17965:17987  _tOwned[recipient].add */\n      tag_286\n        /* \"contracts/Take3Token.sol\":17965:18004  _tOwned[recipient].add(tTransferAmount) */\n      jump\t// in\n    tag_598:\n      sub(shl(0xa0, 0x01), 0x01)\n        /* \"contracts/Take3Token.sol\":17944:17962  _tOwned[recipient] */\n      dup9\n      and\n      0x00\n      swap1\n      dup2\n      mstore\n        /* \"contracts/Take3Token.sol\":17944:17951  _tOwned */\n      0x66\n        /* \"contracts/Take3Token.sol\":17944:17962  _tOwned[recipient] */\n      0x20\n      swap1\n      dup2\n      mstore\n      0x40\n      dup1\n      dup4\n      keccak256\n        /* \"contracts/Take3Token.sol\":17944:18004  _tOwned[recipient] = _tOwned[recipient].add(tTransferAmount) */\n      swap4\n      swap1\n      swap4\n      sstore\n        /* \"contracts/Take3Token.sol\":18036:18043  _rOwned */\n      0x65\n        /* \"contracts/Take3Token.sol\":18036:18054  _rOwned[recipient] */\n      swap1\n      mstore\n      keccak256\n      sload\n        /* \"contracts/Take3Token.sol\":18036:18075  _rOwned[recipient].add(rTransferAmount) */\n      tag_591\n      swap1\n        /* \"contracts/Take3Token.sol\":18059:18074  rTransferAmount */\n      dup6\n        /* \"contracts/Take3Token.sol\":18036:18058  _rOwned[recipient].add */\n      tag_286\n        /* \"contracts/Take3Token.sol\":18036:18075  _rOwned[recipient].add(rTransferAmount) */\n      jump\t// in\n        /* \"contracts/Take3Token.sol\":16903:17519  function _transferStandard(... */\n    tag_536:\n        /* \"contracts/Take3Token.sol\":17050:17065  uint256 rAmount */\n      0x00\n        /* \"contracts/Take3Token.sol\":17080:17103  uint256 rTransferAmount */\n      dup1\n        /* \"contracts/Take3Token.sol\":17118:17130  uint256 rFee */\n      0x00\n        /* \"contracts/Take3Token.sol\":17145:17168  uint256 tTransferAmount */\n      dup1\n        /* \"contracts/Take3Token.sol\":17183:17195  uint256 tFee */\n      0x00\n        /* \"contracts/Take3Token.sol\":17231:17250  _getValues(tAmount) */\n      tag_603\n        /* \"contracts/Take3Token.sol\":17242:17249  tAmount */\n      dup7\n        /* \"contracts/Take3Token.sol\":17231:17241  _getValues */\n      tag_293\n        /* \"contracts/Take3Token.sol\":17231:17250  _getValues(tAmount) */\n      jump\t// in\n    tag_603:\n      sub(shl(0xa0, 0x01), 0x01)\n        /* \"contracts/Take3Token.sol\":17279:17294  _rOwned[sender] */\n      dup14\n      and\n      0x00\n      swap1\n      dup2\n      mstore\n        /* \"contracts/Take3Token.sol\":17279:17286  _rOwned */\n      0x65\n        /* \"contracts/Take3Token.sol\":17279:17294  _rOwned[sender] */\n      0x20\n      mstore\n      0x40\n      swap1\n      keccak256\n      sload\n        /* \"contracts/Take3Token.sol\":17035:17250  (... */\n      swap5\n      swap10\n      pop\n      swap3\n      swap8\n      pop\n      swap1\n      swap6\n      pop\n      swap4\n      pop\n      swap2\n      pop\n        /* \"contracts/Take3Token.sol\":17279:17307  _rOwned[sender].sub(rAmount) */\n      tag_590\n      swap1\n        /* \"contracts/Take3Token.sol\":17035:17250  (... */\n      dup7\n        /* \"contracts/Take3Token.sol\":17279:17298  _rOwned[sender].sub */\n      tag_295\n        /* \"contracts/Take3Token.sol\":17279:17307  _rOwned[sender].sub(rAmount) */\n      jump\t// in\n        /* \"contracts/Take3Token.sol\":18909:19657  function _transferBothExcluded(... */\n    tag_541:\n        /* \"contracts/Take3Token.sol\":19060:19075  uint256 rAmount */\n      0x00\n        /* \"contracts/Take3Token.sol\":19090:19113  uint256 rTransferAmount */\n      dup1\n        /* \"contracts/Take3Token.sol\":19128:19140  uint256 rFee */\n      0x00\n        /* \"contracts/Take3Token.sol\":19155:19178  uint256 tTransferAmount */\n      dup1\n        /* \"contracts/Take3Token.sol\":19193:19205  uint256 tFee */\n      0x00\n        /* \"contracts/Take3Token.sol\":19241:19260  _getValues(tAmount) */\n      tag_609\n        /* \"contracts/Take3Token.sol\":19252:19259  tAmount */\n      dup7\n        /* \"contracts/Take3Token.sol\":19241:19251  _getValues */\n      tag_293\n        /* \"contracts/Take3Token.sol\":19241:19260  _getValues(tAmount) */\n      jump\t// in\n    tag_609:\n      sub(shl(0xa0, 0x01), 0x01)\n        /* \"contracts/Take3Token.sol\":19289:19304  _tOwned[sender] */\n      dup14\n      and\n      0x00\n      swap1\n      dup2\n      mstore\n        /* \"contracts/Take3Token.sol\":19289:19296  _tOwned */\n      0x66\n        /* \"contracts/Take3Token.sol\":19289:19304  _tOwned[sender] */\n      0x20\n      mstore\n      0x40\n      swap1\n      keccak256\n      sload\n        /* \"contracts/Take3Token.sol\":19045:19260  (... */\n      swap5\n      swap10\n      pop\n      swap3\n      swap8\n      pop\n      swap1\n      swap6\n      pop\n      swap4\n      pop\n      swap2\n      pop\n        /* \"contracts/Take3Token.sol\":19289:19317  _tOwned[sender].sub(tAmount) */\n      tag_610\n      swap1\n        /* \"contracts/Take3Token.sol\":19309:19316  tAmount */\n      dup8\n        /* \"contracts/Take3Token.sol\":19289:19308  _tOwned[sender].sub */\n      tag_295\n        /* \"contracts/Take3Token.sol\":19289:19317  _tOwned[sender].sub(tAmount) */\n      jump\t// in\n    tag_610:\n      sub(shl(0xa0, 0x01), 0x01)\n        /* \"contracts/Take3Token.sol\":19271:19286  _tOwned[sender] */\n      dup10\n      and\n      0x00\n      swap1\n      dup2\n      mstore\n        /* \"contracts/Take3Token.sol\":19271:19278  _tOwned */\n      0x66\n        /* \"contracts/Take3Token.sol\":19271:19286  _tOwned[sender] */\n      0x20\n      swap1\n      dup2\n      mstore\n      0x40\n      dup1\n      dup4\n      keccak256\n        /* \"contracts/Take3Token.sol\":19271:19317  _tOwned[sender] = _tOwned[sender].sub(tAmount) */\n      swap4\n      swap1\n      swap4\n      sstore\n        /* \"contracts/Take3Token.sol\":19346:19353  _rOwned */\n      0x65\n        /* \"contracts/Take3Token.sol\":19346:19361  _rOwned[sender] */\n      swap1\n      mstore\n      keccak256\n      sload\n        /* \"contracts/Take3Token.sol\":19346:19374  _rOwned[sender].sub(rAmount) */\n      tag_597\n      swap1\n        /* \"contracts/Take3Token.sol\":19366:19373  rAmount */\n      dup7\n        /* \"contracts/Take3Token.sol\":19346:19365  _rOwned[sender].sub */\n      tag_295\n        /* \"contracts/Take3Token.sol\":19346:19374  _rOwned[sender].sub(rAmount) */\n      jump\t// in\n        /* \"contracts/Take3Token.sol\":10860:10990  function calculateTaxFee(uint256 _amount) private view returns (uint256) {... */\n    tag_572:\n        /* \"contracts/Take3Token.sol\":10924:10931  uint256 */\n      0x00\n        /* \"contracts/Take3Token.sol\":10951:10982  _amount.mul(_taxFee).div(10**2) */\n      tag_229\n        /* \"contracts/Take3Token.sol\":10976:10981  10**2 */\n      0x64\n        /* \"contracts/Take3Token.sol\":10951:10971  _amount.mul(_taxFee) */\n      tag_619\n        /* \"contracts/Take3Token.sol\":10963:10970  _taxFee */\n      sload(0x71)\n        /* \"contracts/Take3Token.sol\":10951:10958  _amount */\n      dup6\n        /* \"contracts/Take3Token.sol\":10951:10962  _amount.mul */\n      tag_576\n      swap1\n        /* \"contracts/Take3Token.sol\":10951:10971  _amount.mul(_taxFee) */\n      swap2\n      swap1\n      0xffffffff\n      and\n      jump\t// in\n    tag_619:\n        /* \"contracts/Take3Token.sol\":10951:10975  _amount.mul(_taxFee).div */\n      swap1\n      tag_251\n        /* \"contracts/Take3Token.sol\":10951:10982  _amount.mul(_taxFee).div(10**2) */\n      jump\t// in\n        /* \"@openzeppelin/contracts-upgradeable/utils/Math/SafeMathUpgradeable.sol\":3476:3572  function mul(uint256 a, uint256 b) internal pure returns (uint256) {... */\n    tag_576:\n        /* \"@openzeppelin/contracts-upgradeable/utils/Math/SafeMathUpgradeable.sol\":3534:3541  uint256 */\n      0x00\n        /* \"@openzeppelin/contracts-upgradeable/utils/Math/SafeMathUpgradeable.sol\":3560:3565  a * b */\n      tag_250\n        /* \"@openzeppelin/contracts-upgradeable/utils/Math/SafeMathUpgradeable.sol\":3564:3565  b */\n      dup3\n        /* \"@openzeppelin/contracts-upgradeable/utils/Math/SafeMathUpgradeable.sol\":3560:3561  a */\n      dup5\n        /* \"@openzeppelin/contracts-upgradeable/utils/Math/SafeMathUpgradeable.sol\":3560:3565  a * b */\n      tag_413\n      jump\t// in\n        /* \"contracts/Take3Token.sol\":7733:7880  function _reflectFee(uint256 rFee, uint256 tFee) private {... */\n    tag_593:\n        /* \"contracts/Take3Token.sol\":7811:7818  _rTotal */\n      sload(0x6c)\n        /* \"contracts/Take3Token.sol\":7811:7828  _rTotal.sub(rFee) */\n      tag_623\n      swap1\n        /* \"contracts/Take3Token.sol\":7823:7827  rFee */\n      dup4\n        /* \"contracts/Take3Token.sol\":7811:7822  _rTotal.sub */\n      tag_295\n        /* \"contracts/Take3Token.sol\":7811:7828  _rTotal.sub(rFee) */\n      jump\t// in\n    tag_623:\n        /* \"contracts/Take3Token.sol\":7801:7808  _rTotal */\n      0x6c\n        /* \"contracts/Take3Token.sol\":7801:7828  _rTotal = _rTotal.sub(rFee) */\n      sstore\n        /* \"contracts/Take3Token.sol\":7852:7862  _tFeeTotal */\n      sload(0x6d)\n        /* \"contracts/Take3Token.sol\":7852:7872  _tFeeTotal.add(tFee) */\n      tag_624\n      swap1\n        /* \"contracts/Take3Token.sol\":7867:7871  tFee */\n      dup3\n        /* \"contracts/Take3Token.sol\":7852:7866  _tFeeTotal.add */\n      tag_286\n        /* \"contracts/Take3Token.sol\":7852:7872  _tFeeTotal.add(tFee) */\n      jump\t// in\n    tag_624:\n        /* \"contracts/Take3Token.sol\":7839:7849  _tFeeTotal */\n      0x6d\n        /* \"contracts/Take3Token.sol\":7839:7872  _tFeeTotal = _tFeeTotal.add(tFee) */\n      sstore\n      pop\n      pop\n        /* \"contracts/Take3Token.sol\":7733:7880  function _reflectFee(uint256 rFee, uint256 tFee) private {... */\n      jump\t// out\n    tag_385:\n      pop\n      dup1\n      sload\n      0x00\n      dup3\n      sstore\n      swap1\n      0x00\n      mstore\n      keccak256(0x00, 0x20)\n      swap1\n      dup2\n      add\n      swap1\n      tag_317\n      swap2\n      swap1\n      tag_627\n      jump\t// in\n    tag_387:\n      dup3\n      dup1\n      sload\n      dup3\n      dup3\n      sstore\n      swap1\n      0x00\n      mstore\n      keccak256(0x00, 0x20)\n      swap1\n      dup2\n      add\n      swap3\n      dup3\n      iszero\n      tag_630\n      jumpi\n      swap2\n      0x20\n      mul\n      dup3\n      add\n    tag_629:\n      dup3\n      dup2\n      gt\n      iszero\n      tag_630\n      jumpi\n      dup3\n      mload\n      dup3\n      sload\n      not(sub(shl(0xa0, 0x01), 0x01))\n      and\n      sub(shl(0xa0, 0x01), 0x01)\n      swap1\n      swap2\n      and\n      or\n      dup3\n      sstore\n      0x20\n      swap1\n      swap3\n      add\n      swap2\n      0x01\n      swap1\n      swap2\n      add\n      swap1\n      jump(tag_629)\n    tag_630:\n      pop\n      tag_631\n      swap3\n      swap2\n      pop\n      tag_627\n      jump\t// in\n    tag_631:\n      pop\n      swap1\n      jump\t// out\n    tag_408:\n      dup3\n      dup1\n      sload\n      tag_632\n      swap1\n      tag_223\n      jump\t// in\n    tag_632:\n      swap1\n      0x00\n      mstore\n      keccak256(0x00, 0x20)\n      swap1\n      0x1f\n      add\n      0x20\n      swap1\n      div\n      dup2\n      add\n      swap3\n      dup3\n      tag_634\n      jumpi\n      0x00\n      dup6\n      sstore\n      jump(tag_630)\n    tag_634:\n      dup3\n      0x1f\n      lt\n      tag_635\n      jumpi\n      dup1\n      mload\n      not(0xff)\n      and\n      dup4\n      dup1\n      add\n      or\n      dup6\n      sstore\n      jump(tag_630)\n    tag_635:\n      dup3\n      dup1\n      add\n      0x01\n      add\n      dup6\n      sstore\n      dup3\n      iszero\n      tag_630\n      jumpi\n      swap2\n      dup3\n      add\n    tag_636:\n      dup3\n      dup2\n      gt\n      iszero\n      tag_630\n      jumpi\n      dup3\n      mload\n      dup3\n      sstore\n      swap2\n      0x20\n      add\n      swap2\n      swap1\n      0x01\n      add\n      swap1\n      jump(tag_636)\n    tag_627:\n    tag_639:\n      dup1\n      dup3\n      gt\n      iszero\n      tag_631\n      jumpi\n      0x00\n      dup2\n      sstore\n      0x01\n      add\n      jump(tag_639)\n        /* \"#utility.yul\":14:194   */\n    tag_51:\n        /* \"#utility.yul\":73:79   */\n      0x00\n        /* \"#utility.yul\":126:128   */\n      0x20\n        /* \"#utility.yul\":114:123   */\n      dup3\n        /* \"#utility.yul\":105:112   */\n      dup5\n        /* \"#utility.yul\":101:124   */\n      sub\n        /* \"#utility.yul\":97:129   */\n      slt\n        /* \"#utility.yul\":94:146   */\n      iszero\n      tag_653\n      jumpi\n        /* \"#utility.yul\":142:143   */\n      0x00\n        /* \"#utility.yul\":139:140   */\n      dup1\n        /* \"#utility.yul\":132:144   */\n      revert\n        /* \"#utility.yul\":94:146   */\n    tag_653:\n      pop\n        /* \"#utility.yul\":165:188   */\n      calldataload\n      swap2\n        /* \"#utility.yul\":14:194   */\n      swap1\n      pop\n      jump\t// out\n        /* \"#utility.yul\":199:796   */\n    tag_57:\n        /* \"#utility.yul\":311:315   */\n      0x00\n        /* \"#utility.yul\":340:342   */\n      0x20\n        /* \"#utility.yul\":369:371   */\n      dup1\n        /* \"#utility.yul\":358:367   */\n      dup4\n        /* \"#utility.yul\":351:372   */\n      mstore\n        /* \"#utility.yul\":401:407   */\n      dup4\n        /* \"#utility.yul\":395:408   */\n      mload\n        /* \"#utility.yul\":444:450   */\n      dup1\n        /* \"#utility.yul\":439:441   */\n      dup3\n        /* \"#utility.yul\":428:437   */\n      dup6\n        /* \"#utility.yul\":424:442   */\n      add\n        /* \"#utility.yul\":417:451   */\n      mstore\n        /* \"#utility.yul\":469:470   */\n      0x00\n        /* \"#utility.yul\":479:619   */\n    tag_655:\n        /* \"#utility.yul\":493:499   */\n      dup2\n        /* \"#utility.yul\":490:491   */\n      dup2\n        /* \"#utility.yul\":487:500   */\n      lt\n        /* \"#utility.yul\":479:619   */\n      iszero\n      tag_657\n      jumpi\n        /* \"#utility.yul\":588:602   */\n      dup6\n      dup2\n      add\n        /* \"#utility.yul\":584:607   */\n      dup4\n      add\n        /* \"#utility.yul\":578:608   */\n      mload\n        /* \"#utility.yul\":554:571   */\n      dup6\n      dup3\n      add\n        /* \"#utility.yul\":573:575   */\n      0x40\n        /* \"#utility.yul\":550:576   */\n      add\n        /* \"#utility.yul\":543:609   */\n      mstore\n        /* \"#utility.yul\":508:518   */\n      dup3\n      add\n        /* \"#utility.yul\":479:619   */\n      jump(tag_655)\n    tag_657:\n        /* \"#utility.yul\":637:643   */\n      dup2\n        /* \"#utility.yul\":634:635   */\n      dup2\n        /* \"#utility.yul\":631:644   */\n      gt\n        /* \"#utility.yul\":628:719   */\n      iszero\n      tag_658\n      jumpi\n        /* \"#utility.yul\":707:708   */\n      0x00\n        /* \"#utility.yul\":702:704   */\n      0x40\n        /* \"#utility.yul\":693:699   */\n      dup4\n        /* \"#utility.yul\":682:691   */\n      dup8\n        /* \"#utility.yul\":678:700   */\n      add\n        /* \"#utility.yul\":674:705   */\n      add\n        /* \"#utility.yul\":667:709   */\n      mstore\n        /* \"#utility.yul\":628:719   */\n    tag_658:\n      pop\n        /* \"#utility.yul\":780:782   */\n      0x1f\n        /* \"#utility.yul\":759:774   */\n      add\n      not(0x1f)\n        /* \"#utility.yul\":755:784   */\n      and\n        /* \"#utility.yul\":740:785   */\n      swap3\n      swap1\n      swap3\n      add\n        /* \"#utility.yul\":787:789   */\n      0x40\n        /* \"#utility.yul\":736:790   */\n      add\n      swap4\n        /* \"#utility.yul\":199:796   */\n      swap3\n      pop\n      pop\n      pop\n      jump\t// out\n        /* \"#utility.yul\":801:974   */\n    tag_641:\n        /* \"#utility.yul\":869:889   */\n      dup1\n      calldataload\n      sub(shl(0xa0, 0x01), 0x01)\n        /* \"#utility.yul\":918:949   */\n      dup2\n      and\n        /* \"#utility.yul\":908:950   */\n      dup2\n      eq\n        /* \"#utility.yul\":898:968   */\n      tag_660\n      jumpi\n        /* \"#utility.yul\":964:965   */\n      0x00\n        /* \"#utility.yul\":961:962   */\n      dup1\n        /* \"#utility.yul\":954:966   */\n      revert\n        /* \"#utility.yul\":898:968   */\n    tag_660:\n        /* \"#utility.yul\":801:974   */\n      swap2\n      swap1\n      pop\n      jump\t// out\n        /* \"#utility.yul\":979:1165   */\n    tag_61:\n        /* \"#utility.yul\":1038:1044   */\n      0x00\n        /* \"#utility.yul\":1091:1093   */\n      0x20\n        /* \"#utility.yul\":1079:1088   */\n      dup3\n        /* \"#utility.yul\":1070:1077   */\n      dup5\n        /* \"#utility.yul\":1066:1089   */\n      sub\n        /* \"#utility.yul\":1062:1094   */\n      slt\n        /* \"#utility.yul\":1059:1111   */\n      iszero\n      tag_662\n      jumpi\n        /* \"#utility.yul\":1107:1108   */\n      0x00\n        /* \"#utility.yul\":1104:1105   */\n      dup1\n        /* \"#utility.yul\":1097:1109   */\n      revert\n        /* \"#utility.yul\":1059:1111   */\n    tag_662:\n        /* \"#utility.yul\":1130:1159   */\n      tag_250\n        /* \"#utility.yul\":1149:1158   */\n      dup3\n        /* \"#utility.yul\":1130:1159   */\n      tag_641\n      jump\t// in\n        /* \"#utility.yul\":1362:1616   */\n    tag_68:\n        /* \"#utility.yul\":1430:1436   */\n      0x00\n        /* \"#utility.yul\":1438:1444   */\n      dup1\n        /* \"#utility.yul\":1491:1493   */\n      0x40\n        /* \"#utility.yul\":1479:1488   */\n      dup4\n        /* \"#utility.yul\":1470:1477   */\n      dup6\n        /* \"#utility.yul\":1466:1489   */\n      sub\n        /* \"#utility.yul\":1462:1494   */\n      slt\n        /* \"#utility.yul\":1459:1511   */\n      iszero\n      tag_666\n      jumpi\n        /* \"#utility.yul\":1507:1508   */\n      0x00\n        /* \"#utility.yul\":1504:1505   */\n      dup1\n        /* \"#utility.yul\":1497:1509   */\n      revert\n        /* \"#utility.yul\":1459:1511   */\n    tag_666:\n        /* \"#utility.yul\":1530:1559   */\n      tag_667\n        /* \"#utility.yul\":1549:1558   */\n      dup4\n        /* \"#utility.yul\":1530:1559   */\n      tag_641\n      jump\t// in\n    tag_667:\n        /* \"#utility.yul\":1520:1559   */\n      swap5\n        /* \"#utility.yul\":1606:1608   */\n      0x20\n        /* \"#utility.yul\":1591:1609   */\n      swap4\n      swap1\n      swap4\n      add\n        /* \"#utility.yul\":1578:1610   */\n      calldataload\n      swap4\n      pop\n      pop\n      pop\n        /* \"#utility.yul\":1362:1616   */\n      jump\t// out\n        /* \"#utility.yul\":1803:2131   */\n    tag_83:\n        /* \"#utility.yul\":1880:1886   */\n      0x00\n        /* \"#utility.yul\":1888:1894   */\n      dup1\n        /* \"#utility.yul\":1896:1902   */\n      0x00\n        /* \"#utility.yul\":1949:1951   */\n      0x60\n        /* \"#utility.yul\":1937:1946   */\n      dup5\n        /* \"#utility.yul\":1928:1935   */\n      dup7\n        /* \"#utility.yul\":1924:1947   */\n      sub\n        /* \"#utility.yul\":1920:1952   */\n      slt\n        /* \"#utility.yul\":1917:1969   */\n      iszero\n      tag_670\n      jumpi\n        /* \"#utility.yul\":1965:1966   */\n      0x00\n        /* \"#utility.yul\":1962:1963   */\n      dup1\n        /* \"#utility.yul\":1955:1967   */\n      revert\n        /* \"#utility.yul\":1917:1969   */\n    tag_670:\n        /* \"#utility.yul\":1988:2017   */\n      tag_671\n        /* \"#utility.yul\":2007:2016   */\n      dup5\n        /* \"#utility.yul\":1988:2017   */\n      tag_641\n      jump\t// in\n    tag_671:\n        /* \"#utility.yul\":1978:2017   */\n      swap3\n      pop\n        /* \"#utility.yul\":2036:2074   */\n      tag_672\n        /* \"#utility.yul\":2070:2072   */\n      0x20\n        /* \"#utility.yul\":2059:2068   */\n      dup6\n        /* \"#utility.yul\":2055:2073   */\n      add\n        /* \"#utility.yul\":2036:2074   */\n      tag_641\n      jump\t// in\n    tag_672:\n        /* \"#utility.yul\":2026:2074   */\n      swap2\n      pop\n        /* \"#utility.yul\":2121:2123   */\n      0x40\n        /* \"#utility.yul\":2110:2119   */\n      dup5\n        /* \"#utility.yul\":2106:2124   */\n      add\n        /* \"#utility.yul\":2093:2125   */\n      calldataload\n        /* \"#utility.yul\":2083:2125   */\n      swap1\n      pop\n        /* \"#utility.yul\":1803:2131   */\n      swap3\n      pop\n      swap3\n      pop\n      swap3\n      jump\t// out\n        /* \"#utility.yul\":2136:2477   */\n    tag_119:\n        /* \"#utility.yul\":2201:2207   */\n      0x00\n        /* \"#utility.yul\":2209:2215   */\n      dup1\n        /* \"#utility.yul\":2262:2264   */\n      0x40\n        /* \"#utility.yul\":2250:2259   */\n      dup4\n        /* \"#utility.yul\":2241:2248   */\n      dup6\n        /* \"#utility.yul\":2237:2260   */\n      sub\n        /* \"#utility.yul\":2233:2265   */\n      slt\n        /* \"#utility.yul\":2230:2282   */\n      iszero\n      tag_674\n      jumpi\n        /* \"#utility.yul\":2278:2279   */\n      0x00\n        /* \"#utility.yul\":2275:2276   */\n      dup1\n        /* \"#utility.yul\":2268:2280   */\n      revert\n        /* \"#utility.yul\":2230:2282   */\n    tag_674:\n        /* \"#utility.yul\":2314:2323   */\n      dup3\n        /* \"#utility.yul\":2301:2324   */\n      calldataload\n        /* \"#utility.yul\":2291:2324   */\n      swap2\n      pop\n        /* \"#utility.yul\":2374:2376   */\n      0x20\n        /* \"#utility.yul\":2363:2372   */\n      dup4\n        /* \"#utility.yul\":2359:2377   */\n      add\n        /* \"#utility.yul\":2346:2378   */\n      calldataload\n        /* \"#utility.yul\":2421:2426   */\n      dup1\n        /* \"#utility.yul\":2414:2427   */\n      iszero\n        /* \"#utility.yul\":2407:2428   */\n      iszero\n        /* \"#utility.yul\":2400:2405   */\n      dup2\n        /* \"#utility.yul\":2397:2429   */\n      eq\n        /* \"#utility.yul\":2387:2447   */\n      tag_675\n      jumpi\n        /* \"#utility.yul\":2443:2444   */\n      0x00\n        /* \"#utility.yul\":2440:2441   */\n      dup1\n        /* \"#utility.yul\":2433:2445   */\n      revert\n        /* \"#utility.yul\":2387:2447   */\n    tag_675:\n        /* \"#utility.yul\":2466:2471   */\n      dup1\n        /* \"#utility.yul\":2456:2471   */\n      swap2\n      pop\n      pop\n        /* \"#utility.yul\":2136:2477   */\n      swap3\n      pop\n      swap3\n      swap1\n      pop\n      jump\t// out\n        /* \"#utility.yul\":2482:3140   */\n    tag_126:\n        /* \"#utility.yul\":2653:2655   */\n      0x20\n        /* \"#utility.yul\":2705:2726   */\n      dup1\n      dup3\n      mstore\n        /* \"#utility.yul\":2775:2788   */\n      dup3\n      mload\n        /* \"#utility.yul\":2678:2696   */\n      dup3\n      dup3\n      add\n        /* \"#utility.yul\":2797:2819   */\n      dup2\n      swap1\n      mstore\n        /* \"#utility.yul\":2624:2628   */\n      0x00\n      swap2\n        /* \"#utility.yul\":2653:2655   */\n      swap1\n        /* \"#utility.yul\":2876:2891   */\n      dup5\n      dup3\n      add\n      swap1\n        /* \"#utility.yul\":2850:2852   */\n      0x40\n        /* \"#utility.yul\":2835:2853   */\n      dup6\n      add\n      swap1\n        /* \"#utility.yul\":2624:2628   */\n      dup5\n        /* \"#utility.yul\":2919:3114   */\n    tag_677:\n        /* \"#utility.yul\":2933:2939   */\n      dup2\n        /* \"#utility.yul\":2930:2931   */\n      dup2\n        /* \"#utility.yul\":2927:2940   */\n      lt\n        /* \"#utility.yul\":2919:3114   */\n      iszero\n      tag_679\n      jumpi\n        /* \"#utility.yul\":2998:3011   */\n      dup4\n      mload\n      sub(shl(0xa0, 0x01), 0x01)\n        /* \"#utility.yul\":2994:3033   */\n      and\n        /* \"#utility.yul\":2982:3034   */\n      dup4\n      mstore\n        /* \"#utility.yul\":3089:3104   */\n      swap3\n      dup5\n      add\n      swap3\n        /* \"#utility.yul\":3054:3066   */\n      swap2\n      dup5\n      add\n      swap2\n        /* \"#utility.yul\":3030:3031   */\n      0x01\n        /* \"#utility.yul\":2948:2957   */\n      add\n        /* \"#utility.yul\":2919:3114   */\n      jump(tag_677)\n    tag_679:\n      pop\n        /* \"#utility.yul\":3131:3134   */\n      swap1\n      swap7\n        /* \"#utility.yul\":2482:3140   */\n      swap6\n      pop\n      pop\n      pop\n      pop\n      pop\n      pop\n      jump\t// out\n        /* \"#utility.yul\":3145:3272   */\n    tag_642:\n        /* \"#utility.yul\":3206:3216   */\n      0x4e487b71\n        /* \"#utility.yul\":3201:3204   */\n      0xe0\n        /* \"#utility.yul\":3197:3217   */\n      shl\n        /* \"#utility.yul\":3194:3195   */\n      0x00\n        /* \"#utility.yul\":3187:3218   */\n      mstore\n        /* \"#utility.yul\":3237:3241   */\n      0x41\n        /* \"#utility.yul\":3234:3235   */\n      0x04\n        /* \"#utility.yul\":3227:3242   */\n      mstore\n        /* \"#utility.yul\":3261:3265   */\n      0x24\n        /* \"#utility.yul\":3258:3259   */\n      0x00\n        /* \"#utility.yul\":3251:3266   */\n      revert\n        /* \"#utility.yul\":3277:3552   */\n    tag_643:\n        /* \"#utility.yul\":3348:3350   */\n      0x40\n        /* \"#utility.yul\":3342:3351   */\n      mload\n        /* \"#utility.yul\":3413:3415   */\n      0x1f\n        /* \"#utility.yul\":3394:3407   */\n      dup3\n      add\n      not(0x1f)\n        /* \"#utility.yul\":3390:3417   */\n      and\n        /* \"#utility.yul\":3378:3418   */\n      dup2\n      add\n      sub(shl(0x40, 0x01), 0x01)\n        /* \"#utility.yul\":3433:3467   */\n      dup2\n      gt\n        /* \"#utility.yul\":3469:3491   */\n      dup3\n      dup3\n      lt\n        /* \"#utility.yul\":3430:3492   */\n      or\n        /* \"#utility.yul\":3427:3515   */\n      iszero\n      tag_683\n      jumpi\n        /* \"#utility.yul\":3495:3513   */\n      tag_683\n      tag_642\n      jump\t// in\n    tag_683:\n        /* \"#utility.yul\":3531:3533   */\n      0x40\n        /* \"#utility.yul\":3524:3546   */\n      mstore\n        /* \"#utility.yul\":3277:3552   */\n      swap2\n      swap1\n      pop\n      jump\t// out\n        /* \"#utility.yul\":3557:3738   */\n    tag_644:\n        /* \"#utility.yul\":3615:3619   */\n      0x00\n      sub(shl(0x40, 0x01), 0x01)\n        /* \"#utility.yul\":3640:3646   */\n      dup3\n        /* \"#utility.yul\":3637:3667   */\n      gt\n        /* \"#utility.yul\":3634:3690   */\n      iszero\n      tag_686\n      jumpi\n        /* \"#utility.yul\":3670:3688   */\n      tag_686\n      tag_642\n      jump\t// in\n    tag_686:\n      pop\n        /* \"#utility.yul\":3715:3716   */\n      0x05\n        /* \"#utility.yul\":3711:3725   */\n      shl\n        /* \"#utility.yul\":3727:3731   */\n      0x20\n        /* \"#utility.yul\":3707:3732   */\n      add\n      swap1\n        /* \"#utility.yul\":3557:3738   */\n      jump\t// out\n        /* \"#utility.yul\":3743:4403   */\n    tag_645:\n        /* \"#utility.yul\":3797:3802   */\n      0x00\n        /* \"#utility.yul\":3850:3853   */\n      dup3\n        /* \"#utility.yul\":3843:3847   */\n      0x1f\n        /* \"#utility.yul\":3835:3841   */\n      dup4\n        /* \"#utility.yul\":3831:3848   */\n      add\n        /* \"#utility.yul\":3827:3854   */\n      slt\n        /* \"#utility.yul\":3817:3872   */\n      tag_688\n      jumpi\n        /* \"#utility.yul\":3868:3869   */\n      0x00\n        /* \"#utility.yul\":3865:3866   */\n      dup1\n        /* \"#utility.yul\":3858:3870   */\n      revert\n        /* \"#utility.yul\":3817:3872   */\n    tag_688:\n        /* \"#utility.yul\":3904:3910   */\n      dup2\n        /* \"#utility.yul\":3891:3911   */\n      calldataload\n        /* \"#utility.yul\":3930:3934   */\n      0x20\n        /* \"#utility.yul\":3954:4012   */\n      tag_689\n        /* \"#utility.yul\":3970:4011   */\n      tag_690\n        /* \"#utility.yul\":4008:4010   */\n      dup4\n        /* \"#utility.yul\":3970:4011   */\n      tag_644\n      jump\t// in\n    tag_690:\n        /* \"#utility.yul\":3954:4012   */\n      tag_643\n      jump\t// in\n    tag_689:\n        /* \"#utility.yul\":4046:4061   */\n      dup3\n      dup2\n      mstore\n        /* \"#utility.yul\":4132:4133   */\n      0x05\n        /* \"#utility.yul\":4128:4138   */\n      swap3\n      swap1\n      swap3\n      shl\n        /* \"#utility.yul\":4116:4139   */\n      dup5\n      add\n        /* \"#utility.yul\":4112:4144   */\n      dup2\n      add\n      swap2\n        /* \"#utility.yul\":4077:4089   */\n      dup2\n      dup2\n      add\n      swap1\n        /* \"#utility.yul\":4156:4171   */\n      dup7\n      dup5\n      gt\n        /* \"#utility.yul\":4153:4188   */\n      iszero\n      tag_691\n      jumpi\n        /* \"#utility.yul\":4184:4185   */\n      0x00\n        /* \"#utility.yul\":4181:4182   */\n      dup1\n        /* \"#utility.yul\":4174:4186   */\n      revert\n        /* \"#utility.yul\":4153:4188   */\n    tag_691:\n        /* \"#utility.yul\":4220:4222   */\n      dup3\n        /* \"#utility.yul\":4212:4218   */\n      dup7\n        /* \"#utility.yul\":4208:4223   */\n      add\n        /* \"#utility.yul\":4232:4374   */\n    tag_692:\n        /* \"#utility.yul\":4248:4254   */\n      dup5\n        /* \"#utility.yul\":4243:4246   */\n      dup2\n        /* \"#utility.yul\":4240:4255   */\n      lt\n        /* \"#utility.yul\":4232:4374   */\n      iszero\n      tag_694\n      jumpi\n        /* \"#utility.yul\":4314:4331   */\n      dup1\n      calldataload\n        /* \"#utility.yul\":4302:4332   */\n      dup4\n      mstore\n        /* \"#utility.yul\":4352:4364   */\n      swap2\n      dup4\n      add\n      swap2\n        /* \"#utility.yul\":4265:4277   */\n      dup4\n      add\n        /* \"#utility.yul\":4232:4374   */\n      jump(tag_692)\n    tag_694:\n      pop\n        /* \"#utility.yul\":4392:4397   */\n      swap7\n        /* \"#utility.yul\":3743:4403   */\n      swap6\n      pop\n      pop\n      pop\n      pop\n      pop\n      pop\n      jump\t// out\n        /* \"#utility.yul\":4408:6219   */\n    tag_133:\n        /* \"#utility.yul\":4594:4600   */\n      0x00\n        /* \"#utility.yul\":4602:4608   */\n      dup1\n        /* \"#utility.yul\":4610:4616   */\n      0x00\n        /* \"#utility.yul\":4618:4624   */\n      dup1\n        /* \"#utility.yul\":4626:4632   */\n      0x00\n        /* \"#utility.yul\":4634:4640   */\n      dup1\n        /* \"#utility.yul\":4642:4648   */\n      0x00\n        /* \"#utility.yul\":4695:4698   */\n      0xe0\n        /* \"#utility.yul\":4683:4692   */\n      dup9\n        /* \"#utility.yul\":4674:4681   */\n      dup11\n        /* \"#utility.yul\":4670:4693   */\n      sub\n        /* \"#utility.yul\":4666:4699   */\n      slt\n        /* \"#utility.yul\":4663:4716   */\n      iszero\n      tag_696\n      jumpi\n        /* \"#utility.yul\":4712:4713   */\n      0x00\n        /* \"#utility.yul\":4709:4710   */\n      dup1\n        /* \"#utility.yul\":4702:4714   */\n      revert\n        /* \"#utility.yul\":4663:4716   */\n    tag_696:\n        /* \"#utility.yul\":4735:4764   */\n      tag_697\n        /* \"#utility.yul\":4754:4763   */\n      dup9\n        /* \"#utility.yul\":4735:4764   */\n      tag_641\n      jump\t// in\n    tag_697:\n        /* \"#utility.yul\":4725:4764   */\n      swap7\n      pop\n        /* \"#utility.yul\":4783:4785   */\n      0x20\n        /* \"#utility.yul\":4832:4834   */\n      dup1\n        /* \"#utility.yul\":4821:4830   */\n      dup10\n        /* \"#utility.yul\":4817:4835   */\n      add\n        /* \"#utility.yul\":4804:4836   */\n      calldataload\n        /* \"#utility.yul\":4794:4836   */\n      swap7\n      pop\n        /* \"#utility.yul\":4883:4885   */\n      0x40\n        /* \"#utility.yul\":4872:4881   */\n      dup10\n        /* \"#utility.yul\":4868:4886   */\n      add\n        /* \"#utility.yul\":4855:4887   */\n      calldataload\n        /* \"#utility.yul\":4845:4887   */\n      swap6\n      pop\n        /* \"#utility.yul\":4934:4936   */\n      0x60\n        /* \"#utility.yul\":4923:4932   */\n      dup10\n        /* \"#utility.yul\":4919:4937   */\n      add\n        /* \"#utility.yul\":4906:4938   */\n      calldataload\n        /* \"#utility.yul\":4896:4938   */\n      swap5\n      pop\n        /* \"#utility.yul\":4989:4992   */\n      0x80\n        /* \"#utility.yul\":4978:4987   */\n      dup10\n        /* \"#utility.yul\":4974:4993   */\n      add\n        /* \"#utility.yul\":4961:4994   */\n      calldataload\n      sub(shl(0x40, 0x01), 0x01)\n        /* \"#utility.yul\":5054:5056   */\n      dup1\n        /* \"#utility.yul\":5046:5052   */\n      dup3\n        /* \"#utility.yul\":5043:5057   */\n      gt\n        /* \"#utility.yul\":5040:5074   */\n      iszero\n      tag_698\n      jumpi\n        /* \"#utility.yul\":5070:5071   */\n      0x00\n        /* \"#utility.yul\":5067:5068   */\n      dup1\n        /* \"#utility.yul\":5060:5072   */\n      revert\n        /* \"#utility.yul\":5040:5074   */\n    tag_698:\n        /* \"#utility.yul\":5108:5114   */\n      dup2\n        /* \"#utility.yul\":5097:5106   */\n      dup12\n        /* \"#utility.yul\":5093:5115   */\n      add\n        /* \"#utility.yul\":5083:5115   */\n      swap2\n      pop\n        /* \"#utility.yul\":5153:5160   */\n      dup12\n        /* \"#utility.yul\":5146:5150   */\n      0x1f\n        /* \"#utility.yul\":5142:5144   */\n      dup4\n        /* \"#utility.yul\":5138:5151   */\n      add\n        /* \"#utility.yul\":5134:5161   */\n      slt\n        /* \"#utility.yul\":5124:5179   */\n      tag_699\n      jumpi\n        /* \"#utility.yul\":5175:5176   */\n      0x00\n        /* \"#utility.yul\":5172:5173   */\n      dup1\n        /* \"#utility.yul\":5165:5177   */\n      revert\n        /* \"#utility.yul\":5124:5179   */\n    tag_699:\n        /* \"#utility.yul\":5211:5213   */\n      dup2\n        /* \"#utility.yul\":5198:5214   */\n      calldataload\n        /* \"#utility.yul\":5234:5292   */\n      tag_700\n        /* \"#utility.yul\":5250:5291   */\n      tag_690\n        /* \"#utility.yul\":5288:5290   */\n      dup3\n        /* \"#utility.yul\":5250:5291   */\n      tag_644\n      jump\t// in\n        /* \"#utility.yul\":5234:5292   */\n    tag_700:\n        /* \"#utility.yul\":5326:5341   */\n      dup2\n      dup2\n      mstore\n        /* \"#utility.yul\":5408:5409   */\n      0x05\n        /* \"#utility.yul\":5404:5414   */\n      swap2\n      swap1\n      swap2\n      shl\n        /* \"#utility.yul\":5396:5415   */\n      dup4\n      add\n        /* \"#utility.yul\":5392:5420   */\n      dup5\n      add\n      swap1\n        /* \"#utility.yul\":5357:5369   */\n      dup5\n      dup2\n      add\n      swap1\n        /* \"#utility.yul\":5432:5451   */\n      dup15\n      dup4\n      gt\n        /* \"#utility.yul\":5429:5468   */\n      iszero\n      tag_702\n      jumpi\n        /* \"#utility.yul\":5464:5465   */\n      0x00\n        /* \"#utility.yul\":5461:5462   */\n      dup1\n        /* \"#utility.yul\":5454:5466   */\n      revert\n        /* \"#utility.yul\":5429:5468   */\n    tag_702:\n        /* \"#utility.yul\":5488:5499   */\n      swap4\n      dup6\n      add\n      swap4\n        /* \"#utility.yul\":5508:5819   */\n    tag_703:\n        /* \"#utility.yul\":5524:5530   */\n      dup3\n        /* \"#utility.yul\":5519:5522   */\n      dup6\n        /* \"#utility.yul\":5516:5531   */\n      lt\n        /* \"#utility.yul\":5508:5819   */\n      iszero\n      tag_705\n      jumpi\n        /* \"#utility.yul\":5604:5607   */\n      dup5\n        /* \"#utility.yul\":5591:5608   */\n      calldataload\n        /* \"#utility.yul\":5652:5656   */\n      0xff\n        /* \"#utility.yul\":5645:5650   */\n      dup2\n        /* \"#utility.yul\":5641:5657   */\n      and\n        /* \"#utility.yul\":5634:5639   */\n      dup2\n        /* \"#utility.yul\":5631:5658   */\n      eq\n        /* \"#utility.yul\":5621:5746   */\n      tag_706\n      jumpi\n        /* \"#utility.yul\":5700:5701   */\n      0x00\n        /* \"#utility.yul\":5729:5731   */\n      dup1\n        /* \"#utility.yul\":5725:5727   */\n      dup2\n        /* \"#utility.yul\":5718:5732   */\n      revert\n        /* \"#utility.yul\":5621:5746   */\n    tag_706:\n        /* \"#utility.yul\":5759:5777   */\n      dup3\n      mstore\n        /* \"#utility.yul\":5541:5553   */\n      swap4\n      dup6\n      add\n      swap4\n        /* \"#utility.yul\":5797:5809   */\n      swap1\n      dup6\n      add\n      swap1\n        /* \"#utility.yul\":5508:5819   */\n      jump(tag_703)\n    tag_705:\n        /* \"#utility.yul\":5838:5843   */\n      swap8\n      pop\n      pop\n      pop\n        /* \"#utility.yul\":5896:5899   */\n      0xa0\n        /* \"#utility.yul\":5881:5900   */\n      dup12\n      add\n        /* \"#utility.yul\":5868:5901   */\n      calldataload\n      swap3\n      pop\n        /* \"#utility.yul\":5913:5929   */\n      dup1\n      dup4\n      gt\n        /* \"#utility.yul\":5910:5946   */\n      iszero\n      tag_707\n      jumpi\n        /* \"#utility.yul\":5942:5943   */\n      0x00\n        /* \"#utility.yul\":5939:5940   */\n      dup1\n        /* \"#utility.yul\":5932:5944   */\n      revert\n        /* \"#utility.yul\":5910:5946   */\n    tag_707:\n        /* \"#utility.yul\":5965:6028   */\n      tag_708\n        /* \"#utility.yul\":6020:6027   */\n      dup13\n        /* \"#utility.yul\":6009:6017   */\n      dup5\n        /* \"#utility.yul\":5998:6007   */\n      dup14\n        /* \"#utility.yul\":5994:6018   */\n      add\n        /* \"#utility.yul\":5965:6028   */\n      tag_645\n      jump\t// in\n    tag_708:\n        /* \"#utility.yul\":5955:6028   */\n      swap5\n      pop\n        /* \"#utility.yul\":6081:6084   */\n      0xc0\n        /* \"#utility.yul\":6070:6079   */\n      dup12\n        /* \"#utility.yul\":6066:6085   */\n      add\n        /* \"#utility.yul\":6053:6086   */\n      calldataload\n        /* \"#utility.yul\":6037:6086   */\n      swap3\n      pop\n        /* \"#utility.yul\":6111:6113   */\n      dup1\n        /* \"#utility.yul\":6101:6109   */\n      dup4\n        /* \"#utility.yul\":6098:6114   */\n      gt\n        /* \"#utility.yul\":6095:6131   */\n      iszero\n      tag_709\n      jumpi\n        /* \"#utility.yul\":6127:6128   */\n      0x00\n        /* \"#utility.yul\":6124:6125   */\n      dup1\n        /* \"#utility.yul\":6117:6129   */\n      revert\n        /* \"#utility.yul\":6095:6131   */\n    tag_709:\n      pop\n      pop\n        /* \"#utility.yul\":6150:6213   */\n      tag_710\n        /* \"#utility.yul\":6205:6212   */\n      dup11\n        /* \"#utility.yul\":6194:6202   */\n      dup3\n        /* \"#utility.yul\":6183:6192   */\n      dup12\n        /* \"#utility.yul\":6179:6203   */\n      add\n        /* \"#utility.yul\":6150:6213   */\n      tag_645\n      jump\t// in\n    tag_710:\n        /* \"#utility.yul\":6140:6213   */\n      swap2\n      pop\n      pop\n        /* \"#utility.yul\":4408:6219   */\n      swap3\n      swap6\n      swap9\n      swap2\n      swap5\n      swap8\n      pop\n      swap3\n      swap6\n      pop\n      jump\t// out\n        /* \"#utility.yul\":6432:7327   */\n    tag_177:\n        /* \"#utility.yul\":6516:6522   */\n      0x00\n        /* \"#utility.yul\":6547:6549   */\n      0x20\n        /* \"#utility.yul\":6590:6592   */\n      dup1\n        /* \"#utility.yul\":6578:6587   */\n      dup4\n        /* \"#utility.yul\":6569:6576   */\n      dup6\n        /* \"#utility.yul\":6565:6588   */\n      sub\n        /* \"#utility.yul\":6561:6593   */\n      slt\n        /* \"#utility.yul\":6558:6610   */\n      iszero\n      tag_713\n      jumpi\n        /* \"#utility.yul\":6606:6607   */\n      0x00\n        /* \"#utility.yul\":6603:6604   */\n      dup1\n        /* \"#utility.yul\":6596:6608   */\n      revert\n        /* \"#utility.yul\":6558:6610   */\n    tag_713:\n        /* \"#utility.yul\":6646:6655   */\n      dup3\n        /* \"#utility.yul\":6633:6656   */\n      calldataload\n      sub(shl(0x40, 0x01), 0x01)\n        /* \"#utility.yul\":6671:6677   */\n      dup2\n        /* \"#utility.yul\":6668:6698   */\n      gt\n        /* \"#utility.yul\":6665:6715   */\n      iszero\n      tag_714\n      jumpi\n        /* \"#utility.yul\":6711:6712   */\n      0x00\n        /* \"#utility.yul\":6708:6709   */\n      dup1\n        /* \"#utility.yul\":6701:6713   */\n      revert\n        /* \"#utility.yul\":6665:6715   */\n    tag_714:\n        /* \"#utility.yul\":6734:6756   */\n      dup4\n      add\n        /* \"#utility.yul\":6787:6791   */\n      0x1f\n        /* \"#utility.yul\":6779:6792   */\n      dup2\n      add\n        /* \"#utility.yul\":6775:6802   */\n      dup6\n      sgt\n        /* \"#utility.yul\":6765:6820   */\n      tag_715\n      jumpi\n        /* \"#utility.yul\":6816:6817   */\n      0x00\n        /* \"#utility.yul\":6813:6814   */\n      dup1\n        /* \"#utility.yul\":6806:6818   */\n      revert\n        /* \"#utility.yul\":6765:6820   */\n    tag_715:\n        /* \"#utility.yul\":6852:6854   */\n      dup1\n        /* \"#utility.yul\":6839:6855   */\n      calldataload\n        /* \"#utility.yul\":6875:6933   */\n      tag_716\n        /* \"#utility.yul\":6891:6932   */\n      tag_690\n        /* \"#utility.yul\":6929:6931   */\n      dup3\n        /* \"#utility.yul\":6891:6932   */\n      tag_644\n      jump\t// in\n        /* \"#utility.yul\":6875:6933   */\n    tag_716:\n        /* \"#utility.yul\":6967:6982   */\n      dup2\n      dup2\n      mstore\n        /* \"#utility.yul\":7049:7050   */\n      0x05\n        /* \"#utility.yul\":7045:7055   */\n      swap2\n      swap1\n      swap2\n      shl\n        /* \"#utility.yul\":7037:7056   */\n      dup3\n      add\n        /* \"#utility.yul\":7033:7061   */\n      dup4\n      add\n      swap1\n        /* \"#utility.yul\":6998:7010   */\n      dup4\n      dup2\n      add\n      swap1\n        /* \"#utility.yul\":7073:7092   */\n      dup8\n      dup4\n      gt\n        /* \"#utility.yul\":7070:7109   */\n      iszero\n      tag_718\n      jumpi\n        /* \"#utility.yul\":7105:7106   */\n      0x00\n        /* \"#utility.yul\":7102:7103   */\n      dup1\n        /* \"#utility.yul\":7095:7107   */\n      revert\n        /* \"#utility.yul\":7070:7109   */\n    tag_718:\n        /* \"#utility.yul\":7129:7140   */\n      swap3\n      dup5\n      add\n      swap3\n        /* \"#utility.yul\":7149:7297   */\n    tag_719:\n        /* \"#utility.yul\":7165:7171   */\n      dup3\n        /* \"#utility.yul\":7160:7163   */\n      dup5\n        /* \"#utility.yul\":7157:7172   */\n      lt\n        /* \"#utility.yul\":7149:7297   */\n      iszero\n      tag_721\n      jumpi\n        /* \"#utility.yul\":7231:7254   */\n      tag_722\n        /* \"#utility.yul\":7250:7253   */\n      dup5\n        /* \"#utility.yul\":7231:7254   */\n      tag_641\n      jump\t// in\n    tag_722:\n        /* \"#utility.yul\":7219:7255   */\n      dup3\n      mstore\n        /* \"#utility.yul\":7182:7194   */\n      swap3\n      dup5\n      add\n      swap3\n        /* \"#utility.yul\":7275:7287   */\n      swap1\n      dup5\n      add\n      swap1\n        /* \"#utility.yul\":7149:7297   */\n      jump(tag_719)\n    tag_721:\n        /* \"#utility.yul\":7316:7321   */\n      swap8\n        /* \"#utility.yul\":6432:7327   */\n      swap7\n      pop\n      pop\n      pop\n      pop\n      pop\n      pop\n      pop\n      jump\t// out\n        /* \"#utility.yul\":7332:7863   */\n    tag_646:\n        /* \"#utility.yul\":7375:7380   */\n      0x00\n        /* \"#utility.yul\":7428:7431   */\n      dup3\n        /* \"#utility.yul\":7421:7425   */\n      0x1f\n        /* \"#utility.yul\":7413:7419   */\n      dup4\n        /* \"#utility.yul\":7409:7426   */\n      add\n        /* \"#utility.yul\":7405:7432   */\n      slt\n        /* \"#utility.yul\":7395:7450   */\n      tag_724\n      jumpi\n        /* \"#utility.yul\":7446:7447   */\n      0x00\n        /* \"#utility.yul\":7443:7444   */\n      dup1\n        /* \"#utility.yul\":7436:7448   */\n      revert\n        /* \"#utility.yul\":7395:7450   */\n    tag_724:\n        /* \"#utility.yul\":7482:7488   */\n      dup2\n        /* \"#utility.yul\":7469:7489   */\n      calldataload\n      sub(shl(0x40, 0x01), 0x01)\n        /* \"#utility.yul\":7504:7506   */\n      dup2\n        /* \"#utility.yul\":7501:7527   */\n      gt\n        /* \"#utility.yul\":7498:7550   */\n      iszero\n      tag_726\n      jumpi\n        /* \"#utility.yul\":7530:7548   */\n      tag_726\n      tag_642\n      jump\t// in\n    tag_726:\n        /* \"#utility.yul\":7574:7629   */\n      tag_727\n        /* \"#utility.yul\":7617:7619   */\n      0x1f\n        /* \"#utility.yul\":7598:7611   */\n      dup3\n      add\n      not(0x1f)\n        /* \"#utility.yul\":7594:7621   */\n      and\n        /* \"#utility.yul\":7623:7627   */\n      0x20\n        /* \"#utility.yul\":7590:7628   */\n      add\n        /* \"#utility.yul\":7574:7629   */\n      tag_643\n      jump\t// in\n    tag_727:\n        /* \"#utility.yul\":7654:7656   */\n      dup2\n        /* \"#utility.yul\":7645:7652   */\n      dup2\n        /* \"#utility.yul\":7638:7657   */\n      mstore\n        /* \"#utility.yul\":7700:7703   */\n      dup5\n        /* \"#utility.yul\":7693:7697   */\n      0x20\n        /* \"#utility.yul\":7688:7690   */\n      dup4\n        /* \"#utility.yul\":7680:7686   */\n      dup7\n        /* \"#utility.yul\":7676:7691   */\n      add\n        /* \"#utility.yul\":7672:7698   */\n      add\n        /* \"#utility.yul\":7669:7704   */\n      gt\n        /* \"#utility.yul\":7666:7721   */\n      iszero\n      tag_728\n      jumpi\n        /* \"#utility.yul\":7717:7718   */\n      0x00\n        /* \"#utility.yul\":7714:7715   */\n      dup1\n        /* \"#utility.yul\":7707:7719   */\n      revert\n        /* \"#utility.yul\":7666:7721   */\n    tag_728:\n        /* \"#utility.yul\":7782:7784   */\n      dup2\n        /* \"#utility.yul\":7775:7779   */\n      0x20\n        /* \"#utility.yul\":7767:7773   */\n      dup6\n        /* \"#utility.yul\":7763:7780   */\n      add\n        /* \"#utility.yul\":7756:7760   */\n      0x20\n        /* \"#utility.yul\":7747:7754   */\n      dup4\n        /* \"#utility.yul\":7743:7761   */\n      add\n        /* \"#utility.yul\":7730:7785   */\n      calldatacopy\n        /* \"#utility.yul\":7830:7831   */\n      0x00\n        /* \"#utility.yul\":7805:7821   */\n      swap2\n      dup2\n      add\n        /* \"#utility.yul\":7823:7827   */\n      0x20\n        /* \"#utility.yul\":7801:7828   */\n      add\n        /* \"#utility.yul\":7794:7832   */\n      swap2\n      swap1\n      swap2\n      mstore\n        /* \"#utility.yul\":7809:7816   */\n      swap4\n        /* \"#utility.yul\":7332:7863   */\n      swap3\n      pop\n      pop\n      pop\n      jump\t// out\n        /* \"#utility.yul\":7868:8761   */\n    tag_187:\n        /* \"#utility.yul\":8001:8007   */\n      0x00\n        /* \"#utility.yul\":8009:8015   */\n      dup1\n        /* \"#utility.yul\":8017:8023   */\n      0x00\n        /* \"#utility.yul\":8025:8031   */\n      dup1\n        /* \"#utility.yul\":8033:8039   */\n      0x00\n        /* \"#utility.yul\":8041:8047   */\n      dup1\n        /* \"#utility.yul\":8049:8055   */\n      0x00\n        /* \"#utility.yul\":8102:8105   */\n      0xe0\n        /* \"#utility.yul\":8090:8099   */\n      dup9\n        /* \"#utility.yul\":8081:8088   */\n      dup11\n        /* \"#utility.yul\":8077:8100   */\n      sub\n        /* \"#utility.yul\":8073:8106   */\n      slt\n        /* \"#utility.yul\":8070:8123   */\n      iszero\n      tag_730\n      jumpi\n        /* \"#utility.yul\":8119:8120   */\n      0x00\n        /* \"#utility.yul\":8116:8117   */\n      dup1\n        /* \"#utility.yul\":8109:8121   */\n      revert\n        /* \"#utility.yul\":8070:8123   */\n    tag_730:\n        /* \"#utility.yul\":8159:8168   */\n      dup8\n        /* \"#utility.yul\":8146:8169   */\n      calldataload\n      sub(shl(0x40, 0x01), 0x01)\n        /* \"#utility.yul\":8229:8231   */\n      dup1\n        /* \"#utility.yul\":8221:8227   */\n      dup3\n        /* \"#utility.yul\":8218:8232   */\n      gt\n        /* \"#utility.yul\":8215:8249   */\n      iszero\n      tag_731\n      jumpi\n        /* \"#utility.yul\":8245:8246   */\n      0x00\n        /* \"#utility.yul\":8242:8243   */\n      dup1\n        /* \"#utility.yul\":8235:8247   */\n      revert\n        /* \"#utility.yul\":8215:8249   */\n    tag_731:\n        /* \"#utility.yul\":8268:8318   */\n      tag_732\n        /* \"#utility.yul\":8310:8317   */\n      dup12\n        /* \"#utility.yul\":8301:8307   */\n      dup4\n        /* \"#utility.yul\":8290:8299   */\n      dup13\n        /* \"#utility.yul\":8286:8308   */\n      add\n        /* \"#utility.yul\":8268:8318   */\n      tag_646\n      jump\t// in\n    tag_732:\n        /* \"#utility.yul\":8258:8318   */\n      swap9\n      pop\n        /* \"#utility.yul\":8371:8373   */\n      0x20\n        /* \"#utility.yul\":8360:8369   */\n      dup11\n        /* \"#utility.yul\":8356:8374   */\n      add\n        /* \"#utility.yul\":8343:8375   */\n      calldataload\n        /* \"#utility.yul\":8327:8375   */\n      swap2\n      pop\n        /* \"#utility.yul\":8400:8402   */\n      dup1\n        /* \"#utility.yul\":8390:8398   */\n      dup3\n        /* \"#utility.yul\":8387:8403   */\n      gt\n        /* \"#utility.yul\":8384:8420   */\n      iszero\n      tag_733\n      jumpi\n        /* \"#utility.yul\":8416:8417   */\n      0x00\n        /* \"#utility.yul\":8413:8414   */\n      dup1\n        /* \"#utility.yul\":8406:8418   */\n      revert\n        /* \"#utility.yul\":8384:8420   */\n    tag_733:\n      pop\n        /* \"#utility.yul\":8439:8491   */\n      tag_734\n        /* \"#utility.yul\":8483:8490   */\n      dup11\n        /* \"#utility.yul\":8472:8480   */\n      dup3\n        /* \"#utility.yul\":8461:8470   */\n      dup12\n        /* \"#utility.yul\":8457:8481   */\n      add\n        /* \"#utility.yul\":8439:8491   */\n      tag_646\n      jump\t// in\n    tag_734:\n        /* \"#utility.yul\":8429:8491   */\n      swap7\n      pop\n      pop\n        /* \"#utility.yul\":8538:8540   */\n      0x40\n        /* \"#utility.yul\":8527:8536   */\n      dup9\n        /* \"#utility.yul\":8523:8541   */\n      add\n        /* \"#utility.yul\":8510:8542   */\n      calldataload\n        /* \"#utility.yul\":8500:8542   */\n      swap5\n      pop\n        /* \"#utility.yul\":8589:8591   */\n      0x60\n        /* \"#utility.yul\":8578:8587   */\n      dup9\n        /* \"#utility.yul\":8574:8592   */\n      add\n        /* \"#utility.yul\":8561:8593   */\n      calldataload\n        /* \"#utility.yul\":8551:8593   */\n      swap4\n      pop\n        /* \"#utility.yul\":8640:8643   */\n      0x80\n        /* \"#utility.yul\":8629:8638   */\n      dup9\n        /* \"#utility.yul\":8625:8644   */\n      add\n        /* \"#utility.yul\":8612:8645   */\n      calldataload\n        /* \"#utility.yul\":8602:8645   */\n      swap3\n      pop\n        /* \"#utility.yul\":8692:8695   */\n      0xa0\n        /* \"#utility.yul\":8681:8690   */\n      dup9\n        /* \"#utility.yul\":8677:8696   */\n      add\n        /* \"#utility.yul\":8664:8697   */\n      calldataload\n        /* \"#utility.yul\":8654:8697   */\n      swap2\n      pop\n        /* \"#utility.yul\":8716:8755   */\n      tag_735\n        /* \"#utility.yul\":8750:8753   */\n      0xc0\n        /* \"#utility.yul\":8739:8748   */\n      dup10\n        /* \"#utility.yul\":8735:8754   */\n      add\n        /* \"#utility.yul\":8716:8755   */\n      tag_641\n      jump\t// in\n    tag_735:\n        /* \"#utility.yul\":8706:8755   */\n      swap1\n      pop\n        /* \"#utility.yul\":7868:8761   */\n      swap3\n      swap6\n      swap9\n      swap2\n      swap5\n      swap8\n      pop\n      swap3\n      swap6\n      pop\n      jump\t// out\n        /* \"#utility.yul\":8766:9026   */\n    tag_201:\n        /* \"#utility.yul\":8834:8840   */\n      0x00\n        /* \"#utility.yul\":8842:8848   */\n      dup1\n        /* \"#utility.yul\":8895:8897   */\n      0x40\n        /* \"#utility.yul\":8883:8892   */\n      dup4\n        /* \"#utility.yul\":8874:8881   */\n      dup6\n        /* \"#utility.yul\":8870:8893   */\n      sub\n        /* \"#utility.yul\":8866:8898   */\n      slt\n        /* \"#utility.yul\":8863:8915   */\n      iszero\n      tag_737\n      jumpi\n        /* \"#utility.yul\":8911:8912   */\n      0x00\n        /* \"#utility.yul\":8908:8909   */\n      dup1\n        /* \"#utility.yul\":8901:8913   */\n      revert\n        /* \"#utility.yul\":8863:8915   */\n    tag_737:\n        /* \"#utility.yul\":8934:8963   */\n      tag_738\n        /* \"#utility.yul\":8953:8962   */\n      dup4\n        /* \"#utility.yul\":8934:8963   */\n      tag_641\n      jump\t// in\n    tag_738:\n        /* \"#utility.yul\":8924:8963   */\n      swap2\n      pop\n        /* \"#utility.yul\":8982:9020   */\n      tag_739\n        /* \"#utility.yul\":9016:9018   */\n      0x20\n        /* \"#utility.yul\":9005:9014   */\n      dup5\n        /* \"#utility.yul\":9001:9019   */\n      add\n        /* \"#utility.yul\":8982:9020   */\n      tag_641\n      jump\t// in\n    tag_739:\n        /* \"#utility.yul\":8972:9020   */\n      swap1\n      pop\n        /* \"#utility.yul\":8766:9026   */\n      swap3\n      pop\n      swap3\n      swap1\n      pop\n      jump\t// out\n        /* \"#utility.yul\":9031:9411   */\n    tag_223:\n        /* \"#utility.yul\":9110:9111   */\n      0x01\n        /* \"#utility.yul\":9106:9118   */\n      dup2\n      dup2\n      shr\n      swap1\n        /* \"#utility.yul\":9153:9165   */\n      dup3\n      and\n      dup1\n        /* \"#utility.yul\":9174:9235   */\n      tag_741\n      jumpi\n        /* \"#utility.yul\":9228:9232   */\n      0x7f\n        /* \"#utility.yul\":9220:9226   */\n      dup3\n        /* \"#utility.yul\":9216:9233   */\n      and\n        /* \"#utility.yul\":9206:9233   */\n      swap2\n      pop\n        /* \"#utility.yul\":9174:9235   */\n    tag_741:\n        /* \"#utility.yul\":9281:9283   */\n      0x20\n        /* \"#utility.yul\":9273:9279   */\n      dup3\n        /* \"#utility.yul\":9270:9284   */\n      lt\n        /* \"#utility.yul\":9250:9268   */\n      dup2\n        /* \"#utility.yul\":9247:9285   */\n      eq\n        /* \"#utility.yul\":9244:9405   */\n      iszero\n      tag_742\n      jumpi\n        /* \"#utility.yul\":9327:9337   */\n      0x4e487b71\n        /* \"#utility.yul\":9322:9325   */\n      0xe0\n        /* \"#utility.yul\":9318:9338   */\n      shl\n        /* \"#utility.yul\":9315:9316   */\n      0x00\n        /* \"#utility.yul\":9308:9339   */\n      mstore\n        /* \"#utility.yul\":9362:9366   */\n      0x22\n        /* \"#utility.yul\":9359:9360   */\n      0x04\n        /* \"#utility.yul\":9352:9367   */\n      mstore\n        /* \"#utility.yul\":9390:9394   */\n      0x24\n        /* \"#utility.yul\":9387:9388   */\n      0x00\n        /* \"#utility.yul\":9380:9395   */\n      revert\n        /* \"#utility.yul\":9244:9405   */\n    tag_742:\n      pop\n        /* \"#utility.yul\":9031:9411   */\n      swap2\n      swap1\n      pop\n      jump\t// out\n        /* \"#utility.yul\":10183:10310   */\n    tag_264:\n        /* \"#utility.yul\":10244:10254   */\n      0x4e487b71\n        /* \"#utility.yul\":10239:10242   */\n      0xe0\n        /* \"#utility.yul\":10235:10255   */\n      shl\n        /* \"#utility.yul\":10232:10233   */\n      0x00\n        /* \"#utility.yul\":10225:10256   */\n      mstore\n        /* \"#utility.yul\":10275:10279   */\n      0x32\n        /* \"#utility.yul\":10272:10273   */\n      0x04\n        /* \"#utility.yul\":10265:10280   */\n      mstore\n        /* \"#utility.yul\":10299:10303   */\n      0x24\n        /* \"#utility.yul\":10296:10297   */\n      0x00\n        /* \"#utility.yul\":10289:10304   */\n      revert\n        /* \"#utility.yul\":10315:10442   */\n    tag_647:\n        /* \"#utility.yul\":10376:10386   */\n      0x4e487b71\n        /* \"#utility.yul\":10371:10374   */\n      0xe0\n        /* \"#utility.yul\":10367:10387   */\n      shl\n        /* \"#utility.yul\":10364:10365   */\n      0x00\n        /* \"#utility.yul\":10357:10388   */\n      mstore\n        /* \"#utility.yul\":10407:10411   */\n      0x11\n        /* \"#utility.yul\":10404:10405   */\n      0x04\n        /* \"#utility.yul\":10397:10412   */\n      mstore\n        /* \"#utility.yul\":10431:10435   */\n      0x24\n        /* \"#utility.yul\":10428:10429   */\n      0x00\n        /* \"#utility.yul\":10421:10436   */\n      revert\n        /* \"#utility.yul\":10447:10572   */\n    tag_268:\n        /* \"#utility.yul\":10487:10491   */\n      0x00\n        /* \"#utility.yul\":10515:10516   */\n      dup3\n        /* \"#utility.yul\":10512:10513   */\n      dup3\n        /* \"#utility.yul\":10509:10517   */\n      lt\n        /* \"#utility.yul\":10506:10540   */\n      iszero\n      tag_749\n      jumpi\n        /* \"#utility.yul\":10520:10538   */\n      tag_749\n      tag_647\n      jump\t// in\n    tag_749:\n      pop\n        /* \"#utility.yul\":10557:10566   */\n      sub\n      swap1\n        /* \"#utility.yul\":10447:10572   */\n      jump\t// out\n        /* \"#utility.yul\":10577:10704   */\n    tag_277:\n        /* \"#utility.yul\":10638:10648   */\n      0x4e487b71\n        /* \"#utility.yul\":10633:10636   */\n      0xe0\n        /* \"#utility.yul\":10629:10649   */\n      shl\n        /* \"#utility.yul\":10626:10627   */\n      0x00\n        /* \"#utility.yul\":10619:10650   */\n      mstore\n        /* \"#utility.yul\":10669:10673   */\n      0x31\n        /* \"#utility.yul\":10666:10667   */\n      0x04\n        /* \"#utility.yul\":10659:10674   */\n      mstore\n        /* \"#utility.yul\":10693:10697   */\n      0x24\n        /* \"#utility.yul\":10690:10691   */\n      0x00\n        /* \"#utility.yul\":10683:10698   */\n      revert\n        /* \"#utility.yul\":10709:10844   */\n    tag_280:\n        /* \"#utility.yul\":10748:10751   */\n      0x00\n      not(0x00)\n        /* \"#utility.yul\":10769:10786   */\n      dup3\n      eq\n        /* \"#utility.yul\":10766:10809   */\n      iszero\n      tag_753\n      jumpi\n        /* \"#utility.yul\":10789:10807   */\n      tag_753\n      tag_647\n      jump\t// in\n    tag_753:\n      pop\n        /* \"#utility.yul\":10836:10837   */\n      0x01\n        /* \"#utility.yul\":10825:10838   */\n      add\n      swap1\n        /* \"#utility.yul\":10709:10844   */\n      jump\t// out\n        /* \"#utility.yul\":13320:13495   */\n    tag_344:\n        /* \"#utility.yul\":13357:13360   */\n      0x00\n        /* \"#utility.yul\":13401:13405   */\n      0xff\n        /* \"#utility.yul\":13394:13399   */\n      dup3\n        /* \"#utility.yul\":13390:13406   */\n      and\n        /* \"#utility.yul\":13430:13434   */\n      0xff\n        /* \"#utility.yul\":13421:13428   */\n      dup2\n        /* \"#utility.yul\":13418:13435   */\n      eq\n        /* \"#utility.yul\":13415:13458   */\n      iszero\n      tag_762\n      jumpi\n        /* \"#utility.yul\":13438:13456   */\n      tag_762\n      tag_647\n      jump\t// in\n    tag_762:\n        /* \"#utility.yul\":13487:13488   */\n      0x01\n        /* \"#utility.yul\":13474:13489   */\n      add\n      swap3\n        /* \"#utility.yul\":13320:13495   */\n      swap2\n      pop\n      pop\n      jump\t// out\n        /* \"#utility.yul\":13500:13709   */\n    tag_346:\n        /* \"#utility.yul\":13538:13541   */\n      0x00\n      sub(shl(0x40, 0x01), 0x01)\n        /* \"#utility.yul\":13619:13621   */\n      dup1\n        /* \"#utility.yul\":13612:13617   */\n      dup4\n        /* \"#utility.yul\":13608:13622   */\n      and\n        /* \"#utility.yul\":13646:13648   */\n      dup2\n        /* \"#utility.yul\":13637:13644   */\n      dup2\n        /* \"#utility.yul\":13634:13649   */\n      eq\n        /* \"#utility.yul\":13631:13672   */\n      iszero\n      tag_765\n      jumpi\n        /* \"#utility.yul\":13652:13670   */\n      tag_765\n      tag_647\n      jump\t// in\n    tag_765:\n        /* \"#utility.yul\":13701:13702   */\n      0x01\n        /* \"#utility.yul\":13688:13703   */\n      add\n      swap4\n        /* \"#utility.yul\":13500:13709   */\n      swap3\n      pop\n      pop\n      pop\n      jump\t// out\n        /* \"#utility.yul\":14473:14895   */\n    tag_648:\n        /* \"#utility.yul\":14562:14563   */\n      0x01\n        /* \"#utility.yul\":14605:14610   */\n      dup2\n        /* \"#utility.yul\":14562:14563   */\n      dup2\n        /* \"#utility.yul\":14619:14889   */\n    tag_769:\n        /* \"#utility.yul\":14640:14647   */\n      dup1\n        /* \"#utility.yul\":14630:14638   */\n      dup6\n        /* \"#utility.yul\":14627:14648   */\n      gt\n        /* \"#utility.yul\":14619:14889   */\n      iszero\n      tag_771\n      jumpi\n        /* \"#utility.yul\":14699:14703   */\n      dup2\n        /* \"#utility.yul\":14695:14696   */\n      0x00\n        /* \"#utility.yul\":14691:14697   */\n      not\n        /* \"#utility.yul\":14687:14704   */\n      div\n        /* \"#utility.yul\":14681:14685   */\n      dup3\n        /* \"#utility.yul\":14678:14705   */\n      gt\n        /* \"#utility.yul\":14675:14728   */\n      iszero\n      tag_773\n      jumpi\n        /* \"#utility.yul\":14708:14726   */\n      tag_773\n      tag_647\n      jump\t// in\n    tag_773:\n        /* \"#utility.yul\":14758:14765   */\n      dup1\n        /* \"#utility.yul\":14748:14756   */\n      dup6\n        /* \"#utility.yul\":14744:14766   */\n      and\n        /* \"#utility.yul\":14741:14796   */\n      iszero\n      tag_774\n      jumpi\n        /* \"#utility.yul\":14778:14794   */\n      swap2\n      dup2\n      mul\n      swap2\n        /* \"#utility.yul\":14741:14796   */\n    tag_774:\n        /* \"#utility.yul\":14857:14879   */\n      swap4\n      dup5\n      shr\n      swap4\n        /* \"#utility.yul\":14817:14832   */\n      swap1\n      dup1\n      mul\n      swap1\n        /* \"#utility.yul\":14619:14889   */\n      jump(tag_769)\n    tag_771:\n        /* \"#utility.yul\":14623:14626   */\n      pop\n        /* \"#utility.yul\":14473:14895   */\n      swap3\n      pop\n      swap3\n      swap1\n      pop\n      jump\t// out\n        /* \"#utility.yul\":14900:15706   */\n    tag_649:\n        /* \"#utility.yul\":14949:14954   */\n      0x00\n        /* \"#utility.yul\":14979:14987   */\n      dup3\n        /* \"#utility.yul\":14969:15049   */\n      tag_776\n      jumpi\n      pop\n        /* \"#utility.yul\":15020:15021   */\n      0x01\n        /* \"#utility.yul\":15034:15039   */\n      jump(tag_229)\n        /* \"#utility.yul\":14969:15049   */\n    tag_776:\n        /* \"#utility.yul\":15068:15072   */\n      dup2\n        /* \"#utility.yul\":15058:15134   */\n      tag_777\n      jumpi\n      pop\n        /* \"#utility.yul\":15105:15106   */\n      0x00\n        /* \"#utility.yul\":15119:15124   */\n      jump(tag_229)\n        /* \"#utility.yul\":15058:15134   */\n    tag_777:\n        /* \"#utility.yul\":15150:15154   */\n      dup2\n        /* \"#utility.yul\":15168:15169   */\n      0x01\n        /* \"#utility.yul\":15163:15222   */\n      dup2\n      eq\n      tag_779\n      jumpi\n        /* \"#utility.yul\":15236:15237   */\n      0x02\n        /* \"#utility.yul\":15231:15361   */\n      dup2\n      eq\n      tag_780\n      jumpi\n        /* \"#utility.yul\":15143:15361   */\n      jump(tag_778)\n        /* \"#utility.yul\":15163:15222   */\n    tag_779:\n        /* \"#utility.yul\":15193:15194   */\n      0x01\n        /* \"#utility.yul\":15184:15194   */\n      swap2\n      pop\n        /* \"#utility.yul\":15207:15212   */\n      pop\n      jump(tag_229)\n        /* \"#utility.yul\":15231:15361   */\n    tag_780:\n        /* \"#utility.yul\":15268:15271   */\n      0xff\n        /* \"#utility.yul\":15258:15266   */\n      dup5\n        /* \"#utility.yul\":15255:15272   */\n      gt\n        /* \"#utility.yul\":15252:15295   */\n      iszero\n      tag_782\n      jumpi\n        /* \"#utility.yul\":15275:15293   */\n      tag_782\n      tag_647\n      jump\t// in\n    tag_782:\n      pop\n      pop\n        /* \"#utility.yul\":15331:15332   */\n      0x01\n        /* \"#utility.yul\":15317:15333   */\n      dup3\n      shl\n        /* \"#utility.yul\":15346:15351   */\n      jump(tag_229)\n        /* \"#utility.yul\":15143:15361   */\n    tag_778:\n      pop\n        /* \"#utility.yul\":15445:15447   */\n      0x20\n        /* \"#utility.yul\":15435:15443   */\n      dup4\n        /* \"#utility.yul\":15432:15448   */\n      lt\n        /* \"#utility.yul\":15426:15429   */\n      0x0133\n        /* \"#utility.yul\":15420:15424   */\n      dup4\n        /* \"#utility.yul\":15417:15430   */\n      lt\n        /* \"#utility.yul\":15413:15449   */\n      and\n        /* \"#utility.yul\":15407:15409   */\n      0x4e\n        /* \"#utility.yul\":15397:15405   */\n      dup5\n        /* \"#utility.yul\":15394:15410   */\n      lt\n        /* \"#utility.yul\":15389:15391   */\n      0x0b\n        /* \"#utility.yul\":15383:15387   */\n      dup5\n        /* \"#utility.yul\":15380:15392   */\n      lt\n        /* \"#utility.yul\":15376:15411   */\n      and\n        /* \"#utility.yul\":15373:15450   */\n      or\n        /* \"#utility.yul\":15370:15529   */\n      iszero\n      tag_783\n      jumpi\n      pop\n        /* \"#utility.yul\":15482:15501   */\n      dup2\n      dup2\n      exp\n        /* \"#utility.yul\":15514:15519   */\n      jump(tag_229)\n        /* \"#utility.yul\":15370:15529   */\n    tag_783:\n        /* \"#utility.yul\":15561:15595   */\n      tag_784\n        /* \"#utility.yul\":15586:15594   */\n      dup4\n        /* \"#utility.yul\":15580:15584   */\n      dup4\n        /* \"#utility.yul\":15561:15595   */\n      tag_648\n      jump\t// in\n    tag_784:\n        /* \"#utility.yul\":15631:15637   */\n      dup1\n        /* \"#utility.yul\":15627:15628   */\n      0x00\n        /* \"#utility.yul\":15623:15629   */\n      not\n        /* \"#utility.yul\":15619:15638   */\n      div\n        /* \"#utility.yul\":15610:15617   */\n      dup3\n        /* \"#utility.yul\":15607:15639   */\n      gt\n        /* \"#utility.yul\":15604:15662   */\n      iszero\n      tag_786\n      jumpi\n        /* \"#utility.yul\":15642:15660   */\n      tag_786\n      tag_647\n      jump\t// in\n    tag_786:\n        /* \"#utility.yul\":15680:15700   */\n      mul\n      swap4\n        /* \"#utility.yul\":14900:15706   */\n      swap3\n      pop\n      pop\n      pop\n      jump\t// out\n        /* \"#utility.yul\":15711:15842   */\n    tag_411:\n        /* \"#utility.yul\":15771:15776   */\n      0x00\n        /* \"#utility.yul\":15800:15836   */\n      tag_250\n        /* \"#utility.yul\":15827:15835   */\n      dup4\n        /* \"#utility.yul\":15821:15825   */\n      dup4\n        /* \"#utility.yul\":15800:15836   */\n      tag_649\n      jump\t// in\n        /* \"#utility.yul\":15847:16015   */\n    tag_413:\n        /* \"#utility.yul\":15887:15894   */\n      0x00\n        /* \"#utility.yul\":15953:15954   */\n      dup2\n        /* \"#utility.yul\":15949:15950   */\n      0x00\n        /* \"#utility.yul\":15945:15951   */\n      not\n        /* \"#utility.yul\":15941:15955   */\n      div\n        /* \"#utility.yul\":15938:15939   */\n      dup4\n        /* \"#utility.yul\":15935:15956   */\n      gt\n        /* \"#utility.yul\":15930:15931   */\n      dup3\n        /* \"#utility.yul\":15923:15932   */\n      iszero\n        /* \"#utility.yul\":15916:15933   */\n      iszero\n        /* \"#utility.yul\":15912:15957   */\n      and\n        /* \"#utility.yul\":15909:15980   */\n      iszero\n      tag_791\n      jumpi\n        /* \"#utility.yul\":15960:15978   */\n      tag_791\n      tag_647\n      jump\t// in\n    tag_791:\n      pop\n        /* \"#utility.yul\":16000:16009   */\n      mul\n      swap1\n        /* \"#utility.yul\":15847:16015   */\n      jump\t// out\n        /* \"#utility.yul\":16020:16147   */\n    tag_650:\n        /* \"#utility.yul\":16081:16091   */\n      0x4e487b71\n        /* \"#utility.yul\":16076:16079   */\n      0xe0\n        /* \"#utility.yul\":16072:16092   */\n      shl\n        /* \"#utility.yul\":16069:16070   */\n      0x00\n        /* \"#utility.yul\":16062:16093   */\n      mstore\n        /* \"#utility.yul\":16112:16116   */\n      0x12\n        /* \"#utility.yul\":16109:16110   */\n      0x04\n        /* \"#utility.yul\":16102:16117   */\n      mstore\n        /* \"#utility.yul\":16136:16140   */\n      0x24\n        /* \"#utility.yul\":16133:16134   */\n      0x00\n        /* \"#utility.yul\":16126:16141   */\n      revert\n        /* \"#utility.yul\":16152:16264   */\n    tag_415:\n        /* \"#utility.yul\":16184:16185   */\n      0x00\n        /* \"#utility.yul\":16210:16211   */\n      dup3\n        /* \"#utility.yul\":16200:16235   */\n      tag_795\n      jumpi\n        /* \"#utility.yul\":16215:16233   */\n      tag_795\n      tag_650\n      jump\t// in\n    tag_795:\n      pop\n        /* \"#utility.yul\":16249:16258   */\n      mod\n      swap1\n        /* \"#utility.yul\":16152:16264   */\n      jump\t// out\n        /* \"#utility.yul\":19673:19793   */\n    tag_491:\n        /* \"#utility.yul\":19713:19714   */\n      0x00\n        /* \"#utility.yul\":19739:19740   */\n      dup3\n        /* \"#utility.yul\":19729:19764   */\n      tag_807\n      jumpi\n        /* \"#utility.yul\":19744:19762   */\n      tag_807\n      tag_650\n      jump\t// in\n    tag_807:\n      pop\n        /* \"#utility.yul\":19778:19787   */\n      div\n      swap1\n        /* \"#utility.yul\":19673:19793   */\n      jump\t// out\n        /* \"#utility.yul\":19798:19926   */\n    tag_494:\n        /* \"#utility.yul\":19838:19841   */\n      0x00\n        /* \"#utility.yul\":19869:19870   */\n      dup3\n        /* \"#utility.yul\":19865:19871   */\n      not\n        /* \"#utility.yul\":19862:19863   */\n      dup3\n        /* \"#utility.yul\":19859:19872   */\n      gt\n        /* \"#utility.yul\":19856:19895   */\n      iszero\n      tag_810\n      jumpi\n        /* \"#utility.yul\":19875:19893   */\n      tag_810\n      tag_647\n      jump\t// in\n    tag_810:\n      pop\n        /* \"#utility.yul\":19911:19920   */\n      add\n      swap1\n        /* \"#utility.yul\":19798:19926   */\n      jump\t// out\n        /* \"#utility.yul\":19931:20338   */\n    tag_515:\n        /* \"#utility.yul\":20133:20135   */\n      0x20\n        /* \"#utility.yul\":20115:20136   */\n      dup1\n      dup3\n      mstore\n        /* \"#utility.yul\":20172:20174   */\n      0x2b\n        /* \"#utility.yul\":20152:20170   */\n      swap1\n      dup3\n      add\n        /* \"#utility.yul\":20145:20175   */\n      mstore\n        /* \"#utility.yul\":20211:20245   */\n      0x496e697469616c697a61626c653a20636f6e7472616374206973206e6f742069\n        /* \"#utility.yul\":20206:20208   */\n      0x40\n        /* \"#utility.yul\":20191:20209   */\n      dup3\n      add\n        /* \"#utility.yul\":20184:20246   */\n      mstore\n      shl(0xa8, 0x6e697469616c697a696e67)\n        /* \"#utility.yul\":20277:20279   */\n      0x60\n        /* \"#utility.yul\":20262:20280   */\n      dup3\n      add\n        /* \"#utility.yul\":20255:20296   */\n      mstore\n        /* \"#utility.yul\":20328:20331   */\n      0x80\n        /* \"#utility.yul\":20313:20332   */\n      add\n      swap1\n        /* \"#utility.yul\":19931:20338   */\n      jump\t// out\n    stop\n    data_974d1b4421da69cc60b481194f0dad36a5bb4e23da810da7a7fb30cdba178330 45524332303a207472616e7366657220616d6f756e74206578636565647320616c6c6f77616e6365\n    data_f8b476f7d28209d77d4a4ac1fe36b9f8259aa1bb6bddfa6e89de7e51615cf8a8 45524332303a2064656372656173656420616c6c6f77616e63652062656c6f77207a65726f\n\n    auxdata: 0xa26469706673582212201090d19d66b6cc32f73be65a26ed639f66c6b3b350799a09786e789a3b1447ae64736f6c634300080b0033\n}\n",
				"bytecode": {
					"linkReferences": {},
					"object": "608060405234801561001057600080fd5b50612a8a806100206000396000f3fe6080604052600436106102135760003560e01c806352390c0211610118578063a3772662116100a0578063d543dbeb1161006f578063d543dbeb1461062f578063dd62ed3e1461064f578063ea2f0b3714610695578063f2fde38b146106b5578063f9342285146106d557600080fd5b8063a3772662146105af578063a457c2d7146105cf578063a6e57d99146105ef578063a9059cbb1461060f57600080fd5b8063715018a6116100e7578063715018a61461050e5780637d1db4a51461052357806388f82020146105395780638da5cb5b1461057257806395d89b411461059a57600080fd5b806352390c021461046b5780635342acb41461048b57806354fd4d50146104c457806370a08231146104ee57600080fd5b80633685d4191161019b578063437823ec1161016a578063437823ec146103d45780634549b039146103f457806346f0975a1461041457806348c54b9d146104365780634990560f1461044b57600080fd5b80633685d4191461035e578063395093511461037e5780633b124fe71461039e5780633bd5d173146103b457600080fd5b806313114a9d116101e257806313114a9d146102d557806318160ddd146102f457806323b872dd146103095780632d83811914610329578063313ce5671461034957600080fd5b8063061c82d01461021f57806306fdde031461024157806307c351dd1461026c578063095ea7b3146102b557600080fd5b3661021a57005b600080fd5b34801561022b57600080fd5b5061023f61023a366004612211565b610705565b005b34801561024d57600080fd5b50610256610712565b604051610263919061222a565b60405180910390f35b34801561027857600080fd5b506102a561028736600461229b565b6001600160a01b031660009081526075602052604090205460ff1690565b6040519015158152602001610263565b3480156102c157600080fd5b506102a56102d03660046122b6565b6107a4565b3480156102e157600080fd5b50606d545b604051908152602001610263565b34801561030057600080fd5b50606b546102e6565b34801561031557600080fd5b506102a56103243660046122e0565b6107bb565b34801561033557600080fd5b506102e6610344366004612211565b610824565b34801561035557600080fd5b506070546102e6565b34801561036a57600080fd5b5061023f61037936600461229b565b6108ad565b34801561038a57600080fd5b506102a56103993660046122b6565b610a42565b3480156103aa57600080fd5b506102e660715481565b3480156103c057600080fd5b5061023f6103cf366004612211565b610a78565b3480156103e057600080fd5b5061023f6103ef36600461229b565b610b60565b34801561040057600080fd5b506102e661040f36600461231c565b610b8c565b34801561042057600080fd5b50610429610c17565b6040516102639190612351565b34801561044257600080fd5b5061023f610c78565b34801561045757600080fd5b5061023f610466366004612472565b610cbc565b34801561047757600080fd5b5061023f61048636600461229b565b610f84565b34801561049757600080fd5b506102a56104a636600461229b565b6001600160a01b031660009081526068602052604090205460ff1690565b3480156104d057600080fd5b506040805180820190915260018152603160f81b6020820152610256565b3480156104fa57600080fd5b506102e661050936600461229b565b6110b5565b34801561051a57600080fd5b5061023f611114565b34801561052f57600080fd5b506102e660735481565b34801561054557600080fd5b506102a561055436600461229b565b6001600160a01b031660009081526069602052604090205460ff1690565b34801561057e57600080fd5b506033546040516001600160a01b039091168152602001610263565b3480156105a657600080fd5b50610256611128565b3480156105bb57600080fd5b5061023f6105ca36600461258e565b611137565b3480156105db57600080fd5b506102a56105ea3660046122b6565b6111d3565b3480156105fb57600080fd5b5061023f61060a366004612694565b611222565b34801561061b57600080fd5b506102a561062a3660046122b6565b61146a565b34801561063b57600080fd5b5061023f61064a366004612211565b611477565b34801561065b57600080fd5b506102e661066a36600461272e565b6001600160a01b03918216600090815260676020908152604080832093909416825291909152205490565b3480156106a157600080fd5b5061023f6106b036600461229b565b61149d565b3480156106c157600080fd5b5061023f6106d036600461229b565b6114c6565b3480156106e157600080fd5b506102a56106f0366004612211565b60766020526000908152604090205460ff1681565b61070d61153c565b607155565b6060606e805461072190612761565b80601f016020809104026020016040519081016040528092919081815260200182805461074d90612761565b801561079a5780601f1061076f5761010080835404028352916020019161079a565b820191906000526020600020905b81548152906001019060200180831161077d57829003601f168201915b5050505050905090565b60006107b1338484611596565b5060015b92915050565b60006107c88484846116ba565b61081a843361081585604051806060016040528060288152602001612a08602891396001600160a01b038a16600090815260676020908152604080832033845290915290205491906118ef565b611596565b5060019392505050565b6000606c548211156108905760405162461bcd60e51b815260206004820152602a60248201527f416d6f756e74206d757374206265206c657373207468616e20746f74616c207260448201526965666c656374696f6e7360b01b60648201526084015b60405180910390fd5b600061089a61191b565b90506108a6838261193e565b9392505050565b6108b561153c565b6001600160a01b03811660009081526069602052604090205460ff1661091d5760405162461bcd60e51b815260206004820152601b60248201527f4163636f756e7420697320616c7265616479206578636c7564656400000000006044820152606401610887565b60005b606a54811015610a3e57816001600160a01b0316606a82815481106109475761094761279c565b6000918252602090912001546001600160a01b03161415610a2c57606a8054610972906001906127c8565b815481106109825761098261279c565b600091825260209091200154606a80546001600160a01b0390921691839081106109ae576109ae61279c565b600091825260208083209190910180546001600160a01b0319166001600160a01b039485161790559184168152606682526040808220829055606990925220805460ff19169055606a805480610a0657610a066127df565b600082815260209020810160001990810180546001600160a01b03191690550190555050565b80610a36816127f5565b915050610920565b5050565b3360008181526067602090815260408083206001600160a01b038716845290915281205490916107b1918590610815908661194a565b3360008181526069602052604090205460ff1615610aed5760405162461bcd60e51b815260206004820152602c60248201527f4578636c75646564206164647265737365732063616e6e6f742063616c6c207460448201526b3434b990333ab731ba34b7b760a11b6064820152608401610887565b6000610af883611956565b505050506001600160a01b038316600090815260656020526040902054909150610b22908261199c565b6001600160a01b038316600090815260656020526040902055606c54610b48908261199c565b606c55606d54610b58908461194a565b606d55505050565b610b6861153c565b6001600160a01b03166000908152606860205260409020805460ff19166001179055565b6000606b54831115610be05760405162461bcd60e51b815260206004820152601f60248201527f416d6f756e74206d757374206265206c657373207468616e20737570706c79006044820152606401610887565b81610bfe576000610bf084611956565b509294506107b59350505050565b6000610c0984611956565b509194506107b59350505050565b6060607480548060200260200160405190810160405280929190818152602001828054801561079a57602002820191906000526020600020905b81546001600160a01b03168152600190910190602001808311610c51575050505050905090565b610c8061153c565b6033546040516001600160a01b03909116904780156108fc02916000818181858888f19350505050158015610cb9573d6000803e3d6000fd5b50565b42841015610cff5760405162461bcd60e51b815260206004820152601060248201526f4578706972656420646561646c696e6560801b6044820152606401610887565b60008681526076602052604090205460ff1615610d515760405162461bcd60e51b815260206004820152601060248201526f556e697175652069642065786973747360801b6044820152606401610887565b336000610d666033546001600160a01b031690565b604080516001600160a01b03808416602083015280861692820192909252908b1660608201526080810189905260a081018a905260c0810188905290915060009060e00160405160208183030381529060405280519060200120905060008060005b8851816001600160401b03161015610f0c5760006001858b846001600160401b031681518110610dfa57610dfa61279c565b60200260200101518b856001600160401b031681518110610e1d57610e1d61279c565b60200260200101518b866001600160401b031681518110610e4057610e4061279c565b602002602001015160405160008152602001604052604051610e7e949392919093845260ff9290921660208401526040830152606082015260800190565b6020604051602081039080840390855afa158015610ea0573d6000803e3d6000fd5b505050602060405103519050836001600160a01b0316816001600160a01b0316118015610ee557506001600160a01b03811660009081526075602052604090205460ff165b15610ef85782610ef481612810565b9350505b925080610f0481612830565b915050610dc8565b508060ff16600314610f525760405162461bcd60e51b815260206004820152600f60248201526e496e76616c6964207369676e65727360881b6044820152606401610887565b60008b8152607660205260409020805460ff19166001179055610f758c8b61146a565b50505050505050505050505050565b610f8c61153c565b6001600160a01b03811660009081526069602052604090205460ff1615610ff55760405162461bcd60e51b815260206004820152601b60248201527f4163636f756e7420697320616c7265616479206578636c7564656400000000006044820152606401610887565b6001600160a01b0381166000908152606560205260409020541561104f576001600160a01b03811660009081526065602052604090205461103590610824565b6001600160a01b0382166000908152606660205260409020555b6001600160a01b03166000818152606960205260408120805460ff19166001908117909155606a805491820181559091527f116fea137db6e131133e7f2bab296045d8f41cc5607279db17b218cab0929a510180546001600160a01b0319169091179055565b6001600160a01b03811660009081526069602052604081205460ff16156110f257506001600160a01b031660009081526066602052604090205490565b6001600160a01b0382166000908152606560205260409020546107b590610824565b61111c61153c565b61112660006119a8565b565b6060606f805461072190612761565b61113f61153c565b6111a6607480548060200260200160405190810160405280929190818152602001828054801561119857602002820191906000526020600020905b81546001600160a01b0316815260019091019060200180831161117a575b5050505050600060756119fa565b6111b260746000612105565b80516111c5906074906020840190612123565b50610cb981600160756119fa565b60006107b1338461081585604051806060016040528060258152602001612a30602591393360009081526067602090815260408083206001600160a01b038d16845290915290205491906118ef565b600054610100900460ff16158080156112425750600054600160ff909116105b8061125c5750303b15801561125c575060005460ff166001145b6112bf5760405162461bcd60e51b815260206004820152602e60248201527f496e697469616c697a61626c653a20636f6e747261637420697320616c72656160448201526d191e481a5b9a5d1a585b1a5e995960921b6064820152608401610887565b6000805460ff1916600117905580156112e2576000805461ff0019166101001790555b6112ea611a78565b87516112fd90606e9060208b0190612188565b50865161131190606f9060208a0190612188565b50607086905561132286600a61293b565b61132c9086612947565b606b81905561133d9060001961297c565b611349906000196127c8565b606c556071849055607284905560705461136490600a61293b565b61136e9084612947565b607355606c546001600160a01b038316600090815260656020908152604080832093909355606890528181208054600160ff1991821681179092553083529290912080549092161790556113c182610f84565b6113ca30610f84565b816001600160a01b031660006001600160a01b03167fddf252ad1be2c89b69c2b068fc378daa952ba7f163c4a11628f55a4df523b3ef606b5460405161141291815260200190565b60405180910390a38015611460576000805461ff0019169055604051600181527f7f26b83ff96e1f2b6a682f133852f6798a09c465da95921460cefb38474024989060200160405180910390a15b5050505050505050565b60006107b13384846116ba565b61147f61153c565b60705461148d90600a61293b565b6114979082612947565b60735550565b6114a561153c565b6001600160a01b03166000908152606860205260409020805460ff19169055565b6114ce61153c565b6001600160a01b0381166115335760405162461bcd60e51b815260206004820152602660248201527f4f776e61626c653a206e6577206f776e657220697320746865207a65726f206160448201526564647265737360d01b6064820152608401610887565b610cb9816119a8565b6033546001600160a01b031633146111265760405162461bcd60e51b815260206004820181905260248201527f4f776e61626c653a2063616c6c6572206973206e6f7420746865206f776e65726044820152606401610887565b6001600160a01b0383166115f85760405162461bcd60e51b8152602060048201526024808201527f45524332303a20617070726f76652066726f6d20746865207a65726f206164646044820152637265737360e01b6064820152608401610887565b6001600160a01b0382166116595760405162461bcd60e51b815260206004820152602260248201527f45524332303a20617070726f766520746f20746865207a65726f206164647265604482015261737360f01b6064820152608401610887565b6001600160a01b0383811660008181526067602090815260408083209487168084529482529182902085905590518481527f8c5be1e5ebec7d5bd14f71427d1e84f3dd0314c0f7b2291e5b200ac8c7c3b925910160405180910390a3505050565b6001600160a01b03831661171e5760405162461bcd60e51b815260206004820152602560248201527f45524332303a207472616e736665722066726f6d20746865207a65726f206164604482015264647265737360d81b6064820152608401610887565b6001600160a01b0382166117805760405162461bcd60e51b815260206004820152602360248201527f45524332303a207472616e7366657220746f20746865207a65726f206164647260448201526265737360e81b6064820152608401610887565b600081116117e25760405162461bcd60e51b815260206004820152602960248201527f5472616e7366657220616d6f756e74206d7573742062652067726561746572206044820152687468616e207a65726f60b81b6064820152608401610887565b6033546001600160a01b0384811691161480159061180e57506033546001600160a01b03838116911614155b15611876576073548111156118765760405162461bcd60e51b815260206004820152602860248201527f5472616e7366657220616d6f756e74206578636565647320746865206d6178546044820152673c20b6b7bab73a1760c11b6064820152608401610887565b6000611881306110b5565b9050607354811061189157506073545b6001600160a01b03841660009081526068602052604090205460019060ff16806118d357506001600160a01b03841660009081526068602052604090205460ff165b156118dc575060005b6118e885858584611aa7565b5050505050565b600081848411156119135760405162461bcd60e51b8152600401610887919061222a565b505050900390565b6000806000611928611c18565b9092509050611937828261193e565b9250505090565b60006108a68284612990565b60006108a682846129a4565b600080600080600080600061196a88611d9a565b9150915060008060006119858b8561198061191b565b611dc1565b919d909c50909a5094985092965092945050505050565b60006108a682846127c8565b603380546001600160a01b038381166001600160a01b0319831681179093556040519116919082907f8be0079c531659141344cd1fd0a4f28419497f9722a3daafe3b4186f6b6457e090600090a35050565b60005b8351816001600160401b03161015611a72578282600086846001600160401b031681518110611a2e57611a2e61279c565b6020908102919091018101516001600160a01b03168252810191909152604001600020805460ff191691151591909117905580611a6a81612830565b9150506119fd565b50505050565b600054610100900460ff16611a9f5760405162461bcd60e51b8152600401610887906129bc565b611126611dfd565b80611ab457611ab4611e2d565b6001600160a01b03841660009081526069602052604090205460ff168015611af557506001600160a01b03831660009081526069602052604090205460ff16155b15611b0a57611b05848484611e43565b611c08565b6001600160a01b03841660009081526069602052604090205460ff16158015611b4b57506001600160a01b03831660009081526069602052604090205460ff165b15611b5b57611b05848484611f5c565b6001600160a01b03841660009081526069602052604090205460ff16158015611b9d57506001600160a01b03831660009081526069602052604090205460ff16155b15611bad57611b05848484612002565b6001600160a01b03841660009081526069602052604090205460ff168015611bed57506001600160a01b03831660009081526069602052604090205460ff165b15611bfd57611b05848484612043565b611c08848484612002565b80611a7257611a72607254607155565b606c54606b546000918291825b606a54811015611d6a578260656000606a8481548110611c4757611c4761279c565b60009182526020808320909101546001600160a01b031683528201929092526040019020541180611cb257508160666000606a8481548110611c8b57611c8b61279c565b60009182526020808320909101546001600160a01b03168352820192909252604001902054115b15611cc857606c54606b54945094505050509091565b611d0e60656000606a8481548110611ce257611ce261279c565b60009182526020808320909101546001600160a01b03168352820192909252604001902054849061199c565b9250611d5660666000606a8481548110611d2a57611d2a61279c565b60009182526020808320909101546001600160a01b03168352820192909252604001902054839061199c565b915080611d62816127f5565b915050611c25565b50606b54606c54611d7a9161193e565b821015611d9157606c54606b549350935050509091565b90939092509050565b6000806000611da8846120b3565b90506000611db6858361199c565b959194509092505050565b6000808080611dd087866120d5565b90506000611dde87876120d5565b90506000611dec838361199c565b929992985090965090945050505050565b600054610100900460ff16611e245760405162461bcd60e51b8152600401610887906129bc565b611126336119a8565b607154611e3657565b6071805460725560009055565b6000806000806000611e5486611956565b6001600160a01b038d1660009081526066602052604090205494995092975090955093509150611e84908761199c565b6001600160a01b038916600090815260666020908152604080832093909355606590522054611eb3908661199c565b6001600160a01b03808a166000908152606560205260408082209390935590891681522054611ee2908561194a565b6001600160a01b038816600090815260656020526040902055611f0583826120e1565b866001600160a01b0316886001600160a01b03167fddf252ad1be2c89b69c2b068fc378daa952ba7f163c4a11628f55a4df523b3ef84604051611f4a91815260200190565b60405180910390a35050505050505050565b6000806000806000611f6d86611956565b6001600160a01b038d1660009081526065602052604090205494995092975090955093509150611f9d908661199c565b6001600160a01b03808a16600090815260656020908152604080832094909455918a16815260669091522054611fd3908361194a565b6001600160a01b038816600090815260666020908152604080832093909355606590522054611ee2908561194a565b600080600080600061201386611956565b6001600160a01b038d1660009081526065602052604090205494995092975090955093509150611eb3908661199c565b600080600080600061205486611956565b6001600160a01b038d1660009081526066602052604090205494995092975090955093509150612084908761199c565b6001600160a01b038916600090815260666020908152604080832093909355606590522054611f9d908661199c565b60006107b560646120cf607154856120d590919063ffffffff16565b9061193e565b60006108a68284612947565b606c546120ee908361199c565b606c55606d546120fe908261194a565b606d555050565b5080546000825590600052602060002090810190610cb991906121fc565b828054828255906000526020600020908101928215612178579160200282015b8281111561217857825182546001600160a01b0319166001600160a01b03909116178255602090920191600190910190612143565b506121849291506121fc565b5090565b82805461219490612761565b90600052602060002090601f0160209004810192826121b65760008555612178565b82601f106121cf57805160ff1916838001178555612178565b82800160010185558215612178579182015b828111156121785782518255916020019190600101906121e1565b5b8082111561218457600081556001016121fd565b60006020828403121561222357600080fd5b5035919050565b600060208083528351808285015260005b818110156122575785810183015185820160400152820161223b565b81811115612269576000604083870101525b50601f01601f1916929092016040019392505050565b80356001600160a01b038116811461229657600080fd5b919050565b6000602082840312156122ad57600080fd5b6108a68261227f565b600080604083850312156122c957600080fd5b6122d28361227f565b946020939093013593505050565b6000806000606084860312156122f557600080fd5b6122fe8461227f565b925061230c6020850161227f565b9150604084013590509250925092565b6000806040838503121561232f57600080fd5b823591506020830135801515811461234657600080fd5b809150509250929050565b6020808252825182820181905260009190848201906040850190845b818110156123925783516001600160a01b03168352928401929184019160010161236d565b50909695505050505050565b634e487b7160e01b600052604160045260246000fd5b604051601f8201601f191681016001600160401b03811182821017156123dc576123dc61239e565b604052919050565b60006001600160401b038211156123fd576123fd61239e565b5060051b60200190565b600082601f83011261241857600080fd5b8135602061242d612428836123e4565b6123b4565b82815260059290921b8401810191818101908684111561244c57600080fd5b8286015b848110156124675780358352918301918301612450565b509695505050505050565b600080600080600080600060e0888a03121561248d57600080fd5b6124968861227f565b96506020808901359650604089013595506060890135945060808901356001600160401b03808211156124c857600080fd5b818b0191508b601f8301126124dc57600080fd5b81356124ea612428826123e4565b81815260059190911b8301840190848101908e83111561250957600080fd5b938501935b8285101561253757843560ff811681146125285760008081fd5b8252938501939085019061250e565b9750505060a08b013592508083111561254f57600080fd5b61255b8c848d01612407565b945060c08b013592508083111561257157600080fd5b505061257f8a828b01612407565b91505092959891949750929550565b600060208083850312156125a157600080fd5b82356001600160401b038111156125b757600080fd5b8301601f810185136125c857600080fd5b80356125d6612428826123e4565b81815260059190911b820183019083810190878311156125f557600080fd5b928401925b8284101561261a5761260b8461227f565b825292840192908401906125fa565b979650505050505050565b600082601f83011261263657600080fd5b81356001600160401b0381111561264f5761264f61239e565b612662601f8201601f19166020016123b4565b81815284602083860101111561267757600080fd5b816020850160208301376000918101602001919091529392505050565b600080600080600080600060e0888a0312156126af57600080fd5b87356001600160401b03808211156126c657600080fd5b6126d28b838c01612625565b985060208a01359150808211156126e857600080fd5b506126f58a828b01612625565b96505060408801359450606088013593506080880135925060a0880135915061272060c0890161227f565b905092959891949750929550565b6000806040838503121561274157600080fd5b61274a8361227f565b91506127586020840161227f565b90509250929050565b600181811c9082168061277557607f821691505b6020821081141561279657634e487b7160e01b600052602260045260246000fd5b50919050565b634e487b7160e01b600052603260045260246000fd5b634e487b7160e01b600052601160045260246000fd5b6000828210156127da576127da6127b2565b500390565b634e487b7160e01b600052603160045260246000fd5b6000600019821415612809576128096127b2565b5060010190565b600060ff821660ff811415612827576128276127b2565b60010192915050565b60006001600160401b038083168181141561284d5761284d6127b2565b6001019392505050565b600181815b80851115612892578160001904821115612878576128786127b2565b8085161561288557918102915b93841c939080029061285c565b509250929050565b6000826128a9575060016107b5565b816128b6575060006107b5565b81600181146128cc57600281146128d6576128f2565b60019150506107b5565b60ff8411156128e7576128e76127b2565b50506001821b6107b5565b5060208310610133831016604e8410600b8410161715612915575081810a6107b5565b61291f8383612857565b8060001904821115612933576129336127b2565b029392505050565b60006108a6838361289a565b6000816000190483118215151615612961576129616127b2565b500290565b634e487b7160e01b600052601260045260246000fd5b60008261298b5761298b612966565b500690565b60008261299f5761299f612966565b500490565b600082198211156129b7576129b76127b2565b500190565b6020808252602b908201527f496e697469616c697a61626c653a20636f6e7472616374206973206e6f74206960408201526a6e697469616c697a696e6760a81b60608201526080019056fe45524332303a207472616e7366657220616d6f756e74206578636565647320616c6c6f77616e636545524332303a2064656372656173656420616c6c6f77616e63652062656c6f77207a65726fa26469706673582212201090d19d66b6cc32f73be65a26ed639f66c6b3b350799a09786e789a3b1447ae64736f6c634300080b0033",
					"opcodes": "PUSH1 0x80 PUSH1 0x40 MSTORE CALLVALUE DUP1 ISZERO PUSH2 0x10 JUMPI PUSH1 0x0 DUP1 REVERT JUMPDEST POP PUSH2 0x2A8A DUP1 PUSH2 0x20 PUSH1 0x0 CODECOPY PUSH1 0x0 RETURN INVALID PUSH1 0x80 PUSH1 0x40 MSTORE PUSH1 0x4 CALLDATASIZE LT PUSH2 0x213 JUMPI PUSH1 0x0 CALLDATALOAD PUSH1 0xE0 SHR DUP1 PUSH4 0x52390C02 GT PUSH2 0x118 JUMPI DUP1 PUSH4 0xA3772662 GT PUSH2 0xA0 JUMPI DUP1 PUSH4 0xD543DBEB GT PUSH2 0x6F JUMPI DUP1 PUSH4 0xD543DBEB EQ PUSH2 0x62F JUMPI DUP1 PUSH4 0xDD62ED3E EQ PUSH2 0x64F JUMPI DUP1 PUSH4 0xEA2F0B37 EQ PUSH2 0x695 JUMPI DUP1 PUSH4 0xF2FDE38B EQ PUSH2 0x6B5 JUMPI DUP1 PUSH4 0xF9342285 EQ PUSH2 0x6D5 JUMPI PUSH1 0x0 DUP1 REVERT JUMPDEST DUP1 PUSH4 0xA3772662 EQ PUSH2 0x5AF JUMPI DUP1 PUSH4 0xA457C2D7 EQ PUSH2 0x5CF JUMPI DUP1 PUSH4 0xA6E57D99 EQ PUSH2 0x5EF JUMPI DUP1 PUSH4 0xA9059CBB EQ PUSH2 0x60F JUMPI PUSH1 0x0 DUP1 REVERT JUMPDEST DUP1 PUSH4 0x715018A6 GT PUSH2 0xE7 JUMPI DUP1 PUSH4 0x715018A6 EQ PUSH2 0x50E JUMPI DUP1 PUSH4 0x7D1DB4A5 EQ PUSH2 0x523 JUMPI DUP1 PUSH4 0x88F82020 EQ PUSH2 0x539 JUMPI DUP1 PUSH4 0x8DA5CB5B EQ PUSH2 0x572 JUMPI DUP1 PUSH4 0x95D89B41 EQ PUSH2 0x59A JUMPI PUSH1 0x0 DUP1 REVERT JUMPDEST DUP1 PUSH4 0x52390C02 EQ PUSH2 0x46B JUMPI DUP1 PUSH4 0x5342ACB4 EQ PUSH2 0x48B JUMPI DUP1 PUSH4 0x54FD4D50 EQ PUSH2 0x4C4 JUMPI DUP1 PUSH4 0x70A08231 EQ PUSH2 0x4EE JUMPI PUSH1 0x0 DUP1 REVERT JUMPDEST DUP1 PUSH4 0x3685D419 GT PUSH2 0x19B JUMPI DUP1 PUSH4 0x437823EC GT PUSH2 0x16A JUMPI DUP1 PUSH4 0x437823EC EQ PUSH2 0x3D4 JUMPI DUP1 PUSH4 0x4549B039 EQ PUSH2 0x3F4 JUMPI DUP1 PUSH4 0x46F0975A EQ PUSH2 0x414 JUMPI DUP1 PUSH4 0x48C54B9D EQ PUSH2 0x436 JUMPI DUP1 PUSH4 0x4990560F EQ PUSH2 0x44B JUMPI PUSH1 0x0 DUP1 REVERT JUMPDEST DUP1 PUSH4 0x3685D419 EQ PUSH2 0x35E JUMPI DUP1 PUSH4 0x39509351 EQ PUSH2 0x37E JUMPI DUP1 PUSH4 0x3B124FE7 EQ PUSH2 0x39E JUMPI DUP1 PUSH4 0x3BD5D173 EQ PUSH2 0x3B4 JUMPI PUSH1 0x0 DUP1 REVERT JUMPDEST DUP1 PUSH4 0x13114A9D GT PUSH2 0x1E2 JUMPI DUP1 PUSH4 0x13114A9D EQ PUSH2 0x2D5 JUMPI DUP1 PUSH4 0x18160DDD EQ PUSH2 0x2F4 JUMPI DUP1 PUSH4 0x23B872DD EQ PUSH2 0x309 JUMPI DUP1 PUSH4 0x2D838119 EQ PUSH2 0x329 JUMPI DUP1 PUSH4 0x313CE567 EQ PUSH2 0x349 JUMPI PUSH1 0x0 DUP1 REVERT JUMPDEST DUP1 PUSH4 0x61C82D0 EQ PUSH2 0x21F JUMPI DUP1 PUSH4 0x6FDDE03 EQ PUSH2 0x241 JUMPI DUP1 PUSH4 0x7C351DD EQ PUSH2 0x26C JUMPI DUP1 PUSH4 0x95EA7B3 EQ PUSH2 0x2B5 JUMPI PUSH1 0x0 DUP1 REVERT JUMPDEST CALLDATASIZE PUSH2 0x21A JUMPI STOP JUMPDEST PUSH1 0x0 DUP1 REVERT JUMPDEST CALLVALUE DUP1 ISZERO PUSH2 0x22B JUMPI PUSH1 0x0 DUP1 REVERT JUMPDEST POP PUSH2 0x23F PUSH2 0x23A CALLDATASIZE PUSH1 0x4 PUSH2 0x2211 JUMP JUMPDEST PUSH2 0x705 JUMP JUMPDEST STOP JUMPDEST CALLVALUE DUP1 ISZERO PUSH2 0x24D JUMPI PUSH1 0x0 DUP1 REVERT JUMPDEST POP PUSH2 0x256 PUSH2 0x712 JUMP JUMPDEST PUSH1 0x40 MLOAD PUSH2 0x263 SWAP2 SWAP1 PUSH2 0x222A JUMP JUMPDEST PUSH1 0x40 MLOAD DUP1 SWAP2 SUB SWAP1 RETURN JUMPDEST CALLVALUE DUP1 ISZERO PUSH2 0x278 JUMPI PUSH1 0x0 DUP1 REVERT JUMPDEST POP PUSH2 0x2A5 PUSH2 0x287 CALLDATASIZE PUSH1 0x4 PUSH2 0x229B JUMP JUMPDEST PUSH1 0x1 PUSH1 0x1 PUSH1 0xA0 SHL SUB AND PUSH1 0x0 SWAP1 DUP2 MSTORE PUSH1 0x75 PUSH1 0x20 MSTORE PUSH1 0x40 SWAP1 KECCAK256 SLOAD PUSH1 0xFF AND SWAP1 JUMP JUMPDEST PUSH1 0x40 MLOAD SWAP1 ISZERO ISZERO DUP2 MSTORE PUSH1 0x20 ADD PUSH2 0x263 JUMP JUMPDEST CALLVALUE DUP1 ISZERO PUSH2 0x2C1 JUMPI PUSH1 0x0 DUP1 REVERT JUMPDEST POP PUSH2 0x2A5 PUSH2 0x2D0 CALLDATASIZE PUSH1 0x4 PUSH2 0x22B6 JUMP JUMPDEST PUSH2 0x7A4 JUMP JUMPDEST CALLVALUE DUP1 ISZERO PUSH2 0x2E1 JUMPI PUSH1 0x0 DUP1 REVERT JUMPDEST POP PUSH1 0x6D SLOAD JUMPDEST PUSH1 0x40 MLOAD SWAP1 DUP2 MSTORE PUSH1 0x20 ADD PUSH2 0x263 JUMP JUMPDEST CALLVALUE DUP1 ISZERO PUSH2 0x300 JUMPI PUSH1 0x0 DUP1 REVERT JUMPDEST POP PUSH1 0x6B SLOAD PUSH2 0x2E6 JUMP JUMPDEST CALLVALUE DUP1 ISZERO PUSH2 0x315 JUMPI PUSH1 0x0 DUP1 REVERT JUMPDEST POP PUSH2 0x2A5 PUSH2 0x324 CALLDATASIZE PUSH1 0x4 PUSH2 0x22E0 JUMP JUMPDEST PUSH2 0x7BB JUMP JUMPDEST CALLVALUE DUP1 ISZERO PUSH2 0x335 JUMPI PUSH1 0x0 DUP1 REVERT JUMPDEST POP PUSH2 0x2E6 PUSH2 0x344 CALLDATASIZE PUSH1 0x4 PUSH2 0x2211 JUMP JUMPDEST PUSH2 0x824 JUMP JUMPDEST CALLVALUE DUP1 ISZERO PUSH2 0x355 JUMPI PUSH1 0x0 DUP1 REVERT JUMPDEST POP PUSH1 0x70 SLOAD PUSH2 0x2E6 JUMP JUMPDEST CALLVALUE DUP1 ISZERO PUSH2 0x36A JUMPI PUSH1 0x0 DUP1 REVERT JUMPDEST POP PUSH2 0x23F PUSH2 0x379 CALLDATASIZE PUSH1 0x4 PUSH2 0x229B JUMP JUMPDEST PUSH2 0x8AD JUMP JUMPDEST CALLVALUE DUP1 ISZERO PUSH2 0x38A JUMPI PUSH1 0x0 DUP1 REVERT JUMPDEST POP PUSH2 0x2A5 PUSH2 0x399 CALLDATASIZE PUSH1 0x4 PUSH2 0x22B6 JUMP JUMPDEST PUSH2 0xA42 JUMP JUMPDEST CALLVALUE DUP1 ISZERO PUSH2 0x3AA JUMPI PUSH1 0x0 DUP1 REVERT JUMPDEST POP PUSH2 0x2E6 PUSH1 0x71 SLOAD DUP2 JUMP JUMPDEST CALLVALUE DUP1 ISZERO PUSH2 0x3C0 JUMPI PUSH1 0x0 DUP1 REVERT JUMPDEST POP PUSH2 0x23F PUSH2 0x3CF CALLDATASIZE PUSH1 0x4 PUSH2 0x2211 JUMP JUMPDEST PUSH2 0xA78 JUMP JUMPDEST CALLVALUE DUP1 ISZERO PUSH2 0x3E0 JUMPI PUSH1 0x0 DUP1 REVERT JUMPDEST POP PUSH2 0x23F PUSH2 0x3EF CALLDATASIZE PUSH1 0x4 PUSH2 0x229B JUMP JUMPDEST PUSH2 0xB60 JUMP JUMPDEST CALLVALUE DUP1 ISZERO PUSH2 0x400 JUMPI PUSH1 0x0 DUP1 REVERT JUMPDEST POP PUSH2 0x2E6 PUSH2 0x40F CALLDATASIZE PUSH1 0x4 PUSH2 0x231C JUMP JUMPDEST PUSH2 0xB8C JUMP JUMPDEST CALLVALUE DUP1 ISZERO PUSH2 0x420 JUMPI PUSH1 0x0 DUP1 REVERT JUMPDEST POP PUSH2 0x429 PUSH2 0xC17 JUMP JUMPDEST PUSH1 0x40 MLOAD PUSH2 0x263 SWAP2 SWAP1 PUSH2 0x2351 JUMP JUMPDEST CALLVALUE DUP1 ISZERO PUSH2 0x442 JUMPI PUSH1 0x0 DUP1 REVERT JUMPDEST POP PUSH2 0x23F PUSH2 0xC78 JUMP JUMPDEST CALLVALUE DUP1 ISZERO PUSH2 0x457 JUMPI PUSH1 0x0 DUP1 REVERT JUMPDEST POP PUSH2 0x23F PUSH2 0x466 CALLDATASIZE PUSH1 0x4 PUSH2 0x2472 JUMP JUMPDEST PUSH2 0xCBC JUMP JUMPDEST CALLVALUE DUP1 ISZERO PUSH2 0x477 JUMPI PUSH1 0x0 DUP1 REVERT JUMPDEST POP PUSH2 0x23F PUSH2 0x486 CALLDATASIZE PUSH1 0x4 PUSH2 0x229B JUMP JUMPDEST PUSH2 0xF84 JUMP JUMPDEST CALLVALUE DUP1 ISZERO PUSH2 0x497 JUMPI PUSH1 0x0 DUP1 REVERT JUMPDEST POP PUSH2 0x2A5 PUSH2 0x4A6 CALLDATASIZE PUSH1 0x4 PUSH2 0x229B JUMP JUMPDEST PUSH1 0x1 PUSH1 0x1 PUSH1 0xA0 SHL SUB AND PUSH1 0x0 SWAP1 DUP2 MSTORE PUSH1 0x68 PUSH1 0x20 MSTORE PUSH1 0x40 SWAP1 KECCAK256 SLOAD PUSH1 0xFF AND SWAP1 JUMP JUMPDEST CALLVALUE DUP1 ISZERO PUSH2 0x4D0 JUMPI PUSH1 0x0 DUP1 REVERT JUMPDEST POP PUSH1 0x40 DUP1 MLOAD DUP1 DUP3 ADD SWAP1 SWAP2 MSTORE PUSH1 0x1 DUP2 MSTORE PUSH1 0x31 PUSH1 0xF8 SHL PUSH1 0x20 DUP3 ADD MSTORE PUSH2 0x256 JUMP JUMPDEST CALLVALUE DUP1 ISZERO PUSH2 0x4FA JUMPI PUSH1 0x0 DUP1 REVERT JUMPDEST POP PUSH2 0x2E6 PUSH2 0x509 CALLDATASIZE PUSH1 0x4 PUSH2 0x229B JUMP JUMPDEST PUSH2 0x10B5 JUMP JUMPDEST CALLVALUE DUP1 ISZERO PUSH2 0x51A JUMPI PUSH1 0x0 DUP1 REVERT JUMPDEST POP PUSH2 0x23F PUSH2 0x1114 JUMP JUMPDEST CALLVALUE DUP1 ISZERO PUSH2 0x52F JUMPI PUSH1 0x0 DUP1 REVERT JUMPDEST POP PUSH2 0x2E6 PUSH1 0x73 SLOAD DUP2 JUMP JUMPDEST CALLVALUE DUP1 ISZERO PUSH2 0x545 JUMPI PUSH1 0x0 DUP1 REVERT JUMPDEST POP PUSH2 0x2A5 PUSH2 0x554 CALLDATASIZE PUSH1 0x4 PUSH2 0x229B JUMP JUMPDEST PUSH1 0x1 PUSH1 0x1 PUSH1 0xA0 SHL SUB AND PUSH1 0x0 SWAP1 DUP2 MSTORE PUSH1 0x69 PUSH1 0x20 MSTORE PUSH1 0x40 SWAP1 KECCAK256 SLOAD PUSH1 0xFF AND SWAP1 JUMP JUMPDEST CALLVALUE DUP1 ISZERO PUSH2 0x57E JUMPI PUSH1 0x0 DUP1 REVERT JUMPDEST POP PUSH1 0x33 SLOAD PUSH1 0x40 MLOAD PUSH1 0x1 PUSH1 0x1 PUSH1 0xA0 SHL SUB SWAP1 SWAP2 AND DUP2 MSTORE PUSH1 0x20 ADD PUSH2 0x263 JUMP JUMPDEST CALLVALUE DUP1 ISZERO PUSH2 0x5A6 JUMPI PUSH1 0x0 DUP1 REVERT JUMPDEST POP PUSH2 0x256 PUSH2 0x1128 JUMP JUMPDEST CALLVALUE DUP1 ISZERO PUSH2 0x5BB JUMPI PUSH1 0x0 DUP1 REVERT JUMPDEST POP PUSH2 0x23F PUSH2 0x5CA CALLDATASIZE PUSH1 0x4 PUSH2 0x258E JUMP JUMPDEST PUSH2 0x1137 JUMP JUMPDEST CALLVALUE DUP1 ISZERO PUSH2 0x5DB JUMPI PUSH1 0x0 DUP1 REVERT JUMPDEST POP PUSH2 0x2A5 PUSH2 0x5EA CALLDATASIZE PUSH1 0x4 PUSH2 0x22B6 JUMP JUMPDEST PUSH2 0x11D3 JUMP JUMPDEST CALLVALUE DUP1 ISZERO PUSH2 0x5FB JUMPI PUSH1 0x0 DUP1 REVERT JUMPDEST POP PUSH2 0x23F PUSH2 0x60A CALLDATASIZE PUSH1 0x4 PUSH2 0x2694 JUMP JUMPDEST PUSH2 0x1222 JUMP JUMPDEST CALLVALUE DUP1 ISZERO PUSH2 0x61B JUMPI PUSH1 0x0 DUP1 REVERT JUMPDEST POP PUSH2 0x2A5 PUSH2 0x62A CALLDATASIZE PUSH1 0x4 PUSH2 0x22B6 JUMP JUMPDEST PUSH2 0x146A JUMP JUMPDEST CALLVALUE DUP1 ISZERO PUSH2 0x63B JUMPI PUSH1 0x0 DUP1 REVERT JUMPDEST POP PUSH2 0x23F PUSH2 0x64A CALLDATASIZE PUSH1 0x4 PUSH2 0x2211 JUMP JUMPDEST PUSH2 0x1477 JUMP JUMPDEST CALLVALUE DUP1 ISZERO PUSH2 0x65B JUMPI PUSH1 0x0 DUP1 REVERT JUMPDEST POP PUSH2 0x2E6 PUSH2 0x66A CALLDATASIZE PUSH1 0x4 PUSH2 0x272E JUMP JUMPDEST PUSH1 0x1 PUSH1 0x1 PUSH1 0xA0 SHL SUB SWAP2 DUP3 AND PUSH1 0x0 SWAP1 DUP2 MSTORE PUSH1 0x67 PUSH1 0x20 SWAP1 DUP2 MSTORE PUSH1 0x40 DUP1 DUP4 KECCAK256 SWAP4 SWAP1 SWAP5 AND DUP3 MSTORE SWAP2 SWAP1 SWAP2 MSTORE KECCAK256 SLOAD SWAP1 JUMP JUMPDEST CALLVALUE DUP1 ISZERO PUSH2 0x6A1 JUMPI PUSH1 0x0 DUP1 REVERT JUMPDEST POP PUSH2 0x23F PUSH2 0x6B0 CALLDATASIZE PUSH1 0x4 PUSH2 0x229B JUMP JUMPDEST PUSH2 0x149D JUMP JUMPDEST CALLVALUE DUP1 ISZERO PUSH2 0x6C1 JUMPI PUSH1 0x0 DUP1 REVERT JUMPDEST POP PUSH2 0x23F PUSH2 0x6D0 CALLDATASIZE PUSH1 0x4 PUSH2 0x229B JUMP JUMPDEST PUSH2 0x14C6 JUMP JUMPDEST CALLVALUE DUP1 ISZERO PUSH2 0x6E1 JUMPI PUSH1 0x0 DUP1 REVERT JUMPDEST POP PUSH2 0x2A5 PUSH2 0x6F0 CALLDATASIZE PUSH1 0x4 PUSH2 0x2211 JUMP JUMPDEST PUSH1 0x76 PUSH1 0x20 MSTORE PUSH1 0x0 SWAP1 DUP2 MSTORE PUSH1 0x40 SWAP1 KECCAK256 SLOAD PUSH1 0xFF AND DUP2 JUMP JUMPDEST PUSH2 0x70D PUSH2 0x153C JUMP JUMPDEST PUSH1 0x71 SSTORE JUMP JUMPDEST PUSH1 0x60 PUSH1 0x6E DUP1 SLOAD PUSH2 0x721 SWAP1 PUSH2 0x2761 JUMP JUMPDEST DUP1 PUSH1 0x1F ADD PUSH1 0x20 DUP1 SWAP2 DIV MUL PUSH1 0x20 ADD PUSH1 0x40 MLOAD SWAP1 DUP2 ADD PUSH1 0x40 MSTORE DUP1 SWAP3 SWAP2 SWAP1 DUP2 DUP2 MSTORE PUSH1 0x20 ADD DUP3 DUP1 SLOAD PUSH2 0x74D SWAP1 PUSH2 0x2761 JUMP JUMPDEST DUP1 ISZERO PUSH2 0x79A JUMPI DUP1 PUSH1 0x1F LT PUSH2 0x76F JUMPI PUSH2 0x100 DUP1 DUP4 SLOAD DIV MUL DUP4 MSTORE SWAP2 PUSH1 0x20 ADD SWAP2 PUSH2 0x79A JUMP JUMPDEST DUP3 ADD SWAP2 SWAP1 PUSH1 0x0 MSTORE PUSH1 0x20 PUSH1 0x0 KECCAK256 SWAP1 JUMPDEST DUP2 SLOAD DUP2 MSTORE SWAP1 PUSH1 0x1 ADD SWAP1 PUSH1 0x20 ADD DUP1 DUP4 GT PUSH2 0x77D JUMPI DUP3 SWAP1 SUB PUSH1 0x1F AND DUP3 ADD SWAP2 JUMPDEST POP POP POP POP POP SWAP1 POP SWAP1 JUMP JUMPDEST PUSH1 0x0 PUSH2 0x7B1 CALLER DUP5 DUP5 PUSH2 0x1596 JUMP JUMPDEST POP PUSH1 0x1 JUMPDEST SWAP3 SWAP2 POP POP JUMP JUMPDEST PUSH1 0x0 PUSH2 0x7C8 DUP5 DUP5 DUP5 PUSH2 0x16BA JUMP JUMPDEST PUSH2 0x81A DUP5 CALLER PUSH2 0x815 DUP6 PUSH1 0x40 MLOAD DUP1 PUSH1 0x60 ADD PUSH1 0x40 MSTORE DUP1 PUSH1 0x28 DUP2 MSTORE PUSH1 0x20 ADD PUSH2 0x2A08 PUSH1 0x28 SWAP2 CODECOPY PUSH1 0x1 PUSH1 0x1 PUSH1 0xA0 SHL SUB DUP11 AND PUSH1 0x0 SWAP1 DUP2 MSTORE PUSH1 0x67 PUSH1 0x20 SWAP1 DUP2 MSTORE PUSH1 0x40 DUP1 DUP4 KECCAK256 CALLER DUP5 MSTORE SWAP1 SWAP2 MSTORE SWAP1 KECCAK256 SLOAD SWAP2 SWAP1 PUSH2 0x18EF JUMP JUMPDEST PUSH2 0x1596 JUMP JUMPDEST POP PUSH1 0x1 SWAP4 SWAP3 POP POP POP JUMP JUMPDEST PUSH1 0x0 PUSH1 0x6C SLOAD DUP3 GT ISZERO PUSH2 0x890 JUMPI PUSH1 0x40 MLOAD PUSH3 0x461BCD PUSH1 0xE5 SHL DUP2 MSTORE PUSH1 0x20 PUSH1 0x4 DUP3 ADD MSTORE PUSH1 0x2A PUSH1 0x24 DUP3 ADD MSTORE PUSH32 0x416D6F756E74206D757374206265206C657373207468616E20746F74616C2072 PUSH1 0x44 DUP3 ADD MSTORE PUSH10 0x65666C656374696F6E73 PUSH1 0xB0 SHL PUSH1 0x64 DUP3 ADD MSTORE PUSH1 0x84 ADD JUMPDEST PUSH1 0x40 MLOAD DUP1 SWAP2 SUB SWAP1 REVERT JUMPDEST PUSH1 0x0 PUSH2 0x89A PUSH2 0x191B JUMP JUMPDEST SWAP1 POP PUSH2 0x8A6 DUP4 DUP3 PUSH2 0x193E JUMP JUMPDEST SWAP4 SWAP3 POP POP POP JUMP JUMPDEST PUSH2 0x8B5 PUSH2 0x153C JUMP JUMPDEST PUSH1 0x1 PUSH1 0x1 PUSH1 0xA0 SHL SUB DUP2 AND PUSH1 0x0 SWAP1 DUP2 MSTORE PUSH1 0x69 PUSH1 0x20 MSTORE PUSH1 0x40 SWAP1 KECCAK256 SLOAD PUSH1 0xFF AND PUSH2 0x91D JUMPI PUSH1 0x40 MLOAD PUSH3 0x461BCD PUSH1 0xE5 SHL DUP2 MSTORE PUSH1 0x20 PUSH1 0x4 DUP3 ADD MSTORE PUSH1 0x1B PUSH1 0x24 DUP3 ADD MSTORE PUSH32 0x4163636F756E7420697320616C7265616479206578636C756465640000000000 PUSH1 0x44 DUP3 ADD MSTORE PUSH1 0x64 ADD PUSH2 0x887 JUMP JUMPDEST PUSH1 0x0 JUMPDEST PUSH1 0x6A SLOAD DUP2 LT ISZERO PUSH2 0xA3E JUMPI DUP2 PUSH1 0x1 PUSH1 0x1 PUSH1 0xA0 SHL SUB AND PUSH1 0x6A DUP3 DUP2 SLOAD DUP2 LT PUSH2 0x947 JUMPI PUSH2 0x947 PUSH2 0x279C JUMP JUMPDEST PUSH1 0x0 SWAP2 DUP3 MSTORE PUSH1 0x20 SWAP1 SWAP2 KECCAK256 ADD SLOAD PUSH1 0x1 PUSH1 0x1 PUSH1 0xA0 SHL SUB AND EQ ISZERO PUSH2 0xA2C JUMPI PUSH1 0x6A DUP1 SLOAD PUSH2 0x972 SWAP1 PUSH1 0x1 SWAP1 PUSH2 0x27C8 JUMP JUMPDEST DUP2 SLOAD DUP2 LT PUSH2 0x982 JUMPI PUSH2 0x982 PUSH2 0x279C JUMP JUMPDEST PUSH1 0x0 SWAP2 DUP3 MSTORE PUSH1 0x20 SWAP1 SWAP2 KECCAK256 ADD SLOAD PUSH1 0x6A DUP1 SLOAD PUSH1 0x1 PUSH1 0x1 PUSH1 0xA0 SHL SUB SWAP1 SWAP3 AND SWAP2 DUP4 SWAP1 DUP2 LT PUSH2 0x9AE JUMPI PUSH2 0x9AE PUSH2 0x279C JUMP JUMPDEST PUSH1 0x0 SWAP2 DUP3 MSTORE PUSH1 0x20 DUP1 DUP4 KECCAK256 SWAP2 SWAP1 SWAP2 ADD DUP1 SLOAD PUSH1 0x1 PUSH1 0x1 PUSH1 0xA0 SHL SUB NOT AND PUSH1 0x1 PUSH1 0x1 PUSH1 0xA0 SHL SUB SWAP5 DUP6 AND OR SWAP1 SSTORE SWAP2 DUP5 AND DUP2 MSTORE PUSH1 0x66 DUP3 MSTORE PUSH1 0x40 DUP1 DUP3 KECCAK256 DUP3 SWAP1 SSTORE PUSH1 0x69 SWAP1 SWAP3 MSTORE KECCAK256 DUP1 SLOAD PUSH1 0xFF NOT AND SWAP1 SSTORE PUSH1 0x6A DUP1 SLOAD DUP1 PUSH2 0xA06 JUMPI PUSH2 0xA06 PUSH2 0x27DF JUMP JUMPDEST PUSH1 0x0 DUP3 DUP2 MSTORE PUSH1 0x20 SWAP1 KECCAK256 DUP2 ADD PUSH1 0x0 NOT SWAP1 DUP2 ADD DUP1 SLOAD PUSH1 0x1 PUSH1 0x1 PUSH1 0xA0 SHL SUB NOT AND SWAP1 SSTORE ADD SWAP1 SSTORE POP POP JUMP JUMPDEST DUP1 PUSH2 0xA36 DUP2 PUSH2 0x27F5 JUMP JUMPDEST SWAP2 POP POP PUSH2 0x920 JUMP JUMPDEST POP POP JUMP JUMPDEST CALLER PUSH1 0x0 DUP2 DUP2 MSTORE PUSH1 0x67 PUSH1 0x20 SWAP1 DUP2 MSTORE PUSH1 0x40 DUP1 DUP4 KECCAK256 PUSH1 0x1 PUSH1 0x1 PUSH1 0xA0 SHL SUB DUP8 AND DUP5 MSTORE SWAP1 SWAP2 MSTORE DUP2 KECCAK256 SLOAD SWAP1 SWAP2 PUSH2 0x7B1 SWAP2 DUP6 SWAP1 PUSH2 0x815 SWAP1 DUP7 PUSH2 0x194A JUMP JUMPDEST CALLER PUSH1 0x0 DUP2 DUP2 MSTORE PUSH1 0x69 PUSH1 0x20 MSTORE PUSH1 0x40 SWAP1 KECCAK256 SLOAD PUSH1 0xFF AND ISZERO PUSH2 0xAED JUMPI PUSH1 0x40 MLOAD PUSH3 0x461BCD PUSH1 0xE5 SHL DUP2 MSTORE PUSH1 0x20 PUSH1 0x4 DUP3 ADD MSTORE PUSH1 0x2C PUSH1 0x24 DUP3 ADD MSTORE PUSH32 0x4578636C75646564206164647265737365732063616E6E6F742063616C6C2074 PUSH1 0x44 DUP3 ADD MSTORE PUSH12 0x3434B990333AB731BA34B7B7 PUSH1 0xA1 SHL PUSH1 0x64 DUP3 ADD MSTORE PUSH1 0x84 ADD PUSH2 0x887 JUMP JUMPDEST PUSH1 0x0 PUSH2 0xAF8 DUP4 PUSH2 0x1956 JUMP JUMPDEST POP POP POP POP PUSH1 0x1 PUSH1 0x1 PUSH1 0xA0 SHL SUB DUP4 AND PUSH1 0x0 SWAP1 DUP2 MSTORE PUSH1 0x65 PUSH1 0x20 MSTORE PUSH1 0x40 SWAP1 KECCAK256 SLOAD SWAP1 SWAP2 POP PUSH2 0xB22 SWAP1 DUP3 PUSH2 0x199C JUMP JUMPDEST PUSH1 0x1 PUSH1 0x1 PUSH1 0xA0 SHL SUB DUP4 AND PUSH1 0x0 SWAP1 DUP2 MSTORE PUSH1 0x65 PUSH1 0x20 MSTORE PUSH1 0x40 SWAP1 KECCAK256 SSTORE PUSH1 0x6C SLOAD PUSH2 0xB48 SWAP1 DUP3 PUSH2 0x199C JUMP JUMPDEST PUSH1 0x6C SSTORE PUSH1 0x6D SLOAD PUSH2 0xB58 SWAP1 DUP5 PUSH2 0x194A JUMP JUMPDEST PUSH1 0x6D SSTORE POP POP POP JUMP JUMPDEST PUSH2 0xB68 PUSH2 0x153C JUMP JUMPDEST PUSH1 0x1 PUSH1 0x1 PUSH1 0xA0 SHL SUB AND PUSH1 0x0 SWAP1 DUP2 MSTORE PUSH1 0x68 PUSH1 0x20 MSTORE PUSH1 0x40 SWAP1 KECCAK256 DUP1 SLOAD PUSH1 0xFF NOT AND PUSH1 0x1 OR SWAP1 SSTORE JUMP JUMPDEST PUSH1 0x0 PUSH1 0x6B SLOAD DUP4 GT ISZERO PUSH2 0xBE0 JUMPI PUSH1 0x40 MLOAD PUSH3 0x461BCD PUSH1 0xE5 SHL DUP2 MSTORE PUSH1 0x20 PUSH1 0x4 DUP3 ADD MSTORE PUSH1 0x1F PUSH1 0x24 DUP3 ADD MSTORE PUSH32 0x416D6F756E74206D757374206265206C657373207468616E20737570706C7900 PUSH1 0x44 DUP3 ADD MSTORE PUSH1 0x64 ADD PUSH2 0x887 JUMP JUMPDEST DUP2 PUSH2 0xBFE JUMPI PUSH1 0x0 PUSH2 0xBF0 DUP5 PUSH2 0x1956 JUMP JUMPDEST POP SWAP3 SWAP5 POP PUSH2 0x7B5 SWAP4 POP POP POP POP JUMP JUMPDEST PUSH1 0x0 PUSH2 0xC09 DUP5 PUSH2 0x1956 JUMP JUMPDEST POP SWAP2 SWAP5 POP PUSH2 0x7B5 SWAP4 POP POP POP POP JUMP JUMPDEST PUSH1 0x60 PUSH1 0x74 DUP1 SLOAD DUP1 PUSH1 0x20 MUL PUSH1 0x20 ADD PUSH1 0x40 MLOAD SWAP1 DUP2 ADD PUSH1 0x40 MSTORE DUP1 SWAP3 SWAP2 SWAP1 DUP2 DUP2 MSTORE PUSH1 0x20 ADD DUP3 DUP1 SLOAD DUP1 ISZERO PUSH2 0x79A JUMPI PUSH1 0x20 MUL DUP3 ADD SWAP2 SWAP1 PUSH1 0x0 MSTORE PUSH1 0x20 PUSH1 0x0 KECCAK256 SWAP1 JUMPDEST DUP2 SLOAD PUSH1 0x1 PUSH1 0x1 PUSH1 0xA0 SHL SUB AND DUP2 MSTORE PUSH1 0x1 SWAP1 SWAP2 ADD SWAP1 PUSH1 0x20 ADD DUP1 DUP4 GT PUSH2 0xC51 JUMPI POP POP POP POP POP SWAP1 POP SWAP1 JUMP JUMPDEST PUSH2 0xC80 PUSH2 0x153C JUMP JUMPDEST PUSH1 0x33 SLOAD PUSH1 0x40 MLOAD PUSH1 0x1 PUSH1 0x1 PUSH1 0xA0 SHL SUB SWAP1 SWAP2 AND SWAP1 SELFBALANCE DUP1 ISZERO PUSH2 0x8FC MUL SWAP2 PUSH1 0x0 DUP2 DUP2 DUP2 DUP6 DUP9 DUP9 CALL SWAP4 POP POP POP POP ISZERO DUP1 ISZERO PUSH2 0xCB9 JUMPI RETURNDATASIZE PUSH1 0x0 DUP1 RETURNDATACOPY RETURNDATASIZE PUSH1 0x0 REVERT JUMPDEST POP JUMP JUMPDEST TIMESTAMP DUP5 LT ISZERO PUSH2 0xCFF JUMPI PUSH1 0x40 MLOAD PUSH3 0x461BCD PUSH1 0xE5 SHL DUP2 MSTORE PUSH1 0x20 PUSH1 0x4 DUP3 ADD MSTORE PUSH1 0x10 PUSH1 0x24 DUP3 ADD MSTORE PUSH16 0x4578706972656420646561646C696E65 PUSH1 0x80 SHL PUSH1 0x44 DUP3 ADD MSTORE PUSH1 0x64 ADD PUSH2 0x887 JUMP JUMPDEST PUSH1 0x0 DUP7 DUP2 MSTORE PUSH1 0x76 PUSH1 0x20 MSTORE PUSH1 0x40 SWAP1 KECCAK256 SLOAD PUSH1 0xFF AND ISZERO PUSH2 0xD51 JUMPI PUSH1 0x40 MLOAD PUSH3 0x461BCD PUSH1 0xE5 SHL DUP2 MSTORE PUSH1 0x20 PUSH1 0x4 DUP3 ADD MSTORE PUSH1 0x10 PUSH1 0x24 DUP3 ADD MSTORE PUSH16 0x556E6971756520696420657869737473 PUSH1 0x80 SHL PUSH1 0x44 DUP3 ADD MSTORE PUSH1 0x64 ADD PUSH2 0x887 JUMP JUMPDEST CALLER PUSH1 0x0 PUSH2 0xD66 PUSH1 0x33 SLOAD PUSH1 0x1 PUSH1 0x1 PUSH1 0xA0 SHL SUB AND SWAP1 JUMP JUMPDEST PUSH1 0x40 DUP1 MLOAD PUSH1 0x1 PUSH1 0x1 PUSH1 0xA0 SHL SUB DUP1 DUP5 AND PUSH1 0x20 DUP4 ADD MSTORE DUP1 DUP7 AND SWAP3 DUP3 ADD SWAP3 SWAP1 SWAP3 MSTORE SWAP1 DUP12 AND PUSH1 0x60 DUP3 ADD MSTORE PUSH1 0x80 DUP2 ADD DUP10 SWAP1 MSTORE PUSH1 0xA0 DUP2 ADD DUP11 SWAP1 MSTORE PUSH1 0xC0 DUP2 ADD DUP9 SWAP1 MSTORE SWAP1 SWAP2 POP PUSH1 0x0 SWAP1 PUSH1 0xE0 ADD PUSH1 0x40 MLOAD PUSH1 0x20 DUP2 DUP4 SUB SUB DUP2 MSTORE SWAP1 PUSH1 0x40 MSTORE DUP1 MLOAD SWAP1 PUSH1 0x20 ADD KECCAK256 SWAP1 POP PUSH1 0x0 DUP1 PUSH1 0x0 JUMPDEST DUP9 MLOAD DUP2 PUSH1 0x1 PUSH1 0x1 PUSH1 0x40 SHL SUB AND LT ISZERO PUSH2 0xF0C JUMPI PUSH1 0x0 PUSH1 0x1 DUP6 DUP12 DUP5 PUSH1 0x1 PUSH1 0x1 PUSH1 0x40 SHL SUB AND DUP2 MLOAD DUP2 LT PUSH2 0xDFA JUMPI PUSH2 0xDFA PUSH2 0x279C JUMP JUMPDEST PUSH1 0x20 MUL PUSH1 0x20 ADD ADD MLOAD DUP12 DUP6 PUSH1 0x1 PUSH1 0x1 PUSH1 0x40 SHL SUB AND DUP2 MLOAD DUP2 LT PUSH2 0xE1D JUMPI PUSH2 0xE1D PUSH2 0x279C JUMP JUMPDEST PUSH1 0x20 MUL PUSH1 0x20 ADD ADD MLOAD DUP12 DUP7 PUSH1 0x1 PUSH1 0x1 PUSH1 0x40 SHL SUB AND DUP2 MLOAD DUP2 LT PUSH2 0xE40 JUMPI PUSH2 0xE40 PUSH2 0x279C JUMP JUMPDEST PUSH1 0x20 MUL PUSH1 0x20 ADD ADD MLOAD PUSH1 0x40 MLOAD PUSH1 0x0 DUP2 MSTORE PUSH1 0x20 ADD PUSH1 0x40 MSTORE PUSH1 0x40 MLOAD PUSH2 0xE7E SWAP5 SWAP4 SWAP3 SWAP2 SWAP1 SWAP4 DUP5 MSTORE PUSH1 0xFF SWAP3 SWAP1 SWAP3 AND PUSH1 0x20 DUP5 ADD MSTORE PUSH1 0x40 DUP4 ADD MSTORE PUSH1 0x60 DUP3 ADD MSTORE PUSH1 0x80 ADD SWAP1 JUMP JUMPDEST PUSH1 0x20 PUSH1 0x40 MLOAD PUSH1 0x20 DUP2 SUB SWAP1 DUP1 DUP5 SUB SWAP1 DUP6 GAS STATICCALL ISZERO DUP1 ISZERO PUSH2 0xEA0 JUMPI RETURNDATASIZE PUSH1 0x0 DUP1 RETURNDATACOPY RETURNDATASIZE PUSH1 0x0 REVERT JUMPDEST POP POP POP PUSH1 0x20 PUSH1 0x40 MLOAD SUB MLOAD SWAP1 POP DUP4 PUSH1 0x1 PUSH1 0x1 PUSH1 0xA0 SHL SUB AND DUP2 PUSH1 0x1 PUSH1 0x1 PUSH1 0xA0 SHL SUB AND GT DUP1 ISZERO PUSH2 0xEE5 JUMPI POP PUSH1 0x1 PUSH1 0x1 PUSH1 0xA0 SHL SUB DUP2 AND PUSH1 0x0 SWAP1 DUP2 MSTORE PUSH1 0x75 PUSH1 0x20 MSTORE PUSH1 0x40 SWAP1 KECCAK256 SLOAD PUSH1 0xFF AND JUMPDEST ISZERO PUSH2 0xEF8 JUMPI DUP3 PUSH2 0xEF4 DUP2 PUSH2 0x2810 JUMP JUMPDEST SWAP4 POP POP JUMPDEST SWAP3 POP DUP1 PUSH2 0xF04 DUP2 PUSH2 0x2830 JUMP JUMPDEST SWAP2 POP POP PUSH2 0xDC8 JUMP JUMPDEST POP DUP1 PUSH1 0xFF AND PUSH1 0x3 EQ PUSH2 0xF52 JUMPI PUSH1 0x40 MLOAD PUSH3 0x461BCD PUSH1 0xE5 SHL DUP2 MSTORE PUSH1 0x20 PUSH1 0x4 DUP3 ADD MSTORE PUSH1 0xF PUSH1 0x24 DUP3 ADD MSTORE PUSH15 0x496E76616C6964207369676E657273 PUSH1 0x88 SHL PUSH1 0x44 DUP3 ADD MSTORE PUSH1 0x64 ADD PUSH2 0x887 JUMP JUMPDEST PUSH1 0x0 DUP12 DUP2 MSTORE PUSH1 0x76 PUSH1 0x20 MSTORE PUSH1 0x40 SWAP1 KECCAK256 DUP1 SLOAD PUSH1 0xFF NOT AND PUSH1 0x1 OR SWAP1 SSTORE PUSH2 0xF75 DUP13 DUP12 PUSH2 0x146A JUMP JUMPDEST POP POP POP POP POP POP POP POP POP POP POP POP POP JUMP JUMPDEST PUSH2 0xF8C PUSH2 0x153C JUMP JUMPDEST PUSH1 0x1 PUSH1 0x1 PUSH1 0xA0 SHL SUB DUP2 AND PUSH1 0x0 SWAP1 DUP2 MSTORE PUSH1 0x69 PUSH1 0x20 MSTORE PUSH1 0x40 SWAP1 KECCAK256 SLOAD PUSH1 0xFF AND ISZERO PUSH2 0xFF5 JUMPI PUSH1 0x40 MLOAD PUSH3 0x461BCD PUSH1 0xE5 SHL DUP2 MSTORE PUSH1 0x20 PUSH1 0x4 DUP3 ADD MSTORE PUSH1 0x1B PUSH1 0x24 DUP3 ADD MSTORE PUSH32 0x4163636F756E7420697320616C7265616479206578636C756465640000000000 PUSH1 0x44 DUP3 ADD MSTORE PUSH1 0x64 ADD PUSH2 0x887 JUMP JUMPDEST PUSH1 0x1 PUSH1 0x1 PUSH1 0xA0 SHL SUB DUP2 AND PUSH1 0x0 SWAP1 DUP2 MSTORE PUSH1 0x65 PUSH1 0x20 MSTORE PUSH1 0x40 SWAP1 KECCAK256 SLOAD ISZERO PUSH2 0x104F JUMPI PUSH1 0x1 PUSH1 0x1 PUSH1 0xA0 SHL SUB DUP2 AND PUSH1 0x0 SWAP1 DUP2 MSTORE PUSH1 0x65 PUSH1 0x20 MSTORE PUSH1 0x40 SWAP1 KECCAK256 SLOAD PUSH2 0x1035 SWAP1 PUSH2 0x824 JUMP JUMPDEST PUSH1 0x1 PUSH1 0x1 PUSH1 0xA0 SHL SUB DUP3 AND PUSH1 0x0 SWAP1 DUP2 MSTORE PUSH1 0x66 PUSH1 0x20 MSTORE PUSH1 0x40 SWAP1 KECCAK256 SSTORE JUMPDEST PUSH1 0x1 PUSH1 0x1 PUSH1 0xA0 SHL SUB AND PUSH1 0x0 DUP2 DUP2 MSTORE PUSH1 0x69 PUSH1 0x20 MSTORE PUSH1 0x40 DUP2 KECCAK256 DUP1 SLOAD PUSH1 0xFF NOT AND PUSH1 0x1 SWAP1 DUP2 OR SWAP1 SWAP2 SSTORE PUSH1 0x6A DUP1 SLOAD SWAP2 DUP3 ADD DUP2 SSTORE SWAP1 SWAP2 MSTORE PUSH32 0x116FEA137DB6E131133E7F2BAB296045D8F41CC5607279DB17B218CAB0929A51 ADD DUP1 SLOAD PUSH1 0x1 PUSH1 0x1 PUSH1 0xA0 SHL SUB NOT AND SWAP1 SWAP2 OR SWAP1 SSTORE JUMP JUMPDEST PUSH1 0x1 PUSH1 0x1 PUSH1 0xA0 SHL SUB DUP2 AND PUSH1 0x0 SWAP1 DUP2 MSTORE PUSH1 0x69 PUSH1 0x20 MSTORE PUSH1 0x40 DUP2 KECCAK256 SLOAD PUSH1 0xFF AND ISZERO PUSH2 0x10F2 JUMPI POP PUSH1 0x1 PUSH1 0x1 PUSH1 0xA0 SHL SUB AND PUSH1 0x0 SWAP1 DUP2 MSTORE PUSH1 0x66 PUSH1 0x20 MSTORE PUSH1 0x40 SWAP1 KECCAK256 SLOAD SWAP1 JUMP JUMPDEST PUSH1 0x1 PUSH1 0x1 PUSH1 0xA0 SHL SUB DUP3 AND PUSH1 0x0 SWAP1 DUP2 MSTORE PUSH1 0x65 PUSH1 0x20 MSTORE PUSH1 0x40 SWAP1 KECCAK256 SLOAD PUSH2 0x7B5 SWAP1 PUSH2 0x824 JUMP JUMPDEST PUSH2 0x111C PUSH2 0x153C JUMP JUMPDEST PUSH2 0x1126 PUSH1 0x0 PUSH2 0x19A8 JUMP JUMPDEST JUMP JUMPDEST PUSH1 0x60 PUSH1 0x6F DUP1 SLOAD PUSH2 0x721 SWAP1 PUSH2 0x2761 JUMP JUMPDEST PUSH2 0x113F PUSH2 0x153C JUMP JUMPDEST PUSH2 0x11A6 PUSH1 0x74 DUP1 SLOAD DUP1 PUSH1 0x20 MUL PUSH1 0x20 ADD PUSH1 0x40 MLOAD SWAP1 DUP2 ADD PUSH1 0x40 MSTORE DUP1 SWAP3 SWAP2 SWAP1 DUP2 DUP2 MSTORE PUSH1 0x20 ADD DUP3 DUP1 SLOAD DUP1 ISZERO PUSH2 0x1198 JUMPI PUSH1 0x20 MUL DUP3 ADD SWAP2 SWAP1 PUSH1 0x0 MSTORE PUSH1 0x20 PUSH1 0x0 KECCAK256 SWAP1 JUMPDEST DUP2 SLOAD PUSH1 0x1 PUSH1 0x1 PUSH1 0xA0 SHL SUB AND DUP2 MSTORE PUSH1 0x1 SWAP1 SWAP2 ADD SWAP1 PUSH1 0x20 ADD DUP1 DUP4 GT PUSH2 0x117A JUMPI JUMPDEST POP POP POP POP POP PUSH1 0x0 PUSH1 0x75 PUSH2 0x19FA JUMP JUMPDEST PUSH2 0x11B2 PUSH1 0x74 PUSH1 0x0 PUSH2 0x2105 JUMP JUMPDEST DUP1 MLOAD PUSH2 0x11C5 SWAP1 PUSH1 0x74 SWAP1 PUSH1 0x20 DUP5 ADD SWAP1 PUSH2 0x2123 JUMP JUMPDEST POP PUSH2 0xCB9 DUP2 PUSH1 0x1 PUSH1 0x75 PUSH2 0x19FA JUMP JUMPDEST PUSH1 0x0 PUSH2 0x7B1 CALLER DUP5 PUSH2 0x815 DUP6 PUSH1 0x40 MLOAD DUP1 PUSH1 0x60 ADD PUSH1 0x40 MSTORE DUP1 PUSH1 0x25 DUP2 MSTORE PUSH1 0x20 ADD PUSH2 0x2A30 PUSH1 0x25 SWAP2 CODECOPY CALLER PUSH1 0x0 SWAP1 DUP2 MSTORE PUSH1 0x67 PUSH1 0x20 SWAP1 DUP2 MSTORE PUSH1 0x40 DUP1 DUP4 KECCAK256 PUSH1 0x1 PUSH1 0x1 PUSH1 0xA0 SHL SUB DUP14 AND DUP5 MSTORE SWAP1 SWAP2 MSTORE SWAP1 KECCAK256 SLOAD SWAP2 SWAP1 PUSH2 0x18EF JUMP JUMPDEST PUSH1 0x0 SLOAD PUSH2 0x100 SWAP1 DIV PUSH1 0xFF AND ISZERO DUP1 DUP1 ISZERO PUSH2 0x1242 JUMPI POP PUSH1 0x0 SLOAD PUSH1 0x1 PUSH1 0xFF SWAP1 SWAP2 AND LT JUMPDEST DUP1 PUSH2 0x125C JUMPI POP ADDRESS EXTCODESIZE ISZERO DUP1 ISZERO PUSH2 0x125C JUMPI POP PUSH1 0x0 SLOAD PUSH1 0xFF AND PUSH1 0x1 EQ JUMPDEST PUSH2 0x12BF JUMPI PUSH1 0x40 MLOAD PUSH3 0x461BCD PUSH1 0xE5 SHL DUP2 MSTORE PUSH1 0x20 PUSH1 0x4 DUP3 ADD MSTORE PUSH1 0x2E PUSH1 0x24 DUP3 ADD MSTORE PUSH32 0x496E697469616C697A61626C653A20636F6E747261637420697320616C726561 PUSH1 0x44 DUP3 ADD MSTORE PUSH14 0x191E481A5B9A5D1A585B1A5E9959 PUSH1 0x92 SHL PUSH1 0x64 DUP3 ADD MSTORE PUSH1 0x84 ADD PUSH2 0x887 JUMP JUMPDEST PUSH1 0x0 DUP1 SLOAD PUSH1 0xFF NOT AND PUSH1 0x1 OR SWAP1 SSTORE DUP1 ISZERO PUSH2 0x12E2 JUMPI PUSH1 0x0 DUP1 SLOAD PUSH2 0xFF00 NOT AND PUSH2 0x100 OR SWAP1 SSTORE JUMPDEST PUSH2 0x12EA PUSH2 0x1A78 JUMP JUMPDEST DUP8 MLOAD PUSH2 0x12FD SWAP1 PUSH1 0x6E SWAP1 PUSH1 0x20 DUP12 ADD SWAP1 PUSH2 0x2188 JUMP JUMPDEST POP DUP7 MLOAD PUSH2 0x1311 SWAP1 PUSH1 0x6F SWAP1 PUSH1 0x20 DUP11 ADD SWAP1 PUSH2 0x2188 JUMP JUMPDEST POP PUSH1 0x70 DUP7 SWAP1 SSTORE PUSH2 0x1322 DUP7 PUSH1 0xA PUSH2 0x293B JUMP JUMPDEST PUSH2 0x132C SWAP1 DUP7 PUSH2 0x2947 JUMP JUMPDEST PUSH1 0x6B DUP2 SWAP1 SSTORE PUSH2 0x133D SWAP1 PUSH1 0x0 NOT PUSH2 0x297C JUMP JUMPDEST PUSH2 0x1349 SWAP1 PUSH1 0x0 NOT PUSH2 0x27C8 JUMP JUMPDEST PUSH1 0x6C SSTORE PUSH1 0x71 DUP5 SWAP1 SSTORE PUSH1 0x72 DUP5 SWAP1 SSTORE PUSH1 0x70 SLOAD PUSH2 0x1364 SWAP1 PUSH1 0xA PUSH2 0x293B JUMP JUMPDEST PUSH2 0x136E SWAP1 DUP5 PUSH2 0x2947 JUMP JUMPDEST PUSH1 0x73 SSTORE PUSH1 0x6C SLOAD PUSH1 0x1 PUSH1 0x1 PUSH1 0xA0 SHL SUB DUP4 AND PUSH1 0x0 SWAP1 DUP2 MSTORE PUSH1 0x65 PUSH1 0x20 SWAP1 DUP2 MSTORE PUSH1 0x40 DUP1 DUP4 KECCAK256 SWAP4 SWAP1 SWAP4 SSTORE PUSH1 0x68 SWAP1 MSTORE DUP2 DUP2 KECCAK256 DUP1 SLOAD PUSH1 0x1 PUSH1 0xFF NOT SWAP2 DUP3 AND DUP2 OR SWAP1 SWAP3 SSTORE ADDRESS DUP4 MSTORE SWAP3 SWAP1 SWAP2 KECCAK256 DUP1 SLOAD SWAP1 SWAP3 AND OR SWAP1 SSTORE PUSH2 0x13C1 DUP3 PUSH2 0xF84 JUMP JUMPDEST PUSH2 0x13CA ADDRESS PUSH2 0xF84 JUMP JUMPDEST DUP2 PUSH1 0x1 PUSH1 0x1 PUSH1 0xA0 SHL SUB AND PUSH1 0x0 PUSH1 0x1 PUSH1 0x1 PUSH1 0xA0 SHL SUB AND PUSH32 0xDDF252AD1BE2C89B69C2B068FC378DAA952BA7F163C4A11628F55A4DF523B3EF PUSH1 0x6B SLOAD PUSH1 0x40 MLOAD PUSH2 0x1412 SWAP2 DUP2 MSTORE PUSH1 0x20 ADD SWAP1 JUMP JUMPDEST PUSH1 0x40 MLOAD DUP1 SWAP2 SUB SWAP1 LOG3 DUP1 ISZERO PUSH2 0x1460 JUMPI PUSH1 0x0 DUP1 SLOAD PUSH2 0xFF00 NOT AND SWAP1 SSTORE PUSH1 0x40 MLOAD PUSH1 0x1 DUP2 MSTORE PUSH32 0x7F26B83FF96E1F2B6A682F133852F6798A09C465DA95921460CEFB3847402498 SWAP1 PUSH1 0x20 ADD PUSH1 0x40 MLOAD DUP1 SWAP2 SUB SWAP1 LOG1 JUMPDEST POP POP POP POP POP POP POP POP JUMP JUMPDEST PUSH1 0x0 PUSH2 0x7B1 CALLER DUP5 DUP5 PUSH2 0x16BA JUMP JUMPDEST PUSH2 0x147F PUSH2 0x153C JUMP JUMPDEST PUSH1 0x70 SLOAD PUSH2 0x148D SWAP1 PUSH1 0xA PUSH2 0x293B JUMP JUMPDEST PUSH2 0x1497 SWAP1 DUP3 PUSH2 0x2947 JUMP JUMPDEST PUSH1 0x73 SSTORE POP JUMP JUMPDEST PUSH2 0x14A5 PUSH2 0x153C JUMP JUMPDEST PUSH1 0x1 PUSH1 0x1 PUSH1 0xA0 SHL SUB AND PUSH1 0x0 SWAP1 DUP2 MSTORE PUSH1 0x68 PUSH1 0x20 MSTORE PUSH1 0x40 SWAP1 KECCAK256 DUP1 SLOAD PUSH1 0xFF NOT AND SWAP1 SSTORE JUMP JUMPDEST PUSH2 0x14CE PUSH2 0x153C JUMP JUMPDEST PUSH1 0x1 PUSH1 0x1 PUSH1 0xA0 SHL SUB DUP2 AND PUSH2 0x1533 JUMPI PUSH1 0x40 MLOAD PUSH3 0x461BCD PUSH1 0xE5 SHL DUP2 MSTORE PUSH1 0x20 PUSH1 0x4 DUP3 ADD MSTORE PUSH1 0x26 PUSH1 0x24 DUP3 ADD MSTORE PUSH32 0x4F776E61626C653A206E6577206F776E657220697320746865207A65726F2061 PUSH1 0x44 DUP3 ADD MSTORE PUSH6 0x646472657373 PUSH1 0xD0 SHL PUSH1 0x64 DUP3 ADD MSTORE PUSH1 0x84 ADD PUSH2 0x887 JUMP JUMPDEST PUSH2 0xCB9 DUP2 PUSH2 0x19A8 JUMP JUMPDEST PUSH1 0x33 SLOAD PUSH1 0x1 PUSH1 0x1 PUSH1 0xA0 SHL SUB AND CALLER EQ PUSH2 0x1126 JUMPI PUSH1 0x40 MLOAD PUSH3 0x461BCD PUSH1 0xE5 SHL DUP2 MSTORE PUSH1 0x20 PUSH1 0x4 DUP3 ADD DUP2 SWAP1 MSTORE PUSH1 0x24 DUP3 ADD MSTORE PUSH32 0x4F776E61626C653A2063616C6C6572206973206E6F7420746865206F776E6572 PUSH1 0x44 DUP3 ADD MSTORE PUSH1 0x64 ADD PUSH2 0x887 JUMP JUMPDEST PUSH1 0x1 PUSH1 0x1 PUSH1 0xA0 SHL SUB DUP4 AND PUSH2 0x15F8 JUMPI PUSH1 0x40 MLOAD PUSH3 0x461BCD PUSH1 0xE5 SHL DUP2 MSTORE PUSH1 0x20 PUSH1 0x4 DUP3 ADD MSTORE PUSH1 0x24 DUP1 DUP3 ADD MSTORE PUSH32 0x45524332303A20617070726F76652066726F6D20746865207A65726F20616464 PUSH1 0x44 DUP3 ADD MSTORE PUSH4 0x72657373 PUSH1 0xE0 SHL PUSH1 0x64 DUP3 ADD MSTORE PUSH1 0x84 ADD PUSH2 0x887 JUMP JUMPDEST PUSH1 0x1 PUSH1 0x1 PUSH1 0xA0 SHL SUB DUP3 AND PUSH2 0x1659 JUMPI PUSH1 0x40 MLOAD PUSH3 0x461BCD PUSH1 0xE5 SHL DUP2 MSTORE PUSH1 0x20 PUSH1 0x4 DUP3 ADD MSTORE PUSH1 0x22 PUSH1 0x24 DUP3 ADD MSTORE PUSH32 0x45524332303A20617070726F766520746F20746865207A65726F206164647265 PUSH1 0x44 DUP3 ADD MSTORE PUSH2 0x7373 PUSH1 0xF0 SHL PUSH1 0x64 DUP3 ADD MSTORE PUSH1 0x84 ADD PUSH2 0x887 JUMP JUMPDEST PUSH1 0x1 PUSH1 0x1 PUSH1 0xA0 SHL SUB DUP4 DUP2 AND PUSH1 0x0 DUP2 DUP2 MSTORE PUSH1 0x67 PUSH1 0x20 SWAP1 DUP2 MSTORE PUSH1 0x40 DUP1 DUP4 KECCAK256 SWAP5 DUP8 AND DUP1 DUP5 MSTORE SWAP5 DUP3 MSTORE SWAP2 DUP3 SWAP1 KECCAK256 DUP6 SWAP1 SSTORE SWAP1 MLOAD DUP5 DUP2 MSTORE PUSH32 0x8C5BE1E5EBEC7D5BD14F71427D1E84F3DD0314C0F7B2291E5B200AC8C7C3B925 SWAP2 ADD PUSH1 0x40 MLOAD DUP1 SWAP2 SUB SWAP1 LOG3 POP POP POP JUMP JUMPDEST PUSH1 0x1 PUSH1 0x1 PUSH1 0xA0 SHL SUB DUP4 AND PUSH2 0x171E JUMPI PUSH1 0x40 MLOAD PUSH3 0x461BCD PUSH1 0xE5 SHL DUP2 MSTORE PUSH1 0x20 PUSH1 0x4 DUP3 ADD MSTORE PUSH1 0x25 PUSH1 0x24 DUP3 ADD MSTORE PUSH32 0x45524332303A207472616E736665722066726F6D20746865207A65726F206164 PUSH1 0x44 DUP3 ADD MSTORE PUSH5 0x6472657373 PUSH1 0xD8 SHL PUSH1 0x64 DUP3 ADD MSTORE PUSH1 0x84 ADD PUSH2 0x887 JUMP JUMPDEST PUSH1 0x1 PUSH1 0x1 PUSH1 0xA0 SHL SUB DUP3 AND PUSH2 0x1780 JUMPI PUSH1 0x40 MLOAD PUSH3 0x461BCD PUSH1 0xE5 SHL DUP2 MSTORE PUSH1 0x20 PUSH1 0x4 DUP3 ADD MSTORE PUSH1 0x23 PUSH1 0x24 DUP3 ADD MSTORE PUSH32 0x45524332303A207472616E7366657220746F20746865207A65726F2061646472 PUSH1 0x44 DUP3 ADD MSTORE PUSH3 0x657373 PUSH1 0xE8 SHL PUSH1 0x64 DUP3 ADD MSTORE PUSH1 0x84 ADD PUSH2 0x887 JUMP JUMPDEST PUSH1 0x0 DUP2 GT PUSH2 0x17E2 JUMPI PUSH1 0x40 MLOAD PUSH3 0x461BCD PUSH1 0xE5 SHL DUP2 MSTORE PUSH1 0x20 PUSH1 0x4 DUP3 ADD MSTORE PUSH1 0x29 PUSH1 0x24 DUP3 ADD MSTORE PUSH32 0x5472616E7366657220616D6F756E74206D757374206265206772656174657220 PUSH1 0x44 DUP3 ADD MSTORE PUSH9 0x7468616E207A65726F PUSH1 0xB8 SHL PUSH1 0x64 DUP3 ADD MSTORE PUSH1 0x84 ADD PUSH2 0x887 JUMP JUMPDEST PUSH1 0x33 SLOAD PUSH1 0x1 PUSH1 0x1 PUSH1 0xA0 SHL SUB DUP5 DUP2 AND SWAP2 AND EQ DUP1 ISZERO SWAP1 PUSH2 0x180E JUMPI POP PUSH1 0x33 SLOAD PUSH1 0x1 PUSH1 0x1 PUSH1 0xA0 SHL SUB DUP4 DUP2 AND SWAP2 AND EQ ISZERO JUMPDEST ISZERO PUSH2 0x1876 JUMPI PUSH1 0x73 SLOAD DUP2 GT ISZERO PUSH2 0x1876 JUMPI PUSH1 0x40 MLOAD PUSH3 0x461BCD PUSH1 0xE5 SHL DUP2 MSTORE PUSH1 0x20 PUSH1 0x4 DUP3 ADD MSTORE PUSH1 0x28 PUSH1 0x24 DUP3 ADD MSTORE PUSH32 0x5472616E7366657220616D6F756E74206578636565647320746865206D617854 PUSH1 0x44 DUP3 ADD MSTORE PUSH8 0x3C20B6B7BAB73A17 PUSH1 0xC1 SHL PUSH1 0x64 DUP3 ADD MSTORE PUSH1 0x84 ADD PUSH2 0x887 JUMP JUMPDEST PUSH1 0x0 PUSH2 0x1881 ADDRESS PUSH2 0x10B5 JUMP JUMPDEST SWAP1 POP PUSH1 0x73 SLOAD DUP2 LT PUSH2 0x1891 JUMPI POP PUSH1 0x73 SLOAD JUMPDEST PUSH1 0x1 PUSH1 0x1 PUSH1 0xA0 SHL SUB DUP5 AND PUSH1 0x0 SWAP1 DUP2 MSTORE PUSH1 0x68 PUSH1 0x20 MSTORE PUSH1 0x40 SWAP1 KECCAK256 SLOAD PUSH1 0x1 SWAP1 PUSH1 0xFF AND DUP1 PUSH2 0x18D3 JUMPI POP PUSH1 0x1 PUSH1 0x1 PUSH1 0xA0 SHL SUB DUP5 AND PUSH1 0x0 SWAP1 DUP2 MSTORE PUSH1 0x68 PUSH1 0x20 MSTORE PUSH1 0x40 SWAP1 KECCAK256 SLOAD PUSH1 0xFF AND JUMPDEST ISZERO PUSH2 0x18DC JUMPI POP PUSH1 0x0 JUMPDEST PUSH2 0x18E8 DUP6 DUP6 DUP6 DUP5 PUSH2 0x1AA7 JUMP JUMPDEST POP POP POP POP POP JUMP JUMPDEST PUSH1 0x0 DUP2 DUP5 DUP5 GT ISZERO PUSH2 0x1913 JUMPI PUSH1 0x40 MLOAD PUSH3 0x461BCD PUSH1 0xE5 SHL DUP2 MSTORE PUSH1 0x4 ADD PUSH2 0x887 SWAP2 SWAP1 PUSH2 0x222A JUMP JUMPDEST POP POP POP SWAP1 SUB SWAP1 JUMP JUMPDEST PUSH1 0x0 DUP1 PUSH1 0x0 PUSH2 0x1928 PUSH2 0x1C18 JUMP JUMPDEST SWAP1 SWAP3 POP SWAP1 POP PUSH2 0x1937 DUP3 DUP3 PUSH2 0x193E JUMP JUMPDEST SWAP3 POP POP POP SWAP1 JUMP JUMPDEST PUSH1 0x0 PUSH2 0x8A6 DUP3 DUP5 PUSH2 0x2990 JUMP JUMPDEST PUSH1 0x0 PUSH2 0x8A6 DUP3 DUP5 PUSH2 0x29A4 JUMP JUMPDEST PUSH1 0x0 DUP1 PUSH1 0x0 DUP1 PUSH1 0x0 DUP1 PUSH1 0x0 PUSH2 0x196A DUP9 PUSH2 0x1D9A JUMP JUMPDEST SWAP2 POP SWAP2 POP PUSH1 0x0 DUP1 PUSH1 0x0 PUSH2 0x1985 DUP12 DUP6 PUSH2 0x1980 PUSH2 0x191B JUMP JUMPDEST PUSH2 0x1DC1 JUMP JUMPDEST SWAP2 SWAP14 SWAP1 SWAP13 POP SWAP1 SWAP11 POP SWAP5 SWAP9 POP SWAP3 SWAP7 POP SWAP3 SWAP5 POP POP POP POP POP JUMP JUMPDEST PUSH1 0x0 PUSH2 0x8A6 DUP3 DUP5 PUSH2 0x27C8 JUMP JUMPDEST PUSH1 0x33 DUP1 SLOAD PUSH1 0x1 PUSH1 0x1 PUSH1 0xA0 SHL SUB DUP4 DUP2 AND PUSH1 0x1 PUSH1 0x1 PUSH1 0xA0 SHL SUB NOT DUP4 AND DUP2 OR SWAP1 SWAP4 SSTORE PUSH1 0x40 MLOAD SWAP2 AND SWAP2 SWAP1 DUP3 SWAP1 PUSH32 0x8BE0079C531659141344CD1FD0A4F28419497F9722A3DAAFE3B4186F6B6457E0 SWAP1 PUSH1 0x0 SWAP1 LOG3 POP POP JUMP JUMPDEST PUSH1 0x0 JUMPDEST DUP4 MLOAD DUP2 PUSH1 0x1 PUSH1 0x1 PUSH1 0x40 SHL SUB AND LT ISZERO PUSH2 0x1A72 JUMPI DUP3 DUP3 PUSH1 0x0 DUP7 DUP5 PUSH1 0x1 PUSH1 0x1 PUSH1 0x40 SHL SUB AND DUP2 MLOAD DUP2 LT PUSH2 0x1A2E JUMPI PUSH2 0x1A2E PUSH2 0x279C JUMP JUMPDEST PUSH1 0x20 SWAP1 DUP2 MUL SWAP2 SWAP1 SWAP2 ADD DUP2 ADD MLOAD PUSH1 0x1 PUSH1 0x1 PUSH1 0xA0 SHL SUB AND DUP3 MSTORE DUP2 ADD SWAP2 SWAP1 SWAP2 MSTORE PUSH1 0x40 ADD PUSH1 0x0 KECCAK256 DUP1 SLOAD PUSH1 0xFF NOT AND SWAP2 ISZERO ISZERO SWAP2 SWAP1 SWAP2 OR SWAP1 SSTORE DUP1 PUSH2 0x1A6A DUP2 PUSH2 0x2830 JUMP JUMPDEST SWAP2 POP POP PUSH2 0x19FD JUMP JUMPDEST POP POP POP POP JUMP JUMPDEST PUSH1 0x0 SLOAD PUSH2 0x100 SWAP1 DIV PUSH1 0xFF AND PUSH2 0x1A9F JUMPI PUSH1 0x40 MLOAD PUSH3 0x461BCD PUSH1 0xE5 SHL DUP2 MSTORE PUSH1 0x4 ADD PUSH2 0x887 SWAP1 PUSH2 0x29BC JUMP JUMPDEST PUSH2 0x1126 PUSH2 0x1DFD JUMP JUMPDEST DUP1 PUSH2 0x1AB4 JUMPI PUSH2 0x1AB4 PUSH2 0x1E2D JUMP JUMPDEST PUSH1 0x1 PUSH1 0x1 PUSH1 0xA0 SHL SUB DUP5 AND PUSH1 0x0 SWAP1 DUP2 MSTORE PUSH1 0x69 PUSH1 0x20 MSTORE PUSH1 0x40 SWAP1 KECCAK256 SLOAD PUSH1 0xFF AND DUP1 ISZERO PUSH2 0x1AF5 JUMPI POP PUSH1 0x1 PUSH1 0x1 PUSH1 0xA0 SHL SUB DUP4 AND PUSH1 0x0 SWAP1 DUP2 MSTORE PUSH1 0x69 PUSH1 0x20 MSTORE PUSH1 0x40 SWAP1 KECCAK256 SLOAD PUSH1 0xFF AND ISZERO JUMPDEST ISZERO PUSH2 0x1B0A JUMPI PUSH2 0x1B05 DUP5 DUP5 DUP5 PUSH2 0x1E43 JUMP JUMPDEST PUSH2 0x1C08 JUMP JUMPDEST PUSH1 0x1 PUSH1 0x1 PUSH1 0xA0 SHL SUB DUP5 AND PUSH1 0x0 SWAP1 DUP2 MSTORE PUSH1 0x69 PUSH1 0x20 MSTORE PUSH1 0x40 SWAP1 KECCAK256 SLOAD PUSH1 0xFF AND ISZERO DUP1 ISZERO PUSH2 0x1B4B JUMPI POP PUSH1 0x1 PUSH1 0x1 PUSH1 0xA0 SHL SUB DUP4 AND PUSH1 0x0 SWAP1 DUP2 MSTORE PUSH1 0x69 PUSH1 0x20 MSTORE PUSH1 0x40 SWAP1 KECCAK256 SLOAD PUSH1 0xFF AND JUMPDEST ISZERO PUSH2 0x1B5B JUMPI PUSH2 0x1B05 DUP5 DUP5 DUP5 PUSH2 0x1F5C JUMP JUMPDEST PUSH1 0x1 PUSH1 0x1 PUSH1 0xA0 SHL SUB DUP5 AND PUSH1 0x0 SWAP1 DUP2 MSTORE PUSH1 0x69 PUSH1 0x20 MSTORE PUSH1 0x40 SWAP1 KECCAK256 SLOAD PUSH1 0xFF AND ISZERO DUP1 ISZERO PUSH2 0x1B9D JUMPI POP PUSH1 0x1 PUSH1 0x1 PUSH1 0xA0 SHL SUB DUP4 AND PUSH1 0x0 SWAP1 DUP2 MSTORE PUSH1 0x69 PUSH1 0x20 MSTORE PUSH1 0x40 SWAP1 KECCAK256 SLOAD PUSH1 0xFF AND ISZERO JUMPDEST ISZERO PUSH2 0x1BAD JUMPI PUSH2 0x1B05 DUP5 DUP5 DUP5 PUSH2 0x2002 JUMP JUMPDEST PUSH1 0x1 PUSH1 0x1 PUSH1 0xA0 SHL SUB DUP5 AND PUSH1 0x0 SWAP1 DUP2 MSTORE PUSH1 0x69 PUSH1 0x20 MSTORE PUSH1 0x40 SWAP1 KECCAK256 SLOAD PUSH1 0xFF AND DUP1 ISZERO PUSH2 0x1BED JUMPI POP PUSH1 0x1 PUSH1 0x1 PUSH1 0xA0 SHL SUB DUP4 AND PUSH1 0x0 SWAP1 DUP2 MSTORE PUSH1 0x69 PUSH1 0x20 MSTORE PUSH1 0x40 SWAP1 KECCAK256 SLOAD PUSH1 0xFF AND JUMPDEST ISZERO PUSH2 0x1BFD JUMPI PUSH2 0x1B05 DUP5 DUP5 DUP5 PUSH2 0x2043 JUMP JUMPDEST PUSH2 0x1C08 DUP5 DUP5 DUP5 PUSH2 0x2002 JUMP JUMPDEST DUP1 PUSH2 0x1A72 JUMPI PUSH2 0x1A72 PUSH1 0x72 SLOAD PUSH1 0x71 SSTORE JUMP JUMPDEST PUSH1 0x6C SLOAD PUSH1 0x6B SLOAD PUSH1 0x0 SWAP2 DUP3 SWAP2 DUP3 JUMPDEST PUSH1 0x6A SLOAD DUP2 LT ISZERO PUSH2 0x1D6A JUMPI DUP3 PUSH1 0x65 PUSH1 0x0 PUSH1 0x6A DUP5 DUP2 SLOAD DUP2 LT PUSH2 0x1C47 JUMPI PUSH2 0x1C47 PUSH2 0x279C JUMP JUMPDEST PUSH1 0x0 SWAP2 DUP3 MSTORE PUSH1 0x20 DUP1 DUP4 KECCAK256 SWAP1 SWAP2 ADD SLOAD PUSH1 0x1 PUSH1 0x1 PUSH1 0xA0 SHL SUB AND DUP4 MSTORE DUP3 ADD SWAP3 SWAP1 SWAP3 MSTORE PUSH1 0x40 ADD SWAP1 KECCAK256 SLOAD GT DUP1 PUSH2 0x1CB2 JUMPI POP DUP2 PUSH1 0x66 PUSH1 0x0 PUSH1 0x6A DUP5 DUP2 SLOAD DUP2 LT PUSH2 0x1C8B JUMPI PUSH2 0x1C8B PUSH2 0x279C JUMP JUMPDEST PUSH1 0x0 SWAP2 DUP3 MSTORE PUSH1 0x20 DUP1 DUP4 KECCAK256 SWAP1 SWAP2 ADD SLOAD PUSH1 0x1 PUSH1 0x1 PUSH1 0xA0 SHL SUB AND DUP4 MSTORE DUP3 ADD SWAP3 SWAP1 SWAP3 MSTORE PUSH1 0x40 ADD SWAP1 KECCAK256 SLOAD GT JUMPDEST ISZERO PUSH2 0x1CC8 JUMPI PUSH1 0x6C SLOAD PUSH1 0x6B SLOAD SWAP5 POP SWAP5 POP POP POP POP SWAP1 SWAP2 JUMP JUMPDEST PUSH2 0x1D0E PUSH1 0x65 PUSH1 0x0 PUSH1 0x6A DUP5 DUP2 SLOAD DUP2 LT PUSH2 0x1CE2 JUMPI PUSH2 0x1CE2 PUSH2 0x279C JUMP JUMPDEST PUSH1 0x0 SWAP2 DUP3 MSTORE PUSH1 0x20 DUP1 DUP4 KECCAK256 SWAP1 SWAP2 ADD SLOAD PUSH1 0x1 PUSH1 0x1 PUSH1 0xA0 SHL SUB AND DUP4 MSTORE DUP3 ADD SWAP3 SWAP1 SWAP3 MSTORE PUSH1 0x40 ADD SWAP1 KECCAK256 SLOAD DUP5 SWAP1 PUSH2 0x199C JUMP JUMPDEST SWAP3 POP PUSH2 0x1D56 PUSH1 0x66 PUSH1 0x0 PUSH1 0x6A DUP5 DUP2 SLOAD DUP2 LT PUSH2 0x1D2A JUMPI PUSH2 0x1D2A PUSH2 0x279C JUMP JUMPDEST PUSH1 0x0 SWAP2 DUP3 MSTORE PUSH1 0x20 DUP1 DUP4 KECCAK256 SWAP1 SWAP2 ADD SLOAD PUSH1 0x1 PUSH1 0x1 PUSH1 0xA0 SHL SUB AND DUP4 MSTORE DUP3 ADD SWAP3 SWAP1 SWAP3 MSTORE PUSH1 0x40 ADD SWAP1 KECCAK256 SLOAD DUP4 SWAP1 PUSH2 0x199C JUMP JUMPDEST SWAP2 POP DUP1 PUSH2 0x1D62 DUP2 PUSH2 0x27F5 JUMP JUMPDEST SWAP2 POP POP PUSH2 0x1C25 JUMP JUMPDEST POP PUSH1 0x6B SLOAD PUSH1 0x6C SLOAD PUSH2 0x1D7A SWAP2 PUSH2 0x193E JUMP JUMPDEST DUP3 LT ISZERO PUSH2 0x1D91 JUMPI PUSH1 0x6C SLOAD PUSH1 0x6B SLOAD SWAP4 POP SWAP4 POP POP POP SWAP1 SWAP2 JUMP JUMPDEST SWAP1 SWAP4 SWAP1 SWAP3 POP SWAP1 POP JUMP JUMPDEST PUSH1 0x0 DUP1 PUSH1 0x0 PUSH2 0x1DA8 DUP5 PUSH2 0x20B3 JUMP JUMPDEST SWAP1 POP PUSH1 0x0 PUSH2 0x1DB6 DUP6 DUP4 PUSH2 0x199C JUMP JUMPDEST SWAP6 SWAP2 SWAP5 POP SWAP1 SWAP3 POP POP POP JUMP JUMPDEST PUSH1 0x0 DUP1 DUP1 DUP1 PUSH2 0x1DD0 DUP8 DUP7 PUSH2 0x20D5 JUMP JUMPDEST SWAP1 POP PUSH1 0x0 PUSH2 0x1DDE DUP8 DUP8 PUSH2 0x20D5 JUMP JUMPDEST SWAP1 POP PUSH1 0x0 PUSH2 0x1DEC DUP4 DUP4 PUSH2 0x199C JUMP JUMPDEST SWAP3 SWAP10 SWAP3 SWAP9 POP SWAP1 SWAP7 POP SWAP1 SWAP5 POP POP POP POP POP JUMP JUMPDEST PUSH1 0x0 SLOAD PUSH2 0x100 SWAP1 DIV PUSH1 0xFF AND PUSH2 0x1E24 JUMPI PUSH1 0x40 MLOAD PUSH3 0x461BCD PUSH1 0xE5 SHL DUP2 MSTORE PUSH1 0x4 ADD PUSH2 0x887 SWAP1 PUSH2 0x29BC JUMP JUMPDEST PUSH2 0x1126 CALLER PUSH2 0x19A8 JUMP JUMPDEST PUSH1 0x71 SLOAD PUSH2 0x1E36 JUMPI JUMP JUMPDEST PUSH1 0x71 DUP1 SLOAD PUSH1 0x72 SSTORE PUSH1 0x0 SWAP1 SSTORE JUMP JUMPDEST PUSH1 0x0 DUP1 PUSH1 0x0 DUP1 PUSH1 0x0 PUSH2 0x1E54 DUP7 PUSH2 0x1956 JUMP JUMPDEST PUSH1 0x1 PUSH1 0x1 PUSH1 0xA0 SHL SUB DUP14 AND PUSH1 0x0 SWAP1 DUP2 MSTORE PUSH1 0x66 PUSH1 0x20 MSTORE PUSH1 0x40 SWAP1 KECCAK256 SLOAD SWAP5 SWAP10 POP SWAP3 SWAP8 POP SWAP1 SWAP6 POP SWAP4 POP SWAP2 POP PUSH2 0x1E84 SWAP1 DUP8 PUSH2 0x199C JUMP JUMPDEST PUSH1 0x1 PUSH1 0x1 PUSH1 0xA0 SHL SUB DUP10 AND PUSH1 0x0 SWAP1 DUP2 MSTORE PUSH1 0x66 PUSH1 0x20 SWAP1 DUP2 MSTORE PUSH1 0x40 DUP1 DUP4 KECCAK256 SWAP4 SWAP1 SWAP4 SSTORE PUSH1 0x65 SWAP1 MSTORE KECCAK256 SLOAD PUSH2 0x1EB3 SWAP1 DUP7 PUSH2 0x199C JUMP JUMPDEST PUSH1 0x1 PUSH1 0x1 PUSH1 0xA0 SHL SUB DUP1 DUP11 AND PUSH1 0x0 SWAP1 DUP2 MSTORE PUSH1 0x65 PUSH1 0x20 MSTORE PUSH1 0x40 DUP1 DUP3 KECCAK256 SWAP4 SWAP1 SWAP4 SSTORE SWAP1 DUP10 AND DUP2 MSTORE KECCAK256 SLOAD PUSH2 0x1EE2 SWAP1 DUP6 PUSH2 0x194A JUMP JUMPDEST PUSH1 0x1 PUSH1 0x1 PUSH1 0xA0 SHL SUB DUP9 AND PUSH1 0x0 SWAP1 DUP2 MSTORE PUSH1 0x65 PUSH1 0x20 MSTORE PUSH1 0x40 SWAP1 KECCAK256 SSTORE PUSH2 0x1F05 DUP4 DUP3 PUSH2 0x20E1 JUMP JUMPDEST DUP7 PUSH1 0x1 PUSH1 0x1 PUSH1 0xA0 SHL SUB AND DUP9 PUSH1 0x1 PUSH1 0x1 PUSH1 0xA0 SHL SUB AND PUSH32 0xDDF252AD1BE2C89B69C2B068FC378DAA952BA7F163C4A11628F55A4DF523B3EF DUP5 PUSH1 0x40 MLOAD PUSH2 0x1F4A SWAP2 DUP2 MSTORE PUSH1 0x20 ADD SWAP1 JUMP JUMPDEST PUSH1 0x40 MLOAD DUP1 SWAP2 SUB SWAP1 LOG3 POP POP POP POP POP POP POP POP JUMP JUMPDEST PUSH1 0x0 DUP1 PUSH1 0x0 DUP1 PUSH1 0x0 PUSH2 0x1F6D DUP7 PUSH2 0x1956 JUMP JUMPDEST PUSH1 0x1 PUSH1 0x1 PUSH1 0xA0 SHL SUB DUP14 AND PUSH1 0x0 SWAP1 DUP2 MSTORE PUSH1 0x65 PUSH1 0x20 MSTORE PUSH1 0x40 SWAP1 KECCAK256 SLOAD SWAP5 SWAP10 POP SWAP3 SWAP8 POP SWAP1 SWAP6 POP SWAP4 POP SWAP2 POP PUSH2 0x1F9D SWAP1 DUP7 PUSH2 0x199C JUMP JUMPDEST PUSH1 0x1 PUSH1 0x1 PUSH1 0xA0 SHL SUB DUP1 DUP11 AND PUSH1 0x0 SWAP1 DUP2 MSTORE PUSH1 0x65 PUSH1 0x20 SWAP1 DUP2 MSTORE PUSH1 0x40 DUP1 DUP4 KECCAK256 SWAP5 SWAP1 SWAP5 SSTORE SWAP2 DUP11 AND DUP2 MSTORE PUSH1 0x66 SWAP1 SWAP2 MSTORE KECCAK256 SLOAD PUSH2 0x1FD3 SWAP1 DUP4 PUSH2 0x194A JUMP JUMPDEST PUSH1 0x1 PUSH1 0x1 PUSH1 0xA0 SHL SUB DUP9 AND PUSH1 0x0 SWAP1 DUP2 MSTORE PUSH1 0x66 PUSH1 0x20 SWAP1 DUP2 MSTORE PUSH1 0x40 DUP1 DUP4 KECCAK256 SWAP4 SWAP1 SWAP4 SSTORE PUSH1 0x65 SWAP1 MSTORE KECCAK256 SLOAD PUSH2 0x1EE2 SWAP1 DUP6 PUSH2 0x194A JUMP JUMPDEST PUSH1 0x0 DUP1 PUSH1 0x0 DUP1 PUSH1 0x0 PUSH2 0x2013 DUP7 PUSH2 0x1956 JUMP JUMPDEST PUSH1 0x1 PUSH1 0x1 PUSH1 0xA0 SHL SUB DUP14 AND PUSH1 0x0 SWAP1 DUP2 MSTORE PUSH1 0x65 PUSH1 0x20 MSTORE PUSH1 0x40 SWAP1 KECCAK256 SLOAD SWAP5 SWAP10 POP SWAP3 SWAP8 POP SWAP1 SWAP6 POP SWAP4 POP SWAP2 POP PUSH2 0x1EB3 SWAP1 DUP7 PUSH2 0x199C JUMP JUMPDEST PUSH1 0x0 DUP1 PUSH1 0x0 DUP1 PUSH1 0x0 PUSH2 0x2054 DUP7 PUSH2 0x1956 JUMP JUMPDEST PUSH1 0x1 PUSH1 0x1 PUSH1 0xA0 SHL SUB DUP14 AND PUSH1 0x0 SWAP1 DUP2 MSTORE PUSH1 0x66 PUSH1 0x20 MSTORE PUSH1 0x40 SWAP1 KECCAK256 SLOAD SWAP5 SWAP10 POP SWAP3 SWAP8 POP SWAP1 SWAP6 POP SWAP4 POP SWAP2 POP PUSH2 0x2084 SWAP1 DUP8 PUSH2 0x199C JUMP JUMPDEST PUSH1 0x1 PUSH1 0x1 PUSH1 0xA0 SHL SUB DUP10 AND PUSH1 0x0 SWAP1 DUP2 MSTORE PUSH1 0x66 PUSH1 0x20 SWAP1 DUP2 MSTORE PUSH1 0x40 DUP1 DUP4 KECCAK256 SWAP4 SWAP1 SWAP4 SSTORE PUSH1 0x65 SWAP1 MSTORE KECCAK256 SLOAD PUSH2 0x1F9D SWAP1 DUP7 PUSH2 0x199C JUMP JUMPDEST PUSH1 0x0 PUSH2 0x7B5 PUSH1 0x64 PUSH2 0x20CF PUSH1 0x71 SLOAD DUP6 PUSH2 0x20D5 SWAP1 SWAP2 SWAP1 PUSH4 0xFFFFFFFF AND JUMP JUMPDEST SWAP1 PUSH2 0x193E JUMP JUMPDEST PUSH1 0x0 PUSH2 0x8A6 DUP3 DUP5 PUSH2 0x2947 JUMP JUMPDEST PUSH1 0x6C SLOAD PUSH2 0x20EE SWAP1 DUP4 PUSH2 0x199C JUMP JUMPDEST PUSH1 0x6C SSTORE PUSH1 0x6D SLOAD PUSH2 0x20FE SWAP1 DUP3 PUSH2 0x194A JUMP JUMPDEST PUSH1 0x6D SSTORE POP POP JUMP JUMPDEST POP DUP1 SLOAD PUSH1 0x0 DUP3 SSTORE SWAP1 PUSH1 0x0 MSTORE PUSH1 0x20 PUSH1 0x0 KECCAK256 SWAP1 DUP2 ADD SWAP1 PUSH2 0xCB9 SWAP2 SWAP1 PUSH2 0x21FC JUMP JUMPDEST DUP3 DUP1 SLOAD DUP3 DUP3 SSTORE SWAP1 PUSH1 0x0 MSTORE PUSH1 0x20 PUSH1 0x0 KECCAK256 SWAP1 DUP2 ADD SWAP3 DUP3 ISZERO PUSH2 0x2178 JUMPI SWAP2 PUSH1 0x20 MUL DUP3 ADD JUMPDEST DUP3 DUP2 GT ISZERO PUSH2 0x2178 JUMPI DUP3 MLOAD DUP3 SLOAD PUSH1 0x1 PUSH1 0x1 PUSH1 0xA0 SHL SUB NOT AND PUSH1 0x1 PUSH1 0x1 PUSH1 0xA0 SHL SUB SWAP1 SWAP2 AND OR DUP3 SSTORE PUSH1 0x20 SWAP1 SWAP3 ADD SWAP2 PUSH1 0x1 SWAP1 SWAP2 ADD SWAP1 PUSH2 0x2143 JUMP JUMPDEST POP PUSH2 0x2184 SWAP3 SWAP2 POP PUSH2 0x21FC JUMP JUMPDEST POP SWAP1 JUMP JUMPDEST DUP3 DUP1 SLOAD PUSH2 0x2194 SWAP1 PUSH2 0x2761 JUMP JUMPDEST SWAP1 PUSH1 0x0 MSTORE PUSH1 0x20 PUSH1 0x0 KECCAK256 SWAP1 PUSH1 0x1F ADD PUSH1 0x20 SWAP1 DIV DUP2 ADD SWAP3 DUP3 PUSH2 0x21B6 JUMPI PUSH1 0x0 DUP6 SSTORE PUSH2 0x2178 JUMP JUMPDEST DUP3 PUSH1 0x1F LT PUSH2 0x21CF JUMPI DUP1 MLOAD PUSH1 0xFF NOT AND DUP4 DUP1 ADD OR DUP6 SSTORE PUSH2 0x2178 JUMP JUMPDEST DUP3 DUP1 ADD PUSH1 0x1 ADD DUP6 SSTORE DUP3 ISZERO PUSH2 0x2178 JUMPI SWAP2 DUP3 ADD JUMPDEST DUP3 DUP2 GT ISZERO PUSH2 0x2178 JUMPI DUP3 MLOAD DUP3 SSTORE SWAP2 PUSH1 0x20 ADD SWAP2 SWAP1 PUSH1 0x1 ADD SWAP1 PUSH2 0x21E1 JUMP JUMPDEST JUMPDEST DUP1 DUP3 GT ISZERO PUSH2 0x2184 JUMPI PUSH1 0x0 DUP2 SSTORE PUSH1 0x1 ADD PUSH2 0x21FD JUMP JUMPDEST PUSH1 0x0 PUSH1 0x20 DUP3 DUP5 SUB SLT ISZERO PUSH2 0x2223 JUMPI PUSH1 0x0 DUP1 REVERT JUMPDEST POP CALLDATALOAD SWAP2 SWAP1 POP JUMP JUMPDEST PUSH1 0x0 PUSH1 0x20 DUP1 DUP4 MSTORE DUP4 MLOAD DUP1 DUP3 DUP6 ADD MSTORE PUSH1 0x0 JUMPDEST DUP2 DUP2 LT ISZERO PUSH2 0x2257 JUMPI DUP6 DUP2 ADD DUP4 ADD MLOAD DUP6 DUP3 ADD PUSH1 0x40 ADD MSTORE DUP3 ADD PUSH2 0x223B JUMP JUMPDEST DUP2 DUP2 GT ISZERO PUSH2 0x2269 JUMPI PUSH1 0x0 PUSH1 0x40 DUP4 DUP8 ADD ADD MSTORE JUMPDEST POP PUSH1 0x1F ADD PUSH1 0x1F NOT AND SWAP3 SWAP1 SWAP3 ADD PUSH1 0x40 ADD SWAP4 SWAP3 POP POP POP JUMP JUMPDEST DUP1 CALLDATALOAD PUSH1 0x1 PUSH1 0x1 PUSH1 0xA0 SHL SUB DUP2 AND DUP2 EQ PUSH2 0x2296 JUMPI PUSH1 0x0 DUP1 REVERT JUMPDEST SWAP2 SWAP1 POP JUMP JUMPDEST PUSH1 0x0 PUSH1 0x20 DUP3 DUP5 SUB SLT ISZERO PUSH2 0x22AD JUMPI PUSH1 0x0 DUP1 REVERT JUMPDEST PUSH2 0x8A6 DUP3 PUSH2 0x227F JUMP JUMPDEST PUSH1 0x0 DUP1 PUSH1 0x40 DUP4 DUP6 SUB SLT ISZERO PUSH2 0x22C9 JUMPI PUSH1 0x0 DUP1 REVERT JUMPDEST PUSH2 0x22D2 DUP4 PUSH2 0x227F JUMP JUMPDEST SWAP5 PUSH1 0x20 SWAP4 SWAP1 SWAP4 ADD CALLDATALOAD SWAP4 POP POP POP JUMP JUMPDEST PUSH1 0x0 DUP1 PUSH1 0x0 PUSH1 0x60 DUP5 DUP7 SUB SLT ISZERO PUSH2 0x22F5 JUMPI PUSH1 0x0 DUP1 REVERT JUMPDEST PUSH2 0x22FE DUP5 PUSH2 0x227F JUMP JUMPDEST SWAP3 POP PUSH2 0x230C PUSH1 0x20 DUP6 ADD PUSH2 0x227F JUMP JUMPDEST SWAP2 POP PUSH1 0x40 DUP5 ADD CALLDATALOAD SWAP1 POP SWAP3 POP SWAP3 POP SWAP3 JUMP JUMPDEST PUSH1 0x0 DUP1 PUSH1 0x40 DUP4 DUP6 SUB SLT ISZERO PUSH2 0x232F JUMPI PUSH1 0x0 DUP1 REVERT JUMPDEST DUP3 CALLDATALOAD SWAP2 POP PUSH1 0x20 DUP4 ADD CALLDATALOAD DUP1 ISZERO ISZERO DUP2 EQ PUSH2 0x2346 JUMPI PUSH1 0x0 DUP1 REVERT JUMPDEST DUP1 SWAP2 POP POP SWAP3 POP SWAP3 SWAP1 POP JUMP JUMPDEST PUSH1 0x20 DUP1 DUP3 MSTORE DUP3 MLOAD DUP3 DUP3 ADD DUP2 SWAP1 MSTORE PUSH1 0x0 SWAP2 SWAP1 DUP5 DUP3 ADD SWAP1 PUSH1 0x40 DUP6 ADD SWAP1 DUP5 JUMPDEST DUP2 DUP2 LT ISZERO PUSH2 0x2392 JUMPI DUP4 MLOAD PUSH1 0x1 PUSH1 0x1 PUSH1 0xA0 SHL SUB AND DUP4 MSTORE SWAP3 DUP5 ADD SWAP3 SWAP2 DUP5 ADD SWAP2 PUSH1 0x1 ADD PUSH2 0x236D JUMP JUMPDEST POP SWAP1 SWAP7 SWAP6 POP POP POP POP POP POP JUMP JUMPDEST PUSH4 0x4E487B71 PUSH1 0xE0 SHL PUSH1 0x0 MSTORE PUSH1 0x41 PUSH1 0x4 MSTORE PUSH1 0x24 PUSH1 0x0 REVERT JUMPDEST PUSH1 0x40 MLOAD PUSH1 0x1F DUP3 ADD PUSH1 0x1F NOT AND DUP2 ADD PUSH1 0x1 PUSH1 0x1 PUSH1 0x40 SHL SUB DUP2 GT DUP3 DUP3 LT OR ISZERO PUSH2 0x23DC JUMPI PUSH2 0x23DC PUSH2 0x239E JUMP JUMPDEST PUSH1 0x40 MSTORE SWAP2 SWAP1 POP JUMP JUMPDEST PUSH1 0x0 PUSH1 0x1 PUSH1 0x1 PUSH1 0x40 SHL SUB DUP3 GT ISZERO PUSH2 0x23FD JUMPI PUSH2 0x23FD PUSH2 0x239E JUMP JUMPDEST POP PUSH1 0x5 SHL PUSH1 0x20 ADD SWAP1 JUMP JUMPDEST PUSH1 0x0 DUP3 PUSH1 0x1F DUP4 ADD SLT PUSH2 0x2418 JUMPI PUSH1 0x0 DUP1 REVERT JUMPDEST DUP2 CALLDATALOAD PUSH1 0x20 PUSH2 0x242D PUSH2 0x2428 DUP4 PUSH2 0x23E4 JUMP JUMPDEST PUSH2 0x23B4 JUMP JUMPDEST DUP3 DUP2 MSTORE PUSH1 0x5 SWAP3 SWAP1 SWAP3 SHL DUP5 ADD DUP2 ADD SWAP2 DUP2 DUP2 ADD SWAP1 DUP7 DUP5 GT ISZERO PUSH2 0x244C JUMPI PUSH1 0x0 DUP1 REVERT JUMPDEST DUP3 DUP7 ADD JUMPDEST DUP5 DUP2 LT ISZERO PUSH2 0x2467 JUMPI DUP1 CALLDATALOAD DUP4 MSTORE SWAP2 DUP4 ADD SWAP2 DUP4 ADD PUSH2 0x2450 JUMP JUMPDEST POP SWAP7 SWAP6 POP POP POP POP POP POP JUMP JUMPDEST PUSH1 0x0 DUP1 PUSH1 0x0 DUP1 PUSH1 0x0 DUP1 PUSH1 0x0 PUSH1 0xE0 DUP9 DUP11 SUB SLT ISZERO PUSH2 0x248D JUMPI PUSH1 0x0 DUP1 REVERT JUMPDEST PUSH2 0x2496 DUP9 PUSH2 0x227F JUMP JUMPDEST SWAP7 POP PUSH1 0x20 DUP1 DUP10 ADD CALLDATALOAD SWAP7 POP PUSH1 0x40 DUP10 ADD CALLDATALOAD SWAP6 POP PUSH1 0x60 DUP10 ADD CALLDATALOAD SWAP5 POP PUSH1 0x80 DUP10 ADD CALLDATALOAD PUSH1 0x1 PUSH1 0x1 PUSH1 0x40 SHL SUB DUP1 DUP3 GT ISZERO PUSH2 0x24C8 JUMPI PUSH1 0x0 DUP1 REVERT JUMPDEST DUP2 DUP12 ADD SWAP2 POP DUP12 PUSH1 0x1F DUP4 ADD SLT PUSH2 0x24DC JUMPI PUSH1 0x0 DUP1 REVERT JUMPDEST DUP2 CALLDATALOAD PUSH2 0x24EA PUSH2 0x2428 DUP3 PUSH2 0x23E4 JUMP JUMPDEST DUP2 DUP2 MSTORE PUSH1 0x5 SWAP2 SWAP1 SWAP2 SHL DUP4 ADD DUP5 ADD SWAP1 DUP5 DUP2 ADD SWAP1 DUP15 DUP4 GT ISZERO PUSH2 0x2509 JUMPI PUSH1 0x0 DUP1 REVERT JUMPDEST SWAP4 DUP6 ADD SWAP4 JUMPDEST DUP3 DUP6 LT ISZERO PUSH2 0x2537 JUMPI DUP5 CALLDATALOAD PUSH1 0xFF DUP2 AND DUP2 EQ PUSH2 0x2528 JUMPI PUSH1 0x0 DUP1 DUP2 REVERT JUMPDEST DUP3 MSTORE SWAP4 DUP6 ADD SWAP4 SWAP1 DUP6 ADD SWAP1 PUSH2 0x250E JUMP JUMPDEST SWAP8 POP POP POP PUSH1 0xA0 DUP12 ADD CALLDATALOAD SWAP3 POP DUP1 DUP4 GT ISZERO PUSH2 0x254F JUMPI PUSH1 0x0 DUP1 REVERT JUMPDEST PUSH2 0x255B DUP13 DUP5 DUP14 ADD PUSH2 0x2407 JUMP JUMPDEST SWAP5 POP PUSH1 0xC0 DUP12 ADD CALLDATALOAD SWAP3 POP DUP1 DUP4 GT ISZERO PUSH2 0x2571 JUMPI PUSH1 0x0 DUP1 REVERT JUMPDEST POP POP PUSH2 0x257F DUP11 DUP3 DUP12 ADD PUSH2 0x2407 JUMP JUMPDEST SWAP2 POP POP SWAP3 SWAP6 SWAP9 SWAP2 SWAP5 SWAP8 POP SWAP3 SWAP6 POP JUMP JUMPDEST PUSH1 0x0 PUSH1 0x20 DUP1 DUP4 DUP6 SUB SLT ISZERO PUSH2 0x25A1 JUMPI PUSH1 0x0 DUP1 REVERT JUMPDEST DUP3 CALLDATALOAD PUSH1 0x1 PUSH1 0x1 PUSH1 0x40 SHL SUB DUP2 GT ISZERO PUSH2 0x25B7 JUMPI PUSH1 0x0 DUP1 REVERT JUMPDEST DUP4 ADD PUSH1 0x1F DUP2 ADD DUP6 SGT PUSH2 0x25C8 JUMPI PUSH1 0x0 DUP1 REVERT JUMPDEST DUP1 CALLDATALOAD PUSH2 0x25D6 PUSH2 0x2428 DUP3 PUSH2 0x23E4 JUMP JUMPDEST DUP2 DUP2 MSTORE PUSH1 0x5 SWAP2 SWAP1 SWAP2 SHL DUP3 ADD DUP4 ADD SWAP1 DUP4 DUP2 ADD SWAP1 DUP8 DUP4 GT ISZERO PUSH2 0x25F5 JUMPI PUSH1 0x0 DUP1 REVERT JUMPDEST SWAP3 DUP5 ADD SWAP3 JUMPDEST DUP3 DUP5 LT ISZERO PUSH2 0x261A JUMPI PUSH2 0x260B DUP5 PUSH2 0x227F JUMP JUMPDEST DUP3 MSTORE SWAP3 DUP5 ADD SWAP3 SWAP1 DUP5 ADD SWAP1 PUSH2 0x25FA JUMP JUMPDEST SWAP8 SWAP7 POP POP POP POP POP POP POP JUMP JUMPDEST PUSH1 0x0 DUP3 PUSH1 0x1F DUP4 ADD SLT PUSH2 0x2636 JUMPI PUSH1 0x0 DUP1 REVERT JUMPDEST DUP2 CALLDATALOAD PUSH1 0x1 PUSH1 0x1 PUSH1 0x40 SHL SUB DUP2 GT ISZERO PUSH2 0x264F JUMPI PUSH2 0x264F PUSH2 0x239E JUMP JUMPDEST PUSH2 0x2662 PUSH1 0x1F DUP3 ADD PUSH1 0x1F NOT AND PUSH1 0x20 ADD PUSH2 0x23B4 JUMP JUMPDEST DUP2 DUP2 MSTORE DUP5 PUSH1 0x20 DUP4 DUP7 ADD ADD GT ISZERO PUSH2 0x2677 JUMPI PUSH1 0x0 DUP1 REVERT JUMPDEST DUP2 PUSH1 0x20 DUP6 ADD PUSH1 0x20 DUP4 ADD CALLDATACOPY PUSH1 0x0 SWAP2 DUP2 ADD PUSH1 0x20 ADD SWAP2 SWAP1 SWAP2 MSTORE SWAP4 SWAP3 POP POP POP JUMP JUMPDEST PUSH1 0x0 DUP1 PUSH1 0x0 DUP1 PUSH1 0x0 DUP1 PUSH1 0x0 PUSH1 0xE0 DUP9 DUP11 SUB SLT ISZERO PUSH2 0x26AF JUMPI PUSH1 0x0 DUP1 REVERT JUMPDEST DUP8 CALLDATALOAD PUSH1 0x1 PUSH1 0x1 PUSH1 0x40 SHL SUB DUP1 DUP3 GT ISZERO PUSH2 0x26C6 JUMPI PUSH1 0x0 DUP1 REVERT JUMPDEST PUSH2 0x26D2 DUP12 DUP4 DUP13 ADD PUSH2 0x2625 JUMP JUMPDEST SWAP9 POP PUSH1 0x20 DUP11 ADD CALLDATALOAD SWAP2 POP DUP1 DUP3 GT ISZERO PUSH2 0x26E8 JUMPI PUSH1 0x0 DUP1 REVERT JUMPDEST POP PUSH2 0x26F5 DUP11 DUP3 DUP12 ADD PUSH2 0x2625 JUMP JUMPDEST SWAP7 POP POP PUSH1 0x40 DUP9 ADD CALLDATALOAD SWAP5 POP PUSH1 0x60 DUP9 ADD CALLDATALOAD SWAP4 POP PUSH1 0x80 DUP9 ADD CALLDATALOAD SWAP3 POP PUSH1 0xA0 DUP9 ADD CALLDATALOAD SWAP2 POP PUSH2 0x2720 PUSH1 0xC0 DUP10 ADD PUSH2 0x227F JUMP JUMPDEST SWAP1 POP SWAP3 SWAP6 SWAP9 SWAP2 SWAP5 SWAP8 POP SWAP3 SWAP6 POP JUMP JUMPDEST PUSH1 0x0 DUP1 PUSH1 0x40 DUP4 DUP6 SUB SLT ISZERO PUSH2 0x2741 JUMPI PUSH1 0x0 DUP1 REVERT JUMPDEST PUSH2 0x274A DUP4 PUSH2 0x227F JUMP JUMPDEST SWAP2 POP PUSH2 0x2758 PUSH1 0x20 DUP5 ADD PUSH2 0x227F JUMP JUMPDEST SWAP1 POP SWAP3 POP SWAP3 SWAP1 POP JUMP JUMPDEST PUSH1 0x1 DUP2 DUP2 SHR SWAP1 DUP3 AND DUP1 PUSH2 0x2775 JUMPI PUSH1 0x7F DUP3 AND SWAP2 POP JUMPDEST PUSH1 0x20 DUP3 LT DUP2 EQ ISZERO PUSH2 0x2796 JUMPI PUSH4 0x4E487B71 PUSH1 0xE0 SHL PUSH1 0x0 MSTORE PUSH1 0x22 PUSH1 0x4 MSTORE PUSH1 0x24 PUSH1 0x0 REVERT JUMPDEST POP SWAP2 SWAP1 POP JUMP JUMPDEST PUSH4 0x4E487B71 PUSH1 0xE0 SHL PUSH1 0x0 MSTORE PUSH1 0x32 PUSH1 0x4 MSTORE PUSH1 0x24 PUSH1 0x0 REVERT JUMPDEST PUSH4 0x4E487B71 PUSH1 0xE0 SHL PUSH1 0x0 MSTORE PUSH1 0x11 PUSH1 0x4 MSTORE PUSH1 0x24 PUSH1 0x0 REVERT JUMPDEST PUSH1 0x0 DUP3 DUP3 LT ISZERO PUSH2 0x27DA JUMPI PUSH2 0x27DA PUSH2 0x27B2 JUMP JUMPDEST POP SUB SWAP1 JUMP JUMPDEST PUSH4 0x4E487B71 PUSH1 0xE0 SHL PUSH1 0x0 MSTORE PUSH1 0x31 PUSH1 0x4 MSTORE PUSH1 0x24 PUSH1 0x0 REVERT JUMPDEST PUSH1 0x0 PUSH1 0x0 NOT DUP3 EQ ISZERO PUSH2 0x2809 JUMPI PUSH2 0x2809 PUSH2 0x27B2 JUMP JUMPDEST POP PUSH1 0x1 ADD SWAP1 JUMP JUMPDEST PUSH1 0x0 PUSH1 0xFF DUP3 AND PUSH1 0xFF DUP2 EQ ISZERO PUSH2 0x2827 JUMPI PUSH2 0x2827 PUSH2 0x27B2 JUMP JUMPDEST PUSH1 0x1 ADD SWAP3 SWAP2 POP POP JUMP JUMPDEST PUSH1 0x0 PUSH1 0x1 PUSH1 0x1 PUSH1 0x40 SHL SUB DUP1 DUP4 AND DUP2 DUP2 EQ ISZERO PUSH2 0x284D JUMPI PUSH2 0x284D PUSH2 0x27B2 JUMP JUMPDEST PUSH1 0x1 ADD SWAP4 SWAP3 POP POP POP JUMP JUMPDEST PUSH1 0x1 DUP2 DUP2 JUMPDEST DUP1 DUP6 GT ISZERO PUSH2 0x2892 JUMPI DUP2 PUSH1 0x0 NOT DIV DUP3 GT ISZERO PUSH2 0x2878 JUMPI PUSH2 0x2878 PUSH2 0x27B2 JUMP JUMPDEST DUP1 DUP6 AND ISZERO PUSH2 0x2885 JUMPI SWAP2 DUP2 MUL SWAP2 JUMPDEST SWAP4 DUP5 SHR SWAP4 SWAP1 DUP1 MUL SWAP1 PUSH2 0x285C JUMP JUMPDEST POP SWAP3 POP SWAP3 SWAP1 POP JUMP JUMPDEST PUSH1 0x0 DUP3 PUSH2 0x28A9 JUMPI POP PUSH1 0x1 PUSH2 0x7B5 JUMP JUMPDEST DUP2 PUSH2 0x28B6 JUMPI POP PUSH1 0x0 PUSH2 0x7B5 JUMP JUMPDEST DUP2 PUSH1 0x1 DUP2 EQ PUSH2 0x28CC JUMPI PUSH1 0x2 DUP2 EQ PUSH2 0x28D6 JUMPI PUSH2 0x28F2 JUMP JUMPDEST PUSH1 0x1 SWAP2 POP POP PUSH2 0x7B5 JUMP JUMPDEST PUSH1 0xFF DUP5 GT ISZERO PUSH2 0x28E7 JUMPI PUSH2 0x28E7 PUSH2 0x27B2 JUMP JUMPDEST POP POP PUSH1 0x1 DUP3 SHL PUSH2 0x7B5 JUMP JUMPDEST POP PUSH1 0x20 DUP4 LT PUSH2 0x133 DUP4 LT AND PUSH1 0x4E DUP5 LT PUSH1 0xB DUP5 LT AND OR ISZERO PUSH2 0x2915 JUMPI POP DUP2 DUP2 EXP PUSH2 0x7B5 JUMP JUMPDEST PUSH2 0x291F DUP4 DUP4 PUSH2 0x2857 JUMP JUMPDEST DUP1 PUSH1 0x0 NOT DIV DUP3 GT ISZERO PUSH2 0x2933 JUMPI PUSH2 0x2933 PUSH2 0x27B2 JUMP JUMPDEST MUL SWAP4 SWAP3 POP POP POP JUMP JUMPDEST PUSH1 0x0 PUSH2 0x8A6 DUP4 DUP4 PUSH2 0x289A JUMP JUMPDEST PUSH1 0x0 DUP2 PUSH1 0x0 NOT DIV DUP4 GT DUP3 ISZERO ISZERO AND ISZERO PUSH2 0x2961 JUMPI PUSH2 0x2961 PUSH2 0x27B2 JUMP JUMPDEST POP MUL SWAP1 JUMP JUMPDEST PUSH4 0x4E487B71 PUSH1 0xE0 SHL PUSH1 0x0 MSTORE PUSH1 0x12 PUSH1 0x4 MSTORE PUSH1 0x24 PUSH1 0x0 REVERT JUMPDEST PUSH1 0x0 DUP3 PUSH2 0x298B JUMPI PUSH2 0x298B PUSH2 0x2966 JUMP JUMPDEST POP MOD SWAP1 JUMP JUMPDEST PUSH1 0x0 DUP3 PUSH2 0x299F JUMPI PUSH2 0x299F PUSH2 0x2966 JUMP JUMPDEST POP DIV SWAP1 JUMP JUMPDEST PUSH1 0x0 DUP3 NOT DUP3 GT ISZERO PUSH2 0x29B7 JUMPI PUSH2 0x29B7 PUSH2 0x27B2 JUMP JUMPDEST POP ADD SWAP1 JUMP JUMPDEST PUSH1 0x20 DUP1 DUP3 MSTORE PUSH1 0x2B SWAP1 DUP3 ADD MSTORE PUSH32 0x496E697469616C697A61626C653A20636F6E7472616374206973206E6F742069 PUSH1 0x40 DUP3 ADD MSTORE PUSH11 0x6E697469616C697A696E67 PUSH1 0xA8 SHL PUSH1 0x60 DUP3 ADD MSTORE PUSH1 0x80 ADD SWAP1 JUMP INVALID GASLIMIT MSTORE NUMBER ORIGIN ADDRESS GASPRICE KECCAK256 PUSH21 0x72616E7366657220616D6F756E7420657863656564 PUSH20 0x20616C6C6F77616E636545524332303A20646563 PUSH19 0x656173656420616C6C6F77616E63652062656C PUSH16 0x77207A65726FA2646970667358221220 LT SWAP1 0xD1 SWAP14 PUSH7 0xB6CC32F73BE65A 0x26 0xED PUSH4 0x9F66C6B3 0xB3 POP PUSH26 0x9A09786E789A3B1447AE64736F6C634300080B00330000000000 "
				},
				"gasEstimates": {
					"creation": {
						"codeDepositCost": "2178000",
						"executionCost": "2324",
						"totalCost": "2180324"
					},
					"external": {
						"_maxTxAmount()": "2362",
						"_permitTransfer(address,uint256,uint256,uint256,uint8[],bytes32[],bytes32[])": "infinite",
						"_taxFee()": "2385",
						"allowance(address,address)": "infinite",
						"approve(address,uint256)": "24710",
						"balanceOf(address)": "infinite",
						"claimTokens()": "infinite",
						"decimals()": "2426",
						"decreaseAllowance(address,uint256)": "infinite",
						"deliver(uint256)": "infinite",
						"excludeFromFee(address)": "26819",
						"excludeFromReward(address)": "infinite",
						"includeInFee(address)": "26856",
						"includeInReward(address)": "infinite",
						"increaseAllowance(address,uint256)": "27045",
						"initialize(string,string,uint256,uint256,uint256,uint256,address)": "infinite",
						"isExcludedFromFee(address)": "2617",
						"isExcludedFromReward(address)": "2638",
						"mapSigner(address)": "2640",
						"name()": "infinite",
						"owner()": "2412",
						"reflectionFromToken(uint256,bool)": "infinite",
						"renounceOwnership()": "infinite",
						"setMaxTxPercent(uint256)": "infinite",
						"setSigners(address[])": "infinite",
						"setTaxFeePercent(uint256)": "24535",
						"signers()": "infinite",
						"symbol()": "infinite",
						"tokenFromReflection(uint256)": "infinite",
						"totalFees()": "2327",
						"totalSupply()": "2360",
						"transfer(address,uint256)": "infinite",
						"transferFrom(address,address,uint256)": "infinite",
						"transferOwnership(address)": "28446",
						"uniqueIdExists(uint256)": "2582",
						"version()": "infinite"
					},
					"internal": {
						"_approve(address,address,uint256)": "infinite",
						"_getCurrentSupply()": "infinite",
						"_getRValues(uint256,uint256,uint256)": "infinite",
						"_getRate()": "infinite",
						"_getTValues(uint256)": "infinite",
						"_getValues(uint256)": "infinite",
						"_reflectFee(uint256,uint256)": "infinite",
						"_tokenTransfer(address,address,uint256,bool)": "infinite",
						"_transfer(address,address,uint256)": "infinite",
						"_transferBothExcluded(address,address,uint256)": "infinite",
						"_transferFromExcluded(address,address,uint256)": "infinite",
						"_transferStandard(address,address,uint256)": "infinite",
						"_transferToExcluded(address,address,uint256)": "infinite",
						"_updateMap(address[] memory,bool,mapping(address => bool))": "infinite",
						"calculateTaxFee(uint256)": "infinite",
						"removeAllFee()": "31341",
						"restoreAllFee()": "infinite"
					}
				},
				"methodIdentifiers": {
					"_maxTxAmount()": "7d1db4a5",
					"_permitTransfer(address,uint256,uint256,uint256,uint8[],bytes32[],bytes32[])": "4990560f",
					"_taxFee()": "3b124fe7",
					"allowance(address,address)": "dd62ed3e",
					"approve(address,uint256)": "095ea7b3",
					"balanceOf(address)": "70a08231",
					"claimTokens()": "48c54b9d",
					"decimals()": "313ce567",
					"decreaseAllowance(address,uint256)": "a457c2d7",
					"deliver(uint256)": "3bd5d173",
					"excludeFromFee(address)": "437823ec",
					"excludeFromReward(address)": "52390c02",
					"includeInFee(address)": "ea2f0b37",
					"includeInReward(address)": "3685d419",
					"increaseAllowance(address,uint256)": "39509351",
					"initialize(string,string,uint256,uint256,uint256,uint256,address)": "a6e57d99",
					"isExcludedFromFee(address)": "5342acb4",
					"isExcludedFromReward(address)": "88f82020",
					"mapSigner(address)": "07c351dd",
					"name()": "06fdde03",
					"owner()": "8da5cb5b",
					"reflectionFromToken(uint256,bool)": "4549b039",
					"renounceOwnership()": "715018a6",
					"setMaxTxPercent(uint256)": "d543dbeb",
					"setSigners(address[])": "a3772662",
					"setTaxFeePercent(uint256)": "061c82d0",
					"signers()": "46f0975a",
					"symbol()": "95d89b41",
					"tokenFromReflection(uint256)": "2d838119",
					"totalFees()": "13114a9d",
					"totalSupply()": "18160ddd",
					"transfer(address,uint256)": "a9059cbb",
					"transferFrom(address,address,uint256)": "23b872dd",
					"transferOwnership(address)": "f2fde38b",
					"uniqueIdExists(uint256)": "f9342285",
					"version()": "54fd4d50"
				}
			},
			"storageLayout": {
				"storage": [
					{
						"astId": 138,
						"contract": "contracts/Take3Token.sol:Take3Token",
						"label": "_initialized",
						"offset": 0,
						"slot": "0",
						"type": "t_uint8"
					},
					{
						"astId": 141,
						"contract": "contracts/Take3Token.sol:Take3Token",
						"label": "_initializing",
						"offset": 1,
						"slot": "0",
						"type": "t_bool"
					},
					{
						"astId": 644,
						"contract": "contracts/Take3Token.sol:Take3Token",
						"label": "__gap",
						"offset": 0,
						"slot": "1",
						"type": "t_array(t_uint256)50_storage"
					},
					{
						"astId": 10,
						"contract": "contracts/Take3Token.sol:Take3Token",
						"label": "_owner",
						"offset": 0,
						"slot": "51",
						"type": "t_address"
					},
					{
						"astId": 130,
						"contract": "contracts/Take3Token.sol:Take3Token",
						"label": "__gap",
						"offset": 0,
						"slot": "52",
						"type": "t_array(t_uint256)49_storage"
					},
					{
						"astId": 976,
						"contract": "contracts/Take3Token.sol:Take3Token",
						"label": "_rOwned",
						"offset": 0,
						"slot": "101",
						"type": "t_mapping(t_address,t_uint256)"
					},
					{
						"astId": 980,
						"contract": "contracts/Take3Token.sol:Take3Token",
						"label": "_tOwned",
						"offset": 0,
						"slot": "102",
						"type": "t_mapping(t_address,t_uint256)"
					},
					{
						"astId": 986,
						"contract": "contracts/Take3Token.sol:Take3Token",
						"label": "_allowances",
						"offset": 0,
						"slot": "103",
						"type": "t_mapping(t_address,t_mapping(t_address,t_uint256))"
					},
					{
						"astId": 990,
						"contract": "contracts/Take3Token.sol:Take3Token",
						"label": "_isExcludedFromFee",
						"offset": 0,
						"slot": "104",
						"type": "t_mapping(t_address,t_bool)"
					},
					{
						"astId": 994,
						"contract": "contracts/Take3Token.sol:Take3Token",
						"label": "_isExcluded",
						"offset": 0,
						"slot": "105",
						"type": "t_mapping(t_address,t_bool)"
					},
					{
						"astId": 997,
						"contract": "contracts/Take3Token.sol:Take3Token",
						"label": "_excluded",
						"offset": 0,
						"slot": "106",
						"type": "t_array(t_address)dyn_storage"
					},
					{
						"astId": 1006,
						"contract": "contracts/Take3Token.sol:Take3Token",
						"label": "_tTotal",
						"offset": 0,
						"slot": "107",
						"type": "t_uint256"
					},
					{
						"astId": 1008,
						"contract": "contracts/Take3Token.sol:Take3Token",
						"label": "_rTotal",
						"offset": 0,
						"slot": "108",
						"type": "t_uint256"
					},
					{
						"astId": 1010,
						"contract": "contracts/Take3Token.sol:Take3Token",
						"label": "_tFeeTotal",
						"offset": 0,
						"slot": "109",
						"type": "t_uint256"
					},
					{
						"astId": 1012,
						"contract": "contracts/Take3Token.sol:Take3Token",
						"label": "_name",
						"offset": 0,
						"slot": "110",
						"type": "t_string_storage"
					},
					{
						"astId": 1014,
						"contract": "contracts/Take3Token.sol:Take3Token",
						"label": "_symbol",
						"offset": 0,
						"slot": "111",
						"type": "t_string_storage"
					},
					{
						"astId": 1016,
						"contract": "contracts/Take3Token.sol:Take3Token",
						"label": "_decimals",
						"offset": 0,
						"slot": "112",
						"type": "t_uint256"
					},
					{
						"astId": 1018,
						"contract": "contracts/Take3Token.sol:Take3Token",
						"label": "_taxFee",
						"offset": 0,
						"slot": "113",
						"type": "t_uint256"
					},
					{
						"astId": 1020,
						"contract": "contracts/Take3Token.sol:Take3Token",
						"label": "_previousTaxFee",
						"offset": 0,
						"slot": "114",
						"type": "t_uint256"
					},
					{
						"astId": 1022,
						"contract": "contracts/Take3Token.sol:Take3Token",
						"label": "_maxTxAmount",
						"offset": 0,
						"slot": "115",
						"type": "t_uint256"
					},
					{
						"astId": 1025,
						"contract": "contracts/Take3Token.sol:Take3Token",
						"label": "_signers",
						"offset": 0,
						"slot": "116",
						"type": "t_array(t_address)dyn_storage"
					},
					{
						"astId": 1029,
						"contract": "contracts/Take3Token.sol:Take3Token",
						"label": "_mapSigners",
						"offset": 0,
						"slot": "117",
						"type": "t_mapping(t_address,t_bool)"
					},
					{
						"astId": 1033,
						"contract": "contracts/Take3Token.sol:Take3Token",
						"label": "uniqueIdExists",
						"offset": 0,
						"slot": "118",
						"type": "t_mapping(t_uint256,t_bool)"
					}
				],
				"types": {
					"t_address": {
						"encoding": "inplace",
						"label": "address",
						"numberOfBytes": "20"
					},
					"t_array(t_address)dyn_storage": {
						"base": "t_address",
						"encoding": "dynamic_array",
						"label": "address[]",
						"numberOfBytes": "32"
					},
					"t_array(t_uint256)49_storage": {
						"base": "t_uint256",
						"encoding": "inplace",
						"label": "uint256[49]",
						"numberOfBytes": "1568"
					},
					"t_array(t_uint256)50_storage": {
						"base": "t_uint256",
						"encoding": "inplace",
						"label": "uint256[50]",
						"numberOfBytes": "1600"
					},
					"t_bool": {
						"encoding": "inplace",
						"label": "bool",
						"numberOfBytes": "1"
					},
					"t_mapping(t_address,t_bool)": {
						"encoding": "mapping",
						"key": "t_address",
						"label": "mapping(address => bool)",
						"numberOfBytes": "32",
						"value": "t_bool"
					},
					"t_mapping(t_address,t_mapping(t_address,t_uint256))": {
						"encoding": "mapping",
						"key": "t_address",
						"label": "mapping(address => mapping(address => uint256))",
						"numberOfBytes": "32",
						"value": "t_mapping(t_address,t_uint256)"
					},
					"t_mapping(t_address,t_uint256)": {
						"encoding": "mapping",
						"key": "t_address",
						"label": "mapping(address => uint256)",
						"numberOfBytes": "32",
						"value": "t_uint256"
					},
					"t_mapping(t_uint256,t_bool)": {
						"encoding": "mapping",
						"key": "t_uint256",
						"label": "mapping(uint256 => bool)",
						"numberOfBytes": "32",
						"value": "t_bool"
					},
					"t_string_storage": {
						"encoding": "bytes",
						"label": "string",
						"numberOfBytes": "32"
					},
					"t_uint256": {
						"encoding": "inplace",
						"label": "uint256",
						"numberOfBytes": "32"
					},
					"t_uint8": {
						"encoding": "inplace",
						"label": "uint8",
						"numberOfBytes": "1"
					}
				}
			},
			"userdoc": {
				"kind": "user",
				"methods": {},
				"version": 1
			}
		}
	}
}