{
	"contracts/Detake3Token.sol": {
		"Detake3Token": {
			"abi": [
				{
					"anonymous": false,
					"inputs": [
						{
							"indexed": true,
							"internalType": "address",
							"name": "owner",
							"type": "address"
						},
						{
							"indexed": true,
							"internalType": "address",
							"name": "spender",
							"type": "address"
						},
						{
							"indexed": false,
							"internalType": "uint256",
							"name": "value",
							"type": "uint256"
						}
					],
					"name": "Approval",
					"type": "event"
				},
				{
					"anonymous": false,
					"inputs": [
						{
							"indexed": false,
							"internalType": "uint8",
							"name": "version",
							"type": "uint8"
						}
					],
					"name": "Initialized",
					"type": "event"
				},
				{
					"anonymous": false,
					"inputs": [
						{
							"indexed": true,
							"internalType": "address",
							"name": "previousOwner",
							"type": "address"
						},
						{
							"indexed": true,
							"internalType": "address",
							"name": "newOwner",
							"type": "address"
						}
					],
					"name": "OwnershipTransferred",
					"type": "event"
				},
				{
					"anonymous": false,
					"inputs": [
						{
							"indexed": true,
							"internalType": "address",
							"name": "from",
							"type": "address"
						},
						{
							"indexed": true,
							"internalType": "address",
							"name": "to",
							"type": "address"
						},
						{
							"indexed": false,
							"internalType": "uint256",
							"name": "value",
							"type": "uint256"
						}
					],
					"name": "Transfer",
					"type": "event"
				},
				{
					"inputs": [
						{
							"internalType": "address",
							"name": "recipient",
							"type": "address"
						},
						{
							"internalType": "uint256",
							"name": "uniqueId",
							"type": "uint256"
						},
						{
							"internalType": "uint256",
							"name": "amount",
							"type": "uint256"
						},
						{
							"internalType": "uint256",
							"name": "deadline",
							"type": "uint256"
						}
					],
					"name": "_permitTransfer",
					"outputs": [],
					"stateMutability": "nonpayable",
					"type": "function"
				},
				{
					"inputs": [],
					"name": "_taxFee",
					"outputs": [
						{
							"internalType": "uint256",
							"name": "",
							"type": "uint256"
						}
					],
					"stateMutability": "view",
					"type": "function"
				},
				{
					"inputs": [
						{
							"internalType": "address",
							"name": "owner",
							"type": "address"
						},
						{
							"internalType": "address",
							"name": "spender",
							"type": "address"
						}
					],
					"name": "allowance",
					"outputs": [
						{
							"internalType": "uint256",
							"name": "",
							"type": "uint256"
						}
					],
					"stateMutability": "view",
					"type": "function"
				},
				{
					"inputs": [
						{
							"internalType": "address",
							"name": "spender",
							"type": "address"
						},
						{
							"internalType": "uint256",
							"name": "amount",
							"type": "uint256"
						}
					],
					"name": "approve",
					"outputs": [
						{
							"internalType": "bool",
							"name": "",
							"type": "bool"
						}
					],
					"stateMutability": "nonpayable",
					"type": "function"
				},
				{
					"inputs": [
						{
							"internalType": "address",
							"name": "account",
							"type": "address"
						}
					],
					"name": "balanceOf",
					"outputs": [
						{
							"internalType": "uint256",
							"name": "",
							"type": "uint256"
						}
					],
					"stateMutability": "view",
					"type": "function"
				},
				{
					"inputs": [],
					"name": "decimals",
					"outputs": [
						{
							"internalType": "uint8",
							"name": "",
							"type": "uint8"
						}
					],
					"stateMutability": "view",
					"type": "function"
				},
				{
					"inputs": [
						{
							"internalType": "address",
							"name": "spender",
							"type": "address"
						},
						{
							"internalType": "uint256",
							"name": "subtractedValue",
							"type": "uint256"
						}
					],
					"name": "decreaseAllowance",
					"outputs": [
						{
							"internalType": "bool",
							"name": "",
							"type": "bool"
						}
					],
					"stateMutability": "nonpayable",
					"type": "function"
				},
				{
					"inputs": [],
					"name": "getTokenOwnerAddress",
					"outputs": [
						{
							"internalType": "address",
							"name": "",
							"type": "address"
						}
					],
					"stateMutability": "view",
					"type": "function"
				},
				{
					"inputs": [
						{
							"internalType": "address",
							"name": "spender",
							"type": "address"
						},
						{
							"internalType": "uint256",
							"name": "addedValue",
							"type": "uint256"
						}
					],
					"name": "increaseAllowance",
					"outputs": [
						{
							"internalType": "bool",
							"name": "",
							"type": "bool"
						}
					],
					"stateMutability": "nonpayable",
					"type": "function"
				},
				{
					"inputs": [
						{
							"internalType": "string",
							"name": "name",
							"type": "string"
						},
						{
							"internalType": "string",
							"name": "symbol",
							"type": "string"
						},
						{
							"internalType": "uint8",
							"name": "decimals",
							"type": "uint8"
						},
						{
							"internalType": "uint256",
							"name": "totalSupply",
							"type": "uint256"
						},
						{
							"internalType": "uint256",
							"name": "taxFee",
							"type": "uint256"
						},
						{
							"internalType": "address",
							"name": "tokenOwnerAddress",
							"type": "address"
						}
					],
					"name": "initialize",
					"outputs": [],
					"stateMutability": "nonpayable",
					"type": "function"
				},
				{
					"inputs": [
						{
							"internalType": "address",
							"name": "signer",
							"type": "address"
						}
					],
					"name": "mapSigner",
					"outputs": [
						{
							"internalType": "bool",
							"name": "",
							"type": "bool"
						}
					],
					"stateMutability": "view",
					"type": "function"
				},
				{
					"inputs": [],
					"name": "name",
					"outputs": [
						{
							"internalType": "string",
							"name": "",
							"type": "string"
						}
					],
					"stateMutability": "view",
					"type": "function"
				},
				{
					"inputs": [],
					"name": "owner",
					"outputs": [
						{
							"internalType": "address",
							"name": "",
							"type": "address"
						}
					],
					"stateMutability": "view",
					"type": "function"
				},
				{
					"inputs": [],
					"name": "renounceOwnership",
					"outputs": [],
					"stateMutability": "nonpayable",
					"type": "function"
				},
				{
					"inputs": [
						{
							"internalType": "address[]",
							"name": "signers_",
							"type": "address[]"
						}
					],
					"name": "setSigners",
					"outputs": [],
					"stateMutability": "nonpayable",
					"type": "function"
				},
				{
					"inputs": [],
					"name": "signers",
					"outputs": [
						{
							"internalType": "address[]",
							"name": "",
							"type": "address[]"
						}
					],
					"stateMutability": "view",
					"type": "function"
				},
				{
					"inputs": [],
					"name": "symbol",
					"outputs": [
						{
							"internalType": "string",
							"name": "",
							"type": "string"
						}
					],
					"stateMutability": "view",
					"type": "function"
				},
				{
					"inputs": [],
					"name": "totalSupply",
					"outputs": [
						{
							"internalType": "uint256",
							"name": "",
							"type": "uint256"
						}
					],
					"stateMutability": "view",
					"type": "function"
				},
				{
					"inputs": [
						{
							"internalType": "address",
							"name": "to",
							"type": "address"
						},
						{
							"internalType": "uint256",
							"name": "amount",
							"type": "uint256"
						}
					],
					"name": "transfer",
					"outputs": [
						{
							"internalType": "bool",
							"name": "",
							"type": "bool"
						}
					],
					"stateMutability": "nonpayable",
					"type": "function"
				},
				{
					"inputs": [
						{
							"internalType": "address",
							"name": "from",
							"type": "address"
						},
						{
							"internalType": "address",
							"name": "to",
							"type": "address"
						},
						{
							"internalType": "uint256",
							"name": "amount",
							"type": "uint256"
						}
					],
					"name": "transferFrom",
					"outputs": [
						{
							"internalType": "bool",
							"name": "",
							"type": "bool"
						}
					],
					"stateMutability": "nonpayable",
					"type": "function"
				},
				{
					"inputs": [
						{
							"internalType": "address",
							"name": "newOwner",
							"type": "address"
						}
					],
					"name": "transferOwnership",
					"outputs": [],
					"stateMutability": "nonpayable",
					"type": "function"
				},
				{
					"inputs": [
						{
							"internalType": "uint256",
							"name": "",
							"type": "uint256"
						}
					],
					"name": "uniqueIdExists",
					"outputs": [
						{
							"internalType": "bool",
							"name": "",
							"type": "bool"
						}
					],
					"stateMutability": "view",
					"type": "function"
				}
			],
			"devdoc": {
				"kind": "dev",
				"methods": {
					"allowance(address,address)": {
						"details": "See {IERC20-allowance}."
					},
					"approve(address,uint256)": {
						"details": "See {IERC20-approve}. NOTE: If `amount` is the maximum `uint256`, the allowance is not updated on `transferFrom`. This is semantically equivalent to an infinite approval. Requirements: - `spender` cannot be the zero address."
					},
					"balanceOf(address)": {
						"details": "See {IERC20-balanceOf}."
					},
					"decimals()": {
						"details": "Returns the number of decimals used to get its user representation. For example, if `decimals` equals `2`, a balance of `505` tokens should be displayed to a user as `5.05` (`505 / 10 ** 2`). Tokens usually opt for a value of 18, imitating the relationship between Ether and Wei. This is the value {ERC20} uses, unless this function is overridden; NOTE: This information is only used for _display_ purposes: it in no way affects any of the arithmetic of the contract, including {IERC20-balanceOf} and {IERC20-transfer}."
					},
					"decreaseAllowance(address,uint256)": {
						"details": "Atomically decreases the allowance granted to `spender` by the caller. This is an alternative to {approve} that can be used as a mitigation for problems described in {IERC20-approve}. Emits an {Approval} event indicating the updated allowance. Requirements: - `spender` cannot be the zero address. - `spender` must have allowance for the caller of at least `subtractedValue`."
					},
					"increaseAllowance(address,uint256)": {
						"details": "Atomically increases the allowance granted to `spender` by the caller. This is an alternative to {approve} that can be used as a mitigation for problems described in {IERC20-approve}. Emits an {Approval} event indicating the updated allowance. Requirements: - `spender` cannot be the zero address."
					},
					"name()": {
						"details": "Returns the name of the token."
					},
					"owner()": {
						"details": "Returns the address of the current owner."
					},
					"renounceOwnership()": {
						"details": "Leaves the contract without owner. It will not be possible to call `onlyOwner` functions anymore. Can only be called by the current owner. NOTE: Renouncing ownership will leave the contract without an owner, thereby removing any functionality that is only available to the owner."
					},
					"symbol()": {
						"details": "Returns the symbol of the token, usually a shorter version of the name."
					},
					"totalSupply()": {
						"details": "See {IERC20-totalSupply}."
					},
					"transfer(address,uint256)": {
						"details": "See {IERC20-transfer}. Requirements: - `to` cannot be the zero address. - the caller must have a balance of at least `amount`."
					},
					"transferFrom(address,address,uint256)": {
						"details": "See {IERC20-transferFrom}. Emits an {Approval} event indicating the updated allowance. This is not required by the EIP. See the note at the beginning of {ERC20}. NOTE: Does not update the allowance if the current allowance is the maximum `uint256`. Requirements: - `from` and `to` cannot be the zero address. - `from` must have a balance of at least `amount`. - the caller must have allowance for ``from``'s tokens of at least `amount`."
					},
					"transferOwnership(address)": {
						"details": "Transfers ownership of the contract to a new account (`newOwner`). Can only be called by the current owner."
					}
				},
				"version": 1
			},
			"evm": {
				"assembly": "    /* \"contracts/Detake3Token.sol\":226:3480  contract Detake3Token is ERC20Upgradeable, OwnableUpgradeable {... */\n  mstore(0x40, 0x80)\n  callvalue\n  dup1\n  iszero\n  tag_1\n  jumpi\n  0x00\n  dup1\n  revert\ntag_1:\n  pop\n  dataSize(sub_0)\n  dup1\n  dataOffset(sub_0)\n  0x00\n  codecopy\n  0x00\n  return\nstop\n\nsub_0: assembly {\n        /* \"contracts/Detake3Token.sol\":226:3480  contract Detake3Token is ERC20Upgradeable, OwnableUpgradeable {... */\n      mstore(0x40, 0x80)\n      callvalue\n      dup1\n      iszero\n      tag_1\n      jumpi\n      0x00\n      dup1\n      revert\n    tag_1:\n      pop\n      jumpi(tag_2, lt(calldatasize, 0x04))\n      shr(0xe0, calldataload(0x00))\n      dup1\n      0x70a08231\n      gt\n      tag_25\n      jumpi\n      dup1\n      0xa457c2d7\n      gt\n      tag_26\n      jumpi\n      dup1\n      0xa457c2d7\n      eq\n      tag_19\n      jumpi\n      dup1\n      0xa9059cbb\n      eq\n      tag_20\n      jumpi\n      dup1\n      0xb722d0a5\n      eq\n      tag_21\n      jumpi\n      dup1\n      0xdd62ed3e\n      eq\n      tag_22\n      jumpi\n      dup1\n      0xf2fde38b\n      eq\n      tag_23\n      jumpi\n      dup1\n      0xf9342285\n      eq\n      tag_24\n      jumpi\n      0x00\n      dup1\n      revert\n    tag_26:\n      dup1\n      0x70a08231\n      eq\n      tag_14\n      jumpi\n      dup1\n      0x715018a6\n      eq\n      tag_15\n      jumpi\n      dup1\n      0x8da5cb5b\n      eq\n      tag_16\n      jumpi\n      dup1\n      0x95d89b41\n      eq\n      tag_17\n      jumpi\n      dup1\n      0xa3772662\n      eq\n      tag_18\n      jumpi\n      0x00\n      dup1\n      revert\n    tag_25:\n      dup1\n      0x2cd77a5a\n      gt\n      tag_27\n      jumpi\n      dup1\n      0x2cd77a5a\n      eq\n      tag_8\n      jumpi\n      dup1\n      0x313ce567\n      eq\n      tag_9\n      jumpi\n      dup1\n      0x39509351\n      eq\n      tag_10\n      jumpi\n      dup1\n      0x3b124fe7\n      eq\n      tag_11\n      jumpi\n      dup1\n      0x46f0975a\n      eq\n      tag_12\n      jumpi\n      dup1\n      0x55b7dc67\n      eq\n      tag_13\n      jumpi\n      0x00\n      dup1\n      revert\n    tag_27:\n      dup1\n      0x06fdde03\n      eq\n      tag_3\n      jumpi\n      dup1\n      0x07c351dd\n      eq\n      tag_4\n      jumpi\n      dup1\n      0x095ea7b3\n      eq\n      tag_5\n      jumpi\n      dup1\n      0x18160ddd\n      eq\n      tag_6\n      jumpi\n      dup1\n      0x23b872dd\n      eq\n      tag_7\n      jumpi\n    tag_2:\n      0x00\n      dup1\n      revert\n        /* \"@openzeppelin/contracts-upgradeable/token/ERC20/ERC20Upgradeable.sol\":2493:2591  function name() public view virtual override returns (string memory) {... */\n    tag_3:\n      tag_28\n      tag_29\n      jump\t// in\n    tag_28:\n      mload(0x40)\n      tag_30\n      swap2\n      swap1\n      tag_31\n      jump\t// in\n    tag_30:\n      mload(0x40)\n      dup1\n      swap2\n      sub\n      swap1\n      return\n        /* \"contracts/Detake3Token.sol\":1859:1968  function mapSigner(address signer) external view returns (bool) {... */\n    tag_4:\n      tag_32\n      tag_33\n      calldatasize\n      0x04\n      tag_34\n      jump\t// in\n    tag_33:\n      sub(shl(0xa0, 0x01), 0x01)\n        /* \"contracts/Detake3Token.sol\":1941:1960  _mapSigners[signer] */\n      and\n        /* \"contracts/Detake3Token.sol\":1917:1921  bool */\n      0x00\n        /* \"contracts/Detake3Token.sol\":1941:1960  _mapSigners[signer] */\n      swap1\n      dup2\n      mstore\n        /* \"contracts/Detake3Token.sol\":1941:1952  _mapSigners */\n      0x9d\n        /* \"contracts/Detake3Token.sol\":1941:1960  _mapSigners[signer] */\n      0x20\n      mstore\n      0x40\n      swap1\n      keccak256\n      sload\n      0xff\n      and\n      swap1\n        /* \"contracts/Detake3Token.sol\":1859:1968  function mapSigner(address signer) external view returns (bool) {... */\n      jump\n    tag_32:\n      mload(0x40)\n        /* \"#utility.yul\":1150:1164   */\n      swap1\n      iszero\n        /* \"#utility.yul\":1143:1165   */\n      iszero\n        /* \"#utility.yul\":1125:1166   */\n      dup2\n      mstore\n        /* \"#utility.yul\":1113:1115   */\n      0x20\n        /* \"#utility.yul\":1098:1116   */\n      add\n        /* \"contracts/Detake3Token.sol\":1859:1968  function mapSigner(address signer) external view returns (bool) {... */\n      tag_30\n        /* \"#utility.yul\":985:1172   */\n      jump\n        /* \"@openzeppelin/contracts-upgradeable/token/ERC20/ERC20Upgradeable.sol\":4770:4967  function approve(address spender, uint256 amount) public virtual override returns (bool) {... */\n    tag_5:\n      tag_32\n      tag_39\n      calldatasize\n      0x04\n      tag_40\n      jump\t// in\n    tag_39:\n      tag_41\n      jump\t// in\n        /* \"@openzeppelin/contracts-upgradeable/token/ERC20/ERC20Upgradeable.sol\":3581:3687  function totalSupply() public view virtual override returns (uint256) {... */\n    tag_6:\n        /* \"@openzeppelin/contracts-upgradeable/token/ERC20/ERC20Upgradeable.sol\":3668:3680  _totalSupply */\n      sload(0x35)\n        /* \"@openzeppelin/contracts-upgradeable/token/ERC20/ERC20Upgradeable.sol\":3581:3687  function totalSupply() public view virtual override returns (uint256) {... */\n    tag_43:\n      mload(0x40)\n        /* \"#utility.yul\":1582:1607   */\n      swap1\n      dup2\n      mstore\n        /* \"#utility.yul\":1570:1572   */\n      0x20\n        /* \"#utility.yul\":1555:1573   */\n      add\n        /* \"@openzeppelin/contracts-upgradeable/token/ERC20/ERC20Upgradeable.sol\":3581:3687  function totalSupply() public view virtual override returns (uint256) {... */\n      tag_30\n        /* \"#utility.yul\":1436:1613   */\n      jump\n        /* \"@openzeppelin/contracts-upgradeable/token/ERC20/ERC20Upgradeable.sol\":5529:5815  function transferFrom(... */\n    tag_7:\n      tag_32\n      tag_48\n      calldatasize\n      0x04\n      tag_49\n      jump\t// in\n    tag_48:\n      tag_50\n      jump\t// in\n        /* \"contracts/Detake3Token.sol\":590:1146  function initialize(... */\n    tag_8:\n      tag_52\n      tag_53\n      calldatasize\n      0x04\n      tag_54\n      jump\t// in\n    tag_53:\n      tag_55\n      jump\t// in\n    tag_52:\n      stop\n        /* \"@openzeppelin/contracts-upgradeable/token/ERC20/ERC20Upgradeable.sol\":3430:3521  function decimals() public view virtual override returns (uint8) {... */\n    tag_9:\n      mload(0x40)\n        /* \"@openzeppelin/contracts-upgradeable/token/ERC20/ERC20Upgradeable.sol\":3512:3514  18 */\n      0x12\n        /* \"#utility.yul\":3959:3995   */\n      dup2\n      mstore\n        /* \"#utility.yul\":3947:3949   */\n      0x20\n        /* \"#utility.yul\":3932:3950   */\n      add\n        /* \"@openzeppelin/contracts-upgradeable/token/ERC20/ERC20Upgradeable.sol\":3430:3521  function decimals() public view virtual override returns (uint8) {... */\n      tag_30\n        /* \"#utility.yul\":3817:4001   */\n      jump\n        /* \"@openzeppelin/contracts-upgradeable/token/ERC20/ERC20Upgradeable.sol\":6210:6444  function increaseAllowance(address spender, uint256 addedValue) public virtual returns (bool) {... */\n    tag_10:\n      tag_32\n      tag_61\n      calldatasize\n      0x04\n      tag_40\n      jump\t// in\n    tag_61:\n      tag_62\n      jump\t// in\n        /* \"contracts/Detake3Token.sol\":381:403  uint256 public _taxFee */\n    tag_11:\n      tag_43\n      sload(0x9a)\n      dup2\n      jump\n        /* \"contracts/Detake3Token.sol\":1510:1604  function signers() external view returns (address[] memory) {... */\n    tag_12:\n      tag_67\n      tag_68\n      jump\t// in\n    tag_67:\n      mload(0x40)\n      tag_30\n      swap2\n      swap1\n      tag_70\n      jump\t// in\n        /* \"contracts/Detake3Token.sol\":2225:3477  function _permitTransfer(... */\n    tag_13:\n      tag_52\n      tag_72\n      calldatasize\n      0x04\n      tag_73\n      jump\t// in\n    tag_72:\n      tag_74\n      jump\t// in\n        /* \"@openzeppelin/contracts-upgradeable/token/ERC20/ERC20Upgradeable.sol\":3745:3870  function balanceOf(address account) public view virtual override returns (uint256) {... */\n    tag_14:\n      tag_43\n      tag_76\n      calldatasize\n      0x04\n      tag_34\n      jump\t// in\n    tag_76:\n      sub(shl(0xa0, 0x01), 0x01)\n        /* \"@openzeppelin/contracts-upgradeable/token/ERC20/ERC20Upgradeable.sol\":3845:3863  _balances[account] */\n      and\n        /* \"@openzeppelin/contracts-upgradeable/token/ERC20/ERC20Upgradeable.sol\":3819:3826  uint256 */\n      0x00\n        /* \"@openzeppelin/contracts-upgradeable/token/ERC20/ERC20Upgradeable.sol\":3845:3863  _balances[account] */\n      swap1\n      dup2\n      mstore\n        /* \"@openzeppelin/contracts-upgradeable/token/ERC20/ERC20Upgradeable.sol\":3845:3854  _balances */\n      0x33\n        /* \"@openzeppelin/contracts-upgradeable/token/ERC20/ERC20Upgradeable.sol\":3845:3863  _balances[account] */\n      0x20\n      mstore\n      0x40\n      swap1\n      keccak256\n      sload\n      swap1\n        /* \"@openzeppelin/contracts-upgradeable/token/ERC20/ERC20Upgradeable.sol\":3745:3870  function balanceOf(address account) public view virtual override returns (uint256) {... */\n      jump\n        /* \"@openzeppelin/contracts-upgradeable/access/OwnableUpgradeable.sol\":2071:2172  function renounceOwnership() public virtual onlyOwner {... */\n    tag_15:\n      tag_52\n      tag_80\n      jump\t// in\n        /* \"@openzeppelin/contracts-upgradeable/access/OwnableUpgradeable.sol\":1441:1526  function owner() public view virtual returns (address) {... */\n    tag_16:\n        /* \"@openzeppelin/contracts-upgradeable/access/OwnableUpgradeable.sol\":1513:1519  _owner */\n      and(sub(shl(0xa0, 0x01), 0x01), sload(0x65))\n        /* \"@openzeppelin/contracts-upgradeable/access/OwnableUpgradeable.sol\":1441:1526  function owner() public view virtual returns (address) {... */\n    tag_81:\n      mload(0x40)\n      sub(shl(0xa0, 0x01), 0x01)\n        /* \"#utility.yul\":5229:5261   */\n      swap1\n      swap2\n      and\n        /* \"#utility.yul\":5211:5262   */\n      dup2\n      mstore\n        /* \"#utility.yul\":5199:5201   */\n      0x20\n        /* \"#utility.yul\":5184:5202   */\n      add\n        /* \"@openzeppelin/contracts-upgradeable/access/OwnableUpgradeable.sol\":1441:1526  function owner() public view virtual returns (address) {... */\n      tag_30\n        /* \"#utility.yul\":5065:5268   */\n      jump\n        /* \"@openzeppelin/contracts-upgradeable/token/ERC20/ERC20Upgradeable.sol\":2704:2806  function symbol() public view virtual override returns (string memory) {... */\n    tag_17:\n      tag_28\n      tag_86\n      jump\t// in\n        /* \"contracts/Detake3Token.sol\":1612:1851  function setSigners(address[] memory signers_) external virtual onlyOwner {... */\n    tag_18:\n      tag_52\n      tag_89\n      calldatasize\n      0x04\n      tag_90\n      jump\t// in\n    tag_89:\n      tag_91\n      jump\t// in\n        /* \"@openzeppelin/contracts-upgradeable/token/ERC20/ERC20Upgradeable.sol\":6931:7358  function decreaseAllowance(address spender, uint256 subtractedValue) public virtual returns (bool) {... */\n    tag_19:\n      tag_32\n      tag_93\n      calldatasize\n      0x04\n      tag_40\n      jump\t// in\n    tag_93:\n      tag_94\n      jump\t// in\n        /* \"@openzeppelin/contracts-upgradeable/token/ERC20/ERC20Upgradeable.sol\":4066:4255  function transfer(address to, uint256 amount) public virtual override returns (bool) {... */\n    tag_20:\n      tag_32\n      tag_97\n      calldatasize\n      0x04\n      tag_40\n      jump\t// in\n    tag_97:\n      tag_98\n      jump\t// in\n        /* \"contracts/Detake3Token.sol\":1154:1260  function getTokenOwnerAddress() public view returns (address) {... */\n    tag_21:\n        /* \"contracts/Detake3Token.sol\":1234:1252  _tokenOwnerAddress */\n      and(sub(shl(0xa0, 0x01), 0x01), sload(0x9b))\n        /* \"contracts/Detake3Token.sol\":1154:1260  function getTokenOwnerAddress() public view returns (address) {... */\n      jump(tag_81)\n        /* \"@openzeppelin/contracts-upgradeable/token/ERC20/ERC20Upgradeable.sol\":4313:4462  function allowance(address owner, address spender) public view virtual override returns (uint256) {... */\n    tag_22:\n      tag_43\n      tag_104\n      calldatasize\n      0x04\n      tag_105\n      jump\t// in\n    tag_104:\n      tag_106\n      jump\t// in\n        /* \"@openzeppelin/contracts-upgradeable/access/OwnableUpgradeable.sol\":2321:2519  function transferOwnership(address newOwner) public virtual onlyOwner {... */\n    tag_23:\n      tag_52\n      tag_109\n      calldatasize\n      0x04\n      tag_34\n      jump\t// in\n    tag_109:\n      tag_110\n      jump\t// in\n        /* \"contracts/Detake3Token.sol\":535:581  mapping(uint256 => bool) public uniqueIdExists */\n    tag_24:\n      tag_32\n      tag_112\n      calldatasize\n      0x04\n      tag_113\n      jump\t// in\n    tag_112:\n      mstore(0x20, 0x9e)\n      0x00\n      swap1\n      dup2\n      mstore\n      0x40\n      swap1\n      keccak256\n      sload\n      0xff\n      and\n      dup2\n      jump\n        /* \"@openzeppelin/contracts-upgradeable/token/ERC20/ERC20Upgradeable.sol\":2493:2591  function name() public view virtual override returns (string memory) {... */\n    tag_29:\n        /* \"@openzeppelin/contracts-upgradeable/token/ERC20/ERC20Upgradeable.sol\":2547:2560  string memory */\n      0x60\n        /* \"@openzeppelin/contracts-upgradeable/token/ERC20/ERC20Upgradeable.sol\":2579:2584  _name */\n      0x36\n        /* \"@openzeppelin/contracts-upgradeable/token/ERC20/ERC20Upgradeable.sol\":2572:2584  return _name */\n      dup1\n      sload\n      tag_117\n      swap1\n      tag_118\n      jump\t// in\n    tag_117:\n      dup1\n      0x1f\n      add\n      0x20\n      dup1\n      swap2\n      div\n      mul\n      0x20\n      add\n      mload(0x40)\n      swap1\n      dup2\n      add\n      0x40\n      mstore\n      dup1\n      swap3\n      swap2\n      swap1\n      dup2\n      dup2\n      mstore\n      0x20\n      add\n      dup3\n      dup1\n      sload\n      tag_119\n      swap1\n      tag_118\n      jump\t// in\n    tag_119:\n      dup1\n      iszero\n      tag_120\n      jumpi\n      dup1\n      0x1f\n      lt\n      tag_121\n      jumpi\n      0x0100\n      dup1\n      dup4\n      sload\n      div\n      mul\n      dup4\n      mstore\n      swap2\n      0x20\n      add\n      swap2\n      jump(tag_120)\n    tag_121:\n      dup3\n      add\n      swap2\n      swap1\n      0x00\n      mstore\n      keccak256(0x00, 0x20)\n      swap1\n    tag_122:\n      dup2\n      sload\n      dup2\n      mstore\n      swap1\n      0x01\n      add\n      swap1\n      0x20\n      add\n      dup1\n      dup4\n      gt\n      tag_122\n      jumpi\n      dup3\n      swap1\n      sub\n      0x1f\n      and\n      dup3\n      add\n      swap2\n    tag_120:\n      pop\n      pop\n      pop\n      pop\n      pop\n      swap1\n      pop\n        /* \"@openzeppelin/contracts-upgradeable/token/ERC20/ERC20Upgradeable.sol\":2493:2591  function name() public view virtual override returns (string memory) {... */\n      swap1\n      jump\t// out\n        /* \"@openzeppelin/contracts-upgradeable/token/ERC20/ERC20Upgradeable.sol\":4770:4967  function approve(address spender, uint256 amount) public virtual override returns (bool) {... */\n    tag_41:\n        /* \"@openzeppelin/contracts-upgradeable/token/ERC20/ERC20Upgradeable.sol\":4853:4857  bool */\n      0x00\n        /* \"@openzeppelin/contracts-upgradeable/utils/ContextUpgradeable.sol\":929:939  msg.sender */\n      caller\n        /* \"@openzeppelin/contracts-upgradeable/token/ERC20/ERC20Upgradeable.sol\":4907:4939  _approve(owner, spender, amount) */\n      tag_127\n        /* \"@openzeppelin/contracts-upgradeable/utils/ContextUpgradeable.sol\":929:939  msg.sender */\n      dup2\n        /* \"@openzeppelin/contracts-upgradeable/token/ERC20/ERC20Upgradeable.sol\":4923:4930  spender */\n      dup6\n        /* \"@openzeppelin/contracts-upgradeable/token/ERC20/ERC20Upgradeable.sol\":4932:4938  amount */\n      dup6\n        /* \"@openzeppelin/contracts-upgradeable/token/ERC20/ERC20Upgradeable.sol\":4907:4915  _approve */\n      tag_128\n        /* \"@openzeppelin/contracts-upgradeable/token/ERC20/ERC20Upgradeable.sol\":4907:4939  _approve(owner, spender, amount) */\n      jump\t// in\n    tag_127:\n      pop\n        /* \"@openzeppelin/contracts-upgradeable/token/ERC20/ERC20Upgradeable.sol\":4956:4960  true */\n      0x01\n      swap4\n        /* \"@openzeppelin/contracts-upgradeable/token/ERC20/ERC20Upgradeable.sol\":4770:4967  function approve(address spender, uint256 amount) public virtual override returns (bool) {... */\n      swap3\n      pop\n      pop\n      pop\n      jump\t// out\n        /* \"@openzeppelin/contracts-upgradeable/token/ERC20/ERC20Upgradeable.sol\":5529:5815  function transferFrom(... */\n    tag_50:\n        /* \"@openzeppelin/contracts-upgradeable/token/ERC20/ERC20Upgradeable.sol\":5656:5660  bool */\n      0x00\n        /* \"@openzeppelin/contracts-upgradeable/utils/ContextUpgradeable.sol\":929:939  msg.sender */\n      caller\n        /* \"@openzeppelin/contracts-upgradeable/token/ERC20/ERC20Upgradeable.sol\":5712:5750  _spendAllowance(from, spender, amount) */\n      tag_132\n        /* \"@openzeppelin/contracts-upgradeable/token/ERC20/ERC20Upgradeable.sol\":5728:5732  from */\n      dup6\n        /* \"@openzeppelin/contracts-upgradeable/utils/ContextUpgradeable.sol\":929:939  msg.sender */\n      dup3\n        /* \"@openzeppelin/contracts-upgradeable/token/ERC20/ERC20Upgradeable.sol\":5743:5749  amount */\n      dup6\n        /* \"@openzeppelin/contracts-upgradeable/token/ERC20/ERC20Upgradeable.sol\":5712:5727  _spendAllowance */\n      tag_133\n        /* \"@openzeppelin/contracts-upgradeable/token/ERC20/ERC20Upgradeable.sol\":5712:5750  _spendAllowance(from, spender, amount) */\n      jump\t// in\n    tag_132:\n        /* \"@openzeppelin/contracts-upgradeable/token/ERC20/ERC20Upgradeable.sol\":5760:5787  _transfer(from, to, amount) */\n      tag_134\n        /* \"@openzeppelin/contracts-upgradeable/token/ERC20/ERC20Upgradeable.sol\":5770:5774  from */\n      dup6\n        /* \"@openzeppelin/contracts-upgradeable/token/ERC20/ERC20Upgradeable.sol\":5776:5778  to */\n      dup6\n        /* \"@openzeppelin/contracts-upgradeable/token/ERC20/ERC20Upgradeable.sol\":5780:5786  amount */\n      dup6\n        /* \"@openzeppelin/contracts-upgradeable/token/ERC20/ERC20Upgradeable.sol\":5760:5769  _transfer */\n      tag_135\n        /* \"@openzeppelin/contracts-upgradeable/token/ERC20/ERC20Upgradeable.sol\":5760:5787  _transfer(from, to, amount) */\n      jump\t// in\n    tag_134:\n      pop\n        /* \"@openzeppelin/contracts-upgradeable/token/ERC20/ERC20Upgradeable.sol\":5804:5808  true */\n      0x01\n      swap5\n        /* \"@openzeppelin/contracts-upgradeable/token/ERC20/ERC20Upgradeable.sol\":5529:5815  function transferFrom(... */\n      swap4\n      pop\n      pop\n      pop\n      pop\n      jump\t// out\n        /* \"contracts/Detake3Token.sol\":590:1146  function initialize(... */\n    tag_55:\n        /* \"@openzeppelin/contracts-upgradeable/proxy/utils/Initializable.sol\":3111:3130  bool isTopLevelCall */\n      0x00\n        /* \"@openzeppelin/contracts-upgradeable/proxy/utils/Initializable.sol\":3134:3147  _initializing */\n      sload\n      0x0100\n      swap1\n      div\n      0xff\n      and\n        /* \"@openzeppelin/contracts-upgradeable/proxy/utils/Initializable.sol\":3133:3147  !_initializing */\n      iszero\n      dup1\n        /* \"@openzeppelin/contracts-upgradeable/proxy/utils/Initializable.sol\":3179:3213  isTopLevelCall && _initialized < 1 */\n      dup1\n      iszero\n      tag_137\n      jumpi\n      pop\n        /* \"@openzeppelin/contracts-upgradeable/proxy/utils/Initializable.sol\":3197:3209  _initialized */\n      sload(0x00)\n        /* \"@openzeppelin/contracts-upgradeable/proxy/utils/Initializable.sol\":3212:3213  1 */\n      0x01\n        /* \"@openzeppelin/contracts-upgradeable/proxy/utils/Initializable.sol\":3197:3209  _initialized */\n      0xff\n      swap1\n      swap2\n      and\n        /* \"@openzeppelin/contracts-upgradeable/proxy/utils/Initializable.sol\":3197:3213  _initialized < 1 */\n      lt\n        /* \"@openzeppelin/contracts-upgradeable/proxy/utils/Initializable.sol\":3179:3213  isTopLevelCall && _initialized < 1 */\n    tag_137:\n        /* \"@openzeppelin/contracts-upgradeable/proxy/utils/Initializable.sol\":3178:3286  (isTopLevelCall && _initialized < 1) || (!AddressUpgradeable.isContract(address(this)) && _initialized == 1) */\n      dup1\n      tag_141\n      jumpi\n      pop\n        /* \"@openzeppelin/contracts-upgradeable/proxy/utils/Initializable.sol\":3258:3262  this */\n      address\n        /* \"@openzeppelin/contracts-upgradeable/utils/AddressUpgradeable.sol\":1476:1495  account.code.length */\n      extcodesize\n        /* \"@openzeppelin/contracts-upgradeable/utils/AddressUpgradeable.sol\":1476:1499  account.code.length > 0 */\n      iszero\n      dup1\n      iszero\n        /* \"@openzeppelin/contracts-upgradeable/proxy/utils/Initializable.sol\":3219:3285  !AddressUpgradeable.isContract(address(this)) && _initialized == 1 */\n      tag_141\n      jumpi\n      pop\n        /* \"@openzeppelin/contracts-upgradeable/proxy/utils/Initializable.sol\":3268:3280  _initialized */\n      and(0xff, sload(0x00))\n      0x01\n        /* \"@openzeppelin/contracts-upgradeable/proxy/utils/Initializable.sol\":3268:3285  _initialized == 1 */\n      eq\n        /* \"@openzeppelin/contracts-upgradeable/proxy/utils/Initializable.sol\":3219:3285  !AddressUpgradeable.isContract(address(this)) && _initialized == 1 */\n    tag_141:\n        /* \"@openzeppelin/contracts-upgradeable/proxy/utils/Initializable.sol\":3157:3358  require(... */\n      tag_142\n      jumpi\n      mload(0x40)\n      shl(0xe5, 0x461bcd)\n      dup2\n      mstore\n        /* \"#utility.yul\":7267:7269   */\n      0x20\n        /* \"@openzeppelin/contracts-upgradeable/proxy/utils/Initializable.sol\":3157:3358  require(... */\n      0x04\n      dup3\n      add\n        /* \"#utility.yul\":7249:7270   */\n      mstore\n        /* \"#utility.yul\":7306:7308   */\n      0x2e\n        /* \"#utility.yul\":7286:7304   */\n      0x24\n      dup3\n      add\n        /* \"#utility.yul\":7279:7309   */\n      mstore\n        /* \"#utility.yul\":7345:7379   */\n      0x496e697469616c697a61626c653a20636f6e747261637420697320616c726561\n        /* \"#utility.yul\":7325:7343   */\n      0x44\n      dup3\n      add\n        /* \"#utility.yul\":7318:7380   */\n      mstore\n      shl(0x92, 0x191e481a5b9a5d1a585b1a5e9959)\n        /* \"#utility.yul\":7396:7414   */\n      0x64\n      dup3\n      add\n        /* \"#utility.yul\":7389:7433   */\n      mstore\n        /* \"#utility.yul\":7450:7469   */\n      0x84\n      add\n        /* \"@openzeppelin/contracts-upgradeable/proxy/utils/Initializable.sol\":3157:3358  require(... */\n    tag_143:\n      mload(0x40)\n      dup1\n      swap2\n      sub\n      swap1\n      revert\n    tag_142:\n        /* \"@openzeppelin/contracts-upgradeable/proxy/utils/Initializable.sol\":3368:3380  _initialized */\n      0x00\n        /* \"@openzeppelin/contracts-upgradeable/proxy/utils/Initializable.sol\":3368:3384  _initialized = 1 */\n      dup1\n      sload\n      not(0xff)\n      and\n        /* \"@openzeppelin/contracts-upgradeable/proxy/utils/Initializable.sol\":3383:3384  1 */\n      0x01\n        /* \"@openzeppelin/contracts-upgradeable/proxy/utils/Initializable.sol\":3368:3384  _initialized = 1 */\n      or\n      swap1\n      sstore\n        /* \"@openzeppelin/contracts-upgradeable/proxy/utils/Initializable.sol\":3394:3459  if (isTopLevelCall) {... */\n      dup1\n      iszero\n      tag_145\n      jumpi\n        /* \"@openzeppelin/contracts-upgradeable/proxy/utils/Initializable.sol\":3428:3441  _initializing */\n      0x00\n        /* \"@openzeppelin/contracts-upgradeable/proxy/utils/Initializable.sol\":3428:3448  _initializing = true */\n      dup1\n      sload\n      not(0xff00)\n      and\n      0x0100\n      or\n      swap1\n      sstore\n        /* \"@openzeppelin/contracts-upgradeable/proxy/utils/Initializable.sol\":3394:3459  if (isTopLevelCall) {... */\n    tag_145:\n        /* \"contracts/Detake3Token.sol\":823:839  __Ownable_init() */\n      tag_147\n        /* \"contracts/Detake3Token.sol\":823:837  __Ownable_init */\n      tag_148\n        /* \"contracts/Detake3Token.sol\":823:839  __Ownable_init() */\n      jump\t// in\n    tag_147:\n        /* \"contracts/Detake3Token.sol\":850:876  __ERC20_init(name, symbol) */\n      tag_149\n        /* \"contracts/Detake3Token.sol\":863:867  name */\n      dup8\n        /* \"contracts/Detake3Token.sol\":869:875  symbol */\n      dup8\n        /* \"contracts/Detake3Token.sol\":850:862  __ERC20_init */\n      tag_150\n        /* \"contracts/Detake3Token.sol\":850:876  __ERC20_init(name, symbol) */\n      jump\t// in\n    tag_149:\n        /* \"contracts/Detake3Token.sol\":887:899  _name = name */\n      dup7\n      mload\n      tag_151\n      swap1\n        /* \"contracts/Detake3Token.sol\":887:892  _name */\n      0x97\n      swap1\n        /* \"contracts/Detake3Token.sol\":887:899  _name = name */\n      0x20\n      dup11\n      add\n      swap1\n      tag_152\n      jump\t// in\n    tag_151:\n      pop\n        /* \"contracts/Detake3Token.sol\":910:926  _symbol = symbol */\n      dup6\n      mload\n      tag_153\n      swap1\n        /* \"contracts/Detake3Token.sol\":910:917  _symbol */\n      0x98\n      swap1\n        /* \"contracts/Detake3Token.sol\":910:926  _symbol = symbol */\n      0x20\n      dup10\n      add\n      swap1\n      tag_152\n      jump\t// in\n    tag_153:\n      pop\n        /* \"contracts/Detake3Token.sol\":937:946  _decimals */\n      0x99\n        /* \"contracts/Detake3Token.sol\":937:957  _decimals = decimals */\n      dup1\n      sload\n      not(0xff)\n      and\n      0xff\n      dup8\n      and\n      or\n      swap1\n      sstore\n        /* \"contracts/Detake3Token.sol\":968:975  _taxFee */\n      0x9a\n        /* \"contracts/Detake3Token.sol\":968:984  _taxFee = taxFee */\n      dup4\n      swap1\n      sstore\n        /* \"contracts/Detake3Token.sol\":995:1013  _tokenOwnerAddress */\n      0x9b\n        /* \"contracts/Detake3Token.sol\":995:1033  _tokenOwnerAddress = tokenOwnerAddress */\n      dup1\n      sload\n      not(sub(shl(0xa0, 0x01), 0x01))\n      and\n      sub(shl(0xa0, 0x01), 0x01)\n      dup5\n      and\n      or\n      swap1\n      sstore\n        /* \"contracts/Detake3Token.sol\":1101:1138  _mint(tokenOwnerAddress, totalSupply) */\n      tag_154\n        /* \"contracts/Detake3Token.sol\":995:1033  _tokenOwnerAddress = tokenOwnerAddress */\n      dup3\n        /* \"contracts/Detake3Token.sol\":1126:1137  totalSupply */\n      dup6\n        /* \"contracts/Detake3Token.sol\":1101:1106  _mint */\n      tag_155\n        /* \"contracts/Detake3Token.sol\":1101:1138  _mint(tokenOwnerAddress, totalSupply) */\n      jump\t// in\n    tag_154:\n        /* \"@openzeppelin/contracts-upgradeable/proxy/utils/Initializable.sol\":3483:3497  isTopLevelCall */\n      dup1\n        /* \"@openzeppelin/contracts-upgradeable/proxy/utils/Initializable.sol\":3479:3578  if (isTopLevelCall) {... */\n      iszero\n      tag_156\n      jumpi\n        /* \"@openzeppelin/contracts-upgradeable/proxy/utils/Initializable.sol\":3529:3534  false */\n      0x00\n        /* \"@openzeppelin/contracts-upgradeable/proxy/utils/Initializable.sol\":3513:3534  _initializing = false */\n      dup1\n      sload\n      not(0xff00)\n      and\n      swap1\n      sstore\n        /* \"@openzeppelin/contracts-upgradeable/proxy/utils/Initializable.sol\":3553:3567  Initialized(1) */\n      mload(0x40)\n      0x01\n        /* \"#utility.yul\":3959:3995   */\n      dup2\n      mstore\n        /* \"@openzeppelin/contracts-upgradeable/proxy/utils/Initializable.sol\":3553:3567  Initialized(1) */\n      0x7f26b83ff96e1f2b6a682f133852f6798a09c465da95921460cefb3847402498\n      swap1\n        /* \"#utility.yul\":3947:3949   */\n      0x20\n        /* \"#utility.yul\":3932:3950   */\n      add\n        /* \"@openzeppelin/contracts-upgradeable/proxy/utils/Initializable.sol\":3553:3567  Initialized(1) */\n      mload(0x40)\n      dup1\n      swap2\n      sub\n      swap1\n      log1\n        /* \"@openzeppelin/contracts-upgradeable/proxy/utils/Initializable.sol\":3479:3578  if (isTopLevelCall) {... */\n    tag_156:\n        /* \"@openzeppelin/contracts-upgradeable/proxy/utils/Initializable.sol\":3101:3584  {... */\n      pop\n        /* \"contracts/Detake3Token.sol\":590:1146  function initialize(... */\n      pop\n      pop\n      pop\n      pop\n      pop\n      pop\n      jump\t// out\n        /* \"@openzeppelin/contracts-upgradeable/token/ERC20/ERC20Upgradeable.sol\":6210:6444  function increaseAllowance(address spender, uint256 addedValue) public virtual returns (bool) {... */\n    tag_62:\n        /* \"@openzeppelin/contracts-upgradeable/token/ERC20/ERC20Upgradeable.sol\":6298:6302  bool */\n      0x00\n        /* \"@openzeppelin/contracts-upgradeable/utils/ContextUpgradeable.sol\":929:939  msg.sender */\n      caller\n        /* \"@openzeppelin/contracts-upgradeable/token/ERC20/ERC20Upgradeable.sol\":6352:6416  _approve(owner, spender, allowance(owner, spender) + addedValue) */\n      tag_127\n        /* \"@openzeppelin/contracts-upgradeable/utils/ContextUpgradeable.sol\":929:939  msg.sender */\n      dup2\n        /* \"@openzeppelin/contracts-upgradeable/token/ERC20/ERC20Upgradeable.sol\":6368:6375  spender */\n      dup6\n        /* \"@openzeppelin/contracts-upgradeable/token/ERC20/ERC20Upgradeable.sol\":6405:6415  addedValue */\n      dup6\n        /* \"@openzeppelin/contracts-upgradeable/token/ERC20/ERC20Upgradeable.sol\":6377:6402  allowance(owner, spender) */\n      tag_163\n        /* \"@openzeppelin/contracts-upgradeable/utils/ContextUpgradeable.sol\":929:939  msg.sender */\n      dup4\n        /* \"@openzeppelin/contracts-upgradeable/token/ERC20/ERC20Upgradeable.sol\":6368:6375  spender */\n      dup4\n        /* \"@openzeppelin/contracts-upgradeable/token/ERC20/ERC20Upgradeable.sol\":6377:6386  allowance */\n      tag_106\n        /* \"@openzeppelin/contracts-upgradeable/token/ERC20/ERC20Upgradeable.sol\":6377:6402  allowance(owner, spender) */\n      jump\t// in\n    tag_163:\n        /* \"@openzeppelin/contracts-upgradeable/token/ERC20/ERC20Upgradeable.sol\":6377:6415  allowance(owner, spender) + addedValue */\n      tag_164\n      swap2\n      swap1\n      tag_165\n      jump\t// in\n    tag_164:\n        /* \"@openzeppelin/contracts-upgradeable/token/ERC20/ERC20Upgradeable.sol\":6352:6360  _approve */\n      tag_128\n        /* \"@openzeppelin/contracts-upgradeable/token/ERC20/ERC20Upgradeable.sol\":6352:6416  _approve(owner, spender, allowance(owner, spender) + addedValue) */\n      jump\t// in\n        /* \"contracts/Detake3Token.sol\":1510:1604  function signers() external view returns (address[] memory) {... */\n    tag_68:\n        /* \"contracts/Detake3Token.sol\":1552:1568  address[] memory */\n      0x60\n        /* \"contracts/Detake3Token.sol\":1588:1596  _signers */\n      0x9c\n        /* \"contracts/Detake3Token.sol\":1581:1596  return _signers */\n      dup1\n      sload\n      dup1\n      0x20\n      mul\n      0x20\n      add\n      mload(0x40)\n      swap1\n      dup2\n      add\n      0x40\n      mstore\n      dup1\n      swap3\n      swap2\n      swap1\n      dup2\n      dup2\n      mstore\n      0x20\n      add\n      dup3\n      dup1\n      sload\n      dup1\n      iszero\n      tag_120\n      jumpi\n      0x20\n      mul\n      dup3\n      add\n      swap2\n      swap1\n      0x00\n      mstore\n      keccak256(0x00, 0x20)\n      swap1\n    tag_168:\n      dup2\n      sload\n      sub(shl(0xa0, 0x01), 0x01)\n      and\n      dup2\n      mstore\n      0x01\n      swap1\n      swap2\n      add\n      swap1\n      0x20\n      add\n      dup1\n      dup4\n      gt\n      tag_168\n      jumpi\n      pop\n      pop\n      pop\n      pop\n      pop\n      swap1\n      pop\n        /* \"contracts/Detake3Token.sol\":1510:1604  function signers() external view returns (address[] memory) {... */\n      swap1\n      jump\t// out\n        /* \"contracts/Detake3Token.sol\":2225:3477  function _permitTransfer(... */\n    tag_74:\n        /* \"contracts/Detake3Token.sol\":2511:2535  uniqueIdExists[uniqueId] */\n      0x00\n      dup4\n      dup2\n      mstore\n        /* \"contracts/Detake3Token.sol\":2511:2525  uniqueIdExists */\n      0x9e\n        /* \"contracts/Detake3Token.sol\":2511:2535  uniqueIdExists[uniqueId] */\n      0x20\n      mstore\n      0x40\n      swap1\n      keccak256\n      sload\n      0xff\n      and\n        /* \"contracts/Detake3Token.sol\":2510:2535  !uniqueIdExists[uniqueId] */\n      iszero\n        /* \"contracts/Detake3Token.sol\":2502:2556  require(!uniqueIdExists[uniqueId], \"Unique id exists\") */\n      tag_170\n      jumpi\n      mload(0x40)\n      shl(0xe5, 0x461bcd)\n      dup2\n      mstore\n        /* \"#utility.yul\":8146:8148   */\n      0x20\n        /* \"contracts/Detake3Token.sol\":2502:2556  require(!uniqueIdExists[uniqueId], \"Unique id exists\") */\n      0x04\n      dup3\n      add\n        /* \"#utility.yul\":8128:8149   */\n      mstore\n        /* \"#utility.yul\":8185:8187   */\n      0x10\n        /* \"#utility.yul\":8165:8183   */\n      0x24\n      dup3\n      add\n        /* \"#utility.yul\":8158:8188   */\n      mstore\n      shl(0x80, 0x556e6971756520696420657869737473)\n        /* \"#utility.yul\":8204:8222   */\n      0x44\n      dup3\n      add\n        /* \"#utility.yul\":8197:8243   */\n      mstore\n        /* \"#utility.yul\":8260:8278   */\n      0x64\n      add\n        /* \"contracts/Detake3Token.sol\":2502:2556  require(!uniqueIdExists[uniqueId], \"Unique id exists\") */\n      tag_143\n        /* \"#utility.yul\":7944:8284   */\n      jump\n        /* \"contracts/Detake3Token.sol\":2502:2556  require(!uniqueIdExists[uniqueId], \"Unique id exists\") */\n    tag_170:\n        /* \"contracts/Detake3Token.sol\":2586:2596  msg.sender */\n      caller\n        /* \"contracts/Detake3Token.sol\":2569:2583  address sender */\n      0x00\n        /* \"contracts/Detake3Token.sol\":2623:2636  super.owner() */\n      tag_173\n        /* \"@openzeppelin/contracts-upgradeable/access/OwnableUpgradeable.sol\":1513:1519  _owner */\n      and(sub(shl(0xa0, 0x01), 0x01), sload(0x65))\n      swap1\n        /* \"@openzeppelin/contracts-upgradeable/access/OwnableUpgradeable.sol\":1441:1526  function owner() public view virtual returns (address) {... */\n      jump\n        /* \"contracts/Detake3Token.sol\":2623:2636  super.owner() */\n    tag_173:\n        /* \"contracts/Detake3Token.sol\":3230:3254  uniqueIdExists[uniqueId] */\n      0x00\n      dup7\n      dup2\n      mstore\n        /* \"contracts/Detake3Token.sol\":3230:3244  uniqueIdExists */\n      0x9e\n        /* \"contracts/Detake3Token.sol\":3230:3254  uniqueIdExists[uniqueId] */\n      0x20\n      mstore\n      0x40\n      swap1\n      keccak256\n        /* \"contracts/Detake3Token.sol\":3230:3261  uniqueIdExists[uniqueId] = true */\n      dup1\n      sload\n      not(0xff)\n      and\n        /* \"contracts/Detake3Token.sol\":3257:3261  true */\n      0x01\n        /* \"contracts/Detake3Token.sol\":3230:3261  uniqueIdExists[uniqueId] = true */\n      or\n      swap1\n      sstore\n        /* \"contracts/Detake3Token.sol\":2607:2636  address owner = super.owner() */\n      swap1\n      pop\n      sub(shl(0xa0, 0x01), 0x01)\n        /* \"contracts/Detake3Token.sol\":3276:3291  sender == owner */\n      dup3\n      dup2\n      and\n      swap1\n      dup3\n      and\n      eq\n        /* \"contracts/Detake3Token.sol\":3272:3470  if (sender == owner) {... */\n      iszero\n      tag_174\n      jumpi\n        /* \"contracts/Detake3Token.sol\":3356:3389  super.transfer(recipient, amount) */\n      tag_175\n        /* \"contracts/Detake3Token.sol\":3371:3380  recipient */\n      dup7\n        /* \"contracts/Detake3Token.sol\":3382:3388  amount */\n      dup6\n        /* \"contracts/Detake3Token.sol\":3356:3370  super.transfer */\n      tag_98\n        /* \"contracts/Detake3Token.sol\":3356:3389  super.transfer(recipient, amount) */\n      jump\t// in\n    tag_175:\n      pop\n        /* \"contracts/Detake3Token.sol\":3272:3470  if (sender == owner) {... */\n      jump(tag_177)\n    tag_174:\n        /* \"contracts/Detake3Token.sol\":3422:3458  _transferWithBurn(recipient, amount) */\n      tag_177\n        /* \"contracts/Detake3Token.sol\":3440:3449  recipient */\n      dup7\n        /* \"contracts/Detake3Token.sol\":3451:3457  amount */\n      dup6\n        /* \"contracts/Detake3Token.sol\":3422:3439  _transferWithBurn */\n      tag_178\n        /* \"contracts/Detake3Token.sol\":3422:3458  _transferWithBurn(recipient, amount) */\n      jump\t// in\n    tag_177:\n        /* \"contracts/Detake3Token.sol\":2422:3477  {... */\n      pop\n      pop\n        /* \"contracts/Detake3Token.sol\":2225:3477  function _permitTransfer(... */\n      pop\n      pop\n      pop\n      pop\n      jump\t// out\n        /* \"@openzeppelin/contracts-upgradeable/access/OwnableUpgradeable.sol\":2071:2172  function renounceOwnership() public virtual onlyOwner {... */\n    tag_80:\n        /* \"@openzeppelin/contracts-upgradeable/access/OwnableUpgradeable.sol\":1334:1347  _checkOwner() */\n      tag_181\n        /* \"@openzeppelin/contracts-upgradeable/access/OwnableUpgradeable.sol\":1334:1345  _checkOwner */\n      tag_182\n        /* \"@openzeppelin/contracts-upgradeable/access/OwnableUpgradeable.sol\":1334:1347  _checkOwner() */\n      jump\t// in\n    tag_181:\n        /* \"@openzeppelin/contracts-upgradeable/access/OwnableUpgradeable.sol\":2135:2165  _transferOwnership(address(0)) */\n      tag_184\n        /* \"@openzeppelin/contracts-upgradeable/access/OwnableUpgradeable.sol\":2162:2163  0 */\n      0x00\n        /* \"@openzeppelin/contracts-upgradeable/access/OwnableUpgradeable.sol\":2135:2153  _transferOwnership */\n      tag_185\n        /* \"@openzeppelin/contracts-upgradeable/access/OwnableUpgradeable.sol\":2135:2165  _transferOwnership(address(0)) */\n      jump\t// in\n    tag_184:\n        /* \"@openzeppelin/contracts-upgradeable/access/OwnableUpgradeable.sol\":2071:2172  function renounceOwnership() public virtual onlyOwner {... */\n      jump\t// out\n        /* \"@openzeppelin/contracts-upgradeable/token/ERC20/ERC20Upgradeable.sol\":2704:2806  function symbol() public view virtual override returns (string memory) {... */\n    tag_86:\n        /* \"@openzeppelin/contracts-upgradeable/token/ERC20/ERC20Upgradeable.sol\":2760:2773  string memory */\n      0x60\n        /* \"@openzeppelin/contracts-upgradeable/token/ERC20/ERC20Upgradeable.sol\":2792:2799  _symbol */\n      0x37\n        /* \"@openzeppelin/contracts-upgradeable/token/ERC20/ERC20Upgradeable.sol\":2785:2799  return _symbol */\n      dup1\n      sload\n      tag_117\n      swap1\n      tag_118\n      jump\t// in\n        /* \"contracts/Detake3Token.sol\":1612:1851  function setSigners(address[] memory signers_) external virtual onlyOwner {... */\n    tag_91:\n        /* \"@openzeppelin/contracts-upgradeable/access/OwnableUpgradeable.sol\":1334:1347  _checkOwner() */\n      tag_194\n        /* \"@openzeppelin/contracts-upgradeable/access/OwnableUpgradeable.sol\":1334:1345  _checkOwner */\n      tag_182\n        /* \"@openzeppelin/contracts-upgradeable/access/OwnableUpgradeable.sol\":1334:1347  _checkOwner() */\n      jump\t// in\n    tag_194:\n        /* \"contracts/Detake3Token.sol\":1697:1737  _updateMap(_signers, false, _mapSigners) */\n      tag_196\n        /* \"contracts/Detake3Token.sol\":1708:1716  _signers */\n      0x9c\n        /* \"contracts/Detake3Token.sol\":1697:1737  _updateMap(_signers, false, _mapSigners) */\n      dup1\n      sload\n      dup1\n      0x20\n      mul\n      0x20\n      add\n      mload(0x40)\n      swap1\n      dup2\n      add\n      0x40\n      mstore\n      dup1\n      swap3\n      swap2\n      swap1\n      dup2\n      dup2\n      mstore\n      0x20\n      add\n      dup3\n      dup1\n      sload\n      dup1\n      iszero\n      tag_197\n      jumpi\n      0x20\n      mul\n      dup3\n      add\n      swap2\n      swap1\n      0x00\n      mstore\n      keccak256(0x00, 0x20)\n      swap1\n    tag_198:\n      dup2\n      sload\n      sub(shl(0xa0, 0x01), 0x01)\n      and\n      dup2\n      mstore\n      0x01\n      swap1\n      swap2\n      add\n      swap1\n      0x20\n      add\n      dup1\n      dup4\n      gt\n      tag_198\n      jumpi\n    tag_197:\n      pop\n      pop\n      pop\n      pop\n      pop\n        /* \"contracts/Detake3Token.sol\":1718:1723  false */\n      0x00\n        /* \"contracts/Detake3Token.sol\":1725:1736  _mapSigners */\n      0x9d\n        /* \"contracts/Detake3Token.sol\":1697:1707  _updateMap */\n      tag_199\n        /* \"contracts/Detake3Token.sol\":1697:1737  _updateMap(_signers, false, _mapSigners) */\n      jump\t// in\n    tag_196:\n        /* \"contracts/Detake3Token.sol\":1748:1763  delete _signers */\n      tag_200\n        /* \"contracts/Detake3Token.sol\":1755:1763  _signers */\n      0x9c\n      0x00\n        /* \"contracts/Detake3Token.sol\":1748:1763  delete _signers */\n      tag_201\n      jump\t// in\n    tag_200:\n        /* \"contracts/Detake3Token.sol\":1774:1793  _signers = signers_ */\n      dup1\n      mload\n      tag_202\n      swap1\n        /* \"contracts/Detake3Token.sol\":1774:1782  _signers */\n      0x9c\n      swap1\n        /* \"contracts/Detake3Token.sol\":1774:1793  _signers = signers_ */\n      0x20\n      dup5\n      add\n      swap1\n      tag_203\n      jump\t// in\n    tag_202:\n      pop\n        /* \"contracts/Detake3Token.sol\":1804:1843  _updateMap(signers_, true, _mapSigners) */\n      tag_204\n        /* \"contracts/Detake3Token.sol\":1815:1823  signers_ */\n      dup2\n        /* \"contracts/Detake3Token.sol\":1825:1829  true */\n      0x01\n        /* \"contracts/Detake3Token.sol\":1831:1842  _mapSigners */\n      0x9d\n        /* \"contracts/Detake3Token.sol\":1804:1814  _updateMap */\n      tag_199\n        /* \"contracts/Detake3Token.sol\":1804:1843  _updateMap(signers_, true, _mapSigners) */\n      jump\t// in\n    tag_204:\n        /* \"contracts/Detake3Token.sol\":1612:1851  function setSigners(address[] memory signers_) external virtual onlyOwner {... */\n      pop\n      jump\t// out\n        /* \"@openzeppelin/contracts-upgradeable/token/ERC20/ERC20Upgradeable.sol\":6931:7358  function decreaseAllowance(address spender, uint256 subtractedValue) public virtual returns (bool) {... */\n    tag_94:\n        /* \"@openzeppelin/contracts-upgradeable/token/ERC20/ERC20Upgradeable.sol\":7024:7028  bool */\n      0x00\n        /* \"@openzeppelin/contracts-upgradeable/utils/ContextUpgradeable.sol\":929:939  msg.sender */\n      caller\n        /* \"@openzeppelin/contracts-upgradeable/token/ERC20/ERC20Upgradeable.sol\":7024:7028  bool */\n      dup2\n        /* \"@openzeppelin/contracts-upgradeable/token/ERC20/ERC20Upgradeable.sol\":7105:7130  allowance(owner, spender) */\n      tag_207\n        /* \"@openzeppelin/contracts-upgradeable/utils/ContextUpgradeable.sol\":929:939  msg.sender */\n      dup3\n        /* \"@openzeppelin/contracts-upgradeable/token/ERC20/ERC20Upgradeable.sol\":7122:7129  spender */\n      dup7\n        /* \"@openzeppelin/contracts-upgradeable/token/ERC20/ERC20Upgradeable.sol\":7105:7114  allowance */\n      tag_106\n        /* \"@openzeppelin/contracts-upgradeable/token/ERC20/ERC20Upgradeable.sol\":7105:7130  allowance(owner, spender) */\n      jump\t// in\n    tag_207:\n        /* \"@openzeppelin/contracts-upgradeable/token/ERC20/ERC20Upgradeable.sol\":7078:7130  uint256 currentAllowance = allowance(owner, spender) */\n      swap1\n      pop\n        /* \"@openzeppelin/contracts-upgradeable/token/ERC20/ERC20Upgradeable.sol\":7168:7183  subtractedValue */\n      dup4\n        /* \"@openzeppelin/contracts-upgradeable/token/ERC20/ERC20Upgradeable.sol\":7148:7164  currentAllowance */\n      dup2\n        /* \"@openzeppelin/contracts-upgradeable/token/ERC20/ERC20Upgradeable.sol\":7148:7183  currentAllowance >= subtractedValue */\n      lt\n      iszero\n        /* \"@openzeppelin/contracts-upgradeable/token/ERC20/ERC20Upgradeable.sol\":7140:7225  require(currentAllowance >= subtractedValue, \"ERC20: decreased allowance below zero\") */\n      tag_208\n      jumpi\n      mload(0x40)\n      shl(0xe5, 0x461bcd)\n      dup2\n      mstore\n        /* \"#utility.yul\":8491:8493   */\n      0x20\n        /* \"@openzeppelin/contracts-upgradeable/token/ERC20/ERC20Upgradeable.sol\":7140:7225  require(currentAllowance >= subtractedValue, \"ERC20: decreased allowance below zero\") */\n      0x04\n      dup3\n      add\n        /* \"#utility.yul\":8473:8494   */\n      mstore\n        /* \"#utility.yul\":8530:8532   */\n      0x25\n        /* \"#utility.yul\":8510:8528   */\n      0x24\n      dup3\n      add\n        /* \"#utility.yul\":8503:8533   */\n      mstore\n        /* \"#utility.yul\":8569:8603   */\n      0x45524332303a2064656372656173656420616c6c6f77616e63652062656c6f77\n        /* \"#utility.yul\":8549:8567   */\n      0x44\n      dup3\n      add\n        /* \"#utility.yul\":8542:8604   */\n      mstore\n      shl(0xd8, 0x207a65726f)\n        /* \"#utility.yul\":8620:8638   */\n      0x64\n      dup3\n      add\n        /* \"#utility.yul\":8613:8648   */\n      mstore\n        /* \"#utility.yul\":8665:8684   */\n      0x84\n      add\n        /* \"@openzeppelin/contracts-upgradeable/token/ERC20/ERC20Upgradeable.sol\":7140:7225  require(currentAllowance >= subtractedValue, \"ERC20: decreased allowance below zero\") */\n      tag_143\n        /* \"#utility.yul\":8289:8690   */\n      jump\n        /* \"@openzeppelin/contracts-upgradeable/token/ERC20/ERC20Upgradeable.sol\":7140:7225  require(currentAllowance >= subtractedValue, \"ERC20: decreased allowance below zero\") */\n    tag_208:\n        /* \"@openzeppelin/contracts-upgradeable/token/ERC20/ERC20Upgradeable.sol\":7259:7319  _approve(owner, spender, currentAllowance - subtractedValue) */\n      tag_134\n        /* \"@openzeppelin/contracts-upgradeable/token/ERC20/ERC20Upgradeable.sol\":7268:7273  owner */\n      dup3\n        /* \"@openzeppelin/contracts-upgradeable/token/ERC20/ERC20Upgradeable.sol\":7275:7282  spender */\n      dup7\n        /* \"@openzeppelin/contracts-upgradeable/token/ERC20/ERC20Upgradeable.sol\":7303:7318  subtractedValue */\n      dup7\n        /* \"@openzeppelin/contracts-upgradeable/token/ERC20/ERC20Upgradeable.sol\":7284:7300  currentAllowance */\n      dup5\n        /* \"@openzeppelin/contracts-upgradeable/token/ERC20/ERC20Upgradeable.sol\":7284:7318  currentAllowance - subtractedValue */\n      sub\n        /* \"@openzeppelin/contracts-upgradeable/token/ERC20/ERC20Upgradeable.sol\":7259:7267  _approve */\n      tag_128\n        /* \"@openzeppelin/contracts-upgradeable/token/ERC20/ERC20Upgradeable.sol\":7259:7319  _approve(owner, spender, currentAllowance - subtractedValue) */\n      jump\t// in\n        /* \"@openzeppelin/contracts-upgradeable/token/ERC20/ERC20Upgradeable.sol\":4066:4255  function transfer(address to, uint256 amount) public virtual override returns (bool) {... */\n    tag_98:\n        /* \"@openzeppelin/contracts-upgradeable/token/ERC20/ERC20Upgradeable.sol\":4145:4149  bool */\n      0x00\n        /* \"@openzeppelin/contracts-upgradeable/utils/ContextUpgradeable.sol\":929:939  msg.sender */\n      caller\n        /* \"@openzeppelin/contracts-upgradeable/token/ERC20/ERC20Upgradeable.sol\":4199:4227  _transfer(owner, to, amount) */\n      tag_127\n        /* \"@openzeppelin/contracts-upgradeable/utils/ContextUpgradeable.sol\":929:939  msg.sender */\n      dup2\n        /* \"@openzeppelin/contracts-upgradeable/token/ERC20/ERC20Upgradeable.sol\":4216:4218  to */\n      dup6\n        /* \"@openzeppelin/contracts-upgradeable/token/ERC20/ERC20Upgradeable.sol\":4220:4226  amount */\n      dup6\n        /* \"@openzeppelin/contracts-upgradeable/token/ERC20/ERC20Upgradeable.sol\":4199:4208  _transfer */\n      tag_135\n        /* \"@openzeppelin/contracts-upgradeable/token/ERC20/ERC20Upgradeable.sol\":4199:4227  _transfer(owner, to, amount) */\n      jump\t// in\n        /* \"@openzeppelin/contracts-upgradeable/token/ERC20/ERC20Upgradeable.sol\":4313:4462  function allowance(address owner, address spender) public view virtual override returns (uint256) {... */\n    tag_106:\n      sub(shl(0xa0, 0x01), 0x01)\n        /* \"@openzeppelin/contracts-upgradeable/token/ERC20/ERC20Upgradeable.sol\":4428:4446  _allowances[owner] */\n      swap2\n      dup3\n      and\n        /* \"@openzeppelin/contracts-upgradeable/token/ERC20/ERC20Upgradeable.sol\":4402:4409  uint256 */\n      0x00\n        /* \"@openzeppelin/contracts-upgradeable/token/ERC20/ERC20Upgradeable.sol\":4428:4446  _allowances[owner] */\n      swap1\n      dup2\n      mstore\n        /* \"@openzeppelin/contracts-upgradeable/token/ERC20/ERC20Upgradeable.sol\":4428:4439  _allowances */\n      0x34\n        /* \"@openzeppelin/contracts-upgradeable/token/ERC20/ERC20Upgradeable.sol\":4428:4446  _allowances[owner] */\n      0x20\n      swap1\n      dup2\n      mstore\n      0x40\n      dup1\n      dup4\n      keccak256\n        /* \"@openzeppelin/contracts-upgradeable/token/ERC20/ERC20Upgradeable.sol\":4428:4455  _allowances[owner][spender] */\n      swap4\n      swap1\n      swap5\n      and\n      dup3\n      mstore\n      swap2\n      swap1\n      swap2\n      mstore\n      keccak256\n      sload\n      swap1\n        /* \"@openzeppelin/contracts-upgradeable/token/ERC20/ERC20Upgradeable.sol\":4313:4462  function allowance(address owner, address spender) public view virtual override returns (uint256) {... */\n      jump\t// out\n        /* \"@openzeppelin/contracts-upgradeable/access/OwnableUpgradeable.sol\":2321:2519  function transferOwnership(address newOwner) public virtual onlyOwner {... */\n    tag_110:\n        /* \"@openzeppelin/contracts-upgradeable/access/OwnableUpgradeable.sol\":1334:1347  _checkOwner() */\n      tag_218\n        /* \"@openzeppelin/contracts-upgradeable/access/OwnableUpgradeable.sol\":1334:1345  _checkOwner */\n      tag_182\n        /* \"@openzeppelin/contracts-upgradeable/access/OwnableUpgradeable.sol\":1334:1347  _checkOwner() */\n      jump\t// in\n    tag_218:\n      sub(shl(0xa0, 0x01), 0x01)\n        /* \"@openzeppelin/contracts-upgradeable/access/OwnableUpgradeable.sol\":2409:2431  newOwner != address(0) */\n      dup2\n      and\n        /* \"@openzeppelin/contracts-upgradeable/access/OwnableUpgradeable.sol\":2401:2474  require(newOwner != address(0), \"Ownable: new owner is the zero address\") */\n      tag_220\n      jumpi\n      mload(0x40)\n      shl(0xe5, 0x461bcd)\n      dup2\n      mstore\n        /* \"#utility.yul\":8897:8899   */\n      0x20\n        /* \"@openzeppelin/contracts-upgradeable/access/OwnableUpgradeable.sol\":2401:2474  require(newOwner != address(0), \"Ownable: new owner is the zero address\") */\n      0x04\n      dup3\n      add\n        /* \"#utility.yul\":8879:8900   */\n      mstore\n        /* \"#utility.yul\":8936:8938   */\n      0x26\n        /* \"#utility.yul\":8916:8934   */\n      0x24\n      dup3\n      add\n        /* \"#utility.yul\":8909:8939   */\n      mstore\n        /* \"#utility.yul\":8975:9009   */\n      0x4f776e61626c653a206e6577206f776e657220697320746865207a65726f2061\n        /* \"#utility.yul\":8955:8973   */\n      0x44\n      dup3\n      add\n        /* \"#utility.yul\":8948:9010   */\n      mstore\n      shl(0xd0, 0x646472657373)\n        /* \"#utility.yul\":9026:9044   */\n      0x64\n      dup3\n      add\n        /* \"#utility.yul\":9019:9055   */\n      mstore\n        /* \"#utility.yul\":9072:9091   */\n      0x84\n      add\n        /* \"@openzeppelin/contracts-upgradeable/access/OwnableUpgradeable.sol\":2401:2474  require(newOwner != address(0), \"Ownable: new owner is the zero address\") */\n      tag_143\n        /* \"#utility.yul\":8695:9097   */\n      jump\n        /* \"@openzeppelin/contracts-upgradeable/access/OwnableUpgradeable.sol\":2401:2474  require(newOwner != address(0), \"Ownable: new owner is the zero address\") */\n    tag_220:\n        /* \"@openzeppelin/contracts-upgradeable/access/OwnableUpgradeable.sol\":2484:2512  _transferOwnership(newOwner) */\n      tag_204\n        /* \"@openzeppelin/contracts-upgradeable/access/OwnableUpgradeable.sol\":2503:2511  newOwner */\n      dup2\n        /* \"@openzeppelin/contracts-upgradeable/access/OwnableUpgradeable.sol\":2484:2502  _transferOwnership */\n      tag_185\n        /* \"@openzeppelin/contracts-upgradeable/access/OwnableUpgradeable.sol\":2484:2512  _transferOwnership(newOwner) */\n      jump\t// in\n        /* \"@openzeppelin/contracts-upgradeable/token/ERC20/ERC20Upgradeable.sol\":10447:10817  function _approve(... */\n    tag_128:\n      sub(shl(0xa0, 0x01), 0x01)\n        /* \"@openzeppelin/contracts-upgradeable/token/ERC20/ERC20Upgradeable.sol\":10578:10597  owner != address(0) */\n      dup4\n      and\n        /* \"@openzeppelin/contracts-upgradeable/token/ERC20/ERC20Upgradeable.sol\":10570:10638  require(owner != address(0), \"ERC20: approve from the zero address\") */\n      tag_226\n      jumpi\n      mload(0x40)\n      shl(0xe5, 0x461bcd)\n      dup2\n      mstore\n        /* \"#utility.yul\":9304:9306   */\n      0x20\n        /* \"@openzeppelin/contracts-upgradeable/token/ERC20/ERC20Upgradeable.sol\":10570:10638  require(owner != address(0), \"ERC20: approve from the zero address\") */\n      0x04\n      dup3\n      add\n        /* \"#utility.yul\":9286:9307   */\n      mstore\n        /* \"#utility.yul\":9343:9345   */\n      0x24\n        /* \"#utility.yul\":9323:9341   */\n      dup1\n      dup3\n      add\n        /* \"#utility.yul\":9316:9346   */\n      mstore\n        /* \"#utility.yul\":9382:9416   */\n      0x45524332303a20617070726f76652066726f6d20746865207a65726f20616464\n        /* \"#utility.yul\":9362:9380   */\n      0x44\n      dup3\n      add\n        /* \"#utility.yul\":9355:9417   */\n      mstore\n      shl(0xe0, 0x72657373)\n        /* \"#utility.yul\":9433:9451   */\n      0x64\n      dup3\n      add\n        /* \"#utility.yul\":9426:9460   */\n      mstore\n        /* \"#utility.yul\":9477:9496   */\n      0x84\n      add\n        /* \"@openzeppelin/contracts-upgradeable/token/ERC20/ERC20Upgradeable.sol\":10570:10638  require(owner != address(0), \"ERC20: approve from the zero address\") */\n      tag_143\n        /* \"#utility.yul\":9102:9502   */\n      jump\n        /* \"@openzeppelin/contracts-upgradeable/token/ERC20/ERC20Upgradeable.sol\":10570:10638  require(owner != address(0), \"ERC20: approve from the zero address\") */\n    tag_226:\n      sub(shl(0xa0, 0x01), 0x01)\n        /* \"@openzeppelin/contracts-upgradeable/token/ERC20/ERC20Upgradeable.sol\":10656:10677  spender != address(0) */\n      dup3\n      and\n        /* \"@openzeppelin/contracts-upgradeable/token/ERC20/ERC20Upgradeable.sol\":10648:10716  require(spender != address(0), \"ERC20: approve to the zero address\") */\n      tag_229\n      jumpi\n      mload(0x40)\n      shl(0xe5, 0x461bcd)\n      dup2\n      mstore\n        /* \"#utility.yul\":9709:9711   */\n      0x20\n        /* \"@openzeppelin/contracts-upgradeable/token/ERC20/ERC20Upgradeable.sol\":10648:10716  require(spender != address(0), \"ERC20: approve to the zero address\") */\n      0x04\n      dup3\n      add\n        /* \"#utility.yul\":9691:9712   */\n      mstore\n        /* \"#utility.yul\":9748:9750   */\n      0x22\n        /* \"#utility.yul\":9728:9746   */\n      0x24\n      dup3\n      add\n        /* \"#utility.yul\":9721:9751   */\n      mstore\n        /* \"#utility.yul\":9787:9821   */\n      0x45524332303a20617070726f766520746f20746865207a65726f206164647265\n        /* \"#utility.yul\":9767:9785   */\n      0x44\n      dup3\n      add\n        /* \"#utility.yul\":9760:9822   */\n      mstore\n      shl(0xf0, 0x7373)\n        /* \"#utility.yul\":9838:9856   */\n      0x64\n      dup3\n      add\n        /* \"#utility.yul\":9831:9863   */\n      mstore\n        /* \"#utility.yul\":9880:9899   */\n      0x84\n      add\n        /* \"@openzeppelin/contracts-upgradeable/token/ERC20/ERC20Upgradeable.sol\":10648:10716  require(spender != address(0), \"ERC20: approve to the zero address\") */\n      tag_143\n        /* \"#utility.yul\":9507:9905   */\n      jump\n        /* \"@openzeppelin/contracts-upgradeable/token/ERC20/ERC20Upgradeable.sol\":10648:10716  require(spender != address(0), \"ERC20: approve to the zero address\") */\n    tag_229:\n      sub(shl(0xa0, 0x01), 0x01)\n        /* \"@openzeppelin/contracts-upgradeable/token/ERC20/ERC20Upgradeable.sol\":10727:10745  _allowances[owner] */\n      dup4\n      dup2\n      and\n      0x00\n      dup2\n      dup2\n      mstore\n        /* \"@openzeppelin/contracts-upgradeable/token/ERC20/ERC20Upgradeable.sol\":10727:10738  _allowances */\n      0x34\n        /* \"@openzeppelin/contracts-upgradeable/token/ERC20/ERC20Upgradeable.sol\":10727:10745  _allowances[owner] */\n      0x20\n      swap1\n      dup2\n      mstore\n      0x40\n      dup1\n      dup4\n      keccak256\n        /* \"@openzeppelin/contracts-upgradeable/token/ERC20/ERC20Upgradeable.sol\":10727:10754  _allowances[owner][spender] */\n      swap5\n      dup8\n      and\n      dup1\n      dup5\n      mstore\n      swap5\n      dup3\n      mstore\n      swap2\n      dup3\n      swap1\n      keccak256\n        /* \"@openzeppelin/contracts-upgradeable/token/ERC20/ERC20Upgradeable.sol\":10727:10763  _allowances[owner][spender] = amount */\n      dup6\n      swap1\n      sstore\n        /* \"@openzeppelin/contracts-upgradeable/token/ERC20/ERC20Upgradeable.sol\":10778:10810  Approval(owner, spender, amount) */\n      swap1\n      mload\n        /* \"#utility.yul\":1582:1607   */\n      dup5\n      dup2\n      mstore\n        /* \"@openzeppelin/contracts-upgradeable/token/ERC20/ERC20Upgradeable.sol\":10778:10810  Approval(owner, spender, amount) */\n      0x8c5be1e5ebec7d5bd14f71427d1e84f3dd0314c0f7b2291e5b200ac8c7c3b925\n      swap2\n        /* \"#utility.yul\":1555:1573   */\n      add\n        /* \"@openzeppelin/contracts-upgradeable/token/ERC20/ERC20Upgradeable.sol\":10778:10810  Approval(owner, spender, amount) */\n      mload(0x40)\n      dup1\n      swap2\n      sub\n      swap1\n      log3\n        /* \"@openzeppelin/contracts-upgradeable/token/ERC20/ERC20Upgradeable.sol\":10447:10817  function _approve(... */\n      pop\n      pop\n      pop\n      jump\t// out\n        /* \"@openzeppelin/contracts-upgradeable/token/ERC20/ERC20Upgradeable.sol\":11098:11539  function _spendAllowance(... */\n    tag_133:\n        /* \"@openzeppelin/contracts-upgradeable/token/ERC20/ERC20Upgradeable.sol\":11228:11252  uint256 currentAllowance */\n      0x00\n        /* \"@openzeppelin/contracts-upgradeable/token/ERC20/ERC20Upgradeable.sol\":11255:11280  allowance(owner, spender) */\n      tag_234\n        /* \"@openzeppelin/contracts-upgradeable/token/ERC20/ERC20Upgradeable.sol\":11265:11270  owner */\n      dup5\n        /* \"@openzeppelin/contracts-upgradeable/token/ERC20/ERC20Upgradeable.sol\":11272:11279  spender */\n      dup5\n        /* \"@openzeppelin/contracts-upgradeable/token/ERC20/ERC20Upgradeable.sol\":11255:11264  allowance */\n      tag_106\n        /* \"@openzeppelin/contracts-upgradeable/token/ERC20/ERC20Upgradeable.sol\":11255:11280  allowance(owner, spender) */\n      jump\t// in\n    tag_234:\n        /* \"@openzeppelin/contracts-upgradeable/token/ERC20/ERC20Upgradeable.sol\":11228:11280  uint256 currentAllowance = allowance(owner, spender) */\n      swap1\n      pop\n      not(0x00)\n        /* \"@openzeppelin/contracts-upgradeable/token/ERC20/ERC20Upgradeable.sol\":11294:11310  currentAllowance */\n      dup2\n        /* \"@openzeppelin/contracts-upgradeable/token/ERC20/ERC20Upgradeable.sol\":11294:11331  currentAllowance != type(uint256).max */\n      eq\n        /* \"@openzeppelin/contracts-upgradeable/token/ERC20/ERC20Upgradeable.sol\":11290:11533  if (currentAllowance != type(uint256).max) {... */\n      tag_239\n      jumpi\n        /* \"@openzeppelin/contracts-upgradeable/token/ERC20/ERC20Upgradeable.sol\":11375:11381  amount */\n      dup2\n        /* \"@openzeppelin/contracts-upgradeable/token/ERC20/ERC20Upgradeable.sol\":11355:11371  currentAllowance */\n      dup2\n        /* \"@openzeppelin/contracts-upgradeable/token/ERC20/ERC20Upgradeable.sol\":11355:11381  currentAllowance >= amount */\n      lt\n      iszero\n        /* \"@openzeppelin/contracts-upgradeable/token/ERC20/ERC20Upgradeable.sol\":11347:11415  require(currentAllowance >= amount, \"ERC20: insufficient allowance\") */\n      tag_236\n      jumpi\n      mload(0x40)\n      shl(0xe5, 0x461bcd)\n      dup2\n      mstore\n        /* \"#utility.yul\":10112:10114   */\n      0x20\n        /* \"@openzeppelin/contracts-upgradeable/token/ERC20/ERC20Upgradeable.sol\":11347:11415  require(currentAllowance >= amount, \"ERC20: insufficient allowance\") */\n      0x04\n      dup3\n      add\n        /* \"#utility.yul\":10094:10115   */\n      mstore\n        /* \"#utility.yul\":10151:10153   */\n      0x1d\n        /* \"#utility.yul\":10131:10149   */\n      0x24\n      dup3\n      add\n        /* \"#utility.yul\":10124:10154   */\n      mstore\n        /* \"#utility.yul\":10190:10221   */\n      0x45524332303a20696e73756666696369656e7420616c6c6f77616e6365000000\n        /* \"#utility.yul\":10170:10188   */\n      0x44\n      dup3\n      add\n        /* \"#utility.yul\":10163:10222   */\n      mstore\n        /* \"#utility.yul\":10239:10257   */\n      0x64\n      add\n        /* \"@openzeppelin/contracts-upgradeable/token/ERC20/ERC20Upgradeable.sol\":11347:11415  require(currentAllowance >= amount, \"ERC20: insufficient allowance\") */\n      tag_143\n        /* \"#utility.yul\":9910:10263   */\n      jump\n        /* \"@openzeppelin/contracts-upgradeable/token/ERC20/ERC20Upgradeable.sol\":11347:11415  require(currentAllowance >= amount, \"ERC20: insufficient allowance\") */\n    tag_236:\n        /* \"@openzeppelin/contracts-upgradeable/token/ERC20/ERC20Upgradeable.sol\":11457:11508  _approve(owner, spender, currentAllowance - amount) */\n      tag_239\n        /* \"@openzeppelin/contracts-upgradeable/token/ERC20/ERC20Upgradeable.sol\":11466:11471  owner */\n      dup5\n        /* \"@openzeppelin/contracts-upgradeable/token/ERC20/ERC20Upgradeable.sol\":11473:11480  spender */\n      dup5\n        /* \"@openzeppelin/contracts-upgradeable/token/ERC20/ERC20Upgradeable.sol\":11501:11507  amount */\n      dup5\n        /* \"@openzeppelin/contracts-upgradeable/token/ERC20/ERC20Upgradeable.sol\":11482:11498  currentAllowance */\n      dup5\n        /* \"@openzeppelin/contracts-upgradeable/token/ERC20/ERC20Upgradeable.sol\":11482:11507  currentAllowance - amount */\n      sub\n        /* \"@openzeppelin/contracts-upgradeable/token/ERC20/ERC20Upgradeable.sol\":11457:11465  _approve */\n      tag_128\n        /* \"@openzeppelin/contracts-upgradeable/token/ERC20/ERC20Upgradeable.sol\":11457:11508  _approve(owner, spender, currentAllowance - amount) */\n      jump\t// in\n    tag_239:\n        /* \"@openzeppelin/contracts-upgradeable/token/ERC20/ERC20Upgradeable.sol\":11218:11539  {... */\n      pop\n        /* \"@openzeppelin/contracts-upgradeable/token/ERC20/ERC20Upgradeable.sol\":11098:11539  function _spendAllowance(... */\n      pop\n      pop\n      pop\n      jump\t// out\n        /* \"@openzeppelin/contracts-upgradeable/token/ERC20/ERC20Upgradeable.sol\":7812:8463  function _transfer(... */\n    tag_135:\n      sub(shl(0xa0, 0x01), 0x01)\n        /* \"@openzeppelin/contracts-upgradeable/token/ERC20/ERC20Upgradeable.sol\":7938:7956  from != address(0) */\n      dup4\n      and\n        /* \"@openzeppelin/contracts-upgradeable/token/ERC20/ERC20Upgradeable.sol\":7930:7998  require(from != address(0), \"ERC20: transfer from the zero address\") */\n      tag_241\n      jumpi\n      mload(0x40)\n      shl(0xe5, 0x461bcd)\n      dup2\n      mstore\n        /* \"#utility.yul\":10470:10472   */\n      0x20\n        /* \"@openzeppelin/contracts-upgradeable/token/ERC20/ERC20Upgradeable.sol\":7930:7998  require(from != address(0), \"ERC20: transfer from the zero address\") */\n      0x04\n      dup3\n      add\n        /* \"#utility.yul\":10452:10473   */\n      mstore\n        /* \"#utility.yul\":10509:10511   */\n      0x25\n        /* \"#utility.yul\":10489:10507   */\n      0x24\n      dup3\n      add\n        /* \"#utility.yul\":10482:10512   */\n      mstore\n        /* \"#utility.yul\":10548:10582   */\n      0x45524332303a207472616e736665722066726f6d20746865207a65726f206164\n        /* \"#utility.yul\":10528:10546   */\n      0x44\n      dup3\n      add\n        /* \"#utility.yul\":10521:10583   */\n      mstore\n      shl(0xd8, 0x6472657373)\n        /* \"#utility.yul\":10599:10617   */\n      0x64\n      dup3\n      add\n        /* \"#utility.yul\":10592:10627   */\n      mstore\n        /* \"#utility.yul\":10644:10663   */\n      0x84\n      add\n        /* \"@openzeppelin/contracts-upgradeable/token/ERC20/ERC20Upgradeable.sol\":7930:7998  require(from != address(0), \"ERC20: transfer from the zero address\") */\n      tag_143\n        /* \"#utility.yul\":10268:10669   */\n      jump\n        /* \"@openzeppelin/contracts-upgradeable/token/ERC20/ERC20Upgradeable.sol\":7930:7998  require(from != address(0), \"ERC20: transfer from the zero address\") */\n    tag_241:\n      sub(shl(0xa0, 0x01), 0x01)\n        /* \"@openzeppelin/contracts-upgradeable/token/ERC20/ERC20Upgradeable.sol\":8016:8032  to != address(0) */\n      dup3\n      and\n        /* \"@openzeppelin/contracts-upgradeable/token/ERC20/ERC20Upgradeable.sol\":8008:8072  require(to != address(0), \"ERC20: transfer to the zero address\") */\n      tag_244\n      jumpi\n      mload(0x40)\n      shl(0xe5, 0x461bcd)\n      dup2\n      mstore\n        /* \"#utility.yul\":10876:10878   */\n      0x20\n        /* \"@openzeppelin/contracts-upgradeable/token/ERC20/ERC20Upgradeable.sol\":8008:8072  require(to != address(0), \"ERC20: transfer to the zero address\") */\n      0x04\n      dup3\n      add\n        /* \"#utility.yul\":10858:10879   */\n      mstore\n        /* \"#utility.yul\":10915:10917   */\n      0x23\n        /* \"#utility.yul\":10895:10913   */\n      0x24\n      dup3\n      add\n        /* \"#utility.yul\":10888:10918   */\n      mstore\n        /* \"#utility.yul\":10954:10988   */\n      0x45524332303a207472616e7366657220746f20746865207a65726f2061646472\n        /* \"#utility.yul\":10934:10952   */\n      0x44\n      dup3\n      add\n        /* \"#utility.yul\":10927:10989   */\n      mstore\n      shl(0xe8, 0x657373)\n        /* \"#utility.yul\":11005:11023   */\n      0x64\n      dup3\n      add\n        /* \"#utility.yul\":10998:11031   */\n      mstore\n        /* \"#utility.yul\":11048:11067   */\n      0x84\n      add\n        /* \"@openzeppelin/contracts-upgradeable/token/ERC20/ERC20Upgradeable.sol\":8008:8072  require(to != address(0), \"ERC20: transfer to the zero address\") */\n      tag_143\n        /* \"#utility.yul\":10674:11073   */\n      jump\n        /* \"@openzeppelin/contracts-upgradeable/token/ERC20/ERC20Upgradeable.sol\":8008:8072  require(to != address(0), \"ERC20: transfer to the zero address\") */\n    tag_244:\n      sub(shl(0xa0, 0x01), 0x01)\n        /* \"@openzeppelin/contracts-upgradeable/token/ERC20/ERC20Upgradeable.sol\":8154:8169  _balances[from] */\n      dup4\n      and\n        /* \"@openzeppelin/contracts-upgradeable/token/ERC20/ERC20Upgradeable.sol\":8132:8151  uint256 fromBalance */\n      0x00\n        /* \"@openzeppelin/contracts-upgradeable/token/ERC20/ERC20Upgradeable.sol\":8154:8169  _balances[from] */\n      swap1\n      dup2\n      mstore\n        /* \"@openzeppelin/contracts-upgradeable/token/ERC20/ERC20Upgradeable.sol\":8154:8163  _balances */\n      0x33\n        /* \"@openzeppelin/contracts-upgradeable/token/ERC20/ERC20Upgradeable.sol\":8154:8169  _balances[from] */\n      0x20\n      mstore\n      0x40\n      swap1\n      keccak256\n      sload\n        /* \"@openzeppelin/contracts-upgradeable/token/ERC20/ERC20Upgradeable.sol\":8187:8208  fromBalance >= amount */\n      dup2\n      dup2\n      lt\n      iszero\n        /* \"@openzeppelin/contracts-upgradeable/token/ERC20/ERC20Upgradeable.sol\":8179:8251  require(fromBalance >= amount, \"ERC20: transfer amount exceeds balance\") */\n      tag_249\n      jumpi\n      mload(0x40)\n      shl(0xe5, 0x461bcd)\n      dup2\n      mstore\n        /* \"#utility.yul\":11280:11282   */\n      0x20\n        /* \"@openzeppelin/contracts-upgradeable/token/ERC20/ERC20Upgradeable.sol\":8179:8251  require(fromBalance >= amount, \"ERC20: transfer amount exceeds balance\") */\n      0x04\n      dup3\n      add\n        /* \"#utility.yul\":11262:11283   */\n      mstore\n        /* \"#utility.yul\":11319:11321   */\n      0x26\n        /* \"#utility.yul\":11299:11317   */\n      0x24\n      dup3\n      add\n        /* \"#utility.yul\":11292:11322   */\n      mstore\n        /* \"#utility.yul\":11358:11392   */\n      0x45524332303a207472616e7366657220616d6f756e7420657863656564732062\n        /* \"#utility.yul\":11338:11356   */\n      0x44\n      dup3\n      add\n        /* \"#utility.yul\":11331:11393   */\n      mstore\n      shl(0xd0, 0x616c616e6365)\n        /* \"#utility.yul\":11409:11427   */\n      0x64\n      dup3\n      add\n        /* \"#utility.yul\":11402:11438   */\n      mstore\n        /* \"#utility.yul\":11455:11474   */\n      0x84\n      add\n        /* \"@openzeppelin/contracts-upgradeable/token/ERC20/ERC20Upgradeable.sol\":8179:8251  require(fromBalance >= amount, \"ERC20: transfer amount exceeds balance\") */\n      tag_143\n        /* \"#utility.yul\":11078:11480   */\n      jump\n        /* \"@openzeppelin/contracts-upgradeable/token/ERC20/ERC20Upgradeable.sol\":8179:8251  require(fromBalance >= amount, \"ERC20: transfer amount exceeds balance\") */\n    tag_249:\n      sub(shl(0xa0, 0x01), 0x01)\n        /* \"@openzeppelin/contracts-upgradeable/token/ERC20/ERC20Upgradeable.sol\":8285:8300  _balances[from] */\n      dup1\n      dup6\n      and\n      0x00\n      swap1\n      dup2\n      mstore\n        /* \"@openzeppelin/contracts-upgradeable/token/ERC20/ERC20Upgradeable.sol\":8285:8294  _balances */\n      0x33\n        /* \"@openzeppelin/contracts-upgradeable/token/ERC20/ERC20Upgradeable.sol\":8285:8300  _balances[from] */\n      0x20\n      mstore\n      0x40\n      dup1\n      dup3\n      keccak256\n        /* \"@openzeppelin/contracts-upgradeable/token/ERC20/ERC20Upgradeable.sol\":8303:8323  fromBalance - amount */\n      dup6\n      dup6\n      sub\n        /* \"@openzeppelin/contracts-upgradeable/token/ERC20/ERC20Upgradeable.sol\":8285:8323  _balances[from] = fromBalance - amount */\n      swap1\n      sstore\n        /* \"@openzeppelin/contracts-upgradeable/token/ERC20/ERC20Upgradeable.sol\":8343:8356  _balances[to] */\n      swap2\n      dup6\n      and\n      dup2\n      mstore\n      swap1\n      dup2\n      keccak256\n        /* \"@openzeppelin/contracts-upgradeable/token/ERC20/ERC20Upgradeable.sol\":8343:8366  _balances[to] += amount */\n      dup1\n      sload\n        /* \"@openzeppelin/contracts-upgradeable/token/ERC20/ERC20Upgradeable.sol\":8317:8323  amount */\n      dup5\n      swap3\n        /* \"@openzeppelin/contracts-upgradeable/token/ERC20/ERC20Upgradeable.sol\":8285:8300  _balances[from] */\n      swap1\n        /* \"@openzeppelin/contracts-upgradeable/token/ERC20/ERC20Upgradeable.sol\":8343:8366  _balances[to] += amount */\n      tag_252\n      swap1\n        /* \"@openzeppelin/contracts-upgradeable/token/ERC20/ERC20Upgradeable.sol\":8317:8323  amount */\n      dup5\n      swap1\n        /* \"@openzeppelin/contracts-upgradeable/token/ERC20/ERC20Upgradeable.sol\":8343:8366  _balances[to] += amount */\n      tag_165\n      jump\t// in\n    tag_252:\n      swap3\n      pop\n      pop\n      dup2\n      swap1\n      sstore\n      pop\n        /* \"@openzeppelin/contracts-upgradeable/token/ERC20/ERC20Upgradeable.sol\":8397:8399  to */\n      dup3\n      sub(shl(0xa0, 0x01), 0x01)\n        /* \"@openzeppelin/contracts-upgradeable/token/ERC20/ERC20Upgradeable.sol\":8382:8408  Transfer(from, to, amount) */\n      and\n        /* \"@openzeppelin/contracts-upgradeable/token/ERC20/ERC20Upgradeable.sol\":8391:8395  from */\n      dup5\n      sub(shl(0xa0, 0x01), 0x01)\n        /* \"@openzeppelin/contracts-upgradeable/token/ERC20/ERC20Upgradeable.sol\":8382:8408  Transfer(from, to, amount) */\n      and\n      0xddf252ad1be2c89b69c2b068fc378daa952ba7f163c4a11628f55a4df523b3ef\n        /* \"@openzeppelin/contracts-upgradeable/token/ERC20/ERC20Upgradeable.sol\":8401:8407  amount */\n      dup5\n        /* \"@openzeppelin/contracts-upgradeable/token/ERC20/ERC20Upgradeable.sol\":8382:8408  Transfer(from, to, amount) */\n      mload(0x40)\n      tag_253\n      swap2\n        /* \"#utility.yul\":1582:1607   */\n      dup2\n      mstore\n        /* \"#utility.yul\":1570:1572   */\n      0x20\n        /* \"#utility.yul\":1555:1573   */\n      add\n      swap1\n        /* \"#utility.yul\":1436:1613   */\n      jump\n        /* \"@openzeppelin/contracts-upgradeable/token/ERC20/ERC20Upgradeable.sol\":8382:8408  Transfer(from, to, amount) */\n    tag_253:\n      mload(0x40)\n      dup1\n      swap2\n      sub\n      swap1\n      log3\n        /* \"@openzeppelin/contracts-upgradeable/token/ERC20/ERC20Upgradeable.sol\":8419:8456  _afterTokenTransfer(from, to, amount) */\n      tag_239\n        /* \"@openzeppelin/contracts-upgradeable/token/ERC20/ERC20Upgradeable.sol\":12123:12244  function _beforeTokenTransfer(... */\n      jump\n        /* \"@openzeppelin/contracts-upgradeable/access/OwnableUpgradeable.sol\":1003:1098  function __Ownable_init() internal onlyInitializing {... */\n    tag_148:\n        /* \"@openzeppelin/contracts-upgradeable/proxy/utils/Initializable.sol\":4910:4923  _initializing */\n      sload(0x00)\n      0x0100\n      swap1\n      div\n      0xff\n      and\n        /* \"@openzeppelin/contracts-upgradeable/proxy/utils/Initializable.sol\":4902:4971  require(_initializing, \"Initializable: contract is not initializing\") */\n      tag_258\n      jumpi\n      mload(0x40)\n      shl(0xe5, 0x461bcd)\n      dup2\n      mstore\n      0x04\n      add\n      tag_143\n      swap1\n      tag_260\n      jump\t// in\n    tag_258:\n        /* \"@openzeppelin/contracts-upgradeable/access/OwnableUpgradeable.sol\":1065:1091  __Ownable_init_unchained() */\n      tag_184\n        /* \"@openzeppelin/contracts-upgradeable/access/OwnableUpgradeable.sol\":1065:1089  __Ownable_init_unchained */\n      tag_263\n        /* \"@openzeppelin/contracts-upgradeable/access/OwnableUpgradeable.sol\":1065:1091  __Ownable_init_unchained() */\n      jump\t// in\n        /* \"@openzeppelin/contracts-upgradeable/token/ERC20/ERC20Upgradeable.sol\":2116:2263  function __ERC20_init(string memory name_, string memory symbol_) internal onlyInitializing {... */\n    tag_150:\n        /* \"@openzeppelin/contracts-upgradeable/proxy/utils/Initializable.sol\":4910:4923  _initializing */\n      sload(0x00)\n      0x0100\n      swap1\n      div\n      0xff\n      and\n        /* \"@openzeppelin/contracts-upgradeable/proxy/utils/Initializable.sol\":4902:4971  require(_initializing, \"Initializable: contract is not initializing\") */\n      tag_265\n      jumpi\n      mload(0x40)\n      shl(0xe5, 0x461bcd)\n      dup2\n      mstore\n      0x04\n      add\n      tag_143\n      swap1\n      tag_260\n      jump\t// in\n    tag_265:\n        /* \"@openzeppelin/contracts-upgradeable/token/ERC20/ERC20Upgradeable.sol\":2218:2256  __ERC20_init_unchained(name_, symbol_) */\n      tag_268\n        /* \"@openzeppelin/contracts-upgradeable/token/ERC20/ERC20Upgradeable.sol\":2241:2246  name_ */\n      dup3\n        /* \"@openzeppelin/contracts-upgradeable/token/ERC20/ERC20Upgradeable.sol\":2248:2255  symbol_ */\n      dup3\n        /* \"@openzeppelin/contracts-upgradeable/token/ERC20/ERC20Upgradeable.sol\":2218:2240  __ERC20_init_unchained */\n      tag_269\n        /* \"@openzeppelin/contracts-upgradeable/token/ERC20/ERC20Upgradeable.sol\":2218:2256  __ERC20_init_unchained(name_, symbol_) */\n      jump\t// in\n    tag_268:\n        /* \"@openzeppelin/contracts-upgradeable/token/ERC20/ERC20Upgradeable.sol\":2116:2263  function __ERC20_init(string memory name_, string memory symbol_) internal onlyInitializing {... */\n      pop\n      pop\n      jump\t// out\n        /* \"@openzeppelin/contracts-upgradeable/token/ERC20/ERC20Upgradeable.sol\":8739:9128  function _mint(address account, uint256 amount) internal virtual {... */\n    tag_155:\n      sub(shl(0xa0, 0x01), 0x01)\n        /* \"@openzeppelin/contracts-upgradeable/token/ERC20/ERC20Upgradeable.sol\":8822:8843  account != address(0) */\n      dup3\n      and\n        /* \"@openzeppelin/contracts-upgradeable/token/ERC20/ERC20Upgradeable.sol\":8814:8879  require(account != address(0), \"ERC20: mint to the zero address\") */\n      tag_271\n      jumpi\n      mload(0x40)\n      shl(0xe5, 0x461bcd)\n      dup2\n      mstore\n        /* \"#utility.yul\":12099:12101   */\n      0x20\n        /* \"@openzeppelin/contracts-upgradeable/token/ERC20/ERC20Upgradeable.sol\":8814:8879  require(account != address(0), \"ERC20: mint to the zero address\") */\n      0x04\n      dup3\n      add\n        /* \"#utility.yul\":12081:12102   */\n      mstore\n        /* \"#utility.yul\":12138:12140   */\n      0x1f\n        /* \"#utility.yul\":12118:12136   */\n      0x24\n      dup3\n      add\n        /* \"#utility.yul\":12111:12141   */\n      mstore\n        /* \"#utility.yul\":12177:12210   */\n      0x45524332303a206d696e7420746f20746865207a65726f206164647265737300\n        /* \"#utility.yul\":12157:12175   */\n      0x44\n      dup3\n      add\n        /* \"#utility.yul\":12150:12211   */\n      mstore\n        /* \"#utility.yul\":12228:12246   */\n      0x64\n      add\n        /* \"@openzeppelin/contracts-upgradeable/token/ERC20/ERC20Upgradeable.sol\":8814:8879  require(account != address(0), \"ERC20: mint to the zero address\") */\n      tag_143\n        /* \"#utility.yul\":11897:12252   */\n      jump\n        /* \"@openzeppelin/contracts-upgradeable/token/ERC20/ERC20Upgradeable.sol\":8814:8879  require(account != address(0), \"ERC20: mint to the zero address\") */\n    tag_271:\n        /* \"@openzeppelin/contracts-upgradeable/token/ERC20/ERC20Upgradeable.sol\":8966:8972  amount */\n      dup1\n        /* \"@openzeppelin/contracts-upgradeable/token/ERC20/ERC20Upgradeable.sol\":8950:8962  _totalSupply */\n      0x35\n      0x00\n        /* \"@openzeppelin/contracts-upgradeable/token/ERC20/ERC20Upgradeable.sol\":8950:8972  _totalSupply += amount */\n      dup3\n      dup3\n      sload\n      tag_275\n      swap2\n      swap1\n      tag_165\n      jump\t// in\n    tag_275:\n      swap1\n      swap2\n      sstore\n      pop\n      pop\n      sub(shl(0xa0, 0x01), 0x01)\n        /* \"@openzeppelin/contracts-upgradeable/token/ERC20/ERC20Upgradeable.sol\":8982:9000  _balances[account] */\n      dup3\n      and\n      0x00\n      swap1\n      dup2\n      mstore\n        /* \"@openzeppelin/contracts-upgradeable/token/ERC20/ERC20Upgradeable.sol\":8982:8991  _balances */\n      0x33\n        /* \"@openzeppelin/contracts-upgradeable/token/ERC20/ERC20Upgradeable.sol\":8982:9000  _balances[account] */\n      0x20\n      mstore\n      0x40\n      dup2\n      keccak256\n        /* \"@openzeppelin/contracts-upgradeable/token/ERC20/ERC20Upgradeable.sol\":8982:9010  _balances[account] += amount */\n      dup1\n      sload\n        /* \"@openzeppelin/contracts-upgradeable/token/ERC20/ERC20Upgradeable.sol\":9004:9010  amount */\n      dup4\n      swap3\n        /* \"@openzeppelin/contracts-upgradeable/token/ERC20/ERC20Upgradeable.sol\":8982:9000  _balances[account] */\n      swap1\n        /* \"@openzeppelin/contracts-upgradeable/token/ERC20/ERC20Upgradeable.sol\":8982:9010  _balances[account] += amount */\n      tag_276\n      swap1\n        /* \"@openzeppelin/contracts-upgradeable/token/ERC20/ERC20Upgradeable.sol\":9004:9010  amount */\n      dup5\n      swap1\n        /* \"@openzeppelin/contracts-upgradeable/token/ERC20/ERC20Upgradeable.sol\":8982:9010  _balances[account] += amount */\n      tag_165\n      jump\t// in\n    tag_276:\n      swap1\n      swap2\n      sstore\n      pop\n      pop\n        /* \"@openzeppelin/contracts-upgradeable/token/ERC20/ERC20Upgradeable.sol\":9025:9062  Transfer(address(0), account, amount) */\n      mload(0x40)\n        /* \"#utility.yul\":1582:1607   */\n      dup2\n      dup2\n      mstore\n      sub(shl(0xa0, 0x01), 0x01)\n        /* \"@openzeppelin/contracts-upgradeable/token/ERC20/ERC20Upgradeable.sol\":9025:9062  Transfer(address(0), account, amount) */\n      dup4\n      and\n      swap1\n        /* \"@openzeppelin/contracts-upgradeable/token/ERC20/ERC20Upgradeable.sol\":9042:9043  0 */\n      0x00\n      swap1\n        /* \"@openzeppelin/contracts-upgradeable/token/ERC20/ERC20Upgradeable.sol\":9025:9062  Transfer(address(0), account, amount) */\n      0xddf252ad1be2c89b69c2b068fc378daa952ba7f163c4a11628f55a4df523b3ef\n      swap1\n        /* \"#utility.yul\":1570:1572   */\n      0x20\n        /* \"#utility.yul\":1555:1573   */\n      add\n        /* \"@openzeppelin/contracts-upgradeable/token/ERC20/ERC20Upgradeable.sol\":9025:9062  Transfer(address(0), account, amount) */\n      mload(0x40)\n      dup1\n      swap2\n      sub\n      swap1\n      log3\n        /* \"@openzeppelin/contracts-upgradeable/token/ERC20/ERC20Upgradeable.sol\":2116:2263  function __ERC20_init(string memory name_, string memory symbol_) internal onlyInitializing {... */\n      pop\n      pop\n      jump\t// out\n        /* \"contracts/Detake3Token.sol\":1268:1502  function _transferWithBurn(address to, uint256 amount) private {... */\n    tag_178:\n        /* \"contracts/Detake3Token.sol\":1342:1357  uint256 burnAmt */\n      0x00\n        /* \"contracts/Detake3Token.sol\":1369:1376  _taxFee */\n      sload(0x9a)\n        /* \"contracts/Detake3Token.sol\":1360:1366  amount */\n      dup3\n        /* \"contracts/Detake3Token.sol\":1360:1376  amount / _taxFee */\n      tag_280\n      swap2\n      swap1\n      tag_281\n      jump\t// in\n    tag_280:\n        /* \"contracts/Detake3Token.sol\":1342:1376  uint256 burnAmt = amount / _taxFee */\n      swap1\n      pop\n        /* \"contracts/Detake3Token.sol\":1387:1413  _burn(msg.sender, burnAmt) */\n      tag_282\n        /* \"contracts/Detake3Token.sol\":1393:1403  msg.sender */\n      caller\n        /* \"contracts/Detake3Token.sol\":1405:1412  burnAmt */\n      dup3\n        /* \"contracts/Detake3Token.sol\":1387:1392  _burn */\n      tag_283\n        /* \"contracts/Detake3Token.sol\":1387:1413  _burn(msg.sender, burnAmt) */\n      jump\t// in\n    tag_282:\n        /* \"contracts/Detake3Token.sol\":1424:1438  uint256 newAmt */\n      0x00\n        /* \"contracts/Detake3Token.sol\":1441:1457  amount - burnAmt */\n      tag_284\n        /* \"contracts/Detake3Token.sol\":1450:1457  burnAmt */\n      dup3\n        /* \"contracts/Detake3Token.sol\":1441:1447  amount */\n      dup5\n        /* \"contracts/Detake3Token.sol\":1441:1457  amount - burnAmt */\n      tag_285\n      jump\t// in\n    tag_284:\n        /* \"contracts/Detake3Token.sol\":1424:1457  uint256 newAmt = amount - burnAmt */\n      swap1\n      pop\n        /* \"contracts/Detake3Token.sol\":1468:1494  super.transfer(to, newAmt) */\n      tag_286\n        /* \"contracts/Detake3Token.sol\":1483:1485  to */\n      dup5\n        /* \"contracts/Detake3Token.sol\":1487:1493  newAmt */\n      dup3\n        /* \"contracts/Detake3Token.sol\":1468:1482  super.transfer */\n      tag_98\n        /* \"contracts/Detake3Token.sol\":1468:1494  super.transfer(to, newAmt) */\n      jump\t// in\n    tag_286:\n      pop\n        /* \"contracts/Detake3Token.sol\":1331:1502  {... */\n      pop\n      pop\n        /* \"contracts/Detake3Token.sol\":1268:1502  function _transferWithBurn(address to, uint256 amount) private {... */\n      pop\n      pop\n      jump\t// out\n        /* \"@openzeppelin/contracts-upgradeable/access/OwnableUpgradeable.sol\":1599:1729  function _checkOwner() internal view virtual {... */\n    tag_182:\n        /* \"@openzeppelin/contracts-upgradeable/access/OwnableUpgradeable.sol\":1513:1519  _owner */\n      and(sub(shl(0xa0, 0x01), 0x01), sload(0x65))\n        /* \"@openzeppelin/contracts-upgradeable/utils/ContextUpgradeable.sol\":929:939  msg.sender */\n      caller\n        /* \"@openzeppelin/contracts-upgradeable/access/OwnableUpgradeable.sol\":1662:1685  owner() == _msgSender() */\n      eq\n        /* \"@openzeppelin/contracts-upgradeable/access/OwnableUpgradeable.sol\":1654:1722  require(owner() == _msgSender(), \"Ownable: caller is not the owner\") */\n      tag_184\n      jumpi\n      mload(0x40)\n      shl(0xe5, 0x461bcd)\n      dup2\n      mstore\n        /* \"#utility.yul\":12811:12813   */\n      0x20\n        /* \"@openzeppelin/contracts-upgradeable/access/OwnableUpgradeable.sol\":1654:1722  require(owner() == _msgSender(), \"Ownable: caller is not the owner\") */\n      0x04\n      dup3\n      add\n        /* \"#utility.yul\":12793:12814   */\n      dup2\n      swap1\n      mstore\n        /* \"#utility.yul\":12830:12848   */\n      0x24\n      dup3\n      add\n        /* \"#utility.yul\":12823:12853   */\n      mstore\n        /* \"#utility.yul\":12889:12923   */\n      0x4f776e61626c653a2063616c6c6572206973206e6f7420746865206f776e6572\n        /* \"#utility.yul\":12869:12887   */\n      0x44\n      dup3\n      add\n        /* \"#utility.yul\":12862:12924   */\n      mstore\n        /* \"#utility.yul\":12941:12959   */\n      0x64\n      add\n        /* \"@openzeppelin/contracts-upgradeable/access/OwnableUpgradeable.sol\":1654:1722  require(owner() == _msgSender(), \"Ownable: caller is not the owner\") */\n      tag_143\n        /* \"#utility.yul\":12609:12965   */\n      jump\n        /* \"@openzeppelin/contracts-upgradeable/access/OwnableUpgradeable.sol\":2673:2860  function _transferOwnership(address newOwner) internal virtual {... */\n    tag_185:\n        /* \"@openzeppelin/contracts-upgradeable/access/OwnableUpgradeable.sol\":2765:2771  _owner */\n      0x65\n      dup1\n      sload\n      sub(shl(0xa0, 0x01), 0x01)\n        /* \"@openzeppelin/contracts-upgradeable/access/OwnableUpgradeable.sol\":2781:2798  _owner = newOwner */\n      dup4\n      dup2\n      and\n      not(sub(shl(0xa0, 0x01), 0x01))\n      dup4\n      and\n      dup2\n      or\n      swap1\n      swap4\n      sstore\n        /* \"@openzeppelin/contracts-upgradeable/access/OwnableUpgradeable.sol\":2813:2853  OwnershipTransferred(oldOwner, newOwner) */\n      mload(0x40)\n        /* \"@openzeppelin/contracts-upgradeable/access/OwnableUpgradeable.sol\":2765:2771  _owner */\n      swap2\n      and\n      swap2\n        /* \"@openzeppelin/contracts-upgradeable/access/OwnableUpgradeable.sol\":2781:2798  _owner = newOwner */\n      swap1\n        /* \"@openzeppelin/contracts-upgradeable/access/OwnableUpgradeable.sol\":2765:2771  _owner */\n      dup3\n      swap1\n        /* \"@openzeppelin/contracts-upgradeable/access/OwnableUpgradeable.sol\":2813:2853  OwnershipTransferred(oldOwner, newOwner) */\n      0x8be0079c531659141344cd1fd0a4f28419497f9722a3daafe3b4186f6b6457e0\n      swap1\n        /* \"@openzeppelin/contracts-upgradeable/access/OwnableUpgradeable.sol\":2746:2762  address oldOwner */\n      0x00\n      swap1\n        /* \"@openzeppelin/contracts-upgradeable/access/OwnableUpgradeable.sol\":2813:2853  OwnershipTransferred(oldOwner, newOwner) */\n      log3\n        /* \"@openzeppelin/contracts-upgradeable/access/OwnableUpgradeable.sol\":2736:2860  {... */\n      pop\n        /* \"@openzeppelin/contracts-upgradeable/access/OwnableUpgradeable.sol\":2673:2860  function _transferOwnership(address newOwner) internal virtual {... */\n      pop\n      jump\t// out\n        /* \"contracts/Detake3Token.sol\":1976:2217  function _updateMap(... */\n    tag_199:\n        /* \"contracts/Detake3Token.sol\":2128:2136  uint64 i */\n      0x00\n        /* \"contracts/Detake3Token.sol\":2123:2210  for (uint64 i = 0; i < arr.length; i++) {... */\n    tag_295:\n        /* \"contracts/Detake3Token.sol\":2146:2149  arr */\n      dup4\n        /* \"contracts/Detake3Token.sol\":2146:2156  arr.length */\n      mload\n        /* \"contracts/Detake3Token.sol\":2142:2143  i */\n      dup2\n        /* \"contracts/Detake3Token.sol\":2142:2156  i < arr.length */\n      0xffffffffffffffff\n      and\n      lt\n        /* \"contracts/Detake3Token.sol\":2123:2210  for (uint64 i = 0; i < arr.length; i++) {... */\n      iszero\n      tag_239\n      jumpi\n        /* \"contracts/Detake3Token.sol\":2192:2198  status */\n      dup3\n        /* \"contracts/Detake3Token.sol\":2178:2181  map */\n      dup3\n        /* \"contracts/Detake3Token.sol\":2178:2189  map[arr[i]] */\n      0x00\n        /* \"contracts/Detake3Token.sol\":2182:2185  arr */\n      dup7\n        /* \"contracts/Detake3Token.sol\":2186:2187  i */\n      dup5\n        /* \"contracts/Detake3Token.sol\":2182:2188  arr[i] */\n      0xffffffffffffffff\n      and\n      dup2\n      mload\n      dup2\n      lt\n      tag_299\n      jumpi\n      tag_299\n      tag_300\n      jump\t// in\n    tag_299:\n      0x20\n      swap1\n      dup2\n      mul\n      swap2\n      swap1\n      swap2\n      add\n      dup2\n      add\n      mload\n      sub(shl(0xa0, 0x01), 0x01)\n        /* \"contracts/Detake3Token.sol\":2178:2189  map[arr[i]] */\n      and\n      dup3\n      mstore\n      dup2\n      add\n      swap2\n      swap1\n      swap2\n      mstore\n      0x40\n      add\n      0x00\n      keccak256\n        /* \"contracts/Detake3Token.sol\":2178:2198  map[arr[i]] = status */\n      dup1\n      sload\n      not(0xff)\n      and\n      swap2\n      iszero\n      iszero\n      swap2\n      swap1\n      swap2\n      or\n      swap1\n      sstore\n        /* \"contracts/Detake3Token.sol\":2158:2161  i++ */\n      dup1\n      tag_301\n      dup2\n      tag_302\n      jump\t// in\n    tag_301:\n      swap2\n      pop\n      pop\n        /* \"contracts/Detake3Token.sol\":2123:2210  for (uint64 i = 0; i < arr.length; i++) {... */\n      jump(tag_295)\n        /* \"@openzeppelin/contracts-upgradeable/token/ERC20/ERC20Upgradeable.sol\":12123:12244  function _beforeTokenTransfer(... */\n    tag_248:\n      pop\n      pop\n      pop\n      jump\t// out\n        /* \"@openzeppelin/contracts-upgradeable/access/OwnableUpgradeable.sol\":1104:1215  function __Ownable_init_unchained() internal onlyInitializing {... */\n    tag_263:\n        /* \"@openzeppelin/contracts-upgradeable/proxy/utils/Initializable.sol\":4910:4923  _initializing */\n      sload(0x00)\n      0x0100\n      swap1\n      div\n      0xff\n      and\n        /* \"@openzeppelin/contracts-upgradeable/proxy/utils/Initializable.sol\":4902:4971  require(_initializing, \"Initializable: contract is not initializing\") */\n      tag_306\n      jumpi\n      mload(0x40)\n      shl(0xe5, 0x461bcd)\n      dup2\n      mstore\n      0x04\n      add\n      tag_143\n      swap1\n      tag_260\n      jump\t// in\n    tag_306:\n        /* \"@openzeppelin/contracts-upgradeable/access/OwnableUpgradeable.sol\":1176:1208  _transferOwnership(_msgSender()) */\n      tag_184\n        /* \"@openzeppelin/contracts-upgradeable/utils/ContextUpgradeable.sol\":929:939  msg.sender */\n      caller\n        /* \"@openzeppelin/contracts-upgradeable/access/OwnableUpgradeable.sol\":1176:1194  _transferOwnership */\n      tag_185\n        /* \"@openzeppelin/contracts-upgradeable/access/OwnableUpgradeable.sol\":1176:1208  _transferOwnership(_msgSender()) */\n      jump\t// in\n        /* \"@openzeppelin/contracts-upgradeable/token/ERC20/ERC20Upgradeable.sol\":2269:2428  function __ERC20_init_unchained(string memory name_, string memory symbol_) internal onlyInitializing {... */\n    tag_269:\n        /* \"@openzeppelin/contracts-upgradeable/proxy/utils/Initializable.sol\":4910:4923  _initializing */\n      sload(0x00)\n      0x0100\n      swap1\n      div\n      0xff\n      and\n        /* \"@openzeppelin/contracts-upgradeable/proxy/utils/Initializable.sol\":4902:4971  require(_initializing, \"Initializable: contract is not initializing\") */\n      tag_312\n      jumpi\n      mload(0x40)\n      shl(0xe5, 0x461bcd)\n      dup2\n      mstore\n      0x04\n      add\n      tag_143\n      swap1\n      tag_260\n      jump\t// in\n    tag_312:\n        /* \"@openzeppelin/contracts-upgradeable/token/ERC20/ERC20Upgradeable.sol\":2381:2394  _name = name_ */\n      dup2\n      mload\n      tag_315\n      swap1\n        /* \"@openzeppelin/contracts-upgradeable/token/ERC20/ERC20Upgradeable.sol\":2381:2386  _name */\n      0x36\n      swap1\n        /* \"@openzeppelin/contracts-upgradeable/token/ERC20/ERC20Upgradeable.sol\":2381:2394  _name = name_ */\n      0x20\n      dup6\n      add\n      swap1\n      tag_152\n      jump\t// in\n    tag_315:\n      pop\n        /* \"@openzeppelin/contracts-upgradeable/token/ERC20/ERC20Upgradeable.sol\":2404:2421  _symbol = symbol_ */\n      dup1\n      mload\n      tag_248\n      swap1\n        /* \"@openzeppelin/contracts-upgradeable/token/ERC20/ERC20Upgradeable.sol\":2404:2411  _symbol */\n      0x37\n      swap1\n        /* \"@openzeppelin/contracts-upgradeable/token/ERC20/ERC20Upgradeable.sol\":2404:2421  _symbol = symbol_ */\n      0x20\n      dup5\n      add\n      swap1\n      tag_152\n      jump\t// in\n        /* \"@openzeppelin/contracts-upgradeable/token/ERC20/ERC20Upgradeable.sol\":9448:10024  function _burn(address account, uint256 amount) internal virtual {... */\n    tag_283:\n      sub(shl(0xa0, 0x01), 0x01)\n        /* \"@openzeppelin/contracts-upgradeable/token/ERC20/ERC20Upgradeable.sol\":9531:9552  account != address(0) */\n      dup3\n      and\n        /* \"@openzeppelin/contracts-upgradeable/token/ERC20/ERC20Upgradeable.sol\":9523:9590  require(account != address(0), \"ERC20: burn from the zero address\") */\n      tag_318\n      jumpi\n      mload(0x40)\n      shl(0xe5, 0x461bcd)\n      dup2\n      mstore\n        /* \"#utility.yul\":13518:13520   */\n      0x20\n        /* \"@openzeppelin/contracts-upgradeable/token/ERC20/ERC20Upgradeable.sol\":9523:9590  require(account != address(0), \"ERC20: burn from the zero address\") */\n      0x04\n      dup3\n      add\n        /* \"#utility.yul\":13500:13521   */\n      mstore\n        /* \"#utility.yul\":13557:13559   */\n      0x21\n        /* \"#utility.yul\":13537:13555   */\n      0x24\n      dup3\n      add\n        /* \"#utility.yul\":13530:13560   */\n      mstore\n        /* \"#utility.yul\":13596:13630   */\n      0x45524332303a206275726e2066726f6d20746865207a65726f20616464726573\n        /* \"#utility.yul\":13576:13594   */\n      0x44\n      dup3\n      add\n        /* \"#utility.yul\":13569:13631   */\n      mstore\n      shl(0xf8, 0x73)\n        /* \"#utility.yul\":13647:13665   */\n      0x64\n      dup3\n      add\n        /* \"#utility.yul\":13640:13671   */\n      mstore\n        /* \"#utility.yul\":13688:13707   */\n      0x84\n      add\n        /* \"@openzeppelin/contracts-upgradeable/token/ERC20/ERC20Upgradeable.sol\":9523:9590  require(account != address(0), \"ERC20: burn from the zero address\") */\n      tag_143\n        /* \"#utility.yul\":13316:13713   */\n      jump\n        /* \"@openzeppelin/contracts-upgradeable/token/ERC20/ERC20Upgradeable.sol\":9523:9590  require(account != address(0), \"ERC20: burn from the zero address\") */\n    tag_318:\n      sub(shl(0xa0, 0x01), 0x01)\n        /* \"@openzeppelin/contracts-upgradeable/token/ERC20/ERC20Upgradeable.sol\":9686:9704  _balances[account] */\n      dup3\n      and\n        /* \"@openzeppelin/contracts-upgradeable/token/ERC20/ERC20Upgradeable.sol\":9661:9683  uint256 accountBalance */\n      0x00\n        /* \"@openzeppelin/contracts-upgradeable/token/ERC20/ERC20Upgradeable.sol\":9686:9704  _balances[account] */\n      swap1\n      dup2\n      mstore\n        /* \"@openzeppelin/contracts-upgradeable/token/ERC20/ERC20Upgradeable.sol\":9686:9695  _balances */\n      0x33\n        /* \"@openzeppelin/contracts-upgradeable/token/ERC20/ERC20Upgradeable.sol\":9686:9704  _balances[account] */\n      0x20\n      mstore\n      0x40\n      swap1\n      keccak256\n      sload\n        /* \"@openzeppelin/contracts-upgradeable/token/ERC20/ERC20Upgradeable.sol\":9722:9746  accountBalance >= amount */\n      dup2\n      dup2\n      lt\n      iszero\n        /* \"@openzeppelin/contracts-upgradeable/token/ERC20/ERC20Upgradeable.sol\":9714:9785  require(accountBalance >= amount, \"ERC20: burn amount exceeds balance\") */\n      tag_322\n      jumpi\n      mload(0x40)\n      shl(0xe5, 0x461bcd)\n      dup2\n      mstore\n        /* \"#utility.yul\":13920:13922   */\n      0x20\n        /* \"@openzeppelin/contracts-upgradeable/token/ERC20/ERC20Upgradeable.sol\":9714:9785  require(accountBalance >= amount, \"ERC20: burn amount exceeds balance\") */\n      0x04\n      dup3\n      add\n        /* \"#utility.yul\":13902:13923   */\n      mstore\n        /* \"#utility.yul\":13959:13961   */\n      0x22\n        /* \"#utility.yul\":13939:13957   */\n      0x24\n      dup3\n      add\n        /* \"#utility.yul\":13932:13962   */\n      mstore\n        /* \"#utility.yul\":13998:14032   */\n      0x45524332303a206275726e20616d6f756e7420657863656564732062616c616e\n        /* \"#utility.yul\":13978:13996   */\n      0x44\n      dup3\n      add\n        /* \"#utility.yul\":13971:14033   */\n      mstore\n      shl(0xf0, 0x6365)\n        /* \"#utility.yul\":14049:14067   */\n      0x64\n      dup3\n      add\n        /* \"#utility.yul\":14042:14074   */\n      mstore\n        /* \"#utility.yul\":14091:14110   */\n      0x84\n      add\n        /* \"@openzeppelin/contracts-upgradeable/token/ERC20/ERC20Upgradeable.sol\":9714:9785  require(accountBalance >= amount, \"ERC20: burn amount exceeds balance\") */\n      tag_143\n        /* \"#utility.yul\":13718:14116   */\n      jump\n        /* \"@openzeppelin/contracts-upgradeable/token/ERC20/ERC20Upgradeable.sol\":9714:9785  require(accountBalance >= amount, \"ERC20: burn amount exceeds balance\") */\n    tag_322:\n      sub(shl(0xa0, 0x01), 0x01)\n        /* \"@openzeppelin/contracts-upgradeable/token/ERC20/ERC20Upgradeable.sol\":9819:9837  _balances[account] */\n      dup4\n      and\n      0x00\n      swap1\n      dup2\n      mstore\n        /* \"@openzeppelin/contracts-upgradeable/token/ERC20/ERC20Upgradeable.sol\":9819:9828  _balances */\n      0x33\n        /* \"@openzeppelin/contracts-upgradeable/token/ERC20/ERC20Upgradeable.sol\":9819:9837  _balances[account] */\n      0x20\n      mstore\n      0x40\n      dup2\n      keccak256\n        /* \"@openzeppelin/contracts-upgradeable/token/ERC20/ERC20Upgradeable.sol\":9840:9863  accountBalance - amount */\n      dup4\n      dup4\n      sub\n        /* \"@openzeppelin/contracts-upgradeable/token/ERC20/ERC20Upgradeable.sol\":9819:9863  _balances[account] = accountBalance - amount */\n      swap1\n      sstore\n        /* \"@openzeppelin/contracts-upgradeable/token/ERC20/ERC20Upgradeable.sol\":9883:9895  _totalSupply */\n      0x35\n        /* \"@openzeppelin/contracts-upgradeable/token/ERC20/ERC20Upgradeable.sol\":9883:9905  _totalSupply -= amount */\n      dup1\n      sload\n        /* \"@openzeppelin/contracts-upgradeable/token/ERC20/ERC20Upgradeable.sol\":9857:9863  amount */\n      dup5\n      swap3\n        /* \"@openzeppelin/contracts-upgradeable/token/ERC20/ERC20Upgradeable.sol\":9819:9837  _balances[account] */\n      swap1\n        /* \"@openzeppelin/contracts-upgradeable/token/ERC20/ERC20Upgradeable.sol\":9883:9905  _totalSupply -= amount */\n      tag_325\n      swap1\n        /* \"@openzeppelin/contracts-upgradeable/token/ERC20/ERC20Upgradeable.sol\":9857:9863  amount */\n      dup5\n      swap1\n        /* \"@openzeppelin/contracts-upgradeable/token/ERC20/ERC20Upgradeable.sol\":9883:9905  _totalSupply -= amount */\n      tag_285\n      jump\t// in\n    tag_325:\n      swap1\n      swap2\n      sstore\n      pop\n      pop\n        /* \"@openzeppelin/contracts-upgradeable/token/ERC20/ERC20Upgradeable.sol\":9921:9958  Transfer(account, address(0), amount) */\n      mload(0x40)\n        /* \"#utility.yul\":1582:1607   */\n      dup3\n      dup2\n      mstore\n        /* \"@openzeppelin/contracts-upgradeable/token/ERC20/ERC20Upgradeable.sol\":9947:9948  0 */\n      0x00\n      swap1\n      sub(shl(0xa0, 0x01), 0x01)\n        /* \"@openzeppelin/contracts-upgradeable/token/ERC20/ERC20Upgradeable.sol\":9921:9958  Transfer(account, address(0), amount) */\n      dup6\n      and\n      swap1\n      0xddf252ad1be2c89b69c2b068fc378daa952ba7f163c4a11628f55a4df523b3ef\n      swap1\n        /* \"#utility.yul\":1570:1572   */\n      0x20\n        /* \"#utility.yul\":1555:1573   */\n      add\n        /* \"@openzeppelin/contracts-upgradeable/token/ERC20/ERC20Upgradeable.sol\":9921:9958  Transfer(account, address(0), amount) */\n      mload(0x40)\n      dup1\n      swap2\n      sub\n      swap1\n      log3\n        /* \"@openzeppelin/contracts-upgradeable/token/ERC20/ERC20Upgradeable.sol\":12123:12244  function _beforeTokenTransfer(... */\n      pop\n      pop\n      pop\n      jump\t// out\n    tag_152:\n      dup3\n      dup1\n      sload\n      tag_328\n      swap1\n      tag_118\n      jump\t// in\n    tag_328:\n      swap1\n      0x00\n      mstore\n      keccak256(0x00, 0x20)\n      swap1\n      0x1f\n      add\n      0x20\n      swap1\n      div\n      dup2\n      add\n      swap3\n      dup3\n      tag_330\n      jumpi\n      0x00\n      dup6\n      sstore\n      jump(tag_333)\n    tag_330:\n      dup3\n      0x1f\n      lt\n      tag_331\n      jumpi\n      dup1\n      mload\n      not(0xff)\n      and\n      dup4\n      dup1\n      add\n      or\n      dup6\n      sstore\n      jump(tag_333)\n    tag_331:\n      dup3\n      dup1\n      add\n      0x01\n      add\n      dup6\n      sstore\n      dup3\n      iszero\n      tag_333\n      jumpi\n      swap2\n      dup3\n      add\n    tag_332:\n      dup3\n      dup2\n      gt\n      iszero\n      tag_333\n      jumpi\n      dup3\n      mload\n      dup3\n      sstore\n      swap2\n      0x20\n      add\n      swap2\n      swap1\n      0x01\n      add\n      swap1\n      jump(tag_332)\n    tag_333:\n      pop\n      tag_334\n      swap3\n      swap2\n      pop\n      tag_335\n      jump\t// in\n    tag_334:\n      pop\n      swap1\n      jump\t// out\n    tag_201:\n      pop\n      dup1\n      sload\n      0x00\n      dup3\n      sstore\n      swap1\n      0x00\n      mstore\n      keccak256(0x00, 0x20)\n      swap1\n      dup2\n      add\n      swap1\n      tag_204\n      swap2\n      swap1\n      tag_335\n      jump\t// in\n    tag_203:\n      dup3\n      dup1\n      sload\n      dup3\n      dup3\n      sstore\n      swap1\n      0x00\n      mstore\n      keccak256(0x00, 0x20)\n      swap1\n      dup2\n      add\n      swap3\n      dup3\n      iszero\n      tag_333\n      jumpi\n      swap2\n      0x20\n      mul\n      dup3\n      add\n    tag_339:\n      dup3\n      dup2\n      gt\n      iszero\n      tag_333\n      jumpi\n      dup3\n      mload\n      dup3\n      sload\n      not(sub(shl(0xa0, 0x01), 0x01))\n      and\n      sub(shl(0xa0, 0x01), 0x01)\n      swap1\n      swap2\n      and\n      or\n      dup3\n      sstore\n      0x20\n      swap1\n      swap3\n      add\n      swap2\n      0x01\n      swap1\n      swap2\n      add\n      swap1\n      jump(tag_339)\n    tag_335:\n    tag_342:\n      dup1\n      dup3\n      gt\n      iszero\n      tag_334\n      jumpi\n      0x00\n      dup2\n      sstore\n      0x01\n      add\n      jump(tag_342)\n        /* \"#utility.yul\":14:611   */\n    tag_31:\n        /* \"#utility.yul\":126:130   */\n      0x00\n        /* \"#utility.yul\":155:157   */\n      0x20\n        /* \"#utility.yul\":184:186   */\n      dup1\n        /* \"#utility.yul\":173:182   */\n      dup4\n        /* \"#utility.yul\":166:187   */\n      mstore\n        /* \"#utility.yul\":216:222   */\n      dup4\n        /* \"#utility.yul\":210:223   */\n      mload\n        /* \"#utility.yul\":259:265   */\n      dup1\n        /* \"#utility.yul\":254:256   */\n      dup3\n        /* \"#utility.yul\":243:252   */\n      dup6\n        /* \"#utility.yul\":239:257   */\n      add\n        /* \"#utility.yul\":232:266   */\n      mstore\n        /* \"#utility.yul\":284:285   */\n      0x00\n        /* \"#utility.yul\":294:434   */\n    tag_351:\n        /* \"#utility.yul\":308:314   */\n      dup2\n        /* \"#utility.yul\":305:306   */\n      dup2\n        /* \"#utility.yul\":302:315   */\n      lt\n        /* \"#utility.yul\":294:434   */\n      iszero\n      tag_353\n      jumpi\n        /* \"#utility.yul\":403:417   */\n      dup6\n      dup2\n      add\n        /* \"#utility.yul\":399:422   */\n      dup4\n      add\n        /* \"#utility.yul\":393:423   */\n      mload\n        /* \"#utility.yul\":369:386   */\n      dup6\n      dup3\n      add\n        /* \"#utility.yul\":388:390   */\n      0x40\n        /* \"#utility.yul\":365:391   */\n      add\n        /* \"#utility.yul\":358:424   */\n      mstore\n        /* \"#utility.yul\":323:333   */\n      dup3\n      add\n        /* \"#utility.yul\":294:434   */\n      jump(tag_351)\n    tag_353:\n        /* \"#utility.yul\":452:458   */\n      dup2\n        /* \"#utility.yul\":449:450   */\n      dup2\n        /* \"#utility.yul\":446:459   */\n      gt\n        /* \"#utility.yul\":443:534   */\n      iszero\n      tag_354\n      jumpi\n        /* \"#utility.yul\":522:523   */\n      0x00\n        /* \"#utility.yul\":517:519   */\n      0x40\n        /* \"#utility.yul\":508:514   */\n      dup4\n        /* \"#utility.yul\":497:506   */\n      dup8\n        /* \"#utility.yul\":493:515   */\n      add\n        /* \"#utility.yul\":489:520   */\n      add\n        /* \"#utility.yul\":482:524   */\n      mstore\n        /* \"#utility.yul\":443:534   */\n    tag_354:\n      pop\n        /* \"#utility.yul\":595:597   */\n      0x1f\n        /* \"#utility.yul\":574:589   */\n      add\n      not(0x1f)\n        /* \"#utility.yul\":570:599   */\n      and\n        /* \"#utility.yul\":555:600   */\n      swap3\n      swap1\n      swap3\n      add\n        /* \"#utility.yul\":602:604   */\n      0x40\n        /* \"#utility.yul\":551:605   */\n      add\n      swap4\n        /* \"#utility.yul\":14:611   */\n      swap3\n      pop\n      pop\n      pop\n      jump\t// out\n        /* \"#utility.yul\":616:789   */\n    tag_344:\n        /* \"#utility.yul\":684:704   */\n      dup1\n      calldataload\n      sub(shl(0xa0, 0x01), 0x01)\n        /* \"#utility.yul\":733:764   */\n      dup2\n      and\n        /* \"#utility.yul\":723:765   */\n      dup2\n      eq\n        /* \"#utility.yul\":713:783   */\n      tag_356\n      jumpi\n        /* \"#utility.yul\":779:780   */\n      0x00\n        /* \"#utility.yul\":776:777   */\n      dup1\n        /* \"#utility.yul\":769:781   */\n      revert\n        /* \"#utility.yul\":713:783   */\n    tag_356:\n        /* \"#utility.yul\":616:789   */\n      swap2\n      swap1\n      pop\n      jump\t// out\n        /* \"#utility.yul\":794:980   */\n    tag_34:\n        /* \"#utility.yul\":853:859   */\n      0x00\n        /* \"#utility.yul\":906:908   */\n      0x20\n        /* \"#utility.yul\":894:903   */\n      dup3\n        /* \"#utility.yul\":885:892   */\n      dup5\n        /* \"#utility.yul\":881:904   */\n      sub\n        /* \"#utility.yul\":877:909   */\n      slt\n        /* \"#utility.yul\":874:926   */\n      iszero\n      tag_358\n      jumpi\n        /* \"#utility.yul\":922:923   */\n      0x00\n        /* \"#utility.yul\":919:920   */\n      dup1\n        /* \"#utility.yul\":912:924   */\n      revert\n        /* \"#utility.yul\":874:926   */\n    tag_358:\n        /* \"#utility.yul\":945:974   */\n      tag_359\n        /* \"#utility.yul\":964:973   */\n      dup3\n        /* \"#utility.yul\":945:974   */\n      tag_344\n      jump\t// in\n    tag_359:\n        /* \"#utility.yul\":935:974   */\n      swap4\n        /* \"#utility.yul\":794:980   */\n      swap3\n      pop\n      pop\n      pop\n      jump\t// out\n        /* \"#utility.yul\":1177:1431   */\n    tag_40:\n        /* \"#utility.yul\":1245:1251   */\n      0x00\n        /* \"#utility.yul\":1253:1259   */\n      dup1\n        /* \"#utility.yul\":1306:1308   */\n      0x40\n        /* \"#utility.yul\":1294:1303   */\n      dup4\n        /* \"#utility.yul\":1285:1292   */\n      dup6\n        /* \"#utility.yul\":1281:1304   */\n      sub\n        /* \"#utility.yul\":1277:1309   */\n      slt\n        /* \"#utility.yul\":1274:1326   */\n      iszero\n      tag_362\n      jumpi\n        /* \"#utility.yul\":1322:1323   */\n      0x00\n        /* \"#utility.yul\":1319:1320   */\n      dup1\n        /* \"#utility.yul\":1312:1324   */\n      revert\n        /* \"#utility.yul\":1274:1326   */\n    tag_362:\n        /* \"#utility.yul\":1345:1374   */\n      tag_363\n        /* \"#utility.yul\":1364:1373   */\n      dup4\n        /* \"#utility.yul\":1345:1374   */\n      tag_344\n      jump\t// in\n    tag_363:\n        /* \"#utility.yul\":1335:1374   */\n      swap5\n        /* \"#utility.yul\":1421:1423   */\n      0x20\n        /* \"#utility.yul\":1406:1424   */\n      swap4\n      swap1\n      swap4\n      add\n        /* \"#utility.yul\":1393:1425   */\n      calldataload\n      swap4\n      pop\n      pop\n      pop\n        /* \"#utility.yul\":1177:1431   */\n      jump\t// out\n        /* \"#utility.yul\":1618:1946   */\n    tag_49:\n        /* \"#utility.yul\":1695:1701   */\n      0x00\n        /* \"#utility.yul\":1703:1709   */\n      dup1\n        /* \"#utility.yul\":1711:1717   */\n      0x00\n        /* \"#utility.yul\":1764:1766   */\n      0x60\n        /* \"#utility.yul\":1752:1761   */\n      dup5\n        /* \"#utility.yul\":1743:1750   */\n      dup7\n        /* \"#utility.yul\":1739:1762   */\n      sub\n        /* \"#utility.yul\":1735:1767   */\n      slt\n        /* \"#utility.yul\":1732:1784   */\n      iszero\n      tag_366\n      jumpi\n        /* \"#utility.yul\":1780:1781   */\n      0x00\n        /* \"#utility.yul\":1777:1778   */\n      dup1\n        /* \"#utility.yul\":1770:1782   */\n      revert\n        /* \"#utility.yul\":1732:1784   */\n    tag_366:\n        /* \"#utility.yul\":1803:1832   */\n      tag_367\n        /* \"#utility.yul\":1822:1831   */\n      dup5\n        /* \"#utility.yul\":1803:1832   */\n      tag_344\n      jump\t// in\n    tag_367:\n        /* \"#utility.yul\":1793:1832   */\n      swap3\n      pop\n        /* \"#utility.yul\":1851:1889   */\n      tag_368\n        /* \"#utility.yul\":1885:1887   */\n      0x20\n        /* \"#utility.yul\":1874:1883   */\n      dup6\n        /* \"#utility.yul\":1870:1888   */\n      add\n        /* \"#utility.yul\":1851:1889   */\n      tag_344\n      jump\t// in\n    tag_368:\n        /* \"#utility.yul\":1841:1889   */\n      swap2\n      pop\n        /* \"#utility.yul\":1936:1938   */\n      0x40\n        /* \"#utility.yul\":1925:1934   */\n      dup5\n        /* \"#utility.yul\":1921:1939   */\n      add\n        /* \"#utility.yul\":1908:1940   */\n      calldataload\n        /* \"#utility.yul\":1898:1940   */\n      swap1\n      pop\n        /* \"#utility.yul\":1618:1946   */\n      swap3\n      pop\n      swap3\n      pop\n      swap3\n      jump\t// out\n        /* \"#utility.yul\":1951:2078   */\n    tag_345:\n        /* \"#utility.yul\":2012:2022   */\n      0x4e487b71\n        /* \"#utility.yul\":2007:2010   */\n      0xe0\n        /* \"#utility.yul\":2003:2023   */\n      shl\n        /* \"#utility.yul\":2000:2001   */\n      0x00\n        /* \"#utility.yul\":1993:2024   */\n      mstore\n        /* \"#utility.yul\":2043:2047   */\n      0x41\n        /* \"#utility.yul\":2040:2041   */\n      0x04\n        /* \"#utility.yul\":2033:2048   */\n      mstore\n        /* \"#utility.yul\":2067:2071   */\n      0x24\n        /* \"#utility.yul\":2064:2065   */\n      0x00\n        /* \"#utility.yul\":2057:2072   */\n      revert\n        /* \"#utility.yul\":2083:2358   */\n    tag_346:\n        /* \"#utility.yul\":2154:2156   */\n      0x40\n        /* \"#utility.yul\":2148:2157   */\n      mload\n        /* \"#utility.yul\":2219:2221   */\n      0x1f\n        /* \"#utility.yul\":2200:2213   */\n      dup3\n      add\n      not(0x1f)\n        /* \"#utility.yul\":2196:2223   */\n      and\n        /* \"#utility.yul\":2184:2224   */\n      dup2\n      add\n        /* \"#utility.yul\":2254:2272   */\n      0xffffffffffffffff\n        /* \"#utility.yul\":2239:2273   */\n      dup2\n      gt\n        /* \"#utility.yul\":2275:2297   */\n      dup3\n      dup3\n      lt\n        /* \"#utility.yul\":2236:2298   */\n      or\n        /* \"#utility.yul\":2233:2321   */\n      iszero\n      tag_372\n      jumpi\n        /* \"#utility.yul\":2301:2319   */\n      tag_372\n      tag_345\n      jump\t// in\n    tag_372:\n        /* \"#utility.yul\":2337:2339   */\n      0x40\n        /* \"#utility.yul\":2330:2352   */\n      mstore\n        /* \"#utility.yul\":2083:2358   */\n      swap2\n      swap1\n      pop\n      jump\t// out\n        /* \"#utility.yul\":2363:2894   */\n    tag_347:\n        /* \"#utility.yul\":2406:2411   */\n      0x00\n        /* \"#utility.yul\":2459:2462   */\n      dup3\n        /* \"#utility.yul\":2452:2456   */\n      0x1f\n        /* \"#utility.yul\":2444:2450   */\n      dup4\n        /* \"#utility.yul\":2440:2457   */\n      add\n        /* \"#utility.yul\":2436:2463   */\n      slt\n        /* \"#utility.yul\":2426:2481   */\n      tag_374\n      jumpi\n        /* \"#utility.yul\":2477:2478   */\n      0x00\n        /* \"#utility.yul\":2474:2475   */\n      dup1\n        /* \"#utility.yul\":2467:2479   */\n      revert\n        /* \"#utility.yul\":2426:2481   */\n    tag_374:\n        /* \"#utility.yul\":2513:2519   */\n      dup2\n        /* \"#utility.yul\":2500:2520   */\n      calldataload\n        /* \"#utility.yul\":2539:2557   */\n      0xffffffffffffffff\n        /* \"#utility.yul\":2535:2537   */\n      dup2\n        /* \"#utility.yul\":2532:2558   */\n      gt\n        /* \"#utility.yul\":2529:2581   */\n      iszero\n      tag_376\n      jumpi\n        /* \"#utility.yul\":2561:2579   */\n      tag_376\n      tag_345\n      jump\t// in\n    tag_376:\n        /* \"#utility.yul\":2605:2660   */\n      tag_377\n        /* \"#utility.yul\":2648:2650   */\n      0x1f\n        /* \"#utility.yul\":2629:2642   */\n      dup3\n      add\n      not(0x1f)\n        /* \"#utility.yul\":2625:2652   */\n      and\n        /* \"#utility.yul\":2654:2658   */\n      0x20\n        /* \"#utility.yul\":2621:2659   */\n      add\n        /* \"#utility.yul\":2605:2660   */\n      tag_346\n      jump\t// in\n    tag_377:\n        /* \"#utility.yul\":2685:2687   */\n      dup2\n        /* \"#utility.yul\":2676:2683   */\n      dup2\n        /* \"#utility.yul\":2669:2688   */\n      mstore\n        /* \"#utility.yul\":2731:2734   */\n      dup5\n        /* \"#utility.yul\":2724:2728   */\n      0x20\n        /* \"#utility.yul\":2719:2721   */\n      dup4\n        /* \"#utility.yul\":2711:2717   */\n      dup7\n        /* \"#utility.yul\":2707:2722   */\n      add\n        /* \"#utility.yul\":2703:2729   */\n      add\n        /* \"#utility.yul\":2700:2735   */\n      gt\n        /* \"#utility.yul\":2697:2752   */\n      iszero\n      tag_378\n      jumpi\n        /* \"#utility.yul\":2748:2749   */\n      0x00\n        /* \"#utility.yul\":2745:2746   */\n      dup1\n        /* \"#utility.yul\":2738:2750   */\n      revert\n        /* \"#utility.yul\":2697:2752   */\n    tag_378:\n        /* \"#utility.yul\":2813:2815   */\n      dup2\n        /* \"#utility.yul\":2806:2810   */\n      0x20\n        /* \"#utility.yul\":2798:2804   */\n      dup6\n        /* \"#utility.yul\":2794:2811   */\n      add\n        /* \"#utility.yul\":2787:2791   */\n      0x20\n        /* \"#utility.yul\":2778:2785   */\n      dup4\n        /* \"#utility.yul\":2774:2792   */\n      add\n        /* \"#utility.yul\":2761:2816   */\n      calldatacopy\n        /* \"#utility.yul\":2861:2862   */\n      0x00\n        /* \"#utility.yul\":2836:2852   */\n      swap2\n      dup2\n      add\n        /* \"#utility.yul\":2854:2858   */\n      0x20\n        /* \"#utility.yul\":2832:2859   */\n      add\n        /* \"#utility.yul\":2825:2863   */\n      swap2\n      swap1\n      swap2\n      mstore\n        /* \"#utility.yul\":2840:2847   */\n      swap4\n        /* \"#utility.yul\":2363:2894   */\n      swap3\n      pop\n      pop\n      pop\n      jump\t// out\n        /* \"#utility.yul\":2899:3812   */\n    tag_54:\n        /* \"#utility.yul\":3021:3027   */\n      0x00\n        /* \"#utility.yul\":3029:3035   */\n      dup1\n        /* \"#utility.yul\":3037:3043   */\n      0x00\n        /* \"#utility.yul\":3045:3051   */\n      dup1\n        /* \"#utility.yul\":3053:3059   */\n      0x00\n        /* \"#utility.yul\":3061:3067   */\n      dup1\n        /* \"#utility.yul\":3114:3117   */\n      0xc0\n        /* \"#utility.yul\":3102:3111   */\n      dup8\n        /* \"#utility.yul\":3093:3100   */\n      dup10\n        /* \"#utility.yul\":3089:3112   */\n      sub\n        /* \"#utility.yul\":3085:3118   */\n      slt\n        /* \"#utility.yul\":3082:3135   */\n      iszero\n      tag_380\n      jumpi\n        /* \"#utility.yul\":3131:3132   */\n      0x00\n        /* \"#utility.yul\":3128:3129   */\n      dup1\n        /* \"#utility.yul\":3121:3133   */\n      revert\n        /* \"#utility.yul\":3082:3135   */\n    tag_380:\n        /* \"#utility.yul\":3171:3180   */\n      dup7\n        /* \"#utility.yul\":3158:3181   */\n      calldataload\n        /* \"#utility.yul\":3200:3218   */\n      0xffffffffffffffff\n        /* \"#utility.yul\":3241:3243   */\n      dup1\n        /* \"#utility.yul\":3233:3239   */\n      dup3\n        /* \"#utility.yul\":3230:3244   */\n      gt\n        /* \"#utility.yul\":3227:3261   */\n      iszero\n      tag_381\n      jumpi\n        /* \"#utility.yul\":3257:3258   */\n      0x00\n        /* \"#utility.yul\":3254:3255   */\n      dup1\n        /* \"#utility.yul\":3247:3259   */\n      revert\n        /* \"#utility.yul\":3227:3261   */\n    tag_381:\n        /* \"#utility.yul\":3280:3330   */\n      tag_382\n        /* \"#utility.yul\":3322:3329   */\n      dup11\n        /* \"#utility.yul\":3313:3319   */\n      dup4\n        /* \"#utility.yul\":3302:3311   */\n      dup12\n        /* \"#utility.yul\":3298:3320   */\n      add\n        /* \"#utility.yul\":3280:3330   */\n      tag_347\n      jump\t// in\n    tag_382:\n        /* \"#utility.yul\":3270:3330   */\n      swap8\n      pop\n        /* \"#utility.yul\":3383:3385   */\n      0x20\n        /* \"#utility.yul\":3372:3381   */\n      dup10\n        /* \"#utility.yul\":3368:3386   */\n      add\n        /* \"#utility.yul\":3355:3387   */\n      calldataload\n        /* \"#utility.yul\":3339:3387   */\n      swap2\n      pop\n        /* \"#utility.yul\":3412:3414   */\n      dup1\n        /* \"#utility.yul\":3402:3410   */\n      dup3\n        /* \"#utility.yul\":3399:3415   */\n      gt\n        /* \"#utility.yul\":3396:3432   */\n      iszero\n      tag_383\n      jumpi\n        /* \"#utility.yul\":3428:3429   */\n      0x00\n        /* \"#utility.yul\":3425:3426   */\n      dup1\n        /* \"#utility.yul\":3418:3430   */\n      revert\n        /* \"#utility.yul\":3396:3432   */\n    tag_383:\n      pop\n        /* \"#utility.yul\":3451:3503   */\n      tag_384\n        /* \"#utility.yul\":3495:3502   */\n      dup10\n        /* \"#utility.yul\":3484:3492   */\n      dup3\n        /* \"#utility.yul\":3473:3482   */\n      dup11\n        /* \"#utility.yul\":3469:3493   */\n      add\n        /* \"#utility.yul\":3451:3503   */\n      tag_347\n      jump\t// in\n    tag_384:\n        /* \"#utility.yul\":3441:3503   */\n      swap6\n      pop\n      pop\n        /* \"#utility.yul\":3553:3555   */\n      0x40\n        /* \"#utility.yul\":3542:3551   */\n      dup8\n        /* \"#utility.yul\":3538:3556   */\n      add\n        /* \"#utility.yul\":3525:3557   */\n      calldataload\n        /* \"#utility.yul\":3597:3601   */\n      0xff\n        /* \"#utility.yul\":3590:3595   */\n      dup2\n        /* \"#utility.yul\":3586:3602   */\n      and\n        /* \"#utility.yul\":3579:3584   */\n      dup2\n        /* \"#utility.yul\":3576:3603   */\n      eq\n        /* \"#utility.yul\":3566:3621   */\n      tag_385\n      jumpi\n        /* \"#utility.yul\":3617:3618   */\n      0x00\n        /* \"#utility.yul\":3614:3615   */\n      dup1\n        /* \"#utility.yul\":3607:3619   */\n      revert\n        /* \"#utility.yul\":3566:3621   */\n    tag_385:\n        /* \"#utility.yul\":3640:3645   */\n      swap4\n      pop\n        /* \"#utility.yul\":3692:3694   */\n      0x60\n        /* \"#utility.yul\":3677:3695   */\n      dup8\n      add\n        /* \"#utility.yul\":3664:3696   */\n      calldataload\n      swap3\n      pop\n        /* \"#utility.yul\":3743:3746   */\n      0x80\n        /* \"#utility.yul\":3728:3747   */\n      dup8\n      add\n        /* \"#utility.yul\":3715:3748   */\n      calldataload\n      swap2\n      pop\n        /* \"#utility.yul\":3767:3806   */\n      tag_386\n        /* \"#utility.yul\":3801:3804   */\n      0xa0\n        /* \"#utility.yul\":3786:3805   */\n      dup9\n      add\n        /* \"#utility.yul\":3767:3806   */\n      tag_344\n      jump\t// in\n    tag_386:\n        /* \"#utility.yul\":3757:3806   */\n      swap1\n      pop\n        /* \"#utility.yul\":2899:3812   */\n      swap3\n      swap6\n      pop\n      swap3\n      swap6\n      pop\n      swap3\n      swap6\n      jump\t// out\n        /* \"#utility.yul\":4006:4664   */\n    tag_70:\n        /* \"#utility.yul\":4177:4179   */\n      0x20\n        /* \"#utility.yul\":4229:4250   */\n      dup1\n      dup3\n      mstore\n        /* \"#utility.yul\":4299:4312   */\n      dup3\n      mload\n        /* \"#utility.yul\":4202:4220   */\n      dup3\n      dup3\n      add\n        /* \"#utility.yul\":4321:4343   */\n      dup2\n      swap1\n      mstore\n        /* \"#utility.yul\":4148:4152   */\n      0x00\n      swap2\n        /* \"#utility.yul\":4177:4179   */\n      swap1\n        /* \"#utility.yul\":4400:4415   */\n      dup5\n      dup3\n      add\n      swap1\n        /* \"#utility.yul\":4374:4376   */\n      0x40\n        /* \"#utility.yul\":4359:4377   */\n      dup6\n      add\n      swap1\n        /* \"#utility.yul\":4148:4152   */\n      dup5\n        /* \"#utility.yul\":4443:4638   */\n    tag_389:\n        /* \"#utility.yul\":4457:4463   */\n      dup2\n        /* \"#utility.yul\":4454:4455   */\n      dup2\n        /* \"#utility.yul\":4451:4464   */\n      lt\n        /* \"#utility.yul\":4443:4638   */\n      iszero\n      tag_391\n      jumpi\n        /* \"#utility.yul\":4522:4535   */\n      dup4\n      mload\n      sub(shl(0xa0, 0x01), 0x01)\n        /* \"#utility.yul\":4518:4557   */\n      and\n        /* \"#utility.yul\":4506:4558   */\n      dup4\n      mstore\n        /* \"#utility.yul\":4613:4628   */\n      swap3\n      dup5\n      add\n      swap3\n        /* \"#utility.yul\":4578:4590   */\n      swap2\n      dup5\n      add\n      swap2\n        /* \"#utility.yul\":4554:4555   */\n      0x01\n        /* \"#utility.yul\":4472:4481   */\n      add\n        /* \"#utility.yul\":4443:4638   */\n      jump(tag_389)\n    tag_391:\n      pop\n        /* \"#utility.yul\":4655:4658   */\n      swap1\n      swap7\n        /* \"#utility.yul\":4006:4664   */\n      swap6\n      pop\n      pop\n      pop\n      pop\n      pop\n      pop\n      jump\t// out\n        /* \"#utility.yul\":4669:5060   */\n    tag_73:\n        /* \"#utility.yul\":4755:4761   */\n      0x00\n        /* \"#utility.yul\":4763:4769   */\n      dup1\n        /* \"#utility.yul\":4771:4777   */\n      0x00\n        /* \"#utility.yul\":4779:4785   */\n      dup1\n        /* \"#utility.yul\":4832:4835   */\n      0x80\n        /* \"#utility.yul\":4820:4829   */\n      dup6\n        /* \"#utility.yul\":4811:4818   */\n      dup8\n        /* \"#utility.yul\":4807:4830   */\n      sub\n        /* \"#utility.yul\":4803:4836   */\n      slt\n        /* \"#utility.yul\":4800:4853   */\n      iszero\n      tag_393\n      jumpi\n        /* \"#utility.yul\":4849:4850   */\n      0x00\n        /* \"#utility.yul\":4846:4847   */\n      dup1\n        /* \"#utility.yul\":4839:4851   */\n      revert\n        /* \"#utility.yul\":4800:4853   */\n    tag_393:\n        /* \"#utility.yul\":4872:4901   */\n      tag_394\n        /* \"#utility.yul\":4891:4900   */\n      dup6\n        /* \"#utility.yul\":4872:4901   */\n      tag_344\n      jump\t// in\n    tag_394:\n        /* \"#utility.yul\":4862:4901   */\n      swap7\n        /* \"#utility.yul\":4948:4950   */\n      0x20\n        /* \"#utility.yul\":4933:4951   */\n      dup7\n      add\n        /* \"#utility.yul\":4920:4952   */\n      calldataload\n      swap7\n      pop\n        /* \"#utility.yul\":4999:5001   */\n      0x40\n        /* \"#utility.yul\":4984:5002   */\n      dup7\n      add\n        /* \"#utility.yul\":4971:5003   */\n      calldataload\n      swap6\n        /* \"#utility.yul\":5050:5052   */\n      0x60\n        /* \"#utility.yul\":5035:5053   */\n      add\n        /* \"#utility.yul\":5022:5054   */\n      calldataload\n      swap5\n      pop\n        /* \"#utility.yul\":4669:5060   */\n      swap3\n      pop\n      pop\n      pop\n      jump\t// out\n        /* \"#utility.yul\":5273:6225   */\n    tag_90:\n        /* \"#utility.yul\":5357:5363   */\n      0x00\n        /* \"#utility.yul\":5388:5390   */\n      0x20\n        /* \"#utility.yul\":5431:5433   */\n      dup1\n        /* \"#utility.yul\":5419:5428   */\n      dup4\n        /* \"#utility.yul\":5410:5417   */\n      dup6\n        /* \"#utility.yul\":5406:5429   */\n      sub\n        /* \"#utility.yul\":5402:5434   */\n      slt\n        /* \"#utility.yul\":5399:5451   */\n      iszero\n      tag_397\n      jumpi\n        /* \"#utility.yul\":5447:5448   */\n      0x00\n        /* \"#utility.yul\":5444:5445   */\n      dup1\n        /* \"#utility.yul\":5437:5449   */\n      revert\n        /* \"#utility.yul\":5399:5451   */\n    tag_397:\n        /* \"#utility.yul\":5487:5496   */\n      dup3\n        /* \"#utility.yul\":5474:5497   */\n      calldataload\n        /* \"#utility.yul\":5516:5534   */\n      0xffffffffffffffff\n        /* \"#utility.yul\":5557:5559   */\n      dup1\n        /* \"#utility.yul\":5549:5555   */\n      dup3\n        /* \"#utility.yul\":5546:5560   */\n      gt\n        /* \"#utility.yul\":5543:5577   */\n      iszero\n      tag_398\n      jumpi\n        /* \"#utility.yul\":5573:5574   */\n      0x00\n        /* \"#utility.yul\":5570:5571   */\n      dup1\n        /* \"#utility.yul\":5563:5575   */\n      revert\n        /* \"#utility.yul\":5543:5577   */\n    tag_398:\n        /* \"#utility.yul\":5611:5617   */\n      dup2\n        /* \"#utility.yul\":5600:5609   */\n      dup6\n        /* \"#utility.yul\":5596:5618   */\n      add\n        /* \"#utility.yul\":5586:5618   */\n      swap2\n      pop\n        /* \"#utility.yul\":5656:5663   */\n      dup6\n        /* \"#utility.yul\":5649:5653   */\n      0x1f\n        /* \"#utility.yul\":5645:5647   */\n      dup4\n        /* \"#utility.yul\":5641:5654   */\n      add\n        /* \"#utility.yul\":5637:5664   */\n      slt\n        /* \"#utility.yul\":5627:5682   */\n      tag_399\n      jumpi\n        /* \"#utility.yul\":5678:5679   */\n      0x00\n        /* \"#utility.yul\":5675:5676   */\n      dup1\n        /* \"#utility.yul\":5668:5680   */\n      revert\n        /* \"#utility.yul\":5627:5682   */\n    tag_399:\n        /* \"#utility.yul\":5714:5716   */\n      dup2\n        /* \"#utility.yul\":5701:5717   */\n      calldataload\n        /* \"#utility.yul\":5736:5738   */\n      dup2\n        /* \"#utility.yul\":5732:5734   */\n      dup2\n        /* \"#utility.yul\":5729:5739   */\n      gt\n        /* \"#utility.yul\":5726:5762   */\n      iszero\n      tag_401\n      jumpi\n        /* \"#utility.yul\":5742:5760   */\n      tag_401\n      tag_345\n      jump\t// in\n    tag_401:\n        /* \"#utility.yul\":5788:5790   */\n      dup1\n        /* \"#utility.yul\":5785:5786   */\n      0x05\n        /* \"#utility.yul\":5781:5791   */\n      shl\n        /* \"#utility.yul\":5771:5791   */\n      swap2\n      pop\n        /* \"#utility.yul\":5811:5839   */\n      tag_402\n        /* \"#utility.yul\":5835:5837   */\n      dup5\n        /* \"#utility.yul\":5831:5833   */\n      dup4\n        /* \"#utility.yul\":5827:5838   */\n      add\n        /* \"#utility.yul\":5811:5839   */\n      tag_346\n      jump\t// in\n    tag_402:\n        /* \"#utility.yul\":5873:5888   */\n      dup2\n      dup2\n      mstore\n        /* \"#utility.yul\":5943:5954   */\n      swap2\n      dup4\n      add\n        /* \"#utility.yul\":5939:5959   */\n      dup5\n      add\n      swap2\n        /* \"#utility.yul\":5904:5916   */\n      dup5\n      dup2\n      add\n      swap1\n        /* \"#utility.yul\":5971:5990   */\n      dup9\n      dup5\n      gt\n        /* \"#utility.yul\":5968:6007   */\n      iszero\n      tag_403\n      jumpi\n        /* \"#utility.yul\":6003:6004   */\n      0x00\n        /* \"#utility.yul\":6000:6001   */\n      dup1\n        /* \"#utility.yul\":5993:6005   */\n      revert\n        /* \"#utility.yul\":5968:6007   */\n    tag_403:\n        /* \"#utility.yul\":6027:6038   */\n      swap4\n      dup6\n      add\n      swap4\n        /* \"#utility.yul\":6047:6195   */\n    tag_404:\n        /* \"#utility.yul\":6063:6069   */\n      dup4\n        /* \"#utility.yul\":6058:6061   */\n      dup6\n        /* \"#utility.yul\":6055:6070   */\n      lt\n        /* \"#utility.yul\":6047:6195   */\n      iszero\n      tag_406\n      jumpi\n        /* \"#utility.yul\":6129:6152   */\n      tag_407\n        /* \"#utility.yul\":6148:6151   */\n      dup6\n        /* \"#utility.yul\":6129:6152   */\n      tag_344\n      jump\t// in\n    tag_407:\n        /* \"#utility.yul\":6117:6153   */\n      dup3\n      mstore\n        /* \"#utility.yul\":6080:6092   */\n      swap4\n      dup6\n      add\n      swap4\n        /* \"#utility.yul\":6173:6185   */\n      swap1\n      dup6\n      add\n      swap1\n        /* \"#utility.yul\":6047:6195   */\n      jump(tag_404)\n    tag_406:\n        /* \"#utility.yul\":6214:6219   */\n      swap9\n        /* \"#utility.yul\":5273:6225   */\n      swap8\n      pop\n      pop\n      pop\n      pop\n      pop\n      pop\n      pop\n      pop\n      jump\t// out\n        /* \"#utility.yul\":6230:6490   */\n    tag_105:\n        /* \"#utility.yul\":6298:6304   */\n      0x00\n        /* \"#utility.yul\":6306:6312   */\n      dup1\n        /* \"#utility.yul\":6359:6361   */\n      0x40\n        /* \"#utility.yul\":6347:6356   */\n      dup4\n        /* \"#utility.yul\":6338:6345   */\n      dup6\n        /* \"#utility.yul\":6334:6357   */\n      sub\n        /* \"#utility.yul\":6330:6362   */\n      slt\n        /* \"#utility.yul\":6327:6379   */\n      iszero\n      tag_409\n      jumpi\n        /* \"#utility.yul\":6375:6376   */\n      0x00\n        /* \"#utility.yul\":6372:6373   */\n      dup1\n        /* \"#utility.yul\":6365:6377   */\n      revert\n        /* \"#utility.yul\":6327:6379   */\n    tag_409:\n        /* \"#utility.yul\":6398:6427   */\n      tag_410\n        /* \"#utility.yul\":6417:6426   */\n      dup4\n        /* \"#utility.yul\":6398:6427   */\n      tag_344\n      jump\t// in\n    tag_410:\n        /* \"#utility.yul\":6388:6427   */\n      swap2\n      pop\n        /* \"#utility.yul\":6446:6484   */\n      tag_411\n        /* \"#utility.yul\":6480:6482   */\n      0x20\n        /* \"#utility.yul\":6469:6478   */\n      dup5\n        /* \"#utility.yul\":6465:6483   */\n      add\n        /* \"#utility.yul\":6446:6484   */\n      tag_344\n      jump\t// in\n    tag_411:\n        /* \"#utility.yul\":6436:6484   */\n      swap1\n      pop\n        /* \"#utility.yul\":6230:6490   */\n      swap3\n      pop\n      swap3\n      swap1\n      pop\n      jump\t// out\n        /* \"#utility.yul\":6495:6675   */\n    tag_113:\n        /* \"#utility.yul\":6554:6560   */\n      0x00\n        /* \"#utility.yul\":6607:6609   */\n      0x20\n        /* \"#utility.yul\":6595:6604   */\n      dup3\n        /* \"#utility.yul\":6586:6593   */\n      dup5\n        /* \"#utility.yul\":6582:6605   */\n      sub\n        /* \"#utility.yul\":6578:6610   */\n      slt\n        /* \"#utility.yul\":6575:6627   */\n      iszero\n      tag_413\n      jumpi\n        /* \"#utility.yul\":6623:6624   */\n      0x00\n        /* \"#utility.yul\":6620:6621   */\n      dup1\n        /* \"#utility.yul\":6613:6625   */\n      revert\n        /* \"#utility.yul\":6575:6627   */\n    tag_413:\n      pop\n        /* \"#utility.yul\":6646:6669   */\n      calldataload\n      swap2\n        /* \"#utility.yul\":6495:6675   */\n      swap1\n      pop\n      jump\t// out\n        /* \"#utility.yul\":6680:7060   */\n    tag_118:\n        /* \"#utility.yul\":6759:6760   */\n      0x01\n        /* \"#utility.yul\":6755:6767   */\n      dup2\n      dup2\n      shr\n      swap1\n        /* \"#utility.yul\":6802:6814   */\n      dup3\n      and\n      dup1\n        /* \"#utility.yul\":6823:6884   */\n      tag_415\n      jumpi\n        /* \"#utility.yul\":6877:6881   */\n      0x7f\n        /* \"#utility.yul\":6869:6875   */\n      dup3\n        /* \"#utility.yul\":6865:6882   */\n      and\n        /* \"#utility.yul\":6855:6882   */\n      swap2\n      pop\n        /* \"#utility.yul\":6823:6884   */\n    tag_415:\n        /* \"#utility.yul\":6930:6932   */\n      0x20\n        /* \"#utility.yul\":6922:6928   */\n      dup3\n        /* \"#utility.yul\":6919:6933   */\n      lt\n        /* \"#utility.yul\":6899:6917   */\n      dup2\n        /* \"#utility.yul\":6896:6934   */\n      eq\n        /* \"#utility.yul\":6893:7054   */\n      iszero\n      tag_416\n      jumpi\n        /* \"#utility.yul\":6976:6986   */\n      0x4e487b71\n        /* \"#utility.yul\":6971:6974   */\n      0xe0\n        /* \"#utility.yul\":6967:6987   */\n      shl\n        /* \"#utility.yul\":6964:6965   */\n      0x00\n        /* \"#utility.yul\":6957:6988   */\n      mstore\n        /* \"#utility.yul\":7011:7015   */\n      0x22\n        /* \"#utility.yul\":7008:7009   */\n      0x04\n        /* \"#utility.yul\":7001:7016   */\n      mstore\n        /* \"#utility.yul\":7039:7043   */\n      0x24\n        /* \"#utility.yul\":7036:7037   */\n      0x00\n        /* \"#utility.yul\":7029:7044   */\n      revert\n        /* \"#utility.yul\":6893:7054   */\n    tag_416:\n      pop\n        /* \"#utility.yul\":6680:7060   */\n      swap2\n      swap1\n      pop\n      jump\t// out\n        /* \"#utility.yul\":7679:7806   */\n    tag_348:\n        /* \"#utility.yul\":7740:7750   */\n      0x4e487b71\n        /* \"#utility.yul\":7735:7738   */\n      0xe0\n        /* \"#utility.yul\":7731:7751   */\n      shl\n        /* \"#utility.yul\":7728:7729   */\n      0x00\n        /* \"#utility.yul\":7721:7752   */\n      mstore\n        /* \"#utility.yul\":7771:7775   */\n      0x11\n        /* \"#utility.yul\":7768:7769   */\n      0x04\n        /* \"#utility.yul\":7761:7776   */\n      mstore\n        /* \"#utility.yul\":7795:7799   */\n      0x24\n        /* \"#utility.yul\":7792:7793   */\n      0x00\n        /* \"#utility.yul\":7785:7800   */\n      revert\n        /* \"#utility.yul\":7811:7939   */\n    tag_165:\n        /* \"#utility.yul\":7851:7854   */\n      0x00\n        /* \"#utility.yul\":7882:7883   */\n      dup3\n        /* \"#utility.yul\":7878:7884   */\n      not\n        /* \"#utility.yul\":7875:7876   */\n      dup3\n        /* \"#utility.yul\":7872:7885   */\n      gt\n        /* \"#utility.yul\":7869:7908   */\n      iszero\n      tag_422\n      jumpi\n        /* \"#utility.yul\":7888:7906   */\n      tag_422\n      tag_348\n      jump\t// in\n    tag_422:\n      pop\n        /* \"#utility.yul\":7924:7933   */\n      add\n      swap1\n        /* \"#utility.yul\":7811:7939   */\n      jump\t// out\n        /* \"#utility.yul\":11485:11892   */\n    tag_260:\n        /* \"#utility.yul\":11687:11689   */\n      0x20\n        /* \"#utility.yul\":11669:11690   */\n      dup1\n      dup3\n      mstore\n        /* \"#utility.yul\":11726:11728   */\n      0x2b\n        /* \"#utility.yul\":11706:11724   */\n      swap1\n      dup3\n      add\n        /* \"#utility.yul\":11699:11729   */\n      mstore\n        /* \"#utility.yul\":11765:11799   */\n      0x496e697469616c697a61626c653a20636f6e7472616374206973206e6f742069\n        /* \"#utility.yul\":11760:11762   */\n      0x40\n        /* \"#utility.yul\":11745:11763   */\n      dup3\n      add\n        /* \"#utility.yul\":11738:11800   */\n      mstore\n      shl(0xa8, 0x6e697469616c697a696e67)\n        /* \"#utility.yul\":11831:11833   */\n      0x60\n        /* \"#utility.yul\":11816:11834   */\n      dup3\n      add\n        /* \"#utility.yul\":11809:11850   */\n      mstore\n        /* \"#utility.yul\":11882:11885   */\n      0x80\n        /* \"#utility.yul\":11867:11886   */\n      add\n      swap1\n        /* \"#utility.yul\":11485:11892   */\n      jump\t// out\n        /* \"#utility.yul\":12257:12474   */\n    tag_281:\n        /* \"#utility.yul\":12297:12298   */\n      0x00\n        /* \"#utility.yul\":12323:12324   */\n      dup3\n        /* \"#utility.yul\":12313:12445   */\n      tag_435\n      jumpi\n        /* \"#utility.yul\":12367:12377   */\n      0x4e487b71\n        /* \"#utility.yul\":12362:12365   */\n      0xe0\n        /* \"#utility.yul\":12358:12378   */\n      shl\n        /* \"#utility.yul\":12355:12356   */\n      0x00\n        /* \"#utility.yul\":12348:12379   */\n      mstore\n        /* \"#utility.yul\":12402:12406   */\n      0x12\n        /* \"#utility.yul\":12399:12400   */\n      0x04\n        /* \"#utility.yul\":12392:12407   */\n      mstore\n        /* \"#utility.yul\":12430:12434   */\n      0x24\n        /* \"#utility.yul\":12427:12428   */\n      0x00\n        /* \"#utility.yul\":12420:12435   */\n      revert\n        /* \"#utility.yul\":12313:12445   */\n    tag_435:\n      pop\n        /* \"#utility.yul\":12459:12468   */\n      div\n      swap1\n        /* \"#utility.yul\":12257:12474   */\n      jump\t// out\n        /* \"#utility.yul\":12479:12604   */\n    tag_285:\n        /* \"#utility.yul\":12519:12523   */\n      0x00\n        /* \"#utility.yul\":12547:12548   */\n      dup3\n        /* \"#utility.yul\":12544:12545   */\n      dup3\n        /* \"#utility.yul\":12541:12549   */\n      lt\n        /* \"#utility.yul\":12538:12572   */\n      iszero\n      tag_438\n      jumpi\n        /* \"#utility.yul\":12552:12570   */\n      tag_438\n      tag_348\n      jump\t// in\n    tag_438:\n      pop\n        /* \"#utility.yul\":12589:12598   */\n      sub\n      swap1\n        /* \"#utility.yul\":12479:12604   */\n      jump\t// out\n        /* \"#utility.yul\":12970:13097   */\n    tag_300:\n        /* \"#utility.yul\":13031:13041   */\n      0x4e487b71\n        /* \"#utility.yul\":13026:13029   */\n      0xe0\n        /* \"#utility.yul\":13022:13042   */\n      shl\n        /* \"#utility.yul\":13019:13020   */\n      0x00\n        /* \"#utility.yul\":13012:13043   */\n      mstore\n        /* \"#utility.yul\":13062:13066   */\n      0x32\n        /* \"#utility.yul\":13059:13060   */\n      0x04\n        /* \"#utility.yul\":13052:13067   */\n      mstore\n        /* \"#utility.yul\":13086:13090   */\n      0x24\n        /* \"#utility.yul\":13083:13084   */\n      0x00\n        /* \"#utility.yul\":13076:13091   */\n      revert\n        /* \"#utility.yul\":13102:13311   */\n    tag_302:\n        /* \"#utility.yul\":13140:13143   */\n      0x00\n        /* \"#utility.yul\":13168:13186   */\n      0xffffffffffffffff\n        /* \"#utility.yul\":13221:13223   */\n      dup1\n        /* \"#utility.yul\":13214:13219   */\n      dup4\n        /* \"#utility.yul\":13210:13224   */\n      and\n        /* \"#utility.yul\":13248:13250   */\n      dup2\n        /* \"#utility.yul\":13239:13246   */\n      dup2\n        /* \"#utility.yul\":13236:13251   */\n      eq\n        /* \"#utility.yul\":13233:13274   */\n      iszero\n      tag_443\n      jumpi\n        /* \"#utility.yul\":13254:13272   */\n      tag_443\n      tag_348\n      jump\t// in\n    tag_443:\n        /* \"#utility.yul\":13303:13304   */\n      0x01\n        /* \"#utility.yul\":13290:13305   */\n      add\n      swap4\n        /* \"#utility.yul\":13102:13311   */\n      swap3\n      pop\n      pop\n      pop\n      jump\t// out\n\n    auxdata: 0xa2646970667358221220fd17e96138895d786446795db062db4024e697d3e09e8b837b851d4d79a428df64736f6c634300080b0033\n}\n",
				"bytecode": {
					"linkReferences": {},
					"object": "608060405234801561001057600080fd5b506116ca806100206000396000f3fe608060405234801561001057600080fd5b50600436106101425760003560e01c806370a08231116100b8578063a457c2d71161007c578063a457c2d7146102b2578063a9059cbb146102c5578063b722d0a5146102d8578063dd62ed3e146102e9578063f2fde38b146102fc578063f93422851461030f57600080fd5b806370a0823114610241578063715018a61461026a5780638da5cb5b1461027257806395d89b4114610297578063a37726621461029f57600080fd5b80632cd77a5a1161010a5780632cd77a5a146101d9578063313ce567146101ee57806339509351146101fd5780633b124fe71461021057806346f0975a1461021957806355b7dc671461022e57600080fd5b806306fdde031461014757806307c351dd14610165578063095ea7b3146101a157806318160ddd146101b457806323b872dd146101c6575b600080fd5b61014f610332565b60405161015c919061119b565b60405180910390f35b61019161017336600461120c565b6001600160a01b03166000908152609d602052604090205460ff1690565b604051901515815260200161015c565b6101916101af36600461122e565b6103c4565b6035545b60405190815260200161015c565b6101916101d4366004611258565b6103dc565b6101ec6101e736600461134b565b610400565b005b6040516012815260200161015c565b61019161020b36600461122e565b610587565b6101b8609a5481565b6102216105a9565b60405161015c91906113ea565b6101ec61023c366004611437565b61060a565b6101b861024f36600461120c565b6001600160a01b031660009081526033602052604090205490565b6101ec6106c2565b6065546001600160a01b03165b6040516001600160a01b03909116815260200161015c565b61014f6106d6565b6101ec6102ad366004611470565b6106e5565b6101916102c036600461122e565b610784565b6101916102d336600461122e565b6107ff565b609b546001600160a01b031661027f565b6101b86102f736600461151d565b61080d565b6101ec61030a36600461120c565b610838565b61019161031d366004611550565b609e6020526000908152604090205460ff1681565b60606036805461034190611569565b80601f016020809104026020016040519081016040528092919081815260200182805461036d90611569565b80156103ba5780601f1061038f576101008083540402835291602001916103ba565b820191906000526020600020905b81548152906001019060200180831161039d57829003601f168201915b5050505050905090565b6000336103d28185856108ae565b5060019392505050565b6000336103ea8582856109d2565b6103f5858585610a4c565b506001949350505050565b600054610100900460ff16158080156104205750600054600160ff909116105b8061043a5750303b15801561043a575060005460ff166001145b6104a25760405162461bcd60e51b815260206004820152602e60248201527f496e697469616c697a61626c653a20636f6e747261637420697320616c72656160448201526d191e481a5b9a5d1a585b1a5e995960921b60648201526084015b60405180910390fd5b6000805460ff1916600117905580156104c5576000805461ff0019166101001790555b6104cd610c1a565b6104d78787610c49565b86516104ea9060979060208a019061108f565b5085516104fe90609890602089019061108f565b506099805460ff191660ff8716179055609a839055609b80546001600160a01b0319166001600160a01b0384161790556105388285610c7e565b801561057e576000805461ff0019169055604051600181527f7f26b83ff96e1f2b6a682f133852f6798a09c465da95921460cefb38474024989060200160405180910390a15b50505050505050565b6000336103d281858561059a838361080d565b6105a491906115ba565b6108ae565b6060609c8054806020026020016040519081016040528092919081815260200182805480156103ba57602002820191906000526020600020905b81546001600160a01b031681526001909101906020018083116105e3575050505050905090565b6000838152609e602052604090205460ff161561065c5760405162461bcd60e51b815260206004820152601060248201526f556e697175652069642065786973747360801b6044820152606401610499565b3360006106716065546001600160a01b031690565b6000868152609e60205260409020805460ff1916600117905590506001600160a01b0382811690821614156106b0576106aa86856107ff565b506106ba565b6106ba8685610d5d565b505050505050565b6106ca610d98565b6106d46000610df2565b565b60606037805461034190611569565b6106ed610d98565b610754609c80548060200260200160405190810160405280929190818152602001828054801561074657602002820191906000526020600020905b81546001600160a01b03168152600190910190602001808311610728575b50505050506000609d610e44565b610760609c6000611113565b805161077390609c906020840190611131565b50610781816001609d610e44565b50565b60003381610792828661080d565b9050838110156107f25760405162461bcd60e51b815260206004820152602560248201527f45524332303a2064656372656173656420616c6c6f77616e63652062656c6f77604482015264207a65726f60d81b6064820152608401610499565b6103f582868684036108ae565b6000336103d2818585610a4c565b6001600160a01b03918216600090815260346020908152604080832093909416825291909152205490565b610840610d98565b6001600160a01b0381166108a55760405162461bcd60e51b815260206004820152602660248201527f4f776e61626c653a206e6577206f776e657220697320746865207a65726f206160448201526564647265737360d01b6064820152608401610499565b61078181610df2565b6001600160a01b0383166109105760405162461bcd60e51b8152602060048201526024808201527f45524332303a20617070726f76652066726f6d20746865207a65726f206164646044820152637265737360e01b6064820152608401610499565b6001600160a01b0382166109715760405162461bcd60e51b815260206004820152602260248201527f45524332303a20617070726f766520746f20746865207a65726f206164647265604482015261737360f01b6064820152608401610499565b6001600160a01b0383811660008181526034602090815260408083209487168084529482529182902085905590518481527f8c5be1e5ebec7d5bd14f71427d1e84f3dd0314c0f7b2291e5b200ac8c7c3b925910160405180910390a3505050565b60006109de848461080d565b90506000198114610a465781811015610a395760405162461bcd60e51b815260206004820152601d60248201527f45524332303a20696e73756666696369656e7420616c6c6f77616e63650000006044820152606401610499565b610a4684848484036108ae565b50505050565b6001600160a01b038316610ab05760405162461bcd60e51b815260206004820152602560248201527f45524332303a207472616e736665722066726f6d20746865207a65726f206164604482015264647265737360d81b6064820152608401610499565b6001600160a01b038216610b125760405162461bcd60e51b815260206004820152602360248201527f45524332303a207472616e7366657220746f20746865207a65726f206164647260448201526265737360e81b6064820152608401610499565b6001600160a01b03831660009081526033602052604090205481811015610b8a5760405162461bcd60e51b815260206004820152602660248201527f45524332303a207472616e7366657220616d6f756e7420657863656564732062604482015265616c616e636560d01b6064820152608401610499565b6001600160a01b03808516600090815260336020526040808220858503905591851681529081208054849290610bc19084906115ba565b92505081905550826001600160a01b0316846001600160a01b03167fddf252ad1be2c89b69c2b068fc378daa952ba7f163c4a11628f55a4df523b3ef84604051610c0d91815260200190565b60405180910390a3610a46565b600054610100900460ff16610c415760405162461bcd60e51b8152600401610499906115d2565b6106d4610ec3565b600054610100900460ff16610c705760405162461bcd60e51b8152600401610499906115d2565b610c7a8282610ef3565b5050565b6001600160a01b038216610cd45760405162461bcd60e51b815260206004820152601f60248201527f45524332303a206d696e7420746f20746865207a65726f2061646472657373006044820152606401610499565b8060356000828254610ce691906115ba565b90915550506001600160a01b03821660009081526033602052604081208054839290610d139084906115ba565b90915550506040518181526001600160a01b038316906000907fddf252ad1be2c89b69c2b068fc378daa952ba7f163c4a11628f55a4df523b3ef9060200160405180910390a35050565b6000609a5482610d6d919061161d565b9050610d793382610f41565b6000610d85828461163f565b9050610d9184826107ff565b5050505050565b6065546001600160a01b031633146106d45760405162461bcd60e51b815260206004820181905260248201527f4f776e61626c653a2063616c6c6572206973206e6f7420746865206f776e65726044820152606401610499565b606580546001600160a01b038381166001600160a01b0319831681179093556040519116919082907f8be0079c531659141344cd1fd0a4f28419497f9722a3daafe3b4186f6b6457e090600090a35050565b60005b83518167ffffffffffffffff161015610a465782826000868467ffffffffffffffff1681518110610e7a57610e7a611656565b6020908102919091018101516001600160a01b03168252810191909152604001600020805460ff191691151591909117905580610eb68161166c565b915050610e47565b505050565b600054610100900460ff16610eea5760405162461bcd60e51b8152600401610499906115d2565b6106d433610df2565b600054610100900460ff16610f1a5760405162461bcd60e51b8152600401610499906115d2565b8151610f2d90603690602085019061108f565b508051610ebe90603790602084019061108f565b6001600160a01b038216610fa15760405162461bcd60e51b815260206004820152602160248201527f45524332303a206275726e2066726f6d20746865207a65726f206164647265736044820152607360f81b6064820152608401610499565b6001600160a01b038216600090815260336020526040902054818110156110155760405162461bcd60e51b815260206004820152602260248201527f45524332303a206275726e20616d6f756e7420657863656564732062616c616e604482015261636560f01b6064820152608401610499565b6001600160a01b038316600090815260336020526040812083830390556035805484929061104490849061163f565b90915550506040518281526000906001600160a01b038516907fddf252ad1be2c89b69c2b068fc378daa952ba7f163c4a11628f55a4df523b3ef9060200160405180910390a3505050565b82805461109b90611569565b90600052602060002090601f0160209004810192826110bd5760008555611103565b82601f106110d657805160ff1916838001178555611103565b82800160010185558215611103579182015b828111156111035782518255916020019190600101906110e8565b5061110f929150611186565b5090565b50805460008255906000526020600020908101906107819190611186565b828054828255906000526020600020908101928215611103579160200282015b8281111561110357825182546001600160a01b0319166001600160a01b03909116178255602090920191600190910190611151565b5b8082111561110f5760008155600101611187565b600060208083528351808285015260005b818110156111c8578581018301518582016040015282016111ac565b818111156111da576000604083870101525b50601f01601f1916929092016040019392505050565b80356001600160a01b038116811461120757600080fd5b919050565b60006020828403121561121e57600080fd5b611227826111f0565b9392505050565b6000806040838503121561124157600080fd5b61124a836111f0565b946020939093013593505050565b60008060006060848603121561126d57600080fd5b611276846111f0565b9250611284602085016111f0565b9150604084013590509250925092565b634e487b7160e01b600052604160045260246000fd5b604051601f8201601f1916810167ffffffffffffffff811182821017156112d3576112d3611294565b604052919050565b600082601f8301126112ec57600080fd5b813567ffffffffffffffff81111561130657611306611294565b611319601f8201601f19166020016112aa565b81815284602083860101111561132e57600080fd5b816020850160208301376000918101602001919091529392505050565b60008060008060008060c0878903121561136457600080fd5b863567ffffffffffffffff8082111561137c57600080fd5b6113888a838b016112db565b9750602089013591508082111561139e57600080fd5b506113ab89828a016112db565b955050604087013560ff811681146113c257600080fd5b935060608701359250608087013591506113de60a088016111f0565b90509295509295509295565b6020808252825182820181905260009190848201906040850190845b8181101561142b5783516001600160a01b031683529284019291840191600101611406565b50909695505050505050565b6000806000806080858703121561144d57600080fd5b611456856111f0565b966020860135965060408601359560600135945092505050565b6000602080838503121561148357600080fd5b823567ffffffffffffffff8082111561149b57600080fd5b818501915085601f8301126114af57600080fd5b8135818111156114c1576114c1611294565b8060051b91506114d28483016112aa565b81815291830184019184810190888411156114ec57600080fd5b938501935b8385101561151157611502856111f0565b825293850193908501906114f1565b98975050505050505050565b6000806040838503121561153057600080fd5b611539836111f0565b9150611547602084016111f0565b90509250929050565b60006020828403121561156257600080fd5b5035919050565b600181811c9082168061157d57607f821691505b6020821081141561159e57634e487b7160e01b600052602260045260246000fd5b50919050565b634e487b7160e01b600052601160045260246000fd5b600082198211156115cd576115cd6115a4565b500190565b6020808252602b908201527f496e697469616c697a61626c653a20636f6e7472616374206973206e6f74206960408201526a6e697469616c697a696e6760a81b606082015260800190565b60008261163a57634e487b7160e01b600052601260045260246000fd5b500490565b600082821015611651576116516115a4565b500390565b634e487b7160e01b600052603260045260246000fd5b600067ffffffffffffffff8083168181141561168a5761168a6115a4565b600101939250505056fea2646970667358221220fd17e96138895d786446795db062db4024e697d3e09e8b837b851d4d79a428df64736f6c634300080b0033",
					"opcodes": "PUSH1 0x80 PUSH1 0x40 MSTORE CALLVALUE DUP1 ISZERO PUSH2 0x10 JUMPI PUSH1 0x0 DUP1 REVERT JUMPDEST POP PUSH2 0x16CA DUP1 PUSH2 0x20 PUSH1 0x0 CODECOPY PUSH1 0x0 RETURN INVALID PUSH1 0x80 PUSH1 0x40 MSTORE CALLVALUE DUP1 ISZERO PUSH2 0x10 JUMPI PUSH1 0x0 DUP1 REVERT JUMPDEST POP PUSH1 0x4 CALLDATASIZE LT PUSH2 0x142 JUMPI PUSH1 0x0 CALLDATALOAD PUSH1 0xE0 SHR DUP1 PUSH4 0x70A08231 GT PUSH2 0xB8 JUMPI DUP1 PUSH4 0xA457C2D7 GT PUSH2 0x7C JUMPI DUP1 PUSH4 0xA457C2D7 EQ PUSH2 0x2B2 JUMPI DUP1 PUSH4 0xA9059CBB EQ PUSH2 0x2C5 JUMPI DUP1 PUSH4 0xB722D0A5 EQ PUSH2 0x2D8 JUMPI DUP1 PUSH4 0xDD62ED3E EQ PUSH2 0x2E9 JUMPI DUP1 PUSH4 0xF2FDE38B EQ PUSH2 0x2FC JUMPI DUP1 PUSH4 0xF9342285 EQ PUSH2 0x30F JUMPI PUSH1 0x0 DUP1 REVERT JUMPDEST DUP1 PUSH4 0x70A08231 EQ PUSH2 0x241 JUMPI DUP1 PUSH4 0x715018A6 EQ PUSH2 0x26A JUMPI DUP1 PUSH4 0x8DA5CB5B EQ PUSH2 0x272 JUMPI DUP1 PUSH4 0x95D89B41 EQ PUSH2 0x297 JUMPI DUP1 PUSH4 0xA3772662 EQ PUSH2 0x29F JUMPI PUSH1 0x0 DUP1 REVERT JUMPDEST DUP1 PUSH4 0x2CD77A5A GT PUSH2 0x10A JUMPI DUP1 PUSH4 0x2CD77A5A EQ PUSH2 0x1D9 JUMPI DUP1 PUSH4 0x313CE567 EQ PUSH2 0x1EE JUMPI DUP1 PUSH4 0x39509351 EQ PUSH2 0x1FD JUMPI DUP1 PUSH4 0x3B124FE7 EQ PUSH2 0x210 JUMPI DUP1 PUSH4 0x46F0975A EQ PUSH2 0x219 JUMPI DUP1 PUSH4 0x55B7DC67 EQ PUSH2 0x22E JUMPI PUSH1 0x0 DUP1 REVERT JUMPDEST DUP1 PUSH4 0x6FDDE03 EQ PUSH2 0x147 JUMPI DUP1 PUSH4 0x7C351DD EQ PUSH2 0x165 JUMPI DUP1 PUSH4 0x95EA7B3 EQ PUSH2 0x1A1 JUMPI DUP1 PUSH4 0x18160DDD EQ PUSH2 0x1B4 JUMPI DUP1 PUSH4 0x23B872DD EQ PUSH2 0x1C6 JUMPI JUMPDEST PUSH1 0x0 DUP1 REVERT JUMPDEST PUSH2 0x14F PUSH2 0x332 JUMP JUMPDEST PUSH1 0x40 MLOAD PUSH2 0x15C SWAP2 SWAP1 PUSH2 0x119B JUMP JUMPDEST PUSH1 0x40 MLOAD DUP1 SWAP2 SUB SWAP1 RETURN JUMPDEST PUSH2 0x191 PUSH2 0x173 CALLDATASIZE PUSH1 0x4 PUSH2 0x120C JUMP JUMPDEST PUSH1 0x1 PUSH1 0x1 PUSH1 0xA0 SHL SUB AND PUSH1 0x0 SWAP1 DUP2 MSTORE PUSH1 0x9D PUSH1 0x20 MSTORE PUSH1 0x40 SWAP1 KECCAK256 SLOAD PUSH1 0xFF AND SWAP1 JUMP JUMPDEST PUSH1 0x40 MLOAD SWAP1 ISZERO ISZERO DUP2 MSTORE PUSH1 0x20 ADD PUSH2 0x15C JUMP JUMPDEST PUSH2 0x191 PUSH2 0x1AF CALLDATASIZE PUSH1 0x4 PUSH2 0x122E JUMP JUMPDEST PUSH2 0x3C4 JUMP JUMPDEST PUSH1 0x35 SLOAD JUMPDEST PUSH1 0x40 MLOAD SWAP1 DUP2 MSTORE PUSH1 0x20 ADD PUSH2 0x15C JUMP JUMPDEST PUSH2 0x191 PUSH2 0x1D4 CALLDATASIZE PUSH1 0x4 PUSH2 0x1258 JUMP JUMPDEST PUSH2 0x3DC JUMP JUMPDEST PUSH2 0x1EC PUSH2 0x1E7 CALLDATASIZE PUSH1 0x4 PUSH2 0x134B JUMP JUMPDEST PUSH2 0x400 JUMP JUMPDEST STOP JUMPDEST PUSH1 0x40 MLOAD PUSH1 0x12 DUP2 MSTORE PUSH1 0x20 ADD PUSH2 0x15C JUMP JUMPDEST PUSH2 0x191 PUSH2 0x20B CALLDATASIZE PUSH1 0x4 PUSH2 0x122E JUMP JUMPDEST PUSH2 0x587 JUMP JUMPDEST PUSH2 0x1B8 PUSH1 0x9A SLOAD DUP2 JUMP JUMPDEST PUSH2 0x221 PUSH2 0x5A9 JUMP JUMPDEST PUSH1 0x40 MLOAD PUSH2 0x15C SWAP2 SWAP1 PUSH2 0x13EA JUMP JUMPDEST PUSH2 0x1EC PUSH2 0x23C CALLDATASIZE PUSH1 0x4 PUSH2 0x1437 JUMP JUMPDEST PUSH2 0x60A JUMP JUMPDEST PUSH2 0x1B8 PUSH2 0x24F CALLDATASIZE PUSH1 0x4 PUSH2 0x120C JUMP JUMPDEST PUSH1 0x1 PUSH1 0x1 PUSH1 0xA0 SHL SUB AND PUSH1 0x0 SWAP1 DUP2 MSTORE PUSH1 0x33 PUSH1 0x20 MSTORE PUSH1 0x40 SWAP1 KECCAK256 SLOAD SWAP1 JUMP JUMPDEST PUSH2 0x1EC PUSH2 0x6C2 JUMP JUMPDEST PUSH1 0x65 SLOAD PUSH1 0x1 PUSH1 0x1 PUSH1 0xA0 SHL SUB AND JUMPDEST PUSH1 0x40 MLOAD PUSH1 0x1 PUSH1 0x1 PUSH1 0xA0 SHL SUB SWAP1 SWAP2 AND DUP2 MSTORE PUSH1 0x20 ADD PUSH2 0x15C JUMP JUMPDEST PUSH2 0x14F PUSH2 0x6D6 JUMP JUMPDEST PUSH2 0x1EC PUSH2 0x2AD CALLDATASIZE PUSH1 0x4 PUSH2 0x1470 JUMP JUMPDEST PUSH2 0x6E5 JUMP JUMPDEST PUSH2 0x191 PUSH2 0x2C0 CALLDATASIZE PUSH1 0x4 PUSH2 0x122E JUMP JUMPDEST PUSH2 0x784 JUMP JUMPDEST PUSH2 0x191 PUSH2 0x2D3 CALLDATASIZE PUSH1 0x4 PUSH2 0x122E JUMP JUMPDEST PUSH2 0x7FF JUMP JUMPDEST PUSH1 0x9B SLOAD PUSH1 0x1 PUSH1 0x1 PUSH1 0xA0 SHL SUB AND PUSH2 0x27F JUMP JUMPDEST PUSH2 0x1B8 PUSH2 0x2F7 CALLDATASIZE PUSH1 0x4 PUSH2 0x151D JUMP JUMPDEST PUSH2 0x80D JUMP JUMPDEST PUSH2 0x1EC PUSH2 0x30A CALLDATASIZE PUSH1 0x4 PUSH2 0x120C JUMP JUMPDEST PUSH2 0x838 JUMP JUMPDEST PUSH2 0x191 PUSH2 0x31D CALLDATASIZE PUSH1 0x4 PUSH2 0x1550 JUMP JUMPDEST PUSH1 0x9E PUSH1 0x20 MSTORE PUSH1 0x0 SWAP1 DUP2 MSTORE PUSH1 0x40 SWAP1 KECCAK256 SLOAD PUSH1 0xFF AND DUP2 JUMP JUMPDEST PUSH1 0x60 PUSH1 0x36 DUP1 SLOAD PUSH2 0x341 SWAP1 PUSH2 0x1569 JUMP JUMPDEST DUP1 PUSH1 0x1F ADD PUSH1 0x20 DUP1 SWAP2 DIV MUL PUSH1 0x20 ADD PUSH1 0x40 MLOAD SWAP1 DUP2 ADD PUSH1 0x40 MSTORE DUP1 SWAP3 SWAP2 SWAP1 DUP2 DUP2 MSTORE PUSH1 0x20 ADD DUP3 DUP1 SLOAD PUSH2 0x36D SWAP1 PUSH2 0x1569 JUMP JUMPDEST DUP1 ISZERO PUSH2 0x3BA JUMPI DUP1 PUSH1 0x1F LT PUSH2 0x38F JUMPI PUSH2 0x100 DUP1 DUP4 SLOAD DIV MUL DUP4 MSTORE SWAP2 PUSH1 0x20 ADD SWAP2 PUSH2 0x3BA JUMP JUMPDEST DUP3 ADD SWAP2 SWAP1 PUSH1 0x0 MSTORE PUSH1 0x20 PUSH1 0x0 KECCAK256 SWAP1 JUMPDEST DUP2 SLOAD DUP2 MSTORE SWAP1 PUSH1 0x1 ADD SWAP1 PUSH1 0x20 ADD DUP1 DUP4 GT PUSH2 0x39D JUMPI DUP3 SWAP1 SUB PUSH1 0x1F AND DUP3 ADD SWAP2 JUMPDEST POP POP POP POP POP SWAP1 POP SWAP1 JUMP JUMPDEST PUSH1 0x0 CALLER PUSH2 0x3D2 DUP2 DUP6 DUP6 PUSH2 0x8AE JUMP JUMPDEST POP PUSH1 0x1 SWAP4 SWAP3 POP POP POP JUMP JUMPDEST PUSH1 0x0 CALLER PUSH2 0x3EA DUP6 DUP3 DUP6 PUSH2 0x9D2 JUMP JUMPDEST PUSH2 0x3F5 DUP6 DUP6 DUP6 PUSH2 0xA4C JUMP JUMPDEST POP PUSH1 0x1 SWAP5 SWAP4 POP POP POP POP JUMP JUMPDEST PUSH1 0x0 SLOAD PUSH2 0x100 SWAP1 DIV PUSH1 0xFF AND ISZERO DUP1 DUP1 ISZERO PUSH2 0x420 JUMPI POP PUSH1 0x0 SLOAD PUSH1 0x1 PUSH1 0xFF SWAP1 SWAP2 AND LT JUMPDEST DUP1 PUSH2 0x43A JUMPI POP ADDRESS EXTCODESIZE ISZERO DUP1 ISZERO PUSH2 0x43A JUMPI POP PUSH1 0x0 SLOAD PUSH1 0xFF AND PUSH1 0x1 EQ JUMPDEST PUSH2 0x4A2 JUMPI PUSH1 0x40 MLOAD PUSH3 0x461BCD PUSH1 0xE5 SHL DUP2 MSTORE PUSH1 0x20 PUSH1 0x4 DUP3 ADD MSTORE PUSH1 0x2E PUSH1 0x24 DUP3 ADD MSTORE PUSH32 0x496E697469616C697A61626C653A20636F6E747261637420697320616C726561 PUSH1 0x44 DUP3 ADD MSTORE PUSH14 0x191E481A5B9A5D1A585B1A5E9959 PUSH1 0x92 SHL PUSH1 0x64 DUP3 ADD MSTORE PUSH1 0x84 ADD JUMPDEST PUSH1 0x40 MLOAD DUP1 SWAP2 SUB SWAP1 REVERT JUMPDEST PUSH1 0x0 DUP1 SLOAD PUSH1 0xFF NOT AND PUSH1 0x1 OR SWAP1 SSTORE DUP1 ISZERO PUSH2 0x4C5 JUMPI PUSH1 0x0 DUP1 SLOAD PUSH2 0xFF00 NOT AND PUSH2 0x100 OR SWAP1 SSTORE JUMPDEST PUSH2 0x4CD PUSH2 0xC1A JUMP JUMPDEST PUSH2 0x4D7 DUP8 DUP8 PUSH2 0xC49 JUMP JUMPDEST DUP7 MLOAD PUSH2 0x4EA SWAP1 PUSH1 0x97 SWAP1 PUSH1 0x20 DUP11 ADD SWAP1 PUSH2 0x108F JUMP JUMPDEST POP DUP6 MLOAD PUSH2 0x4FE SWAP1 PUSH1 0x98 SWAP1 PUSH1 0x20 DUP10 ADD SWAP1 PUSH2 0x108F JUMP JUMPDEST POP PUSH1 0x99 DUP1 SLOAD PUSH1 0xFF NOT AND PUSH1 0xFF DUP8 AND OR SWAP1 SSTORE PUSH1 0x9A DUP4 SWAP1 SSTORE PUSH1 0x9B DUP1 SLOAD PUSH1 0x1 PUSH1 0x1 PUSH1 0xA0 SHL SUB NOT AND PUSH1 0x1 PUSH1 0x1 PUSH1 0xA0 SHL SUB DUP5 AND OR SWAP1 SSTORE PUSH2 0x538 DUP3 DUP6 PUSH2 0xC7E JUMP JUMPDEST DUP1 ISZERO PUSH2 0x57E JUMPI PUSH1 0x0 DUP1 SLOAD PUSH2 0xFF00 NOT AND SWAP1 SSTORE PUSH1 0x40 MLOAD PUSH1 0x1 DUP2 MSTORE PUSH32 0x7F26B83FF96E1F2B6A682F133852F6798A09C465DA95921460CEFB3847402498 SWAP1 PUSH1 0x20 ADD PUSH1 0x40 MLOAD DUP1 SWAP2 SUB SWAP1 LOG1 JUMPDEST POP POP POP POP POP POP POP JUMP JUMPDEST PUSH1 0x0 CALLER PUSH2 0x3D2 DUP2 DUP6 DUP6 PUSH2 0x59A DUP4 DUP4 PUSH2 0x80D JUMP JUMPDEST PUSH2 0x5A4 SWAP2 SWAP1 PUSH2 0x15BA JUMP JUMPDEST PUSH2 0x8AE JUMP JUMPDEST PUSH1 0x60 PUSH1 0x9C DUP1 SLOAD DUP1 PUSH1 0x20 MUL PUSH1 0x20 ADD PUSH1 0x40 MLOAD SWAP1 DUP2 ADD PUSH1 0x40 MSTORE DUP1 SWAP3 SWAP2 SWAP1 DUP2 DUP2 MSTORE PUSH1 0x20 ADD DUP3 DUP1 SLOAD DUP1 ISZERO PUSH2 0x3BA JUMPI PUSH1 0x20 MUL DUP3 ADD SWAP2 SWAP1 PUSH1 0x0 MSTORE PUSH1 0x20 PUSH1 0x0 KECCAK256 SWAP1 JUMPDEST DUP2 SLOAD PUSH1 0x1 PUSH1 0x1 PUSH1 0xA0 SHL SUB AND DUP2 MSTORE PUSH1 0x1 SWAP1 SWAP2 ADD SWAP1 PUSH1 0x20 ADD DUP1 DUP4 GT PUSH2 0x5E3 JUMPI POP POP POP POP POP SWAP1 POP SWAP1 JUMP JUMPDEST PUSH1 0x0 DUP4 DUP2 MSTORE PUSH1 0x9E PUSH1 0x20 MSTORE PUSH1 0x40 SWAP1 KECCAK256 SLOAD PUSH1 0xFF AND ISZERO PUSH2 0x65C JUMPI PUSH1 0x40 MLOAD PUSH3 0x461BCD PUSH1 0xE5 SHL DUP2 MSTORE PUSH1 0x20 PUSH1 0x4 DUP3 ADD MSTORE PUSH1 0x10 PUSH1 0x24 DUP3 ADD MSTORE PUSH16 0x556E6971756520696420657869737473 PUSH1 0x80 SHL PUSH1 0x44 DUP3 ADD MSTORE PUSH1 0x64 ADD PUSH2 0x499 JUMP JUMPDEST CALLER PUSH1 0x0 PUSH2 0x671 PUSH1 0x65 SLOAD PUSH1 0x1 PUSH1 0x1 PUSH1 0xA0 SHL SUB AND SWAP1 JUMP JUMPDEST PUSH1 0x0 DUP7 DUP2 MSTORE PUSH1 0x9E PUSH1 0x20 MSTORE PUSH1 0x40 SWAP1 KECCAK256 DUP1 SLOAD PUSH1 0xFF NOT AND PUSH1 0x1 OR SWAP1 SSTORE SWAP1 POP PUSH1 0x1 PUSH1 0x1 PUSH1 0xA0 SHL SUB DUP3 DUP2 AND SWAP1 DUP3 AND EQ ISZERO PUSH2 0x6B0 JUMPI PUSH2 0x6AA DUP7 DUP6 PUSH2 0x7FF JUMP JUMPDEST POP PUSH2 0x6BA JUMP JUMPDEST PUSH2 0x6BA DUP7 DUP6 PUSH2 0xD5D JUMP JUMPDEST POP POP POP POP POP POP JUMP JUMPDEST PUSH2 0x6CA PUSH2 0xD98 JUMP JUMPDEST PUSH2 0x6D4 PUSH1 0x0 PUSH2 0xDF2 JUMP JUMPDEST JUMP JUMPDEST PUSH1 0x60 PUSH1 0x37 DUP1 SLOAD PUSH2 0x341 SWAP1 PUSH2 0x1569 JUMP JUMPDEST PUSH2 0x6ED PUSH2 0xD98 JUMP JUMPDEST PUSH2 0x754 PUSH1 0x9C DUP1 SLOAD DUP1 PUSH1 0x20 MUL PUSH1 0x20 ADD PUSH1 0x40 MLOAD SWAP1 DUP2 ADD PUSH1 0x40 MSTORE DUP1 SWAP3 SWAP2 SWAP1 DUP2 DUP2 MSTORE PUSH1 0x20 ADD DUP3 DUP1 SLOAD DUP1 ISZERO PUSH2 0x746 JUMPI PUSH1 0x20 MUL DUP3 ADD SWAP2 SWAP1 PUSH1 0x0 MSTORE PUSH1 0x20 PUSH1 0x0 KECCAK256 SWAP1 JUMPDEST DUP2 SLOAD PUSH1 0x1 PUSH1 0x1 PUSH1 0xA0 SHL SUB AND DUP2 MSTORE PUSH1 0x1 SWAP1 SWAP2 ADD SWAP1 PUSH1 0x20 ADD DUP1 DUP4 GT PUSH2 0x728 JUMPI JUMPDEST POP POP POP POP POP PUSH1 0x0 PUSH1 0x9D PUSH2 0xE44 JUMP JUMPDEST PUSH2 0x760 PUSH1 0x9C PUSH1 0x0 PUSH2 0x1113 JUMP JUMPDEST DUP1 MLOAD PUSH2 0x773 SWAP1 PUSH1 0x9C SWAP1 PUSH1 0x20 DUP5 ADD SWAP1 PUSH2 0x1131 JUMP JUMPDEST POP PUSH2 0x781 DUP2 PUSH1 0x1 PUSH1 0x9D PUSH2 0xE44 JUMP JUMPDEST POP JUMP JUMPDEST PUSH1 0x0 CALLER DUP2 PUSH2 0x792 DUP3 DUP7 PUSH2 0x80D JUMP JUMPDEST SWAP1 POP DUP4 DUP2 LT ISZERO PUSH2 0x7F2 JUMPI PUSH1 0x40 MLOAD PUSH3 0x461BCD PUSH1 0xE5 SHL DUP2 MSTORE PUSH1 0x20 PUSH1 0x4 DUP3 ADD MSTORE PUSH1 0x25 PUSH1 0x24 DUP3 ADD MSTORE PUSH32 0x45524332303A2064656372656173656420616C6C6F77616E63652062656C6F77 PUSH1 0x44 DUP3 ADD MSTORE PUSH5 0x207A65726F PUSH1 0xD8 SHL PUSH1 0x64 DUP3 ADD MSTORE PUSH1 0x84 ADD PUSH2 0x499 JUMP JUMPDEST PUSH2 0x3F5 DUP3 DUP7 DUP7 DUP5 SUB PUSH2 0x8AE JUMP JUMPDEST PUSH1 0x0 CALLER PUSH2 0x3D2 DUP2 DUP6 DUP6 PUSH2 0xA4C JUMP JUMPDEST PUSH1 0x1 PUSH1 0x1 PUSH1 0xA0 SHL SUB SWAP2 DUP3 AND PUSH1 0x0 SWAP1 DUP2 MSTORE PUSH1 0x34 PUSH1 0x20 SWAP1 DUP2 MSTORE PUSH1 0x40 DUP1 DUP4 KECCAK256 SWAP4 SWAP1 SWAP5 AND DUP3 MSTORE SWAP2 SWAP1 SWAP2 MSTORE KECCAK256 SLOAD SWAP1 JUMP JUMPDEST PUSH2 0x840 PUSH2 0xD98 JUMP JUMPDEST PUSH1 0x1 PUSH1 0x1 PUSH1 0xA0 SHL SUB DUP2 AND PUSH2 0x8A5 JUMPI PUSH1 0x40 MLOAD PUSH3 0x461BCD PUSH1 0xE5 SHL DUP2 MSTORE PUSH1 0x20 PUSH1 0x4 DUP3 ADD MSTORE PUSH1 0x26 PUSH1 0x24 DUP3 ADD MSTORE PUSH32 0x4F776E61626C653A206E6577206F776E657220697320746865207A65726F2061 PUSH1 0x44 DUP3 ADD MSTORE PUSH6 0x646472657373 PUSH1 0xD0 SHL PUSH1 0x64 DUP3 ADD MSTORE PUSH1 0x84 ADD PUSH2 0x499 JUMP JUMPDEST PUSH2 0x781 DUP2 PUSH2 0xDF2 JUMP JUMPDEST PUSH1 0x1 PUSH1 0x1 PUSH1 0xA0 SHL SUB DUP4 AND PUSH2 0x910 JUMPI PUSH1 0x40 MLOAD PUSH3 0x461BCD PUSH1 0xE5 SHL DUP2 MSTORE PUSH1 0x20 PUSH1 0x4 DUP3 ADD MSTORE PUSH1 0x24 DUP1 DUP3 ADD MSTORE PUSH32 0x45524332303A20617070726F76652066726F6D20746865207A65726F20616464 PUSH1 0x44 DUP3 ADD MSTORE PUSH4 0x72657373 PUSH1 0xE0 SHL PUSH1 0x64 DUP3 ADD MSTORE PUSH1 0x84 ADD PUSH2 0x499 JUMP JUMPDEST PUSH1 0x1 PUSH1 0x1 PUSH1 0xA0 SHL SUB DUP3 AND PUSH2 0x971 JUMPI PUSH1 0x40 MLOAD PUSH3 0x461BCD PUSH1 0xE5 SHL DUP2 MSTORE PUSH1 0x20 PUSH1 0x4 DUP3 ADD MSTORE PUSH1 0x22 PUSH1 0x24 DUP3 ADD MSTORE PUSH32 0x45524332303A20617070726F766520746F20746865207A65726F206164647265 PUSH1 0x44 DUP3 ADD MSTORE PUSH2 0x7373 PUSH1 0xF0 SHL PUSH1 0x64 DUP3 ADD MSTORE PUSH1 0x84 ADD PUSH2 0x499 JUMP JUMPDEST PUSH1 0x1 PUSH1 0x1 PUSH1 0xA0 SHL SUB DUP4 DUP2 AND PUSH1 0x0 DUP2 DUP2 MSTORE PUSH1 0x34 PUSH1 0x20 SWAP1 DUP2 MSTORE PUSH1 0x40 DUP1 DUP4 KECCAK256 SWAP5 DUP8 AND DUP1 DUP5 MSTORE SWAP5 DUP3 MSTORE SWAP2 DUP3 SWAP1 KECCAK256 DUP6 SWAP1 SSTORE SWAP1 MLOAD DUP5 DUP2 MSTORE PUSH32 0x8C5BE1E5EBEC7D5BD14F71427D1E84F3DD0314C0F7B2291E5B200AC8C7C3B925 SWAP2 ADD PUSH1 0x40 MLOAD DUP1 SWAP2 SUB SWAP1 LOG3 POP POP POP JUMP JUMPDEST PUSH1 0x0 PUSH2 0x9DE DUP5 DUP5 PUSH2 0x80D JUMP JUMPDEST SWAP1 POP PUSH1 0x0 NOT DUP2 EQ PUSH2 0xA46 JUMPI DUP2 DUP2 LT ISZERO PUSH2 0xA39 JUMPI PUSH1 0x40 MLOAD PUSH3 0x461BCD PUSH1 0xE5 SHL DUP2 MSTORE PUSH1 0x20 PUSH1 0x4 DUP3 ADD MSTORE PUSH1 0x1D PUSH1 0x24 DUP3 ADD MSTORE PUSH32 0x45524332303A20696E73756666696369656E7420616C6C6F77616E6365000000 PUSH1 0x44 DUP3 ADD MSTORE PUSH1 0x64 ADD PUSH2 0x499 JUMP JUMPDEST PUSH2 0xA46 DUP5 DUP5 DUP5 DUP5 SUB PUSH2 0x8AE JUMP JUMPDEST POP POP POP POP JUMP JUMPDEST PUSH1 0x1 PUSH1 0x1 PUSH1 0xA0 SHL SUB DUP4 AND PUSH2 0xAB0 JUMPI PUSH1 0x40 MLOAD PUSH3 0x461BCD PUSH1 0xE5 SHL DUP2 MSTORE PUSH1 0x20 PUSH1 0x4 DUP3 ADD MSTORE PUSH1 0x25 PUSH1 0x24 DUP3 ADD MSTORE PUSH32 0x45524332303A207472616E736665722066726F6D20746865207A65726F206164 PUSH1 0x44 DUP3 ADD MSTORE PUSH5 0x6472657373 PUSH1 0xD8 SHL PUSH1 0x64 DUP3 ADD MSTORE PUSH1 0x84 ADD PUSH2 0x499 JUMP JUMPDEST PUSH1 0x1 PUSH1 0x1 PUSH1 0xA0 SHL SUB DUP3 AND PUSH2 0xB12 JUMPI PUSH1 0x40 MLOAD PUSH3 0x461BCD PUSH1 0xE5 SHL DUP2 MSTORE PUSH1 0x20 PUSH1 0x4 DUP3 ADD MSTORE PUSH1 0x23 PUSH1 0x24 DUP3 ADD MSTORE PUSH32 0x45524332303A207472616E7366657220746F20746865207A65726F2061646472 PUSH1 0x44 DUP3 ADD MSTORE PUSH3 0x657373 PUSH1 0xE8 SHL PUSH1 0x64 DUP3 ADD MSTORE PUSH1 0x84 ADD PUSH2 0x499 JUMP JUMPDEST PUSH1 0x1 PUSH1 0x1 PUSH1 0xA0 SHL SUB DUP4 AND PUSH1 0x0 SWAP1 DUP2 MSTORE PUSH1 0x33 PUSH1 0x20 MSTORE PUSH1 0x40 SWAP1 KECCAK256 SLOAD DUP2 DUP2 LT ISZERO PUSH2 0xB8A JUMPI PUSH1 0x40 MLOAD PUSH3 0x461BCD PUSH1 0xE5 SHL DUP2 MSTORE PUSH1 0x20 PUSH1 0x4 DUP3 ADD MSTORE PUSH1 0x26 PUSH1 0x24 DUP3 ADD MSTORE PUSH32 0x45524332303A207472616E7366657220616D6F756E7420657863656564732062 PUSH1 0x44 DUP3 ADD MSTORE PUSH6 0x616C616E6365 PUSH1 0xD0 SHL PUSH1 0x64 DUP3 ADD MSTORE PUSH1 0x84 ADD PUSH2 0x499 JUMP JUMPDEST PUSH1 0x1 PUSH1 0x1 PUSH1 0xA0 SHL SUB DUP1 DUP6 AND PUSH1 0x0 SWAP1 DUP2 MSTORE PUSH1 0x33 PUSH1 0x20 MSTORE PUSH1 0x40 DUP1 DUP3 KECCAK256 DUP6 DUP6 SUB SWAP1 SSTORE SWAP2 DUP6 AND DUP2 MSTORE SWAP1 DUP2 KECCAK256 DUP1 SLOAD DUP5 SWAP3 SWAP1 PUSH2 0xBC1 SWAP1 DUP5 SWAP1 PUSH2 0x15BA JUMP JUMPDEST SWAP3 POP POP DUP2 SWAP1 SSTORE POP DUP3 PUSH1 0x1 PUSH1 0x1 PUSH1 0xA0 SHL SUB AND DUP5 PUSH1 0x1 PUSH1 0x1 PUSH1 0xA0 SHL SUB AND PUSH32 0xDDF252AD1BE2C89B69C2B068FC378DAA952BA7F163C4A11628F55A4DF523B3EF DUP5 PUSH1 0x40 MLOAD PUSH2 0xC0D SWAP2 DUP2 MSTORE PUSH1 0x20 ADD SWAP1 JUMP JUMPDEST PUSH1 0x40 MLOAD DUP1 SWAP2 SUB SWAP1 LOG3 PUSH2 0xA46 JUMP JUMPDEST PUSH1 0x0 SLOAD PUSH2 0x100 SWAP1 DIV PUSH1 0xFF AND PUSH2 0xC41 JUMPI PUSH1 0x40 MLOAD PUSH3 0x461BCD PUSH1 0xE5 SHL DUP2 MSTORE PUSH1 0x4 ADD PUSH2 0x499 SWAP1 PUSH2 0x15D2 JUMP JUMPDEST PUSH2 0x6D4 PUSH2 0xEC3 JUMP JUMPDEST PUSH1 0x0 SLOAD PUSH2 0x100 SWAP1 DIV PUSH1 0xFF AND PUSH2 0xC70 JUMPI PUSH1 0x40 MLOAD PUSH3 0x461BCD PUSH1 0xE5 SHL DUP2 MSTORE PUSH1 0x4 ADD PUSH2 0x499 SWAP1 PUSH2 0x15D2 JUMP JUMPDEST PUSH2 0xC7A DUP3 DUP3 PUSH2 0xEF3 JUMP JUMPDEST POP POP JUMP JUMPDEST PUSH1 0x1 PUSH1 0x1 PUSH1 0xA0 SHL SUB DUP3 AND PUSH2 0xCD4 JUMPI PUSH1 0x40 MLOAD PUSH3 0x461BCD PUSH1 0xE5 SHL DUP2 MSTORE PUSH1 0x20 PUSH1 0x4 DUP3 ADD MSTORE PUSH1 0x1F PUSH1 0x24 DUP3 ADD MSTORE PUSH32 0x45524332303A206D696E7420746F20746865207A65726F206164647265737300 PUSH1 0x44 DUP3 ADD MSTORE PUSH1 0x64 ADD PUSH2 0x499 JUMP JUMPDEST DUP1 PUSH1 0x35 PUSH1 0x0 DUP3 DUP3 SLOAD PUSH2 0xCE6 SWAP2 SWAP1 PUSH2 0x15BA JUMP JUMPDEST SWAP1 SWAP2 SSTORE POP POP PUSH1 0x1 PUSH1 0x1 PUSH1 0xA0 SHL SUB DUP3 AND PUSH1 0x0 SWAP1 DUP2 MSTORE PUSH1 0x33 PUSH1 0x20 MSTORE PUSH1 0x40 DUP2 KECCAK256 DUP1 SLOAD DUP4 SWAP3 SWAP1 PUSH2 0xD13 SWAP1 DUP5 SWAP1 PUSH2 0x15BA JUMP JUMPDEST SWAP1 SWAP2 SSTORE POP POP PUSH1 0x40 MLOAD DUP2 DUP2 MSTORE PUSH1 0x1 PUSH1 0x1 PUSH1 0xA0 SHL SUB DUP4 AND SWAP1 PUSH1 0x0 SWAP1 PUSH32 0xDDF252AD1BE2C89B69C2B068FC378DAA952BA7F163C4A11628F55A4DF523B3EF SWAP1 PUSH1 0x20 ADD PUSH1 0x40 MLOAD DUP1 SWAP2 SUB SWAP1 LOG3 POP POP JUMP JUMPDEST PUSH1 0x0 PUSH1 0x9A SLOAD DUP3 PUSH2 0xD6D SWAP2 SWAP1 PUSH2 0x161D JUMP JUMPDEST SWAP1 POP PUSH2 0xD79 CALLER DUP3 PUSH2 0xF41 JUMP JUMPDEST PUSH1 0x0 PUSH2 0xD85 DUP3 DUP5 PUSH2 0x163F JUMP JUMPDEST SWAP1 POP PUSH2 0xD91 DUP5 DUP3 PUSH2 0x7FF JUMP JUMPDEST POP POP POP POP POP JUMP JUMPDEST PUSH1 0x65 SLOAD PUSH1 0x1 PUSH1 0x1 PUSH1 0xA0 SHL SUB AND CALLER EQ PUSH2 0x6D4 JUMPI PUSH1 0x40 MLOAD PUSH3 0x461BCD PUSH1 0xE5 SHL DUP2 MSTORE PUSH1 0x20 PUSH1 0x4 DUP3 ADD DUP2 SWAP1 MSTORE PUSH1 0x24 DUP3 ADD MSTORE PUSH32 0x4F776E61626C653A2063616C6C6572206973206E6F7420746865206F776E6572 PUSH1 0x44 DUP3 ADD MSTORE PUSH1 0x64 ADD PUSH2 0x499 JUMP JUMPDEST PUSH1 0x65 DUP1 SLOAD PUSH1 0x1 PUSH1 0x1 PUSH1 0xA0 SHL SUB DUP4 DUP2 AND PUSH1 0x1 PUSH1 0x1 PUSH1 0xA0 SHL SUB NOT DUP4 AND DUP2 OR SWAP1 SWAP4 SSTORE PUSH1 0x40 MLOAD SWAP2 AND SWAP2 SWAP1 DUP3 SWAP1 PUSH32 0x8BE0079C531659141344CD1FD0A4F28419497F9722A3DAAFE3B4186F6B6457E0 SWAP1 PUSH1 0x0 SWAP1 LOG3 POP POP JUMP JUMPDEST PUSH1 0x0 JUMPDEST DUP4 MLOAD DUP2 PUSH8 0xFFFFFFFFFFFFFFFF AND LT ISZERO PUSH2 0xA46 JUMPI DUP3 DUP3 PUSH1 0x0 DUP7 DUP5 PUSH8 0xFFFFFFFFFFFFFFFF AND DUP2 MLOAD DUP2 LT PUSH2 0xE7A JUMPI PUSH2 0xE7A PUSH2 0x1656 JUMP JUMPDEST PUSH1 0x20 SWAP1 DUP2 MUL SWAP2 SWAP1 SWAP2 ADD DUP2 ADD MLOAD PUSH1 0x1 PUSH1 0x1 PUSH1 0xA0 SHL SUB AND DUP3 MSTORE DUP2 ADD SWAP2 SWAP1 SWAP2 MSTORE PUSH1 0x40 ADD PUSH1 0x0 KECCAK256 DUP1 SLOAD PUSH1 0xFF NOT AND SWAP2 ISZERO ISZERO SWAP2 SWAP1 SWAP2 OR SWAP1 SSTORE DUP1 PUSH2 0xEB6 DUP2 PUSH2 0x166C JUMP JUMPDEST SWAP2 POP POP PUSH2 0xE47 JUMP JUMPDEST POP POP POP JUMP JUMPDEST PUSH1 0x0 SLOAD PUSH2 0x100 SWAP1 DIV PUSH1 0xFF AND PUSH2 0xEEA JUMPI PUSH1 0x40 MLOAD PUSH3 0x461BCD PUSH1 0xE5 SHL DUP2 MSTORE PUSH1 0x4 ADD PUSH2 0x499 SWAP1 PUSH2 0x15D2 JUMP JUMPDEST PUSH2 0x6D4 CALLER PUSH2 0xDF2 JUMP JUMPDEST PUSH1 0x0 SLOAD PUSH2 0x100 SWAP1 DIV PUSH1 0xFF AND PUSH2 0xF1A JUMPI PUSH1 0x40 MLOAD PUSH3 0x461BCD PUSH1 0xE5 SHL DUP2 MSTORE PUSH1 0x4 ADD PUSH2 0x499 SWAP1 PUSH2 0x15D2 JUMP JUMPDEST DUP2 MLOAD PUSH2 0xF2D SWAP1 PUSH1 0x36 SWAP1 PUSH1 0x20 DUP6 ADD SWAP1 PUSH2 0x108F JUMP JUMPDEST POP DUP1 MLOAD PUSH2 0xEBE SWAP1 PUSH1 0x37 SWAP1 PUSH1 0x20 DUP5 ADD SWAP1 PUSH2 0x108F JUMP JUMPDEST PUSH1 0x1 PUSH1 0x1 PUSH1 0xA0 SHL SUB DUP3 AND PUSH2 0xFA1 JUMPI PUSH1 0x40 MLOAD PUSH3 0x461BCD PUSH1 0xE5 SHL DUP2 MSTORE PUSH1 0x20 PUSH1 0x4 DUP3 ADD MSTORE PUSH1 0x21 PUSH1 0x24 DUP3 ADD MSTORE PUSH32 0x45524332303A206275726E2066726F6D20746865207A65726F20616464726573 PUSH1 0x44 DUP3 ADD MSTORE PUSH1 0x73 PUSH1 0xF8 SHL PUSH1 0x64 DUP3 ADD MSTORE PUSH1 0x84 ADD PUSH2 0x499 JUMP JUMPDEST PUSH1 0x1 PUSH1 0x1 PUSH1 0xA0 SHL SUB DUP3 AND PUSH1 0x0 SWAP1 DUP2 MSTORE PUSH1 0x33 PUSH1 0x20 MSTORE PUSH1 0x40 SWAP1 KECCAK256 SLOAD DUP2 DUP2 LT ISZERO PUSH2 0x1015 JUMPI PUSH1 0x40 MLOAD PUSH3 0x461BCD PUSH1 0xE5 SHL DUP2 MSTORE PUSH1 0x20 PUSH1 0x4 DUP3 ADD MSTORE PUSH1 0x22 PUSH1 0x24 DUP3 ADD MSTORE PUSH32 0x45524332303A206275726E20616D6F756E7420657863656564732062616C616E PUSH1 0x44 DUP3 ADD MSTORE PUSH2 0x6365 PUSH1 0xF0 SHL PUSH1 0x64 DUP3 ADD MSTORE PUSH1 0x84 ADD PUSH2 0x499 JUMP JUMPDEST PUSH1 0x1 PUSH1 0x1 PUSH1 0xA0 SHL SUB DUP4 AND PUSH1 0x0 SWAP1 DUP2 MSTORE PUSH1 0x33 PUSH1 0x20 MSTORE PUSH1 0x40 DUP2 KECCAK256 DUP4 DUP4 SUB SWAP1 SSTORE PUSH1 0x35 DUP1 SLOAD DUP5 SWAP3 SWAP1 PUSH2 0x1044 SWAP1 DUP5 SWAP1 PUSH2 0x163F JUMP JUMPDEST SWAP1 SWAP2 SSTORE POP POP PUSH1 0x40 MLOAD DUP3 DUP2 MSTORE PUSH1 0x0 SWAP1 PUSH1 0x1 PUSH1 0x1 PUSH1 0xA0 SHL SUB DUP6 AND SWAP1 PUSH32 0xDDF252AD1BE2C89B69C2B068FC378DAA952BA7F163C4A11628F55A4DF523B3EF SWAP1 PUSH1 0x20 ADD PUSH1 0x40 MLOAD DUP1 SWAP2 SUB SWAP1 LOG3 POP POP POP JUMP JUMPDEST DUP3 DUP1 SLOAD PUSH2 0x109B SWAP1 PUSH2 0x1569 JUMP JUMPDEST SWAP1 PUSH1 0x0 MSTORE PUSH1 0x20 PUSH1 0x0 KECCAK256 SWAP1 PUSH1 0x1F ADD PUSH1 0x20 SWAP1 DIV DUP2 ADD SWAP3 DUP3 PUSH2 0x10BD JUMPI PUSH1 0x0 DUP6 SSTORE PUSH2 0x1103 JUMP JUMPDEST DUP3 PUSH1 0x1F LT PUSH2 0x10D6 JUMPI DUP1 MLOAD PUSH1 0xFF NOT AND DUP4 DUP1 ADD OR DUP6 SSTORE PUSH2 0x1103 JUMP JUMPDEST DUP3 DUP1 ADD PUSH1 0x1 ADD DUP6 SSTORE DUP3 ISZERO PUSH2 0x1103 JUMPI SWAP2 DUP3 ADD JUMPDEST DUP3 DUP2 GT ISZERO PUSH2 0x1103 JUMPI DUP3 MLOAD DUP3 SSTORE SWAP2 PUSH1 0x20 ADD SWAP2 SWAP1 PUSH1 0x1 ADD SWAP1 PUSH2 0x10E8 JUMP JUMPDEST POP PUSH2 0x110F SWAP3 SWAP2 POP PUSH2 0x1186 JUMP JUMPDEST POP SWAP1 JUMP JUMPDEST POP DUP1 SLOAD PUSH1 0x0 DUP3 SSTORE SWAP1 PUSH1 0x0 MSTORE PUSH1 0x20 PUSH1 0x0 KECCAK256 SWAP1 DUP2 ADD SWAP1 PUSH2 0x781 SWAP2 SWAP1 PUSH2 0x1186 JUMP JUMPDEST DUP3 DUP1 SLOAD DUP3 DUP3 SSTORE SWAP1 PUSH1 0x0 MSTORE PUSH1 0x20 PUSH1 0x0 KECCAK256 SWAP1 DUP2 ADD SWAP3 DUP3 ISZERO PUSH2 0x1103 JUMPI SWAP2 PUSH1 0x20 MUL DUP3 ADD JUMPDEST DUP3 DUP2 GT ISZERO PUSH2 0x1103 JUMPI DUP3 MLOAD DUP3 SLOAD PUSH1 0x1 PUSH1 0x1 PUSH1 0xA0 SHL SUB NOT AND PUSH1 0x1 PUSH1 0x1 PUSH1 0xA0 SHL SUB SWAP1 SWAP2 AND OR DUP3 SSTORE PUSH1 0x20 SWAP1 SWAP3 ADD SWAP2 PUSH1 0x1 SWAP1 SWAP2 ADD SWAP1 PUSH2 0x1151 JUMP JUMPDEST JUMPDEST DUP1 DUP3 GT ISZERO PUSH2 0x110F JUMPI PUSH1 0x0 DUP2 SSTORE PUSH1 0x1 ADD PUSH2 0x1187 JUMP JUMPDEST PUSH1 0x0 PUSH1 0x20 DUP1 DUP4 MSTORE DUP4 MLOAD DUP1 DUP3 DUP6 ADD MSTORE PUSH1 0x0 JUMPDEST DUP2 DUP2 LT ISZERO PUSH2 0x11C8 JUMPI DUP6 DUP2 ADD DUP4 ADD MLOAD DUP6 DUP3 ADD PUSH1 0x40 ADD MSTORE DUP3 ADD PUSH2 0x11AC JUMP JUMPDEST DUP2 DUP2 GT ISZERO PUSH2 0x11DA JUMPI PUSH1 0x0 PUSH1 0x40 DUP4 DUP8 ADD ADD MSTORE JUMPDEST POP PUSH1 0x1F ADD PUSH1 0x1F NOT AND SWAP3 SWAP1 SWAP3 ADD PUSH1 0x40 ADD SWAP4 SWAP3 POP POP POP JUMP JUMPDEST DUP1 CALLDATALOAD PUSH1 0x1 PUSH1 0x1 PUSH1 0xA0 SHL SUB DUP2 AND DUP2 EQ PUSH2 0x1207 JUMPI PUSH1 0x0 DUP1 REVERT JUMPDEST SWAP2 SWAP1 POP JUMP JUMPDEST PUSH1 0x0 PUSH1 0x20 DUP3 DUP5 SUB SLT ISZERO PUSH2 0x121E JUMPI PUSH1 0x0 DUP1 REVERT JUMPDEST PUSH2 0x1227 DUP3 PUSH2 0x11F0 JUMP JUMPDEST SWAP4 SWAP3 POP POP POP JUMP JUMPDEST PUSH1 0x0 DUP1 PUSH1 0x40 DUP4 DUP6 SUB SLT ISZERO PUSH2 0x1241 JUMPI PUSH1 0x0 DUP1 REVERT JUMPDEST PUSH2 0x124A DUP4 PUSH2 0x11F0 JUMP JUMPDEST SWAP5 PUSH1 0x20 SWAP4 SWAP1 SWAP4 ADD CALLDATALOAD SWAP4 POP POP POP JUMP JUMPDEST PUSH1 0x0 DUP1 PUSH1 0x0 PUSH1 0x60 DUP5 DUP7 SUB SLT ISZERO PUSH2 0x126D JUMPI PUSH1 0x0 DUP1 REVERT JUMPDEST PUSH2 0x1276 DUP5 PUSH2 0x11F0 JUMP JUMPDEST SWAP3 POP PUSH2 0x1284 PUSH1 0x20 DUP6 ADD PUSH2 0x11F0 JUMP JUMPDEST SWAP2 POP PUSH1 0x40 DUP5 ADD CALLDATALOAD SWAP1 POP SWAP3 POP SWAP3 POP SWAP3 JUMP JUMPDEST PUSH4 0x4E487B71 PUSH1 0xE0 SHL PUSH1 0x0 MSTORE PUSH1 0x41 PUSH1 0x4 MSTORE PUSH1 0x24 PUSH1 0x0 REVERT JUMPDEST PUSH1 0x40 MLOAD PUSH1 0x1F DUP3 ADD PUSH1 0x1F NOT AND DUP2 ADD PUSH8 0xFFFFFFFFFFFFFFFF DUP2 GT DUP3 DUP3 LT OR ISZERO PUSH2 0x12D3 JUMPI PUSH2 0x12D3 PUSH2 0x1294 JUMP JUMPDEST PUSH1 0x40 MSTORE SWAP2 SWAP1 POP JUMP JUMPDEST PUSH1 0x0 DUP3 PUSH1 0x1F DUP4 ADD SLT PUSH2 0x12EC JUMPI PUSH1 0x0 DUP1 REVERT JUMPDEST DUP2 CALLDATALOAD PUSH8 0xFFFFFFFFFFFFFFFF DUP2 GT ISZERO PUSH2 0x1306 JUMPI PUSH2 0x1306 PUSH2 0x1294 JUMP JUMPDEST PUSH2 0x1319 PUSH1 0x1F DUP3 ADD PUSH1 0x1F NOT AND PUSH1 0x20 ADD PUSH2 0x12AA JUMP JUMPDEST DUP2 DUP2 MSTORE DUP5 PUSH1 0x20 DUP4 DUP7 ADD ADD GT ISZERO PUSH2 0x132E JUMPI PUSH1 0x0 DUP1 REVERT JUMPDEST DUP2 PUSH1 0x20 DUP6 ADD PUSH1 0x20 DUP4 ADD CALLDATACOPY PUSH1 0x0 SWAP2 DUP2 ADD PUSH1 0x20 ADD SWAP2 SWAP1 SWAP2 MSTORE SWAP4 SWAP3 POP POP POP JUMP JUMPDEST PUSH1 0x0 DUP1 PUSH1 0x0 DUP1 PUSH1 0x0 DUP1 PUSH1 0xC0 DUP8 DUP10 SUB SLT ISZERO PUSH2 0x1364 JUMPI PUSH1 0x0 DUP1 REVERT JUMPDEST DUP7 CALLDATALOAD PUSH8 0xFFFFFFFFFFFFFFFF DUP1 DUP3 GT ISZERO PUSH2 0x137C JUMPI PUSH1 0x0 DUP1 REVERT JUMPDEST PUSH2 0x1388 DUP11 DUP4 DUP12 ADD PUSH2 0x12DB JUMP JUMPDEST SWAP8 POP PUSH1 0x20 DUP10 ADD CALLDATALOAD SWAP2 POP DUP1 DUP3 GT ISZERO PUSH2 0x139E JUMPI PUSH1 0x0 DUP1 REVERT JUMPDEST POP PUSH2 0x13AB DUP10 DUP3 DUP11 ADD PUSH2 0x12DB JUMP JUMPDEST SWAP6 POP POP PUSH1 0x40 DUP8 ADD CALLDATALOAD PUSH1 0xFF DUP2 AND DUP2 EQ PUSH2 0x13C2 JUMPI PUSH1 0x0 DUP1 REVERT JUMPDEST SWAP4 POP PUSH1 0x60 DUP8 ADD CALLDATALOAD SWAP3 POP PUSH1 0x80 DUP8 ADD CALLDATALOAD SWAP2 POP PUSH2 0x13DE PUSH1 0xA0 DUP9 ADD PUSH2 0x11F0 JUMP JUMPDEST SWAP1 POP SWAP3 SWAP6 POP SWAP3 SWAP6 POP SWAP3 SWAP6 JUMP JUMPDEST PUSH1 0x20 DUP1 DUP3 MSTORE DUP3 MLOAD DUP3 DUP3 ADD DUP2 SWAP1 MSTORE PUSH1 0x0 SWAP2 SWAP1 DUP5 DUP3 ADD SWAP1 PUSH1 0x40 DUP6 ADD SWAP1 DUP5 JUMPDEST DUP2 DUP2 LT ISZERO PUSH2 0x142B JUMPI DUP4 MLOAD PUSH1 0x1 PUSH1 0x1 PUSH1 0xA0 SHL SUB AND DUP4 MSTORE SWAP3 DUP5 ADD SWAP3 SWAP2 DUP5 ADD SWAP2 PUSH1 0x1 ADD PUSH2 0x1406 JUMP JUMPDEST POP SWAP1 SWAP7 SWAP6 POP POP POP POP POP POP JUMP JUMPDEST PUSH1 0x0 DUP1 PUSH1 0x0 DUP1 PUSH1 0x80 DUP6 DUP8 SUB SLT ISZERO PUSH2 0x144D JUMPI PUSH1 0x0 DUP1 REVERT JUMPDEST PUSH2 0x1456 DUP6 PUSH2 0x11F0 JUMP JUMPDEST SWAP7 PUSH1 0x20 DUP7 ADD CALLDATALOAD SWAP7 POP PUSH1 0x40 DUP7 ADD CALLDATALOAD SWAP6 PUSH1 0x60 ADD CALLDATALOAD SWAP5 POP SWAP3 POP POP POP JUMP JUMPDEST PUSH1 0x0 PUSH1 0x20 DUP1 DUP4 DUP6 SUB SLT ISZERO PUSH2 0x1483 JUMPI PUSH1 0x0 DUP1 REVERT JUMPDEST DUP3 CALLDATALOAD PUSH8 0xFFFFFFFFFFFFFFFF DUP1 DUP3 GT ISZERO PUSH2 0x149B JUMPI PUSH1 0x0 DUP1 REVERT JUMPDEST DUP2 DUP6 ADD SWAP2 POP DUP6 PUSH1 0x1F DUP4 ADD SLT PUSH2 0x14AF JUMPI PUSH1 0x0 DUP1 REVERT JUMPDEST DUP2 CALLDATALOAD DUP2 DUP2 GT ISZERO PUSH2 0x14C1 JUMPI PUSH2 0x14C1 PUSH2 0x1294 JUMP JUMPDEST DUP1 PUSH1 0x5 SHL SWAP2 POP PUSH2 0x14D2 DUP5 DUP4 ADD PUSH2 0x12AA JUMP JUMPDEST DUP2 DUP2 MSTORE SWAP2 DUP4 ADD DUP5 ADD SWAP2 DUP5 DUP2 ADD SWAP1 DUP9 DUP5 GT ISZERO PUSH2 0x14EC JUMPI PUSH1 0x0 DUP1 REVERT JUMPDEST SWAP4 DUP6 ADD SWAP4 JUMPDEST DUP4 DUP6 LT ISZERO PUSH2 0x1511 JUMPI PUSH2 0x1502 DUP6 PUSH2 0x11F0 JUMP JUMPDEST DUP3 MSTORE SWAP4 DUP6 ADD SWAP4 SWAP1 DUP6 ADD SWAP1 PUSH2 0x14F1 JUMP JUMPDEST SWAP9 SWAP8 POP POP POP POP POP POP POP POP JUMP JUMPDEST PUSH1 0x0 DUP1 PUSH1 0x40 DUP4 DUP6 SUB SLT ISZERO PUSH2 0x1530 JUMPI PUSH1 0x0 DUP1 REVERT JUMPDEST PUSH2 0x1539 DUP4 PUSH2 0x11F0 JUMP JUMPDEST SWAP2 POP PUSH2 0x1547 PUSH1 0x20 DUP5 ADD PUSH2 0x11F0 JUMP JUMPDEST SWAP1 POP SWAP3 POP SWAP3 SWAP1 POP JUMP JUMPDEST PUSH1 0x0 PUSH1 0x20 DUP3 DUP5 SUB SLT ISZERO PUSH2 0x1562 JUMPI PUSH1 0x0 DUP1 REVERT JUMPDEST POP CALLDATALOAD SWAP2 SWAP1 POP JUMP JUMPDEST PUSH1 0x1 DUP2 DUP2 SHR SWAP1 DUP3 AND DUP1 PUSH2 0x157D JUMPI PUSH1 0x7F DUP3 AND SWAP2 POP JUMPDEST PUSH1 0x20 DUP3 LT DUP2 EQ ISZERO PUSH2 0x159E JUMPI PUSH4 0x4E487B71 PUSH1 0xE0 SHL PUSH1 0x0 MSTORE PUSH1 0x22 PUSH1 0x4 MSTORE PUSH1 0x24 PUSH1 0x0 REVERT JUMPDEST POP SWAP2 SWAP1 POP JUMP JUMPDEST PUSH4 0x4E487B71 PUSH1 0xE0 SHL PUSH1 0x0 MSTORE PUSH1 0x11 PUSH1 0x4 MSTORE PUSH1 0x24 PUSH1 0x0 REVERT JUMPDEST PUSH1 0x0 DUP3 NOT DUP3 GT ISZERO PUSH2 0x15CD JUMPI PUSH2 0x15CD PUSH2 0x15A4 JUMP JUMPDEST POP ADD SWAP1 JUMP JUMPDEST PUSH1 0x20 DUP1 DUP3 MSTORE PUSH1 0x2B SWAP1 DUP3 ADD MSTORE PUSH32 0x496E697469616C697A61626C653A20636F6E7472616374206973206E6F742069 PUSH1 0x40 DUP3 ADD MSTORE PUSH11 0x6E697469616C697A696E67 PUSH1 0xA8 SHL PUSH1 0x60 DUP3 ADD MSTORE PUSH1 0x80 ADD SWAP1 JUMP JUMPDEST PUSH1 0x0 DUP3 PUSH2 0x163A JUMPI PUSH4 0x4E487B71 PUSH1 0xE0 SHL PUSH1 0x0 MSTORE PUSH1 0x12 PUSH1 0x4 MSTORE PUSH1 0x24 PUSH1 0x0 REVERT JUMPDEST POP DIV SWAP1 JUMP JUMPDEST PUSH1 0x0 DUP3 DUP3 LT ISZERO PUSH2 0x1651 JUMPI PUSH2 0x1651 PUSH2 0x15A4 JUMP JUMPDEST POP SUB SWAP1 JUMP JUMPDEST PUSH4 0x4E487B71 PUSH1 0xE0 SHL PUSH1 0x0 MSTORE PUSH1 0x32 PUSH1 0x4 MSTORE PUSH1 0x24 PUSH1 0x0 REVERT JUMPDEST PUSH1 0x0 PUSH8 0xFFFFFFFFFFFFFFFF DUP1 DUP4 AND DUP2 DUP2 EQ ISZERO PUSH2 0x168A JUMPI PUSH2 0x168A PUSH2 0x15A4 JUMP JUMPDEST PUSH1 0x1 ADD SWAP4 SWAP3 POP POP POP JUMP INVALID LOG2 PUSH5 0x6970667358 0x22 SLT KECCAK256 REVERT OR 0xE9 PUSH2 0x3889 0x5D PUSH25 0x6446795DB062DB4024E697D3E09E8B837B851D4D79A428DF64 PUSH20 0x6F6C634300080B00330000000000000000000000 "
				},
				"gasEstimates": {
					"creation": {
						"codeDepositCost": "1166800",
						"executionCost": "1214",
						"totalCost": "1168014"
					},
					"external": {
						"_permitTransfer(address,uint256,uint256,uint256)": "infinite",
						"_taxFee()": "2384",
						"allowance(address,address)": "infinite",
						"approve(address,uint256)": "24669",
						"balanceOf(address)": "2560",
						"decimals()": "222",
						"decreaseAllowance(address,uint256)": "26972",
						"getTokenOwnerAddress()": "2397",
						"increaseAllowance(address,uint256)": "27045",
						"initialize(string,string,uint8,uint256,uint256,address)": "infinite",
						"mapSigner(address)": "2595",
						"name()": "infinite",
						"owner()": "2387",
						"renounceOwnership()": "infinite",
						"setSigners(address[])": "infinite",
						"signers()": "infinite",
						"symbol()": "infinite",
						"totalSupply()": "2371",
						"transfer(address,uint256)": "51220",
						"transferFrom(address,address,uint256)": "infinite",
						"transferOwnership(address)": "28446",
						"uniqueIdExists(uint256)": "2582"
					},
					"internal": {
						"_transferWithBurn(address,uint256)": "infinite",
						"_updateMap(address[] memory,bool,mapping(address => bool))": "infinite"
					}
				},
				"methodIdentifiers": {
					"_permitTransfer(address,uint256,uint256,uint256)": "55b7dc67",
					"_taxFee()": "3b124fe7",
					"allowance(address,address)": "dd62ed3e",
					"approve(address,uint256)": "095ea7b3",
					"balanceOf(address)": "70a08231",
					"decimals()": "313ce567",
					"decreaseAllowance(address,uint256)": "a457c2d7",
					"getTokenOwnerAddress()": "b722d0a5",
					"increaseAllowance(address,uint256)": "39509351",
					"initialize(string,string,uint8,uint256,uint256,address)": "2cd77a5a",
					"mapSigner(address)": "07c351dd",
					"name()": "06fdde03",
					"owner()": "8da5cb5b",
					"renounceOwnership()": "715018a6",
					"setSigners(address[])": "a3772662",
					"signers()": "46f0975a",
					"symbol()": "95d89b41",
					"totalSupply()": "18160ddd",
					"transfer(address,uint256)": "a9059cbb",
					"transferFrom(address,address,uint256)": "23b872dd",
					"transferOwnership(address)": "f2fde38b",
					"uniqueIdExists(uint256)": "f9342285"
				}
			},
			"storageLayout": {
				"storage": [
					{
						"astId": 138,
						"contract": "contracts/Detake3Token.sol:Detake3Token",
						"label": "_initialized",
						"offset": 0,
						"slot": "0",
						"type": "t_uint8"
					},
					{
						"astId": 141,
						"contract": "contracts/Detake3Token.sol:Detake3Token",
						"label": "_initializing",
						"offset": 1,
						"slot": "0",
						"type": "t_bool"
					},
					{
						"astId": 1280,
						"contract": "contracts/Detake3Token.sol:Detake3Token",
						"label": "__gap",
						"offset": 0,
						"slot": "1",
						"type": "t_array(t_uint256)50_storage"
					},
					{
						"astId": 301,
						"contract": "contracts/Detake3Token.sol:Detake3Token",
						"label": "_balances",
						"offset": 0,
						"slot": "51",
						"type": "t_mapping(t_address,t_uint256)"
					},
					{
						"astId": 307,
						"contract": "contracts/Detake3Token.sol:Detake3Token",
						"label": "_allowances",
						"offset": 0,
						"slot": "52",
						"type": "t_mapping(t_address,t_mapping(t_address,t_uint256))"
					},
					{
						"astId": 309,
						"contract": "contracts/Detake3Token.sol:Detake3Token",
						"label": "_totalSupply",
						"offset": 0,
						"slot": "53",
						"type": "t_uint256"
					},
					{
						"astId": 311,
						"contract": "contracts/Detake3Token.sol:Detake3Token",
						"label": "_name",
						"offset": 0,
						"slot": "54",
						"type": "t_string_storage"
					},
					{
						"astId": 313,
						"contract": "contracts/Detake3Token.sol:Detake3Token",
						"label": "_symbol",
						"offset": 0,
						"slot": "55",
						"type": "t_string_storage"
					},
					{
						"astId": 892,
						"contract": "contracts/Detake3Token.sol:Detake3Token",
						"label": "__gap",
						"offset": 0,
						"slot": "56",
						"type": "t_array(t_uint256)45_storage"
					},
					{
						"astId": 10,
						"contract": "contracts/Detake3Token.sol:Detake3Token",
						"label": "_owner",
						"offset": 0,
						"slot": "101",
						"type": "t_address"
					},
					{
						"astId": 130,
						"contract": "contracts/Detake3Token.sol:Detake3Token",
						"label": "__gap",
						"offset": 0,
						"slot": "102",
						"type": "t_array(t_uint256)49_storage"
					},
					{
						"astId": 1291,
						"contract": "contracts/Detake3Token.sol:Detake3Token",
						"label": "_name",
						"offset": 0,
						"slot": "151",
						"type": "t_string_storage"
					},
					{
						"astId": 1293,
						"contract": "contracts/Detake3Token.sol:Detake3Token",
						"label": "_symbol",
						"offset": 0,
						"slot": "152",
						"type": "t_string_storage"
					},
					{
						"astId": 1295,
						"contract": "contracts/Detake3Token.sol:Detake3Token",
						"label": "_decimals",
						"offset": 0,
						"slot": "153",
						"type": "t_uint8"
					},
					{
						"astId": 1297,
						"contract": "contracts/Detake3Token.sol:Detake3Token",
						"label": "_taxFee",
						"offset": 0,
						"slot": "154",
						"type": "t_uint256"
					},
					{
						"astId": 1299,
						"contract": "contracts/Detake3Token.sol:Detake3Token",
						"label": "_tokenOwnerAddress",
						"offset": 0,
						"slot": "155",
						"type": "t_address"
					},
					{
						"astId": 1302,
						"contract": "contracts/Detake3Token.sol:Detake3Token",
						"label": "_signers",
						"offset": 0,
						"slot": "156",
						"type": "t_array(t_address)dyn_storage"
					},
					{
						"astId": 1306,
						"contract": "contracts/Detake3Token.sol:Detake3Token",
						"label": "_mapSigners",
						"offset": 0,
						"slot": "157",
						"type": "t_mapping(t_address,t_bool)"
					},
					{
						"astId": 1310,
						"contract": "contracts/Detake3Token.sol:Detake3Token",
						"label": "uniqueIdExists",
						"offset": 0,
						"slot": "158",
						"type": "t_mapping(t_uint256,t_bool)"
					}
				],
				"types": {
					"t_address": {
						"encoding": "inplace",
						"label": "address",
						"numberOfBytes": "20"
					},
					"t_array(t_address)dyn_storage": {
						"base": "t_address",
						"encoding": "dynamic_array",
						"label": "address[]",
						"numberOfBytes": "32"
					},
					"t_array(t_uint256)45_storage": {
						"base": "t_uint256",
						"encoding": "inplace",
						"label": "uint256[45]",
						"numberOfBytes": "1440"
					},
					"t_array(t_uint256)49_storage": {
						"base": "t_uint256",
						"encoding": "inplace",
						"label": "uint256[49]",
						"numberOfBytes": "1568"
					},
					"t_array(t_uint256)50_storage": {
						"base": "t_uint256",
						"encoding": "inplace",
						"label": "uint256[50]",
						"numberOfBytes": "1600"
					},
					"t_bool": {
						"encoding": "inplace",
						"label": "bool",
						"numberOfBytes": "1"
					},
					"t_mapping(t_address,t_bool)": {
						"encoding": "mapping",
						"key": "t_address",
						"label": "mapping(address => bool)",
						"numberOfBytes": "32",
						"value": "t_bool"
					},
					"t_mapping(t_address,t_mapping(t_address,t_uint256))": {
						"encoding": "mapping",
						"key": "t_address",
						"label": "mapping(address => mapping(address => uint256))",
						"numberOfBytes": "32",
						"value": "t_mapping(t_address,t_uint256)"
					},
					"t_mapping(t_address,t_uint256)": {
						"encoding": "mapping",
						"key": "t_address",
						"label": "mapping(address => uint256)",
						"numberOfBytes": "32",
						"value": "t_uint256"
					},
					"t_mapping(t_uint256,t_bool)": {
						"encoding": "mapping",
						"key": "t_uint256",
						"label": "mapping(uint256 => bool)",
						"numberOfBytes": "32",
						"value": "t_bool"
					},
					"t_string_storage": {
						"encoding": "bytes",
						"label": "string",
						"numberOfBytes": "32"
					},
					"t_uint256": {
						"encoding": "inplace",
						"label": "uint256",
						"numberOfBytes": "32"
					},
					"t_uint8": {
						"encoding": "inplace",
						"label": "uint8",
						"numberOfBytes": "1"
					}
				}
			},
			"userdoc": {
				"kind": "user",
				"methods": {},
				"version": 1
			}
		}
	}
}