{
	"contracts/nodes/MemberController.sol": {
		"MemberController": {
			"abi": [
				{
					"anonymous": false,
					"inputs": [
						{
							"indexed": false,
							"internalType": "uint8",
							"name": "version",
							"type": "uint8"
						}
					],
					"name": "Initialized",
					"type": "event"
				},
				{
					"anonymous": false,
					"inputs": [
						{
							"indexed": true,
							"internalType": "address",
							"name": "previousOwner",
							"type": "address"
						},
						{
							"indexed": true,
							"internalType": "address",
							"name": "newOwner",
							"type": "address"
						}
					],
					"name": "OwnershipTransferred",
					"type": "event"
				},
				{
					"anonymous": false,
					"inputs": [
						{
							"indexed": false,
							"internalType": "address",
							"name": "addr",
							"type": "address"
						},
						{
							"indexed": false,
							"internalType": "address",
							"name": "referralAddr",
							"type": "address"
						}
					],
					"name": "Register",
					"type": "event"
				},
				{
					"stateMutability": "payable",
					"type": "fallback"
				},
				{
					"inputs": [
						{
							"internalType": "address",
							"name": "addr",
							"type": "address"
						}
					],
					"name": "genReferralCode",
					"outputs": [
						{
							"internalType": "uint256",
							"name": "",
							"type": "uint256"
						}
					],
					"stateMutability": "nonpayable",
					"type": "function"
				},
				{
					"inputs": [
						{
							"internalType": "address",
							"name": "addr",
							"type": "address"
						}
					],
					"name": "getDirects",
					"outputs": [
						{
							"internalType": "address[]",
							"name": "",
							"type": "address[]"
						}
					],
					"stateMutability": "view",
					"type": "function"
				},
				{
					"inputs": [
						{
							"internalType": "address",
							"name": "addr",
							"type": "address"
						},
						{
							"internalType": "uint256",
							"name": "levels",
							"type": "uint256"
						}
					],
					"name": "getUplines",
					"outputs": [
						{
							"internalType": "address[]",
							"name": "",
							"type": "address[]"
						}
					],
					"stateMutability": "view",
					"type": "function"
				},
				{
					"inputs": [
						{
							"internalType": "address",
							"name": "rootAddr",
							"type": "address"
						}
					],
					"name": "initialize",
					"outputs": [],
					"stateMutability": "nonpayable",
					"type": "function"
				},
				{
					"inputs": [
						{
							"internalType": "address",
							"name": "",
							"type": "address"
						}
					],
					"name": "members",
					"outputs": [
						{
							"internalType": "bool",
							"name": "active",
							"type": "bool"
						},
						{
							"internalType": "address",
							"name": "upline",
							"type": "address"
						},
						{
							"internalType": "uint256",
							"name": "referralCode",
							"type": "uint256"
						}
					],
					"stateMutability": "view",
					"type": "function"
				},
				{
					"inputs": [],
					"name": "owner",
					"outputs": [
						{
							"internalType": "address",
							"name": "",
							"type": "address"
						}
					],
					"stateMutability": "view",
					"type": "function"
				},
				{
					"inputs": [
						{
							"internalType": "address",
							"name": "addr",
							"type": "address"
						},
						{
							"internalType": "uint256",
							"name": "referralCode",
							"type": "uint256"
						}
					],
					"name": "register",
					"outputs": [],
					"stateMutability": "nonpayable",
					"type": "function"
				},
				{
					"inputs": [],
					"name": "renounceOwnership",
					"outputs": [],
					"stateMutability": "nonpayable",
					"type": "function"
				},
				{
					"inputs": [],
					"name": "root",
					"outputs": [
						{
							"internalType": "address",
							"name": "",
							"type": "address"
						}
					],
					"stateMutability": "view",
					"type": "function"
				},
				{
					"inputs": [
						{
							"internalType": "address",
							"name": "addr",
							"type": "address"
						}
					],
					"name": "setCaller",
					"outputs": [],
					"stateMutability": "nonpayable",
					"type": "function"
				},
				{
					"inputs": [
						{
							"internalType": "address",
							"name": "newOwner",
							"type": "address"
						}
					],
					"name": "transferOwnership",
					"outputs": [],
					"stateMutability": "nonpayable",
					"type": "function"
				},
				{
					"inputs": [
						{
							"internalType": "address",
							"name": "",
							"type": "address"
						}
					],
					"name": "validCaller",
					"outputs": [
						{
							"internalType": "bool",
							"name": "",
							"type": "bool"
						}
					],
					"stateMutability": "view",
					"type": "function"
				},
				{
					"stateMutability": "payable",
					"type": "receive"
				}
			],
			"devdoc": {
				"kind": "dev",
				"methods": {
					"owner()": {
						"details": "Returns the address of the current owner."
					},
					"renounceOwnership()": {
						"details": "Leaves the contract without owner. It will not be possible to call `onlyOwner` functions anymore. Can only be called by the current owner. NOTE: Renouncing ownership will leave the contract without an owner, thereby removing any functionality that is only available to the owner."
					},
					"transferOwnership(address)": {
						"details": "Transfers ownership of the contract to a new account (`newOwner`). Can only be called by the current owner."
					}
				},
				"version": 1
			},
			"evm": {
				"assembly": "    /* \"contracts/nodes/MemberController.sol\":259:3519  contract MemberController is... */\n  mstore(0x40, 0x80)\n  callvalue\n  dup1\n  iszero\n  tag_1\n  jumpi\n  0x00\n  dup1\n  revert\ntag_1:\n  pop\n  dataSize(sub_0)\n  dup1\n  dataOffset(sub_0)\n  0x00\n  codecopy\n  0x00\n  return\nstop\n\nsub_0: assembly {\n        /* \"contracts/nodes/MemberController.sol\":259:3519  contract MemberController is... */\n      mstore(0x40, 0x80)\n      jumpi(tag_1, lt(calldatasize, 0x04))\n      shr(0xe0, calldataload(0x00))\n      dup1\n      0x8da5cb5b\n      gt\n      tag_15\n      jumpi\n      dup1\n      0x8da5cb5b\n      eq\n      tag_9\n      jumpi\n      dup1\n      0xbd54da73\n      eq\n      tag_10\n      jumpi\n      dup1\n      0xbeb92f55\n      eq\n      tag_11\n      jumpi\n      dup1\n      0xc4d66de8\n      eq\n      tag_12\n      jumpi\n      dup1\n      0xebf0c717\n      eq\n      tag_13\n      jumpi\n      dup1\n      0xf2fde38b\n      eq\n      tag_14\n      jumpi\n        /* \"contracts/nodes/MemberController.sol\":3502:3510  revert() */\n      0x00\n      dup1\n      revert\n        /* \"contracts/nodes/MemberController.sol\":259:3519  contract MemberController is... */\n    tag_15:\n      dup1\n      0x08ae4b0c\n      eq\n      tag_3\n      jumpi\n      dup1\n      0x39f5e157\n      eq\n      tag_4\n      jumpi\n      dup1\n      0x6d705ebb\n      eq\n      tag_5\n      jumpi\n      dup1\n      0x715018a6\n      eq\n      tag_6\n      jumpi\n      dup1\n      0x72287edc\n      eq\n      tag_7\n      jumpi\n      dup1\n      0x804a88f6\n      eq\n      tag_8\n      jumpi\n        /* \"contracts/nodes/MemberController.sol\":3502:3510  revert() */\n      0x00\n      dup1\n      revert\n        /* \"contracts/nodes/MemberController.sol\":259:3519  contract MemberController is... */\n    tag_1:\n      jumpi(tag_2, calldatasize)\n        /* \"contracts/nodes/MemberController.sol\":3443:3451  revert() */\n      0x00\n      dup1\n      revert\n        /* \"contracts/nodes/MemberController.sol\":259:3519  contract MemberController is... */\n    tag_2:\n        /* \"contracts/nodes/MemberController.sol\":3502:3510  revert() */\n      0x00\n      dup1\n      revert\n        /* \"contracts/nodes/MemberController.sol\":384:425  mapping(address => Member) public members */\n    tag_3:\n      callvalue\n      dup1\n      iszero\n      tag_20\n      jumpi\n      0x00\n      dup1\n      revert\n    tag_20:\n      pop\n      tag_21\n      tag_22\n      calldatasize\n      0x04\n      tag_23\n      jump\t// in\n    tag_22:\n      mstore(0x20, 0x66)\n      0x00\n      swap1\n      dup2\n      mstore\n      0x40\n      swap1\n      keccak256\n      dup1\n      sload\n      0x02\n      swap1\n      swap2\n      add\n      sload\n      0xff\n      dup3\n      and\n      swap2\n      0x0100\n      swap1\n      div\n      sub(shl(0xa0, 0x01), 0x01)\n      and\n      swap1\n      dup4\n      jump\n    tag_21:\n      0x40\n      dup1\n      mload\n        /* \"#utility.yul\":604:618   */\n      swap4\n      iszero\n        /* \"#utility.yul\":597:619   */\n      iszero\n        /* \"#utility.yul\":579:620   */\n      dup5\n      mstore\n      sub(shl(0xa0, 0x01), 0x01)\n        /* \"#utility.yul\":656:688   */\n      swap1\n      swap3\n      and\n        /* \"#utility.yul\":651:653   */\n      0x20\n        /* \"#utility.yul\":636:654   */\n      dup5\n      add\n        /* \"#utility.yul\":629:689   */\n      mstore\n        /* \"#utility.yul\":705:723   */\n      swap1\n      dup3\n      add\n        /* \"#utility.yul\":698:732   */\n      mstore\n        /* \"#utility.yul\":567:569   */\n      0x60\n        /* \"#utility.yul\":552:570   */\n      add\n        /* \"contracts/nodes/MemberController.sol\":384:425  mapping(address => Member) public members */\n    tag_25:\n      mload(0x40)\n      dup1\n      swap2\n      sub\n      swap1\n      return\n        /* \"contracts/nodes/MemberController.sol\":2931:3400  function genReferralCode(address addr)... */\n    tag_4:\n      callvalue\n      dup1\n      iszero\n      tag_27\n      jumpi\n      0x00\n      dup1\n      revert\n    tag_27:\n      pop\n      tag_28\n      tag_29\n      calldatasize\n      0x04\n      tag_23\n      jump\t// in\n    tag_29:\n      tag_30\n      jump\t// in\n    tag_28:\n      mload(0x40)\n        /* \"#utility.yul\":889:914   */\n      swap1\n      dup2\n      mstore\n        /* \"#utility.yul\":877:879   */\n      0x20\n        /* \"#utility.yul\":862:880   */\n      add\n        /* \"contracts/nodes/MemberController.sol\":2931:3400  function genReferralCode(address addr)... */\n      tag_25\n        /* \"#utility.yul\":743:920   */\n      jump\n        /* \"contracts/nodes/MemberController.sol\":1282:1876  function register(address addr, uint256 referralCode) public override {... */\n    tag_5:\n      callvalue\n      dup1\n      iszero\n      tag_33\n      jumpi\n      0x00\n      dup1\n      revert\n    tag_33:\n      pop\n      tag_34\n      tag_35\n      calldatasize\n      0x04\n      tag_36\n      jump\t// in\n    tag_35:\n      tag_37\n      jump\t// in\n    tag_34:\n      stop\n        /* \"@openzeppelin/contracts-upgradeable/access/OwnableUpgradeable.sol\":2071:2172  function renounceOwnership() public virtual onlyOwner {... */\n    tag_6:\n      callvalue\n      dup1\n      iszero\n      tag_38\n      jumpi\n      0x00\n      dup1\n      revert\n    tag_38:\n      pop\n      tag_34\n      tag_40\n      jump\t// in\n        /* \"contracts/nodes/MemberController.sol\":1882:2349  function getUplines(address addr, uint256 levels)... */\n    tag_7:\n      callvalue\n      dup1\n      iszero\n      tag_41\n      jumpi\n      0x00\n      dup1\n      revert\n    tag_41:\n      pop\n      tag_42\n      tag_43\n      calldatasize\n      0x04\n      tag_36\n      jump\t// in\n    tag_43:\n      tag_44\n      jump\t// in\n    tag_42:\n      mload(0x40)\n      tag_25\n      swap2\n      swap1\n      tag_46\n      jump\t// in\n        /* \"contracts/nodes/MemberController.sol\":431:474  mapping(address => bool) public validCaller */\n    tag_8:\n      callvalue\n      dup1\n      iszero\n      tag_47\n      jumpi\n      0x00\n      dup1\n      revert\n    tag_47:\n      pop\n      tag_48\n      tag_49\n      calldatasize\n      0x04\n      tag_23\n      jump\t// in\n    tag_49:\n      mstore(0x20, 0x67)\n      0x00\n      swap1\n      dup2\n      mstore\n      0x40\n      swap1\n      keccak256\n      sload\n      0xff\n      and\n      dup2\n      jump\n    tag_48:\n      mload(0x40)\n        /* \"#utility.yul\":2012:2026   */\n      swap1\n      iszero\n        /* \"#utility.yul\":2005:2027   */\n      iszero\n        /* \"#utility.yul\":1987:2028   */\n      dup2\n      mstore\n        /* \"#utility.yul\":1975:1977   */\n      0x20\n        /* \"#utility.yul\":1960:1978   */\n      add\n        /* \"contracts/nodes/MemberController.sol\":431:474  mapping(address => bool) public validCaller */\n      tag_25\n        /* \"#utility.yul\":1847:2034   */\n      jump\n        /* \"@openzeppelin/contracts-upgradeable/access/OwnableUpgradeable.sol\":1441:1526  function owner() public view virtual returns (address) {... */\n    tag_9:\n      callvalue\n      dup1\n      iszero\n      tag_53\n      jumpi\n      0x00\n      dup1\n      revert\n    tag_53:\n      pop\n        /* \"@openzeppelin/contracts-upgradeable/access/OwnableUpgradeable.sol\":1513:1519  _owner */\n      and(sub(shl(0xa0, 0x01), 0x01), sload(0x33))\n        /* \"@openzeppelin/contracts-upgradeable/access/OwnableUpgradeable.sol\":1441:1526  function owner() public view virtual returns (address) {... */\n    tag_54:\n      mload(0x40)\n      sub(shl(0xa0, 0x01), 0x01)\n        /* \"#utility.yul\":2203:2235   */\n      swap1\n      swap2\n      and\n        /* \"#utility.yul\":2185:2236   */\n      dup2\n      mstore\n        /* \"#utility.yul\":2173:2175   */\n      0x20\n        /* \"#utility.yul\":2158:2176   */\n      add\n        /* \"@openzeppelin/contracts-upgradeable/access/OwnableUpgradeable.sol\":1441:1526  function owner() public view virtual returns (address) {... */\n      tag_25\n        /* \"#utility.yul\":2039:2242   */\n      jump\n        /* \"contracts/nodes/MemberController.sol\":2511:2744  function getDirects(address addr)... */\n    tag_10:\n      callvalue\n      dup1\n      iszero\n      tag_58\n      jumpi\n      0x00\n      dup1\n      revert\n    tag_58:\n      pop\n      tag_42\n      tag_60\n      calldatasize\n      0x04\n      tag_23\n      jump\t// in\n    tag_60:\n      tag_61\n      jump\t// in\n        /* \"contracts/nodes/MemberController.sol\":2750:2925  function setCaller(address addr) public override onlyOwner {... */\n    tag_11:\n      callvalue\n      dup1\n      iszero\n      tag_63\n      jumpi\n      0x00\n      dup1\n      revert\n    tag_63:\n      pop\n      tag_34\n      tag_65\n      calldatasize\n      0x04\n      tag_23\n      jump\t// in\n    tag_65:\n      tag_66\n      jump\t// in\n        /* \"contracts/nodes/MemberController.sol\":916:1276  function initialize(address rootAddr) public virtual initializer {... */\n    tag_12:\n      callvalue\n      dup1\n      iszero\n      tag_67\n      jumpi\n      0x00\n      dup1\n      revert\n    tag_67:\n      pop\n      tag_34\n      tag_69\n      calldatasize\n      0x04\n      tag_23\n      jump\t// in\n    tag_69:\n      tag_70\n      jump\t// in\n        /* \"contracts/nodes/MemberController.sol\":359:378  address public root */\n    tag_13:\n      callvalue\n      dup1\n      iszero\n      tag_71\n      jumpi\n      0x00\n      dup1\n      revert\n    tag_71:\n      pop\n      sload(0x65)\n      tag_54\n      swap1\n      sub(shl(0xa0, 0x01), 0x01)\n      and\n      dup2\n      jump\n        /* \"@openzeppelin/contracts-upgradeable/access/OwnableUpgradeable.sol\":2321:2519  function transferOwnership(address newOwner) public virtual onlyOwner {... */\n    tag_14:\n      callvalue\n      dup1\n      iszero\n      tag_75\n      jumpi\n      0x00\n      dup1\n      revert\n    tag_75:\n      pop\n      tag_34\n      tag_77\n      calldatasize\n      0x04\n      tag_23\n      jump\t// in\n    tag_77:\n      tag_78\n      jump\t// in\n        /* \"contracts/nodes/MemberController.sol\":2931:3400  function genReferralCode(address addr)... */\n    tag_30:\n        /* \"contracts/nodes/MemberController.sol\":3026:3036  msg.sender */\n      caller\n        /* \"contracts/nodes/MemberController.sol\":3055:3062  uint256 */\n      0x00\n        /* \"contracts/nodes/MemberController.sol\":855:872  validCaller[addr] */\n      dup2\n      dup2\n      mstore\n        /* \"contracts/nodes/MemberController.sol\":855:866  validCaller */\n      0x67\n        /* \"contracts/nodes/MemberController.sol\":855:872  validCaller[addr] */\n      0x20\n      mstore\n      0x40\n      dup2\n      keccak256\n      sload\n        /* \"contracts/nodes/MemberController.sol\":3055:3062  uint256 */\n      swap1\n      swap2\n        /* \"contracts/nodes/MemberController.sol\":3026:3036  msg.sender */\n      swap1\n        /* \"contracts/nodes/MemberController.sol\":855:872  validCaller[addr] */\n      0xff\n      and\n        /* \"contracts/nodes/MemberController.sol\":847:892  require(validCaller[addr], \"Invalid caller.\") */\n      tag_80\n      jumpi\n      mload(0x40)\n      shl(0xe5, 0x461bcd)\n      dup2\n      mstore\n        /* \"#utility.yul\":2449:2451   */\n      0x20\n        /* \"contracts/nodes/MemberController.sol\":847:892  require(validCaller[addr], \"Invalid caller.\") */\n      0x04\n      dup3\n      add\n        /* \"#utility.yul\":2431:2452   */\n      mstore\n        /* \"#utility.yul\":2488:2490   */\n      0x0f\n        /* \"#utility.yul\":2468:2486   */\n      0x24\n      dup3\n      add\n        /* \"#utility.yul\":2461:2491   */\n      mstore\n      shl(0x89, 0x24b73b30b634b21031b0b63632b917)\n        /* \"#utility.yul\":2507:2525   */\n      0x44\n      dup3\n      add\n        /* \"#utility.yul\":2500:2545   */\n      mstore\n        /* \"#utility.yul\":2562:2580   */\n      0x64\n      add\n        /* \"contracts/nodes/MemberController.sol\":847:892  require(validCaller[addr], \"Invalid caller.\") */\n    tag_81:\n      mload(0x40)\n      dup1\n      swap2\n      sub\n      swap1\n      revert\n    tag_80:\n      sub(shl(0xa0, 0x01), 0x01)\n        /* \"contracts/nodes/MemberController.sol\":3102:3115  members[addr] */\n      dup4\n      and\n        /* \"contracts/nodes/MemberController.sol\":3078:3099  Member storage member */\n      0x00\n        /* \"contracts/nodes/MemberController.sol\":3102:3115  members[addr] */\n      swap1\n      dup2\n      mstore\n        /* \"contracts/nodes/MemberController.sol\":3102:3109  members */\n      0x66\n        /* \"contracts/nodes/MemberController.sol\":3102:3115  members[addr] */\n      0x20\n      mstore\n      0x40\n      swap1\n      keccak256\n        /* \"contracts/nodes/MemberController.sol\":3146:3165  member.referralCode */\n      0x02\n      dup2\n      add\n      sload\n        /* \"contracts/nodes/MemberController.sol\":3146:3170  member.referralCode == 0 */\n      iszero\n        /* \"contracts/nodes/MemberController.sol\":3125:3231  require(... */\n      tag_84\n      jumpi\n      mload(0x40)\n      shl(0xe5, 0x461bcd)\n      dup2\n      mstore\n        /* \"#utility.yul\":2793:2795   */\n      0x20\n        /* \"contracts/nodes/MemberController.sol\":3125:3231  require(... */\n      0x04\n      dup3\n      add\n        /* \"#utility.yul\":2775:2796   */\n      mstore\n        /* \"#utility.yul\":2832:2834   */\n      0x23\n        /* \"#utility.yul\":2812:2830   */\n      0x24\n      dup3\n      add\n        /* \"#utility.yul\":2805:2835   */\n      mstore\n        /* \"#utility.yul\":2871:2905   */\n      0x4164647265737320616c7265616479206861766520726566657272616c20636f\n        /* \"#utility.yul\":2851:2869   */\n      0x44\n      dup3\n      add\n        /* \"#utility.yul\":2844:2906   */\n      mstore\n      shl(0xe9, 0x323297)\n        /* \"#utility.yul\":2922:2940   */\n      0x64\n      dup3\n      add\n        /* \"#utility.yul\":2915:2948   */\n      mstore\n        /* \"#utility.yul\":2965:2984   */\n      0x84\n      add\n        /* \"contracts/nodes/MemberController.sol\":3125:3231  require(... */\n      tag_81\n        /* \"#utility.yul\":2591:2990   */\n      jump\n        /* \"contracts/nodes/MemberController.sol\":3125:3231  require(... */\n    tag_84:\n        /* \"contracts/nodes/MemberController.sol\":3241:3257  lastReferralCode */\n      0x68\n        /* \"contracts/nodes/MemberController.sol\":3241:3259  lastReferralCode++ */\n      dup1\n      sload\n      swap1\n        /* \"contracts/nodes/MemberController.sol\":3241:3257  lastReferralCode */\n      0x00\n        /* \"contracts/nodes/MemberController.sol\":3241:3259  lastReferralCode++ */\n      tag_87\n      dup4\n      tag_88\n      jump\t// in\n    tag_87:\n      swap1\n      swap2\n      sstore\n      pop\n      pop\n        /* \"contracts/nodes/MemberController.sol\":3292:3308  lastReferralCode */\n      0x68\n      dup1\n      sload\n        /* \"contracts/nodes/MemberController.sol\":3270:3289  member.referralCode */\n      0x02\n      swap1\n      swap3\n      add\n        /* \"contracts/nodes/MemberController.sol\":3270:3308  member.referralCode = lastReferralCode */\n      dup3\n      swap1\n      sstore\n        /* \"contracts/nodes/MemberController.sol\":3318:3352  referralCodeList[lastReferralCode] */\n      0x00\n      swap2\n      dup3\n      mstore\n        /* \"contracts/nodes/MemberController.sol\":3318:3334  referralCodeList */\n      0x69\n        /* \"contracts/nodes/MemberController.sol\":3318:3352  referralCodeList[lastReferralCode] */\n      0x20\n      mstore\n      0x40\n      swap1\n      swap2\n      keccak256\n        /* \"contracts/nodes/MemberController.sol\":3318:3359  referralCodeList[lastReferralCode] = addr */\n      dup1\n      sload\n      sub(shl(0xa0, 0x01), 0x01)\n      dup7\n      and\n      not(sub(shl(0xa0, 0x01), 0x01))\n      swap1\n      swap2\n      and\n      or\n      swap1\n      sstore\n        /* \"contracts/nodes/MemberController.sol\":3377:3393  lastReferralCode */\n      sload\n      swap2\n      pop\n        /* \"contracts/nodes/MemberController.sol\":2931:3400  function genReferralCode(address addr)... */\n      pop\n      swap2\n      swap1\n      pop\n      jump\t// out\n        /* \"contracts/nodes/MemberController.sol\":1282:1876  function register(address addr, uint256 referralCode) public override {... */\n    tag_37:\n        /* \"contracts/nodes/MemberController.sol\":1362:1382  address referralAddr */\n      0x00\n        /* \"contracts/nodes/MemberController.sol\":1385:1415  referralCodeList[referralCode] */\n      dup2\n      dup2\n      mstore\n        /* \"contracts/nodes/MemberController.sol\":1385:1401  referralCodeList */\n      0x69\n        /* \"contracts/nodes/MemberController.sol\":1385:1415  referralCodeList[referralCode] */\n      0x20\n      mstore\n      0x40\n      swap1\n      keccak256\n      sload\n      sub(shl(0xa0, 0x01), 0x01)\n      and\n      dup1\n        /* \"contracts/nodes/MemberController.sol\":1426:1487  require(referralAddr != address(0), \"Invalid referral code.\") */\n      tag_90\n      jumpi\n      mload(0x40)\n      shl(0xe5, 0x461bcd)\n      dup2\n      mstore\n        /* \"#utility.yul\":3434:3436   */\n      0x20\n        /* \"contracts/nodes/MemberController.sol\":1426:1487  require(referralAddr != address(0), \"Invalid referral code.\") */\n      0x04\n      dup3\n      add\n        /* \"#utility.yul\":3416:3437   */\n      mstore\n        /* \"#utility.yul\":3473:3475   */\n      0x16\n        /* \"#utility.yul\":3453:3471   */\n      0x24\n      dup3\n      add\n        /* \"#utility.yul\":3446:3476   */\n      mstore\n      shl(0x51, 0x24b73b30b634b2103932b332b93930b61031b7b23297)\n        /* \"#utility.yul\":3492:3510   */\n      0x44\n      dup3\n      add\n        /* \"#utility.yul\":3485:3537   */\n      mstore\n        /* \"#utility.yul\":3554:3572   */\n      0x64\n      add\n        /* \"contracts/nodes/MemberController.sol\":1426:1487  require(referralAddr != address(0), \"Invalid referral code.\") */\n      tag_81\n        /* \"#utility.yul\":3232:3578   */\n      jump\n        /* \"contracts/nodes/MemberController.sol\":1426:1487  require(referralAddr != address(0), \"Invalid referral code.\") */\n    tag_90:\n      sub(shl(0xa0, 0x01), 0x01)\n        /* \"contracts/nodes/MemberController.sol\":1522:1535  members[addr] */\n      dup1\n      dup5\n      and\n        /* \"contracts/nodes/MemberController.sol\":1498:1519  Member storage member */\n      0x00\n        /* \"contracts/nodes/MemberController.sol\":1522:1535  members[addr] */\n      swap1\n      dup2\n      mstore\n        /* \"contracts/nodes/MemberController.sol\":1522:1529  members */\n      0x66\n        /* \"contracts/nodes/MemberController.sol\":1522:1535  members[addr] */\n      0x20\n      mstore\n      0x40\n      dup1\n      dup3\n      keccak256\n        /* \"contracts/nodes/MemberController.sol\":1569:1590  members[referralAddr] */\n      swap3\n      dup5\n      and\n      dup3\n      mstore\n      swap1\n      keccak256\n        /* \"contracts/nodes/MemberController.sol\":1610:1623  member.active */\n      dup2\n      sload\n      0xff\n      and\n        /* \"contracts/nodes/MemberController.sol\":1609:1623  !member.active */\n      iszero\n        /* \"contracts/nodes/MemberController.sol\":1601:1656  require(!member.active, \"Address has been registered.\") */\n      tag_93\n      jumpi\n      mload(0x40)\n      shl(0xe5, 0x461bcd)\n      dup2\n      mstore\n        /* \"#utility.yul\":3785:3787   */\n      0x20\n        /* \"contracts/nodes/MemberController.sol\":1601:1656  require(!member.active, \"Address has been registered.\") */\n      0x04\n      dup3\n      add\n        /* \"#utility.yul\":3767:3788   */\n      mstore\n        /* \"#utility.yul\":3824:3826   */\n      0x1c\n        /* \"#utility.yul\":3804:3822   */\n      0x24\n      dup3\n      add\n        /* \"#utility.yul\":3797:3827   */\n      mstore\n        /* \"#utility.yul\":3863:3893   */\n      0x4164647265737320686173206265656e20726567697374657265642e00000000\n        /* \"#utility.yul\":3843:3861   */\n      0x44\n      dup3\n      add\n        /* \"#utility.yul\":3836:3894   */\n      mstore\n        /* \"#utility.yul\":3911:3929   */\n      0x64\n      add\n        /* \"contracts/nodes/MemberController.sol\":1601:1656  require(!member.active, \"Address has been registered.\") */\n      tag_81\n        /* \"#utility.yul\":3583:3935   */\n      jump\n        /* \"contracts/nodes/MemberController.sol\":1601:1656  require(!member.active, \"Address has been registered.\") */\n    tag_93:\n        /* \"contracts/nodes/MemberController.sol\":1674:1687  upline.active */\n      dup1\n      sload\n      0xff\n      and\n        /* \"contracts/nodes/MemberController.sol\":1666:1721  require(upline.active, \"Referral's address not found.\") */\n      tag_96\n      jumpi\n      mload(0x40)\n      shl(0xe5, 0x461bcd)\n      dup2\n      mstore\n        /* \"#utility.yul\":4142:4144   */\n      0x20\n        /* \"contracts/nodes/MemberController.sol\":1666:1721  require(upline.active, \"Referral's address not found.\") */\n      0x04\n      dup3\n      add\n        /* \"#utility.yul\":4124:4145   */\n      mstore\n        /* \"#utility.yul\":4181:4183   */\n      0x1d\n        /* \"#utility.yul\":4161:4179   */\n      0x24\n      dup3\n      add\n        /* \"#utility.yul\":4154:4184   */\n      mstore\n        /* \"#utility.yul\":4220:4251   */\n      0x526566657272616c27732061646472657373206e6f7420666f756e642e000000\n        /* \"#utility.yul\":4200:4218   */\n      0x44\n      dup3\n      add\n        /* \"#utility.yul\":4193:4252   */\n      mstore\n        /* \"#utility.yul\":4269:4287   */\n      0x64\n      add\n        /* \"contracts/nodes/MemberController.sol\":1666:1721  require(upline.active, \"Referral's address not found.\") */\n      tag_81\n        /* \"#utility.yul\":3940:4293   */\n      jump\n        /* \"contracts/nodes/MemberController.sol\":1666:1721  require(upline.active, \"Referral's address not found.\") */\n    tag_96:\n        /* \"contracts/nodes/MemberController.sol\":1732:1760  member.upline = referralAddr */\n      dup2\n      sload\n        /* \"contracts/nodes/MemberController.sol\":1732:1745  member.upline */\n      0x01\n      not(sub(shl(0xa8, 0x01), 0x01))\n        /* \"contracts/nodes/MemberController.sol\":1770:1790  member.active = true */\n      swap1\n      swap2\n      and\n        /* \"contracts/nodes/MemberController.sol\":1732:1760  member.upline = referralAddr */\n      0x0100\n      sub(shl(0xa0, 0x01), 0x01)\n      dup7\n      dup2\n      and\n      swap2\n      dup3\n      mul\n      not(0xff)\n        /* \"contracts/nodes/MemberController.sol\":1770:1790  member.active = true */\n      and\n      swap3\n      swap1\n      swap3\n      or\n      dup4\n      or\n      dup6\n      sstore\n        /* \"contracts/nodes/MemberController.sol\":1800:1814  upline.directs */\n      dup4\n      dup4\n      add\n        /* \"contracts/nodes/MemberController.sol\":1800:1825  upline.directs.push(addr) */\n      dup1\n      sload\n      swap4\n      dup5\n      add\n      dup2\n      sstore\n      0x00\n      swap1\n      dup2\n      mstore\n      0x20\n      swap1\n      dup2\n      swap1\n      keccak256\n      swap1\n      swap4\n      add\n      dup1\n      sload\n      not(sub(shl(0xa0, 0x01), 0x01))\n      and\n      swap3\n      dup10\n      and\n      swap3\n      dup4\n      or\n      swap1\n      sstore\n        /* \"contracts/nodes/MemberController.sol\":1841:1869  Register(addr, referralAddr) */\n      0x40\n      dup1\n      mload\n        /* \"#utility.yul\":4510:4544   */\n      swap3\n      dup4\n      mstore\n        /* \"#utility.yul\":4560:4578   */\n      swap3\n      dup3\n      add\n        /* \"#utility.yul\":4553:4596   */\n      mstore\n        /* \"contracts/nodes/MemberController.sol\":1841:1869  Register(addr, referralAddr) */\n      0x98ada70a1cb506dc4591465e1ee9be3fd7a2b6c73ecf3b949009718c9a351519\n      swap2\n        /* \"#utility.yul\":4445:4463   */\n      add\n        /* \"contracts/nodes/MemberController.sol\":1841:1869  Register(addr, referralAddr) */\n      mload(0x40)\n      dup1\n      swap2\n      sub\n      swap1\n      log1\n        /* \"contracts/nodes/MemberController.sol\":1352:1876  {... */\n      pop\n      pop\n      pop\n        /* \"contracts/nodes/MemberController.sol\":1282:1876  function register(address addr, uint256 referralCode) public override {... */\n      pop\n      pop\n      jump\t// out\n        /* \"@openzeppelin/contracts-upgradeable/access/OwnableUpgradeable.sol\":2071:2172  function renounceOwnership() public virtual onlyOwner {... */\n    tag_40:\n        /* \"@openzeppelin/contracts-upgradeable/access/OwnableUpgradeable.sol\":1334:1347  _checkOwner() */\n      tag_103\n        /* \"@openzeppelin/contracts-upgradeable/access/OwnableUpgradeable.sol\":1334:1345  _checkOwner */\n      tag_104\n        /* \"@openzeppelin/contracts-upgradeable/access/OwnableUpgradeable.sol\":1334:1347  _checkOwner() */\n      jump\t// in\n    tag_103:\n        /* \"@openzeppelin/contracts-upgradeable/access/OwnableUpgradeable.sol\":2135:2165  _transferOwnership(address(0)) */\n      tag_106\n        /* \"@openzeppelin/contracts-upgradeable/access/OwnableUpgradeable.sol\":2162:2163  0 */\n      0x00\n        /* \"@openzeppelin/contracts-upgradeable/access/OwnableUpgradeable.sol\":2135:2153  _transferOwnership */\n      tag_107\n        /* \"@openzeppelin/contracts-upgradeable/access/OwnableUpgradeable.sol\":2135:2165  _transferOwnership(address(0)) */\n      jump\t// in\n    tag_106:\n        /* \"@openzeppelin/contracts-upgradeable/access/OwnableUpgradeable.sol\":2071:2172  function renounceOwnership() public virtual onlyOwner {... */\n      jump\t// out\n        /* \"contracts/nodes/MemberController.sol\":1882:2349  function getUplines(address addr, uint256 levels)... */\n    tag_44:\n      sub(shl(0xa0, 0x01), 0x01)\n        /* \"contracts/nodes/MemberController.sol\":707:720  members[addr] */\n      dup3\n      and\n        /* \"contracts/nodes/MemberController.sol\":683:704  Member storage member */\n      0x00\n        /* \"contracts/nodes/MemberController.sol\":707:720  members[addr] */\n      swap1\n      dup2\n      mstore\n        /* \"contracts/nodes/MemberController.sol\":707:714  members */\n      0x66\n        /* \"contracts/nodes/MemberController.sol\":707:720  members[addr] */\n      0x20\n      mstore\n      0x40\n      swap1\n      keccak256\n        /* \"contracts/nodes/MemberController.sol\":738:751  member.active */\n      dup1\n      sload\n        /* \"contracts/nodes/MemberController.sol\":2024:2040  address[] memory */\n      0x60\n      swap2\n        /* \"contracts/nodes/MemberController.sol\":2001:2005  addr */\n      dup5\n      swap2\n        /* \"contracts/nodes/MemberController.sol\":738:751  member.active */\n      0xff\n      and\n        /* \"contracts/nodes/MemberController.sol\":730:774  require(member.active, \"Address not found.\") */\n      tag_109\n      jumpi\n      mload(0x40)\n      shl(0xe5, 0x461bcd)\n      dup2\n      mstore\n        /* \"#utility.yul\":4809:4811   */\n      0x20\n        /* \"contracts/nodes/MemberController.sol\":730:774  require(member.active, \"Address not found.\") */\n      0x04\n      dup3\n      add\n        /* \"#utility.yul\":4791:4812   */\n      mstore\n        /* \"#utility.yul\":4848:4850   */\n      0x12\n        /* \"#utility.yul\":4828:4846   */\n      0x24\n      dup3\n      add\n        /* \"#utility.yul\":4821:4851   */\n      mstore\n      shl(0x71, 0x20b2323932b9b9903737ba103337bab73217)\n        /* \"#utility.yul\":4867:4885   */\n      0x44\n      dup3\n      add\n        /* \"#utility.yul\":4860:4908   */\n      mstore\n        /* \"#utility.yul\":4925:4943   */\n      0x64\n      add\n        /* \"contracts/nodes/MemberController.sol\":730:774  require(member.active, \"Address not found.\") */\n      tag_81\n        /* \"#utility.yul\":4607:4949   */\n      jump\n        /* \"contracts/nodes/MemberController.sol\":730:774  require(member.active, \"Address not found.\") */\n    tag_109:\n        /* \"contracts/nodes/MemberController.sol\":2056:2080  address[] memory uplines */\n      0x00\n        /* \"contracts/nodes/MemberController.sol\":2097:2103  levels */\n      dup5\n        /* \"contracts/nodes/MemberController.sol\":2083:2104  new address[](levels) */\n      0xffffffffffffffff\n      dup2\n      gt\n      iszero\n      tag_114\n      jumpi\n      tag_114\n      tag_115\n      jump\t// in\n    tag_114:\n      mload(0x40)\n      swap1\n      dup1\n      dup3\n      mstore\n      dup1\n      0x20\n      mul\n      0x20\n      add\n      dup3\n      add\n      0x40\n      mstore\n      dup1\n      iszero\n      tag_116\n      jumpi\n      dup2\n      0x20\n      add\n      0x20\n      dup3\n      mul\n      dup1\n      calldatasize\n      dup4\n      calldatacopy\n      add\n      swap1\n      pop\n    tag_116:\n      pop\n        /* \"contracts/nodes/MemberController.sol\":2056:2104  address[] memory uplines = new address[](levels) */\n      swap1\n      pop\n        /* \"contracts/nodes/MemberController.sol\":2132:2136  addr */\n      dup6\n        /* \"contracts/nodes/MemberController.sol\":2114:2129  address curAddr */\n      0x00\n        /* \"contracts/nodes/MemberController.sol\":2147:2318  for (uint256 i = 0; i < levels; i++) {... */\n    tag_117:\n        /* \"contracts/nodes/MemberController.sol\":2171:2177  levels */\n      dup7\n        /* \"contracts/nodes/MemberController.sol\":2167:2168  i */\n      dup2\n        /* \"contracts/nodes/MemberController.sol\":2167:2177  i < levels */\n      lt\n        /* \"contracts/nodes/MemberController.sol\":2147:2318  for (uint256 i = 0; i < levels; i++) {... */\n      iszero\n      tag_118\n      jumpi\n      sub(shl(0xa0, 0x01), 0x01)\n        /* \"contracts/nodes/MemberController.sol\":2455:2468  members[addr] */\n      swap2\n      dup3\n      and\n        /* \"contracts/nodes/MemberController.sol\":2412:2419  address */\n      0x00\n        /* \"contracts/nodes/MemberController.sol\":2455:2468  members[addr] */\n      swap1\n      dup2\n      mstore\n        /* \"contracts/nodes/MemberController.sol\":2455:2462  members */\n      0x66\n        /* \"contracts/nodes/MemberController.sol\":2455:2468  members[addr] */\n      0x20\n      mstore\n      0x40\n      swap1\n      keccak256\n        /* \"contracts/nodes/MemberController.sol\":2485:2498  member.upline */\n      sload\n      0x0100\n      swap1\n      div\n      swap1\n      swap2\n      and\n      swap1\n        /* \"contracts/nodes/MemberController.sol\":2241:2273  if (curAddr == address(0)) break */\n      dup2\n      iszero\n        /* \"contracts/nodes/MemberController.sol\":2268:2273  break */\n      tag_118\n        /* \"contracts/nodes/MemberController.sol\":2241:2273  if (curAddr == address(0)) break */\n      jumpi\n        /* \"contracts/nodes/MemberController.sol\":2300:2307  curAddr */\n      dup2\n        /* \"contracts/nodes/MemberController.sol\":2287:2294  uplines */\n      dup4\n        /* \"contracts/nodes/MemberController.sol\":2295:2296  i */\n      dup3\n        /* \"contracts/nodes/MemberController.sol\":2287:2297  uplines[i] */\n      dup2\n      mload\n      dup2\n      lt\n      tag_124\n      jumpi\n      tag_124\n      tag_125\n      jump\t// in\n    tag_124:\n      sub(shl(0xa0, 0x01), 0x01)\n        /* \"contracts/nodes/MemberController.sol\":2287:2307  uplines[i] = curAddr */\n      swap1\n      swap3\n      and\n        /* \"contracts/nodes/MemberController.sol\":2287:2297  uplines[i] */\n      0x20\n      swap3\n      dup4\n      mul\n      swap2\n      swap1\n      swap2\n      add\n      swap1\n      swap2\n      add\n        /* \"contracts/nodes/MemberController.sol\":2287:2307  uplines[i] = curAddr */\n      mstore\n        /* \"contracts/nodes/MemberController.sol\":2179:2182  i++ */\n      dup1\n      tag_126\n      dup2\n      tag_88\n      jump\t// in\n    tag_126:\n      swap2\n      pop\n      pop\n        /* \"contracts/nodes/MemberController.sol\":2147:2318  for (uint256 i = 0; i < levels; i++) {... */\n      jump(tag_117)\n    tag_118:\n      pop\n        /* \"contracts/nodes/MemberController.sol\":2335:2342  uplines */\n      swap1\n      swap7\n        /* \"contracts/nodes/MemberController.sol\":1882:2349  function getUplines(address addr, uint256 levels)... */\n      swap6\n      pop\n      pop\n      pop\n      pop\n      pop\n      pop\n      jump\t// out\n        /* \"contracts/nodes/MemberController.sol\":2511:2744  function getDirects(address addr)... */\n    tag_61:\n      sub(shl(0xa0, 0x01), 0x01)\n        /* \"contracts/nodes/MemberController.sol\":707:720  members[addr] */\n      dup2\n      and\n        /* \"contracts/nodes/MemberController.sol\":683:704  Member storage member */\n      0x00\n        /* \"contracts/nodes/MemberController.sol\":707:720  members[addr] */\n      swap1\n      dup2\n      mstore\n        /* \"contracts/nodes/MemberController.sol\":707:714  members */\n      0x66\n        /* \"contracts/nodes/MemberController.sol\":707:720  members[addr] */\n      0x20\n      mstore\n      0x40\n      swap1\n      keccak256\n        /* \"contracts/nodes/MemberController.sol\":738:751  member.active */\n      dup1\n      sload\n        /* \"contracts/nodes/MemberController.sol\":2637:2653  address[] memory */\n      0x60\n      swap2\n        /* \"contracts/nodes/MemberController.sol\":2614:2618  addr */\n      dup4\n      swap2\n        /* \"contracts/nodes/MemberController.sol\":738:751  member.active */\n      0xff\n      and\n        /* \"contracts/nodes/MemberController.sol\":730:774  require(member.active, \"Address not found.\") */\n      tag_129\n      jumpi\n      mload(0x40)\n      shl(0xe5, 0x461bcd)\n      dup2\n      mstore\n        /* \"#utility.yul\":4809:4811   */\n      0x20\n        /* \"contracts/nodes/MemberController.sol\":730:774  require(member.active, \"Address not found.\") */\n      0x04\n      dup3\n      add\n        /* \"#utility.yul\":4791:4812   */\n      mstore\n        /* \"#utility.yul\":4848:4850   */\n      0x12\n        /* \"#utility.yul\":4828:4846   */\n      0x24\n      dup3\n      add\n        /* \"#utility.yul\":4821:4851   */\n      mstore\n      shl(0x71, 0x20b2323932b9b9903737ba103337bab73217)\n        /* \"#utility.yul\":4867:4885   */\n      0x44\n      dup3\n      add\n        /* \"#utility.yul\":4860:4908   */\n      mstore\n        /* \"#utility.yul\":4925:4943   */\n      0x64\n      add\n        /* \"contracts/nodes/MemberController.sol\":730:774  require(member.active, \"Address not found.\") */\n      tag_81\n        /* \"#utility.yul\":4607:4949   */\n      jump\n        /* \"contracts/nodes/MemberController.sol\":730:774  require(member.active, \"Address not found.\") */\n    tag_129:\n      sub(shl(0xa0, 0x01), 0x01)\n        /* \"contracts/nodes/MemberController.sol\":2693:2706  members[addr] */\n      dup5\n      and\n        /* \"contracts/nodes/MemberController.sol\":2669:2690  Member storage member */\n      0x00\n        /* \"contracts/nodes/MemberController.sol\":2693:2706  members[addr] */\n      swap1\n      dup2\n      mstore\n        /* \"contracts/nodes/MemberController.sol\":2693:2700  members */\n      0x66\n        /* \"contracts/nodes/MemberController.sol\":2693:2706  members[addr] */\n      0x20\n      swap1\n      dup2\n      mstore\n      0x40\n      swap2\n      dup3\n      swap1\n      keccak256\n        /* \"contracts/nodes/MemberController.sol\":2723:2737  member.directs */\n      0x01\n      dup2\n      add\n        /* \"contracts/nodes/MemberController.sol\":2716:2737  return member.directs */\n      dup1\n      sload\n      dup5\n      mload\n      dup2\n      dup6\n      mul\n      dup2\n      add\n      dup6\n      add\n      swap1\n      swap6\n      mstore\n      dup1\n      dup6\n      mstore\n        /* \"contracts/nodes/MemberController.sol\":2693:2706  members[addr] */\n      swap2\n      swap4\n        /* \"contracts/nodes/MemberController.sol\":2716:2737  return member.directs */\n      swap3\n        /* \"contracts/nodes/MemberController.sol\":2723:2737  member.directs */\n      swap1\n      swap2\n        /* \"contracts/nodes/MemberController.sol\":2716:2737  return member.directs */\n      swap1\n      dup4\n      add\n        /* \"contracts/nodes/MemberController.sol\":2723:2737  member.directs */\n      dup3\n        /* \"contracts/nodes/MemberController.sol\":2716:2737  return member.directs */\n      dup3\n      dup1\n      iszero\n      tag_132\n      jumpi\n      0x20\n      mul\n      dup3\n      add\n      swap2\n      swap1\n      0x00\n      mstore\n      keccak256(0x00, 0x20)\n      swap1\n    tag_133:\n      dup2\n      sload\n      sub(shl(0xa0, 0x01), 0x01)\n      and\n      dup2\n      mstore\n      0x01\n      swap1\n      swap2\n      add\n      swap1\n      0x20\n      add\n      dup1\n      dup4\n      gt\n      tag_133\n      jumpi\n    tag_132:\n      pop\n      pop\n      pop\n      pop\n      pop\n      swap4\n      pop\n      pop\n        /* \"contracts/nodes/MemberController.sol\":673:792  {... */\n      pop\n        /* \"contracts/nodes/MemberController.sol\":2511:2744  function getDirects(address addr)... */\n      pop\n      swap2\n      swap1\n      pop\n      jump\t// out\n        /* \"contracts/nodes/MemberController.sol\":2750:2925  function setCaller(address addr) public override onlyOwner {... */\n    tag_66:\n        /* \"@openzeppelin/contracts-upgradeable/access/OwnableUpgradeable.sol\":1334:1347  _checkOwner() */\n      tag_135\n        /* \"@openzeppelin/contracts-upgradeable/access/OwnableUpgradeable.sol\":1334:1345  _checkOwner */\n      tag_104\n        /* \"@openzeppelin/contracts-upgradeable/access/OwnableUpgradeable.sol\":1334:1347  _checkOwner() */\n      jump\t// in\n    tag_135:\n      sub(shl(0xa0, 0x01), 0x01)\n        /* \"contracts/nodes/MemberController.sol\":2828:2845  validCaller[addr] */\n      dup2\n      and\n      0x00\n      swap1\n      dup2\n      mstore\n        /* \"contracts/nodes/MemberController.sol\":2828:2839  validCaller */\n      0x67\n        /* \"contracts/nodes/MemberController.sol\":2828:2845  validCaller[addr] */\n      0x20\n      mstore\n      0x40\n      swap1\n      keccak256\n      sload\n      0xff\n      and\n        /* \"contracts/nodes/MemberController.sol\":2827:2845  !validCaller[addr] */\n      iszero\n        /* \"contracts/nodes/MemberController.sol\":2819:2884  require(!validCaller[addr], \"Address already is a valid caller.\") */\n      tag_137\n      jumpi\n      mload(0x40)\n      shl(0xe5, 0x461bcd)\n      dup2\n      mstore\n        /* \"#utility.yul\":5420:5422   */\n      0x20\n        /* \"contracts/nodes/MemberController.sol\":2819:2884  require(!validCaller[addr], \"Address already is a valid caller.\") */\n      0x04\n      dup3\n      add\n        /* \"#utility.yul\":5402:5423   */\n      mstore\n        /* \"#utility.yul\":5459:5461   */\n      0x22\n        /* \"#utility.yul\":5439:5457   */\n      0x24\n      dup3\n      add\n        /* \"#utility.yul\":5432:5462   */\n      mstore\n        /* \"#utility.yul\":5498:5532   */\n      0x4164647265737320616c726561647920697320612076616c69642063616c6c65\n        /* \"#utility.yul\":5478:5496   */\n      0x44\n      dup3\n      add\n        /* \"#utility.yul\":5471:5533   */\n      mstore\n      shl(0xf1, 0x3917)\n        /* \"#utility.yul\":5549:5567   */\n      0x64\n      dup3\n      add\n        /* \"#utility.yul\":5542:5574   */\n      mstore\n        /* \"#utility.yul\":5591:5610   */\n      0x84\n      add\n        /* \"contracts/nodes/MemberController.sol\":2819:2884  require(!validCaller[addr], \"Address already is a valid caller.\") */\n      tag_81\n        /* \"#utility.yul\":5218:5616   */\n      jump\n        /* \"contracts/nodes/MemberController.sol\":2819:2884  require(!validCaller[addr], \"Address already is a valid caller.\") */\n    tag_137:\n      sub(shl(0xa0, 0x01), 0x01)\n        /* \"contracts/nodes/MemberController.sol\":2894:2911  validCaller[addr] */\n      and\n      0x00\n      swap1\n      dup2\n      mstore\n        /* \"contracts/nodes/MemberController.sol\":2894:2905  validCaller */\n      0x67\n        /* \"contracts/nodes/MemberController.sol\":2894:2911  validCaller[addr] */\n      0x20\n      mstore\n      0x40\n      swap1\n      keccak256\n        /* \"contracts/nodes/MemberController.sol\":2894:2918  validCaller[addr] = true */\n      dup1\n      sload\n      not(0xff)\n      and\n        /* \"contracts/nodes/MemberController.sol\":2914:2918  true */\n      0x01\n        /* \"contracts/nodes/MemberController.sol\":2894:2918  validCaller[addr] = true */\n      or\n      swap1\n      sstore\n        /* \"contracts/nodes/MemberController.sol\":2750:2925  function setCaller(address addr) public override onlyOwner {... */\n      jump\t// out\n        /* \"contracts/nodes/MemberController.sol\":916:1276  function initialize(address rootAddr) public virtual initializer {... */\n    tag_70:\n        /* \"@openzeppelin/contracts-upgradeable/proxy/utils/Initializable.sol\":3111:3130  bool isTopLevelCall */\n      0x00\n        /* \"@openzeppelin/contracts-upgradeable/proxy/utils/Initializable.sol\":3134:3147  _initializing */\n      sload\n      0x0100\n      swap1\n      div\n      0xff\n      and\n        /* \"@openzeppelin/contracts-upgradeable/proxy/utils/Initializable.sol\":3133:3147  !_initializing */\n      iszero\n      dup1\n        /* \"@openzeppelin/contracts-upgradeable/proxy/utils/Initializable.sol\":3179:3213  isTopLevelCall && _initialized < 1 */\n      dup1\n      iszero\n      tag_141\n      jumpi\n      pop\n        /* \"@openzeppelin/contracts-upgradeable/proxy/utils/Initializable.sol\":3197:3209  _initialized */\n      sload(0x00)\n        /* \"@openzeppelin/contracts-upgradeable/proxy/utils/Initializable.sol\":3212:3213  1 */\n      0x01\n        /* \"@openzeppelin/contracts-upgradeable/proxy/utils/Initializable.sol\":3197:3209  _initialized */\n      0xff\n      swap1\n      swap2\n      and\n        /* \"@openzeppelin/contracts-upgradeable/proxy/utils/Initializable.sol\":3197:3213  _initialized < 1 */\n      lt\n        /* \"@openzeppelin/contracts-upgradeable/proxy/utils/Initializable.sol\":3179:3213  isTopLevelCall && _initialized < 1 */\n    tag_141:\n        /* \"@openzeppelin/contracts-upgradeable/proxy/utils/Initializable.sol\":3178:3286  (isTopLevelCall && _initialized < 1) || (!AddressUpgradeable.isContract(address(this)) && _initialized == 1) */\n      dup1\n      tag_145\n      jumpi\n      pop\n        /* \"@openzeppelin/contracts-upgradeable/proxy/utils/Initializable.sol\":3258:3262  this */\n      address\n        /* \"@openzeppelin/contracts-upgradeable/utils/AddressUpgradeable.sol\":1476:1495  account.code.length */\n      extcodesize\n        /* \"@openzeppelin/contracts-upgradeable/utils/AddressUpgradeable.sol\":1476:1499  account.code.length > 0 */\n      iszero\n      dup1\n      iszero\n        /* \"@openzeppelin/contracts-upgradeable/proxy/utils/Initializable.sol\":3219:3285  !AddressUpgradeable.isContract(address(this)) && _initialized == 1 */\n      tag_145\n      jumpi\n      pop\n        /* \"@openzeppelin/contracts-upgradeable/proxy/utils/Initializable.sol\":3268:3280  _initialized */\n      and(0xff, sload(0x00))\n      0x01\n        /* \"@openzeppelin/contracts-upgradeable/proxy/utils/Initializable.sol\":3268:3285  _initialized == 1 */\n      eq\n        /* \"@openzeppelin/contracts-upgradeable/proxy/utils/Initializable.sol\":3219:3285  !AddressUpgradeable.isContract(address(this)) && _initialized == 1 */\n    tag_145:\n        /* \"@openzeppelin/contracts-upgradeable/proxy/utils/Initializable.sol\":3157:3358  require(... */\n      tag_146\n      jumpi\n      mload(0x40)\n      shl(0xe5, 0x461bcd)\n      dup2\n      mstore\n        /* \"#utility.yul\":5823:5825   */\n      0x20\n        /* \"@openzeppelin/contracts-upgradeable/proxy/utils/Initializable.sol\":3157:3358  require(... */\n      0x04\n      dup3\n      add\n        /* \"#utility.yul\":5805:5826   */\n      mstore\n        /* \"#utility.yul\":5862:5864   */\n      0x2e\n        /* \"#utility.yul\":5842:5860   */\n      0x24\n      dup3\n      add\n        /* \"#utility.yul\":5835:5865   */\n      mstore\n        /* \"#utility.yul\":5901:5935   */\n      0x496e697469616c697a61626c653a20636f6e747261637420697320616c726561\n        /* \"#utility.yul\":5881:5899   */\n      0x44\n      dup3\n      add\n        /* \"#utility.yul\":5874:5936   */\n      mstore\n      shl(0x92, 0x191e481a5b9a5d1a585b1a5e9959)\n        /* \"#utility.yul\":5952:5970   */\n      0x64\n      dup3\n      add\n        /* \"#utility.yul\":5945:5989   */\n      mstore\n        /* \"#utility.yul\":6006:6025   */\n      0x84\n      add\n        /* \"@openzeppelin/contracts-upgradeable/proxy/utils/Initializable.sol\":3157:3358  require(... */\n      tag_81\n        /* \"#utility.yul\":5621:6031   */\n      jump\n        /* \"@openzeppelin/contracts-upgradeable/proxy/utils/Initializable.sol\":3157:3358  require(... */\n    tag_146:\n        /* \"@openzeppelin/contracts-upgradeable/proxy/utils/Initializable.sol\":3368:3380  _initialized */\n      0x00\n        /* \"@openzeppelin/contracts-upgradeable/proxy/utils/Initializable.sol\":3368:3384  _initialized = 1 */\n      dup1\n      sload\n      not(0xff)\n      and\n        /* \"@openzeppelin/contracts-upgradeable/proxy/utils/Initializable.sol\":3383:3384  1 */\n      0x01\n        /* \"@openzeppelin/contracts-upgradeable/proxy/utils/Initializable.sol\":3368:3384  _initialized = 1 */\n      or\n      swap1\n      sstore\n        /* \"@openzeppelin/contracts-upgradeable/proxy/utils/Initializable.sol\":3394:3459  if (isTopLevelCall) {... */\n      dup1\n      iszero\n      tag_149\n      jumpi\n        /* \"@openzeppelin/contracts-upgradeable/proxy/utils/Initializable.sol\":3428:3441  _initializing */\n      0x00\n        /* \"@openzeppelin/contracts-upgradeable/proxy/utils/Initializable.sol\":3428:3448  _initializing = true */\n      dup1\n      sload\n      not(0xff00)\n      and\n      0x0100\n      or\n      swap1\n      sstore\n        /* \"@openzeppelin/contracts-upgradeable/proxy/utils/Initializable.sol\":3394:3459  if (isTopLevelCall) {... */\n    tag_149:\n        /* \"contracts/nodes/MemberController.sol\":991:1007  __Ownable_init() */\n      tag_151\n        /* \"contracts/nodes/MemberController.sol\":991:1005  __Ownable_init */\n      tag_152\n        /* \"contracts/nodes/MemberController.sol\":991:1007  __Ownable_init() */\n      jump\t// in\n    tag_151:\n      sub(shl(0xa0, 0x01), 0x01)\n        /* \"contracts/nodes/MemberController.sol\":1042:1059  members[rootAddr] */\n      dup3\n      and\n        /* \"contracts/nodes/MemberController.sol\":1018:1039  Member storage member */\n      0x00\n        /* \"contracts/nodes/MemberController.sol\":1042:1059  members[rootAddr] */\n      dup2\n      dup2\n      mstore\n        /* \"contracts/nodes/MemberController.sol\":1042:1049  members */\n      0x66\n        /* \"contracts/nodes/MemberController.sol\":1042:1059  members[rootAddr] */\n      0x20\n      swap1\n      dup2\n      mstore\n      0x40\n      dup3\n      keccak256\n        /* \"contracts/nodes/MemberController.sol\":1069:1095  member.upline = address(0) */\n      dup1\n      sload\n      not(sub(shl(0xa8, 0x01), 0x01))\n        /* \"contracts/nodes/MemberController.sol\":1105:1125  member.active = true */\n      and\n        /* \"contracts/nodes/MemberController.sol\":1069:1082  member.upline */\n      0x01\n        /* \"contracts/nodes/MemberController.sol\":1105:1125  member.active = true */\n      or\n      dup2\n      sstore\n        /* \"contracts/nodes/MemberController.sol\":1157:1163  100000 */\n      0x0186a0\n        /* \"contracts/nodes/MemberController.sol\":1135:1154  member.referralCode */\n      0x02\n      swap1\n      swap2\n      add\n        /* \"contracts/nodes/MemberController.sol\":1135:1163  member.referralCode = 100000 */\n      dup2\n      swap1\n      sstore\n        /* \"contracts/nodes/MemberController.sol\":1173:1189  lastReferralCode */\n      0x68\n        /* \"contracts/nodes/MemberController.sol\":1173:1198  lastReferralCode = 100000 */\n      dup2\n      swap1\n      sstore\n        /* \"contracts/nodes/MemberController.sol\":1208:1232  referralCodeList[100000] */\n      swap1\n      swap2\n      mstore\n        /* \"contracts/nodes/MemberController.sol\":1208:1224  referralCodeList */\n      0x69\n        /* \"contracts/nodes/MemberController.sol\":1208:1232  referralCodeList[100000] */\n      swap1\n      mstore\n      0xebf4205679cb5d1e00a43333ac8aa4323c0688465c8f3241fd5c5e6819ec54bb\n        /* \"contracts/nodes/MemberController.sol\":1208:1243  referralCodeList[100000] = rootAddr */\n      dup1\n      sload\n      not(sub(shl(0xa0, 0x01), 0x01))\n      swap1\n      dup2\n      and\n      dup4\n      or\n      swap1\n      swap2\n      sstore\n        /* \"contracts/nodes/MemberController.sol\":1254:1258  root */\n      0x65\n        /* \"contracts/nodes/MemberController.sol\":1254:1269  root = rootAddr */\n      dup1\n      sload\n      swap1\n      swap2\n      and\n      swap1\n      swap2\n      or\n      swap1\n      sstore\n        /* \"@openzeppelin/contracts-upgradeable/proxy/utils/Initializable.sol\":3479:3578  if (isTopLevelCall) {... */\n      dup1\n      iszero\n      tag_153\n      jumpi\n        /* \"@openzeppelin/contracts-upgradeable/proxy/utils/Initializable.sol\":3529:3534  false */\n      0x00\n        /* \"@openzeppelin/contracts-upgradeable/proxy/utils/Initializable.sol\":3513:3534  _initializing = false */\n      dup1\n      sload\n      not(0xff00)\n      and\n      swap1\n      sstore\n        /* \"@openzeppelin/contracts-upgradeable/proxy/utils/Initializable.sol\":3553:3567  Initialized(1) */\n      mload(0x40)\n      0x01\n        /* \"#utility.yul\":6188:6224   */\n      dup2\n      mstore\n        /* \"@openzeppelin/contracts-upgradeable/proxy/utils/Initializable.sol\":3553:3567  Initialized(1) */\n      0x7f26b83ff96e1f2b6a682f133852f6798a09c465da95921460cefb3847402498\n      swap1\n        /* \"#utility.yul\":6176:6178   */\n      0x20\n        /* \"#utility.yul\":6161:6179   */\n      add\n        /* \"@openzeppelin/contracts-upgradeable/proxy/utils/Initializable.sol\":3553:3567  Initialized(1) */\n      mload(0x40)\n      dup1\n      swap2\n      sub\n      swap1\n      log1\n        /* \"@openzeppelin/contracts-upgradeable/proxy/utils/Initializable.sol\":3479:3578  if (isTopLevelCall) {... */\n    tag_153:\n        /* \"@openzeppelin/contracts-upgradeable/proxy/utils/Initializable.sol\":3101:3584  {... */\n      pop\n        /* \"contracts/nodes/MemberController.sol\":916:1276  function initialize(address rootAddr) public virtual initializer {... */\n      pop\n      jump\t// out\n        /* \"@openzeppelin/contracts-upgradeable/access/OwnableUpgradeable.sol\":2321:2519  function transferOwnership(address newOwner) public virtual onlyOwner {... */\n    tag_78:\n        /* \"@openzeppelin/contracts-upgradeable/access/OwnableUpgradeable.sol\":1334:1347  _checkOwner() */\n      tag_157\n        /* \"@openzeppelin/contracts-upgradeable/access/OwnableUpgradeable.sol\":1334:1345  _checkOwner */\n      tag_104\n        /* \"@openzeppelin/contracts-upgradeable/access/OwnableUpgradeable.sol\":1334:1347  _checkOwner() */\n      jump\t// in\n    tag_157:\n      sub(shl(0xa0, 0x01), 0x01)\n        /* \"@openzeppelin/contracts-upgradeable/access/OwnableUpgradeable.sol\":2409:2431  newOwner != address(0) */\n      dup2\n      and\n        /* \"@openzeppelin/contracts-upgradeable/access/OwnableUpgradeable.sol\":2401:2474  require(newOwner != address(0), \"Ownable: new owner is the zero address\") */\n      tag_159\n      jumpi\n      mload(0x40)\n      shl(0xe5, 0x461bcd)\n      dup2\n      mstore\n        /* \"#utility.yul\":6437:6439   */\n      0x20\n        /* \"@openzeppelin/contracts-upgradeable/access/OwnableUpgradeable.sol\":2401:2474  require(newOwner != address(0), \"Ownable: new owner is the zero address\") */\n      0x04\n      dup3\n      add\n        /* \"#utility.yul\":6419:6440   */\n      mstore\n        /* \"#utility.yul\":6476:6478   */\n      0x26\n        /* \"#utility.yul\":6456:6474   */\n      0x24\n      dup3\n      add\n        /* \"#utility.yul\":6449:6479   */\n      mstore\n        /* \"#utility.yul\":6515:6549   */\n      0x4f776e61626c653a206e6577206f776e657220697320746865207a65726f2061\n        /* \"#utility.yul\":6495:6513   */\n      0x44\n      dup3\n      add\n        /* \"#utility.yul\":6488:6550   */\n      mstore\n      shl(0xd0, 0x646472657373)\n        /* \"#utility.yul\":6566:6584   */\n      0x64\n      dup3\n      add\n        /* \"#utility.yul\":6559:6595   */\n      mstore\n        /* \"#utility.yul\":6612:6631   */\n      0x84\n      add\n        /* \"@openzeppelin/contracts-upgradeable/access/OwnableUpgradeable.sol\":2401:2474  require(newOwner != address(0), \"Ownable: new owner is the zero address\") */\n      tag_81\n        /* \"#utility.yul\":6235:6637   */\n      jump\n        /* \"@openzeppelin/contracts-upgradeable/access/OwnableUpgradeable.sol\":2401:2474  require(newOwner != address(0), \"Ownable: new owner is the zero address\") */\n    tag_159:\n        /* \"@openzeppelin/contracts-upgradeable/access/OwnableUpgradeable.sol\":2484:2512  _transferOwnership(newOwner) */\n      tag_162\n        /* \"@openzeppelin/contracts-upgradeable/access/OwnableUpgradeable.sol\":2503:2511  newOwner */\n      dup2\n        /* \"@openzeppelin/contracts-upgradeable/access/OwnableUpgradeable.sol\":2484:2502  _transferOwnership */\n      tag_107\n        /* \"@openzeppelin/contracts-upgradeable/access/OwnableUpgradeable.sol\":2484:2512  _transferOwnership(newOwner) */\n      jump\t// in\n    tag_162:\n        /* \"@openzeppelin/contracts-upgradeable/access/OwnableUpgradeable.sol\":2321:2519  function transferOwnership(address newOwner) public virtual onlyOwner {... */\n      pop\n      jump\t// out\n        /* \"@openzeppelin/contracts-upgradeable/access/OwnableUpgradeable.sol\":1599:1729  function _checkOwner() internal view virtual {... */\n    tag_104:\n        /* \"@openzeppelin/contracts-upgradeable/access/OwnableUpgradeable.sol\":1513:1519  _owner */\n      and(sub(shl(0xa0, 0x01), 0x01), sload(0x33))\n        /* \"@openzeppelin/contracts-upgradeable/utils/ContextUpgradeable.sol\":929:939  msg.sender */\n      caller\n        /* \"@openzeppelin/contracts-upgradeable/access/OwnableUpgradeable.sol\":1662:1685  owner() == _msgSender() */\n      eq\n        /* \"@openzeppelin/contracts-upgradeable/access/OwnableUpgradeable.sol\":1654:1722  require(owner() == _msgSender(), \"Ownable: caller is not the owner\") */\n      tag_106\n      jumpi\n      mload(0x40)\n      shl(0xe5, 0x461bcd)\n      dup2\n      mstore\n        /* \"#utility.yul\":6844:6846   */\n      0x20\n        /* \"@openzeppelin/contracts-upgradeable/access/OwnableUpgradeable.sol\":1654:1722  require(owner() == _msgSender(), \"Ownable: caller is not the owner\") */\n      0x04\n      dup3\n      add\n        /* \"#utility.yul\":6826:6847   */\n      dup2\n      swap1\n      mstore\n        /* \"#utility.yul\":6863:6881   */\n      0x24\n      dup3\n      add\n        /* \"#utility.yul\":6856:6886   */\n      mstore\n        /* \"#utility.yul\":6922:6956   */\n      0x4f776e61626c653a2063616c6c6572206973206e6f7420746865206f776e6572\n        /* \"#utility.yul\":6902:6920   */\n      0x44\n      dup3\n      add\n        /* \"#utility.yul\":6895:6957   */\n      mstore\n        /* \"#utility.yul\":6974:6992   */\n      0x64\n      add\n        /* \"@openzeppelin/contracts-upgradeable/access/OwnableUpgradeable.sol\":1654:1722  require(owner() == _msgSender(), \"Ownable: caller is not the owner\") */\n      tag_81\n        /* \"#utility.yul\":6642:6998   */\n      jump\n        /* \"@openzeppelin/contracts-upgradeable/access/OwnableUpgradeable.sol\":2673:2860  function _transferOwnership(address newOwner) internal virtual {... */\n    tag_107:\n        /* \"@openzeppelin/contracts-upgradeable/access/OwnableUpgradeable.sol\":2765:2771  _owner */\n      0x33\n      dup1\n      sload\n      sub(shl(0xa0, 0x01), 0x01)\n        /* \"@openzeppelin/contracts-upgradeable/access/OwnableUpgradeable.sol\":2781:2798  _owner = newOwner */\n      dup4\n      dup2\n      and\n      not(sub(shl(0xa0, 0x01), 0x01))\n      dup4\n      and\n      dup2\n      or\n      swap1\n      swap4\n      sstore\n        /* \"@openzeppelin/contracts-upgradeable/access/OwnableUpgradeable.sol\":2813:2853  OwnershipTransferred(oldOwner, newOwner) */\n      mload(0x40)\n        /* \"@openzeppelin/contracts-upgradeable/access/OwnableUpgradeable.sol\":2765:2771  _owner */\n      swap2\n      and\n      swap2\n        /* \"@openzeppelin/contracts-upgradeable/access/OwnableUpgradeable.sol\":2781:2798  _owner = newOwner */\n      swap1\n        /* \"@openzeppelin/contracts-upgradeable/access/OwnableUpgradeable.sol\":2765:2771  _owner */\n      dup3\n      swap1\n        /* \"@openzeppelin/contracts-upgradeable/access/OwnableUpgradeable.sol\":2813:2853  OwnershipTransferred(oldOwner, newOwner) */\n      0x8be0079c531659141344cd1fd0a4f28419497f9722a3daafe3b4186f6b6457e0\n      swap1\n        /* \"@openzeppelin/contracts-upgradeable/access/OwnableUpgradeable.sol\":2746:2762  address oldOwner */\n      0x00\n      swap1\n        /* \"@openzeppelin/contracts-upgradeable/access/OwnableUpgradeable.sol\":2813:2853  OwnershipTransferred(oldOwner, newOwner) */\n      log3\n        /* \"@openzeppelin/contracts-upgradeable/access/OwnableUpgradeable.sol\":2736:2860  {... */\n      pop\n        /* \"@openzeppelin/contracts-upgradeable/access/OwnableUpgradeable.sol\":2673:2860  function _transferOwnership(address newOwner) internal virtual {... */\n      pop\n      jump\t// out\n        /* \"@openzeppelin/contracts-upgradeable/access/OwnableUpgradeable.sol\":1003:1098  function __Ownable_init() internal onlyInitializing {... */\n    tag_152:\n        /* \"@openzeppelin/contracts-upgradeable/proxy/utils/Initializable.sol\":4910:4923  _initializing */\n      sload(0x00)\n      0x0100\n      swap1\n      div\n      0xff\n      and\n        /* \"@openzeppelin/contracts-upgradeable/proxy/utils/Initializable.sol\":4902:4971  require(_initializing, \"Initializable: contract is not initializing\") */\n      tag_174\n      jumpi\n      mload(0x40)\n      shl(0xe5, 0x461bcd)\n      dup2\n      mstore\n      0x04\n      add\n      tag_81\n      swap1\n      tag_176\n      jump\t// in\n    tag_174:\n        /* \"@openzeppelin/contracts-upgradeable/access/OwnableUpgradeable.sol\":1065:1091  __Ownable_init_unchained() */\n      tag_106\n        /* \"@openzeppelin/contracts-upgradeable/proxy/utils/Initializable.sol\":4910:4923  _initializing */\n      sload(0x00)\n      0x0100\n      swap1\n      div\n      0xff\n      and\n        /* \"@openzeppelin/contracts-upgradeable/proxy/utils/Initializable.sol\":4902:4971  require(_initializing, \"Initializable: contract is not initializing\") */\n      tag_182\n      jumpi\n      mload(0x40)\n      shl(0xe5, 0x461bcd)\n      dup2\n      mstore\n      0x04\n      add\n      tag_81\n      swap1\n      tag_176\n      jump\t// in\n    tag_182:\n        /* \"@openzeppelin/contracts-upgradeable/access/OwnableUpgradeable.sol\":1176:1208  _transferOwnership(_msgSender()) */\n      tag_106\n        /* \"@openzeppelin/contracts-upgradeable/utils/ContextUpgradeable.sol\":929:939  msg.sender */\n      caller\n        /* \"@openzeppelin/contracts-upgradeable/access/OwnableUpgradeable.sol\":1176:1194  _transferOwnership */\n      tag_107\n        /* \"@openzeppelin/contracts-upgradeable/access/OwnableUpgradeable.sol\":1176:1208  _transferOwnership(_msgSender()) */\n      jump\t// in\n        /* \"#utility.yul\":14:187   */\n    tag_187:\n        /* \"#utility.yul\":82:102   */\n      dup1\n      calldataload\n      sub(shl(0xa0, 0x01), 0x01)\n        /* \"#utility.yul\":131:162   */\n      dup2\n      and\n        /* \"#utility.yul\":121:163   */\n      dup2\n      eq\n        /* \"#utility.yul\":111:181   */\n      tag_190\n      jumpi\n        /* \"#utility.yul\":177:178   */\n      0x00\n        /* \"#utility.yul\":174:175   */\n      dup1\n        /* \"#utility.yul\":167:179   */\n      revert\n        /* \"#utility.yul\":111:181   */\n    tag_190:\n        /* \"#utility.yul\":14:187   */\n      swap2\n      swap1\n      pop\n      jump\t// out\n        /* \"#utility.yul\":192:378   */\n    tag_23:\n        /* \"#utility.yul\":251:257   */\n      0x00\n        /* \"#utility.yul\":304:306   */\n      0x20\n        /* \"#utility.yul\":292:301   */\n      dup3\n        /* \"#utility.yul\":283:290   */\n      dup5\n        /* \"#utility.yul\":279:302   */\n      sub\n        /* \"#utility.yul\":275:307   */\n      slt\n        /* \"#utility.yul\":272:324   */\n      iszero\n      tag_192\n      jumpi\n        /* \"#utility.yul\":320:321   */\n      0x00\n        /* \"#utility.yul\":317:318   */\n      dup1\n        /* \"#utility.yul\":310:322   */\n      revert\n        /* \"#utility.yul\":272:324   */\n    tag_192:\n        /* \"#utility.yul\":343:372   */\n      tag_193\n        /* \"#utility.yul\":362:371   */\n      dup3\n        /* \"#utility.yul\":343:372   */\n      tag_187\n      jump\t// in\n    tag_193:\n        /* \"#utility.yul\":333:372   */\n      swap4\n        /* \"#utility.yul\":192:378   */\n      swap3\n      pop\n      pop\n      pop\n      jump\t// out\n        /* \"#utility.yul\":925:1179   */\n    tag_36:\n        /* \"#utility.yul\":993:999   */\n      0x00\n        /* \"#utility.yul\":1001:1007   */\n      dup1\n        /* \"#utility.yul\":1054:1056   */\n      0x40\n        /* \"#utility.yul\":1042:1051   */\n      dup4\n        /* \"#utility.yul\":1033:1040   */\n      dup6\n        /* \"#utility.yul\":1029:1052   */\n      sub\n        /* \"#utility.yul\":1025:1057   */\n      slt\n        /* \"#utility.yul\":1022:1074   */\n      iszero\n      tag_197\n      jumpi\n        /* \"#utility.yul\":1070:1071   */\n      0x00\n        /* \"#utility.yul\":1067:1068   */\n      dup1\n        /* \"#utility.yul\":1060:1072   */\n      revert\n        /* \"#utility.yul\":1022:1074   */\n    tag_197:\n        /* \"#utility.yul\":1093:1122   */\n      tag_198\n        /* \"#utility.yul\":1112:1121   */\n      dup4\n        /* \"#utility.yul\":1093:1122   */\n      tag_187\n      jump\t// in\n    tag_198:\n        /* \"#utility.yul\":1083:1122   */\n      swap5\n        /* \"#utility.yul\":1169:1171   */\n      0x20\n        /* \"#utility.yul\":1154:1172   */\n      swap4\n      swap1\n      swap4\n      add\n        /* \"#utility.yul\":1141:1173   */\n      calldataload\n      swap4\n      pop\n      pop\n      pop\n        /* \"#utility.yul\":925:1179   */\n      jump\t// out\n        /* \"#utility.yul\":1184:1842   */\n    tag_46:\n        /* \"#utility.yul\":1355:1357   */\n      0x20\n        /* \"#utility.yul\":1407:1428   */\n      dup1\n      dup3\n      mstore\n        /* \"#utility.yul\":1477:1490   */\n      dup3\n      mload\n        /* \"#utility.yul\":1380:1398   */\n      dup3\n      dup3\n      add\n        /* \"#utility.yul\":1499:1521   */\n      dup2\n      swap1\n      mstore\n        /* \"#utility.yul\":1326:1330   */\n      0x00\n      swap2\n        /* \"#utility.yul\":1355:1357   */\n      swap1\n        /* \"#utility.yul\":1578:1593   */\n      dup5\n      dup3\n      add\n      swap1\n        /* \"#utility.yul\":1552:1554   */\n      0x40\n        /* \"#utility.yul\":1537:1555   */\n      dup6\n      add\n      swap1\n        /* \"#utility.yul\":1326:1330   */\n      dup5\n        /* \"#utility.yul\":1621:1816   */\n    tag_200:\n        /* \"#utility.yul\":1635:1641   */\n      dup2\n        /* \"#utility.yul\":1632:1633   */\n      dup2\n        /* \"#utility.yul\":1629:1642   */\n      lt\n        /* \"#utility.yul\":1621:1816   */\n      iszero\n      tag_118\n      jumpi\n        /* \"#utility.yul\":1700:1713   */\n      dup4\n      mload\n      sub(shl(0xa0, 0x01), 0x01)\n        /* \"#utility.yul\":1696:1735   */\n      and\n        /* \"#utility.yul\":1684:1736   */\n      dup4\n      mstore\n        /* \"#utility.yul\":1791:1806   */\n      swap3\n      dup5\n      add\n      swap3\n        /* \"#utility.yul\":1756:1768   */\n      swap2\n      dup5\n      add\n      swap2\n        /* \"#utility.yul\":1732:1733   */\n      0x01\n        /* \"#utility.yul\":1650:1659   */\n      add\n        /* \"#utility.yul\":1621:1816   */\n      jump(tag_200)\n        /* \"#utility.yul\":2995:3227   */\n    tag_88:\n        /* \"#utility.yul\":3034:3037   */\n      0x00\n        /* \"#utility.yul\":3055:3072   */\n      0x01\n      dup3\n      add\n        /* \"#utility.yul\":3052:3192   */\n      tag_208\n      jumpi\n        /* \"#utility.yul\":3114:3124   */\n      0x4e487b71\n        /* \"#utility.yul\":3109:3112   */\n      0xe0\n        /* \"#utility.yul\":3105:3125   */\n      shl\n        /* \"#utility.yul\":3102:3103   */\n      0x00\n        /* \"#utility.yul\":3095:3126   */\n      mstore\n        /* \"#utility.yul\":3149:3153   */\n      0x11\n        /* \"#utility.yul\":3146:3147   */\n      0x04\n        /* \"#utility.yul\":3139:3154   */\n      mstore\n        /* \"#utility.yul\":3177:3181   */\n      0x24\n        /* \"#utility.yul\":3174:3175   */\n      0x00\n        /* \"#utility.yul\":3167:3182   */\n      revert\n        /* \"#utility.yul\":3052:3192   */\n    tag_208:\n      pop\n        /* \"#utility.yul\":3219:3220   */\n      0x01\n        /* \"#utility.yul\":3208:3221   */\n      add\n      swap1\n        /* \"#utility.yul\":2995:3227   */\n      jump\t// out\n        /* \"#utility.yul\":4954:5081   */\n    tag_115:\n        /* \"#utility.yul\":5015:5025   */\n      0x4e487b71\n        /* \"#utility.yul\":5010:5013   */\n      0xe0\n        /* \"#utility.yul\":5006:5026   */\n      shl\n        /* \"#utility.yul\":5003:5004   */\n      0x00\n        /* \"#utility.yul\":4996:5027   */\n      mstore\n        /* \"#utility.yul\":5046:5050   */\n      0x41\n        /* \"#utility.yul\":5043:5044   */\n      0x04\n        /* \"#utility.yul\":5036:5051   */\n      mstore\n        /* \"#utility.yul\":5070:5074   */\n      0x24\n        /* \"#utility.yul\":5067:5068   */\n      0x00\n        /* \"#utility.yul\":5060:5075   */\n      revert\n        /* \"#utility.yul\":5086:5213   */\n    tag_125:\n        /* \"#utility.yul\":5147:5157   */\n      0x4e487b71\n        /* \"#utility.yul\":5142:5145   */\n      0xe0\n        /* \"#utility.yul\":5138:5158   */\n      shl\n        /* \"#utility.yul\":5135:5136   */\n      0x00\n        /* \"#utility.yul\":5128:5159   */\n      mstore\n        /* \"#utility.yul\":5178:5182   */\n      0x32\n        /* \"#utility.yul\":5175:5176   */\n      0x04\n        /* \"#utility.yul\":5168:5183   */\n      mstore\n        /* \"#utility.yul\":5202:5206   */\n      0x24\n        /* \"#utility.yul\":5199:5200   */\n      0x00\n        /* \"#utility.yul\":5192:5207   */\n      revert\n        /* \"#utility.yul\":7003:7410   */\n    tag_176:\n        /* \"#utility.yul\":7205:7207   */\n      0x20\n        /* \"#utility.yul\":7187:7208   */\n      dup1\n      dup3\n      mstore\n        /* \"#utility.yul\":7244:7246   */\n      0x2b\n        /* \"#utility.yul\":7224:7242   */\n      swap1\n      dup3\n      add\n        /* \"#utility.yul\":7217:7247   */\n      mstore\n        /* \"#utility.yul\":7283:7317   */\n      0x496e697469616c697a61626c653a20636f6e7472616374206973206e6f742069\n        /* \"#utility.yul\":7278:7280   */\n      0x40\n        /* \"#utility.yul\":7263:7281   */\n      dup3\n      add\n        /* \"#utility.yul\":7256:7318   */\n      mstore\n      shl(0xa8, 0x6e697469616c697a696e67)\n        /* \"#utility.yul\":7349:7351   */\n      0x60\n        /* \"#utility.yul\":7334:7352   */\n      dup3\n      add\n        /* \"#utility.yul\":7327:7368   */\n      mstore\n        /* \"#utility.yul\":7400:7403   */\n      0x80\n        /* \"#utility.yul\":7385:7404   */\n      add\n      swap1\n        /* \"#utility.yul\":7003:7410   */\n      jump\t// out\n\n    auxdata: 0xa264697066735822122004e58ce3ab42e2f356e3ccb6b6e181de9b9f0991d3b8334417fa4aef83f5468064736f6c63430008110033\n}\n",
				"bytecode": {
					"linkReferences": {},
					"object": "608060405234801561001057600080fd5b50610cfa806100206000396000f3fe6080604052600436106100ab5760003560e01c80638da5cb5b116100645780638da5cb5b146101fe578063bd54da7314610230578063beb92f5514610250578063c4d66de814610270578063ebf0c71714610290578063f2fde38b146102b057600080fd5b806308ae4b0c146100ba57806339f5e1571461012c5780636d705ebb1461015a578063715018a61461017c57806372287edc14610191578063804a88f6146101be57600080fd5b366100b557600080fd5b600080fd5b3480156100c657600080fd5b506101026100d5366004610b99565b6066602052600090815260409020805460029091015460ff82169161010090046001600160a01b03169083565b6040805193151584526001600160a01b039092166020840152908201526060015b60405180910390f35b34801561013857600080fd5b5061014c610147366004610b99565b6102d0565b604051908152602001610123565b34801561016657600080fd5b5061017a610175366004610bbb565b6103f3565b005b34801561018857600080fd5b5061017a6105ab565b34801561019d57600080fd5b506101b16101ac366004610bbb565b6105bf565b6040516101239190610be5565b3480156101ca57600080fd5b506101ee6101d9366004610b99565b60676020526000908152604090205460ff1681565b6040519015158152602001610123565b34801561020a57600080fd5b506033546001600160a01b03165b6040516001600160a01b039091168152602001610123565b34801561023c57600080fd5b506101b161024b366004610b99565b6106e7565b34801561025c57600080fd5b5061017a61026b366004610b99565b6107c9565b34801561027c57600080fd5b5061017a61028b366004610b99565b610869565b34801561029c57600080fd5b50606554610218906001600160a01b031681565b3480156102bc57600080fd5b5061017a6102cb366004610b99565b6109fe565b3360008181526067602052604081205490919060ff166103295760405162461bcd60e51b815260206004820152600f60248201526e24b73b30b634b21031b0b63632b91760891b60448201526064015b60405180910390fd5b6001600160a01b038316600090815260666020526040902060028101541561039f5760405162461bcd60e51b815260206004820152602360248201527f4164647265737320616c7265616479206861766520726566657272616c20636f60448201526232329760e91b6064820152608401610320565b606880549060006103af83610c26565b909155505060688054600290920182905560009182526069602052604090912080546001600160a01b0386166001600160a01b031990911617905554915050919050565b6000818152606960205260409020546001600160a01b0316806104515760405162461bcd60e51b815260206004820152601660248201527524b73b30b634b2103932b332b93930b61031b7b2329760511b6044820152606401610320565b6001600160a01b0380841660009081526066602052604080822092841682529020815460ff16156104c45760405162461bcd60e51b815260206004820152601c60248201527f4164647265737320686173206265656e20726567697374657265642e000000006044820152606401610320565b805460ff166105155760405162461bcd60e51b815260206004820152601d60248201527f526566657272616c27732061646472657373206e6f7420666f756e642e0000006044820152606401610320565b815460016001600160a81b03199091166101006001600160a01b0386811691820260ff1916929092178317855583830180549384018155600090815260209081902090930180546001600160a01b031916928916928317905560408051928352928201527f98ada70a1cb506dc4591465e1ee9be3fd7a2b6c73ecf3b949009718c9a351519910160405180910390a15050505050565b6105b3610a77565b6105bd6000610ad1565b565b6001600160a01b03821660009081526066602052604090208054606091849160ff166106225760405162461bcd60e51b815260206004820152601260248201527120b2323932b9b9903737ba103337bab7321760711b6044820152606401610320565b60008467ffffffffffffffff81111561063d5761063d610c4d565b604051908082528060200260200182016040528015610666578160200160208202803683370190505b5090508560005b868110156106db576001600160a01b0391821660009081526066602052604090205461010090049091169081156106db57818382815181106106b1576106b1610c63565b6001600160a01b0390921660209283029190910190910152806106d381610c26565b91505061066d565b50909695505050505050565b6001600160a01b03811660009081526066602052604090208054606091839160ff1661074a5760405162461bcd60e51b815260206004820152601260248201527120b2323932b9b9903737ba103337bab7321760711b6044820152606401610320565b6001600160a01b0384166000908152606660209081526040918290206001810180548451818502810185019095528085529193929091908301828280156107ba57602002820191906000526020600020905b81546001600160a01b0316815260019091019060200180831161079c575b50505050509350505050919050565b6107d1610a77565b6001600160a01b03811660009081526067602052604090205460ff16156108455760405162461bcd60e51b815260206004820152602260248201527f4164647265737320616c726561647920697320612076616c69642063616c6c65604482015261391760f11b6064820152608401610320565b6001600160a01b03166000908152606760205260409020805460ff19166001179055565b600054610100900460ff16158080156108895750600054600160ff909116105b806108a35750303b1580156108a3575060005460ff166001145b6109065760405162461bcd60e51b815260206004820152602e60248201527f496e697469616c697a61626c653a20636f6e747261637420697320616c72656160448201526d191e481a5b9a5d1a585b1a5e995960921b6064820152608401610320565b6000805460ff191660011790558015610929576000805461ff0019166101001790555b610931610b23565b6001600160a01b0382166000818152606660209081526040822080546001600160a81b0319166001178155620186a060029091018190556068819055909152606990527febf4205679cb5d1e00a43333ac8aa4323c0688465c8f3241fd5c5e6819ec54bb80546001600160a01b0319908116831790915560658054909116909117905580156109fa576000805461ff0019169055604051600181527f7f26b83ff96e1f2b6a682f133852f6798a09c465da95921460cefb38474024989060200160405180910390a15b5050565b610a06610a77565b6001600160a01b038116610a6b5760405162461bcd60e51b815260206004820152602660248201527f4f776e61626c653a206e6577206f776e657220697320746865207a65726f206160448201526564647265737360d01b6064820152608401610320565b610a7481610ad1565b50565b6033546001600160a01b031633146105bd5760405162461bcd60e51b815260206004820181905260248201527f4f776e61626c653a2063616c6c6572206973206e6f7420746865206f776e65726044820152606401610320565b603380546001600160a01b038381166001600160a01b0319831681179093556040519116919082907f8be0079c531659141344cd1fd0a4f28419497f9722a3daafe3b4186f6b6457e090600090a35050565b600054610100900460ff16610b4a5760405162461bcd60e51b815260040161032090610c79565b6105bd600054610100900460ff16610b745760405162461bcd60e51b815260040161032090610c79565b6105bd33610ad1565b80356001600160a01b0381168114610b9457600080fd5b919050565b600060208284031215610bab57600080fd5b610bb482610b7d565b9392505050565b60008060408385031215610bce57600080fd5b610bd783610b7d565b946020939093013593505050565b6020808252825182820181905260009190848201906040850190845b818110156106db5783516001600160a01b031683529284019291840191600101610c01565b600060018201610c4657634e487b7160e01b600052601160045260246000fd5b5060010190565b634e487b7160e01b600052604160045260246000fd5b634e487b7160e01b600052603260045260246000fd5b6020808252602b908201527f496e697469616c697a61626c653a20636f6e7472616374206973206e6f74206960408201526a6e697469616c697a696e6760a81b60608201526080019056fea264697066735822122004e58ce3ab42e2f356e3ccb6b6e181de9b9f0991d3b8334417fa4aef83f5468064736f6c63430008110033",
					"opcodes": "PUSH1 0x80 PUSH1 0x40 MSTORE CALLVALUE DUP1 ISZERO PUSH2 0x10 JUMPI PUSH1 0x0 DUP1 REVERT JUMPDEST POP PUSH2 0xCFA DUP1 PUSH2 0x20 PUSH1 0x0 CODECOPY PUSH1 0x0 RETURN INVALID PUSH1 0x80 PUSH1 0x40 MSTORE PUSH1 0x4 CALLDATASIZE LT PUSH2 0xAB JUMPI PUSH1 0x0 CALLDATALOAD PUSH1 0xE0 SHR DUP1 PUSH4 0x8DA5CB5B GT PUSH2 0x64 JUMPI DUP1 PUSH4 0x8DA5CB5B EQ PUSH2 0x1FE JUMPI DUP1 PUSH4 0xBD54DA73 EQ PUSH2 0x230 JUMPI DUP1 PUSH4 0xBEB92F55 EQ PUSH2 0x250 JUMPI DUP1 PUSH4 0xC4D66DE8 EQ PUSH2 0x270 JUMPI DUP1 PUSH4 0xEBF0C717 EQ PUSH2 0x290 JUMPI DUP1 PUSH4 0xF2FDE38B EQ PUSH2 0x2B0 JUMPI PUSH1 0x0 DUP1 REVERT JUMPDEST DUP1 PUSH4 0x8AE4B0C EQ PUSH2 0xBA JUMPI DUP1 PUSH4 0x39F5E157 EQ PUSH2 0x12C JUMPI DUP1 PUSH4 0x6D705EBB EQ PUSH2 0x15A JUMPI DUP1 PUSH4 0x715018A6 EQ PUSH2 0x17C JUMPI DUP1 PUSH4 0x72287EDC EQ PUSH2 0x191 JUMPI DUP1 PUSH4 0x804A88F6 EQ PUSH2 0x1BE JUMPI PUSH1 0x0 DUP1 REVERT JUMPDEST CALLDATASIZE PUSH2 0xB5 JUMPI PUSH1 0x0 DUP1 REVERT JUMPDEST PUSH1 0x0 DUP1 REVERT JUMPDEST CALLVALUE DUP1 ISZERO PUSH2 0xC6 JUMPI PUSH1 0x0 DUP1 REVERT JUMPDEST POP PUSH2 0x102 PUSH2 0xD5 CALLDATASIZE PUSH1 0x4 PUSH2 0xB99 JUMP JUMPDEST PUSH1 0x66 PUSH1 0x20 MSTORE PUSH1 0x0 SWAP1 DUP2 MSTORE PUSH1 0x40 SWAP1 KECCAK256 DUP1 SLOAD PUSH1 0x2 SWAP1 SWAP2 ADD SLOAD PUSH1 0xFF DUP3 AND SWAP2 PUSH2 0x100 SWAP1 DIV PUSH1 0x1 PUSH1 0x1 PUSH1 0xA0 SHL SUB AND SWAP1 DUP4 JUMP JUMPDEST PUSH1 0x40 DUP1 MLOAD SWAP4 ISZERO ISZERO DUP5 MSTORE PUSH1 0x1 PUSH1 0x1 PUSH1 0xA0 SHL SUB SWAP1 SWAP3 AND PUSH1 0x20 DUP5 ADD MSTORE SWAP1 DUP3 ADD MSTORE PUSH1 0x60 ADD JUMPDEST PUSH1 0x40 MLOAD DUP1 SWAP2 SUB SWAP1 RETURN JUMPDEST CALLVALUE DUP1 ISZERO PUSH2 0x138 JUMPI PUSH1 0x0 DUP1 REVERT JUMPDEST POP PUSH2 0x14C PUSH2 0x147 CALLDATASIZE PUSH1 0x4 PUSH2 0xB99 JUMP JUMPDEST PUSH2 0x2D0 JUMP JUMPDEST PUSH1 0x40 MLOAD SWAP1 DUP2 MSTORE PUSH1 0x20 ADD PUSH2 0x123 JUMP JUMPDEST CALLVALUE DUP1 ISZERO PUSH2 0x166 JUMPI PUSH1 0x0 DUP1 REVERT JUMPDEST POP PUSH2 0x17A PUSH2 0x175 CALLDATASIZE PUSH1 0x4 PUSH2 0xBBB JUMP JUMPDEST PUSH2 0x3F3 JUMP JUMPDEST STOP JUMPDEST CALLVALUE DUP1 ISZERO PUSH2 0x188 JUMPI PUSH1 0x0 DUP1 REVERT JUMPDEST POP PUSH2 0x17A PUSH2 0x5AB JUMP JUMPDEST CALLVALUE DUP1 ISZERO PUSH2 0x19D JUMPI PUSH1 0x0 DUP1 REVERT JUMPDEST POP PUSH2 0x1B1 PUSH2 0x1AC CALLDATASIZE PUSH1 0x4 PUSH2 0xBBB JUMP JUMPDEST PUSH2 0x5BF JUMP JUMPDEST PUSH1 0x40 MLOAD PUSH2 0x123 SWAP2 SWAP1 PUSH2 0xBE5 JUMP JUMPDEST CALLVALUE DUP1 ISZERO PUSH2 0x1CA JUMPI PUSH1 0x0 DUP1 REVERT JUMPDEST POP PUSH2 0x1EE PUSH2 0x1D9 CALLDATASIZE PUSH1 0x4 PUSH2 0xB99 JUMP JUMPDEST PUSH1 0x67 PUSH1 0x20 MSTORE PUSH1 0x0 SWAP1 DUP2 MSTORE PUSH1 0x40 SWAP1 KECCAK256 SLOAD PUSH1 0xFF AND DUP2 JUMP JUMPDEST PUSH1 0x40 MLOAD SWAP1 ISZERO ISZERO DUP2 MSTORE PUSH1 0x20 ADD PUSH2 0x123 JUMP JUMPDEST CALLVALUE DUP1 ISZERO PUSH2 0x20A JUMPI PUSH1 0x0 DUP1 REVERT JUMPDEST POP PUSH1 0x33 SLOAD PUSH1 0x1 PUSH1 0x1 PUSH1 0xA0 SHL SUB AND JUMPDEST PUSH1 0x40 MLOAD PUSH1 0x1 PUSH1 0x1 PUSH1 0xA0 SHL SUB SWAP1 SWAP2 AND DUP2 MSTORE PUSH1 0x20 ADD PUSH2 0x123 JUMP JUMPDEST CALLVALUE DUP1 ISZERO PUSH2 0x23C JUMPI PUSH1 0x0 DUP1 REVERT JUMPDEST POP PUSH2 0x1B1 PUSH2 0x24B CALLDATASIZE PUSH1 0x4 PUSH2 0xB99 JUMP JUMPDEST PUSH2 0x6E7 JUMP JUMPDEST CALLVALUE DUP1 ISZERO PUSH2 0x25C JUMPI PUSH1 0x0 DUP1 REVERT JUMPDEST POP PUSH2 0x17A PUSH2 0x26B CALLDATASIZE PUSH1 0x4 PUSH2 0xB99 JUMP JUMPDEST PUSH2 0x7C9 JUMP JUMPDEST CALLVALUE DUP1 ISZERO PUSH2 0x27C JUMPI PUSH1 0x0 DUP1 REVERT JUMPDEST POP PUSH2 0x17A PUSH2 0x28B CALLDATASIZE PUSH1 0x4 PUSH2 0xB99 JUMP JUMPDEST PUSH2 0x869 JUMP JUMPDEST CALLVALUE DUP1 ISZERO PUSH2 0x29C JUMPI PUSH1 0x0 DUP1 REVERT JUMPDEST POP PUSH1 0x65 SLOAD PUSH2 0x218 SWAP1 PUSH1 0x1 PUSH1 0x1 PUSH1 0xA0 SHL SUB AND DUP2 JUMP JUMPDEST CALLVALUE DUP1 ISZERO PUSH2 0x2BC JUMPI PUSH1 0x0 DUP1 REVERT JUMPDEST POP PUSH2 0x17A PUSH2 0x2CB CALLDATASIZE PUSH1 0x4 PUSH2 0xB99 JUMP JUMPDEST PUSH2 0x9FE JUMP JUMPDEST CALLER PUSH1 0x0 DUP2 DUP2 MSTORE PUSH1 0x67 PUSH1 0x20 MSTORE PUSH1 0x40 DUP2 KECCAK256 SLOAD SWAP1 SWAP2 SWAP1 PUSH1 0xFF AND PUSH2 0x329 JUMPI PUSH1 0x40 MLOAD PUSH3 0x461BCD PUSH1 0xE5 SHL DUP2 MSTORE PUSH1 0x20 PUSH1 0x4 DUP3 ADD MSTORE PUSH1 0xF PUSH1 0x24 DUP3 ADD MSTORE PUSH15 0x24B73B30B634B21031B0B63632B917 PUSH1 0x89 SHL PUSH1 0x44 DUP3 ADD MSTORE PUSH1 0x64 ADD JUMPDEST PUSH1 0x40 MLOAD DUP1 SWAP2 SUB SWAP1 REVERT JUMPDEST PUSH1 0x1 PUSH1 0x1 PUSH1 0xA0 SHL SUB DUP4 AND PUSH1 0x0 SWAP1 DUP2 MSTORE PUSH1 0x66 PUSH1 0x20 MSTORE PUSH1 0x40 SWAP1 KECCAK256 PUSH1 0x2 DUP2 ADD SLOAD ISZERO PUSH2 0x39F JUMPI PUSH1 0x40 MLOAD PUSH3 0x461BCD PUSH1 0xE5 SHL DUP2 MSTORE PUSH1 0x20 PUSH1 0x4 DUP3 ADD MSTORE PUSH1 0x23 PUSH1 0x24 DUP3 ADD MSTORE PUSH32 0x4164647265737320616C7265616479206861766520726566657272616C20636F PUSH1 0x44 DUP3 ADD MSTORE PUSH3 0x323297 PUSH1 0xE9 SHL PUSH1 0x64 DUP3 ADD MSTORE PUSH1 0x84 ADD PUSH2 0x320 JUMP JUMPDEST PUSH1 0x68 DUP1 SLOAD SWAP1 PUSH1 0x0 PUSH2 0x3AF DUP4 PUSH2 0xC26 JUMP JUMPDEST SWAP1 SWAP2 SSTORE POP POP PUSH1 0x68 DUP1 SLOAD PUSH1 0x2 SWAP1 SWAP3 ADD DUP3 SWAP1 SSTORE PUSH1 0x0 SWAP2 DUP3 MSTORE PUSH1 0x69 PUSH1 0x20 MSTORE PUSH1 0x40 SWAP1 SWAP2 KECCAK256 DUP1 SLOAD PUSH1 0x1 PUSH1 0x1 PUSH1 0xA0 SHL SUB DUP7 AND PUSH1 0x1 PUSH1 0x1 PUSH1 0xA0 SHL SUB NOT SWAP1 SWAP2 AND OR SWAP1 SSTORE SLOAD SWAP2 POP POP SWAP2 SWAP1 POP JUMP JUMPDEST PUSH1 0x0 DUP2 DUP2 MSTORE PUSH1 0x69 PUSH1 0x20 MSTORE PUSH1 0x40 SWAP1 KECCAK256 SLOAD PUSH1 0x1 PUSH1 0x1 PUSH1 0xA0 SHL SUB AND DUP1 PUSH2 0x451 JUMPI PUSH1 0x40 MLOAD PUSH3 0x461BCD PUSH1 0xE5 SHL DUP2 MSTORE PUSH1 0x20 PUSH1 0x4 DUP3 ADD MSTORE PUSH1 0x16 PUSH1 0x24 DUP3 ADD MSTORE PUSH22 0x24B73B30B634B2103932B332B93930B61031B7B23297 PUSH1 0x51 SHL PUSH1 0x44 DUP3 ADD MSTORE PUSH1 0x64 ADD PUSH2 0x320 JUMP JUMPDEST PUSH1 0x1 PUSH1 0x1 PUSH1 0xA0 SHL SUB DUP1 DUP5 AND PUSH1 0x0 SWAP1 DUP2 MSTORE PUSH1 0x66 PUSH1 0x20 MSTORE PUSH1 0x40 DUP1 DUP3 KECCAK256 SWAP3 DUP5 AND DUP3 MSTORE SWAP1 KECCAK256 DUP2 SLOAD PUSH1 0xFF AND ISZERO PUSH2 0x4C4 JUMPI PUSH1 0x40 MLOAD PUSH3 0x461BCD PUSH1 0xE5 SHL DUP2 MSTORE PUSH1 0x20 PUSH1 0x4 DUP3 ADD MSTORE PUSH1 0x1C PUSH1 0x24 DUP3 ADD MSTORE PUSH32 0x4164647265737320686173206265656E20726567697374657265642E00000000 PUSH1 0x44 DUP3 ADD MSTORE PUSH1 0x64 ADD PUSH2 0x320 JUMP JUMPDEST DUP1 SLOAD PUSH1 0xFF AND PUSH2 0x515 JUMPI PUSH1 0x40 MLOAD PUSH3 0x461BCD PUSH1 0xE5 SHL DUP2 MSTORE PUSH1 0x20 PUSH1 0x4 DUP3 ADD MSTORE PUSH1 0x1D PUSH1 0x24 DUP3 ADD MSTORE PUSH32 0x526566657272616C27732061646472657373206E6F7420666F756E642E000000 PUSH1 0x44 DUP3 ADD MSTORE PUSH1 0x64 ADD PUSH2 0x320 JUMP JUMPDEST DUP2 SLOAD PUSH1 0x1 PUSH1 0x1 PUSH1 0x1 PUSH1 0xA8 SHL SUB NOT SWAP1 SWAP2 AND PUSH2 0x100 PUSH1 0x1 PUSH1 0x1 PUSH1 0xA0 SHL SUB DUP7 DUP2 AND SWAP2 DUP3 MUL PUSH1 0xFF NOT AND SWAP3 SWAP1 SWAP3 OR DUP4 OR DUP6 SSTORE DUP4 DUP4 ADD DUP1 SLOAD SWAP4 DUP5 ADD DUP2 SSTORE PUSH1 0x0 SWAP1 DUP2 MSTORE PUSH1 0x20 SWAP1 DUP2 SWAP1 KECCAK256 SWAP1 SWAP4 ADD DUP1 SLOAD PUSH1 0x1 PUSH1 0x1 PUSH1 0xA0 SHL SUB NOT AND SWAP3 DUP10 AND SWAP3 DUP4 OR SWAP1 SSTORE PUSH1 0x40 DUP1 MLOAD SWAP3 DUP4 MSTORE SWAP3 DUP3 ADD MSTORE PUSH32 0x98ADA70A1CB506DC4591465E1EE9BE3FD7A2B6C73ECF3B949009718C9A351519 SWAP2 ADD PUSH1 0x40 MLOAD DUP1 SWAP2 SUB SWAP1 LOG1 POP POP POP POP POP JUMP JUMPDEST PUSH2 0x5B3 PUSH2 0xA77 JUMP JUMPDEST PUSH2 0x5BD PUSH1 0x0 PUSH2 0xAD1 JUMP JUMPDEST JUMP JUMPDEST PUSH1 0x1 PUSH1 0x1 PUSH1 0xA0 SHL SUB DUP3 AND PUSH1 0x0 SWAP1 DUP2 MSTORE PUSH1 0x66 PUSH1 0x20 MSTORE PUSH1 0x40 SWAP1 KECCAK256 DUP1 SLOAD PUSH1 0x60 SWAP2 DUP5 SWAP2 PUSH1 0xFF AND PUSH2 0x622 JUMPI PUSH1 0x40 MLOAD PUSH3 0x461BCD PUSH1 0xE5 SHL DUP2 MSTORE PUSH1 0x20 PUSH1 0x4 DUP3 ADD MSTORE PUSH1 0x12 PUSH1 0x24 DUP3 ADD MSTORE PUSH18 0x20B2323932B9B9903737BA103337BAB73217 PUSH1 0x71 SHL PUSH1 0x44 DUP3 ADD MSTORE PUSH1 0x64 ADD PUSH2 0x320 JUMP JUMPDEST PUSH1 0x0 DUP5 PUSH8 0xFFFFFFFFFFFFFFFF DUP2 GT ISZERO PUSH2 0x63D JUMPI PUSH2 0x63D PUSH2 0xC4D JUMP JUMPDEST PUSH1 0x40 MLOAD SWAP1 DUP1 DUP3 MSTORE DUP1 PUSH1 0x20 MUL PUSH1 0x20 ADD DUP3 ADD PUSH1 0x40 MSTORE DUP1 ISZERO PUSH2 0x666 JUMPI DUP2 PUSH1 0x20 ADD PUSH1 0x20 DUP3 MUL DUP1 CALLDATASIZE DUP4 CALLDATACOPY ADD SWAP1 POP JUMPDEST POP SWAP1 POP DUP6 PUSH1 0x0 JUMPDEST DUP7 DUP2 LT ISZERO PUSH2 0x6DB JUMPI PUSH1 0x1 PUSH1 0x1 PUSH1 0xA0 SHL SUB SWAP2 DUP3 AND PUSH1 0x0 SWAP1 DUP2 MSTORE PUSH1 0x66 PUSH1 0x20 MSTORE PUSH1 0x40 SWAP1 KECCAK256 SLOAD PUSH2 0x100 SWAP1 DIV SWAP1 SWAP2 AND SWAP1 DUP2 ISZERO PUSH2 0x6DB JUMPI DUP2 DUP4 DUP3 DUP2 MLOAD DUP2 LT PUSH2 0x6B1 JUMPI PUSH2 0x6B1 PUSH2 0xC63 JUMP JUMPDEST PUSH1 0x1 PUSH1 0x1 PUSH1 0xA0 SHL SUB SWAP1 SWAP3 AND PUSH1 0x20 SWAP3 DUP4 MUL SWAP2 SWAP1 SWAP2 ADD SWAP1 SWAP2 ADD MSTORE DUP1 PUSH2 0x6D3 DUP2 PUSH2 0xC26 JUMP JUMPDEST SWAP2 POP POP PUSH2 0x66D JUMP JUMPDEST POP SWAP1 SWAP7 SWAP6 POP POP POP POP POP POP JUMP JUMPDEST PUSH1 0x1 PUSH1 0x1 PUSH1 0xA0 SHL SUB DUP2 AND PUSH1 0x0 SWAP1 DUP2 MSTORE PUSH1 0x66 PUSH1 0x20 MSTORE PUSH1 0x40 SWAP1 KECCAK256 DUP1 SLOAD PUSH1 0x60 SWAP2 DUP4 SWAP2 PUSH1 0xFF AND PUSH2 0x74A JUMPI PUSH1 0x40 MLOAD PUSH3 0x461BCD PUSH1 0xE5 SHL DUP2 MSTORE PUSH1 0x20 PUSH1 0x4 DUP3 ADD MSTORE PUSH1 0x12 PUSH1 0x24 DUP3 ADD MSTORE PUSH18 0x20B2323932B9B9903737BA103337BAB73217 PUSH1 0x71 SHL PUSH1 0x44 DUP3 ADD MSTORE PUSH1 0x64 ADD PUSH2 0x320 JUMP JUMPDEST PUSH1 0x1 PUSH1 0x1 PUSH1 0xA0 SHL SUB DUP5 AND PUSH1 0x0 SWAP1 DUP2 MSTORE PUSH1 0x66 PUSH1 0x20 SWAP1 DUP2 MSTORE PUSH1 0x40 SWAP2 DUP3 SWAP1 KECCAK256 PUSH1 0x1 DUP2 ADD DUP1 SLOAD DUP5 MLOAD DUP2 DUP6 MUL DUP2 ADD DUP6 ADD SWAP1 SWAP6 MSTORE DUP1 DUP6 MSTORE SWAP2 SWAP4 SWAP3 SWAP1 SWAP2 SWAP1 DUP4 ADD DUP3 DUP3 DUP1 ISZERO PUSH2 0x7BA JUMPI PUSH1 0x20 MUL DUP3 ADD SWAP2 SWAP1 PUSH1 0x0 MSTORE PUSH1 0x20 PUSH1 0x0 KECCAK256 SWAP1 JUMPDEST DUP2 SLOAD PUSH1 0x1 PUSH1 0x1 PUSH1 0xA0 SHL SUB AND DUP2 MSTORE PUSH1 0x1 SWAP1 SWAP2 ADD SWAP1 PUSH1 0x20 ADD DUP1 DUP4 GT PUSH2 0x79C JUMPI JUMPDEST POP POP POP POP POP SWAP4 POP POP POP POP SWAP2 SWAP1 POP JUMP JUMPDEST PUSH2 0x7D1 PUSH2 0xA77 JUMP JUMPDEST PUSH1 0x1 PUSH1 0x1 PUSH1 0xA0 SHL SUB DUP2 AND PUSH1 0x0 SWAP1 DUP2 MSTORE PUSH1 0x67 PUSH1 0x20 MSTORE PUSH1 0x40 SWAP1 KECCAK256 SLOAD PUSH1 0xFF AND ISZERO PUSH2 0x845 JUMPI PUSH1 0x40 MLOAD PUSH3 0x461BCD PUSH1 0xE5 SHL DUP2 MSTORE PUSH1 0x20 PUSH1 0x4 DUP3 ADD MSTORE PUSH1 0x22 PUSH1 0x24 DUP3 ADD MSTORE PUSH32 0x4164647265737320616C726561647920697320612076616C69642063616C6C65 PUSH1 0x44 DUP3 ADD MSTORE PUSH2 0x3917 PUSH1 0xF1 SHL PUSH1 0x64 DUP3 ADD MSTORE PUSH1 0x84 ADD PUSH2 0x320 JUMP JUMPDEST PUSH1 0x1 PUSH1 0x1 PUSH1 0xA0 SHL SUB AND PUSH1 0x0 SWAP1 DUP2 MSTORE PUSH1 0x67 PUSH1 0x20 MSTORE PUSH1 0x40 SWAP1 KECCAK256 DUP1 SLOAD PUSH1 0xFF NOT AND PUSH1 0x1 OR SWAP1 SSTORE JUMP JUMPDEST PUSH1 0x0 SLOAD PUSH2 0x100 SWAP1 DIV PUSH1 0xFF AND ISZERO DUP1 DUP1 ISZERO PUSH2 0x889 JUMPI POP PUSH1 0x0 SLOAD PUSH1 0x1 PUSH1 0xFF SWAP1 SWAP2 AND LT JUMPDEST DUP1 PUSH2 0x8A3 JUMPI POP ADDRESS EXTCODESIZE ISZERO DUP1 ISZERO PUSH2 0x8A3 JUMPI POP PUSH1 0x0 SLOAD PUSH1 0xFF AND PUSH1 0x1 EQ JUMPDEST PUSH2 0x906 JUMPI PUSH1 0x40 MLOAD PUSH3 0x461BCD PUSH1 0xE5 SHL DUP2 MSTORE PUSH1 0x20 PUSH1 0x4 DUP3 ADD MSTORE PUSH1 0x2E PUSH1 0x24 DUP3 ADD MSTORE PUSH32 0x496E697469616C697A61626C653A20636F6E747261637420697320616C726561 PUSH1 0x44 DUP3 ADD MSTORE PUSH14 0x191E481A5B9A5D1A585B1A5E9959 PUSH1 0x92 SHL PUSH1 0x64 DUP3 ADD MSTORE PUSH1 0x84 ADD PUSH2 0x320 JUMP JUMPDEST PUSH1 0x0 DUP1 SLOAD PUSH1 0xFF NOT AND PUSH1 0x1 OR SWAP1 SSTORE DUP1 ISZERO PUSH2 0x929 JUMPI PUSH1 0x0 DUP1 SLOAD PUSH2 0xFF00 NOT AND PUSH2 0x100 OR SWAP1 SSTORE JUMPDEST PUSH2 0x931 PUSH2 0xB23 JUMP JUMPDEST PUSH1 0x1 PUSH1 0x1 PUSH1 0xA0 SHL SUB DUP3 AND PUSH1 0x0 DUP2 DUP2 MSTORE PUSH1 0x66 PUSH1 0x20 SWAP1 DUP2 MSTORE PUSH1 0x40 DUP3 KECCAK256 DUP1 SLOAD PUSH1 0x1 PUSH1 0x1 PUSH1 0xA8 SHL SUB NOT AND PUSH1 0x1 OR DUP2 SSTORE PUSH3 0x186A0 PUSH1 0x2 SWAP1 SWAP2 ADD DUP2 SWAP1 SSTORE PUSH1 0x68 DUP2 SWAP1 SSTORE SWAP1 SWAP2 MSTORE PUSH1 0x69 SWAP1 MSTORE PUSH32 0xEBF4205679CB5D1E00A43333AC8AA4323C0688465C8F3241FD5C5E6819EC54BB DUP1 SLOAD PUSH1 0x1 PUSH1 0x1 PUSH1 0xA0 SHL SUB NOT SWAP1 DUP2 AND DUP4 OR SWAP1 SWAP2 SSTORE PUSH1 0x65 DUP1 SLOAD SWAP1 SWAP2 AND SWAP1 SWAP2 OR SWAP1 SSTORE DUP1 ISZERO PUSH2 0x9FA JUMPI PUSH1 0x0 DUP1 SLOAD PUSH2 0xFF00 NOT AND SWAP1 SSTORE PUSH1 0x40 MLOAD PUSH1 0x1 DUP2 MSTORE PUSH32 0x7F26B83FF96E1F2B6A682F133852F6798A09C465DA95921460CEFB3847402498 SWAP1 PUSH1 0x20 ADD PUSH1 0x40 MLOAD DUP1 SWAP2 SUB SWAP1 LOG1 JUMPDEST POP POP JUMP JUMPDEST PUSH2 0xA06 PUSH2 0xA77 JUMP JUMPDEST PUSH1 0x1 PUSH1 0x1 PUSH1 0xA0 SHL SUB DUP2 AND PUSH2 0xA6B JUMPI PUSH1 0x40 MLOAD PUSH3 0x461BCD PUSH1 0xE5 SHL DUP2 MSTORE PUSH1 0x20 PUSH1 0x4 DUP3 ADD MSTORE PUSH1 0x26 PUSH1 0x24 DUP3 ADD MSTORE PUSH32 0x4F776E61626C653A206E6577206F776E657220697320746865207A65726F2061 PUSH1 0x44 DUP3 ADD MSTORE PUSH6 0x646472657373 PUSH1 0xD0 SHL PUSH1 0x64 DUP3 ADD MSTORE PUSH1 0x84 ADD PUSH2 0x320 JUMP JUMPDEST PUSH2 0xA74 DUP2 PUSH2 0xAD1 JUMP JUMPDEST POP JUMP JUMPDEST PUSH1 0x33 SLOAD PUSH1 0x1 PUSH1 0x1 PUSH1 0xA0 SHL SUB AND CALLER EQ PUSH2 0x5BD JUMPI PUSH1 0x40 MLOAD PUSH3 0x461BCD PUSH1 0xE5 SHL DUP2 MSTORE PUSH1 0x20 PUSH1 0x4 DUP3 ADD DUP2 SWAP1 MSTORE PUSH1 0x24 DUP3 ADD MSTORE PUSH32 0x4F776E61626C653A2063616C6C6572206973206E6F7420746865206F776E6572 PUSH1 0x44 DUP3 ADD MSTORE PUSH1 0x64 ADD PUSH2 0x320 JUMP JUMPDEST PUSH1 0x33 DUP1 SLOAD PUSH1 0x1 PUSH1 0x1 PUSH1 0xA0 SHL SUB DUP4 DUP2 AND PUSH1 0x1 PUSH1 0x1 PUSH1 0xA0 SHL SUB NOT DUP4 AND DUP2 OR SWAP1 SWAP4 SSTORE PUSH1 0x40 MLOAD SWAP2 AND SWAP2 SWAP1 DUP3 SWAP1 PUSH32 0x8BE0079C531659141344CD1FD0A4F28419497F9722A3DAAFE3B4186F6B6457E0 SWAP1 PUSH1 0x0 SWAP1 LOG3 POP POP JUMP JUMPDEST PUSH1 0x0 SLOAD PUSH2 0x100 SWAP1 DIV PUSH1 0xFF AND PUSH2 0xB4A JUMPI PUSH1 0x40 MLOAD PUSH3 0x461BCD PUSH1 0xE5 SHL DUP2 MSTORE PUSH1 0x4 ADD PUSH2 0x320 SWAP1 PUSH2 0xC79 JUMP JUMPDEST PUSH2 0x5BD PUSH1 0x0 SLOAD PUSH2 0x100 SWAP1 DIV PUSH1 0xFF AND PUSH2 0xB74 JUMPI PUSH1 0x40 MLOAD PUSH3 0x461BCD PUSH1 0xE5 SHL DUP2 MSTORE PUSH1 0x4 ADD PUSH2 0x320 SWAP1 PUSH2 0xC79 JUMP JUMPDEST PUSH2 0x5BD CALLER PUSH2 0xAD1 JUMP JUMPDEST DUP1 CALLDATALOAD PUSH1 0x1 PUSH1 0x1 PUSH1 0xA0 SHL SUB DUP2 AND DUP2 EQ PUSH2 0xB94 JUMPI PUSH1 0x0 DUP1 REVERT JUMPDEST SWAP2 SWAP1 POP JUMP JUMPDEST PUSH1 0x0 PUSH1 0x20 DUP3 DUP5 SUB SLT ISZERO PUSH2 0xBAB JUMPI PUSH1 0x0 DUP1 REVERT JUMPDEST PUSH2 0xBB4 DUP3 PUSH2 0xB7D JUMP JUMPDEST SWAP4 SWAP3 POP POP POP JUMP JUMPDEST PUSH1 0x0 DUP1 PUSH1 0x40 DUP4 DUP6 SUB SLT ISZERO PUSH2 0xBCE JUMPI PUSH1 0x0 DUP1 REVERT JUMPDEST PUSH2 0xBD7 DUP4 PUSH2 0xB7D JUMP JUMPDEST SWAP5 PUSH1 0x20 SWAP4 SWAP1 SWAP4 ADD CALLDATALOAD SWAP4 POP POP POP JUMP JUMPDEST PUSH1 0x20 DUP1 DUP3 MSTORE DUP3 MLOAD DUP3 DUP3 ADD DUP2 SWAP1 MSTORE PUSH1 0x0 SWAP2 SWAP1 DUP5 DUP3 ADD SWAP1 PUSH1 0x40 DUP6 ADD SWAP1 DUP5 JUMPDEST DUP2 DUP2 LT ISZERO PUSH2 0x6DB JUMPI DUP4 MLOAD PUSH1 0x1 PUSH1 0x1 PUSH1 0xA0 SHL SUB AND DUP4 MSTORE SWAP3 DUP5 ADD SWAP3 SWAP2 DUP5 ADD SWAP2 PUSH1 0x1 ADD PUSH2 0xC01 JUMP JUMPDEST PUSH1 0x0 PUSH1 0x1 DUP3 ADD PUSH2 0xC46 JUMPI PUSH4 0x4E487B71 PUSH1 0xE0 SHL PUSH1 0x0 MSTORE PUSH1 0x11 PUSH1 0x4 MSTORE PUSH1 0x24 PUSH1 0x0 REVERT JUMPDEST POP PUSH1 0x1 ADD SWAP1 JUMP JUMPDEST PUSH4 0x4E487B71 PUSH1 0xE0 SHL PUSH1 0x0 MSTORE PUSH1 0x41 PUSH1 0x4 MSTORE PUSH1 0x24 PUSH1 0x0 REVERT JUMPDEST PUSH4 0x4E487B71 PUSH1 0xE0 SHL PUSH1 0x0 MSTORE PUSH1 0x32 PUSH1 0x4 MSTORE PUSH1 0x24 PUSH1 0x0 REVERT JUMPDEST PUSH1 0x20 DUP1 DUP3 MSTORE PUSH1 0x2B SWAP1 DUP3 ADD MSTORE PUSH32 0x496E697469616C697A61626C653A20636F6E7472616374206973206E6F742069 PUSH1 0x40 DUP3 ADD MSTORE PUSH11 0x6E697469616C697A696E67 PUSH1 0xA8 SHL PUSH1 0x60 DUP3 ADD MSTORE PUSH1 0x80 ADD SWAP1 JUMP INVALID LOG2 PUSH5 0x6970667358 0x22 SLT KECCAK256 DIV 0xE5 DUP13 0xE3 0xAB TIMESTAMP 0xE2 RETURN JUMP 0xE3 0xCC 0xB6 0xB6 0xE1 DUP2 0xDE SWAP12 SWAP16 MULMOD SWAP2 0xD3 0xB8 CALLER DIFFICULTY OR STATICCALL 0x4A 0xEF DUP4 CREATE2 CHAINID DUP1 PUSH5 0x736F6C6343 STOP ADDMOD GT STOP CALLER "
				},
				"gasEstimates": {
					"creation": {
						"codeDepositCost": "664400",
						"executionCost": "696",
						"totalCost": "665096"
					},
					"external": {
						"": "212",
						"genReferralCode(address)": "79752",
						"getDirects(address)": "infinite",
						"getUplines(address,uint256)": "infinite",
						"initialize(address)": "infinite",
						"members(address)": "4731",
						"owner()": "2320",
						"register(address,uint256)": "81154",
						"renounceOwnership()": "infinite",
						"root()": "2425",
						"setCaller(address)": "29031",
						"transferOwnership(address)": "28446",
						"validCaller(address)": "2642"
					},
					"internal": {
						"_getUpline(address)": "infinite"
					}
				},
				"methodIdentifiers": {
					"genReferralCode(address)": "39f5e157",
					"getDirects(address)": "bd54da73",
					"getUplines(address,uint256)": "72287edc",
					"initialize(address)": "c4d66de8",
					"members(address)": "08ae4b0c",
					"owner()": "8da5cb5b",
					"register(address,uint256)": "6d705ebb",
					"renounceOwnership()": "715018a6",
					"root()": "ebf0c717",
					"setCaller(address)": "beb92f55",
					"transferOwnership(address)": "f2fde38b",
					"validCaller(address)": "804a88f6"
				}
			},
			"storageLayout": {
				"storage": [
					{
						"astId": 138,
						"contract": "contracts/nodes/MemberController.sol:MemberController",
						"label": "_initialized",
						"offset": 0,
						"slot": "0",
						"type": "t_uint8"
					},
					{
						"astId": 141,
						"contract": "contracts/nodes/MemberController.sol:MemberController",
						"label": "_initializing",
						"offset": 1,
						"slot": "0",
						"type": "t_bool"
					},
					{
						"astId": 644,
						"contract": "contracts/nodes/MemberController.sol:MemberController",
						"label": "__gap",
						"offset": 0,
						"slot": "1",
						"type": "t_array(t_uint256)50_storage"
					},
					{
						"astId": 10,
						"contract": "contracts/nodes/MemberController.sol:MemberController",
						"label": "_owner",
						"offset": 0,
						"slot": "51",
						"type": "t_address"
					},
					{
						"astId": 130,
						"contract": "contracts/nodes/MemberController.sol:MemberController",
						"label": "__gap",
						"offset": 0,
						"slot": "52",
						"type": "t_array(t_uint256)49_storage"
					},
					{
						"astId": 658,
						"contract": "contracts/nodes/MemberController.sol:MemberController",
						"label": "root",
						"offset": 0,
						"slot": "101",
						"type": "t_address"
					},
					{
						"astId": 663,
						"contract": "contracts/nodes/MemberController.sol:MemberController",
						"label": "members",
						"offset": 0,
						"slot": "102",
						"type": "t_mapping(t_address,t_struct(Member)1041_storage)"
					},
					{
						"astId": 667,
						"contract": "contracts/nodes/MemberController.sol:MemberController",
						"label": "validCaller",
						"offset": 0,
						"slot": "103",
						"type": "t_mapping(t_address,t_bool)"
					},
					{
						"astId": 669,
						"contract": "contracts/nodes/MemberController.sol:MemberController",
						"label": "lastReferralCode",
						"offset": 0,
						"slot": "104",
						"type": "t_uint256"
					},
					{
						"astId": 673,
						"contract": "contracts/nodes/MemberController.sol:MemberController",
						"label": "referralCodeList",
						"offset": 0,
						"slot": "105",
						"type": "t_mapping(t_uint256,t_address)"
					}
				],
				"types": {
					"t_address": {
						"encoding": "inplace",
						"label": "address",
						"numberOfBytes": "20"
					},
					"t_array(t_address)dyn_storage": {
						"base": "t_address",
						"encoding": "dynamic_array",
						"label": "address[]",
						"numberOfBytes": "32"
					},
					"t_array(t_uint256)49_storage": {
						"base": "t_uint256",
						"encoding": "inplace",
						"label": "uint256[49]",
						"numberOfBytes": "1568"
					},
					"t_array(t_uint256)50_storage": {
						"base": "t_uint256",
						"encoding": "inplace",
						"label": "uint256[50]",
						"numberOfBytes": "1600"
					},
					"t_bool": {
						"encoding": "inplace",
						"label": "bool",
						"numberOfBytes": "1"
					},
					"t_mapping(t_address,t_bool)": {
						"encoding": "mapping",
						"key": "t_address",
						"label": "mapping(address => bool)",
						"numberOfBytes": "32",
						"value": "t_bool"
					},
					"t_mapping(t_address,t_struct(Member)1041_storage)": {
						"encoding": "mapping",
						"key": "t_address",
						"label": "mapping(address => struct Member)",
						"numberOfBytes": "32",
						"value": "t_struct(Member)1041_storage"
					},
					"t_mapping(t_uint256,t_address)": {
						"encoding": "mapping",
						"key": "t_uint256",
						"label": "mapping(uint256 => address)",
						"numberOfBytes": "32",
						"value": "t_address"
					},
					"t_struct(Member)1041_storage": {
						"encoding": "inplace",
						"label": "struct Member",
						"members": [
							{
								"astId": 1033,
								"contract": "contracts/nodes/MemberController.sol:MemberController",
								"label": "active",
								"offset": 0,
								"slot": "0",
								"type": "t_bool"
							},
							{
								"astId": 1035,
								"contract": "contracts/nodes/MemberController.sol:MemberController",
								"label": "upline",
								"offset": 1,
								"slot": "0",
								"type": "t_address"
							},
							{
								"astId": 1038,
								"contract": "contracts/nodes/MemberController.sol:MemberController",
								"label": "directs",
								"offset": 0,
								"slot": "1",
								"type": "t_array(t_address)dyn_storage"
							},
							{
								"astId": 1040,
								"contract": "contracts/nodes/MemberController.sol:MemberController",
								"label": "referralCode",
								"offset": 0,
								"slot": "2",
								"type": "t_uint256"
							}
						],
						"numberOfBytes": "96"
					},
					"t_uint256": {
						"encoding": "inplace",
						"label": "uint256",
						"numberOfBytes": "32"
					},
					"t_uint8": {
						"encoding": "inplace",
						"label": "uint8",
						"numberOfBytes": "1"
					}
				}
			},
			"userdoc": {
				"kind": "user",
				"methods": {},
				"version": 1
			}
		}
	}
}