{
	"token/DeAnt3Token.sol": {
		"DeAnt3Token": {
			"abi": [
				{
					"anonymous": false,
					"inputs": [
						{
							"indexed": true,
							"internalType": "address",
							"name": "owner",
							"type": "address"
						},
						{
							"indexed": true,
							"internalType": "address",
							"name": "spender",
							"type": "address"
						},
						{
							"indexed": false,
							"internalType": "uint256",
							"name": "value",
							"type": "uint256"
						}
					],
					"name": "Approval",
					"type": "event"
				},
				{
					"anonymous": false,
					"inputs": [
						{
							"indexed": false,
							"internalType": "uint8",
							"name": "version",
							"type": "uint8"
						}
					],
					"name": "Initialized",
					"type": "event"
				},
				{
					"anonymous": false,
					"inputs": [
						{
							"indexed": true,
							"internalType": "address",
							"name": "previousOwner",
							"type": "address"
						},
						{
							"indexed": true,
							"internalType": "address",
							"name": "newOwner",
							"type": "address"
						}
					],
					"name": "OwnershipTransferred",
					"type": "event"
				},
				{
					"anonymous": false,
					"inputs": [
						{
							"indexed": true,
							"internalType": "address",
							"name": "from",
							"type": "address"
						},
						{
							"indexed": true,
							"internalType": "address",
							"name": "to",
							"type": "address"
						},
						{
							"indexed": false,
							"internalType": "uint256",
							"name": "value",
							"type": "uint256"
						}
					],
					"name": "Transfer",
					"type": "event"
				},
				{
					"inputs": [
						{
							"internalType": "address",
							"name": "",
							"type": "address"
						}
					],
					"name": "_mapSigners",
					"outputs": [
						{
							"internalType": "bool",
							"name": "",
							"type": "bool"
						}
					],
					"stateMutability": "view",
					"type": "function"
				},
				{
					"inputs": [
						{
							"internalType": "address",
							"name": "owner",
							"type": "address"
						},
						{
							"internalType": "address",
							"name": "spender",
							"type": "address"
						}
					],
					"name": "allowance",
					"outputs": [
						{
							"internalType": "uint256",
							"name": "",
							"type": "uint256"
						}
					],
					"stateMutability": "view",
					"type": "function"
				},
				{
					"inputs": [
						{
							"internalType": "address",
							"name": "spender",
							"type": "address"
						},
						{
							"internalType": "uint256",
							"name": "amount",
							"type": "uint256"
						}
					],
					"name": "approve",
					"outputs": [
						{
							"internalType": "bool",
							"name": "",
							"type": "bool"
						}
					],
					"stateMutability": "nonpayable",
					"type": "function"
				},
				{
					"inputs": [
						{
							"internalType": "address",
							"name": "account",
							"type": "address"
						}
					],
					"name": "balanceOf",
					"outputs": [
						{
							"internalType": "uint256",
							"name": "",
							"type": "uint256"
						}
					],
					"stateMutability": "view",
					"type": "function"
				},
				{
					"inputs": [],
					"name": "cap",
					"outputs": [
						{
							"internalType": "uint256",
							"name": "",
							"type": "uint256"
						}
					],
					"stateMutability": "view",
					"type": "function"
				},
				{
					"inputs": [],
					"name": "decimals",
					"outputs": [
						{
							"internalType": "uint8",
							"name": "",
							"type": "uint8"
						}
					],
					"stateMutability": "view",
					"type": "function"
				},
				{
					"inputs": [
						{
							"internalType": "address",
							"name": "spender",
							"type": "address"
						},
						{
							"internalType": "uint256",
							"name": "subtractedValue",
							"type": "uint256"
						}
					],
					"name": "decreaseAllowance",
					"outputs": [
						{
							"internalType": "bool",
							"name": "",
							"type": "bool"
						}
					],
					"stateMutability": "nonpayable",
					"type": "function"
				},
				{
					"inputs": [],
					"name": "getRewardAmt",
					"outputs": [
						{
							"internalType": "uint256",
							"name": "",
							"type": "uint256"
						}
					],
					"stateMutability": "view",
					"type": "function"
				},
				{
					"inputs": [],
					"name": "getSigners",
					"outputs": [
						{
							"internalType": "address[]",
							"name": "",
							"type": "address[]"
						}
					],
					"stateMutability": "view",
					"type": "function"
				},
				{
					"inputs": [],
					"name": "getTaxFee",
					"outputs": [
						{
							"internalType": "uint256",
							"name": "",
							"type": "uint256"
						}
					],
					"stateMutability": "view",
					"type": "function"
				},
				{
					"inputs": [
						{
							"internalType": "address",
							"name": "spender",
							"type": "address"
						},
						{
							"internalType": "uint256",
							"name": "addedValue",
							"type": "uint256"
						}
					],
					"name": "increaseAllowance",
					"outputs": [
						{
							"internalType": "bool",
							"name": "",
							"type": "bool"
						}
					],
					"stateMutability": "nonpayable",
					"type": "function"
				},
				{
					"inputs": [
						{
							"internalType": "string",
							"name": "_NAME",
							"type": "string"
						},
						{
							"internalType": "string",
							"name": "_SYMBOL",
							"type": "string"
						},
						{
							"internalType": "uint8",
							"name": "_DECIMALS",
							"type": "uint8"
						},
						{
							"internalType": "uint256",
							"name": "cap",
							"type": "uint256"
						},
						{
							"internalType": "uint256",
							"name": "initialBalance",
							"type": "uint256"
						},
						{
							"internalType": "uint256",
							"name": "taxFee",
							"type": "uint256"
						}
					],
					"name": "initialize",
					"outputs": [],
					"stateMutability": "nonpayable",
					"type": "function"
				},
				{
					"inputs": [
						{
							"internalType": "address",
							"name": "signer",
							"type": "address"
						}
					],
					"name": "mapSigner",
					"outputs": [
						{
							"internalType": "bool",
							"name": "",
							"type": "bool"
						}
					],
					"stateMutability": "view",
					"type": "function"
				},
				{
					"inputs": [],
					"name": "name",
					"outputs": [
						{
							"internalType": "string",
							"name": "",
							"type": "string"
						}
					],
					"stateMutability": "view",
					"type": "function"
				},
				{
					"inputs": [
						{
							"internalType": "address",
							"name": "account",
							"type": "address"
						},
						{
							"internalType": "uint256",
							"name": "amount",
							"type": "uint256"
						}
					],
					"name": "nodeControllerBurn",
					"outputs": [],
					"stateMutability": "nonpayable",
					"type": "function"
				},
				{
					"inputs": [],
					"name": "owner",
					"outputs": [
						{
							"internalType": "address",
							"name": "",
							"type": "address"
						}
					],
					"stateMutability": "view",
					"type": "function"
				},
				{
					"inputs": [
						{
							"internalType": "address payable",
							"name": "recipient",
							"type": "address"
						},
						{
							"internalType": "uint256",
							"name": "uniqueId",
							"type": "uint256"
						},
						{
							"internalType": "uint256",
							"name": "amount",
							"type": "uint256"
						},
						{
							"internalType": "uint256",
							"name": "deadline",
							"type": "uint256"
						},
						{
							"internalType": "uint8[]",
							"name": "v",
							"type": "uint8[]"
						},
						{
							"internalType": "bytes32[]",
							"name": "r",
							"type": "bytes32[]"
						},
						{
							"internalType": "bytes32[]",
							"name": "s",
							"type": "bytes32[]"
						}
					],
					"name": "permitMint",
					"outputs": [],
					"stateMutability": "nonpayable",
					"type": "function"
				},
				{
					"inputs": [],
					"name": "renounceOwnership",
					"outputs": [],
					"stateMutability": "nonpayable",
					"type": "function"
				},
				{
					"inputs": [
						{
							"internalType": "address",
							"name": "_contractAddress",
							"type": "address"
						}
					],
					"name": "setNodeControllerContract",
					"outputs": [],
					"stateMutability": "nonpayable",
					"type": "function"
				},
				{
					"inputs": [
						{
							"internalType": "uint256",
							"name": "_newAmt",
							"type": "uint256"
						}
					],
					"name": "setRewardAmtInWei",
					"outputs": [],
					"stateMutability": "nonpayable",
					"type": "function"
				},
				{
					"inputs": [
						{
							"internalType": "address[]",
							"name": "signers_",
							"type": "address[]"
						}
					],
					"name": "setSigners",
					"outputs": [],
					"stateMutability": "nonpayable",
					"type": "function"
				},
				{
					"inputs": [
						{
							"internalType": "uint256",
							"name": "_newTaxFee",
							"type": "uint256"
						}
					],
					"name": "setTaxFee",
					"outputs": [],
					"stateMutability": "nonpayable",
					"type": "function"
				},
				{
					"inputs": [],
					"name": "symbol",
					"outputs": [
						{
							"internalType": "string",
							"name": "",
							"type": "string"
						}
					],
					"stateMutability": "view",
					"type": "function"
				},
				{
					"inputs": [],
					"name": "totalBurned",
					"outputs": [
						{
							"internalType": "uint256",
							"name": "",
							"type": "uint256"
						}
					],
					"stateMutability": "view",
					"type": "function"
				},
				{
					"inputs": [],
					"name": "totalSupply",
					"outputs": [
						{
							"internalType": "uint256",
							"name": "",
							"type": "uint256"
						}
					],
					"stateMutability": "view",
					"type": "function"
				},
				{
					"inputs": [
						{
							"internalType": "address",
							"name": "recipient",
							"type": "address"
						},
						{
							"internalType": "uint256",
							"name": "amount",
							"type": "uint256"
						}
					],
					"name": "transfer",
					"outputs": [
						{
							"internalType": "bool",
							"name": "",
							"type": "bool"
						}
					],
					"stateMutability": "nonpayable",
					"type": "function"
				},
				{
					"inputs": [
						{
							"internalType": "address",
							"name": "from",
							"type": "address"
						},
						{
							"internalType": "address",
							"name": "to",
							"type": "address"
						},
						{
							"internalType": "uint256",
							"name": "amount",
							"type": "uint256"
						}
					],
					"name": "transferFrom",
					"outputs": [
						{
							"internalType": "bool",
							"name": "",
							"type": "bool"
						}
					],
					"stateMutability": "nonpayable",
					"type": "function"
				},
				{
					"inputs": [
						{
							"internalType": "address",
							"name": "newOwner",
							"type": "address"
						}
					],
					"name": "transferOwnership",
					"outputs": [],
					"stateMutability": "nonpayable",
					"type": "function"
				},
				{
					"inputs": [
						{
							"internalType": "uint256",
							"name": "",
							"type": "uint256"
						}
					],
					"name": "uniqueIdExists",
					"outputs": [
						{
							"internalType": "bool",
							"name": "",
							"type": "bool"
						}
					],
					"stateMutability": "view",
					"type": "function"
				},
				{
					"inputs": [
						{
							"internalType": "address",
							"name": "",
							"type": "address"
						}
					],
					"name": "userTotalBurned",
					"outputs": [
						{
							"internalType": "uint256",
							"name": "",
							"type": "uint256"
						}
					],
					"stateMutability": "view",
					"type": "function"
				},
				{
					"stateMutability": "payable",
					"type": "receive"
				}
			],
			"devdoc": {
				"kind": "dev",
				"methods": {
					"allowance(address,address)": {
						"details": "See {IERC20-allowance}."
					},
					"approve(address,uint256)": {
						"details": "See {IERC20-approve}. NOTE: If `amount` is the maximum `uint256`, the allowance is not updated on `transferFrom`. This is semantically equivalent to an infinite approval. Requirements: - `spender` cannot be the zero address."
					},
					"balanceOf(address)": {
						"details": "See {IERC20-balanceOf}."
					},
					"cap()": {
						"details": "Returns the cap on the token's total supply."
					},
					"decimals()": {
						"details": "Returns the number of decimals used to get its user representation. For example, if `decimals` equals `2`, a balance of `505` tokens should be displayed to a user as `5.05` (`505 / 10 ** 2`). Tokens usually opt for a value of 18, imitating the relationship between Ether and Wei. This is the value {ERC20} uses, unless this function is overridden; NOTE: This information is only used for _display_ purposes: it in no way affects any of the arithmetic of the contract, including {IERC20-balanceOf} and {IERC20-transfer}."
					},
					"decreaseAllowance(address,uint256)": {
						"details": "Atomically decreases the allowance granted to `spender` by the caller. This is an alternative to {approve} that can be used as a mitigation for problems described in {IERC20-approve}. Emits an {Approval} event indicating the updated allowance. Requirements: - `spender` cannot be the zero address. - `spender` must have allowance for the caller of at least `subtractedValue`."
					},
					"increaseAllowance(address,uint256)": {
						"details": "Atomically increases the allowance granted to `spender` by the caller. This is an alternative to {approve} that can be used as a mitigation for problems described in {IERC20-approve}. Emits an {Approval} event indicating the updated allowance. Requirements: - `spender` cannot be the zero address."
					},
					"name()": {
						"details": "Returns the name of the token."
					},
					"owner()": {
						"details": "Returns the address of the current owner."
					},
					"renounceOwnership()": {
						"details": "Leaves the contract without owner. It will not be possible to call `onlyOwner` functions anymore. Can only be called by the current owner. NOTE: Renouncing ownership will leave the contract without an owner, thereby removing any functionality that is only available to the owner."
					},
					"symbol()": {
						"details": "Returns the symbol of the token, usually a shorter version of the name."
					},
					"totalSupply()": {
						"details": "See {IERC20-totalSupply}."
					},
					"transferFrom(address,address,uint256)": {
						"details": "See {IERC20-transferFrom}. Emits an {Approval} event indicating the updated allowance. This is not required by the EIP. See the note at the beginning of {ERC20}. NOTE: Does not update the allowance if the current allowance is the maximum `uint256`. Requirements: - `from` and `to` cannot be the zero address. - `from` must have a balance of at least `amount`. - the caller must have allowance for ``from``'s tokens of at least `amount`."
					},
					"transferOwnership(address)": {
						"details": "Transfers ownership of the contract to a new account (`newOwner`). Can only be called by the current owner."
					}
				},
				"version": 1
			},
			"evm": {
				"assembly": "    /* \"token/DeAnt3Token.sol\":270:5789  contract DeAnt3Token is ERC20CappedUpgradeable, OwnableUpgradeable, IDeAnt3 {... */\n  mstore(0x40, 0x80)\n  callvalue\n  dup1\n  iszero\n  tag_1\n  jumpi\n  0x00\n  dup1\n  revert\ntag_1:\n  pop\n  dataSize(sub_0)\n  dup1\n  dataOffset(sub_0)\n  0x00\n  codecopy\n  0x00\n  return\nstop\n\nsub_0: assembly {\n        /* \"token/DeAnt3Token.sol\":270:5789  contract DeAnt3Token is ERC20CappedUpgradeable, OwnableUpgradeable, IDeAnt3 {... */\n      mstore(0x40, 0x80)\n      jumpi(tag_1, lt(calldatasize, 0x04))\n      shr(0xe0, calldataload(0x00))\n      dup1\n      0x8da5cb5b\n      gt\n      tag_33\n      jumpi\n      dup1\n      0xb24a0893\n      gt\n      tag_34\n      jumpi\n      dup1\n      0xe4c97e6a\n      gt\n      tag_35\n      jumpi\n      dup1\n      0xe4c97e6a\n      eq\n      tag_29\n      jumpi\n      dup1\n      0xf2fde38b\n      eq\n      tag_30\n      jumpi\n      dup1\n      0xf66608fe\n      eq\n      tag_31\n      jumpi\n      dup1\n      0xf9342285\n      eq\n      tag_32\n      jumpi\n      0x00\n      dup1\n      revert\n    tag_35:\n      dup1\n      0xb24a0893\n      eq\n      tag_25\n      jumpi\n      dup1\n      0xc4081a4c\n      eq\n      tag_26\n      jumpi\n      dup1\n      0xd89135cd\n      eq\n      tag_27\n      jumpi\n      dup1\n      0xdd62ed3e\n      eq\n      tag_28\n      jumpi\n      0x00\n      dup1\n      revert\n    tag_34:\n      dup1\n      0xa3772662\n      gt\n      tag_36\n      jumpi\n      dup1\n      0xa3772662\n      eq\n      tag_21\n      jumpi\n      dup1\n      0xa457c2d7\n      eq\n      tag_22\n      jumpi\n      dup1\n      0xa9059cbb\n      eq\n      tag_23\n      jumpi\n      dup1\n      0xac7fa3c6\n      eq\n      tag_24\n      jumpi\n      0x00\n      dup1\n      revert\n    tag_36:\n      dup1\n      0x8da5cb5b\n      eq\n      tag_18\n      jumpi\n      dup1\n      0x94cf795e\n      eq\n      tag_19\n      jumpi\n      dup1\n      0x95d89b41\n      eq\n      tag_20\n      jumpi\n      0x00\n      dup1\n      revert\n    tag_33:\n      dup1\n      0x2b9a1d3c\n      gt\n      tag_37\n      jumpi\n      dup1\n      0x3de47e32\n      gt\n      tag_38\n      jumpi\n      dup1\n      0x3de47e32\n      eq\n      tag_14\n      jumpi\n      dup1\n      0x4cdbab5b\n      eq\n      tag_15\n      jumpi\n      dup1\n      0x70a08231\n      eq\n      tag_16\n      jumpi\n      dup1\n      0x715018a6\n      eq\n      tag_17\n      jumpi\n      0x00\n      dup1\n      revert\n    tag_38:\n      dup1\n      0x2b9a1d3c\n      eq\n      tag_10\n      jumpi\n      dup1\n      0x313ce567\n      eq\n      tag_11\n      jumpi\n      dup1\n      0x355274ea\n      eq\n      tag_12\n      jumpi\n      dup1\n      0x39509351\n      eq\n      tag_13\n      jumpi\n      0x00\n      dup1\n      revert\n    tag_37:\n      dup1\n      0x18160ddd\n      gt\n      tag_39\n      jumpi\n      dup1\n      0x18160ddd\n      eq\n      tag_6\n      jumpi\n      dup1\n      0x1e0d4ce9\n      eq\n      tag_7\n      jumpi\n      dup1\n      0x1e71e435\n      eq\n      tag_8\n      jumpi\n      dup1\n      0x23b872dd\n      eq\n      tag_9\n      jumpi\n      0x00\n      dup1\n      revert\n    tag_39:\n      dup1\n      0x06fdde03\n      eq\n      tag_3\n      jumpi\n      dup1\n      0x07c351dd\n      eq\n      tag_4\n      jumpi\n      dup1\n      0x095ea7b3\n      eq\n      tag_5\n      jumpi\n      0x00\n      dup1\n      revert\n    tag_1:\n      jumpi(tag_2, calldatasize)\n      stop\n    tag_2:\n      0x00\n      dup1\n      revert\n        /* \"@openzeppelin/contracts-upgradeable/token/ERC20/ERC20Upgradeable.sol\":2491:2589  function name() public view virtual override returns (string memory) {... */\n    tag_3:\n      callvalue\n      dup1\n      iszero\n      tag_42\n      jumpi\n      0x00\n      dup1\n      revert\n    tag_42:\n      pop\n      tag_43\n      tag_44\n      jump\t// in\n    tag_43:\n      mload(0x40)\n      tag_45\n      swap2\n      swap1\n      tag_46\n      jump\t// in\n    tag_45:\n      mload(0x40)\n      dup1\n      swap2\n      sub\n      swap1\n      return\n        /* \"token/DeAnt3Token.sol\":2448:2557  function mapSigner(address signer) external view returns (bool) {... */\n    tag_4:\n      callvalue\n      dup1\n      iszero\n      tag_47\n      jumpi\n      0x00\n      dup1\n      revert\n    tag_47:\n      pop\n      tag_48\n      tag_49\n      calldatasize\n      0x04\n      tag_50\n      jump\t// in\n    tag_49:\n      sub(shl(0xa0, 0x01), 0x01)\n        /* \"token/DeAnt3Token.sol\":2530:2549  _mapSigners[signer] */\n      and\n        /* \"token/DeAnt3Token.sol\":2506:2510  bool */\n      0x00\n        /* \"token/DeAnt3Token.sol\":2530:2549  _mapSigners[signer] */\n      swap1\n      dup2\n      mstore\n        /* \"token/DeAnt3Token.sol\":2530:2541  _mapSigners */\n      0xd2\n        /* \"token/DeAnt3Token.sol\":2530:2549  _mapSigners[signer] */\n      0x20\n      mstore\n      0x40\n      swap1\n      keccak256\n      sload\n      0xff\n      and\n      swap1\n        /* \"token/DeAnt3Token.sol\":2448:2557  function mapSigner(address signer) external view returns (bool) {... */\n      jump\n    tag_48:\n      mload(0x40)\n        /* \"#utility.yul\":1169:1183   */\n      swap1\n      iszero\n        /* \"#utility.yul\":1162:1184   */\n      iszero\n        /* \"#utility.yul\":1144:1185   */\n      dup2\n      mstore\n        /* \"#utility.yul\":1132:1134   */\n      0x20\n        /* \"#utility.yul\":1117:1135   */\n      add\n        /* \"token/DeAnt3Token.sol\":2448:2557  function mapSigner(address signer) external view returns (bool) {... */\n      tag_45\n        /* \"#utility.yul\":1004:1191   */\n      jump\n        /* \"@openzeppelin/contracts-upgradeable/token/ERC20/ERC20Upgradeable.sol\":4768:4965  function approve(address spender, uint256 amount) public virtual override returns (bool) {... */\n    tag_5:\n      callvalue\n      dup1\n      iszero\n      tag_54\n      jumpi\n      0x00\n      dup1\n      revert\n    tag_54:\n      pop\n      tag_48\n      tag_56\n      calldatasize\n      0x04\n      tag_57\n      jump\t// in\n    tag_56:\n      tag_58\n      jump\t// in\n        /* \"@openzeppelin/contracts-upgradeable/token/ERC20/ERC20Upgradeable.sol\":3579:3685  function totalSupply() public view virtual override returns (uint256) {... */\n    tag_6:\n      callvalue\n      dup1\n      iszero\n      tag_60\n      jumpi\n      0x00\n      dup1\n      revert\n    tag_60:\n      pop\n        /* \"@openzeppelin/contracts-upgradeable/token/ERC20/ERC20Upgradeable.sol\":3666:3678  _totalSupply */\n      sload(0x35)\n        /* \"@openzeppelin/contracts-upgradeable/token/ERC20/ERC20Upgradeable.sol\":3579:3685  function totalSupply() public view virtual override returns (uint256) {... */\n    tag_61:\n      mload(0x40)\n        /* \"#utility.yul\":1662:1687   */\n      swap1\n      dup2\n      mstore\n        /* \"#utility.yul\":1650:1652   */\n      0x20\n        /* \"#utility.yul\":1635:1653   */\n      add\n        /* \"@openzeppelin/contracts-upgradeable/token/ERC20/ERC20Upgradeable.sol\":3579:3685  function totalSupply() public view virtual override returns (uint256) {... */\n      tag_45\n        /* \"#utility.yul\":1516:1693   */\n      jump\n        /* \"token/DeAnt3Token.sol\":698:748  mapping(address => uint256) public userTotalBurned */\n    tag_7:\n      callvalue\n      dup1\n      iszero\n      tag_65\n      jumpi\n      0x00\n      dup1\n      revert\n    tag_65:\n      pop\n      tag_61\n      tag_67\n      calldatasize\n      0x04\n      tag_50\n      jump\t// in\n    tag_67:\n      mstore(0x20, 0xd4)\n      0x00\n      swap1\n      dup2\n      mstore\n      0x40\n      swap1\n      keccak256\n      sload\n      dup2\n      jump\n        /* \"token/DeAnt3Token.sol\":4216:4372  function nodeControllerBurn(address account, uint256 amount)... */\n    tag_8:\n      callvalue\n      dup1\n      iszero\n      tag_70\n      jumpi\n      0x00\n      dup1\n      revert\n    tag_70:\n      pop\n      tag_71\n      tag_72\n      calldatasize\n      0x04\n      tag_57\n      jump\t// in\n    tag_72:\n      tag_73\n      jump\t// in\n    tag_71:\n      stop\n        /* \"token/DeAnt3Token.sol\":3287:3639  function transferFrom(... */\n    tag_9:\n      callvalue\n      dup1\n      iszero\n      tag_74\n      jumpi\n      0x00\n      dup1\n      revert\n    tag_74:\n      pop\n      tag_48\n      tag_76\n      calldatasize\n      0x04\n      tag_77\n      jump\t// in\n    tag_76:\n      tag_78\n      jump\t// in\n        /* \"token/DeAnt3Token.sol\":988:1538  function initialize(... */\n    tag_10:\n      callvalue\n      dup1\n      iszero\n      tag_80\n      jumpi\n      0x00\n      dup1\n      revert\n    tag_80:\n      pop\n      tag_71\n      tag_82\n      calldatasize\n      0x04\n      tag_83\n      jump\t// in\n    tag_82:\n      tag_84\n      jump\t// in\n        /* \"token/DeAnt3Token.sol\":1583:1683  function decimals() public view virtual override returns (uint8) {... */\n    tag_11:\n      callvalue\n      dup1\n      iszero\n      tag_85\n      jumpi\n      0x00\n      dup1\n      revert\n    tag_85:\n      pop\n        /* \"token/DeAnt3Token.sol\":1666:1675  _decimals */\n      sload(0xcc)\n        /* \"token/DeAnt3Token.sol\":1583:1683  function decimals() public view virtual override returns (uint8) {... */\n      mload(0x40)\n        /* \"token/DeAnt3Token.sol\":1666:1675  _decimals */\n      0xff\n      swap1\n      swap2\n      and\n        /* \"#utility.yul\":4235:4271   */\n      dup2\n      mstore\n        /* \"#utility.yul\":4223:4225   */\n      0x20\n        /* \"#utility.yul\":4208:4226   */\n      add\n        /* \"token/DeAnt3Token.sol\":1583:1683  function decimals() public view virtual override returns (uint8) {... */\n      tag_45\n        /* \"#utility.yul\":4093:4277   */\n      jump\n        /* \"@openzeppelin/contracts-upgradeable/token/ERC20/extensions/ERC20CappedUpgradeable.sol\":929:1010  function cap() public view virtual returns (uint256) {... */\n    tag_12:\n      callvalue\n      dup1\n      iszero\n      tag_90\n      jumpi\n      0x00\n      dup1\n      revert\n    tag_90:\n      pop\n        /* \"@openzeppelin/contracts-upgradeable/token/ERC20/extensions/ERC20CappedUpgradeable.sol\":999:1003  _cap */\n      sload(0x65)\n        /* \"@openzeppelin/contracts-upgradeable/token/ERC20/extensions/ERC20CappedUpgradeable.sol\":929:1010  function cap() public view virtual returns (uint256) {... */\n      jump(tag_61)\n        /* \"@openzeppelin/contracts-upgradeable/token/ERC20/ERC20Upgradeable.sol\":6208:6442  function increaseAllowance(address spender, uint256 addedValue) public virtual returns (bool) {... */\n    tag_13:\n      callvalue\n      dup1\n      iszero\n      tag_94\n      jumpi\n      0x00\n      dup1\n      revert\n    tag_94:\n      pop\n      tag_48\n      tag_96\n      calldatasize\n      0x04\n      tag_57\n      jump\t// in\n    tag_96:\n      tag_97\n      jump\t// in\n        /* \"token/DeAnt3Token.sol\":595:638  mapping(address => bool) public _mapSigners */\n    tag_14:\n      callvalue\n      dup1\n      iszero\n      tag_99\n      jumpi\n      0x00\n      dup1\n      revert\n    tag_99:\n      pop\n      tag_48\n      tag_101\n      calldatasize\n      0x04\n      tag_50\n      jump\t// in\n    tag_101:\n      mstore(0x20, 0xd2)\n      0x00\n      swap1\n      dup2\n      mstore\n      0x40\n      swap1\n      keccak256\n      sload\n      0xff\n      and\n      dup2\n      jump\n        /* \"token/DeAnt3Token.sol\":4045:4208  function setNodeControllerContract(address _contractAddress)... */\n    tag_15:\n      callvalue\n      dup1\n      iszero\n      tag_104\n      jumpi\n      0x00\n      dup1\n      revert\n    tag_104:\n      pop\n      tag_71\n      tag_106\n      calldatasize\n      0x04\n      tag_50\n      jump\t// in\n    tag_106:\n      tag_107\n      jump\t// in\n        /* \"@openzeppelin/contracts-upgradeable/token/ERC20/ERC20Upgradeable.sol\":3743:3868  function balanceOf(address account) public view virtual override returns (uint256) {... */\n    tag_16:\n      callvalue\n      dup1\n      iszero\n      tag_108\n      jumpi\n      0x00\n      dup1\n      revert\n    tag_108:\n      pop\n      tag_61\n      tag_110\n      calldatasize\n      0x04\n      tag_50\n      jump\t// in\n    tag_110:\n      sub(shl(0xa0, 0x01), 0x01)\n        /* \"@openzeppelin/contracts-upgradeable/token/ERC20/ERC20Upgradeable.sol\":3843:3861  _balances[account] */\n      and\n        /* \"@openzeppelin/contracts-upgradeable/token/ERC20/ERC20Upgradeable.sol\":3817:3824  uint256 */\n      0x00\n        /* \"@openzeppelin/contracts-upgradeable/token/ERC20/ERC20Upgradeable.sol\":3843:3861  _balances[account] */\n      swap1\n      dup2\n      mstore\n        /* \"@openzeppelin/contracts-upgradeable/token/ERC20/ERC20Upgradeable.sol\":3843:3852  _balances */\n      0x33\n        /* \"@openzeppelin/contracts-upgradeable/token/ERC20/ERC20Upgradeable.sol\":3843:3861  _balances[account] */\n      0x20\n      mstore\n      0x40\n      swap1\n      keccak256\n      sload\n      swap1\n        /* \"@openzeppelin/contracts-upgradeable/token/ERC20/ERC20Upgradeable.sol\":3743:3868  function balanceOf(address account) public view virtual override returns (uint256) {... */\n      jump\n        /* \"@openzeppelin/contracts-upgradeable/access/OwnableUpgradeable.sol\":2071:2172  function renounceOwnership() public virtual onlyOwner {... */\n    tag_17:\n      callvalue\n      dup1\n      iszero\n      tag_113\n      jumpi\n      0x00\n      dup1\n      revert\n    tag_113:\n      pop\n      tag_71\n      tag_115\n      jump\t// in\n        /* \"@openzeppelin/contracts-upgradeable/access/OwnableUpgradeable.sol\":1441:1526  function owner() public view virtual returns (address) {... */\n    tag_18:\n      callvalue\n      dup1\n      iszero\n      tag_116\n      jumpi\n      0x00\n      dup1\n      revert\n    tag_116:\n      pop\n        /* \"@openzeppelin/contracts-upgradeable/access/OwnableUpgradeable.sol\":1513:1519  _owner */\n      sload(0x98)\n        /* \"@openzeppelin/contracts-upgradeable/access/OwnableUpgradeable.sol\":1441:1526  function owner() public view virtual returns (address) {... */\n      mload(0x40)\n      sub(shl(0xa0, 0x01), 0x01)\n        /* \"@openzeppelin/contracts-upgradeable/access/OwnableUpgradeable.sol\":1513:1519  _owner */\n      swap1\n      swap2\n      and\n        /* \"#utility.yul\":4428:4479   */\n      dup2\n      mstore\n        /* \"#utility.yul\":4416:4418   */\n      0x20\n        /* \"#utility.yul\":4401:4419   */\n      add\n        /* \"@openzeppelin/contracts-upgradeable/access/OwnableUpgradeable.sol\":1441:1526  function owner() public view virtual returns (address) {... */\n      tag_45\n        /* \"#utility.yul\":4282:4485   */\n      jump\n        /* \"token/DeAnt3Token.sol\":2096:2193  function getSigners() external view returns (address[] memory) {... */\n    tag_19:\n      callvalue\n      dup1\n      iszero\n      tag_121\n      jumpi\n      0x00\n      dup1\n      revert\n    tag_121:\n      pop\n      tag_122\n      tag_123\n      jump\t// in\n    tag_122:\n      mload(0x40)\n      tag_45\n      swap2\n      swap1\n      tag_125\n      jump\t// in\n        /* \"@openzeppelin/contracts-upgradeable/token/ERC20/ERC20Upgradeable.sol\":2702:2804  function symbol() public view virtual override returns (string memory) {... */\n    tag_20:\n      callvalue\n      dup1\n      iszero\n      tag_126\n      jumpi\n      0x00\n      dup1\n      revert\n    tag_126:\n      pop\n      tag_43\n      tag_128\n      jump\t// in\n        /* \"token/DeAnt3Token.sol\":2201:2440  function setSigners(address[] memory signers_) external virtual onlyOwner {... */\n    tag_21:\n      callvalue\n      dup1\n      iszero\n      tag_130\n      jumpi\n      0x00\n      dup1\n      revert\n    tag_130:\n      pop\n      tag_71\n      tag_132\n      calldatasize\n      0x04\n      tag_133\n      jump\t// in\n    tag_132:\n      tag_134\n      jump\t// in\n        /* \"@openzeppelin/contracts-upgradeable/token/ERC20/ERC20Upgradeable.sol\":6929:7356  function decreaseAllowance(address spender, uint256 subtractedValue) public virtual returns (bool) {... */\n    tag_22:\n      callvalue\n      dup1\n      iszero\n      tag_135\n      jumpi\n      0x00\n      dup1\n      revert\n    tag_135:\n      pop\n      tag_48\n      tag_137\n      calldatasize\n      0x04\n      tag_57\n      jump\t// in\n    tag_137:\n      tag_138\n      jump\t// in\n        /* \"token/DeAnt3Token.sol\":2814:3279  function transfer(address recipient, uint256 amount)... */\n    tag_23:\n      callvalue\n      dup1\n      iszero\n      tag_140\n      jumpi\n      0x00\n      dup1\n      revert\n    tag_140:\n      pop\n      tag_48\n      tag_142\n      calldatasize\n      0x04\n      tag_57\n      jump\t// in\n    tag_142:\n      tag_143\n      jump\t// in\n        /* \"token/DeAnt3Token.sol\":1691:1781  function getRewardAmt() public view returns (uint256) {... */\n    tag_24:\n      callvalue\n      dup1\n      iszero\n      tag_145\n      jumpi\n      0x00\n      dup1\n      revert\n    tag_145:\n      pop\n        /* \"token/DeAnt3Token.sol\":1763:1773  _rewardAmt */\n      sload(0xcd)\n        /* \"token/DeAnt3Token.sol\":1691:1781  function getRewardAmt() public view returns (uint256) {... */\n      jump(tag_61)\n        /* \"token/DeAnt3Token.sol\":1789:1891  function setRewardAmtInWei(uint256 _newAmt) external onlyOwner {... */\n    tag_25:\n      callvalue\n      dup1\n      iszero\n      tag_149\n      jumpi\n      0x00\n      dup1\n      revert\n    tag_149:\n      pop\n      tag_71\n      tag_151\n      calldatasize\n      0x04\n      tag_152\n      jump\t// in\n    tag_151:\n      tag_153\n      jump\t// in\n        /* \"token/DeAnt3Token.sol\":1991:2088  function setTaxFee(uint256 _newTaxFee) external onlyOwner {... */\n    tag_26:\n      callvalue\n      dup1\n      iszero\n      tag_154\n      jumpi\n      0x00\n      dup1\n      revert\n    tag_154:\n      pop\n      tag_71\n      tag_156\n      calldatasize\n      0x04\n      tag_152\n      jump\t// in\n    tag_156:\n      tag_157\n      jump\t// in\n        /* \"token/DeAnt3Token.sol\":529:555  uint256 public totalBurned */\n    tag_27:\n      callvalue\n      dup1\n      iszero\n      tag_158\n      jumpi\n      0x00\n      dup1\n      revert\n    tag_158:\n      pop\n      tag_61\n      sload(0xd0)\n      dup2\n      jump\n        /* \"@openzeppelin/contracts-upgradeable/token/ERC20/ERC20Upgradeable.sol\":4311:4460  function allowance(address owner, address spender) public view virtual override returns (uint256) {... */\n    tag_28:\n      callvalue\n      dup1\n      iszero\n      tag_162\n      jumpi\n      0x00\n      dup1\n      revert\n    tag_162:\n      pop\n      tag_61\n      tag_164\n      calldatasize\n      0x04\n      tag_165\n      jump\t// in\n    tag_164:\n      tag_166\n      jump\t// in\n        /* \"token/DeAnt3Token.sol\":4380:5786  function permitMint(... */\n    tag_29:\n      callvalue\n      dup1\n      iszero\n      tag_168\n      jumpi\n      0x00\n      dup1\n      revert\n    tag_168:\n      pop\n      tag_71\n      tag_170\n      calldatasize\n      0x04\n      tag_171\n      jump\t// in\n    tag_170:\n      tag_172\n      jump\t// in\n        /* \"@openzeppelin/contracts-upgradeable/access/OwnableUpgradeable.sol\":2321:2519  function transferOwnership(address newOwner) public virtual onlyOwner {... */\n    tag_30:\n      callvalue\n      dup1\n      iszero\n      tag_173\n      jumpi\n      0x00\n      dup1\n      revert\n    tag_173:\n      pop\n      tag_71\n      tag_175\n      calldatasize\n      0x04\n      tag_50\n      jump\t// in\n    tag_175:\n      tag_176\n      jump\t// in\n        /* \"token/DeAnt3Token.sol\":1899:1983  function getTaxFee() public view returns (uint256) {... */\n    tag_31:\n      callvalue\n      dup1\n      iszero\n      tag_177\n      jumpi\n      0x00\n      dup1\n      revert\n    tag_177:\n      pop\n        /* \"token/DeAnt3Token.sol\":1968:1975  _taxFee */\n      sload(0xcf)\n        /* \"token/DeAnt3Token.sol\":1899:1983  function getTaxFee() public view returns (uint256) {... */\n      jump(tag_61)\n        /* \"token/DeAnt3Token.sol\":645:691  mapping(uint256 => bool) public uniqueIdExists */\n    tag_32:\n      callvalue\n      dup1\n      iszero\n      tag_181\n      jumpi\n      0x00\n      dup1\n      revert\n    tag_181:\n      pop\n      tag_48\n      tag_183\n      calldatasize\n      0x04\n      tag_152\n      jump\t// in\n    tag_183:\n      mstore(0x20, 0xd3)\n      0x00\n      swap1\n      dup2\n      mstore\n      0x40\n      swap1\n      keccak256\n      sload\n      0xff\n      and\n      dup2\n      jump\n        /* \"@openzeppelin/contracts-upgradeable/token/ERC20/ERC20Upgradeable.sol\":2491:2589  function name() public view virtual override returns (string memory) {... */\n    tag_44:\n        /* \"@openzeppelin/contracts-upgradeable/token/ERC20/ERC20Upgradeable.sol\":2545:2558  string memory */\n      0x60\n        /* \"@openzeppelin/contracts-upgradeable/token/ERC20/ERC20Upgradeable.sol\":2577:2582  _name */\n      0x36\n        /* \"@openzeppelin/contracts-upgradeable/token/ERC20/ERC20Upgradeable.sol\":2570:2582  return _name */\n      dup1\n      sload\n      tag_187\n      swap1\n      tag_188\n      jump\t// in\n    tag_187:\n      dup1\n      0x1f\n      add\n      0x20\n      dup1\n      swap2\n      div\n      mul\n      0x20\n      add\n      mload(0x40)\n      swap1\n      dup2\n      add\n      0x40\n      mstore\n      dup1\n      swap3\n      swap2\n      swap1\n      dup2\n      dup2\n      mstore\n      0x20\n      add\n      dup3\n      dup1\n      sload\n      tag_189\n      swap1\n      tag_188\n      jump\t// in\n    tag_189:\n      dup1\n      iszero\n      tag_190\n      jumpi\n      dup1\n      0x1f\n      lt\n      tag_191\n      jumpi\n      0x0100\n      dup1\n      dup4\n      sload\n      div\n      mul\n      dup4\n      mstore\n      swap2\n      0x20\n      add\n      swap2\n      jump(tag_190)\n    tag_191:\n      dup3\n      add\n      swap2\n      swap1\n      0x00\n      mstore\n      keccak256(0x00, 0x20)\n      swap1\n    tag_192:\n      dup2\n      sload\n      dup2\n      mstore\n      swap1\n      0x01\n      add\n      swap1\n      0x20\n      add\n      dup1\n      dup4\n      gt\n      tag_192\n      jumpi\n      dup3\n      swap1\n      sub\n      0x1f\n      and\n      dup3\n      add\n      swap2\n    tag_190:\n      pop\n      pop\n      pop\n      pop\n      pop\n      swap1\n      pop\n        /* \"@openzeppelin/contracts-upgradeable/token/ERC20/ERC20Upgradeable.sol\":2491:2589  function name() public view virtual override returns (string memory) {... */\n      swap1\n      jump\t// out\n        /* \"@openzeppelin/contracts-upgradeable/token/ERC20/ERC20Upgradeable.sol\":4768:4965  function approve(address spender, uint256 amount) public virtual override returns (bool) {... */\n    tag_58:\n        /* \"@openzeppelin/contracts-upgradeable/token/ERC20/ERC20Upgradeable.sol\":4851:4855  bool */\n      0x00\n        /* \"@openzeppelin/contracts-upgradeable/utils/ContextUpgradeable.sol\":929:939  msg.sender */\n      caller\n        /* \"@openzeppelin/contracts-upgradeable/token/ERC20/ERC20Upgradeable.sol\":4905:4937  _approve(owner, spender, amount) */\n      tag_197\n        /* \"@openzeppelin/contracts-upgradeable/utils/ContextUpgradeable.sol\":929:939  msg.sender */\n      dup2\n        /* \"@openzeppelin/contracts-upgradeable/token/ERC20/ERC20Upgradeable.sol\":4921:4928  spender */\n      dup6\n        /* \"@openzeppelin/contracts-upgradeable/token/ERC20/ERC20Upgradeable.sol\":4930:4936  amount */\n      dup6\n        /* \"@openzeppelin/contracts-upgradeable/token/ERC20/ERC20Upgradeable.sol\":4905:4913  _approve */\n      tag_198\n        /* \"@openzeppelin/contracts-upgradeable/token/ERC20/ERC20Upgradeable.sol\":4905:4937  _approve(owner, spender, amount) */\n      jump\t// in\n    tag_197:\n        /* \"@openzeppelin/contracts-upgradeable/token/ERC20/ERC20Upgradeable.sol\":4954:4958  true */\n      0x01\n        /* \"@openzeppelin/contracts-upgradeable/token/ERC20/ERC20Upgradeable.sol\":4947:4958  return true */\n      swap2\n      pop\n      pop\n        /* \"@openzeppelin/contracts-upgradeable/token/ERC20/ERC20Upgradeable.sol\":4768:4965  function approve(address spender, uint256 amount) public virtual override returns (bool) {... */\n    tag_194:\n      swap3\n      swap2\n      pop\n      pop\n      jump\t// out\n        /* \"token/DeAnt3Token.sol\":4216:4372  function nodeControllerBurn(address account, uint256 amount)... */\n    tag_73:\n        /* \"token/DeAnt3Token.sol\":869:891  nodeControllerContract */\n      and(sub(shl(0xa0, 0x01), 0x01), sload(0xd5))\n        /* \"token/DeAnt3Token.sol\":855:865  msg.sender */\n      caller\n        /* \"token/DeAnt3Token.sol\":855:891  msg.sender == nodeControllerContract */\n      eq\n        /* \"token/DeAnt3Token.sol\":833:960  require(... */\n      tag_201\n      jumpi\n      mload(0x40)\n      shl(0xe5, 0x461bcd)\n      dup2\n      mstore\n        /* \"#utility.yul\":9866:9868   */\n      0x20\n        /* \"token/DeAnt3Token.sol\":833:960  require(... */\n      0x04\n      dup3\n      add\n        /* \"#utility.yul\":9848:9869   */\n      mstore\n        /* \"#utility.yul\":9905:9907   */\n      0x29\n        /* \"#utility.yul\":9885:9903   */\n      0x24\n      dup3\n      add\n        /* \"#utility.yul\":9878:9908   */\n      mstore\n        /* \"#utility.yul\":9944:9978   */\n      0x4f6e6c792063616c6c61626c652066726f6d206e6f6465436f6e74726f6c6c65\n        /* \"#utility.yul\":9924:9942   */\n      0x44\n      dup3\n      add\n        /* \"#utility.yul\":9917:9979   */\n      mstore\n      shl(0xba, 0x1c90dbdb9d1c9858dd)\n        /* \"#utility.yul\":9995:10013   */\n      0x64\n      dup3\n      add\n        /* \"#utility.yul\":9988:10027   */\n      mstore\n        /* \"#utility.yul\":10044:10063   */\n      0x84\n      add\n        /* \"token/DeAnt3Token.sol\":833:960  require(... */\n    tag_202:\n      mload(0x40)\n      dup1\n      swap2\n      sub\n      swap1\n      revert\n    tag_201:\n        /* \"token/DeAnt3Token.sol\":4333:4364  _burnAndUpdate(account, amount) */\n      tag_205\n        /* \"token/DeAnt3Token.sol\":4348:4355  account */\n      dup3\n        /* \"token/DeAnt3Token.sol\":4357:4363  amount */\n      dup3\n        /* \"token/DeAnt3Token.sol\":4333:4347  _burnAndUpdate */\n      tag_206\n        /* \"token/DeAnt3Token.sol\":4333:4364  _burnAndUpdate(account, amount) */\n      jump\t// in\n    tag_205:\n        /* \"token/DeAnt3Token.sol\":4216:4372  function nodeControllerBurn(address account, uint256 amount)... */\n      pop\n      pop\n      jump\t// out\n        /* \"token/DeAnt3Token.sol\":3287:3639  function transferFrom(... */\n    tag_78:\n        /* \"token/DeAnt3Token.sol\":3418:3422  bool */\n      0x00\n        /* \"token/DeAnt3Token.sol\":3435:3450  uint256 burnAmt */\n      dup1\n        /* \"token/DeAnt3Token.sol\":3453:3478  _calculateBurnAmt(amount) */\n      tag_208\n        /* \"token/DeAnt3Token.sol\":3471:3477  amount */\n      dup4\n        /* \"token/DeAnt3Token.sol\":3453:3470  _calculateBurnAmt */\n      tag_209\n        /* \"token/DeAnt3Token.sol\":3453:3478  _calculateBurnAmt(amount) */\n      jump\t// in\n    tag_208:\n        /* \"token/DeAnt3Token.sol\":3435:3478  uint256 burnAmt = _calculateBurnAmt(amount) */\n      swap1\n      pop\n        /* \"token/DeAnt3Token.sol\":3489:3518  _burnAndUpdate(from, burnAmt) */\n      tag_210\n        /* \"token/DeAnt3Token.sol\":3504:3508  from */\n      dup6\n        /* \"token/DeAnt3Token.sol\":3510:3517  burnAmt */\n      dup3\n        /* \"token/DeAnt3Token.sol\":3489:3503  _burnAndUpdate */\n      tag_206\n        /* \"token/DeAnt3Token.sol\":3489:3518  _burnAndUpdate(from, burnAmt) */\n      jump\t// in\n    tag_210:\n        /* \"token/DeAnt3Token.sol\":3529:3543  uint256 newAmt */\n      0x00\n        /* \"token/DeAnt3Token.sol\":3546:3562  amount - burnAmt */\n      tag_211\n        /* \"token/DeAnt3Token.sol\":3555:3562  burnAmt */\n      dup3\n        /* \"token/DeAnt3Token.sol\":3546:3552  amount */\n      dup6\n        /* \"token/DeAnt3Token.sol\":3546:3562  amount - burnAmt */\n      tag_212\n      jump\t// in\n    tag_211:\n        /* \"token/DeAnt3Token.sol\":3529:3562  uint256 newAmt = amount - burnAmt */\n      swap1\n      pop\n        /* \"token/DeAnt3Token.sol\":3573:3609  super.transferFrom(from, to, newAmt) */\n      tag_213\n        /* \"token/DeAnt3Token.sol\":3592:3596  from */\n      dup7\n        /* \"token/DeAnt3Token.sol\":3598:3600  to */\n      dup7\n        /* \"token/DeAnt3Token.sol\":3602:3608  newAmt */\n      dup4\n        /* \"token/DeAnt3Token.sol\":3573:3591  super.transferFrom */\n      tag_214\n        /* \"token/DeAnt3Token.sol\":3573:3609  super.transferFrom(from, to, newAmt) */\n      jump\t// in\n    tag_213:\n      pop\n        /* \"token/DeAnt3Token.sol\":3627:3631  true */\n      0x01\n      swap7\n        /* \"token/DeAnt3Token.sol\":3287:3639  function transferFrom(... */\n      swap6\n      pop\n      pop\n      pop\n      pop\n      pop\n      pop\n      jump\t// out\n        /* \"token/DeAnt3Token.sol\":988:1538  function initialize(... */\n    tag_84:\n        /* \"@openzeppelin/contracts-upgradeable/proxy/utils/Initializable.sol\":3268:3287  bool isTopLevelCall */\n      0x00\n        /* \"@openzeppelin/contracts-upgradeable/proxy/utils/Initializable.sol\":3291:3304  _initializing */\n      sload\n      0x0100\n      swap1\n      div\n      0xff\n      and\n        /* \"@openzeppelin/contracts-upgradeable/proxy/utils/Initializable.sol\":3290:3304  !_initializing */\n      iszero\n      dup1\n        /* \"@openzeppelin/contracts-upgradeable/proxy/utils/Initializable.sol\":3336:3370  isTopLevelCall && _initialized < 1 */\n      dup1\n      iszero\n      tag_216\n      jumpi\n      pop\n        /* \"@openzeppelin/contracts-upgradeable/proxy/utils/Initializable.sol\":3354:3366  _initialized */\n      sload(0x00)\n        /* \"@openzeppelin/contracts-upgradeable/proxy/utils/Initializable.sol\":3369:3370  1 */\n      0x01\n        /* \"@openzeppelin/contracts-upgradeable/proxy/utils/Initializable.sol\":3354:3366  _initialized */\n      0xff\n      swap1\n      swap2\n      and\n        /* \"@openzeppelin/contracts-upgradeable/proxy/utils/Initializable.sol\":3354:3370  _initialized < 1 */\n      lt\n        /* \"@openzeppelin/contracts-upgradeable/proxy/utils/Initializable.sol\":3336:3370  isTopLevelCall && _initialized < 1 */\n    tag_216:\n        /* \"@openzeppelin/contracts-upgradeable/proxy/utils/Initializable.sol\":3335:3443  (isTopLevelCall && _initialized < 1) || (!AddressUpgradeable.isContract(address(this)) && _initialized == 1) */\n      dup1\n      tag_220\n      jumpi\n      pop\n        /* \"@openzeppelin/contracts-upgradeable/proxy/utils/Initializable.sol\":3415:3419  this */\n      address\n        /* \"@openzeppelin/contracts-upgradeable/utils/AddressUpgradeable.sol\":1476:1495  account.code.length */\n      extcodesize\n        /* \"@openzeppelin/contracts-upgradeable/utils/AddressUpgradeable.sol\":1476:1499  account.code.length > 0 */\n      iszero\n      dup1\n      iszero\n        /* \"@openzeppelin/contracts-upgradeable/proxy/utils/Initializable.sol\":3376:3442  !AddressUpgradeable.isContract(address(this)) && _initialized == 1 */\n      tag_220\n      jumpi\n      pop\n        /* \"@openzeppelin/contracts-upgradeable/proxy/utils/Initializable.sol\":3425:3437  _initialized */\n      and(0xff, sload(0x00))\n      0x01\n        /* \"@openzeppelin/contracts-upgradeable/proxy/utils/Initializable.sol\":3425:3442  _initialized == 1 */\n      eq\n        /* \"@openzeppelin/contracts-upgradeable/proxy/utils/Initializable.sol\":3376:3442  !AddressUpgradeable.isContract(address(this)) && _initialized == 1 */\n    tag_220:\n        /* \"@openzeppelin/contracts-upgradeable/proxy/utils/Initializable.sol\":3314:3515  require(... */\n      tag_221\n      jumpi\n      mload(0x40)\n      shl(0xe5, 0x461bcd)\n      dup2\n      mstore\n        /* \"#utility.yul\":10538:10540   */\n      0x20\n        /* \"@openzeppelin/contracts-upgradeable/proxy/utils/Initializable.sol\":3314:3515  require(... */\n      0x04\n      dup3\n      add\n        /* \"#utility.yul\":10520:10541   */\n      mstore\n        /* \"#utility.yul\":10577:10579   */\n      0x2e\n        /* \"#utility.yul\":10557:10575   */\n      0x24\n      dup3\n      add\n        /* \"#utility.yul\":10550:10580   */\n      mstore\n        /* \"#utility.yul\":10616:10650   */\n      0x496e697469616c697a61626c653a20636f6e747261637420697320616c726561\n        /* \"#utility.yul\":10596:10614   */\n      0x44\n      dup3\n      add\n        /* \"#utility.yul\":10589:10651   */\n      mstore\n      shl(0x92, 0x191e481a5b9a5d1a585b1a5e9959)\n        /* \"#utility.yul\":10667:10685   */\n      0x64\n      dup3\n      add\n        /* \"#utility.yul\":10660:10704   */\n      mstore\n        /* \"#utility.yul\":10721:10740   */\n      0x84\n      add\n        /* \"@openzeppelin/contracts-upgradeable/proxy/utils/Initializable.sol\":3314:3515  require(... */\n      tag_202\n        /* \"#utility.yul\":10336:10746   */\n      jump\n        /* \"@openzeppelin/contracts-upgradeable/proxy/utils/Initializable.sol\":3314:3515  require(... */\n    tag_221:\n        /* \"@openzeppelin/contracts-upgradeable/proxy/utils/Initializable.sol\":3525:3537  _initialized */\n      0x00\n        /* \"@openzeppelin/contracts-upgradeable/proxy/utils/Initializable.sol\":3525:3541  _initialized = 1 */\n      dup1\n      sload\n      not(0xff)\n      and\n        /* \"@openzeppelin/contracts-upgradeable/proxy/utils/Initializable.sol\":3540:3541  1 */\n      0x01\n        /* \"@openzeppelin/contracts-upgradeable/proxy/utils/Initializable.sol\":3525:3541  _initialized = 1 */\n      or\n      swap1\n      sstore\n        /* \"@openzeppelin/contracts-upgradeable/proxy/utils/Initializable.sol\":3551:3616  if (isTopLevelCall) {... */\n      dup1\n      iszero\n      tag_224\n      jumpi\n        /* \"@openzeppelin/contracts-upgradeable/proxy/utils/Initializable.sol\":3585:3598  _initializing */\n      0x00\n        /* \"@openzeppelin/contracts-upgradeable/proxy/utils/Initializable.sol\":3585:3605  _initializing = true */\n      dup1\n      sload\n      not(0xff00)\n      and\n      0x0100\n      or\n      swap1\n      sstore\n        /* \"@openzeppelin/contracts-upgradeable/proxy/utils/Initializable.sol\":3551:3616  if (isTopLevelCall) {... */\n    tag_224:\n        /* \"token/DeAnt3Token.sol\":1213:1229  __Ownable_init() */\n      tag_226\n        /* \"token/DeAnt3Token.sol\":1213:1227  __Ownable_init */\n      tag_227\n        /* \"token/DeAnt3Token.sol\":1213:1229  __Ownable_init() */\n      jump\t// in\n    tag_226:\n        /* \"token/DeAnt3Token.sol\":1240:1268  __ERC20_init(_NAME, _SYMBOL) */\n      tag_228\n        /* \"token/DeAnt3Token.sol\":1253:1258  _NAME */\n      dup8\n        /* \"token/DeAnt3Token.sol\":1260:1267  _SYMBOL */\n      dup8\n        /* \"token/DeAnt3Token.sol\":1240:1252  __ERC20_init */\n      tag_229\n        /* \"token/DeAnt3Token.sol\":1240:1268  __ERC20_init(_NAME, _SYMBOL) */\n      jump\t// in\n    tag_228:\n        /* \"token/DeAnt3Token.sol\":1279:1318  __ERC20Capped_init(cap * 10**_DECIMALS) */\n      tag_230\n        /* \"token/DeAnt3Token.sol\":1304:1317  10**_DECIMALS */\n      tag_231\n        /* \"token/DeAnt3Token.sol\":1308:1317  _DECIMALS */\n      dup7\n        /* \"token/DeAnt3Token.sol\":1304:1306  10 */\n      0x0a\n        /* \"token/DeAnt3Token.sol\":1304:1317  10**_DECIMALS */\n      tag_232\n      jump\t// in\n    tag_231:\n        /* \"token/DeAnt3Token.sol\":1298:1317  cap * 10**_DECIMALS */\n      tag_233\n      swap1\n        /* \"token/DeAnt3Token.sol\":1298:1301  cap */\n      dup7\n        /* \"token/DeAnt3Token.sol\":1298:1317  cap * 10**_DECIMALS */\n      tag_234\n      jump\t// in\n    tag_233:\n        /* \"token/DeAnt3Token.sol\":1279:1297  __ERC20Capped_init */\n      tag_235\n        /* \"token/DeAnt3Token.sol\":1279:1318  __ERC20Capped_init(cap * 10**_DECIMALS) */\n      jump\t// in\n    tag_230:\n        /* \"token/DeAnt3Token.sol\":1329:1342  _name = _NAME */\n      dup7\n      mload\n      tag_236\n      swap1\n        /* \"token/DeAnt3Token.sol\":1329:1334  _name */\n      0xca\n      swap1\n        /* \"token/DeAnt3Token.sol\":1329:1342  _name = _NAME */\n      0x20\n      dup11\n      add\n      swap1\n      tag_237\n      jump\t// in\n    tag_236:\n      pop\n        /* \"token/DeAnt3Token.sol\":1353:1370  _symbol = _SYMBOL */\n      dup6\n      mload\n      tag_238\n      swap1\n        /* \"token/DeAnt3Token.sol\":1353:1360  _symbol */\n      0xcb\n      swap1\n        /* \"token/DeAnt3Token.sol\":1353:1370  _symbol = _SYMBOL */\n      0x20\n      dup10\n      add\n      swap1\n      tag_237\n      jump\t// in\n    tag_238:\n      pop\n        /* \"token/DeAnt3Token.sol\":1381:1390  _decimals */\n      0xcc\n        /* \"token/DeAnt3Token.sol\":1381:1402  _decimals = _DECIMALS */\n      dup1\n      sload\n      not(0xff)\n      and\n      0xff\n      dup8\n      and\n      or\n      swap1\n      sstore\n        /* \"token/DeAnt3Token.sol\":1426:1435  0.1 ether */\n      0x016345785d8a0000\n        /* \"token/DeAnt3Token.sol\":1413:1423  _rewardAmt */\n      0xcd\n        /* \"token/DeAnt3Token.sol\":1413:1435  _rewardAmt = 0.1 ether */\n      sstore\n        /* \"token/DeAnt3Token.sol\":1446:1450  _cap */\n      0xce\n        /* \"token/DeAnt3Token.sol\":1446:1456  _cap = cap */\n      dup5\n      swap1\n      sstore\n        /* \"token/DeAnt3Token.sol\":1467:1474  _taxFee */\n      0xcf\n        /* \"token/DeAnt3Token.sol\":1467:1483  _taxFee = taxFee */\n      dup3\n      swap1\n      sstore\n        /* \"token/DeAnt3Token.sol\":1494:1530  _mint(address(this), initialBalance) */\n      tag_239\n        /* \"token/DeAnt3Token.sol\":1508:1512  this */\n      address\n        /* \"token/DeAnt3Token.sol\":1515:1529  initialBalance */\n      dup5\n        /* \"token/DeAnt3Token.sol\":1494:1499  _mint */\n      tag_240\n        /* \"token/DeAnt3Token.sol\":1494:1530  _mint(address(this), initialBalance) */\n      jump\t// in\n    tag_239:\n        /* \"@openzeppelin/contracts-upgradeable/proxy/utils/Initializable.sol\":3640:3654  isTopLevelCall */\n      dup1\n        /* \"@openzeppelin/contracts-upgradeable/proxy/utils/Initializable.sol\":3636:3735  if (isTopLevelCall) {... */\n      iszero\n      tag_241\n      jumpi\n        /* \"@openzeppelin/contracts-upgradeable/proxy/utils/Initializable.sol\":3686:3691  false */\n      0x00\n        /* \"@openzeppelin/contracts-upgradeable/proxy/utils/Initializable.sol\":3670:3691  _initializing = false */\n      dup1\n      sload\n      not(0xff00)\n      and\n      swap1\n      sstore\n        /* \"@openzeppelin/contracts-upgradeable/proxy/utils/Initializable.sol\":3710:3724  Initialized(1) */\n      mload(0x40)\n      0x01\n        /* \"#utility.yul\":4235:4271   */\n      dup2\n      mstore\n        /* \"@openzeppelin/contracts-upgradeable/proxy/utils/Initializable.sol\":3710:3724  Initialized(1) */\n      0x7f26b83ff96e1f2b6a682f133852f6798a09c465da95921460cefb3847402498\n      swap1\n        /* \"#utility.yul\":4223:4225   */\n      0x20\n        /* \"#utility.yul\":4208:4226   */\n      add\n        /* \"@openzeppelin/contracts-upgradeable/proxy/utils/Initializable.sol\":3710:3724  Initialized(1) */\n      mload(0x40)\n      dup1\n      swap2\n      sub\n      swap1\n      log1\n        /* \"@openzeppelin/contracts-upgradeable/proxy/utils/Initializable.sol\":3636:3735  if (isTopLevelCall) {... */\n    tag_241:\n        /* \"@openzeppelin/contracts-upgradeable/proxy/utils/Initializable.sol\":3258:3741  {... */\n      pop\n        /* \"token/DeAnt3Token.sol\":988:1538  function initialize(... */\n      pop\n      pop\n      pop\n      pop\n      pop\n      pop\n      jump\t// out\n        /* \"@openzeppelin/contracts-upgradeable/token/ERC20/ERC20Upgradeable.sol\":6208:6442  function increaseAllowance(address spender, uint256 addedValue) public virtual returns (bool) {... */\n    tag_97:\n        /* \"@openzeppelin/contracts-upgradeable/token/ERC20/ERC20Upgradeable.sol\":6296:6300  bool */\n      0x00\n        /* \"@openzeppelin/contracts-upgradeable/utils/ContextUpgradeable.sol\":929:939  msg.sender */\n      caller\n        /* \"@openzeppelin/contracts-upgradeable/token/ERC20/ERC20Upgradeable.sol\":6350:6414  _approve(owner, spender, allowance(owner, spender) + addedValue) */\n      tag_197\n        /* \"@openzeppelin/contracts-upgradeable/utils/ContextUpgradeable.sol\":929:939  msg.sender */\n      dup2\n        /* \"@openzeppelin/contracts-upgradeable/token/ERC20/ERC20Upgradeable.sol\":6366:6373  spender */\n      dup6\n        /* \"@openzeppelin/contracts-upgradeable/token/ERC20/ERC20Upgradeable.sol\":6403:6413  addedValue */\n      dup6\n        /* \"@openzeppelin/contracts-upgradeable/token/ERC20/ERC20Upgradeable.sol\":6375:6400  allowance(owner, spender) */\n      tag_249\n        /* \"@openzeppelin/contracts-upgradeable/utils/ContextUpgradeable.sol\":929:939  msg.sender */\n      dup4\n        /* \"@openzeppelin/contracts-upgradeable/token/ERC20/ERC20Upgradeable.sol\":6366:6373  spender */\n      dup4\n        /* \"@openzeppelin/contracts-upgradeable/token/ERC20/ERC20Upgradeable.sol\":6375:6384  allowance */\n      tag_166\n        /* \"@openzeppelin/contracts-upgradeable/token/ERC20/ERC20Upgradeable.sol\":6375:6400  allowance(owner, spender) */\n      jump\t// in\n    tag_249:\n        /* \"@openzeppelin/contracts-upgradeable/token/ERC20/ERC20Upgradeable.sol\":6375:6413  allowance(owner, spender) + addedValue */\n      tag_250\n      swap2\n      swap1\n      tag_251\n      jump\t// in\n    tag_250:\n        /* \"@openzeppelin/contracts-upgradeable/token/ERC20/ERC20Upgradeable.sol\":6350:6358  _approve */\n      tag_198\n        /* \"@openzeppelin/contracts-upgradeable/token/ERC20/ERC20Upgradeable.sol\":6350:6414  _approve(owner, spender, allowance(owner, spender) + addedValue) */\n      jump\t// in\n        /* \"token/DeAnt3Token.sol\":4045:4208  function setNodeControllerContract(address _contractAddress)... */\n    tag_107:\n        /* \"@openzeppelin/contracts-upgradeable/access/OwnableUpgradeable.sol\":1334:1347  _checkOwner() */\n      tag_253\n        /* \"@openzeppelin/contracts-upgradeable/access/OwnableUpgradeable.sol\":1334:1345  _checkOwner */\n      tag_254\n        /* \"@openzeppelin/contracts-upgradeable/access/OwnableUpgradeable.sol\":1334:1347  _checkOwner() */\n      jump\t// in\n    tag_253:\n        /* \"token/DeAnt3Token.sol\":4159:4181  nodeControllerContract */\n      0xd5\n        /* \"token/DeAnt3Token.sol\":4159:4200  nodeControllerContract = _contractAddress */\n      dup1\n      sload\n      not(sub(shl(0xa0, 0x01), 0x01))\n      and\n      sub(shl(0xa0, 0x01), 0x01)\n      swap3\n      swap1\n      swap3\n      and\n      swap2\n      swap1\n      swap2\n      or\n      swap1\n      sstore\n        /* \"token/DeAnt3Token.sol\":4045:4208  function setNodeControllerContract(address _contractAddress)... */\n      jump\t// out\n        /* \"@openzeppelin/contracts-upgradeable/access/OwnableUpgradeable.sol\":2071:2172  function renounceOwnership() public virtual onlyOwner {... */\n    tag_115:\n        /* \"@openzeppelin/contracts-upgradeable/access/OwnableUpgradeable.sol\":1334:1347  _checkOwner() */\n      tag_258\n        /* \"@openzeppelin/contracts-upgradeable/access/OwnableUpgradeable.sol\":1334:1345  _checkOwner */\n      tag_254\n        /* \"@openzeppelin/contracts-upgradeable/access/OwnableUpgradeable.sol\":1334:1347  _checkOwner() */\n      jump\t// in\n    tag_258:\n        /* \"@openzeppelin/contracts-upgradeable/access/OwnableUpgradeable.sol\":2135:2165  _transferOwnership(address(0)) */\n      tag_260\n        /* \"@openzeppelin/contracts-upgradeable/access/OwnableUpgradeable.sol\":2162:2163  0 */\n      0x00\n        /* \"@openzeppelin/contracts-upgradeable/access/OwnableUpgradeable.sol\":2135:2153  _transferOwnership */\n      tag_261\n        /* \"@openzeppelin/contracts-upgradeable/access/OwnableUpgradeable.sol\":2135:2165  _transferOwnership(address(0)) */\n      jump\t// in\n    tag_260:\n        /* \"@openzeppelin/contracts-upgradeable/access/OwnableUpgradeable.sol\":2071:2172  function renounceOwnership() public virtual onlyOwner {... */\n      jump\t// out\n        /* \"token/DeAnt3Token.sol\":2096:2193  function getSigners() external view returns (address[] memory) {... */\n    tag_123:\n        /* \"token/DeAnt3Token.sol\":2141:2157  address[] memory */\n      0x60\n        /* \"token/DeAnt3Token.sol\":2177:2185  _signers */\n      0xd1\n        /* \"token/DeAnt3Token.sol\":2170:2185  return _signers */\n      dup1\n      sload\n      dup1\n      0x20\n      mul\n      0x20\n      add\n      mload(0x40)\n      swap1\n      dup2\n      add\n      0x40\n      mstore\n      dup1\n      swap3\n      swap2\n      swap1\n      dup2\n      dup2\n      mstore\n      0x20\n      add\n      dup3\n      dup1\n      sload\n      dup1\n      iszero\n      tag_190\n      jumpi\n      0x20\n      mul\n      dup3\n      add\n      swap2\n      swap1\n      0x00\n      mstore\n      keccak256(0x00, 0x20)\n      swap1\n    tag_265:\n      dup2\n      sload\n      sub(shl(0xa0, 0x01), 0x01)\n      and\n      dup2\n      mstore\n      0x01\n      swap1\n      swap2\n      add\n      swap1\n      0x20\n      add\n      dup1\n      dup4\n      gt\n      tag_265\n      jumpi\n      pop\n      pop\n      pop\n      pop\n      pop\n      swap1\n      pop\n        /* \"token/DeAnt3Token.sol\":2096:2193  function getSigners() external view returns (address[] memory) {... */\n      swap1\n      jump\t// out\n        /* \"@openzeppelin/contracts-upgradeable/token/ERC20/ERC20Upgradeable.sol\":2702:2804  function symbol() public view virtual override returns (string memory) {... */\n    tag_128:\n        /* \"@openzeppelin/contracts-upgradeable/token/ERC20/ERC20Upgradeable.sol\":2758:2771  string memory */\n      0x60\n        /* \"@openzeppelin/contracts-upgradeable/token/ERC20/ERC20Upgradeable.sol\":2790:2797  _symbol */\n      0x37\n        /* \"@openzeppelin/contracts-upgradeable/token/ERC20/ERC20Upgradeable.sol\":2783:2797  return _symbol */\n      dup1\n      sload\n      tag_187\n      swap1\n      tag_188\n      jump\t// in\n        /* \"token/DeAnt3Token.sol\":2201:2440  function setSigners(address[] memory signers_) external virtual onlyOwner {... */\n    tag_134:\n        /* \"@openzeppelin/contracts-upgradeable/access/OwnableUpgradeable.sol\":1334:1347  _checkOwner() */\n      tag_273\n        /* \"@openzeppelin/contracts-upgradeable/access/OwnableUpgradeable.sol\":1334:1345  _checkOwner */\n      tag_254\n        /* \"@openzeppelin/contracts-upgradeable/access/OwnableUpgradeable.sol\":1334:1347  _checkOwner() */\n      jump\t// in\n    tag_273:\n        /* \"token/DeAnt3Token.sol\":2286:2326  _updateMap(_signers, false, _mapSigners) */\n      tag_275\n        /* \"token/DeAnt3Token.sol\":2297:2305  _signers */\n      0xd1\n        /* \"token/DeAnt3Token.sol\":2286:2326  _updateMap(_signers, false, _mapSigners) */\n      dup1\n      sload\n      dup1\n      0x20\n      mul\n      0x20\n      add\n      mload(0x40)\n      swap1\n      dup2\n      add\n      0x40\n      mstore\n      dup1\n      swap3\n      swap2\n      swap1\n      dup2\n      dup2\n      mstore\n      0x20\n      add\n      dup3\n      dup1\n      sload\n      dup1\n      iszero\n      tag_276\n      jumpi\n      0x20\n      mul\n      dup3\n      add\n      swap2\n      swap1\n      0x00\n      mstore\n      keccak256(0x00, 0x20)\n      swap1\n    tag_277:\n      dup2\n      sload\n      sub(shl(0xa0, 0x01), 0x01)\n      and\n      dup2\n      mstore\n      0x01\n      swap1\n      swap2\n      add\n      swap1\n      0x20\n      add\n      dup1\n      dup4\n      gt\n      tag_277\n      jumpi\n    tag_276:\n      pop\n      pop\n      pop\n      pop\n      pop\n        /* \"token/DeAnt3Token.sol\":2307:2312  false */\n      0x00\n        /* \"token/DeAnt3Token.sol\":2314:2325  _mapSigners */\n      0xd2\n        /* \"token/DeAnt3Token.sol\":2286:2296  _updateMap */\n      tag_278\n        /* \"token/DeAnt3Token.sol\":2286:2326  _updateMap(_signers, false, _mapSigners) */\n      jump\t// in\n    tag_275:\n        /* \"token/DeAnt3Token.sol\":2337:2352  delete _signers */\n      tag_279\n        /* \"token/DeAnt3Token.sol\":2344:2352  _signers */\n      0xd1\n      0x00\n        /* \"token/DeAnt3Token.sol\":2337:2352  delete _signers */\n      tag_280\n      jump\t// in\n    tag_279:\n        /* \"token/DeAnt3Token.sol\":2363:2382  _signers = signers_ */\n      dup1\n      mload\n      tag_281\n      swap1\n        /* \"token/DeAnt3Token.sol\":2363:2371  _signers */\n      0xd1\n      swap1\n        /* \"token/DeAnt3Token.sol\":2363:2382  _signers = signers_ */\n      0x20\n      dup5\n      add\n      swap1\n      tag_282\n      jump\t// in\n    tag_281:\n      pop\n        /* \"token/DeAnt3Token.sol\":2393:2432  _updateMap(signers_, true, _mapSigners) */\n      tag_283\n        /* \"token/DeAnt3Token.sol\":2404:2412  signers_ */\n      dup2\n        /* \"token/DeAnt3Token.sol\":2414:2418  true */\n      0x01\n        /* \"token/DeAnt3Token.sol\":2420:2431  _mapSigners */\n      0xd2\n        /* \"token/DeAnt3Token.sol\":2393:2403  _updateMap */\n      tag_278\n        /* \"token/DeAnt3Token.sol\":2393:2432  _updateMap(signers_, true, _mapSigners) */\n      jump\t// in\n    tag_283:\n        /* \"token/DeAnt3Token.sol\":2201:2440  function setSigners(address[] memory signers_) external virtual onlyOwner {... */\n      pop\n      jump\t// out\n        /* \"@openzeppelin/contracts-upgradeable/token/ERC20/ERC20Upgradeable.sol\":6929:7356  function decreaseAllowance(address spender, uint256 subtractedValue) public virtual returns (bool) {... */\n    tag_138:\n        /* \"@openzeppelin/contracts-upgradeable/token/ERC20/ERC20Upgradeable.sol\":7022:7026  bool */\n      0x00\n        /* \"@openzeppelin/contracts-upgradeable/utils/ContextUpgradeable.sol\":929:939  msg.sender */\n      caller\n        /* \"@openzeppelin/contracts-upgradeable/token/ERC20/ERC20Upgradeable.sol\":7022:7026  bool */\n      dup2\n        /* \"@openzeppelin/contracts-upgradeable/token/ERC20/ERC20Upgradeable.sol\":7103:7128  allowance(owner, spender) */\n      tag_286\n        /* \"@openzeppelin/contracts-upgradeable/utils/ContextUpgradeable.sol\":929:939  msg.sender */\n      dup3\n        /* \"@openzeppelin/contracts-upgradeable/token/ERC20/ERC20Upgradeable.sol\":7120:7127  spender */\n      dup7\n        /* \"@openzeppelin/contracts-upgradeable/token/ERC20/ERC20Upgradeable.sol\":7103:7112  allowance */\n      tag_166\n        /* \"@openzeppelin/contracts-upgradeable/token/ERC20/ERC20Upgradeable.sol\":7103:7128  allowance(owner, spender) */\n      jump\t// in\n    tag_286:\n        /* \"@openzeppelin/contracts-upgradeable/token/ERC20/ERC20Upgradeable.sol\":7076:7128  uint256 currentAllowance = allowance(owner, spender) */\n      swap1\n      pop\n        /* \"@openzeppelin/contracts-upgradeable/token/ERC20/ERC20Upgradeable.sol\":7166:7181  subtractedValue */\n      dup4\n        /* \"@openzeppelin/contracts-upgradeable/token/ERC20/ERC20Upgradeable.sol\":7146:7162  currentAllowance */\n      dup2\n        /* \"@openzeppelin/contracts-upgradeable/token/ERC20/ERC20Upgradeable.sol\":7146:7181  currentAllowance >= subtractedValue */\n      lt\n      iszero\n        /* \"@openzeppelin/contracts-upgradeable/token/ERC20/ERC20Upgradeable.sol\":7138:7223  require(currentAllowance >= subtractedValue, \"ERC20: decreased allowance below zero\") */\n      tag_287\n      jumpi\n      mload(0x40)\n      shl(0xe5, 0x461bcd)\n      dup2\n      mstore\n        /* \"#utility.yul\":12841:12843   */\n      0x20\n        /* \"@openzeppelin/contracts-upgradeable/token/ERC20/ERC20Upgradeable.sol\":7138:7223  require(currentAllowance >= subtractedValue, \"ERC20: decreased allowance below zero\") */\n      0x04\n      dup3\n      add\n        /* \"#utility.yul\":12823:12844   */\n      mstore\n        /* \"#utility.yul\":12880:12882   */\n      0x25\n        /* \"#utility.yul\":12860:12878   */\n      0x24\n      dup3\n      add\n        /* \"#utility.yul\":12853:12883   */\n      mstore\n        /* \"#utility.yul\":12919:12953   */\n      0x45524332303a2064656372656173656420616c6c6f77616e63652062656c6f77\n        /* \"#utility.yul\":12899:12917   */\n      0x44\n      dup3\n      add\n        /* \"#utility.yul\":12892:12954   */\n      mstore\n      shl(0xd8, 0x207a65726f)\n        /* \"#utility.yul\":12970:12988   */\n      0x64\n      dup3\n      add\n        /* \"#utility.yul\":12963:12998   */\n      mstore\n        /* \"#utility.yul\":13015:13034   */\n      0x84\n      add\n        /* \"@openzeppelin/contracts-upgradeable/token/ERC20/ERC20Upgradeable.sol\":7138:7223  require(currentAllowance >= subtractedValue, \"ERC20: decreased allowance below zero\") */\n      tag_202\n        /* \"#utility.yul\":12639:13040   */\n      jump\n        /* \"@openzeppelin/contracts-upgradeable/token/ERC20/ERC20Upgradeable.sol\":7138:7223  require(currentAllowance >= subtractedValue, \"ERC20: decreased allowance below zero\") */\n    tag_287:\n        /* \"@openzeppelin/contracts-upgradeable/token/ERC20/ERC20Upgradeable.sol\":7257:7317  _approve(owner, spender, currentAllowance - subtractedValue) */\n      tag_290\n        /* \"@openzeppelin/contracts-upgradeable/token/ERC20/ERC20Upgradeable.sol\":7266:7271  owner */\n      dup3\n        /* \"@openzeppelin/contracts-upgradeable/token/ERC20/ERC20Upgradeable.sol\":7273:7280  spender */\n      dup7\n        /* \"@openzeppelin/contracts-upgradeable/token/ERC20/ERC20Upgradeable.sol\":7301:7316  subtractedValue */\n      dup7\n        /* \"@openzeppelin/contracts-upgradeable/token/ERC20/ERC20Upgradeable.sol\":7282:7298  currentAllowance */\n      dup5\n        /* \"@openzeppelin/contracts-upgradeable/token/ERC20/ERC20Upgradeable.sol\":7282:7316  currentAllowance - subtractedValue */\n      sub\n        /* \"@openzeppelin/contracts-upgradeable/token/ERC20/ERC20Upgradeable.sol\":7257:7265  _approve */\n      tag_198\n        /* \"@openzeppelin/contracts-upgradeable/token/ERC20/ERC20Upgradeable.sol\":7257:7317  _approve(owner, spender, currentAllowance - subtractedValue) */\n      jump\t// in\n    tag_290:\n      pop\n        /* \"@openzeppelin/contracts-upgradeable/token/ERC20/ERC20Upgradeable.sol\":7345:7349  true */\n      0x01\n      swap5\n        /* \"@openzeppelin/contracts-upgradeable/token/ERC20/ERC20Upgradeable.sol\":6929:7356  function decreaseAllowance(address spender, uint256 subtractedValue) public virtual returns (bool) {... */\n      swap4\n      pop\n      pop\n      pop\n      pop\n      jump\t// out\n        /* \"token/DeAnt3Token.sol\":2814:3279  function transfer(address recipient, uint256 amount)... */\n    tag_143:\n        /* \"token/DeAnt3Token.sol\":2919:2923  bool */\n      0x00\n        /* \"token/DeAnt3Token.sol\":2959:2966  owner() */\n      tag_292\n        /* \"@openzeppelin/contracts-upgradeable/access/OwnableUpgradeable.sol\":1513:1519  _owner */\n      and(sub(shl(0xa0, 0x01), 0x01), sload(0x98))\n      swap1\n        /* \"@openzeppelin/contracts-upgradeable/access/OwnableUpgradeable.sol\":1441:1526  function owner() public view virtual returns (address) {... */\n      jump\n        /* \"token/DeAnt3Token.sol\":2959:2966  owner() */\n    tag_292:\n      sub(shl(0xa0, 0x01), 0x01)\n        /* \"token/DeAnt3Token.sol\":2945:2966  msg.sender == owner() */\n      and\n        /* \"token/DeAnt3Token.sol\":2945:2955  msg.sender */\n      caller\n      sub(shl(0xa0, 0x01), 0x01)\n        /* \"token/DeAnt3Token.sol\":2945:2966  msg.sender == owner() */\n      and\n      eq\n        /* \"token/DeAnt3Token.sol\":2941:3250  if (msg.sender == owner()) {... */\n      iszero\n      tag_293\n      jumpi\n        /* \"token/DeAnt3Token.sol\":2983:3016  super.transfer(recipient, amount) */\n      tag_294\n        /* \"token/DeAnt3Token.sol\":2998:3007  recipient */\n      dup4\n        /* \"token/DeAnt3Token.sol\":3009:3015  amount */\n      dup4\n        /* \"token/DeAnt3Token.sol\":2983:2997  super.transfer */\n      tag_295\n        /* \"token/DeAnt3Token.sol\":2983:3016  super.transfer(recipient, amount) */\n      jump\t// in\n    tag_294:\n      pop\n        /* \"token/DeAnt3Token.sol\":2941:3250  if (msg.sender == owner()) {... */\n      jump(tag_296)\n    tag_293:\n        /* \"token/DeAnt3Token.sol\":3049:3064  uint256 burnAmt */\n      0x00\n        /* \"token/DeAnt3Token.sol\":3067:3092  _calculateBurnAmt(amount) */\n      tag_297\n        /* \"token/DeAnt3Token.sol\":3085:3091  amount */\n      dup4\n        /* \"token/DeAnt3Token.sol\":3067:3084  _calculateBurnAmt */\n      tag_209\n        /* \"token/DeAnt3Token.sol\":3067:3092  _calculateBurnAmt(amount) */\n      jump\t// in\n    tag_297:\n        /* \"token/DeAnt3Token.sol\":3049:3092  uint256 burnAmt = _calculateBurnAmt(amount) */\n      swap1\n      pop\n        /* \"token/DeAnt3Token.sol\":3107:3142  _burnAndUpdate(msg.sender, burnAmt) */\n      tag_298\n        /* \"token/DeAnt3Token.sol\":3122:3132  msg.sender */\n      caller\n        /* \"token/DeAnt3Token.sol\":3134:3141  burnAmt */\n      dup3\n        /* \"token/DeAnt3Token.sol\":3107:3121  _burnAndUpdate */\n      tag_206\n        /* \"token/DeAnt3Token.sol\":3107:3142  _burnAndUpdate(msg.sender, burnAmt) */\n      jump\t// in\n    tag_298:\n        /* \"token/DeAnt3Token.sol\":3157:3171  uint256 newAmt */\n      0x00\n        /* \"token/DeAnt3Token.sol\":3174:3190  amount - burnAmt */\n      tag_299\n        /* \"token/DeAnt3Token.sol\":3183:3190  burnAmt */\n      dup3\n        /* \"token/DeAnt3Token.sol\":3174:3180  amount */\n      dup6\n        /* \"token/DeAnt3Token.sol\":3174:3190  amount - burnAmt */\n      tag_212\n      jump\t// in\n    tag_299:\n        /* \"token/DeAnt3Token.sol\":3157:3190  uint256 newAmt = amount - burnAmt */\n      swap1\n      pop\n        /* \"token/DeAnt3Token.sol\":3205:3238  super.transfer(recipient, newAmt) */\n      tag_300\n        /* \"token/DeAnt3Token.sol\":3220:3229  recipient */\n      dup6\n        /* \"token/DeAnt3Token.sol\":3231:3237  newAmt */\n      dup3\n        /* \"token/DeAnt3Token.sol\":3205:3219  super.transfer */\n      tag_295\n        /* \"token/DeAnt3Token.sol\":3205:3238  super.transfer(recipient, newAmt) */\n      jump\t// in\n    tag_300:\n      pop\n        /* \"token/DeAnt3Token.sol\":3034:3250  {... */\n      pop\n      pop\n        /* \"token/DeAnt3Token.sol\":2941:3250  if (msg.sender == owner()) {... */\n    tag_296:\n      pop\n        /* \"token/DeAnt3Token.sol\":3267:3271  true */\n      0x01\n        /* \"token/DeAnt3Token.sol\":2814:3279  function transfer(address recipient, uint256 amount)... */\n      swap3\n      swap2\n      pop\n      pop\n      jump\t// out\n        /* \"token/DeAnt3Token.sol\":1789:1891  function setRewardAmtInWei(uint256 _newAmt) external onlyOwner {... */\n    tag_153:\n        /* \"@openzeppelin/contracts-upgradeable/access/OwnableUpgradeable.sol\":1334:1347  _checkOwner() */\n      tag_303\n        /* \"@openzeppelin/contracts-upgradeable/access/OwnableUpgradeable.sol\":1334:1345  _checkOwner */\n      tag_254\n        /* \"@openzeppelin/contracts-upgradeable/access/OwnableUpgradeable.sol\":1334:1347  _checkOwner() */\n      jump\t// in\n    tag_303:\n        /* \"token/DeAnt3Token.sol\":1863:1873  _rewardAmt */\n      0xcd\n        /* \"token/DeAnt3Token.sol\":1863:1883  _rewardAmt = _newAmt */\n      sstore\n        /* \"token/DeAnt3Token.sol\":1789:1891  function setRewardAmtInWei(uint256 _newAmt) external onlyOwner {... */\n      jump\t// out\n        /* \"token/DeAnt3Token.sol\":1991:2088  function setTaxFee(uint256 _newTaxFee) external onlyOwner {... */\n    tag_157:\n        /* \"@openzeppelin/contracts-upgradeable/access/OwnableUpgradeable.sol\":1334:1347  _checkOwner() */\n      tag_306\n        /* \"@openzeppelin/contracts-upgradeable/access/OwnableUpgradeable.sol\":1334:1345  _checkOwner */\n      tag_254\n        /* \"@openzeppelin/contracts-upgradeable/access/OwnableUpgradeable.sol\":1334:1347  _checkOwner() */\n      jump\t// in\n    tag_306:\n        /* \"token/DeAnt3Token.sol\":2060:2067  _taxFee */\n      0xcf\n        /* \"token/DeAnt3Token.sol\":2060:2080  _taxFee = _newTaxFee */\n      sstore\n        /* \"token/DeAnt3Token.sol\":1991:2088  function setTaxFee(uint256 _newTaxFee) external onlyOwner {... */\n      jump\t// out\n        /* \"@openzeppelin/contracts-upgradeable/token/ERC20/ERC20Upgradeable.sol\":4311:4460  function allowance(address owner, address spender) public view virtual override returns (uint256) {... */\n    tag_166:\n      sub(shl(0xa0, 0x01), 0x01)\n        /* \"@openzeppelin/contracts-upgradeable/token/ERC20/ERC20Upgradeable.sol\":4426:4444  _allowances[owner] */\n      swap2\n      dup3\n      and\n        /* \"@openzeppelin/contracts-upgradeable/token/ERC20/ERC20Upgradeable.sol\":4400:4407  uint256 */\n      0x00\n        /* \"@openzeppelin/contracts-upgradeable/token/ERC20/ERC20Upgradeable.sol\":4426:4444  _allowances[owner] */\n      swap1\n      dup2\n      mstore\n        /* \"@openzeppelin/contracts-upgradeable/token/ERC20/ERC20Upgradeable.sol\":4426:4437  _allowances */\n      0x34\n        /* \"@openzeppelin/contracts-upgradeable/token/ERC20/ERC20Upgradeable.sol\":4426:4444  _allowances[owner] */\n      0x20\n      swap1\n      dup2\n      mstore\n      0x40\n      dup1\n      dup4\n      keccak256\n        /* \"@openzeppelin/contracts-upgradeable/token/ERC20/ERC20Upgradeable.sol\":4426:4453  _allowances[owner][spender] */\n      swap4\n      swap1\n      swap5\n      and\n      dup3\n      mstore\n      swap2\n      swap1\n      swap2\n      mstore\n      keccak256\n      sload\n      swap1\n        /* \"@openzeppelin/contracts-upgradeable/token/ERC20/ERC20Upgradeable.sol\":4311:4460  function allowance(address owner, address spender) public view virtual override returns (uint256) {... */\n      jump\t// out\n        /* \"token/DeAnt3Token.sol\":4380:5786  function permitMint(... */\n    tag_172:\n        /* \"token/DeAnt3Token.sol\":4653:4668  block.timestamp */\n      timestamp\n        /* \"token/DeAnt3Token.sol\":4641:4649  deadline */\n      dup5\n        /* \"token/DeAnt3Token.sol\":4641:4668  deadline >= block.timestamp */\n      lt\n      iszero\n        /* \"token/DeAnt3Token.sol\":4633:4689  require(deadline >= block.timestamp, \"Expired deadline\") */\n      tag_310\n      jumpi\n      mload(0x40)\n      shl(0xe5, 0x461bcd)\n      dup2\n      mstore\n        /* \"#utility.yul\":13247:13249   */\n      0x20\n        /* \"token/DeAnt3Token.sol\":4633:4689  require(deadline >= block.timestamp, \"Expired deadline\") */\n      0x04\n      dup3\n      add\n        /* \"#utility.yul\":13229:13250   */\n      mstore\n        /* \"#utility.yul\":13286:13288   */\n      0x10\n        /* \"#utility.yul\":13266:13284   */\n      0x24\n      dup3\n      add\n        /* \"#utility.yul\":13259:13289   */\n      mstore\n      shl(0x80, 0x4578706972656420646561646c696e65)\n        /* \"#utility.yul\":13305:13323   */\n      0x44\n      dup3\n      add\n        /* \"#utility.yul\":13298:13344   */\n      mstore\n        /* \"#utility.yul\":13361:13379   */\n      0x64\n      add\n        /* \"token/DeAnt3Token.sol\":4633:4689  require(deadline >= block.timestamp, \"Expired deadline\") */\n      tag_202\n        /* \"#utility.yul\":13045:13385   */\n      jump\n        /* \"token/DeAnt3Token.sol\":4633:4689  require(deadline >= block.timestamp, \"Expired deadline\") */\n    tag_310:\n        /* \"token/DeAnt3Token.sol\":4709:4733  uniqueIdExists[uniqueId] */\n      0x00\n      dup7\n      dup2\n      mstore\n        /* \"token/DeAnt3Token.sol\":4709:4723  uniqueIdExists */\n      0xd3\n        /* \"token/DeAnt3Token.sol\":4709:4733  uniqueIdExists[uniqueId] */\n      0x20\n      mstore\n      0x40\n      swap1\n      keccak256\n      sload\n      0xff\n      and\n        /* \"token/DeAnt3Token.sol\":4708:4733  !uniqueIdExists[uniqueId] */\n      iszero\n        /* \"token/DeAnt3Token.sol\":4700:4754  require(!uniqueIdExists[uniqueId], \"Unique id exists\") */\n      tag_313\n      jumpi\n      mload(0x40)\n      shl(0xe5, 0x461bcd)\n      dup2\n      mstore\n        /* \"#utility.yul\":13592:13594   */\n      0x20\n        /* \"token/DeAnt3Token.sol\":4700:4754  require(!uniqueIdExists[uniqueId], \"Unique id exists\") */\n      0x04\n      dup3\n      add\n        /* \"#utility.yul\":13574:13595   */\n      mstore\n        /* \"#utility.yul\":13631:13633   */\n      0x10\n        /* \"#utility.yul\":13611:13629   */\n      0x24\n      dup3\n      add\n        /* \"#utility.yul\":13604:13634   */\n      mstore\n      shl(0x80, 0x556e6971756520696420657869737473)\n        /* \"#utility.yul\":13650:13668   */\n      0x44\n      dup3\n      add\n        /* \"#utility.yul\":13643:13689   */\n      mstore\n        /* \"#utility.yul\":13706:13724   */\n      0x64\n      add\n        /* \"token/DeAnt3Token.sol\":4700:4754  require(!uniqueIdExists[uniqueId], \"Unique id exists\") */\n      tag_202\n        /* \"#utility.yul\":13390:13730   */\n      jump\n        /* \"token/DeAnt3Token.sol\":4700:4754  require(!uniqueIdExists[uniqueId], \"Unique id exists\") */\n    tag_313:\n        /* \"token/DeAnt3Token.sol\":4785:4795  msg.sender */\n      caller\n        /* \"token/DeAnt3Token.sol\":4767:4782  address spender */\n      0x00\n        /* \"token/DeAnt3Token.sol\":4822:4835  super.owner() */\n      tag_316\n        /* \"@openzeppelin/contracts-upgradeable/access/OwnableUpgradeable.sol\":1513:1519  _owner */\n      and(sub(shl(0xa0, 0x01), 0x01), sload(0x98))\n      swap1\n        /* \"@openzeppelin/contracts-upgradeable/access/OwnableUpgradeable.sol\":1441:1526  function owner() public view virtual returns (address) {... */\n      jump\n        /* \"token/DeAnt3Token.sol\":4822:4835  super.owner() */\n    tag_316:\n        /* \"token/DeAnt3Token.sol\":4895:5142  abi.encodePacked(... */\n      mload(0x40)\n      shl(0xf8, 0x19)\n      0x20\n      dup3\n      add\n        /* \"#utility.yul\":14104:14132   */\n      mstore\n        /* \"token/DeAnt3Token.sol\":4848:4868  bytes32 permitTxHash */\n      0x00\n        /* \"#utility.yul\":14148:14159   */\n      0x21\n      dup3\n      add\n        /* \"#utility.yul\":14141:14177   */\n      dup2\n      swap1\n      mstore\n      not(0xffffffffffffffffffffffff)\n        /* \"#utility.yul\":14264:14266   */\n      0x60\n        /* \"#utility.yul\":14260:14275   */\n      dup5\n      dup2\n      shl\n        /* \"#utility.yul\":14256:14280   */\n      dup3\n      and\n        /* \"#utility.yul\":14243:14254   */\n      0x22\n      dup6\n      add\n        /* \"#utility.yul\":14236:14281   */\n      mstore\n        /* \"#utility.yul\":14315:14330   */\n      dup7\n      dup2\n      shl\n        /* \"#utility.yul\":14311:14335   */\n      dup3\n      and\n        /* \"#utility.yul\":14297:14309   */\n      0x36\n      dup6\n      add\n        /* \"#utility.yul\":14290:14336   */\n      mstore\n        /* \"#utility.yul\":14370:14385   */\n      dup14\n      swap1\n      shl\n        /* \"#utility.yul\":14366:14390   */\n      and\n        /* \"#utility.yul\":14352:14364   */\n      0x4a\n      dup4\n      add\n        /* \"#utility.yul\":14345:14391   */\n      mstore\n        /* \"#utility.yul\":14407:14419   */\n      0x5e\n      dup3\n      add\n        /* \"#utility.yul\":14400:14428   */\n      dup11\n      swap1\n      mstore\n        /* \"#utility.yul\":14444:14456   */\n      0x7e\n      dup3\n      add\n        /* \"#utility.yul\":14437:14465   */\n      dup12\n      swap1\n      mstore\n        /* \"#utility.yul\":14481:14494   */\n      0x9e\n      dup3\n      add\n        /* \"#utility.yul\":14474:14503   */\n      dup10\n      swap1\n      mstore\n        /* \"token/DeAnt3Token.sol\":4806:4835  address owner = super.owner() */\n      swap2\n      swap3\n      pop\n        /* \"#utility.yul\":14519:14532   */\n      0xbe\n      add\n        /* \"token/DeAnt3Token.sol\":4895:5142  abi.encodePacked(... */\n      mload(0x40)\n      0x20\n      dup2\n      dup4\n      sub\n      sub\n      dup2\n      mstore\n      swap1\n      0x40\n      mstore\n        /* \"token/DeAnt3Token.sol\":4871:5153  keccak256(... */\n      dup1\n      mload\n      swap1\n      0x20\n      add\n      keccak256\n        /* \"token/DeAnt3Token.sol\":4848:5153  bytes32 permitTxHash = keccak256(... */\n      swap1\n      pop\n        /* \"token/DeAnt3Token.sol\":5166:5182  address lastAddr */\n      0x00\n        /* \"token/DeAnt3Token.sol\":5206:5227  uint8 verifiedSigners */\n      dup1\n        /* \"token/DeAnt3Token.sol\":5247:5255  uint64 i */\n      0x00\n        /* \"token/DeAnt3Token.sol\":5242:5504  for (uint64 i = 0; i < v.length; i++) {... */\n    tag_319:\n        /* \"token/DeAnt3Token.sol\":5265:5266  v */\n      dup9\n        /* \"token/DeAnt3Token.sol\":5265:5273  v.length */\n      mload\n        /* \"token/DeAnt3Token.sol\":5261:5262  i */\n      dup2\n      sub(shl(0x40, 0x01), 0x01)\n        /* \"token/DeAnt3Token.sol\":5261:5273  i < v.length */\n      and\n      lt\n        /* \"token/DeAnt3Token.sol\":5242:5504  for (uint64 i = 0; i < v.length; i++) {... */\n      iszero\n      tag_320\n      jumpi\n        /* \"token/DeAnt3Token.sol\":5295:5312  address recovered */\n      0x00\n        /* \"token/DeAnt3Token.sol\":5315:5356  ecrecover(permitTxHash, v[i], r[i], s[i]) */\n      0x01\n        /* \"token/DeAnt3Token.sol\":5325:5337  permitTxHash */\n      dup6\n        /* \"token/DeAnt3Token.sol\":5339:5340  v */\n      dup12\n        /* \"token/DeAnt3Token.sol\":5341:5342  i */\n      dup5\n      sub(shl(0x40, 0x01), 0x01)\n        /* \"token/DeAnt3Token.sol\":5339:5343  v[i] */\n      and\n      dup2\n      mload\n      dup2\n      lt\n      tag_323\n      jumpi\n      tag_323\n      tag_324\n      jump\t// in\n    tag_323:\n      0x20\n      mul\n      0x20\n      add\n      add\n      mload\n        /* \"token/DeAnt3Token.sol\":5345:5346  r */\n      dup12\n        /* \"token/DeAnt3Token.sol\":5347:5348  i */\n      dup6\n      sub(shl(0x40, 0x01), 0x01)\n        /* \"token/DeAnt3Token.sol\":5345:5349  r[i] */\n      and\n      dup2\n      mload\n      dup2\n      lt\n      tag_326\n      jumpi\n      tag_326\n      tag_324\n      jump\t// in\n    tag_326:\n      0x20\n      mul\n      0x20\n      add\n      add\n      mload\n        /* \"token/DeAnt3Token.sol\":5351:5352  s */\n      dup12\n        /* \"token/DeAnt3Token.sol\":5353:5354  i */\n      dup7\n      sub(shl(0x40, 0x01), 0x01)\n        /* \"token/DeAnt3Token.sol\":5351:5355  s[i] */\n      and\n      dup2\n      mload\n      dup2\n      lt\n      tag_328\n      jumpi\n      tag_328\n      tag_324\n      jump\t// in\n    tag_328:\n      0x20\n      mul\n      0x20\n      add\n      add\n      mload\n        /* \"token/DeAnt3Token.sol\":5315:5356  ecrecover(permitTxHash, v[i], r[i], s[i]) */\n      mload(0x40)\n      0x00\n      dup2\n      mstore\n      0x20\n      add\n      0x40\n      mstore\n      mload(0x40)\n      tag_329\n      swap5\n      swap4\n      swap3\n      swap2\n      swap1\n        /* \"#utility.yul\":14902:14927   */\n      swap4\n      dup5\n      mstore\n        /* \"#utility.yul\":14975:14979   */\n      0xff\n        /* \"#utility.yul\":14963:14980   */\n      swap3\n      swap1\n      swap3\n      and\n        /* \"#utility.yul\":14958:14960   */\n      0x20\n        /* \"#utility.yul\":14943:14961   */\n      dup5\n      add\n        /* \"#utility.yul\":14936:14981   */\n      mstore\n        /* \"#utility.yul\":15012:15014   */\n      0x40\n        /* \"#utility.yul\":14997:15015   */\n      dup4\n      add\n        /* \"#utility.yul\":14990:15024   */\n      mstore\n        /* \"#utility.yul\":15055:15057   */\n      0x60\n        /* \"#utility.yul\":15040:15058   */\n      dup3\n      add\n        /* \"#utility.yul\":15033:15067   */\n      mstore\n        /* \"#utility.yul\":14889:14892   */\n      0x80\n        /* \"#utility.yul\":14874:14893   */\n      add\n      swap1\n        /* \"#utility.yul\":14675:15073   */\n      jump\n        /* \"token/DeAnt3Token.sol\":5315:5356  ecrecover(permitTxHash, v[i], r[i], s[i]) */\n    tag_329:\n      0x20\n      mload(0x40)\n      0x20\n      dup2\n      sub\n      swap1\n      dup1\n      dup5\n      sub\n      swap1\n      dup6\n      gas\n      staticcall\n      iszero\n      dup1\n      iszero\n      tag_332\n      jumpi\n      returndatasize\n      0x00\n      dup1\n      returndatacopy\n      revert(0x00, returndatasize)\n    tag_332:\n      pop\n      pop\n      pop\n      mload(sub(mload(0x40), 0x20))\n        /* \"token/DeAnt3Token.sol\":5295:5356  address recovered = ecrecover(permitTxHash, v[i], r[i], s[i]) */\n      swap1\n      pop\n        /* \"token/DeAnt3Token.sol\":5387:5395  lastAddr */\n      dup4\n      sub(shl(0xa0, 0x01), 0x01)\n        /* \"token/DeAnt3Token.sol\":5375:5395  recovered > lastAddr */\n      and\n        /* \"token/DeAnt3Token.sol\":5375:5384  recovered */\n      dup2\n      sub(shl(0xa0, 0x01), 0x01)\n        /* \"token/DeAnt3Token.sol\":5375:5395  recovered > lastAddr */\n      and\n      gt\n        /* \"token/DeAnt3Token.sol\":5375:5421  recovered > lastAddr && _mapSigners[recovered] */\n      dup1\n      iszero\n      tag_333\n      jumpi\n      pop\n      sub(shl(0xa0, 0x01), 0x01)\n        /* \"token/DeAnt3Token.sol\":5399:5421  _mapSigners[recovered] */\n      dup2\n      and\n      0x00\n      swap1\n      dup2\n      mstore\n        /* \"token/DeAnt3Token.sol\":5399:5410  _mapSigners */\n      0xd2\n        /* \"token/DeAnt3Token.sol\":5399:5421  _mapSigners[recovered] */\n      0x20\n      mstore\n      0x40\n      swap1\n      keccak256\n      sload\n      0xff\n      and\n        /* \"token/DeAnt3Token.sol\":5375:5421  recovered > lastAddr && _mapSigners[recovered] */\n    tag_333:\n        /* \"token/DeAnt3Token.sol\":5371:5457  if (recovered > lastAddr && _mapSigners[recovered])... */\n      iszero\n      tag_334\n      jumpi\n        /* \"token/DeAnt3Token.sol\":5440:5457  verifiedSigners++ */\n      dup3\n      tag_335\n      dup2\n      tag_336\n      jump\t// in\n    tag_335:\n      swap4\n      pop\n      pop\n        /* \"token/DeAnt3Token.sol\":5371:5457  if (recovered > lastAddr && _mapSigners[recovered])... */\n    tag_334:\n        /* \"token/DeAnt3Token.sol\":5483:5492  recovered */\n      swap3\n      pop\n        /* \"token/DeAnt3Token.sol\":5275:5278  i++ */\n      dup1\n      tag_337\n      dup2\n      tag_338\n      jump\t// in\n    tag_337:\n      swap2\n      pop\n      pop\n        /* \"token/DeAnt3Token.sol\":5242:5504  for (uint64 i = 0; i < v.length; i++) {... */\n      jump(tag_319)\n    tag_320:\n      pop\n        /* \"token/DeAnt3Token.sol\":5541:5549  _signers */\n      0xd1\n        /* \"token/DeAnt3Token.sol\":5541:5556  _signers.length */\n      sload\n        /* \"token/DeAnt3Token.sol\":5522:5556  verifiedSigners == _signers.length */\n      0xff\n      dup3\n      and\n      eq\n        /* \"token/DeAnt3Token.sol\":5514:5576  require(verifiedSigners == _signers.length, \"Invalid signers\") */\n      tag_339\n      jumpi\n      mload(0x40)\n      shl(0xe5, 0x461bcd)\n      dup2\n      mstore\n        /* \"#utility.yul\":15674:15676   */\n      0x20\n        /* \"token/DeAnt3Token.sol\":5514:5576  require(verifiedSigners == _signers.length, \"Invalid signers\") */\n      0x04\n      dup3\n      add\n        /* \"#utility.yul\":15656:15677   */\n      mstore\n        /* \"#utility.yul\":15713:15715   */\n      0x0f\n        /* \"#utility.yul\":15693:15711   */\n      0x24\n      dup3\n      add\n        /* \"#utility.yul\":15686:15716   */\n      mstore\n      shl(0x88, 0x496e76616c6964207369676e657273)\n        /* \"#utility.yul\":15732:15750   */\n      0x44\n      dup3\n      add\n        /* \"#utility.yul\":15725:15770   */\n      mstore\n        /* \"#utility.yul\":15787:15805   */\n      0x64\n      add\n        /* \"token/DeAnt3Token.sol\":5514:5576  require(verifiedSigners == _signers.length, \"Invalid signers\") */\n      tag_202\n        /* \"#utility.yul\":15472:15811   */\n      jump\n        /* \"token/DeAnt3Token.sol\":5514:5576  require(verifiedSigners == _signers.length, \"Invalid signers\") */\n    tag_339:\n        /* \"token/DeAnt3Token.sol\":5587:5611  uniqueIdExists[uniqueId] */\n      0x00\n      dup12\n      dup2\n      mstore\n        /* \"token/DeAnt3Token.sol\":5587:5601  uniqueIdExists */\n      0xd3\n        /* \"token/DeAnt3Token.sol\":5587:5611  uniqueIdExists[uniqueId] */\n      0x20\n      mstore\n      0x40\n      dup1\n      dup3\n      keccak256\n        /* \"token/DeAnt3Token.sol\":5587:5618  uniqueIdExists[uniqueId] = true */\n      dup1\n      sload\n      not(0xff)\n      and\n        /* \"token/DeAnt3Token.sol\":5614:5618  true */\n      0x01\n        /* \"token/DeAnt3Token.sol\":5587:5618  uniqueIdExists[uniqueId] = true */\n      or\n      swap1\n      sstore\n        /* \"token/DeAnt3Token.sol\":5672:5682  _rewardAmt */\n      sload(0xcd)\n        /* \"token/DeAnt3Token.sol\":5650:5687  recipient.call{value: _rewardAmt}(\"\") */\n      swap1\n      mload\n      sub(shl(0xa0, 0x01), 0x01)\n        /* \"token/DeAnt3Token.sol\":5650:5664  recipient.call */\n      dup16\n      and\n      swap2\n        /* \"token/DeAnt3Token.sol\":5672:5682  _rewardAmt */\n      swap1\n        /* \"token/DeAnt3Token.sol\":5587:5611  uniqueIdExists[uniqueId] */\n      dup4\n        /* \"token/DeAnt3Token.sol\":5650:5687  recipient.call{value: _rewardAmt}(\"\") */\n      dup2\n        /* \"token/DeAnt3Token.sol\":5587:5611  uniqueIdExists[uniqueId] */\n      dup2\n        /* \"token/DeAnt3Token.sol\":5650:5687  recipient.call{value: _rewardAmt}(\"\") */\n      dup2\n        /* \"token/DeAnt3Token.sol\":5672:5682  _rewardAmt */\n      dup6\n        /* \"token/DeAnt3Token.sol\":5650:5664  recipient.call */\n      dup8\n        /* \"token/DeAnt3Token.sol\":5650:5687  recipient.call{value: _rewardAmt}(\"\") */\n      gas\n      call\n      swap3\n      pop\n      pop\n      pop\n      returndatasize\n      dup1\n      0x00\n      dup2\n      eq\n      tag_346\n      jumpi\n      mload(0x40)\n      swap2\n      pop\n      and(add(returndatasize, 0x3f), not(0x1f))\n      dup3\n      add\n      0x40\n      mstore\n      returndatasize\n      dup3\n      mstore\n      returndatasize\n      0x00\n      0x20\n      dup5\n      add\n      returndatacopy\n      jump(tag_345)\n    tag_346:\n      0x60\n      swap2\n      pop\n    tag_345:\n      pop\n        /* \"token/DeAnt3Token.sol\":5631:5687  (bool success, ) = recipient.call{value: _rewardAmt}(\"\") */\n      pop\n      swap1\n      pop\n        /* \"token/DeAnt3Token.sol\":5706:5713  success */\n      dup1\n        /* \"token/DeAnt3Token.sol\":5698:5737  require(success, \"Failed to send Mech\") */\n      tag_347\n      jumpi\n      mload(0x40)\n      shl(0xe5, 0x461bcd)\n      dup2\n      mstore\n        /* \"#utility.yul\":16228:16230   */\n      0x20\n        /* \"token/DeAnt3Token.sol\":5698:5737  require(success, \"Failed to send Mech\") */\n      0x04\n      dup3\n      add\n        /* \"#utility.yul\":16210:16231   */\n      mstore\n        /* \"#utility.yul\":16267:16269   */\n      0x13\n        /* \"#utility.yul\":16247:16265   */\n      0x24\n      dup3\n      add\n        /* \"#utility.yul\":16240:16270   */\n      mstore\n      shl(0x6b, 0x08cc2d2d8cac840e8de40e6cadcc8409acac6d)\n        /* \"#utility.yul\":16286:16304   */\n      0x44\n      dup3\n      add\n        /* \"#utility.yul\":16279:16328   */\n      mstore\n        /* \"#utility.yul\":16345:16363   */\n      0x64\n      add\n        /* \"token/DeAnt3Token.sol\":5698:5737  require(success, \"Failed to send Mech\") */\n      tag_202\n        /* \"#utility.yul\":16026:16369   */\n      jump\n        /* \"token/DeAnt3Token.sol\":5698:5737  require(success, \"Failed to send Mech\") */\n    tag_347:\n        /* \"token/DeAnt3Token.sol\":5748:5778  super._mint(recipient, amount) */\n      tag_350\n        /* \"token/DeAnt3Token.sol\":5760:5769  recipient */\n      dup14\n        /* \"token/DeAnt3Token.sol\":5771:5777  amount */\n      dup13\n        /* \"token/DeAnt3Token.sol\":5748:5759  super._mint */\n      tag_240\n        /* \"token/DeAnt3Token.sol\":5748:5778  super._mint(recipient, amount) */\n      jump\t// in\n    tag_350:\n        /* \"token/DeAnt3Token.sol\":4622:5786  {... */\n      pop\n      pop\n      pop\n      pop\n      pop\n      pop\n        /* \"token/DeAnt3Token.sol\":4380:5786  function permitMint(... */\n      pop\n      pop\n      pop\n      pop\n      pop\n      pop\n      pop\n      jump\t// out\n        /* \"@openzeppelin/contracts-upgradeable/access/OwnableUpgradeable.sol\":2321:2519  function transferOwnership(address newOwner) public virtual onlyOwner {... */\n    tag_176:\n        /* \"@openzeppelin/contracts-upgradeable/access/OwnableUpgradeable.sol\":1334:1347  _checkOwner() */\n      tag_352\n        /* \"@openzeppelin/contracts-upgradeable/access/OwnableUpgradeable.sol\":1334:1345  _checkOwner */\n      tag_254\n        /* \"@openzeppelin/contracts-upgradeable/access/OwnableUpgradeable.sol\":1334:1347  _checkOwner() */\n      jump\t// in\n    tag_352:\n      sub(shl(0xa0, 0x01), 0x01)\n        /* \"@openzeppelin/contracts-upgradeable/access/OwnableUpgradeable.sol\":2409:2431  newOwner != address(0) */\n      dup2\n      and\n        /* \"@openzeppelin/contracts-upgradeable/access/OwnableUpgradeable.sol\":2401:2474  require(newOwner != address(0), \"Ownable: new owner is the zero address\") */\n      tag_354\n      jumpi\n      mload(0x40)\n      shl(0xe5, 0x461bcd)\n      dup2\n      mstore\n        /* \"#utility.yul\":16576:16578   */\n      0x20\n        /* \"@openzeppelin/contracts-upgradeable/access/OwnableUpgradeable.sol\":2401:2474  require(newOwner != address(0), \"Ownable: new owner is the zero address\") */\n      0x04\n      dup3\n      add\n        /* \"#utility.yul\":16558:16579   */\n      mstore\n        /* \"#utility.yul\":16615:16617   */\n      0x26\n        /* \"#utility.yul\":16595:16613   */\n      0x24\n      dup3\n      add\n        /* \"#utility.yul\":16588:16618   */\n      mstore\n        /* \"#utility.yul\":16654:16688   */\n      0x4f776e61626c653a206e6577206f776e657220697320746865207a65726f2061\n        /* \"#utility.yul\":16634:16652   */\n      0x44\n      dup3\n      add\n        /* \"#utility.yul\":16627:16689   */\n      mstore\n      shl(0xd0, 0x646472657373)\n        /* \"#utility.yul\":16705:16723   */\n      0x64\n      dup3\n      add\n        /* \"#utility.yul\":16698:16734   */\n      mstore\n        /* \"#utility.yul\":16751:16770   */\n      0x84\n      add\n        /* \"@openzeppelin/contracts-upgradeable/access/OwnableUpgradeable.sol\":2401:2474  require(newOwner != address(0), \"Ownable: new owner is the zero address\") */\n      tag_202\n        /* \"#utility.yul\":16374:16776   */\n      jump\n        /* \"@openzeppelin/contracts-upgradeable/access/OwnableUpgradeable.sol\":2401:2474  require(newOwner != address(0), \"Ownable: new owner is the zero address\") */\n    tag_354:\n        /* \"@openzeppelin/contracts-upgradeable/access/OwnableUpgradeable.sol\":2484:2512  _transferOwnership(newOwner) */\n      tag_283\n        /* \"@openzeppelin/contracts-upgradeable/access/OwnableUpgradeable.sol\":2503:2511  newOwner */\n      dup2\n        /* \"@openzeppelin/contracts-upgradeable/access/OwnableUpgradeable.sol\":2484:2502  _transferOwnership */\n      tag_261\n        /* \"@openzeppelin/contracts-upgradeable/access/OwnableUpgradeable.sol\":2484:2512  _transferOwnership(newOwner) */\n      jump\t// in\n        /* \"@openzeppelin/contracts-upgradeable/token/ERC20/ERC20Upgradeable.sol\":10841:11211  function _approve(... */\n    tag_198:\n      sub(shl(0xa0, 0x01), 0x01)\n        /* \"@openzeppelin/contracts-upgradeable/token/ERC20/ERC20Upgradeable.sol\":10972:10991  owner != address(0) */\n      dup4\n      and\n        /* \"@openzeppelin/contracts-upgradeable/token/ERC20/ERC20Upgradeable.sol\":10964:11032  require(owner != address(0), \"ERC20: approve from the zero address\") */\n      tag_361\n      jumpi\n      mload(0x40)\n      shl(0xe5, 0x461bcd)\n      dup2\n      mstore\n        /* \"#utility.yul\":16983:16985   */\n      0x20\n        /* \"@openzeppelin/contracts-upgradeable/token/ERC20/ERC20Upgradeable.sol\":10964:11032  require(owner != address(0), \"ERC20: approve from the zero address\") */\n      0x04\n      dup3\n      add\n        /* \"#utility.yul\":16965:16986   */\n      mstore\n        /* \"#utility.yul\":17022:17024   */\n      0x24\n        /* \"#utility.yul\":17002:17020   */\n      dup1\n      dup3\n      add\n        /* \"#utility.yul\":16995:17025   */\n      mstore\n        /* \"#utility.yul\":17061:17095   */\n      0x45524332303a20617070726f76652066726f6d20746865207a65726f20616464\n        /* \"#utility.yul\":17041:17059   */\n      0x44\n      dup3\n      add\n        /* \"#utility.yul\":17034:17096   */\n      mstore\n      shl(0xe0, 0x72657373)\n        /* \"#utility.yul\":17112:17130   */\n      0x64\n      dup3\n      add\n        /* \"#utility.yul\":17105:17139   */\n      mstore\n        /* \"#utility.yul\":17156:17175   */\n      0x84\n      add\n        /* \"@openzeppelin/contracts-upgradeable/token/ERC20/ERC20Upgradeable.sol\":10964:11032  require(owner != address(0), \"ERC20: approve from the zero address\") */\n      tag_202\n        /* \"#utility.yul\":16781:17181   */\n      jump\n        /* \"@openzeppelin/contracts-upgradeable/token/ERC20/ERC20Upgradeable.sol\":10964:11032  require(owner != address(0), \"ERC20: approve from the zero address\") */\n    tag_361:\n      sub(shl(0xa0, 0x01), 0x01)\n        /* \"@openzeppelin/contracts-upgradeable/token/ERC20/ERC20Upgradeable.sol\":11050:11071  spender != address(0) */\n      dup3\n      and\n        /* \"@openzeppelin/contracts-upgradeable/token/ERC20/ERC20Upgradeable.sol\":11042:11110  require(spender != address(0), \"ERC20: approve to the zero address\") */\n      tag_364\n      jumpi\n      mload(0x40)\n      shl(0xe5, 0x461bcd)\n      dup2\n      mstore\n        /* \"#utility.yul\":17388:17390   */\n      0x20\n        /* \"@openzeppelin/contracts-upgradeable/token/ERC20/ERC20Upgradeable.sol\":11042:11110  require(spender != address(0), \"ERC20: approve to the zero address\") */\n      0x04\n      dup3\n      add\n        /* \"#utility.yul\":17370:17391   */\n      mstore\n        /* \"#utility.yul\":17427:17429   */\n      0x22\n        /* \"#utility.yul\":17407:17425   */\n      0x24\n      dup3\n      add\n        /* \"#utility.yul\":17400:17430   */\n      mstore\n        /* \"#utility.yul\":17466:17500   */\n      0x45524332303a20617070726f766520746f20746865207a65726f206164647265\n        /* \"#utility.yul\":17446:17464   */\n      0x44\n      dup3\n      add\n        /* \"#utility.yul\":17439:17501   */\n      mstore\n      shl(0xf0, 0x7373)\n        /* \"#utility.yul\":17517:17535   */\n      0x64\n      dup3\n      add\n        /* \"#utility.yul\":17510:17542   */\n      mstore\n        /* \"#utility.yul\":17559:17578   */\n      0x84\n      add\n        /* \"@openzeppelin/contracts-upgradeable/token/ERC20/ERC20Upgradeable.sol\":11042:11110  require(spender != address(0), \"ERC20: approve to the zero address\") */\n      tag_202\n        /* \"#utility.yul\":17186:17584   */\n      jump\n        /* \"@openzeppelin/contracts-upgradeable/token/ERC20/ERC20Upgradeable.sol\":11042:11110  require(spender != address(0), \"ERC20: approve to the zero address\") */\n    tag_364:\n      sub(shl(0xa0, 0x01), 0x01)\n        /* \"@openzeppelin/contracts-upgradeable/token/ERC20/ERC20Upgradeable.sol\":11121:11139  _allowances[owner] */\n      dup4\n      dup2\n      and\n      0x00\n      dup2\n      dup2\n      mstore\n        /* \"@openzeppelin/contracts-upgradeable/token/ERC20/ERC20Upgradeable.sol\":11121:11132  _allowances */\n      0x34\n        /* \"@openzeppelin/contracts-upgradeable/token/ERC20/ERC20Upgradeable.sol\":11121:11139  _allowances[owner] */\n      0x20\n      swap1\n      dup2\n      mstore\n      0x40\n      dup1\n      dup4\n      keccak256\n        /* \"@openzeppelin/contracts-upgradeable/token/ERC20/ERC20Upgradeable.sol\":11121:11148  _allowances[owner][spender] */\n      swap5\n      dup8\n      and\n      dup1\n      dup5\n      mstore\n      swap5\n      dup3\n      mstore\n      swap2\n      dup3\n      swap1\n      keccak256\n        /* \"@openzeppelin/contracts-upgradeable/token/ERC20/ERC20Upgradeable.sol\":11121:11157  _allowances[owner][spender] = amount */\n      dup6\n      swap1\n      sstore\n        /* \"@openzeppelin/contracts-upgradeable/token/ERC20/ERC20Upgradeable.sol\":11172:11204  Approval(owner, spender, amount) */\n      swap1\n      mload\n        /* \"#utility.yul\":1662:1687   */\n      dup5\n      dup2\n      mstore\n        /* \"@openzeppelin/contracts-upgradeable/token/ERC20/ERC20Upgradeable.sol\":11172:11204  Approval(owner, spender, amount) */\n      0x8c5be1e5ebec7d5bd14f71427d1e84f3dd0314c0f7b2291e5b200ac8c7c3b925\n      swap2\n        /* \"#utility.yul\":1635:1653   */\n      add\n        /* \"@openzeppelin/contracts-upgradeable/token/ERC20/ERC20Upgradeable.sol\":11172:11204  Approval(owner, spender, amount) */\n    tag_367:\n      mload(0x40)\n      dup1\n      swap2\n      sub\n      swap1\n      log3\n        /* \"@openzeppelin/contracts-upgradeable/token/ERC20/ERC20Upgradeable.sol\":10841:11211  function _approve(... */\n      pop\n      pop\n      pop\n      jump\t// out\n        /* \"token/DeAnt3Token.sol\":3815:4037  function _burnAndUpdate(address account, uint256 amount) private {... */\n    tag_206:\n        /* \"token/DeAnt3Token.sol\":3891:3913  _burn(account, amount) */\n      tag_369\n        /* \"token/DeAnt3Token.sol\":3897:3904  account */\n      dup3\n        /* \"token/DeAnt3Token.sol\":3906:3912  amount */\n      dup3\n        /* \"token/DeAnt3Token.sol\":3891:3896  _burn */\n      tag_370\n        /* \"token/DeAnt3Token.sol\":3891:3913  _burn(account, amount) */\n      jump\t// in\n    tag_369:\n        /* \"token/DeAnt3Token.sol\":3952:3958  amount */\n      dup1\n        /* \"token/DeAnt3Token.sol\":3938:3949  totalBurned */\n      sload(0xd0)\n        /* \"token/DeAnt3Token.sol\":3938:3958  totalBurned + amount */\n      tag_371\n      swap2\n      swap1\n      tag_251\n      jump\t// in\n    tag_371:\n        /* \"token/DeAnt3Token.sol\":3924:3935  totalBurned */\n      0xd0\n        /* \"token/DeAnt3Token.sol\":3924:3958  totalBurned = totalBurned + amount */\n      sstore\n      sub(shl(0xa0, 0x01), 0x01)\n        /* \"token/DeAnt3Token.sol\":3996:4020  userTotalBurned[account] */\n      dup3\n      and\n      0x00\n      swap1\n      dup2\n      mstore\n        /* \"token/DeAnt3Token.sol\":3996:4011  userTotalBurned */\n      0xd4\n        /* \"token/DeAnt3Token.sol\":3996:4020  userTotalBurned[account] */\n      0x20\n      mstore\n      0x40\n      swap1\n      keccak256\n      sload\n        /* \"token/DeAnt3Token.sol\":3996:4029  userTotalBurned[account] + amount */\n      tag_372\n      swap1\n        /* \"token/DeAnt3Token.sol\":4023:4029  amount */\n      dup3\n      swap1\n        /* \"token/DeAnt3Token.sol\":3996:4029  userTotalBurned[account] + amount */\n      tag_251\n      jump\t// in\n    tag_372:\n      sub(shl(0xa0, 0x01), 0x01)\n        /* \"token/DeAnt3Token.sol\":3969:3993  userTotalBurned[account] */\n      swap1\n      swap3\n      and\n      0x00\n      swap1\n      dup2\n      mstore\n        /* \"token/DeAnt3Token.sol\":3969:3984  userTotalBurned */\n      0xd4\n        /* \"token/DeAnt3Token.sol\":3969:3993  userTotalBurned[account] */\n      0x20\n      mstore\n      0x40\n      swap1\n      keccak256\n        /* \"token/DeAnt3Token.sol\":3969:4029  userTotalBurned[account] = userTotalBurned[account] + amount */\n      swap2\n      swap1\n      swap2\n      sstore\n      pop\n        /* \"token/DeAnt3Token.sol\":3815:4037  function _burnAndUpdate(address account, uint256 amount) private {... */\n      jump\t// out\n        /* \"token/DeAnt3Token.sol\":3647:3807  function _calculateBurnAmt(uint256 amount) private view returns (uint256) {... */\n    tag_209:\n        /* \"token/DeAnt3Token.sol\":3712:3719  uint256 */\n      0x00\n        /* \"token/DeAnt3Token.sol\":3732:3747  uint256 burnAmt */\n      dup1\n        /* \"token/DeAnt3Token.sol\":3771:3774  100 */\n      0x64\n        /* \"token/DeAnt3Token.sol\":3760:3767  _taxFee */\n      sload(0xcf)\n        /* \"token/DeAnt3Token.sol\":3751:3757  amount */\n      dup5\n        /* \"token/DeAnt3Token.sol\":3751:3767  amount * _taxFee */\n      tag_374\n      swap2\n      swap1\n      tag_234\n      jump\t// in\n    tag_374:\n        /* \"token/DeAnt3Token.sol\":3750:3774  (amount * _taxFee) / 100 */\n      tag_375\n      swap2\n      swap1\n      tag_376\n      jump\t// in\n    tag_375:\n        /* \"token/DeAnt3Token.sol\":3732:3774  uint256 burnAmt = (amount * _taxFee) / 100 */\n      swap4\n        /* \"token/DeAnt3Token.sol\":3647:3807  function _calculateBurnAmt(uint256 amount) private view returns (uint256) {... */\n      swap3\n      pop\n      pop\n      pop\n      jump\t// out\n        /* \"@openzeppelin/contracts-upgradeable/token/ERC20/ERC20Upgradeable.sol\":5527:5813  function transferFrom(... */\n    tag_214:\n        /* \"@openzeppelin/contracts-upgradeable/token/ERC20/ERC20Upgradeable.sol\":5654:5658  bool */\n      0x00\n        /* \"@openzeppelin/contracts-upgradeable/utils/ContextUpgradeable.sol\":929:939  msg.sender */\n      caller\n        /* \"@openzeppelin/contracts-upgradeable/token/ERC20/ERC20Upgradeable.sol\":5710:5748  _spendAllowance(from, spender, amount) */\n      tag_379\n        /* \"@openzeppelin/contracts-upgradeable/token/ERC20/ERC20Upgradeable.sol\":5726:5730  from */\n      dup6\n        /* \"@openzeppelin/contracts-upgradeable/utils/ContextUpgradeable.sol\":929:939  msg.sender */\n      dup3\n        /* \"@openzeppelin/contracts-upgradeable/token/ERC20/ERC20Upgradeable.sol\":5741:5747  amount */\n      dup6\n        /* \"@openzeppelin/contracts-upgradeable/token/ERC20/ERC20Upgradeable.sol\":5710:5725  _spendAllowance */\n      tag_380\n        /* \"@openzeppelin/contracts-upgradeable/token/ERC20/ERC20Upgradeable.sol\":5710:5748  _spendAllowance(from, spender, amount) */\n      jump\t// in\n    tag_379:\n        /* \"@openzeppelin/contracts-upgradeable/token/ERC20/ERC20Upgradeable.sol\":5758:5785  _transfer(from, to, amount) */\n      tag_290\n        /* \"@openzeppelin/contracts-upgradeable/token/ERC20/ERC20Upgradeable.sol\":5768:5772  from */\n      dup6\n        /* \"@openzeppelin/contracts-upgradeable/token/ERC20/ERC20Upgradeable.sol\":5774:5776  to */\n      dup6\n        /* \"@openzeppelin/contracts-upgradeable/token/ERC20/ERC20Upgradeable.sol\":5778:5784  amount */\n      dup6\n        /* \"@openzeppelin/contracts-upgradeable/token/ERC20/ERC20Upgradeable.sol\":5758:5767  _transfer */\n      tag_382\n        /* \"@openzeppelin/contracts-upgradeable/token/ERC20/ERC20Upgradeable.sol\":5758:5785  _transfer(from, to, amount) */\n      jump\t// in\n        /* \"@openzeppelin/contracts-upgradeable/access/OwnableUpgradeable.sol\":1003:1098  function __Ownable_init() internal onlyInitializing {... */\n    tag_227:\n        /* \"@openzeppelin/contracts-upgradeable/proxy/utils/Initializable.sol\":5363:5376  _initializing */\n      sload(0x00)\n      0x0100\n      swap1\n      div\n      0xff\n      and\n        /* \"@openzeppelin/contracts-upgradeable/proxy/utils/Initializable.sol\":5355:5424  require(_initializing, \"Initializable: contract is not initializing\") */\n      tag_385\n      jumpi\n      mload(0x40)\n      shl(0xe5, 0x461bcd)\n      dup2\n      mstore\n      0x04\n      add\n      tag_202\n      swap1\n      tag_387\n      jump\t// in\n    tag_385:\n        /* \"@openzeppelin/contracts-upgradeable/access/OwnableUpgradeable.sol\":1065:1091  __Ownable_init_unchained() */\n      tag_260\n        /* \"@openzeppelin/contracts-upgradeable/access/OwnableUpgradeable.sol\":1065:1089  __Ownable_init_unchained */\n      tag_390\n        /* \"@openzeppelin/contracts-upgradeable/access/OwnableUpgradeable.sol\":1065:1091  __Ownable_init_unchained() */\n      jump\t// in\n        /* \"@openzeppelin/contracts-upgradeable/token/ERC20/ERC20Upgradeable.sol\":2114:2261  function __ERC20_init(string memory name_, string memory symbol_) internal onlyInitializing {... */\n    tag_229:\n        /* \"@openzeppelin/contracts-upgradeable/proxy/utils/Initializable.sol\":5363:5376  _initializing */\n      sload(0x00)\n      0x0100\n      swap1\n      div\n      0xff\n      and\n        /* \"@openzeppelin/contracts-upgradeable/proxy/utils/Initializable.sol\":5355:5424  require(_initializing, \"Initializable: contract is not initializing\") */\n      tag_392\n      jumpi\n      mload(0x40)\n      shl(0xe5, 0x461bcd)\n      dup2\n      mstore\n      0x04\n      add\n      tag_202\n      swap1\n      tag_387\n      jump\t// in\n    tag_392:\n        /* \"@openzeppelin/contracts-upgradeable/token/ERC20/ERC20Upgradeable.sol\":2216:2254  __ERC20_init_unchained(name_, symbol_) */\n      tag_205\n        /* \"@openzeppelin/contracts-upgradeable/token/ERC20/ERC20Upgradeable.sol\":2239:2244  name_ */\n      dup3\n        /* \"@openzeppelin/contracts-upgradeable/token/ERC20/ERC20Upgradeable.sol\":2246:2253  symbol_ */\n      dup3\n        /* \"@openzeppelin/contracts-upgradeable/token/ERC20/ERC20Upgradeable.sol\":2216:2238  __ERC20_init_unchained */\n      tag_396\n        /* \"@openzeppelin/contracts-upgradeable/token/ERC20/ERC20Upgradeable.sol\":2216:2254  __ERC20_init_unchained(name_, symbol_) */\n      jump\t// in\n        /* \"@openzeppelin/contracts-upgradeable/token/ERC20/extensions/ERC20CappedUpgradeable.sol\":567:686  function __ERC20Capped_init(uint256 cap_) internal onlyInitializing {... */\n    tag_235:\n        /* \"@openzeppelin/contracts-upgradeable/proxy/utils/Initializable.sol\":5363:5376  _initializing */\n      sload(0x00)\n      0x0100\n      swap1\n      div\n      0xff\n      and\n        /* \"@openzeppelin/contracts-upgradeable/proxy/utils/Initializable.sol\":5355:5424  require(_initializing, \"Initializable: contract is not initializing\") */\n      tag_398\n      jumpi\n      mload(0x40)\n      shl(0xe5, 0x461bcd)\n      dup2\n      mstore\n      0x04\n      add\n      tag_202\n      swap1\n      tag_387\n      jump\t// in\n    tag_398:\n        /* \"@openzeppelin/contracts-upgradeable/token/ERC20/extensions/ERC20CappedUpgradeable.sol\":645:679  __ERC20Capped_init_unchained(cap_) */\n      tag_283\n        /* \"@openzeppelin/contracts-upgradeable/token/ERC20/extensions/ERC20CappedUpgradeable.sol\":674:678  cap_ */\n      dup2\n        /* \"@openzeppelin/contracts-upgradeable/token/ERC20/extensions/ERC20CappedUpgradeable.sol\":645:673  __ERC20Capped_init_unchained */\n      tag_402\n        /* \"@openzeppelin/contracts-upgradeable/token/ERC20/extensions/ERC20CappedUpgradeable.sol\":645:679  __ERC20Capped_init_unchained(cap_) */\n      jump\t// in\n        /* \"@openzeppelin/contracts-upgradeable/token/ERC20/extensions/ERC20CappedUpgradeable.sol\":1063:1278  function _mint(address account, uint256 amount) internal virtual override {... */\n    tag_240:\n        /* \"@openzeppelin/contracts-upgradeable/token/ERC20/extensions/ERC20CappedUpgradeable.sol\":999:1003  _cap */\n      sload(0x65)\n        /* \"@openzeppelin/contracts-upgradeable/token/ERC20/extensions/ERC20CappedUpgradeable.sol\":1188:1194  amount */\n      dup2\n        /* \"@openzeppelin/contracts-upgradeable/token/ERC20/extensions/ERC20CappedUpgradeable.sol\":1155:1185  ERC20Upgradeable.totalSupply() */\n      tag_405\n        /* \"@openzeppelin/contracts-upgradeable/token/ERC20/ERC20Upgradeable.sol\":3666:3678  _totalSupply */\n      sload(0x35)\n      swap1\n        /* \"@openzeppelin/contracts-upgradeable/token/ERC20/ERC20Upgradeable.sol\":3579:3685  function totalSupply() public view virtual override returns (uint256) {... */\n      jump\n        /* \"@openzeppelin/contracts-upgradeable/token/ERC20/extensions/ERC20CappedUpgradeable.sol\":1155:1185  ERC20Upgradeable.totalSupply() */\n    tag_405:\n        /* \"@openzeppelin/contracts-upgradeable/token/ERC20/extensions/ERC20CappedUpgradeable.sol\":1155:1194  ERC20Upgradeable.totalSupply() + amount */\n      tag_406\n      swap2\n      swap1\n      tag_251\n      jump\t// in\n    tag_406:\n        /* \"@openzeppelin/contracts-upgradeable/token/ERC20/extensions/ERC20CappedUpgradeable.sol\":1155:1203  ERC20Upgradeable.totalSupply() + amount <= cap() */\n      gt\n      iszero\n        /* \"@openzeppelin/contracts-upgradeable/token/ERC20/extensions/ERC20CappedUpgradeable.sol\":1147:1233  require(ERC20Upgradeable.totalSupply() + amount <= cap(), \"ERC20Capped: cap exceeded\") */\n      tag_407\n      jumpi\n      mload(0x40)\n      shl(0xe5, 0x461bcd)\n      dup2\n      mstore\n        /* \"#utility.yul\":18425:18427   */\n      0x20\n        /* \"@openzeppelin/contracts-upgradeable/token/ERC20/extensions/ERC20CappedUpgradeable.sol\":1147:1233  require(ERC20Upgradeable.totalSupply() + amount <= cap(), \"ERC20Capped: cap exceeded\") */\n      0x04\n      dup3\n      add\n        /* \"#utility.yul\":18407:18428   */\n      mstore\n        /* \"#utility.yul\":18464:18466   */\n      0x19\n        /* \"#utility.yul\":18444:18462   */\n      0x24\n      dup3\n      add\n        /* \"#utility.yul\":18437:18467   */\n      mstore\n        /* \"#utility.yul\":18503:18530   */\n      0x45524332304361707065643a2063617020657863656564656400000000000000\n        /* \"#utility.yul\":18483:18501   */\n      0x44\n      dup3\n      add\n        /* \"#utility.yul\":18476:18531   */\n      mstore\n        /* \"#utility.yul\":18548:18566   */\n      0x64\n      add\n        /* \"@openzeppelin/contracts-upgradeable/token/ERC20/extensions/ERC20CappedUpgradeable.sol\":1147:1233  require(ERC20Upgradeable.totalSupply() + amount <= cap(), \"ERC20Capped: cap exceeded\") */\n      tag_202\n        /* \"#utility.yul\":18223:18572   */\n      jump\n        /* \"@openzeppelin/contracts-upgradeable/token/ERC20/extensions/ERC20CappedUpgradeable.sol\":1147:1233  require(ERC20Upgradeable.totalSupply() + amount <= cap(), \"ERC20Capped: cap exceeded\") */\n    tag_407:\n        /* \"@openzeppelin/contracts-upgradeable/token/ERC20/extensions/ERC20CappedUpgradeable.sol\":1243:1271  super._mint(account, amount) */\n      tag_205\n        /* \"@openzeppelin/contracts-upgradeable/token/ERC20/extensions/ERC20CappedUpgradeable.sol\":1255:1262  account */\n      dup3\n        /* \"@openzeppelin/contracts-upgradeable/token/ERC20/extensions/ERC20CappedUpgradeable.sol\":1264:1270  amount */\n      dup3\n        /* \"@openzeppelin/contracts-upgradeable/token/ERC20/extensions/ERC20CappedUpgradeable.sol\":1243:1254  super._mint */\n      tag_411\n        /* \"@openzeppelin/contracts-upgradeable/token/ERC20/extensions/ERC20CappedUpgradeable.sol\":1243:1271  super._mint(account, amount) */\n      jump\t// in\n        /* \"@openzeppelin/contracts-upgradeable/access/OwnableUpgradeable.sol\":1599:1729  function _checkOwner() internal view virtual {... */\n    tag_254:\n        /* \"@openzeppelin/contracts-upgradeable/access/OwnableUpgradeable.sol\":1513:1519  _owner */\n      and(sub(shl(0xa0, 0x01), 0x01), sload(0x98))\n        /* \"@openzeppelin/contracts-upgradeable/utils/ContextUpgradeable.sol\":929:939  msg.sender */\n      caller\n        /* \"@openzeppelin/contracts-upgradeable/access/OwnableUpgradeable.sol\":1662:1685  owner() == _msgSender() */\n      eq\n        /* \"@openzeppelin/contracts-upgradeable/access/OwnableUpgradeable.sol\":1654:1722  require(owner() == _msgSender(), \"Ownable: caller is not the owner\") */\n      tag_260\n      jumpi\n      mload(0x40)\n      shl(0xe5, 0x461bcd)\n      dup2\n      mstore\n        /* \"#utility.yul\":18779:18781   */\n      0x20\n        /* \"@openzeppelin/contracts-upgradeable/access/OwnableUpgradeable.sol\":1654:1722  require(owner() == _msgSender(), \"Ownable: caller is not the owner\") */\n      0x04\n      dup3\n      add\n        /* \"#utility.yul\":18761:18782   */\n      dup2\n      swap1\n      mstore\n        /* \"#utility.yul\":18798:18816   */\n      0x24\n      dup3\n      add\n        /* \"#utility.yul\":18791:18821   */\n      mstore\n        /* \"#utility.yul\":18857:18891   */\n      0x4f776e61626c653a2063616c6c6572206973206e6f7420746865206f776e6572\n        /* \"#utility.yul\":18837:18855   */\n      0x44\n      dup3\n      add\n        /* \"#utility.yul\":18830:18892   */\n      mstore\n        /* \"#utility.yul\":18909:18927   */\n      0x64\n      add\n        /* \"@openzeppelin/contracts-upgradeable/access/OwnableUpgradeable.sol\":1654:1722  require(owner() == _msgSender(), \"Ownable: caller is not the owner\") */\n      tag_202\n        /* \"#utility.yul\":18577:18933   */\n      jump\n        /* \"@openzeppelin/contracts-upgradeable/access/OwnableUpgradeable.sol\":2673:2860  function _transferOwnership(address newOwner) internal virtual {... */\n    tag_261:\n        /* \"@openzeppelin/contracts-upgradeable/access/OwnableUpgradeable.sol\":2765:2771  _owner */\n      0x98\n      dup1\n      sload\n      sub(shl(0xa0, 0x01), 0x01)\n        /* \"@openzeppelin/contracts-upgradeable/access/OwnableUpgradeable.sol\":2781:2798  _owner = newOwner */\n      dup4\n      dup2\n      and\n      not(sub(shl(0xa0, 0x01), 0x01))\n      dup4\n      and\n      dup2\n      or\n      swap1\n      swap4\n      sstore\n        /* \"@openzeppelin/contracts-upgradeable/access/OwnableUpgradeable.sol\":2813:2853  OwnershipTransferred(oldOwner, newOwner) */\n      mload(0x40)\n        /* \"@openzeppelin/contracts-upgradeable/access/OwnableUpgradeable.sol\":2765:2771  _owner */\n      swap2\n      and\n      swap2\n        /* \"@openzeppelin/contracts-upgradeable/access/OwnableUpgradeable.sol\":2781:2798  _owner = newOwner */\n      swap1\n        /* \"@openzeppelin/contracts-upgradeable/access/OwnableUpgradeable.sol\":2765:2771  _owner */\n      dup3\n      swap1\n        /* \"@openzeppelin/contracts-upgradeable/access/OwnableUpgradeable.sol\":2813:2853  OwnershipTransferred(oldOwner, newOwner) */\n      0x8be0079c531659141344cd1fd0a4f28419497f9722a3daafe3b4186f6b6457e0\n      swap1\n        /* \"@openzeppelin/contracts-upgradeable/access/OwnableUpgradeable.sol\":2746:2762  address oldOwner */\n      0x00\n      swap1\n        /* \"@openzeppelin/contracts-upgradeable/access/OwnableUpgradeable.sol\":2813:2853  OwnershipTransferred(oldOwner, newOwner) */\n      log3\n        /* \"@openzeppelin/contracts-upgradeable/access/OwnableUpgradeable.sol\":2736:2860  {... */\n      pop\n        /* \"@openzeppelin/contracts-upgradeable/access/OwnableUpgradeable.sol\":2673:2860  function _transferOwnership(address newOwner) internal virtual {... */\n      pop\n      jump\t// out\n        /* \"token/DeAnt3Token.sol\":2565:2806  function _updateMap(... */\n    tag_278:\n        /* \"token/DeAnt3Token.sol\":2717:2725  uint64 i */\n      0x00\n        /* \"token/DeAnt3Token.sol\":2712:2799  for (uint64 i = 0; i < arr.length; i++) {... */\n    tag_420:\n        /* \"token/DeAnt3Token.sol\":2735:2738  arr */\n      dup4\n        /* \"token/DeAnt3Token.sol\":2735:2745  arr.length */\n      mload\n        /* \"token/DeAnt3Token.sol\":2731:2732  i */\n      dup2\n      sub(shl(0x40, 0x01), 0x01)\n        /* \"token/DeAnt3Token.sol\":2731:2745  i < arr.length */\n      and\n      lt\n        /* \"token/DeAnt3Token.sol\":2712:2799  for (uint64 i = 0; i < arr.length; i++) {... */\n      iszero\n      tag_421\n      jumpi\n        /* \"token/DeAnt3Token.sol\":2781:2787  status */\n      dup3\n        /* \"token/DeAnt3Token.sol\":2767:2770  map */\n      dup3\n        /* \"token/DeAnt3Token.sol\":2767:2778  map[arr[i]] */\n      0x00\n        /* \"token/DeAnt3Token.sol\":2771:2774  arr */\n      dup7\n        /* \"token/DeAnt3Token.sol\":2775:2776  i */\n      dup5\n      sub(shl(0x40, 0x01), 0x01)\n        /* \"token/DeAnt3Token.sol\":2771:2777  arr[i] */\n      and\n      dup2\n      mload\n      dup2\n      lt\n      tag_424\n      jumpi\n      tag_424\n      tag_324\n      jump\t// in\n    tag_424:\n      0x20\n      swap1\n      dup2\n      mul\n      swap2\n      swap1\n      swap2\n      add\n      dup2\n      add\n      mload\n      sub(shl(0xa0, 0x01), 0x01)\n        /* \"token/DeAnt3Token.sol\":2767:2778  map[arr[i]] */\n      and\n      dup3\n      mstore\n      dup2\n      add\n      swap2\n      swap1\n      swap2\n      mstore\n      0x40\n      add\n      0x00\n      keccak256\n        /* \"token/DeAnt3Token.sol\":2767:2787  map[arr[i]] = status */\n      dup1\n      sload\n      not(0xff)\n      and\n      swap2\n      iszero\n      iszero\n      swap2\n      swap1\n      swap2\n      or\n      swap1\n      sstore\n        /* \"token/DeAnt3Token.sol\":2747:2750  i++ */\n      dup1\n      tag_425\n      dup2\n      tag_338\n      jump\t// in\n    tag_425:\n      swap2\n      pop\n      pop\n        /* \"token/DeAnt3Token.sol\":2712:2799  for (uint64 i = 0; i < arr.length; i++) {... */\n      jump(tag_420)\n    tag_421:\n      pop\n        /* \"token/DeAnt3Token.sol\":2565:2806  function _updateMap(... */\n      pop\n      pop\n      pop\n      jump\t// out\n        /* \"@openzeppelin/contracts-upgradeable/token/ERC20/ERC20Upgradeable.sol\":4064:4253  function transfer(address to, uint256 amount) public virtual override returns (bool) {... */\n    tag_295:\n        /* \"@openzeppelin/contracts-upgradeable/token/ERC20/ERC20Upgradeable.sol\":4143:4147  bool */\n      0x00\n        /* \"@openzeppelin/contracts-upgradeable/utils/ContextUpgradeable.sol\":929:939  msg.sender */\n      caller\n        /* \"@openzeppelin/contracts-upgradeable/token/ERC20/ERC20Upgradeable.sol\":4197:4225  _transfer(owner, to, amount) */\n      tag_197\n        /* \"@openzeppelin/contracts-upgradeable/utils/ContextUpgradeable.sol\":929:939  msg.sender */\n      dup2\n        /* \"@openzeppelin/contracts-upgradeable/token/ERC20/ERC20Upgradeable.sol\":4214:4216  to */\n      dup6\n        /* \"@openzeppelin/contracts-upgradeable/token/ERC20/ERC20Upgradeable.sol\":4218:4224  amount */\n      dup6\n        /* \"@openzeppelin/contracts-upgradeable/token/ERC20/ERC20Upgradeable.sol\":4197:4206  _transfer */\n      tag_382\n        /* \"@openzeppelin/contracts-upgradeable/token/ERC20/ERC20Upgradeable.sol\":4197:4225  _transfer(owner, to, amount) */\n      jump\t// in\n        /* \"@openzeppelin/contracts-upgradeable/token/ERC20/ERC20Upgradeable.sol\":9759:10418  function _burn(address account, uint256 amount) internal virtual {... */\n    tag_370:\n      sub(shl(0xa0, 0x01), 0x01)\n        /* \"@openzeppelin/contracts-upgradeable/token/ERC20/ERC20Upgradeable.sol\":9842:9863  account != address(0) */\n      dup3\n      and\n        /* \"@openzeppelin/contracts-upgradeable/token/ERC20/ERC20Upgradeable.sol\":9834:9901  require(account != address(0), \"ERC20: burn from the zero address\") */\n      tag_430\n      jumpi\n      mload(0x40)\n      shl(0xe5, 0x461bcd)\n      dup2\n      mstore\n        /* \"#utility.yul\":19140:19142   */\n      0x20\n        /* \"@openzeppelin/contracts-upgradeable/token/ERC20/ERC20Upgradeable.sol\":9834:9901  require(account != address(0), \"ERC20: burn from the zero address\") */\n      0x04\n      dup3\n      add\n        /* \"#utility.yul\":19122:19143   */\n      mstore\n        /* \"#utility.yul\":19179:19181   */\n      0x21\n        /* \"#utility.yul\":19159:19177   */\n      0x24\n      dup3\n      add\n        /* \"#utility.yul\":19152:19182   */\n      mstore\n        /* \"#utility.yul\":19218:19252   */\n      0x45524332303a206275726e2066726f6d20746865207a65726f20616464726573\n        /* \"#utility.yul\":19198:19216   */\n      0x44\n      dup3\n      add\n        /* \"#utility.yul\":19191:19253   */\n      mstore\n      shl(0xf8, 0x73)\n        /* \"#utility.yul\":19269:19287   */\n      0x64\n      dup3\n      add\n        /* \"#utility.yul\":19262:19293   */\n      mstore\n        /* \"#utility.yul\":19310:19329   */\n      0x84\n      add\n        /* \"@openzeppelin/contracts-upgradeable/token/ERC20/ERC20Upgradeable.sol\":9834:9901  require(account != address(0), \"ERC20: burn from the zero address\") */\n      tag_202\n        /* \"#utility.yul\":18938:19335   */\n      jump\n        /* \"@openzeppelin/contracts-upgradeable/token/ERC20/ERC20Upgradeable.sol\":9834:9901  require(account != address(0), \"ERC20: burn from the zero address\") */\n    tag_430:\n      sub(shl(0xa0, 0x01), 0x01)\n        /* \"@openzeppelin/contracts-upgradeable/token/ERC20/ERC20Upgradeable.sol\":9997:10015  _balances[account] */\n      dup3\n      and\n        /* \"@openzeppelin/contracts-upgradeable/token/ERC20/ERC20Upgradeable.sol\":9972:9994  uint256 accountBalance */\n      0x00\n        /* \"@openzeppelin/contracts-upgradeable/token/ERC20/ERC20Upgradeable.sol\":9997:10015  _balances[account] */\n      swap1\n      dup2\n      mstore\n        /* \"@openzeppelin/contracts-upgradeable/token/ERC20/ERC20Upgradeable.sol\":9997:10006  _balances */\n      0x33\n        /* \"@openzeppelin/contracts-upgradeable/token/ERC20/ERC20Upgradeable.sol\":9997:10015  _balances[account] */\n      0x20\n      mstore\n      0x40\n      swap1\n      keccak256\n      sload\n        /* \"@openzeppelin/contracts-upgradeable/token/ERC20/ERC20Upgradeable.sol\":10033:10057  accountBalance >= amount */\n      dup2\n      dup2\n      lt\n      iszero\n        /* \"@openzeppelin/contracts-upgradeable/token/ERC20/ERC20Upgradeable.sol\":10025:10096  require(accountBalance >= amount, \"ERC20: burn amount exceeds balance\") */\n      tag_435\n      jumpi\n      mload(0x40)\n      shl(0xe5, 0x461bcd)\n      dup2\n      mstore\n        /* \"#utility.yul\":19542:19544   */\n      0x20\n        /* \"@openzeppelin/contracts-upgradeable/token/ERC20/ERC20Upgradeable.sol\":10025:10096  require(accountBalance >= amount, \"ERC20: burn amount exceeds balance\") */\n      0x04\n      dup3\n      add\n        /* \"#utility.yul\":19524:19545   */\n      mstore\n        /* \"#utility.yul\":19581:19583   */\n      0x22\n        /* \"#utility.yul\":19561:19579   */\n      0x24\n      dup3\n      add\n        /* \"#utility.yul\":19554:19584   */\n      mstore\n        /* \"#utility.yul\":19620:19654   */\n      0x45524332303a206275726e20616d6f756e7420657863656564732062616c616e\n        /* \"#utility.yul\":19600:19618   */\n      0x44\n      dup3\n      add\n        /* \"#utility.yul\":19593:19655   */\n      mstore\n      shl(0xf0, 0x6365)\n        /* \"#utility.yul\":19671:19689   */\n      0x64\n      dup3\n      add\n        /* \"#utility.yul\":19664:19696   */\n      mstore\n        /* \"#utility.yul\":19713:19732   */\n      0x84\n      add\n        /* \"@openzeppelin/contracts-upgradeable/token/ERC20/ERC20Upgradeable.sol\":10025:10096  require(accountBalance >= amount, \"ERC20: burn amount exceeds balance\") */\n      tag_202\n        /* \"#utility.yul\":19340:19738   */\n      jump\n        /* \"@openzeppelin/contracts-upgradeable/token/ERC20/ERC20Upgradeable.sol\":10025:10096  require(accountBalance >= amount, \"ERC20: burn amount exceeds balance\") */\n    tag_435:\n      sub(shl(0xa0, 0x01), 0x01)\n        /* \"@openzeppelin/contracts-upgradeable/token/ERC20/ERC20Upgradeable.sol\":10130:10148  _balances[account] */\n      dup4\n      and\n      0x00\n      dup2\n      dup2\n      mstore\n        /* \"@openzeppelin/contracts-upgradeable/token/ERC20/ERC20Upgradeable.sol\":10130:10139  _balances */\n      0x33\n        /* \"@openzeppelin/contracts-upgradeable/token/ERC20/ERC20Upgradeable.sol\":10130:10148  _balances[account] */\n      0x20\n      swap1\n      dup2\n      mstore\n      0x40\n      dup1\n      dup4\n      keccak256\n        /* \"@openzeppelin/contracts-upgradeable/token/ERC20/ERC20Upgradeable.sol\":10151:10174  accountBalance - amount */\n      dup7\n      dup7\n      sub\n        /* \"@openzeppelin/contracts-upgradeable/token/ERC20/ERC20Upgradeable.sol\":10130:10174  _balances[account] = accountBalance - amount */\n      swap1\n      sstore\n        /* \"@openzeppelin/contracts-upgradeable/token/ERC20/ERC20Upgradeable.sol\":10267:10279  _totalSupply */\n      0x35\n        /* \"@openzeppelin/contracts-upgradeable/token/ERC20/ERC20Upgradeable.sol\":10267:10289  _totalSupply -= amount */\n      dup1\n      sload\n      dup8\n      swap1\n      sub\n      swap1\n      sstore\n        /* \"@openzeppelin/contracts-upgradeable/token/ERC20/ERC20Upgradeable.sol\":10315:10352  Transfer(account, address(0), amount) */\n      mload\n        /* \"#utility.yul\":1662:1687   */\n      dup6\n      dup2\n      mstore\n        /* \"@openzeppelin/contracts-upgradeable/token/ERC20/ERC20Upgradeable.sol\":10130:10148  _balances[account] */\n      swap2\n      swap3\n      swap2\n        /* \"@openzeppelin/contracts-upgradeable/token/ERC20/ERC20Upgradeable.sol\":10315:10352  Transfer(account, address(0), amount) */\n      0xddf252ad1be2c89b69c2b068fc378daa952ba7f163c4a11628f55a4df523b3ef\n      swap2\n        /* \"#utility.yul\":1635:1653   */\n      add\n        /* \"@openzeppelin/contracts-upgradeable/token/ERC20/ERC20Upgradeable.sol\":10315:10352  Transfer(account, address(0), amount) */\n      tag_367\n        /* \"#utility.yul\":1516:1693   */\n      jump\n        /* \"@openzeppelin/contracts-upgradeable/token/ERC20/ERC20Upgradeable.sol\":10363:10411  _afterTokenTransfer(account, address(0), amount) */\n    tag_439:\n        /* \"@openzeppelin/contracts-upgradeable/token/ERC20/ERC20Upgradeable.sol\":9824:10418  {... */\n      pop\n        /* \"@openzeppelin/contracts-upgradeable/token/ERC20/ERC20Upgradeable.sol\":9759:10418  function _burn(address account, uint256 amount) internal virtual {... */\n      pop\n      pop\n      jump\t// out\n        /* \"@openzeppelin/contracts-upgradeable/token/ERC20/ERC20Upgradeable.sol\":11492:11933  function _spendAllowance(... */\n    tag_380:\n        /* \"@openzeppelin/contracts-upgradeable/token/ERC20/ERC20Upgradeable.sol\":11622:11646  uint256 currentAllowance */\n      0x00\n        /* \"@openzeppelin/contracts-upgradeable/token/ERC20/ERC20Upgradeable.sol\":11649:11674  allowance(owner, spender) */\n      tag_442\n        /* \"@openzeppelin/contracts-upgradeable/token/ERC20/ERC20Upgradeable.sol\":11659:11664  owner */\n      dup5\n        /* \"@openzeppelin/contracts-upgradeable/token/ERC20/ERC20Upgradeable.sol\":11666:11673  spender */\n      dup5\n        /* \"@openzeppelin/contracts-upgradeable/token/ERC20/ERC20Upgradeable.sol\":11649:11658  allowance */\n      tag_166\n        /* \"@openzeppelin/contracts-upgradeable/token/ERC20/ERC20Upgradeable.sol\":11649:11674  allowance(owner, spender) */\n      jump\t// in\n    tag_442:\n        /* \"@openzeppelin/contracts-upgradeable/token/ERC20/ERC20Upgradeable.sol\":11622:11674  uint256 currentAllowance = allowance(owner, spender) */\n      swap1\n      pop\n      not(0x00)\n        /* \"@openzeppelin/contracts-upgradeable/token/ERC20/ERC20Upgradeable.sol\":11688:11704  currentAllowance */\n      dup2\n        /* \"@openzeppelin/contracts-upgradeable/token/ERC20/ERC20Upgradeable.sol\":11688:11725  currentAllowance != type(uint256).max */\n      eq\n        /* \"@openzeppelin/contracts-upgradeable/token/ERC20/ERC20Upgradeable.sol\":11684:11927  if (currentAllowance != type(uint256).max) {... */\n      tag_421\n      jumpi\n        /* \"@openzeppelin/contracts-upgradeable/token/ERC20/ERC20Upgradeable.sol\":11769:11775  amount */\n      dup2\n        /* \"@openzeppelin/contracts-upgradeable/token/ERC20/ERC20Upgradeable.sol\":11749:11765  currentAllowance */\n      dup2\n        /* \"@openzeppelin/contracts-upgradeable/token/ERC20/ERC20Upgradeable.sol\":11749:11775  currentAllowance >= amount */\n      lt\n      iszero\n        /* \"@openzeppelin/contracts-upgradeable/token/ERC20/ERC20Upgradeable.sol\":11741:11809  require(currentAllowance >= amount, \"ERC20: insufficient allowance\") */\n      tag_444\n      jumpi\n      mload(0x40)\n      shl(0xe5, 0x461bcd)\n      dup2\n      mstore\n        /* \"#utility.yul\":19945:19947   */\n      0x20\n        /* \"@openzeppelin/contracts-upgradeable/token/ERC20/ERC20Upgradeable.sol\":11741:11809  require(currentAllowance >= amount, \"ERC20: insufficient allowance\") */\n      0x04\n      dup3\n      add\n        /* \"#utility.yul\":19927:19948   */\n      mstore\n        /* \"#utility.yul\":19984:19986   */\n      0x1d\n        /* \"#utility.yul\":19964:19982   */\n      0x24\n      dup3\n      add\n        /* \"#utility.yul\":19957:19987   */\n      mstore\n        /* \"#utility.yul\":20023:20054   */\n      0x45524332303a20696e73756666696369656e7420616c6c6f77616e6365000000\n        /* \"#utility.yul\":20003:20021   */\n      0x44\n      dup3\n      add\n        /* \"#utility.yul\":19996:20055   */\n      mstore\n        /* \"#utility.yul\":20072:20090   */\n      0x64\n      add\n        /* \"@openzeppelin/contracts-upgradeable/token/ERC20/ERC20Upgradeable.sol\":11741:11809  require(currentAllowance >= amount, \"ERC20: insufficient allowance\") */\n      tag_202\n        /* \"#utility.yul\":19743:20096   */\n      jump\n        /* \"@openzeppelin/contracts-upgradeable/token/ERC20/ERC20Upgradeable.sol\":11741:11809  require(currentAllowance >= amount, \"ERC20: insufficient allowance\") */\n    tag_444:\n        /* \"@openzeppelin/contracts-upgradeable/token/ERC20/ERC20Upgradeable.sol\":11851:11902  _approve(owner, spender, currentAllowance - amount) */\n      tag_421\n        /* \"@openzeppelin/contracts-upgradeable/token/ERC20/ERC20Upgradeable.sol\":11860:11865  owner */\n      dup5\n        /* \"@openzeppelin/contracts-upgradeable/token/ERC20/ERC20Upgradeable.sol\":11867:11874  spender */\n      dup5\n        /* \"@openzeppelin/contracts-upgradeable/token/ERC20/ERC20Upgradeable.sol\":11895:11901  amount */\n      dup5\n        /* \"@openzeppelin/contracts-upgradeable/token/ERC20/ERC20Upgradeable.sol\":11876:11892  currentAllowance */\n      dup5\n        /* \"@openzeppelin/contracts-upgradeable/token/ERC20/ERC20Upgradeable.sol\":11876:11901  currentAllowance - amount */\n      sub\n        /* \"@openzeppelin/contracts-upgradeable/token/ERC20/ERC20Upgradeable.sol\":11851:11859  _approve */\n      tag_198\n        /* \"@openzeppelin/contracts-upgradeable/token/ERC20/ERC20Upgradeable.sol\":11851:11902  _approve(owner, spender, currentAllowance - amount) */\n      jump\t// in\n        /* \"@openzeppelin/contracts-upgradeable/token/ERC20/ERC20Upgradeable.sol\":7810:8628  function _transfer(... */\n    tag_382:\n      sub(shl(0xa0, 0x01), 0x01)\n        /* \"@openzeppelin/contracts-upgradeable/token/ERC20/ERC20Upgradeable.sol\":7936:7954  from != address(0) */\n      dup4\n      and\n        /* \"@openzeppelin/contracts-upgradeable/token/ERC20/ERC20Upgradeable.sol\":7928:7996  require(from != address(0), \"ERC20: transfer from the zero address\") */\n      tag_449\n      jumpi\n      mload(0x40)\n      shl(0xe5, 0x461bcd)\n      dup2\n      mstore\n        /* \"#utility.yul\":20303:20305   */\n      0x20\n        /* \"@openzeppelin/contracts-upgradeable/token/ERC20/ERC20Upgradeable.sol\":7928:7996  require(from != address(0), \"ERC20: transfer from the zero address\") */\n      0x04\n      dup3\n      add\n        /* \"#utility.yul\":20285:20306   */\n      mstore\n        /* \"#utility.yul\":20342:20344   */\n      0x25\n        /* \"#utility.yul\":20322:20340   */\n      0x24\n      dup3\n      add\n        /* \"#utility.yul\":20315:20345   */\n      mstore\n        /* \"#utility.yul\":20381:20415   */\n      0x45524332303a207472616e736665722066726f6d20746865207a65726f206164\n        /* \"#utility.yul\":20361:20379   */\n      0x44\n      dup3\n      add\n        /* \"#utility.yul\":20354:20416   */\n      mstore\n      shl(0xd8, 0x6472657373)\n        /* \"#utility.yul\":20432:20450   */\n      0x64\n      dup3\n      add\n        /* \"#utility.yul\":20425:20460   */\n      mstore\n        /* \"#utility.yul\":20477:20496   */\n      0x84\n      add\n        /* \"@openzeppelin/contracts-upgradeable/token/ERC20/ERC20Upgradeable.sol\":7928:7996  require(from != address(0), \"ERC20: transfer from the zero address\") */\n      tag_202\n        /* \"#utility.yul\":20101:20502   */\n      jump\n        /* \"@openzeppelin/contracts-upgradeable/token/ERC20/ERC20Upgradeable.sol\":7928:7996  require(from != address(0), \"ERC20: transfer from the zero address\") */\n    tag_449:\n      sub(shl(0xa0, 0x01), 0x01)\n        /* \"@openzeppelin/contracts-upgradeable/token/ERC20/ERC20Upgradeable.sol\":8014:8030  to != address(0) */\n      dup3\n      and\n        /* \"@openzeppelin/contracts-upgradeable/token/ERC20/ERC20Upgradeable.sol\":8006:8070  require(to != address(0), \"ERC20: transfer to the zero address\") */\n      tag_452\n      jumpi\n      mload(0x40)\n      shl(0xe5, 0x461bcd)\n      dup2\n      mstore\n        /* \"#utility.yul\":20709:20711   */\n      0x20\n        /* \"@openzeppelin/contracts-upgradeable/token/ERC20/ERC20Upgradeable.sol\":8006:8070  require(to != address(0), \"ERC20: transfer to the zero address\") */\n      0x04\n      dup3\n      add\n        /* \"#utility.yul\":20691:20712   */\n      mstore\n        /* \"#utility.yul\":20748:20750   */\n      0x23\n        /* \"#utility.yul\":20728:20746   */\n      0x24\n      dup3\n      add\n        /* \"#utility.yul\":20721:20751   */\n      mstore\n        /* \"#utility.yul\":20787:20821   */\n      0x45524332303a207472616e7366657220746f20746865207a65726f2061646472\n        /* \"#utility.yul\":20767:20785   */\n      0x44\n      dup3\n      add\n        /* \"#utility.yul\":20760:20822   */\n      mstore\n      shl(0xe8, 0x657373)\n        /* \"#utility.yul\":20838:20856   */\n      0x64\n      dup3\n      add\n        /* \"#utility.yul\":20831:20864   */\n      mstore\n        /* \"#utility.yul\":20881:20900   */\n      0x84\n      add\n        /* \"@openzeppelin/contracts-upgradeable/token/ERC20/ERC20Upgradeable.sol\":8006:8070  require(to != address(0), \"ERC20: transfer to the zero address\") */\n      tag_202\n        /* \"#utility.yul\":20507:20906   */\n      jump\n        /* \"@openzeppelin/contracts-upgradeable/token/ERC20/ERC20Upgradeable.sol\":8006:8070  require(to != address(0), \"ERC20: transfer to the zero address\") */\n    tag_452:\n      sub(shl(0xa0, 0x01), 0x01)\n        /* \"@openzeppelin/contracts-upgradeable/token/ERC20/ERC20Upgradeable.sol\":8152:8167  _balances[from] */\n      dup4\n      and\n        /* \"@openzeppelin/contracts-upgradeable/token/ERC20/ERC20Upgradeable.sol\":8130:8149  uint256 fromBalance */\n      0x00\n        /* \"@openzeppelin/contracts-upgradeable/token/ERC20/ERC20Upgradeable.sol\":8152:8167  _balances[from] */\n      swap1\n      dup2\n      mstore\n        /* \"@openzeppelin/contracts-upgradeable/token/ERC20/ERC20Upgradeable.sol\":8152:8161  _balances */\n      0x33\n        /* \"@openzeppelin/contracts-upgradeable/token/ERC20/ERC20Upgradeable.sol\":8152:8167  _balances[from] */\n      0x20\n      mstore\n      0x40\n      swap1\n      keccak256\n      sload\n        /* \"@openzeppelin/contracts-upgradeable/token/ERC20/ERC20Upgradeable.sol\":8185:8206  fromBalance >= amount */\n      dup2\n      dup2\n      lt\n      iszero\n        /* \"@openzeppelin/contracts-upgradeable/token/ERC20/ERC20Upgradeable.sol\":8177:8249  require(fromBalance >= amount, \"ERC20: transfer amount exceeds balance\") */\n      tag_456\n      jumpi\n      mload(0x40)\n      shl(0xe5, 0x461bcd)\n      dup2\n      mstore\n        /* \"#utility.yul\":21113:21115   */\n      0x20\n        /* \"@openzeppelin/contracts-upgradeable/token/ERC20/ERC20Upgradeable.sol\":8177:8249  require(fromBalance >= amount, \"ERC20: transfer amount exceeds balance\") */\n      0x04\n      dup3\n      add\n        /* \"#utility.yul\":21095:21116   */\n      mstore\n        /* \"#utility.yul\":21152:21154   */\n      0x26\n        /* \"#utility.yul\":21132:21150   */\n      0x24\n      dup3\n      add\n        /* \"#utility.yul\":21125:21155   */\n      mstore\n        /* \"#utility.yul\":21191:21225   */\n      0x45524332303a207472616e7366657220616d6f756e7420657863656564732062\n        /* \"#utility.yul\":21171:21189   */\n      0x44\n      dup3\n      add\n        /* \"#utility.yul\":21164:21226   */\n      mstore\n      shl(0xd0, 0x616c616e6365)\n        /* \"#utility.yul\":21242:21260   */\n      0x64\n      dup3\n      add\n        /* \"#utility.yul\":21235:21271   */\n      mstore\n        /* \"#utility.yul\":21288:21307   */\n      0x84\n      add\n        /* \"@openzeppelin/contracts-upgradeable/token/ERC20/ERC20Upgradeable.sol\":8177:8249  require(fromBalance >= amount, \"ERC20: transfer amount exceeds balance\") */\n      tag_202\n        /* \"#utility.yul\":20911:21313   */\n      jump\n        /* \"@openzeppelin/contracts-upgradeable/token/ERC20/ERC20Upgradeable.sol\":8177:8249  require(fromBalance >= amount, \"ERC20: transfer amount exceeds balance\") */\n    tag_456:\n      sub(shl(0xa0, 0x01), 0x01)\n        /* \"@openzeppelin/contracts-upgradeable/token/ERC20/ERC20Upgradeable.sol\":8283:8298  _balances[from] */\n      dup1\n      dup6\n      and\n      0x00\n      dup2\n      dup2\n      mstore\n        /* \"@openzeppelin/contracts-upgradeable/token/ERC20/ERC20Upgradeable.sol\":8283:8292  _balances */\n      0x33\n        /* \"@openzeppelin/contracts-upgradeable/token/ERC20/ERC20Upgradeable.sol\":8283:8298  _balances[from] */\n      0x20\n      mstore\n      0x40\n      dup1\n      dup3\n      keccak256\n        /* \"@openzeppelin/contracts-upgradeable/token/ERC20/ERC20Upgradeable.sol\":8301:8321  fromBalance - amount */\n      dup7\n      dup7\n      sub\n        /* \"@openzeppelin/contracts-upgradeable/token/ERC20/ERC20Upgradeable.sol\":8283:8321  _balances[from] = fromBalance - amount */\n      swap1\n      sstore\n        /* \"@openzeppelin/contracts-upgradeable/token/ERC20/ERC20Upgradeable.sol\":8498:8511  _balances[to] */\n      swap3\n      dup7\n      and\n      dup1\n      dup3\n      mstore\n      swap1\n      dup4\n      swap1\n      keccak256\n        /* \"@openzeppelin/contracts-upgradeable/token/ERC20/ERC20Upgradeable.sol\":8498:8521  _balances[to] += amount */\n      dup1\n      sload\n      dup7\n      add\n      swap1\n      sstore\n        /* \"@openzeppelin/contracts-upgradeable/token/ERC20/ERC20Upgradeable.sol\":8547:8573  Transfer(from, to, amount) */\n      swap2\n      mload\n      0xddf252ad1be2c89b69c2b068fc378daa952ba7f163c4a11628f55a4df523b3ef\n      swap1\n      tag_459\n      swap1\n        /* \"@openzeppelin/contracts-upgradeable/token/ERC20/ERC20Upgradeable.sol\":8315:8321  amount */\n      dup7\n        /* \"#utility.yul\":1662:1687   */\n      dup2\n      mstore\n        /* \"#utility.yul\":1650:1652   */\n      0x20\n        /* \"#utility.yul\":1635:1653   */\n      add\n      swap1\n        /* \"#utility.yul\":1516:1693   */\n      jump\n        /* \"@openzeppelin/contracts-upgradeable/token/ERC20/ERC20Upgradeable.sol\":8547:8573  Transfer(from, to, amount) */\n    tag_459:\n      mload(0x40)\n      dup1\n      swap2\n      sub\n      swap1\n      log3\n        /* \"@openzeppelin/contracts-upgradeable/token/ERC20/ERC20Upgradeable.sol\":8584:8621  _afterTokenTransfer(from, to, amount) */\n      tag_421\n        /* \"@openzeppelin/contracts-upgradeable/token/ERC20/ERC20Upgradeable.sol\":9759:10418  function _burn(address account, uint256 amount) internal virtual {... */\n      jump\n        /* \"@openzeppelin/contracts-upgradeable/access/OwnableUpgradeable.sol\":1104:1215  function __Ownable_init_unchained() internal onlyInitializing {... */\n    tag_390:\n        /* \"@openzeppelin/contracts-upgradeable/proxy/utils/Initializable.sol\":5363:5376  _initializing */\n      sload(0x00)\n      0x0100\n      swap1\n      div\n      0xff\n      and\n        /* \"@openzeppelin/contracts-upgradeable/proxy/utils/Initializable.sol\":5355:5424  require(_initializing, \"Initializable: contract is not initializing\") */\n      tag_462\n      jumpi\n      mload(0x40)\n      shl(0xe5, 0x461bcd)\n      dup2\n      mstore\n      0x04\n      add\n      tag_202\n      swap1\n      tag_387\n      jump\t// in\n    tag_462:\n        /* \"@openzeppelin/contracts-upgradeable/access/OwnableUpgradeable.sol\":1176:1208  _transferOwnership(_msgSender()) */\n      tag_260\n        /* \"@openzeppelin/contracts-upgradeable/utils/ContextUpgradeable.sol\":929:939  msg.sender */\n      caller\n        /* \"@openzeppelin/contracts-upgradeable/access/OwnableUpgradeable.sol\":1176:1194  _transferOwnership */\n      tag_261\n        /* \"@openzeppelin/contracts-upgradeable/access/OwnableUpgradeable.sol\":1176:1208  _transferOwnership(_msgSender()) */\n      jump\t// in\n        /* \"@openzeppelin/contracts-upgradeable/token/ERC20/ERC20Upgradeable.sol\":2267:2426  function __ERC20_init_unchained(string memory name_, string memory symbol_) internal onlyInitializing {... */\n    tag_396:\n        /* \"@openzeppelin/contracts-upgradeable/proxy/utils/Initializable.sol\":5363:5376  _initializing */\n      sload(0x00)\n      0x0100\n      swap1\n      div\n      0xff\n      and\n        /* \"@openzeppelin/contracts-upgradeable/proxy/utils/Initializable.sol\":5355:5424  require(_initializing, \"Initializable: contract is not initializing\") */\n      tag_468\n      jumpi\n      mload(0x40)\n      shl(0xe5, 0x461bcd)\n      dup2\n      mstore\n      0x04\n      add\n      tag_202\n      swap1\n      tag_387\n      jump\t// in\n    tag_468:\n        /* \"@openzeppelin/contracts-upgradeable/token/ERC20/ERC20Upgradeable.sol\":2379:2392  _name = name_ */\n      dup2\n      mload\n      tag_471\n      swap1\n        /* \"@openzeppelin/contracts-upgradeable/token/ERC20/ERC20Upgradeable.sol\":2379:2384  _name */\n      0x36\n      swap1\n        /* \"@openzeppelin/contracts-upgradeable/token/ERC20/ERC20Upgradeable.sol\":2379:2392  _name = name_ */\n      0x20\n      dup6\n      add\n      swap1\n      tag_237\n      jump\t// in\n    tag_471:\n      pop\n        /* \"@openzeppelin/contracts-upgradeable/token/ERC20/ERC20Upgradeable.sol\":2402:2419  _symbol = symbol_ */\n      dup1\n      mload\n      tag_439\n      swap1\n        /* \"@openzeppelin/contracts-upgradeable/token/ERC20/ERC20Upgradeable.sol\":2402:2409  _symbol */\n      0x37\n      swap1\n        /* \"@openzeppelin/contracts-upgradeable/token/ERC20/ERC20Upgradeable.sol\":2402:2419  _symbol = symbol_ */\n      0x20\n      dup5\n      add\n      swap1\n      tag_237\n      jump\t// in\n        /* \"@openzeppelin/contracts-upgradeable/token/ERC20/extensions/ERC20CappedUpgradeable.sol\":692:850  function __ERC20Capped_init_unchained(uint256 cap_) internal onlyInitializing {... */\n    tag_402:\n        /* \"@openzeppelin/contracts-upgradeable/proxy/utils/Initializable.sol\":5363:5376  _initializing */\n      sload(0x00)\n      0x0100\n      swap1\n      div\n      0xff\n      and\n        /* \"@openzeppelin/contracts-upgradeable/proxy/utils/Initializable.sol\":5355:5424  require(_initializing, \"Initializable: contract is not initializing\") */\n      tag_474\n      jumpi\n      mload(0x40)\n      shl(0xe5, 0x461bcd)\n      dup2\n      mstore\n      0x04\n      add\n      tag_202\n      swap1\n      tag_387\n      jump\t// in\n    tag_474:\n        /* \"@openzeppelin/contracts-upgradeable/token/ERC20/extensions/ERC20CappedUpgradeable.sol\":795:796  0 */\n      0x00\n        /* \"@openzeppelin/contracts-upgradeable/token/ERC20/extensions/ERC20CappedUpgradeable.sol\":788:792  cap_ */\n      dup2\n        /* \"@openzeppelin/contracts-upgradeable/token/ERC20/extensions/ERC20CappedUpgradeable.sol\":788:796  cap_ > 0 */\n      gt\n        /* \"@openzeppelin/contracts-upgradeable/token/ERC20/extensions/ERC20CappedUpgradeable.sol\":780:822  require(cap_ > 0, \"ERC20Capped: cap is 0\") */\n      tag_477\n      jumpi\n      mload(0x40)\n      shl(0xe5, 0x461bcd)\n      dup2\n      mstore\n        /* \"#utility.yul\":21520:21522   */\n      0x20\n        /* \"@openzeppelin/contracts-upgradeable/token/ERC20/extensions/ERC20CappedUpgradeable.sol\":780:822  require(cap_ > 0, \"ERC20Capped: cap is 0\") */\n      0x04\n      dup3\n      add\n        /* \"#utility.yul\":21502:21523   */\n      mstore\n        /* \"#utility.yul\":21559:21561   */\n      0x15\n        /* \"#utility.yul\":21539:21557   */\n      0x24\n      dup3\n      add\n        /* \"#utility.yul\":21532:21562   */\n      mstore\n      shl(0x5c, 0x045524332304361707065643a20636170206973203)\n        /* \"#utility.yul\":21578:21596   */\n      0x44\n      dup3\n      add\n        /* \"#utility.yul\":21571:21622   */\n      mstore\n        /* \"#utility.yul\":21639:21657   */\n      0x64\n      add\n        /* \"@openzeppelin/contracts-upgradeable/token/ERC20/extensions/ERC20CappedUpgradeable.sol\":780:822  require(cap_ > 0, \"ERC20Capped: cap is 0\") */\n      tag_202\n        /* \"#utility.yul\":21318:21663   */\n      jump\n        /* \"@openzeppelin/contracts-upgradeable/token/ERC20/extensions/ERC20CappedUpgradeable.sol\":780:822  require(cap_ > 0, \"ERC20Capped: cap is 0\") */\n    tag_477:\n        /* \"@openzeppelin/contracts-upgradeable/token/ERC20/extensions/ERC20CappedUpgradeable.sol\":832:836  _cap */\n      0x65\n        /* \"@openzeppelin/contracts-upgradeable/token/ERC20/extensions/ERC20CappedUpgradeable.sol\":832:843  _cap = cap_ */\n      sstore\n        /* \"@openzeppelin/contracts-upgradeable/token/ERC20/extensions/ERC20CappedUpgradeable.sol\":692:850  function __ERC20Capped_init_unchained(uint256 cap_) internal onlyInitializing {... */\n      jump\t// out\n        /* \"@openzeppelin/contracts-upgradeable/token/ERC20/ERC20Upgradeable.sol\":8904:9439  function _mint(address account, uint256 amount) internal virtual {... */\n    tag_411:\n      sub(shl(0xa0, 0x01), 0x01)\n        /* \"@openzeppelin/contracts-upgradeable/token/ERC20/ERC20Upgradeable.sol\":8987:9008  account != address(0) */\n      dup3\n      and\n        /* \"@openzeppelin/contracts-upgradeable/token/ERC20/ERC20Upgradeable.sol\":8979:9044  require(account != address(0), \"ERC20: mint to the zero address\") */\n      tag_481\n      jumpi\n      mload(0x40)\n      shl(0xe5, 0x461bcd)\n      dup2\n      mstore\n        /* \"#utility.yul\":21870:21872   */\n      0x20\n        /* \"@openzeppelin/contracts-upgradeable/token/ERC20/ERC20Upgradeable.sol\":8979:9044  require(account != address(0), \"ERC20: mint to the zero address\") */\n      0x04\n      dup3\n      add\n        /* \"#utility.yul\":21852:21873   */\n      mstore\n        /* \"#utility.yul\":21909:21911   */\n      0x1f\n        /* \"#utility.yul\":21889:21907   */\n      0x24\n      dup3\n      add\n        /* \"#utility.yul\":21882:21912   */\n      mstore\n        /* \"#utility.yul\":21948:21981   */\n      0x45524332303a206d696e7420746f20746865207a65726f206164647265737300\n        /* \"#utility.yul\":21928:21946   */\n      0x44\n      dup3\n      add\n        /* \"#utility.yul\":21921:21982   */\n      mstore\n        /* \"#utility.yul\":21999:22017   */\n      0x64\n      add\n        /* \"@openzeppelin/contracts-upgradeable/token/ERC20/ERC20Upgradeable.sol\":8979:9044  require(account != address(0), \"ERC20: mint to the zero address\") */\n      tag_202\n        /* \"#utility.yul\":21668:22023   */\n      jump\n        /* \"@openzeppelin/contracts-upgradeable/token/ERC20/ERC20Upgradeable.sol\":8979:9044  require(account != address(0), \"ERC20: mint to the zero address\") */\n    tag_481:\n        /* \"@openzeppelin/contracts-upgradeable/token/ERC20/ERC20Upgradeable.sol\":9131:9137  amount */\n      dup1\n        /* \"@openzeppelin/contracts-upgradeable/token/ERC20/ERC20Upgradeable.sol\":9115:9127  _totalSupply */\n      0x35\n      0x00\n        /* \"@openzeppelin/contracts-upgradeable/token/ERC20/ERC20Upgradeable.sol\":9115:9137  _totalSupply += amount */\n      dup3\n      dup3\n      sload\n      tag_485\n      swap2\n      swap1\n      tag_251\n      jump\t// in\n    tag_485:\n      swap1\n      swap2\n      sstore\n      pop\n      pop\n      sub(shl(0xa0, 0x01), 0x01)\n        /* \"@openzeppelin/contracts-upgradeable/token/ERC20/ERC20Upgradeable.sol\":9283:9301  _balances[account] */\n      dup3\n      and\n      0x00\n      dup2\n      dup2\n      mstore\n        /* \"@openzeppelin/contracts-upgradeable/token/ERC20/ERC20Upgradeable.sol\":9283:9292  _balances */\n      0x33\n        /* \"@openzeppelin/contracts-upgradeable/token/ERC20/ERC20Upgradeable.sol\":9283:9301  _balances[account] */\n      0x20\n      swap1\n      dup2\n      mstore\n      0x40\n      dup1\n      dup4\n      keccak256\n        /* \"@openzeppelin/contracts-upgradeable/token/ERC20/ERC20Upgradeable.sol\":9283:9311  _balances[account] += amount */\n      dup1\n      sload\n      dup7\n      add\n      swap1\n      sstore\n        /* \"@openzeppelin/contracts-upgradeable/token/ERC20/ERC20Upgradeable.sol\":9336:9373  Transfer(address(0), account, amount) */\n      mload\n        /* \"#utility.yul\":1662:1687   */\n      dup5\n      dup2\n      mstore\n        /* \"@openzeppelin/contracts-upgradeable/token/ERC20/ERC20Upgradeable.sol\":9336:9373  Transfer(address(0), account, amount) */\n      0xddf252ad1be2c89b69c2b068fc378daa952ba7f163c4a11628f55a4df523b3ef\n      swap2\n        /* \"#utility.yul\":1635:1653   */\n      add\n        /* \"@openzeppelin/contracts-upgradeable/token/ERC20/ERC20Upgradeable.sol\":9336:9373  Transfer(address(0), account, amount) */\n      mload(0x40)\n      dup1\n      swap2\n      sub\n      swap1\n      log3\n        /* \"token/DeAnt3Token.sol\":4216:4372  function nodeControllerBurn(address account, uint256 amount)... */\n      pop\n      pop\n      jump\t// out\n    tag_237:\n      dup3\n      dup1\n      sload\n      tag_490\n      swap1\n      tag_188\n      jump\t// in\n    tag_490:\n      swap1\n      0x00\n      mstore\n      keccak256(0x00, 0x20)\n      swap1\n      0x1f\n      add\n      0x20\n      swap1\n      div\n      dup2\n      add\n      swap3\n      dup3\n      tag_492\n      jumpi\n      0x00\n      dup6\n      sstore\n      jump(tag_495)\n    tag_492:\n      dup3\n      0x1f\n      lt\n      tag_493\n      jumpi\n      dup1\n      mload\n      not(0xff)\n      and\n      dup4\n      dup1\n      add\n      or\n      dup6\n      sstore\n      jump(tag_495)\n    tag_493:\n      dup3\n      dup1\n      add\n      0x01\n      add\n      dup6\n      sstore\n      dup3\n      iszero\n      tag_495\n      jumpi\n      swap2\n      dup3\n      add\n    tag_494:\n      dup3\n      dup2\n      gt\n      iszero\n      tag_495\n      jumpi\n      dup3\n      mload\n      dup3\n      sstore\n      swap2\n      0x20\n      add\n      swap2\n      swap1\n      0x01\n      add\n      swap1\n      jump(tag_494)\n    tag_495:\n      pop\n      tag_496\n      swap3\n      swap2\n      pop\n      tag_497\n      jump\t// in\n    tag_496:\n      pop\n      swap1\n      jump\t// out\n    tag_280:\n      pop\n      dup1\n      sload\n      0x00\n      dup3\n      sstore\n      swap1\n      0x00\n      mstore\n      keccak256(0x00, 0x20)\n      swap1\n      dup2\n      add\n      swap1\n      tag_283\n      swap2\n      swap1\n      tag_497\n      jump\t// in\n    tag_282:\n      dup3\n      dup1\n      sload\n      dup3\n      dup3\n      sstore\n      swap1\n      0x00\n      mstore\n      keccak256(0x00, 0x20)\n      swap1\n      dup2\n      add\n      swap3\n      dup3\n      iszero\n      tag_495\n      jumpi\n      swap2\n      0x20\n      mul\n      dup3\n      add\n    tag_501:\n      dup3\n      dup2\n      gt\n      iszero\n      tag_495\n      jumpi\n      dup3\n      mload\n      dup3\n      sload\n      not(sub(shl(0xa0, 0x01), 0x01))\n      and\n      sub(shl(0xa0, 0x01), 0x01)\n      swap1\n      swap2\n      and\n      or\n      dup3\n      sstore\n      0x20\n      swap1\n      swap3\n      add\n      swap2\n      0x01\n      swap1\n      swap2\n      add\n      swap1\n      jump(tag_501)\n    tag_497:\n    tag_504:\n      dup1\n      dup3\n      gt\n      iszero\n      tag_496\n      jumpi\n      0x00\n      dup2\n      sstore\n      0x01\n      add\n      jump(tag_504)\n        /* \"#utility.yul\":14:611   */\n    tag_46:\n        /* \"#utility.yul\":126:130   */\n      0x00\n        /* \"#utility.yul\":155:157   */\n      0x20\n        /* \"#utility.yul\":184:186   */\n      dup1\n        /* \"#utility.yul\":173:182   */\n      dup4\n        /* \"#utility.yul\":166:187   */\n      mstore\n        /* \"#utility.yul\":216:222   */\n      dup4\n        /* \"#utility.yul\":210:223   */\n      mload\n        /* \"#utility.yul\":259:265   */\n      dup1\n        /* \"#utility.yul\":254:256   */\n      dup3\n        /* \"#utility.yul\":243:252   */\n      dup6\n        /* \"#utility.yul\":239:257   */\n      add\n        /* \"#utility.yul\":232:266   */\n      mstore\n        /* \"#utility.yul\":284:285   */\n      0x00\n        /* \"#utility.yul\":294:434   */\n    tag_518:\n        /* \"#utility.yul\":308:314   */\n      dup2\n        /* \"#utility.yul\":305:306   */\n      dup2\n        /* \"#utility.yul\":302:315   */\n      lt\n        /* \"#utility.yul\":294:434   */\n      iszero\n      tag_520\n      jumpi\n        /* \"#utility.yul\":403:417   */\n      dup6\n      dup2\n      add\n        /* \"#utility.yul\":399:422   */\n      dup4\n      add\n        /* \"#utility.yul\":393:423   */\n      mload\n        /* \"#utility.yul\":369:386   */\n      dup6\n      dup3\n      add\n        /* \"#utility.yul\":388:390   */\n      0x40\n        /* \"#utility.yul\":365:391   */\n      add\n        /* \"#utility.yul\":358:424   */\n      mstore\n        /* \"#utility.yul\":323:333   */\n      dup3\n      add\n        /* \"#utility.yul\":294:434   */\n      jump(tag_518)\n    tag_520:\n        /* \"#utility.yul\":452:458   */\n      dup2\n        /* \"#utility.yul\":449:450   */\n      dup2\n        /* \"#utility.yul\":446:459   */\n      gt\n        /* \"#utility.yul\":443:534   */\n      iszero\n      tag_521\n      jumpi\n        /* \"#utility.yul\":522:523   */\n      0x00\n        /* \"#utility.yul\":517:519   */\n      0x40\n        /* \"#utility.yul\":508:514   */\n      dup4\n        /* \"#utility.yul\":497:506   */\n      dup8\n        /* \"#utility.yul\":493:515   */\n      add\n        /* \"#utility.yul\":489:520   */\n      add\n        /* \"#utility.yul\":482:524   */\n      mstore\n        /* \"#utility.yul\":443:534   */\n    tag_521:\n      pop\n        /* \"#utility.yul\":595:597   */\n      0x1f\n        /* \"#utility.yul\":574:589   */\n      add\n      not(0x1f)\n        /* \"#utility.yul\":570:599   */\n      and\n        /* \"#utility.yul\":555:600   */\n      swap3\n      swap1\n      swap3\n      add\n        /* \"#utility.yul\":602:604   */\n      0x40\n        /* \"#utility.yul\":551:605   */\n      add\n      swap4\n        /* \"#utility.yul\":14:611   */\n      swap3\n      pop\n      pop\n      pop\n      jump\t// out\n        /* \"#utility.yul\":616:747   */\n    tag_506:\n      sub(shl(0xa0, 0x01), 0x01)\n        /* \"#utility.yul\":691:722   */\n      dup2\n      and\n        /* \"#utility.yul\":681:723   */\n      dup2\n      eq\n        /* \"#utility.yul\":671:741   */\n      tag_283\n      jumpi\n        /* \"#utility.yul\":737:738   */\n      0x00\n        /* \"#utility.yul\":734:735   */\n      dup1\n        /* \"#utility.yul\":727:739   */\n      revert\n        /* \"#utility.yul\":752:999   */\n    tag_50:\n        /* \"#utility.yul\":811:817   */\n      0x00\n        /* \"#utility.yul\":864:866   */\n      0x20\n        /* \"#utility.yul\":852:861   */\n      dup3\n        /* \"#utility.yul\":843:850   */\n      dup5\n        /* \"#utility.yul\":839:862   */\n      sub\n        /* \"#utility.yul\":835:867   */\n      slt\n        /* \"#utility.yul\":832:884   */\n      iszero\n      tag_525\n      jumpi\n        /* \"#utility.yul\":880:881   */\n      0x00\n        /* \"#utility.yul\":877:878   */\n      dup1\n        /* \"#utility.yul\":870:882   */\n      revert\n        /* \"#utility.yul\":832:884   */\n    tag_525:\n        /* \"#utility.yul\":919:928   */\n      dup2\n        /* \"#utility.yul\":906:929   */\n      calldataload\n        /* \"#utility.yul\":938:969   */\n      tag_375\n        /* \"#utility.yul\":963:968   */\n      dup2\n        /* \"#utility.yul\":938:969   */\n      tag_506\n      jump\t// in\n        /* \"#utility.yul\":1196:1511   */\n    tag_57:\n        /* \"#utility.yul\":1264:1270   */\n      0x00\n        /* \"#utility.yul\":1272:1278   */\n      dup1\n        /* \"#utility.yul\":1325:1327   */\n      0x40\n        /* \"#utility.yul\":1313:1322   */\n      dup4\n        /* \"#utility.yul\":1304:1311   */\n      dup6\n        /* \"#utility.yul\":1300:1323   */\n      sub\n        /* \"#utility.yul\":1296:1328   */\n      slt\n        /* \"#utility.yul\":1293:1345   */\n      iszero\n      tag_529\n      jumpi\n        /* \"#utility.yul\":1341:1342   */\n      0x00\n        /* \"#utility.yul\":1338:1339   */\n      dup1\n        /* \"#utility.yul\":1331:1343   */\n      revert\n        /* \"#utility.yul\":1293:1345   */\n    tag_529:\n        /* \"#utility.yul\":1380:1389   */\n      dup3\n        /* \"#utility.yul\":1367:1390   */\n      calldataload\n        /* \"#utility.yul\":1399:1430   */\n      tag_530\n        /* \"#utility.yul\":1424:1429   */\n      dup2\n        /* \"#utility.yul\":1399:1430   */\n      tag_506\n      jump\t// in\n    tag_530:\n        /* \"#utility.yul\":1449:1454   */\n      swap5\n        /* \"#utility.yul\":1501:1503   */\n      0x20\n        /* \"#utility.yul\":1486:1504   */\n      swap4\n      swap1\n      swap4\n      add\n        /* \"#utility.yul\":1473:1505   */\n      calldataload\n      swap4\n      pop\n      pop\n      pop\n        /* \"#utility.yul\":1196:1511   */\n      jump\t// out\n        /* \"#utility.yul\":1698:2154   */\n    tag_77:\n        /* \"#utility.yul\":1775:1781   */\n      0x00\n        /* \"#utility.yul\":1783:1789   */\n      dup1\n        /* \"#utility.yul\":1791:1797   */\n      0x00\n        /* \"#utility.yul\":1844:1846   */\n      0x60\n        /* \"#utility.yul\":1832:1841   */\n      dup5\n        /* \"#utility.yul\":1823:1830   */\n      dup7\n        /* \"#utility.yul\":1819:1842   */\n      sub\n        /* \"#utility.yul\":1815:1847   */\n      slt\n        /* \"#utility.yul\":1812:1864   */\n      iszero\n      tag_533\n      jumpi\n        /* \"#utility.yul\":1860:1861   */\n      0x00\n        /* \"#utility.yul\":1857:1858   */\n      dup1\n        /* \"#utility.yul\":1850:1862   */\n      revert\n        /* \"#utility.yul\":1812:1864   */\n    tag_533:\n        /* \"#utility.yul\":1899:1908   */\n      dup4\n        /* \"#utility.yul\":1886:1909   */\n      calldataload\n        /* \"#utility.yul\":1918:1949   */\n      tag_534\n        /* \"#utility.yul\":1943:1948   */\n      dup2\n        /* \"#utility.yul\":1918:1949   */\n      tag_506\n      jump\t// in\n    tag_534:\n        /* \"#utility.yul\":1968:1973   */\n      swap3\n      pop\n        /* \"#utility.yul\":2025:2027   */\n      0x20\n        /* \"#utility.yul\":2010:2028   */\n      dup5\n      add\n        /* \"#utility.yul\":1997:2029   */\n      calldataload\n        /* \"#utility.yul\":2038:2071   */\n      tag_535\n        /* \"#utility.yul\":1997:2029   */\n      dup2\n        /* \"#utility.yul\":2038:2071   */\n      tag_506\n      jump\t// in\n    tag_535:\n        /* \"#utility.yul\":1698:2154   */\n      swap3\n      swap6\n        /* \"#utility.yul\":2090:2097   */\n      swap3\n      swap5\n      pop\n      pop\n      pop\n        /* \"#utility.yul\":2144:2146   */\n      0x40\n        /* \"#utility.yul\":2129:2147   */\n      swap2\n      swap1\n      swap2\n      add\n        /* \"#utility.yul\":2116:2148   */\n      calldataload\n      swap1\n        /* \"#utility.yul\":1698:2154   */\n      jump\t// out\n        /* \"#utility.yul\":2159:2286   */\n    tag_507:\n        /* \"#utility.yul\":2220:2230   */\n      0x4e487b71\n        /* \"#utility.yul\":2215:2218   */\n      0xe0\n        /* \"#utility.yul\":2211:2231   */\n      shl\n        /* \"#utility.yul\":2208:2209   */\n      0x00\n        /* \"#utility.yul\":2201:2232   */\n      mstore\n        /* \"#utility.yul\":2251:2255   */\n      0x41\n        /* \"#utility.yul\":2248:2249   */\n      0x04\n        /* \"#utility.yul\":2241:2256   */\n      mstore\n        /* \"#utility.yul\":2275:2279   */\n      0x24\n        /* \"#utility.yul\":2272:2273   */\n      0x00\n        /* \"#utility.yul\":2265:2280   */\n      revert\n        /* \"#utility.yul\":2291:2566   */\n    tag_508:\n        /* \"#utility.yul\":2362:2364   */\n      0x40\n        /* \"#utility.yul\":2356:2365   */\n      mload\n        /* \"#utility.yul\":2427:2429   */\n      0x1f\n        /* \"#utility.yul\":2408:2421   */\n      dup3\n      add\n      not(0x1f)\n        /* \"#utility.yul\":2404:2431   */\n      and\n        /* \"#utility.yul\":2392:2432   */\n      dup2\n      add\n      sub(shl(0x40, 0x01), 0x01)\n        /* \"#utility.yul\":2447:2481   */\n      dup2\n      gt\n        /* \"#utility.yul\":2483:2505   */\n      dup3\n      dup3\n      lt\n        /* \"#utility.yul\":2444:2506   */\n      or\n        /* \"#utility.yul\":2441:2529   */\n      iszero\n      tag_539\n      jumpi\n        /* \"#utility.yul\":2509:2527   */\n      tag_539\n      tag_507\n      jump\t// in\n    tag_539:\n        /* \"#utility.yul\":2545:2547   */\n      0x40\n        /* \"#utility.yul\":2538:2560   */\n      mstore\n        /* \"#utility.yul\":2291:2566   */\n      swap2\n      swap1\n      pop\n      jump\t// out\n        /* \"#utility.yul\":2571:3102   */\n    tag_509:\n        /* \"#utility.yul\":2614:2619   */\n      0x00\n        /* \"#utility.yul\":2667:2670   */\n      dup3\n        /* \"#utility.yul\":2660:2664   */\n      0x1f\n        /* \"#utility.yul\":2652:2658   */\n      dup4\n        /* \"#utility.yul\":2648:2665   */\n      add\n        /* \"#utility.yul\":2644:2671   */\n      slt\n        /* \"#utility.yul\":2634:2689   */\n      tag_541\n      jumpi\n        /* \"#utility.yul\":2685:2686   */\n      0x00\n        /* \"#utility.yul\":2682:2683   */\n      dup1\n        /* \"#utility.yul\":2675:2687   */\n      revert\n        /* \"#utility.yul\":2634:2689   */\n    tag_541:\n        /* \"#utility.yul\":2721:2727   */\n      dup2\n        /* \"#utility.yul\":2708:2728   */\n      calldataload\n      sub(shl(0x40, 0x01), 0x01)\n        /* \"#utility.yul\":2743:2745   */\n      dup2\n        /* \"#utility.yul\":2740:2766   */\n      gt\n        /* \"#utility.yul\":2737:2789   */\n      iszero\n      tag_543\n      jumpi\n        /* \"#utility.yul\":2769:2787   */\n      tag_543\n      tag_507\n      jump\t// in\n    tag_543:\n        /* \"#utility.yul\":2813:2868   */\n      tag_544\n        /* \"#utility.yul\":2856:2858   */\n      0x1f\n        /* \"#utility.yul\":2837:2850   */\n      dup3\n      add\n      not(0x1f)\n        /* \"#utility.yul\":2833:2860   */\n      and\n        /* \"#utility.yul\":2862:2866   */\n      0x20\n        /* \"#utility.yul\":2829:2867   */\n      add\n        /* \"#utility.yul\":2813:2868   */\n      tag_508\n      jump\t// in\n    tag_544:\n        /* \"#utility.yul\":2893:2895   */\n      dup2\n        /* \"#utility.yul\":2884:2891   */\n      dup2\n        /* \"#utility.yul\":2877:2896   */\n      mstore\n        /* \"#utility.yul\":2939:2942   */\n      dup5\n        /* \"#utility.yul\":2932:2936   */\n      0x20\n        /* \"#utility.yul\":2927:2929   */\n      dup4\n        /* \"#utility.yul\":2919:2925   */\n      dup7\n        /* \"#utility.yul\":2915:2930   */\n      add\n        /* \"#utility.yul\":2911:2937   */\n      add\n        /* \"#utility.yul\":2908:2943   */\n      gt\n        /* \"#utility.yul\":2905:2960   */\n      iszero\n      tag_545\n      jumpi\n        /* \"#utility.yul\":2956:2957   */\n      0x00\n        /* \"#utility.yul\":2953:2954   */\n      dup1\n        /* \"#utility.yul\":2946:2958   */\n      revert\n        /* \"#utility.yul\":2905:2960   */\n    tag_545:\n        /* \"#utility.yul\":3021:3023   */\n      dup2\n        /* \"#utility.yul\":3014:3018   */\n      0x20\n        /* \"#utility.yul\":3006:3012   */\n      dup6\n        /* \"#utility.yul\":3002:3019   */\n      add\n        /* \"#utility.yul\":2995:2999   */\n      0x20\n        /* \"#utility.yul\":2986:2993   */\n      dup4\n        /* \"#utility.yul\":2982:3000   */\n      add\n        /* \"#utility.yul\":2969:3024   */\n      calldatacopy\n        /* \"#utility.yul\":3069:3070   */\n      0x00\n        /* \"#utility.yul\":3044:3060   */\n      swap2\n      dup2\n      add\n        /* \"#utility.yul\":3062:3066   */\n      0x20\n        /* \"#utility.yul\":3040:3067   */\n      add\n        /* \"#utility.yul\":3033:3071   */\n      swap2\n      swap1\n      swap2\n      mstore\n        /* \"#utility.yul\":3048:3055   */\n      swap4\n        /* \"#utility.yul\":2571:3102   */\n      swap3\n      pop\n      pop\n      pop\n      jump\t// out\n        /* \"#utility.yul\":3107:3263   */\n    tag_510:\n        /* \"#utility.yul\":3173:3193   */\n      dup1\n      calldataload\n        /* \"#utility.yul\":3233:3237   */\n      0xff\n        /* \"#utility.yul\":3222:3238   */\n      dup2\n      and\n        /* \"#utility.yul\":3212:3239   */\n      dup2\n      eq\n        /* \"#utility.yul\":3202:3257   */\n      tag_547\n      jumpi\n        /* \"#utility.yul\":3253:3254   */\n      0x00\n        /* \"#utility.yul\":3250:3251   */\n      dup1\n        /* \"#utility.yul\":3243:3255   */\n      revert\n        /* \"#utility.yul\":3202:3257   */\n    tag_547:\n        /* \"#utility.yul\":3107:3263   */\n      swap2\n      swap1\n      pop\n      jump\t// out\n        /* \"#utility.yul\":3268:4088   */\n    tag_83:\n        /* \"#utility.yul\":3390:3396   */\n      0x00\n        /* \"#utility.yul\":3398:3404   */\n      dup1\n        /* \"#utility.yul\":3406:3412   */\n      0x00\n        /* \"#utility.yul\":3414:3420   */\n      dup1\n        /* \"#utility.yul\":3422:3428   */\n      0x00\n        /* \"#utility.yul\":3430:3436   */\n      dup1\n        /* \"#utility.yul\":3483:3486   */\n      0xc0\n        /* \"#utility.yul\":3471:3480   */\n      dup8\n        /* \"#utility.yul\":3462:3469   */\n      dup10\n        /* \"#utility.yul\":3458:3481   */\n      sub\n        /* \"#utility.yul\":3454:3487   */\n      slt\n        /* \"#utility.yul\":3451:3504   */\n      iszero\n      tag_549\n      jumpi\n        /* \"#utility.yul\":3500:3501   */\n      0x00\n        /* \"#utility.yul\":3497:3498   */\n      dup1\n        /* \"#utility.yul\":3490:3502   */\n      revert\n        /* \"#utility.yul\":3451:3504   */\n    tag_549:\n        /* \"#utility.yul\":3540:3549   */\n      dup7\n        /* \"#utility.yul\":3527:3550   */\n      calldataload\n      sub(shl(0x40, 0x01), 0x01)\n        /* \"#utility.yul\":3610:3612   */\n      dup1\n        /* \"#utility.yul\":3602:3608   */\n      dup3\n        /* \"#utility.yul\":3599:3613   */\n      gt\n        /* \"#utility.yul\":3596:3630   */\n      iszero\n      tag_550\n      jumpi\n        /* \"#utility.yul\":3626:3627   */\n      0x00\n        /* \"#utility.yul\":3623:3624   */\n      dup1\n        /* \"#utility.yul\":3616:3628   */\n      revert\n        /* \"#utility.yul\":3596:3630   */\n    tag_550:\n        /* \"#utility.yul\":3649:3699   */\n      tag_551\n        /* \"#utility.yul\":3691:3698   */\n      dup11\n        /* \"#utility.yul\":3682:3688   */\n      dup4\n        /* \"#utility.yul\":3671:3680   */\n      dup12\n        /* \"#utility.yul\":3667:3689   */\n      add\n        /* \"#utility.yul\":3649:3699   */\n      tag_509\n      jump\t// in\n    tag_551:\n        /* \"#utility.yul\":3639:3699   */\n      swap8\n      pop\n        /* \"#utility.yul\":3752:3754   */\n      0x20\n        /* \"#utility.yul\":3741:3750   */\n      dup10\n        /* \"#utility.yul\":3737:3755   */\n      add\n        /* \"#utility.yul\":3724:3756   */\n      calldataload\n        /* \"#utility.yul\":3708:3756   */\n      swap2\n      pop\n        /* \"#utility.yul\":3781:3783   */\n      dup1\n        /* \"#utility.yul\":3771:3779   */\n      dup3\n        /* \"#utility.yul\":3768:3784   */\n      gt\n        /* \"#utility.yul\":3765:3801   */\n      iszero\n      tag_552\n      jumpi\n        /* \"#utility.yul\":3797:3798   */\n      0x00\n        /* \"#utility.yul\":3794:3795   */\n      dup1\n        /* \"#utility.yul\":3787:3799   */\n      revert\n        /* \"#utility.yul\":3765:3801   */\n    tag_552:\n      pop\n        /* \"#utility.yul\":3820:3872   */\n      tag_553\n        /* \"#utility.yul\":3864:3871   */\n      dup10\n        /* \"#utility.yul\":3853:3861   */\n      dup3\n        /* \"#utility.yul\":3842:3851   */\n      dup11\n        /* \"#utility.yul\":3838:3862   */\n      add\n        /* \"#utility.yul\":3820:3872   */\n      tag_509\n      jump\t// in\n    tag_553:\n        /* \"#utility.yul\":3810:3872   */\n      swap6\n      pop\n      pop\n        /* \"#utility.yul\":3891:3927   */\n      tag_554\n        /* \"#utility.yul\":3923:3925   */\n      0x40\n        /* \"#utility.yul\":3912:3921   */\n      dup9\n        /* \"#utility.yul\":3908:3926   */\n      add\n        /* \"#utility.yul\":3891:3927   */\n      tag_510\n      jump\t// in\n    tag_554:\n        /* \"#utility.yul\":3881:3927   */\n      swap4\n      pop\n        /* \"#utility.yul\":3974:3976   */\n      0x60\n        /* \"#utility.yul\":3963:3972   */\n      dup8\n        /* \"#utility.yul\":3959:3977   */\n      add\n        /* \"#utility.yul\":3946:3978   */\n      calldataload\n        /* \"#utility.yul\":3936:3978   */\n      swap3\n      pop\n        /* \"#utility.yul\":4025:4028   */\n      0x80\n        /* \"#utility.yul\":4014:4023   */\n      dup8\n        /* \"#utility.yul\":4010:4029   */\n      add\n        /* \"#utility.yul\":3997:4030   */\n      calldataload\n        /* \"#utility.yul\":3987:4030   */\n      swap2\n      pop\n        /* \"#utility.yul\":4077:4080   */\n      0xa0\n        /* \"#utility.yul\":4066:4075   */\n      dup8\n        /* \"#utility.yul\":4062:4081   */\n      add\n        /* \"#utility.yul\":4049:4082   */\n      calldataload\n        /* \"#utility.yul\":4039:4082   */\n      swap1\n      pop\n        /* \"#utility.yul\":3268:4088   */\n      swap3\n      swap6\n      pop\n      swap3\n      swap6\n      pop\n      swap3\n      swap6\n      jump\t// out\n        /* \"#utility.yul\":4490:5148   */\n    tag_125:\n        /* \"#utility.yul\":4661:4663   */\n      0x20\n        /* \"#utility.yul\":4713:4734   */\n      dup1\n      dup3\n      mstore\n        /* \"#utility.yul\":4783:4796   */\n      dup3\n      mload\n        /* \"#utility.yul\":4686:4704   */\n      dup3\n      dup3\n      add\n        /* \"#utility.yul\":4805:4827   */\n      dup2\n      swap1\n      mstore\n        /* \"#utility.yul\":4632:4636   */\n      0x00\n      swap2\n        /* \"#utility.yul\":4661:4663   */\n      swap1\n        /* \"#utility.yul\":4884:4899   */\n      dup5\n      dup3\n      add\n      swap1\n        /* \"#utility.yul\":4858:4860   */\n      0x40\n        /* \"#utility.yul\":4843:4861   */\n      dup6\n      add\n      swap1\n        /* \"#utility.yul\":4632:4636   */\n      dup5\n        /* \"#utility.yul\":4927:5122   */\n    tag_558:\n        /* \"#utility.yul\":4941:4947   */\n      dup2\n        /* \"#utility.yul\":4938:4939   */\n      dup2\n        /* \"#utility.yul\":4935:4948   */\n      lt\n        /* \"#utility.yul\":4927:5122   */\n      iszero\n      tag_560\n      jumpi\n        /* \"#utility.yul\":5006:5019   */\n      dup4\n      mload\n      sub(shl(0xa0, 0x01), 0x01)\n        /* \"#utility.yul\":5002:5041   */\n      and\n        /* \"#utility.yul\":4990:5042   */\n      dup4\n      mstore\n        /* \"#utility.yul\":5097:5112   */\n      swap3\n      dup5\n      add\n      swap3\n        /* \"#utility.yul\":5062:5074   */\n      swap2\n      dup5\n      add\n      swap2\n        /* \"#utility.yul\":5038:5039   */\n      0x01\n        /* \"#utility.yul\":4956:4965   */\n      add\n        /* \"#utility.yul\":4927:5122   */\n      jump(tag_558)\n    tag_560:\n      pop\n        /* \"#utility.yul\":5139:5142   */\n      swap1\n      swap7\n        /* \"#utility.yul\":4490:5148   */\n      swap6\n      pop\n      pop\n      pop\n      pop\n      pop\n      pop\n      jump\t// out\n        /* \"#utility.yul\":5153:5336   */\n    tag_511:\n        /* \"#utility.yul\":5213:5217   */\n      0x00\n      sub(shl(0x40, 0x01), 0x01)\n        /* \"#utility.yul\":5238:5244   */\n      dup3\n        /* \"#utility.yul\":5235:5265   */\n      gt\n        /* \"#utility.yul\":5232:5288   */\n      iszero\n      tag_563\n      jumpi\n        /* \"#utility.yul\":5268:5286   */\n      tag_563\n      tag_507\n      jump\t// in\n    tag_563:\n      pop\n        /* \"#utility.yul\":5313:5314   */\n      0x05\n        /* \"#utility.yul\":5309:5323   */\n      shl\n        /* \"#utility.yul\":5325:5329   */\n      0x20\n        /* \"#utility.yul\":5305:5330   */\n      add\n      swap1\n        /* \"#utility.yul\":5153:5336   */\n      jump\t// out\n        /* \"#utility.yul\":5341:6307   */\n    tag_133:\n        /* \"#utility.yul\":5425:5431   */\n      0x00\n        /* \"#utility.yul\":5456:5458   */\n      0x20\n        /* \"#utility.yul\":5499:5501   */\n      dup1\n        /* \"#utility.yul\":5487:5496   */\n      dup4\n        /* \"#utility.yul\":5478:5485   */\n      dup6\n        /* \"#utility.yul\":5474:5497   */\n      sub\n        /* \"#utility.yul\":5470:5502   */\n      slt\n        /* \"#utility.yul\":5467:5519   */\n      iszero\n      tag_565\n      jumpi\n        /* \"#utility.yul\":5515:5516   */\n      0x00\n        /* \"#utility.yul\":5512:5513   */\n      dup1\n        /* \"#utility.yul\":5505:5517   */\n      revert\n        /* \"#utility.yul\":5467:5519   */\n    tag_565:\n        /* \"#utility.yul\":5555:5564   */\n      dup3\n        /* \"#utility.yul\":5542:5565   */\n      calldataload\n      sub(shl(0x40, 0x01), 0x01)\n        /* \"#utility.yul\":5580:5586   */\n      dup2\n        /* \"#utility.yul\":5577:5607   */\n      gt\n        /* \"#utility.yul\":5574:5624   */\n      iszero\n      tag_566\n      jumpi\n        /* \"#utility.yul\":5620:5621   */\n      0x00\n        /* \"#utility.yul\":5617:5618   */\n      dup1\n        /* \"#utility.yul\":5610:5622   */\n      revert\n        /* \"#utility.yul\":5574:5624   */\n    tag_566:\n        /* \"#utility.yul\":5643:5665   */\n      dup4\n      add\n        /* \"#utility.yul\":5696:5700   */\n      0x1f\n        /* \"#utility.yul\":5688:5701   */\n      dup2\n      add\n        /* \"#utility.yul\":5684:5711   */\n      dup6\n      sgt\n        /* \"#utility.yul\":5674:5729   */\n      tag_567\n      jumpi\n        /* \"#utility.yul\":5725:5726   */\n      0x00\n        /* \"#utility.yul\":5722:5723   */\n      dup1\n        /* \"#utility.yul\":5715:5727   */\n      revert\n        /* \"#utility.yul\":5674:5729   */\n    tag_567:\n        /* \"#utility.yul\":5761:5763   */\n      dup1\n        /* \"#utility.yul\":5748:5764   */\n      calldataload\n        /* \"#utility.yul\":5784:5844   */\n      tag_568\n        /* \"#utility.yul\":5800:5843   */\n      tag_569\n        /* \"#utility.yul\":5840:5842   */\n      dup3\n        /* \"#utility.yul\":5800:5843   */\n      tag_511\n      jump\t// in\n    tag_569:\n        /* \"#utility.yul\":5784:5844   */\n      tag_508\n      jump\t// in\n    tag_568:\n        /* \"#utility.yul\":5878:5893   */\n      dup2\n      dup2\n      mstore\n        /* \"#utility.yul\":5960:5961   */\n      0x05\n        /* \"#utility.yul\":5956:5966   */\n      swap2\n      swap1\n      swap2\n      shl\n        /* \"#utility.yul\":5948:5967   */\n      dup3\n      add\n        /* \"#utility.yul\":5944:5972   */\n      dup4\n      add\n      swap1\n        /* \"#utility.yul\":5909:5921   */\n      dup4\n      dup2\n      add\n      swap1\n        /* \"#utility.yul\":5984:6003   */\n      dup8\n      dup4\n      gt\n        /* \"#utility.yul\":5981:6020   */\n      iszero\n      tag_570\n      jumpi\n        /* \"#utility.yul\":6016:6017   */\n      0x00\n        /* \"#utility.yul\":6013:6014   */\n      dup1\n        /* \"#utility.yul\":6006:6018   */\n      revert\n        /* \"#utility.yul\":5981:6020   */\n    tag_570:\n        /* \"#utility.yul\":6040:6051   */\n      swap3\n      dup5\n      add\n      swap3\n        /* \"#utility.yul\":6060:6277   */\n    tag_571:\n        /* \"#utility.yul\":6076:6082   */\n      dup3\n        /* \"#utility.yul\":6071:6074   */\n      dup5\n        /* \"#utility.yul\":6068:6083   */\n      lt\n        /* \"#utility.yul\":6060:6277   */\n      iszero\n      tag_573\n      jumpi\n        /* \"#utility.yul\":6156:6159   */\n      dup4\n        /* \"#utility.yul\":6143:6160   */\n      calldataload\n        /* \"#utility.yul\":6173:6204   */\n      tag_574\n        /* \"#utility.yul\":6198:6203   */\n      dup2\n        /* \"#utility.yul\":6173:6204   */\n      tag_506\n      jump\t// in\n    tag_574:\n        /* \"#utility.yul\":6217:6235   */\n      dup3\n      mstore\n        /* \"#utility.yul\":6093:6105   */\n      swap3\n      dup5\n      add\n      swap3\n        /* \"#utility.yul\":6255:6267   */\n      swap1\n      dup5\n      add\n      swap1\n        /* \"#utility.yul\":6060:6277   */\n      jump(tag_571)\n    tag_573:\n        /* \"#utility.yul\":6296:6301   */\n      swap8\n        /* \"#utility.yul\":5341:6307   */\n      swap7\n      pop\n      pop\n      pop\n      pop\n      pop\n      pop\n      pop\n      jump\t// out\n        /* \"#utility.yul\":6312:6492   */\n    tag_152:\n        /* \"#utility.yul\":6371:6377   */\n      0x00\n        /* \"#utility.yul\":6424:6426   */\n      0x20\n        /* \"#utility.yul\":6412:6421   */\n      dup3\n        /* \"#utility.yul\":6403:6410   */\n      dup5\n        /* \"#utility.yul\":6399:6422   */\n      sub\n        /* \"#utility.yul\":6395:6427   */\n      slt\n        /* \"#utility.yul\":6392:6444   */\n      iszero\n      tag_576\n      jumpi\n        /* \"#utility.yul\":6440:6441   */\n      0x00\n        /* \"#utility.yul\":6437:6438   */\n      dup1\n        /* \"#utility.yul\":6430:6442   */\n      revert\n        /* \"#utility.yul\":6392:6444   */\n    tag_576:\n      pop\n        /* \"#utility.yul\":6463:6486   */\n      calldataload\n      swap2\n        /* \"#utility.yul\":6312:6492   */\n      swap1\n      pop\n      jump\t// out\n        /* \"#utility.yul\":6497:6885   */\n    tag_165:\n        /* \"#utility.yul\":6565:6571   */\n      0x00\n        /* \"#utility.yul\":6573:6579   */\n      dup1\n        /* \"#utility.yul\":6626:6628   */\n      0x40\n        /* \"#utility.yul\":6614:6623   */\n      dup4\n        /* \"#utility.yul\":6605:6612   */\n      dup6\n        /* \"#utility.yul\":6601:6624   */\n      sub\n        /* \"#utility.yul\":6597:6629   */\n      slt\n        /* \"#utility.yul\":6594:6646   */\n      iszero\n      tag_578\n      jumpi\n        /* \"#utility.yul\":6642:6643   */\n      0x00\n        /* \"#utility.yul\":6639:6640   */\n      dup1\n        /* \"#utility.yul\":6632:6644   */\n      revert\n        /* \"#utility.yul\":6594:6646   */\n    tag_578:\n        /* \"#utility.yul\":6681:6690   */\n      dup3\n        /* \"#utility.yul\":6668:6691   */\n      calldataload\n        /* \"#utility.yul\":6700:6731   */\n      tag_579\n        /* \"#utility.yul\":6725:6730   */\n      dup2\n        /* \"#utility.yul\":6700:6731   */\n      tag_506\n      jump\t// in\n    tag_579:\n        /* \"#utility.yul\":6750:6755   */\n      swap2\n      pop\n        /* \"#utility.yul\":6807:6809   */\n      0x20\n        /* \"#utility.yul\":6792:6810   */\n      dup4\n      add\n        /* \"#utility.yul\":6779:6811   */\n      calldataload\n        /* \"#utility.yul\":6820:6853   */\n      tag_580\n        /* \"#utility.yul\":6779:6811   */\n      dup2\n        /* \"#utility.yul\":6820:6853   */\n      tag_506\n      jump\t// in\n    tag_580:\n        /* \"#utility.yul\":6872:6879   */\n      dup1\n        /* \"#utility.yul\":6862:6879   */\n      swap2\n      pop\n      pop\n        /* \"#utility.yul\":6497:6885   */\n      swap3\n      pop\n      swap3\n      swap1\n      pop\n      jump\t// out\n        /* \"#utility.yul\":6890:7552   */\n    tag_512:\n        /* \"#utility.yul\":6944:6949   */\n      0x00\n        /* \"#utility.yul\":6997:7000   */\n      dup3\n        /* \"#utility.yul\":6990:6994   */\n      0x1f\n        /* \"#utility.yul\":6982:6988   */\n      dup4\n        /* \"#utility.yul\":6978:6995   */\n      add\n        /* \"#utility.yul\":6974:7001   */\n      slt\n        /* \"#utility.yul\":6964:7019   */\n      tag_582\n      jumpi\n        /* \"#utility.yul\":7015:7016   */\n      0x00\n        /* \"#utility.yul\":7012:7013   */\n      dup1\n        /* \"#utility.yul\":7005:7017   */\n      revert\n        /* \"#utility.yul\":6964:7019   */\n    tag_582:\n        /* \"#utility.yul\":7051:7057   */\n      dup2\n        /* \"#utility.yul\":7038:7058   */\n      calldataload\n        /* \"#utility.yul\":7077:7081   */\n      0x20\n        /* \"#utility.yul\":7101:7161   */\n      tag_583\n        /* \"#utility.yul\":7117:7160   */\n      tag_569\n        /* \"#utility.yul\":7157:7159   */\n      dup4\n        /* \"#utility.yul\":7117:7160   */\n      tag_511\n      jump\t// in\n        /* \"#utility.yul\":7101:7161   */\n    tag_583:\n        /* \"#utility.yul\":7195:7210   */\n      dup3\n      dup2\n      mstore\n        /* \"#utility.yul\":7281:7282   */\n      0x05\n        /* \"#utility.yul\":7277:7287   */\n      swap3\n      swap1\n      swap3\n      shl\n        /* \"#utility.yul\":7265:7288   */\n      dup5\n      add\n        /* \"#utility.yul\":7261:7293   */\n      dup2\n      add\n      swap2\n        /* \"#utility.yul\":7226:7238   */\n      dup2\n      dup2\n      add\n      swap1\n        /* \"#utility.yul\":7305:7320   */\n      dup7\n      dup5\n      gt\n        /* \"#utility.yul\":7302:7337   */\n      iszero\n      tag_585\n      jumpi\n        /* \"#utility.yul\":7333:7334   */\n      0x00\n        /* \"#utility.yul\":7330:7331   */\n      dup1\n        /* \"#utility.yul\":7323:7335   */\n      revert\n        /* \"#utility.yul\":7302:7337   */\n    tag_585:\n        /* \"#utility.yul\":7369:7371   */\n      dup3\n        /* \"#utility.yul\":7361:7367   */\n      dup7\n        /* \"#utility.yul\":7357:7372   */\n      add\n        /* \"#utility.yul\":7381:7523   */\n    tag_586:\n        /* \"#utility.yul\":7397:7403   */\n      dup5\n        /* \"#utility.yul\":7392:7395   */\n      dup2\n        /* \"#utility.yul\":7389:7404   */\n      lt\n        /* \"#utility.yul\":7381:7523   */\n      iszero\n      tag_588\n      jumpi\n        /* \"#utility.yul\":7463:7480   */\n      dup1\n      calldataload\n        /* \"#utility.yul\":7451:7481   */\n      dup4\n      mstore\n        /* \"#utility.yul\":7501:7513   */\n      swap2\n      dup4\n      add\n      swap2\n        /* \"#utility.yul\":7414:7426   */\n      dup4\n      add\n        /* \"#utility.yul\":7381:7523   */\n      jump(tag_586)\n    tag_588:\n      pop\n        /* \"#utility.yul\":7541:7546   */\n      swap7\n        /* \"#utility.yul\":6890:7552   */\n      swap6\n      pop\n      pop\n      pop\n      pop\n      pop\n      pop\n      jump\t// out\n        /* \"#utility.yul\":7557:9274   */\n    tag_171:\n        /* \"#utility.yul\":7751:7757   */\n      0x00\n        /* \"#utility.yul\":7759:7765   */\n      dup1\n        /* \"#utility.yul\":7767:7773   */\n      0x00\n        /* \"#utility.yul\":7775:7781   */\n      dup1\n        /* \"#utility.yul\":7783:7789   */\n      0x00\n        /* \"#utility.yul\":7791:7797   */\n      dup1\n        /* \"#utility.yul\":7799:7805   */\n      0x00\n        /* \"#utility.yul\":7852:7855   */\n      0xe0\n        /* \"#utility.yul\":7840:7849   */\n      dup9\n        /* \"#utility.yul\":7831:7838   */\n      dup11\n        /* \"#utility.yul\":7827:7850   */\n      sub\n        /* \"#utility.yul\":7823:7856   */\n      slt\n        /* \"#utility.yul\":7820:7873   */\n      iszero\n      tag_590\n      jumpi\n        /* \"#utility.yul\":7869:7870   */\n      0x00\n        /* \"#utility.yul\":7866:7867   */\n      dup1\n        /* \"#utility.yul\":7859:7871   */\n      revert\n        /* \"#utility.yul\":7820:7873   */\n    tag_590:\n        /* \"#utility.yul\":7908:7917   */\n      dup8\n        /* \"#utility.yul\":7895:7918   */\n      calldataload\n        /* \"#utility.yul\":7927:7958   */\n      tag_591\n        /* \"#utility.yul\":7952:7957   */\n      dup2\n        /* \"#utility.yul\":7927:7958   */\n      tag_506\n      jump\t// in\n    tag_591:\n        /* \"#utility.yul\":7977:7982   */\n      swap7\n      pop\n        /* \"#utility.yul\":8001:8003   */\n      0x20\n        /* \"#utility.yul\":8035:8053   */\n      dup9\n      dup2\n      add\n        /* \"#utility.yul\":8022:8054   */\n      calldataload\n      swap7\n      pop\n        /* \"#utility.yul\":8101:8103   */\n      0x40\n        /* \"#utility.yul\":8086:8104   */\n      dup10\n      add\n        /* \"#utility.yul\":8073:8105   */\n      calldataload\n      swap6\n      pop\n        /* \"#utility.yul\":8152:8154   */\n      0x60\n        /* \"#utility.yul\":8137:8155   */\n      dup10\n      add\n        /* \"#utility.yul\":8124:8156   */\n      calldataload\n      swap5\n      pop\n        /* \"#utility.yul\":8207:8210   */\n      0x80\n        /* \"#utility.yul\":8192:8211   */\n      dup10\n      add\n        /* \"#utility.yul\":8179:8212   */\n      calldataload\n      sub(shl(0x40, 0x01), 0x01)\n        /* \"#utility.yul\":8261:8275   */\n      dup1\n      dup3\n      gt\n        /* \"#utility.yul\":8258:8292   */\n      iszero\n      tag_592\n      jumpi\n        /* \"#utility.yul\":8288:8289   */\n      0x00\n        /* \"#utility.yul\":8285:8286   */\n      dup1\n        /* \"#utility.yul\":8278:8290   */\n      revert\n        /* \"#utility.yul\":8258:8292   */\n    tag_592:\n        /* \"#utility.yul\":8326:8332   */\n      dup2\n        /* \"#utility.yul\":8315:8324   */\n      dup12\n        /* \"#utility.yul\":8311:8333   */\n      add\n        /* \"#utility.yul\":8301:8333   */\n      swap2\n      pop\n        /* \"#utility.yul\":8371:8378   */\n      dup12\n        /* \"#utility.yul\":8364:8368   */\n      0x1f\n        /* \"#utility.yul\":8360:8362   */\n      dup4\n        /* \"#utility.yul\":8356:8369   */\n      add\n        /* \"#utility.yul\":8352:8379   */\n      slt\n        /* \"#utility.yul\":8342:8397   */\n      tag_593\n      jumpi\n        /* \"#utility.yul\":8393:8394   */\n      0x00\n        /* \"#utility.yul\":8390:8391   */\n      dup1\n        /* \"#utility.yul\":8383:8395   */\n      revert\n        /* \"#utility.yul\":8342:8397   */\n    tag_593:\n        /* \"#utility.yul\":8429:8431   */\n      dup2\n        /* \"#utility.yul\":8416:8432   */\n      calldataload\n        /* \"#utility.yul\":8452:8512   */\n      tag_594\n        /* \"#utility.yul\":8468:8511   */\n      tag_569\n        /* \"#utility.yul\":8508:8510   */\n      dup3\n        /* \"#utility.yul\":8468:8511   */\n      tag_511\n      jump\t// in\n        /* \"#utility.yul\":8452:8512   */\n    tag_594:\n        /* \"#utility.yul\":8546:8561   */\n      dup2\n      dup2\n      mstore\n        /* \"#utility.yul\":8628:8629   */\n      0x05\n        /* \"#utility.yul\":8624:8634   */\n      swap2\n      swap1\n      swap2\n      shl\n        /* \"#utility.yul\":8616:8635   */\n      dup4\n      add\n        /* \"#utility.yul\":8612:8640   */\n      dup5\n      add\n      swap1\n        /* \"#utility.yul\":8577:8589   */\n      dup5\n      dup2\n      add\n      swap1\n        /* \"#utility.yul\":8652:8671   */\n      dup15\n      dup4\n      gt\n        /* \"#utility.yul\":8649:8688   */\n      iszero\n      tag_596\n      jumpi\n        /* \"#utility.yul\":8684:8685   */\n      0x00\n        /* \"#utility.yul\":8681:8682   */\n      dup1\n        /* \"#utility.yul\":8674:8686   */\n      revert\n        /* \"#utility.yul\":8649:8688   */\n    tag_596:\n        /* \"#utility.yul\":8708:8719   */\n      swap4\n      dup6\n      add\n      swap4\n        /* \"#utility.yul\":8728:8874   */\n    tag_597:\n        /* \"#utility.yul\":8744:8750   */\n      dup3\n        /* \"#utility.yul\":8739:8742   */\n      dup6\n        /* \"#utility.yul\":8736:8751   */\n      lt\n        /* \"#utility.yul\":8728:8874   */\n      iszero\n      tag_599\n      jumpi\n        /* \"#utility.yul\":8810:8831   */\n      tag_600\n        /* \"#utility.yul\":8827:8830   */\n      dup6\n        /* \"#utility.yul\":8810:8831   */\n      tag_510\n      jump\t// in\n    tag_600:\n        /* \"#utility.yul\":8798:8832   */\n      dup3\n      mstore\n        /* \"#utility.yul\":8761:8773   */\n      swap4\n      dup6\n      add\n      swap4\n        /* \"#utility.yul\":8852:8864   */\n      swap1\n      dup6\n      add\n      swap1\n        /* \"#utility.yul\":8728:8874   */\n      jump(tag_597)\n    tag_599:\n        /* \"#utility.yul\":8893:8898   */\n      swap8\n      pop\n      pop\n      pop\n        /* \"#utility.yul\":8951:8954   */\n      0xa0\n        /* \"#utility.yul\":8936:8955   */\n      dup12\n      add\n        /* \"#utility.yul\":8923:8956   */\n      calldataload\n      swap3\n      pop\n        /* \"#utility.yul\":8968:8984   */\n      dup1\n      dup4\n      gt\n        /* \"#utility.yul\":8965:9001   */\n      iszero\n      tag_601\n      jumpi\n        /* \"#utility.yul\":8997:8998   */\n      0x00\n        /* \"#utility.yul\":8994:8995   */\n      dup1\n        /* \"#utility.yul\":8987:8999   */\n      revert\n        /* \"#utility.yul\":8965:9001   */\n    tag_601:\n        /* \"#utility.yul\":9020:9083   */\n      tag_602\n        /* \"#utility.yul\":9075:9082   */\n      dup13\n        /* \"#utility.yul\":9064:9072   */\n      dup5\n        /* \"#utility.yul\":9053:9062   */\n      dup14\n        /* \"#utility.yul\":9049:9073   */\n      add\n        /* \"#utility.yul\":9020:9083   */\n      tag_512\n      jump\t// in\n    tag_602:\n        /* \"#utility.yul\":9010:9083   */\n      swap5\n      pop\n        /* \"#utility.yul\":9136:9139   */\n      0xc0\n        /* \"#utility.yul\":9125:9134   */\n      dup12\n        /* \"#utility.yul\":9121:9140   */\n      add\n        /* \"#utility.yul\":9108:9141   */\n      calldataload\n        /* \"#utility.yul\":9092:9141   */\n      swap3\n      pop\n        /* \"#utility.yul\":9166:9168   */\n      dup1\n        /* \"#utility.yul\":9156:9164   */\n      dup4\n        /* \"#utility.yul\":9153:9169   */\n      gt\n        /* \"#utility.yul\":9150:9186   */\n      iszero\n      tag_603\n      jumpi\n        /* \"#utility.yul\":9182:9183   */\n      0x00\n        /* \"#utility.yul\":9179:9180   */\n      dup1\n        /* \"#utility.yul\":9172:9184   */\n      revert\n        /* \"#utility.yul\":9150:9186   */\n    tag_603:\n      pop\n      pop\n        /* \"#utility.yul\":9205:9268   */\n      tag_604\n        /* \"#utility.yul\":9260:9267   */\n      dup11\n        /* \"#utility.yul\":9249:9257   */\n      dup3\n        /* \"#utility.yul\":9238:9247   */\n      dup12\n        /* \"#utility.yul\":9234:9258   */\n      add\n        /* \"#utility.yul\":9205:9268   */\n      tag_512\n      jump\t// in\n    tag_604:\n        /* \"#utility.yul\":9195:9268   */\n      swap2\n      pop\n      pop\n        /* \"#utility.yul\":7557:9274   */\n      swap3\n      swap6\n      swap9\n      swap2\n      swap5\n      swap8\n      pop\n      swap3\n      swap6\n      pop\n      jump\t// out\n        /* \"#utility.yul\":9279:9659   */\n    tag_188:\n        /* \"#utility.yul\":9358:9359   */\n      0x01\n        /* \"#utility.yul\":9354:9366   */\n      dup2\n      dup2\n      shr\n      swap1\n        /* \"#utility.yul\":9401:9413   */\n      dup3\n      and\n      dup1\n        /* \"#utility.yul\":9422:9483   */\n      tag_606\n      jumpi\n        /* \"#utility.yul\":9476:9480   */\n      0x7f\n        /* \"#utility.yul\":9468:9474   */\n      dup3\n        /* \"#utility.yul\":9464:9481   */\n      and\n        /* \"#utility.yul\":9454:9481   */\n      swap2\n      pop\n        /* \"#utility.yul\":9422:9483   */\n    tag_606:\n        /* \"#utility.yul\":9529:9531   */\n      0x20\n        /* \"#utility.yul\":9521:9527   */\n      dup3\n        /* \"#utility.yul\":9518:9532   */\n      lt\n        /* \"#utility.yul\":9498:9516   */\n      dup2\n        /* \"#utility.yul\":9495:9533   */\n      eq\n        /* \"#utility.yul\":9492:9653   */\n      iszero\n      tag_607\n      jumpi\n        /* \"#utility.yul\":9575:9585   */\n      0x4e487b71\n        /* \"#utility.yul\":9570:9573   */\n      0xe0\n        /* \"#utility.yul\":9566:9586   */\n      shl\n        /* \"#utility.yul\":9563:9564   */\n      0x00\n        /* \"#utility.yul\":9556:9587   */\n      mstore\n        /* \"#utility.yul\":9610:9614   */\n      0x22\n        /* \"#utility.yul\":9607:9608   */\n      0x04\n        /* \"#utility.yul\":9600:9615   */\n      mstore\n        /* \"#utility.yul\":9638:9642   */\n      0x24\n        /* \"#utility.yul\":9635:9636   */\n      0x00\n        /* \"#utility.yul\":9628:9643   */\n      revert\n        /* \"#utility.yul\":9492:9653   */\n    tag_607:\n      pop\n        /* \"#utility.yul\":9279:9659   */\n      swap2\n      swap1\n      pop\n      jump\t// out\n        /* \"#utility.yul\":10074:10201   */\n    tag_513:\n        /* \"#utility.yul\":10135:10145   */\n      0x4e487b71\n        /* \"#utility.yul\":10130:10133   */\n      0xe0\n        /* \"#utility.yul\":10126:10146   */\n      shl\n        /* \"#utility.yul\":10123:10124   */\n      0x00\n        /* \"#utility.yul\":10116:10147   */\n      mstore\n        /* \"#utility.yul\":10166:10170   */\n      0x11\n        /* \"#utility.yul\":10163:10164   */\n      0x04\n        /* \"#utility.yul\":10156:10171   */\n      mstore\n        /* \"#utility.yul\":10190:10194   */\n      0x24\n        /* \"#utility.yul\":10187:10188   */\n      0x00\n        /* \"#utility.yul\":10180:10195   */\n      revert\n        /* \"#utility.yul\":10206:10331   */\n    tag_212:\n        /* \"#utility.yul\":10246:10250   */\n      0x00\n        /* \"#utility.yul\":10274:10275   */\n      dup3\n        /* \"#utility.yul\":10271:10272   */\n      dup3\n        /* \"#utility.yul\":10268:10276   */\n      lt\n        /* \"#utility.yul\":10265:10299   */\n      iszero\n      tag_612\n      jumpi\n        /* \"#utility.yul\":10279:10297   */\n      tag_612\n      tag_513\n      jump\t// in\n    tag_612:\n      pop\n        /* \"#utility.yul\":10316:10325   */\n      sub\n      swap1\n        /* \"#utility.yul\":10206:10331   */\n      jump\t// out\n        /* \"#utility.yul\":10751:11173   */\n    tag_514:\n        /* \"#utility.yul\":10840:10841   */\n      0x01\n        /* \"#utility.yul\":10883:10888   */\n      dup2\n        /* \"#utility.yul\":10840:10841   */\n      dup2\n        /* \"#utility.yul\":10897:11167   */\n    tag_615:\n        /* \"#utility.yul\":10918:10925   */\n      dup1\n        /* \"#utility.yul\":10908:10916   */\n      dup6\n        /* \"#utility.yul\":10905:10926   */\n      gt\n        /* \"#utility.yul\":10897:11167   */\n      iszero\n      tag_617\n      jumpi\n        /* \"#utility.yul\":10977:10981   */\n      dup2\n        /* \"#utility.yul\":10973:10974   */\n      0x00\n        /* \"#utility.yul\":10969:10975   */\n      not\n        /* \"#utility.yul\":10965:10982   */\n      div\n        /* \"#utility.yul\":10959:10963   */\n      dup3\n        /* \"#utility.yul\":10956:10983   */\n      gt\n        /* \"#utility.yul\":10953:11006   */\n      iszero\n      tag_619\n      jumpi\n        /* \"#utility.yul\":10986:11004   */\n      tag_619\n      tag_513\n      jump\t// in\n    tag_619:\n        /* \"#utility.yul\":11036:11043   */\n      dup1\n        /* \"#utility.yul\":11026:11034   */\n      dup6\n        /* \"#utility.yul\":11022:11044   */\n      and\n        /* \"#utility.yul\":11019:11074   */\n      iszero\n      tag_620\n      jumpi\n        /* \"#utility.yul\":11056:11072   */\n      swap2\n      dup2\n      mul\n      swap2\n        /* \"#utility.yul\":11019:11074   */\n    tag_620:\n        /* \"#utility.yul\":11135:11157   */\n      swap4\n      dup5\n      shr\n      swap4\n        /* \"#utility.yul\":11095:11110   */\n      swap1\n      dup1\n      mul\n      swap1\n        /* \"#utility.yul\":10897:11167   */\n      jump(tag_615)\n    tag_617:\n        /* \"#utility.yul\":10901:10904   */\n      pop\n        /* \"#utility.yul\":10751:11173   */\n      swap3\n      pop\n      swap3\n      swap1\n      pop\n      jump\t// out\n        /* \"#utility.yul\":11178:11984   */\n    tag_515:\n        /* \"#utility.yul\":11227:11232   */\n      0x00\n        /* \"#utility.yul\":11257:11265   */\n      dup3\n        /* \"#utility.yul\":11247:11327   */\n      tag_622\n      jumpi\n      pop\n        /* \"#utility.yul\":11298:11299   */\n      0x01\n        /* \"#utility.yul\":11312:11317   */\n      jump(tag_194)\n        /* \"#utility.yul\":11247:11327   */\n    tag_622:\n        /* \"#utility.yul\":11346:11350   */\n      dup2\n        /* \"#utility.yul\":11336:11412   */\n      tag_623\n      jumpi\n      pop\n        /* \"#utility.yul\":11383:11384   */\n      0x00\n        /* \"#utility.yul\":11397:11402   */\n      jump(tag_194)\n        /* \"#utility.yul\":11336:11412   */\n    tag_623:\n        /* \"#utility.yul\":11428:11432   */\n      dup2\n        /* \"#utility.yul\":11446:11447   */\n      0x01\n        /* \"#utility.yul\":11441:11500   */\n      dup2\n      eq\n      tag_625\n      jumpi\n        /* \"#utility.yul\":11514:11515   */\n      0x02\n        /* \"#utility.yul\":11509:11639   */\n      dup2\n      eq\n      tag_626\n      jumpi\n        /* \"#utility.yul\":11421:11639   */\n      jump(tag_624)\n        /* \"#utility.yul\":11441:11500   */\n    tag_625:\n        /* \"#utility.yul\":11471:11472   */\n      0x01\n        /* \"#utility.yul\":11462:11472   */\n      swap2\n      pop\n        /* \"#utility.yul\":11485:11490   */\n      pop\n      jump(tag_194)\n        /* \"#utility.yul\":11509:11639   */\n    tag_626:\n        /* \"#utility.yul\":11546:11549   */\n      0xff\n        /* \"#utility.yul\":11536:11544   */\n      dup5\n        /* \"#utility.yul\":11533:11550   */\n      gt\n        /* \"#utility.yul\":11530:11573   */\n      iszero\n      tag_628\n      jumpi\n        /* \"#utility.yul\":11553:11571   */\n      tag_628\n      tag_513\n      jump\t// in\n    tag_628:\n      pop\n      pop\n        /* \"#utility.yul\":11609:11610   */\n      0x01\n        /* \"#utility.yul\":11595:11611   */\n      dup3\n      shl\n        /* \"#utility.yul\":11624:11629   */\n      jump(tag_194)\n        /* \"#utility.yul\":11421:11639   */\n    tag_624:\n      pop\n        /* \"#utility.yul\":11723:11725   */\n      0x20\n        /* \"#utility.yul\":11713:11721   */\n      dup4\n        /* \"#utility.yul\":11710:11726   */\n      lt\n        /* \"#utility.yul\":11704:11707   */\n      0x0133\n        /* \"#utility.yul\":11698:11702   */\n      dup4\n        /* \"#utility.yul\":11695:11708   */\n      lt\n        /* \"#utility.yul\":11691:11727   */\n      and\n        /* \"#utility.yul\":11685:11687   */\n      0x4e\n        /* \"#utility.yul\":11675:11683   */\n      dup5\n        /* \"#utility.yul\":11672:11688   */\n      lt\n        /* \"#utility.yul\":11667:11669   */\n      0x0b\n        /* \"#utility.yul\":11661:11665   */\n      dup5\n        /* \"#utility.yul\":11658:11670   */\n      lt\n        /* \"#utility.yul\":11654:11689   */\n      and\n        /* \"#utility.yul\":11651:11728   */\n      or\n        /* \"#utility.yul\":11648:11807   */\n      iszero\n      tag_629\n      jumpi\n      pop\n        /* \"#utility.yul\":11760:11779   */\n      dup2\n      dup2\n      exp\n        /* \"#utility.yul\":11792:11797   */\n      jump(tag_194)\n        /* \"#utility.yul\":11648:11807   */\n    tag_629:\n        /* \"#utility.yul\":11839:11873   */\n      tag_630\n        /* \"#utility.yul\":11864:11872   */\n      dup4\n        /* \"#utility.yul\":11858:11862   */\n      dup4\n        /* \"#utility.yul\":11839:11873   */\n      tag_514\n      jump\t// in\n    tag_630:\n        /* \"#utility.yul\":11909:11915   */\n      dup1\n        /* \"#utility.yul\":11905:11906   */\n      0x00\n        /* \"#utility.yul\":11901:11907   */\n      not\n        /* \"#utility.yul\":11897:11916   */\n      div\n        /* \"#utility.yul\":11888:11895   */\n      dup3\n        /* \"#utility.yul\":11885:11917   */\n      gt\n        /* \"#utility.yul\":11882:11940   */\n      iszero\n      tag_632\n      jumpi\n        /* \"#utility.yul\":11920:11938   */\n      tag_632\n      tag_513\n      jump\t// in\n    tag_632:\n        /* \"#utility.yul\":11958:11978   */\n      mul\n      swap4\n        /* \"#utility.yul\":11178:11984   */\n      swap3\n      pop\n      pop\n      pop\n      jump\t// out\n        /* \"#utility.yul\":11989:12129   */\n    tag_232:\n        /* \"#utility.yul\":12047:12052   */\n      0x00\n        /* \"#utility.yul\":12076:12123   */\n      tag_375\n        /* \"#utility.yul\":12117:12121   */\n      0xff\n        /* \"#utility.yul\":12107:12115   */\n      dup5\n        /* \"#utility.yul\":12103:12122   */\n      and\n        /* \"#utility.yul\":12097:12101   */\n      dup4\n        /* \"#utility.yul\":12076:12123   */\n      tag_515\n      jump\t// in\n        /* \"#utility.yul\":12134:12302   */\n    tag_234:\n        /* \"#utility.yul\":12174:12181   */\n      0x00\n        /* \"#utility.yul\":12240:12241   */\n      dup2\n        /* \"#utility.yul\":12236:12237   */\n      0x00\n        /* \"#utility.yul\":12232:12238   */\n      not\n        /* \"#utility.yul\":12228:12242   */\n      div\n        /* \"#utility.yul\":12225:12226   */\n      dup4\n        /* \"#utility.yul\":12222:12243   */\n      gt\n        /* \"#utility.yul\":12217:12218   */\n      dup3\n        /* \"#utility.yul\":12210:12219   */\n      iszero\n        /* \"#utility.yul\":12203:12220   */\n      iszero\n        /* \"#utility.yul\":12199:12244   */\n      and\n        /* \"#utility.yul\":12196:12267   */\n      iszero\n      tag_637\n      jumpi\n        /* \"#utility.yul\":12247:12265   */\n      tag_637\n      tag_513\n      jump\t// in\n    tag_637:\n      pop\n        /* \"#utility.yul\":12287:12296   */\n      mul\n      swap1\n        /* \"#utility.yul\":12134:12302   */\n      jump\t// out\n        /* \"#utility.yul\":12506:12634   */\n    tag_251:\n        /* \"#utility.yul\":12546:12549   */\n      0x00\n        /* \"#utility.yul\":12577:12578   */\n      dup3\n        /* \"#utility.yul\":12573:12579   */\n      not\n        /* \"#utility.yul\":12570:12571   */\n      dup3\n        /* \"#utility.yul\":12567:12580   */\n      gt\n        /* \"#utility.yul\":12564:12603   */\n      iszero\n      tag_641\n      jumpi\n        /* \"#utility.yul\":12583:12601   */\n      tag_641\n      tag_513\n      jump\t// in\n    tag_641:\n      pop\n        /* \"#utility.yul\":12619:12628   */\n      add\n      swap1\n        /* \"#utility.yul\":12506:12634   */\n      jump\t// out\n        /* \"#utility.yul\":14543:14670   */\n    tag_324:\n        /* \"#utility.yul\":14604:14614   */\n      0x4e487b71\n        /* \"#utility.yul\":14599:14602   */\n      0xe0\n        /* \"#utility.yul\":14595:14615   */\n      shl\n        /* \"#utility.yul\":14592:14593   */\n      0x00\n        /* \"#utility.yul\":14585:14616   */\n      mstore\n        /* \"#utility.yul\":14635:14639   */\n      0x32\n        /* \"#utility.yul\":14632:14633   */\n      0x04\n        /* \"#utility.yul\":14625:14640   */\n      mstore\n        /* \"#utility.yul\":14659:14663   */\n      0x24\n        /* \"#utility.yul\":14656:14657   */\n      0x00\n        /* \"#utility.yul\":14649:14664   */\n      revert\n        /* \"#utility.yul\":15078:15253   */\n    tag_336:\n        /* \"#utility.yul\":15115:15118   */\n      0x00\n        /* \"#utility.yul\":15159:15163   */\n      0xff\n        /* \"#utility.yul\":15152:15157   */\n      dup3\n        /* \"#utility.yul\":15148:15164   */\n      and\n        /* \"#utility.yul\":15188:15192   */\n      0xff\n        /* \"#utility.yul\":15179:15186   */\n      dup2\n        /* \"#utility.yul\":15176:15193   */\n      eq\n        /* \"#utility.yul\":15173:15216   */\n      iszero\n      tag_650\n      jumpi\n        /* \"#utility.yul\":15196:15214   */\n      tag_650\n      tag_513\n      jump\t// in\n    tag_650:\n        /* \"#utility.yul\":15245:15246   */\n      0x01\n        /* \"#utility.yul\":15232:15247   */\n      add\n      swap3\n        /* \"#utility.yul\":15078:15253   */\n      swap2\n      pop\n      pop\n      jump\t// out\n        /* \"#utility.yul\":15258:15467   */\n    tag_338:\n        /* \"#utility.yul\":15296:15299   */\n      0x00\n      sub(shl(0x40, 0x01), 0x01)\n        /* \"#utility.yul\":15377:15379   */\n      dup1\n        /* \"#utility.yul\":15370:15375   */\n      dup4\n        /* \"#utility.yul\":15366:15380   */\n      and\n        /* \"#utility.yul\":15404:15406   */\n      dup2\n        /* \"#utility.yul\":15395:15402   */\n      dup2\n        /* \"#utility.yul\":15392:15407   */\n      eq\n        /* \"#utility.yul\":15389:15430   */\n      iszero\n      tag_653\n      jumpi\n        /* \"#utility.yul\":15410:15428   */\n      tag_653\n      tag_513\n      jump\t// in\n    tag_653:\n        /* \"#utility.yul\":15459:15460   */\n      0x01\n        /* \"#utility.yul\":15446:15461   */\n      add\n      swap4\n        /* \"#utility.yul\":15258:15467   */\n      swap3\n      pop\n      pop\n      pop\n      jump\t// out\n        /* \"#utility.yul\":17589:17806   */\n    tag_376:\n        /* \"#utility.yul\":17629:17630   */\n      0x00\n        /* \"#utility.yul\":17655:17656   */\n      dup3\n        /* \"#utility.yul\":17645:17777   */\n      tag_661\n      jumpi\n        /* \"#utility.yul\":17699:17709   */\n      0x4e487b71\n        /* \"#utility.yul\":17694:17697   */\n      0xe0\n        /* \"#utility.yul\":17690:17710   */\n      shl\n        /* \"#utility.yul\":17687:17688   */\n      0x00\n        /* \"#utility.yul\":17680:17711   */\n      mstore\n        /* \"#utility.yul\":17734:17738   */\n      0x12\n        /* \"#utility.yul\":17731:17732   */\n      0x04\n        /* \"#utility.yul\":17724:17739   */\n      mstore\n        /* \"#utility.yul\":17762:17766   */\n      0x24\n        /* \"#utility.yul\":17759:17760   */\n      0x00\n        /* \"#utility.yul\":17752:17767   */\n      revert\n        /* \"#utility.yul\":17645:17777   */\n    tag_661:\n      pop\n        /* \"#utility.yul\":17791:17800   */\n      div\n      swap1\n        /* \"#utility.yul\":17589:17806   */\n      jump\t// out\n        /* \"#utility.yul\":17811:18218   */\n    tag_387:\n        /* \"#utility.yul\":18013:18015   */\n      0x20\n        /* \"#utility.yul\":17995:18016   */\n      dup1\n      dup3\n      mstore\n        /* \"#utility.yul\":18052:18054   */\n      0x2b\n        /* \"#utility.yul\":18032:18050   */\n      swap1\n      dup3\n      add\n        /* \"#utility.yul\":18025:18055   */\n      mstore\n        /* \"#utility.yul\":18091:18125   */\n      0x496e697469616c697a61626c653a20636f6e7472616374206973206e6f742069\n        /* \"#utility.yul\":18086:18088   */\n      0x40\n        /* \"#utility.yul\":18071:18089   */\n      dup3\n      add\n        /* \"#utility.yul\":18064:18126   */\n      mstore\n      shl(0xa8, 0x6e697469616c697a696e67)\n        /* \"#utility.yul\":18157:18159   */\n      0x60\n        /* \"#utility.yul\":18142:18160   */\n      dup3\n      add\n        /* \"#utility.yul\":18135:18176   */\n      mstore\n        /* \"#utility.yul\":18208:18211   */\n      0x80\n        /* \"#utility.yul\":18193:18212   */\n      add\n      swap1\n        /* \"#utility.yul\":17811:18218   */\n      jump\t// out\n\n    auxdata: 0xa26469706673582212208f0bb704849656487fe573f454050a5723a0ced3510d81906c81dc646df9836f64736f6c634300080c0033\n}\n",
				"bytecode": {
					"linkReferences": {},
					"object": "608060405234801561001057600080fd5b50612142806100206000396000f3fe6080604052600436106101d15760003560e01c80638da5cb5b116100f7578063b24a089311610095578063e4c97e6a11610064578063e4c97e6a1461055b578063f2fde38b1461057b578063f66608fe1461059b578063f9342285146105b057600080fd5b8063b24a0893146104e5578063c4081a4c14610505578063d89135cd14610525578063dd62ed3e1461053b57600080fd5b8063a3772662116100d1578063a377266214610470578063a457c2d714610490578063a9059cbb146104b0578063ac7fa3c6146104d057600080fd5b80638da5cb5b1461041157806394cf795e1461043957806395d89b411461045b57600080fd5b80632b9a1d3c1161016f5780633de47e321161013e5780633de47e32146103765780634cdbab5b146103a657806370a08231146103c6578063715018a6146103fc57600080fd5b80632b9a1d3c146102ff578063313ce5671461031f578063355274ea14610341578063395093511461035657600080fd5b806318160ddd116101ab57806318160ddd146102715780631e0d4ce9146102905780631e71e435146102bd57806323b872dd146102df57600080fd5b806306fdde03146101dd57806307c351dd14610208578063095ea7b31461025157600080fd5b366101d857005b600080fd5b3480156101e957600080fd5b506101f26105e0565b6040516101ff9190611987565b60405180910390f35b34801561021457600080fd5b506102416102233660046119f1565b6001600160a01b0316600090815260d2602052604090205460ff1690565b60405190151581526020016101ff565b34801561025d57600080fd5b5061024161026c366004611a0e565b610672565b34801561027d57600080fd5b506035545b6040519081526020016101ff565b34801561029c57600080fd5b506102826102ab3660046119f1565b60d46020526000908152604090205481565b3480156102c957600080fd5b506102dd6102d8366004611a0e565b61068c565b005b3480156102eb57600080fd5b506102416102fa366004611a3a565b61070b565b34801561030b57600080fd5b506102dd61031a366004611b46565b610749565b34801561032b57600080fd5b5060cc5460405160ff90911681526020016101ff565b34801561034d57600080fd5b50606554610282565b34801561036257600080fd5b50610241610371366004611a0e565b6108de565b34801561038257600080fd5b506102416103913660046119f1565b60d26020526000908152604090205460ff1681565b3480156103b257600080fd5b506102dd6103c13660046119f1565b610900565b3480156103d257600080fd5b506102826103e13660046119f1565b6001600160a01b031660009081526033602052604090205490565b34801561040857600080fd5b506102dd61092a565b34801561041d57600080fd5b506098546040516001600160a01b0390911681526020016101ff565b34801561044557600080fd5b5061044e61093e565b6040516101ff9190611bd5565b34801561046757600080fd5b506101f261099f565b34801561047c57600080fd5b506102dd61048b366004611c45565b6109ae565b34801561049c57600080fd5b506102416104ab366004611a0e565b610a4d565b3480156104bc57600080fd5b506102416104cb366004611a0e565b610ad3565b3480156104dc57600080fd5b5060cd54610282565b3480156104f157600080fd5b506102dd610500366004611ce3565b610b4c565b34801561051157600080fd5b506102dd610520366004611ce3565b610b59565b34801561053157600080fd5b5061028260d05481565b34801561054757600080fd5b50610282610556366004611cfc565b610b66565b34801561056757600080fd5b506102dd610576366004611d9b565b610b91565b34801561058757600080fd5b506102dd6105963660046119f1565b610f0a565b3480156105a757600080fd5b5060cf54610282565b3480156105bc57600080fd5b506102416105cb366004611ce3565b60d36020526000908152604090205460ff1681565b6060603680546105ef90611eb0565b80601f016020809104026020016040519081016040528092919081815260200182805461061b90611eb0565b80156106685780601f1061063d57610100808354040283529160200191610668565b820191906000526020600020905b81548152906001019060200180831161064b57829003601f168201915b5050505050905090565b600033610680818585610f80565b60019150505b92915050565b60d5546001600160a01b031633146106fd5760405162461bcd60e51b815260206004820152602960248201527f4f6e6c792063616c6c61626c652066726f6d206e6f6465436f6e74726f6c6c656044820152681c90dbdb9d1c9858dd60ba1b60648201526084015b60405180910390fd5b61070782826110a5565b5050565b60008061071783611104565b905061072385826110a5565b600061072f8285611f01565b905061073c868683611128565b5060019695505050505050565b600054610100900460ff16158080156107695750600054600160ff909116105b806107835750303b158015610783575060005460ff166001145b6107e65760405162461bcd60e51b815260206004820152602e60248201527f496e697469616c697a61626c653a20636f6e747261637420697320616c72656160448201526d191e481a5b9a5d1a585b1a5e995960921b60648201526084016106f4565b6000805460ff191660011790558015610809576000805461ff0019166101001790555b610811611141565b61081b8787611170565b61083861082986600a611ffc565b610833908661200b565b6111a1565b865161084b9060ca9060208a019061187b565b50855161085f9060cb90602089019061187b565b5060cc805460ff191660ff871617905567016345785d8a000060cd5560ce84905560cf82905561088f30846111d1565b80156108d5576000805461ff0019169055604051600181527f7f26b83ff96e1f2b6a682f133852f6798a09c465da95921460cefb38474024989060200160405180910390a15b50505050505050565b6000336106808185856108f18383610b66565b6108fb919061202a565b610f80565b610908611240565b60d580546001600160a01b0319166001600160a01b0392909216919091179055565b610932611240565b61093c600061129a565b565b606060d180548060200260200160405190810160405280929190818152602001828054801561066857602002820191906000526020600020905b81546001600160a01b03168152600190910190602001808311610978575050505050905090565b6060603780546105ef90611eb0565b6109b6611240565b610a1d60d1805480602002602001604051908101604052809291908181526020018280548015610a0f57602002820191906000526020600020905b81546001600160a01b031681526001909101906020018083116109f1575b5050505050600060d26112ec565b610a2960d160006118ff565b8051610a3c9060d190602084019061191d565b50610a4a81600160d26112ec565b50565b60003381610a5b8286610b66565b905083811015610abb5760405162461bcd60e51b815260206004820152602560248201527f45524332303a2064656372656173656420616c6c6f77616e63652062656c6f77604482015264207a65726f60d81b60648201526084016106f4565b610ac88286868403610f80565b506001949350505050565b6000610ae76098546001600160a01b031690565b6001600160a01b0316336001600160a01b03161415610b1057610b0a838361136a565b50610b43565b6000610b1b83611104565b9050610b2733826110a5565b6000610b338285611f01565b9050610b3f858261136a565b5050505b50600192915050565b610b54611240565b60cd55565b610b61611240565b60cf55565b6001600160a01b03918216600090815260346020908152604080832093909416825291909152205490565b42841015610bd45760405162461bcd60e51b815260206004820152601060248201526f4578706972656420646561646c696e6560801b60448201526064016106f4565b600086815260d3602052604090205460ff1615610c265760405162461bcd60e51b815260206004820152601060248201526f556e697175652069642065786973747360801b60448201526064016106f4565b336000610c3b6098546001600160a01b031690565b604051601960f81b60208201526000602182018190526bffffffffffffffffffffffff19606084811b8216602285015286811b821660368501528d901b16604a830152605e82018a9052607e82018b9052609e820189905291925060be0160405160208183030381529060405280519060200120905060008060005b8851816001600160401b03161015610dfb5760006001858b846001600160401b031681518110610ce957610ce9612042565b60200260200101518b856001600160401b031681518110610d0c57610d0c612042565b60200260200101518b866001600160401b031681518110610d2f57610d2f612042565b602002602001015160405160008152602001604052604051610d6d949392919093845260ff9290921660208401526040830152606082015260800190565b6020604051602081039080840390855afa158015610d8f573d6000803e3d6000fd5b505050602060405103519050836001600160a01b0316816001600160a01b0316118015610dd457506001600160a01b038116600090815260d2602052604090205460ff165b15610de75782610de381612058565b9350505b925080610df381612078565b915050610cb7565b5060d15460ff821614610e425760405162461bcd60e51b815260206004820152600f60248201526e496e76616c6964207369676e65727360881b60448201526064016106f4565b60008b815260d36020526040808220805460ff1916600117905560cd5490516001600160a01b038f1691908381818185875af1925050503d8060008114610ea5576040519150601f19603f3d011682016040523d82523d6000602084013e610eaa565b606091505b5050905080610ef15760405162461bcd60e51b815260206004820152601360248201527208cc2d2d8cac840e8de40e6cadcc8409acac6d606b1b60448201526064016106f4565b610efb8d8c6111d1565b50505050505050505050505050565b610f12611240565b6001600160a01b038116610f775760405162461bcd60e51b815260206004820152602660248201527f4f776e61626c653a206e6577206f776e657220697320746865207a65726f206160448201526564647265737360d01b60648201526084016106f4565b610a4a8161129a565b6001600160a01b038316610fe25760405162461bcd60e51b8152602060048201526024808201527f45524332303a20617070726f76652066726f6d20746865207a65726f206164646044820152637265737360e01b60648201526084016106f4565b6001600160a01b0382166110435760405162461bcd60e51b815260206004820152602260248201527f45524332303a20617070726f766520746f20746865207a65726f206164647265604482015261737360f01b60648201526084016106f4565b6001600160a01b0383811660008181526034602090815260408083209487168084529482529182902085905590518481527f8c5be1e5ebec7d5bd14f71427d1e84f3dd0314c0f7b2291e5b200ac8c7c3b92591015b60405180910390a3505050565b6110af8282611378565b8060d0546110bd919061202a565b60d0556001600160a01b038216600090815260d460205260409020546110e490829061202a565b6001600160a01b03909216600090815260d4602052604090209190915550565b600080606460cf5484611117919061200b565b611121919061209f565b9392505050565b6000336111368582856114a9565b610ac885858561151d565b600054610100900460ff166111685760405162461bcd60e51b81526004016106f4906120c1565b61093c6116c8565b600054610100900460ff166111975760405162461bcd60e51b81526004016106f4906120c1565b61070782826116f8565b600054610100900460ff166111c85760405162461bcd60e51b81526004016106f4906120c1565b610a4a81611746565b606554816111de60355490565b6111e8919061202a565b11156112365760405162461bcd60e51b815260206004820152601960248201527f45524332304361707065643a206361702065786365656465640000000000000060448201526064016106f4565b61070782826117ba565b6098546001600160a01b0316331461093c5760405162461bcd60e51b815260206004820181905260248201527f4f776e61626c653a2063616c6c6572206973206e6f7420746865206f776e657260448201526064016106f4565b609880546001600160a01b038381166001600160a01b0319831681179093556040519116919082907f8be0079c531659141344cd1fd0a4f28419497f9722a3daafe3b4186f6b6457e090600090a35050565b60005b8351816001600160401b03161015611364578282600086846001600160401b03168151811061132057611320612042565b6020908102919091018101516001600160a01b03168252810191909152604001600020805460ff19169115159190911790558061135c81612078565b9150506112ef565b50505050565b60003361068081858561151d565b6001600160a01b0382166113d85760405162461bcd60e51b815260206004820152602160248201527f45524332303a206275726e2066726f6d20746865207a65726f206164647265736044820152607360f81b60648201526084016106f4565b6001600160a01b0382166000908152603360205260409020548181101561144c5760405162461bcd60e51b815260206004820152602260248201527f45524332303a206275726e20616d6f756e7420657863656564732062616c616e604482015261636560f01b60648201526084016106f4565b6001600160a01b03831660008181526033602090815260408083208686039055603580548790039055518581529192917fddf252ad1be2c89b69c2b068fc378daa952ba7f163c4a11628f55a4df523b3ef9101611098565b505050565b60006114b58484610b66565b9050600019811461136457818110156115105760405162461bcd60e51b815260206004820152601d60248201527f45524332303a20696e73756666696369656e7420616c6c6f77616e636500000060448201526064016106f4565b6113648484848403610f80565b6001600160a01b0383166115815760405162461bcd60e51b815260206004820152602560248201527f45524332303a207472616e736665722066726f6d20746865207a65726f206164604482015264647265737360d81b60648201526084016106f4565b6001600160a01b0382166115e35760405162461bcd60e51b815260206004820152602360248201527f45524332303a207472616e7366657220746f20746865207a65726f206164647260448201526265737360e81b60648201526084016106f4565b6001600160a01b0383166000908152603360205260409020548181101561165b5760405162461bcd60e51b815260206004820152602660248201527f45524332303a207472616e7366657220616d6f756e7420657863656564732062604482015265616c616e636560d01b60648201526084016106f4565b6001600160a01b0380851660008181526033602052604080822086860390559286168082529083902080548601905591517fddf252ad1be2c89b69c2b068fc378daa952ba7f163c4a11628f55a4df523b3ef906116bb9086815260200190565b60405180910390a3611364565b600054610100900460ff166116ef5760405162461bcd60e51b81526004016106f4906120c1565b61093c3361129a565b600054610100900460ff1661171f5760405162461bcd60e51b81526004016106f4906120c1565b815161173290603690602085019061187b565b5080516114a490603790602084019061187b565b600054610100900460ff1661176d5760405162461bcd60e51b81526004016106f4906120c1565b600081116117b55760405162461bcd60e51b8152602060048201526015602482015274045524332304361707065643a20636170206973203605c1b60448201526064016106f4565b606555565b6001600160a01b0382166118105760405162461bcd60e51b815260206004820152601f60248201527f45524332303a206d696e7420746f20746865207a65726f20616464726573730060448201526064016106f4565b8060356000828254611822919061202a565b90915550506001600160a01b0382166000818152603360209081526040808320805486019055518481527fddf252ad1be2c89b69c2b068fc378daa952ba7f163c4a11628f55a4df523b3ef910160405180910390a35050565b82805461188790611eb0565b90600052602060002090601f0160209004810192826118a957600085556118ef565b82601f106118c257805160ff19168380011785556118ef565b828001600101855582156118ef579182015b828111156118ef5782518255916020019190600101906118d4565b506118fb929150611972565b5090565b5080546000825590600052602060002090810190610a4a9190611972565b8280548282559060005260206000209081019282156118ef579160200282015b828111156118ef57825182546001600160a01b0319166001600160a01b0390911617825560209092019160019091019061193d565b5b808211156118fb5760008155600101611973565b600060208083528351808285015260005b818110156119b457858101830151858201604001528201611998565b818111156119c6576000604083870101525b50601f01601f1916929092016040019392505050565b6001600160a01b0381168114610a4a57600080fd5b600060208284031215611a0357600080fd5b8135611121816119dc565b60008060408385031215611a2157600080fd5b8235611a2c816119dc565b946020939093013593505050565b600080600060608486031215611a4f57600080fd5b8335611a5a816119dc565b92506020840135611a6a816119dc565b929592945050506040919091013590565b634e487b7160e01b600052604160045260246000fd5b604051601f8201601f191681016001600160401b0381118282101715611ab957611ab9611a7b565b604052919050565b600082601f830112611ad257600080fd5b81356001600160401b03811115611aeb57611aeb611a7b565b611afe601f8201601f1916602001611a91565b818152846020838601011115611b1357600080fd5b816020850160208301376000918101602001919091529392505050565b803560ff81168114611b4157600080fd5b919050565b60008060008060008060c08789031215611b5f57600080fd5b86356001600160401b0380821115611b7657600080fd5b611b828a838b01611ac1565b97506020890135915080821115611b9857600080fd5b50611ba589828a01611ac1565b955050611bb460408801611b30565b9350606087013592506080870135915060a087013590509295509295509295565b6020808252825182820181905260009190848201906040850190845b81811015611c165783516001600160a01b031683529284019291840191600101611bf1565b50909695505050505050565b60006001600160401b03821115611c3b57611c3b611a7b565b5060051b60200190565b60006020808385031215611c5857600080fd5b82356001600160401b03811115611c6e57600080fd5b8301601f81018513611c7f57600080fd5b8035611c92611c8d82611c22565b611a91565b81815260059190911b82018301908381019087831115611cb157600080fd5b928401925b82841015611cd8578335611cc9816119dc565b82529284019290840190611cb6565b979650505050505050565b600060208284031215611cf557600080fd5b5035919050565b60008060408385031215611d0f57600080fd5b8235611d1a816119dc565b91506020830135611d2a816119dc565b809150509250929050565b600082601f830112611d4657600080fd5b81356020611d56611c8d83611c22565b82815260059290921b84018101918181019086841115611d7557600080fd5b8286015b84811015611d905780358352918301918301611d79565b509695505050505050565b600080600080600080600060e0888a031215611db657600080fd5b8735611dc1816119dc565b96506020888101359650604089013595506060890135945060808901356001600160401b0380821115611df357600080fd5b818b0191508b601f830112611e0757600080fd5b8135611e15611c8d82611c22565b81815260059190911b8301840190848101908e831115611e3457600080fd5b938501935b82851015611e5957611e4a85611b30565b82529385019390850190611e39565b9750505060a08b0135925080831115611e7157600080fd5b611e7d8c848d01611d35565b945060c08b0135925080831115611e9357600080fd5b5050611ea18a828b01611d35565b91505092959891949750929550565b600181811c90821680611ec457607f821691505b60208210811415611ee557634e487b7160e01b600052602260045260246000fd5b50919050565b634e487b7160e01b600052601160045260246000fd5b600082821015611f1357611f13611eeb565b500390565b600181815b80851115611f53578160001904821115611f3957611f39611eeb565b80851615611f4657918102915b93841c9390800290611f1d565b509250929050565b600082611f6a57506001610686565b81611f7757506000610686565b8160018114611f8d5760028114611f9757611fb3565b6001915050610686565b60ff841115611fa857611fa8611eeb565b50506001821b610686565b5060208310610133831016604e8410600b8410161715611fd6575081810a610686565b611fe08383611f18565b8060001904821115611ff457611ff4611eeb565b029392505050565b600061112160ff841683611f5b565b600081600019048311821515161561202557612025611eeb565b500290565b6000821982111561203d5761203d611eeb565b500190565b634e487b7160e01b600052603260045260246000fd5b600060ff821660ff81141561206f5761206f611eeb565b60010192915050565b60006001600160401b038083168181141561209557612095611eeb565b6001019392505050565b6000826120bc57634e487b7160e01b600052601260045260246000fd5b500490565b6020808252602b908201527f496e697469616c697a61626c653a20636f6e7472616374206973206e6f74206960408201526a6e697469616c697a696e6760a81b60608201526080019056fea26469706673582212208f0bb704849656487fe573f454050a5723a0ced3510d81906c81dc646df9836f64736f6c634300080c0033",
					"opcodes": "PUSH1 0x80 PUSH1 0x40 MSTORE CALLVALUE DUP1 ISZERO PUSH2 0x10 JUMPI PUSH1 0x0 DUP1 REVERT JUMPDEST POP PUSH2 0x2142 DUP1 PUSH2 0x20 PUSH1 0x0 CODECOPY PUSH1 0x0 RETURN INVALID PUSH1 0x80 PUSH1 0x40 MSTORE PUSH1 0x4 CALLDATASIZE LT PUSH2 0x1D1 JUMPI PUSH1 0x0 CALLDATALOAD PUSH1 0xE0 SHR DUP1 PUSH4 0x8DA5CB5B GT PUSH2 0xF7 JUMPI DUP1 PUSH4 0xB24A0893 GT PUSH2 0x95 JUMPI DUP1 PUSH4 0xE4C97E6A GT PUSH2 0x64 JUMPI DUP1 PUSH4 0xE4C97E6A EQ PUSH2 0x55B JUMPI DUP1 PUSH4 0xF2FDE38B EQ PUSH2 0x57B JUMPI DUP1 PUSH4 0xF66608FE EQ PUSH2 0x59B JUMPI DUP1 PUSH4 0xF9342285 EQ PUSH2 0x5B0 JUMPI PUSH1 0x0 DUP1 REVERT JUMPDEST DUP1 PUSH4 0xB24A0893 EQ PUSH2 0x4E5 JUMPI DUP1 PUSH4 0xC4081A4C EQ PUSH2 0x505 JUMPI DUP1 PUSH4 0xD89135CD EQ PUSH2 0x525 JUMPI DUP1 PUSH4 0xDD62ED3E EQ PUSH2 0x53B JUMPI PUSH1 0x0 DUP1 REVERT JUMPDEST DUP1 PUSH4 0xA3772662 GT PUSH2 0xD1 JUMPI DUP1 PUSH4 0xA3772662 EQ PUSH2 0x470 JUMPI DUP1 PUSH4 0xA457C2D7 EQ PUSH2 0x490 JUMPI DUP1 PUSH4 0xA9059CBB EQ PUSH2 0x4B0 JUMPI DUP1 PUSH4 0xAC7FA3C6 EQ PUSH2 0x4D0 JUMPI PUSH1 0x0 DUP1 REVERT JUMPDEST DUP1 PUSH4 0x8DA5CB5B EQ PUSH2 0x411 JUMPI DUP1 PUSH4 0x94CF795E EQ PUSH2 0x439 JUMPI DUP1 PUSH4 0x95D89B41 EQ PUSH2 0x45B JUMPI PUSH1 0x0 DUP1 REVERT JUMPDEST DUP1 PUSH4 0x2B9A1D3C GT PUSH2 0x16F JUMPI DUP1 PUSH4 0x3DE47E32 GT PUSH2 0x13E JUMPI DUP1 PUSH4 0x3DE47E32 EQ PUSH2 0x376 JUMPI DUP1 PUSH4 0x4CDBAB5B EQ PUSH2 0x3A6 JUMPI DUP1 PUSH4 0x70A08231 EQ PUSH2 0x3C6 JUMPI DUP1 PUSH4 0x715018A6 EQ PUSH2 0x3FC JUMPI PUSH1 0x0 DUP1 REVERT JUMPDEST DUP1 PUSH4 0x2B9A1D3C EQ PUSH2 0x2FF JUMPI DUP1 PUSH4 0x313CE567 EQ PUSH2 0x31F JUMPI DUP1 PUSH4 0x355274EA EQ PUSH2 0x341 JUMPI DUP1 PUSH4 0x39509351 EQ PUSH2 0x356 JUMPI PUSH1 0x0 DUP1 REVERT JUMPDEST DUP1 PUSH4 0x18160DDD GT PUSH2 0x1AB JUMPI DUP1 PUSH4 0x18160DDD EQ PUSH2 0x271 JUMPI DUP1 PUSH4 0x1E0D4CE9 EQ PUSH2 0x290 JUMPI DUP1 PUSH4 0x1E71E435 EQ PUSH2 0x2BD JUMPI DUP1 PUSH4 0x23B872DD EQ PUSH2 0x2DF JUMPI PUSH1 0x0 DUP1 REVERT JUMPDEST DUP1 PUSH4 0x6FDDE03 EQ PUSH2 0x1DD JUMPI DUP1 PUSH4 0x7C351DD EQ PUSH2 0x208 JUMPI DUP1 PUSH4 0x95EA7B3 EQ PUSH2 0x251 JUMPI PUSH1 0x0 DUP1 REVERT JUMPDEST CALLDATASIZE PUSH2 0x1D8 JUMPI STOP JUMPDEST PUSH1 0x0 DUP1 REVERT JUMPDEST CALLVALUE DUP1 ISZERO PUSH2 0x1E9 JUMPI PUSH1 0x0 DUP1 REVERT JUMPDEST POP PUSH2 0x1F2 PUSH2 0x5E0 JUMP JUMPDEST PUSH1 0x40 MLOAD PUSH2 0x1FF SWAP2 SWAP1 PUSH2 0x1987 JUMP JUMPDEST PUSH1 0x40 MLOAD DUP1 SWAP2 SUB SWAP1 RETURN JUMPDEST CALLVALUE DUP1 ISZERO PUSH2 0x214 JUMPI PUSH1 0x0 DUP1 REVERT JUMPDEST POP PUSH2 0x241 PUSH2 0x223 CALLDATASIZE PUSH1 0x4 PUSH2 0x19F1 JUMP JUMPDEST PUSH1 0x1 PUSH1 0x1 PUSH1 0xA0 SHL SUB AND PUSH1 0x0 SWAP1 DUP2 MSTORE PUSH1 0xD2 PUSH1 0x20 MSTORE PUSH1 0x40 SWAP1 KECCAK256 SLOAD PUSH1 0xFF AND SWAP1 JUMP JUMPDEST PUSH1 0x40 MLOAD SWAP1 ISZERO ISZERO DUP2 MSTORE PUSH1 0x20 ADD PUSH2 0x1FF JUMP JUMPDEST CALLVALUE DUP1 ISZERO PUSH2 0x25D JUMPI PUSH1 0x0 DUP1 REVERT JUMPDEST POP PUSH2 0x241 PUSH2 0x26C CALLDATASIZE PUSH1 0x4 PUSH2 0x1A0E JUMP JUMPDEST PUSH2 0x672 JUMP JUMPDEST CALLVALUE DUP1 ISZERO PUSH2 0x27D JUMPI PUSH1 0x0 DUP1 REVERT JUMPDEST POP PUSH1 0x35 SLOAD JUMPDEST PUSH1 0x40 MLOAD SWAP1 DUP2 MSTORE PUSH1 0x20 ADD PUSH2 0x1FF JUMP JUMPDEST CALLVALUE DUP1 ISZERO PUSH2 0x29C JUMPI PUSH1 0x0 DUP1 REVERT JUMPDEST POP PUSH2 0x282 PUSH2 0x2AB CALLDATASIZE PUSH1 0x4 PUSH2 0x19F1 JUMP JUMPDEST PUSH1 0xD4 PUSH1 0x20 MSTORE PUSH1 0x0 SWAP1 DUP2 MSTORE PUSH1 0x40 SWAP1 KECCAK256 SLOAD DUP2 JUMP JUMPDEST CALLVALUE DUP1 ISZERO PUSH2 0x2C9 JUMPI PUSH1 0x0 DUP1 REVERT JUMPDEST POP PUSH2 0x2DD PUSH2 0x2D8 CALLDATASIZE PUSH1 0x4 PUSH2 0x1A0E JUMP JUMPDEST PUSH2 0x68C JUMP JUMPDEST STOP JUMPDEST CALLVALUE DUP1 ISZERO PUSH2 0x2EB JUMPI PUSH1 0x0 DUP1 REVERT JUMPDEST POP PUSH2 0x241 PUSH2 0x2FA CALLDATASIZE PUSH1 0x4 PUSH2 0x1A3A JUMP JUMPDEST PUSH2 0x70B JUMP JUMPDEST CALLVALUE DUP1 ISZERO PUSH2 0x30B JUMPI PUSH1 0x0 DUP1 REVERT JUMPDEST POP PUSH2 0x2DD PUSH2 0x31A CALLDATASIZE PUSH1 0x4 PUSH2 0x1B46 JUMP JUMPDEST PUSH2 0x749 JUMP JUMPDEST CALLVALUE DUP1 ISZERO PUSH2 0x32B JUMPI PUSH1 0x0 DUP1 REVERT JUMPDEST POP PUSH1 0xCC SLOAD PUSH1 0x40 MLOAD PUSH1 0xFF SWAP1 SWAP2 AND DUP2 MSTORE PUSH1 0x20 ADD PUSH2 0x1FF JUMP JUMPDEST CALLVALUE DUP1 ISZERO PUSH2 0x34D JUMPI PUSH1 0x0 DUP1 REVERT JUMPDEST POP PUSH1 0x65 SLOAD PUSH2 0x282 JUMP JUMPDEST CALLVALUE DUP1 ISZERO PUSH2 0x362 JUMPI PUSH1 0x0 DUP1 REVERT JUMPDEST POP PUSH2 0x241 PUSH2 0x371 CALLDATASIZE PUSH1 0x4 PUSH2 0x1A0E JUMP JUMPDEST PUSH2 0x8DE JUMP JUMPDEST CALLVALUE DUP1 ISZERO PUSH2 0x382 JUMPI PUSH1 0x0 DUP1 REVERT JUMPDEST POP PUSH2 0x241 PUSH2 0x391 CALLDATASIZE PUSH1 0x4 PUSH2 0x19F1 JUMP JUMPDEST PUSH1 0xD2 PUSH1 0x20 MSTORE PUSH1 0x0 SWAP1 DUP2 MSTORE PUSH1 0x40 SWAP1 KECCAK256 SLOAD PUSH1 0xFF AND DUP2 JUMP JUMPDEST CALLVALUE DUP1 ISZERO PUSH2 0x3B2 JUMPI PUSH1 0x0 DUP1 REVERT JUMPDEST POP PUSH2 0x2DD PUSH2 0x3C1 CALLDATASIZE PUSH1 0x4 PUSH2 0x19F1 JUMP JUMPDEST PUSH2 0x900 JUMP JUMPDEST CALLVALUE DUP1 ISZERO PUSH2 0x3D2 JUMPI PUSH1 0x0 DUP1 REVERT JUMPDEST POP PUSH2 0x282 PUSH2 0x3E1 CALLDATASIZE PUSH1 0x4 PUSH2 0x19F1 JUMP JUMPDEST PUSH1 0x1 PUSH1 0x1 PUSH1 0xA0 SHL SUB AND PUSH1 0x0 SWAP1 DUP2 MSTORE PUSH1 0x33 PUSH1 0x20 MSTORE PUSH1 0x40 SWAP1 KECCAK256 SLOAD SWAP1 JUMP JUMPDEST CALLVALUE DUP1 ISZERO PUSH2 0x408 JUMPI PUSH1 0x0 DUP1 REVERT JUMPDEST POP PUSH2 0x2DD PUSH2 0x92A JUMP JUMPDEST CALLVALUE DUP1 ISZERO PUSH2 0x41D JUMPI PUSH1 0x0 DUP1 REVERT JUMPDEST POP PUSH1 0x98 SLOAD PUSH1 0x40 MLOAD PUSH1 0x1 PUSH1 0x1 PUSH1 0xA0 SHL SUB SWAP1 SWAP2 AND DUP2 MSTORE PUSH1 0x20 ADD PUSH2 0x1FF JUMP JUMPDEST CALLVALUE DUP1 ISZERO PUSH2 0x445 JUMPI PUSH1 0x0 DUP1 REVERT JUMPDEST POP PUSH2 0x44E PUSH2 0x93E JUMP JUMPDEST PUSH1 0x40 MLOAD PUSH2 0x1FF SWAP2 SWAP1 PUSH2 0x1BD5 JUMP JUMPDEST CALLVALUE DUP1 ISZERO PUSH2 0x467 JUMPI PUSH1 0x0 DUP1 REVERT JUMPDEST POP PUSH2 0x1F2 PUSH2 0x99F JUMP JUMPDEST CALLVALUE DUP1 ISZERO PUSH2 0x47C JUMPI PUSH1 0x0 DUP1 REVERT JUMPDEST POP PUSH2 0x2DD PUSH2 0x48B CALLDATASIZE PUSH1 0x4 PUSH2 0x1C45 JUMP JUMPDEST PUSH2 0x9AE JUMP JUMPDEST CALLVALUE DUP1 ISZERO PUSH2 0x49C JUMPI PUSH1 0x0 DUP1 REVERT JUMPDEST POP PUSH2 0x241 PUSH2 0x4AB CALLDATASIZE PUSH1 0x4 PUSH2 0x1A0E JUMP JUMPDEST PUSH2 0xA4D JUMP JUMPDEST CALLVALUE DUP1 ISZERO PUSH2 0x4BC JUMPI PUSH1 0x0 DUP1 REVERT JUMPDEST POP PUSH2 0x241 PUSH2 0x4CB CALLDATASIZE PUSH1 0x4 PUSH2 0x1A0E JUMP JUMPDEST PUSH2 0xAD3 JUMP JUMPDEST CALLVALUE DUP1 ISZERO PUSH2 0x4DC JUMPI PUSH1 0x0 DUP1 REVERT JUMPDEST POP PUSH1 0xCD SLOAD PUSH2 0x282 JUMP JUMPDEST CALLVALUE DUP1 ISZERO PUSH2 0x4F1 JUMPI PUSH1 0x0 DUP1 REVERT JUMPDEST POP PUSH2 0x2DD PUSH2 0x500 CALLDATASIZE PUSH1 0x4 PUSH2 0x1CE3 JUMP JUMPDEST PUSH2 0xB4C JUMP JUMPDEST CALLVALUE DUP1 ISZERO PUSH2 0x511 JUMPI PUSH1 0x0 DUP1 REVERT JUMPDEST POP PUSH2 0x2DD PUSH2 0x520 CALLDATASIZE PUSH1 0x4 PUSH2 0x1CE3 JUMP JUMPDEST PUSH2 0xB59 JUMP JUMPDEST CALLVALUE DUP1 ISZERO PUSH2 0x531 JUMPI PUSH1 0x0 DUP1 REVERT JUMPDEST POP PUSH2 0x282 PUSH1 0xD0 SLOAD DUP2 JUMP JUMPDEST CALLVALUE DUP1 ISZERO PUSH2 0x547 JUMPI PUSH1 0x0 DUP1 REVERT JUMPDEST POP PUSH2 0x282 PUSH2 0x556 CALLDATASIZE PUSH1 0x4 PUSH2 0x1CFC JUMP JUMPDEST PUSH2 0xB66 JUMP JUMPDEST CALLVALUE DUP1 ISZERO PUSH2 0x567 JUMPI PUSH1 0x0 DUP1 REVERT JUMPDEST POP PUSH2 0x2DD PUSH2 0x576 CALLDATASIZE PUSH1 0x4 PUSH2 0x1D9B JUMP JUMPDEST PUSH2 0xB91 JUMP JUMPDEST CALLVALUE DUP1 ISZERO PUSH2 0x587 JUMPI PUSH1 0x0 DUP1 REVERT JUMPDEST POP PUSH2 0x2DD PUSH2 0x596 CALLDATASIZE PUSH1 0x4 PUSH2 0x19F1 JUMP JUMPDEST PUSH2 0xF0A JUMP JUMPDEST CALLVALUE DUP1 ISZERO PUSH2 0x5A7 JUMPI PUSH1 0x0 DUP1 REVERT JUMPDEST POP PUSH1 0xCF SLOAD PUSH2 0x282 JUMP JUMPDEST CALLVALUE DUP1 ISZERO PUSH2 0x5BC JUMPI PUSH1 0x0 DUP1 REVERT JUMPDEST POP PUSH2 0x241 PUSH2 0x5CB CALLDATASIZE PUSH1 0x4 PUSH2 0x1CE3 JUMP JUMPDEST PUSH1 0xD3 PUSH1 0x20 MSTORE PUSH1 0x0 SWAP1 DUP2 MSTORE PUSH1 0x40 SWAP1 KECCAK256 SLOAD PUSH1 0xFF AND DUP2 JUMP JUMPDEST PUSH1 0x60 PUSH1 0x36 DUP1 SLOAD PUSH2 0x5EF SWAP1 PUSH2 0x1EB0 JUMP JUMPDEST DUP1 PUSH1 0x1F ADD PUSH1 0x20 DUP1 SWAP2 DIV MUL PUSH1 0x20 ADD PUSH1 0x40 MLOAD SWAP1 DUP2 ADD PUSH1 0x40 MSTORE DUP1 SWAP3 SWAP2 SWAP1 DUP2 DUP2 MSTORE PUSH1 0x20 ADD DUP3 DUP1 SLOAD PUSH2 0x61B SWAP1 PUSH2 0x1EB0 JUMP JUMPDEST DUP1 ISZERO PUSH2 0x668 JUMPI DUP1 PUSH1 0x1F LT PUSH2 0x63D JUMPI PUSH2 0x100 DUP1 DUP4 SLOAD DIV MUL DUP4 MSTORE SWAP2 PUSH1 0x20 ADD SWAP2 PUSH2 0x668 JUMP JUMPDEST DUP3 ADD SWAP2 SWAP1 PUSH1 0x0 MSTORE PUSH1 0x20 PUSH1 0x0 KECCAK256 SWAP1 JUMPDEST DUP2 SLOAD DUP2 MSTORE SWAP1 PUSH1 0x1 ADD SWAP1 PUSH1 0x20 ADD DUP1 DUP4 GT PUSH2 0x64B JUMPI DUP3 SWAP1 SUB PUSH1 0x1F AND DUP3 ADD SWAP2 JUMPDEST POP POP POP POP POP SWAP1 POP SWAP1 JUMP JUMPDEST PUSH1 0x0 CALLER PUSH2 0x680 DUP2 DUP6 DUP6 PUSH2 0xF80 JUMP JUMPDEST PUSH1 0x1 SWAP2 POP POP JUMPDEST SWAP3 SWAP2 POP POP JUMP JUMPDEST PUSH1 0xD5 SLOAD PUSH1 0x1 PUSH1 0x1 PUSH1 0xA0 SHL SUB AND CALLER EQ PUSH2 0x6FD JUMPI PUSH1 0x40 MLOAD PUSH3 0x461BCD PUSH1 0xE5 SHL DUP2 MSTORE PUSH1 0x20 PUSH1 0x4 DUP3 ADD MSTORE PUSH1 0x29 PUSH1 0x24 DUP3 ADD MSTORE PUSH32 0x4F6E6C792063616C6C61626C652066726F6D206E6F6465436F6E74726F6C6C65 PUSH1 0x44 DUP3 ADD MSTORE PUSH9 0x1C90DBDB9D1C9858DD PUSH1 0xBA SHL PUSH1 0x64 DUP3 ADD MSTORE PUSH1 0x84 ADD JUMPDEST PUSH1 0x40 MLOAD DUP1 SWAP2 SUB SWAP1 REVERT JUMPDEST PUSH2 0x707 DUP3 DUP3 PUSH2 0x10A5 JUMP JUMPDEST POP POP JUMP JUMPDEST PUSH1 0x0 DUP1 PUSH2 0x717 DUP4 PUSH2 0x1104 JUMP JUMPDEST SWAP1 POP PUSH2 0x723 DUP6 DUP3 PUSH2 0x10A5 JUMP JUMPDEST PUSH1 0x0 PUSH2 0x72F DUP3 DUP6 PUSH2 0x1F01 JUMP JUMPDEST SWAP1 POP PUSH2 0x73C DUP7 DUP7 DUP4 PUSH2 0x1128 JUMP JUMPDEST POP PUSH1 0x1 SWAP7 SWAP6 POP POP POP POP POP POP JUMP JUMPDEST PUSH1 0x0 SLOAD PUSH2 0x100 SWAP1 DIV PUSH1 0xFF AND ISZERO DUP1 DUP1 ISZERO PUSH2 0x769 JUMPI POP PUSH1 0x0 SLOAD PUSH1 0x1 PUSH1 0xFF SWAP1 SWAP2 AND LT JUMPDEST DUP1 PUSH2 0x783 JUMPI POP ADDRESS EXTCODESIZE ISZERO DUP1 ISZERO PUSH2 0x783 JUMPI POP PUSH1 0x0 SLOAD PUSH1 0xFF AND PUSH1 0x1 EQ JUMPDEST PUSH2 0x7E6 JUMPI PUSH1 0x40 MLOAD PUSH3 0x461BCD PUSH1 0xE5 SHL DUP2 MSTORE PUSH1 0x20 PUSH1 0x4 DUP3 ADD MSTORE PUSH1 0x2E PUSH1 0x24 DUP3 ADD MSTORE PUSH32 0x496E697469616C697A61626C653A20636F6E747261637420697320616C726561 PUSH1 0x44 DUP3 ADD MSTORE PUSH14 0x191E481A5B9A5D1A585B1A5E9959 PUSH1 0x92 SHL PUSH1 0x64 DUP3 ADD MSTORE PUSH1 0x84 ADD PUSH2 0x6F4 JUMP JUMPDEST PUSH1 0x0 DUP1 SLOAD PUSH1 0xFF NOT AND PUSH1 0x1 OR SWAP1 SSTORE DUP1 ISZERO PUSH2 0x809 JUMPI PUSH1 0x0 DUP1 SLOAD PUSH2 0xFF00 NOT AND PUSH2 0x100 OR SWAP1 SSTORE JUMPDEST PUSH2 0x811 PUSH2 0x1141 JUMP JUMPDEST PUSH2 0x81B DUP8 DUP8 PUSH2 0x1170 JUMP JUMPDEST PUSH2 0x838 PUSH2 0x829 DUP7 PUSH1 0xA PUSH2 0x1FFC JUMP JUMPDEST PUSH2 0x833 SWAP1 DUP7 PUSH2 0x200B JUMP JUMPDEST PUSH2 0x11A1 JUMP JUMPDEST DUP7 MLOAD PUSH2 0x84B SWAP1 PUSH1 0xCA SWAP1 PUSH1 0x20 DUP11 ADD SWAP1 PUSH2 0x187B JUMP JUMPDEST POP DUP6 MLOAD PUSH2 0x85F SWAP1 PUSH1 0xCB SWAP1 PUSH1 0x20 DUP10 ADD SWAP1 PUSH2 0x187B JUMP JUMPDEST POP PUSH1 0xCC DUP1 SLOAD PUSH1 0xFF NOT AND PUSH1 0xFF DUP8 AND OR SWAP1 SSTORE PUSH8 0x16345785D8A0000 PUSH1 0xCD SSTORE PUSH1 0xCE DUP5 SWAP1 SSTORE PUSH1 0xCF DUP3 SWAP1 SSTORE PUSH2 0x88F ADDRESS DUP5 PUSH2 0x11D1 JUMP JUMPDEST DUP1 ISZERO PUSH2 0x8D5 JUMPI PUSH1 0x0 DUP1 SLOAD PUSH2 0xFF00 NOT AND SWAP1 SSTORE PUSH1 0x40 MLOAD PUSH1 0x1 DUP2 MSTORE PUSH32 0x7F26B83FF96E1F2B6A682F133852F6798A09C465DA95921460CEFB3847402498 SWAP1 PUSH1 0x20 ADD PUSH1 0x40 MLOAD DUP1 SWAP2 SUB SWAP1 LOG1 JUMPDEST POP POP POP POP POP POP POP JUMP JUMPDEST PUSH1 0x0 CALLER PUSH2 0x680 DUP2 DUP6 DUP6 PUSH2 0x8F1 DUP4 DUP4 PUSH2 0xB66 JUMP JUMPDEST PUSH2 0x8FB SWAP2 SWAP1 PUSH2 0x202A JUMP JUMPDEST PUSH2 0xF80 JUMP JUMPDEST PUSH2 0x908 PUSH2 0x1240 JUMP JUMPDEST PUSH1 0xD5 DUP1 SLOAD PUSH1 0x1 PUSH1 0x1 PUSH1 0xA0 SHL SUB NOT AND PUSH1 0x1 PUSH1 0x1 PUSH1 0xA0 SHL SUB SWAP3 SWAP1 SWAP3 AND SWAP2 SWAP1 SWAP2 OR SWAP1 SSTORE JUMP JUMPDEST PUSH2 0x932 PUSH2 0x1240 JUMP JUMPDEST PUSH2 0x93C PUSH1 0x0 PUSH2 0x129A JUMP JUMPDEST JUMP JUMPDEST PUSH1 0x60 PUSH1 0xD1 DUP1 SLOAD DUP1 PUSH1 0x20 MUL PUSH1 0x20 ADD PUSH1 0x40 MLOAD SWAP1 DUP2 ADD PUSH1 0x40 MSTORE DUP1 SWAP3 SWAP2 SWAP1 DUP2 DUP2 MSTORE PUSH1 0x20 ADD DUP3 DUP1 SLOAD DUP1 ISZERO PUSH2 0x668 JUMPI PUSH1 0x20 MUL DUP3 ADD SWAP2 SWAP1 PUSH1 0x0 MSTORE PUSH1 0x20 PUSH1 0x0 KECCAK256 SWAP1 JUMPDEST DUP2 SLOAD PUSH1 0x1 PUSH1 0x1 PUSH1 0xA0 SHL SUB AND DUP2 MSTORE PUSH1 0x1 SWAP1 SWAP2 ADD SWAP1 PUSH1 0x20 ADD DUP1 DUP4 GT PUSH2 0x978 JUMPI POP POP POP POP POP SWAP1 POP SWAP1 JUMP JUMPDEST PUSH1 0x60 PUSH1 0x37 DUP1 SLOAD PUSH2 0x5EF SWAP1 PUSH2 0x1EB0 JUMP JUMPDEST PUSH2 0x9B6 PUSH2 0x1240 JUMP JUMPDEST PUSH2 0xA1D PUSH1 0xD1 DUP1 SLOAD DUP1 PUSH1 0x20 MUL PUSH1 0x20 ADD PUSH1 0x40 MLOAD SWAP1 DUP2 ADD PUSH1 0x40 MSTORE DUP1 SWAP3 SWAP2 SWAP1 DUP2 DUP2 MSTORE PUSH1 0x20 ADD DUP3 DUP1 SLOAD DUP1 ISZERO PUSH2 0xA0F JUMPI PUSH1 0x20 MUL DUP3 ADD SWAP2 SWAP1 PUSH1 0x0 MSTORE PUSH1 0x20 PUSH1 0x0 KECCAK256 SWAP1 JUMPDEST DUP2 SLOAD PUSH1 0x1 PUSH1 0x1 PUSH1 0xA0 SHL SUB AND DUP2 MSTORE PUSH1 0x1 SWAP1 SWAP2 ADD SWAP1 PUSH1 0x20 ADD DUP1 DUP4 GT PUSH2 0x9F1 JUMPI JUMPDEST POP POP POP POP POP PUSH1 0x0 PUSH1 0xD2 PUSH2 0x12EC JUMP JUMPDEST PUSH2 0xA29 PUSH1 0xD1 PUSH1 0x0 PUSH2 0x18FF JUMP JUMPDEST DUP1 MLOAD PUSH2 0xA3C SWAP1 PUSH1 0xD1 SWAP1 PUSH1 0x20 DUP5 ADD SWAP1 PUSH2 0x191D JUMP JUMPDEST POP PUSH2 0xA4A DUP2 PUSH1 0x1 PUSH1 0xD2 PUSH2 0x12EC JUMP JUMPDEST POP JUMP JUMPDEST PUSH1 0x0 CALLER DUP2 PUSH2 0xA5B DUP3 DUP7 PUSH2 0xB66 JUMP JUMPDEST SWAP1 POP DUP4 DUP2 LT ISZERO PUSH2 0xABB JUMPI PUSH1 0x40 MLOAD PUSH3 0x461BCD PUSH1 0xE5 SHL DUP2 MSTORE PUSH1 0x20 PUSH1 0x4 DUP3 ADD MSTORE PUSH1 0x25 PUSH1 0x24 DUP3 ADD MSTORE PUSH32 0x45524332303A2064656372656173656420616C6C6F77616E63652062656C6F77 PUSH1 0x44 DUP3 ADD MSTORE PUSH5 0x207A65726F PUSH1 0xD8 SHL PUSH1 0x64 DUP3 ADD MSTORE PUSH1 0x84 ADD PUSH2 0x6F4 JUMP JUMPDEST PUSH2 0xAC8 DUP3 DUP7 DUP7 DUP5 SUB PUSH2 0xF80 JUMP JUMPDEST POP PUSH1 0x1 SWAP5 SWAP4 POP POP POP POP JUMP JUMPDEST PUSH1 0x0 PUSH2 0xAE7 PUSH1 0x98 SLOAD PUSH1 0x1 PUSH1 0x1 PUSH1 0xA0 SHL SUB AND SWAP1 JUMP JUMPDEST PUSH1 0x1 PUSH1 0x1 PUSH1 0xA0 SHL SUB AND CALLER PUSH1 0x1 PUSH1 0x1 PUSH1 0xA0 SHL SUB AND EQ ISZERO PUSH2 0xB10 JUMPI PUSH2 0xB0A DUP4 DUP4 PUSH2 0x136A JUMP JUMPDEST POP PUSH2 0xB43 JUMP JUMPDEST PUSH1 0x0 PUSH2 0xB1B DUP4 PUSH2 0x1104 JUMP JUMPDEST SWAP1 POP PUSH2 0xB27 CALLER DUP3 PUSH2 0x10A5 JUMP JUMPDEST PUSH1 0x0 PUSH2 0xB33 DUP3 DUP6 PUSH2 0x1F01 JUMP JUMPDEST SWAP1 POP PUSH2 0xB3F DUP6 DUP3 PUSH2 0x136A JUMP JUMPDEST POP POP POP JUMPDEST POP PUSH1 0x1 SWAP3 SWAP2 POP POP JUMP JUMPDEST PUSH2 0xB54 PUSH2 0x1240 JUMP JUMPDEST PUSH1 0xCD SSTORE JUMP JUMPDEST PUSH2 0xB61 PUSH2 0x1240 JUMP JUMPDEST PUSH1 0xCF SSTORE JUMP JUMPDEST PUSH1 0x1 PUSH1 0x1 PUSH1 0xA0 SHL SUB SWAP2 DUP3 AND PUSH1 0x0 SWAP1 DUP2 MSTORE PUSH1 0x34 PUSH1 0x20 SWAP1 DUP2 MSTORE PUSH1 0x40 DUP1 DUP4 KECCAK256 SWAP4 SWAP1 SWAP5 AND DUP3 MSTORE SWAP2 SWAP1 SWAP2 MSTORE KECCAK256 SLOAD SWAP1 JUMP JUMPDEST TIMESTAMP DUP5 LT ISZERO PUSH2 0xBD4 JUMPI PUSH1 0x40 MLOAD PUSH3 0x461BCD PUSH1 0xE5 SHL DUP2 MSTORE PUSH1 0x20 PUSH1 0x4 DUP3 ADD MSTORE PUSH1 0x10 PUSH1 0x24 DUP3 ADD MSTORE PUSH16 0x4578706972656420646561646C696E65 PUSH1 0x80 SHL PUSH1 0x44 DUP3 ADD MSTORE PUSH1 0x64 ADD PUSH2 0x6F4 JUMP JUMPDEST PUSH1 0x0 DUP7 DUP2 MSTORE PUSH1 0xD3 PUSH1 0x20 MSTORE PUSH1 0x40 SWAP1 KECCAK256 SLOAD PUSH1 0xFF AND ISZERO PUSH2 0xC26 JUMPI PUSH1 0x40 MLOAD PUSH3 0x461BCD PUSH1 0xE5 SHL DUP2 MSTORE PUSH1 0x20 PUSH1 0x4 DUP3 ADD MSTORE PUSH1 0x10 PUSH1 0x24 DUP3 ADD MSTORE PUSH16 0x556E6971756520696420657869737473 PUSH1 0x80 SHL PUSH1 0x44 DUP3 ADD MSTORE PUSH1 0x64 ADD PUSH2 0x6F4 JUMP JUMPDEST CALLER PUSH1 0x0 PUSH2 0xC3B PUSH1 0x98 SLOAD PUSH1 0x1 PUSH1 0x1 PUSH1 0xA0 SHL SUB AND SWAP1 JUMP JUMPDEST PUSH1 0x40 MLOAD PUSH1 0x19 PUSH1 0xF8 SHL PUSH1 0x20 DUP3 ADD MSTORE PUSH1 0x0 PUSH1 0x21 DUP3 ADD DUP2 SWAP1 MSTORE PUSH12 0xFFFFFFFFFFFFFFFFFFFFFFFF NOT PUSH1 0x60 DUP5 DUP2 SHL DUP3 AND PUSH1 0x22 DUP6 ADD MSTORE DUP7 DUP2 SHL DUP3 AND PUSH1 0x36 DUP6 ADD MSTORE DUP14 SWAP1 SHL AND PUSH1 0x4A DUP4 ADD MSTORE PUSH1 0x5E DUP3 ADD DUP11 SWAP1 MSTORE PUSH1 0x7E DUP3 ADD DUP12 SWAP1 MSTORE PUSH1 0x9E DUP3 ADD DUP10 SWAP1 MSTORE SWAP2 SWAP3 POP PUSH1 0xBE ADD PUSH1 0x40 MLOAD PUSH1 0x20 DUP2 DUP4 SUB SUB DUP2 MSTORE SWAP1 PUSH1 0x40 MSTORE DUP1 MLOAD SWAP1 PUSH1 0x20 ADD KECCAK256 SWAP1 POP PUSH1 0x0 DUP1 PUSH1 0x0 JUMPDEST DUP9 MLOAD DUP2 PUSH1 0x1 PUSH1 0x1 PUSH1 0x40 SHL SUB AND LT ISZERO PUSH2 0xDFB JUMPI PUSH1 0x0 PUSH1 0x1 DUP6 DUP12 DUP5 PUSH1 0x1 PUSH1 0x1 PUSH1 0x40 SHL SUB AND DUP2 MLOAD DUP2 LT PUSH2 0xCE9 JUMPI PUSH2 0xCE9 PUSH2 0x2042 JUMP JUMPDEST PUSH1 0x20 MUL PUSH1 0x20 ADD ADD MLOAD DUP12 DUP6 PUSH1 0x1 PUSH1 0x1 PUSH1 0x40 SHL SUB AND DUP2 MLOAD DUP2 LT PUSH2 0xD0C JUMPI PUSH2 0xD0C PUSH2 0x2042 JUMP JUMPDEST PUSH1 0x20 MUL PUSH1 0x20 ADD ADD MLOAD DUP12 DUP7 PUSH1 0x1 PUSH1 0x1 PUSH1 0x40 SHL SUB AND DUP2 MLOAD DUP2 LT PUSH2 0xD2F JUMPI PUSH2 0xD2F PUSH2 0x2042 JUMP JUMPDEST PUSH1 0x20 MUL PUSH1 0x20 ADD ADD MLOAD PUSH1 0x40 MLOAD PUSH1 0x0 DUP2 MSTORE PUSH1 0x20 ADD PUSH1 0x40 MSTORE PUSH1 0x40 MLOAD PUSH2 0xD6D SWAP5 SWAP4 SWAP3 SWAP2 SWAP1 SWAP4 DUP5 MSTORE PUSH1 0xFF SWAP3 SWAP1 SWAP3 AND PUSH1 0x20 DUP5 ADD MSTORE PUSH1 0x40 DUP4 ADD MSTORE PUSH1 0x60 DUP3 ADD MSTORE PUSH1 0x80 ADD SWAP1 JUMP JUMPDEST PUSH1 0x20 PUSH1 0x40 MLOAD PUSH1 0x20 DUP2 SUB SWAP1 DUP1 DUP5 SUB SWAP1 DUP6 GAS STATICCALL ISZERO DUP1 ISZERO PUSH2 0xD8F JUMPI RETURNDATASIZE PUSH1 0x0 DUP1 RETURNDATACOPY RETURNDATASIZE PUSH1 0x0 REVERT JUMPDEST POP POP POP PUSH1 0x20 PUSH1 0x40 MLOAD SUB MLOAD SWAP1 POP DUP4 PUSH1 0x1 PUSH1 0x1 PUSH1 0xA0 SHL SUB AND DUP2 PUSH1 0x1 PUSH1 0x1 PUSH1 0xA0 SHL SUB AND GT DUP1 ISZERO PUSH2 0xDD4 JUMPI POP PUSH1 0x1 PUSH1 0x1 PUSH1 0xA0 SHL SUB DUP2 AND PUSH1 0x0 SWAP1 DUP2 MSTORE PUSH1 0xD2 PUSH1 0x20 MSTORE PUSH1 0x40 SWAP1 KECCAK256 SLOAD PUSH1 0xFF AND JUMPDEST ISZERO PUSH2 0xDE7 JUMPI DUP3 PUSH2 0xDE3 DUP2 PUSH2 0x2058 JUMP JUMPDEST SWAP4 POP POP JUMPDEST SWAP3 POP DUP1 PUSH2 0xDF3 DUP2 PUSH2 0x2078 JUMP JUMPDEST SWAP2 POP POP PUSH2 0xCB7 JUMP JUMPDEST POP PUSH1 0xD1 SLOAD PUSH1 0xFF DUP3 AND EQ PUSH2 0xE42 JUMPI PUSH1 0x40 MLOAD PUSH3 0x461BCD PUSH1 0xE5 SHL DUP2 MSTORE PUSH1 0x20 PUSH1 0x4 DUP3 ADD MSTORE PUSH1 0xF PUSH1 0x24 DUP3 ADD MSTORE PUSH15 0x496E76616C6964207369676E657273 PUSH1 0x88 SHL PUSH1 0x44 DUP3 ADD MSTORE PUSH1 0x64 ADD PUSH2 0x6F4 JUMP JUMPDEST PUSH1 0x0 DUP12 DUP2 MSTORE PUSH1 0xD3 PUSH1 0x20 MSTORE PUSH1 0x40 DUP1 DUP3 KECCAK256 DUP1 SLOAD PUSH1 0xFF NOT AND PUSH1 0x1 OR SWAP1 SSTORE PUSH1 0xCD SLOAD SWAP1 MLOAD PUSH1 0x1 PUSH1 0x1 PUSH1 0xA0 SHL SUB DUP16 AND SWAP2 SWAP1 DUP4 DUP2 DUP2 DUP2 DUP6 DUP8 GAS CALL SWAP3 POP POP POP RETURNDATASIZE DUP1 PUSH1 0x0 DUP2 EQ PUSH2 0xEA5 JUMPI PUSH1 0x40 MLOAD SWAP2 POP PUSH1 0x1F NOT PUSH1 0x3F RETURNDATASIZE ADD AND DUP3 ADD PUSH1 0x40 MSTORE RETURNDATASIZE DUP3 MSTORE RETURNDATASIZE PUSH1 0x0 PUSH1 0x20 DUP5 ADD RETURNDATACOPY PUSH2 0xEAA JUMP JUMPDEST PUSH1 0x60 SWAP2 POP JUMPDEST POP POP SWAP1 POP DUP1 PUSH2 0xEF1 JUMPI PUSH1 0x40 MLOAD PUSH3 0x461BCD PUSH1 0xE5 SHL DUP2 MSTORE PUSH1 0x20 PUSH1 0x4 DUP3 ADD MSTORE PUSH1 0x13 PUSH1 0x24 DUP3 ADD MSTORE PUSH19 0x8CC2D2D8CAC840E8DE40E6CADCC8409ACAC6D PUSH1 0x6B SHL PUSH1 0x44 DUP3 ADD MSTORE PUSH1 0x64 ADD PUSH2 0x6F4 JUMP JUMPDEST PUSH2 0xEFB DUP14 DUP13 PUSH2 0x11D1 JUMP JUMPDEST POP POP POP POP POP POP POP POP POP POP POP POP POP JUMP JUMPDEST PUSH2 0xF12 PUSH2 0x1240 JUMP JUMPDEST PUSH1 0x1 PUSH1 0x1 PUSH1 0xA0 SHL SUB DUP2 AND PUSH2 0xF77 JUMPI PUSH1 0x40 MLOAD PUSH3 0x461BCD PUSH1 0xE5 SHL DUP2 MSTORE PUSH1 0x20 PUSH1 0x4 DUP3 ADD MSTORE PUSH1 0x26 PUSH1 0x24 DUP3 ADD MSTORE PUSH32 0x4F776E61626C653A206E6577206F776E657220697320746865207A65726F2061 PUSH1 0x44 DUP3 ADD MSTORE PUSH6 0x646472657373 PUSH1 0xD0 SHL PUSH1 0x64 DUP3 ADD MSTORE PUSH1 0x84 ADD PUSH2 0x6F4 JUMP JUMPDEST PUSH2 0xA4A DUP2 PUSH2 0x129A JUMP JUMPDEST PUSH1 0x1 PUSH1 0x1 PUSH1 0xA0 SHL SUB DUP4 AND PUSH2 0xFE2 JUMPI PUSH1 0x40 MLOAD PUSH3 0x461BCD PUSH1 0xE5 SHL DUP2 MSTORE PUSH1 0x20 PUSH1 0x4 DUP3 ADD MSTORE PUSH1 0x24 DUP1 DUP3 ADD MSTORE PUSH32 0x45524332303A20617070726F76652066726F6D20746865207A65726F20616464 PUSH1 0x44 DUP3 ADD MSTORE PUSH4 0x72657373 PUSH1 0xE0 SHL PUSH1 0x64 DUP3 ADD MSTORE PUSH1 0x84 ADD PUSH2 0x6F4 JUMP JUMPDEST PUSH1 0x1 PUSH1 0x1 PUSH1 0xA0 SHL SUB DUP3 AND PUSH2 0x1043 JUMPI PUSH1 0x40 MLOAD PUSH3 0x461BCD PUSH1 0xE5 SHL DUP2 MSTORE PUSH1 0x20 PUSH1 0x4 DUP3 ADD MSTORE PUSH1 0x22 PUSH1 0x24 DUP3 ADD MSTORE PUSH32 0x45524332303A20617070726F766520746F20746865207A65726F206164647265 PUSH1 0x44 DUP3 ADD MSTORE PUSH2 0x7373 PUSH1 0xF0 SHL PUSH1 0x64 DUP3 ADD MSTORE PUSH1 0x84 ADD PUSH2 0x6F4 JUMP JUMPDEST PUSH1 0x1 PUSH1 0x1 PUSH1 0xA0 SHL SUB DUP4 DUP2 AND PUSH1 0x0 DUP2 DUP2 MSTORE PUSH1 0x34 PUSH1 0x20 SWAP1 DUP2 MSTORE PUSH1 0x40 DUP1 DUP4 KECCAK256 SWAP5 DUP8 AND DUP1 DUP5 MSTORE SWAP5 DUP3 MSTORE SWAP2 DUP3 SWAP1 KECCAK256 DUP6 SWAP1 SSTORE SWAP1 MLOAD DUP5 DUP2 MSTORE PUSH32 0x8C5BE1E5EBEC7D5BD14F71427D1E84F3DD0314C0F7B2291E5B200AC8C7C3B925 SWAP2 ADD JUMPDEST PUSH1 0x40 MLOAD DUP1 SWAP2 SUB SWAP1 LOG3 POP POP POP JUMP JUMPDEST PUSH2 0x10AF DUP3 DUP3 PUSH2 0x1378 JUMP JUMPDEST DUP1 PUSH1 0xD0 SLOAD PUSH2 0x10BD SWAP2 SWAP1 PUSH2 0x202A JUMP JUMPDEST PUSH1 0xD0 SSTORE PUSH1 0x1 PUSH1 0x1 PUSH1 0xA0 SHL SUB DUP3 AND PUSH1 0x0 SWAP1 DUP2 MSTORE PUSH1 0xD4 PUSH1 0x20 MSTORE PUSH1 0x40 SWAP1 KECCAK256 SLOAD PUSH2 0x10E4 SWAP1 DUP3 SWAP1 PUSH2 0x202A JUMP JUMPDEST PUSH1 0x1 PUSH1 0x1 PUSH1 0xA0 SHL SUB SWAP1 SWAP3 AND PUSH1 0x0 SWAP1 DUP2 MSTORE PUSH1 0xD4 PUSH1 0x20 MSTORE PUSH1 0x40 SWAP1 KECCAK256 SWAP2 SWAP1 SWAP2 SSTORE POP JUMP JUMPDEST PUSH1 0x0 DUP1 PUSH1 0x64 PUSH1 0xCF SLOAD DUP5 PUSH2 0x1117 SWAP2 SWAP1 PUSH2 0x200B JUMP JUMPDEST PUSH2 0x1121 SWAP2 SWAP1 PUSH2 0x209F JUMP JUMPDEST SWAP4 SWAP3 POP POP POP JUMP JUMPDEST PUSH1 0x0 CALLER PUSH2 0x1136 DUP6 DUP3 DUP6 PUSH2 0x14A9 JUMP JUMPDEST PUSH2 0xAC8 DUP6 DUP6 DUP6 PUSH2 0x151D JUMP JUMPDEST PUSH1 0x0 SLOAD PUSH2 0x100 SWAP1 DIV PUSH1 0xFF AND PUSH2 0x1168 JUMPI PUSH1 0x40 MLOAD PUSH3 0x461BCD PUSH1 0xE5 SHL DUP2 MSTORE PUSH1 0x4 ADD PUSH2 0x6F4 SWAP1 PUSH2 0x20C1 JUMP JUMPDEST PUSH2 0x93C PUSH2 0x16C8 JUMP JUMPDEST PUSH1 0x0 SLOAD PUSH2 0x100 SWAP1 DIV PUSH1 0xFF AND PUSH2 0x1197 JUMPI PUSH1 0x40 MLOAD PUSH3 0x461BCD PUSH1 0xE5 SHL DUP2 MSTORE PUSH1 0x4 ADD PUSH2 0x6F4 SWAP1 PUSH2 0x20C1 JUMP JUMPDEST PUSH2 0x707 DUP3 DUP3 PUSH2 0x16F8 JUMP JUMPDEST PUSH1 0x0 SLOAD PUSH2 0x100 SWAP1 DIV PUSH1 0xFF AND PUSH2 0x11C8 JUMPI PUSH1 0x40 MLOAD PUSH3 0x461BCD PUSH1 0xE5 SHL DUP2 MSTORE PUSH1 0x4 ADD PUSH2 0x6F4 SWAP1 PUSH2 0x20C1 JUMP JUMPDEST PUSH2 0xA4A DUP2 PUSH2 0x1746 JUMP JUMPDEST PUSH1 0x65 SLOAD DUP2 PUSH2 0x11DE PUSH1 0x35 SLOAD SWAP1 JUMP JUMPDEST PUSH2 0x11E8 SWAP2 SWAP1 PUSH2 0x202A JUMP JUMPDEST GT ISZERO PUSH2 0x1236 JUMPI PUSH1 0x40 MLOAD PUSH3 0x461BCD PUSH1 0xE5 SHL DUP2 MSTORE PUSH1 0x20 PUSH1 0x4 DUP3 ADD MSTORE PUSH1 0x19 PUSH1 0x24 DUP3 ADD MSTORE PUSH32 0x45524332304361707065643A2063617020657863656564656400000000000000 PUSH1 0x44 DUP3 ADD MSTORE PUSH1 0x64 ADD PUSH2 0x6F4 JUMP JUMPDEST PUSH2 0x707 DUP3 DUP3 PUSH2 0x17BA JUMP JUMPDEST PUSH1 0x98 SLOAD PUSH1 0x1 PUSH1 0x1 PUSH1 0xA0 SHL SUB AND CALLER EQ PUSH2 0x93C JUMPI PUSH1 0x40 MLOAD PUSH3 0x461BCD PUSH1 0xE5 SHL DUP2 MSTORE PUSH1 0x20 PUSH1 0x4 DUP3 ADD DUP2 SWAP1 MSTORE PUSH1 0x24 DUP3 ADD MSTORE PUSH32 0x4F776E61626C653A2063616C6C6572206973206E6F7420746865206F776E6572 PUSH1 0x44 DUP3 ADD MSTORE PUSH1 0x64 ADD PUSH2 0x6F4 JUMP JUMPDEST PUSH1 0x98 DUP1 SLOAD PUSH1 0x1 PUSH1 0x1 PUSH1 0xA0 SHL SUB DUP4 DUP2 AND PUSH1 0x1 PUSH1 0x1 PUSH1 0xA0 SHL SUB NOT DUP4 AND DUP2 OR SWAP1 SWAP4 SSTORE PUSH1 0x40 MLOAD SWAP2 AND SWAP2 SWAP1 DUP3 SWAP1 PUSH32 0x8BE0079C531659141344CD1FD0A4F28419497F9722A3DAAFE3B4186F6B6457E0 SWAP1 PUSH1 0x0 SWAP1 LOG3 POP POP JUMP JUMPDEST PUSH1 0x0 JUMPDEST DUP4 MLOAD DUP2 PUSH1 0x1 PUSH1 0x1 PUSH1 0x40 SHL SUB AND LT ISZERO PUSH2 0x1364 JUMPI DUP3 DUP3 PUSH1 0x0 DUP7 DUP5 PUSH1 0x1 PUSH1 0x1 PUSH1 0x40 SHL SUB AND DUP2 MLOAD DUP2 LT PUSH2 0x1320 JUMPI PUSH2 0x1320 PUSH2 0x2042 JUMP JUMPDEST PUSH1 0x20 SWAP1 DUP2 MUL SWAP2 SWAP1 SWAP2 ADD DUP2 ADD MLOAD PUSH1 0x1 PUSH1 0x1 PUSH1 0xA0 SHL SUB AND DUP3 MSTORE DUP2 ADD SWAP2 SWAP1 SWAP2 MSTORE PUSH1 0x40 ADD PUSH1 0x0 KECCAK256 DUP1 SLOAD PUSH1 0xFF NOT AND SWAP2 ISZERO ISZERO SWAP2 SWAP1 SWAP2 OR SWAP1 SSTORE DUP1 PUSH2 0x135C DUP2 PUSH2 0x2078 JUMP JUMPDEST SWAP2 POP POP PUSH2 0x12EF JUMP JUMPDEST POP POP POP POP JUMP JUMPDEST PUSH1 0x0 CALLER PUSH2 0x680 DUP2 DUP6 DUP6 PUSH2 0x151D JUMP JUMPDEST PUSH1 0x1 PUSH1 0x1 PUSH1 0xA0 SHL SUB DUP3 AND PUSH2 0x13D8 JUMPI PUSH1 0x40 MLOAD PUSH3 0x461BCD PUSH1 0xE5 SHL DUP2 MSTORE PUSH1 0x20 PUSH1 0x4 DUP3 ADD MSTORE PUSH1 0x21 PUSH1 0x24 DUP3 ADD MSTORE PUSH32 0x45524332303A206275726E2066726F6D20746865207A65726F20616464726573 PUSH1 0x44 DUP3 ADD MSTORE PUSH1 0x73 PUSH1 0xF8 SHL PUSH1 0x64 DUP3 ADD MSTORE PUSH1 0x84 ADD PUSH2 0x6F4 JUMP JUMPDEST PUSH1 0x1 PUSH1 0x1 PUSH1 0xA0 SHL SUB DUP3 AND PUSH1 0x0 SWAP1 DUP2 MSTORE PUSH1 0x33 PUSH1 0x20 MSTORE PUSH1 0x40 SWAP1 KECCAK256 SLOAD DUP2 DUP2 LT ISZERO PUSH2 0x144C JUMPI PUSH1 0x40 MLOAD PUSH3 0x461BCD PUSH1 0xE5 SHL DUP2 MSTORE PUSH1 0x20 PUSH1 0x4 DUP3 ADD MSTORE PUSH1 0x22 PUSH1 0x24 DUP3 ADD MSTORE PUSH32 0x45524332303A206275726E20616D6F756E7420657863656564732062616C616E PUSH1 0x44 DUP3 ADD MSTORE PUSH2 0x6365 PUSH1 0xF0 SHL PUSH1 0x64 DUP3 ADD MSTORE PUSH1 0x84 ADD PUSH2 0x6F4 JUMP JUMPDEST PUSH1 0x1 PUSH1 0x1 PUSH1 0xA0 SHL SUB DUP4 AND PUSH1 0x0 DUP2 DUP2 MSTORE PUSH1 0x33 PUSH1 0x20 SWAP1 DUP2 MSTORE PUSH1 0x40 DUP1 DUP4 KECCAK256 DUP7 DUP7 SUB SWAP1 SSTORE PUSH1 0x35 DUP1 SLOAD DUP8 SWAP1 SUB SWAP1 SSTORE MLOAD DUP6 DUP2 MSTORE SWAP2 SWAP3 SWAP2 PUSH32 0xDDF252AD1BE2C89B69C2B068FC378DAA952BA7F163C4A11628F55A4DF523B3EF SWAP2 ADD PUSH2 0x1098 JUMP JUMPDEST POP POP POP JUMP JUMPDEST PUSH1 0x0 PUSH2 0x14B5 DUP5 DUP5 PUSH2 0xB66 JUMP JUMPDEST SWAP1 POP PUSH1 0x0 NOT DUP2 EQ PUSH2 0x1364 JUMPI DUP2 DUP2 LT ISZERO PUSH2 0x1510 JUMPI PUSH1 0x40 MLOAD PUSH3 0x461BCD PUSH1 0xE5 SHL DUP2 MSTORE PUSH1 0x20 PUSH1 0x4 DUP3 ADD MSTORE PUSH1 0x1D PUSH1 0x24 DUP3 ADD MSTORE PUSH32 0x45524332303A20696E73756666696369656E7420616C6C6F77616E6365000000 PUSH1 0x44 DUP3 ADD MSTORE PUSH1 0x64 ADD PUSH2 0x6F4 JUMP JUMPDEST PUSH2 0x1364 DUP5 DUP5 DUP5 DUP5 SUB PUSH2 0xF80 JUMP JUMPDEST PUSH1 0x1 PUSH1 0x1 PUSH1 0xA0 SHL SUB DUP4 AND PUSH2 0x1581 JUMPI PUSH1 0x40 MLOAD PUSH3 0x461BCD PUSH1 0xE5 SHL DUP2 MSTORE PUSH1 0x20 PUSH1 0x4 DUP3 ADD MSTORE PUSH1 0x25 PUSH1 0x24 DUP3 ADD MSTORE PUSH32 0x45524332303A207472616E736665722066726F6D20746865207A65726F206164 PUSH1 0x44 DUP3 ADD MSTORE PUSH5 0x6472657373 PUSH1 0xD8 SHL PUSH1 0x64 DUP3 ADD MSTORE PUSH1 0x84 ADD PUSH2 0x6F4 JUMP JUMPDEST PUSH1 0x1 PUSH1 0x1 PUSH1 0xA0 SHL SUB DUP3 AND PUSH2 0x15E3 JUMPI PUSH1 0x40 MLOAD PUSH3 0x461BCD PUSH1 0xE5 SHL DUP2 MSTORE PUSH1 0x20 PUSH1 0x4 DUP3 ADD MSTORE PUSH1 0x23 PUSH1 0x24 DUP3 ADD MSTORE PUSH32 0x45524332303A207472616E7366657220746F20746865207A65726F2061646472 PUSH1 0x44 DUP3 ADD MSTORE PUSH3 0x657373 PUSH1 0xE8 SHL PUSH1 0x64 DUP3 ADD MSTORE PUSH1 0x84 ADD PUSH2 0x6F4 JUMP JUMPDEST PUSH1 0x1 PUSH1 0x1 PUSH1 0xA0 SHL SUB DUP4 AND PUSH1 0x0 SWAP1 DUP2 MSTORE PUSH1 0x33 PUSH1 0x20 MSTORE PUSH1 0x40 SWAP1 KECCAK256 SLOAD DUP2 DUP2 LT ISZERO PUSH2 0x165B JUMPI PUSH1 0x40 MLOAD PUSH3 0x461BCD PUSH1 0xE5 SHL DUP2 MSTORE PUSH1 0x20 PUSH1 0x4 DUP3 ADD MSTORE PUSH1 0x26 PUSH1 0x24 DUP3 ADD MSTORE PUSH32 0x45524332303A207472616E7366657220616D6F756E7420657863656564732062 PUSH1 0x44 DUP3 ADD MSTORE PUSH6 0x616C616E6365 PUSH1 0xD0 SHL PUSH1 0x64 DUP3 ADD MSTORE PUSH1 0x84 ADD PUSH2 0x6F4 JUMP JUMPDEST PUSH1 0x1 PUSH1 0x1 PUSH1 0xA0 SHL SUB DUP1 DUP6 AND PUSH1 0x0 DUP2 DUP2 MSTORE PUSH1 0x33 PUSH1 0x20 MSTORE PUSH1 0x40 DUP1 DUP3 KECCAK256 DUP7 DUP7 SUB SWAP1 SSTORE SWAP3 DUP7 AND DUP1 DUP3 MSTORE SWAP1 DUP4 SWAP1 KECCAK256 DUP1 SLOAD DUP7 ADD SWAP1 SSTORE SWAP2 MLOAD PUSH32 0xDDF252AD1BE2C89B69C2B068FC378DAA952BA7F163C4A11628F55A4DF523B3EF SWAP1 PUSH2 0x16BB SWAP1 DUP7 DUP2 MSTORE PUSH1 0x20 ADD SWAP1 JUMP JUMPDEST PUSH1 0x40 MLOAD DUP1 SWAP2 SUB SWAP1 LOG3 PUSH2 0x1364 JUMP JUMPDEST PUSH1 0x0 SLOAD PUSH2 0x100 SWAP1 DIV PUSH1 0xFF AND PUSH2 0x16EF JUMPI PUSH1 0x40 MLOAD PUSH3 0x461BCD PUSH1 0xE5 SHL DUP2 MSTORE PUSH1 0x4 ADD PUSH2 0x6F4 SWAP1 PUSH2 0x20C1 JUMP JUMPDEST PUSH2 0x93C CALLER PUSH2 0x129A JUMP JUMPDEST PUSH1 0x0 SLOAD PUSH2 0x100 SWAP1 DIV PUSH1 0xFF AND PUSH2 0x171F JUMPI PUSH1 0x40 MLOAD PUSH3 0x461BCD PUSH1 0xE5 SHL DUP2 MSTORE PUSH1 0x4 ADD PUSH2 0x6F4 SWAP1 PUSH2 0x20C1 JUMP JUMPDEST DUP2 MLOAD PUSH2 0x1732 SWAP1 PUSH1 0x36 SWAP1 PUSH1 0x20 DUP6 ADD SWAP1 PUSH2 0x187B JUMP JUMPDEST POP DUP1 MLOAD PUSH2 0x14A4 SWAP1 PUSH1 0x37 SWAP1 PUSH1 0x20 DUP5 ADD SWAP1 PUSH2 0x187B JUMP JUMPDEST PUSH1 0x0 SLOAD PUSH2 0x100 SWAP1 DIV PUSH1 0xFF AND PUSH2 0x176D JUMPI PUSH1 0x40 MLOAD PUSH3 0x461BCD PUSH1 0xE5 SHL DUP2 MSTORE PUSH1 0x4 ADD PUSH2 0x6F4 SWAP1 PUSH2 0x20C1 JUMP JUMPDEST PUSH1 0x0 DUP2 GT PUSH2 0x17B5 JUMPI PUSH1 0x40 MLOAD PUSH3 0x461BCD PUSH1 0xE5 SHL DUP2 MSTORE PUSH1 0x20 PUSH1 0x4 DUP3 ADD MSTORE PUSH1 0x15 PUSH1 0x24 DUP3 ADD MSTORE PUSH21 0x45524332304361707065643A20636170206973203 PUSH1 0x5C SHL PUSH1 0x44 DUP3 ADD MSTORE PUSH1 0x64 ADD PUSH2 0x6F4 JUMP JUMPDEST PUSH1 0x65 SSTORE JUMP JUMPDEST PUSH1 0x1 PUSH1 0x1 PUSH1 0xA0 SHL SUB DUP3 AND PUSH2 0x1810 JUMPI PUSH1 0x40 MLOAD PUSH3 0x461BCD PUSH1 0xE5 SHL DUP2 MSTORE PUSH1 0x20 PUSH1 0x4 DUP3 ADD MSTORE PUSH1 0x1F PUSH1 0x24 DUP3 ADD MSTORE PUSH32 0x45524332303A206D696E7420746F20746865207A65726F206164647265737300 PUSH1 0x44 DUP3 ADD MSTORE PUSH1 0x64 ADD PUSH2 0x6F4 JUMP JUMPDEST DUP1 PUSH1 0x35 PUSH1 0x0 DUP3 DUP3 SLOAD PUSH2 0x1822 SWAP2 SWAP1 PUSH2 0x202A JUMP JUMPDEST SWAP1 SWAP2 SSTORE POP POP PUSH1 0x1 PUSH1 0x1 PUSH1 0xA0 SHL SUB DUP3 AND PUSH1 0x0 DUP2 DUP2 MSTORE PUSH1 0x33 PUSH1 0x20 SWAP1 DUP2 MSTORE PUSH1 0x40 DUP1 DUP4 KECCAK256 DUP1 SLOAD DUP7 ADD SWAP1 SSTORE MLOAD DUP5 DUP2 MSTORE PUSH32 0xDDF252AD1BE2C89B69C2B068FC378DAA952BA7F163C4A11628F55A4DF523B3EF SWAP2 ADD PUSH1 0x40 MLOAD DUP1 SWAP2 SUB SWAP1 LOG3 POP POP JUMP JUMPDEST DUP3 DUP1 SLOAD PUSH2 0x1887 SWAP1 PUSH2 0x1EB0 JUMP JUMPDEST SWAP1 PUSH1 0x0 MSTORE PUSH1 0x20 PUSH1 0x0 KECCAK256 SWAP1 PUSH1 0x1F ADD PUSH1 0x20 SWAP1 DIV DUP2 ADD SWAP3 DUP3 PUSH2 0x18A9 JUMPI PUSH1 0x0 DUP6 SSTORE PUSH2 0x18EF JUMP JUMPDEST DUP3 PUSH1 0x1F LT PUSH2 0x18C2 JUMPI DUP1 MLOAD PUSH1 0xFF NOT AND DUP4 DUP1 ADD OR DUP6 SSTORE PUSH2 0x18EF JUMP JUMPDEST DUP3 DUP1 ADD PUSH1 0x1 ADD DUP6 SSTORE DUP3 ISZERO PUSH2 0x18EF JUMPI SWAP2 DUP3 ADD JUMPDEST DUP3 DUP2 GT ISZERO PUSH2 0x18EF JUMPI DUP3 MLOAD DUP3 SSTORE SWAP2 PUSH1 0x20 ADD SWAP2 SWAP1 PUSH1 0x1 ADD SWAP1 PUSH2 0x18D4 JUMP JUMPDEST POP PUSH2 0x18FB SWAP3 SWAP2 POP PUSH2 0x1972 JUMP JUMPDEST POP SWAP1 JUMP JUMPDEST POP DUP1 SLOAD PUSH1 0x0 DUP3 SSTORE SWAP1 PUSH1 0x0 MSTORE PUSH1 0x20 PUSH1 0x0 KECCAK256 SWAP1 DUP2 ADD SWAP1 PUSH2 0xA4A SWAP2 SWAP1 PUSH2 0x1972 JUMP JUMPDEST DUP3 DUP1 SLOAD DUP3 DUP3 SSTORE SWAP1 PUSH1 0x0 MSTORE PUSH1 0x20 PUSH1 0x0 KECCAK256 SWAP1 DUP2 ADD SWAP3 DUP3 ISZERO PUSH2 0x18EF JUMPI SWAP2 PUSH1 0x20 MUL DUP3 ADD JUMPDEST DUP3 DUP2 GT ISZERO PUSH2 0x18EF JUMPI DUP3 MLOAD DUP3 SLOAD PUSH1 0x1 PUSH1 0x1 PUSH1 0xA0 SHL SUB NOT AND PUSH1 0x1 PUSH1 0x1 PUSH1 0xA0 SHL SUB SWAP1 SWAP2 AND OR DUP3 SSTORE PUSH1 0x20 SWAP1 SWAP3 ADD SWAP2 PUSH1 0x1 SWAP1 SWAP2 ADD SWAP1 PUSH2 0x193D JUMP JUMPDEST JUMPDEST DUP1 DUP3 GT ISZERO PUSH2 0x18FB JUMPI PUSH1 0x0 DUP2 SSTORE PUSH1 0x1 ADD PUSH2 0x1973 JUMP JUMPDEST PUSH1 0x0 PUSH1 0x20 DUP1 DUP4 MSTORE DUP4 MLOAD DUP1 DUP3 DUP6 ADD MSTORE PUSH1 0x0 JUMPDEST DUP2 DUP2 LT ISZERO PUSH2 0x19B4 JUMPI DUP6 DUP2 ADD DUP4 ADD MLOAD DUP6 DUP3 ADD PUSH1 0x40 ADD MSTORE DUP3 ADD PUSH2 0x1998 JUMP JUMPDEST DUP2 DUP2 GT ISZERO PUSH2 0x19C6 JUMPI PUSH1 0x0 PUSH1 0x40 DUP4 DUP8 ADD ADD MSTORE JUMPDEST POP PUSH1 0x1F ADD PUSH1 0x1F NOT AND SWAP3 SWAP1 SWAP3 ADD PUSH1 0x40 ADD SWAP4 SWAP3 POP POP POP JUMP JUMPDEST PUSH1 0x1 PUSH1 0x1 PUSH1 0xA0 SHL SUB DUP2 AND DUP2 EQ PUSH2 0xA4A JUMPI PUSH1 0x0 DUP1 REVERT JUMPDEST PUSH1 0x0 PUSH1 0x20 DUP3 DUP5 SUB SLT ISZERO PUSH2 0x1A03 JUMPI PUSH1 0x0 DUP1 REVERT JUMPDEST DUP2 CALLDATALOAD PUSH2 0x1121 DUP2 PUSH2 0x19DC JUMP JUMPDEST PUSH1 0x0 DUP1 PUSH1 0x40 DUP4 DUP6 SUB SLT ISZERO PUSH2 0x1A21 JUMPI PUSH1 0x0 DUP1 REVERT JUMPDEST DUP3 CALLDATALOAD PUSH2 0x1A2C DUP2 PUSH2 0x19DC JUMP JUMPDEST SWAP5 PUSH1 0x20 SWAP4 SWAP1 SWAP4 ADD CALLDATALOAD SWAP4 POP POP POP JUMP JUMPDEST PUSH1 0x0 DUP1 PUSH1 0x0 PUSH1 0x60 DUP5 DUP7 SUB SLT ISZERO PUSH2 0x1A4F JUMPI PUSH1 0x0 DUP1 REVERT JUMPDEST DUP4 CALLDATALOAD PUSH2 0x1A5A DUP2 PUSH2 0x19DC JUMP JUMPDEST SWAP3 POP PUSH1 0x20 DUP5 ADD CALLDATALOAD PUSH2 0x1A6A DUP2 PUSH2 0x19DC JUMP JUMPDEST SWAP3 SWAP6 SWAP3 SWAP5 POP POP POP PUSH1 0x40 SWAP2 SWAP1 SWAP2 ADD CALLDATALOAD SWAP1 JUMP JUMPDEST PUSH4 0x4E487B71 PUSH1 0xE0 SHL PUSH1 0x0 MSTORE PUSH1 0x41 PUSH1 0x4 MSTORE PUSH1 0x24 PUSH1 0x0 REVERT JUMPDEST PUSH1 0x40 MLOAD PUSH1 0x1F DUP3 ADD PUSH1 0x1F NOT AND DUP2 ADD PUSH1 0x1 PUSH1 0x1 PUSH1 0x40 SHL SUB DUP2 GT DUP3 DUP3 LT OR ISZERO PUSH2 0x1AB9 JUMPI PUSH2 0x1AB9 PUSH2 0x1A7B JUMP JUMPDEST PUSH1 0x40 MSTORE SWAP2 SWAP1 POP JUMP JUMPDEST PUSH1 0x0 DUP3 PUSH1 0x1F DUP4 ADD SLT PUSH2 0x1AD2 JUMPI PUSH1 0x0 DUP1 REVERT JUMPDEST DUP2 CALLDATALOAD PUSH1 0x1 PUSH1 0x1 PUSH1 0x40 SHL SUB DUP2 GT ISZERO PUSH2 0x1AEB JUMPI PUSH2 0x1AEB PUSH2 0x1A7B JUMP JUMPDEST PUSH2 0x1AFE PUSH1 0x1F DUP3 ADD PUSH1 0x1F NOT AND PUSH1 0x20 ADD PUSH2 0x1A91 JUMP JUMPDEST DUP2 DUP2 MSTORE DUP5 PUSH1 0x20 DUP4 DUP7 ADD ADD GT ISZERO PUSH2 0x1B13 JUMPI PUSH1 0x0 DUP1 REVERT JUMPDEST DUP2 PUSH1 0x20 DUP6 ADD PUSH1 0x20 DUP4 ADD CALLDATACOPY PUSH1 0x0 SWAP2 DUP2 ADD PUSH1 0x20 ADD SWAP2 SWAP1 SWAP2 MSTORE SWAP4 SWAP3 POP POP POP JUMP JUMPDEST DUP1 CALLDATALOAD PUSH1 0xFF DUP2 AND DUP2 EQ PUSH2 0x1B41 JUMPI PUSH1 0x0 DUP1 REVERT JUMPDEST SWAP2 SWAP1 POP JUMP JUMPDEST PUSH1 0x0 DUP1 PUSH1 0x0 DUP1 PUSH1 0x0 DUP1 PUSH1 0xC0 DUP8 DUP10 SUB SLT ISZERO PUSH2 0x1B5F JUMPI PUSH1 0x0 DUP1 REVERT JUMPDEST DUP7 CALLDATALOAD PUSH1 0x1 PUSH1 0x1 PUSH1 0x40 SHL SUB DUP1 DUP3 GT ISZERO PUSH2 0x1B76 JUMPI PUSH1 0x0 DUP1 REVERT JUMPDEST PUSH2 0x1B82 DUP11 DUP4 DUP12 ADD PUSH2 0x1AC1 JUMP JUMPDEST SWAP8 POP PUSH1 0x20 DUP10 ADD CALLDATALOAD SWAP2 POP DUP1 DUP3 GT ISZERO PUSH2 0x1B98 JUMPI PUSH1 0x0 DUP1 REVERT JUMPDEST POP PUSH2 0x1BA5 DUP10 DUP3 DUP11 ADD PUSH2 0x1AC1 JUMP JUMPDEST SWAP6 POP POP PUSH2 0x1BB4 PUSH1 0x40 DUP9 ADD PUSH2 0x1B30 JUMP JUMPDEST SWAP4 POP PUSH1 0x60 DUP8 ADD CALLDATALOAD SWAP3 POP PUSH1 0x80 DUP8 ADD CALLDATALOAD SWAP2 POP PUSH1 0xA0 DUP8 ADD CALLDATALOAD SWAP1 POP SWAP3 SWAP6 POP SWAP3 SWAP6 POP SWAP3 SWAP6 JUMP JUMPDEST PUSH1 0x20 DUP1 DUP3 MSTORE DUP3 MLOAD DUP3 DUP3 ADD DUP2 SWAP1 MSTORE PUSH1 0x0 SWAP2 SWAP1 DUP5 DUP3 ADD SWAP1 PUSH1 0x40 DUP6 ADD SWAP1 DUP5 JUMPDEST DUP2 DUP2 LT ISZERO PUSH2 0x1C16 JUMPI DUP4 MLOAD PUSH1 0x1 PUSH1 0x1 PUSH1 0xA0 SHL SUB AND DUP4 MSTORE SWAP3 DUP5 ADD SWAP3 SWAP2 DUP5 ADD SWAP2 PUSH1 0x1 ADD PUSH2 0x1BF1 JUMP JUMPDEST POP SWAP1 SWAP7 SWAP6 POP POP POP POP POP POP JUMP JUMPDEST PUSH1 0x0 PUSH1 0x1 PUSH1 0x1 PUSH1 0x40 SHL SUB DUP3 GT ISZERO PUSH2 0x1C3B JUMPI PUSH2 0x1C3B PUSH2 0x1A7B JUMP JUMPDEST POP PUSH1 0x5 SHL PUSH1 0x20 ADD SWAP1 JUMP JUMPDEST PUSH1 0x0 PUSH1 0x20 DUP1 DUP4 DUP6 SUB SLT ISZERO PUSH2 0x1C58 JUMPI PUSH1 0x0 DUP1 REVERT JUMPDEST DUP3 CALLDATALOAD PUSH1 0x1 PUSH1 0x1 PUSH1 0x40 SHL SUB DUP2 GT ISZERO PUSH2 0x1C6E JUMPI PUSH1 0x0 DUP1 REVERT JUMPDEST DUP4 ADD PUSH1 0x1F DUP2 ADD DUP6 SGT PUSH2 0x1C7F JUMPI PUSH1 0x0 DUP1 REVERT JUMPDEST DUP1 CALLDATALOAD PUSH2 0x1C92 PUSH2 0x1C8D DUP3 PUSH2 0x1C22 JUMP JUMPDEST PUSH2 0x1A91 JUMP JUMPDEST DUP2 DUP2 MSTORE PUSH1 0x5 SWAP2 SWAP1 SWAP2 SHL DUP3 ADD DUP4 ADD SWAP1 DUP4 DUP2 ADD SWAP1 DUP8 DUP4 GT ISZERO PUSH2 0x1CB1 JUMPI PUSH1 0x0 DUP1 REVERT JUMPDEST SWAP3 DUP5 ADD SWAP3 JUMPDEST DUP3 DUP5 LT ISZERO PUSH2 0x1CD8 JUMPI DUP4 CALLDATALOAD PUSH2 0x1CC9 DUP2 PUSH2 0x19DC JUMP JUMPDEST DUP3 MSTORE SWAP3 DUP5 ADD SWAP3 SWAP1 DUP5 ADD SWAP1 PUSH2 0x1CB6 JUMP JUMPDEST SWAP8 SWAP7 POP POP POP POP POP POP POP JUMP JUMPDEST PUSH1 0x0 PUSH1 0x20 DUP3 DUP5 SUB SLT ISZERO PUSH2 0x1CF5 JUMPI PUSH1 0x0 DUP1 REVERT JUMPDEST POP CALLDATALOAD SWAP2 SWAP1 POP JUMP JUMPDEST PUSH1 0x0 DUP1 PUSH1 0x40 DUP4 DUP6 SUB SLT ISZERO PUSH2 0x1D0F JUMPI PUSH1 0x0 DUP1 REVERT JUMPDEST DUP3 CALLDATALOAD PUSH2 0x1D1A DUP2 PUSH2 0x19DC JUMP JUMPDEST SWAP2 POP PUSH1 0x20 DUP4 ADD CALLDATALOAD PUSH2 0x1D2A DUP2 PUSH2 0x19DC JUMP JUMPDEST DUP1 SWAP2 POP POP SWAP3 POP SWAP3 SWAP1 POP JUMP JUMPDEST PUSH1 0x0 DUP3 PUSH1 0x1F DUP4 ADD SLT PUSH2 0x1D46 JUMPI PUSH1 0x0 DUP1 REVERT JUMPDEST DUP2 CALLDATALOAD PUSH1 0x20 PUSH2 0x1D56 PUSH2 0x1C8D DUP4 PUSH2 0x1C22 JUMP JUMPDEST DUP3 DUP2 MSTORE PUSH1 0x5 SWAP3 SWAP1 SWAP3 SHL DUP5 ADD DUP2 ADD SWAP2 DUP2 DUP2 ADD SWAP1 DUP7 DUP5 GT ISZERO PUSH2 0x1D75 JUMPI PUSH1 0x0 DUP1 REVERT JUMPDEST DUP3 DUP7 ADD JUMPDEST DUP5 DUP2 LT ISZERO PUSH2 0x1D90 JUMPI DUP1 CALLDATALOAD DUP4 MSTORE SWAP2 DUP4 ADD SWAP2 DUP4 ADD PUSH2 0x1D79 JUMP JUMPDEST POP SWAP7 SWAP6 POP POP POP POP POP POP JUMP JUMPDEST PUSH1 0x0 DUP1 PUSH1 0x0 DUP1 PUSH1 0x0 DUP1 PUSH1 0x0 PUSH1 0xE0 DUP9 DUP11 SUB SLT ISZERO PUSH2 0x1DB6 JUMPI PUSH1 0x0 DUP1 REVERT JUMPDEST DUP8 CALLDATALOAD PUSH2 0x1DC1 DUP2 PUSH2 0x19DC JUMP JUMPDEST SWAP7 POP PUSH1 0x20 DUP9 DUP2 ADD CALLDATALOAD SWAP7 POP PUSH1 0x40 DUP10 ADD CALLDATALOAD SWAP6 POP PUSH1 0x60 DUP10 ADD CALLDATALOAD SWAP5 POP PUSH1 0x80 DUP10 ADD CALLDATALOAD PUSH1 0x1 PUSH1 0x1 PUSH1 0x40 SHL SUB DUP1 DUP3 GT ISZERO PUSH2 0x1DF3 JUMPI PUSH1 0x0 DUP1 REVERT JUMPDEST DUP2 DUP12 ADD SWAP2 POP DUP12 PUSH1 0x1F DUP4 ADD SLT PUSH2 0x1E07 JUMPI PUSH1 0x0 DUP1 REVERT JUMPDEST DUP2 CALLDATALOAD PUSH2 0x1E15 PUSH2 0x1C8D DUP3 PUSH2 0x1C22 JUMP JUMPDEST DUP2 DUP2 MSTORE PUSH1 0x5 SWAP2 SWAP1 SWAP2 SHL DUP4 ADD DUP5 ADD SWAP1 DUP5 DUP2 ADD SWAP1 DUP15 DUP4 GT ISZERO PUSH2 0x1E34 JUMPI PUSH1 0x0 DUP1 REVERT JUMPDEST SWAP4 DUP6 ADD SWAP4 JUMPDEST DUP3 DUP6 LT ISZERO PUSH2 0x1E59 JUMPI PUSH2 0x1E4A DUP6 PUSH2 0x1B30 JUMP JUMPDEST DUP3 MSTORE SWAP4 DUP6 ADD SWAP4 SWAP1 DUP6 ADD SWAP1 PUSH2 0x1E39 JUMP JUMPDEST SWAP8 POP POP POP PUSH1 0xA0 DUP12 ADD CALLDATALOAD SWAP3 POP DUP1 DUP4 GT ISZERO PUSH2 0x1E71 JUMPI PUSH1 0x0 DUP1 REVERT JUMPDEST PUSH2 0x1E7D DUP13 DUP5 DUP14 ADD PUSH2 0x1D35 JUMP JUMPDEST SWAP5 POP PUSH1 0xC0 DUP12 ADD CALLDATALOAD SWAP3 POP DUP1 DUP4 GT ISZERO PUSH2 0x1E93 JUMPI PUSH1 0x0 DUP1 REVERT JUMPDEST POP POP PUSH2 0x1EA1 DUP11 DUP3 DUP12 ADD PUSH2 0x1D35 JUMP JUMPDEST SWAP2 POP POP SWAP3 SWAP6 SWAP9 SWAP2 SWAP5 SWAP8 POP SWAP3 SWAP6 POP JUMP JUMPDEST PUSH1 0x1 DUP2 DUP2 SHR SWAP1 DUP3 AND DUP1 PUSH2 0x1EC4 JUMPI PUSH1 0x7F DUP3 AND SWAP2 POP JUMPDEST PUSH1 0x20 DUP3 LT DUP2 EQ ISZERO PUSH2 0x1EE5 JUMPI PUSH4 0x4E487B71 PUSH1 0xE0 SHL PUSH1 0x0 MSTORE PUSH1 0x22 PUSH1 0x4 MSTORE PUSH1 0x24 PUSH1 0x0 REVERT JUMPDEST POP SWAP2 SWAP1 POP JUMP JUMPDEST PUSH4 0x4E487B71 PUSH1 0xE0 SHL PUSH1 0x0 MSTORE PUSH1 0x11 PUSH1 0x4 MSTORE PUSH1 0x24 PUSH1 0x0 REVERT JUMPDEST PUSH1 0x0 DUP3 DUP3 LT ISZERO PUSH2 0x1F13 JUMPI PUSH2 0x1F13 PUSH2 0x1EEB JUMP JUMPDEST POP SUB SWAP1 JUMP JUMPDEST PUSH1 0x1 DUP2 DUP2 JUMPDEST DUP1 DUP6 GT ISZERO PUSH2 0x1F53 JUMPI DUP2 PUSH1 0x0 NOT DIV DUP3 GT ISZERO PUSH2 0x1F39 JUMPI PUSH2 0x1F39 PUSH2 0x1EEB JUMP JUMPDEST DUP1 DUP6 AND ISZERO PUSH2 0x1F46 JUMPI SWAP2 DUP2 MUL SWAP2 JUMPDEST SWAP4 DUP5 SHR SWAP4 SWAP1 DUP1 MUL SWAP1 PUSH2 0x1F1D JUMP JUMPDEST POP SWAP3 POP SWAP3 SWAP1 POP JUMP JUMPDEST PUSH1 0x0 DUP3 PUSH2 0x1F6A JUMPI POP PUSH1 0x1 PUSH2 0x686 JUMP JUMPDEST DUP2 PUSH2 0x1F77 JUMPI POP PUSH1 0x0 PUSH2 0x686 JUMP JUMPDEST DUP2 PUSH1 0x1 DUP2 EQ PUSH2 0x1F8D JUMPI PUSH1 0x2 DUP2 EQ PUSH2 0x1F97 JUMPI PUSH2 0x1FB3 JUMP JUMPDEST PUSH1 0x1 SWAP2 POP POP PUSH2 0x686 JUMP JUMPDEST PUSH1 0xFF DUP5 GT ISZERO PUSH2 0x1FA8 JUMPI PUSH2 0x1FA8 PUSH2 0x1EEB JUMP JUMPDEST POP POP PUSH1 0x1 DUP3 SHL PUSH2 0x686 JUMP JUMPDEST POP PUSH1 0x20 DUP4 LT PUSH2 0x133 DUP4 LT AND PUSH1 0x4E DUP5 LT PUSH1 0xB DUP5 LT AND OR ISZERO PUSH2 0x1FD6 JUMPI POP DUP2 DUP2 EXP PUSH2 0x686 JUMP JUMPDEST PUSH2 0x1FE0 DUP4 DUP4 PUSH2 0x1F18 JUMP JUMPDEST DUP1 PUSH1 0x0 NOT DIV DUP3 GT ISZERO PUSH2 0x1FF4 JUMPI PUSH2 0x1FF4 PUSH2 0x1EEB JUMP JUMPDEST MUL SWAP4 SWAP3 POP POP POP JUMP JUMPDEST PUSH1 0x0 PUSH2 0x1121 PUSH1 0xFF DUP5 AND DUP4 PUSH2 0x1F5B JUMP JUMPDEST PUSH1 0x0 DUP2 PUSH1 0x0 NOT DIV DUP4 GT DUP3 ISZERO ISZERO AND ISZERO PUSH2 0x2025 JUMPI PUSH2 0x2025 PUSH2 0x1EEB JUMP JUMPDEST POP MUL SWAP1 JUMP JUMPDEST PUSH1 0x0 DUP3 NOT DUP3 GT ISZERO PUSH2 0x203D JUMPI PUSH2 0x203D PUSH2 0x1EEB JUMP JUMPDEST POP ADD SWAP1 JUMP JUMPDEST PUSH4 0x4E487B71 PUSH1 0xE0 SHL PUSH1 0x0 MSTORE PUSH1 0x32 PUSH1 0x4 MSTORE PUSH1 0x24 PUSH1 0x0 REVERT JUMPDEST PUSH1 0x0 PUSH1 0xFF DUP3 AND PUSH1 0xFF DUP2 EQ ISZERO PUSH2 0x206F JUMPI PUSH2 0x206F PUSH2 0x1EEB JUMP JUMPDEST PUSH1 0x1 ADD SWAP3 SWAP2 POP POP JUMP JUMPDEST PUSH1 0x0 PUSH1 0x1 PUSH1 0x1 PUSH1 0x40 SHL SUB DUP1 DUP4 AND DUP2 DUP2 EQ ISZERO PUSH2 0x2095 JUMPI PUSH2 0x2095 PUSH2 0x1EEB JUMP JUMPDEST PUSH1 0x1 ADD SWAP4 SWAP3 POP POP POP JUMP JUMPDEST PUSH1 0x0 DUP3 PUSH2 0x20BC JUMPI PUSH4 0x4E487B71 PUSH1 0xE0 SHL PUSH1 0x0 MSTORE PUSH1 0x12 PUSH1 0x4 MSTORE PUSH1 0x24 PUSH1 0x0 REVERT JUMPDEST POP DIV SWAP1 JUMP JUMPDEST PUSH1 0x20 DUP1 DUP3 MSTORE PUSH1 0x2B SWAP1 DUP3 ADD MSTORE PUSH32 0x496E697469616C697A61626C653A20636F6E7472616374206973206E6F742069 PUSH1 0x40 DUP3 ADD MSTORE PUSH11 0x6E697469616C697A696E67 PUSH1 0xA8 SHL PUSH1 0x60 DUP3 ADD MSTORE PUSH1 0x80 ADD SWAP1 JUMP INVALID LOG2 PUSH5 0x6970667358 0x22 SLT KECCAK256 DUP16 SIGNEXTEND 0xB7 DIV DUP5 SWAP7 JUMP BASEFEE PUSH32 0xE573F454050A5723A0CED3510D81906C81DC646DF9836F64736F6C634300080C STOP CALLER "
				},
				"gasEstimates": {
					"creation": {
						"codeDepositCost": "1702800",
						"executionCost": "1792",
						"totalCost": "1704592"
					},
					"external": {
						"_mapSigners(address)": "2570",
						"allowance(address,address)": "infinite",
						"approve(address,uint256)": "24691",
						"balanceOf(address)": "2620",
						"cap()": "2382",
						"decimals()": "2357",
						"decreaseAllowance(address,uint256)": "27012",
						"getRewardAmt()": "2403",
						"getSigners()": "infinite",
						"getTaxFee()": "2380",
						"increaseAllowance(address,uint256)": "27089",
						"initialize(string,string,uint8,uint256,uint256,uint256)": "infinite",
						"mapSigner(address)": "2612",
						"name()": "infinite",
						"nodeControllerBurn(address,uint256)": "infinite",
						"owner()": "2347",
						"permitMint(address,uint256,uint256,uint256,uint8[],bytes32[],bytes32[])": "infinite",
						"renounceOwnership()": "infinite",
						"setNodeControllerContract(address)": "26796",
						"setRewardAmtInWei(uint256)": "24533",
						"setSigners(address[])": "infinite",
						"setTaxFee(uint256)": "24555",
						"symbol()": "infinite",
						"totalBurned()": "2384",
						"totalSupply()": "2327",
						"transfer(address,uint256)": "infinite",
						"transferFrom(address,address,uint256)": "infinite",
						"transferOwnership(address)": "infinite",
						"uniqueIdExists(uint256)": "2560",
						"userTotalBurned(address)": "2581"
					},
					"internal": {
						"_burnAndUpdate(address,uint256)": "infinite",
						"_calculateBurnAmt(uint256)": "2288",
						"_updateMap(address[] memory,bool,mapping(address => bool))": "infinite"
					}
				},
				"methodIdentifiers": {
					"_mapSigners(address)": "3de47e32",
					"allowance(address,address)": "dd62ed3e",
					"approve(address,uint256)": "095ea7b3",
					"balanceOf(address)": "70a08231",
					"cap()": "355274ea",
					"decimals()": "313ce567",
					"decreaseAllowance(address,uint256)": "a457c2d7",
					"getRewardAmt()": "ac7fa3c6",
					"getSigners()": "94cf795e",
					"getTaxFee()": "f66608fe",
					"increaseAllowance(address,uint256)": "39509351",
					"initialize(string,string,uint8,uint256,uint256,uint256)": "2b9a1d3c",
					"mapSigner(address)": "07c351dd",
					"name()": "06fdde03",
					"nodeControllerBurn(address,uint256)": "1e71e435",
					"owner()": "8da5cb5b",
					"permitMint(address,uint256,uint256,uint256,uint8[],bytes32[],bytes32[])": "e4c97e6a",
					"renounceOwnership()": "715018a6",
					"setNodeControllerContract(address)": "4cdbab5b",
					"setRewardAmtInWei(uint256)": "b24a0893",
					"setSigners(address[])": "a3772662",
					"setTaxFee(uint256)": "c4081a4c",
					"symbol()": "95d89b41",
					"totalBurned()": "d89135cd",
					"totalSupply()": "18160ddd",
					"transfer(address,uint256)": "a9059cbb",
					"transferFrom(address,address,uint256)": "23b872dd",
					"transferOwnership(address)": "f2fde38b",
					"uniqueIdExists(uint256)": "f9342285",
					"userTotalBurned(address)": "1e0d4ce9"
				}
			},
			"storageLayout": {
				"storage": [
					{
						"astId": 138,
						"contract": "token/DeAnt3Token.sol:DeAnt3Token",
						"label": "_initialized",
						"offset": 0,
						"slot": "0",
						"type": "t_uint8"
					},
					{
						"astId": 141,
						"contract": "token/DeAnt3Token.sol:DeAnt3Token",
						"label": "_initializing",
						"offset": 1,
						"slot": "0",
						"type": "t_bool"
					},
					{
						"astId": 1427,
						"contract": "token/DeAnt3Token.sol:DeAnt3Token",
						"label": "__gap",
						"offset": 0,
						"slot": "1",
						"type": "t_array(t_uint256)50_storage"
					},
					{
						"astId": 319,
						"contract": "token/DeAnt3Token.sol:DeAnt3Token",
						"label": "_balances",
						"offset": 0,
						"slot": "51",
						"type": "t_mapping(t_address,t_uint256)"
					},
					{
						"astId": 325,
						"contract": "token/DeAnt3Token.sol:DeAnt3Token",
						"label": "_allowances",
						"offset": 0,
						"slot": "52",
						"type": "t_mapping(t_address,t_mapping(t_address,t_uint256))"
					},
					{
						"astId": 327,
						"contract": "token/DeAnt3Token.sol:DeAnt3Token",
						"label": "_totalSupply",
						"offset": 0,
						"slot": "53",
						"type": "t_uint256"
					},
					{
						"astId": 329,
						"contract": "token/DeAnt3Token.sol:DeAnt3Token",
						"label": "_name",
						"offset": 0,
						"slot": "54",
						"type": "t_string_storage"
					},
					{
						"astId": 331,
						"contract": "token/DeAnt3Token.sol:DeAnt3Token",
						"label": "_symbol",
						"offset": 0,
						"slot": "55",
						"type": "t_string_storage"
					},
					{
						"astId": 911,
						"contract": "token/DeAnt3Token.sol:DeAnt3Token",
						"label": "__gap",
						"offset": 0,
						"slot": "56",
						"type": "t_array(t_uint256)45_storage"
					},
					{
						"astId": 1001,
						"contract": "token/DeAnt3Token.sol:DeAnt3Token",
						"label": "_cap",
						"offset": 0,
						"slot": "101",
						"type": "t_uint256"
					},
					{
						"astId": 1076,
						"contract": "token/DeAnt3Token.sol:DeAnt3Token",
						"label": "__gap",
						"offset": 0,
						"slot": "102",
						"type": "t_array(t_uint256)50_storage"
					},
					{
						"astId": 10,
						"contract": "token/DeAnt3Token.sol:DeAnt3Token",
						"label": "_owner",
						"offset": 0,
						"slot": "152",
						"type": "t_address"
					},
					{
						"astId": 130,
						"contract": "token/DeAnt3Token.sol:DeAnt3Token",
						"label": "__gap",
						"offset": 0,
						"slot": "153",
						"type": "t_array(t_uint256)49_storage"
					},
					{
						"astId": 1441,
						"contract": "token/DeAnt3Token.sol:DeAnt3Token",
						"label": "_name",
						"offset": 0,
						"slot": "202",
						"type": "t_string_storage"
					},
					{
						"astId": 1443,
						"contract": "token/DeAnt3Token.sol:DeAnt3Token",
						"label": "_symbol",
						"offset": 0,
						"slot": "203",
						"type": "t_string_storage"
					},
					{
						"astId": 1445,
						"contract": "token/DeAnt3Token.sol:DeAnt3Token",
						"label": "_decimals",
						"offset": 0,
						"slot": "204",
						"type": "t_uint8"
					},
					{
						"astId": 1447,
						"contract": "token/DeAnt3Token.sol:DeAnt3Token",
						"label": "_rewardAmt",
						"offset": 0,
						"slot": "205",
						"type": "t_uint256"
					},
					{
						"astId": 1449,
						"contract": "token/DeAnt3Token.sol:DeAnt3Token",
						"label": "_cap",
						"offset": 0,
						"slot": "206",
						"type": "t_uint256"
					},
					{
						"astId": 1451,
						"contract": "token/DeAnt3Token.sol:DeAnt3Token",
						"label": "_taxFee",
						"offset": 0,
						"slot": "207",
						"type": "t_uint256"
					},
					{
						"astId": 1453,
						"contract": "token/DeAnt3Token.sol:DeAnt3Token",
						"label": "totalBurned",
						"offset": 0,
						"slot": "208",
						"type": "t_uint256"
					},
					{
						"astId": 1456,
						"contract": "token/DeAnt3Token.sol:DeAnt3Token",
						"label": "_signers",
						"offset": 0,
						"slot": "209",
						"type": "t_array(t_address)dyn_storage"
					},
					{
						"astId": 1460,
						"contract": "token/DeAnt3Token.sol:DeAnt3Token",
						"label": "_mapSigners",
						"offset": 0,
						"slot": "210",
						"type": "t_mapping(t_address,t_bool)"
					},
					{
						"astId": 1464,
						"contract": "token/DeAnt3Token.sol:DeAnt3Token",
						"label": "uniqueIdExists",
						"offset": 0,
						"slot": "211",
						"type": "t_mapping(t_uint256,t_bool)"
					},
					{
						"astId": 1468,
						"contract": "token/DeAnt3Token.sol:DeAnt3Token",
						"label": "userTotalBurned",
						"offset": 0,
						"slot": "212",
						"type": "t_mapping(t_address,t_uint256)"
					},
					{
						"astId": 1470,
						"contract": "token/DeAnt3Token.sol:DeAnt3Token",
						"label": "nodeControllerContract",
						"offset": 0,
						"slot": "213",
						"type": "t_address"
					}
				],
				"types": {
					"t_address": {
						"encoding": "inplace",
						"label": "address",
						"numberOfBytes": "20"
					},
					"t_array(t_address)dyn_storage": {
						"base": "t_address",
						"encoding": "dynamic_array",
						"label": "address[]",
						"numberOfBytes": "32"
					},
					"t_array(t_uint256)45_storage": {
						"base": "t_uint256",
						"encoding": "inplace",
						"label": "uint256[45]",
						"numberOfBytes": "1440"
					},
					"t_array(t_uint256)49_storage": {
						"base": "t_uint256",
						"encoding": "inplace",
						"label": "uint256[49]",
						"numberOfBytes": "1568"
					},
					"t_array(t_uint256)50_storage": {
						"base": "t_uint256",
						"encoding": "inplace",
						"label": "uint256[50]",
						"numberOfBytes": "1600"
					},
					"t_bool": {
						"encoding": "inplace",
						"label": "bool",
						"numberOfBytes": "1"
					},
					"t_mapping(t_address,t_bool)": {
						"encoding": "mapping",
						"key": "t_address",
						"label": "mapping(address => bool)",
						"numberOfBytes": "32",
						"value": "t_bool"
					},
					"t_mapping(t_address,t_mapping(t_address,t_uint256))": {
						"encoding": "mapping",
						"key": "t_address",
						"label": "mapping(address => mapping(address => uint256))",
						"numberOfBytes": "32",
						"value": "t_mapping(t_address,t_uint256)"
					},
					"t_mapping(t_address,t_uint256)": {
						"encoding": "mapping",
						"key": "t_address",
						"label": "mapping(address => uint256)",
						"numberOfBytes": "32",
						"value": "t_uint256"
					},
					"t_mapping(t_uint256,t_bool)": {
						"encoding": "mapping",
						"key": "t_uint256",
						"label": "mapping(uint256 => bool)",
						"numberOfBytes": "32",
						"value": "t_bool"
					},
					"t_string_storage": {
						"encoding": "bytes",
						"label": "string",
						"numberOfBytes": "32"
					},
					"t_uint256": {
						"encoding": "inplace",
						"label": "uint256",
						"numberOfBytes": "32"
					},
					"t_uint8": {
						"encoding": "inplace",
						"label": "uint8",
						"numberOfBytes": "1"
					}
				}
			},
			"userdoc": {
				"kind": "user",
				"methods": {},
				"version": 1
			}
		}
	}
}