{
	"data": {
		"bytecode": {
			"linkReferences": {},
			"object": "608060405234801561001057600080fd5b50612366806100206000396000f3fe608060405234801561001057600080fd5b50600436106102275760003560e01c80638da5cb5b11610130578063c29889de116100b8578063f2fde38b1161007c578063f2fde38b1461052f578063f794e8a414610542578063f8c8765e14610562578063fa180dc914610575578063fce9e70d1461058857600080fd5b8063c29889de146104c3578063e3664210146104d6578063eef21cd2146104e9578063efaa0c99146104fc578063f27726d91461051c57600080fd5b8063aeabec08116100ff578063aeabec081461046e578063b4f2d27714610481578063b74e452b14610494578063bb36aebe1461049d578063beb92f55146104b057600080fd5b80638da5cb5b1461042457806392a3eaf51461043557806392c82c37146104485780639aa97be51461045b57600080fd5b806351ec4f56116101b357806371070aac1161018257806371070aac1461036f578063715018a61461038f57806379b6340a146103975780637d60dc16146103ee578063804a88f61461040157600080fd5b806351ec4f561461033857806357ac1ab21461034157806359d637ac146103545780635edcfc7c1461035c57600080fd5b8063293baee2116101fa578063293baee2146102d55780632a5833ad146102e85780632d31a074146102fd57806337f960da146103105780633fea1ade1461032357600080fd5b806303d938281461022c57806311a0ed9b146102545780631712d6dc1461027c5780631ccbe917146102a7575b600080fd5b61023f61023a366004611db1565b61059b565b60405190151581526020015b60405180910390f35b610267610262366004611ddd565b610790565b6040805192835260208301919091520161024b565b61028f61028a366004611ddd565b6107dd565b6040516001600160a01b03909116815260200161024b565b6102c76102b5366004611df6565b60766020526000908152604090205481565b60405190815260200161024b565b60725461028f906001600160a01b031681565b6102fb6102f6366004611e1a565b610807565b005b606f5461028f906001600160a01b031681565b6102fb61031e366004611f76565b610821565b61032b610a1d565b60405161024b9190611ffe565b6102c7607d5481565b6102fb61034f366004611e1a565b610aa2565b607d546102c7565b6102fb61036a366004611ddd565b610ad8565b6102c761037d366004611df6565b60746020526000908152604090205481565b6102fb610ae5565b606854606954606a54606b54606c54606d54606e546103b99695949392919087565b604080519788526020880196909652948601939093526060850191909152608084015260a083015260c082015260e00161024b565b60665461028f906001600160a01b031681565b61023f61040f366004611df6565b60786020526000908152604090205460ff1681565b6033546001600160a01b031661028f565b6102fb610443366004612042565b610af9565b6102fb610456366004611df6565b610c15565b6102fb610469366004611df6565b610c3f565b6102fb61047c366004611e1a565b610ca3565b6102fb61048f3660046120a6565b610cd5565b6102c760795481565b60655461028f906001600160a01b031681565b6102fb6104be366004611df6565b610d39565b60715461028f906001600160a01b031681565b60705461028f906001600160a01b031681565b6102fb6104f7366004611df6565b610dd9565b6102c761050a366004611df6565b60756020526000908152604090205481565b6102fb61052a366004611e1a565b610e6a565b6102fb61053d366004611df6565b6110a9565b6102c7610550366004611df6565b60776020526000908152604090205481565b6102fb6105703660046120d6565b611122565b60675461028f906001600160a01b031681565b6102fb610596366004611df6565b6113a1565b6066546000906001600160a01b031633146105fd5760405162461bcd60e51b815260206004820152601f60248201527f4f6e6c792063616c6c61626c652066726f6d20616e7433436f6e74726163740060448201526064015b60405180910390fd5b604080516001600160a01b03851681523060208201529081018390527f36caad1537e014a281b9a1df0065dfc68fef76f0c9c6f8453b546e8b022e48a99060600160405180910390a16000610653600284612148565b90506000610661828561216a565b606654606f5460405163a9059cbb60e01b81526001600160a01b03918216600482015260248101869052929350169063a9059cbb906044016020604051808303816000875af11580156106b8573d6000803e3d6000fd5b505050506040513d601f19601f820116820180604052508101906106dc9190612192565b50606f546106f3906001600160a01b0316836113cb565b60665460705460405163a9059cbb60e01b81526001600160a01b0391821660048201526024810184905291169063a9059cbb906044016020604051808303816000875af1158015610748573d6000803e3d6000fd5b505050506040513d601f19601f8201168201806040525081019061076c9190612192565b50607054610783906001600160a01b0316826113cb565b6001925050505b92915050565b600080826001036107aa5750506068546069549092909150565b826002036107c1575050606a54606b549092909150565b826003036107d8575050606c54606d549092909150565b915091565b607381815481106107ed57600080fd5b6000918252602090912001546001600160a01b0316905081565b61080f61144d565b6000918252607a602052604090912055565b3360008181526078602052604090205460ff166108725760405162461bcd60e51b815260206004820152600f60248201526e24b73b30b634b21031b0b63632b91760891b60448201526064016105f4565b82518451148015610884575081518451145b6108d05760405162461bcd60e51b815260206004820152601a60248201527f496e76616c6964206c656e677468206f6620656c656d656e747300000000000060448201526064016105f4565b60008060005b8651811015610a1457606f5487516001600160a01b039091169063b85b835590899084908110610908576109086121ad565b6020026020010151888481518110610922576109226121ad565b602002602001015188858151811061093c5761093c6121ad565b60209081029190910101516040516001600160e01b031960e086901b1681526001600160a01b0390931660048401526024830191909152604482015260640160408051808303816000875af1158015610999573d6000803e3d6000fd5b505050506040513d601f19601f820116820180604052508101906109bd91906121c3565b90935091508115610a0257610a028782815181106109dd576109dd6121ad565b6020026020010151846001600160a01b03909116600090815260776020526040902055565b80610a0c816121ef565b9150506108d6565b50505050505050565b604080516003808252608082019092526060916000919060208201848036833701905050905060005b6003811015610a9c57607b6000610a5e836001612208565b815260200190815260200160002054828281518110610a7f57610a7f6121ad565b602090810291909101015280610a94816121ef565b915050610a46565b50919050565b610aaa61144d565b81600103610ab85760695550565b81600203610ac657606b5550565b81600303610ad457606d8190555b5050565b610ae061144d565b607d55565b610aed61144d565b610af760006114a7565b565b610b0161144d565b8051825114610b525760405162461bcd60e51b815260206004820152601a60248201527f496e76616c6964206c656e677468206f6620656c656d656e747300000000000060448201526064016105f4565b60005b8251811015610c105760005b828281518110610b7357610b736121ad565b6020026020010151811015610bfd57607c8054906000610b92836121ef565b9190505550838281518110610ba957610ba96121ad565b6020026020010151607e6000607c54815260200190815260200160002060006101000a8154816001600160a01b0302191690836001600160a01b031602179055508080610bf5906121ef565b915050610b61565b5080610c08816121ef565b915050610b55565b505050565b610c1d61144d565b606f80546001600160a01b0319166001600160a01b0392909216919091179055565b610c4761144d565b607080546001600160a01b039092166001600160a01b03199283168117909155607380546001810182556000919091527ff79bde9ddd17963ebce6f7d021d60de7c2bd0db944d23c900c0c0e775f530052018054909216179055565b610cab61144d565b81600103610cb95760685550565b81600203610cc757606a5550565b81600303610ad457606c5550565b610cdd61144d565b60005b82811015610c1057607c8054906000610cf8836121ef565b9091555050607c546000908152607e6020526040902080546001600160a01b0319166001600160a01b03841617905580610d31816121ef565b915050610ce0565b610d4161144d565b6001600160a01b03811660009081526078602052604090205460ff1615610db55760405162461bcd60e51b815260206004820152602260248201527f4164647265737320616c726561647920697320612076616c69642063616c6c65604482015261391760f11b60648201526084016105f4565b6001600160a01b03166000908152607860205260409020805460ff19166001179055565b610de161144d565b6001600160a01b03811660009081526078602052604090205460ff16610e495760405162461bcd60e51b815260206004820152601e60248201527f41646472657373206973206e6f7420612076616c69642063616c6c65722e000060448201526064016105f4565b6001600160a01b03166000908152607860205260409020805460ff19169055565b600080610e7684610790565b91509150600082118015610e8a5750600081115b610ed65760405162461bcd60e51b815260206004820152601960248201527f5072696365206d757374206265206d6f7265207468616e20300000000000000060448201526064016105f4565b610ee18484336114f9565b606554604051631e71e43560e01b8152336004820152602481018490526001600160a01b0390911690631e71e43590604401600060405180830381600087803b158015610f2d57600080fd5b505af1158015610f41573d6000803e3d6000fd5b50506067546040516323b872dd60e01b8152336004820152306024820152604481018590526001600160a01b0390911692506323b872dd91506064016020604051808303816000875af1158015610f9c573d6000803e3d6000fd5b505050506040513d601f19601f82011682018060405250810190610fc09190612192565b50610fcb3385611699565b33600090815260776020526040902054841115610ff5573360009081526077602052604090208490555b60006110013386611726565b606f5460405163ef134a5f60e01b81523360048201526024810183905260448101889052606481018690529192506000916001600160a01b039091169063ef134a5f906084016020604051808303816000875af1158015611066573d6000803e3d6000fd5b505050506040513d601f19601f8201168201806040525081019061108a919061221b565b9050611098338388846118c2565b6110a184611c39565b505050505050565b6110b161144d565b6001600160a01b0381166111165760405162461bcd60e51b815260206004820152602660248201527f4f776e61626c653a206e6577206f776e657220697320746865207a65726f206160448201526564647265737360d01b60648201526084016105f4565b61111f816114a7565b50565b600054610100900460ff16158080156111425750600054600160ff909116105b8061115c5750303b15801561115c575060005460ff166001145b6111bf5760405162461bcd60e51b815260206004820152602e60248201527f496e697469616c697a61626c653a20636f6e747261637420697320616c72656160448201526d191e481a5b9a5d1a585b1a5e995960921b60648201526084016105f4565b6000805460ff1916600117905580156111e2576000805461ff0019166101001790555b6111ea611c93565b606580546001600160a01b03199081166001600160a01b03888116919091179092556066805482168784161790556067805482168684161790556072805490911684831617905560646068819055600a60698190556103e8606a819055606b839055612710606c55606d55620186a0607c557f32fc32e8e6a367a782c09a02fa01aab4c63a2b183ce5fee9b74a77503c0667c78190557f1b1f440aa85fdd106751da9f081002151e81d7f9c9a991d7f6a7ef20e0b9176f82905561012c7f87b4f67b2406d03a55b52bb16d21c469b6c736dc05d05baecc1db4bc2bbb1dbf8190557f0aaa3ce42286152b719abbca9f317d4abc82039051363ec7758d508c8a88401a919091557f6b4e4cdeecc1cedc87704b94f7d0334f48057b970752f0bd2a553909bc33a5af919091557f51ab5d00f46f3bf7ac9071b8cc3ca49716d88812c76be886050ca6209e5c3fcf55603354166000908152607860205260409020805460ff19166001179055801561139a576000805461ff0019169055604051600181527f7f26b83ff96e1f2b6a682f133852f6798a09c465da95921460cefb38474024989060200160405180910390a15b5050505050565b6113a961144d565b607280546001600160a01b0319166001600160a01b0392909216919091179055565b6001600160a01b0382163b15610ad457604051627b270560e31b8152306004820152602481018290526001600160a01b038316906303d93828906044016020604051808303816000875af1925050508015611443575060408051601f3d908101601f1916820190925261144091810190612192565b60015b15610ad457505050565b6033546001600160a01b03163314610af75760405162461bcd60e51b815260206004820181905260248201527f4f776e61626c653a2063616c6c6572206973206e6f7420746865206f776e657260448201526064016105f4565b603380546001600160a01b038381166001600160a01b0319831681179093556040519116919082907f8be0079c531659141344cd1fd0a4f28419497f9722a3daafe3b4186f6b6457e090600090a35050565b6079546115099062015180612208565b42106115955760005b600381101561156d57607a600061152a836001612208565b815260200190815260200160002054607b600083600161154a9190612208565b815260208101919091526040016000205580611565816121ef565b915050611512565b506079546000036115815742607955611595565b6079546115919062015180612208565b6079555b811561161a576000828152607e60205260409020546001600160a01b038281169116146115fa5760405162461bcd60e51b815260206004820152601360248201527224b73b30b634b210283937b6b79021b7b2329760691b60448201526064016105f4565b506000908152607e6020526040902080546001600160a01b031916905550565b6000838152607b60205260409020546116755760405162461bcd60e51b815260206004820152601760248201527f52656163686564206c696d6974206f662071756f74612e00000000000000000060448201526064016105f4565b6000838152607b6020526040812080549161168f83612234565b9190505550505050565b806001036116ce576001600160a01b03821660009081526074602052604081208054916116c5836121ef565b91905055505050565b806002036116fa576001600160a01b03821660009081526075602052604081208054916116c5836121ef565b80600303610ad4576001600160a01b03821660009081526076602052604081208054916116c5836121ef565b6000816003036117b6576001600160a01b038316600090815260766020526040902054600a101561175a57506104b061078a565b6001600160a01b038316600090815260766020526040902054600510801561179a57506001600160a01b038316600090815260766020526040902054600b115b156117a8575061044c61078a565b506103e861078a565b61078a565b8160020361183c576001600160a01b038316600090815260756020526040902054600a10156117e75750607861078a565b6001600160a01b038316600090815260756020526040902054600510801561182757506001600160a01b038316600090815260756020526040902054600b115b156118345750606e61078a565b50606461078a565b8160010361078a576001600160a01b038316600090815260746020526040902054600a101561186d5750600c61078a565b6001600160a01b03831660009081526074602052604090205460051080156118ad57506001600160a01b038316600090815260746020526040902054600b115b156118ba5750600b61078a565b50600a61078a565b607254604051631c8a1fb760e21b81526001600160a01b0386811660048301526006602483015260009216906372287edc90604401600060405180830381865afa158015611914573d6000803e3d6000fd5b505050506040513d6000823e601f3d908101601f1916820160405261193c919081019061224b565b905060005b81518110156110a157606f5482516001600160a01b039091169063b362725d90849084908110611973576119736121ad565b60200260200101516040518263ffffffff1660e01b81526004016119a691906001600160a01b0391909116815260200190565b602060405180830381865afa1580156119c3573d6000803e3d6000fd5b505050506040513d601f19601f820116820180604052508101906119e79190612192565b1515600103611c27576000611a3a8560776000868681518110611a0c57611a0c6121ad565b60200260200101516001600160a01b03166001600160a01b0316815260200190815260200160002054611cc2565b9050600060738381548110611a5157611a516121ad565b60009182526020909120015484516001600160a01b039091169063ef75c38690869086908110611a8357611a836121ad565b60209081029190910101516040516001600160e01b031960e084901b1681526001600160a01b039091166004820152602481018a9052604481018590526064016020604051808303816000875af1158015611ae2573d6000803e3d6000fd5b505050506040513d601f19601f82011682018060405250810190611b06919061221b565b90507fb94a08333baf9b3f9b10bc5d885893b4889cd7e9b376c8b5de26ef8b14fd2d1385828a878781518110611b3e57611b3e6121ad565b6020026020010151876001611b539190612208565b878d60738b81548110611b6857611b686121ad565b6000918252602091829020015460408051634231a2c360e01b815290516001600160a01b0390921692634231a2c3926004808401938290030181865afa158015611bb6573d6000803e3d6000fd5b505050506040513d601f19601f82011682018060405250810190611bda919061221b565b6040805198895260208901979097526001600160a01b0395861696880196909652939092166060860152608085015260a084015260c083015260e08201526101000160405180910390a150505b80611c31816121ef565b915050611941565b60665460405163140e25ad60e31b8152600481018390526001600160a01b039091169063a0712d6890602401600060405180830381600087803b158015611c7f57600080fd5b505af115801561139a573d6000803e3d6000fd5b600054610100900460ff16611cba5760405162461bcd60e51b81526004016105f4906122e5565b610af7611d6c565b600082600103611cfc5781600103611cdc5750601461078a565b81600203611cec5750601e61078a565b816003036117b15750602861078a565b82600203611d345781600103611d145750601e61078a565b81600203611d245750602d61078a565b816003036117b15750603261078a565b8260030361078a5781600103611d4c5750602861078a565b81600203611d5c5750603c61078a565b8160030361078a5750605061078a565b600054610100900460ff16611d935760405162461bcd60e51b81526004016105f4906122e5565b610af7336114a7565b6001600160a01b038116811461111f57600080fd5b60008060408385031215611dc457600080fd5b8235611dcf81611d9c565b946020939093013593505050565b600060208284031215611def57600080fd5b5035919050565b600060208284031215611e0857600080fd5b8135611e1381611d9c565b9392505050565b60008060408385031215611e2d57600080fd5b50508035926020909101359150565b634e487b7160e01b600052604160045260246000fd5b604051601f8201601f1916810167ffffffffffffffff81118282101715611e7b57611e7b611e3c565b604052919050565b600067ffffffffffffffff821115611e9d57611e9d611e3c565b5060051b60200190565b600082601f830112611eb857600080fd5b81356020611ecd611ec883611e83565b611e52565b82815260059290921b84018101918181019086841115611eec57600080fd5b8286015b84811015611f10578035611f0381611d9c565b8352918301918301611ef0565b509695505050505050565b600082601f830112611f2c57600080fd5b81356020611f3c611ec883611e83565b82815260059290921b84018101918181019086841115611f5b57600080fd5b8286015b84811015611f105780358352918301918301611f5f565b600080600060608486031215611f8b57600080fd5b833567ffffffffffffffff80821115611fa357600080fd5b611faf87838801611ea7565b94506020860135915080821115611fc557600080fd5b611fd187838801611f1b565b93506040860135915080821115611fe757600080fd5b50611ff486828701611f1b565b9150509250925092565b6020808252825182820181905260009190848201906040850190845b818110156120365783518352928401929184019160010161201a565b50909695505050505050565b6000806040838503121561205557600080fd5b823567ffffffffffffffff8082111561206d57600080fd5b61207986838701611ea7565b9350602085013591508082111561208f57600080fd5b5061209c85828601611f1b565b9150509250929050565b600080604083850312156120b957600080fd5b8235915060208301356120cb81611d9c565b809150509250929050565b600080600080608085870312156120ec57600080fd5b84356120f781611d9c565b9350602085013561210781611d9c565b9250604085013561211781611d9c565b9150606085013561212781611d9c565b939692955090935050565b634e487b7160e01b600052601160045260246000fd5b60008261216557634e487b7160e01b600052601260045260246000fd5b500490565b8181038181111561078a5761078a612132565b8051801515811461218d57600080fd5b919050565b6000602082840312156121a457600080fd5b611e138261217d565b634e487b7160e01b600052603260045260246000fd5b600080604083850312156121d657600080fd5b825191506121e66020840161217d565b90509250929050565b60006001820161220157612201612132565b5060010190565b8082018082111561078a5761078a612132565b60006020828403121561222d57600080fd5b5051919050565b60008161224357612243612132565b506000190190565b6000602080838503121561225e57600080fd5b825167ffffffffffffffff81111561227557600080fd5b8301601f8101851361228657600080fd5b8051612294611ec882611e83565b81815260059190911b820183019083810190878311156122b357600080fd5b928401925b828410156122da5783516122cb81611d9c565b825292840192908401906122b8565b979650505050505050565b6020808252602b908201527f496e697469616c697a61626c653a20636f6e7472616374206973206e6f74206960408201526a6e697469616c697a696e6760a81b60608201526080019056fea26469706673582212205d3d7b16414e23454c2d74c4447c629ce987e2f7fa1cb45c803be1f261a5251864736f6c63430008110033",
			"opcodes": "PUSH1 0x80 PUSH1 0x40 MSTORE CALLVALUE DUP1 ISZERO PUSH2 0x10 JUMPI PUSH1 0x0 DUP1 REVERT JUMPDEST POP PUSH2 0x2366 DUP1 PUSH2 0x20 PUSH1 0x0 CODECOPY PUSH1 0x0 RETURN INVALID PUSH1 0x80 PUSH1 0x40 MSTORE CALLVALUE DUP1 ISZERO PUSH2 0x10 JUMPI PUSH1 0x0 DUP1 REVERT JUMPDEST POP PUSH1 0x4 CALLDATASIZE LT PUSH2 0x227 JUMPI PUSH1 0x0 CALLDATALOAD PUSH1 0xE0 SHR DUP1 PUSH4 0x8DA5CB5B GT PUSH2 0x130 JUMPI DUP1 PUSH4 0xC29889DE GT PUSH2 0xB8 JUMPI DUP1 PUSH4 0xF2FDE38B GT PUSH2 0x7C JUMPI DUP1 PUSH4 0xF2FDE38B EQ PUSH2 0x52F JUMPI DUP1 PUSH4 0xF794E8A4 EQ PUSH2 0x542 JUMPI DUP1 PUSH4 0xF8C8765E EQ PUSH2 0x562 JUMPI DUP1 PUSH4 0xFA180DC9 EQ PUSH2 0x575 JUMPI DUP1 PUSH4 0xFCE9E70D EQ PUSH2 0x588 JUMPI PUSH1 0x0 DUP1 REVERT JUMPDEST DUP1 PUSH4 0xC29889DE EQ PUSH2 0x4C3 JUMPI DUP1 PUSH4 0xE3664210 EQ PUSH2 0x4D6 JUMPI DUP1 PUSH4 0xEEF21CD2 EQ PUSH2 0x4E9 JUMPI DUP1 PUSH4 0xEFAA0C99 EQ PUSH2 0x4FC JUMPI DUP1 PUSH4 0xF27726D9 EQ PUSH2 0x51C JUMPI PUSH1 0x0 DUP1 REVERT JUMPDEST DUP1 PUSH4 0xAEABEC08 GT PUSH2 0xFF JUMPI DUP1 PUSH4 0xAEABEC08 EQ PUSH2 0x46E JUMPI DUP1 PUSH4 0xB4F2D277 EQ PUSH2 0x481 JUMPI DUP1 PUSH4 0xB74E452B EQ PUSH2 0x494 JUMPI DUP1 PUSH4 0xBB36AEBE EQ PUSH2 0x49D JUMPI DUP1 PUSH4 0xBEB92F55 EQ PUSH2 0x4B0 JUMPI PUSH1 0x0 DUP1 REVERT JUMPDEST DUP1 PUSH4 0x8DA5CB5B EQ PUSH2 0x424 JUMPI DUP1 PUSH4 0x92A3EAF5 EQ PUSH2 0x435 JUMPI DUP1 PUSH4 0x92C82C37 EQ PUSH2 0x448 JUMPI DUP1 PUSH4 0x9AA97BE5 EQ PUSH2 0x45B JUMPI PUSH1 0x0 DUP1 REVERT JUMPDEST DUP1 PUSH4 0x51EC4F56 GT PUSH2 0x1B3 JUMPI DUP1 PUSH4 0x71070AAC GT PUSH2 0x182 JUMPI DUP1 PUSH4 0x71070AAC EQ PUSH2 0x36F JUMPI DUP1 PUSH4 0x715018A6 EQ PUSH2 0x38F JUMPI DUP1 PUSH4 0x79B6340A EQ PUSH2 0x397 JUMPI DUP1 PUSH4 0x7D60DC16 EQ PUSH2 0x3EE JUMPI DUP1 PUSH4 0x804A88F6 EQ PUSH2 0x401 JUMPI PUSH1 0x0 DUP1 REVERT JUMPDEST DUP1 PUSH4 0x51EC4F56 EQ PUSH2 0x338 JUMPI DUP1 PUSH4 0x57AC1AB2 EQ PUSH2 0x341 JUMPI DUP1 PUSH4 0x59D637AC EQ PUSH2 0x354 JUMPI DUP1 PUSH4 0x5EDCFC7C EQ PUSH2 0x35C JUMPI PUSH1 0x0 DUP1 REVERT JUMPDEST DUP1 PUSH4 0x293BAEE2 GT PUSH2 0x1FA JUMPI DUP1 PUSH4 0x293BAEE2 EQ PUSH2 0x2D5 JUMPI DUP1 PUSH4 0x2A5833AD EQ PUSH2 0x2E8 JUMPI DUP1 PUSH4 0x2D31A074 EQ PUSH2 0x2FD JUMPI DUP1 PUSH4 0x37F960DA EQ PUSH2 0x310 JUMPI DUP1 PUSH4 0x3FEA1ADE EQ PUSH2 0x323 JUMPI PUSH1 0x0 DUP1 REVERT JUMPDEST DUP1 PUSH4 0x3D93828 EQ PUSH2 0x22C JUMPI DUP1 PUSH4 0x11A0ED9B EQ PUSH2 0x254 JUMPI DUP1 PUSH4 0x1712D6DC EQ PUSH2 0x27C JUMPI DUP1 PUSH4 0x1CCBE917 EQ PUSH2 0x2A7 JUMPI JUMPDEST PUSH1 0x0 DUP1 REVERT JUMPDEST PUSH2 0x23F PUSH2 0x23A CALLDATASIZE PUSH1 0x4 PUSH2 0x1DB1 JUMP JUMPDEST PUSH2 0x59B JUMP JUMPDEST PUSH1 0x40 MLOAD SWAP1 ISZERO ISZERO DUP2 MSTORE PUSH1 0x20 ADD JUMPDEST PUSH1 0x40 MLOAD DUP1 SWAP2 SUB SWAP1 RETURN JUMPDEST PUSH2 0x267 PUSH2 0x262 CALLDATASIZE PUSH1 0x4 PUSH2 0x1DDD JUMP JUMPDEST PUSH2 0x790 JUMP JUMPDEST PUSH1 0x40 DUP1 MLOAD SWAP3 DUP4 MSTORE PUSH1 0x20 DUP4 ADD SWAP2 SWAP1 SWAP2 MSTORE ADD PUSH2 0x24B JUMP JUMPDEST PUSH2 0x28F PUSH2 0x28A CALLDATASIZE PUSH1 0x4 PUSH2 0x1DDD JUMP JUMPDEST PUSH2 0x7DD JUMP JUMPDEST PUSH1 0x40 MLOAD PUSH1 0x1 PUSH1 0x1 PUSH1 0xA0 SHL SUB SWAP1 SWAP2 AND DUP2 MSTORE PUSH1 0x20 ADD PUSH2 0x24B JUMP JUMPDEST PUSH2 0x2C7 PUSH2 0x2B5 CALLDATASIZE PUSH1 0x4 PUSH2 0x1DF6 JUMP JUMPDEST PUSH1 0x76 PUSH1 0x20 MSTORE PUSH1 0x0 SWAP1 DUP2 MSTORE PUSH1 0x40 SWAP1 KECCAK256 SLOAD DUP2 JUMP JUMPDEST PUSH1 0x40 MLOAD SWAP1 DUP2 MSTORE PUSH1 0x20 ADD PUSH2 0x24B JUMP JUMPDEST PUSH1 0x72 SLOAD PUSH2 0x28F SWAP1 PUSH1 0x1 PUSH1 0x1 PUSH1 0xA0 SHL SUB AND DUP2 JUMP JUMPDEST PUSH2 0x2FB PUSH2 0x2F6 CALLDATASIZE PUSH1 0x4 PUSH2 0x1E1A JUMP JUMPDEST PUSH2 0x807 JUMP JUMPDEST STOP JUMPDEST PUSH1 0x6F SLOAD PUSH2 0x28F SWAP1 PUSH1 0x1 PUSH1 0x1 PUSH1 0xA0 SHL SUB AND DUP2 JUMP JUMPDEST PUSH2 0x2FB PUSH2 0x31E CALLDATASIZE PUSH1 0x4 PUSH2 0x1F76 JUMP JUMPDEST PUSH2 0x821 JUMP JUMPDEST PUSH2 0x32B PUSH2 0xA1D JUMP JUMPDEST PUSH1 0x40 MLOAD PUSH2 0x24B SWAP2 SWAP1 PUSH2 0x1FFE JUMP JUMPDEST PUSH2 0x2C7 PUSH1 0x7D SLOAD DUP2 JUMP JUMPDEST PUSH2 0x2FB PUSH2 0x34F CALLDATASIZE PUSH1 0x4 PUSH2 0x1E1A JUMP JUMPDEST PUSH2 0xAA2 JUMP JUMPDEST PUSH1 0x7D SLOAD PUSH2 0x2C7 JUMP JUMPDEST PUSH2 0x2FB PUSH2 0x36A CALLDATASIZE PUSH1 0x4 PUSH2 0x1DDD JUMP JUMPDEST PUSH2 0xAD8 JUMP JUMPDEST PUSH2 0x2C7 PUSH2 0x37D CALLDATASIZE PUSH1 0x4 PUSH2 0x1DF6 JUMP JUMPDEST PUSH1 0x74 PUSH1 0x20 MSTORE PUSH1 0x0 SWAP1 DUP2 MSTORE PUSH1 0x40 SWAP1 KECCAK256 SLOAD DUP2 JUMP JUMPDEST PUSH2 0x2FB PUSH2 0xAE5 JUMP JUMPDEST PUSH1 0x68 SLOAD PUSH1 0x69 SLOAD PUSH1 0x6A SLOAD PUSH1 0x6B SLOAD PUSH1 0x6C SLOAD PUSH1 0x6D SLOAD PUSH1 0x6E SLOAD PUSH2 0x3B9 SWAP7 SWAP6 SWAP5 SWAP4 SWAP3 SWAP2 SWAP1 DUP8 JUMP JUMPDEST PUSH1 0x40 DUP1 MLOAD SWAP8 DUP9 MSTORE PUSH1 0x20 DUP9 ADD SWAP7 SWAP1 SWAP7 MSTORE SWAP5 DUP7 ADD SWAP4 SWAP1 SWAP4 MSTORE PUSH1 0x60 DUP6 ADD SWAP2 SWAP1 SWAP2 MSTORE PUSH1 0x80 DUP5 ADD MSTORE PUSH1 0xA0 DUP4 ADD MSTORE PUSH1 0xC0 DUP3 ADD MSTORE PUSH1 0xE0 ADD PUSH2 0x24B JUMP JUMPDEST PUSH1 0x66 SLOAD PUSH2 0x28F SWAP1 PUSH1 0x1 PUSH1 0x1 PUSH1 0xA0 SHL SUB AND DUP2 JUMP JUMPDEST PUSH2 0x23F PUSH2 0x40F CALLDATASIZE PUSH1 0x4 PUSH2 0x1DF6 JUMP JUMPDEST PUSH1 0x78 PUSH1 0x20 MSTORE PUSH1 0x0 SWAP1 DUP2 MSTORE PUSH1 0x40 SWAP1 KECCAK256 SLOAD PUSH1 0xFF AND DUP2 JUMP JUMPDEST PUSH1 0x33 SLOAD PUSH1 0x1 PUSH1 0x1 PUSH1 0xA0 SHL SUB AND PUSH2 0x28F JUMP JUMPDEST PUSH2 0x2FB PUSH2 0x443 CALLDATASIZE PUSH1 0x4 PUSH2 0x2042 JUMP JUMPDEST PUSH2 0xAF9 JUMP JUMPDEST PUSH2 0x2FB PUSH2 0x456 CALLDATASIZE PUSH1 0x4 PUSH2 0x1DF6 JUMP JUMPDEST PUSH2 0xC15 JUMP JUMPDEST PUSH2 0x2FB PUSH2 0x469 CALLDATASIZE PUSH1 0x4 PUSH2 0x1DF6 JUMP JUMPDEST PUSH2 0xC3F JUMP JUMPDEST PUSH2 0x2FB PUSH2 0x47C CALLDATASIZE PUSH1 0x4 PUSH2 0x1E1A JUMP JUMPDEST PUSH2 0xCA3 JUMP JUMPDEST PUSH2 0x2FB PUSH2 0x48F CALLDATASIZE PUSH1 0x4 PUSH2 0x20A6 JUMP JUMPDEST PUSH2 0xCD5 JUMP JUMPDEST PUSH2 0x2C7 PUSH1 0x79 SLOAD DUP2 JUMP JUMPDEST PUSH1 0x65 SLOAD PUSH2 0x28F SWAP1 PUSH1 0x1 PUSH1 0x1 PUSH1 0xA0 SHL SUB AND DUP2 JUMP JUMPDEST PUSH2 0x2FB PUSH2 0x4BE CALLDATASIZE PUSH1 0x4 PUSH2 0x1DF6 JUMP JUMPDEST PUSH2 0xD39 JUMP JUMPDEST PUSH1 0x71 SLOAD PUSH2 0x28F SWAP1 PUSH1 0x1 PUSH1 0x1 PUSH1 0xA0 SHL SUB AND DUP2 JUMP JUMPDEST PUSH1 0x70 SLOAD PUSH2 0x28F SWAP1 PUSH1 0x1 PUSH1 0x1 PUSH1 0xA0 SHL SUB AND DUP2 JUMP JUMPDEST PUSH2 0x2FB PUSH2 0x4F7 CALLDATASIZE PUSH1 0x4 PUSH2 0x1DF6 JUMP JUMPDEST PUSH2 0xDD9 JUMP JUMPDEST PUSH2 0x2C7 PUSH2 0x50A CALLDATASIZE PUSH1 0x4 PUSH2 0x1DF6 JUMP JUMPDEST PUSH1 0x75 PUSH1 0x20 MSTORE PUSH1 0x0 SWAP1 DUP2 MSTORE PUSH1 0x40 SWAP1 KECCAK256 SLOAD DUP2 JUMP JUMPDEST PUSH2 0x2FB PUSH2 0x52A CALLDATASIZE PUSH1 0x4 PUSH2 0x1E1A JUMP JUMPDEST PUSH2 0xE6A JUMP JUMPDEST PUSH2 0x2FB PUSH2 0x53D CALLDATASIZE PUSH1 0x4 PUSH2 0x1DF6 JUMP JUMPDEST PUSH2 0x10A9 JUMP JUMPDEST PUSH2 0x2C7 PUSH2 0x550 CALLDATASIZE PUSH1 0x4 PUSH2 0x1DF6 JUMP JUMPDEST PUSH1 0x77 PUSH1 0x20 MSTORE PUSH1 0x0 SWAP1 DUP2 MSTORE PUSH1 0x40 SWAP1 KECCAK256 SLOAD DUP2 JUMP JUMPDEST PUSH2 0x2FB PUSH2 0x570 CALLDATASIZE PUSH1 0x4 PUSH2 0x20D6 JUMP JUMPDEST PUSH2 0x1122 JUMP JUMPDEST PUSH1 0x67 SLOAD PUSH2 0x28F SWAP1 PUSH1 0x1 PUSH1 0x1 PUSH1 0xA0 SHL SUB AND DUP2 JUMP JUMPDEST PUSH2 0x2FB PUSH2 0x596 CALLDATASIZE PUSH1 0x4 PUSH2 0x1DF6 JUMP JUMPDEST PUSH2 0x13A1 JUMP JUMPDEST PUSH1 0x66 SLOAD PUSH1 0x0 SWAP1 PUSH1 0x1 PUSH1 0x1 PUSH1 0xA0 SHL SUB AND CALLER EQ PUSH2 0x5FD JUMPI PUSH1 0x40 MLOAD PUSH3 0x461BCD PUSH1 0xE5 SHL DUP2 MSTORE PUSH1 0x20 PUSH1 0x4 DUP3 ADD MSTORE PUSH1 0x1F PUSH1 0x24 DUP3 ADD MSTORE PUSH32 0x4F6E6C792063616C6C61626C652066726F6D20616E7433436F6E747261637400 PUSH1 0x44 DUP3 ADD MSTORE PUSH1 0x64 ADD JUMPDEST PUSH1 0x40 MLOAD DUP1 SWAP2 SUB SWAP1 REVERT JUMPDEST PUSH1 0x40 DUP1 MLOAD PUSH1 0x1 PUSH1 0x1 PUSH1 0xA0 SHL SUB DUP6 AND DUP2 MSTORE ADDRESS PUSH1 0x20 DUP3 ADD MSTORE SWAP1 DUP2 ADD DUP4 SWAP1 MSTORE PUSH32 0x36CAAD1537E014A281B9A1DF0065DFC68FEF76F0C9C6F8453B546E8B022E48A9 SWAP1 PUSH1 0x60 ADD PUSH1 0x40 MLOAD DUP1 SWAP2 SUB SWAP1 LOG1 PUSH1 0x0 PUSH2 0x653 PUSH1 0x2 DUP5 PUSH2 0x2148 JUMP JUMPDEST SWAP1 POP PUSH1 0x0 PUSH2 0x661 DUP3 DUP6 PUSH2 0x216A JUMP JUMPDEST PUSH1 0x66 SLOAD PUSH1 0x6F SLOAD PUSH1 0x40 MLOAD PUSH4 0xA9059CBB PUSH1 0xE0 SHL DUP2 MSTORE PUSH1 0x1 PUSH1 0x1 PUSH1 0xA0 SHL SUB SWAP2 DUP3 AND PUSH1 0x4 DUP3 ADD MSTORE PUSH1 0x24 DUP2 ADD DUP7 SWAP1 MSTORE SWAP3 SWAP4 POP AND SWAP1 PUSH4 0xA9059CBB SWAP1 PUSH1 0x44 ADD PUSH1 0x20 PUSH1 0x40 MLOAD DUP1 DUP4 SUB DUP2 PUSH1 0x0 DUP8 GAS CALL ISZERO DUP1 ISZERO PUSH2 0x6B8 JUMPI RETURNDATASIZE PUSH1 0x0 DUP1 RETURNDATACOPY RETURNDATASIZE PUSH1 0x0 REVERT JUMPDEST POP POP POP POP PUSH1 0x40 MLOAD RETURNDATASIZE PUSH1 0x1F NOT PUSH1 0x1F DUP3 ADD AND DUP3 ADD DUP1 PUSH1 0x40 MSTORE POP DUP2 ADD SWAP1 PUSH2 0x6DC SWAP2 SWAP1 PUSH2 0x2192 JUMP JUMPDEST POP PUSH1 0x6F SLOAD PUSH2 0x6F3 SWAP1 PUSH1 0x1 PUSH1 0x1 PUSH1 0xA0 SHL SUB AND DUP4 PUSH2 0x13CB JUMP JUMPDEST PUSH1 0x66 SLOAD PUSH1 0x70 SLOAD PUSH1 0x40 MLOAD PUSH4 0xA9059CBB PUSH1 0xE0 SHL DUP2 MSTORE PUSH1 0x1 PUSH1 0x1 PUSH1 0xA0 SHL SUB SWAP2 DUP3 AND PUSH1 0x4 DUP3 ADD MSTORE PUSH1 0x24 DUP2 ADD DUP5 SWAP1 MSTORE SWAP2 AND SWAP1 PUSH4 0xA9059CBB SWAP1 PUSH1 0x44 ADD PUSH1 0x20 PUSH1 0x40 MLOAD DUP1 DUP4 SUB DUP2 PUSH1 0x0 DUP8 GAS CALL ISZERO DUP1 ISZERO PUSH2 0x748 JUMPI RETURNDATASIZE PUSH1 0x0 DUP1 RETURNDATACOPY RETURNDATASIZE PUSH1 0x0 REVERT JUMPDEST POP POP POP POP PUSH1 0x40 MLOAD RETURNDATASIZE PUSH1 0x1F NOT PUSH1 0x1F DUP3 ADD AND DUP3 ADD DUP1 PUSH1 0x40 MSTORE POP DUP2 ADD SWAP1 PUSH2 0x76C SWAP2 SWAP1 PUSH2 0x2192 JUMP JUMPDEST POP PUSH1 0x70 SLOAD PUSH2 0x783 SWAP1 PUSH1 0x1 PUSH1 0x1 PUSH1 0xA0 SHL SUB AND DUP3 PUSH2 0x13CB JUMP JUMPDEST PUSH1 0x1 SWAP3 POP POP POP JUMPDEST SWAP3 SWAP2 POP POP JUMP JUMPDEST PUSH1 0x0 DUP1 DUP3 PUSH1 0x1 SUB PUSH2 0x7AA JUMPI POP POP PUSH1 0x68 SLOAD PUSH1 0x69 SLOAD SWAP1 SWAP3 SWAP1 SWAP2 POP JUMP JUMPDEST DUP3 PUSH1 0x2 SUB PUSH2 0x7C1 JUMPI POP POP PUSH1 0x6A SLOAD PUSH1 0x6B SLOAD SWAP1 SWAP3 SWAP1 SWAP2 POP JUMP JUMPDEST DUP3 PUSH1 0x3 SUB PUSH2 0x7D8 JUMPI POP POP PUSH1 0x6C SLOAD PUSH1 0x6D SLOAD SWAP1 SWAP3 SWAP1 SWAP2 POP JUMP JUMPDEST SWAP2 POP SWAP2 JUMP JUMPDEST PUSH1 0x73 DUP2 DUP2 SLOAD DUP2 LT PUSH2 0x7ED JUMPI PUSH1 0x0 DUP1 REVERT JUMPDEST PUSH1 0x0 SWAP2 DUP3 MSTORE PUSH1 0x20 SWAP1 SWAP2 KECCAK256 ADD SLOAD PUSH1 0x1 PUSH1 0x1 PUSH1 0xA0 SHL SUB AND SWAP1 POP DUP2 JUMP JUMPDEST PUSH2 0x80F PUSH2 0x144D JUMP JUMPDEST PUSH1 0x0 SWAP2 DUP3 MSTORE PUSH1 0x7A PUSH1 0x20 MSTORE PUSH1 0x40 SWAP1 SWAP2 KECCAK256 SSTORE JUMP JUMPDEST CALLER PUSH1 0x0 DUP2 DUP2 MSTORE PUSH1 0x78 PUSH1 0x20 MSTORE PUSH1 0x40 SWAP1 KECCAK256 SLOAD PUSH1 0xFF AND PUSH2 0x872 JUMPI PUSH1 0x40 MLOAD PUSH3 0x461BCD PUSH1 0xE5 SHL DUP2 MSTORE PUSH1 0x20 PUSH1 0x4 DUP3 ADD MSTORE PUSH1 0xF PUSH1 0x24 DUP3 ADD MSTORE PUSH15 0x24B73B30B634B21031B0B63632B917 PUSH1 0x89 SHL PUSH1 0x44 DUP3 ADD MSTORE PUSH1 0x64 ADD PUSH2 0x5F4 JUMP JUMPDEST DUP3 MLOAD DUP5 MLOAD EQ DUP1 ISZERO PUSH2 0x884 JUMPI POP DUP2 MLOAD DUP5 MLOAD EQ JUMPDEST PUSH2 0x8D0 JUMPI PUSH1 0x40 MLOAD PUSH3 0x461BCD PUSH1 0xE5 SHL DUP2 MSTORE PUSH1 0x20 PUSH1 0x4 DUP3 ADD MSTORE PUSH1 0x1A PUSH1 0x24 DUP3 ADD MSTORE PUSH32 0x496E76616C6964206C656E677468206F6620656C656D656E7473000000000000 PUSH1 0x44 DUP3 ADD MSTORE PUSH1 0x64 ADD PUSH2 0x5F4 JUMP JUMPDEST PUSH1 0x0 DUP1 PUSH1 0x0 JUMPDEST DUP7 MLOAD DUP2 LT ISZERO PUSH2 0xA14 JUMPI PUSH1 0x6F SLOAD DUP8 MLOAD PUSH1 0x1 PUSH1 0x1 PUSH1 0xA0 SHL SUB SWAP1 SWAP2 AND SWAP1 PUSH4 0xB85B8355 SWAP1 DUP10 SWAP1 DUP5 SWAP1 DUP2 LT PUSH2 0x908 JUMPI PUSH2 0x908 PUSH2 0x21AD JUMP JUMPDEST PUSH1 0x20 MUL PUSH1 0x20 ADD ADD MLOAD DUP9 DUP5 DUP2 MLOAD DUP2 LT PUSH2 0x922 JUMPI PUSH2 0x922 PUSH2 0x21AD JUMP JUMPDEST PUSH1 0x20 MUL PUSH1 0x20 ADD ADD MLOAD DUP9 DUP6 DUP2 MLOAD DUP2 LT PUSH2 0x93C JUMPI PUSH2 0x93C PUSH2 0x21AD JUMP JUMPDEST PUSH1 0x20 SWAP1 DUP2 MUL SWAP2 SWAP1 SWAP2 ADD ADD MLOAD PUSH1 0x40 MLOAD PUSH1 0x1 PUSH1 0x1 PUSH1 0xE0 SHL SUB NOT PUSH1 0xE0 DUP7 SWAP1 SHL AND DUP2 MSTORE PUSH1 0x1 PUSH1 0x1 PUSH1 0xA0 SHL SUB SWAP1 SWAP4 AND PUSH1 0x4 DUP5 ADD MSTORE PUSH1 0x24 DUP4 ADD SWAP2 SWAP1 SWAP2 MSTORE PUSH1 0x44 DUP3 ADD MSTORE PUSH1 0x64 ADD PUSH1 0x40 DUP1 MLOAD DUP1 DUP4 SUB DUP2 PUSH1 0x0 DUP8 GAS CALL ISZERO DUP1 ISZERO PUSH2 0x999 JUMPI RETURNDATASIZE PUSH1 0x0 DUP1 RETURNDATACOPY RETURNDATASIZE PUSH1 0x0 REVERT JUMPDEST POP POP POP POP PUSH1 0x40 MLOAD RETURNDATASIZE PUSH1 0x1F NOT PUSH1 0x1F DUP3 ADD AND DUP3 ADD DUP1 PUSH1 0x40 MSTORE POP DUP2 ADD SWAP1 PUSH2 0x9BD SWAP2 SWAP1 PUSH2 0x21C3 JUMP JUMPDEST SWAP1 SWAP4 POP SWAP2 POP DUP2 ISZERO PUSH2 0xA02 JUMPI PUSH2 0xA02 DUP8 DUP3 DUP2 MLOAD DUP2 LT PUSH2 0x9DD JUMPI PUSH2 0x9DD PUSH2 0x21AD JUMP JUMPDEST PUSH1 0x20 MUL PUSH1 0x20 ADD ADD MLOAD DUP5 PUSH1 0x1 PUSH1 0x1 PUSH1 0xA0 SHL SUB SWAP1 SWAP2 AND PUSH1 0x0 SWAP1 DUP2 MSTORE PUSH1 0x77 PUSH1 0x20 MSTORE PUSH1 0x40 SWAP1 KECCAK256 SSTORE JUMP JUMPDEST DUP1 PUSH2 0xA0C DUP2 PUSH2 0x21EF JUMP JUMPDEST SWAP2 POP POP PUSH2 0x8D6 JUMP JUMPDEST POP POP POP POP POP POP POP JUMP JUMPDEST PUSH1 0x40 DUP1 MLOAD PUSH1 0x3 DUP1 DUP3 MSTORE PUSH1 0x80 DUP3 ADD SWAP1 SWAP3 MSTORE PUSH1 0x60 SWAP2 PUSH1 0x0 SWAP2 SWAP1 PUSH1 0x20 DUP3 ADD DUP5 DUP1 CALLDATASIZE DUP4 CALLDATACOPY ADD SWAP1 POP POP SWAP1 POP PUSH1 0x0 JUMPDEST PUSH1 0x3 DUP2 LT ISZERO PUSH2 0xA9C JUMPI PUSH1 0x7B PUSH1 0x0 PUSH2 0xA5E DUP4 PUSH1 0x1 PUSH2 0x2208 JUMP JUMPDEST DUP2 MSTORE PUSH1 0x20 ADD SWAP1 DUP2 MSTORE PUSH1 0x20 ADD PUSH1 0x0 KECCAK256 SLOAD DUP3 DUP3 DUP2 MLOAD DUP2 LT PUSH2 0xA7F JUMPI PUSH2 0xA7F PUSH2 0x21AD JUMP JUMPDEST PUSH1 0x20 SWAP1 DUP2 MUL SWAP2 SWAP1 SWAP2 ADD ADD MSTORE DUP1 PUSH2 0xA94 DUP2 PUSH2 0x21EF JUMP JUMPDEST SWAP2 POP POP PUSH2 0xA46 JUMP JUMPDEST POP SWAP2 SWAP1 POP JUMP JUMPDEST PUSH2 0xAAA PUSH2 0x144D JUMP JUMPDEST DUP2 PUSH1 0x1 SUB PUSH2 0xAB8 JUMPI PUSH1 0x69 SSTORE POP JUMP JUMPDEST DUP2 PUSH1 0x2 SUB PUSH2 0xAC6 JUMPI PUSH1 0x6B SSTORE POP JUMP JUMPDEST DUP2 PUSH1 0x3 SUB PUSH2 0xAD4 JUMPI PUSH1 0x6D DUP2 SWAP1 SSTORE JUMPDEST POP POP JUMP JUMPDEST PUSH2 0xAE0 PUSH2 0x144D JUMP JUMPDEST PUSH1 0x7D SSTORE JUMP JUMPDEST PUSH2 0xAED PUSH2 0x144D JUMP JUMPDEST PUSH2 0xAF7 PUSH1 0x0 PUSH2 0x14A7 JUMP JUMPDEST JUMP JUMPDEST PUSH2 0xB01 PUSH2 0x144D JUMP JUMPDEST DUP1 MLOAD DUP3 MLOAD EQ PUSH2 0xB52 JUMPI PUSH1 0x40 MLOAD PUSH3 0x461BCD PUSH1 0xE5 SHL DUP2 MSTORE PUSH1 0x20 PUSH1 0x4 DUP3 ADD MSTORE PUSH1 0x1A PUSH1 0x24 DUP3 ADD MSTORE PUSH32 0x496E76616C6964206C656E677468206F6620656C656D656E7473000000000000 PUSH1 0x44 DUP3 ADD MSTORE PUSH1 0x64 ADD PUSH2 0x5F4 JUMP JUMPDEST PUSH1 0x0 JUMPDEST DUP3 MLOAD DUP2 LT ISZERO PUSH2 0xC10 JUMPI PUSH1 0x0 JUMPDEST DUP3 DUP3 DUP2 MLOAD DUP2 LT PUSH2 0xB73 JUMPI PUSH2 0xB73 PUSH2 0x21AD JUMP JUMPDEST PUSH1 0x20 MUL PUSH1 0x20 ADD ADD MLOAD DUP2 LT ISZERO PUSH2 0xBFD JUMPI PUSH1 0x7C DUP1 SLOAD SWAP1 PUSH1 0x0 PUSH2 0xB92 DUP4 PUSH2 0x21EF JUMP JUMPDEST SWAP2 SWAP1 POP SSTORE POP DUP4 DUP3 DUP2 MLOAD DUP2 LT PUSH2 0xBA9 JUMPI PUSH2 0xBA9 PUSH2 0x21AD JUMP JUMPDEST PUSH1 0x20 MUL PUSH1 0x20 ADD ADD MLOAD PUSH1 0x7E PUSH1 0x0 PUSH1 0x7C SLOAD DUP2 MSTORE PUSH1 0x20 ADD SWAP1 DUP2 MSTORE PUSH1 0x20 ADD PUSH1 0x0 KECCAK256 PUSH1 0x0 PUSH2 0x100 EXP DUP2 SLOAD DUP2 PUSH1 0x1 PUSH1 0x1 PUSH1 0xA0 SHL SUB MUL NOT AND SWAP1 DUP4 PUSH1 0x1 PUSH1 0x1 PUSH1 0xA0 SHL SUB AND MUL OR SWAP1 SSTORE POP DUP1 DUP1 PUSH2 0xBF5 SWAP1 PUSH2 0x21EF JUMP JUMPDEST SWAP2 POP POP PUSH2 0xB61 JUMP JUMPDEST POP DUP1 PUSH2 0xC08 DUP2 PUSH2 0x21EF JUMP JUMPDEST SWAP2 POP POP PUSH2 0xB55 JUMP JUMPDEST POP POP POP JUMP JUMPDEST PUSH2 0xC1D PUSH2 0x144D JUMP JUMPDEST PUSH1 0x6F DUP1 SLOAD PUSH1 0x1 PUSH1 0x1 PUSH1 0xA0 SHL SUB NOT AND PUSH1 0x1 PUSH1 0x1 PUSH1 0xA0 SHL SUB SWAP3 SWAP1 SWAP3 AND SWAP2 SWAP1 SWAP2 OR SWAP1 SSTORE JUMP JUMPDEST PUSH2 0xC47 PUSH2 0x144D JUMP JUMPDEST PUSH1 0x70 DUP1 SLOAD PUSH1 0x1 PUSH1 0x1 PUSH1 0xA0 SHL SUB SWAP1 SWAP3 AND PUSH1 0x1 PUSH1 0x1 PUSH1 0xA0 SHL SUB NOT SWAP3 DUP4 AND DUP2 OR SWAP1 SWAP2 SSTORE PUSH1 0x73 DUP1 SLOAD PUSH1 0x1 DUP2 ADD DUP3 SSTORE PUSH1 0x0 SWAP2 SWAP1 SWAP2 MSTORE PUSH32 0xF79BDE9DDD17963EBCE6F7D021D60DE7C2BD0DB944D23C900C0C0E775F530052 ADD DUP1 SLOAD SWAP1 SWAP3 AND OR SWAP1 SSTORE JUMP JUMPDEST PUSH2 0xCAB PUSH2 0x144D JUMP JUMPDEST DUP2 PUSH1 0x1 SUB PUSH2 0xCB9 JUMPI PUSH1 0x68 SSTORE POP JUMP JUMPDEST DUP2 PUSH1 0x2 SUB PUSH2 0xCC7 JUMPI PUSH1 0x6A SSTORE POP JUMP JUMPDEST DUP2 PUSH1 0x3 SUB PUSH2 0xAD4 JUMPI PUSH1 0x6C SSTORE POP JUMP JUMPDEST PUSH2 0xCDD PUSH2 0x144D JUMP JUMPDEST PUSH1 0x0 JUMPDEST DUP3 DUP2 LT ISZERO PUSH2 0xC10 JUMPI PUSH1 0x7C DUP1 SLOAD SWAP1 PUSH1 0x0 PUSH2 0xCF8 DUP4 PUSH2 0x21EF JUMP JUMPDEST SWAP1 SWAP2 SSTORE POP POP PUSH1 0x7C SLOAD PUSH1 0x0 SWAP1 DUP2 MSTORE PUSH1 0x7E PUSH1 0x20 MSTORE PUSH1 0x40 SWAP1 KECCAK256 DUP1 SLOAD PUSH1 0x1 PUSH1 0x1 PUSH1 0xA0 SHL SUB NOT AND PUSH1 0x1 PUSH1 0x1 PUSH1 0xA0 SHL SUB DUP5 AND OR SWAP1 SSTORE DUP1 PUSH2 0xD31 DUP2 PUSH2 0x21EF JUMP JUMPDEST SWAP2 POP POP PUSH2 0xCE0 JUMP JUMPDEST PUSH2 0xD41 PUSH2 0x144D JUMP JUMPDEST PUSH1 0x1 PUSH1 0x1 PUSH1 0xA0 SHL SUB DUP2 AND PUSH1 0x0 SWAP1 DUP2 MSTORE PUSH1 0x78 PUSH1 0x20 MSTORE PUSH1 0x40 SWAP1 KECCAK256 SLOAD PUSH1 0xFF AND ISZERO PUSH2 0xDB5 JUMPI PUSH1 0x40 MLOAD PUSH3 0x461BCD PUSH1 0xE5 SHL DUP2 MSTORE PUSH1 0x20 PUSH1 0x4 DUP3 ADD MSTORE PUSH1 0x22 PUSH1 0x24 DUP3 ADD MSTORE PUSH32 0x4164647265737320616C726561647920697320612076616C69642063616C6C65 PUSH1 0x44 DUP3 ADD MSTORE PUSH2 0x3917 PUSH1 0xF1 SHL PUSH1 0x64 DUP3 ADD MSTORE PUSH1 0x84 ADD PUSH2 0x5F4 JUMP JUMPDEST PUSH1 0x1 PUSH1 0x1 PUSH1 0xA0 SHL SUB AND PUSH1 0x0 SWAP1 DUP2 MSTORE PUSH1 0x78 PUSH1 0x20 MSTORE PUSH1 0x40 SWAP1 KECCAK256 DUP1 SLOAD PUSH1 0xFF NOT AND PUSH1 0x1 OR SWAP1 SSTORE JUMP JUMPDEST PUSH2 0xDE1 PUSH2 0x144D JUMP JUMPDEST PUSH1 0x1 PUSH1 0x1 PUSH1 0xA0 SHL SUB DUP2 AND PUSH1 0x0 SWAP1 DUP2 MSTORE PUSH1 0x78 PUSH1 0x20 MSTORE PUSH1 0x40 SWAP1 KECCAK256 SLOAD PUSH1 0xFF AND PUSH2 0xE49 JUMPI PUSH1 0x40 MLOAD PUSH3 0x461BCD PUSH1 0xE5 SHL DUP2 MSTORE PUSH1 0x20 PUSH1 0x4 DUP3 ADD MSTORE PUSH1 0x1E PUSH1 0x24 DUP3 ADD MSTORE PUSH32 0x41646472657373206973206E6F7420612076616C69642063616C6C65722E0000 PUSH1 0x44 DUP3 ADD MSTORE PUSH1 0x64 ADD PUSH2 0x5F4 JUMP JUMPDEST PUSH1 0x1 PUSH1 0x1 PUSH1 0xA0 SHL SUB AND PUSH1 0x0 SWAP1 DUP2 MSTORE PUSH1 0x78 PUSH1 0x20 MSTORE PUSH1 0x40 SWAP1 KECCAK256 DUP1 SLOAD PUSH1 0xFF NOT AND SWAP1 SSTORE JUMP JUMPDEST PUSH1 0x0 DUP1 PUSH2 0xE76 DUP5 PUSH2 0x790 JUMP JUMPDEST SWAP2 POP SWAP2 POP PUSH1 0x0 DUP3 GT DUP1 ISZERO PUSH2 0xE8A JUMPI POP PUSH1 0x0 DUP2 GT JUMPDEST PUSH2 0xED6 JUMPI PUSH1 0x40 MLOAD PUSH3 0x461BCD PUSH1 0xE5 SHL DUP2 MSTORE PUSH1 0x20 PUSH1 0x4 DUP3 ADD MSTORE PUSH1 0x19 PUSH1 0x24 DUP3 ADD MSTORE PUSH32 0x5072696365206D757374206265206D6F7265207468616E203000000000000000 PUSH1 0x44 DUP3 ADD MSTORE PUSH1 0x64 ADD PUSH2 0x5F4 JUMP JUMPDEST PUSH2 0xEE1 DUP5 DUP5 CALLER PUSH2 0x14F9 JUMP JUMPDEST PUSH1 0x65 SLOAD PUSH1 0x40 MLOAD PUSH4 0x1E71E435 PUSH1 0xE0 SHL DUP2 MSTORE CALLER PUSH1 0x4 DUP3 ADD MSTORE PUSH1 0x24 DUP2 ADD DUP5 SWAP1 MSTORE PUSH1 0x1 PUSH1 0x1 PUSH1 0xA0 SHL SUB SWAP1 SWAP2 AND SWAP1 PUSH4 0x1E71E435 SWAP1 PUSH1 0x44 ADD PUSH1 0x0 PUSH1 0x40 MLOAD DUP1 DUP4 SUB DUP2 PUSH1 0x0 DUP8 DUP1 EXTCODESIZE ISZERO DUP1 ISZERO PUSH2 0xF2D JUMPI PUSH1 0x0 DUP1 REVERT JUMPDEST POP GAS CALL ISZERO DUP1 ISZERO PUSH2 0xF41 JUMPI RETURNDATASIZE PUSH1 0x0 DUP1 RETURNDATACOPY RETURNDATASIZE PUSH1 0x0 REVERT JUMPDEST POP POP PUSH1 0x67 SLOAD PUSH1 0x40 MLOAD PUSH4 0x23B872DD PUSH1 0xE0 SHL DUP2 MSTORE CALLER PUSH1 0x4 DUP3 ADD MSTORE ADDRESS PUSH1 0x24 DUP3 ADD MSTORE PUSH1 0x44 DUP2 ADD DUP6 SWAP1 MSTORE PUSH1 0x1 PUSH1 0x1 PUSH1 0xA0 SHL SUB SWAP1 SWAP2 AND SWAP3 POP PUSH4 0x23B872DD SWAP2 POP PUSH1 0x64 ADD PUSH1 0x20 PUSH1 0x40 MLOAD DUP1 DUP4 SUB DUP2 PUSH1 0x0 DUP8 GAS CALL ISZERO DUP1 ISZERO PUSH2 0xF9C JUMPI RETURNDATASIZE PUSH1 0x0 DUP1 RETURNDATACOPY RETURNDATASIZE PUSH1 0x0 REVERT JUMPDEST POP POP POP POP PUSH1 0x40 MLOAD RETURNDATASIZE PUSH1 0x1F NOT PUSH1 0x1F DUP3 ADD AND DUP3 ADD DUP1 PUSH1 0x40 MSTORE POP DUP2 ADD SWAP1 PUSH2 0xFC0 SWAP2 SWAP1 PUSH2 0x2192 JUMP JUMPDEST POP PUSH2 0xFCB CALLER DUP6 PUSH2 0x1699 JUMP JUMPDEST CALLER PUSH1 0x0 SWAP1 DUP2 MSTORE PUSH1 0x77 PUSH1 0x20 MSTORE PUSH1 0x40 SWAP1 KECCAK256 SLOAD DUP5 GT ISZERO PUSH2 0xFF5 JUMPI CALLER PUSH1 0x0 SWAP1 DUP2 MSTORE PUSH1 0x77 PUSH1 0x20 MSTORE PUSH1 0x40 SWAP1 KECCAK256 DUP5 SWAP1 SSTORE JUMPDEST PUSH1 0x0 PUSH2 0x1001 CALLER DUP7 PUSH2 0x1726 JUMP JUMPDEST PUSH1 0x6F SLOAD PUSH1 0x40 MLOAD PUSH4 0xEF134A5F PUSH1 0xE0 SHL DUP2 MSTORE CALLER PUSH1 0x4 DUP3 ADD MSTORE PUSH1 0x24 DUP2 ADD DUP4 SWAP1 MSTORE PUSH1 0x44 DUP2 ADD DUP9 SWAP1 MSTORE PUSH1 0x64 DUP2 ADD DUP7 SWAP1 MSTORE SWAP2 SWAP3 POP PUSH1 0x0 SWAP2 PUSH1 0x1 PUSH1 0x1 PUSH1 0xA0 SHL SUB SWAP1 SWAP2 AND SWAP1 PUSH4 0xEF134A5F SWAP1 PUSH1 0x84 ADD PUSH1 0x20 PUSH1 0x40 MLOAD DUP1 DUP4 SUB DUP2 PUSH1 0x0 DUP8 GAS CALL ISZERO DUP1 ISZERO PUSH2 0x1066 JUMPI RETURNDATASIZE PUSH1 0x0 DUP1 RETURNDATACOPY RETURNDATASIZE PUSH1 0x0 REVERT JUMPDEST POP POP POP POP PUSH1 0x40 MLOAD RETURNDATASIZE PUSH1 0x1F NOT PUSH1 0x1F DUP3 ADD AND DUP3 ADD DUP1 PUSH1 0x40 MSTORE POP DUP2 ADD SWAP1 PUSH2 0x108A SWAP2 SWAP1 PUSH2 0x221B JUMP JUMPDEST SWAP1 POP PUSH2 0x1098 CALLER DUP4 DUP9 DUP5 PUSH2 0x18C2 JUMP JUMPDEST PUSH2 0x10A1 DUP5 PUSH2 0x1C39 JUMP JUMPDEST POP POP POP POP POP POP JUMP JUMPDEST PUSH2 0x10B1 PUSH2 0x144D JUMP JUMPDEST PUSH1 0x1 PUSH1 0x1 PUSH1 0xA0 SHL SUB DUP2 AND PUSH2 0x1116 JUMPI PUSH1 0x40 MLOAD PUSH3 0x461BCD PUSH1 0xE5 SHL DUP2 MSTORE PUSH1 0x20 PUSH1 0x4 DUP3 ADD MSTORE PUSH1 0x26 PUSH1 0x24 DUP3 ADD MSTORE PUSH32 0x4F776E61626C653A206E6577206F776E657220697320746865207A65726F2061 PUSH1 0x44 DUP3 ADD MSTORE PUSH6 0x646472657373 PUSH1 0xD0 SHL PUSH1 0x64 DUP3 ADD MSTORE PUSH1 0x84 ADD PUSH2 0x5F4 JUMP JUMPDEST PUSH2 0x111F DUP2 PUSH2 0x14A7 JUMP JUMPDEST POP JUMP JUMPDEST PUSH1 0x0 SLOAD PUSH2 0x100 SWAP1 DIV PUSH1 0xFF AND ISZERO DUP1 DUP1 ISZERO PUSH2 0x1142 JUMPI POP PUSH1 0x0 SLOAD PUSH1 0x1 PUSH1 0xFF SWAP1 SWAP2 AND LT JUMPDEST DUP1 PUSH2 0x115C JUMPI POP ADDRESS EXTCODESIZE ISZERO DUP1 ISZERO PUSH2 0x115C JUMPI POP PUSH1 0x0 SLOAD PUSH1 0xFF AND PUSH1 0x1 EQ JUMPDEST PUSH2 0x11BF JUMPI PUSH1 0x40 MLOAD PUSH3 0x461BCD PUSH1 0xE5 SHL DUP2 MSTORE PUSH1 0x20 PUSH1 0x4 DUP3 ADD MSTORE PUSH1 0x2E PUSH1 0x24 DUP3 ADD MSTORE PUSH32 0x496E697469616C697A61626C653A20636F6E747261637420697320616C726561 PUSH1 0x44 DUP3 ADD MSTORE PUSH14 0x191E481A5B9A5D1A585B1A5E9959 PUSH1 0x92 SHL PUSH1 0x64 DUP3 ADD MSTORE PUSH1 0x84 ADD PUSH2 0x5F4 JUMP JUMPDEST PUSH1 0x0 DUP1 SLOAD PUSH1 0xFF NOT AND PUSH1 0x1 OR SWAP1 SSTORE DUP1 ISZERO PUSH2 0x11E2 JUMPI PUSH1 0x0 DUP1 SLOAD PUSH2 0xFF00 NOT AND PUSH2 0x100 OR SWAP1 SSTORE JUMPDEST PUSH2 0x11EA PUSH2 0x1C93 JUMP JUMPDEST PUSH1 0x65 DUP1 SLOAD PUSH1 0x1 PUSH1 0x1 PUSH1 0xA0 SHL SUB NOT SWAP1 DUP2 AND PUSH1 0x1 PUSH1 0x1 PUSH1 0xA0 SHL SUB DUP9 DUP2 AND SWAP2 SWAP1 SWAP2 OR SWAP1 SWAP3 SSTORE PUSH1 0x66 DUP1 SLOAD DUP3 AND DUP8 DUP5 AND OR SWAP1 SSTORE PUSH1 0x67 DUP1 SLOAD DUP3 AND DUP7 DUP5 AND OR SWAP1 SSTORE PUSH1 0x72 DUP1 SLOAD SWAP1 SWAP2 AND DUP5 DUP4 AND OR SWAP1 SSTORE PUSH1 0x64 PUSH1 0x68 DUP2 SWAP1 SSTORE PUSH1 0xA PUSH1 0x69 DUP2 SWAP1 SSTORE PUSH2 0x3E8 PUSH1 0x6A DUP2 SWAP1 SSTORE PUSH1 0x6B DUP4 SWAP1 SSTORE PUSH2 0x2710 PUSH1 0x6C SSTORE PUSH1 0x6D SSTORE PUSH3 0x186A0 PUSH1 0x7C SSTORE PUSH32 0x32FC32E8E6A367A782C09A02FA01AAB4C63A2B183CE5FEE9B74A77503C0667C7 DUP2 SWAP1 SSTORE PUSH32 0x1B1F440AA85FDD106751DA9F081002151E81D7F9C9A991D7F6A7EF20E0B9176F DUP3 SWAP1 SSTORE PUSH2 0x12C PUSH32 0x87B4F67B2406D03A55B52BB16D21C469B6C736DC05D05BAECC1DB4BC2BBB1DBF DUP2 SWAP1 SSTORE PUSH32 0xAAA3CE42286152B719ABBCA9F317D4ABC82039051363EC7758D508C8A88401A SWAP2 SWAP1 SWAP2 SSTORE PUSH32 0x6B4E4CDEECC1CEDC87704B94F7D0334F48057B970752F0BD2A553909BC33A5AF SWAP2 SWAP1 SWAP2 SSTORE PUSH32 0x51AB5D00F46F3BF7AC9071B8CC3CA49716D88812C76BE886050CA6209E5C3FCF SSTORE PUSH1 0x33 SLOAD AND PUSH1 0x0 SWAP1 DUP2 MSTORE PUSH1 0x78 PUSH1 0x20 MSTORE PUSH1 0x40 SWAP1 KECCAK256 DUP1 SLOAD PUSH1 0xFF NOT AND PUSH1 0x1 OR SWAP1 SSTORE DUP1 ISZERO PUSH2 0x139A JUMPI PUSH1 0x0 DUP1 SLOAD PUSH2 0xFF00 NOT AND SWAP1 SSTORE PUSH1 0x40 MLOAD PUSH1 0x1 DUP2 MSTORE PUSH32 0x7F26B83FF96E1F2B6A682F133852F6798A09C465DA95921460CEFB3847402498 SWAP1 PUSH1 0x20 ADD PUSH1 0x40 MLOAD DUP1 SWAP2 SUB SWAP1 LOG1 JUMPDEST POP POP POP POP POP JUMP JUMPDEST PUSH2 0x13A9 PUSH2 0x144D JUMP JUMPDEST PUSH1 0x72 DUP1 SLOAD PUSH1 0x1 PUSH1 0x1 PUSH1 0xA0 SHL SUB NOT AND PUSH1 0x1 PUSH1 0x1 PUSH1 0xA0 SHL SUB SWAP3 SWAP1 SWAP3 AND SWAP2 SWAP1 SWAP2 OR SWAP1 SSTORE JUMP JUMPDEST PUSH1 0x1 PUSH1 0x1 PUSH1 0xA0 SHL SUB DUP3 AND EXTCODESIZE ISZERO PUSH2 0xAD4 JUMPI PUSH1 0x40 MLOAD PUSH3 0x7B2705 PUSH1 0xE3 SHL DUP2 MSTORE ADDRESS PUSH1 0x4 DUP3 ADD MSTORE PUSH1 0x24 DUP2 ADD DUP3 SWAP1 MSTORE PUSH1 0x1 PUSH1 0x1 PUSH1 0xA0 SHL SUB DUP4 AND SWAP1 PUSH4 0x3D93828 SWAP1 PUSH1 0x44 ADD PUSH1 0x20 PUSH1 0x40 MLOAD DUP1 DUP4 SUB DUP2 PUSH1 0x0 DUP8 GAS CALL SWAP3 POP POP POP DUP1 ISZERO PUSH2 0x1443 JUMPI POP PUSH1 0x40 DUP1 MLOAD PUSH1 0x1F RETURNDATASIZE SWAP1 DUP2 ADD PUSH1 0x1F NOT AND DUP3 ADD SWAP1 SWAP3 MSTORE PUSH2 0x1440 SWAP2 DUP2 ADD SWAP1 PUSH2 0x2192 JUMP JUMPDEST PUSH1 0x1 JUMPDEST ISZERO PUSH2 0xAD4 JUMPI POP POP POP JUMP JUMPDEST PUSH1 0x33 SLOAD PUSH1 0x1 PUSH1 0x1 PUSH1 0xA0 SHL SUB AND CALLER EQ PUSH2 0xAF7 JUMPI PUSH1 0x40 MLOAD PUSH3 0x461BCD PUSH1 0xE5 SHL DUP2 MSTORE PUSH1 0x20 PUSH1 0x4 DUP3 ADD DUP2 SWAP1 MSTORE PUSH1 0x24 DUP3 ADD MSTORE PUSH32 0x4F776E61626C653A2063616C6C6572206973206E6F7420746865206F776E6572 PUSH1 0x44 DUP3 ADD MSTORE PUSH1 0x64 ADD PUSH2 0x5F4 JUMP JUMPDEST PUSH1 0x33 DUP1 SLOAD PUSH1 0x1 PUSH1 0x1 PUSH1 0xA0 SHL SUB DUP4 DUP2 AND PUSH1 0x1 PUSH1 0x1 PUSH1 0xA0 SHL SUB NOT DUP4 AND DUP2 OR SWAP1 SWAP4 SSTORE PUSH1 0x40 MLOAD SWAP2 AND SWAP2 SWAP1 DUP3 SWAP1 PUSH32 0x8BE0079C531659141344CD1FD0A4F28419497F9722A3DAAFE3B4186F6B6457E0 SWAP1 PUSH1 0x0 SWAP1 LOG3 POP POP JUMP JUMPDEST PUSH1 0x79 SLOAD PUSH2 0x1509 SWAP1 PUSH3 0x15180 PUSH2 0x2208 JUMP JUMPDEST TIMESTAMP LT PUSH2 0x1595 JUMPI PUSH1 0x0 JUMPDEST PUSH1 0x3 DUP2 LT ISZERO PUSH2 0x156D JUMPI PUSH1 0x7A PUSH1 0x0 PUSH2 0x152A DUP4 PUSH1 0x1 PUSH2 0x2208 JUMP JUMPDEST DUP2 MSTORE PUSH1 0x20 ADD SWAP1 DUP2 MSTORE PUSH1 0x20 ADD PUSH1 0x0 KECCAK256 SLOAD PUSH1 0x7B PUSH1 0x0 DUP4 PUSH1 0x1 PUSH2 0x154A SWAP2 SWAP1 PUSH2 0x2208 JUMP JUMPDEST DUP2 MSTORE PUSH1 0x20 DUP2 ADD SWAP2 SWAP1 SWAP2 MSTORE PUSH1 0x40 ADD PUSH1 0x0 KECCAK256 SSTORE DUP1 PUSH2 0x1565 DUP2 PUSH2 0x21EF JUMP JUMPDEST SWAP2 POP POP PUSH2 0x1512 JUMP JUMPDEST POP PUSH1 0x79 SLOAD PUSH1 0x0 SUB PUSH2 0x1581 JUMPI TIMESTAMP PUSH1 0x79 SSTORE PUSH2 0x1595 JUMP JUMPDEST PUSH1 0x79 SLOAD PUSH2 0x1591 SWAP1 PUSH3 0x15180 PUSH2 0x2208 JUMP JUMPDEST PUSH1 0x79 SSTORE JUMPDEST DUP2 ISZERO PUSH2 0x161A JUMPI PUSH1 0x0 DUP3 DUP2 MSTORE PUSH1 0x7E PUSH1 0x20 MSTORE PUSH1 0x40 SWAP1 KECCAK256 SLOAD PUSH1 0x1 PUSH1 0x1 PUSH1 0xA0 SHL SUB DUP3 DUP2 AND SWAP2 AND EQ PUSH2 0x15FA JUMPI PUSH1 0x40 MLOAD PUSH3 0x461BCD PUSH1 0xE5 SHL DUP2 MSTORE PUSH1 0x20 PUSH1 0x4 DUP3 ADD MSTORE PUSH1 0x13 PUSH1 0x24 DUP3 ADD MSTORE PUSH19 0x24B73B30B634B210283937B6B79021B7B23297 PUSH1 0x69 SHL PUSH1 0x44 DUP3 ADD MSTORE PUSH1 0x64 ADD PUSH2 0x5F4 JUMP JUMPDEST POP PUSH1 0x0 SWAP1 DUP2 MSTORE PUSH1 0x7E PUSH1 0x20 MSTORE PUSH1 0x40 SWAP1 KECCAK256 DUP1 SLOAD PUSH1 0x1 PUSH1 0x1 PUSH1 0xA0 SHL SUB NOT AND SWAP1 SSTORE POP JUMP JUMPDEST PUSH1 0x0 DUP4 DUP2 MSTORE PUSH1 0x7B PUSH1 0x20 MSTORE PUSH1 0x40 SWAP1 KECCAK256 SLOAD PUSH2 0x1675 JUMPI PUSH1 0x40 MLOAD PUSH3 0x461BCD PUSH1 0xE5 SHL DUP2 MSTORE PUSH1 0x20 PUSH1 0x4 DUP3 ADD MSTORE PUSH1 0x17 PUSH1 0x24 DUP3 ADD MSTORE PUSH32 0x52656163686564206C696D6974206F662071756F74612E000000000000000000 PUSH1 0x44 DUP3 ADD MSTORE PUSH1 0x64 ADD PUSH2 0x5F4 JUMP JUMPDEST PUSH1 0x0 DUP4 DUP2 MSTORE PUSH1 0x7B PUSH1 0x20 MSTORE PUSH1 0x40 DUP2 KECCAK256 DUP1 SLOAD SWAP2 PUSH2 0x168F DUP4 PUSH2 0x2234 JUMP JUMPDEST SWAP2 SWAP1 POP SSTORE POP POP POP POP JUMP JUMPDEST DUP1 PUSH1 0x1 SUB PUSH2 0x16CE JUMPI PUSH1 0x1 PUSH1 0x1 PUSH1 0xA0 SHL SUB DUP3 AND PUSH1 0x0 SWAP1 DUP2 MSTORE PUSH1 0x74 PUSH1 0x20 MSTORE PUSH1 0x40 DUP2 KECCAK256 DUP1 SLOAD SWAP2 PUSH2 0x16C5 DUP4 PUSH2 0x21EF JUMP JUMPDEST SWAP2 SWAP1 POP SSTORE POP POP POP JUMP JUMPDEST DUP1 PUSH1 0x2 SUB PUSH2 0x16FA JUMPI PUSH1 0x1 PUSH1 0x1 PUSH1 0xA0 SHL SUB DUP3 AND PUSH1 0x0 SWAP1 DUP2 MSTORE PUSH1 0x75 PUSH1 0x20 MSTORE PUSH1 0x40 DUP2 KECCAK256 DUP1 SLOAD SWAP2 PUSH2 0x16C5 DUP4 PUSH2 0x21EF JUMP JUMPDEST DUP1 PUSH1 0x3 SUB PUSH2 0xAD4 JUMPI PUSH1 0x1 PUSH1 0x1 PUSH1 0xA0 SHL SUB DUP3 AND PUSH1 0x0 SWAP1 DUP2 MSTORE PUSH1 0x76 PUSH1 0x20 MSTORE PUSH1 0x40 DUP2 KECCAK256 DUP1 SLOAD SWAP2 PUSH2 0x16C5 DUP4 PUSH2 0x21EF JUMP JUMPDEST PUSH1 0x0 DUP2 PUSH1 0x3 SUB PUSH2 0x17B6 JUMPI PUSH1 0x1 PUSH1 0x1 PUSH1 0xA0 SHL SUB DUP4 AND PUSH1 0x0 SWAP1 DUP2 MSTORE PUSH1 0x76 PUSH1 0x20 MSTORE PUSH1 0x40 SWAP1 KECCAK256 SLOAD PUSH1 0xA LT ISZERO PUSH2 0x175A JUMPI POP PUSH2 0x4B0 PUSH2 0x78A JUMP JUMPDEST PUSH1 0x1 PUSH1 0x1 PUSH1 0xA0 SHL SUB DUP4 AND PUSH1 0x0 SWAP1 DUP2 MSTORE PUSH1 0x76 PUSH1 0x20 MSTORE PUSH1 0x40 SWAP1 KECCAK256 SLOAD PUSH1 0x5 LT DUP1 ISZERO PUSH2 0x179A JUMPI POP PUSH1 0x1 PUSH1 0x1 PUSH1 0xA0 SHL SUB DUP4 AND PUSH1 0x0 SWAP1 DUP2 MSTORE PUSH1 0x76 PUSH1 0x20 MSTORE PUSH1 0x40 SWAP1 KECCAK256 SLOAD PUSH1 0xB GT JUMPDEST ISZERO PUSH2 0x17A8 JUMPI POP PUSH2 0x44C PUSH2 0x78A JUMP JUMPDEST POP PUSH2 0x3E8 PUSH2 0x78A JUMP JUMPDEST PUSH2 0x78A JUMP JUMPDEST DUP2 PUSH1 0x2 SUB PUSH2 0x183C JUMPI PUSH1 0x1 PUSH1 0x1 PUSH1 0xA0 SHL SUB DUP4 AND PUSH1 0x0 SWAP1 DUP2 MSTORE PUSH1 0x75 PUSH1 0x20 MSTORE PUSH1 0x40 SWAP1 KECCAK256 SLOAD PUSH1 0xA LT ISZERO PUSH2 0x17E7 JUMPI POP PUSH1 0x78 PUSH2 0x78A JUMP JUMPDEST PUSH1 0x1 PUSH1 0x1 PUSH1 0xA0 SHL SUB DUP4 AND PUSH1 0x0 SWAP1 DUP2 MSTORE PUSH1 0x75 PUSH1 0x20 MSTORE PUSH1 0x40 SWAP1 KECCAK256 SLOAD PUSH1 0x5 LT DUP1 ISZERO PUSH2 0x1827 JUMPI POP PUSH1 0x1 PUSH1 0x1 PUSH1 0xA0 SHL SUB DUP4 AND PUSH1 0x0 SWAP1 DUP2 MSTORE PUSH1 0x75 PUSH1 0x20 MSTORE PUSH1 0x40 SWAP1 KECCAK256 SLOAD PUSH1 0xB GT JUMPDEST ISZERO PUSH2 0x1834 JUMPI POP PUSH1 0x6E PUSH2 0x78A JUMP JUMPDEST POP PUSH1 0x64 PUSH2 0x78A JUMP JUMPDEST DUP2 PUSH1 0x1 SUB PUSH2 0x78A JUMPI PUSH1 0x1 PUSH1 0x1 PUSH1 0xA0 SHL SUB DUP4 AND PUSH1 0x0 SWAP1 DUP2 MSTORE PUSH1 0x74 PUSH1 0x20 MSTORE PUSH1 0x40 SWAP1 KECCAK256 SLOAD PUSH1 0xA LT ISZERO PUSH2 0x186D JUMPI POP PUSH1 0xC PUSH2 0x78A JUMP JUMPDEST PUSH1 0x1 PUSH1 0x1 PUSH1 0xA0 SHL SUB DUP4 AND PUSH1 0x0 SWAP1 DUP2 MSTORE PUSH1 0x74 PUSH1 0x20 MSTORE PUSH1 0x40 SWAP1 KECCAK256 SLOAD PUSH1 0x5 LT DUP1 ISZERO PUSH2 0x18AD JUMPI POP PUSH1 0x1 PUSH1 0x1 PUSH1 0xA0 SHL SUB DUP4 AND PUSH1 0x0 SWAP1 DUP2 MSTORE PUSH1 0x74 PUSH1 0x20 MSTORE PUSH1 0x40 SWAP1 KECCAK256 SLOAD PUSH1 0xB GT JUMPDEST ISZERO PUSH2 0x18BA JUMPI POP PUSH1 0xB PUSH2 0x78A JUMP JUMPDEST POP PUSH1 0xA PUSH2 0x78A JUMP JUMPDEST PUSH1 0x72 SLOAD PUSH1 0x40 MLOAD PUSH4 0x1C8A1FB7 PUSH1 0xE2 SHL DUP2 MSTORE PUSH1 0x1 PUSH1 0x1 PUSH1 0xA0 SHL SUB DUP7 DUP2 AND PUSH1 0x4 DUP4 ADD MSTORE PUSH1 0x6 PUSH1 0x24 DUP4 ADD MSTORE PUSH1 0x0 SWAP3 AND SWAP1 PUSH4 0x72287EDC SWAP1 PUSH1 0x44 ADD PUSH1 0x0 PUSH1 0x40 MLOAD DUP1 DUP4 SUB DUP2 DUP7 GAS STATICCALL ISZERO DUP1 ISZERO PUSH2 0x1914 JUMPI RETURNDATASIZE PUSH1 0x0 DUP1 RETURNDATACOPY RETURNDATASIZE PUSH1 0x0 REVERT JUMPDEST POP POP POP POP PUSH1 0x40 MLOAD RETURNDATASIZE PUSH1 0x0 DUP3 RETURNDATACOPY PUSH1 0x1F RETURNDATASIZE SWAP1 DUP2 ADD PUSH1 0x1F NOT AND DUP3 ADD PUSH1 0x40 MSTORE PUSH2 0x193C SWAP2 SWAP1 DUP2 ADD SWAP1 PUSH2 0x224B JUMP JUMPDEST SWAP1 POP PUSH1 0x0 JUMPDEST DUP2 MLOAD DUP2 LT ISZERO PUSH2 0x10A1 JUMPI PUSH1 0x6F SLOAD DUP3 MLOAD PUSH1 0x1 PUSH1 0x1 PUSH1 0xA0 SHL SUB SWAP1 SWAP2 AND SWAP1 PUSH4 0xB362725D SWAP1 DUP5 SWAP1 DUP5 SWAP1 DUP2 LT PUSH2 0x1973 JUMPI PUSH2 0x1973 PUSH2 0x21AD JUMP JUMPDEST PUSH1 0x20 MUL PUSH1 0x20 ADD ADD MLOAD PUSH1 0x40 MLOAD DUP3 PUSH4 0xFFFFFFFF AND PUSH1 0xE0 SHL DUP2 MSTORE PUSH1 0x4 ADD PUSH2 0x19A6 SWAP2 SWAP1 PUSH1 0x1 PUSH1 0x1 PUSH1 0xA0 SHL SUB SWAP2 SWAP1 SWAP2 AND DUP2 MSTORE PUSH1 0x20 ADD SWAP1 JUMP JUMPDEST PUSH1 0x20 PUSH1 0x40 MLOAD DUP1 DUP4 SUB DUP2 DUP7 GAS STATICCALL ISZERO DUP1 ISZERO PUSH2 0x19C3 JUMPI RETURNDATASIZE PUSH1 0x0 DUP1 RETURNDATACOPY RETURNDATASIZE PUSH1 0x0 REVERT JUMPDEST POP POP POP POP PUSH1 0x40 MLOAD RETURNDATASIZE PUSH1 0x1F NOT PUSH1 0x1F DUP3 ADD AND DUP3 ADD DUP1 PUSH1 0x40 MSTORE POP DUP2 ADD SWAP1 PUSH2 0x19E7 SWAP2 SWAP1 PUSH2 0x2192 JUMP JUMPDEST ISZERO ISZERO PUSH1 0x1 SUB PUSH2 0x1C27 JUMPI PUSH1 0x0 PUSH2 0x1A3A DUP6 PUSH1 0x77 PUSH1 0x0 DUP7 DUP7 DUP2 MLOAD DUP2 LT PUSH2 0x1A0C JUMPI PUSH2 0x1A0C PUSH2 0x21AD JUMP JUMPDEST PUSH1 0x20 MUL PUSH1 0x20 ADD ADD MLOAD PUSH1 0x1 PUSH1 0x1 PUSH1 0xA0 SHL SUB AND PUSH1 0x1 PUSH1 0x1 PUSH1 0xA0 SHL SUB AND DUP2 MSTORE PUSH1 0x20 ADD SWAP1 DUP2 MSTORE PUSH1 0x20 ADD PUSH1 0x0 KECCAK256 SLOAD PUSH2 0x1CC2 JUMP JUMPDEST SWAP1 POP PUSH1 0x0 PUSH1 0x73 DUP4 DUP2 SLOAD DUP2 LT PUSH2 0x1A51 JUMPI PUSH2 0x1A51 PUSH2 0x21AD JUMP JUMPDEST PUSH1 0x0 SWAP2 DUP3 MSTORE PUSH1 0x20 SWAP1 SWAP2 KECCAK256 ADD SLOAD DUP5 MLOAD PUSH1 0x1 PUSH1 0x1 PUSH1 0xA0 SHL SUB SWAP1 SWAP2 AND SWAP1 PUSH4 0xEF75C386 SWAP1 DUP7 SWAP1 DUP7 SWAP1 DUP2 LT PUSH2 0x1A83 JUMPI PUSH2 0x1A83 PUSH2 0x21AD JUMP JUMPDEST PUSH1 0x20 SWAP1 DUP2 MUL SWAP2 SWAP1 SWAP2 ADD ADD MLOAD PUSH1 0x40 MLOAD PUSH1 0x1 PUSH1 0x1 PUSH1 0xE0 SHL SUB NOT PUSH1 0xE0 DUP5 SWAP1 SHL AND DUP2 MSTORE PUSH1 0x1 PUSH1 0x1 PUSH1 0xA0 SHL SUB SWAP1 SWAP2 AND PUSH1 0x4 DUP3 ADD MSTORE PUSH1 0x24 DUP2 ADD DUP11 SWAP1 MSTORE PUSH1 0x44 DUP2 ADD DUP6 SWAP1 MSTORE PUSH1 0x64 ADD PUSH1 0x20 PUSH1 0x40 MLOAD DUP1 DUP4 SUB DUP2 PUSH1 0x0 DUP8 GAS CALL ISZERO DUP1 ISZERO PUSH2 0x1AE2 JUMPI RETURNDATASIZE PUSH1 0x0 DUP1 RETURNDATACOPY RETURNDATASIZE PUSH1 0x0 REVERT JUMPDEST POP POP POP POP PUSH1 0x40 MLOAD RETURNDATASIZE PUSH1 0x1F NOT PUSH1 0x1F DUP3 ADD AND DUP3 ADD DUP1 PUSH1 0x40 MSTORE POP DUP2 ADD SWAP1 PUSH2 0x1B06 SWAP2 SWAP1 PUSH2 0x221B JUMP JUMPDEST SWAP1 POP PUSH32 0xB94A08333BAF9B3F9B10BC5D885893B4889CD7E9B376C8B5DE26EF8B14FD2D13 DUP6 DUP3 DUP11 DUP8 DUP8 DUP2 MLOAD DUP2 LT PUSH2 0x1B3E JUMPI PUSH2 0x1B3E PUSH2 0x21AD JUMP JUMPDEST PUSH1 0x20 MUL PUSH1 0x20 ADD ADD MLOAD DUP8 PUSH1 0x1 PUSH2 0x1B53 SWAP2 SWAP1 PUSH2 0x2208 JUMP JUMPDEST DUP8 DUP14 PUSH1 0x73 DUP12 DUP2 SLOAD DUP2 LT PUSH2 0x1B68 JUMPI PUSH2 0x1B68 PUSH2 0x21AD JUMP JUMPDEST PUSH1 0x0 SWAP2 DUP3 MSTORE PUSH1 0x20 SWAP2 DUP3 SWAP1 KECCAK256 ADD SLOAD PUSH1 0x40 DUP1 MLOAD PUSH4 0x4231A2C3 PUSH1 0xE0 SHL DUP2 MSTORE SWAP1 MLOAD PUSH1 0x1 PUSH1 0x1 PUSH1 0xA0 SHL SUB SWAP1 SWAP3 AND SWAP3 PUSH4 0x4231A2C3 SWAP3 PUSH1 0x4 DUP1 DUP5 ADD SWAP4 DUP3 SWAP1 SUB ADD DUP2 DUP7 GAS STATICCALL ISZERO DUP1 ISZERO PUSH2 0x1BB6 JUMPI RETURNDATASIZE PUSH1 0x0 DUP1 RETURNDATACOPY RETURNDATASIZE PUSH1 0x0 REVERT JUMPDEST POP POP POP POP PUSH1 0x40 MLOAD RETURNDATASIZE PUSH1 0x1F NOT PUSH1 0x1F DUP3 ADD AND DUP3 ADD DUP1 PUSH1 0x40 MSTORE POP DUP2 ADD SWAP1 PUSH2 0x1BDA SWAP2 SWAP1 PUSH2 0x221B JUMP JUMPDEST PUSH1 0x40 DUP1 MLOAD SWAP9 DUP10 MSTORE PUSH1 0x20 DUP10 ADD SWAP8 SWAP1 SWAP8 MSTORE PUSH1 0x1 PUSH1 0x1 PUSH1 0xA0 SHL SUB SWAP6 DUP7 AND SWAP7 DUP9 ADD SWAP7 SWAP1 SWAP7 MSTORE SWAP4 SWAP1 SWAP3 AND PUSH1 0x60 DUP7 ADD MSTORE PUSH1 0x80 DUP6 ADD MSTORE PUSH1 0xA0 DUP5 ADD MSTORE PUSH1 0xC0 DUP4 ADD MSTORE PUSH1 0xE0 DUP3 ADD MSTORE PUSH2 0x100 ADD PUSH1 0x40 MLOAD DUP1 SWAP2 SUB SWAP1 LOG1 POP POP JUMPDEST DUP1 PUSH2 0x1C31 DUP2 PUSH2 0x21EF JUMP JUMPDEST SWAP2 POP POP PUSH2 0x1941 JUMP JUMPDEST PUSH1 0x66 SLOAD PUSH1 0x40 MLOAD PUSH4 0x140E25AD PUSH1 0xE3 SHL DUP2 MSTORE PUSH1 0x4 DUP2 ADD DUP4 SWAP1 MSTORE PUSH1 0x1 PUSH1 0x1 PUSH1 0xA0 SHL SUB SWAP1 SWAP2 AND SWAP1 PUSH4 0xA0712D68 SWAP1 PUSH1 0x24 ADD PUSH1 0x0 PUSH1 0x40 MLOAD DUP1 DUP4 SUB DUP2 PUSH1 0x0 DUP8 DUP1 EXTCODESIZE ISZERO DUP1 ISZERO PUSH2 0x1C7F JUMPI PUSH1 0x0 DUP1 REVERT JUMPDEST POP GAS CALL ISZERO DUP1 ISZERO PUSH2 0x139A JUMPI RETURNDATASIZE PUSH1 0x0 DUP1 RETURNDATACOPY RETURNDATASIZE PUSH1 0x0 REVERT JUMPDEST PUSH1 0x0 SLOAD PUSH2 0x100 SWAP1 DIV PUSH1 0xFF AND PUSH2 0x1CBA JUMPI PUSH1 0x40 MLOAD PUSH3 0x461BCD PUSH1 0xE5 SHL DUP2 MSTORE PUSH1 0x4 ADD PUSH2 0x5F4 SWAP1 PUSH2 0x22E5 JUMP JUMPDEST PUSH2 0xAF7 PUSH2 0x1D6C JUMP JUMPDEST PUSH1 0x0 DUP3 PUSH1 0x1 SUB PUSH2 0x1CFC JUMPI DUP2 PUSH1 0x1 SUB PUSH2 0x1CDC JUMPI POP PUSH1 0x14 PUSH2 0x78A JUMP JUMPDEST DUP2 PUSH1 0x2 SUB PUSH2 0x1CEC JUMPI POP PUSH1 0x1E PUSH2 0x78A JUMP JUMPDEST DUP2 PUSH1 0x3 SUB PUSH2 0x17B1 JUMPI POP PUSH1 0x28 PUSH2 0x78A JUMP JUMPDEST DUP3 PUSH1 0x2 SUB PUSH2 0x1D34 JUMPI DUP2 PUSH1 0x1 SUB PUSH2 0x1D14 JUMPI POP PUSH1 0x1E PUSH2 0x78A JUMP JUMPDEST DUP2 PUSH1 0x2 SUB PUSH2 0x1D24 JUMPI POP PUSH1 0x2D PUSH2 0x78A JUMP JUMPDEST DUP2 PUSH1 0x3 SUB PUSH2 0x17B1 JUMPI POP PUSH1 0x32 PUSH2 0x78A JUMP JUMPDEST DUP3 PUSH1 0x3 SUB PUSH2 0x78A JUMPI DUP2 PUSH1 0x1 SUB PUSH2 0x1D4C JUMPI POP PUSH1 0x28 PUSH2 0x78A JUMP JUMPDEST DUP2 PUSH1 0x2 SUB PUSH2 0x1D5C JUMPI POP PUSH1 0x3C PUSH2 0x78A JUMP JUMPDEST DUP2 PUSH1 0x3 SUB PUSH2 0x78A JUMPI POP PUSH1 0x50 PUSH2 0x78A JUMP JUMPDEST PUSH1 0x0 SLOAD PUSH2 0x100 SWAP1 DIV PUSH1 0xFF AND PUSH2 0x1D93 JUMPI PUSH1 0x40 MLOAD PUSH3 0x461BCD PUSH1 0xE5 SHL DUP2 MSTORE PUSH1 0x4 ADD PUSH2 0x5F4 SWAP1 PUSH2 0x22E5 JUMP JUMPDEST PUSH2 0xAF7 CALLER PUSH2 0x14A7 JUMP JUMPDEST PUSH1 0x1 PUSH1 0x1 PUSH1 0xA0 SHL SUB DUP2 AND DUP2 EQ PUSH2 0x111F JUMPI PUSH1 0x0 DUP1 REVERT JUMPDEST PUSH1 0x0 DUP1 PUSH1 0x40 DUP4 DUP6 SUB SLT ISZERO PUSH2 0x1DC4 JUMPI PUSH1 0x0 DUP1 REVERT JUMPDEST DUP3 CALLDATALOAD PUSH2 0x1DCF DUP2 PUSH2 0x1D9C JUMP JUMPDEST SWAP5 PUSH1 0x20 SWAP4 SWAP1 SWAP4 ADD CALLDATALOAD SWAP4 POP POP POP JUMP JUMPDEST PUSH1 0x0 PUSH1 0x20 DUP3 DUP5 SUB SLT ISZERO PUSH2 0x1DEF JUMPI PUSH1 0x0 DUP1 REVERT JUMPDEST POP CALLDATALOAD SWAP2 SWAP1 POP JUMP JUMPDEST PUSH1 0x0 PUSH1 0x20 DUP3 DUP5 SUB SLT ISZERO PUSH2 0x1E08 JUMPI PUSH1 0x0 DUP1 REVERT JUMPDEST DUP2 CALLDATALOAD PUSH2 0x1E13 DUP2 PUSH2 0x1D9C JUMP JUMPDEST SWAP4 SWAP3 POP POP POP JUMP JUMPDEST PUSH1 0x0 DUP1 PUSH1 0x40 DUP4 DUP6 SUB SLT ISZERO PUSH2 0x1E2D JUMPI PUSH1 0x0 DUP1 REVERT JUMPDEST POP POP DUP1 CALLDATALOAD SWAP3 PUSH1 0x20 SWAP1 SWAP2 ADD CALLDATALOAD SWAP2 POP JUMP JUMPDEST PUSH4 0x4E487B71 PUSH1 0xE0 SHL PUSH1 0x0 MSTORE PUSH1 0x41 PUSH1 0x4 MSTORE PUSH1 0x24 PUSH1 0x0 REVERT JUMPDEST PUSH1 0x40 MLOAD PUSH1 0x1F DUP3 ADD PUSH1 0x1F NOT AND DUP2 ADD PUSH8 0xFFFFFFFFFFFFFFFF DUP2 GT DUP3 DUP3 LT OR ISZERO PUSH2 0x1E7B JUMPI PUSH2 0x1E7B PUSH2 0x1E3C JUMP JUMPDEST PUSH1 0x40 MSTORE SWAP2 SWAP1 POP JUMP JUMPDEST PUSH1 0x0 PUSH8 0xFFFFFFFFFFFFFFFF DUP3 GT ISZERO PUSH2 0x1E9D JUMPI PUSH2 0x1E9D PUSH2 0x1E3C JUMP JUMPDEST POP PUSH1 0x5 SHL PUSH1 0x20 ADD SWAP1 JUMP JUMPDEST PUSH1 0x0 DUP3 PUSH1 0x1F DUP4 ADD SLT PUSH2 0x1EB8 JUMPI PUSH1 0x0 DUP1 REVERT JUMPDEST DUP2 CALLDATALOAD PUSH1 0x20 PUSH2 0x1ECD PUSH2 0x1EC8 DUP4 PUSH2 0x1E83 JUMP JUMPDEST PUSH2 0x1E52 JUMP JUMPDEST DUP3 DUP2 MSTORE PUSH1 0x5 SWAP3 SWAP1 SWAP3 SHL DUP5 ADD DUP2 ADD SWAP2 DUP2 DUP2 ADD SWAP1 DUP7 DUP5 GT ISZERO PUSH2 0x1EEC JUMPI PUSH1 0x0 DUP1 REVERT JUMPDEST DUP3 DUP7 ADD JUMPDEST DUP5 DUP2 LT ISZERO PUSH2 0x1F10 JUMPI DUP1 CALLDATALOAD PUSH2 0x1F03 DUP2 PUSH2 0x1D9C JUMP JUMPDEST DUP4 MSTORE SWAP2 DUP4 ADD SWAP2 DUP4 ADD PUSH2 0x1EF0 JUMP JUMPDEST POP SWAP7 SWAP6 POP POP POP POP POP POP JUMP JUMPDEST PUSH1 0x0 DUP3 PUSH1 0x1F DUP4 ADD SLT PUSH2 0x1F2C JUMPI PUSH1 0x0 DUP1 REVERT JUMPDEST DUP2 CALLDATALOAD PUSH1 0x20 PUSH2 0x1F3C PUSH2 0x1EC8 DUP4 PUSH2 0x1E83 JUMP JUMPDEST DUP3 DUP2 MSTORE PUSH1 0x5 SWAP3 SWAP1 SWAP3 SHL DUP5 ADD DUP2 ADD SWAP2 DUP2 DUP2 ADD SWAP1 DUP7 DUP5 GT ISZERO PUSH2 0x1F5B JUMPI PUSH1 0x0 DUP1 REVERT JUMPDEST DUP3 DUP7 ADD JUMPDEST DUP5 DUP2 LT ISZERO PUSH2 0x1F10 JUMPI DUP1 CALLDATALOAD DUP4 MSTORE SWAP2 DUP4 ADD SWAP2 DUP4 ADD PUSH2 0x1F5F JUMP JUMPDEST PUSH1 0x0 DUP1 PUSH1 0x0 PUSH1 0x60 DUP5 DUP7 SUB SLT ISZERO PUSH2 0x1F8B JUMPI PUSH1 0x0 DUP1 REVERT JUMPDEST DUP4 CALLDATALOAD PUSH8 0xFFFFFFFFFFFFFFFF DUP1 DUP3 GT ISZERO PUSH2 0x1FA3 JUMPI PUSH1 0x0 DUP1 REVERT JUMPDEST PUSH2 0x1FAF DUP8 DUP4 DUP9 ADD PUSH2 0x1EA7 JUMP JUMPDEST SWAP5 POP PUSH1 0x20 DUP7 ADD CALLDATALOAD SWAP2 POP DUP1 DUP3 GT ISZERO PUSH2 0x1FC5 JUMPI PUSH1 0x0 DUP1 REVERT JUMPDEST PUSH2 0x1FD1 DUP8 DUP4 DUP9 ADD PUSH2 0x1F1B JUMP JUMPDEST SWAP4 POP PUSH1 0x40 DUP7 ADD CALLDATALOAD SWAP2 POP DUP1 DUP3 GT ISZERO PUSH2 0x1FE7 JUMPI PUSH1 0x0 DUP1 REVERT JUMPDEST POP PUSH2 0x1FF4 DUP7 DUP3 DUP8 ADD PUSH2 0x1F1B JUMP JUMPDEST SWAP2 POP POP SWAP3 POP SWAP3 POP SWAP3 JUMP JUMPDEST PUSH1 0x20 DUP1 DUP3 MSTORE DUP3 MLOAD DUP3 DUP3 ADD DUP2 SWAP1 MSTORE PUSH1 0x0 SWAP2 SWAP1 DUP5 DUP3 ADD SWAP1 PUSH1 0x40 DUP6 ADD SWAP1 DUP5 JUMPDEST DUP2 DUP2 LT ISZERO PUSH2 0x2036 JUMPI DUP4 MLOAD DUP4 MSTORE SWAP3 DUP5 ADD SWAP3 SWAP2 DUP5 ADD SWAP2 PUSH1 0x1 ADD PUSH2 0x201A JUMP JUMPDEST POP SWAP1 SWAP7 SWAP6 POP POP POP POP POP POP JUMP JUMPDEST PUSH1 0x0 DUP1 PUSH1 0x40 DUP4 DUP6 SUB SLT ISZERO PUSH2 0x2055 JUMPI PUSH1 0x0 DUP1 REVERT JUMPDEST DUP3 CALLDATALOAD PUSH8 0xFFFFFFFFFFFFFFFF DUP1 DUP3 GT ISZERO PUSH2 0x206D JUMPI PUSH1 0x0 DUP1 REVERT JUMPDEST PUSH2 0x2079 DUP7 DUP4 DUP8 ADD PUSH2 0x1EA7 JUMP JUMPDEST SWAP4 POP PUSH1 0x20 DUP6 ADD CALLDATALOAD SWAP2 POP DUP1 DUP3 GT ISZERO PUSH2 0x208F JUMPI PUSH1 0x0 DUP1 REVERT JUMPDEST POP PUSH2 0x209C DUP6 DUP3 DUP7 ADD PUSH2 0x1F1B JUMP JUMPDEST SWAP2 POP POP SWAP3 POP SWAP3 SWAP1 POP JUMP JUMPDEST PUSH1 0x0 DUP1 PUSH1 0x40 DUP4 DUP6 SUB SLT ISZERO PUSH2 0x20B9 JUMPI PUSH1 0x0 DUP1 REVERT JUMPDEST DUP3 CALLDATALOAD SWAP2 POP PUSH1 0x20 DUP4 ADD CALLDATALOAD PUSH2 0x20CB DUP2 PUSH2 0x1D9C JUMP JUMPDEST DUP1 SWAP2 POP POP SWAP3 POP SWAP3 SWAP1 POP JUMP JUMPDEST PUSH1 0x0 DUP1 PUSH1 0x0 DUP1 PUSH1 0x80 DUP6 DUP8 SUB SLT ISZERO PUSH2 0x20EC JUMPI PUSH1 0x0 DUP1 REVERT JUMPDEST DUP5 CALLDATALOAD PUSH2 0x20F7 DUP2 PUSH2 0x1D9C JUMP JUMPDEST SWAP4 POP PUSH1 0x20 DUP6 ADD CALLDATALOAD PUSH2 0x2107 DUP2 PUSH2 0x1D9C JUMP JUMPDEST SWAP3 POP PUSH1 0x40 DUP6 ADD CALLDATALOAD PUSH2 0x2117 DUP2 PUSH2 0x1D9C JUMP JUMPDEST SWAP2 POP PUSH1 0x60 DUP6 ADD CALLDATALOAD PUSH2 0x2127 DUP2 PUSH2 0x1D9C JUMP JUMPDEST SWAP4 SWAP7 SWAP3 SWAP6 POP SWAP1 SWAP4 POP POP JUMP JUMPDEST PUSH4 0x4E487B71 PUSH1 0xE0 SHL PUSH1 0x0 MSTORE PUSH1 0x11 PUSH1 0x4 MSTORE PUSH1 0x24 PUSH1 0x0 REVERT JUMPDEST PUSH1 0x0 DUP3 PUSH2 0x2165 JUMPI PUSH4 0x4E487B71 PUSH1 0xE0 SHL PUSH1 0x0 MSTORE PUSH1 0x12 PUSH1 0x4 MSTORE PUSH1 0x24 PUSH1 0x0 REVERT JUMPDEST POP DIV SWAP1 JUMP JUMPDEST DUP2 DUP2 SUB DUP2 DUP2 GT ISZERO PUSH2 0x78A JUMPI PUSH2 0x78A PUSH2 0x2132 JUMP JUMPDEST DUP1 MLOAD DUP1 ISZERO ISZERO DUP2 EQ PUSH2 0x218D JUMPI PUSH1 0x0 DUP1 REVERT JUMPDEST SWAP2 SWAP1 POP JUMP JUMPDEST PUSH1 0x0 PUSH1 0x20 DUP3 DUP5 SUB SLT ISZERO PUSH2 0x21A4 JUMPI PUSH1 0x0 DUP1 REVERT JUMPDEST PUSH2 0x1E13 DUP3 PUSH2 0x217D JUMP JUMPDEST PUSH4 0x4E487B71 PUSH1 0xE0 SHL PUSH1 0x0 MSTORE PUSH1 0x32 PUSH1 0x4 MSTORE PUSH1 0x24 PUSH1 0x0 REVERT JUMPDEST PUSH1 0x0 DUP1 PUSH1 0x40 DUP4 DUP6 SUB SLT ISZERO PUSH2 0x21D6 JUMPI PUSH1 0x0 DUP1 REVERT JUMPDEST DUP3 MLOAD SWAP2 POP PUSH2 0x21E6 PUSH1 0x20 DUP5 ADD PUSH2 0x217D JUMP JUMPDEST SWAP1 POP SWAP3 POP SWAP3 SWAP1 POP JUMP JUMPDEST PUSH1 0x0 PUSH1 0x1 DUP3 ADD PUSH2 0x2201 JUMPI PUSH2 0x2201 PUSH2 0x2132 JUMP JUMPDEST POP PUSH1 0x1 ADD SWAP1 JUMP JUMPDEST DUP1 DUP3 ADD DUP1 DUP3 GT ISZERO PUSH2 0x78A JUMPI PUSH2 0x78A PUSH2 0x2132 JUMP JUMPDEST PUSH1 0x0 PUSH1 0x20 DUP3 DUP5 SUB SLT ISZERO PUSH2 0x222D JUMPI PUSH1 0x0 DUP1 REVERT JUMPDEST POP MLOAD SWAP2 SWAP1 POP JUMP JUMPDEST PUSH1 0x0 DUP2 PUSH2 0x2243 JUMPI PUSH2 0x2243 PUSH2 0x2132 JUMP JUMPDEST POP PUSH1 0x0 NOT ADD SWAP1 JUMP JUMPDEST PUSH1 0x0 PUSH1 0x20 DUP1 DUP4 DUP6 SUB SLT ISZERO PUSH2 0x225E JUMPI PUSH1 0x0 DUP1 REVERT JUMPDEST DUP3 MLOAD PUSH8 0xFFFFFFFFFFFFFFFF DUP2 GT ISZERO PUSH2 0x2275 JUMPI PUSH1 0x0 DUP1 REVERT JUMPDEST DUP4 ADD PUSH1 0x1F DUP2 ADD DUP6 SGT PUSH2 0x2286 JUMPI PUSH1 0x0 DUP1 REVERT JUMPDEST DUP1 MLOAD PUSH2 0x2294 PUSH2 0x1EC8 DUP3 PUSH2 0x1E83 JUMP JUMPDEST DUP2 DUP2 MSTORE PUSH1 0x5 SWAP2 SWAP1 SWAP2 SHL DUP3 ADD DUP4 ADD SWAP1 DUP4 DUP2 ADD SWAP1 DUP8 DUP4 GT ISZERO PUSH2 0x22B3 JUMPI PUSH1 0x0 DUP1 REVERT JUMPDEST SWAP3 DUP5 ADD SWAP3 JUMPDEST DUP3 DUP5 LT ISZERO PUSH2 0x22DA JUMPI DUP4 MLOAD PUSH2 0x22CB DUP2 PUSH2 0x1D9C JUMP JUMPDEST DUP3 MSTORE SWAP3 DUP5 ADD SWAP3 SWAP1 DUP5 ADD SWAP1 PUSH2 0x22B8 JUMP JUMPDEST SWAP8 SWAP7 POP POP POP POP POP POP POP JUMP JUMPDEST PUSH1 0x20 DUP1 DUP3 MSTORE PUSH1 0x2B SWAP1 DUP3 ADD MSTORE PUSH32 0x496E697469616C697A61626C653A20636F6E7472616374206973206E6F742069 PUSH1 0x40 DUP3 ADD MSTORE PUSH11 0x6E697469616C697A696E67 PUSH1 0xA8 SHL PUSH1 0x60 DUP3 ADD MSTORE PUSH1 0x80 ADD SWAP1 JUMP INVALID LOG2 PUSH5 0x6970667358 0x22 SLT KECCAK256 0x5D RETURNDATASIZE PUSH28 0x16414E23454C2D74C4447C629CE987E2F7FA1CB45C803BE1F261A525 XOR PUSH5 0x736F6C6343 STOP ADDMOD GT STOP CALLER "
		},
		"gasEstimates": {
			"creation": {
				"codeDepositCost": "1812400",
				"executionCost": "1912",
				"totalCost": "1814312"
			},
			"external": {
				"alphaAccmQty(address)": "2558",
				"ant3Token()": "2448",
				"betaAccmQty(address)": "2624",
				"buyNodesPackage(uint256,uint256)": "infinite",
				"checkQuota()": "infinite",
				"deAnt3Token()": "2448",
				"expireUserOrder(address[],uint256[],uint256[])": "infinite",
				"gammaAccmQty(address)": "2626",
				"generatePromoCode(address[],uint256[])": "infinite",
				"generatePromoCode(uint256,address)": "infinite",
				"getMaxClaimRound()": "2382",
				"getPackagePrice(uint256)": "4669",
				"guardianToken()": "2447",
				"initialize(address,address,address,address)": "infinite",
				"maxClaimRound()": "2341",
				"memberController()": "2383",
				"nodeActiveArray(uint256)": "4705",
				"nodeActiveL1()": "2404",
				"nodeActiveL2()": "2382",
				"nodePassive()": "2427",
				"onERC20Receive(address,uint256)": "infinite",
				"owner()": "2377",
				"packagePrices()": "15143",
				"referralRank(address)": "2579",
				"removeCaller(address)": "29061",
				"renounceOwnership()": "infinite",
				"setCaller(address)": "29114",
				"setDeAntPrice(uint256,uint256)": "24626",
				"setDefaultQuota(uint256,uint256)": "24648",
				"setGuardianPrice(uint256,uint256)": "24658",
				"setMaxClaimRound(uint256)": "24600",
				"setMemberControllerContract(address)": "26861",
				"setNodeActiveContract(address)": "75298",
				"setNodePassiveContract(address)": "26819",
				"today()": "2384",
				"transferOwnership(address)": "infinite",
				"validCaller(address)": "2647"
			},
			"internal": {
				"_addNodeActiveOrders(address,uint256,uint256,uint256)": "infinite",
				"_afterTokenTransfer(address,uint256)": "infinite",
				"_calculateActiveDays(uint256,uint256)": "175",
				"_calculateShares(address,uint256)": "6757",
				"_checkQuota(uint256,uint256,address)": "infinite",
				"_mintAnt3Token(uint256)": "infinite",
				"_setAccumulatedQty(address,uint256)": "24457",
				"_setReferralRank(address,uint256)": "infinite"
			}
		},
		"methodIdentifiers": {
			"alphaAccmQty(address)": "71070aac",
			"ant3Token()": "7d60dc16",
			"betaAccmQty(address)": "efaa0c99",
			"buyNodesPackage(uint256,uint256)": "f27726d9",
			"checkQuota()": "3fea1ade",
			"deAnt3Token()": "bb36aebe",
			"expireUserOrder(address[],uint256[],uint256[])": "37f960da",
			"gammaAccmQty(address)": "1ccbe917",
			"generatePromoCode(address[],uint256[])": "92a3eaf5",
			"generatePromoCode(uint256,address)": "b4f2d277",
			"getMaxClaimRound()": "59d637ac",
			"getPackagePrice(uint256)": "11a0ed9b",
			"guardianToken()": "fa180dc9",
			"initialize(address,address,address,address)": "f8c8765e",
			"maxClaimRound()": "51ec4f56",
			"memberController()": "293baee2",
			"nodeActiveArray(uint256)": "1712d6dc",
			"nodeActiveL1()": "e3664210",
			"nodeActiveL2()": "c29889de",
			"nodePassive()": "2d31a074",
			"onERC20Receive(address,uint256)": "03d93828",
			"owner()": "8da5cb5b",
			"packagePrices()": "79b6340a",
			"referralRank(address)": "f794e8a4",
			"removeCaller(address)": "eef21cd2",
			"renounceOwnership()": "715018a6",
			"setCaller(address)": "beb92f55",
			"setDeAntPrice(uint256,uint256)": "aeabec08",
			"setDefaultQuota(uint256,uint256)": "2a5833ad",
			"setGuardianPrice(uint256,uint256)": "57ac1ab2",
			"setMaxClaimRound(uint256)": "5edcfc7c",
			"setMemberControllerContract(address)": "fce9e70d",
			"setNodeActiveContract(address)": "9aa97be5",
			"setNodePassiveContract(address)": "92c82c37",
			"today()": "b74e452b",
			"transferOwnership(address)": "f2fde38b",
			"validCaller(address)": "804a88f6"
		}
	},
	"abi": [
		{
			"anonymous": false,
			"inputs": [
				{
					"indexed": false,
					"internalType": "address",
					"name": "from",
					"type": "address"
				},
				{
					"indexed": false,
					"internalType": "address",
					"name": "to",
					"type": "address"
				},
				{
					"indexed": false,
					"internalType": "uint256",
					"name": "amount",
					"type": "uint256"
				}
			],
			"name": "ControllerReceivedTokens",
			"type": "event"
		},
		{
			"anonymous": false,
			"inputs": [
				{
					"indexed": false,
					"internalType": "uint8",
					"name": "version",
					"type": "uint8"
				}
			],
			"name": "Initialized",
			"type": "event"
		},
		{
			"anonymous": false,
			"inputs": [
				{
					"indexed": false,
					"internalType": "uint256",
					"name": "fromOrderID",
					"type": "uint256"
				},
				{
					"indexed": false,
					"internalType": "uint256",
					"name": "activeOrderID",
					"type": "uint256"
				},
				{
					"indexed": false,
					"internalType": "address",
					"name": "fromAddress",
					"type": "address"
				},
				{
					"indexed": false,
					"internalType": "address",
					"name": "toAddress",
					"type": "address"
				},
				{
					"indexed": false,
					"internalType": "uint256",
					"name": "level",
					"type": "uint256"
				},
				{
					"indexed": false,
					"internalType": "uint256",
					"name": "daysActive",
					"type": "uint256"
				},
				{
					"indexed": false,
					"internalType": "uint256",
					"name": "shareAmt",
					"type": "uint256"
				},
				{
					"indexed": false,
					"internalType": "uint256",
					"name": "lastRound",
					"type": "uint256"
				}
			],
			"name": "NewActiveOrder",
			"type": "event"
		},
		{
			"anonymous": false,
			"inputs": [
				{
					"indexed": true,
					"internalType": "address",
					"name": "previousOwner",
					"type": "address"
				},
				{
					"indexed": true,
					"internalType": "address",
					"name": "newOwner",
					"type": "address"
				}
			],
			"name": "OwnershipTransferred",
			"type": "event"
		},
		{
			"inputs": [
				{
					"internalType": "address",
					"name": "",
					"type": "address"
				}
			],
			"name": "alphaAccmQty",
			"outputs": [
				{
					"internalType": "uint256",
					"name": "",
					"type": "uint256"
				}
			],
			"stateMutability": "view",
			"type": "function"
		},
		{
			"inputs": [],
			"name": "ant3Token",
			"outputs": [
				{
					"internalType": "contract Ant3Token",
					"name": "",
					"type": "address"
				}
			],
			"stateMutability": "view",
			"type": "function"
		},
		{
			"inputs": [
				{
					"internalType": "address",
					"name": "",
					"type": "address"
				}
			],
			"name": "betaAccmQty",
			"outputs": [
				{
					"internalType": "uint256",
					"name": "",
					"type": "uint256"
				}
			],
			"stateMutability": "view",
			"type": "function"
		},
		{
			"inputs": [
				{
					"internalType": "uint256",
					"name": "packageId",
					"type": "uint256"
				},
				{
					"internalType": "uint256",
					"name": "promoCode",
					"type": "uint256"
				}
			],
			"name": "buyNodesPackage",
			"outputs": [],
			"stateMutability": "nonpayable",
			"type": "function"
		},
		{
			"inputs": [],
			"name": "checkQuota",
			"outputs": [
				{
					"internalType": "uint256[]",
					"name": "",
					"type": "uint256[]"
				}
			],
			"stateMutability": "view",
			"type": "function"
		},
		{
			"inputs": [],
			"name": "deAnt3Token",
			"outputs": [
				{
					"internalType": "contract DeAnt3Token",
					"name": "",
					"type": "address"
				}
			],
			"stateMutability": "view",
			"type": "function"
		},
		{
			"inputs": [
				{
					"internalType": "address[]",
					"name": "userAddress",
					"type": "address[]"
				},
				{
					"internalType": "uint256[]",
					"name": "orderId",
					"type": "uint256[]"
				},
				{
					"internalType": "uint256[]",
					"name": "expireRound",
					"type": "uint256[]"
				}
			],
			"name": "expireUserOrder",
			"outputs": [],
			"stateMutability": "nonpayable",
			"type": "function"
		},
		{
			"inputs": [
				{
					"internalType": "address",
					"name": "",
					"type": "address"
				}
			],
			"name": "gammaAccmQty",
			"outputs": [
				{
					"internalType": "uint256",
					"name": "",
					"type": "uint256"
				}
			],
			"stateMutability": "view",
			"type": "function"
		},
		{
			"inputs": [
				{
					"internalType": "address[]",
					"name": "userAddress",
					"type": "address[]"
				},
				{
					"internalType": "uint256[]",
					"name": "quantity",
					"type": "uint256[]"
				}
			],
			"name": "generatePromoCode",
			"outputs": [],
			"stateMutability": "nonpayable",
			"type": "function"
		},
		{
			"inputs": [
				{
					"internalType": "uint256",
					"name": "quantity",
					"type": "uint256"
				},
				{
					"internalType": "address",
					"name": "userAddress",
					"type": "address"
				}
			],
			"name": "generatePromoCode",
			"outputs": [],
			"stateMutability": "nonpayable",
			"type": "function"
		},
		{
			"inputs": [],
			"name": "getMaxClaimRound",
			"outputs": [
				{
					"internalType": "uint256",
					"name": "",
					"type": "uint256"
				}
			],
			"stateMutability": "view",
			"type": "function"
		},
		{
			"inputs": [
				{
					"internalType": "uint256",
					"name": "packageId",
					"type": "uint256"
				}
			],
			"name": "getPackagePrice",
			"outputs": [
				{
					"internalType": "uint256",
					"name": "deant",
					"type": "uint256"
				},
				{
					"internalType": "uint256",
					"name": "guardian",
					"type": "uint256"
				}
			],
			"stateMutability": "view",
			"type": "function"
		},
		{
			"inputs": [],
			"name": "guardianToken",
			"outputs": [
				{
					"internalType": "contract IERC20Upgradeable",
					"name": "",
					"type": "address"
				}
			],
			"stateMutability": "view",
			"type": "function"
		},
		{
			"inputs": [
				{
					"internalType": "address payable",
					"name": "_deAnt3Token",
					"type": "address"
				},
				{
					"internalType": "address",
					"name": "_ant3Token",
					"type": "address"
				},
				{
					"internalType": "address",
					"name": "_guardianToken",
					"type": "address"
				},
				{
					"internalType": "address",
					"name": "_memberController",
					"type": "address"
				}
			],
			"name": "initialize",
			"outputs": [],
			"stateMutability": "nonpayable",
			"type": "function"
		},
		{
			"inputs": [],
			"name": "maxClaimRound",
			"outputs": [
				{
					"internalType": "uint256",
					"name": "",
					"type": "uint256"
				}
			],
			"stateMutability": "view",
			"type": "function"
		},
		{
			"inputs": [],
			"name": "memberController",
			"outputs": [
				{
					"internalType": "contract IMemberController",
					"name": "",
					"type": "address"
				}
			],
			"stateMutability": "view",
			"type": "function"
		},
		{
			"inputs": [
				{
					"internalType": "uint256",
					"name": "",
					"type": "uint256"
				}
			],
			"name": "nodeActiveArray",
			"outputs": [
				{
					"internalType": "contract INodeActive",
					"name": "",
					"type": "address"
				}
			],
			"stateMutability": "view",
			"type": "function"
		},
		{
			"inputs": [],
			"name": "nodeActiveL1",
			"outputs": [
				{
					"internalType": "contract INodeActive",
					"name": "",
					"type": "address"
				}
			],
			"stateMutability": "view",
			"type": "function"
		},
		{
			"inputs": [],
			"name": "nodeActiveL2",
			"outputs": [
				{
					"internalType": "contract INodeActive",
					"name": "",
					"type": "address"
				}
			],
			"stateMutability": "view",
			"type": "function"
		},
		{
			"inputs": [],
			"name": "nodePassive",
			"outputs": [
				{
					"internalType": "contract INodePassive",
					"name": "",
					"type": "address"
				}
			],
			"stateMutability": "view",
			"type": "function"
		},
		{
			"inputs": [
				{
					"internalType": "address",
					"name": "from",
					"type": "address"
				},
				{
					"internalType": "uint256",
					"name": "amount",
					"type": "uint256"
				}
			],
			"name": "onERC20Receive",
			"outputs": [
				{
					"internalType": "bool",
					"name": "",
					"type": "bool"
				}
			],
			"stateMutability": "nonpayable",
			"type": "function"
		},
		{
			"inputs": [],
			"name": "owner",
			"outputs": [
				{
					"internalType": "address",
					"name": "",
					"type": "address"
				}
			],
			"stateMutability": "view",
			"type": "function"
		},
		{
			"inputs": [],
			"name": "packagePrices",
			"outputs": [
				{
					"internalType": "uint256",
					"name": "alphaDeAntPrice",
					"type": "uint256"
				},
				{
					"internalType": "uint256",
					"name": "alphaGuardianPrice",
					"type": "uint256"
				},
				{
					"internalType": "uint256",
					"name": "betaDeAntPrice",
					"type": "uint256"
				},
				{
					"internalType": "uint256",
					"name": "betaGuardianPrice",
					"type": "uint256"
				},
				{
					"internalType": "uint256",
					"name": "gammaDeAntPrice",
					"type": "uint256"
				},
				{
					"internalType": "uint256",
					"name": "gammaGuardianPrice",
					"type": "uint256"
				},
				{
					"internalType": "uint256",
					"name": "packageId",
					"type": "uint256"
				}
			],
			"stateMutability": "view",
			"type": "function"
		},
		{
			"inputs": [
				{
					"internalType": "address",
					"name": "",
					"type": "address"
				}
			],
			"name": "referralRank",
			"outputs": [
				{
					"internalType": "uint256",
					"name": "",
					"type": "uint256"
				}
			],
			"stateMutability": "view",
			"type": "function"
		},
		{
			"inputs": [
				{
					"internalType": "address",
					"name": "addr",
					"type": "address"
				}
			],
			"name": "removeCaller",
			"outputs": [],
			"stateMutability": "nonpayable",
			"type": "function"
		},
		{
			"inputs": [],
			"name": "renounceOwnership",
			"outputs": [],
			"stateMutability": "nonpayable",
			"type": "function"
		},
		{
			"inputs": [
				{
					"internalType": "address",
					"name": "addr",
					"type": "address"
				}
			],
			"name": "setCaller",
			"outputs": [],
			"stateMutability": "nonpayable",
			"type": "function"
		},
		{
			"inputs": [
				{
					"internalType": "uint256",
					"name": "_packageId",
					"type": "uint256"
				},
				{
					"internalType": "uint256",
					"name": "_newAmt",
					"type": "uint256"
				}
			],
			"name": "setDeAntPrice",
			"outputs": [],
			"stateMutability": "nonpayable",
			"type": "function"
		},
		{
			"inputs": [
				{
					"internalType": "uint256",
					"name": "packageId",
					"type": "uint256"
				},
				{
					"internalType": "uint256",
					"name": "quota",
					"type": "uint256"
				}
			],
			"name": "setDefaultQuota",
			"outputs": [],
			"stateMutability": "nonpayable",
			"type": "function"
		},
		{
			"inputs": [
				{
					"internalType": "uint256",
					"name": "_packageId",
					"type": "uint256"
				},
				{
					"internalType": "uint256",
					"name": "_newAmt",
					"type": "uint256"
				}
			],
			"name": "setGuardianPrice",
			"outputs": [],
			"stateMutability": "nonpayable",
			"type": "function"
		},
		{
			"inputs": [
				{
					"internalType": "uint256",
					"name": "round",
					"type": "uint256"
				}
			],
			"name": "setMaxClaimRound",
			"outputs": [],
			"stateMutability": "nonpayable",
			"type": "function"
		},
		{
			"inputs": [
				{
					"internalType": "address",
					"name": "_memberController",
					"type": "address"
				}
			],
			"name": "setMemberControllerContract",
			"outputs": [],
			"stateMutability": "nonpayable",
			"type": "function"
		},
		{
			"inputs": [
				{
					"internalType": "address",
					"name": "_nodeActiveL1",
					"type": "address"
				}
			],
			"name": "setNodeActiveContract",
			"outputs": [],
			"stateMutability": "nonpayable",
			"type": "function"
		},
		{
			"inputs": [
				{
					"internalType": "address",
					"name": "_nodePassive",
					"type": "address"
				}
			],
			"name": "setNodePassiveContract",
			"outputs": [],
			"stateMutability": "nonpayable",
			"type": "function"
		},
		{
			"inputs": [],
			"name": "today",
			"outputs": [
				{
					"internalType": "uint256",
					"name": "",
					"type": "uint256"
				}
			],
			"stateMutability": "view",
			"type": "function"
		},
		{
			"inputs": [
				{
					"internalType": "address",
					"name": "newOwner",
					"type": "address"
				}
			],
			"name": "transferOwnership",
			"outputs": [],
			"stateMutability": "nonpayable",
			"type": "function"
		},
		{
			"inputs": [
				{
					"internalType": "address",
					"name": "",
					"type": "address"
				}
			],
			"name": "validCaller",
			"outputs": [
				{
					"internalType": "bool",
					"name": "",
					"type": "bool"
				}
			],
			"stateMutability": "view",
			"type": "function"
		}
	]
}